{
  "_format": "hh-sol-artifact-1",
  "contractName": "Library",
  "sourceName": "contracts/Library.sol",
  "abi": [
    {
      "inputs": [],
      "stateMutability": "nonpayable",
      "type": "constructor"
    },
    {
      "inputs": [
        {
          "internalType": "address",
          "name": "user",
          "type": "address"
        }
      ],
      "name": "alredyBorrwing",
      "type": "error"
    },
    {
      "inputs": [],
      "name": "notPaying",
      "type": "error"
    },
    {
      "anonymous": false,
      "inputs": [
        {
          "indexed": true,
          "internalType": "address",
          "name": "previousOwner",
          "type": "address"
        },
        {
          "indexed": true,
          "internalType": "address",
          "name": "newOwner",
          "type": "address"
        }
      ],
      "name": "OwnershipTransferred",
      "type": "event"
    },
    {
      "anonymous": false,
      "inputs": [
        {
          "indexed": false,
          "internalType": "string",
          "name": "isbn",
          "type": "string"
        },
        {
          "indexed": false,
          "internalType": "uint256",
          "name": "copies",
          "type": "uint256"
        }
      ],
      "name": "addedBook",
      "type": "event"
    },
    {
      "anonymous": false,
      "inputs": [
        {
          "indexed": false,
          "internalType": "string",
          "name": "isbn",
          "type": "string"
        },
        {
          "indexed": false,
          "internalType": "uint256",
          "name": "copies",
          "type": "uint256"
        }
      ],
      "name": "addedCopies",
      "type": "event"
    },
    {
      "inputs": [],
      "name": "PRICE",
      "outputs": [
        {
          "internalType": "uint256",
          "name": "",
          "type": "uint256"
        }
      ],
      "stateMutability": "view",
      "type": "function"
    },
    {
      "inputs": [
        {
          "internalType": "string",
          "name": "_isbn",
          "type": "string"
        },
        {
          "internalType": "string",
          "name": "_name",
          "type": "string"
        },
        {
          "internalType": "uint256",
          "name": "_copies",
          "type": "uint256"
        }
      ],
      "name": "addBook",
      "outputs": [],
      "stateMutability": "nonpayable",
      "type": "function"
    },
    {
      "inputs": [
        {
          "internalType": "uint256",
          "name": "",
          "type": "uint256"
        }
      ],
      "name": "books",
      "outputs": [
        {
          "internalType": "string",
          "name": "isbn",
          "type": "string"
        },
        {
          "internalType": "string",
          "name": "name",
          "type": "string"
        },
        {
          "internalType": "uint256",
          "name": "copies",
          "type": "uint256"
        }
      ],
      "stateMutability": "view",
      "type": "function"
    },
    {
      "inputs": [
        {
          "internalType": "uint256",
          "name": "_index",
          "type": "uint256"
        }
      ],
      "name": "borrowBook",
      "outputs": [],
      "stateMutability": "nonpayable",
      "type": "function"
    },
    {
      "inputs": [],
      "name": "buyLIB",
      "outputs": [],
      "stateMutability": "payable",
      "type": "function"
    },
    {
      "inputs": [],
      "name": "count",
      "outputs": [
        {
          "internalType": "uint256",
          "name": "",
          "type": "uint256"
        }
      ],
      "stateMutability": "view",
      "type": "function"
    },
    {
      "inputs": [
        {
          "internalType": "address",
          "name": "",
          "type": "address"
        }
      ],
      "name": "currentlyBorrowing",
      "outputs": [
        {
          "internalType": "uint256",
          "name": "",
          "type": "uint256"
        }
      ],
      "stateMutability": "view",
      "type": "function"
    },
    {
      "inputs": [
        {
          "internalType": "uint256",
          "name": "_i",
          "type": "uint256"
        }
      ],
      "name": "getBook",
      "outputs": [
        {
          "components": [
            {
              "internalType": "string",
              "name": "isbn",
              "type": "string"
            },
            {
              "internalType": "string",
              "name": "name",
              "type": "string"
            },
            {
              "internalType": "uint256",
              "name": "copies",
              "type": "uint256"
            },
            {
              "internalType": "address[]",
              "name": "borrowed",
              "type": "address[]"
            }
          ],
          "internalType": "struct Library.Book",
          "name": "",
          "type": "tuple"
        }
      ],
      "stateMutability": "view",
      "type": "function"
    },
    {
      "inputs": [
        {
          "internalType": "string",
          "name": "",
          "type": "string"
        }
      ],
      "name": "indexes",
      "outputs": [
        {
          "internalType": "uint256",
          "name": "",
          "type": "uint256"
        }
      ],
      "stateMutability": "view",
      "type": "function"
    },
    {
      "inputs": [],
      "name": "owner",
      "outputs": [
        {
          "internalType": "address",
          "name": "",
          "type": "address"
        }
      ],
      "stateMutability": "view",
      "type": "function"
    },
    {
      "inputs": [],
      "name": "renounceOwnership",
      "outputs": [],
      "stateMutability": "nonpayable",
      "type": "function"
    },
    {
      "inputs": [],
      "name": "returnCurrentBook",
      "outputs": [],
      "stateMutability": "nonpayable",
      "type": "function"
    },
    {
      "inputs": [],
      "name": "token",
      "outputs": [
        {
          "internalType": "contract LIB",
          "name": "",
          "type": "address"
        }
      ],
      "stateMutability": "view",
      "type": "function"
    },
    {
      "inputs": [
        {
          "internalType": "address",
          "name": "newOwner",
          "type": "address"
        }
      ],
      "name": "transferOwnership",
      "outputs": [],
      "stateMutability": "nonpayable",
      "type": "function"
    },
    {
      "inputs": [],
      "name": "withdraw",
      "outputs": [],
      "stateMutability": "payable",
      "type": "function"
    }
  ],
  "bytecode": "0x60c0604052662386f26fc1000060a05234801561001b57600080fd5b5061002533610063565b604051610031906100b3565b604051809103906000f08015801561004d573d6000803e3d6000fd5b5060601b6001600160601b0319166080526100c0565b600080546001600160a01b038381166001600160a01b0319831681178455604051919092169283917f8be0079c531659141344cd1fd0a4f28419497f9722a3daafe3b4186f6b6457e09190a35050565b611c7b8061175883390190565b60805160601c60a05161162a61012e600039600081816102030152818161096b01528181610ae60152610beb0152600081816102eb015281816105e5015281816106c0015281816108c20152818161098e01528181610b0801528181610c110152610d4f015261162a6000f3fe6080604052600436106100e85760003560e01c80637e490a9e1161008a578063aa68cf7111610059578063aa68cf7114610284578063e0ff5b8b1461028c578063f2fde38b146102b9578063fc0c546a146102d957600080fd5b80637e490a9e146101d15780638d859f3e146101f15780638da5cb5b14610225578063901dec821461025757600080fd5b80632427e59e116100c65780632427e59e1461014d5780633ccfd60b14610185578063687440461461018d578063715018a6146101bc57600080fd5b806304266224146100ed57806306661abd1461010f57806310319fcc14610138575b600080fd5b3480156100f957600080fd5b5061010d610108366004611276565b61030d565b005b34801561011b57600080fd5b5061012560015481565b6040519081526020015b60405180910390f35b34801561014457600080fd5b5061010d61053f565b34801561015957600080fd5b506101256101683660046112e7565b805160208183018101805160038252928201919093012091525481565b61010d6105c5565b34801561019957600080fd5b506101ad6101a8366004611391565b610772565b60405161012f93929190611454565b3480156101c857600080fd5b5061010d6108a4565b3480156101dd57600080fd5b5061010d6101ec366004611391565b6108b8565b3480156101fd57600080fd5b506101257f000000000000000000000000000000000000000000000000000000000000000081565b34801561023157600080fd5b506000546001600160a01b03165b6040516001600160a01b03909116815260200161012f565b34801561026357600080fd5b50610125610272366004611228565b60026020526000908152604090205481565b61010d610cf2565b34801561029857600080fd5b506102ac6102a7366004611391565b610db5565b60405161012f919061148a565b3480156102c557600080fd5b5061010d6102d4366004611228565b610fd0565b3480156102e557600080fd5b5061023f7f000000000000000000000000000000000000000000000000000000000000000081565b610315611049565b6003858560405161032792919061140c565b9081526020016040518091039020546000146103c95780600460006003888860405161035492919061140c565b908152602001604051809103902054815260200190815260200160002060020160008282546103839190611524565b90915550506040517f1c59ae2fc2d4d8fd587dd73c1193e81642fde8135d41b10c3325d3d1985f05ab906103bc9087908790859061141c565b60405180910390a1610538565b6001600081546103d8906115ad565b909155506040805160a06020601f880181900402820181019092526080810186815290918291908890889081908501838280828437600092019190915250505090825250604080516020601f8701819004810282018101909252858152918101919086908690819084018382808284376000920182905250938552505050602080830185905260408051838152808301825293810193909352600154825260048152919020825180519192610492928492909101906110f3565b5060208281015180516104ab92600185019201906110f3565b5060408201516002820155606082015180516104d1916003840191602090910190611177565b50905050600154600386866040516104ea92919061140c565b9081526020016040518091039020819055507f5e5c09fb592e65b4897c25cb4a0597b46a9df6a8a9c1ace81148602e3166dfd485858360405161052f9392919061141c565b60405180910390a15b5050505050565b33600090815260026020526040902054806105905760405162461bcd60e51b815260206004820152600c60248201526b6e6f7420626f72726f776e6760a01b60448201526064015b60405180910390fd5b336000908152600260208181526040808420849055848452600490915282200180549091906105be906115ad565b9091555050565b6105cd611049565b6040516370a0823160e01b81523060048201526000907f00000000000000000000000000000000000000000000000000000000000000006001600160a01b0316906370a082319060240160206040518083038186803b15801561062f57600080fd5b505afa158015610643573d6000803e3d6000fd5b505050506040513d601f19601f8201168201806040525081019061066791906113a9565b9050600081116106aa5760405162461bcd60e51b815260206004820152600e60248201526d6e6f20746f6b656e73206865726560901b6044820152606401610587565b604051630852cd8d60e31b8152600481018290527f00000000000000000000000000000000000000000000000000000000000000006001600160a01b0316906342966c6890602401600060405180830381600087803b15801561070c57600080fd5b505af1158015610720573d6000803e3d6000fd5b505050506107366000546001600160a01b031690565b6001600160a01b03166108fc479081150290604051600060405180830381858888f1935050505015801561076e573d6000803e3d6000fd5b5050565b60046020526000908152604090208054819061078d90611572565b80601f01602080910402602001604051908101604052809291908181526020018280546107b990611572565b80156108065780601f106107db57610100808354040283529160200191610806565b820191906000526020600020905b8154815290600101906020018083116107e957829003601f168201915b50505050509080600101805461081b90611572565b80601f016020809104026020016040519081016040528092919081815260200182805461084790611572565b80156108945780601f1061086957610100808354040283529160200191610894565b820191906000526020600020905b81548152906001019060200180831161087757829003601f168201915b5050505050908060020154905083565b6108ac611049565b6108b660006110a3565b565b6001600160a01b037f0000000000000000000000000000000000000000000000000000000000000000166340c10f19306108fa662386f26fc10000600a61153c565b6040516001600160e01b031960e085901b1681526001600160a01b0390921660048301526024820152604401600060405180830381600087803b15801561094057600080fd5b505af1158015610954573d6000803e3d6000fd5b50506040516370a0823160e01b81523360048201527f000000000000000000000000000000000000000000000000000000000000000092507f00000000000000000000000000000000000000000000000000000000000000006001600160a01b031691506370a082319060240160206040518083038186803b1580156109d957600080fd5b505afa1580156109ed573d6000803e3d6000fd5b505050506040513d601f19601f82011682018060405250810190610a1191906113a9565b1015610a505760405162461bcd60e51b815260206004820152600e60248201526d3737ba1032b737bab3b4102624a160911b6044820152606401610587565b3360009081526002602052604090205415610a805760405163af162d1b60e01b8152336004820152602401610587565b60008181526004602052604090206002810154610ad15760405162461bcd60e51b815260206004820152600f60248201526e1e995c9bc8189bdbdadcc81b19599d608a1b6044820152606401610587565b6040516370a0823160e01b81523360048201527f0000000000000000000000000000000000000000000000000000000000000000907f00000000000000000000000000000000000000000000000000000000000000006001600160a01b0316906370a082319060240160206040518083038186803b158015610b5257600080fd5b505afa158015610b66573d6000803e3d6000fd5b505050506040513d601f19601f82011682018060405250810190610b8a91906113a9565b11610bd05760405162461bcd60e51b8152602060048201526016602482015275646f65736e742068617665204c49422048455245454560501b6044820152606401610587565b6040516323b872dd60e01b81523360048201523060248201527f000000000000000000000000000000000000000000000000000000000000000060448201527f00000000000000000000000000000000000000000000000000000000000000006001600160a01b0316906323b872dd90606401602060405180830381600087803b158015610c5d57600080fd5b505af1158015610c71573d6000803e3d6000fd5b505050506040513d601f19601f82011682018060405250810190610c959190611256565b508060020160008154610ca79061155b565b909155505033600081815260026020908152604080832085905593825260048152928120600301805460018101825590825292902090910180546001600160a01b0319169091179055565b60003411610d345760405162461bcd60e51b815260206004820152600f60248201526e0f8c081dd95a481c995c5d5a5c9959608a1b6044820152606401610587565b6040516340c10f1960e01b81523360048201523460248201527f00000000000000000000000000000000000000000000000000000000000000006001600160a01b0316906340c10f1990604401600060405180830381600087803b158015610d9b57600080fd5b505af1158015610daf573d6000803e3d6000fd5b50505050565b610de06040518060800160405280606081526020016060815260200160008152602001606081525090565b600154821115610e215760405162461bcd60e51b815260206004820152600c60248201526b6e6f7420696e2072616e676560a01b6044820152606401610587565b60008281526004602052604090819020815160808101909252805482908290610e4990611572565b80601f0160208091040260200160405190810160405280929190818152602001828054610e7590611572565b8015610ec25780601f10610e9757610100808354040283529160200191610ec2565b820191906000526020600020905b815481529060010190602001808311610ea557829003601f168201915b50505050508152602001600182018054610edb90611572565b80601f0160208091040260200160405190810160405280929190818152602001828054610f0790611572565b8015610f545780601f10610f2957610100808354040283529160200191610f54565b820191906000526020600020905b815481529060010190602001808311610f3757829003601f168201915b505050505081526020016002820154815260200160038201805480602002602001604051908101604052809291908181526020018280548015610fc057602002820191906000526020600020905b81546001600160a01b03168152600190910190602001808311610fa2575b5050505050815250509050919050565b610fd8611049565b6001600160a01b03811661103d5760405162461bcd60e51b815260206004820152602660248201527f4f776e61626c653a206e6577206f776e657220697320746865207a65726f206160448201526564647265737360d01b6064820152608401610587565b611046816110a3565b50565b6000546001600160a01b031633146108b65760405162461bcd60e51b815260206004820181905260248201527f4f776e61626c653a2063616c6c6572206973206e6f7420746865206f776e65726044820152606401610587565b600080546001600160a01b038381166001600160a01b0319831681178455604051919092169283917f8be0079c531659141344cd1fd0a4f28419497f9722a3daafe3b4186f6b6457e09190a35050565b8280546110ff90611572565b90600052602060002090601f0160209004810192826111215760008555611167565b82601f1061113a57805160ff1916838001178555611167565b82800160010185558215611167579182015b8281111561116757825182559160200191906001019061114c565b506111739291506111cc565b5090565b828054828255906000526020600020908101928215611167579160200282015b8281111561116757825182546001600160a01b0319166001600160a01b03909116178255602090920191600190910190611197565b5b8082111561117357600081556001016111cd565b60008083601f8401126111f2578081fd5b50813567ffffffffffffffff811115611209578182fd5b60208301915083602082850101111561122157600080fd5b9250929050565b600060208284031215611239578081fd5b81356001600160a01b038116811461124f578182fd5b9392505050565b600060208284031215611267578081fd5b8151801515811461124f578182fd5b60008060008060006060868803121561128d578081fd5b853567ffffffffffffffff808211156112a4578283fd5b6112b089838a016111e1565b909750955060208801359150808211156112c8578283fd5b506112d5888289016111e1565b96999598509660400135949350505050565b6000602082840312156112f8578081fd5b813567ffffffffffffffff8082111561130f578283fd5b818401915084601f830112611322578283fd5b813581811115611334576113346115de565b604051601f8201601f19908116603f0116810190838211818310171561135c5761135c6115de565b81604052828152876020848701011115611374578586fd5b826020860160208301379182016020019490945295945050505050565b6000602082840312156113a2578081fd5b5035919050565b6000602082840312156113ba578081fd5b5051919050565b60008151808452815b818110156113e6576020818501810151868301820152016113ca565b818111156113f75782602083870101525b50601f01601f19169290920160200192915050565b8183823760009101908152919050565b6040815282604082015282846060830137600080606085840101526060601f19601f8601168301019050826020830152949350505050565b60608152600061146760608301866113c1565b828103602084015261147981866113c1565b915050826040830152949350505050565b6000602080835283516080828501526114a660a08501826113c1565b905081850151601f19808684030160408701526114c383836113c1565b60408801516060888101919091528801518782039092016080880152815180825291850193508592508401905b808310156115195783516001600160a01b031682529284019260019290920191908401906114f0565b509695505050505050565b60008219821115611537576115376115c8565b500190565b6000816000190483118215151615611556576115566115c8565b500290565b60008161156a5761156a6115c8565b506000190190565b600181811c9082168061158657607f821691505b602082108114156115a757634e487b7160e01b600052602260045260246000fd5b50919050565b60006000198214156115c1576115c16115c8565b5060010190565b634e487b7160e01b600052601160045260246000fd5b634e487b7160e01b600052604160045260246000fdfea264697066735822122022c101afe55db05b85cb8526f8a718e887417d254211b0aaacd0d264cb7a987c64736f6c6343000804003360806040523480156200001157600080fd5b50604080518082018252600d81526c2634b13930b93c902a37b5b2b760991b6020808301918252835180850190945260038452622624a160e91b9084015281519192918391839162000066916005916200025b565b5080516200007c9060069060208401906200025b565b50506007805460ff191690555062000096600033620000f6565b620000c27f9f2df0fed2c77648de5860a4cc508cd0818c85b8b8a1ab4ceeef8d981c8956a633620000f6565b620000ee7f65d7a28e3265b37a6474929f336521b332c1681b933f6cb9f3376673440d862a33620000f6565b50506200033e565b62000102828262000106565b5050565b6200011d82826200014960201b6200093d1760201c565b600082815260016020908152604090912062000144918390620009c1620001e9821b17901c565b505050565b6000828152602081815260408083206001600160a01b038516845290915290205460ff1662000102576000828152602081815260408083206001600160a01b03851684529091529020805460ff19166001179055620001a53390565b6001600160a01b0316816001600160a01b0316837f2f8788117e7eff1d82e926ec794901d17c78024a50270940304540a733656f0d60405160405180910390a45050565b600062000200836001600160a01b03841662000209565b90505b92915050565b6000818152600183016020526040812054620002525750815460018181018455600084815260208082209093018490558454848252828601909352604090209190915562000203565b50600062000203565b828054620002699062000301565b90600052602060002090601f0160209004810192826200028d5760008555620002d8565b82601f10620002a857805160ff1916838001178555620002d8565b82800160010185558215620002d8579182015b82811115620002d8578251825591602001919060010190620002bb565b50620002e6929150620002ea565b5090565b5b80821115620002e65760008155600101620002eb565b600181811c908216806200031657607f821691505b602082108114156200033857634e487b7160e01b600052602260045260246000fd5b50919050565b61192d806200034e6000396000f3fe608060405234801561001057600080fd5b50600436106101c45760003560e01c806370a08231116100f9578063a457c2d711610097578063d539139311610071578063d5391393146103af578063d547741f146103d6578063dd62ed3e146103e9578063e63ab1e9146103fc57600080fd5b8063a457c2d714610376578063a9059cbb14610389578063ca15c8731461039c57600080fd5b80639010d07c116100d35780639010d07c1461032857806391d148541461035357806395d89b4114610366578063a217fddf1461036e57600080fd5b806370a08231146102e457806379cc67901461030d5780638456cb591461032057600080fd5b8063313ce567116101665780633f4ba83a116101405780633f4ba83a146102ab57806340c10f19146102b357806342966c68146102c65780635c975abb146102d957600080fd5b8063313ce5671461027657806336568abe14610285578063395093511461029857600080fd5b806318160ddd116101a257806318160ddd1461021957806323b872dd1461022b578063248a9ca31461023e5780632f2ff15d1461026157600080fd5b806301ffc9a7146101c957806306fdde03146101f1578063095ea7b314610206575b600080fd5b6101dc6101d7366004611745565b610423565b60405190151581526020015b60405180910390f35b6101f961044e565b6040516101e891906117e2565b6101dc6102143660046116c1565b6104e0565b6004545b6040519081526020016101e8565b6101dc610239366004611686565b6104f8565b61021d61024c3660046116ea565b60009081526020819052604090206001015490565b61027461026f366004611702565b61051c565b005b604051601281526020016101e8565b610274610293366004611702565b610546565b6101dc6102a63660046116c1565b6105c9565b6102746105eb565b6102746102c13660046116c1565b610691565b6102746102d43660046116ea565b610730565b60075460ff166101dc565b61021d6102f236600461163a565b6001600160a01b031660009081526002602052604090205490565b61027461031b3660046116c1565b61073d565b610274610752565b61033b610336366004611724565b6107f6565b6040516001600160a01b0390911681526020016101e8565b6101dc610361366004611702565b610815565b6101f961083e565b61021d600081565b6101dc6103843660046116c1565b61084d565b6101dc6103973660046116c1565b6108c8565b61021d6103aa3660046116ea565b6108d6565b61021d7f9f2df0fed2c77648de5860a4cc508cd0818c85b8b8a1ab4ceeef8d981c8956a681565b6102746103e4366004611702565b6108ed565b61021d6103f7366004611654565b610912565b61021d7f65d7a28e3265b37a6474929f336521b332c1681b933f6cb9f3376673440d862a81565b60006001600160e01b03198216635a05180f60e01b14806104485750610448826109d6565b92915050565b60606005805461045d906118a6565b80601f0160208091040260200160405190810160405280929190818152602001828054610489906118a6565b80156104d65780601f106104ab576101008083540402835291602001916104d6565b820191906000526020600020905b8154815290600101906020018083116104b957829003601f168201915b5050505050905090565b6000336104ee818585610a0b565b5060019392505050565b600033610506858285610b2f565b610511858585610ba9565b506001949350505050565b60008281526020819052604090206001015461053781610d82565b6105418383610d8c565b505050565b6001600160a01b03811633146105bb5760405162461bcd60e51b815260206004820152602f60248201527f416363657373436f6e74726f6c3a2063616e206f6e6c792072656e6f756e636560448201526e103937b632b9903337b91039b2b63360891b60648201526084015b60405180910390fd5b6105c58282610dae565b5050565b6000336104ee8185856105dc8383610912565b6105e69190611815565b610a0b565b6106157f65d7a28e3265b37a6474929f336521b332c1681b933f6cb9f3376673440d862a33610815565b6106875760405162461bcd60e51b815260206004820152603960248201527f45524332305072657365744d696e7465725061757365723a206d75737420686160448201527f76652070617573657220726f6c6520746f20756e70617573650000000000000060648201526084016105b2565b61068f610dd0565b565b6106bb7f9f2df0fed2c77648de5860a4cc508cd0818c85b8b8a1ab4ceeef8d981c8956a633610815565b6107265760405162461bcd60e51b815260206004820152603660248201527f45524332305072657365744d696e7465725061757365723a206d7573742068616044820152751d99481b5a5b9d195c881c9bdb19481d1bc81b5a5b9d60521b60648201526084016105b2565b6105c58282610e22565b61073a3382610f0d565b50565b610748823383610b2f565b6105c58282610f0d565b61077c7f65d7a28e3265b37a6474929f336521b332c1681b933f6cb9f3376673440d862a33610815565b6107ee5760405162461bcd60e51b815260206004820152603760248201527f45524332305072657365744d696e7465725061757365723a206d75737420686160448201527f76652070617573657220726f6c6520746f20706175736500000000000000000060648201526084016105b2565b61068f611067565b600082815260016020526040812061080e90836110a4565b9392505050565b6000918252602082815260408084206001600160a01b0393909316845291905290205460ff1690565b60606006805461045d906118a6565b6000338161085b8286610912565b9050838110156108bb5760405162461bcd60e51b815260206004820152602560248201527f45524332303a2064656372656173656420616c6c6f77616e63652062656c6f77604482015264207a65726f60d81b60648201526084016105b2565b6105118286868403610a0b565b6000336104ee818585610ba9565b6000818152600160205260408120610448906110b0565b60008281526020819052604090206001015461090881610d82565b6105418383610dae565b6001600160a01b03918216600090815260036020908152604080832093909416825291909152205490565b6109478282610815565b6105c5576000828152602081815260408083206001600160a01b03851684529091529020805460ff1916600117905561097d3390565b6001600160a01b0316816001600160a01b0316837f2f8788117e7eff1d82e926ec794901d17c78024a50270940304540a733656f0d60405160405180910390a45050565b600061080e836001600160a01b0384166110ba565b60006001600160e01b03198216637965db0b60e01b148061044857506301ffc9a760e01b6001600160e01b0319831614610448565b6001600160a01b038316610a6d5760405162461bcd60e51b8152602060048201526024808201527f45524332303a20617070726f76652066726f6d20746865207a65726f206164646044820152637265737360e01b60648201526084016105b2565b6001600160a01b038216610ace5760405162461bcd60e51b815260206004820152602260248201527f45524332303a20617070726f766520746f20746865207a65726f206164647265604482015261737360f01b60648201526084016105b2565b6001600160a01b0383811660008181526003602090815260408083209487168084529482529182902085905590518481527f8c5be1e5ebec7d5bd14f71427d1e84f3dd0314c0f7b2291e5b200ac8c7c3b925910160405180910390a3505050565b6000610b3b8484610912565b90506000198114610ba35781811015610b965760405162461bcd60e51b815260206004820152601d60248201527f45524332303a20696e73756666696369656e7420616c6c6f77616e636500000060448201526064016105b2565b610ba38484848403610a0b565b50505050565b6001600160a01b038316610c0d5760405162461bcd60e51b815260206004820152602560248201527f45524332303a207472616e736665722066726f6d20746865207a65726f206164604482015264647265737360d81b60648201526084016105b2565b6001600160a01b038216610c6f5760405162461bcd60e51b815260206004820152602360248201527f45524332303a207472616e7366657220746f20746865207a65726f206164647260448201526265737360e81b60648201526084016105b2565b610c7a838383611109565b6001600160a01b03831660009081526002602052604090205481811015610cf25760405162461bcd60e51b815260206004820152602660248201527f45524332303a207472616e7366657220616d6f756e7420657863656564732062604482015265616c616e636560d01b60648201526084016105b2565b6001600160a01b03808516600090815260026020526040808220858503905591851681529081208054849290610d29908490611815565b92505081905550826001600160a01b0316846001600160a01b03167fddf252ad1be2c89b69c2b068fc378daa952ba7f163c4a11628f55a4df523b3ef84604051610d7591815260200190565b60405180910390a3610ba3565b61073a8133611114565b610d96828261093d565b600082815260016020526040902061054190826109c1565b610db88282611178565b600082815260016020526040902061054190826111dd565b610dd86111f2565b6007805460ff191690557f5db9ee0a495bf2e6ff9c91a7834c1ba4fdd244a5e8aa4e537bd38aeae4b073aa335b6040516001600160a01b03909116815260200160405180910390a1565b6001600160a01b038216610e785760405162461bcd60e51b815260206004820152601f60248201527f45524332303a206d696e7420746f20746865207a65726f20616464726573730060448201526064016105b2565b610e8460008383611109565b8060046000828254610e969190611815565b90915550506001600160a01b03821660009081526002602052604081208054839290610ec3908490611815565b90915550506040518181526001600160a01b038316906000907fddf252ad1be2c89b69c2b068fc378daa952ba7f163c4a11628f55a4df523b3ef9060200160405180910390a35050565b6001600160a01b038216610f6d5760405162461bcd60e51b815260206004820152602160248201527f45524332303a206275726e2066726f6d20746865207a65726f206164647265736044820152607360f81b60648201526084016105b2565b610f7982600083611109565b6001600160a01b03821660009081526002602052604090205481811015610fed5760405162461bcd60e51b815260206004820152602260248201527f45524332303a206275726e20616d6f756e7420657863656564732062616c616e604482015261636560f01b60648201526084016105b2565b6001600160a01b038316600090815260026020526040812083830390556004805484929061101c90849061184c565b90915550506040518281526000906001600160a01b038516907fddf252ad1be2c89b69c2b068fc378daa952ba7f163c4a11628f55a4df523b3ef9060200160405180910390a3505050565b61106f61123b565b6007805460ff191660011790557f62e78cea01bee320cd4e420270b5ea74000d11b0c9f74754ebdbfc544b05a258610e053390565b600061080e8383611281565b6000610448825490565b600081815260018301602052604081205461110157508154600181810184556000848152602080822090930184905584548482528286019093526040902091909155610448565b506000610448565b6105418383836112b9565b61111e8282610815565b6105c557611136816001600160a01b0316601461131f565b61114183602061131f565b60405160200161115292919061176d565b60408051601f198184030181529082905262461bcd60e51b82526105b2916004016117e2565b6111828282610815565b156105c5576000828152602081815260408083206001600160a01b0385168085529252808320805460ff1916905551339285917ff6391f5c32d9c69d2a47ea670b442974b53935d1edc7fd64eb21e047a839171b9190a45050565b600061080e836001600160a01b038416611501565b60075460ff1661068f5760405162461bcd60e51b815260206004820152601460248201527314185d5cd8589b194e881b9bdd081c185d5cd95960621b60448201526064016105b2565b60075460ff161561068f5760405162461bcd60e51b815260206004820152601060248201526f14185d5cd8589b194e881c185d5cd95960821b60448201526064016105b2565b60008260000182815481106112a657634e487b7160e01b600052603260045260246000fd5b9060005260206000200154905092915050565b60075460ff16156105415760405162461bcd60e51b815260206004820152602a60248201527f45524332305061757361626c653a20746f6b656e207472616e736665722077686044820152691a5b19481c185d5cd95960b21b60648201526084016105b2565b6060600061132e83600261182d565b611339906002611815565b67ffffffffffffffff81111561135f57634e487b7160e01b600052604160045260246000fd5b6040519080825280601f01601f191660200182016040528015611389576020820181803683370190505b509050600360fc1b816000815181106113b257634e487b7160e01b600052603260045260246000fd5b60200101906001600160f81b031916908160001a905350600f60fb1b816001815181106113ef57634e487b7160e01b600052603260045260246000fd5b60200101906001600160f81b031916908160001a905350600061141384600261182d565b61141e906001611815565b90505b60018111156114b2576f181899199a1a9b1b9c1cb0b131b232b360811b85600f166010811061146057634e487b7160e01b600052603260045260246000fd5b1a60f81b82828151811061148457634e487b7160e01b600052603260045260246000fd5b60200101906001600160f81b031916908160001a90535060049490941c936114ab8161188f565b9050611421565b50831561080e5760405162461bcd60e51b815260206004820181905260248201527f537472696e67733a20686578206c656e67746820696e73756666696369656e7460448201526064016105b2565b6000818152600183016020526040812054801561161457600061152560018361184c565b85549091506000906115399060019061184c565b90508181146115ba57600086600001828154811061156757634e487b7160e01b600052603260045260246000fd5b906000526020600020015490508087600001848154811061159857634e487b7160e01b600052603260045260246000fd5b6000918252602080832090910192909255918252600188019052604090208390555b85548690806115d957634e487b7160e01b600052603160045260246000fd5b600190038181906000526020600020016000905590558560010160008681526020019081526020016000206000905560019350505050610448565b6000915050610448565b80356001600160a01b038116811461163557600080fd5b919050565b60006020828403121561164b578081fd5b61080e8261161e565b60008060408385031215611666578081fd5b61166f8361161e565b915061167d6020840161161e565b90509250929050565b60008060006060848603121561169a578081fd5b6116a38461161e565b92506116b16020850161161e565b9150604084013590509250925092565b600080604083850312156116d3578182fd5b6116dc8361161e565b946020939093013593505050565b6000602082840312156116fb578081fd5b5035919050565b60008060408385031215611714578182fd5b8235915061167d6020840161161e565b60008060408385031215611736578182fd5b50508035926020909101359150565b600060208284031215611756578081fd5b81356001600160e01b03198116811461080e578182fd5b7f416363657373436f6e74726f6c3a206163636f756e74200000000000000000008152600083516117a5816017850160208801611863565b7001034b99036b4b9b9b4b733903937b6329607d1b60179184019182015283516117d6816028840160208801611863565b01602801949350505050565b6020815260008251806020840152611801816040850160208701611863565b601f01601f19169190910160400192915050565b60008219821115611828576118286118e1565b500190565b6000816000190483118215151615611847576118476118e1565b500290565b60008282101561185e5761185e6118e1565b500390565b60005b8381101561187e578181015183820152602001611866565b83811115610ba35750506000910152565b60008161189e5761189e6118e1565b506000190190565b600181811c908216806118ba57607f821691505b602082108114156118db57634e487b7160e01b600052602260045260246000fd5b50919050565b634e487b7160e01b600052601160045260246000fdfea2646970667358221220aaa1d1dfb97af867f28e280b9d31f972b6f62ef0260050d9610400904ffa2e5164736f6c63430008040033",
  "linkReferences": {},
  "deployedLinkReferences": {}
}