{
  "_format": "hh-sol-artifact-1",
  "contractName": "Library",
  "sourceName": "contracts/Library.sol",
  "abi": [
    {
      "inputs": [],
      "stateMutability": "nonpayable",
      "type": "constructor"
    },
    {
      "inputs": [
        {
          "internalType": "address",
          "name": "user",
          "type": "address"
        }
      ],
      "name": "alredyBorrwing",
      "type": "error"
    },
    {
      "inputs": [],
      "name": "notPaying",
      "type": "error"
    },
    {
      "anonymous": false,
      "inputs": [
        {
          "indexed": true,
          "internalType": "address",
          "name": "previousOwner",
          "type": "address"
        },
        {
          "indexed": true,
          "internalType": "address",
          "name": "newOwner",
          "type": "address"
        }
      ],
      "name": "OwnershipTransferred",
      "type": "event"
    },
    {
      "anonymous": false,
      "inputs": [
        {
          "indexed": false,
          "internalType": "string",
          "name": "isbn",
          "type": "string"
        },
        {
          "indexed": false,
          "internalType": "uint256",
          "name": "copies",
          "type": "uint256"
        }
      ],
      "name": "addedBook",
      "type": "event"
    },
    {
      "anonymous": false,
      "inputs": [
        {
          "indexed": false,
          "internalType": "string",
          "name": "isbn",
          "type": "string"
        },
        {
          "indexed": false,
          "internalType": "uint256",
          "name": "copies",
          "type": "uint256"
        }
      ],
      "name": "addedCopies",
      "type": "event"
    },
    {
      "inputs": [],
      "name": "PRICE",
      "outputs": [
        {
          "internalType": "uint256",
          "name": "",
          "type": "uint256"
        }
      ],
      "stateMutability": "view",
      "type": "function"
    },
    {
      "inputs": [
        {
          "internalType": "string",
          "name": "_isbn",
          "type": "string"
        },
        {
          "internalType": "string",
          "name": "_name",
          "type": "string"
        },
        {
          "internalType": "uint256",
          "name": "_copies",
          "type": "uint256"
        }
      ],
      "name": "addBook",
      "outputs": [],
      "stateMutability": "nonpayable",
      "type": "function"
    },
    {
      "inputs": [
        {
          "internalType": "uint256",
          "name": "",
          "type": "uint256"
        }
      ],
      "name": "books",
      "outputs": [
        {
          "internalType": "string",
          "name": "isbn",
          "type": "string"
        },
        {
          "internalType": "string",
          "name": "name",
          "type": "string"
        },
        {
          "internalType": "uint256",
          "name": "copies",
          "type": "uint256"
        }
      ],
      "stateMutability": "view",
      "type": "function"
    },
    {
      "inputs": [
        {
          "internalType": "uint256",
          "name": "_index",
          "type": "uint256"
        }
      ],
      "name": "borrowBook",
      "outputs": [],
      "stateMutability": "payable",
      "type": "function"
    },
    {
      "inputs": [],
      "name": "count",
      "outputs": [
        {
          "internalType": "uint256",
          "name": "",
          "type": "uint256"
        }
      ],
      "stateMutability": "view",
      "type": "function"
    },
    {
      "inputs": [
        {
          "internalType": "address",
          "name": "",
          "type": "address"
        }
      ],
      "name": "currentlyBorrowing",
      "outputs": [
        {
          "internalType": "uint256",
          "name": "",
          "type": "uint256"
        }
      ],
      "stateMutability": "view",
      "type": "function"
    },
    {
      "inputs": [
        {
          "internalType": "uint256",
          "name": "_i",
          "type": "uint256"
        }
      ],
      "name": "getBook",
      "outputs": [
        {
          "components": [
            {
              "internalType": "string",
              "name": "isbn",
              "type": "string"
            },
            {
              "internalType": "string",
              "name": "name",
              "type": "string"
            },
            {
              "internalType": "uint256",
              "name": "copies",
              "type": "uint256"
            },
            {
              "internalType": "address[]",
              "name": "borrowed",
              "type": "address[]"
            }
          ],
          "internalType": "struct Library.Book",
          "name": "",
          "type": "tuple"
        }
      ],
      "stateMutability": "view",
      "type": "function"
    },
    {
      "inputs": [
        {
          "internalType": "string",
          "name": "",
          "type": "string"
        }
      ],
      "name": "indexes",
      "outputs": [
        {
          "internalType": "uint256",
          "name": "",
          "type": "uint256"
        }
      ],
      "stateMutability": "view",
      "type": "function"
    },
    {
      "inputs": [],
      "name": "owner",
      "outputs": [
        {
          "internalType": "address",
          "name": "",
          "type": "address"
        }
      ],
      "stateMutability": "view",
      "type": "function"
    },
    {
      "inputs": [],
      "name": "renounceOwnership",
      "outputs": [],
      "stateMutability": "nonpayable",
      "type": "function"
    },
    {
      "inputs": [],
      "name": "returnCurrentBook",
      "outputs": [],
      "stateMutability": "nonpayable",
      "type": "function"
    },
    {
      "inputs": [
        {
          "internalType": "address",
          "name": "newOwner",
          "type": "address"
        }
      ],
      "name": "transferOwnership",
      "outputs": [],
      "stateMutability": "nonpayable",
      "type": "function"
    },
    {
      "inputs": [],
      "name": "withdraw",
      "outputs": [],
      "stateMutability": "payable",
      "type": "function"
    }
  ],
  "bytecode": "0x60a060405261271060805234801561001657600080fd5b5061002033610025565b610075565b600080546001600160a01b038381166001600160a01b0319831681178455604051919092169283917f8be0079c531659141344cd1fd0a4f28419497f9722a3daafe3b4186f6b6457e09190a35050565b6080516110de6100a5600039600081816101d001528181610791015281816107d2015261080101526110de6000f3fe6080604052600436106100c25760003560e01c8063715018a61161007f5780638da5cb5b116100595780638da5cb5b146101f2578063901dec821461021a578063e0ff5b8b14610247578063f2fde38b1461027457600080fd5b8063715018a6146101965780637e490a9e146101ab5780638d859f3e146101be57600080fd5b806304266224146100c757806306661abd146100e957806310319fcc146101125780632427e59e146101275780633ccfd60b1461015f5780636874404614610167575b600080fd5b3480156100d357600080fd5b506100e76100e2366004610d4a565b610294565b005b3480156100f557600080fd5b506100ff60015481565b6040519081526020015b60405180910390f35b34801561011e57600080fd5b506100e76104c6565b34801561013357600080fd5b506100ff610142366004610dbb565b805160208183018101805160038252928201919093012091525481565b6100e761054c565b34801561017357600080fd5b50610187610182366004610e65565b6105c8565b60405161010993929190610f10565b3480156101a257600080fd5b506100e76106fa565b6100e76101b9366004610e65565b61070e565b3480156101ca57600080fd5b506100ff7f000000000000000000000000000000000000000000000000000000000000000081565b3480156101fe57600080fd5b506000546040516001600160a01b039091168152602001610109565b34801561022657600080fd5b506100ff610235366004610d1c565b60026020526000908152604090205481565b34801561025357600080fd5b50610267610262366004610e65565b6108ac565b6040516101099190610f46565b34801561028057600080fd5b506100e761028f366004610d1c565b610ac7565b61029c610b3d565b600385856040516102ae929190610ec8565b908152602001604051809103902054600014610350578060046000600388886040516102db929190610ec8565b9081526020016040518091039020548152602001908152602001600020600201600082825461030a9190610fe0565b90915550506040517f1c59ae2fc2d4d8fd587dd73c1193e81642fde8135d41b10c3325d3d1985f05ab9061034390879087908590610ed8565b60405180910390a16104bf565b60016000815461035f90611061565b909155506040805160a06020601f880181900402820181019092526080810186815290918291908890889081908501838280828437600092019190915250505090825250604080516020601f870181900481028201810190925285815291810191908690869081908401838280828437600092018290525093855250505060208083018590526040805183815280830182529381019390935260015482526004815291902082518051919261041992849290910190610be7565b5060208281015180516104329260018501920190610be7565b506040820151600282015560608201518051610458916003840191602090910190610c6b565b5090505060015460038686604051610471929190610ec8565b9081526020016040518091039020819055507f5e5c09fb592e65b4897c25cb4a0597b46a9df6a8a9c1ace81148602e3166dfd48585836040516104b693929190610ed8565b60405180910390a15b5050505050565b33600090815260026020526040902054806105175760405162461bcd60e51b815260206004820152600c60248201526b6e6f7420626f72726f776e6760a01b60448201526064015b60405180910390fd5b3360009081526002602081815260408084208490558484526004909152822001805490919061054590611061565b9091555050565b610554610b3d565b600047116105995760405162461bcd60e51b81526020600482015260126024820152714e6f2065746820746f20776974686472617760701b604482015260640161050e565b60405133904780156108fc02916000818181858888f193505050501580156105c5573d6000803e3d6000fd5b50565b6004602052600090815260409020805481906105e390611026565b80601f016020809104026020016040519081016040528092919081815260200182805461060f90611026565b801561065c5780601f106106315761010080835404028352916020019161065c565b820191906000526020600020905b81548152906001019060200180831161063f57829003601f168201915b50505050509080600101805461067190611026565b80601f016020809104026020016040519081016040528092919081815260200182805461069d90611026565b80156106ea5780601f106106bf576101008083540402835291602001916106ea565b820191906000526020600020905b8154815290600101906020018083116106cd57829003601f168201915b5050505050908060020154905083565b610702610b3d565b61070c6000610b97565b565b336000908152600260205260409020541561073e5760405163af162d1b60e01b815233600482015260240161050e565b6000818152600460205260409020600281015461078f5760405162461bcd60e51b815260206004820152600f60248201526e1e995c9bc8189bdbdadcc81b19599d608a1b604482015260640161050e565b7f00000000000000000000000000000000000000000000000000000000000000003410156107d0576040516339def4cf60e01b815260040160405180910390fd5b7f000000000000000000000000000000000000000000000000000000000000000034111561085057336108fc6108267f000000000000000000000000000000000000000000000000000000000000000034610ff8565b6040518115909202916000818181858888f1935050505015801561084e573d6000803e3d6000fd5b505b80600201600081546108619061100f565b909155505033600081815260026020908152604080832085905593825260048152928120600301805460018101825590825292902090910180546001600160a01b0319169091179055565b6108d76040518060800160405280606081526020016060815260200160008152602001606081525090565b6001548211156109185760405162461bcd60e51b815260206004820152600c60248201526b6e6f7420696e2072616e676560a01b604482015260640161050e565b6000828152600460205260409081902081516080810190925280548290829061094090611026565b80601f016020809104026020016040519081016040528092919081815260200182805461096c90611026565b80156109b95780601f1061098e576101008083540402835291602001916109b9565b820191906000526020600020905b81548152906001019060200180831161099c57829003601f168201915b505050505081526020016001820180546109d290611026565b80601f01602080910402602001604051908101604052809291908181526020018280546109fe90611026565b8015610a4b5780601f10610a2057610100808354040283529160200191610a4b565b820191906000526020600020905b815481529060010190602001808311610a2e57829003601f168201915b505050505081526020016002820154815260200160038201805480602002602001604051908101604052809291908181526020018280548015610ab757602002820191906000526020600020905b81546001600160a01b03168152600190910190602001808311610a99575b5050505050815250509050919050565b610acf610b3d565b6001600160a01b038116610b345760405162461bcd60e51b815260206004820152602660248201527f4f776e61626c653a206e6577206f776e657220697320746865207a65726f206160448201526564647265737360d01b606482015260840161050e565b6105c581610b97565b6000546001600160a01b0316331461070c5760405162461bcd60e51b815260206004820181905260248201527f4f776e61626c653a2063616c6c6572206973206e6f7420746865206f776e6572604482015260640161050e565b600080546001600160a01b038381166001600160a01b0319831681178455604051919092169283917f8be0079c531659141344cd1fd0a4f28419497f9722a3daafe3b4186f6b6457e09190a35050565b828054610bf390611026565b90600052602060002090601f016020900481019282610c155760008555610c5b565b82601f10610c2e57805160ff1916838001178555610c5b565b82800160010185558215610c5b579182015b82811115610c5b578251825591602001919060010190610c40565b50610c67929150610cc0565b5090565b828054828255906000526020600020908101928215610c5b579160200282015b82811115610c5b57825182546001600160a01b0319166001600160a01b03909116178255602090920191600190910190610c8b565b5b80821115610c675760008155600101610cc1565b60008083601f840112610ce6578081fd5b50813567ffffffffffffffff811115610cfd578182fd5b602083019150836020828501011115610d1557600080fd5b9250929050565b600060208284031215610d2d578081fd5b81356001600160a01b0381168114610d43578182fd5b9392505050565b600080600080600060608688031215610d61578081fd5b853567ffffffffffffffff80821115610d78578283fd5b610d8489838a01610cd5565b90975095506020880135915080821115610d9c578283fd5b50610da988828901610cd5565b96999598509660400135949350505050565b600060208284031215610dcc578081fd5b813567ffffffffffffffff80821115610de3578283fd5b818401915084601f830112610df6578283fd5b813581811115610e0857610e08611092565b604051601f8201601f19908116603f01168101908382118183101715610e3057610e30611092565b81604052828152876020848701011115610e48578586fd5b826020860160208301379182016020019490945295945050505050565b600060208284031215610e76578081fd5b5035919050565b60008151808452815b81811015610ea257602081850181015186830182015201610e86565b81811115610eb35782602083870101525b50601f01601f19169290920160200192915050565b8183823760009101908152919050565b6040815282604082015282846060830137600080606085840101526060601f19601f8601168301019050826020830152949350505050565b606081526000610f236060830186610e7d565b8281036020840152610f358186610e7d565b915050826040830152949350505050565b600060208083528351608082850152610f6260a0850182610e7d565b905081850151601f1980868403016040870152610f7f8383610e7d565b60408801516060888101919091528801518782039092016080880152815180825291850193508592508401905b80831015610fd55783516001600160a01b03168252928401926001929092019190840190610fac565b509695505050505050565b60008219821115610ff357610ff361107c565b500190565b60008282101561100a5761100a61107c565b500390565b60008161101e5761101e61107c565b506000190190565b600181811c9082168061103a57607f821691505b6020821081141561105b57634e487b7160e01b600052602260045260246000fd5b50919050565b60006000198214156110755761107561107c565b5060010190565b634e487b7160e01b600052601160045260246000fd5b634e487b7160e01b600052604160045260246000fdfea264697066735822122069a9d3fe60aa517478b7ea95eb9062e8434495a429938c2dbc43f83c76388b8264736f6c63430008040033",
  "linkReferences": {},
  "deployedLinkReferences": {}
}