{
  "_format": "hh-sol-artifact-1",
  "contractName": "Library",
  "sourceName": "contracts/Library.sol",
  "abi": [
    {
      "inputs": [],
      "stateMutability": "nonpayable",
      "type": "constructor"
    },
    {
      "inputs": [
        {
          "internalType": "address",
          "name": "user",
          "type": "address"
        }
      ],
      "name": "alredyBorrwing",
      "type": "error"
    },
    {
      "inputs": [],
      "name": "notPaying",
      "type": "error"
    },
    {
      "anonymous": false,
      "inputs": [
        {
          "indexed": true,
          "internalType": "address",
          "name": "previousOwner",
          "type": "address"
        },
        {
          "indexed": true,
          "internalType": "address",
          "name": "newOwner",
          "type": "address"
        }
      ],
      "name": "OwnershipTransferred",
      "type": "event"
    },
    {
      "anonymous": false,
      "inputs": [
        {
          "indexed": false,
          "internalType": "string",
          "name": "name",
          "type": "string"
        },
        {
          "indexed": false,
          "internalType": "uint256",
          "name": "copies",
          "type": "uint256"
        }
      ],
      "name": "addedBook",
      "type": "event"
    },
    {
      "anonymous": false,
      "inputs": [
        {
          "indexed": false,
          "internalType": "string",
          "name": "name",
          "type": "string"
        },
        {
          "indexed": false,
          "internalType": "uint256",
          "name": "copies",
          "type": "uint256"
        }
      ],
      "name": "addedCopies",
      "type": "event"
    },
    {
      "inputs": [],
      "name": "PRICE",
      "outputs": [
        {
          "internalType": "uint256",
          "name": "",
          "type": "uint256"
        }
      ],
      "stateMutability": "view",
      "type": "function"
    },
    {
      "inputs": [
        {
          "internalType": "string",
          "name": "_name",
          "type": "string"
        },
        {
          "internalType": "uint256",
          "name": "_copies",
          "type": "uint256"
        }
      ],
      "name": "addBook",
      "outputs": [],
      "stateMutability": "nonpayable",
      "type": "function"
    },
    {
      "inputs": [
        {
          "internalType": "uint256",
          "name": "",
          "type": "uint256"
        }
      ],
      "name": "books",
      "outputs": [
        {
          "internalType": "string",
          "name": "name",
          "type": "string"
        },
        {
          "internalType": "uint256",
          "name": "copies",
          "type": "uint256"
        }
      ],
      "stateMutability": "view",
      "type": "function"
    },
    {
      "inputs": [
        {
          "internalType": "uint256",
          "name": "_index",
          "type": "uint256"
        }
      ],
      "name": "borrowBook",
      "outputs": [],
      "stateMutability": "payable",
      "type": "function"
    },
    {
      "inputs": [],
      "name": "count",
      "outputs": [
        {
          "internalType": "uint256",
          "name": "",
          "type": "uint256"
        }
      ],
      "stateMutability": "view",
      "type": "function"
    },
    {
      "inputs": [
        {
          "internalType": "address",
          "name": "",
          "type": "address"
        }
      ],
      "name": "currentlyBorrowing",
      "outputs": [
        {
          "internalType": "uint256",
          "name": "",
          "type": "uint256"
        }
      ],
      "stateMutability": "view",
      "type": "function"
    },
    {
      "inputs": [
        {
          "internalType": "uint256",
          "name": "_i",
          "type": "uint256"
        }
      ],
      "name": "getBook",
      "outputs": [
        {
          "components": [
            {
              "internalType": "string",
              "name": "name",
              "type": "string"
            },
            {
              "internalType": "uint256",
              "name": "copies",
              "type": "uint256"
            }
          ],
          "internalType": "struct Library.Book",
          "name": "",
          "type": "tuple"
        }
      ],
      "stateMutability": "view",
      "type": "function"
    },
    {
      "inputs": [
        {
          "internalType": "string",
          "name": "",
          "type": "string"
        }
      ],
      "name": "indexes",
      "outputs": [
        {
          "internalType": "uint256",
          "name": "",
          "type": "uint256"
        }
      ],
      "stateMutability": "view",
      "type": "function"
    },
    {
      "inputs": [],
      "name": "owner",
      "outputs": [
        {
          "internalType": "address",
          "name": "",
          "type": "address"
        }
      ],
      "stateMutability": "view",
      "type": "function"
    },
    {
      "inputs": [],
      "name": "renounceOwnership",
      "outputs": [],
      "stateMutability": "nonpayable",
      "type": "function"
    },
    {
      "inputs": [],
      "name": "returnCurrentBook",
      "outputs": [],
      "stateMutability": "nonpayable",
      "type": "function"
    },
    {
      "inputs": [
        {
          "internalType": "address",
          "name": "newOwner",
          "type": "address"
        }
      ],
      "name": "transferOwnership",
      "outputs": [],
      "stateMutability": "nonpayable",
      "type": "function"
    },
    {
      "inputs": [],
      "name": "withdraw",
      "outputs": [],
      "stateMutability": "payable",
      "type": "function"
    }
  ],
  "bytecode": "0x60a060405261271060805234801561001657600080fd5b5061002033610025565b610075565b600080546001600160a01b038381166001600160a01b0319831681178455604051919092169283917f8be0079c531659141344cd1fd0a4f28419497f9722a3daafe3b4186f6b6457e09190a35050565b608051610d8a6100a5600039600081816101cf01528181610670015281816106b101526106e00152610d8a6000f3fe6080604052600436106100c25760003560e01c8063715018a61161007f5780638da5cb5b116100595780638da5cb5b146101f1578063901dec8214610219578063e0ff5b8b14610246578063f2fde38b1461027357600080fd5b8063715018a6146101955780637e490a9e146101aa5780638d859f3e146101bd57600080fd5b806306661abd146100c757806310319fcc146100f05780632427e59e146101075780633ccfd60b1461013f578063637a3872146101475780636874404614610167575b600080fd5b3480156100d357600080fd5b506100dd60015481565b6040519081526020015b60405180910390f35b3480156100fc57600080fd5b50610105610293565b005b34801561011357600080fd5b506100dd610122366004610ae3565b805160208183018101805160038252928201919093012091525481565b61010561031b565b34801561015357600080fd5b50610105610162366004610a70565b610397565b34801561017357600080fd5b50610187610182366004610b8d565b610535565b6040516100e7929190610c38565b3480156101a157600080fd5b506101056105d9565b6101056101b8366004610b8d565b6105ed565b3480156101c957600080fd5b506100dd7f000000000000000000000000000000000000000000000000000000000000000081565b3480156101fd57600080fd5b506000546040516001600160a01b0390911681526020016100e7565b34801561022557600080fd5b506100dd610234366004610a42565b60026020526000908152604090205481565b34801561025257600080fd5b50610266610261366004610b8d565b610779565b6040516100e79190610c5a565b34801561027f57600080fd5b5061010561028e366004610a42565b610889565b33600090815260026020526040902054806102e45760405162461bcd60e51b815260206004820152600c60248201526b6e6f7420626f72726f776e6760a01b60448201526064015b60405180910390fd5b33600090815260026020908152604080832083905583835260049091528120600101805490919061031490610d0d565b9091555050565b6103236108ff565b600047116103685760405162461bcd60e51b81526020600482015260126024820152714e6f2065746820746f20776974686472617760701b60448201526064016102db565b60405133904780156108fc02916000818181858888f19350505050158015610394573d6000803e3d6000fd5b50565b61039f6108ff565b600383836040516103b1929190610bf0565b908152602001604051809103902054600014610453578060046000600386866040516103de929190610bf0565b9081526020016040518091039020548152602001908152602001600020600101600082825461040d9190610c8c565b90915550506040517f1c59ae2fc2d4d8fd587dd73c1193e81642fde8135d41b10c3325d3d1985f05ab9061044690859085908590610c00565b60405180910390a1505050565b60016000815461046290610d0d565b909155506040805160606020601f8601819004028201810183529181018481529091829190869086908190850183828082843760009201829052509385525050506020918201849052600154815260048252604090208251805191926104cd928492909101906109a9565b5060208201518160010155905050600154600384846040516104f0929190610bf0565b9081526020016040518091039020819055507f5e5c09fb592e65b4897c25cb4a0597b46a9df6a8a9c1ace81148602e3166dfd483838360405161044693929190610c00565b60046020526000908152604090208054819061055090610cd2565b80601f016020809104026020016040519081016040528092919081815260200182805461057c90610cd2565b80156105c95780601f1061059e576101008083540402835291602001916105c9565b820191906000526020600020905b8154815290600101906020018083116105ac57829003601f168201915b5050505050908060010154905082565b6105e16108ff565b6105eb6000610959565b565b336000908152600260205260409020541561061d5760405163af162d1b60e01b81523360048201526024016102db565b6000818152600460205260409020600181015461066e5760405162461bcd60e51b815260206004820152600f60248201526e1e995c9bc8189bdbdadcc81b19599d608a1b60448201526064016102db565b7f00000000000000000000000000000000000000000000000000000000000000003410156106af576040516339def4cf60e01b815260040160405180910390fd5b7f000000000000000000000000000000000000000000000000000000000000000034111561072f57336108fc6107057f000000000000000000000000000000000000000000000000000000000000000034610ca4565b6040518115909202916000818181858888f1935050505015801561072d573d6000803e3d6000fd5b505b806001016000815461074090610cbb565b9091555050336000818152600260209081526040808320859055938252600581528382209282529190915220805460ff19166001179055565b6040805180820190915260608152600060208201526001548211156107cf5760405162461bcd60e51b815260206004820152600c60248201526b6e6f7420696e2072616e676560a01b60448201526064016102db565b6000828152600460205260409081902081518083019092528054829082906107f690610cd2565b80601f016020809104026020016040519081016040528092919081815260200182805461082290610cd2565b801561086f5780601f106108445761010080835404028352916020019161086f565b820191906000526020600020905b81548152906001019060200180831161085257829003601f168201915b505050505081526020016001820154815250509050919050565b6108916108ff565b6001600160a01b0381166108f65760405162461bcd60e51b815260206004820152602660248201527f4f776e61626c653a206e6577206f776e657220697320746865207a65726f206160448201526564647265737360d01b60648201526084016102db565b61039481610959565b6000546001600160a01b031633146105eb5760405162461bcd60e51b815260206004820181905260248201527f4f776e61626c653a2063616c6c6572206973206e6f7420746865206f776e657260448201526064016102db565b600080546001600160a01b038381166001600160a01b0319831681178455604051919092169283917f8be0079c531659141344cd1fd0a4f28419497f9722a3daafe3b4186f6b6457e09190a35050565b8280546109b590610cd2565b90600052602060002090601f0160209004810192826109d75760008555610a1d565b82601f106109f057805160ff1916838001178555610a1d565b82800160010185558215610a1d579182015b82811115610a1d578251825591602001919060010190610a02565b50610a29929150610a2d565b5090565b5b80821115610a295760008155600101610a2e565b600060208284031215610a53578081fd5b81356001600160a01b0381168114610a69578182fd5b9392505050565b600080600060408486031215610a84578182fd5b833567ffffffffffffffff80821115610a9b578384fd5b818601915086601f830112610aae578384fd5b813581811115610abc578485fd5b876020828501011115610acd578485fd5b6020928301989097509590910135949350505050565b600060208284031215610af4578081fd5b813567ffffffffffffffff80821115610b0b578283fd5b818401915084601f830112610b1e578283fd5b813581811115610b3057610b30610d3e565b604051601f8201601f19908116603f01168101908382118183101715610b5857610b58610d3e565b81604052828152876020848701011115610b70578586fd5b826020860160208301379182016020019490945295945050505050565b600060208284031215610b9e578081fd5b5035919050565b60008151808452815b81811015610bca57602081850181015186830182015201610bae565b81811115610bdb5782602083870101525b50601f01601f19169290920160200192915050565b8183823760009101908152919050565b6040815282604082015282846060830137600080606085840101526060601f19601f8601168301019050826020830152949350505050565b604081526000610c4b6040830185610ba5565b90508260208301529392505050565b602081526000825160406020840152610c766060840182610ba5565b9050602084015160408401528091505092915050565b60008219821115610c9f57610c9f610d28565b500190565b600082821015610cb657610cb6610d28565b500390565b600081610cca57610cca610d28565b506000190190565b600181811c90821680610ce657607f821691505b60208210811415610d0757634e487b7160e01b600052602260045260246000fd5b50919050565b6000600019821415610d2157610d21610d28565b5060010190565b634e487b7160e01b600052601160045260246000fd5b634e487b7160e01b600052604160045260246000fdfea2646970667358221220098ed435bca4bc72137a0394a8ffa3ac70ebb000bdfe210cc43d45c69c71550b64736f6c63430008040033",
  "linkReferences": {},
  "deployedLinkReferences": {}
}