{
  "_format": "hh-sol-artifact-1",
  "contractName": "Library",
  "sourceName": "contracts/Library.sol",
  "abi": [
    {
      "inputs": [],
      "stateMutability": "nonpayable",
      "type": "constructor"
    },
    {
      "inputs": [
        {
          "internalType": "address",
          "name": "user",
          "type": "address"
        }
      ],
      "name": "alredyBorrwing",
      "type": "error"
    },
    {
      "inputs": [],
      "name": "notPaying",
      "type": "error"
    },
    {
      "anonymous": false,
      "inputs": [
        {
          "indexed": true,
          "internalType": "address",
          "name": "previousOwner",
          "type": "address"
        },
        {
          "indexed": true,
          "internalType": "address",
          "name": "newOwner",
          "type": "address"
        }
      ],
      "name": "OwnershipTransferred",
      "type": "event"
    },
    {
      "anonymous": false,
      "inputs": [
        {
          "indexed": false,
          "internalType": "string",
          "name": "isbn",
          "type": "string"
        },
        {
          "indexed": false,
          "internalType": "uint256",
          "name": "copies",
          "type": "uint256"
        }
      ],
      "name": "addedBook",
      "type": "event"
    },
    {
      "anonymous": false,
      "inputs": [
        {
          "indexed": false,
          "internalType": "string",
          "name": "isbn",
          "type": "string"
        },
        {
          "indexed": false,
          "internalType": "uint256",
          "name": "copies",
          "type": "uint256"
        }
      ],
      "name": "addedCopies",
      "type": "event"
    },
    {
      "inputs": [],
      "name": "PRICE",
      "outputs": [
        {
          "internalType": "uint256",
          "name": "",
          "type": "uint256"
        }
      ],
      "stateMutability": "view",
      "type": "function"
    },
    {
      "inputs": [
        {
          "internalType": "string",
          "name": "_isbn",
          "type": "string"
        },
        {
          "internalType": "string",
          "name": "_name",
          "type": "string"
        },
        {
          "internalType": "uint256",
          "name": "_copies",
          "type": "uint256"
        }
      ],
      "name": "addBook",
      "outputs": [],
      "stateMutability": "nonpayable",
      "type": "function"
    },
    {
      "inputs": [
        {
          "internalType": "uint256",
          "name": "",
          "type": "uint256"
        }
      ],
      "name": "books",
      "outputs": [
        {
          "internalType": "string",
          "name": "isbn",
          "type": "string"
        },
        {
          "internalType": "string",
          "name": "name",
          "type": "string"
        },
        {
          "internalType": "uint256",
          "name": "copies",
          "type": "uint256"
        }
      ],
      "stateMutability": "view",
      "type": "function"
    },
    {
      "inputs": [
        {
          "internalType": "uint256",
          "name": "_index",
          "type": "uint256"
        },
        {
          "internalType": "uint256",
          "name": "value",
          "type": "uint256"
        },
        {
          "internalType": "uint256",
          "name": "deadline",
          "type": "uint256"
        },
        {
          "internalType": "uint8",
          "name": "v",
          "type": "uint8"
        },
        {
          "internalType": "bytes32",
          "name": "r",
          "type": "bytes32"
        },
        {
          "internalType": "bytes32",
          "name": "s",
          "type": "bytes32"
        }
      ],
      "name": "borrowBook",
      "outputs": [],
      "stateMutability": "nonpayable",
      "type": "function"
    },
    {
      "inputs": [],
      "name": "buyLIB",
      "outputs": [],
      "stateMutability": "payable",
      "type": "function"
    },
    {
      "inputs": [],
      "name": "count",
      "outputs": [
        {
          "internalType": "uint256",
          "name": "",
          "type": "uint256"
        }
      ],
      "stateMutability": "view",
      "type": "function"
    },
    {
      "inputs": [
        {
          "internalType": "address",
          "name": "",
          "type": "address"
        }
      ],
      "name": "currentlyBorrowing",
      "outputs": [
        {
          "internalType": "uint256",
          "name": "",
          "type": "uint256"
        }
      ],
      "stateMutability": "view",
      "type": "function"
    },
    {
      "inputs": [
        {
          "internalType": "uint256",
          "name": "_i",
          "type": "uint256"
        }
      ],
      "name": "getBook",
      "outputs": [
        {
          "components": [
            {
              "internalType": "string",
              "name": "isbn",
              "type": "string"
            },
            {
              "internalType": "string",
              "name": "name",
              "type": "string"
            },
            {
              "internalType": "uint256",
              "name": "copies",
              "type": "uint256"
            },
            {
              "internalType": "address[]",
              "name": "borrowed",
              "type": "address[]"
            }
          ],
          "internalType": "struct Library.Book",
          "name": "",
          "type": "tuple"
        }
      ],
      "stateMutability": "view",
      "type": "function"
    },
    {
      "inputs": [
        {
          "internalType": "string",
          "name": "",
          "type": "string"
        }
      ],
      "name": "indexes",
      "outputs": [
        {
          "internalType": "uint256",
          "name": "",
          "type": "uint256"
        }
      ],
      "stateMutability": "view",
      "type": "function"
    },
    {
      "inputs": [],
      "name": "owner",
      "outputs": [
        {
          "internalType": "address",
          "name": "",
          "type": "address"
        }
      ],
      "stateMutability": "view",
      "type": "function"
    },
    {
      "inputs": [],
      "name": "renounceOwnership",
      "outputs": [],
      "stateMutability": "nonpayable",
      "type": "function"
    },
    {
      "inputs": [],
      "name": "returnCurrentBook",
      "outputs": [],
      "stateMutability": "nonpayable",
      "type": "function"
    },
    {
      "inputs": [],
      "name": "token",
      "outputs": [
        {
          "internalType": "contract LIB",
          "name": "",
          "type": "address"
        }
      ],
      "stateMutability": "view",
      "type": "function"
    },
    {
      "inputs": [
        {
          "internalType": "address",
          "name": "newOwner",
          "type": "address"
        }
      ],
      "name": "transferOwnership",
      "outputs": [],
      "stateMutability": "nonpayable",
      "type": "function"
    },
    {
      "inputs": [],
      "name": "withdraw",
      "outputs": [],
      "stateMutability": "payable",
      "type": "function"
    }
  ],
  "bytecode": "0x60c0604052662386f26fc1000060a05234801561001b57600080fd5b5061002533610063565b604051610031906100b3565b604051809103906000f08015801561004d573d6000803e3d6000fd5b5060601b6001600160601b0319166080526100c0565b600080546001600160a01b038381166001600160a01b0319831681178455604051919092169283917f8be0079c531659141344cd1fd0a4f28419497f9722a3daafe3b4186f6b6457e09190a35050565b61208e8061168d83390190565b60805160601c60a05161156d610120600039600081816102030152818161078701526109a80152600081816102eb015281816105e5015281816106c0015281816107a90152818161092b015281816109ce0152610c5a015261156d6000f3fe6080604052600436106100e85760003560e01c8063715018a61161008a578063aa68cf7111610059578063aa68cf7114610284578063e0ff5b8b1461028c578063f2fde38b146102b9578063fc0c546a146102d957600080fd5b8063715018a6146101dc5780638d859f3e146101f15780638da5cb5b14610225578063901dec821461025757600080fd5b80632427e59e116100c65780632427e59e1461014d5780633ccfd60b146101855780635901ecb91461018d57806368744046146101ad57600080fd5b806304266224146100ed57806306661abd1461010f57806310319fcc14610138575b600080fd5b3480156100f957600080fd5b5061010d610108366004611181565b61030d565b005b34801561011b57600080fd5b5061012560015481565b6040519081526020015b60405180910390f35b34801561014457600080fd5b5061010d61053f565b34801561015957600080fd5b506101256101683660046111f2565b805160208183018101805160038252928201919093012091525481565b61010d6105c5565b34801561019957600080fd5b5061010d6101a83660046112cc565b610772565b3480156101b957600080fd5b506101cd6101c836600461129c565b610ab7565b60405161012f939291906113b6565b3480156101e857600080fd5b5061010d610be9565b3480156101fd57600080fd5b506101257f000000000000000000000000000000000000000000000000000000000000000081565b34801561023157600080fd5b506000546001600160a01b03165b6040516001600160a01b03909116815260200161012f565b34801561026357600080fd5b50610125610272366004611133565b60026020526000908152604090205481565b61010d610bfd565b34801561029857600080fd5b506102ac6102a736600461129c565b610cc0565b60405161012f91906113ec565b3480156102c557600080fd5b5061010d6102d4366004611133565b610edb565b3480156102e557600080fd5b5061023f7f000000000000000000000000000000000000000000000000000000000000000081565b610315610f54565b6003858560405161032792919061136e565b9081526020016040518091039020546000146103c95780600460006003888860405161035492919061136e565b908152602001604051809103902054815260200190815260200160002060020160008282546103839190611486565b90915550506040517f1c59ae2fc2d4d8fd587dd73c1193e81642fde8135d41b10c3325d3d1985f05ab906103bc9087908790859061137e565b60405180910390a1610538565b6001600081546103d8906114f0565b909155506040805160a06020601f880181900402820181019092526080810186815290918291908890889081908501838280828437600092019190915250505090825250604080516020601f870181900481028201810190925285815291810191908690869081908401838280828437600092018290525093855250505060208083018590526040805183815280830182529381019390935260015482526004815291902082518051919261049292849290910190610ffe565b5060208281015180516104ab9260018501920190610ffe565b5060408201516002820155606082015180516104d1916003840191602090910190611082565b50905050600154600386866040516104ea92919061136e565b9081526020016040518091039020819055507f5e5c09fb592e65b4897c25cb4a0597b46a9df6a8a9c1ace81148602e3166dfd485858360405161052f9392919061137e565b60405180910390a15b5050505050565b33600090815260026020526040902054806105905760405162461bcd60e51b815260206004820152600c60248201526b6e6f7420626f72726f776e6760a01b60448201526064015b60405180910390fd5b336000908152600260208181526040808420849055848452600490915282200180549091906105be906114f0565b9091555050565b6105cd610f54565b6040516370a0823160e01b81523060048201526000907f00000000000000000000000000000000000000000000000000000000000000006001600160a01b0316906370a082319060240160206040518083038186803b15801561062f57600080fd5b505afa158015610643573d6000803e3d6000fd5b505050506040513d601f19601f8201168201806040525081019061066791906112b4565b9050600081116106aa5760405162461bcd60e51b815260206004820152600e60248201526d6e6f20746f6b656e73206865726560901b6044820152606401610587565b604051630852cd8d60e31b8152600481018290527f00000000000000000000000000000000000000000000000000000000000000006001600160a01b0316906342966c6890602401600060405180830381600087803b15801561070c57600080fd5b505af1158015610720573d6000803e3d6000fd5b505050506107366000546001600160a01b031690565b6001600160a01b03166108fc479081150290604051600060405180830381858888f1935050505015801561076e573d6000803e3d6000fd5b5050565b6040516370a0823160e01b81523360048201527f0000000000000000000000000000000000000000000000000000000000000000907f00000000000000000000000000000000000000000000000000000000000000006001600160a01b0316906370a082319060240160206040518083038186803b1580156107f357600080fd5b505afa158015610807573d6000803e3d6000fd5b505050506040513d601f19601f8201168201806040525081019061082b91906112b4565b101561086a5760405162461bcd60e51b815260206004820152600e60248201526d3737ba1032b737bab3b4102624a160911b6044820152606401610587565b336000908152600260205260409020541561089a5760405163af162d1b60e01b8152336004820152602401610587565b600086815260046020526040902060028101546108eb5760405162461bcd60e51b815260206004820152600f60248201526e1e995c9bc8189bdbdadcc81b19599d608a1b6044820152606401610587565b60405163d505accf60e01b8152336004820152306024820152604481018790526064810186905260ff8516608482015260a4810184905260c481018390527f00000000000000000000000000000000000000000000000000000000000000006001600160a01b03169063d505accf9060e401600060405180830381600087803b15801561097757600080fd5b505af115801561098b573d6000803e3d6000fd5b50506040516323b872dd60e01b81523360048201523060248201527f000000000000000000000000000000000000000000000000000000000000000060448201527f00000000000000000000000000000000000000000000000000000000000000006001600160a01b031692506323b872dd9150606401602060405180830381600087803b158015610a1c57600080fd5b505af1158015610a30573d6000803e3d6000fd5b505050506040513d601f19601f82011682018060405250810190610a549190611161565b508060020160008154610a669061149e565b90915550503360008181526002602090815260408083208a905598825260048152978120600301805460018101825590825297902090960180546001600160a01b0319169096179095555050505050565b600460205260009081526040902080548190610ad2906114b5565b80601f0160208091040260200160405190810160405280929190818152602001828054610afe906114b5565b8015610b4b5780601f10610b2057610100808354040283529160200191610b4b565b820191906000526020600020905b815481529060010190602001808311610b2e57829003601f168201915b505050505090806001018054610b60906114b5565b80601f0160208091040260200160405190810160405280929190818152602001828054610b8c906114b5565b8015610bd95780601f10610bae57610100808354040283529160200191610bd9565b820191906000526020600020905b815481529060010190602001808311610bbc57829003601f168201915b5050505050908060020154905083565b610bf1610f54565b610bfb6000610fae565b565b60003411610c3f5760405162461bcd60e51b815260206004820152600f60248201526e0f8c081dd95a481c995c5d5a5c9959608a1b6044820152606401610587565b6040516340c10f1960e01b81523360048201523460248201527f00000000000000000000000000000000000000000000000000000000000000006001600160a01b0316906340c10f1990604401600060405180830381600087803b158015610ca657600080fd5b505af1158015610cba573d6000803e3d6000fd5b50505050565b610ceb6040518060800160405280606081526020016060815260200160008152602001606081525090565b600154821115610d2c5760405162461bcd60e51b815260206004820152600c60248201526b6e6f7420696e2072616e676560a01b6044820152606401610587565b60008281526004602052604090819020815160808101909252805482908290610d54906114b5565b80601f0160208091040260200160405190810160405280929190818152602001828054610d80906114b5565b8015610dcd5780601f10610da257610100808354040283529160200191610dcd565b820191906000526020600020905b815481529060010190602001808311610db057829003601f168201915b50505050508152602001600182018054610de6906114b5565b80601f0160208091040260200160405190810160405280929190818152602001828054610e12906114b5565b8015610e5f5780601f10610e3457610100808354040283529160200191610e5f565b820191906000526020600020905b815481529060010190602001808311610e4257829003601f168201915b505050505081526020016002820154815260200160038201805480602002602001604051908101604052809291908181526020018280548015610ecb57602002820191906000526020600020905b81546001600160a01b03168152600190910190602001808311610ead575b5050505050815250509050919050565b610ee3610f54565b6001600160a01b038116610f485760405162461bcd60e51b815260206004820152602660248201527f4f776e61626c653a206e6577206f776e657220697320746865207a65726f206160448201526564647265737360d01b6064820152608401610587565b610f5181610fae565b50565b6000546001600160a01b03163314610bfb5760405162461bcd60e51b815260206004820181905260248201527f4f776e61626c653a2063616c6c6572206973206e6f7420746865206f776e65726044820152606401610587565b600080546001600160a01b038381166001600160a01b0319831681178455604051919092169283917f8be0079c531659141344cd1fd0a4f28419497f9722a3daafe3b4186f6b6457e09190a35050565b82805461100a906114b5565b90600052602060002090601f01602090048101928261102c5760008555611072565b82601f1061104557805160ff1916838001178555611072565b82800160010185558215611072579182015b82811115611072578251825591602001919060010190611057565b5061107e9291506110d7565b5090565b828054828255906000526020600020908101928215611072579160200282015b8281111561107257825182546001600160a01b0319166001600160a01b039091161782556020909201916001909101906110a2565b5b8082111561107e57600081556001016110d8565b60008083601f8401126110fd578182fd5b50813567ffffffffffffffff811115611114578182fd5b60208301915083602082850101111561112c57600080fd5b9250929050565b600060208284031215611144578081fd5b81356001600160a01b038116811461115a578182fd5b9392505050565b600060208284031215611172578081fd5b8151801515811461115a578182fd5b600080600080600060608688031215611198578081fd5b853567ffffffffffffffff808211156111af578283fd5b6111bb89838a016110ec565b909750955060208801359150808211156111d3578283fd5b506111e0888289016110ec565b96999598509660400135949350505050565b600060208284031215611203578081fd5b813567ffffffffffffffff8082111561121a578283fd5b818401915084601f83011261122d578283fd5b81358181111561123f5761123f611521565b604051601f8201601f19908116603f0116810190838211818310171561126757611267611521565b8160405282815287602084870101111561127f578586fd5b826020860160208301379182016020019490945295945050505050565b6000602082840312156112ad578081fd5b5035919050565b6000602082840312156112c5578081fd5b5051919050565b60008060008060008060c087890312156112e4578081fd5b863595506020870135945060408701359350606087013560ff81168114611309578182fd5b9598949750929560808101359460a0909101359350915050565b60008151808452815b818110156113485760208185018101518683018201520161132c565b818111156113595782602083870101525b50601f01601f19169290920160200192915050565b8183823760009101908152919050565b6040815282604082015282846060830137600080606085840101526060601f19601f8601168301019050826020830152949350505050565b6060815260006113c96060830186611323565b82810360208401526113db8186611323565b915050826040830152949350505050565b60006020808352835160808285015261140860a0850182611323565b905081850151601f19808684030160408701526114258383611323565b60408801516060888101919091528801518782039092016080880152815180825291850193508592508401905b8083101561147b5783516001600160a01b03168252928401926001929092019190840190611452565b509695505050505050565b600082198211156114995761149961150b565b500190565b6000816114ad576114ad61150b565b506000190190565b600181811c908216806114c957607f821691505b602082108114156114ea57634e487b7160e01b600052602260045260246000fd5b50919050565b60006000198214156115045761150461150b565b5060010190565b634e487b7160e01b600052601160045260246000fd5b634e487b7160e01b600052604160045260246000fdfea2646970667358221220daf33fdcd9aefe1ff2e6ce54945f49d6e50e54a43327a21950964c90dfe833c564736f6c6343000804003360806040523480156200001157600080fd5b50604080518082018252600d81526c2634b13930b93c902a37b5b2b760991b6020808301918252835180850190945260038452622624a160e91b90840152815191929183918391620000669160059162000329565b5080516200007c90600690602084019062000329565b50506007805460ff191690555062000096600033620001c4565b620000c27f9f2df0fed2c77648de5860a4cc508cd0818c85b8b8a1ab4ceeef8d981c8956a633620001c4565b620000ee7f65d7a28e3265b37a6474929f336521b332c1681b933f6cb9f3376673440d862a33620001c4565b5050604080518082018252600d81526c2634b13930b93c902a37b5b2b760991b6020918201528151808301835260018152603160f81b9082015281517f91ab3d17e3a50a9d89e63fd30b92be7f5336b03b287bb946787a83a9d62a2766818301527f33c6b5a795bbb6d3634a57e4c285ad6fb137be7c7195686eba4a862088a5df7e818401527fc89efdaa54c0f20c7adf612882df0950f5a951637e0307cdcb4c672f298b8bc66060820152306080808301919091528351808303909101815260a090910190925281519101206008556200040c565b620001d08282620001d4565b5050565b620001eb82826200021760201b62000bf61760201c565b60008281526001602090815260409091206200021291839062000c7a620002b7821b17901c565b505050565b6000828152602081815260408083206001600160a01b038516845290915290205460ff16620001d0576000828152602081815260408083206001600160a01b03851684529091529020805460ff19166001179055620002733390565b6001600160a01b0316816001600160a01b0316837f2f8788117e7eff1d82e926ec794901d17c78024a50270940304540a733656f0d60405160405180910390a45050565b6000620002ce836001600160a01b038416620002d7565b90505b92915050565b60008181526001830160205260408120546200032057508154600181810184556000848152602080822090930184905584548482528286019093526040902091909155620002d1565b506000620002d1565b8280546200033790620003cf565b90600052602060002090601f0160209004810192826200035b5760008555620003a6565b82601f106200037657805160ff1916838001178555620003a6565b82800160010185558215620003a6579182015b82811115620003a657825182559160200191906001019062000389565b50620003b4929150620003b8565b5090565b5b80821115620003b45760008155600101620003b9565b600181811c90821680620003e457607f821691505b602082108114156200040657634e487b7160e01b600052602260045260246000fd5b50919050565b611c72806200041c6000396000f3fe608060405234801561001057600080fd5b50600436106101f05760003560e01c806370a082311161010f578063a457c2d7116100a2578063d539139311610071578063d53913931461043e578063d547741f14610465578063dd62ed3e14610478578063e63ab1e91461048b57600080fd5b8063a457c2d7146103f2578063a9059cbb14610405578063ca15c87314610418578063d505accf1461042b57600080fd5b80639010d07c116100de5780639010d07c146103a457806391d14854146103cf57806395d89b41146103e2578063a217fddf146103ea57600080fd5b806370a082311461034057806379cc6790146103695780637ecebe001461037c5780638456cb591461039c57600080fd5b8063313ce567116101875780633f4ba83a116101565780633f4ba83a1461030757806340c10f191461030f57806342966c68146103225780635c975abb1461033557600080fd5b8063313ce567146102c95780633644e515146102d857806336568abe146102e157806339509351146102f457600080fd5b806323b872dd116101c357806323b872dd14610257578063248a9ca31461026a5780632f2ff15d1461028d57806330adf81f146102a257600080fd5b806301ffc9a7146101f557806306fdde031461021d578063095ea7b31461023257806318160ddd14610245575b600080fd5b610208610203366004611a6f565b6104b2565b60405190151581526020015b60405180910390f35b6102256104dd565b6040516102149190611b0c565b6102086102403660046119eb565b61056f565b6004545b604051908152602001610214565b61020861026536600461193f565b610587565b610249610278366004611a14565b60009081526020819052604090206001015490565b6102a061029b366004611a2c565b6105ab565b005b6102497f6e71edae12b1b97f4d1f60370fef10105fa2faae0126114a169c64845d6126c981565b60405160128152602001610214565b61024960085481565b6102a06102ef366004611a2c565b6105d5565b6102086103023660046119eb565b610658565b6102a061067a565b6102a061031d3660046119eb565b610720565b6102a0610330366004611a14565b6107bf565b60075460ff16610208565b61024961034e3660046118f3565b6001600160a01b031660009081526002602052604090205490565b6102a06103773660046119eb565b6107cc565b61024961038a3660046118f3565b60096020526000908152604090205481565b6102a06107e1565b6103b76103b2366004611a4e565b610885565b6040516001600160a01b039091168152602001610214565b6102086103dd366004611a2c565b6108a4565b6102256108cd565b610249600081565b6102086104003660046119eb565b6108dc565b6102086104133660046119eb565b610957565b610249610426366004611a14565b610965565b6102a061043936600461197a565b61097c565b6102497f9f2df0fed2c77648de5860a4cc508cd0818c85b8b8a1ab4ceeef8d981c8956a681565b6102a0610473366004611a2c565b610ba6565b61024961048636600461190d565b610bcb565b6102497f65d7a28e3265b37a6474929f336521b332c1681b933f6cb9f3376673440d862a81565b60006001600160e01b03198216635a05180f60e01b14806104d757506104d782610c8f565b92915050565b6060600580546104ec90611bd0565b80601f016020809104026020016040519081016040528092919081815260200182805461051890611bd0565b80156105655780601f1061053a57610100808354040283529160200191610565565b820191906000526020600020905b81548152906001019060200180831161054857829003601f168201915b5050505050905090565b60003361057d818585610cc4565b5060019392505050565b600033610595858285610de8565b6105a0858585610e62565b506001949350505050565b6000828152602081905260409020600101546105c68161103b565b6105d08383611045565b505050565b6001600160a01b038116331461064a5760405162461bcd60e51b815260206004820152602f60248201527f416363657373436f6e74726f6c3a2063616e206f6e6c792072656e6f756e636560448201526e103937b632b9903337b91039b2b63360891b60648201526084015b60405180910390fd5b6106548282611067565b5050565b60003361057d81858561066b8383610bcb565b6106759190611b3f565b610cc4565b6106a47f65d7a28e3265b37a6474929f336521b332c1681b933f6cb9f3376673440d862a336108a4565b6107165760405162461bcd60e51b815260206004820152603960248201527f45524332305072657365744d696e7465725061757365723a206d75737420686160448201527f76652070617573657220726f6c6520746f20756e7061757365000000000000006064820152608401610641565b61071e611089565b565b61074a7f9f2df0fed2c77648de5860a4cc508cd0818c85b8b8a1ab4ceeef8d981c8956a6336108a4565b6107b55760405162461bcd60e51b815260206004820152603660248201527f45524332305072657365744d696e7465725061757365723a206d7573742068616044820152751d99481b5a5b9d195c881c9bdb19481d1bc81b5a5b9d60521b6064820152608401610641565b61065482826110db565b6107c933826111c6565b50565b6107d7823383610de8565b61065482826111c6565b61080b7f65d7a28e3265b37a6474929f336521b332c1681b933f6cb9f3376673440d862a336108a4565b61087d5760405162461bcd60e51b815260206004820152603760248201527f45524332305072657365744d696e7465725061757365723a206d75737420686160448201527f76652070617573657220726f6c6520746f2070617573650000000000000000006064820152608401610641565b61071e611320565b600082815260016020526040812061089d908361135d565b9392505050565b6000918252602082815260408084206001600160a01b0393909316845291905290205460ff1690565b6060600680546104ec90611bd0565b600033816108ea8286610bcb565b90508381101561094a5760405162461bcd60e51b815260206004820152602560248201527f45524332303a2064656372656173656420616c6c6f77616e63652062656c6f77604482015264207a65726f60d81b6064820152608401610641565b6105a08286868403610cc4565b60003361057d818585610e62565b60008181526001602052604081206104d790611369565b428410156109cc5760405162461bcd60e51b815260206004820152601860248201527f4552433230576974685065726d69743a204558504952454400000000000000006044820152606401610641565b6008546001600160a01b038816600090815260096020526040812080549192917f6e71edae12b1b97f4d1f60370fef10105fa2faae0126114a169c64845d6126c9918b918b918b919087610a1f83611c0b565b909155506040805160208101969096526001600160a01b0394851690860152929091166060840152608083015260a082015260c0810187905260e00160405160208183030381529060405280519060200120604051602001610a9892919061190160f01b81526002810192909252602282015260420190565b60408051601f198184030181528282528051602091820120600080855291840180845281905260ff88169284019290925260608301869052608083018590529092509060019060a0016020604051602081039080840390855afa158015610b03573d6000803e3d6000fd5b5050604051601f1901519150506001600160a01b03811615801590610b395750886001600160a01b0316816001600160a01b0316145b610b905760405162461bcd60e51b815260206004820152602260248201527f4552433230576974685065726d69743a20494e56414c49445f5349474e415455604482015261524560f01b6064820152608401610641565b610b9b898989610cc4565b505050505050505050565b600082815260208190526040902060010154610bc18161103b565b6105d08383611067565b6001600160a01b03918216600090815260036020908152604080832093909416825291909152205490565b610c0082826108a4565b610654576000828152602081815260408083206001600160a01b03851684529091529020805460ff19166001179055610c363390565b6001600160a01b0316816001600160a01b0316837f2f8788117e7eff1d82e926ec794901d17c78024a50270940304540a733656f0d60405160405180910390a45050565b600061089d836001600160a01b038416611373565b60006001600160e01b03198216637965db0b60e01b14806104d757506301ffc9a760e01b6001600160e01b03198316146104d7565b6001600160a01b038316610d265760405162461bcd60e51b8152602060048201526024808201527f45524332303a20617070726f76652066726f6d20746865207a65726f206164646044820152637265737360e01b6064820152608401610641565b6001600160a01b038216610d875760405162461bcd60e51b815260206004820152602260248201527f45524332303a20617070726f766520746f20746865207a65726f206164647265604482015261737360f01b6064820152608401610641565b6001600160a01b0383811660008181526003602090815260408083209487168084529482529182902085905590518481527f8c5be1e5ebec7d5bd14f71427d1e84f3dd0314c0f7b2291e5b200ac8c7c3b925910160405180910390a3505050565b6000610df48484610bcb565b90506000198114610e5c5781811015610e4f5760405162461bcd60e51b815260206004820152601d60248201527f45524332303a20696e73756666696369656e7420616c6c6f77616e63650000006044820152606401610641565b610e5c8484848403610cc4565b50505050565b6001600160a01b038316610ec65760405162461bcd60e51b815260206004820152602560248201527f45524332303a207472616e736665722066726f6d20746865207a65726f206164604482015264647265737360d81b6064820152608401610641565b6001600160a01b038216610f285760405162461bcd60e51b815260206004820152602360248201527f45524332303a207472616e7366657220746f20746865207a65726f206164647260448201526265737360e81b6064820152608401610641565b610f338383836113c2565b6001600160a01b03831660009081526002602052604090205481811015610fab5760405162461bcd60e51b815260206004820152602660248201527f45524332303a207472616e7366657220616d6f756e7420657863656564732062604482015265616c616e636560d01b6064820152608401610641565b6001600160a01b03808516600090815260026020526040808220858503905591851681529081208054849290610fe2908490611b3f565b92505081905550826001600160a01b0316846001600160a01b03167fddf252ad1be2c89b69c2b068fc378daa952ba7f163c4a11628f55a4df523b3ef8460405161102e91815260200190565b60405180910390a3610e5c565b6107c981336113cd565b61104f8282610bf6565b60008281526001602052604090206105d09082610c7a565b6110718282611431565b60008281526001602052604090206105d09082611496565b6110916114ab565b6007805460ff191690557f5db9ee0a495bf2e6ff9c91a7834c1ba4fdd244a5e8aa4e537bd38aeae4b073aa335b6040516001600160a01b03909116815260200160405180910390a1565b6001600160a01b0382166111315760405162461bcd60e51b815260206004820152601f60248201527f45524332303a206d696e7420746f20746865207a65726f2061646472657373006044820152606401610641565b61113d600083836113c2565b806004600082825461114f9190611b3f565b90915550506001600160a01b0382166000908152600260205260408120805483929061117c908490611b3f565b90915550506040518181526001600160a01b038316906000907fddf252ad1be2c89b69c2b068fc378daa952ba7f163c4a11628f55a4df523b3ef9060200160405180910390a35050565b6001600160a01b0382166112265760405162461bcd60e51b815260206004820152602160248201527f45524332303a206275726e2066726f6d20746865207a65726f206164647265736044820152607360f81b6064820152608401610641565b611232826000836113c2565b6001600160a01b038216600090815260026020526040902054818110156112a65760405162461bcd60e51b815260206004820152602260248201527f45524332303a206275726e20616d6f756e7420657863656564732062616c616e604482015261636560f01b6064820152608401610641565b6001600160a01b03831660009081526002602052604081208383039055600480548492906112d5908490611b76565b90915550506040518281526000906001600160a01b038516907fddf252ad1be2c89b69c2b068fc378daa952ba7f163c4a11628f55a4df523b3ef9060200160405180910390a3505050565b6113286114f4565b6007805460ff191660011790557f62e78cea01bee320cd4e420270b5ea74000d11b0c9f74754ebdbfc544b05a2586110be3390565b600061089d838361153a565b60006104d7825490565b60008181526001830160205260408120546113ba575081546001818101845560008481526020808220909301849055845484825282860190935260409020919091556104d7565b5060006104d7565b6105d0838383611572565b6113d782826108a4565b610654576113ef816001600160a01b031660146115d8565b6113fa8360206115d8565b60405160200161140b929190611a97565b60408051601f198184030181529082905262461bcd60e51b825261064191600401611b0c565b61143b82826108a4565b15610654576000828152602081815260408083206001600160a01b0385168085529252808320805460ff1916905551339285917ff6391f5c32d9c69d2a47ea670b442974b53935d1edc7fd64eb21e047a839171b9190a45050565b600061089d836001600160a01b0384166117ba565b60075460ff1661071e5760405162461bcd60e51b815260206004820152601460248201527314185d5cd8589b194e881b9bdd081c185d5cd95960621b6044820152606401610641565b60075460ff161561071e5760405162461bcd60e51b815260206004820152601060248201526f14185d5cd8589b194e881c185d5cd95960821b6044820152606401610641565b600082600001828154811061155f57634e487b7160e01b600052603260045260246000fd5b9060005260206000200154905092915050565b60075460ff16156105d05760405162461bcd60e51b815260206004820152602a60248201527f45524332305061757361626c653a20746f6b656e207472616e736665722077686044820152691a5b19481c185d5cd95960b21b6064820152608401610641565b606060006115e7836002611b57565b6115f2906002611b3f565b67ffffffffffffffff81111561161857634e487b7160e01b600052604160045260246000fd5b6040519080825280601f01601f191660200182016040528015611642576020820181803683370190505b509050600360fc1b8160008151811061166b57634e487b7160e01b600052603260045260246000fd5b60200101906001600160f81b031916908160001a905350600f60fb1b816001815181106116a857634e487b7160e01b600052603260045260246000fd5b60200101906001600160f81b031916908160001a90535060006116cc846002611b57565b6116d7906001611b3f565b90505b600181111561176b576f181899199a1a9b1b9c1cb0b131b232b360811b85600f166010811061171957634e487b7160e01b600052603260045260246000fd5b1a60f81b82828151811061173d57634e487b7160e01b600052603260045260246000fd5b60200101906001600160f81b031916908160001a90535060049490941c9361176481611bb9565b90506116da565b50831561089d5760405162461bcd60e51b815260206004820181905260248201527f537472696e67733a20686578206c656e67746820696e73756666696369656e746044820152606401610641565b600081815260018301602052604081205480156118cd5760006117de600183611b76565b85549091506000906117f290600190611b76565b905081811461187357600086600001828154811061182057634e487b7160e01b600052603260045260246000fd5b906000526020600020015490508087600001848154811061185157634e487b7160e01b600052603260045260246000fd5b6000918252602080832090910192909255918252600188019052604090208390555b855486908061189257634e487b7160e01b600052603160045260246000fd5b6001900381819060005260206000200160009055905585600101600086815260200190815260200160002060009055600193505050506104d7565b60009150506104d7565b80356001600160a01b03811681146118ee57600080fd5b919050565b600060208284031215611904578081fd5b61089d826118d7565b6000806040838503121561191f578081fd5b611928836118d7565b9150611936602084016118d7565b90509250929050565b600080600060608486031215611953578081fd5b61195c846118d7565b925061196a602085016118d7565b9150604084013590509250925092565b600080600080600080600060e0888a031215611994578283fd5b61199d886118d7565b96506119ab602089016118d7565b95506040880135945060608801359350608088013560ff811681146119ce578384fd5b9699959850939692959460a0840135945060c09093013592915050565b600080604083850312156119fd578182fd5b611a06836118d7565b946020939093013593505050565b600060208284031215611a25578081fd5b5035919050565b60008060408385031215611a3e578182fd5b82359150611936602084016118d7565b60008060408385031215611a60578182fd5b50508035926020909101359150565b600060208284031215611a80578081fd5b81356001600160e01b03198116811461089d578182fd5b7f416363657373436f6e74726f6c3a206163636f756e7420000000000000000000815260008351611acf816017850160208801611b8d565b7001034b99036b4b9b9b4b733903937b6329607d1b6017918401918201528351611b00816028840160208801611b8d565b01602801949350505050565b6020815260008251806020840152611b2b816040850160208701611b8d565b601f01601f19169190910160400192915050565b60008219821115611b5257611b52611c26565b500190565b6000816000190483118215151615611b7157611b71611c26565b500290565b600082821015611b8857611b88611c26565b500390565b60005b83811015611ba8578181015183820152602001611b90565b83811115610e5c5750506000910152565b600081611bc857611bc8611c26565b506000190190565b600181811c90821680611be457607f821691505b60208210811415611c0557634e487b7160e01b600052602260045260246000fd5b50919050565b6000600019821415611c1f57611c1f611c26565b5060010190565b634e487b7160e01b600052601160045260246000fdfea26469706673582212202cd64e9902c210a1cad9528133428d683ad6c6e5eb502b2ffebdc92d820c328c64736f6c63430008040033",
  "linkReferences": {},
  "deployedLinkReferences": {}
}