{
	"ChangeVarsWithDelegate.sol": {
		"Updated": {
			"abi": [
				{
					"inputs": [
						{
							"internalType": "uint256",
							"name": "d1",
							"type": "uint256"
						},
						{
							"internalType": "string",
							"name": "d2",
							"type": "string"
						},
						{
							"internalType": "address",
							"name": "d3",
							"type": "address"
						}
					],
					"name": "set",
					"outputs": [],
					"stateMutability": "nonpayable",
					"type": "function"
				},
				{
					"inputs": [
						{
							"internalType": "uint256",
							"name": "m",
							"type": "uint256"
						}
					],
					"name": "setModifier",
					"outputs": [],
					"stateMutability": "nonpayable",
					"type": "function"
				}
			],
			"devdoc": {
				"kind": "dev",
				"methods": {},
				"version": 1
			},
			"evm": {
				"assembly": "    /* \"ChangeVarsWithDelegate.sol\":333:627  contract Updated{... */\n  mstore(0x40, 0x80)\n  callvalue\n  dup1\n  iszero\n  tag_1\n  jumpi\n  0x00\n  dup1\n  revert\ntag_1:\n  pop\n  dataSize(sub_0)\n  dup1\n  dataOffset(sub_0)\n  0x00\n  codecopy\n  0x00\n  return\nstop\n\nsub_0: assembly {\n        /* \"ChangeVarsWithDelegate.sol\":333:627  contract Updated{... */\n      mstore(0x40, 0x80)\n      callvalue\n      dup1\n      iszero\n      tag_1\n      jumpi\n      0x00\n      dup1\n      revert\n    tag_1:\n      pop\n      jumpi(tag_2, lt(calldatasize, 0x04))\n      shr(0xe0, calldataload(0x00))\n      dup1\n      0x27852c8d\n      eq\n      tag_3\n      jumpi\n      dup1\n      0x5eba0df0\n      eq\n      tag_4\n      jumpi\n    tag_2:\n      0x00\n      dup1\n      revert\n        /* \"ChangeVarsWithDelegate.sol\":430:497  function setModifier(uint m) external {... */\n    tag_3:\n      tag_5\n      0x04\n      dup1\n      calldatasize\n      sub\n      dup2\n      add\n      swap1\n      tag_6\n      swap2\n      swap1\n      tag_7\n      jump\t// in\n    tag_6:\n      tag_8\n      jump\t// in\n    tag_5:\n      stop\n        /* \"ChangeVarsWithDelegate.sol\":503:625  function set(uint d1,string calldata d2,address d3) external {... */\n    tag_4:\n      tag_9\n      0x04\n      dup1\n      calldatasize\n      sub\n      dup2\n      add\n      swap1\n      tag_10\n      swap2\n      swap1\n      tag_11\n      jump\t// in\n    tag_10:\n      tag_12\n      jump\t// in\n    tag_9:\n      stop\n        /* \"ChangeVarsWithDelegate.sol\":430:497  function setModifier(uint m) external {... */\n    tag_8:\n        /* \"ChangeVarsWithDelegate.sol\":489:490  m */\n      dup1\n        /* \"ChangeVarsWithDelegate.sol\":478:488  myModifier */\n      0x03\n        /* \"ChangeVarsWithDelegate.sol\":478:490  myModifier=m */\n      dup2\n      swap1\n      sstore\n      pop\n        /* \"ChangeVarsWithDelegate.sol\":430:497  function setModifier(uint m) external {... */\n      pop\n      jump\t// out\n        /* \"ChangeVarsWithDelegate.sol\":503:625  function set(uint d1,string calldata d2,address d3) external {... */\n    tag_12:\n        /* \"ChangeVarsWithDelegate.sol\":580:582  d1 */\n      dup4\n        /* \"ChangeVarsWithDelegate.sol\":574:579  data1 */\n      0x00\n        /* \"ChangeVarsWithDelegate.sol\":574:582  data1=d1 */\n      dup2\n      swap1\n      sstore\n      pop\n        /* \"ChangeVarsWithDelegate.sol\":598:600  d2 */\n      dup3\n      dup3\n        /* \"ChangeVarsWithDelegate.sol\":592:597  data2 */\n      0x01\n        /* \"ChangeVarsWithDelegate.sol\":592:600  data2=d2 */\n      swap2\n      swap1\n      tag_15\n      swap3\n      swap2\n      swap1\n      tag_16\n      jump\t// in\n    tag_15:\n      pop\n        /* \"ChangeVarsWithDelegate.sol\":616:618  d3 */\n      dup1\n        /* \"ChangeVarsWithDelegate.sol\":610:615  data3 */\n      0x02\n      0x00\n        /* \"ChangeVarsWithDelegate.sol\":610:618  data3=d3 */\n      0x0100\n      exp\n      dup2\n      sload\n      dup2\n      0xffffffffffffffffffffffffffffffffffffffff\n      mul\n      not\n      and\n      swap1\n      dup4\n      0xffffffffffffffffffffffffffffffffffffffff\n      and\n      mul\n      or\n      swap1\n      sstore\n      pop\n        /* \"ChangeVarsWithDelegate.sol\":503:625  function set(uint d1,string calldata d2,address d3) external {... */\n      pop\n      pop\n      pop\n      pop\n      jump\t// out\n    tag_16:\n      dup3\n      dup1\n      sload\n      tag_17\n      swap1\n      tag_18\n      jump\t// in\n    tag_17:\n      swap1\n      0x00\n      mstore\n      keccak256(0x00, 0x20)\n      swap1\n      0x1f\n      add\n      0x20\n      swap1\n      div\n      dup2\n      add\n      swap3\n      dup3\n      tag_20\n      jumpi\n      0x00\n      dup6\n      sstore\n      jump(tag_19)\n    tag_20:\n      dup3\n      0x1f\n      lt\n      tag_21\n      jumpi\n      dup1\n      calldataload\n      not(0xff)\n      and\n      dup4\n      dup1\n      add\n      or\n      dup6\n      sstore\n      jump(tag_19)\n    tag_21:\n      dup3\n      dup1\n      add\n      0x01\n      add\n      dup6\n      sstore\n      dup3\n      iszero\n      tag_19\n      jumpi\n      swap2\n      dup3\n      add\n    tag_22:\n      dup3\n      dup2\n      gt\n      iszero\n      tag_23\n      jumpi\n      dup3\n      calldataload\n      dup3\n      sstore\n      swap2\n      0x20\n      add\n      swap2\n      swap1\n      0x01\n      add\n      swap1\n      jump(tag_22)\n    tag_23:\n    tag_19:\n      pop\n      swap1\n      pop\n      tag_24\n      swap2\n      swap1\n      tag_25\n      jump\t// in\n    tag_24:\n      pop\n      swap1\n      jump\t// out\n    tag_25:\n    tag_26:\n      dup1\n      dup3\n      gt\n      iszero\n      tag_27\n      jumpi\n      0x00\n      dup2\n      0x00\n      swap1\n      sstore\n      pop\n      0x01\n      add\n      jump(tag_26)\n    tag_27:\n      pop\n      swap1\n      jump\t// out\n        /* \"#utility.yul\":7:146   */\n    tag_29:\n        /* \"#utility.yul\":53:58   */\n      0x00\n        /* \"#utility.yul\":91:97   */\n      dup2\n        /* \"#utility.yul\":78:98   */\n      calldataload\n        /* \"#utility.yul\":69:98   */\n      swap1\n      pop\n        /* \"#utility.yul\":107:140   */\n      tag_31\n        /* \"#utility.yul\":134:139   */\n      dup2\n        /* \"#utility.yul\":107:140   */\n      tag_32\n      jump\t// in\n    tag_31:\n        /* \"#utility.yul\":7:146   */\n      swap3\n      swap2\n      pop\n      pop\n      jump\t// out\n        /* \"#utility.yul\":166:719   */\n    tag_33:\n        /* \"#utility.yul\":224:232   */\n      0x00\n        /* \"#utility.yul\":234:240   */\n      dup1\n        /* \"#utility.yul\":284:287   */\n      dup4\n        /* \"#utility.yul\":277:281   */\n      0x1f\n        /* \"#utility.yul\":269:275   */\n      dup5\n        /* \"#utility.yul\":265:282   */\n      add\n        /* \"#utility.yul\":261:288   */\n      slt\n        /* \"#utility.yul\":251:373   */\n      tag_35\n      jumpi\n        /* \"#utility.yul\":292:371   */\n      tag_36\n      tag_37\n      jump\t// in\n    tag_36:\n        /* \"#utility.yul\":251:373   */\n    tag_35:\n        /* \"#utility.yul\":405:411   */\n      dup3\n        /* \"#utility.yul\":392:412   */\n      calldataload\n        /* \"#utility.yul\":382:412   */\n      swap1\n      pop\n        /* \"#utility.yul\":435:453   */\n      0xffffffffffffffff\n        /* \"#utility.yul\":427:433   */\n      dup2\n        /* \"#utility.yul\":424:454   */\n      gt\n        /* \"#utility.yul\":421:538   */\n      iszero\n      tag_38\n      jumpi\n        /* \"#utility.yul\":457:536   */\n      tag_39\n      tag_40\n      jump\t// in\n    tag_39:\n        /* \"#utility.yul\":421:538   */\n    tag_38:\n        /* \"#utility.yul\":571:575   */\n      0x20\n        /* \"#utility.yul\":563:569   */\n      dup4\n        /* \"#utility.yul\":559:576   */\n      add\n        /* \"#utility.yul\":547:576   */\n      swap2\n      pop\n        /* \"#utility.yul\":625:628   */\n      dup4\n        /* \"#utility.yul\":617:621   */\n      0x01\n        /* \"#utility.yul\":609:615   */\n      dup3\n        /* \"#utility.yul\":605:622   */\n      mul\n        /* \"#utility.yul\":595:603   */\n      dup4\n        /* \"#utility.yul\":591:623   */\n      add\n        /* \"#utility.yul\":588:629   */\n      gt\n        /* \"#utility.yul\":585:713   */\n      iszero\n      tag_41\n      jumpi\n        /* \"#utility.yul\":632:711   */\n      tag_42\n      tag_43\n      jump\t// in\n    tag_42:\n        /* \"#utility.yul\":585:713   */\n    tag_41:\n        /* \"#utility.yul\":166:719   */\n      swap3\n      pop\n      swap3\n      swap1\n      pop\n      jump\t// out\n        /* \"#utility.yul\":725:864   */\n    tag_44:\n        /* \"#utility.yul\":771:776   */\n      0x00\n        /* \"#utility.yul\":809:815   */\n      dup2\n        /* \"#utility.yul\":796:816   */\n      calldataload\n        /* \"#utility.yul\":787:816   */\n      swap1\n      pop\n        /* \"#utility.yul\":825:858   */\n      tag_46\n        /* \"#utility.yul\":852:857   */\n      dup2\n        /* \"#utility.yul\":825:858   */\n      tag_47\n      jump\t// in\n    tag_46:\n        /* \"#utility.yul\":725:864   */\n      swap3\n      swap2\n      pop\n      pop\n      jump\t// out\n        /* \"#utility.yul\":870:1199   */\n    tag_7:\n        /* \"#utility.yul\":929:935   */\n      0x00\n        /* \"#utility.yul\":978:980   */\n      0x20\n        /* \"#utility.yul\":966:975   */\n      dup3\n        /* \"#utility.yul\":957:964   */\n      dup5\n        /* \"#utility.yul\":953:976   */\n      sub\n        /* \"#utility.yul\":949:981   */\n      slt\n        /* \"#utility.yul\":946:1065   */\n      iszero\n      tag_49\n      jumpi\n        /* \"#utility.yul\":984:1063   */\n      tag_50\n      tag_51\n      jump\t// in\n    tag_50:\n        /* \"#utility.yul\":946:1065   */\n    tag_49:\n        /* \"#utility.yul\":1104:1105   */\n      0x00\n        /* \"#utility.yul\":1129:1182   */\n      tag_52\n        /* \"#utility.yul\":1174:1181   */\n      dup5\n        /* \"#utility.yul\":1165:1171   */\n      dup3\n        /* \"#utility.yul\":1154:1163   */\n      dup6\n        /* \"#utility.yul\":1150:1172   */\n      add\n        /* \"#utility.yul\":1129:1182   */\n      tag_44\n      jump\t// in\n    tag_52:\n        /* \"#utility.yul\":1119:1182   */\n      swap2\n      pop\n        /* \"#utility.yul\":1075:1192   */\n      pop\n        /* \"#utility.yul\":870:1199   */\n      swap3\n      swap2\n      pop\n      pop\n      jump\t// out\n        /* \"#utility.yul\":1205:2024   */\n    tag_11:\n        /* \"#utility.yul\":1294:1300   */\n      0x00\n        /* \"#utility.yul\":1302:1308   */\n      dup1\n        /* \"#utility.yul\":1310:1316   */\n      0x00\n        /* \"#utility.yul\":1318:1324   */\n      dup1\n        /* \"#utility.yul\":1367:1369   */\n      0x60\n        /* \"#utility.yul\":1355:1364   */\n      dup6\n        /* \"#utility.yul\":1346:1353   */\n      dup8\n        /* \"#utility.yul\":1342:1365   */\n      sub\n        /* \"#utility.yul\":1338:1370   */\n      slt\n        /* \"#utility.yul\":1335:1454   */\n      iszero\n      tag_54\n      jumpi\n        /* \"#utility.yul\":1373:1452   */\n      tag_55\n      tag_51\n      jump\t// in\n    tag_55:\n        /* \"#utility.yul\":1335:1454   */\n    tag_54:\n        /* \"#utility.yul\":1493:1494   */\n      0x00\n        /* \"#utility.yul\":1518:1571   */\n      tag_56\n        /* \"#utility.yul\":1563:1570   */\n      dup8\n        /* \"#utility.yul\":1554:1560   */\n      dup3\n        /* \"#utility.yul\":1543:1552   */\n      dup9\n        /* \"#utility.yul\":1539:1561   */\n      add\n        /* \"#utility.yul\":1518:1571   */\n      tag_44\n      jump\t// in\n    tag_56:\n        /* \"#utility.yul\":1508:1571   */\n      swap5\n      pop\n        /* \"#utility.yul\":1464:1581   */\n      pop\n        /* \"#utility.yul\":1648:1650   */\n      0x20\n        /* \"#utility.yul\":1637:1646   */\n      dup6\n        /* \"#utility.yul\":1633:1651   */\n      add\n        /* \"#utility.yul\":1620:1652   */\n      calldataload\n        /* \"#utility.yul\":1679:1697   */\n      0xffffffffffffffff\n        /* \"#utility.yul\":1671:1677   */\n      dup2\n        /* \"#utility.yul\":1668:1698   */\n      gt\n        /* \"#utility.yul\":1665:1782   */\n      iszero\n      tag_57\n      jumpi\n        /* \"#utility.yul\":1701:1780   */\n      tag_58\n      tag_59\n      jump\t// in\n    tag_58:\n        /* \"#utility.yul\":1665:1782   */\n    tag_57:\n        /* \"#utility.yul\":1814:1879   */\n      tag_60\n        /* \"#utility.yul\":1871:1878   */\n      dup8\n        /* \"#utility.yul\":1862:1868   */\n      dup3\n        /* \"#utility.yul\":1851:1860   */\n      dup9\n        /* \"#utility.yul\":1847:1869   */\n      add\n        /* \"#utility.yul\":1814:1879   */\n      tag_33\n      jump\t// in\n    tag_60:\n        /* \"#utility.yul\":1796:1879   */\n      swap4\n      pop\n      swap4\n      pop\n        /* \"#utility.yul\":1591:1889   */\n      pop\n        /* \"#utility.yul\":1928:1930   */\n      0x40\n        /* \"#utility.yul\":1954:2007   */\n      tag_61\n        /* \"#utility.yul\":1999:2006   */\n      dup8\n        /* \"#utility.yul\":1990:1996   */\n      dup3\n        /* \"#utility.yul\":1979:1988   */\n      dup9\n        /* \"#utility.yul\":1975:1997   */\n      add\n        /* \"#utility.yul\":1954:2007   */\n      tag_29\n      jump\t// in\n    tag_61:\n        /* \"#utility.yul\":1944:2007   */\n      swap2\n      pop\n        /* \"#utility.yul\":1899:2017   */\n      pop\n        /* \"#utility.yul\":1205:2024   */\n      swap3\n      swap6\n      swap2\n      swap5\n      pop\n      swap3\n      pop\n      jump\t// out\n        /* \"#utility.yul\":2111:2207   */\n    tag_64:\n        /* \"#utility.yul\":2148:2155   */\n      0x00\n        /* \"#utility.yul\":2177:2201   */\n      tag_66\n        /* \"#utility.yul\":2195:2200   */\n      dup3\n        /* \"#utility.yul\":2177:2201   */\n      tag_67\n      jump\t// in\n    tag_66:\n        /* \"#utility.yul\":2166:2201   */\n      swap1\n      pop\n        /* \"#utility.yul\":2111:2207   */\n      swap2\n      swap1\n      pop\n      jump\t// out\n        /* \"#utility.yul\":2213:2339   */\n    tag_67:\n        /* \"#utility.yul\":2250:2257   */\n      0x00\n        /* \"#utility.yul\":2290:2332   */\n      0xffffffffffffffffffffffffffffffffffffffff\n        /* \"#utility.yul\":2283:2288   */\n      dup3\n        /* \"#utility.yul\":2279:2333   */\n      and\n        /* \"#utility.yul\":2268:2333   */\n      swap1\n      pop\n        /* \"#utility.yul\":2213:2339   */\n      swap2\n      swap1\n      pop\n      jump\t// out\n        /* \"#utility.yul\":2345:2422   */\n    tag_69:\n        /* \"#utility.yul\":2382:2389   */\n      0x00\n        /* \"#utility.yul\":2411:2416   */\n      dup2\n        /* \"#utility.yul\":2400:2416   */\n      swap1\n      pop\n        /* \"#utility.yul\":2345:2422   */\n      swap2\n      swap1\n      pop\n      jump\t// out\n        /* \"#utility.yul\":2428:2748   */\n    tag_18:\n        /* \"#utility.yul\":2472:2478   */\n      0x00\n        /* \"#utility.yul\":2509:2510   */\n      0x02\n        /* \"#utility.yul\":2503:2507   */\n      dup3\n        /* \"#utility.yul\":2499:2511   */\n      div\n        /* \"#utility.yul\":2489:2511   */\n      swap1\n      pop\n        /* \"#utility.yul\":2556:2557   */\n      0x01\n        /* \"#utility.yul\":2550:2554   */\n      dup3\n        /* \"#utility.yul\":2546:2558   */\n      and\n        /* \"#utility.yul\":2577:2595   */\n      dup1\n        /* \"#utility.yul\":2567:2648   */\n      tag_72\n      jumpi\n        /* \"#utility.yul\":2633:2637   */\n      0x7f\n        /* \"#utility.yul\":2625:2631   */\n      dup3\n        /* \"#utility.yul\":2621:2638   */\n      and\n        /* \"#utility.yul\":2611:2638   */\n      swap2\n      pop\n        /* \"#utility.yul\":2567:2648   */\n    tag_72:\n        /* \"#utility.yul\":2695:2697   */\n      0x20\n        /* \"#utility.yul\":2687:2693   */\n      dup3\n        /* \"#utility.yul\":2684:2698   */\n      lt\n        /* \"#utility.yul\":2664:2682   */\n      dup2\n        /* \"#utility.yul\":2661:2699   */\n      eq\n        /* \"#utility.yul\":2658:2742   */\n      iszero\n      tag_73\n      jumpi\n        /* \"#utility.yul\":2714:2732   */\n      tag_74\n      tag_75\n      jump\t// in\n    tag_74:\n        /* \"#utility.yul\":2658:2742   */\n    tag_73:\n        /* \"#utility.yul\":2479:2748   */\n      pop\n        /* \"#utility.yul\":2428:2748   */\n      swap2\n      swap1\n      pop\n      jump\t// out\n        /* \"#utility.yul\":2754:2934   */\n    tag_75:\n        /* \"#utility.yul\":2802:2879   */\n      0x4e487b7100000000000000000000000000000000000000000000000000000000\n        /* \"#utility.yul\":2799:2800   */\n      0x00\n        /* \"#utility.yul\":2792:2880   */\n      mstore\n        /* \"#utility.yul\":2899:2903   */\n      0x22\n        /* \"#utility.yul\":2896:2897   */\n      0x04\n        /* \"#utility.yul\":2889:2904   */\n      mstore\n        /* \"#utility.yul\":2923:2927   */\n      0x24\n        /* \"#utility.yul\":2920:2921   */\n      0x00\n        /* \"#utility.yul\":2913:2928   */\n      revert\n        /* \"#utility.yul\":2940:3057   */\n    tag_40:\n        /* \"#utility.yul\":3049:3050   */\n      0x00\n        /* \"#utility.yul\":3046:3047   */\n      dup1\n        /* \"#utility.yul\":3039:3051   */\n      revert\n        /* \"#utility.yul\":3063:3180   */\n    tag_37:\n        /* \"#utility.yul\":3172:3173   */\n      0x00\n        /* \"#utility.yul\":3169:3170   */\n      dup1\n        /* \"#utility.yul\":3162:3174   */\n      revert\n        /* \"#utility.yul\":3186:3303   */\n    tag_43:\n        /* \"#utility.yul\":3295:3296   */\n      0x00\n        /* \"#utility.yul\":3292:3293   */\n      dup1\n        /* \"#utility.yul\":3285:3297   */\n      revert\n        /* \"#utility.yul\":3309:3426   */\n    tag_59:\n        /* \"#utility.yul\":3418:3419   */\n      0x00\n        /* \"#utility.yul\":3415:3416   */\n      dup1\n        /* \"#utility.yul\":3408:3420   */\n      revert\n        /* \"#utility.yul\":3432:3549   */\n    tag_51:\n        /* \"#utility.yul\":3541:3542   */\n      0x00\n        /* \"#utility.yul\":3538:3539   */\n      dup1\n        /* \"#utility.yul\":3531:3543   */\n      revert\n        /* \"#utility.yul\":3555:3677   */\n    tag_32:\n        /* \"#utility.yul\":3628:3652   */\n      tag_83\n        /* \"#utility.yul\":3646:3651   */\n      dup2\n        /* \"#utility.yul\":3628:3652   */\n      tag_64\n      jump\t// in\n    tag_83:\n        /* \"#utility.yul\":3621:3626   */\n      dup2\n        /* \"#utility.yul\":3618:3653   */\n      eq\n        /* \"#utility.yul\":3608:3671   */\n      tag_84\n      jumpi\n        /* \"#utility.yul\":3667:3668   */\n      0x00\n        /* \"#utility.yul\":3664:3665   */\n      dup1\n        /* \"#utility.yul\":3657:3669   */\n      revert\n        /* \"#utility.yul\":3608:3671   */\n    tag_84:\n        /* \"#utility.yul\":3555:3677   */\n      pop\n      jump\t// out\n        /* \"#utility.yul\":3683:3805   */\n    tag_47:\n        /* \"#utility.yul\":3756:3780   */\n      tag_86\n        /* \"#utility.yul\":3774:3779   */\n      dup2\n        /* \"#utility.yul\":3756:3780   */\n      tag_69\n      jump\t// in\n    tag_86:\n        /* \"#utility.yul\":3749:3754   */\n      dup2\n        /* \"#utility.yul\":3746:3781   */\n      eq\n        /* \"#utility.yul\":3736:3799   */\n      tag_87\n      jumpi\n        /* \"#utility.yul\":3795:3796   */\n      0x00\n        /* \"#utility.yul\":3792:3793   */\n      dup1\n        /* \"#utility.yul\":3785:3797   */\n      revert\n        /* \"#utility.yul\":3736:3799   */\n    tag_87:\n        /* \"#utility.yul\":3683:3805   */\n      pop\n      jump\t// out\n\n    auxdata: 0xa2646970667358221220542fa9cb3fc3ec914dadf3529ff65ce4b736f87c904a94297930c978c440218564736f6c63430008070033\n}\n",
				"bytecode": {
					"linkReferences": {},
					"object": "608060405234801561001057600080fd5b506103bb806100206000396000f3fe608060405234801561001057600080fd5b50600436106100365760003560e01c806327852c8d1461003b5780635eba0df014610057575b600080fd5b61005560048036038101906100509190610200565b610073565b005b610071600480360381019061006c919061022d565b61007d565b005b8060038190555050565b836000819055508282600191906100959291906100dd565b5080600260006101000a81548173ffffffffffffffffffffffffffffffffffffffff021916908373ffffffffffffffffffffffffffffffffffffffff16021790555050505050565b8280546100e9906102dd565b90600052602060002090601f01602090048101928261010b5760008555610152565b82601f1061012457803560ff1916838001178555610152565b82800160010185558215610152579182015b82811115610151578235825591602001919060010190610136565b5b50905061015f9190610163565b5090565b5b8082111561017c576000816000905550600101610164565b5090565b60008135905061018f81610357565b92915050565b60008083601f8401126101ab576101aa610343565b5b8235905067ffffffffffffffff8111156101c8576101c761033e565b5b6020830191508360018202830111156101e4576101e3610348565b5b9250929050565b6000813590506101fa8161036e565b92915050565b60006020828403121561021657610215610352565b5b6000610224848285016101eb565b91505092915050565b6000806000806060858703121561024757610246610352565b5b6000610255878288016101eb565b945050602085013567ffffffffffffffff8111156102765761027561034d565b5b61028287828801610195565b9350935050604061029587828801610180565b91505092959194509250565b60006102ac826102b3565b9050919050565b600073ffffffffffffffffffffffffffffffffffffffff82169050919050565b6000819050919050565b600060028204905060018216806102f557607f821691505b602082108114156103095761030861030f565b5b50919050565b7f4e487b7100000000000000000000000000000000000000000000000000000000600052602260045260246000fd5b600080fd5b600080fd5b600080fd5b600080fd5b600080fd5b610360816102a1565b811461036b57600080fd5b50565b610377816102d3565b811461038257600080fd5b5056fea2646970667358221220542fa9cb3fc3ec914dadf3529ff65ce4b736f87c904a94297930c978c440218564736f6c63430008070033",
					"opcodes": "PUSH1 0x80 PUSH1 0x40 MSTORE CALLVALUE DUP1 ISZERO PUSH2 0x10 JUMPI PUSH1 0x0 DUP1 REVERT JUMPDEST POP PUSH2 0x3BB DUP1 PUSH2 0x20 PUSH1 0x0 CODECOPY PUSH1 0x0 RETURN INVALID PUSH1 0x80 PUSH1 0x40 MSTORE CALLVALUE DUP1 ISZERO PUSH2 0x10 JUMPI PUSH1 0x0 DUP1 REVERT JUMPDEST POP PUSH1 0x4 CALLDATASIZE LT PUSH2 0x36 JUMPI PUSH1 0x0 CALLDATALOAD PUSH1 0xE0 SHR DUP1 PUSH4 0x27852C8D EQ PUSH2 0x3B JUMPI DUP1 PUSH4 0x5EBA0DF0 EQ PUSH2 0x57 JUMPI JUMPDEST PUSH1 0x0 DUP1 REVERT JUMPDEST PUSH2 0x55 PUSH1 0x4 DUP1 CALLDATASIZE SUB DUP2 ADD SWAP1 PUSH2 0x50 SWAP2 SWAP1 PUSH2 0x200 JUMP JUMPDEST PUSH2 0x73 JUMP JUMPDEST STOP JUMPDEST PUSH2 0x71 PUSH1 0x4 DUP1 CALLDATASIZE SUB DUP2 ADD SWAP1 PUSH2 0x6C SWAP2 SWAP1 PUSH2 0x22D JUMP JUMPDEST PUSH2 0x7D JUMP JUMPDEST STOP JUMPDEST DUP1 PUSH1 0x3 DUP2 SWAP1 SSTORE POP POP JUMP JUMPDEST DUP4 PUSH1 0x0 DUP2 SWAP1 SSTORE POP DUP3 DUP3 PUSH1 0x1 SWAP2 SWAP1 PUSH2 0x95 SWAP3 SWAP2 SWAP1 PUSH2 0xDD JUMP JUMPDEST POP DUP1 PUSH1 0x2 PUSH1 0x0 PUSH2 0x100 EXP DUP2 SLOAD DUP2 PUSH20 0xFFFFFFFFFFFFFFFFFFFFFFFFFFFFFFFFFFFFFFFF MUL NOT AND SWAP1 DUP4 PUSH20 0xFFFFFFFFFFFFFFFFFFFFFFFFFFFFFFFFFFFFFFFF AND MUL OR SWAP1 SSTORE POP POP POP POP POP JUMP JUMPDEST DUP3 DUP1 SLOAD PUSH2 0xE9 SWAP1 PUSH2 0x2DD JUMP JUMPDEST SWAP1 PUSH1 0x0 MSTORE PUSH1 0x20 PUSH1 0x0 KECCAK256 SWAP1 PUSH1 0x1F ADD PUSH1 0x20 SWAP1 DIV DUP2 ADD SWAP3 DUP3 PUSH2 0x10B JUMPI PUSH1 0x0 DUP6 SSTORE PUSH2 0x152 JUMP JUMPDEST DUP3 PUSH1 0x1F LT PUSH2 0x124 JUMPI DUP1 CALLDATALOAD PUSH1 0xFF NOT AND DUP4 DUP1 ADD OR DUP6 SSTORE PUSH2 0x152 JUMP JUMPDEST DUP3 DUP1 ADD PUSH1 0x1 ADD DUP6 SSTORE DUP3 ISZERO PUSH2 0x152 JUMPI SWAP2 DUP3 ADD JUMPDEST DUP3 DUP2 GT ISZERO PUSH2 0x151 JUMPI DUP3 CALLDATALOAD DUP3 SSTORE SWAP2 PUSH1 0x20 ADD SWAP2 SWAP1 PUSH1 0x1 ADD SWAP1 PUSH2 0x136 JUMP JUMPDEST JUMPDEST POP SWAP1 POP PUSH2 0x15F SWAP2 SWAP1 PUSH2 0x163 JUMP JUMPDEST POP SWAP1 JUMP JUMPDEST JUMPDEST DUP1 DUP3 GT ISZERO PUSH2 0x17C JUMPI PUSH1 0x0 DUP2 PUSH1 0x0 SWAP1 SSTORE POP PUSH1 0x1 ADD PUSH2 0x164 JUMP JUMPDEST POP SWAP1 JUMP JUMPDEST PUSH1 0x0 DUP2 CALLDATALOAD SWAP1 POP PUSH2 0x18F DUP2 PUSH2 0x357 JUMP JUMPDEST SWAP3 SWAP2 POP POP JUMP JUMPDEST PUSH1 0x0 DUP1 DUP4 PUSH1 0x1F DUP5 ADD SLT PUSH2 0x1AB JUMPI PUSH2 0x1AA PUSH2 0x343 JUMP JUMPDEST JUMPDEST DUP3 CALLDATALOAD SWAP1 POP PUSH8 0xFFFFFFFFFFFFFFFF DUP2 GT ISZERO PUSH2 0x1C8 JUMPI PUSH2 0x1C7 PUSH2 0x33E JUMP JUMPDEST JUMPDEST PUSH1 0x20 DUP4 ADD SWAP2 POP DUP4 PUSH1 0x1 DUP3 MUL DUP4 ADD GT ISZERO PUSH2 0x1E4 JUMPI PUSH2 0x1E3 PUSH2 0x348 JUMP JUMPDEST JUMPDEST SWAP3 POP SWAP3 SWAP1 POP JUMP JUMPDEST PUSH1 0x0 DUP2 CALLDATALOAD SWAP1 POP PUSH2 0x1FA DUP2 PUSH2 0x36E JUMP JUMPDEST SWAP3 SWAP2 POP POP JUMP JUMPDEST PUSH1 0x0 PUSH1 0x20 DUP3 DUP5 SUB SLT ISZERO PUSH2 0x216 JUMPI PUSH2 0x215 PUSH2 0x352 JUMP JUMPDEST JUMPDEST PUSH1 0x0 PUSH2 0x224 DUP5 DUP3 DUP6 ADD PUSH2 0x1EB JUMP JUMPDEST SWAP2 POP POP SWAP3 SWAP2 POP POP JUMP JUMPDEST PUSH1 0x0 DUP1 PUSH1 0x0 DUP1 PUSH1 0x60 DUP6 DUP8 SUB SLT ISZERO PUSH2 0x247 JUMPI PUSH2 0x246 PUSH2 0x352 JUMP JUMPDEST JUMPDEST PUSH1 0x0 PUSH2 0x255 DUP8 DUP3 DUP9 ADD PUSH2 0x1EB JUMP JUMPDEST SWAP5 POP POP PUSH1 0x20 DUP6 ADD CALLDATALOAD PUSH8 0xFFFFFFFFFFFFFFFF DUP2 GT ISZERO PUSH2 0x276 JUMPI PUSH2 0x275 PUSH2 0x34D JUMP JUMPDEST JUMPDEST PUSH2 0x282 DUP8 DUP3 DUP9 ADD PUSH2 0x195 JUMP JUMPDEST SWAP4 POP SWAP4 POP POP PUSH1 0x40 PUSH2 0x295 DUP8 DUP3 DUP9 ADD PUSH2 0x180 JUMP JUMPDEST SWAP2 POP POP SWAP3 SWAP6 SWAP2 SWAP5 POP SWAP3 POP JUMP JUMPDEST PUSH1 0x0 PUSH2 0x2AC DUP3 PUSH2 0x2B3 JUMP JUMPDEST SWAP1 POP SWAP2 SWAP1 POP JUMP JUMPDEST PUSH1 0x0 PUSH20 0xFFFFFFFFFFFFFFFFFFFFFFFFFFFFFFFFFFFFFFFF DUP3 AND SWAP1 POP SWAP2 SWAP1 POP JUMP JUMPDEST PUSH1 0x0 DUP2 SWAP1 POP SWAP2 SWAP1 POP JUMP JUMPDEST PUSH1 0x0 PUSH1 0x2 DUP3 DIV SWAP1 POP PUSH1 0x1 DUP3 AND DUP1 PUSH2 0x2F5 JUMPI PUSH1 0x7F DUP3 AND SWAP2 POP JUMPDEST PUSH1 0x20 DUP3 LT DUP2 EQ ISZERO PUSH2 0x309 JUMPI PUSH2 0x308 PUSH2 0x30F JUMP JUMPDEST JUMPDEST POP SWAP2 SWAP1 POP JUMP JUMPDEST PUSH32 0x4E487B7100000000000000000000000000000000000000000000000000000000 PUSH1 0x0 MSTORE PUSH1 0x22 PUSH1 0x4 MSTORE PUSH1 0x24 PUSH1 0x0 REVERT JUMPDEST PUSH1 0x0 DUP1 REVERT JUMPDEST PUSH1 0x0 DUP1 REVERT JUMPDEST PUSH1 0x0 DUP1 REVERT JUMPDEST PUSH1 0x0 DUP1 REVERT JUMPDEST PUSH1 0x0 DUP1 REVERT JUMPDEST PUSH2 0x360 DUP2 PUSH2 0x2A1 JUMP JUMPDEST DUP2 EQ PUSH2 0x36B JUMPI PUSH1 0x0 DUP1 REVERT JUMPDEST POP JUMP JUMPDEST PUSH2 0x377 DUP2 PUSH2 0x2D3 JUMP JUMPDEST DUP2 EQ PUSH2 0x382 JUMPI PUSH1 0x0 DUP1 REVERT JUMPDEST POP JUMP INVALID LOG2 PUSH5 0x6970667358 0x22 SLT KECCAK256 SLOAD 0x2F 0xA9 0xCB EXTCODEHASH 0xC3 0xEC SWAP2 0x4D 0xAD RETURN MSTORE SWAP16 0xF6 0x5C 0xE4 0xB7 CALLDATASIZE 0xF8 PUSH29 0x904A94297930C978C440218564736F6C63430008070033000000000000 "
				},
				"gasEstimates": {
					"creation": {
						"codeDepositCost": "191000",
						"executionCost": "232",
						"totalCost": "191232"
					},
					"external": {
						"set(uint256,string,address)": "infinite",
						"setModifier(uint256)": "22498"
					}
				},
				"methodIdentifiers": {
					"set(uint256,string,address)": "5eba0df0",
					"setModifier(uint256)": "27852c8d"
				}
			},
			"storageLayout": {
				"storage": [
					{
						"astId": 39,
						"contract": "ChangeVarsWithDelegate.sol:Updated",
						"label": "data1",
						"offset": 0,
						"slot": "0",
						"type": "t_uint256"
					},
					{
						"astId": 41,
						"contract": "ChangeVarsWithDelegate.sol:Updated",
						"label": "data2",
						"offset": 0,
						"slot": "1",
						"type": "t_string_storage"
					},
					{
						"astId": 43,
						"contract": "ChangeVarsWithDelegate.sol:Updated",
						"label": "data3",
						"offset": 0,
						"slot": "2",
						"type": "t_address"
					},
					{
						"astId": 45,
						"contract": "ChangeVarsWithDelegate.sol:Updated",
						"label": "myModifier",
						"offset": 0,
						"slot": "3",
						"type": "t_uint256"
					}
				],
				"types": {
					"t_address": {
						"encoding": "inplace",
						"label": "address",
						"numberOfBytes": "20"
					},
					"t_string_storage": {
						"encoding": "bytes",
						"label": "string",
						"numberOfBytes": "32"
					},
					"t_uint256": {
						"encoding": "inplace",
						"label": "uint256",
						"numberOfBytes": "32"
					}
				}
			},
			"userdoc": {
				"kind": "user",
				"methods": {},
				"version": 1
			}
		}
	}
}