{
	"Call.sol": {
		"CallTest": {
			"abi": [
				{
					"inputs": [
						{
							"internalType": "address",
							"name": "c",
							"type": "address"
						}
					],
					"name": "getX",
					"outputs": [
						{
							"internalType": "uint256",
							"name": "",
							"type": "uint256"
						}
					],
					"stateMutability": "nonpayable",
					"type": "function"
				},
				{
					"inputs": [
						{
							"internalType": "address",
							"name": "c",
							"type": "address"
						},
						{
							"internalType": "uint256",
							"name": "_x",
							"type": "uint256"
						}
					],
					"name": "setX",
					"outputs": [],
					"stateMutability": "nonpayable",
					"type": "function"
				}
			],
			"devdoc": {
				"kind": "dev",
				"methods": {},
				"version": 1
			},
			"evm": {
				"assembly": "    /* \"Call.sol\":226:693  contract CallTest{... */\n  mstore(0x40, 0x80)\n  callvalue\n  dup1\n  iszero\n  tag_1\n  jumpi\n  0x00\n  dup1\n  revert\ntag_1:\n  pop\n  dataSize(sub_0)\n  dup1\n  dataOffset(sub_0)\n  0x00\n  codecopy\n  0x00\n  return\nstop\n\nsub_0: assembly {\n        /* \"Call.sol\":226:693  contract CallTest{... */\n      mstore(0x40, 0x80)\n      callvalue\n      dup1\n      iszero\n      tag_1\n      jumpi\n      0x00\n      dup1\n      revert\n    tag_1:\n      pop\n      jumpi(tag_2, lt(calldatasize, 0x04))\n      shr(0xe0, calldataload(0x00))\n      dup1\n      0x4a2ad99f\n      eq\n      tag_3\n      jumpi\n      dup1\n      0x7c94c8ca\n      eq\n      tag_4\n      jumpi\n    tag_2:\n      0x00\n      dup1\n      revert\n        /* \"Call.sol\":529:691  function setX(address c,uint _x) external{... */\n    tag_3:\n      tag_5\n      0x04\n      dup1\n      calldatasize\n      sub\n      dup2\n      add\n      swap1\n      tag_6\n      swap2\n      swap1\n      tag_7\n      jump\t// in\n    tag_6:\n      tag_8\n      jump\t// in\n    tag_5:\n      stop\n        /* \"Call.sol\":249:522  function getX(address c) external returns(uint){... */\n    tag_4:\n      tag_9\n      0x04\n      dup1\n      calldatasize\n      sub\n      dup2\n      add\n      swap1\n      tag_10\n      swap2\n      swap1\n      tag_11\n      jump\t// in\n    tag_10:\n      tag_12\n      jump\t// in\n    tag_9:\n      mload(0x40)\n      tag_13\n      swap2\n      swap1\n      tag_14\n      jump\t// in\n    tag_13:\n      mload(0x40)\n      dup1\n      swap2\n      sub\n      swap1\n      return\n        /* \"Call.sol\":529:691  function setX(address c,uint _x) external{... */\n    tag_8:\n        /* \"Call.sol\":581:593  bool success */\n      0x00\n        /* \"Call.sol\":598:599  c */\n      dup3\n        /* \"Call.sol\":598:604  c.call */\n      0xffffffffffffffffffffffffffffffffffffffff\n      and\n        /* \"Call.sol\":645:647  _x */\n      dup3\n        /* \"Call.sol\":605:648  abi.encodeWithSignature(\"getX(uint256)\",_x) */\n      add(0x24, mload(0x40))\n      tag_16\n      swap2\n      swap1\n      tag_14\n      jump\t// in\n    tag_16:\n      mload(0x40)\n      0x20\n      dup2\n      dup4\n      sub\n      sub\n      dup2\n      mstore\n      swap1\n      0x40\n      mstore\n      and(not(0xffffffffffffffffffffffffffffffffffffffffffffffffffffffff), 0x8e5cb5f600000000000000000000000000000000000000000000000000000000)\n      0x20\n      dup3\n      add\n      dup1\n      mload\n      0xffffffffffffffffffffffffffffffffffffffffffffffffffffffff\n      dup4\n      dup2\n      dup4\n      and\n      or\n      dup4\n      mstore\n      pop\n      pop\n      pop\n      pop\n        /* \"Call.sol\":598:649  c.call(abi.encodeWithSignature(\"getX(uint256)\",_x)) */\n      mload(0x40)\n      tag_17\n      swap2\n      swap1\n      tag_18\n      jump\t// in\n    tag_17:\n      0x00\n      mload(0x40)\n      dup1\n      dup4\n      sub\n      dup2\n      0x00\n      dup7\n      gas\n      call\n      swap2\n      pop\n      pop\n      returndatasize\n      dup1\n      0x00\n      dup2\n      eq\n      tag_21\n      jumpi\n      mload(0x40)\n      swap2\n      pop\n      and(add(returndatasize, 0x3f), not(0x1f))\n      dup3\n      add\n      0x40\n      mstore\n      returndatasize\n      dup3\n      mstore\n      returndatasize\n      0x00\n      0x20\n      dup5\n      add\n      returndatacopy\n      jump(tag_20)\n    tag_21:\n      0x60\n      swap2\n      pop\n    tag_20:\n      pop\n        /* \"Call.sol\":580:649  (bool success,) = c.call(abi.encodeWithSignature(\"getX(uint256)\",_x)) */\n      pop\n      swap1\n      pop\n        /* \"Call.sol\":667:674  success */\n      dup1\n        /* \"Call.sol\":659:684  require(success,\"Failed\") */\n      tag_22\n      jumpi\n      mload(0x40)\n      0x08c379a000000000000000000000000000000000000000000000000000000000\n      dup2\n      mstore\n      0x04\n      add\n      tag_23\n      swap1\n      tag_24\n      jump\t// in\n    tag_23:\n      mload(0x40)\n      dup1\n      swap2\n      sub\n      swap1\n      revert\n    tag_22:\n        /* \"Call.sol\":570:691  {... */\n      pop\n        /* \"Call.sol\":529:691  function setX(address c,uint _x) external{... */\n      pop\n      pop\n      jump\t// out\n        /* \"Call.sol\":249:522  function getX(address c) external returns(uint){... */\n    tag_12:\n        /* \"Call.sol\":291:295  uint */\n      0x00\n        /* \"Call.sol\":307:319  bool success */\n      dup1\n        /* \"Call.sol\":321:338  bytes memory data */\n      0x00\n        /* \"Call.sol\":343:344  c */\n      dup4\n        /* \"Call.sol\":343:349  c.call */\n      0xffffffffffffffffffffffffffffffffffffffff\n      and\n        /* \"Call.sol\":350:383  abi.encodeWithSignature(\"getX()\") */\n      add(0x24, mload(0x40))\n      mload(0x40)\n      0x20\n      dup2\n      dup4\n      sub\n      sub\n      dup2\n      mstore\n      swap1\n      0x40\n      mstore\n      and(not(0xffffffffffffffffffffffffffffffffffffffffffffffffffffffff), 0x5197c7aa00000000000000000000000000000000000000000000000000000000)\n      0x20\n      dup3\n      add\n      dup1\n      mload\n      0xffffffffffffffffffffffffffffffffffffffffffffffffffffffff\n      dup4\n      dup2\n      dup4\n      and\n      or\n      dup4\n      mstore\n      pop\n      pop\n      pop\n      pop\n        /* \"Call.sol\":343:384  c.call(abi.encodeWithSignature(\"getX()\")) */\n      mload(0x40)\n      tag_26\n      swap2\n      swap1\n      tag_18\n      jump\t// in\n    tag_26:\n      0x00\n      mload(0x40)\n      dup1\n      dup4\n      sub\n      dup2\n      0x00\n      dup7\n      gas\n      call\n      swap2\n      pop\n      pop\n      returndatasize\n      dup1\n      0x00\n      dup2\n      eq\n      tag_29\n      jumpi\n      mload(0x40)\n      swap2\n      pop\n      and(add(returndatasize, 0x3f), not(0x1f))\n      dup3\n      add\n      0x40\n      mstore\n      returndatasize\n      dup3\n      mstore\n      returndatasize\n      0x00\n      0x20\n      dup5\n      add\n      returndatacopy\n      jump(tag_28)\n    tag_29:\n      0x60\n      swap2\n      pop\n    tag_28:\n      pop\n        /* \"Call.sol\":306:384  (bool success, bytes memory data ) = c.call(abi.encodeWithSignature(\"getX()\")) */\n      swap2\n      pop\n      swap2\n      pop\n        /* \"Call.sol\":402:409  success */\n      dup2\n        /* \"Call.sol\":394:419  require(success,\"Failed\") */\n      tag_30\n      jumpi\n      mload(0x40)\n      0x08c379a000000000000000000000000000000000000000000000000000000000\n      dup2\n      mstore\n      0x04\n      add\n      tag_31\n      swap1\n      tag_24\n      jump\t// in\n    tag_31:\n      mload(0x40)\n      dup1\n      swap2\n      sub\n      swap1\n      revert\n    tag_30:\n        /* \"Call.sol\":429:435  uint r */\n      0x00\n        /* \"Call.sol\":483:487  0x20 */\n      0x20\n        /* \"Call.sol\":477:481  data */\n      dup3\n        /* \"Call.sol\":473:488  add(data, 0x20) */\n      add\n        /* \"Call.sol\":468:488  r := add(data, 0x20) */\n      swap1\n      pop\n        /* \"Call.sol\":514:515  r */\n      dup1\n        /* \"Call.sol\":507:515  return r */\n      swap4\n      pop\n      pop\n      pop\n      pop\n        /* \"Call.sol\":249:522  function getX(address c) external returns(uint){... */\n      swap2\n      swap1\n      pop\n      jump\t// out\n        /* \"#utility.yul\":7:146   */\n    tag_33:\n        /* \"#utility.yul\":53:58   */\n      0x00\n        /* \"#utility.yul\":91:97   */\n      dup2\n        /* \"#utility.yul\":78:98   */\n      calldataload\n        /* \"#utility.yul\":69:98   */\n      swap1\n      pop\n        /* \"#utility.yul\":107:140   */\n      tag_35\n        /* \"#utility.yul\":134:139   */\n      dup2\n        /* \"#utility.yul\":107:140   */\n      tag_36\n      jump\t// in\n    tag_35:\n        /* \"#utility.yul\":7:146   */\n      swap3\n      swap2\n      pop\n      pop\n      jump\t// out\n        /* \"#utility.yul\":152:291   */\n    tag_37:\n        /* \"#utility.yul\":198:203   */\n      0x00\n        /* \"#utility.yul\":236:242   */\n      dup2\n        /* \"#utility.yul\":223:243   */\n      calldataload\n        /* \"#utility.yul\":214:243   */\n      swap1\n      pop\n        /* \"#utility.yul\":252:285   */\n      tag_39\n        /* \"#utility.yul\":279:284   */\n      dup2\n        /* \"#utility.yul\":252:285   */\n      tag_40\n      jump\t// in\n    tag_39:\n        /* \"#utility.yul\":152:291   */\n      swap3\n      swap2\n      pop\n      pop\n      jump\t// out\n        /* \"#utility.yul\":297:626   */\n    tag_11:\n        /* \"#utility.yul\":356:362   */\n      0x00\n        /* \"#utility.yul\":405:407   */\n      0x20\n        /* \"#utility.yul\":393:402   */\n      dup3\n        /* \"#utility.yul\":384:391   */\n      dup5\n        /* \"#utility.yul\":380:403   */\n      sub\n        /* \"#utility.yul\":376:408   */\n      slt\n        /* \"#utility.yul\":373:492   */\n      iszero\n      tag_42\n      jumpi\n        /* \"#utility.yul\":411:490   */\n      tag_43\n      tag_44\n      jump\t// in\n    tag_43:\n        /* \"#utility.yul\":373:492   */\n    tag_42:\n        /* \"#utility.yul\":531:532   */\n      0x00\n        /* \"#utility.yul\":556:609   */\n      tag_45\n        /* \"#utility.yul\":601:608   */\n      dup5\n        /* \"#utility.yul\":592:598   */\n      dup3\n        /* \"#utility.yul\":581:590   */\n      dup6\n        /* \"#utility.yul\":577:599   */\n      add\n        /* \"#utility.yul\":556:609   */\n      tag_33\n      jump\t// in\n    tag_45:\n        /* \"#utility.yul\":546:609   */\n      swap2\n      pop\n        /* \"#utility.yul\":502:619   */\n      pop\n        /* \"#utility.yul\":297:626   */\n      swap3\n      swap2\n      pop\n      pop\n      jump\t// out\n        /* \"#utility.yul\":632:1106   */\n    tag_7:\n        /* \"#utility.yul\":700:706   */\n      0x00\n        /* \"#utility.yul\":708:714   */\n      dup1\n        /* \"#utility.yul\":757:759   */\n      0x40\n        /* \"#utility.yul\":745:754   */\n      dup4\n        /* \"#utility.yul\":736:743   */\n      dup6\n        /* \"#utility.yul\":732:755   */\n      sub\n        /* \"#utility.yul\":728:760   */\n      slt\n        /* \"#utility.yul\":725:844   */\n      iszero\n      tag_47\n      jumpi\n        /* \"#utility.yul\":763:842   */\n      tag_48\n      tag_44\n      jump\t// in\n    tag_48:\n        /* \"#utility.yul\":725:844   */\n    tag_47:\n        /* \"#utility.yul\":883:884   */\n      0x00\n        /* \"#utility.yul\":908:961   */\n      tag_49\n        /* \"#utility.yul\":953:960   */\n      dup6\n        /* \"#utility.yul\":944:950   */\n      dup3\n        /* \"#utility.yul\":933:942   */\n      dup7\n        /* \"#utility.yul\":929:951   */\n      add\n        /* \"#utility.yul\":908:961   */\n      tag_33\n      jump\t// in\n    tag_49:\n        /* \"#utility.yul\":898:961   */\n      swap3\n      pop\n        /* \"#utility.yul\":854:971   */\n      pop\n        /* \"#utility.yul\":1010:1012   */\n      0x20\n        /* \"#utility.yul\":1036:1089   */\n      tag_50\n        /* \"#utility.yul\":1081:1088   */\n      dup6\n        /* \"#utility.yul\":1072:1078   */\n      dup3\n        /* \"#utility.yul\":1061:1070   */\n      dup7\n        /* \"#utility.yul\":1057:1079   */\n      add\n        /* \"#utility.yul\":1036:1089   */\n      tag_37\n      jump\t// in\n    tag_50:\n        /* \"#utility.yul\":1026:1089   */\n      swap2\n      pop\n        /* \"#utility.yul\":981:1099   */\n      pop\n        /* \"#utility.yul\":632:1106   */\n      swap3\n      pop\n      swap3\n      swap1\n      pop\n      jump\t// out\n        /* \"#utility.yul\":1112:1485   */\n    tag_51:\n        /* \"#utility.yul\":1216:1219   */\n      0x00\n        /* \"#utility.yul\":1244:1282   */\n      tag_53\n        /* \"#utility.yul\":1276:1281   */\n      dup3\n        /* \"#utility.yul\":1244:1282   */\n      tag_54\n      jump\t// in\n    tag_53:\n        /* \"#utility.yul\":1298:1386   */\n      tag_55\n        /* \"#utility.yul\":1379:1385   */\n      dup2\n        /* \"#utility.yul\":1374:1377   */\n      dup6\n        /* \"#utility.yul\":1298:1386   */\n      tag_56\n      jump\t// in\n    tag_55:\n        /* \"#utility.yul\":1291:1386   */\n      swap4\n      pop\n        /* \"#utility.yul\":1395:1447   */\n      tag_57\n        /* \"#utility.yul\":1440:1446   */\n      dup2\n        /* \"#utility.yul\":1435:1438   */\n      dup6\n        /* \"#utility.yul\":1428:1432   */\n      0x20\n        /* \"#utility.yul\":1421:1426   */\n      dup7\n        /* \"#utility.yul\":1417:1433   */\n      add\n        /* \"#utility.yul\":1395:1447   */\n      tag_58\n      jump\t// in\n    tag_57:\n        /* \"#utility.yul\":1472:1478   */\n      dup1\n        /* \"#utility.yul\":1467:1470   */\n      dup5\n        /* \"#utility.yul\":1463:1479   */\n      add\n        /* \"#utility.yul\":1456:1479   */\n      swap2\n      pop\n        /* \"#utility.yul\":1220:1485   */\n      pop\n        /* \"#utility.yul\":1112:1485   */\n      swap3\n      swap2\n      pop\n      pop\n      jump\t// out\n        /* \"#utility.yul\":1491:1856   */\n    tag_59:\n        /* \"#utility.yul\":1633:1636   */\n      0x00\n        /* \"#utility.yul\":1654:1720   */\n      tag_61\n        /* \"#utility.yul\":1718:1719   */\n      0x06\n        /* \"#utility.yul\":1713:1716   */\n      dup4\n        /* \"#utility.yul\":1654:1720   */\n      tag_62\n      jump\t// in\n    tag_61:\n        /* \"#utility.yul\":1647:1720   */\n      swap2\n      pop\n        /* \"#utility.yul\":1729:1822   */\n      tag_63\n        /* \"#utility.yul\":1818:1821   */\n      dup3\n        /* \"#utility.yul\":1729:1822   */\n      tag_64\n      jump\t// in\n    tag_63:\n        /* \"#utility.yul\":1847:1849   */\n      0x20\n        /* \"#utility.yul\":1842:1845   */\n      dup3\n        /* \"#utility.yul\":1838:1850   */\n      add\n        /* \"#utility.yul\":1831:1850   */\n      swap1\n      pop\n        /* \"#utility.yul\":1491:1856   */\n      swap2\n      swap1\n      pop\n      jump\t// out\n        /* \"#utility.yul\":1862:1980   */\n    tag_65:\n        /* \"#utility.yul\":1949:1973   */\n      tag_67\n        /* \"#utility.yul\":1967:1972   */\n      dup2\n        /* \"#utility.yul\":1949:1973   */\n      tag_68\n      jump\t// in\n    tag_67:\n        /* \"#utility.yul\":1944:1947   */\n      dup3\n        /* \"#utility.yul\":1937:1974   */\n      mstore\n        /* \"#utility.yul\":1862:1980   */\n      pop\n      pop\n      jump\t// out\n        /* \"#utility.yul\":1986:2257   */\n    tag_18:\n        /* \"#utility.yul\":2116:2119   */\n      0x00\n        /* \"#utility.yul\":2138:2231   */\n      tag_70\n        /* \"#utility.yul\":2227:2230   */\n      dup3\n        /* \"#utility.yul\":2218:2224   */\n      dup5\n        /* \"#utility.yul\":2138:2231   */\n      tag_51\n      jump\t// in\n    tag_70:\n        /* \"#utility.yul\":2131:2231   */\n      swap2\n      pop\n        /* \"#utility.yul\":2248:2251   */\n      dup2\n        /* \"#utility.yul\":2241:2251   */\n      swap1\n      pop\n        /* \"#utility.yul\":1986:2257   */\n      swap3\n      swap2\n      pop\n      pop\n      jump\t// out\n        /* \"#utility.yul\":2263:2682   */\n    tag_24:\n        /* \"#utility.yul\":2429:2433   */\n      0x00\n        /* \"#utility.yul\":2467:2469   */\n      0x20\n        /* \"#utility.yul\":2456:2465   */\n      dup3\n        /* \"#utility.yul\":2452:2470   */\n      add\n        /* \"#utility.yul\":2444:2470   */\n      swap1\n      pop\n        /* \"#utility.yul\":2516:2525   */\n      dup2\n        /* \"#utility.yul\":2510:2514   */\n      dup2\n        /* \"#utility.yul\":2506:2526   */\n      sub\n        /* \"#utility.yul\":2502:2503   */\n      0x00\n        /* \"#utility.yul\":2491:2500   */\n      dup4\n        /* \"#utility.yul\":2487:2504   */\n      add\n        /* \"#utility.yul\":2480:2527   */\n      mstore\n        /* \"#utility.yul\":2544:2675   */\n      tag_72\n        /* \"#utility.yul\":2670:2674   */\n      dup2\n        /* \"#utility.yul\":2544:2675   */\n      tag_59\n      jump\t// in\n    tag_72:\n        /* \"#utility.yul\":2536:2675   */\n      swap1\n      pop\n        /* \"#utility.yul\":2263:2682   */\n      swap2\n      swap1\n      pop\n      jump\t// out\n        /* \"#utility.yul\":2688:2910   */\n    tag_14:\n        /* \"#utility.yul\":2781:2785   */\n      0x00\n        /* \"#utility.yul\":2819:2821   */\n      0x20\n        /* \"#utility.yul\":2808:2817   */\n      dup3\n        /* \"#utility.yul\":2804:2822   */\n      add\n        /* \"#utility.yul\":2796:2822   */\n      swap1\n      pop\n        /* \"#utility.yul\":2832:2903   */\n      tag_74\n        /* \"#utility.yul\":2900:2901   */\n      0x00\n        /* \"#utility.yul\":2889:2898   */\n      dup4\n        /* \"#utility.yul\":2885:2902   */\n      add\n        /* \"#utility.yul\":2876:2882   */\n      dup5\n        /* \"#utility.yul\":2832:2903   */\n      tag_65\n      jump\t// in\n    tag_74:\n        /* \"#utility.yul\":2688:2910   */\n      swap3\n      swap2\n      pop\n      pop\n      jump\t// out\n        /* \"#utility.yul\":2997:3095   */\n    tag_54:\n        /* \"#utility.yul\":3048:3054   */\n      0x00\n        /* \"#utility.yul\":3082:3087   */\n      dup2\n        /* \"#utility.yul\":3076:3088   */\n      mload\n        /* \"#utility.yul\":3066:3088   */\n      swap1\n      pop\n        /* \"#utility.yul\":2997:3095   */\n      swap2\n      swap1\n      pop\n      jump\t// out\n        /* \"#utility.yul\":3101:3248   */\n    tag_56:\n        /* \"#utility.yul\":3202:3213   */\n      0x00\n        /* \"#utility.yul\":3239:3242   */\n      dup2\n        /* \"#utility.yul\":3224:3242   */\n      swap1\n      pop\n        /* \"#utility.yul\":3101:3248   */\n      swap3\n      swap2\n      pop\n      pop\n      jump\t// out\n        /* \"#utility.yul\":3254:3423   */\n    tag_62:\n        /* \"#utility.yul\":3338:3349   */\n      0x00\n        /* \"#utility.yul\":3372:3378   */\n      dup3\n        /* \"#utility.yul\":3367:3370   */\n      dup3\n        /* \"#utility.yul\":3360:3379   */\n      mstore\n        /* \"#utility.yul\":3412:3416   */\n      0x20\n        /* \"#utility.yul\":3407:3410   */\n      dup3\n        /* \"#utility.yul\":3403:3417   */\n      add\n        /* \"#utility.yul\":3388:3417   */\n      swap1\n      pop\n        /* \"#utility.yul\":3254:3423   */\n      swap3\n      swap2\n      pop\n      pop\n      jump\t// out\n        /* \"#utility.yul\":3429:3525   */\n    tag_80:\n        /* \"#utility.yul\":3466:3473   */\n      0x00\n        /* \"#utility.yul\":3495:3519   */\n      tag_82\n        /* \"#utility.yul\":3513:3518   */\n      dup3\n        /* \"#utility.yul\":3495:3519   */\n      tag_83\n      jump\t// in\n    tag_82:\n        /* \"#utility.yul\":3484:3519   */\n      swap1\n      pop\n        /* \"#utility.yul\":3429:3525   */\n      swap2\n      swap1\n      pop\n      jump\t// out\n        /* \"#utility.yul\":3531:3657   */\n    tag_83:\n        /* \"#utility.yul\":3568:3575   */\n      0x00\n        /* \"#utility.yul\":3608:3650   */\n      0xffffffffffffffffffffffffffffffffffffffff\n        /* \"#utility.yul\":3601:3606   */\n      dup3\n        /* \"#utility.yul\":3597:3651   */\n      and\n        /* \"#utility.yul\":3586:3651   */\n      swap1\n      pop\n        /* \"#utility.yul\":3531:3657   */\n      swap2\n      swap1\n      pop\n      jump\t// out\n        /* \"#utility.yul\":3663:3740   */\n    tag_68:\n        /* \"#utility.yul\":3700:3707   */\n      0x00\n        /* \"#utility.yul\":3729:3734   */\n      dup2\n        /* \"#utility.yul\":3718:3734   */\n      swap1\n      pop\n        /* \"#utility.yul\":3663:3740   */\n      swap2\n      swap1\n      pop\n      jump\t// out\n        /* \"#utility.yul\":3746:4053   */\n    tag_58:\n        /* \"#utility.yul\":3814:3815   */\n      0x00\n        /* \"#utility.yul\":3824:3937   */\n    tag_87:\n        /* \"#utility.yul\":3838:3844   */\n      dup4\n        /* \"#utility.yul\":3835:3836   */\n      dup2\n        /* \"#utility.yul\":3832:3845   */\n      lt\n        /* \"#utility.yul\":3824:3937   */\n      iszero\n      tag_89\n      jumpi\n        /* \"#utility.yul\":3923:3924   */\n      dup1\n        /* \"#utility.yul\":3918:3921   */\n      dup3\n        /* \"#utility.yul\":3914:3925   */\n      add\n        /* \"#utility.yul\":3908:3926   */\n      mload\n        /* \"#utility.yul\":3904:3905   */\n      dup2\n        /* \"#utility.yul\":3899:3902   */\n      dup5\n        /* \"#utility.yul\":3895:3906   */\n      add\n        /* \"#utility.yul\":3888:3927   */\n      mstore\n        /* \"#utility.yul\":3860:3862   */\n      0x20\n        /* \"#utility.yul\":3857:3858   */\n      dup2\n        /* \"#utility.yul\":3853:3863   */\n      add\n        /* \"#utility.yul\":3848:3863   */\n      swap1\n      pop\n        /* \"#utility.yul\":3824:3937   */\n      jump(tag_87)\n    tag_89:\n        /* \"#utility.yul\":3955:3961   */\n      dup4\n        /* \"#utility.yul\":3952:3953   */\n      dup2\n        /* \"#utility.yul\":3949:3962   */\n      gt\n        /* \"#utility.yul\":3946:4047   */\n      iszero\n      tag_90\n      jumpi\n        /* \"#utility.yul\":4035:4036   */\n      0x00\n        /* \"#utility.yul\":4026:4032   */\n      dup5\n        /* \"#utility.yul\":4021:4024   */\n      dup5\n        /* \"#utility.yul\":4017:4033   */\n      add\n        /* \"#utility.yul\":4010:4037   */\n      mstore\n        /* \"#utility.yul\":3946:4047   */\n    tag_90:\n        /* \"#utility.yul\":3795:4053   */\n      pop\n        /* \"#utility.yul\":3746:4053   */\n      pop\n      pop\n      pop\n      jump\t// out\n        /* \"#utility.yul\":4182:4299   */\n    tag_44:\n        /* \"#utility.yul\":4291:4292   */\n      0x00\n        /* \"#utility.yul\":4288:4289   */\n      dup1\n        /* \"#utility.yul\":4281:4293   */\n      revert\n        /* \"#utility.yul\":4305:4461   */\n    tag_64:\n        /* \"#utility.yul\":4445:4453   */\n      0x4661696c65640000000000000000000000000000000000000000000000000000\n        /* \"#utility.yul\":4441:4442   */\n      0x00\n        /* \"#utility.yul\":4433:4439   */\n      dup3\n        /* \"#utility.yul\":4429:4443   */\n      add\n        /* \"#utility.yul\":4422:4454   */\n      mstore\n        /* \"#utility.yul\":4305:4461   */\n      pop\n      jump\t// out\n        /* \"#utility.yul\":4467:4589   */\n    tag_36:\n        /* \"#utility.yul\":4540:4564   */\n      tag_96\n        /* \"#utility.yul\":4558:4563   */\n      dup2\n        /* \"#utility.yul\":4540:4564   */\n      tag_80\n      jump\t// in\n    tag_96:\n        /* \"#utility.yul\":4533:4538   */\n      dup2\n        /* \"#utility.yul\":4530:4565   */\n      eq\n        /* \"#utility.yul\":4520:4583   */\n      tag_97\n      jumpi\n        /* \"#utility.yul\":4579:4580   */\n      0x00\n        /* \"#utility.yul\":4576:4577   */\n      dup1\n        /* \"#utility.yul\":4569:4581   */\n      revert\n        /* \"#utility.yul\":4520:4583   */\n    tag_97:\n        /* \"#utility.yul\":4467:4589   */\n      pop\n      jump\t// out\n        /* \"#utility.yul\":4595:4717   */\n    tag_40:\n        /* \"#utility.yul\":4668:4692   */\n      tag_99\n        /* \"#utility.yul\":4686:4691   */\n      dup2\n        /* \"#utility.yul\":4668:4692   */\n      tag_68\n      jump\t// in\n    tag_99:\n        /* \"#utility.yul\":4661:4666   */\n      dup2\n        /* \"#utility.yul\":4658:4693   */\n      eq\n        /* \"#utility.yul\":4648:4711   */\n      tag_100\n      jumpi\n        /* \"#utility.yul\":4707:4708   */\n      0x00\n        /* \"#utility.yul\":4704:4705   */\n      dup1\n        /* \"#utility.yul\":4697:4709   */\n      revert\n        /* \"#utility.yul\":4648:4711   */\n    tag_100:\n        /* \"#utility.yul\":4595:4717   */\n      pop\n      jump\t// out\n\n    auxdata: 0xa26469706673582212201437b27f02cd4d94aa4e2e12b92b645f9a2e9f06d2fd7fd4e0314c65dbd8f17964736f6c63430008070033\n}\n",
				"bytecode": {
					"linkReferences": {},
					"object": "608060405234801561001057600080fd5b50610580806100206000396000f3fe608060405234801561001057600080fd5b50600436106100365760003560e01c80634a2ad99f1461003b5780637c94c8ca14610057575b600080fd5b61005560048036038101906100509190610363565b610087565b005b610071600480360381019061006c9190610336565b6101c6565b60405161007e919061043d565b60405180910390f35b60008273ffffffffffffffffffffffffffffffffffffffff16826040516024016100b1919061043d565b6040516020818303038152906040527f8e5cb5f6000000000000000000000000000000000000000000000000000000007bffffffffffffffffffffffffffffffffffffffffffffffffffffffff19166020820180517bffffffffffffffffffffffffffffffffffffffffffffffffffffffff838183161783525050505060405161013b9190610406565b6000604051808303816000865af19150503d8060008114610178576040519150601f19603f3d011682016040523d82523d6000602084013e61017d565b606091505b50509050806101c1576040517f08c379a00000000000000000000000000000000000000000000000000000000081526004016101b89061041d565b60405180910390fd5b505050565b60008060008373ffffffffffffffffffffffffffffffffffffffff166040516024016040516020818303038152906040527f5197c7aa000000000000000000000000000000000000000000000000000000007bffffffffffffffffffffffffffffffffffffffffffffffffffffffff19166020820180517bffffffffffffffffffffffffffffffffffffffffffffffffffffffff83818316178352505050506040516102729190610406565b6000604051808303816000865af19150503d80600081146102af576040519150601f19603f3d011682016040523d82523d6000602084013e6102b4565b606091505b5091509150816102f9576040517f08c379a00000000000000000000000000000000000000000000000000000000081526004016102f09061041d565b60405180910390fd5b6000602082019050809350505050919050565b60008135905061031b8161051c565b92915050565b60008135905061033081610533565b92915050565b60006020828403121561034c5761034b6104ee565b5b600061035a8482850161030c565b91505092915050565b6000806040838503121561037a576103796104ee565b5b60006103888582860161030c565b925050602061039985828601610321565b9150509250929050565b60006103ae82610458565b6103b88185610463565b93506103c88185602086016104bb565b80840191505092915050565b60006103e160068361046e565b91506103ec826104f3565b602082019050919050565b610400816104b1565b82525050565b600061041282846103a3565b915081905092915050565b60006020820190508181036000830152610436816103d4565b9050919050565b600060208201905061045260008301846103f7565b92915050565b600081519050919050565b600081905092915050565b600082825260208201905092915050565b600061048a82610491565b9050919050565b600073ffffffffffffffffffffffffffffffffffffffff82169050919050565b6000819050919050565b60005b838110156104d95780820151818401526020810190506104be565b838111156104e8576000848401525b50505050565b600080fd5b7f4661696c65640000000000000000000000000000000000000000000000000000600082015250565b6105258161047f565b811461053057600080fd5b50565b61053c816104b1565b811461054757600080fd5b5056fea26469706673582212201437b27f02cd4d94aa4e2e12b92b645f9a2e9f06d2fd7fd4e0314c65dbd8f17964736f6c63430008070033",
					"opcodes": "PUSH1 0x80 PUSH1 0x40 MSTORE CALLVALUE DUP1 ISZERO PUSH2 0x10 JUMPI PUSH1 0x0 DUP1 REVERT JUMPDEST POP PUSH2 0x580 DUP1 PUSH2 0x20 PUSH1 0x0 CODECOPY PUSH1 0x0 RETURN INVALID PUSH1 0x80 PUSH1 0x40 MSTORE CALLVALUE DUP1 ISZERO PUSH2 0x10 JUMPI PUSH1 0x0 DUP1 REVERT JUMPDEST POP PUSH1 0x4 CALLDATASIZE LT PUSH2 0x36 JUMPI PUSH1 0x0 CALLDATALOAD PUSH1 0xE0 SHR DUP1 PUSH4 0x4A2AD99F EQ PUSH2 0x3B JUMPI DUP1 PUSH4 0x7C94C8CA EQ PUSH2 0x57 JUMPI JUMPDEST PUSH1 0x0 DUP1 REVERT JUMPDEST PUSH2 0x55 PUSH1 0x4 DUP1 CALLDATASIZE SUB DUP2 ADD SWAP1 PUSH2 0x50 SWAP2 SWAP1 PUSH2 0x363 JUMP JUMPDEST PUSH2 0x87 JUMP JUMPDEST STOP JUMPDEST PUSH2 0x71 PUSH1 0x4 DUP1 CALLDATASIZE SUB DUP2 ADD SWAP1 PUSH2 0x6C SWAP2 SWAP1 PUSH2 0x336 JUMP JUMPDEST PUSH2 0x1C6 JUMP JUMPDEST PUSH1 0x40 MLOAD PUSH2 0x7E SWAP2 SWAP1 PUSH2 0x43D JUMP JUMPDEST PUSH1 0x40 MLOAD DUP1 SWAP2 SUB SWAP1 RETURN JUMPDEST PUSH1 0x0 DUP3 PUSH20 0xFFFFFFFFFFFFFFFFFFFFFFFFFFFFFFFFFFFFFFFF AND DUP3 PUSH1 0x40 MLOAD PUSH1 0x24 ADD PUSH2 0xB1 SWAP2 SWAP1 PUSH2 0x43D JUMP JUMPDEST PUSH1 0x40 MLOAD PUSH1 0x20 DUP2 DUP4 SUB SUB DUP2 MSTORE SWAP1 PUSH1 0x40 MSTORE PUSH32 0x8E5CB5F600000000000000000000000000000000000000000000000000000000 PUSH28 0xFFFFFFFFFFFFFFFFFFFFFFFFFFFFFFFFFFFFFFFFFFFFFFFFFFFFFFFF NOT AND PUSH1 0x20 DUP3 ADD DUP1 MLOAD PUSH28 0xFFFFFFFFFFFFFFFFFFFFFFFFFFFFFFFFFFFFFFFFFFFFFFFFFFFFFFFF DUP4 DUP2 DUP4 AND OR DUP4 MSTORE POP POP POP POP PUSH1 0x40 MLOAD PUSH2 0x13B SWAP2 SWAP1 PUSH2 0x406 JUMP JUMPDEST PUSH1 0x0 PUSH1 0x40 MLOAD DUP1 DUP4 SUB DUP2 PUSH1 0x0 DUP7 GAS CALL SWAP2 POP POP RETURNDATASIZE DUP1 PUSH1 0x0 DUP2 EQ PUSH2 0x178 JUMPI PUSH1 0x40 MLOAD SWAP2 POP PUSH1 0x1F NOT PUSH1 0x3F RETURNDATASIZE ADD AND DUP3 ADD PUSH1 0x40 MSTORE RETURNDATASIZE DUP3 MSTORE RETURNDATASIZE PUSH1 0x0 PUSH1 0x20 DUP5 ADD RETURNDATACOPY PUSH2 0x17D JUMP JUMPDEST PUSH1 0x60 SWAP2 POP JUMPDEST POP POP SWAP1 POP DUP1 PUSH2 0x1C1 JUMPI PUSH1 0x40 MLOAD PUSH32 0x8C379A000000000000000000000000000000000000000000000000000000000 DUP2 MSTORE PUSH1 0x4 ADD PUSH2 0x1B8 SWAP1 PUSH2 0x41D JUMP JUMPDEST PUSH1 0x40 MLOAD DUP1 SWAP2 SUB SWAP1 REVERT JUMPDEST POP POP POP JUMP JUMPDEST PUSH1 0x0 DUP1 PUSH1 0x0 DUP4 PUSH20 0xFFFFFFFFFFFFFFFFFFFFFFFFFFFFFFFFFFFFFFFF AND PUSH1 0x40 MLOAD PUSH1 0x24 ADD PUSH1 0x40 MLOAD PUSH1 0x20 DUP2 DUP4 SUB SUB DUP2 MSTORE SWAP1 PUSH1 0x40 MSTORE PUSH32 0x5197C7AA00000000000000000000000000000000000000000000000000000000 PUSH28 0xFFFFFFFFFFFFFFFFFFFFFFFFFFFFFFFFFFFFFFFFFFFFFFFFFFFFFFFF NOT AND PUSH1 0x20 DUP3 ADD DUP1 MLOAD PUSH28 0xFFFFFFFFFFFFFFFFFFFFFFFFFFFFFFFFFFFFFFFFFFFFFFFFFFFFFFFF DUP4 DUP2 DUP4 AND OR DUP4 MSTORE POP POP POP POP PUSH1 0x40 MLOAD PUSH2 0x272 SWAP2 SWAP1 PUSH2 0x406 JUMP JUMPDEST PUSH1 0x0 PUSH1 0x40 MLOAD DUP1 DUP4 SUB DUP2 PUSH1 0x0 DUP7 GAS CALL SWAP2 POP POP RETURNDATASIZE DUP1 PUSH1 0x0 DUP2 EQ PUSH2 0x2AF JUMPI PUSH1 0x40 MLOAD SWAP2 POP PUSH1 0x1F NOT PUSH1 0x3F RETURNDATASIZE ADD AND DUP3 ADD PUSH1 0x40 MSTORE RETURNDATASIZE DUP3 MSTORE RETURNDATASIZE PUSH1 0x0 PUSH1 0x20 DUP5 ADD RETURNDATACOPY PUSH2 0x2B4 JUMP JUMPDEST PUSH1 0x60 SWAP2 POP JUMPDEST POP SWAP2 POP SWAP2 POP DUP2 PUSH2 0x2F9 JUMPI PUSH1 0x40 MLOAD PUSH32 0x8C379A000000000000000000000000000000000000000000000000000000000 DUP2 MSTORE PUSH1 0x4 ADD PUSH2 0x2F0 SWAP1 PUSH2 0x41D JUMP JUMPDEST PUSH1 0x40 MLOAD DUP1 SWAP2 SUB SWAP1 REVERT JUMPDEST PUSH1 0x0 PUSH1 0x20 DUP3 ADD SWAP1 POP DUP1 SWAP4 POP POP POP POP SWAP2 SWAP1 POP JUMP JUMPDEST PUSH1 0x0 DUP2 CALLDATALOAD SWAP1 POP PUSH2 0x31B DUP2 PUSH2 0x51C JUMP JUMPDEST SWAP3 SWAP2 POP POP JUMP JUMPDEST PUSH1 0x0 DUP2 CALLDATALOAD SWAP1 POP PUSH2 0x330 DUP2 PUSH2 0x533 JUMP JUMPDEST SWAP3 SWAP2 POP POP JUMP JUMPDEST PUSH1 0x0 PUSH1 0x20 DUP3 DUP5 SUB SLT ISZERO PUSH2 0x34C JUMPI PUSH2 0x34B PUSH2 0x4EE JUMP JUMPDEST JUMPDEST PUSH1 0x0 PUSH2 0x35A DUP5 DUP3 DUP6 ADD PUSH2 0x30C JUMP JUMPDEST SWAP2 POP POP SWAP3 SWAP2 POP POP JUMP JUMPDEST PUSH1 0x0 DUP1 PUSH1 0x40 DUP4 DUP6 SUB SLT ISZERO PUSH2 0x37A JUMPI PUSH2 0x379 PUSH2 0x4EE JUMP JUMPDEST JUMPDEST PUSH1 0x0 PUSH2 0x388 DUP6 DUP3 DUP7 ADD PUSH2 0x30C JUMP JUMPDEST SWAP3 POP POP PUSH1 0x20 PUSH2 0x399 DUP6 DUP3 DUP7 ADD PUSH2 0x321 JUMP JUMPDEST SWAP2 POP POP SWAP3 POP SWAP3 SWAP1 POP JUMP JUMPDEST PUSH1 0x0 PUSH2 0x3AE DUP3 PUSH2 0x458 JUMP JUMPDEST PUSH2 0x3B8 DUP2 DUP6 PUSH2 0x463 JUMP JUMPDEST SWAP4 POP PUSH2 0x3C8 DUP2 DUP6 PUSH1 0x20 DUP7 ADD PUSH2 0x4BB JUMP JUMPDEST DUP1 DUP5 ADD SWAP2 POP POP SWAP3 SWAP2 POP POP JUMP JUMPDEST PUSH1 0x0 PUSH2 0x3E1 PUSH1 0x6 DUP4 PUSH2 0x46E JUMP JUMPDEST SWAP2 POP PUSH2 0x3EC DUP3 PUSH2 0x4F3 JUMP JUMPDEST PUSH1 0x20 DUP3 ADD SWAP1 POP SWAP2 SWAP1 POP JUMP JUMPDEST PUSH2 0x400 DUP2 PUSH2 0x4B1 JUMP JUMPDEST DUP3 MSTORE POP POP JUMP JUMPDEST PUSH1 0x0 PUSH2 0x412 DUP3 DUP5 PUSH2 0x3A3 JUMP JUMPDEST SWAP2 POP DUP2 SWAP1 POP SWAP3 SWAP2 POP POP JUMP JUMPDEST PUSH1 0x0 PUSH1 0x20 DUP3 ADD SWAP1 POP DUP2 DUP2 SUB PUSH1 0x0 DUP4 ADD MSTORE PUSH2 0x436 DUP2 PUSH2 0x3D4 JUMP JUMPDEST SWAP1 POP SWAP2 SWAP1 POP JUMP JUMPDEST PUSH1 0x0 PUSH1 0x20 DUP3 ADD SWAP1 POP PUSH2 0x452 PUSH1 0x0 DUP4 ADD DUP5 PUSH2 0x3F7 JUMP JUMPDEST SWAP3 SWAP2 POP POP JUMP JUMPDEST PUSH1 0x0 DUP2 MLOAD SWAP1 POP SWAP2 SWAP1 POP JUMP JUMPDEST PUSH1 0x0 DUP2 SWAP1 POP SWAP3 SWAP2 POP POP JUMP JUMPDEST PUSH1 0x0 DUP3 DUP3 MSTORE PUSH1 0x20 DUP3 ADD SWAP1 POP SWAP3 SWAP2 POP POP JUMP JUMPDEST PUSH1 0x0 PUSH2 0x48A DUP3 PUSH2 0x491 JUMP JUMPDEST SWAP1 POP SWAP2 SWAP1 POP JUMP JUMPDEST PUSH1 0x0 PUSH20 0xFFFFFFFFFFFFFFFFFFFFFFFFFFFFFFFFFFFFFFFF DUP3 AND SWAP1 POP SWAP2 SWAP1 POP JUMP JUMPDEST PUSH1 0x0 DUP2 SWAP1 POP SWAP2 SWAP1 POP JUMP JUMPDEST PUSH1 0x0 JUMPDEST DUP4 DUP2 LT ISZERO PUSH2 0x4D9 JUMPI DUP1 DUP3 ADD MLOAD DUP2 DUP5 ADD MSTORE PUSH1 0x20 DUP2 ADD SWAP1 POP PUSH2 0x4BE JUMP JUMPDEST DUP4 DUP2 GT ISZERO PUSH2 0x4E8 JUMPI PUSH1 0x0 DUP5 DUP5 ADD MSTORE JUMPDEST POP POP POP POP JUMP JUMPDEST PUSH1 0x0 DUP1 REVERT JUMPDEST PUSH32 0x4661696C65640000000000000000000000000000000000000000000000000000 PUSH1 0x0 DUP3 ADD MSTORE POP JUMP JUMPDEST PUSH2 0x525 DUP2 PUSH2 0x47F JUMP JUMPDEST DUP2 EQ PUSH2 0x530 JUMPI PUSH1 0x0 DUP1 REVERT JUMPDEST POP JUMP JUMPDEST PUSH2 0x53C DUP2 PUSH2 0x4B1 JUMP JUMPDEST DUP2 EQ PUSH2 0x547 JUMPI PUSH1 0x0 DUP1 REVERT JUMPDEST POP JUMP INVALID LOG2 PUSH5 0x6970667358 0x22 SLT KECCAK256 EQ CALLDATACOPY 0xB2 PUSH32 0x2CD4D94AA4E2E12B92B645F9A2E9F06D2FD7FD4E0314C65DBD8F17964736F6C PUSH4 0x43000807 STOP CALLER "
				},
				"gasEstimates": {
					"creation": {
						"codeDepositCost": "281600",
						"executionCost": "318",
						"totalCost": "281918"
					},
					"external": {
						"getX(address)": "infinite",
						"setX(address,uint256)": "infinite"
					}
				},
				"methodIdentifiers": {
					"getX(address)": "7c94c8ca",
					"setX(address,uint256)": "4a2ad99f"
				}
			},
			"storageLayout": {
				"storage": [],
				"types": null
			},
			"userdoc": {
				"kind": "user",
				"methods": {},
				"version": 1
			}
		}
	}
}