{
	"EnglishAuction.sol": {
		"English": {
			"abi": [
				{
					"inputs": [
						{
							"internalType": "address",
							"name": "_nft",
							"type": "address"
						},
						{
							"internalType": "uint256",
							"name": "_nftId",
							"type": "uint256"
						},
						{
							"internalType": "uint256",
							"name": "_startingBid",
							"type": "uint256"
						}
					],
					"stateMutability": "nonpayable",
					"type": "constructor"
				},
				{
					"anonymous": false,
					"inputs": [
						{
							"indexed": false,
							"internalType": "string",
							"name": "m",
							"type": "string"
						},
						{
							"indexed": false,
							"internalType": "uint256",
							"name": "v",
							"type": "uint256"
						}
					],
					"name": "Log",
					"type": "event"
				},
				{
					"inputs": [],
					"name": "bid",
					"outputs": [
						{
							"internalType": "uint256",
							"name": "",
							"type": "uint256"
						}
					],
					"stateMutability": "view",
					"type": "function"
				},
				{
					"inputs": [],
					"name": "bidder",
					"outputs": [
						{
							"internalType": "address payable",
							"name": "",
							"type": "address"
						}
					],
					"stateMutability": "view",
					"type": "function"
				},
				{
					"inputs": [
						{
							"internalType": "address",
							"name": "",
							"type": "address"
						}
					],
					"name": "bids",
					"outputs": [
						{
							"internalType": "uint256",
							"name": "",
							"type": "uint256"
						}
					],
					"stateMutability": "view",
					"type": "function"
				},
				{
					"inputs": [],
					"name": "end",
					"outputs": [],
					"stateMutability": "nonpayable",
					"type": "function"
				},
				{
					"inputs": [],
					"name": "endAt",
					"outputs": [
						{
							"internalType": "uint32",
							"name": "",
							"type": "uint32"
						}
					],
					"stateMutability": "view",
					"type": "function"
				},
				{
					"inputs": [],
					"name": "ended",
					"outputs": [
						{
							"internalType": "bool",
							"name": "",
							"type": "bool"
						}
					],
					"stateMutability": "view",
					"type": "function"
				},
				{
					"inputs": [],
					"name": "getPrice",
					"outputs": [
						{
							"internalType": "uint256",
							"name": "",
							"type": "uint256"
						}
					],
					"stateMutability": "view",
					"type": "function"
				},
				{
					"inputs": [],
					"name": "makeABid",
					"outputs": [],
					"stateMutability": "payable",
					"type": "function"
				},
				{
					"inputs": [],
					"name": "nft",
					"outputs": [
						{
							"internalType": "contract ERC721",
							"name": "",
							"type": "address"
						}
					],
					"stateMutability": "view",
					"type": "function"
				},
				{
					"inputs": [],
					"name": "nftId",
					"outputs": [
						{
							"internalType": "uint256",
							"name": "",
							"type": "uint256"
						}
					],
					"stateMutability": "view",
					"type": "function"
				},
				{
					"inputs": [],
					"name": "seller",
					"outputs": [
						{
							"internalType": "address payable",
							"name": "",
							"type": "address"
						}
					],
					"stateMutability": "view",
					"type": "function"
				},
				{
					"inputs": [],
					"name": "start",
					"outputs": [],
					"stateMutability": "nonpayable",
					"type": "function"
				},
				{
					"inputs": [],
					"name": "started",
					"outputs": [
						{
							"internalType": "bool",
							"name": "",
							"type": "bool"
						}
					],
					"stateMutability": "view",
					"type": "function"
				},
				{
					"inputs": [],
					"name": "withdraw",
					"outputs": [],
					"stateMutability": "nonpayable",
					"type": "function"
				}
			],
			"devdoc": {
				"kind": "dev",
				"methods": {},
				"version": 1
			},
			"evm": {
				"assembly": "    /* \"EnglishAuction.sol\":80:2080  contract English{... */\n  mstore(0x40, 0xe0)\n    /* \"EnglishAuction.sol\":441:742  constructor(... */\n  callvalue\n  dup1\n  iszero\n  tag_1\n  jumpi\n  0x00\n  dup1\n  revert\ntag_1:\n  pop\n  mload(0x40)\n  sub(codesize, bytecodeSize)\n  dup1\n  bytecodeSize\n  dup4\n  codecopy\n  dup2\n  dup2\n  add\n  0x40\n  mstore\n  dup2\n  add\n  swap1\n  tag_2\n  swap2\n  swap1\n  tag_3\n  jump\t// in\ntag_2:\n    /* \"EnglishAuction.sol\":555:565  msg.sender */\n  caller\n    /* \"EnglishAuction.sol\":538:566  seller = payable(msg.sender) */\n  0xffffffffffffffffffffffffffffffffffffffff\n  and\n  0xc0\n  dup2\n  0xffffffffffffffffffffffffffffffffffffffff\n  and\n  0x60\n  shl\n  dup2\n  mstore\n  pop\n  pop\n    /* \"EnglishAuction.sol\":597:598  0 */\n  0x00\n    /* \"EnglishAuction.sol\":584:596  _startingBid */\n  dup2\n    /* \"EnglishAuction.sol\":584:598  _startingBid>0 */\n  gt\n    /* \"EnglishAuction.sol\":576:610  require(_startingBid>0,\"price <0\") */\n  tag_6\n  jumpi\n  mload(0x40)\n  0x08c379a000000000000000000000000000000000000000000000000000000000\n  dup2\n  mstore\n  0x04\n  add\n  tag_7\n  swap1\n  tag_8\n  jump\t// in\ntag_7:\n  mload(0x40)\n  dup1\n  swap2\n  sub\n  swap1\n  revert\ntag_6:\n    /* \"EnglishAuction.sol\":634:646  _startingBid */\n  dup1\n    /* \"EnglishAuction.sol\":620:631  startingBid */\n  0x01\n    /* \"EnglishAuction.sol\":620:646  startingBid = _startingBid */\n  dup2\n  swap1\n  sstore\n  pop\n    /* \"EnglishAuction.sol\":662:674  _startingBid */\n  dup1\n    /* \"EnglishAuction.sol\":656:659  bid */\n  0x03\n    /* \"EnglishAuction.sol\":656:674  bid = _startingBid */\n  dup2\n  swap1\n  sstore\n  pop\n    /* \"EnglishAuction.sol\":697:701  _nft */\n  dup3\n    /* \"EnglishAuction.sol\":684:702  nft = ERC721(_nft) */\n  0xffffffffffffffffffffffffffffffffffffffff\n  and\n  0x80\n  dup2\n  0xffffffffffffffffffffffffffffffffffffffff\n  and\n  0x60\n  shl\n  dup2\n  mstore\n  pop\n  pop\n    /* \"EnglishAuction.sol\":720:726  _nftId */\n  dup2\n    /* \"EnglishAuction.sol\":712:726  nftId = _nftId */\n  0xa0\n  dup2\n  dup2\n  mstore\n  pop\n  pop\n    /* \"EnglishAuction.sol\":441:742  constructor(... */\n  pop\n  pop\n  pop\n    /* \"EnglishAuction.sol\":80:2080  contract English{... */\n  jump(tag_9)\n    /* \"#utility.yul\":7:150   */\ntag_11:\n    /* \"#utility.yul\":64:69   */\n  0x00\n    /* \"#utility.yul\":95:101   */\n  dup2\n    /* \"#utility.yul\":89:102   */\n  mload\n    /* \"#utility.yul\":80:102   */\n  swap1\n  pop\n    /* \"#utility.yul\":111:144   */\n  tag_13\n    /* \"#utility.yul\":138:143   */\n  dup2\n    /* \"#utility.yul\":111:144   */\n  tag_14\n  jump\t// in\ntag_13:\n    /* \"#utility.yul\":7:150   */\n  swap3\n  swap2\n  pop\n  pop\n  jump\t// out\n    /* \"#utility.yul\":156:299   */\ntag_15:\n    /* \"#utility.yul\":213:218   */\n  0x00\n    /* \"#utility.yul\":244:250   */\n  dup2\n    /* \"#utility.yul\":238:251   */\n  mload\n    /* \"#utility.yul\":229:251   */\n  swap1\n  pop\n    /* \"#utility.yul\":260:293   */\n  tag_17\n    /* \"#utility.yul\":287:292   */\n  dup2\n    /* \"#utility.yul\":260:293   */\n  tag_18\n  jump\t// in\ntag_17:\n    /* \"#utility.yul\":156:299   */\n  swap3\n  swap2\n  pop\n  pop\n  jump\t// out\n    /* \"#utility.yul\":305:968   */\ntag_3:\n    /* \"#utility.yul\":393:399   */\n  0x00\n    /* \"#utility.yul\":401:407   */\n  dup1\n    /* \"#utility.yul\":409:415   */\n  0x00\n    /* \"#utility.yul\":458:460   */\n  0x60\n    /* \"#utility.yul\":446:455   */\n  dup5\n    /* \"#utility.yul\":437:444   */\n  dup7\n    /* \"#utility.yul\":433:456   */\n  sub\n    /* \"#utility.yul\":429:461   */\n  slt\n    /* \"#utility.yul\":426:545   */\n  iszero\n  tag_20\n  jumpi\n    /* \"#utility.yul\":464:543   */\n  tag_21\n  tag_22\n  jump\t// in\ntag_21:\n    /* \"#utility.yul\":426:545   */\ntag_20:\n    /* \"#utility.yul\":584:585   */\n  0x00\n    /* \"#utility.yul\":609:673   */\n  tag_23\n    /* \"#utility.yul\":665:672   */\n  dup7\n    /* \"#utility.yul\":656:662   */\n  dup3\n    /* \"#utility.yul\":645:654   */\n  dup8\n    /* \"#utility.yul\":641:663   */\n  add\n    /* \"#utility.yul\":609:673   */\n  tag_11\n  jump\t// in\ntag_23:\n    /* \"#utility.yul\":599:673   */\n  swap4\n  pop\n    /* \"#utility.yul\":555:683   */\n  pop\n    /* \"#utility.yul\":722:724   */\n  0x20\n    /* \"#utility.yul\":748:812   */\n  tag_24\n    /* \"#utility.yul\":804:811   */\n  dup7\n    /* \"#utility.yul\":795:801   */\n  dup3\n    /* \"#utility.yul\":784:793   */\n  dup8\n    /* \"#utility.yul\":780:802   */\n  add\n    /* \"#utility.yul\":748:812   */\n  tag_15\n  jump\t// in\ntag_24:\n    /* \"#utility.yul\":738:812   */\n  swap3\n  pop\n    /* \"#utility.yul\":693:822   */\n  pop\n    /* \"#utility.yul\":861:863   */\n  0x40\n    /* \"#utility.yul\":887:951   */\n  tag_25\n    /* \"#utility.yul\":943:950   */\n  dup7\n    /* \"#utility.yul\":934:940   */\n  dup3\n    /* \"#utility.yul\":923:932   */\n  dup8\n    /* \"#utility.yul\":919:941   */\n  add\n    /* \"#utility.yul\":887:951   */\n  tag_15\n  jump\t// in\ntag_25:\n    /* \"#utility.yul\":877:951   */\n  swap2\n  pop\n    /* \"#utility.yul\":832:961   */\n  pop\n    /* \"#utility.yul\":305:968   */\n  swap3\n  pop\n  swap3\n  pop\n  swap3\n  jump\t// out\n    /* \"#utility.yul\":974:1339   */\ntag_26:\n    /* \"#utility.yul\":1116:1119   */\n  0x00\n    /* \"#utility.yul\":1137:1203   */\n  tag_28\n    /* \"#utility.yul\":1201:1202   */\n  0x08\n    /* \"#utility.yul\":1196:1199   */\n  dup4\n    /* \"#utility.yul\":1137:1203   */\n  tag_29\n  jump\t// in\ntag_28:\n    /* \"#utility.yul\":1130:1203   */\n  swap2\n  pop\n    /* \"#utility.yul\":1212:1305   */\n  tag_30\n    /* \"#utility.yul\":1301:1304   */\n  dup3\n    /* \"#utility.yul\":1212:1305   */\n  tag_31\n  jump\t// in\ntag_30:\n    /* \"#utility.yul\":1330:1332   */\n  0x20\n    /* \"#utility.yul\":1325:1328   */\n  dup3\n    /* \"#utility.yul\":1321:1333   */\n  add\n    /* \"#utility.yul\":1314:1333   */\n  swap1\n  pop\n    /* \"#utility.yul\":974:1339   */\n  swap2\n  swap1\n  pop\n  jump\t// out\n    /* \"#utility.yul\":1345:1764   */\ntag_8:\n    /* \"#utility.yul\":1511:1515   */\n  0x00\n    /* \"#utility.yul\":1549:1551   */\n  0x20\n    /* \"#utility.yul\":1538:1547   */\n  dup3\n    /* \"#utility.yul\":1534:1552   */\n  add\n    /* \"#utility.yul\":1526:1552   */\n  swap1\n  pop\n    /* \"#utility.yul\":1598:1607   */\n  dup2\n    /* \"#utility.yul\":1592:1596   */\n  dup2\n    /* \"#utility.yul\":1588:1608   */\n  sub\n    /* \"#utility.yul\":1584:1585   */\n  0x00\n    /* \"#utility.yul\":1573:1582   */\n  dup4\n    /* \"#utility.yul\":1569:1586   */\n  add\n    /* \"#utility.yul\":1562:1609   */\n  mstore\n    /* \"#utility.yul\":1626:1757   */\n  tag_33\n    /* \"#utility.yul\":1752:1756   */\n  dup2\n    /* \"#utility.yul\":1626:1757   */\n  tag_26\n  jump\t// in\ntag_33:\n    /* \"#utility.yul\":1618:1757   */\n  swap1\n  pop\n    /* \"#utility.yul\":1345:1764   */\n  swap2\n  swap1\n  pop\n  jump\t// out\n    /* \"#utility.yul\":1851:2020   */\ntag_29:\n    /* \"#utility.yul\":1935:1946   */\n  0x00\n    /* \"#utility.yul\":1969:1975   */\n  dup3\n    /* \"#utility.yul\":1964:1967   */\n  dup3\n    /* \"#utility.yul\":1957:1976   */\n  mstore\n    /* \"#utility.yul\":2009:2013   */\n  0x20\n    /* \"#utility.yul\":2004:2007   */\n  dup3\n    /* \"#utility.yul\":2000:2014   */\n  add\n    /* \"#utility.yul\":1985:2014   */\n  swap1\n  pop\n    /* \"#utility.yul\":1851:2020   */\n  swap3\n  swap2\n  pop\n  pop\n  jump\t// out\n    /* \"#utility.yul\":2026:2122   */\ntag_37:\n    /* \"#utility.yul\":2063:2070   */\n  0x00\n    /* \"#utility.yul\":2092:2116   */\n  tag_39\n    /* \"#utility.yul\":2110:2115   */\n  dup3\n    /* \"#utility.yul\":2092:2116   */\n  tag_40\n  jump\t// in\ntag_39:\n    /* \"#utility.yul\":2081:2116   */\n  swap1\n  pop\n    /* \"#utility.yul\":2026:2122   */\n  swap2\n  swap1\n  pop\n  jump\t// out\n    /* \"#utility.yul\":2128:2254   */\ntag_40:\n    /* \"#utility.yul\":2165:2172   */\n  0x00\n    /* \"#utility.yul\":2205:2247   */\n  0xffffffffffffffffffffffffffffffffffffffff\n    /* \"#utility.yul\":2198:2203   */\n  dup3\n    /* \"#utility.yul\":2194:2248   */\n  and\n    /* \"#utility.yul\":2183:2248   */\n  swap1\n  pop\n    /* \"#utility.yul\":2128:2254   */\n  swap2\n  swap1\n  pop\n  jump\t// out\n    /* \"#utility.yul\":2260:2337   */\ntag_42:\n    /* \"#utility.yul\":2297:2304   */\n  0x00\n    /* \"#utility.yul\":2326:2331   */\n  dup2\n    /* \"#utility.yul\":2315:2331   */\n  swap1\n  pop\n    /* \"#utility.yul\":2260:2337   */\n  swap2\n  swap1\n  pop\n  jump\t// out\n    /* \"#utility.yul\":2466:2583   */\ntag_22:\n    /* \"#utility.yul\":2575:2576   */\n  0x00\n    /* \"#utility.yul\":2572:2573   */\n  dup1\n    /* \"#utility.yul\":2565:2577   */\n  revert\n    /* \"#utility.yul\":2589:2747   */\ntag_31:\n    /* \"#utility.yul\":2729:2739   */\n  0x7072696365203c30000000000000000000000000000000000000000000000000\n    /* \"#utility.yul\":2725:2726   */\n  0x00\n    /* \"#utility.yul\":2717:2723   */\n  dup3\n    /* \"#utility.yul\":2713:2727   */\n  add\n    /* \"#utility.yul\":2706:2740   */\n  mstore\n    /* \"#utility.yul\":2589:2747   */\n  pop\n  jump\t// out\n    /* \"#utility.yul\":2753:2875   */\ntag_14:\n    /* \"#utility.yul\":2826:2850   */\n  tag_49\n    /* \"#utility.yul\":2844:2849   */\n  dup2\n    /* \"#utility.yul\":2826:2850   */\n  tag_37\n  jump\t// in\ntag_49:\n    /* \"#utility.yul\":2819:2824   */\n  dup2\n    /* \"#utility.yul\":2816:2851   */\n  eq\n    /* \"#utility.yul\":2806:2869   */\n  tag_50\n  jumpi\n    /* \"#utility.yul\":2865:2866   */\n  0x00\n    /* \"#utility.yul\":2862:2863   */\n  dup1\n    /* \"#utility.yul\":2855:2867   */\n  revert\n    /* \"#utility.yul\":2806:2869   */\ntag_50:\n    /* \"#utility.yul\":2753:2875   */\n  pop\n  jump\t// out\n    /* \"#utility.yul\":2881:3003   */\ntag_18:\n    /* \"#utility.yul\":2954:2978   */\n  tag_52\n    /* \"#utility.yul\":2972:2977   */\n  dup2\n    /* \"#utility.yul\":2954:2978   */\n  tag_42\n  jump\t// in\ntag_52:\n    /* \"#utility.yul\":2947:2952   */\n  dup2\n    /* \"#utility.yul\":2944:2979   */\n  eq\n    /* \"#utility.yul\":2934:2997   */\n  tag_53\n  jumpi\n    /* \"#utility.yul\":2993:2994   */\n  0x00\n    /* \"#utility.yul\":2990:2991   */\n  dup1\n    /* \"#utility.yul\":2983:2995   */\n  revert\n    /* \"#utility.yul\":2934:2997   */\ntag_53:\n    /* \"#utility.yul\":2881:3003   */\n  pop\n  jump\t// out\n    /* \"EnglishAuction.sol\":80:2080  contract English{... */\ntag_9:\n  shr(0x60, mload(0x80))\n  mload(0xa0)\n  shr(0x60, mload(0xc0))\n  codecopy(0x00, dataOffset(sub_0), dataSize(sub_0))\n  0x00\n  assignImmutable(\"0x0c80a19b8ca7f6d5934c05641cd728592c4eed73e333ebf4219222b8e7bf0227\")\n  0x00\n  assignImmutable(\"0x9dba651fe92c782dda8c593c3d8da3497c4efc99f38999b5ec4b9f051734219f\")\n  0x00\n  assignImmutable(\"0x4c643d5d9b0441803235e222732b65e2dc488f209ae20302cca6cafc813933a8\")\n  return(0x00, dataSize(sub_0))\nstop\n\nsub_0: assembly {\n        /* \"EnglishAuction.sol\":80:2080  contract English{... */\n      mstore(0x40, 0x80)\n      jumpi(tag_1, lt(calldatasize, 0x04))\n      shr(0xe0, calldataload(0x00))\n      dup1\n      0x7cc3ae8c\n      gt\n      tag_16\n      jumpi\n      dup1\n      0xc6bc5182\n      gt\n      tag_17\n      jumpi\n      dup1\n      0xc6bc5182\n      eq\n      tag_12\n      jumpi\n      dup1\n      0xeb36a479\n      eq\n      tag_13\n      jumpi\n      dup1\n      0xefbe1c1c\n      eq\n      tag_14\n      jumpi\n      dup1\n      0xf496d882\n      eq\n      tag_15\n      jumpi\n      jump(tag_1)\n    tag_17:\n      dup1\n      0x7cc3ae8c\n      eq\n      tag_9\n      jumpi\n      dup1\n      0x98d5fdca\n      eq\n      tag_10\n      jumpi\n      dup1\n      0xbe9a6555\n      eq\n      tag_11\n      jumpi\n      jump(tag_1)\n    tag_16:\n      dup1\n      0x1f2698ab\n      gt\n      tag_18\n      jumpi\n      dup1\n      0x1f2698ab\n      eq\n      tag_5\n      jumpi\n      dup1\n      0x3ccfd60b\n      eq\n      tag_6\n      jumpi\n      dup1\n      0x47ccca02\n      eq\n      tag_7\n      jumpi\n      dup1\n      0x62ea82db\n      eq\n      tag_8\n      jumpi\n      jump(tag_1)\n    tag_18:\n      dup1\n      0x08551a53\n      eq\n      tag_2\n      jumpi\n      dup1\n      0x12fa6feb\n      eq\n      tag_3\n      jumpi\n      dup1\n      0x1998aeef\n      eq\n      tag_4\n      jumpi\n    tag_1:\n      0x00\n      dup1\n      revert\n        /* \"EnglishAuction.sol\":200:239  address payable public immutable seller */\n    tag_2:\n      callvalue\n      dup1\n      iszero\n      tag_19\n      jumpi\n      0x00\n      dup1\n      revert\n    tag_19:\n      pop\n      tag_20\n      tag_21\n      jump\t// in\n    tag_20:\n      mload(0x40)\n      tag_22\n      swap2\n      swap1\n      tag_23\n      jump\t// in\n    tag_22:\n      mload(0x40)\n      dup1\n      swap2\n      sub\n      swap1\n      return\n        /* \"EnglishAuction.sol\":297:314  bool public ended */\n    tag_3:\n      callvalue\n      dup1\n      iszero\n      tag_24\n      jumpi\n      0x00\n      dup1\n      revert\n    tag_24:\n      pop\n      tag_25\n      tag_26\n      jump\t// in\n    tag_25:\n      mload(0x40)\n      tag_27\n      swap2\n      swap1\n      tag_28\n      jump\t// in\n    tag_27:\n      mload(0x40)\n      dup1\n      swap2\n      sub\n      swap1\n      return\n        /* \"EnglishAuction.sol\":378:393  uint public bid */\n    tag_4:\n      callvalue\n      dup1\n      iszero\n      tag_29\n      jumpi\n      0x00\n      dup1\n      revert\n    tag_29:\n      pop\n      tag_30\n      tag_31\n      jump\t// in\n    tag_30:\n      mload(0x40)\n      tag_32\n      swap2\n      swap1\n      tag_33\n      jump\t// in\n    tag_32:\n      mload(0x40)\n      dup1\n      swap2\n      sub\n      swap1\n      return\n        /* \"EnglishAuction.sol\":272:291  bool public started */\n    tag_5:\n      callvalue\n      dup1\n      iszero\n      tag_34\n      jumpi\n      0x00\n      dup1\n      revert\n    tag_34:\n      pop\n      tag_35\n      tag_36\n      jump\t// in\n    tag_35:\n      mload(0x40)\n      tag_37\n      swap2\n      swap1\n      tag_28\n      jump\t// in\n    tag_37:\n      mload(0x40)\n      dup1\n      swap2\n      sub\n      swap1\n      return\n        /* \"EnglishAuction.sol\":1480:1659  function withdraw() external{... */\n    tag_6:\n      callvalue\n      dup1\n      iszero\n      tag_38\n      jumpi\n      0x00\n      dup1\n      revert\n    tag_38:\n      pop\n      tag_39\n      tag_40\n      jump\t// in\n    tag_39:\n      stop\n        /* \"EnglishAuction.sol\":134:161  ERC721 public immutable nft */\n    tag_7:\n      callvalue\n      dup1\n      iszero\n      tag_41\n      jumpi\n      0x00\n      dup1\n      revert\n    tag_41:\n      pop\n      tag_42\n      tag_43\n      jump\t// in\n    tag_42:\n      mload(0x40)\n      tag_44\n      swap2\n      swap1\n      tag_45\n      jump\t// in\n    tag_44:\n      mload(0x40)\n      dup1\n      swap2\n      sub\n      swap1\n      return\n        /* \"EnglishAuction.sol\":399:433  mapping(address=>uint) public bids */\n    tag_8:\n      callvalue\n      dup1\n      iszero\n      tag_46\n      jumpi\n      0x00\n      dup1\n      revert\n    tag_46:\n      pop\n      tag_47\n      0x04\n      dup1\n      calldatasize\n      sub\n      dup2\n      add\n      swap1\n      tag_48\n      swap2\n      swap1\n      tag_49\n      jump\t// in\n    tag_48:\n      tag_50\n      jump\t// in\n    tag_47:\n      mload(0x40)\n      tag_51\n      swap2\n      swap1\n      tag_33\n      jump\t// in\n    tag_51:\n      mload(0x40)\n      dup1\n      swap2\n      sub\n      swap1\n      return\n        /* \"EnglishAuction.sol\":247:266  uint32 public endAt */\n    tag_9:\n      callvalue\n      dup1\n      iszero\n      tag_52\n      jumpi\n      0x00\n      dup1\n      revert\n    tag_52:\n      pop\n      tag_53\n      tag_54\n      jump\t// in\n    tag_53:\n      mload(0x40)\n      tag_55\n      swap2\n      swap1\n      tag_56\n      jump\t// in\n    tag_55:\n      mload(0x40)\n      dup1\n      swap2\n      sub\n      swap1\n      return\n        /* \"EnglishAuction.sol\":1032:1106  function getPrice() public view returns (uint) {... */\n    tag_10:\n      callvalue\n      dup1\n      iszero\n      tag_57\n      jumpi\n      0x00\n      dup1\n      revert\n    tag_57:\n      pop\n      tag_58\n      tag_59\n      jump\t// in\n    tag_58:\n      mload(0x40)\n      tag_60\n      swap2\n      swap1\n      tag_33\n      jump\t// in\n    tag_60:\n      mload(0x40)\n      dup1\n      swap2\n      sub\n      swap1\n      return\n        /* \"EnglishAuction.sol\":748:1026  function start() external{... */\n    tag_11:\n      callvalue\n      dup1\n      iszero\n      tag_61\n      jumpi\n      0x00\n      dup1\n      revert\n    tag_61:\n      pop\n      tag_62\n      tag_63\n      jump\t// in\n    tag_62:\n      stop\n        /* \"EnglishAuction.sol\":167:194  uint public immutable nftId */\n    tag_12:\n      callvalue\n      dup1\n      iszero\n      tag_64\n      jumpi\n      0x00\n      dup1\n      revert\n    tag_64:\n      pop\n      tag_65\n      tag_66\n      jump\t// in\n    tag_65:\n      mload(0x40)\n      tag_67\n      swap2\n      swap1\n      tag_33\n      jump\t// in\n    tag_67:\n      mload(0x40)\n      dup1\n      swap2\n      sub\n      swap1\n      return\n        /* \"EnglishAuction.sol\":1112:1474  function makeABid() external payable{... */\n    tag_13:\n      tag_68\n      tag_69\n      jump\t// in\n    tag_68:\n      stop\n        /* \"EnglishAuction.sol\":1665:2077  function end()external {... */\n    tag_14:\n      callvalue\n      dup1\n      iszero\n      tag_70\n      jumpi\n      0x00\n      dup1\n      revert\n    tag_70:\n      pop\n      tag_71\n      tag_72\n      jump\t// in\n    tag_71:\n      stop\n        /* \"EnglishAuction.sol\":343:372  address payable public bidder */\n    tag_15:\n      callvalue\n      dup1\n      iszero\n      tag_73\n      jumpi\n      0x00\n      dup1\n      revert\n    tag_73:\n      pop\n      tag_74\n      tag_75\n      jump\t// in\n    tag_74:\n      mload(0x40)\n      tag_76\n      swap2\n      swap1\n      tag_23\n      jump\t// in\n    tag_76:\n      mload(0x40)\n      dup1\n      swap2\n      sub\n      swap1\n      return\n        /* \"EnglishAuction.sol\":200:239  address payable public immutable seller */\n    tag_21:\n      immutable(\"0x0c80a19b8ca7f6d5934c05641cd728592c4eed73e333ebf4219222b8e7bf0227\")\n      dup2\n      jump\t// out\n        /* \"EnglishAuction.sol\":297:314  bool public ended */\n    tag_26:\n      0x00\n      0x05\n      swap1\n      sload\n      swap1\n      0x0100\n      exp\n      swap1\n      div\n      0xff\n      and\n      dup2\n      jump\t// out\n        /* \"EnglishAuction.sol\":378:393  uint public bid */\n    tag_31:\n      sload(0x03)\n      dup2\n      jump\t// out\n        /* \"EnglishAuction.sol\":272:291  bool public started */\n    tag_36:\n      0x00\n      0x04\n      swap1\n      sload\n      swap1\n      0x0100\n      exp\n      swap1\n      div\n      0xff\n      and\n      dup2\n      jump\t// out\n        /* \"EnglishAuction.sol\":1480:1659  function withdraw() external{... */\n    tag_40:\n        /* \"EnglishAuction.sol\":1518:1526  uint val */\n      0x00\n        /* \"EnglishAuction.sol\":1529:1533  bids */\n      0x04\n        /* \"EnglishAuction.sol\":1529:1545  bids[msg.sender] */\n      0x00\n        /* \"EnglishAuction.sol\":1534:1544  msg.sender */\n      caller\n        /* \"EnglishAuction.sol\":1529:1545  bids[msg.sender] */\n      0xffffffffffffffffffffffffffffffffffffffff\n      and\n      0xffffffffffffffffffffffffffffffffffffffff\n      and\n      dup2\n      mstore\n      0x20\n      add\n      swap1\n      dup2\n      mstore\n      0x20\n      add\n      0x00\n      keccak256\n      sload\n        /* \"EnglishAuction.sol\":1518:1545  uint val = bids[msg.sender] */\n      swap1\n      pop\n        /* \"EnglishAuction.sol\":1574:1575  0 */\n      0x00\n        /* \"EnglishAuction.sol\":1555:1559  bids */\n      0x04\n        /* \"EnglishAuction.sol\":1555:1571  bids[msg.sender] */\n      0x00\n        /* \"EnglishAuction.sol\":1560:1570  msg.sender */\n      caller\n        /* \"EnglishAuction.sol\":1555:1571  bids[msg.sender] */\n      0xffffffffffffffffffffffffffffffffffffffff\n      and\n      0xffffffffffffffffffffffffffffffffffffffff\n      and\n      dup2\n      mstore\n      0x20\n      add\n      swap1\n      dup2\n      mstore\n      0x20\n      add\n      0x00\n      keccak256\n        /* \"EnglishAuction.sol\":1555:1575  bids[msg.sender] = 0 */\n      dup2\n      swap1\n      sstore\n      pop\n        /* \"EnglishAuction.sol\":1593:1603  msg.sender */\n      caller\n        /* \"EnglishAuction.sol\":1585:1613  payable(msg.sender).transfer */\n      0xffffffffffffffffffffffffffffffffffffffff\n      and\n        /* \"EnglishAuction.sol\":1585:1618  payable(msg.sender).transfer(val) */\n      0x08fc\n        /* \"EnglishAuction.sol\":1614:1617  val */\n      dup3\n        /* \"EnglishAuction.sol\":1585:1618  payable(msg.sender).transfer(val) */\n      swap1\n      dup2\n      iszero\n      mul\n      swap1\n      mload(0x40)\n      0x00\n      mload(0x40)\n      dup1\n      dup4\n      sub\n      dup2\n      dup6\n      dup9\n      dup9\n      call\n      swap4\n      pop\n      pop\n      pop\n      pop\n      iszero\n      dup1\n      iszero\n      tag_79\n      jumpi\n      returndatasize\n      0x00\n      dup1\n      returndatacopy\n      revert(0x00, returndatasize)\n    tag_79:\n      pop\n        /* \"EnglishAuction.sol\":1633:1652  Log(\"Withdraw\",val) */\n      0xdd970dd9b5bfe707922155b058a407655cb18288b807e2216442bca8ad83d6b5\n        /* \"EnglishAuction.sol\":1648:1651  val */\n      dup2\n        /* \"EnglishAuction.sol\":1633:1652  Log(\"Withdraw\",val) */\n      mload(0x40)\n      tag_80\n      swap2\n      swap1\n      tag_81\n      jump\t// in\n    tag_80:\n      mload(0x40)\n      dup1\n      swap2\n      sub\n      swap1\n      log1\n        /* \"EnglishAuction.sol\":1508:1659  {... */\n      pop\n        /* \"EnglishAuction.sol\":1480:1659  function withdraw() external{... */\n      jump\t// out\n        /* \"EnglishAuction.sol\":134:161  ERC721 public immutable nft */\n    tag_43:\n      immutable(\"0x4c643d5d9b0441803235e222732b65e2dc488f209ae20302cca6cafc813933a8\")\n      dup2\n      jump\t// out\n        /* \"EnglishAuction.sol\":399:433  mapping(address=>uint) public bids */\n    tag_50:\n      mstore(0x20, 0x04)\n      dup1\n      0x00\n      mstore\n      keccak256(0x00, 0x40)\n      0x00\n      swap2\n      pop\n      swap1\n      pop\n      sload\n      dup2\n      jump\t// out\n        /* \"EnglishAuction.sol\":247:266  uint32 public endAt */\n    tag_54:\n      0x00\n      dup1\n      sload\n      swap1\n      0x0100\n      exp\n      swap1\n      div\n      0xffffffff\n      and\n      dup2\n      jump\t// out\n        /* \"EnglishAuction.sol\":1032:1106  function getPrice() public view returns (uint) {... */\n    tag_59:\n        /* \"EnglishAuction.sol\":1073:1077  uint */\n      0x00\n        /* \"EnglishAuction.sol\":1096:1099  bid */\n      sload(0x03)\n        /* \"EnglishAuction.sol\":1089:1099  return bid */\n      swap1\n      pop\n        /* \"EnglishAuction.sol\":1032:1106  function getPrice() public view returns (uint) {... */\n      swap1\n      jump\t// out\n        /* \"EnglishAuction.sol\":748:1026  function start() external{... */\n    tag_63:\n        /* \"EnglishAuction.sol\":792:799  started */\n      0x00\n      0x04\n      swap1\n      sload\n      swap1\n      0x0100\n      exp\n      swap1\n      div\n      0xff\n      and\n        /* \"EnglishAuction.sol\":791:799  !started */\n      iszero\n        /* \"EnglishAuction.sol\":783:810  require(!started,\"started\") */\n      tag_84\n      jumpi\n      mload(0x40)\n      0x08c379a000000000000000000000000000000000000000000000000000000000\n      dup2\n      mstore\n      0x04\n      add\n      tag_85\n      swap1\n      tag_86\n      jump\t// in\n    tag_85:\n      mload(0x40)\n      dup1\n      swap2\n      sub\n      swap1\n      revert\n    tag_84:\n        /* \"EnglishAuction.sol\":840:846  seller */\n      immutable(\"0x0c80a19b8ca7f6d5934c05641cd728592c4eed73e333ebf4219222b8e7bf0227\")\n        /* \"EnglishAuction.sol\":828:846  msg.sender==seller */\n      0xffffffffffffffffffffffffffffffffffffffff\n      and\n        /* \"EnglishAuction.sol\":828:838  msg.sender */\n      caller\n        /* \"EnglishAuction.sol\":828:846  msg.sender==seller */\n      0xffffffffffffffffffffffffffffffffffffffff\n      and\n      eq\n        /* \"EnglishAuction.sol\":820:864  require(msg.sender==seller,\"not authorized\") */\n      tag_87\n      jumpi\n      mload(0x40)\n      0x08c379a000000000000000000000000000000000000000000000000000000000\n      dup2\n      mstore\n      0x04\n      add\n      tag_88\n      swap1\n      tag_89\n      jump\t// in\n    tag_88:\n      mload(0x40)\n      dup1\n      swap2\n      sub\n      swap1\n      revert\n    tag_87:\n        /* \"EnglishAuction.sol\":885:889  true */\n      0x01\n        /* \"EnglishAuction.sol\":875:882  started */\n      0x00\n      0x04\n        /* \"EnglishAuction.sol\":875:889  started = true */\n      0x0100\n      exp\n      dup2\n      sload\n      dup2\n      0xff\n      mul\n      not\n      and\n      swap1\n      dup4\n      iszero\n      iszero\n      mul\n      or\n      swap1\n      sstore\n      pop\n        /* \"EnglishAuction.sol\":930:932  60 */\n      0x3c\n        /* \"EnglishAuction.sol\":914:929  block.timestamp */\n      timestamp\n        /* \"EnglishAuction.sol\":914:932  block.timestamp+60 */\n      tag_90\n      swap2\n      swap1\n      tag_91\n      jump\t// in\n    tag_90:\n        /* \"EnglishAuction.sol\":899:904  endAt */\n      0x00\n      dup1\n        /* \"EnglishAuction.sol\":899:933  endAt = uint32(block.timestamp+60) */\n      0x0100\n      exp\n      dup2\n      sload\n      dup2\n      0xffffffff\n      mul\n      not\n      and\n      swap1\n      dup4\n      0xffffffff\n      and\n      mul\n      or\n      swap1\n      sstore\n      pop\n        /* \"EnglishAuction.sol\":943:946  nft */\n      immutable(\"0x4c643d5d9b0441803235e222732b65e2dc488f209ae20302cca6cafc813933a8\")\n        /* \"EnglishAuction.sol\":943:959  nft.transferFrom */\n      0xffffffffffffffffffffffffffffffffffffffff\n      and\n      0x23b872dd\n        /* \"EnglishAuction.sol\":960:966  seller */\n      immutable(\"0x0c80a19b8ca7f6d5934c05641cd728592c4eed73e333ebf4219222b8e7bf0227\")\n        /* \"EnglishAuction.sol\":975:979  this */\n      address\n        /* \"EnglishAuction.sol\":981:986  nftId */\n      immutable(\"0x9dba651fe92c782dda8c593c3d8da3497c4efc99f38999b5ec4b9f051734219f\")\n        /* \"EnglishAuction.sol\":943:987  nft.transferFrom(seller,address(this),nftId) */\n      mload(0x40)\n      dup5\n      0xffffffff\n      and\n      0xe0\n      shl\n      dup2\n      mstore\n      0x04\n      add\n      tag_92\n      swap4\n      swap3\n      swap2\n      swap1\n      tag_93\n      jump\t// in\n    tag_92:\n      0x00\n      mload(0x40)\n      dup1\n      dup4\n      sub\n      dup2\n      0x00\n      dup8\n      dup1\n      extcodesize\n      iszero\n      dup1\n      iszero\n      tag_94\n      jumpi\n      0x00\n      dup1\n      revert\n    tag_94:\n      pop\n      gas\n      call\n      iszero\n      dup1\n      iszero\n      tag_96\n      jumpi\n      returndatasize\n      0x00\n      dup1\n      returndatacopy\n      revert(0x00, returndatasize)\n    tag_96:\n      pop\n      pop\n      pop\n      pop\n        /* \"EnglishAuction.sol\":1003:1019  Log(\"started\",0) */\n      0xdd970dd9b5bfe707922155b058a407655cb18288b807e2216442bca8ad83d6b5\n        /* \"EnglishAuction.sol\":1017:1018  0 */\n      0x00\n        /* \"EnglishAuction.sol\":1003:1019  Log(\"started\",0) */\n      mload(0x40)\n      tag_97\n      swap2\n      swap1\n      tag_98\n      jump\t// in\n    tag_97:\n      mload(0x40)\n      dup1\n      swap2\n      sub\n      swap1\n      log1\n        /* \"EnglishAuction.sol\":748:1026  function start() external{... */\n      jump\t// out\n        /* \"EnglishAuction.sol\":167:194  uint public immutable nftId */\n    tag_66:\n      immutable(\"0x9dba651fe92c782dda8c593c3d8da3497c4efc99f38999b5ec4b9f051734219f\")\n      dup2\n      jump\t// out\n        /* \"EnglishAuction.sol\":1112:1474  function makeABid() external payable{... */\n    tag_69:\n        /* \"EnglishAuction.sol\":1166:1173  started */\n      0x00\n      0x04\n      swap1\n      sload\n      swap1\n      0x0100\n      exp\n      swap1\n      div\n      0xff\n      and\n        /* \"EnglishAuction.sol\":1158:1188  require(started,\"not started\") */\n      tag_100\n      jumpi\n      mload(0x40)\n      0x08c379a000000000000000000000000000000000000000000000000000000000\n      dup2\n      mstore\n      0x04\n      add\n      tag_101\n      swap1\n      tag_102\n      jump\t// in\n    tag_101:\n      mload(0x40)\n      dup1\n      swap2\n      sub\n      swap1\n      revert\n    tag_100:\n        /* \"EnglishAuction.sol\":1216:1219  bid */\n      sload(0x03)\n        /* \"EnglishAuction.sol\":1206:1215  msg.value */\n      callvalue\n        /* \"EnglishAuction.sol\":1206:1219  msg.value>bid */\n      gt\n        /* \"EnglishAuction.sol\":1198:1237  require(msg.value>bid,\"not enough eth\") */\n      tag_103\n      jumpi\n      mload(0x40)\n      0x08c379a000000000000000000000000000000000000000000000000000000000\n      dup2\n      mstore\n      0x04\n      add\n      tag_104\n      swap1\n      tag_105\n      jump\t// in\n    tag_104:\n      mload(0x40)\n      dup1\n      swap2\n      sub\n      swap1\n      revert\n    tag_103:\n        /* \"EnglishAuction.sol\":1271:1276  endAt */\n      0x00\n      dup1\n      sload\n      swap1\n      0x0100\n      exp\n      swap1\n      div\n      0xffffffff\n      and\n        /* \"EnglishAuction.sol\":1255:1276  block.timestamp<endAt */\n      0xffffffff\n      and\n        /* \"EnglishAuction.sol\":1255:1270  block.timestamp */\n      timestamp\n        /* \"EnglishAuction.sol\":1255:1276  block.timestamp<endAt */\n      lt\n        /* \"EnglishAuction.sol\":1247:1277  require(block.timestamp<endAt) */\n      tag_106\n      jumpi\n      0x00\n      dup1\n      revert\n    tag_106:\n        /* \"EnglishAuction.sol\":1315:1316  0 */\n      0x00\n        /* \"EnglishAuction.sol\":1299:1317  bidder!=address(0) */\n      0xffffffffffffffffffffffffffffffffffffffff\n      and\n        /* \"EnglishAuction.sol\":1299:1305  bidder */\n      0x02\n      0x00\n      swap1\n      sload\n      swap1\n      0x0100\n      exp\n      swap1\n      div\n      0xffffffffffffffffffffffffffffffffffffffff\n      and\n        /* \"EnglishAuction.sol\":1299:1317  bidder!=address(0) */\n      0xffffffffffffffffffffffffffffffffffffffff\n      and\n      eq\n        /* \"EnglishAuction.sol\":1296:1360  if(bidder!=address(0)){... */\n      tag_107\n      jumpi\n        /* \"EnglishAuction.sol\":1346:1349  bid */\n      sload(0x03)\n        /* \"EnglishAuction.sol\":1332:1336  bids */\n      0x04\n        /* \"EnglishAuction.sol\":1332:1344  bids[bidder] */\n      0x00\n        /* \"EnglishAuction.sol\":1337:1343  bidder */\n      0x02\n      0x00\n      swap1\n      sload\n      swap1\n      0x0100\n      exp\n      swap1\n      div\n      0xffffffffffffffffffffffffffffffffffffffff\n      and\n        /* \"EnglishAuction.sol\":1332:1344  bids[bidder] */\n      0xffffffffffffffffffffffffffffffffffffffff\n      and\n      0xffffffffffffffffffffffffffffffffffffffff\n      and\n      dup2\n      mstore\n      0x20\n      add\n      swap1\n      dup2\n      mstore\n      0x20\n      add\n      0x00\n      keccak256\n      0x00\n        /* \"EnglishAuction.sol\":1332:1349  bids[bidder]+=bid */\n      dup3\n      dup3\n      sload\n      tag_108\n      swap2\n      swap1\n      tag_91\n      jump\t// in\n    tag_108:\n      swap3\n      pop\n      pop\n      dup2\n      swap1\n      sstore\n      pop\n        /* \"EnglishAuction.sol\":1296:1360  if(bidder!=address(0)){... */\n    tag_107:\n        /* \"EnglishAuction.sol\":1376:1385  msg.value */\n      callvalue\n        /* \"EnglishAuction.sol\":1370:1373  bid */\n      0x03\n        /* \"EnglishAuction.sol\":1370:1385  bid = msg.value */\n      dup2\n      swap1\n      sstore\n      pop\n        /* \"EnglishAuction.sol\":1412:1422  msg.sender */\n      caller\n        /* \"EnglishAuction.sol\":1395:1401  bidder */\n      0x02\n      0x00\n        /* \"EnglishAuction.sol\":1395:1423  bidder = payable(msg.sender) */\n      0x0100\n      exp\n      dup2\n      sload\n      dup2\n      0xffffffffffffffffffffffffffffffffffffffff\n      mul\n      not\n      and\n      swap1\n      dup4\n      0xffffffffffffffffffffffffffffffffffffffff\n      and\n      mul\n      or\n      swap1\n      sstore\n      pop\n        /* \"EnglishAuction.sol\":1447:1467  Log(\"bid\",msg.value) */\n      0xdd970dd9b5bfe707922155b058a407655cb18288b807e2216442bca8ad83d6b5\n        /* \"EnglishAuction.sol\":1457:1466  msg.value */\n      callvalue\n        /* \"EnglishAuction.sol\":1447:1467  Log(\"bid\",msg.value) */\n      mload(0x40)\n      tag_109\n      swap2\n      swap1\n      tag_110\n      jump\t// in\n    tag_109:\n      mload(0x40)\n      dup1\n      swap2\n      sub\n      swap1\n      log1\n        /* \"EnglishAuction.sol\":1112:1474  function makeABid() external payable{... */\n      jump\t// out\n        /* \"EnglishAuction.sol\":1665:2077  function end()external {... */\n    tag_72:\n        /* \"EnglishAuction.sol\":1706:1713  started */\n      0x00\n      0x04\n      swap1\n      sload\n      swap1\n      0x0100\n      exp\n      swap1\n      div\n      0xff\n      and\n        /* \"EnglishAuction.sol\":1698:1724  require(started,\"started\") */\n      tag_112\n      jumpi\n      mload(0x40)\n      0x08c379a000000000000000000000000000000000000000000000000000000000\n      dup2\n      mstore\n      0x04\n      add\n      tag_113\n      swap1\n      tag_86\n      jump\t// in\n    tag_113:\n      mload(0x40)\n      dup1\n      swap2\n      sub\n      swap1\n      revert\n    tag_112:\n        /* \"EnglishAuction.sol\":1743:1748  ended */\n      0x00\n      0x05\n      swap1\n      sload\n      swap1\n      0x0100\n      exp\n      swap1\n      div\n      0xff\n      and\n        /* \"EnglishAuction.sol\":1742:1748  !ended */\n      iszero\n        /* \"EnglishAuction.sol\":1734:1757  require(!ended,\"ended\") */\n      tag_114\n      jumpi\n      mload(0x40)\n      0x08c379a000000000000000000000000000000000000000000000000000000000\n      dup2\n      mstore\n      0x04\n      add\n      tag_115\n      swap1\n      tag_116\n      jump\t// in\n    tag_115:\n      mload(0x40)\n      dup1\n      swap2\n      sub\n      swap1\n      revert\n    tag_114:\n        /* \"EnglishAuction.sol\":1792:1797  endAt */\n      0x00\n      dup1\n      sload\n      swap1\n      0x0100\n      exp\n      swap1\n      div\n      0xffffffff\n      and\n        /* \"EnglishAuction.sol\":1775:1797  block.timestamp>=endAt */\n      0xffffffff\n      and\n        /* \"EnglishAuction.sol\":1775:1790  block.timestamp */\n      timestamp\n        /* \"EnglishAuction.sol\":1775:1797  block.timestamp>=endAt */\n      lt\n      iszero\n        /* \"EnglishAuction.sol\":1767:1810  require(block.timestamp>=endAt,\"not ended\") */\n      tag_117\n      jumpi\n      mload(0x40)\n      0x08c379a000000000000000000000000000000000000000000000000000000000\n      dup2\n      mstore\n      0x04\n      add\n      tag_118\n      swap1\n      tag_119\n      jump\t// in\n    tag_118:\n      mload(0x40)\n      dup1\n      swap2\n      sub\n      swap1\n      revert\n    tag_117:\n        /* \"EnglishAuction.sol\":1827:1831  true */\n      0x01\n        /* \"EnglishAuction.sol\":1821:1826  ended */\n      0x00\n      0x05\n        /* \"EnglishAuction.sol\":1821:1831  ended=true */\n      0x0100\n      exp\n      dup2\n      sload\n      dup2\n      0xff\n      mul\n      not\n      and\n      swap1\n      dup4\n      iszero\n      iszero\n      mul\n      or\n      swap1\n      sstore\n      pop\n        /* \"EnglishAuction.sol\":1860:1861  0 */\n      0x00\n        /* \"EnglishAuction.sol\":1844:1862  bidder!=address(0) */\n      0xffffffffffffffffffffffffffffffffffffffff\n      and\n        /* \"EnglishAuction.sol\":1844:1850  bidder */\n      0x02\n      0x00\n      swap1\n      sload\n      swap1\n      0x0100\n      exp\n      swap1\n      div\n      0xffffffffffffffffffffffffffffffffffffffff\n      and\n        /* \"EnglishAuction.sol\":1844:1862  bidder!=address(0) */\n      0xffffffffffffffffffffffffffffffffffffffff\n      and\n      eq\n        /* \"EnglishAuction.sol\":1841:2039  if(bidder!=address(0)){... */\n      tag_120\n      jumpi\n        /* \"EnglishAuction.sol\":1877:1880  nft */\n      immutable(\"0x4c643d5d9b0441803235e222732b65e2dc488f209ae20302cca6cafc813933a8\")\n        /* \"EnglishAuction.sol\":1877:1893  nft.transferFrom */\n      0xffffffffffffffffffffffffffffffffffffffff\n      and\n      0x23b872dd\n        /* \"EnglishAuction.sol\":1902:1906  this */\n      address\n        /* \"EnglishAuction.sol\":1908:1914  bidder */\n      0x02\n      0x00\n      swap1\n      sload\n      swap1\n      0x0100\n      exp\n      swap1\n      div\n      0xffffffffffffffffffffffffffffffffffffffff\n      and\n        /* \"EnglishAuction.sol\":1915:1920  nftId */\n      immutable(\"0x9dba651fe92c782dda8c593c3d8da3497c4efc99f38999b5ec4b9f051734219f\")\n        /* \"EnglishAuction.sol\":1877:1921  nft.transferFrom(address(this),bidder,nftId) */\n      mload(0x40)\n      dup5\n      0xffffffff\n      and\n      0xe0\n      shl\n      dup2\n      mstore\n      0x04\n      add\n      tag_121\n      swap4\n      swap3\n      swap2\n      swap1\n      tag_122\n      jump\t// in\n    tag_121:\n      0x00\n      mload(0x40)\n      dup1\n      dup4\n      sub\n      dup2\n      0x00\n      dup8\n      dup1\n      extcodesize\n      iszero\n      dup1\n      iszero\n      tag_123\n      jumpi\n      0x00\n      dup1\n      revert\n    tag_123:\n      pop\n      gas\n      call\n      iszero\n      dup1\n      iszero\n      tag_125\n      jumpi\n      returndatasize\n      0x00\n      dup1\n      returndatacopy\n      revert(0x00, returndatasize)\n    tag_125:\n      pop\n      pop\n      pop\n      pop\n        /* \"EnglishAuction.sol\":1935:1941  seller */\n      immutable(\"0x0c80a19b8ca7f6d5934c05641cd728592c4eed73e333ebf4219222b8e7bf0227\")\n        /* \"EnglishAuction.sol\":1935:1950  seller.transfer */\n      0xffffffffffffffffffffffffffffffffffffffff\n      and\n        /* \"EnglishAuction.sol\":1935:1955  seller.transfer(bid) */\n      0x08fc\n        /* \"EnglishAuction.sol\":1951:1954  bid */\n      sload(0x03)\n        /* \"EnglishAuction.sol\":1935:1955  seller.transfer(bid) */\n      swap1\n      dup2\n      iszero\n      mul\n      swap1\n      mload(0x40)\n      0x00\n      mload(0x40)\n      dup1\n      dup4\n      sub\n      dup2\n      dup6\n      dup9\n      dup9\n      call\n      swap4\n      pop\n      pop\n      pop\n      pop\n      iszero\n      dup1\n      iszero\n      tag_127\n      jumpi\n      returndatasize\n      0x00\n      dup1\n      returndatacopy\n      revert(0x00, returndatasize)\n    tag_127:\n      pop\n        /* \"EnglishAuction.sol\":1841:2039  if(bidder!=address(0)){... */\n      jump(tag_128)\n    tag_120:\n        /* \"EnglishAuction.sol\":1984:1987  nft */\n      immutable(\"0x4c643d5d9b0441803235e222732b65e2dc488f209ae20302cca6cafc813933a8\")\n        /* \"EnglishAuction.sol\":1984:2000  nft.transferFrom */\n      0xffffffffffffffffffffffffffffffffffffffff\n      and\n      0x23b872dd\n        /* \"EnglishAuction.sol\":2009:2013  this */\n      address\n        /* \"EnglishAuction.sol\":2015:2021  bidder */\n      0x02\n      0x00\n      swap1\n      sload\n      swap1\n      0x0100\n      exp\n      swap1\n      div\n      0xffffffffffffffffffffffffffffffffffffffff\n      and\n        /* \"EnglishAuction.sol\":2022:2027  nftId */\n      immutable(\"0x9dba651fe92c782dda8c593c3d8da3497c4efc99f38999b5ec4b9f051734219f\")\n        /* \"EnglishAuction.sol\":1984:2028  nft.transferFrom(address(this),bidder,nftId) */\n      mload(0x40)\n      dup5\n      0xffffffff\n      and\n      0xe0\n      shl\n      dup2\n      mstore\n      0x04\n      add\n      tag_129\n      swap4\n      swap3\n      swap2\n      swap1\n      tag_122\n      jump\t// in\n    tag_129:\n      0x00\n      mload(0x40)\n      dup1\n      dup4\n      sub\n      dup2\n      0x00\n      dup8\n      dup1\n      extcodesize\n      iszero\n      dup1\n      iszero\n      tag_130\n      jumpi\n      0x00\n      dup1\n      revert\n    tag_130:\n      pop\n      gas\n      call\n      iszero\n      dup1\n      iszero\n      tag_132\n      jumpi\n      returndatasize\n      0x00\n      dup1\n      returndatacopy\n      revert(0x00, returndatasize)\n    tag_132:\n      pop\n      pop\n      pop\n      pop\n        /* \"EnglishAuction.sol\":1841:2039  if(bidder!=address(0)){... */\n    tag_128:\n        /* \"EnglishAuction.sol\":2054:2070  Log(\"ended\",bid) */\n      0xdd970dd9b5bfe707922155b058a407655cb18288b807e2216442bca8ad83d6b5\n        /* \"EnglishAuction.sol\":2066:2069  bid */\n      sload(0x03)\n        /* \"EnglishAuction.sol\":2054:2070  Log(\"ended\",bid) */\n      mload(0x40)\n      tag_133\n      swap2\n      swap1\n      tag_134\n      jump\t// in\n    tag_133:\n      mload(0x40)\n      dup1\n      swap2\n      sub\n      swap1\n      log1\n        /* \"EnglishAuction.sol\":1665:2077  function end()external {... */\n      jump\t// out\n        /* \"EnglishAuction.sol\":343:372  address payable public bidder */\n    tag_75:\n      0x02\n      0x00\n      swap1\n      sload\n      swap1\n      0x0100\n      exp\n      swap1\n      div\n      0xffffffffffffffffffffffffffffffffffffffff\n      and\n      dup2\n      jump\t// out\n        /* \"#utility.yul\":7:146   */\n    tag_136:\n        /* \"#utility.yul\":53:58   */\n      0x00\n        /* \"#utility.yul\":91:97   */\n      dup2\n        /* \"#utility.yul\":78:98   */\n      calldataload\n        /* \"#utility.yul\":69:98   */\n      swap1\n      pop\n        /* \"#utility.yul\":107:140   */\n      tag_138\n        /* \"#utility.yul\":134:139   */\n      dup2\n        /* \"#utility.yul\":107:140   */\n      tag_139\n      jump\t// in\n    tag_138:\n        /* \"#utility.yul\":7:146   */\n      swap3\n      swap2\n      pop\n      pop\n      jump\t// out\n        /* \"#utility.yul\":152:481   */\n    tag_49:\n        /* \"#utility.yul\":211:217   */\n      0x00\n        /* \"#utility.yul\":260:262   */\n      0x20\n        /* \"#utility.yul\":248:257   */\n      dup3\n        /* \"#utility.yul\":239:246   */\n      dup5\n        /* \"#utility.yul\":235:258   */\n      sub\n        /* \"#utility.yul\":231:263   */\n      slt\n        /* \"#utility.yul\":228:347   */\n      iszero\n      tag_141\n      jumpi\n        /* \"#utility.yul\":266:345   */\n      tag_142\n      tag_143\n      jump\t// in\n    tag_142:\n        /* \"#utility.yul\":228:347   */\n    tag_141:\n        /* \"#utility.yul\":386:387   */\n      0x00\n        /* \"#utility.yul\":411:464   */\n      tag_144\n        /* \"#utility.yul\":456:463   */\n      dup5\n        /* \"#utility.yul\":447:453   */\n      dup3\n        /* \"#utility.yul\":436:445   */\n      dup6\n        /* \"#utility.yul\":432:454   */\n      add\n        /* \"#utility.yul\":411:464   */\n      tag_136\n      jump\t// in\n    tag_144:\n        /* \"#utility.yul\":401:464   */\n      swap2\n      pop\n        /* \"#utility.yul\":357:474   */\n      pop\n        /* \"#utility.yul\":152:481   */\n      swap3\n      swap2\n      pop\n      pop\n      jump\t// out\n        /* \"#utility.yul\":487:634   */\n    tag_145:\n        /* \"#utility.yul\":582:627   */\n      tag_147\n        /* \"#utility.yul\":621:626   */\n      dup2\n        /* \"#utility.yul\":582:627   */\n      tag_148\n      jump\t// in\n    tag_147:\n        /* \"#utility.yul\":577:580   */\n      dup3\n        /* \"#utility.yul\":570:628   */\n      mstore\n        /* \"#utility.yul\":487:634   */\n      pop\n      pop\n      jump\t// out\n        /* \"#utility.yul\":640:782   */\n    tag_149:\n        /* \"#utility.yul\":743:775   */\n      tag_151\n        /* \"#utility.yul\":769:774   */\n      dup2\n        /* \"#utility.yul\":743:775   */\n      tag_152\n      jump\t// in\n    tag_151:\n        /* \"#utility.yul\":738:741   */\n      dup3\n        /* \"#utility.yul\":731:776   */\n      mstore\n        /* \"#utility.yul\":640:782   */\n      pop\n      pop\n      jump\t// out\n        /* \"#utility.yul\":788:906   */\n    tag_153:\n        /* \"#utility.yul\":875:899   */\n      tag_155\n        /* \"#utility.yul\":893:898   */\n      dup2\n        /* \"#utility.yul\":875:899   */\n      tag_156\n      jump\t// in\n    tag_155:\n        /* \"#utility.yul\":870:873   */\n      dup3\n        /* \"#utility.yul\":863:900   */\n      mstore\n        /* \"#utility.yul\":788:906   */\n      pop\n      pop\n      jump\t// out\n        /* \"#utility.yul\":912:1021   */\n    tag_157:\n        /* \"#utility.yul\":993:1014   */\n      tag_159\n        /* \"#utility.yul\":1008:1013   */\n      dup2\n        /* \"#utility.yul\":993:1014   */\n      tag_160\n      jump\t// in\n    tag_159:\n        /* \"#utility.yul\":988:991   */\n      dup3\n        /* \"#utility.yul\":981:1015   */\n      mstore\n        /* \"#utility.yul\":912:1021   */\n      pop\n      pop\n      jump\t// out\n        /* \"#utility.yul\":1027:1186   */\n    tag_161:\n        /* \"#utility.yul\":1128:1179   */\n      tag_163\n        /* \"#utility.yul\":1173:1178   */\n      dup2\n        /* \"#utility.yul\":1128:1179   */\n      tag_164\n      jump\t// in\n    tag_163:\n        /* \"#utility.yul\":1123:1126   */\n      dup3\n        /* \"#utility.yul\":1116:1180   */\n      mstore\n        /* \"#utility.yul\":1027:1186   */\n      pop\n      pop\n      jump\t// out\n        /* \"#utility.yul\":1192:1339   */\n    tag_165:\n        /* \"#utility.yul\":1287:1332   */\n      tag_167\n        /* \"#utility.yul\":1326:1331   */\n      dup2\n        /* \"#utility.yul\":1287:1332   */\n      tag_168\n      jump\t// in\n    tag_167:\n        /* \"#utility.yul\":1282:1285   */\n      dup3\n        /* \"#utility.yul\":1275:1333   */\n      mstore\n        /* \"#utility.yul\":1192:1339   */\n      pop\n      pop\n      jump\t// out\n        /* \"#utility.yul\":1345:1711   */\n    tag_169:\n        /* \"#utility.yul\":1487:1490   */\n      0x00\n        /* \"#utility.yul\":1508:1575   */\n      tag_171\n        /* \"#utility.yul\":1572:1574   */\n      0x0e\n        /* \"#utility.yul\":1567:1570   */\n      dup4\n        /* \"#utility.yul\":1508:1575   */\n      tag_172\n      jump\t// in\n    tag_171:\n        /* \"#utility.yul\":1501:1575   */\n      swap2\n      pop\n        /* \"#utility.yul\":1584:1677   */\n      tag_173\n        /* \"#utility.yul\":1673:1676   */\n      dup3\n        /* \"#utility.yul\":1584:1677   */\n      tag_174\n      jump\t// in\n    tag_173:\n        /* \"#utility.yul\":1702:1704   */\n      0x20\n        /* \"#utility.yul\":1697:1700   */\n      dup3\n        /* \"#utility.yul\":1693:1705   */\n      add\n        /* \"#utility.yul\":1686:1705   */\n      swap1\n      pop\n        /* \"#utility.yul\":1345:1711   */\n      swap2\n      swap1\n      pop\n      jump\t// out\n        /* \"#utility.yul\":1717:2082   */\n    tag_175:\n        /* \"#utility.yul\":1859:1862   */\n      0x00\n        /* \"#utility.yul\":1880:1946   */\n      tag_177\n        /* \"#utility.yul\":1944:1945   */\n      0x08\n        /* \"#utility.yul\":1939:1942   */\n      dup4\n        /* \"#utility.yul\":1880:1946   */\n      tag_172\n      jump\t// in\n    tag_177:\n        /* \"#utility.yul\":1873:1946   */\n      swap2\n      pop\n        /* \"#utility.yul\":1955:2048   */\n      tag_178\n        /* \"#utility.yul\":2044:2047   */\n      dup3\n        /* \"#utility.yul\":1955:2048   */\n      tag_179\n      jump\t// in\n    tag_178:\n        /* \"#utility.yul\":2073:2075   */\n      0x20\n        /* \"#utility.yul\":2068:2071   */\n      dup3\n        /* \"#utility.yul\":2064:2076   */\n      add\n        /* \"#utility.yul\":2057:2076   */\n      swap1\n      pop\n        /* \"#utility.yul\":1717:2082   */\n      swap2\n      swap1\n      pop\n      jump\t// out\n        /* \"#utility.yul\":2088:2453   */\n    tag_180:\n        /* \"#utility.yul\":2230:2233   */\n      0x00\n        /* \"#utility.yul\":2251:2317   */\n      tag_182\n        /* \"#utility.yul\":2315:2316   */\n      0x03\n        /* \"#utility.yul\":2310:2313   */\n      dup4\n        /* \"#utility.yul\":2251:2317   */\n      tag_172\n      jump\t// in\n    tag_182:\n        /* \"#utility.yul\":2244:2317   */\n      swap2\n      pop\n        /* \"#utility.yul\":2326:2419   */\n      tag_183\n        /* \"#utility.yul\":2415:2418   */\n      dup3\n        /* \"#utility.yul\":2326:2419   */\n      tag_184\n      jump\t// in\n    tag_183:\n        /* \"#utility.yul\":2444:2446   */\n      0x20\n        /* \"#utility.yul\":2439:2442   */\n      dup3\n        /* \"#utility.yul\":2435:2447   */\n      add\n        /* \"#utility.yul\":2428:2447   */\n      swap1\n      pop\n        /* \"#utility.yul\":2088:2453   */\n      swap2\n      swap1\n      pop\n      jump\t// out\n        /* \"#utility.yul\":2459:2824   */\n    tag_185:\n        /* \"#utility.yul\":2601:2604   */\n      0x00\n        /* \"#utility.yul\":2622:2688   */\n      tag_187\n        /* \"#utility.yul\":2686:2687   */\n      0x07\n        /* \"#utility.yul\":2681:2684   */\n      dup4\n        /* \"#utility.yul\":2622:2688   */\n      tag_172\n      jump\t// in\n    tag_187:\n        /* \"#utility.yul\":2615:2688   */\n      swap2\n      pop\n        /* \"#utility.yul\":2697:2790   */\n      tag_188\n        /* \"#utility.yul\":2786:2789   */\n      dup3\n        /* \"#utility.yul\":2697:2790   */\n      tag_189\n      jump\t// in\n    tag_188:\n        /* \"#utility.yul\":2815:2817   */\n      0x20\n        /* \"#utility.yul\":2810:2813   */\n      dup3\n        /* \"#utility.yul\":2806:2818   */\n      add\n        /* \"#utility.yul\":2799:2818   */\n      swap1\n      pop\n        /* \"#utility.yul\":2459:2824   */\n      swap2\n      swap1\n      pop\n      jump\t// out\n        /* \"#utility.yul\":2830:3196   */\n    tag_190:\n        /* \"#utility.yul\":2972:2975   */\n      0x00\n        /* \"#utility.yul\":2993:3060   */\n      tag_192\n        /* \"#utility.yul\":3057:3059   */\n      0x0b\n        /* \"#utility.yul\":3052:3055   */\n      dup4\n        /* \"#utility.yul\":2993:3060   */\n      tag_172\n      jump\t// in\n    tag_192:\n        /* \"#utility.yul\":2986:3060   */\n      swap2\n      pop\n        /* \"#utility.yul\":3069:3162   */\n      tag_193\n        /* \"#utility.yul\":3158:3161   */\n      dup3\n        /* \"#utility.yul\":3069:3162   */\n      tag_194\n      jump\t// in\n    tag_193:\n        /* \"#utility.yul\":3187:3189   */\n      0x20\n        /* \"#utility.yul\":3182:3185   */\n      dup3\n        /* \"#utility.yul\":3178:3190   */\n      add\n        /* \"#utility.yul\":3171:3190   */\n      swap1\n      pop\n        /* \"#utility.yul\":2830:3196   */\n      swap2\n      swap1\n      pop\n      jump\t// out\n        /* \"#utility.yul\":3202:3567   */\n    tag_195:\n        /* \"#utility.yul\":3344:3347   */\n      0x00\n        /* \"#utility.yul\":3365:3431   */\n      tag_197\n        /* \"#utility.yul\":3429:3430   */\n      0x05\n        /* \"#utility.yul\":3424:3427   */\n      dup4\n        /* \"#utility.yul\":3365:3431   */\n      tag_172\n      jump\t// in\n    tag_197:\n        /* \"#utility.yul\":3358:3431   */\n      swap2\n      pop\n        /* \"#utility.yul\":3440:3533   */\n      tag_198\n        /* \"#utility.yul\":3529:3532   */\n      dup3\n        /* \"#utility.yul\":3440:3533   */\n      tag_199\n      jump\t// in\n    tag_198:\n        /* \"#utility.yul\":3558:3560   */\n      0x20\n        /* \"#utility.yul\":3553:3556   */\n      dup3\n        /* \"#utility.yul\":3549:3561   */\n      add\n        /* \"#utility.yul\":3542:3561   */\n      swap1\n      pop\n        /* \"#utility.yul\":3202:3567   */\n      swap2\n      swap1\n      pop\n      jump\t// out\n        /* \"#utility.yul\":3573:3939   */\n    tag_200:\n        /* \"#utility.yul\":3715:3718   */\n      0x00\n        /* \"#utility.yul\":3736:3803   */\n      tag_202\n        /* \"#utility.yul\":3800:3802   */\n      0x0e\n        /* \"#utility.yul\":3795:3798   */\n      dup4\n        /* \"#utility.yul\":3736:3803   */\n      tag_172\n      jump\t// in\n    tag_202:\n        /* \"#utility.yul\":3729:3803   */\n      swap2\n      pop\n        /* \"#utility.yul\":3812:3905   */\n      tag_203\n        /* \"#utility.yul\":3901:3904   */\n      dup3\n        /* \"#utility.yul\":3812:3905   */\n      tag_204\n      jump\t// in\n    tag_203:\n        /* \"#utility.yul\":3930:3932   */\n      0x20\n        /* \"#utility.yul\":3925:3928   */\n      dup3\n        /* \"#utility.yul\":3921:3933   */\n      add\n        /* \"#utility.yul\":3914:3933   */\n      swap1\n      pop\n        /* \"#utility.yul\":3573:3939   */\n      swap2\n      swap1\n      pop\n      jump\t// out\n        /* \"#utility.yul\":3945:4310   */\n    tag_205:\n        /* \"#utility.yul\":4087:4090   */\n      0x00\n        /* \"#utility.yul\":4108:4174   */\n      tag_207\n        /* \"#utility.yul\":4172:4173   */\n      0x09\n        /* \"#utility.yul\":4167:4170   */\n      dup4\n        /* \"#utility.yul\":4108:4174   */\n      tag_172\n      jump\t// in\n    tag_207:\n        /* \"#utility.yul\":4101:4174   */\n      swap2\n      pop\n        /* \"#utility.yul\":4183:4276   */\n      tag_208\n        /* \"#utility.yul\":4272:4275   */\n      dup3\n        /* \"#utility.yul\":4183:4276   */\n      tag_209\n      jump\t// in\n    tag_208:\n        /* \"#utility.yul\":4301:4303   */\n      0x20\n        /* \"#utility.yul\":4296:4299   */\n      dup3\n        /* \"#utility.yul\":4292:4304   */\n      add\n        /* \"#utility.yul\":4285:4304   */\n      swap1\n      pop\n        /* \"#utility.yul\":3945:4310   */\n      swap2\n      swap1\n      pop\n      jump\t// out\n        /* \"#utility.yul\":4316:4434   */\n    tag_210:\n        /* \"#utility.yul\":4403:4427   */\n      tag_212\n        /* \"#utility.yul\":4421:4426   */\n      dup2\n        /* \"#utility.yul\":4403:4427   */\n      tag_213\n      jump\t// in\n    tag_212:\n        /* \"#utility.yul\":4398:4401   */\n      dup3\n        /* \"#utility.yul\":4391:4428   */\n      mstore\n        /* \"#utility.yul\":4316:4434   */\n      pop\n      pop\n      jump\t// out\n        /* \"#utility.yul\":4440:4555   */\n    tag_214:\n        /* \"#utility.yul\":4525:4548   */\n      tag_216\n        /* \"#utility.yul\":4542:4547   */\n      dup2\n        /* \"#utility.yul\":4525:4548   */\n      tag_217\n      jump\t// in\n    tag_216:\n        /* \"#utility.yul\":4520:4523   */\n      dup3\n        /* \"#utility.yul\":4513:4549   */\n      mstore\n        /* \"#utility.yul\":4440:4555   */\n      pop\n      pop\n      jump\t// out\n        /* \"#utility.yul\":4561:4815   */\n    tag_23:\n        /* \"#utility.yul\":4670:4674   */\n      0x00\n        /* \"#utility.yul\":4708:4710   */\n      0x20\n        /* \"#utility.yul\":4697:4706   */\n      dup3\n        /* \"#utility.yul\":4693:4711   */\n      add\n        /* \"#utility.yul\":4685:4711   */\n      swap1\n      pop\n        /* \"#utility.yul\":4721:4808   */\n      tag_219\n        /* \"#utility.yul\":4805:4806   */\n      0x00\n        /* \"#utility.yul\":4794:4803   */\n      dup4\n        /* \"#utility.yul\":4790:4807   */\n      add\n        /* \"#utility.yul\":4781:4787   */\n      dup5\n        /* \"#utility.yul\":4721:4808   */\n      tag_149\n      jump\t// in\n    tag_219:\n        /* \"#utility.yul\":4561:4815   */\n      swap3\n      swap2\n      pop\n      pop\n      jump\t// out\n        /* \"#utility.yul\":4821:5279   */\n    tag_93:\n        /* \"#utility.yul\":4978:4982   */\n      0x00\n        /* \"#utility.yul\":5016:5018   */\n      0x60\n        /* \"#utility.yul\":5005:5014   */\n      dup3\n        /* \"#utility.yul\":5001:5019   */\n      add\n        /* \"#utility.yul\":4993:5019   */\n      swap1\n      pop\n        /* \"#utility.yul\":5029:5108   */\n      tag_221\n        /* \"#utility.yul\":5105:5106   */\n      0x00\n        /* \"#utility.yul\":5094:5103   */\n      dup4\n        /* \"#utility.yul\":5090:5107   */\n      add\n        /* \"#utility.yul\":5081:5087   */\n      dup7\n        /* \"#utility.yul\":5029:5108   */\n      tag_145\n      jump\t// in\n    tag_221:\n        /* \"#utility.yul\":5118:5190   */\n      tag_222\n        /* \"#utility.yul\":5186:5188   */\n      0x20\n        /* \"#utility.yul\":5175:5184   */\n      dup4\n        /* \"#utility.yul\":5171:5189   */\n      add\n        /* \"#utility.yul\":5162:5168   */\n      dup6\n        /* \"#utility.yul\":5118:5190   */\n      tag_153\n      jump\t// in\n    tag_222:\n        /* \"#utility.yul\":5200:5272   */\n      tag_223\n        /* \"#utility.yul\":5268:5270   */\n      0x40\n        /* \"#utility.yul\":5257:5266   */\n      dup4\n        /* \"#utility.yul\":5253:5271   */\n      add\n        /* \"#utility.yul\":5244:5250   */\n      dup5\n        /* \"#utility.yul\":5200:5272   */\n      tag_210\n      jump\t// in\n    tag_223:\n        /* \"#utility.yul\":4821:5279   */\n      swap5\n      swap4\n      pop\n      pop\n      pop\n      pop\n      jump\t// out\n        /* \"#utility.yul\":5285:5743   */\n    tag_122:\n        /* \"#utility.yul\":5442:5446   */\n      0x00\n        /* \"#utility.yul\":5480:5482   */\n      0x60\n        /* \"#utility.yul\":5469:5478   */\n      dup3\n        /* \"#utility.yul\":5465:5483   */\n      add\n        /* \"#utility.yul\":5457:5483   */\n      swap1\n      pop\n        /* \"#utility.yul\":5493:5564   */\n      tag_225\n        /* \"#utility.yul\":5561:5562   */\n      0x00\n        /* \"#utility.yul\":5550:5559   */\n      dup4\n        /* \"#utility.yul\":5546:5563   */\n      add\n        /* \"#utility.yul\":5537:5543   */\n      dup7\n        /* \"#utility.yul\":5493:5564   */\n      tag_153\n      jump\t// in\n    tag_225:\n        /* \"#utility.yul\":5574:5654   */\n      tag_226\n        /* \"#utility.yul\":5650:5652   */\n      0x20\n        /* \"#utility.yul\":5639:5648   */\n      dup4\n        /* \"#utility.yul\":5635:5653   */\n      add\n        /* \"#utility.yul\":5626:5632   */\n      dup6\n        /* \"#utility.yul\":5574:5654   */\n      tag_145\n      jump\t// in\n    tag_226:\n        /* \"#utility.yul\":5664:5736   */\n      tag_227\n        /* \"#utility.yul\":5732:5734   */\n      0x40\n        /* \"#utility.yul\":5721:5730   */\n      dup4\n        /* \"#utility.yul\":5717:5735   */\n      add\n        /* \"#utility.yul\":5708:5714   */\n      dup5\n        /* \"#utility.yul\":5664:5736   */\n      tag_210\n      jump\t// in\n    tag_227:\n        /* \"#utility.yul\":5285:5743   */\n      swap5\n      swap4\n      pop\n      pop\n      pop\n      pop\n      jump\t// out\n        /* \"#utility.yul\":5749:5959   */\n    tag_28:\n        /* \"#utility.yul\":5836:5840   */\n      0x00\n        /* \"#utility.yul\":5874:5876   */\n      0x20\n        /* \"#utility.yul\":5863:5872   */\n      dup3\n        /* \"#utility.yul\":5859:5877   */\n      add\n        /* \"#utility.yul\":5851:5877   */\n      swap1\n      pop\n        /* \"#utility.yul\":5887:5952   */\n      tag_229\n        /* \"#utility.yul\":5949:5950   */\n      0x00\n        /* \"#utility.yul\":5938:5947   */\n      dup4\n        /* \"#utility.yul\":5934:5951   */\n      add\n        /* \"#utility.yul\":5925:5931   */\n      dup5\n        /* \"#utility.yul\":5887:5952   */\n      tag_157\n      jump\t// in\n    tag_229:\n        /* \"#utility.yul\":5749:5959   */\n      swap3\n      swap2\n      pop\n      pop\n      jump\t// out\n        /* \"#utility.yul\":5965:6215   */\n    tag_45:\n        /* \"#utility.yul\":6072:6076   */\n      0x00\n        /* \"#utility.yul\":6110:6112   */\n      0x20\n        /* \"#utility.yul\":6099:6108   */\n      dup3\n        /* \"#utility.yul\":6095:6113   */\n      add\n        /* \"#utility.yul\":6087:6113   */\n      swap1\n      pop\n        /* \"#utility.yul\":6123:6208   */\n      tag_231\n        /* \"#utility.yul\":6205:6206   */\n      0x00\n        /* \"#utility.yul\":6194:6203   */\n      dup4\n        /* \"#utility.yul\":6190:6207   */\n      add\n        /* \"#utility.yul\":6181:6187   */\n      dup5\n        /* \"#utility.yul\":6123:6208   */\n      tag_161\n      jump\t// in\n    tag_231:\n        /* \"#utility.yul\":5965:6215   */\n      swap3\n      swap2\n      pop\n      pop\n      jump\t// out\n        /* \"#utility.yul\":6221:6640   */\n    tag_89:\n        /* \"#utility.yul\":6387:6391   */\n      0x00\n        /* \"#utility.yul\":6425:6427   */\n      0x20\n        /* \"#utility.yul\":6414:6423   */\n      dup3\n        /* \"#utility.yul\":6410:6428   */\n      add\n        /* \"#utility.yul\":6402:6428   */\n      swap1\n      pop\n        /* \"#utility.yul\":6474:6483   */\n      dup2\n        /* \"#utility.yul\":6468:6472   */\n      dup2\n        /* \"#utility.yul\":6464:6484   */\n      sub\n        /* \"#utility.yul\":6460:6461   */\n      0x00\n        /* \"#utility.yul\":6449:6458   */\n      dup4\n        /* \"#utility.yul\":6445:6462   */\n      add\n        /* \"#utility.yul\":6438:6485   */\n      mstore\n        /* \"#utility.yul\":6502:6633   */\n      tag_233\n        /* \"#utility.yul\":6628:6632   */\n      dup2\n        /* \"#utility.yul\":6502:6633   */\n      tag_169\n      jump\t// in\n    tag_233:\n        /* \"#utility.yul\":6494:6633   */\n      swap1\n      pop\n        /* \"#utility.yul\":6221:6640   */\n      swap2\n      swap1\n      pop\n      jump\t// out\n        /* \"#utility.yul\":6646:7175   */\n    tag_81:\n        /* \"#utility.yul\":6840:6844   */\n      0x00\n        /* \"#utility.yul\":6878:6880   */\n      0x40\n        /* \"#utility.yul\":6867:6876   */\n      dup3\n        /* \"#utility.yul\":6863:6881   */\n      add\n        /* \"#utility.yul\":6855:6881   */\n      swap1\n      pop\n        /* \"#utility.yul\":6927:6936   */\n      dup2\n        /* \"#utility.yul\":6921:6925   */\n      dup2\n        /* \"#utility.yul\":6917:6937   */\n      sub\n        /* \"#utility.yul\":6913:6914   */\n      0x00\n        /* \"#utility.yul\":6902:6911   */\n      dup4\n        /* \"#utility.yul\":6898:6915   */\n      add\n        /* \"#utility.yul\":6891:6938   */\n      mstore\n        /* \"#utility.yul\":6955:7086   */\n      tag_235\n        /* \"#utility.yul\":7081:7085   */\n      dup2\n        /* \"#utility.yul\":6955:7086   */\n      tag_175\n      jump\t// in\n    tag_235:\n        /* \"#utility.yul\":6947:7086   */\n      swap1\n      pop\n        /* \"#utility.yul\":7096:7168   */\n      tag_236\n        /* \"#utility.yul\":7164:7166   */\n      0x20\n        /* \"#utility.yul\":7153:7162   */\n      dup4\n        /* \"#utility.yul\":7149:7167   */\n      add\n        /* \"#utility.yul\":7140:7146   */\n      dup5\n        /* \"#utility.yul\":7096:7168   */\n      tag_210\n      jump\t// in\n    tag_236:\n        /* \"#utility.yul\":6646:7175   */\n      swap3\n      swap2\n      pop\n      pop\n      jump\t// out\n        /* \"#utility.yul\":7181:7710   */\n    tag_110:\n        /* \"#utility.yul\":7375:7379   */\n      0x00\n        /* \"#utility.yul\":7413:7415   */\n      0x40\n        /* \"#utility.yul\":7402:7411   */\n      dup3\n        /* \"#utility.yul\":7398:7416   */\n      add\n        /* \"#utility.yul\":7390:7416   */\n      swap1\n      pop\n        /* \"#utility.yul\":7462:7471   */\n      dup2\n        /* \"#utility.yul\":7456:7460   */\n      dup2\n        /* \"#utility.yul\":7452:7472   */\n      sub\n        /* \"#utility.yul\":7448:7449   */\n      0x00\n        /* \"#utility.yul\":7437:7446   */\n      dup4\n        /* \"#utility.yul\":7433:7450   */\n      add\n        /* \"#utility.yul\":7426:7473   */\n      mstore\n        /* \"#utility.yul\":7490:7621   */\n      tag_238\n        /* \"#utility.yul\":7616:7620   */\n      dup2\n        /* \"#utility.yul\":7490:7621   */\n      tag_180\n      jump\t// in\n    tag_238:\n        /* \"#utility.yul\":7482:7621   */\n      swap1\n      pop\n        /* \"#utility.yul\":7631:7703   */\n      tag_239\n        /* \"#utility.yul\":7699:7701   */\n      0x20\n        /* \"#utility.yul\":7688:7697   */\n      dup4\n        /* \"#utility.yul\":7684:7702   */\n      add\n        /* \"#utility.yul\":7675:7681   */\n      dup5\n        /* \"#utility.yul\":7631:7703   */\n      tag_210\n      jump\t// in\n    tag_239:\n        /* \"#utility.yul\":7181:7710   */\n      swap3\n      swap2\n      pop\n      pop\n      jump\t// out\n        /* \"#utility.yul\":7716:8135   */\n    tag_86:\n        /* \"#utility.yul\":7882:7886   */\n      0x00\n        /* \"#utility.yul\":7920:7922   */\n      0x20\n        /* \"#utility.yul\":7909:7918   */\n      dup3\n        /* \"#utility.yul\":7905:7923   */\n      add\n        /* \"#utility.yul\":7897:7923   */\n      swap1\n      pop\n        /* \"#utility.yul\":7969:7978   */\n      dup2\n        /* \"#utility.yul\":7963:7967   */\n      dup2\n        /* \"#utility.yul\":7959:7979   */\n      sub\n        /* \"#utility.yul\":7955:7956   */\n      0x00\n        /* \"#utility.yul\":7944:7953   */\n      dup4\n        /* \"#utility.yul\":7940:7957   */\n      add\n        /* \"#utility.yul\":7933:7980   */\n      mstore\n        /* \"#utility.yul\":7997:8128   */\n      tag_241\n        /* \"#utility.yul\":8123:8127   */\n      dup2\n        /* \"#utility.yul\":7997:8128   */\n      tag_185\n      jump\t// in\n    tag_241:\n        /* \"#utility.yul\":7989:8128   */\n      swap1\n      pop\n        /* \"#utility.yul\":7716:8135   */\n      swap2\n      swap1\n      pop\n      jump\t// out\n        /* \"#utility.yul\":8141:8686   */\n    tag_98:\n        /* \"#utility.yul\":8343:8347   */\n      0x00\n        /* \"#utility.yul\":8381:8383   */\n      0x40\n        /* \"#utility.yul\":8370:8379   */\n      dup3\n        /* \"#utility.yul\":8366:8384   */\n      add\n        /* \"#utility.yul\":8358:8384   */\n      swap1\n      pop\n        /* \"#utility.yul\":8430:8439   */\n      dup2\n        /* \"#utility.yul\":8424:8428   */\n      dup2\n        /* \"#utility.yul\":8420:8440   */\n      sub\n        /* \"#utility.yul\":8416:8417   */\n      0x00\n        /* \"#utility.yul\":8405:8414   */\n      dup4\n        /* \"#utility.yul\":8401:8418   */\n      add\n        /* \"#utility.yul\":8394:8441   */\n      mstore\n        /* \"#utility.yul\":8458:8589   */\n      tag_243\n        /* \"#utility.yul\":8584:8588   */\n      dup2\n        /* \"#utility.yul\":8458:8589   */\n      tag_185\n      jump\t// in\n    tag_243:\n        /* \"#utility.yul\":8450:8589   */\n      swap1\n      pop\n        /* \"#utility.yul\":8599:8679   */\n      tag_244\n        /* \"#utility.yul\":8675:8677   */\n      0x20\n        /* \"#utility.yul\":8664:8673   */\n      dup4\n        /* \"#utility.yul\":8660:8678   */\n      add\n        /* \"#utility.yul\":8651:8657   */\n      dup5\n        /* \"#utility.yul\":8599:8679   */\n      tag_165\n      jump\t// in\n    tag_244:\n        /* \"#utility.yul\":8141:8686   */\n      swap3\n      swap2\n      pop\n      pop\n      jump\t// out\n        /* \"#utility.yul\":8692:9111   */\n    tag_102:\n        /* \"#utility.yul\":8858:8862   */\n      0x00\n        /* \"#utility.yul\":8896:8898   */\n      0x20\n        /* \"#utility.yul\":8885:8894   */\n      dup3\n        /* \"#utility.yul\":8881:8899   */\n      add\n        /* \"#utility.yul\":8873:8899   */\n      swap1\n      pop\n        /* \"#utility.yul\":8945:8954   */\n      dup2\n        /* \"#utility.yul\":8939:8943   */\n      dup2\n        /* \"#utility.yul\":8935:8955   */\n      sub\n        /* \"#utility.yul\":8931:8932   */\n      0x00\n        /* \"#utility.yul\":8920:8929   */\n      dup4\n        /* \"#utility.yul\":8916:8933   */\n      add\n        /* \"#utility.yul\":8909:8956   */\n      mstore\n        /* \"#utility.yul\":8973:9104   */\n      tag_246\n        /* \"#utility.yul\":9099:9103   */\n      dup2\n        /* \"#utility.yul\":8973:9104   */\n      tag_190\n      jump\t// in\n    tag_246:\n        /* \"#utility.yul\":8965:9104   */\n      swap1\n      pop\n        /* \"#utility.yul\":8692:9111   */\n      swap2\n      swap1\n      pop\n      jump\t// out\n        /* \"#utility.yul\":9117:9536   */\n    tag_116:\n        /* \"#utility.yul\":9283:9287   */\n      0x00\n        /* \"#utility.yul\":9321:9323   */\n      0x20\n        /* \"#utility.yul\":9310:9319   */\n      dup3\n        /* \"#utility.yul\":9306:9324   */\n      add\n        /* \"#utility.yul\":9298:9324   */\n      swap1\n      pop\n        /* \"#utility.yul\":9370:9379   */\n      dup2\n        /* \"#utility.yul\":9364:9368   */\n      dup2\n        /* \"#utility.yul\":9360:9380   */\n      sub\n        /* \"#utility.yul\":9356:9357   */\n      0x00\n        /* \"#utility.yul\":9345:9354   */\n      dup4\n        /* \"#utility.yul\":9341:9358   */\n      add\n        /* \"#utility.yul\":9334:9381   */\n      mstore\n        /* \"#utility.yul\":9398:9529   */\n      tag_248\n        /* \"#utility.yul\":9524:9528   */\n      dup2\n        /* \"#utility.yul\":9398:9529   */\n      tag_195\n      jump\t// in\n    tag_248:\n        /* \"#utility.yul\":9390:9529   */\n      swap1\n      pop\n        /* \"#utility.yul\":9117:9536   */\n      swap2\n      swap1\n      pop\n      jump\t// out\n        /* \"#utility.yul\":9542:10071   */\n    tag_134:\n        /* \"#utility.yul\":9736:9740   */\n      0x00\n        /* \"#utility.yul\":9774:9776   */\n      0x40\n        /* \"#utility.yul\":9763:9772   */\n      dup3\n        /* \"#utility.yul\":9759:9777   */\n      add\n        /* \"#utility.yul\":9751:9777   */\n      swap1\n      pop\n        /* \"#utility.yul\":9823:9832   */\n      dup2\n        /* \"#utility.yul\":9817:9821   */\n      dup2\n        /* \"#utility.yul\":9813:9833   */\n      sub\n        /* \"#utility.yul\":9809:9810   */\n      0x00\n        /* \"#utility.yul\":9798:9807   */\n      dup4\n        /* \"#utility.yul\":9794:9811   */\n      add\n        /* \"#utility.yul\":9787:9834   */\n      mstore\n        /* \"#utility.yul\":9851:9982   */\n      tag_250\n        /* \"#utility.yul\":9977:9981   */\n      dup2\n        /* \"#utility.yul\":9851:9982   */\n      tag_195\n      jump\t// in\n    tag_250:\n        /* \"#utility.yul\":9843:9982   */\n      swap1\n      pop\n        /* \"#utility.yul\":9992:10064   */\n      tag_251\n        /* \"#utility.yul\":10060:10062   */\n      0x20\n        /* \"#utility.yul\":10049:10058   */\n      dup4\n        /* \"#utility.yul\":10045:10063   */\n      add\n        /* \"#utility.yul\":10036:10042   */\n      dup5\n        /* \"#utility.yul\":9992:10064   */\n      tag_210\n      jump\t// in\n    tag_251:\n        /* \"#utility.yul\":9542:10071   */\n      swap3\n      swap2\n      pop\n      pop\n      jump\t// out\n        /* \"#utility.yul\":10077:10496   */\n    tag_105:\n        /* \"#utility.yul\":10243:10247   */\n      0x00\n        /* \"#utility.yul\":10281:10283   */\n      0x20\n        /* \"#utility.yul\":10270:10279   */\n      dup3\n        /* \"#utility.yul\":10266:10284   */\n      add\n        /* \"#utility.yul\":10258:10284   */\n      swap1\n      pop\n        /* \"#utility.yul\":10330:10339   */\n      dup2\n        /* \"#utility.yul\":10324:10328   */\n      dup2\n        /* \"#utility.yul\":10320:10340   */\n      sub\n        /* \"#utility.yul\":10316:10317   */\n      0x00\n        /* \"#utility.yul\":10305:10314   */\n      dup4\n        /* \"#utility.yul\":10301:10318   */\n      add\n        /* \"#utility.yul\":10294:10341   */\n      mstore\n        /* \"#utility.yul\":10358:10489   */\n      tag_253\n        /* \"#utility.yul\":10484:10488   */\n      dup2\n        /* \"#utility.yul\":10358:10489   */\n      tag_200\n      jump\t// in\n    tag_253:\n        /* \"#utility.yul\":10350:10489   */\n      swap1\n      pop\n        /* \"#utility.yul\":10077:10496   */\n      swap2\n      swap1\n      pop\n      jump\t// out\n        /* \"#utility.yul\":10502:10921   */\n    tag_119:\n        /* \"#utility.yul\":10668:10672   */\n      0x00\n        /* \"#utility.yul\":10706:10708   */\n      0x20\n        /* \"#utility.yul\":10695:10704   */\n      dup3\n        /* \"#utility.yul\":10691:10709   */\n      add\n        /* \"#utility.yul\":10683:10709   */\n      swap1\n      pop\n        /* \"#utility.yul\":10755:10764   */\n      dup2\n        /* \"#utility.yul\":10749:10753   */\n      dup2\n        /* \"#utility.yul\":10745:10765   */\n      sub\n        /* \"#utility.yul\":10741:10742   */\n      0x00\n        /* \"#utility.yul\":10730:10739   */\n      dup4\n        /* \"#utility.yul\":10726:10743   */\n      add\n        /* \"#utility.yul\":10719:10766   */\n      mstore\n        /* \"#utility.yul\":10783:10914   */\n      tag_255\n        /* \"#utility.yul\":10909:10913   */\n      dup2\n        /* \"#utility.yul\":10783:10914   */\n      tag_205\n      jump\t// in\n    tag_255:\n        /* \"#utility.yul\":10775:10914   */\n      swap1\n      pop\n        /* \"#utility.yul\":10502:10921   */\n      swap2\n      swap1\n      pop\n      jump\t// out\n        /* \"#utility.yul\":10927:11149   */\n    tag_33:\n        /* \"#utility.yul\":11020:11024   */\n      0x00\n        /* \"#utility.yul\":11058:11060   */\n      0x20\n        /* \"#utility.yul\":11047:11056   */\n      dup3\n        /* \"#utility.yul\":11043:11061   */\n      add\n        /* \"#utility.yul\":11035:11061   */\n      swap1\n      pop\n        /* \"#utility.yul\":11071:11142   */\n      tag_257\n        /* \"#utility.yul\":11139:11140   */\n      0x00\n        /* \"#utility.yul\":11128:11137   */\n      dup4\n        /* \"#utility.yul\":11124:11141   */\n      add\n        /* \"#utility.yul\":11115:11121   */\n      dup5\n        /* \"#utility.yul\":11071:11142   */\n      tag_210\n      jump\t// in\n    tag_257:\n        /* \"#utility.yul\":10927:11149   */\n      swap3\n      swap2\n      pop\n      pop\n      jump\t// out\n        /* \"#utility.yul\":11155:11373   */\n    tag_56:\n        /* \"#utility.yul\":11246:11250   */\n      0x00\n        /* \"#utility.yul\":11284:11286   */\n      0x20\n        /* \"#utility.yul\":11273:11282   */\n      dup3\n        /* \"#utility.yul\":11269:11287   */\n      add\n        /* \"#utility.yul\":11261:11287   */\n      swap1\n      pop\n        /* \"#utility.yul\":11297:11366   */\n      tag_259\n        /* \"#utility.yul\":11363:11364   */\n      0x00\n        /* \"#utility.yul\":11352:11361   */\n      dup4\n        /* \"#utility.yul\":11348:11365   */\n      add\n        /* \"#utility.yul\":11339:11345   */\n      dup5\n        /* \"#utility.yul\":11297:11366   */\n      tag_214\n      jump\t// in\n    tag_259:\n        /* \"#utility.yul\":11155:11373   */\n      swap3\n      swap2\n      pop\n      pop\n      jump\t// out\n        /* \"#utility.yul\":11460:11629   */\n    tag_172:\n        /* \"#utility.yul\":11544:11555   */\n      0x00\n        /* \"#utility.yul\":11578:11584   */\n      dup3\n        /* \"#utility.yul\":11573:11576   */\n      dup3\n        /* \"#utility.yul\":11566:11585   */\n      mstore\n        /* \"#utility.yul\":11618:11622   */\n      0x20\n        /* \"#utility.yul\":11613:11616   */\n      dup3\n        /* \"#utility.yul\":11609:11623   */\n      add\n        /* \"#utility.yul\":11594:11623   */\n      swap1\n      pop\n        /* \"#utility.yul\":11460:11629   */\n      swap3\n      swap2\n      pop\n      pop\n      jump\t// out\n        /* \"#utility.yul\":11635:11940   */\n    tag_91:\n        /* \"#utility.yul\":11675:11678   */\n      0x00\n        /* \"#utility.yul\":11694:11714   */\n      tag_264\n        /* \"#utility.yul\":11712:11713   */\n      dup3\n        /* \"#utility.yul\":11694:11714   */\n      tag_213\n      jump\t// in\n    tag_264:\n        /* \"#utility.yul\":11689:11714   */\n      swap2\n      pop\n        /* \"#utility.yul\":11728:11748   */\n      tag_265\n        /* \"#utility.yul\":11746:11747   */\n      dup4\n        /* \"#utility.yul\":11728:11748   */\n      tag_213\n      jump\t// in\n    tag_265:\n        /* \"#utility.yul\":11723:11748   */\n      swap3\n      pop\n        /* \"#utility.yul\":11882:11883   */\n      dup3\n        /* \"#utility.yul\":11814:11880   */\n      0xffffffffffffffffffffffffffffffffffffffffffffffffffffffffffffffff\n        /* \"#utility.yul\":11810:11884   */\n      sub\n        /* \"#utility.yul\":11807:11808   */\n      dup3\n        /* \"#utility.yul\":11804:11885   */\n      gt\n        /* \"#utility.yul\":11801:11908   */\n      iszero\n      tag_266\n      jumpi\n        /* \"#utility.yul\":11888:11906   */\n      tag_267\n      tag_268\n      jump\t// in\n    tag_267:\n        /* \"#utility.yul\":11801:11908   */\n    tag_266:\n        /* \"#utility.yul\":11932:11933   */\n      dup3\n        /* \"#utility.yul\":11929:11930   */\n      dup3\n        /* \"#utility.yul\":11925:11934   */\n      add\n        /* \"#utility.yul\":11918:11934   */\n      swap1\n      pop\n        /* \"#utility.yul\":11635:11940   */\n      swap3\n      swap2\n      pop\n      pop\n      jump\t// out\n        /* \"#utility.yul\":11946:12042   */\n    tag_156:\n        /* \"#utility.yul\":11983:11990   */\n      0x00\n        /* \"#utility.yul\":12012:12036   */\n      tag_270\n        /* \"#utility.yul\":12030:12035   */\n      dup3\n        /* \"#utility.yul\":12012:12036   */\n      tag_271\n      jump\t// in\n    tag_270:\n        /* \"#utility.yul\":12001:12036   */\n      swap1\n      pop\n        /* \"#utility.yul\":11946:12042   */\n      swap2\n      swap1\n      pop\n      jump\t// out\n        /* \"#utility.yul\":12048:12152   */\n    tag_152:\n        /* \"#utility.yul\":12093:12100   */\n      0x00\n        /* \"#utility.yul\":12122:12146   */\n      tag_273\n        /* \"#utility.yul\":12140:12145   */\n      dup3\n        /* \"#utility.yul\":12122:12146   */\n      tag_271\n      jump\t// in\n    tag_273:\n        /* \"#utility.yul\":12111:12146   */\n      swap1\n      pop\n        /* \"#utility.yul\":12048:12152   */\n      swap2\n      swap1\n      pop\n      jump\t// out\n        /* \"#utility.yul\":12158:12248   */\n    tag_160:\n        /* \"#utility.yul\":12192:12199   */\n      0x00\n        /* \"#utility.yul\":12235:12240   */\n      dup2\n        /* \"#utility.yul\":12228:12241   */\n      iszero\n        /* \"#utility.yul\":12221:12242   */\n      iszero\n        /* \"#utility.yul\":12210:12242   */\n      swap1\n      pop\n        /* \"#utility.yul\":12158:12248   */\n      swap2\n      swap1\n      pop\n      jump\t// out\n        /* \"#utility.yul\":12254:12380   */\n    tag_271:\n        /* \"#utility.yul\":12291:12298   */\n      0x00\n        /* \"#utility.yul\":12331:12373   */\n      0xffffffffffffffffffffffffffffffffffffffff\n        /* \"#utility.yul\":12324:12329   */\n      dup3\n        /* \"#utility.yul\":12320:12374   */\n      and\n        /* \"#utility.yul\":12309:12374   */\n      swap1\n      pop\n        /* \"#utility.yul\":12254:12380   */\n      swap2\n      swap1\n      pop\n      jump\t// out\n        /* \"#utility.yul\":12386:12463   */\n    tag_213:\n        /* \"#utility.yul\":12423:12430   */\n      0x00\n        /* \"#utility.yul\":12452:12457   */\n      dup2\n        /* \"#utility.yul\":12441:12457   */\n      swap1\n      pop\n        /* \"#utility.yul\":12386:12463   */\n      swap2\n      swap1\n      pop\n      jump\t// out\n        /* \"#utility.yul\":12469:12562   */\n    tag_217:\n        /* \"#utility.yul\":12505:12512   */\n      0x00\n        /* \"#utility.yul\":12545:12555   */\n      0xffffffff\n        /* \"#utility.yul\":12538:12543   */\n      dup3\n        /* \"#utility.yul\":12534:12556   */\n      and\n        /* \"#utility.yul\":12523:12556   */\n      swap1\n      pop\n        /* \"#utility.yul\":12469:12562   */\n      swap2\n      swap1\n      pop\n      jump\t// out\n        /* \"#utility.yul\":12568:12702   */\n    tag_148:\n        /* \"#utility.yul\":12626:12635   */\n      0x00\n        /* \"#utility.yul\":12659:12696   */\n      tag_279\n        /* \"#utility.yul\":12690:12695   */\n      dup3\n        /* \"#utility.yul\":12659:12696   */\n      tag_280\n      jump\t// in\n    tag_279:\n        /* \"#utility.yul\":12646:12696   */\n      swap1\n      pop\n        /* \"#utility.yul\":12568:12702   */\n      swap2\n      swap1\n      pop\n      jump\t// out\n        /* \"#utility.yul\":12708:12848   */\n    tag_164:\n        /* \"#utility.yul\":12772:12781   */\n      0x00\n        /* \"#utility.yul\":12805:12842   */\n      tag_282\n        /* \"#utility.yul\":12836:12841   */\n      dup3\n        /* \"#utility.yul\":12805:12842   */\n      tag_280\n      jump\t// in\n    tag_282:\n        /* \"#utility.yul\":12792:12842   */\n      swap1\n      pop\n        /* \"#utility.yul\":12708:12848   */\n      swap2\n      swap1\n      pop\n      jump\t// out\n        /* \"#utility.yul\":12854:12975   */\n    tag_168:\n        /* \"#utility.yul\":12912:12921   */\n      0x00\n        /* \"#utility.yul\":12945:12969   */\n      tag_284\n        /* \"#utility.yul\":12963:12968   */\n      dup3\n        /* \"#utility.yul\":12945:12969   */\n      tag_213\n      jump\t// in\n    tag_284:\n        /* \"#utility.yul\":12932:12969   */\n      swap1\n      pop\n        /* \"#utility.yul\":12854:12975   */\n      swap2\n      swap1\n      pop\n      jump\t// out\n        /* \"#utility.yul\":12981:13107   */\n    tag_280:\n        /* \"#utility.yul\":13031:13040   */\n      0x00\n        /* \"#utility.yul\":13064:13101   */\n      tag_286\n        /* \"#utility.yul\":13095:13100   */\n      dup3\n        /* \"#utility.yul\":13064:13101   */\n      tag_287\n      jump\t// in\n    tag_286:\n        /* \"#utility.yul\":13051:13101   */\n      swap1\n      pop\n        /* \"#utility.yul\":12981:13107   */\n      swap2\n      swap1\n      pop\n      jump\t// out\n        /* \"#utility.yul\":13113:13226   */\n    tag_287:\n        /* \"#utility.yul\":13163:13172   */\n      0x00\n        /* \"#utility.yul\":13196:13220   */\n      tag_289\n        /* \"#utility.yul\":13214:13219   */\n      dup3\n        /* \"#utility.yul\":13196:13220   */\n      tag_271\n      jump\t// in\n    tag_289:\n        /* \"#utility.yul\":13183:13220   */\n      swap1\n      pop\n        /* \"#utility.yul\":13113:13226   */\n      swap2\n      swap1\n      pop\n      jump\t// out\n        /* \"#utility.yul\":13232:13412   */\n    tag_268:\n        /* \"#utility.yul\":13280:13357   */\n      0x4e487b7100000000000000000000000000000000000000000000000000000000\n        /* \"#utility.yul\":13277:13278   */\n      0x00\n        /* \"#utility.yul\":13270:13358   */\n      mstore\n        /* \"#utility.yul\":13377:13381   */\n      0x11\n        /* \"#utility.yul\":13374:13375   */\n      0x04\n        /* \"#utility.yul\":13367:13382   */\n      mstore\n        /* \"#utility.yul\":13401:13405   */\n      0x24\n        /* \"#utility.yul\":13398:13399   */\n      0x00\n        /* \"#utility.yul\":13391:13406   */\n      revert\n        /* \"#utility.yul\":13541:13658   */\n    tag_143:\n        /* \"#utility.yul\":13650:13651   */\n      0x00\n        /* \"#utility.yul\":13647:13648   */\n      dup1\n        /* \"#utility.yul\":13640:13652   */\n      revert\n        /* \"#utility.yul\":13664:13828   */\n    tag_174:\n        /* \"#utility.yul\":13804:13820   */\n      0x6e6f7420617574686f72697a6564000000000000000000000000000000000000\n        /* \"#utility.yul\":13800:13801   */\n      0x00\n        /* \"#utility.yul\":13792:13798   */\n      dup3\n        /* \"#utility.yul\":13788:13802   */\n      add\n        /* \"#utility.yul\":13781:13821   */\n      mstore\n        /* \"#utility.yul\":13664:13828   */\n      pop\n      jump\t// out\n        /* \"#utility.yul\":13834:13992   */\n    tag_179:\n        /* \"#utility.yul\":13974:13984   */\n      0x5769746864726177000000000000000000000000000000000000000000000000\n        /* \"#utility.yul\":13970:13971   */\n      0x00\n        /* \"#utility.yul\":13962:13968   */\n      dup3\n        /* \"#utility.yul\":13958:13972   */\n      add\n        /* \"#utility.yul\":13951:13985   */\n      mstore\n        /* \"#utility.yul\":13834:13992   */\n      pop\n      jump\t// out\n        /* \"#utility.yul\":13998:14151   */\n    tag_184:\n        /* \"#utility.yul\":14138:14143   */\n      0x6269640000000000000000000000000000000000000000000000000000000000\n        /* \"#utility.yul\":14134:14135   */\n      0x00\n        /* \"#utility.yul\":14126:14132   */\n      dup3\n        /* \"#utility.yul\":14122:14136   */\n      add\n        /* \"#utility.yul\":14115:14144   */\n      mstore\n        /* \"#utility.yul\":13998:14151   */\n      pop\n      jump\t// out\n        /* \"#utility.yul\":14157:14314   */\n    tag_189:\n        /* \"#utility.yul\":14297:14306   */\n      0x7374617274656400000000000000000000000000000000000000000000000000\n        /* \"#utility.yul\":14293:14294   */\n      0x00\n        /* \"#utility.yul\":14285:14291   */\n      dup3\n        /* \"#utility.yul\":14281:14295   */\n      add\n        /* \"#utility.yul\":14274:14307   */\n      mstore\n        /* \"#utility.yul\":14157:14314   */\n      pop\n      jump\t// out\n        /* \"#utility.yul\":14320:14481   */\n    tag_194:\n        /* \"#utility.yul\":14460:14473   */\n      0x6e6f742073746172746564000000000000000000000000000000000000000000\n        /* \"#utility.yul\":14456:14457   */\n      0x00\n        /* \"#utility.yul\":14448:14454   */\n      dup3\n        /* \"#utility.yul\":14444:14458   */\n      add\n        /* \"#utility.yul\":14437:14474   */\n      mstore\n        /* \"#utility.yul\":14320:14481   */\n      pop\n      jump\t// out\n        /* \"#utility.yul\":14487:14642   */\n    tag_199:\n        /* \"#utility.yul\":14627:14634   */\n      0x656e646564000000000000000000000000000000000000000000000000000000\n        /* \"#utility.yul\":14623:14624   */\n      0x00\n        /* \"#utility.yul\":14615:14621   */\n      dup3\n        /* \"#utility.yul\":14611:14625   */\n      add\n        /* \"#utility.yul\":14604:14635   */\n      mstore\n        /* \"#utility.yul\":14487:14642   */\n      pop\n      jump\t// out\n        /* \"#utility.yul\":14648:14812   */\n    tag_204:\n        /* \"#utility.yul\":14788:14804   */\n      0x6e6f7420656e6f75676820657468000000000000000000000000000000000000\n        /* \"#utility.yul\":14784:14785   */\n      0x00\n        /* \"#utility.yul\":14776:14782   */\n      dup3\n        /* \"#utility.yul\":14772:14786   */\n      add\n        /* \"#utility.yul\":14765:14805   */\n      mstore\n        /* \"#utility.yul\":14648:14812   */\n      pop\n      jump\t// out\n        /* \"#utility.yul\":14818:14977   */\n    tag_209:\n        /* \"#utility.yul\":14958:14969   */\n      0x6e6f7420656e6465640000000000000000000000000000000000000000000000\n        /* \"#utility.yul\":14954:14955   */\n      0x00\n        /* \"#utility.yul\":14946:14952   */\n      dup3\n        /* \"#utility.yul\":14942:14956   */\n      add\n        /* \"#utility.yul\":14935:14970   */\n      mstore\n        /* \"#utility.yul\":14818:14977   */\n      pop\n      jump\t// out\n        /* \"#utility.yul\":14983:15105   */\n    tag_139:\n        /* \"#utility.yul\":15056:15080   */\n      tag_303\n        /* \"#utility.yul\":15074:15079   */\n      dup2\n        /* \"#utility.yul\":15056:15080   */\n      tag_156\n      jump\t// in\n    tag_303:\n        /* \"#utility.yul\":15049:15054   */\n      dup2\n        /* \"#utility.yul\":15046:15081   */\n      eq\n        /* \"#utility.yul\":15036:15099   */\n      tag_304\n      jumpi\n        /* \"#utility.yul\":15095:15096   */\n      0x00\n        /* \"#utility.yul\":15092:15093   */\n      dup1\n        /* \"#utility.yul\":15085:15097   */\n      revert\n        /* \"#utility.yul\":15036:15099   */\n    tag_304:\n        /* \"#utility.yul\":14983:15105   */\n      pop\n      jump\t// out\n\n    auxdata: 0xa264697066735822122089f32a8c8add0dc566dff55dd70ce89743287fb516be694e8c1b1b28d8d3928764736f6c63430008070033\n}\n",
				"bytecode": {
					"linkReferences": {},
					"object": "60e06040523480156200001157600080fd5b506040516200170f3803806200170f833981810160405281019062000037919062000138565b3373ffffffffffffffffffffffffffffffffffffffff1660c08173ffffffffffffffffffffffffffffffffffffffff1660601b8152505060008111620000b4576040517f08c379a0000000000000000000000000000000000000000000000000000000008152600401620000ab90620001bb565b60405180910390fd5b80600181905550806003819055508273ffffffffffffffffffffffffffffffffffffffff1660808173ffffffffffffffffffffffffffffffffffffffff1660601b815250508160a081815250505050506200028e565b6000815190506200011b816200025a565b92915050565b600081519050620001328162000274565b92915050565b6000806000606084860312156200015457620001536200022c565b5b600062000164868287016200010a565b9350506020620001778682870162000121565b92505060406200018a8682870162000121565b9150509250925092565b6000620001a3600883620001dd565b9150620001b08262000231565b602082019050919050565b60006020820190508181036000830152620001d68162000194565b9050919050565b600082825260208201905092915050565b6000620001fb8262000202565b9050919050565b600073ffffffffffffffffffffffffffffffffffffffff82169050919050565b6000819050919050565b600080fd5b7f7072696365203c30000000000000000000000000000000000000000000000000600082015250565b6200026581620001ee565b81146200027157600080fd5b50565b6200027f8162000222565b81146200028b57600080fd5b50565b60805160601c60a05160c05160601c61140c62000303600039600081816102f3015281816104f7015281816106080152610b3a01526000818161062a015281816106d501528181610ac90152610c0801526000818161044d015281816105cc01528181610a690152610ba8015261140c6000f3fe6080604052600436106100dd5760003560e01c80637cc3ae8c1161007f578063c6bc518211610059578063c6bc51821461027a578063eb36a479146102a5578063efbe1c1c146102af578063f496d882146102c6576100dd565b80637cc3ae8c1461020d57806398d5fdca14610238578063be9a655514610263576100dd565b80631f2698ab116100bb5780631f2698ab146101635780633ccfd60b1461018e57806347ccca02146101a557806362ea82db146101d0576100dd565b806308551a53146100e257806312fa6feb1461010d5780631998aeef14610138575b600080fd5b3480156100ee57600080fd5b506100f76102f1565b6040516101049190610eab565b60405180910390f35b34801561011957600080fd5b50610122610315565b60405161012f9190610f34565b60405180910390f35b34801561014457600080fd5b5061014d610328565b60405161015a91906110e2565b60405180910390f35b34801561016f57600080fd5b5061017861032e565b6040516101859190610f34565b60405180910390f35b34801561019a57600080fd5b506101a3610341565b005b3480156101b157600080fd5b506101ba61044b565b6040516101c79190610f4f565b60405180910390f35b3480156101dc57600080fd5b506101f760048036038101906101f29190610cee565b61046f565b60405161020491906110e2565b60405180910390f35b34801561021957600080fd5b50610222610487565b60405161022f91906110fd565b60405180910390f35b34801561024457600080fd5b5061024d61049b565b60405161025a91906110e2565b60405180910390f35b34801561026f57600080fd5b506102786104a5565b005b34801561028657600080fd5b5061028f6106d3565b60405161029c91906110e2565b60405180910390f35b6102ad6106f7565b005b3480156102bb57600080fd5b506102c46108fe565b005b3480156102d257600080fd5b506102db610cb3565b6040516102e89190610eab565b60405180910390f35b7f000000000000000000000000000000000000000000000000000000000000000081565b600060059054906101000a900460ff1681565b60035481565b600060049054906101000a900460ff1681565b6000600460003373ffffffffffffffffffffffffffffffffffffffff1673ffffffffffffffffffffffffffffffffffffffff1681526020019081526020016000205490506000600460003373ffffffffffffffffffffffffffffffffffffffff1673ffffffffffffffffffffffffffffffffffffffff168152602001908152602001600020819055503373ffffffffffffffffffffffffffffffffffffffff166108fc829081150290604051600060405180830381858888f19350505050158015610410573d6000803e3d6000fd5b507fdd970dd9b5bfe707922155b058a407655cb18288b807e2216442bca8ad83d6b5816040516104409190610f8a565b60405180910390a150565b7f000000000000000000000000000000000000000000000000000000000000000081565b60046020528060005260406000206000915090505481565b60008054906101000a900463ffffffff1681565b6000600354905090565b600060049054906101000a900460ff16156104f5576040517f08c379a00000000000000000000000000000000000000000000000000000000081526004016104ec90610fe6565b60405180910390fd5b7f000000000000000000000000000000000000000000000000000000000000000073ffffffffffffffffffffffffffffffffffffffff163373ffffffffffffffffffffffffffffffffffffffff1614610583576040517f08c379a000000000000000000000000000000000000000000000000000000000815260040161057a90610f6a565b60405180910390fd5b6001600060046101000a81548160ff021916908315150217905550603c426105ab9190611129565b6000806101000a81548163ffffffff021916908363ffffffff1602179055507f000000000000000000000000000000000000000000000000000000000000000073ffffffffffffffffffffffffffffffffffffffff166323b872dd7f0000000000000000000000000000000000000000000000000000000000000000307f00000000000000000000000000000000000000000000000000000000000000006040518463ffffffff1660e01b815260040161066793929190610ec6565b600060405180830381600087803b15801561068157600080fd5b505af1158015610695573d6000803e3d6000fd5b505050507fdd970dd9b5bfe707922155b058a407655cb18288b807e2216442bca8ad83d6b560006040516106c99190611006565b60405180910390a1565b7f000000000000000000000000000000000000000000000000000000000000000081565b600060049054906101000a900460ff16610746576040517f08c379a000000000000000000000000000000000000000000000000000000000815260040161073d90611034565b60405180910390fd5b600354341161078a576040517f08c379a0000000000000000000000000000000000000000000000000000000008152600401610781906110a2565b60405180910390fd5b60008054906101000a900463ffffffff1663ffffffff1642106107ac57600080fd5b600073ffffffffffffffffffffffffffffffffffffffff16600260009054906101000a900473ffffffffffffffffffffffffffffffffffffffff1673ffffffffffffffffffffffffffffffffffffffff161461087d5760035460046000600260009054906101000a900473ffffffffffffffffffffffffffffffffffffffff1673ffffffffffffffffffffffffffffffffffffffff1673ffffffffffffffffffffffffffffffffffffffff16815260200190815260200160002060008282546108759190611129565b925050819055505b3460038190555033600260006101000a81548173ffffffffffffffffffffffffffffffffffffffff021916908373ffffffffffffffffffffffffffffffffffffffff1602179055507fdd970dd9b5bfe707922155b058a407655cb18288b807e2216442bca8ad83d6b5346040516108f49190610fb8565b60405180910390a1565b600060049054906101000a900460ff1661094d576040517f08c379a000000000000000000000000000000000000000000000000000000000815260040161094490610fe6565b60405180910390fd5b600060059054906101000a900460ff161561099d576040517f08c379a000000000000000000000000000000000000000000000000000000000815260040161099490611054565b60405180910390fd5b60008054906101000a900463ffffffff1663ffffffff164210156109f6576040517f08c379a00000000000000000000000000000000000000000000000000000000081526004016109ed906110c2565b60405180910390fd5b6001600060056101000a81548160ff021916908315150217905550600073ffffffffffffffffffffffffffffffffffffffff16600260009054906101000a900473ffffffffffffffffffffffffffffffffffffffff1673ffffffffffffffffffffffffffffffffffffffff1614610ba6577f000000000000000000000000000000000000000000000000000000000000000073ffffffffffffffffffffffffffffffffffffffff166323b872dd30600260009054906101000a900473ffffffffffffffffffffffffffffffffffffffff167f00000000000000000000000000000000000000000000000000000000000000006040518463ffffffff1660e01b8152600401610b0693929190610efd565b600060405180830381600087803b158015610b2057600080fd5b505af1158015610b34573d6000803e3d6000fd5b505050507f000000000000000000000000000000000000000000000000000000000000000073ffffffffffffffffffffffffffffffffffffffff166108fc6003549081150290604051600060405180830381858888f19350505050158015610ba0573d6000803e3d6000fd5b50610c78565b7f000000000000000000000000000000000000000000000000000000000000000073ffffffffffffffffffffffffffffffffffffffff166323b872dd30600260009054906101000a900473ffffffffffffffffffffffffffffffffffffffff167f00000000000000000000000000000000000000000000000000000000000000006040518463ffffffff1660e01b8152600401610c4593929190610efd565b600060405180830381600087803b158015610c5f57600080fd5b505af1158015610c73573d6000803e3d6000fd5b505050505b7fdd970dd9b5bfe707922155b058a407655cb18288b807e2216442bca8ad83d6b5600354604051610ca99190611074565b60405180910390a1565b600260009054906101000a900473ffffffffffffffffffffffffffffffffffffffff1681565b600081359050610ce8816113bf565b92915050565b600060208284031215610d0457610d03611272565b5b6000610d1284828501610cd9565b91505092915050565b610d24816111e9565b82525050565b610d3381611191565b82525050565b610d428161117f565b82525050565b610d51816111a3565b82525050565b610d60816111fb565b82525050565b610d6f8161120d565b82525050565b6000610d82600e83611118565b9150610d8d82611277565b602082019050919050565b6000610da5600883611118565b9150610db0826112a0565b602082019050919050565b6000610dc8600383611118565b9150610dd3826112c9565b602082019050919050565b6000610deb600783611118565b9150610df6826112f2565b602082019050919050565b6000610e0e600b83611118565b9150610e198261131b565b602082019050919050565b6000610e31600583611118565b9150610e3c82611344565b602082019050919050565b6000610e54600e83611118565b9150610e5f8261136d565b602082019050919050565b6000610e77600983611118565b9150610e8282611396565b602082019050919050565b610e96816111cf565b82525050565b610ea5816111d9565b82525050565b6000602082019050610ec06000830184610d2a565b92915050565b6000606082019050610edb6000830186610d1b565b610ee86020830185610d39565b610ef56040830184610e8d565b949350505050565b6000606082019050610f126000830186610d39565b610f1f6020830185610d1b565b610f2c6040830184610e8d565b949350505050565b6000602082019050610f496000830184610d48565b92915050565b6000602082019050610f646000830184610d57565b92915050565b60006020820190508181036000830152610f8381610d75565b9050919050565b60006040820190508181036000830152610fa381610d98565b9050610fb26020830184610e8d565b92915050565b60006040820190508181036000830152610fd181610dbb565b9050610fe06020830184610e8d565b92915050565b60006020820190508181036000830152610fff81610dde565b9050919050565b6000604082019050818103600083015261101f81610dde565b905061102e6020830184610d66565b92915050565b6000602082019050818103600083015261104d81610e01565b9050919050565b6000602082019050818103600083015261106d81610e24565b9050919050565b6000604082019050818103600083015261108d81610e24565b905061109c6020830184610e8d565b92915050565b600060208201905081810360008301526110bb81610e47565b9050919050565b600060208201905081810360008301526110db81610e6a565b9050919050565b60006020820190506110f76000830184610e8d565b92915050565b60006020820190506111126000830184610e9c565b92915050565b600082825260208201905092915050565b6000611134826111cf565b915061113f836111cf565b9250827fffffffffffffffffffffffffffffffffffffffffffffffffffffffffffffffff0382111561117457611173611243565b5b828201905092915050565b600061118a826111af565b9050919050565b600061119c826111af565b9050919050565b60008115159050919050565b600073ffffffffffffffffffffffffffffffffffffffff82169050919050565b6000819050919050565b600063ffffffff82169050919050565b60006111f48261121f565b9050919050565b60006112068261121f565b9050919050565b6000611218826111cf565b9050919050565b600061122a82611231565b9050919050565b600061123c826111af565b9050919050565b7f4e487b7100000000000000000000000000000000000000000000000000000000600052601160045260246000fd5b600080fd5b7f6e6f7420617574686f72697a6564000000000000000000000000000000000000600082015250565b7f5769746864726177000000000000000000000000000000000000000000000000600082015250565b7f6269640000000000000000000000000000000000000000000000000000000000600082015250565b7f7374617274656400000000000000000000000000000000000000000000000000600082015250565b7f6e6f742073746172746564000000000000000000000000000000000000000000600082015250565b7f656e646564000000000000000000000000000000000000000000000000000000600082015250565b7f6e6f7420656e6f75676820657468000000000000000000000000000000000000600082015250565b7f6e6f7420656e6465640000000000000000000000000000000000000000000000600082015250565b6113c88161117f565b81146113d357600080fd5b5056fea264697066735822122089f32a8c8add0dc566dff55dd70ce89743287fb516be694e8c1b1b28d8d3928764736f6c63430008070033",
					"opcodes": "PUSH1 0xE0 PUSH1 0x40 MSTORE CALLVALUE DUP1 ISZERO PUSH3 0x11 JUMPI PUSH1 0x0 DUP1 REVERT JUMPDEST POP PUSH1 0x40 MLOAD PUSH3 0x170F CODESIZE SUB DUP1 PUSH3 0x170F DUP4 CODECOPY DUP2 DUP2 ADD PUSH1 0x40 MSTORE DUP2 ADD SWAP1 PUSH3 0x37 SWAP2 SWAP1 PUSH3 0x138 JUMP JUMPDEST CALLER PUSH20 0xFFFFFFFFFFFFFFFFFFFFFFFFFFFFFFFFFFFFFFFF AND PUSH1 0xC0 DUP2 PUSH20 0xFFFFFFFFFFFFFFFFFFFFFFFFFFFFFFFFFFFFFFFF AND PUSH1 0x60 SHL DUP2 MSTORE POP POP PUSH1 0x0 DUP2 GT PUSH3 0xB4 JUMPI PUSH1 0x40 MLOAD PUSH32 0x8C379A000000000000000000000000000000000000000000000000000000000 DUP2 MSTORE PUSH1 0x4 ADD PUSH3 0xAB SWAP1 PUSH3 0x1BB JUMP JUMPDEST PUSH1 0x40 MLOAD DUP1 SWAP2 SUB SWAP1 REVERT JUMPDEST DUP1 PUSH1 0x1 DUP2 SWAP1 SSTORE POP DUP1 PUSH1 0x3 DUP2 SWAP1 SSTORE POP DUP3 PUSH20 0xFFFFFFFFFFFFFFFFFFFFFFFFFFFFFFFFFFFFFFFF AND PUSH1 0x80 DUP2 PUSH20 0xFFFFFFFFFFFFFFFFFFFFFFFFFFFFFFFFFFFFFFFF AND PUSH1 0x60 SHL DUP2 MSTORE POP POP DUP2 PUSH1 0xA0 DUP2 DUP2 MSTORE POP POP POP POP POP PUSH3 0x28E JUMP JUMPDEST PUSH1 0x0 DUP2 MLOAD SWAP1 POP PUSH3 0x11B DUP2 PUSH3 0x25A JUMP JUMPDEST SWAP3 SWAP2 POP POP JUMP JUMPDEST PUSH1 0x0 DUP2 MLOAD SWAP1 POP PUSH3 0x132 DUP2 PUSH3 0x274 JUMP JUMPDEST SWAP3 SWAP2 POP POP JUMP JUMPDEST PUSH1 0x0 DUP1 PUSH1 0x0 PUSH1 0x60 DUP5 DUP7 SUB SLT ISZERO PUSH3 0x154 JUMPI PUSH3 0x153 PUSH3 0x22C JUMP JUMPDEST JUMPDEST PUSH1 0x0 PUSH3 0x164 DUP7 DUP3 DUP8 ADD PUSH3 0x10A JUMP JUMPDEST SWAP4 POP POP PUSH1 0x20 PUSH3 0x177 DUP7 DUP3 DUP8 ADD PUSH3 0x121 JUMP JUMPDEST SWAP3 POP POP PUSH1 0x40 PUSH3 0x18A DUP7 DUP3 DUP8 ADD PUSH3 0x121 JUMP JUMPDEST SWAP2 POP POP SWAP3 POP SWAP3 POP SWAP3 JUMP JUMPDEST PUSH1 0x0 PUSH3 0x1A3 PUSH1 0x8 DUP4 PUSH3 0x1DD JUMP JUMPDEST SWAP2 POP PUSH3 0x1B0 DUP3 PUSH3 0x231 JUMP JUMPDEST PUSH1 0x20 DUP3 ADD SWAP1 POP SWAP2 SWAP1 POP JUMP JUMPDEST PUSH1 0x0 PUSH1 0x20 DUP3 ADD SWAP1 POP DUP2 DUP2 SUB PUSH1 0x0 DUP4 ADD MSTORE PUSH3 0x1D6 DUP2 PUSH3 0x194 JUMP JUMPDEST SWAP1 POP SWAP2 SWAP1 POP JUMP JUMPDEST PUSH1 0x0 DUP3 DUP3 MSTORE PUSH1 0x20 DUP3 ADD SWAP1 POP SWAP3 SWAP2 POP POP JUMP JUMPDEST PUSH1 0x0 PUSH3 0x1FB DUP3 PUSH3 0x202 JUMP JUMPDEST SWAP1 POP SWAP2 SWAP1 POP JUMP JUMPDEST PUSH1 0x0 PUSH20 0xFFFFFFFFFFFFFFFFFFFFFFFFFFFFFFFFFFFFFFFF DUP3 AND SWAP1 POP SWAP2 SWAP1 POP JUMP JUMPDEST PUSH1 0x0 DUP2 SWAP1 POP SWAP2 SWAP1 POP JUMP JUMPDEST PUSH1 0x0 DUP1 REVERT JUMPDEST PUSH32 0x7072696365203C30000000000000000000000000000000000000000000000000 PUSH1 0x0 DUP3 ADD MSTORE POP JUMP JUMPDEST PUSH3 0x265 DUP2 PUSH3 0x1EE JUMP JUMPDEST DUP2 EQ PUSH3 0x271 JUMPI PUSH1 0x0 DUP1 REVERT JUMPDEST POP JUMP JUMPDEST PUSH3 0x27F DUP2 PUSH3 0x222 JUMP JUMPDEST DUP2 EQ PUSH3 0x28B JUMPI PUSH1 0x0 DUP1 REVERT JUMPDEST POP JUMP JUMPDEST PUSH1 0x80 MLOAD PUSH1 0x60 SHR PUSH1 0xA0 MLOAD PUSH1 0xC0 MLOAD PUSH1 0x60 SHR PUSH2 0x140C PUSH3 0x303 PUSH1 0x0 CODECOPY PUSH1 0x0 DUP2 DUP2 PUSH2 0x2F3 ADD MSTORE DUP2 DUP2 PUSH2 0x4F7 ADD MSTORE DUP2 DUP2 PUSH2 0x608 ADD MSTORE PUSH2 0xB3A ADD MSTORE PUSH1 0x0 DUP2 DUP2 PUSH2 0x62A ADD MSTORE DUP2 DUP2 PUSH2 0x6D5 ADD MSTORE DUP2 DUP2 PUSH2 0xAC9 ADD MSTORE PUSH2 0xC08 ADD MSTORE PUSH1 0x0 DUP2 DUP2 PUSH2 0x44D ADD MSTORE DUP2 DUP2 PUSH2 0x5CC ADD MSTORE DUP2 DUP2 PUSH2 0xA69 ADD MSTORE PUSH2 0xBA8 ADD MSTORE PUSH2 0x140C PUSH1 0x0 RETURN INVALID PUSH1 0x80 PUSH1 0x40 MSTORE PUSH1 0x4 CALLDATASIZE LT PUSH2 0xDD JUMPI PUSH1 0x0 CALLDATALOAD PUSH1 0xE0 SHR DUP1 PUSH4 0x7CC3AE8C GT PUSH2 0x7F JUMPI DUP1 PUSH4 0xC6BC5182 GT PUSH2 0x59 JUMPI DUP1 PUSH4 0xC6BC5182 EQ PUSH2 0x27A JUMPI DUP1 PUSH4 0xEB36A479 EQ PUSH2 0x2A5 JUMPI DUP1 PUSH4 0xEFBE1C1C EQ PUSH2 0x2AF JUMPI DUP1 PUSH4 0xF496D882 EQ PUSH2 0x2C6 JUMPI PUSH2 0xDD JUMP JUMPDEST DUP1 PUSH4 0x7CC3AE8C EQ PUSH2 0x20D JUMPI DUP1 PUSH4 0x98D5FDCA EQ PUSH2 0x238 JUMPI DUP1 PUSH4 0xBE9A6555 EQ PUSH2 0x263 JUMPI PUSH2 0xDD JUMP JUMPDEST DUP1 PUSH4 0x1F2698AB GT PUSH2 0xBB JUMPI DUP1 PUSH4 0x1F2698AB EQ PUSH2 0x163 JUMPI DUP1 PUSH4 0x3CCFD60B EQ PUSH2 0x18E JUMPI DUP1 PUSH4 0x47CCCA02 EQ PUSH2 0x1A5 JUMPI DUP1 PUSH4 0x62EA82DB EQ PUSH2 0x1D0 JUMPI PUSH2 0xDD JUMP JUMPDEST DUP1 PUSH4 0x8551A53 EQ PUSH2 0xE2 JUMPI DUP1 PUSH4 0x12FA6FEB EQ PUSH2 0x10D JUMPI DUP1 PUSH4 0x1998AEEF EQ PUSH2 0x138 JUMPI JUMPDEST PUSH1 0x0 DUP1 REVERT JUMPDEST CALLVALUE DUP1 ISZERO PUSH2 0xEE JUMPI PUSH1 0x0 DUP1 REVERT JUMPDEST POP PUSH2 0xF7 PUSH2 0x2F1 JUMP JUMPDEST PUSH1 0x40 MLOAD PUSH2 0x104 SWAP2 SWAP1 PUSH2 0xEAB JUMP JUMPDEST PUSH1 0x40 MLOAD DUP1 SWAP2 SUB SWAP1 RETURN JUMPDEST CALLVALUE DUP1 ISZERO PUSH2 0x119 JUMPI PUSH1 0x0 DUP1 REVERT JUMPDEST POP PUSH2 0x122 PUSH2 0x315 JUMP JUMPDEST PUSH1 0x40 MLOAD PUSH2 0x12F SWAP2 SWAP1 PUSH2 0xF34 JUMP JUMPDEST PUSH1 0x40 MLOAD DUP1 SWAP2 SUB SWAP1 RETURN JUMPDEST CALLVALUE DUP1 ISZERO PUSH2 0x144 JUMPI PUSH1 0x0 DUP1 REVERT JUMPDEST POP PUSH2 0x14D PUSH2 0x328 JUMP JUMPDEST PUSH1 0x40 MLOAD PUSH2 0x15A SWAP2 SWAP1 PUSH2 0x10E2 JUMP JUMPDEST PUSH1 0x40 MLOAD DUP1 SWAP2 SUB SWAP1 RETURN JUMPDEST CALLVALUE DUP1 ISZERO PUSH2 0x16F JUMPI PUSH1 0x0 DUP1 REVERT JUMPDEST POP PUSH2 0x178 PUSH2 0x32E JUMP JUMPDEST PUSH1 0x40 MLOAD PUSH2 0x185 SWAP2 SWAP1 PUSH2 0xF34 JUMP JUMPDEST PUSH1 0x40 MLOAD DUP1 SWAP2 SUB SWAP1 RETURN JUMPDEST CALLVALUE DUP1 ISZERO PUSH2 0x19A JUMPI PUSH1 0x0 DUP1 REVERT JUMPDEST POP PUSH2 0x1A3 PUSH2 0x341 JUMP JUMPDEST STOP JUMPDEST CALLVALUE DUP1 ISZERO PUSH2 0x1B1 JUMPI PUSH1 0x0 DUP1 REVERT JUMPDEST POP PUSH2 0x1BA PUSH2 0x44B JUMP JUMPDEST PUSH1 0x40 MLOAD PUSH2 0x1C7 SWAP2 SWAP1 PUSH2 0xF4F JUMP JUMPDEST PUSH1 0x40 MLOAD DUP1 SWAP2 SUB SWAP1 RETURN JUMPDEST CALLVALUE DUP1 ISZERO PUSH2 0x1DC JUMPI PUSH1 0x0 DUP1 REVERT JUMPDEST POP PUSH2 0x1F7 PUSH1 0x4 DUP1 CALLDATASIZE SUB DUP2 ADD SWAP1 PUSH2 0x1F2 SWAP2 SWAP1 PUSH2 0xCEE JUMP JUMPDEST PUSH2 0x46F JUMP JUMPDEST PUSH1 0x40 MLOAD PUSH2 0x204 SWAP2 SWAP1 PUSH2 0x10E2 JUMP JUMPDEST PUSH1 0x40 MLOAD DUP1 SWAP2 SUB SWAP1 RETURN JUMPDEST CALLVALUE DUP1 ISZERO PUSH2 0x219 JUMPI PUSH1 0x0 DUP1 REVERT JUMPDEST POP PUSH2 0x222 PUSH2 0x487 JUMP JUMPDEST PUSH1 0x40 MLOAD PUSH2 0x22F SWAP2 SWAP1 PUSH2 0x10FD JUMP JUMPDEST PUSH1 0x40 MLOAD DUP1 SWAP2 SUB SWAP1 RETURN JUMPDEST CALLVALUE DUP1 ISZERO PUSH2 0x244 JUMPI PUSH1 0x0 DUP1 REVERT JUMPDEST POP PUSH2 0x24D PUSH2 0x49B JUMP JUMPDEST PUSH1 0x40 MLOAD PUSH2 0x25A SWAP2 SWAP1 PUSH2 0x10E2 JUMP JUMPDEST PUSH1 0x40 MLOAD DUP1 SWAP2 SUB SWAP1 RETURN JUMPDEST CALLVALUE DUP1 ISZERO PUSH2 0x26F JUMPI PUSH1 0x0 DUP1 REVERT JUMPDEST POP PUSH2 0x278 PUSH2 0x4A5 JUMP JUMPDEST STOP JUMPDEST CALLVALUE DUP1 ISZERO PUSH2 0x286 JUMPI PUSH1 0x0 DUP1 REVERT JUMPDEST POP PUSH2 0x28F PUSH2 0x6D3 JUMP JUMPDEST PUSH1 0x40 MLOAD PUSH2 0x29C SWAP2 SWAP1 PUSH2 0x10E2 JUMP JUMPDEST PUSH1 0x40 MLOAD DUP1 SWAP2 SUB SWAP1 RETURN JUMPDEST PUSH2 0x2AD PUSH2 0x6F7 JUMP JUMPDEST STOP JUMPDEST CALLVALUE DUP1 ISZERO PUSH2 0x2BB JUMPI PUSH1 0x0 DUP1 REVERT JUMPDEST POP PUSH2 0x2C4 PUSH2 0x8FE JUMP JUMPDEST STOP JUMPDEST CALLVALUE DUP1 ISZERO PUSH2 0x2D2 JUMPI PUSH1 0x0 DUP1 REVERT JUMPDEST POP PUSH2 0x2DB PUSH2 0xCB3 JUMP JUMPDEST PUSH1 0x40 MLOAD PUSH2 0x2E8 SWAP2 SWAP1 PUSH2 0xEAB JUMP JUMPDEST PUSH1 0x40 MLOAD DUP1 SWAP2 SUB SWAP1 RETURN JUMPDEST PUSH32 0x0 DUP2 JUMP JUMPDEST PUSH1 0x0 PUSH1 0x5 SWAP1 SLOAD SWAP1 PUSH2 0x100 EXP SWAP1 DIV PUSH1 0xFF AND DUP2 JUMP JUMPDEST PUSH1 0x3 SLOAD DUP2 JUMP JUMPDEST PUSH1 0x0 PUSH1 0x4 SWAP1 SLOAD SWAP1 PUSH2 0x100 EXP SWAP1 DIV PUSH1 0xFF AND DUP2 JUMP JUMPDEST PUSH1 0x0 PUSH1 0x4 PUSH1 0x0 CALLER PUSH20 0xFFFFFFFFFFFFFFFFFFFFFFFFFFFFFFFFFFFFFFFF AND PUSH20 0xFFFFFFFFFFFFFFFFFFFFFFFFFFFFFFFFFFFFFFFF AND DUP2 MSTORE PUSH1 0x20 ADD SWAP1 DUP2 MSTORE PUSH1 0x20 ADD PUSH1 0x0 KECCAK256 SLOAD SWAP1 POP PUSH1 0x0 PUSH1 0x4 PUSH1 0x0 CALLER PUSH20 0xFFFFFFFFFFFFFFFFFFFFFFFFFFFFFFFFFFFFFFFF AND PUSH20 0xFFFFFFFFFFFFFFFFFFFFFFFFFFFFFFFFFFFFFFFF AND DUP2 MSTORE PUSH1 0x20 ADD SWAP1 DUP2 MSTORE PUSH1 0x20 ADD PUSH1 0x0 KECCAK256 DUP2 SWAP1 SSTORE POP CALLER PUSH20 0xFFFFFFFFFFFFFFFFFFFFFFFFFFFFFFFFFFFFFFFF AND PUSH2 0x8FC DUP3 SWAP1 DUP2 ISZERO MUL SWAP1 PUSH1 0x40 MLOAD PUSH1 0x0 PUSH1 0x40 MLOAD DUP1 DUP4 SUB DUP2 DUP6 DUP9 DUP9 CALL SWAP4 POP POP POP POP ISZERO DUP1 ISZERO PUSH2 0x410 JUMPI RETURNDATASIZE PUSH1 0x0 DUP1 RETURNDATACOPY RETURNDATASIZE PUSH1 0x0 REVERT JUMPDEST POP PUSH32 0xDD970DD9B5BFE707922155B058A407655CB18288B807E2216442BCA8AD83D6B5 DUP2 PUSH1 0x40 MLOAD PUSH2 0x440 SWAP2 SWAP1 PUSH2 0xF8A JUMP JUMPDEST PUSH1 0x40 MLOAD DUP1 SWAP2 SUB SWAP1 LOG1 POP JUMP JUMPDEST PUSH32 0x0 DUP2 JUMP JUMPDEST PUSH1 0x4 PUSH1 0x20 MSTORE DUP1 PUSH1 0x0 MSTORE PUSH1 0x40 PUSH1 0x0 KECCAK256 PUSH1 0x0 SWAP2 POP SWAP1 POP SLOAD DUP2 JUMP JUMPDEST PUSH1 0x0 DUP1 SLOAD SWAP1 PUSH2 0x100 EXP SWAP1 DIV PUSH4 0xFFFFFFFF AND DUP2 JUMP JUMPDEST PUSH1 0x0 PUSH1 0x3 SLOAD SWAP1 POP SWAP1 JUMP JUMPDEST PUSH1 0x0 PUSH1 0x4 SWAP1 SLOAD SWAP1 PUSH2 0x100 EXP SWAP1 DIV PUSH1 0xFF AND ISZERO PUSH2 0x4F5 JUMPI PUSH1 0x40 MLOAD PUSH32 0x8C379A000000000000000000000000000000000000000000000000000000000 DUP2 MSTORE PUSH1 0x4 ADD PUSH2 0x4EC SWAP1 PUSH2 0xFE6 JUMP JUMPDEST PUSH1 0x40 MLOAD DUP1 SWAP2 SUB SWAP1 REVERT JUMPDEST PUSH32 0x0 PUSH20 0xFFFFFFFFFFFFFFFFFFFFFFFFFFFFFFFFFFFFFFFF AND CALLER PUSH20 0xFFFFFFFFFFFFFFFFFFFFFFFFFFFFFFFFFFFFFFFF AND EQ PUSH2 0x583 JUMPI PUSH1 0x40 MLOAD PUSH32 0x8C379A000000000000000000000000000000000000000000000000000000000 DUP2 MSTORE PUSH1 0x4 ADD PUSH2 0x57A SWAP1 PUSH2 0xF6A JUMP JUMPDEST PUSH1 0x40 MLOAD DUP1 SWAP2 SUB SWAP1 REVERT JUMPDEST PUSH1 0x1 PUSH1 0x0 PUSH1 0x4 PUSH2 0x100 EXP DUP2 SLOAD DUP2 PUSH1 0xFF MUL NOT AND SWAP1 DUP4 ISZERO ISZERO MUL OR SWAP1 SSTORE POP PUSH1 0x3C TIMESTAMP PUSH2 0x5AB SWAP2 SWAP1 PUSH2 0x1129 JUMP JUMPDEST PUSH1 0x0 DUP1 PUSH2 0x100 EXP DUP2 SLOAD DUP2 PUSH4 0xFFFFFFFF MUL NOT AND SWAP1 DUP4 PUSH4 0xFFFFFFFF AND MUL OR SWAP1 SSTORE POP PUSH32 0x0 PUSH20 0xFFFFFFFFFFFFFFFFFFFFFFFFFFFFFFFFFFFFFFFF AND PUSH4 0x23B872DD PUSH32 0x0 ADDRESS PUSH32 0x0 PUSH1 0x40 MLOAD DUP5 PUSH4 0xFFFFFFFF AND PUSH1 0xE0 SHL DUP2 MSTORE PUSH1 0x4 ADD PUSH2 0x667 SWAP4 SWAP3 SWAP2 SWAP1 PUSH2 0xEC6 JUMP JUMPDEST PUSH1 0x0 PUSH1 0x40 MLOAD DUP1 DUP4 SUB DUP2 PUSH1 0x0 DUP8 DUP1 EXTCODESIZE ISZERO DUP1 ISZERO PUSH2 0x681 JUMPI PUSH1 0x0 DUP1 REVERT JUMPDEST POP GAS CALL ISZERO DUP1 ISZERO PUSH2 0x695 JUMPI RETURNDATASIZE PUSH1 0x0 DUP1 RETURNDATACOPY RETURNDATASIZE PUSH1 0x0 REVERT JUMPDEST POP POP POP POP PUSH32 0xDD970DD9B5BFE707922155B058A407655CB18288B807E2216442BCA8AD83D6B5 PUSH1 0x0 PUSH1 0x40 MLOAD PUSH2 0x6C9 SWAP2 SWAP1 PUSH2 0x1006 JUMP JUMPDEST PUSH1 0x40 MLOAD DUP1 SWAP2 SUB SWAP1 LOG1 JUMP JUMPDEST PUSH32 0x0 DUP2 JUMP JUMPDEST PUSH1 0x0 PUSH1 0x4 SWAP1 SLOAD SWAP1 PUSH2 0x100 EXP SWAP1 DIV PUSH1 0xFF AND PUSH2 0x746 JUMPI PUSH1 0x40 MLOAD PUSH32 0x8C379A000000000000000000000000000000000000000000000000000000000 DUP2 MSTORE PUSH1 0x4 ADD PUSH2 0x73D SWAP1 PUSH2 0x1034 JUMP JUMPDEST PUSH1 0x40 MLOAD DUP1 SWAP2 SUB SWAP1 REVERT JUMPDEST PUSH1 0x3 SLOAD CALLVALUE GT PUSH2 0x78A JUMPI PUSH1 0x40 MLOAD PUSH32 0x8C379A000000000000000000000000000000000000000000000000000000000 DUP2 MSTORE PUSH1 0x4 ADD PUSH2 0x781 SWAP1 PUSH2 0x10A2 JUMP JUMPDEST PUSH1 0x40 MLOAD DUP1 SWAP2 SUB SWAP1 REVERT JUMPDEST PUSH1 0x0 DUP1 SLOAD SWAP1 PUSH2 0x100 EXP SWAP1 DIV PUSH4 0xFFFFFFFF AND PUSH4 0xFFFFFFFF AND TIMESTAMP LT PUSH2 0x7AC JUMPI PUSH1 0x0 DUP1 REVERT JUMPDEST PUSH1 0x0 PUSH20 0xFFFFFFFFFFFFFFFFFFFFFFFFFFFFFFFFFFFFFFFF AND PUSH1 0x2 PUSH1 0x0 SWAP1 SLOAD SWAP1 PUSH2 0x100 EXP SWAP1 DIV PUSH20 0xFFFFFFFFFFFFFFFFFFFFFFFFFFFFFFFFFFFFFFFF AND PUSH20 0xFFFFFFFFFFFFFFFFFFFFFFFFFFFFFFFFFFFFFFFF AND EQ PUSH2 0x87D JUMPI PUSH1 0x3 SLOAD PUSH1 0x4 PUSH1 0x0 PUSH1 0x2 PUSH1 0x0 SWAP1 SLOAD SWAP1 PUSH2 0x100 EXP SWAP1 DIV PUSH20 0xFFFFFFFFFFFFFFFFFFFFFFFFFFFFFFFFFFFFFFFF AND PUSH20 0xFFFFFFFFFFFFFFFFFFFFFFFFFFFFFFFFFFFFFFFF AND PUSH20 0xFFFFFFFFFFFFFFFFFFFFFFFFFFFFFFFFFFFFFFFF AND DUP2 MSTORE PUSH1 0x20 ADD SWAP1 DUP2 MSTORE PUSH1 0x20 ADD PUSH1 0x0 KECCAK256 PUSH1 0x0 DUP3 DUP3 SLOAD PUSH2 0x875 SWAP2 SWAP1 PUSH2 0x1129 JUMP JUMPDEST SWAP3 POP POP DUP2 SWAP1 SSTORE POP JUMPDEST CALLVALUE PUSH1 0x3 DUP2 SWAP1 SSTORE POP CALLER PUSH1 0x2 PUSH1 0x0 PUSH2 0x100 EXP DUP2 SLOAD DUP2 PUSH20 0xFFFFFFFFFFFFFFFFFFFFFFFFFFFFFFFFFFFFFFFF MUL NOT AND SWAP1 DUP4 PUSH20 0xFFFFFFFFFFFFFFFFFFFFFFFFFFFFFFFFFFFFFFFF AND MUL OR SWAP1 SSTORE POP PUSH32 0xDD970DD9B5BFE707922155B058A407655CB18288B807E2216442BCA8AD83D6B5 CALLVALUE PUSH1 0x40 MLOAD PUSH2 0x8F4 SWAP2 SWAP1 PUSH2 0xFB8 JUMP JUMPDEST PUSH1 0x40 MLOAD DUP1 SWAP2 SUB SWAP1 LOG1 JUMP JUMPDEST PUSH1 0x0 PUSH1 0x4 SWAP1 SLOAD SWAP1 PUSH2 0x100 EXP SWAP1 DIV PUSH1 0xFF AND PUSH2 0x94D JUMPI PUSH1 0x40 MLOAD PUSH32 0x8C379A000000000000000000000000000000000000000000000000000000000 DUP2 MSTORE PUSH1 0x4 ADD PUSH2 0x944 SWAP1 PUSH2 0xFE6 JUMP JUMPDEST PUSH1 0x40 MLOAD DUP1 SWAP2 SUB SWAP1 REVERT JUMPDEST PUSH1 0x0 PUSH1 0x5 SWAP1 SLOAD SWAP1 PUSH2 0x100 EXP SWAP1 DIV PUSH1 0xFF AND ISZERO PUSH2 0x99D JUMPI PUSH1 0x40 MLOAD PUSH32 0x8C379A000000000000000000000000000000000000000000000000000000000 DUP2 MSTORE PUSH1 0x4 ADD PUSH2 0x994 SWAP1 PUSH2 0x1054 JUMP JUMPDEST PUSH1 0x40 MLOAD DUP1 SWAP2 SUB SWAP1 REVERT JUMPDEST PUSH1 0x0 DUP1 SLOAD SWAP1 PUSH2 0x100 EXP SWAP1 DIV PUSH4 0xFFFFFFFF AND PUSH4 0xFFFFFFFF AND TIMESTAMP LT ISZERO PUSH2 0x9F6 JUMPI PUSH1 0x40 MLOAD PUSH32 0x8C379A000000000000000000000000000000000000000000000000000000000 DUP2 MSTORE PUSH1 0x4 ADD PUSH2 0x9ED SWAP1 PUSH2 0x10C2 JUMP JUMPDEST PUSH1 0x40 MLOAD DUP1 SWAP2 SUB SWAP1 REVERT JUMPDEST PUSH1 0x1 PUSH1 0x0 PUSH1 0x5 PUSH2 0x100 EXP DUP2 SLOAD DUP2 PUSH1 0xFF MUL NOT AND SWAP1 DUP4 ISZERO ISZERO MUL OR SWAP1 SSTORE POP PUSH1 0x0 PUSH20 0xFFFFFFFFFFFFFFFFFFFFFFFFFFFFFFFFFFFFFFFF AND PUSH1 0x2 PUSH1 0x0 SWAP1 SLOAD SWAP1 PUSH2 0x100 EXP SWAP1 DIV PUSH20 0xFFFFFFFFFFFFFFFFFFFFFFFFFFFFFFFFFFFFFFFF AND PUSH20 0xFFFFFFFFFFFFFFFFFFFFFFFFFFFFFFFFFFFFFFFF AND EQ PUSH2 0xBA6 JUMPI PUSH32 0x0 PUSH20 0xFFFFFFFFFFFFFFFFFFFFFFFFFFFFFFFFFFFFFFFF AND PUSH4 0x23B872DD ADDRESS PUSH1 0x2 PUSH1 0x0 SWAP1 SLOAD SWAP1 PUSH2 0x100 EXP SWAP1 DIV PUSH20 0xFFFFFFFFFFFFFFFFFFFFFFFFFFFFFFFFFFFFFFFF AND PUSH32 0x0 PUSH1 0x40 MLOAD DUP5 PUSH4 0xFFFFFFFF AND PUSH1 0xE0 SHL DUP2 MSTORE PUSH1 0x4 ADD PUSH2 0xB06 SWAP4 SWAP3 SWAP2 SWAP1 PUSH2 0xEFD JUMP JUMPDEST PUSH1 0x0 PUSH1 0x40 MLOAD DUP1 DUP4 SUB DUP2 PUSH1 0x0 DUP8 DUP1 EXTCODESIZE ISZERO DUP1 ISZERO PUSH2 0xB20 JUMPI PUSH1 0x0 DUP1 REVERT JUMPDEST POP GAS CALL ISZERO DUP1 ISZERO PUSH2 0xB34 JUMPI RETURNDATASIZE PUSH1 0x0 DUP1 RETURNDATACOPY RETURNDATASIZE PUSH1 0x0 REVERT JUMPDEST POP POP POP POP PUSH32 0x0 PUSH20 0xFFFFFFFFFFFFFFFFFFFFFFFFFFFFFFFFFFFFFFFF AND PUSH2 0x8FC PUSH1 0x3 SLOAD SWAP1 DUP2 ISZERO MUL SWAP1 PUSH1 0x40 MLOAD PUSH1 0x0 PUSH1 0x40 MLOAD DUP1 DUP4 SUB DUP2 DUP6 DUP9 DUP9 CALL SWAP4 POP POP POP POP ISZERO DUP1 ISZERO PUSH2 0xBA0 JUMPI RETURNDATASIZE PUSH1 0x0 DUP1 RETURNDATACOPY RETURNDATASIZE PUSH1 0x0 REVERT JUMPDEST POP PUSH2 0xC78 JUMP JUMPDEST PUSH32 0x0 PUSH20 0xFFFFFFFFFFFFFFFFFFFFFFFFFFFFFFFFFFFFFFFF AND PUSH4 0x23B872DD ADDRESS PUSH1 0x2 PUSH1 0x0 SWAP1 SLOAD SWAP1 PUSH2 0x100 EXP SWAP1 DIV PUSH20 0xFFFFFFFFFFFFFFFFFFFFFFFFFFFFFFFFFFFFFFFF AND PUSH32 0x0 PUSH1 0x40 MLOAD DUP5 PUSH4 0xFFFFFFFF AND PUSH1 0xE0 SHL DUP2 MSTORE PUSH1 0x4 ADD PUSH2 0xC45 SWAP4 SWAP3 SWAP2 SWAP1 PUSH2 0xEFD JUMP JUMPDEST PUSH1 0x0 PUSH1 0x40 MLOAD DUP1 DUP4 SUB DUP2 PUSH1 0x0 DUP8 DUP1 EXTCODESIZE ISZERO DUP1 ISZERO PUSH2 0xC5F JUMPI PUSH1 0x0 DUP1 REVERT JUMPDEST POP GAS CALL ISZERO DUP1 ISZERO PUSH2 0xC73 JUMPI RETURNDATASIZE PUSH1 0x0 DUP1 RETURNDATACOPY RETURNDATASIZE PUSH1 0x0 REVERT JUMPDEST POP POP POP POP JUMPDEST PUSH32 0xDD970DD9B5BFE707922155B058A407655CB18288B807E2216442BCA8AD83D6B5 PUSH1 0x3 SLOAD PUSH1 0x40 MLOAD PUSH2 0xCA9 SWAP2 SWAP1 PUSH2 0x1074 JUMP JUMPDEST PUSH1 0x40 MLOAD DUP1 SWAP2 SUB SWAP1 LOG1 JUMP JUMPDEST PUSH1 0x2 PUSH1 0x0 SWAP1 SLOAD SWAP1 PUSH2 0x100 EXP SWAP1 DIV PUSH20 0xFFFFFFFFFFFFFFFFFFFFFFFFFFFFFFFFFFFFFFFF AND DUP2 JUMP JUMPDEST PUSH1 0x0 DUP2 CALLDATALOAD SWAP1 POP PUSH2 0xCE8 DUP2 PUSH2 0x13BF JUMP JUMPDEST SWAP3 SWAP2 POP POP JUMP JUMPDEST PUSH1 0x0 PUSH1 0x20 DUP3 DUP5 SUB SLT ISZERO PUSH2 0xD04 JUMPI PUSH2 0xD03 PUSH2 0x1272 JUMP JUMPDEST JUMPDEST PUSH1 0x0 PUSH2 0xD12 DUP5 DUP3 DUP6 ADD PUSH2 0xCD9 JUMP JUMPDEST SWAP2 POP POP SWAP3 SWAP2 POP POP JUMP JUMPDEST PUSH2 0xD24 DUP2 PUSH2 0x11E9 JUMP JUMPDEST DUP3 MSTORE POP POP JUMP JUMPDEST PUSH2 0xD33 DUP2 PUSH2 0x1191 JUMP JUMPDEST DUP3 MSTORE POP POP JUMP JUMPDEST PUSH2 0xD42 DUP2 PUSH2 0x117F JUMP JUMPDEST DUP3 MSTORE POP POP JUMP JUMPDEST PUSH2 0xD51 DUP2 PUSH2 0x11A3 JUMP JUMPDEST DUP3 MSTORE POP POP JUMP JUMPDEST PUSH2 0xD60 DUP2 PUSH2 0x11FB JUMP JUMPDEST DUP3 MSTORE POP POP JUMP JUMPDEST PUSH2 0xD6F DUP2 PUSH2 0x120D JUMP JUMPDEST DUP3 MSTORE POP POP JUMP JUMPDEST PUSH1 0x0 PUSH2 0xD82 PUSH1 0xE DUP4 PUSH2 0x1118 JUMP JUMPDEST SWAP2 POP PUSH2 0xD8D DUP3 PUSH2 0x1277 JUMP JUMPDEST PUSH1 0x20 DUP3 ADD SWAP1 POP SWAP2 SWAP1 POP JUMP JUMPDEST PUSH1 0x0 PUSH2 0xDA5 PUSH1 0x8 DUP4 PUSH2 0x1118 JUMP JUMPDEST SWAP2 POP PUSH2 0xDB0 DUP3 PUSH2 0x12A0 JUMP JUMPDEST PUSH1 0x20 DUP3 ADD SWAP1 POP SWAP2 SWAP1 POP JUMP JUMPDEST PUSH1 0x0 PUSH2 0xDC8 PUSH1 0x3 DUP4 PUSH2 0x1118 JUMP JUMPDEST SWAP2 POP PUSH2 0xDD3 DUP3 PUSH2 0x12C9 JUMP JUMPDEST PUSH1 0x20 DUP3 ADD SWAP1 POP SWAP2 SWAP1 POP JUMP JUMPDEST PUSH1 0x0 PUSH2 0xDEB PUSH1 0x7 DUP4 PUSH2 0x1118 JUMP JUMPDEST SWAP2 POP PUSH2 0xDF6 DUP3 PUSH2 0x12F2 JUMP JUMPDEST PUSH1 0x20 DUP3 ADD SWAP1 POP SWAP2 SWAP1 POP JUMP JUMPDEST PUSH1 0x0 PUSH2 0xE0E PUSH1 0xB DUP4 PUSH2 0x1118 JUMP JUMPDEST SWAP2 POP PUSH2 0xE19 DUP3 PUSH2 0x131B JUMP JUMPDEST PUSH1 0x20 DUP3 ADD SWAP1 POP SWAP2 SWAP1 POP JUMP JUMPDEST PUSH1 0x0 PUSH2 0xE31 PUSH1 0x5 DUP4 PUSH2 0x1118 JUMP JUMPDEST SWAP2 POP PUSH2 0xE3C DUP3 PUSH2 0x1344 JUMP JUMPDEST PUSH1 0x20 DUP3 ADD SWAP1 POP SWAP2 SWAP1 POP JUMP JUMPDEST PUSH1 0x0 PUSH2 0xE54 PUSH1 0xE DUP4 PUSH2 0x1118 JUMP JUMPDEST SWAP2 POP PUSH2 0xE5F DUP3 PUSH2 0x136D JUMP JUMPDEST PUSH1 0x20 DUP3 ADD SWAP1 POP SWAP2 SWAP1 POP JUMP JUMPDEST PUSH1 0x0 PUSH2 0xE77 PUSH1 0x9 DUP4 PUSH2 0x1118 JUMP JUMPDEST SWAP2 POP PUSH2 0xE82 DUP3 PUSH2 0x1396 JUMP JUMPDEST PUSH1 0x20 DUP3 ADD SWAP1 POP SWAP2 SWAP1 POP JUMP JUMPDEST PUSH2 0xE96 DUP2 PUSH2 0x11CF JUMP JUMPDEST DUP3 MSTORE POP POP JUMP JUMPDEST PUSH2 0xEA5 DUP2 PUSH2 0x11D9 JUMP JUMPDEST DUP3 MSTORE POP POP JUMP JUMPDEST PUSH1 0x0 PUSH1 0x20 DUP3 ADD SWAP1 POP PUSH2 0xEC0 PUSH1 0x0 DUP4 ADD DUP5 PUSH2 0xD2A JUMP JUMPDEST SWAP3 SWAP2 POP POP JUMP JUMPDEST PUSH1 0x0 PUSH1 0x60 DUP3 ADD SWAP1 POP PUSH2 0xEDB PUSH1 0x0 DUP4 ADD DUP7 PUSH2 0xD1B JUMP JUMPDEST PUSH2 0xEE8 PUSH1 0x20 DUP4 ADD DUP6 PUSH2 0xD39 JUMP JUMPDEST PUSH2 0xEF5 PUSH1 0x40 DUP4 ADD DUP5 PUSH2 0xE8D JUMP JUMPDEST SWAP5 SWAP4 POP POP POP POP JUMP JUMPDEST PUSH1 0x0 PUSH1 0x60 DUP3 ADD SWAP1 POP PUSH2 0xF12 PUSH1 0x0 DUP4 ADD DUP7 PUSH2 0xD39 JUMP JUMPDEST PUSH2 0xF1F PUSH1 0x20 DUP4 ADD DUP6 PUSH2 0xD1B JUMP JUMPDEST PUSH2 0xF2C PUSH1 0x40 DUP4 ADD DUP5 PUSH2 0xE8D JUMP JUMPDEST SWAP5 SWAP4 POP POP POP POP JUMP JUMPDEST PUSH1 0x0 PUSH1 0x20 DUP3 ADD SWAP1 POP PUSH2 0xF49 PUSH1 0x0 DUP4 ADD DUP5 PUSH2 0xD48 JUMP JUMPDEST SWAP3 SWAP2 POP POP JUMP JUMPDEST PUSH1 0x0 PUSH1 0x20 DUP3 ADD SWAP1 POP PUSH2 0xF64 PUSH1 0x0 DUP4 ADD DUP5 PUSH2 0xD57 JUMP JUMPDEST SWAP3 SWAP2 POP POP JUMP JUMPDEST PUSH1 0x0 PUSH1 0x20 DUP3 ADD SWAP1 POP DUP2 DUP2 SUB PUSH1 0x0 DUP4 ADD MSTORE PUSH2 0xF83 DUP2 PUSH2 0xD75 JUMP JUMPDEST SWAP1 POP SWAP2 SWAP1 POP JUMP JUMPDEST PUSH1 0x0 PUSH1 0x40 DUP3 ADD SWAP1 POP DUP2 DUP2 SUB PUSH1 0x0 DUP4 ADD MSTORE PUSH2 0xFA3 DUP2 PUSH2 0xD98 JUMP JUMPDEST SWAP1 POP PUSH2 0xFB2 PUSH1 0x20 DUP4 ADD DUP5 PUSH2 0xE8D JUMP JUMPDEST SWAP3 SWAP2 POP POP JUMP JUMPDEST PUSH1 0x0 PUSH1 0x40 DUP3 ADD SWAP1 POP DUP2 DUP2 SUB PUSH1 0x0 DUP4 ADD MSTORE PUSH2 0xFD1 DUP2 PUSH2 0xDBB JUMP JUMPDEST SWAP1 POP PUSH2 0xFE0 PUSH1 0x20 DUP4 ADD DUP5 PUSH2 0xE8D JUMP JUMPDEST SWAP3 SWAP2 POP POP JUMP JUMPDEST PUSH1 0x0 PUSH1 0x20 DUP3 ADD SWAP1 POP DUP2 DUP2 SUB PUSH1 0x0 DUP4 ADD MSTORE PUSH2 0xFFF DUP2 PUSH2 0xDDE JUMP JUMPDEST SWAP1 POP SWAP2 SWAP1 POP JUMP JUMPDEST PUSH1 0x0 PUSH1 0x40 DUP3 ADD SWAP1 POP DUP2 DUP2 SUB PUSH1 0x0 DUP4 ADD MSTORE PUSH2 0x101F DUP2 PUSH2 0xDDE JUMP JUMPDEST SWAP1 POP PUSH2 0x102E PUSH1 0x20 DUP4 ADD DUP5 PUSH2 0xD66 JUMP JUMPDEST SWAP3 SWAP2 POP POP JUMP JUMPDEST PUSH1 0x0 PUSH1 0x20 DUP3 ADD SWAP1 POP DUP2 DUP2 SUB PUSH1 0x0 DUP4 ADD MSTORE PUSH2 0x104D DUP2 PUSH2 0xE01 JUMP JUMPDEST SWAP1 POP SWAP2 SWAP1 POP JUMP JUMPDEST PUSH1 0x0 PUSH1 0x20 DUP3 ADD SWAP1 POP DUP2 DUP2 SUB PUSH1 0x0 DUP4 ADD MSTORE PUSH2 0x106D DUP2 PUSH2 0xE24 JUMP JUMPDEST SWAP1 POP SWAP2 SWAP1 POP JUMP JUMPDEST PUSH1 0x0 PUSH1 0x40 DUP3 ADD SWAP1 POP DUP2 DUP2 SUB PUSH1 0x0 DUP4 ADD MSTORE PUSH2 0x108D DUP2 PUSH2 0xE24 JUMP JUMPDEST SWAP1 POP PUSH2 0x109C PUSH1 0x20 DUP4 ADD DUP5 PUSH2 0xE8D JUMP JUMPDEST SWAP3 SWAP2 POP POP JUMP JUMPDEST PUSH1 0x0 PUSH1 0x20 DUP3 ADD SWAP1 POP DUP2 DUP2 SUB PUSH1 0x0 DUP4 ADD MSTORE PUSH2 0x10BB DUP2 PUSH2 0xE47 JUMP JUMPDEST SWAP1 POP SWAP2 SWAP1 POP JUMP JUMPDEST PUSH1 0x0 PUSH1 0x20 DUP3 ADD SWAP1 POP DUP2 DUP2 SUB PUSH1 0x0 DUP4 ADD MSTORE PUSH2 0x10DB DUP2 PUSH2 0xE6A JUMP JUMPDEST SWAP1 POP SWAP2 SWAP1 POP JUMP JUMPDEST PUSH1 0x0 PUSH1 0x20 DUP3 ADD SWAP1 POP PUSH2 0x10F7 PUSH1 0x0 DUP4 ADD DUP5 PUSH2 0xE8D JUMP JUMPDEST SWAP3 SWAP2 POP POP JUMP JUMPDEST PUSH1 0x0 PUSH1 0x20 DUP3 ADD SWAP1 POP PUSH2 0x1112 PUSH1 0x0 DUP4 ADD DUP5 PUSH2 0xE9C JUMP JUMPDEST SWAP3 SWAP2 POP POP JUMP JUMPDEST PUSH1 0x0 DUP3 DUP3 MSTORE PUSH1 0x20 DUP3 ADD SWAP1 POP SWAP3 SWAP2 POP POP JUMP JUMPDEST PUSH1 0x0 PUSH2 0x1134 DUP3 PUSH2 0x11CF JUMP JUMPDEST SWAP2 POP PUSH2 0x113F DUP4 PUSH2 0x11CF JUMP JUMPDEST SWAP3 POP DUP3 PUSH32 0xFFFFFFFFFFFFFFFFFFFFFFFFFFFFFFFFFFFFFFFFFFFFFFFFFFFFFFFFFFFFFFFF SUB DUP3 GT ISZERO PUSH2 0x1174 JUMPI PUSH2 0x1173 PUSH2 0x1243 JUMP JUMPDEST JUMPDEST DUP3 DUP3 ADD SWAP1 POP SWAP3 SWAP2 POP POP JUMP JUMPDEST PUSH1 0x0 PUSH2 0x118A DUP3 PUSH2 0x11AF JUMP JUMPDEST SWAP1 POP SWAP2 SWAP1 POP JUMP JUMPDEST PUSH1 0x0 PUSH2 0x119C DUP3 PUSH2 0x11AF JUMP JUMPDEST SWAP1 POP SWAP2 SWAP1 POP JUMP JUMPDEST PUSH1 0x0 DUP2 ISZERO ISZERO SWAP1 POP SWAP2 SWAP1 POP JUMP JUMPDEST PUSH1 0x0 PUSH20 0xFFFFFFFFFFFFFFFFFFFFFFFFFFFFFFFFFFFFFFFF DUP3 AND SWAP1 POP SWAP2 SWAP1 POP JUMP JUMPDEST PUSH1 0x0 DUP2 SWAP1 POP SWAP2 SWAP1 POP JUMP JUMPDEST PUSH1 0x0 PUSH4 0xFFFFFFFF DUP3 AND SWAP1 POP SWAP2 SWAP1 POP JUMP JUMPDEST PUSH1 0x0 PUSH2 0x11F4 DUP3 PUSH2 0x121F JUMP JUMPDEST SWAP1 POP SWAP2 SWAP1 POP JUMP JUMPDEST PUSH1 0x0 PUSH2 0x1206 DUP3 PUSH2 0x121F JUMP JUMPDEST SWAP1 POP SWAP2 SWAP1 POP JUMP JUMPDEST PUSH1 0x0 PUSH2 0x1218 DUP3 PUSH2 0x11CF JUMP JUMPDEST SWAP1 POP SWAP2 SWAP1 POP JUMP JUMPDEST PUSH1 0x0 PUSH2 0x122A DUP3 PUSH2 0x1231 JUMP JUMPDEST SWAP1 POP SWAP2 SWAP1 POP JUMP JUMPDEST PUSH1 0x0 PUSH2 0x123C DUP3 PUSH2 0x11AF JUMP JUMPDEST SWAP1 POP SWAP2 SWAP1 POP JUMP JUMPDEST PUSH32 0x4E487B7100000000000000000000000000000000000000000000000000000000 PUSH1 0x0 MSTORE PUSH1 0x11 PUSH1 0x4 MSTORE PUSH1 0x24 PUSH1 0x0 REVERT JUMPDEST PUSH1 0x0 DUP1 REVERT JUMPDEST PUSH32 0x6E6F7420617574686F72697A6564000000000000000000000000000000000000 PUSH1 0x0 DUP3 ADD MSTORE POP JUMP JUMPDEST PUSH32 0x5769746864726177000000000000000000000000000000000000000000000000 PUSH1 0x0 DUP3 ADD MSTORE POP JUMP JUMPDEST PUSH32 0x6269640000000000000000000000000000000000000000000000000000000000 PUSH1 0x0 DUP3 ADD MSTORE POP JUMP JUMPDEST PUSH32 0x7374617274656400000000000000000000000000000000000000000000000000 PUSH1 0x0 DUP3 ADD MSTORE POP JUMP JUMPDEST PUSH32 0x6E6F742073746172746564000000000000000000000000000000000000000000 PUSH1 0x0 DUP3 ADD MSTORE POP JUMP JUMPDEST PUSH32 0x656E646564000000000000000000000000000000000000000000000000000000 PUSH1 0x0 DUP3 ADD MSTORE POP JUMP JUMPDEST PUSH32 0x6E6F7420656E6F75676820657468000000000000000000000000000000000000 PUSH1 0x0 DUP3 ADD MSTORE POP JUMP JUMPDEST PUSH32 0x6E6F7420656E6465640000000000000000000000000000000000000000000000 PUSH1 0x0 DUP3 ADD MSTORE POP JUMP JUMPDEST PUSH2 0x13C8 DUP2 PUSH2 0x117F JUMP JUMPDEST DUP2 EQ PUSH2 0x13D3 JUMPI PUSH1 0x0 DUP1 REVERT JUMPDEST POP JUMP INVALID LOG2 PUSH5 0x6970667358 0x22 SLT KECCAK256 DUP10 RETURN 0x2A DUP13 DUP11 0xDD 0xD 0xC5 PUSH7 0xDFF55DD70CE897 NUMBER 0x28 PUSH32 0xB516BE694E8C1B1B28D8D3928764736F6C634300080700330000000000000000 "
				},
				"gasEstimates": {
					"creation": {
						"codeDepositCost": "1026400",
						"executionCost": "infinite",
						"totalCost": "infinite"
					},
					"external": {
						"bid()": "2497",
						"bidder()": "2602",
						"bids(address)": "2903",
						"end()": "infinite",
						"endAt()": "2491",
						"ended()": "2567",
						"getPrice()": "2482",
						"makeABid()": "infinite",
						"nft()": "infinite",
						"nftId()": "infinite",
						"seller()": "infinite",
						"start()": "infinite",
						"started()": "2544",
						"withdraw()": "infinite"
					}
				},
				"methodIdentifiers": {
					"bid()": "1998aeef",
					"bidder()": "f496d882",
					"bids(address)": "62ea82db",
					"end()": "efbe1c1c",
					"endAt()": "7cc3ae8c",
					"ended()": "12fa6feb",
					"getPrice()": "98d5fdca",
					"makeABid()": "eb36a479",
					"nft()": "47ccca02",
					"nftId()": "c6bc5182",
					"seller()": "08551a53",
					"start()": "be9a6555",
					"started()": "1f2698ab",
					"withdraw()": "3ccfd60b"
				}
			},
			"storageLayout": {
				"storage": [
					{
						"astId": 726,
						"contract": "EnglishAuction.sol:English",
						"label": "endAt",
						"offset": 0,
						"slot": "0",
						"type": "t_uint32"
					},
					{
						"astId": 728,
						"contract": "EnglishAuction.sol:English",
						"label": "started",
						"offset": 4,
						"slot": "0",
						"type": "t_bool"
					},
					{
						"astId": 730,
						"contract": "EnglishAuction.sol:English",
						"label": "ended",
						"offset": 5,
						"slot": "0",
						"type": "t_bool"
					},
					{
						"astId": 732,
						"contract": "EnglishAuction.sol:English",
						"label": "startingBid",
						"offset": 0,
						"slot": "1",
						"type": "t_uint256"
					},
					{
						"astId": 734,
						"contract": "EnglishAuction.sol:English",
						"label": "bidder",
						"offset": 0,
						"slot": "2",
						"type": "t_address_payable"
					},
					{
						"astId": 736,
						"contract": "EnglishAuction.sol:English",
						"label": "bid",
						"offset": 0,
						"slot": "3",
						"type": "t_uint256"
					},
					{
						"astId": 740,
						"contract": "EnglishAuction.sol:English",
						"label": "bids",
						"offset": 0,
						"slot": "4",
						"type": "t_mapping(t_address,t_uint256)"
					}
				],
				"types": {
					"t_address": {
						"encoding": "inplace",
						"label": "address",
						"numberOfBytes": "20"
					},
					"t_address_payable": {
						"encoding": "inplace",
						"label": "address payable",
						"numberOfBytes": "20"
					},
					"t_bool": {
						"encoding": "inplace",
						"label": "bool",
						"numberOfBytes": "1"
					},
					"t_mapping(t_address,t_uint256)": {
						"encoding": "mapping",
						"key": "t_address",
						"label": "mapping(address => uint256)",
						"numberOfBytes": "32",
						"value": "t_uint256"
					},
					"t_uint256": {
						"encoding": "inplace",
						"label": "uint256",
						"numberOfBytes": "32"
					},
					"t_uint32": {
						"encoding": "inplace",
						"label": "uint32",
						"numberOfBytes": "4"
					}
				}
			},
			"userdoc": {
				"kind": "user",
				"methods": {},
				"version": 1
			}
		}
	}
}