{
	"Inheritance.sol": {
		"A": {
			"abi": [
				{
					"constant": false,
					"inputs": [],
					"name": "f",
					"outputs": [],
					"payable": false,
					"stateMutability": "nonpayable",
					"type": "function"
				},
				{
					"constant": false,
					"inputs": [],
					"name": "f2",
					"outputs": [],
					"payable": false,
					"stateMutability": "nonpayable",
					"type": "function"
				},
				{
					"constant": false,
					"inputs": [],
					"name": "f3",
					"outputs": [],
					"payable": false,
					"stateMutability": "nonpayable",
					"type": "function"
				},
				{
					"constant": false,
					"inputs": [],
					"name": "f1",
					"outputs": [],
					"payable": false,
					"stateMutability": "nonpayable",
					"type": "function"
				}
			],
			"devdoc": {
				"methods": {}
			},
			"evm": {
				"assembly": "    /* \"Inheritance.sol\":136:367  contract A is B {... */\n  mstore(0x40, 0x80)\n  callvalue\n    /* \"--CODEGEN--\":8:17   */\n  dup1\n    /* \"--CODEGEN--\":5:7   */\n  iszero\n  tag_1\n  jumpi\n    /* \"--CODEGEN--\":30:31   */\n  0x0\n    /* \"--CODEGEN--\":27:28   */\n  dup1\n    /* \"--CODEGEN--\":20:32   */\n  revert\n    /* \"--CODEGEN--\":5:7   */\ntag_1:\n    /* \"Inheritance.sol\":136:367  contract A is B {... */\n  pop\n  dataSize(sub_0)\n  dup1\n  dataOffset(sub_0)\n  0x0\n  codecopy\n  0x0\n  return\nstop\n\nsub_0: assembly {\n        /* \"Inheritance.sol\":136:367  contract A is B {... */\n      mstore(0x40, 0x80)\n      jumpi(tag_1, lt(calldatasize, 0x4))\n      calldataload(0x0)\n      0x100000000000000000000000000000000000000000000000000000000\n      swap1\n      div\n      0xffffffff\n      and\n      dup1\n      0x26121ff0\n      eq\n      tag_2\n      jumpi\n      dup1\n      0x9942ec6f\n      eq\n      tag_3\n      jumpi\n      dup1\n      0xaaf05f3d\n      eq\n      tag_4\n      jumpi\n      dup1\n      0xc27fc305\n      eq\n      tag_5\n      jumpi\n    tag_1:\n      0x0\n      dup1\n      revert\n        /* \"Inheritance.sol\":156:205  function f() {  // will set u to 3... */\n    tag_2:\n      callvalue\n        /* \"--CODEGEN--\":8:17   */\n      dup1\n        /* \"--CODEGEN--\":5:7   */\n      iszero\n      tag_6\n      jumpi\n        /* \"--CODEGEN--\":30:31   */\n      0x0\n        /* \"--CODEGEN--\":27:28   */\n      dup1\n        /* \"--CODEGEN--\":20:32   */\n      revert\n        /* \"--CODEGEN--\":5:7   */\n    tag_6:\n        /* \"Inheritance.sol\":156:205  function f() {  // will set u to 3... */\n      pop\n      tag_7\n      jump(tag_8)\n    tag_7:\n      stop\n        /* \"Inheritance.sol\":264:313  function f2() { // will set u to 2... */\n    tag_3:\n      callvalue\n        /* \"--CODEGEN--\":8:17   */\n      dup1\n        /* \"--CODEGEN--\":5:7   */\n      iszero\n      tag_9\n      jumpi\n        /* \"--CODEGEN--\":30:31   */\n      0x0\n        /* \"--CODEGEN--\":27:28   */\n      dup1\n        /* \"--CODEGEN--\":20:32   */\n      revert\n        /* \"--CODEGEN--\":5:7   */\n    tag_9:\n        /* \"Inheritance.sol\":264:313  function f2() { // will set u to 2... */\n      pop\n      tag_10\n      jump(tag_11)\n    tag_10:\n      stop\n        /* \"Inheritance.sol\":316:365  function f3() { // will set u to 1... */\n    tag_4:\n      callvalue\n        /* \"--CODEGEN--\":8:17   */\n      dup1\n        /* \"--CODEGEN--\":5:7   */\n      iszero\n      tag_12\n      jumpi\n        /* \"--CODEGEN--\":30:31   */\n      0x0\n        /* \"--CODEGEN--\":27:28   */\n      dup1\n        /* \"--CODEGEN--\":20:32   */\n      revert\n        /* \"--CODEGEN--\":5:7   */\n    tag_12:\n        /* \"Inheritance.sol\":316:365  function f3() { // will set u to 1... */\n      pop\n      tag_13\n      jump(tag_14)\n    tag_13:\n      stop\n        /* \"Inheritance.sol\":208:261  function f1() { // will set u to 2... */\n    tag_5:\n      callvalue\n        /* \"--CODEGEN--\":8:17   */\n      dup1\n        /* \"--CODEGEN--\":5:7   */\n      iszero\n      tag_15\n      jumpi\n        /* \"--CODEGEN--\":30:31   */\n      0x0\n        /* \"--CODEGEN--\":27:28   */\n      dup1\n        /* \"--CODEGEN--\":20:32   */\n      revert\n        /* \"--CODEGEN--\":5:7   */\n    tag_15:\n        /* \"Inheritance.sol\":208:261  function f1() { // will set u to 2... */\n      pop\n      tag_16\n      jump(tag_17)\n    tag_16:\n      stop\n        /* \"Inheritance.sol\":156:205  function f() {  // will set u to 3... */\n    tag_8:\n        /* \"Inheritance.sol\":199:200  3 */\n      0x3\n        /* \"Inheritance.sol\":195:196  u */\n      0x0\n        /* \"Inheritance.sol\":195:200  u = 3 */\n      dup2\n      swap1\n      sstore\n      pop\n        /* \"Inheritance.sol\":156:205  function f() {  // will set u to 3... */\n      jump\t// out\n        /* \"Inheritance.sol\":264:313  function f2() { // will set u to 2... */\n    tag_11:\n        /* \"Inheritance.sol\":303:308  B.f() */\n      tag_20\n        /* \"Inheritance.sol\":303:306  B.f */\n      tag_21\n        /* \"Inheritance.sol\":303:308  B.f() */\n      jump\t// in\n    tag_20:\n        /* \"Inheritance.sol\":264:313  function f2() { // will set u to 2... */\n      jump\t// out\n        /* \"Inheritance.sol\":316:365  function f3() { // will set u to 1... */\n    tag_14:\n        /* \"Inheritance.sol\":355:360  C.f() */\n      tag_23\n        /* \"Inheritance.sol\":355:358  C.f */\n      tag_24\n        /* \"Inheritance.sol\":355:360  C.f() */\n      jump\t// in\n    tag_23:\n        /* \"Inheritance.sol\":316:365  function f3() { // will set u to 1... */\n      jump\t// out\n        /* \"Inheritance.sol\":208:261  function f1() { // will set u to 2... */\n    tag_17:\n        /* \"Inheritance.sol\":247:256  super.f() */\n      tag_26\n        /* \"Inheritance.sol\":247:254  super.f */\n      tag_21\n        /* \"Inheritance.sol\":247:256  super.f() */\n      jump\t// in\n    tag_26:\n        /* \"Inheritance.sol\":208:261  function f1() { // will set u to 2... */\n      jump\t// out\n        /* \"Inheritance.sol\":103:132  function f() {... */\n    tag_21:\n        /* \"Inheritance.sol\":126:127  2 */\n      0x2\n        /* \"Inheritance.sol\":122:123  u */\n      0x0\n        /* \"Inheritance.sol\":122:127  u = 2 */\n      dup2\n      swap1\n      sstore\n      pop\n        /* \"Inheritance.sol\":103:132  function f() {... */\n      jump\t// out\n        /* \"Inheritance.sol\":50:79  function f() {... */\n    tag_24:\n        /* \"Inheritance.sol\":73:74  1 */\n      0x1\n        /* \"Inheritance.sol\":69:70  u */\n      0x0\n        /* \"Inheritance.sol\":69:74  u = 1 */\n      dup2\n      swap1\n      sstore\n      pop\n        /* \"Inheritance.sol\":50:79  function f() {... */\n      jump\t// out\n\n    auxdata: 0xa165627a7a723058204b918a5090a995d25b9b56e3434a61c906ab423818bc7efda0ae1a0e09c00e180029\n}\n",
				"bytecode": {
					"linkReferences": {},
					"object": "608060405234801561001057600080fd5b50610114806100206000396000f300608060405260043610605d576000357c0100000000000000000000000000000000000000000000000000000000900463ffffffff16806326121ff01460625780639942ec6f146076578063aaf05f3d14608a578063c27fc30514609e575b600080fd5b348015606d57600080fd5b50607460b2565b005b348015608157600080fd5b50608860bc565b005b348015609557600080fd5b50609c60c4565b005b34801560a957600080fd5b5060b060cc565b005b6003600081905550565b60c260d4565b565b60ca60de565b565b60d260d4565b565b6002600081905550565b60016000819055505600a165627a7a723058204b918a5090a995d25b9b56e3434a61c906ab423818bc7efda0ae1a0e09c00e180029",
					"opcodes": "PUSH1 0x80 PUSH1 0x40 MSTORE CALLVALUE DUP1 ISZERO PUSH2 0x10 JUMPI PUSH1 0x0 DUP1 REVERT JUMPDEST POP PUSH2 0x114 DUP1 PUSH2 0x20 PUSH1 0x0 CODECOPY PUSH1 0x0 RETURN STOP PUSH1 0x80 PUSH1 0x40 MSTORE PUSH1 0x4 CALLDATASIZE LT PUSH1 0x5D JUMPI PUSH1 0x0 CALLDATALOAD PUSH29 0x100000000000000000000000000000000000000000000000000000000 SWAP1 DIV PUSH4 0xFFFFFFFF AND DUP1 PUSH4 0x26121FF0 EQ PUSH1 0x62 JUMPI DUP1 PUSH4 0x9942EC6F EQ PUSH1 0x76 JUMPI DUP1 PUSH4 0xAAF05F3D EQ PUSH1 0x8A JUMPI DUP1 PUSH4 0xC27FC305 EQ PUSH1 0x9E JUMPI JUMPDEST PUSH1 0x0 DUP1 REVERT JUMPDEST CALLVALUE DUP1 ISZERO PUSH1 0x6D JUMPI PUSH1 0x0 DUP1 REVERT JUMPDEST POP PUSH1 0x74 PUSH1 0xB2 JUMP JUMPDEST STOP JUMPDEST CALLVALUE DUP1 ISZERO PUSH1 0x81 JUMPI PUSH1 0x0 DUP1 REVERT JUMPDEST POP PUSH1 0x88 PUSH1 0xBC JUMP JUMPDEST STOP JUMPDEST CALLVALUE DUP1 ISZERO PUSH1 0x95 JUMPI PUSH1 0x0 DUP1 REVERT JUMPDEST POP PUSH1 0x9C PUSH1 0xC4 JUMP JUMPDEST STOP JUMPDEST CALLVALUE DUP1 ISZERO PUSH1 0xA9 JUMPI PUSH1 0x0 DUP1 REVERT JUMPDEST POP PUSH1 0xB0 PUSH1 0xCC JUMP JUMPDEST STOP JUMPDEST PUSH1 0x3 PUSH1 0x0 DUP2 SWAP1 SSTORE POP JUMP JUMPDEST PUSH1 0xC2 PUSH1 0xD4 JUMP JUMPDEST JUMP JUMPDEST PUSH1 0xCA PUSH1 0xDE JUMP JUMPDEST JUMP JUMPDEST PUSH1 0xD2 PUSH1 0xD4 JUMP JUMPDEST JUMP JUMPDEST PUSH1 0x2 PUSH1 0x0 DUP2 SWAP1 SSTORE POP JUMP JUMPDEST PUSH1 0x1 PUSH1 0x0 DUP2 SWAP1 SSTORE POP JUMP STOP LOG1 PUSH6 0x627A7A723058 KECCAK256 0x4b SWAP2 DUP11 POP SWAP1 0xa9 SWAP6 0xd2 JUMPDEST SWAP12 JUMP 0xe3 NUMBER 0x4a PUSH2 0xC906 0xab TIMESTAMP CODESIZE XOR 0xbc PUSH31 0xFDA0AE1A0E09C00E1800290000000000000000000000000000000000000000 "
				},
				"gasEstimates": {
					"creation": {
						"codeDepositCost": "55200",
						"executionCost": "105",
						"totalCost": "55305"
					},
					"external": {
						"f()": "20147",
						"f1()": "20237",
						"f2()": "20193",
						"f3()": "20215"
					}
				},
				"methodIdentifiers": {
					"f()": "26121ff0",
					"f1()": "c27fc305",
					"f2()": "9942ec6f",
					"f3()": "aaf05f3d"
				}
			},
			"userdoc": {
				"methods": {}
			}
		}
	}
}