{
	"Documents/dev/Lime/contracts/Ownable.sol": {
		"Ownable": {
			"abi": [
				{
					"inputs": [],
					"stateMutability": "nonpayable",
					"type": "constructor"
				},
				{
					"inputs": [],
					"name": "assigned",
					"outputs": [
						{
							"internalType": "uint256",
							"name": "i",
							"type": "uint256"
						},
						{
							"internalType": "bool",
							"name": "b",
							"type": "bool"
						}
					],
					"stateMutability": "pure",
					"type": "function"
				},
				{
					"inputs": [],
					"name": "everyone",
					"outputs": [],
					"stateMutability": "nonpayable",
					"type": "function"
				},
				{
					"inputs": [],
					"name": "onlyOwner",
					"outputs": [],
					"stateMutability": "nonpayable",
					"type": "function"
				},
				{
					"inputs": [],
					"name": "owner",
					"outputs": [
						{
							"internalType": "address",
							"name": "",
							"type": "address"
						}
					],
					"stateMutability": "view",
					"type": "function"
				},
				{
					"inputs": [
						{
							"internalType": "address",
							"name": "_newOwner",
							"type": "address"
						}
					],
					"name": "setOwner",
					"outputs": [],
					"stateMutability": "nonpayable",
					"type": "function"
				}
			],
			"devdoc": {
				"kind": "dev",
				"methods": {},
				"version": 1
			},
			"evm": {
				"assembly": "    /* \"Documents/dev/Lime/contracts/Ownable.sol\":57:593  contract Ownable{... */\n  mstore(0x40, 0x80)\n    /* \"Documents/dev/Lime/contracts/Ownable.sol\":106:154  constructor(){... */\n  callvalue\n  dup1\n  iszero\n  tag_1\n  jumpi\n  0x00\n  dup1\n  revert\ntag_1:\n  pop\n    /* \"Documents/dev/Lime/contracts/Ownable.sol\":137:147  msg.sender */\n  caller\n    /* \"Documents/dev/Lime/contracts/Ownable.sol\":129:134  owner */\n  0x00\n  dup1\n    /* \"Documents/dev/Lime/contracts/Ownable.sol\":129:147  owner = msg.sender */\n  0x0100\n  exp\n  dup2\n  sload\n  dup2\n  0xffffffffffffffffffffffffffffffffffffffff\n  mul\n  not\n  and\n  swap1\n  dup4\n  0xffffffffffffffffffffffffffffffffffffffff\n  and\n  mul\n  or\n  swap1\n  sstore\n  pop\n    /* \"Documents/dev/Lime/contracts/Ownable.sol\":57:593  contract Ownable{... */\n  dataSize(sub_0)\n  dup1\n  dataOffset(sub_0)\n  0x00\n  codecopy\n  0x00\n  return\nstop\n\nsub_0: assembly {\n        /* \"Documents/dev/Lime/contracts/Ownable.sol\":57:593  contract Ownable{... */\n      mstore(0x40, 0x80)\n      callvalue\n      dup1\n      iszero\n      tag_1\n      jumpi\n      0x00\n      dup1\n      revert\n    tag_1:\n      pop\n      jumpi(tag_2, lt(calldatasize, 0x04))\n      shr(0xe0, calldataload(0x00))\n      dup1\n      0x1036e0a8\n      eq\n      tag_3\n      jumpi\n      dup1\n      0x13af4035\n      eq\n      tag_4\n      jumpi\n      dup1\n      0x8da5cb5b\n      eq\n      tag_5\n      jumpi\n      dup1\n      0xadb4d990\n      eq\n      tag_6\n      jumpi\n      dup1\n      0xcb23e6d7\n      eq\n      tag_7\n      jumpi\n    tag_2:\n      0x00\n      dup1\n      revert\n        /* \"Documents/dev/Lime/contracts/Ownable.sol\":403:448  function onlyOwner() external IsOwner{... */\n    tag_3:\n      tag_8\n      tag_9\n      jump\t// in\n    tag_8:\n      stop\n        /* \"Documents/dev/Lime/contracts/Ownable.sol\":251:397  function setOwner(address _newOwner) external IsOwner{... */\n    tag_4:\n      tag_10\n      0x04\n      dup1\n      calldatasize\n      sub\n      dup2\n      add\n      swap1\n      tag_11\n      swap2\n      swap1\n      tag_12\n      jump\t// in\n    tag_11:\n      tag_13\n      jump\t// in\n    tag_10:\n      stop\n        /* \"Documents/dev/Lime/contracts/Ownable.sol\":80:100  address public owner */\n    tag_5:\n      tag_14\n      tag_15\n      jump\t// in\n    tag_14:\n      mload(0x40)\n      tag_16\n      swap2\n      swap1\n      tag_17\n      jump\t// in\n    tag_16:\n      mload(0x40)\n      dup1\n      swap2\n      sub\n      swap1\n      return\n        /* \"Documents/dev/Lime/contracts/Ownable.sol\":496:591  function assigned() external pure returns (uint i,bool b){... */\n    tag_6:\n      tag_18\n      tag_19\n      jump\t// in\n    tag_18:\n      mload(0x40)\n      tag_20\n      swap3\n      swap2\n      swap1\n      tag_21\n      jump\t// in\n    tag_20:\n      mload(0x40)\n      dup1\n      swap2\n      sub\n      swap1\n      return\n        /* \"Documents/dev/Lime/contracts/Ownable.sol\":453:490  function everyone() external {... */\n    tag_7:\n      tag_22\n      tag_23\n      jump\t// in\n    tag_22:\n      stop\n        /* \"Documents/dev/Lime/contracts/Ownable.sol\":403:448  function onlyOwner() external IsOwner{... */\n    tag_9:\n        /* \"Documents/dev/Lime/contracts/Ownable.sol\":208:213  owner */\n      0x00\n      dup1\n      sload\n      swap1\n      0x0100\n      exp\n      swap1\n      div\n      0xffffffffffffffffffffffffffffffffffffffff\n      and\n        /* \"Documents/dev/Lime/contracts/Ownable.sol\":196:213  msg.sender==owner */\n      0xffffffffffffffffffffffffffffffffffffffff\n      and\n        /* \"Documents/dev/Lime/contracts/Ownable.sol\":196:206  msg.sender */\n      caller\n        /* \"Documents/dev/Lime/contracts/Ownable.sol\":196:213  msg.sender==owner */\n      0xffffffffffffffffffffffffffffffffffffffff\n      and\n      eq\n        /* \"Documents/dev/Lime/contracts/Ownable.sol\":188:227  require(msg.sender==owner, \"not owner\") */\n      tag_25\n      jumpi\n      mload(0x40)\n      0x08c379a000000000000000000000000000000000000000000000000000000000\n      dup2\n      mstore\n      0x04\n      add\n      tag_26\n      swap1\n      tag_27\n      jump\t// in\n    tag_26:\n      mload(0x40)\n      dup1\n      swap2\n      sub\n      swap1\n      revert\n    tag_25:\n        /* \"Documents/dev/Lime/contracts/Ownable.sol\":403:448  function onlyOwner() external IsOwner{... */\n      jump\t// out\n        /* \"Documents/dev/Lime/contracts/Ownable.sol\":251:397  function setOwner(address _newOwner) external IsOwner{... */\n    tag_13:\n        /* \"Documents/dev/Lime/contracts/Ownable.sol\":208:213  owner */\n      0x00\n      dup1\n      sload\n      swap1\n      0x0100\n      exp\n      swap1\n      div\n      0xffffffffffffffffffffffffffffffffffffffff\n      and\n        /* \"Documents/dev/Lime/contracts/Ownable.sol\":196:213  msg.sender==owner */\n      0xffffffffffffffffffffffffffffffffffffffff\n      and\n        /* \"Documents/dev/Lime/contracts/Ownable.sol\":196:206  msg.sender */\n      caller\n        /* \"Documents/dev/Lime/contracts/Ownable.sol\":196:213  msg.sender==owner */\n      0xffffffffffffffffffffffffffffffffffffffff\n      and\n      eq\n        /* \"Documents/dev/Lime/contracts/Ownable.sol\":188:227  require(msg.sender==owner, \"not owner\") */\n      tag_30\n      jumpi\n      mload(0x40)\n      0x08c379a000000000000000000000000000000000000000000000000000000000\n      dup2\n      mstore\n      0x04\n      add\n      tag_31\n      swap1\n      tag_27\n      jump\t// in\n    tag_31:\n      mload(0x40)\n      dup1\n      swap2\n      sub\n      swap1\n      revert\n    tag_30:\n        /* \"Documents/dev/Lime/contracts/Ownable.sol\":341:342  0 */\n      0x00\n        /* \"Documents/dev/Lime/contracts/Ownable.sol\":322:343  _newOwner!=address(0) */\n      0xffffffffffffffffffffffffffffffffffffffff\n      and\n        /* \"Documents/dev/Lime/contracts/Ownable.sol\":322:331  _newOwner */\n      dup2\n        /* \"Documents/dev/Lime/contracts/Ownable.sol\":322:343  _newOwner!=address(0) */\n      0xffffffffffffffffffffffffffffffffffffffff\n      and\n      eq\n      iszero\n        /* \"Documents/dev/Lime/contracts/Ownable.sol\":314:363  require(_newOwner!=address(0), \"invalid address\") */\n      tag_33\n      jumpi\n      mload(0x40)\n      0x08c379a000000000000000000000000000000000000000000000000000000000\n      dup2\n      mstore\n      0x04\n      add\n      tag_34\n      swap1\n      tag_35\n      jump\t// in\n    tag_34:\n      mload(0x40)\n      dup1\n      swap2\n      sub\n      swap1\n      revert\n    tag_33:\n        /* \"Documents/dev/Lime/contracts/Ownable.sol\":381:390  _newOwner */\n      dup1\n        /* \"Documents/dev/Lime/contracts/Ownable.sol\":373:378  owner */\n      0x00\n      dup1\n        /* \"Documents/dev/Lime/contracts/Ownable.sol\":373:390  owner = _newOwner */\n      0x0100\n      exp\n      dup2\n      sload\n      dup2\n      0xffffffffffffffffffffffffffffffffffffffff\n      mul\n      not\n      and\n      swap1\n      dup4\n      0xffffffffffffffffffffffffffffffffffffffff\n      and\n      mul\n      or\n      swap1\n      sstore\n      pop\n        /* \"Documents/dev/Lime/contracts/Ownable.sol\":251:397  function setOwner(address _newOwner) external IsOwner{... */\n      pop\n      jump\t// out\n        /* \"Documents/dev/Lime/contracts/Ownable.sol\":80:100  address public owner */\n    tag_15:\n      0x00\n      dup1\n      sload\n      swap1\n      0x0100\n      exp\n      swap1\n      div\n      0xffffffffffffffffffffffffffffffffffffffff\n      and\n      dup2\n      jump\t// out\n        /* \"Documents/dev/Lime/contracts/Ownable.sol\":496:591  function assigned() external pure returns (uint i,bool b){... */\n    tag_19:\n        /* \"Documents/dev/Lime/contracts/Ownable.sol\":539:545  uint i */\n      0x00\n        /* \"Documents/dev/Lime/contracts/Ownable.sol\":546:552  bool b */\n      dup1\n        /* \"Documents/dev/Lime/contracts/Ownable.sol\":565:567  10 */\n      0x0a\n        /* \"Documents/dev/Lime/contracts/Ownable.sol\":563:567  i=10 */\n      swap2\n      pop\n        /* \"Documents/dev/Lime/contracts/Ownable.sol\":579:584  false */\n      0x00\n        /* \"Documents/dev/Lime/contracts/Ownable.sol\":577:584  b=false */\n      swap1\n      pop\n        /* \"Documents/dev/Lime/contracts/Ownable.sol\":496:591  function assigned() external pure returns (uint i,bool b){... */\n      swap1\n      swap2\n      jump\t// out\n        /* \"Documents/dev/Lime/contracts/Ownable.sol\":453:490  function everyone() external {... */\n    tag_23:\n      jump\t// out\n        /* \"#utility.yul\":7:146   */\n    tag_39:\n        /* \"#utility.yul\":53:58   */\n      0x00\n        /* \"#utility.yul\":91:97   */\n      dup2\n        /* \"#utility.yul\":78:98   */\n      calldataload\n        /* \"#utility.yul\":69:98   */\n      swap1\n      pop\n        /* \"#utility.yul\":107:140   */\n      tag_41\n        /* \"#utility.yul\":134:139   */\n      dup2\n        /* \"#utility.yul\":107:140   */\n      tag_42\n      jump\t// in\n    tag_41:\n        /* \"#utility.yul\":7:146   */\n      swap3\n      swap2\n      pop\n      pop\n      jump\t// out\n        /* \"#utility.yul\":152:481   */\n    tag_12:\n        /* \"#utility.yul\":211:217   */\n      0x00\n        /* \"#utility.yul\":260:262   */\n      0x20\n        /* \"#utility.yul\":248:257   */\n      dup3\n        /* \"#utility.yul\":239:246   */\n      dup5\n        /* \"#utility.yul\":235:258   */\n      sub\n        /* \"#utility.yul\":231:263   */\n      slt\n        /* \"#utility.yul\":228:347   */\n      iszero\n      tag_44\n      jumpi\n        /* \"#utility.yul\":266:345   */\n      tag_45\n      tag_46\n      jump\t// in\n    tag_45:\n        /* \"#utility.yul\":228:347   */\n    tag_44:\n        /* \"#utility.yul\":386:387   */\n      0x00\n        /* \"#utility.yul\":411:464   */\n      tag_47\n        /* \"#utility.yul\":456:463   */\n      dup5\n        /* \"#utility.yul\":447:453   */\n      dup3\n        /* \"#utility.yul\":436:445   */\n      dup6\n        /* \"#utility.yul\":432:454   */\n      add\n        /* \"#utility.yul\":411:464   */\n      tag_39\n      jump\t// in\n    tag_47:\n        /* \"#utility.yul\":401:464   */\n      swap2\n      pop\n        /* \"#utility.yul\":357:474   */\n      pop\n        /* \"#utility.yul\":152:481   */\n      swap3\n      swap2\n      pop\n      pop\n      jump\t// out\n        /* \"#utility.yul\":487:605   */\n    tag_48:\n        /* \"#utility.yul\":574:598   */\n      tag_50\n        /* \"#utility.yul\":592:597   */\n      dup2\n        /* \"#utility.yul\":574:598   */\n      tag_51\n      jump\t// in\n    tag_50:\n        /* \"#utility.yul\":569:572   */\n      dup3\n        /* \"#utility.yul\":562:599   */\n      mstore\n        /* \"#utility.yul\":487:605   */\n      pop\n      pop\n      jump\t// out\n        /* \"#utility.yul\":611:720   */\n    tag_52:\n        /* \"#utility.yul\":692:713   */\n      tag_54\n        /* \"#utility.yul\":707:712   */\n      dup2\n        /* \"#utility.yul\":692:713   */\n      tag_55\n      jump\t// in\n    tag_54:\n        /* \"#utility.yul\":687:690   */\n      dup3\n        /* \"#utility.yul\":680:714   */\n      mstore\n        /* \"#utility.yul\":611:720   */\n      pop\n      pop\n      jump\t// out\n        /* \"#utility.yul\":726:1092   */\n    tag_56:\n        /* \"#utility.yul\":868:871   */\n      0x00\n        /* \"#utility.yul\":889:956   */\n      tag_58\n        /* \"#utility.yul\":953:955   */\n      0x0f\n        /* \"#utility.yul\":948:951   */\n      dup4\n        /* \"#utility.yul\":889:956   */\n      tag_59\n      jump\t// in\n    tag_58:\n        /* \"#utility.yul\":882:956   */\n      swap2\n      pop\n        /* \"#utility.yul\":965:1058   */\n      tag_60\n        /* \"#utility.yul\":1054:1057   */\n      dup3\n        /* \"#utility.yul\":965:1058   */\n      tag_61\n      jump\t// in\n    tag_60:\n        /* \"#utility.yul\":1083:1085   */\n      0x20\n        /* \"#utility.yul\":1078:1081   */\n      dup3\n        /* \"#utility.yul\":1074:1086   */\n      add\n        /* \"#utility.yul\":1067:1086   */\n      swap1\n      pop\n        /* \"#utility.yul\":726:1092   */\n      swap2\n      swap1\n      pop\n      jump\t// out\n        /* \"#utility.yul\":1098:1463   */\n    tag_62:\n        /* \"#utility.yul\":1240:1243   */\n      0x00\n        /* \"#utility.yul\":1261:1327   */\n      tag_64\n        /* \"#utility.yul\":1325:1326   */\n      0x09\n        /* \"#utility.yul\":1320:1323   */\n      dup4\n        /* \"#utility.yul\":1261:1327   */\n      tag_59\n      jump\t// in\n    tag_64:\n        /* \"#utility.yul\":1254:1327   */\n      swap2\n      pop\n        /* \"#utility.yul\":1336:1429   */\n      tag_65\n        /* \"#utility.yul\":1425:1428   */\n      dup3\n        /* \"#utility.yul\":1336:1429   */\n      tag_66\n      jump\t// in\n    tag_65:\n        /* \"#utility.yul\":1454:1456   */\n      0x20\n        /* \"#utility.yul\":1449:1452   */\n      dup3\n        /* \"#utility.yul\":1445:1457   */\n      add\n        /* \"#utility.yul\":1438:1457   */\n      swap1\n      pop\n        /* \"#utility.yul\":1098:1463   */\n      swap2\n      swap1\n      pop\n      jump\t// out\n        /* \"#utility.yul\":1469:1587   */\n    tag_67:\n        /* \"#utility.yul\":1556:1580   */\n      tag_69\n        /* \"#utility.yul\":1574:1579   */\n      dup2\n        /* \"#utility.yul\":1556:1580   */\n      tag_70\n      jump\t// in\n    tag_69:\n        /* \"#utility.yul\":1551:1554   */\n      dup3\n        /* \"#utility.yul\":1544:1581   */\n      mstore\n        /* \"#utility.yul\":1469:1587   */\n      pop\n      pop\n      jump\t// out\n        /* \"#utility.yul\":1593:1815   */\n    tag_17:\n        /* \"#utility.yul\":1686:1690   */\n      0x00\n        /* \"#utility.yul\":1724:1726   */\n      0x20\n        /* \"#utility.yul\":1713:1722   */\n      dup3\n        /* \"#utility.yul\":1709:1727   */\n      add\n        /* \"#utility.yul\":1701:1727   */\n      swap1\n      pop\n        /* \"#utility.yul\":1737:1808   */\n      tag_72\n        /* \"#utility.yul\":1805:1806   */\n      0x00\n        /* \"#utility.yul\":1794:1803   */\n      dup4\n        /* \"#utility.yul\":1790:1807   */\n      add\n        /* \"#utility.yul\":1781:1787   */\n      dup5\n        /* \"#utility.yul\":1737:1808   */\n      tag_48\n      jump\t// in\n    tag_72:\n        /* \"#utility.yul\":1593:1815   */\n      swap3\n      swap2\n      pop\n      pop\n      jump\t// out\n        /* \"#utility.yul\":1821:2240   */\n    tag_35:\n        /* \"#utility.yul\":1987:1991   */\n      0x00\n        /* \"#utility.yul\":2025:2027   */\n      0x20\n        /* \"#utility.yul\":2014:2023   */\n      dup3\n        /* \"#utility.yul\":2010:2028   */\n      add\n        /* \"#utility.yul\":2002:2028   */\n      swap1\n      pop\n        /* \"#utility.yul\":2074:2083   */\n      dup2\n        /* \"#utility.yul\":2068:2072   */\n      dup2\n        /* \"#utility.yul\":2064:2084   */\n      sub\n        /* \"#utility.yul\":2060:2061   */\n      0x00\n        /* \"#utility.yul\":2049:2058   */\n      dup4\n        /* \"#utility.yul\":2045:2062   */\n      add\n        /* \"#utility.yul\":2038:2085   */\n      mstore\n        /* \"#utility.yul\":2102:2233   */\n      tag_74\n        /* \"#utility.yul\":2228:2232   */\n      dup2\n        /* \"#utility.yul\":2102:2233   */\n      tag_56\n      jump\t// in\n    tag_74:\n        /* \"#utility.yul\":2094:2233   */\n      swap1\n      pop\n        /* \"#utility.yul\":1821:2240   */\n      swap2\n      swap1\n      pop\n      jump\t// out\n        /* \"#utility.yul\":2246:2665   */\n    tag_27:\n        /* \"#utility.yul\":2412:2416   */\n      0x00\n        /* \"#utility.yul\":2450:2452   */\n      0x20\n        /* \"#utility.yul\":2439:2448   */\n      dup3\n        /* \"#utility.yul\":2435:2453   */\n      add\n        /* \"#utility.yul\":2427:2453   */\n      swap1\n      pop\n        /* \"#utility.yul\":2499:2508   */\n      dup2\n        /* \"#utility.yul\":2493:2497   */\n      dup2\n        /* \"#utility.yul\":2489:2509   */\n      sub\n        /* \"#utility.yul\":2485:2486   */\n      0x00\n        /* \"#utility.yul\":2474:2483   */\n      dup4\n        /* \"#utility.yul\":2470:2487   */\n      add\n        /* \"#utility.yul\":2463:2510   */\n      mstore\n        /* \"#utility.yul\":2527:2658   */\n      tag_76\n        /* \"#utility.yul\":2653:2657   */\n      dup2\n        /* \"#utility.yul\":2527:2658   */\n      tag_62\n      jump\t// in\n    tag_76:\n        /* \"#utility.yul\":2519:2658   */\n      swap1\n      pop\n        /* \"#utility.yul\":2246:2665   */\n      swap2\n      swap1\n      pop\n      jump\t// out\n        /* \"#utility.yul\":2671:2991   */\n    tag_21:\n        /* \"#utility.yul\":2786:2790   */\n      0x00\n        /* \"#utility.yul\":2824:2826   */\n      0x40\n        /* \"#utility.yul\":2813:2822   */\n      dup3\n        /* \"#utility.yul\":2809:2827   */\n      add\n        /* \"#utility.yul\":2801:2827   */\n      swap1\n      pop\n        /* \"#utility.yul\":2837:2908   */\n      tag_78\n        /* \"#utility.yul\":2905:2906   */\n      0x00\n        /* \"#utility.yul\":2894:2903   */\n      dup4\n        /* \"#utility.yul\":2890:2907   */\n      add\n        /* \"#utility.yul\":2881:2887   */\n      dup6\n        /* \"#utility.yul\":2837:2908   */\n      tag_67\n      jump\t// in\n    tag_78:\n        /* \"#utility.yul\":2918:2984   */\n      tag_79\n        /* \"#utility.yul\":2980:2982   */\n      0x20\n        /* \"#utility.yul\":2969:2978   */\n      dup4\n        /* \"#utility.yul\":2965:2983   */\n      add\n        /* \"#utility.yul\":2956:2962   */\n      dup5\n        /* \"#utility.yul\":2918:2984   */\n      tag_52\n      jump\t// in\n    tag_79:\n        /* \"#utility.yul\":2671:2991   */\n      swap4\n      swap3\n      pop\n      pop\n      pop\n      jump\t// out\n        /* \"#utility.yul\":3078:3247   */\n    tag_59:\n        /* \"#utility.yul\":3162:3173   */\n      0x00\n        /* \"#utility.yul\":3196:3202   */\n      dup3\n        /* \"#utility.yul\":3191:3194   */\n      dup3\n        /* \"#utility.yul\":3184:3203   */\n      mstore\n        /* \"#utility.yul\":3236:3240   */\n      0x20\n        /* \"#utility.yul\":3231:3234   */\n      dup3\n        /* \"#utility.yul\":3227:3241   */\n      add\n        /* \"#utility.yul\":3212:3241   */\n      swap1\n      pop\n        /* \"#utility.yul\":3078:3247   */\n      swap3\n      swap2\n      pop\n      pop\n      jump\t// out\n        /* \"#utility.yul\":3253:3349   */\n    tag_51:\n        /* \"#utility.yul\":3290:3297   */\n      0x00\n        /* \"#utility.yul\":3319:3343   */\n      tag_84\n        /* \"#utility.yul\":3337:3342   */\n      dup3\n        /* \"#utility.yul\":3319:3343   */\n      tag_85\n      jump\t// in\n    tag_84:\n        /* \"#utility.yul\":3308:3343   */\n      swap1\n      pop\n        /* \"#utility.yul\":3253:3349   */\n      swap2\n      swap1\n      pop\n      jump\t// out\n        /* \"#utility.yul\":3355:3445   */\n    tag_55:\n        /* \"#utility.yul\":3389:3396   */\n      0x00\n        /* \"#utility.yul\":3432:3437   */\n      dup2\n        /* \"#utility.yul\":3425:3438   */\n      iszero\n        /* \"#utility.yul\":3418:3439   */\n      iszero\n        /* \"#utility.yul\":3407:3439   */\n      swap1\n      pop\n        /* \"#utility.yul\":3355:3445   */\n      swap2\n      swap1\n      pop\n      jump\t// out\n        /* \"#utility.yul\":3451:3577   */\n    tag_85:\n        /* \"#utility.yul\":3488:3495   */\n      0x00\n        /* \"#utility.yul\":3528:3570   */\n      0xffffffffffffffffffffffffffffffffffffffff\n        /* \"#utility.yul\":3521:3526   */\n      dup3\n        /* \"#utility.yul\":3517:3571   */\n      and\n        /* \"#utility.yul\":3506:3571   */\n      swap1\n      pop\n        /* \"#utility.yul\":3451:3577   */\n      swap2\n      swap1\n      pop\n      jump\t// out\n        /* \"#utility.yul\":3583:3660   */\n    tag_70:\n        /* \"#utility.yul\":3620:3627   */\n      0x00\n        /* \"#utility.yul\":3649:3654   */\n      dup2\n        /* \"#utility.yul\":3638:3654   */\n      swap1\n      pop\n        /* \"#utility.yul\":3583:3660   */\n      swap2\n      swap1\n      pop\n      jump\t// out\n        /* \"#utility.yul\":3789:3906   */\n    tag_46:\n        /* \"#utility.yul\":3898:3899   */\n      0x00\n        /* \"#utility.yul\":3895:3896   */\n      dup1\n        /* \"#utility.yul\":3888:3900   */\n      revert\n        /* \"#utility.yul\":3912:4077   */\n    tag_61:\n        /* \"#utility.yul\":4052:4069   */\n      0x696e76616c696420616464726573730000000000000000000000000000000000\n        /* \"#utility.yul\":4048:4049   */\n      0x00\n        /* \"#utility.yul\":4040:4046   */\n      dup3\n        /* \"#utility.yul\":4036:4050   */\n      add\n        /* \"#utility.yul\":4029:4070   */\n      mstore\n        /* \"#utility.yul\":3912:4077   */\n      pop\n      jump\t// out\n        /* \"#utility.yul\":4083:4242   */\n    tag_66:\n        /* \"#utility.yul\":4223:4234   */\n      0x6e6f74206f776e65720000000000000000000000000000000000000000000000\n        /* \"#utility.yul\":4219:4220   */\n      0x00\n        /* \"#utility.yul\":4211:4217   */\n      dup3\n        /* \"#utility.yul\":4207:4221   */\n      add\n        /* \"#utility.yul\":4200:4235   */\n      mstore\n        /* \"#utility.yul\":4083:4242   */\n      pop\n      jump\t// out\n        /* \"#utility.yul\":4248:4370   */\n    tag_42:\n        /* \"#utility.yul\":4321:4345   */\n      tag_95\n        /* \"#utility.yul\":4339:4344   */\n      dup2\n        /* \"#utility.yul\":4321:4345   */\n      tag_51\n      jump\t// in\n    tag_95:\n        /* \"#utility.yul\":4314:4319   */\n      dup2\n        /* \"#utility.yul\":4311:4346   */\n      eq\n        /* \"#utility.yul\":4301:4364   */\n      tag_96\n      jumpi\n        /* \"#utility.yul\":4360:4361   */\n      0x00\n        /* \"#utility.yul\":4357:4358   */\n      dup1\n        /* \"#utility.yul\":4350:4362   */\n      revert\n        /* \"#utility.yul\":4301:4364   */\n    tag_96:\n        /* \"#utility.yul\":4248:4370   */\n      pop\n      jump\t// out\n\n    auxdata: 0xa26469706673582212209a97ef918d13ffbdb27bd0e26535dd9033d1dac34750f427888bb89a71d8a16964736f6c63430008070033\n}\n",
				"bytecode": {
					"linkReferences": {},
					"object": "608060405234801561001057600080fd5b50336000806101000a81548173ffffffffffffffffffffffffffffffffffffffff021916908373ffffffffffffffffffffffffffffffffffffffff160217905550610505806100606000396000f3fe608060405234801561001057600080fd5b50600436106100575760003560e01c80631036e0a81461005c57806313af4035146100665780638da5cb5b14610082578063adb4d990146100a0578063cb23e6d7146100bf575b600080fd5b6100646100c9565b005b610080600480360381019061007b91906102e4565b610159565b005b61008a61029a565b6040516100979190610384565b60405180910390f35b6100a86102be565b6040516100b69291906103df565b60405180910390f35b6100c76102cd565b005b60008054906101000a900473ffffffffffffffffffffffffffffffffffffffff1673ffffffffffffffffffffffffffffffffffffffff163373ffffffffffffffffffffffffffffffffffffffff1614610157576040517f08c379a000000000000000000000000000000000000000000000000000000000815260040161014e906103bf565b60405180910390fd5b565b60008054906101000a900473ffffffffffffffffffffffffffffffffffffffff1673ffffffffffffffffffffffffffffffffffffffff163373ffffffffffffffffffffffffffffffffffffffff16146101e7576040517f08c379a00000000000000000000000000000000000000000000000000000000081526004016101de906103bf565b60405180910390fd5b600073ffffffffffffffffffffffffffffffffffffffff168173ffffffffffffffffffffffffffffffffffffffff161415610257576040517f08c379a000000000000000000000000000000000000000000000000000000000815260040161024e9061039f565b60405180910390fd5b806000806101000a81548173ffffffffffffffffffffffffffffffffffffffff021916908373ffffffffffffffffffffffffffffffffffffffff16021790555050565b60008054906101000a900473ffffffffffffffffffffffffffffffffffffffff1681565b600080600a9150600090509091565b565b6000813590506102de816104b8565b92915050565b6000602082840312156102fa576102f9610461565b5b6000610308848285016102cf565b91505092915050565b61031a81610419565b82525050565b6103298161042b565b82525050565b600061033c600f83610408565b915061034782610466565b602082019050919050565b600061035f600983610408565b915061036a8261048f565b602082019050919050565b61037e81610457565b82525050565b60006020820190506103996000830184610311565b92915050565b600060208201905081810360008301526103b88161032f565b9050919050565b600060208201905081810360008301526103d881610352565b9050919050565b60006040820190506103f46000830185610375565b6104016020830184610320565b9392505050565b600082825260208201905092915050565b600061042482610437565b9050919050565b60008115159050919050565b600073ffffffffffffffffffffffffffffffffffffffff82169050919050565b6000819050919050565b600080fd5b7f696e76616c696420616464726573730000000000000000000000000000000000600082015250565b7f6e6f74206f776e65720000000000000000000000000000000000000000000000600082015250565b6104c181610419565b81146104cc57600080fd5b5056fea26469706673582212209a97ef918d13ffbdb27bd0e26535dd9033d1dac34750f427888bb89a71d8a16964736f6c63430008070033",
					"opcodes": "PUSH1 0x80 PUSH1 0x40 MSTORE CALLVALUE DUP1 ISZERO PUSH2 0x10 JUMPI PUSH1 0x0 DUP1 REVERT JUMPDEST POP CALLER PUSH1 0x0 DUP1 PUSH2 0x100 EXP DUP2 SLOAD DUP2 PUSH20 0xFFFFFFFFFFFFFFFFFFFFFFFFFFFFFFFFFFFFFFFF MUL NOT AND SWAP1 DUP4 PUSH20 0xFFFFFFFFFFFFFFFFFFFFFFFFFFFFFFFFFFFFFFFF AND MUL OR SWAP1 SSTORE POP PUSH2 0x505 DUP1 PUSH2 0x60 PUSH1 0x0 CODECOPY PUSH1 0x0 RETURN INVALID PUSH1 0x80 PUSH1 0x40 MSTORE CALLVALUE DUP1 ISZERO PUSH2 0x10 JUMPI PUSH1 0x0 DUP1 REVERT JUMPDEST POP PUSH1 0x4 CALLDATASIZE LT PUSH2 0x57 JUMPI PUSH1 0x0 CALLDATALOAD PUSH1 0xE0 SHR DUP1 PUSH4 0x1036E0A8 EQ PUSH2 0x5C JUMPI DUP1 PUSH4 0x13AF4035 EQ PUSH2 0x66 JUMPI DUP1 PUSH4 0x8DA5CB5B EQ PUSH2 0x82 JUMPI DUP1 PUSH4 0xADB4D990 EQ PUSH2 0xA0 JUMPI DUP1 PUSH4 0xCB23E6D7 EQ PUSH2 0xBF JUMPI JUMPDEST PUSH1 0x0 DUP1 REVERT JUMPDEST PUSH2 0x64 PUSH2 0xC9 JUMP JUMPDEST STOP JUMPDEST PUSH2 0x80 PUSH1 0x4 DUP1 CALLDATASIZE SUB DUP2 ADD SWAP1 PUSH2 0x7B SWAP2 SWAP1 PUSH2 0x2E4 JUMP JUMPDEST PUSH2 0x159 JUMP JUMPDEST STOP JUMPDEST PUSH2 0x8A PUSH2 0x29A JUMP JUMPDEST PUSH1 0x40 MLOAD PUSH2 0x97 SWAP2 SWAP1 PUSH2 0x384 JUMP JUMPDEST PUSH1 0x40 MLOAD DUP1 SWAP2 SUB SWAP1 RETURN JUMPDEST PUSH2 0xA8 PUSH2 0x2BE JUMP JUMPDEST PUSH1 0x40 MLOAD PUSH2 0xB6 SWAP3 SWAP2 SWAP1 PUSH2 0x3DF JUMP JUMPDEST PUSH1 0x40 MLOAD DUP1 SWAP2 SUB SWAP1 RETURN JUMPDEST PUSH2 0xC7 PUSH2 0x2CD JUMP JUMPDEST STOP JUMPDEST PUSH1 0x0 DUP1 SLOAD SWAP1 PUSH2 0x100 EXP SWAP1 DIV PUSH20 0xFFFFFFFFFFFFFFFFFFFFFFFFFFFFFFFFFFFFFFFF AND PUSH20 0xFFFFFFFFFFFFFFFFFFFFFFFFFFFFFFFFFFFFFFFF AND CALLER PUSH20 0xFFFFFFFFFFFFFFFFFFFFFFFFFFFFFFFFFFFFFFFF AND EQ PUSH2 0x157 JUMPI PUSH1 0x40 MLOAD PUSH32 0x8C379A000000000000000000000000000000000000000000000000000000000 DUP2 MSTORE PUSH1 0x4 ADD PUSH2 0x14E SWAP1 PUSH2 0x3BF JUMP JUMPDEST PUSH1 0x40 MLOAD DUP1 SWAP2 SUB SWAP1 REVERT JUMPDEST JUMP JUMPDEST PUSH1 0x0 DUP1 SLOAD SWAP1 PUSH2 0x100 EXP SWAP1 DIV PUSH20 0xFFFFFFFFFFFFFFFFFFFFFFFFFFFFFFFFFFFFFFFF AND PUSH20 0xFFFFFFFFFFFFFFFFFFFFFFFFFFFFFFFFFFFFFFFF AND CALLER PUSH20 0xFFFFFFFFFFFFFFFFFFFFFFFFFFFFFFFFFFFFFFFF AND EQ PUSH2 0x1E7 JUMPI PUSH1 0x40 MLOAD PUSH32 0x8C379A000000000000000000000000000000000000000000000000000000000 DUP2 MSTORE PUSH1 0x4 ADD PUSH2 0x1DE SWAP1 PUSH2 0x3BF JUMP JUMPDEST PUSH1 0x40 MLOAD DUP1 SWAP2 SUB SWAP1 REVERT JUMPDEST PUSH1 0x0 PUSH20 0xFFFFFFFFFFFFFFFFFFFFFFFFFFFFFFFFFFFFFFFF AND DUP2 PUSH20 0xFFFFFFFFFFFFFFFFFFFFFFFFFFFFFFFFFFFFFFFF AND EQ ISZERO PUSH2 0x257 JUMPI PUSH1 0x40 MLOAD PUSH32 0x8C379A000000000000000000000000000000000000000000000000000000000 DUP2 MSTORE PUSH1 0x4 ADD PUSH2 0x24E SWAP1 PUSH2 0x39F JUMP JUMPDEST PUSH1 0x40 MLOAD DUP1 SWAP2 SUB SWAP1 REVERT JUMPDEST DUP1 PUSH1 0x0 DUP1 PUSH2 0x100 EXP DUP2 SLOAD DUP2 PUSH20 0xFFFFFFFFFFFFFFFFFFFFFFFFFFFFFFFFFFFFFFFF MUL NOT AND SWAP1 DUP4 PUSH20 0xFFFFFFFFFFFFFFFFFFFFFFFFFFFFFFFFFFFFFFFF AND MUL OR SWAP1 SSTORE POP POP JUMP JUMPDEST PUSH1 0x0 DUP1 SLOAD SWAP1 PUSH2 0x100 EXP SWAP1 DIV PUSH20 0xFFFFFFFFFFFFFFFFFFFFFFFFFFFFFFFFFFFFFFFF AND DUP2 JUMP JUMPDEST PUSH1 0x0 DUP1 PUSH1 0xA SWAP2 POP PUSH1 0x0 SWAP1 POP SWAP1 SWAP2 JUMP JUMPDEST JUMP JUMPDEST PUSH1 0x0 DUP2 CALLDATALOAD SWAP1 POP PUSH2 0x2DE DUP2 PUSH2 0x4B8 JUMP JUMPDEST SWAP3 SWAP2 POP POP JUMP JUMPDEST PUSH1 0x0 PUSH1 0x20 DUP3 DUP5 SUB SLT ISZERO PUSH2 0x2FA JUMPI PUSH2 0x2F9 PUSH2 0x461 JUMP JUMPDEST JUMPDEST PUSH1 0x0 PUSH2 0x308 DUP5 DUP3 DUP6 ADD PUSH2 0x2CF JUMP JUMPDEST SWAP2 POP POP SWAP3 SWAP2 POP POP JUMP JUMPDEST PUSH2 0x31A DUP2 PUSH2 0x419 JUMP JUMPDEST DUP3 MSTORE POP POP JUMP JUMPDEST PUSH2 0x329 DUP2 PUSH2 0x42B JUMP JUMPDEST DUP3 MSTORE POP POP JUMP JUMPDEST PUSH1 0x0 PUSH2 0x33C PUSH1 0xF DUP4 PUSH2 0x408 JUMP JUMPDEST SWAP2 POP PUSH2 0x347 DUP3 PUSH2 0x466 JUMP JUMPDEST PUSH1 0x20 DUP3 ADD SWAP1 POP SWAP2 SWAP1 POP JUMP JUMPDEST PUSH1 0x0 PUSH2 0x35F PUSH1 0x9 DUP4 PUSH2 0x408 JUMP JUMPDEST SWAP2 POP PUSH2 0x36A DUP3 PUSH2 0x48F JUMP JUMPDEST PUSH1 0x20 DUP3 ADD SWAP1 POP SWAP2 SWAP1 POP JUMP JUMPDEST PUSH2 0x37E DUP2 PUSH2 0x457 JUMP JUMPDEST DUP3 MSTORE POP POP JUMP JUMPDEST PUSH1 0x0 PUSH1 0x20 DUP3 ADD SWAP1 POP PUSH2 0x399 PUSH1 0x0 DUP4 ADD DUP5 PUSH2 0x311 JUMP JUMPDEST SWAP3 SWAP2 POP POP JUMP JUMPDEST PUSH1 0x0 PUSH1 0x20 DUP3 ADD SWAP1 POP DUP2 DUP2 SUB PUSH1 0x0 DUP4 ADD MSTORE PUSH2 0x3B8 DUP2 PUSH2 0x32F JUMP JUMPDEST SWAP1 POP SWAP2 SWAP1 POP JUMP JUMPDEST PUSH1 0x0 PUSH1 0x20 DUP3 ADD SWAP1 POP DUP2 DUP2 SUB PUSH1 0x0 DUP4 ADD MSTORE PUSH2 0x3D8 DUP2 PUSH2 0x352 JUMP JUMPDEST SWAP1 POP SWAP2 SWAP1 POP JUMP JUMPDEST PUSH1 0x0 PUSH1 0x40 DUP3 ADD SWAP1 POP PUSH2 0x3F4 PUSH1 0x0 DUP4 ADD DUP6 PUSH2 0x375 JUMP JUMPDEST PUSH2 0x401 PUSH1 0x20 DUP4 ADD DUP5 PUSH2 0x320 JUMP JUMPDEST SWAP4 SWAP3 POP POP POP JUMP JUMPDEST PUSH1 0x0 DUP3 DUP3 MSTORE PUSH1 0x20 DUP3 ADD SWAP1 POP SWAP3 SWAP2 POP POP JUMP JUMPDEST PUSH1 0x0 PUSH2 0x424 DUP3 PUSH2 0x437 JUMP JUMPDEST SWAP1 POP SWAP2 SWAP1 POP JUMP JUMPDEST PUSH1 0x0 DUP2 ISZERO ISZERO SWAP1 POP SWAP2 SWAP1 POP JUMP JUMPDEST PUSH1 0x0 PUSH20 0xFFFFFFFFFFFFFFFFFFFFFFFFFFFFFFFFFFFFFFFF DUP3 AND SWAP1 POP SWAP2 SWAP1 POP JUMP JUMPDEST PUSH1 0x0 DUP2 SWAP1 POP SWAP2 SWAP1 POP JUMP JUMPDEST PUSH1 0x0 DUP1 REVERT JUMPDEST PUSH32 0x696E76616C696420616464726573730000000000000000000000000000000000 PUSH1 0x0 DUP3 ADD MSTORE POP JUMP JUMPDEST PUSH32 0x6E6F74206F776E65720000000000000000000000000000000000000000000000 PUSH1 0x0 DUP3 ADD MSTORE POP JUMP JUMPDEST PUSH2 0x4C1 DUP2 PUSH2 0x419 JUMP JUMPDEST DUP2 EQ PUSH2 0x4CC JUMPI PUSH1 0x0 DUP1 REVERT JUMPDEST POP JUMP INVALID LOG2 PUSH5 0x6970667358 0x22 SLT KECCAK256 SWAP11 SWAP8 0xEF SWAP2 DUP14 SGT SELFDESTRUCT 0xBD 0xB2 PUSH28 0xD0E26535DD9033D1DAC34750F427888BB89A71D8A16964736F6C6343 STOP ADDMOD SMOD STOP CALLER "
				},
				"gasEstimates": {
					"creation": {
						"codeDepositCost": "257000",
						"executionCost": "24566",
						"totalCost": "281566"
					},
					"external": {
						"assigned()": "501",
						"everyone()": "210",
						"onlyOwner()": "2578",
						"owner()": "2533",
						"setOwner(address)": "26927"
					}
				},
				"methodIdentifiers": {
					"assigned()": "adb4d990",
					"everyone()": "cb23e6d7",
					"onlyOwner()": "1036e0a8",
					"owner()": "8da5cb5b",
					"setOwner(address)": "13af4035"
				}
			},
			"storageLayout": {
				"storage": [
					{
						"astId": 3,
						"contract": "Documents/dev/Lime/contracts/Ownable.sol:Ownable",
						"label": "owner",
						"offset": 0,
						"slot": "0",
						"type": "t_address"
					}
				],
				"types": {
					"t_address": {
						"encoding": "inplace",
						"label": "address",
						"numberOfBytes": "20"
					}
				}
			},
			"userdoc": {
				"kind": "user",
				"methods": {},
				"version": 1
			}
		}
	}
}