{
	"AccessControl.sol": {
		"AccessControl": {
			"abi": [
				{
					"inputs": [],
					"name": "ADMIN",
					"outputs": [
						{
							"internalType": "bytes32",
							"name": "",
							"type": "bytes32"
						}
					],
					"stateMutability": "view",
					"type": "function"
				},
				{
					"inputs": [],
					"name": "USER",
					"outputs": [
						{
							"internalType": "bytes32",
							"name": "",
							"type": "bytes32"
						}
					],
					"stateMutability": "view",
					"type": "function"
				},
				{
					"inputs": [
						{
							"internalType": "bytes32",
							"name": "_role",
							"type": "bytes32"
						},
						{
							"internalType": "address",
							"name": "_account",
							"type": "address"
						}
					],
					"name": "grantRole",
					"outputs": [],
					"stateMutability": "nonpayable",
					"type": "function"
				}
			],
			"devdoc": {
				"kind": "dev",
				"methods": {},
				"version": 1
			},
			"evm": {
				"assembly": "    /* \"AccessControl.sol\":56:536  contract AccessControl{... */\n  mstore(0x40, 0x80)\n  callvalue\n  dup1\n  iszero\n  tag_1\n  jumpi\n  0x00\n  dup1\n  revert\ntag_1:\n  pop\n  dataSize(sub_0)\n  dup1\n  dataOffset(sub_0)\n  0x00\n  codecopy\n  0x00\n  return\nstop\n\nsub_0: assembly {\n        /* \"AccessControl.sol\":56:536  contract AccessControl{... */\n      mstore(0x40, 0x80)\n      callvalue\n      dup1\n      iszero\n      tag_1\n      jumpi\n      0x00\n      dup1\n      revert\n    tag_1:\n      pop\n      jumpi(tag_2, lt(calldatasize, 0x04))\n      shr(0xe0, calldataload(0x00))\n      dup1\n      0x2a0acc6a\n      eq\n      tag_3\n      jumpi\n      dup1\n      0x2f2ff15d\n      eq\n      tag_4\n      jumpi\n      dup1\n      0x81e167cf\n      eq\n      tag_5\n      jumpi\n    tag_2:\n      0x00\n      dup1\n      revert\n        /* \"AccessControl.sol\":141:209  bytes32 public constant ADMIN = keccak256(abi.encodePacked(\"ADMIN\")) */\n    tag_3:\n      tag_6\n      tag_7\n      jump\t// in\n    tag_6:\n      mload(0x40)\n      tag_8\n      swap2\n      swap1\n      tag_9\n      jump\t// in\n    tag_8:\n      mload(0x40)\n      dup1\n      swap2\n      sub\n      swap1\n      return\n        /* \"AccessControl.sol\":407:531  function grantRole(bytes32  _role, address _account) external onlyAdmin(ADMIN){... */\n    tag_4:\n      tag_10\n      0x04\n      dup1\n      calldatasize\n      sub\n      dup2\n      add\n      swap1\n      tag_11\n      swap2\n      swap1\n      tag_12\n      jump\t// in\n    tag_11:\n      tag_13\n      jump\t// in\n    tag_10:\n      stop\n        /* \"AccessControl.sol\":215:281  bytes32 public constant USER = keccak256(abi.encodePacked(\"USER\")) */\n    tag_5:\n      tag_14\n      tag_15\n      jump\t// in\n    tag_14:\n      mload(0x40)\n      tag_16\n      swap2\n      swap1\n      tag_9\n      jump\t// in\n    tag_16:\n      mload(0x40)\n      dup1\n      swap2\n      sub\n      swap1\n      return\n        /* \"AccessControl.sol\":141:209  bytes32 public constant ADMIN = keccak256(abi.encodePacked(\"ADMIN\")) */\n    tag_7:\n        /* \"AccessControl.sol\":183:208  abi.encodePacked(\"ADMIN\") */\n      add(0x20, mload(0x40))\n      tag_17\n      swap1\n      tag_18\n      jump\t// in\n    tag_17:\n      mload(0x40)\n      0x20\n      dup2\n      dup4\n      sub\n      sub\n      dup2\n      mstore\n      swap1\n      0x40\n      mstore\n        /* \"AccessControl.sol\":173:209  keccak256(abi.encodePacked(\"ADMIN\")) */\n      dup1\n      mload\n      swap1\n      0x20\n      add\n      keccak256\n        /* \"AccessControl.sol\":141:209  bytes32 public constant ADMIN = keccak256(abi.encodePacked(\"ADMIN\")) */\n      dup2\n      jump\t// out\n        /* \"AccessControl.sol\":407:531  function grantRole(bytes32  _role, address _account) external onlyAdmin(ADMIN){... */\n    tag_13:\n        /* \"AccessControl.sol\":183:208  abi.encodePacked(\"ADMIN\") */\n      add(0x20, mload(0x40))\n      tag_19\n      swap1\n      tag_18\n      jump\t// in\n    tag_19:\n      mload(0x40)\n      0x20\n      dup2\n      dup4\n      sub\n      sub\n      dup2\n      mstore\n      swap1\n      0x40\n      mstore\n        /* \"AccessControl.sol\":173:209  keccak256(abi.encodePacked(\"ADMIN\")) */\n      dup1\n      mload\n      swap1\n      0x20\n      add\n      keccak256\n        /* \"AccessControl.sol\":341:346  roles */\n      0x00\n        /* \"AccessControl.sol\":341:353  roles[_role] */\n      dup1\n        /* \"AccessControl.sol\":347:352  _role */\n      dup3\n        /* \"AccessControl.sol\":341:353  roles[_role] */\n      dup2\n      mstore\n      0x20\n      add\n      swap1\n      dup2\n      mstore\n      0x20\n      add\n      0x00\n      keccak256\n        /* \"AccessControl.sol\":341:365  roles[_role][msg.sender] */\n      0x00\n        /* \"AccessControl.sol\":354:364  msg.sender */\n      caller\n        /* \"AccessControl.sol\":341:365  roles[_role][msg.sender] */\n      0xffffffffffffffffffffffffffffffffffffffff\n      and\n      0xffffffffffffffffffffffffffffffffffffffff\n      and\n      dup2\n      mstore\n      0x20\n      add\n      swap1\n      dup2\n      mstore\n      0x20\n      add\n      0x00\n      keccak256\n      0x00\n      swap1\n      sload\n      swap1\n      0x0100\n      exp\n      swap1\n      div\n      0xff\n      and\n        /* \"AccessControl.sol\":333:383  require(roles[_role][msg.sender],\"Not authorized\") */\n      tag_21\n      jumpi\n      mload(0x40)\n      0x08c379a000000000000000000000000000000000000000000000000000000000\n      dup2\n      mstore\n      0x04\n      add\n      tag_22\n      swap1\n      tag_23\n      jump\t// in\n    tag_22:\n      mload(0x40)\n      dup1\n      swap2\n      sub\n      swap1\n      revert\n    tag_21:\n        /* \"AccessControl.sol\":520:524  true */\n      0x01\n        /* \"AccessControl.sol\":495:500  roles */\n      0x00\n        /* \"AccessControl.sol\":495:507  roles[_role] */\n      dup1\n        /* \"AccessControl.sol\":501:506  _role */\n      dup6\n        /* \"AccessControl.sol\":495:507  roles[_role] */\n      dup2\n      mstore\n      0x20\n      add\n      swap1\n      dup2\n      mstore\n      0x20\n      add\n      0x00\n      keccak256\n        /* \"AccessControl.sol\":495:517  roles[_role][_account] */\n      0x00\n        /* \"AccessControl.sol\":508:516  _account */\n      dup5\n        /* \"AccessControl.sol\":495:517  roles[_role][_account] */\n      0xffffffffffffffffffffffffffffffffffffffff\n      and\n      0xffffffffffffffffffffffffffffffffffffffff\n      and\n      dup2\n      mstore\n      0x20\n      add\n      swap1\n      dup2\n      mstore\n      0x20\n      add\n      0x00\n      keccak256\n      0x00\n        /* \"AccessControl.sol\":495:524  roles[_role][_account] = true */\n      0x0100\n      exp\n      dup2\n      sload\n      dup2\n      0xff\n      mul\n      not\n      and\n      swap1\n      dup4\n      iszero\n      iszero\n      mul\n      or\n      swap1\n      sstore\n      pop\n        /* \"AccessControl.sol\":407:531  function grantRole(bytes32  _role, address _account) external onlyAdmin(ADMIN){... */\n      pop\n      pop\n      pop\n      jump\t// out\n        /* \"AccessControl.sol\":215:281  bytes32 public constant USER = keccak256(abi.encodePacked(\"USER\")) */\n    tag_15:\n        /* \"AccessControl.sol\":256:280  abi.encodePacked(\"USER\") */\n      add(0x20, mload(0x40))\n      tag_25\n      swap1\n      tag_26\n      jump\t// in\n    tag_25:\n      mload(0x40)\n      0x20\n      dup2\n      dup4\n      sub\n      sub\n      dup2\n      mstore\n      swap1\n      0x40\n      mstore\n        /* \"AccessControl.sol\":246:281  keccak256(abi.encodePacked(\"USER\")) */\n      dup1\n      mload\n      swap1\n      0x20\n      add\n      keccak256\n        /* \"AccessControl.sol\":215:281  bytes32 public constant USER = keccak256(abi.encodePacked(\"USER\")) */\n      dup2\n      jump\t// out\n        /* \"#utility.yul\":7:146   */\n    tag_28:\n        /* \"#utility.yul\":53:58   */\n      0x00\n        /* \"#utility.yul\":91:97   */\n      dup2\n        /* \"#utility.yul\":78:98   */\n      calldataload\n        /* \"#utility.yul\":69:98   */\n      swap1\n      pop\n        /* \"#utility.yul\":107:140   */\n      tag_30\n        /* \"#utility.yul\":134:139   */\n      dup2\n        /* \"#utility.yul\":107:140   */\n      tag_31\n      jump\t// in\n    tag_30:\n        /* \"#utility.yul\":7:146   */\n      swap3\n      swap2\n      pop\n      pop\n      jump\t// out\n        /* \"#utility.yul\":152:291   */\n    tag_32:\n        /* \"#utility.yul\":198:203   */\n      0x00\n        /* \"#utility.yul\":236:242   */\n      dup2\n        /* \"#utility.yul\":223:243   */\n      calldataload\n        /* \"#utility.yul\":214:243   */\n      swap1\n      pop\n        /* \"#utility.yul\":252:285   */\n      tag_34\n        /* \"#utility.yul\":279:284   */\n      dup2\n        /* \"#utility.yul\":252:285   */\n      tag_35\n      jump\t// in\n    tag_34:\n        /* \"#utility.yul\":152:291   */\n      swap3\n      swap2\n      pop\n      pop\n      jump\t// out\n        /* \"#utility.yul\":297:771   */\n    tag_12:\n        /* \"#utility.yul\":365:371   */\n      0x00\n        /* \"#utility.yul\":373:379   */\n      dup1\n        /* \"#utility.yul\":422:424   */\n      0x40\n        /* \"#utility.yul\":410:419   */\n      dup4\n        /* \"#utility.yul\":401:408   */\n      dup6\n        /* \"#utility.yul\":397:420   */\n      sub\n        /* \"#utility.yul\":393:425   */\n      slt\n        /* \"#utility.yul\":390:509   */\n      iszero\n      tag_37\n      jumpi\n        /* \"#utility.yul\":428:507   */\n      tag_38\n      tag_39\n      jump\t// in\n    tag_38:\n        /* \"#utility.yul\":390:509   */\n    tag_37:\n        /* \"#utility.yul\":548:549   */\n      0x00\n        /* \"#utility.yul\":573:626   */\n      tag_40\n        /* \"#utility.yul\":618:625   */\n      dup6\n        /* \"#utility.yul\":609:615   */\n      dup3\n        /* \"#utility.yul\":598:607   */\n      dup7\n        /* \"#utility.yul\":594:616   */\n      add\n        /* \"#utility.yul\":573:626   */\n      tag_32\n      jump\t// in\n    tag_40:\n        /* \"#utility.yul\":563:626   */\n      swap3\n      pop\n        /* \"#utility.yul\":519:636   */\n      pop\n        /* \"#utility.yul\":675:677   */\n      0x20\n        /* \"#utility.yul\":701:754   */\n      tag_41\n        /* \"#utility.yul\":746:753   */\n      dup6\n        /* \"#utility.yul\":737:743   */\n      dup3\n        /* \"#utility.yul\":726:735   */\n      dup7\n        /* \"#utility.yul\":722:744   */\n      add\n        /* \"#utility.yul\":701:754   */\n      tag_28\n      jump\t// in\n    tag_41:\n        /* \"#utility.yul\":691:754   */\n      swap2\n      pop\n        /* \"#utility.yul\":646:764   */\n      pop\n        /* \"#utility.yul\":297:771   */\n      swap3\n      pop\n      swap3\n      swap1\n      pop\n      jump\t// out\n        /* \"#utility.yul\":777:895   */\n    tag_42:\n        /* \"#utility.yul\":864:888   */\n      tag_44\n        /* \"#utility.yul\":882:887   */\n      dup2\n        /* \"#utility.yul\":864:888   */\n      tag_45\n      jump\t// in\n    tag_44:\n        /* \"#utility.yul\":859:862   */\n      dup3\n        /* \"#utility.yul\":852:889   */\n      mstore\n        /* \"#utility.yul\":777:895   */\n      pop\n      pop\n      jump\t// out\n        /* \"#utility.yul\":901:1301   */\n    tag_46:\n        /* \"#utility.yul\":1061:1064   */\n      0x00\n        /* \"#utility.yul\":1082:1166   */\n      tag_48\n        /* \"#utility.yul\":1164:1165   */\n      0x04\n        /* \"#utility.yul\":1159:1162   */\n      dup4\n        /* \"#utility.yul\":1082:1166   */\n      tag_49\n      jump\t// in\n    tag_48:\n        /* \"#utility.yul\":1075:1166   */\n      swap2\n      pop\n        /* \"#utility.yul\":1175:1268   */\n      tag_50\n        /* \"#utility.yul\":1264:1267   */\n      dup3\n        /* \"#utility.yul\":1175:1268   */\n      tag_51\n      jump\t// in\n    tag_50:\n        /* \"#utility.yul\":1293:1294   */\n      0x04\n        /* \"#utility.yul\":1288:1291   */\n      dup3\n        /* \"#utility.yul\":1284:1295   */\n      add\n        /* \"#utility.yul\":1277:1295   */\n      swap1\n      pop\n        /* \"#utility.yul\":901:1301   */\n      swap2\n      swap1\n      pop\n      jump\t// out\n        /* \"#utility.yul\":1307:1707   */\n    tag_52:\n        /* \"#utility.yul\":1467:1470   */\n      0x00\n        /* \"#utility.yul\":1488:1572   */\n      tag_54\n        /* \"#utility.yul\":1570:1571   */\n      0x05\n        /* \"#utility.yul\":1565:1568   */\n      dup4\n        /* \"#utility.yul\":1488:1572   */\n      tag_49\n      jump\t// in\n    tag_54:\n        /* \"#utility.yul\":1481:1572   */\n      swap2\n      pop\n        /* \"#utility.yul\":1581:1674   */\n      tag_55\n        /* \"#utility.yul\":1670:1673   */\n      dup3\n        /* \"#utility.yul\":1581:1674   */\n      tag_56\n      jump\t// in\n    tag_55:\n        /* \"#utility.yul\":1699:1700   */\n      0x05\n        /* \"#utility.yul\":1694:1697   */\n      dup3\n        /* \"#utility.yul\":1690:1701   */\n      add\n        /* \"#utility.yul\":1683:1701   */\n      swap1\n      pop\n        /* \"#utility.yul\":1307:1707   */\n      swap2\n      swap1\n      pop\n      jump\t// out\n        /* \"#utility.yul\":1713:2079   */\n    tag_57:\n        /* \"#utility.yul\":1855:1858   */\n      0x00\n        /* \"#utility.yul\":1876:1943   */\n      tag_59\n        /* \"#utility.yul\":1940:1942   */\n      0x0e\n        /* \"#utility.yul\":1935:1938   */\n      dup4\n        /* \"#utility.yul\":1876:1943   */\n      tag_60\n      jump\t// in\n    tag_59:\n        /* \"#utility.yul\":1869:1943   */\n      swap2\n      pop\n        /* \"#utility.yul\":1952:2045   */\n      tag_61\n        /* \"#utility.yul\":2041:2044   */\n      dup3\n        /* \"#utility.yul\":1952:2045   */\n      tag_62\n      jump\t// in\n    tag_61:\n        /* \"#utility.yul\":2070:2072   */\n      0x20\n        /* \"#utility.yul\":2065:2068   */\n      dup3\n        /* \"#utility.yul\":2061:2073   */\n      add\n        /* \"#utility.yul\":2054:2073   */\n      swap1\n      pop\n        /* \"#utility.yul\":1713:2079   */\n      swap2\n      swap1\n      pop\n      jump\t// out\n        /* \"#utility.yul\":2085:2466   */\n    tag_26:\n        /* \"#utility.yul\":2270:2273   */\n      0x00\n        /* \"#utility.yul\":2292:2440   */\n      tag_64\n        /* \"#utility.yul\":2436:2439   */\n      dup3\n        /* \"#utility.yul\":2292:2440   */\n      tag_46\n      jump\t// in\n    tag_64:\n        /* \"#utility.yul\":2285:2440   */\n      swap2\n      pop\n        /* \"#utility.yul\":2457:2460   */\n      dup2\n        /* \"#utility.yul\":2450:2460   */\n      swap1\n      pop\n        /* \"#utility.yul\":2085:2466   */\n      swap2\n      swap1\n      pop\n      jump\t// out\n        /* \"#utility.yul\":2472:2853   */\n    tag_18:\n        /* \"#utility.yul\":2657:2660   */\n      0x00\n        /* \"#utility.yul\":2679:2827   */\n      tag_66\n        /* \"#utility.yul\":2823:2826   */\n      dup3\n        /* \"#utility.yul\":2679:2827   */\n      tag_52\n      jump\t// in\n    tag_66:\n        /* \"#utility.yul\":2672:2827   */\n      swap2\n      pop\n        /* \"#utility.yul\":2844:2847   */\n      dup2\n        /* \"#utility.yul\":2837:2847   */\n      swap1\n      pop\n        /* \"#utility.yul\":2472:2853   */\n      swap2\n      swap1\n      pop\n      jump\t// out\n        /* \"#utility.yul\":2859:3081   */\n    tag_9:\n        /* \"#utility.yul\":2952:2956   */\n      0x00\n        /* \"#utility.yul\":2990:2992   */\n      0x20\n        /* \"#utility.yul\":2979:2988   */\n      dup3\n        /* \"#utility.yul\":2975:2993   */\n      add\n        /* \"#utility.yul\":2967:2993   */\n      swap1\n      pop\n        /* \"#utility.yul\":3003:3074   */\n      tag_68\n        /* \"#utility.yul\":3071:3072   */\n      0x00\n        /* \"#utility.yul\":3060:3069   */\n      dup4\n        /* \"#utility.yul\":3056:3073   */\n      add\n        /* \"#utility.yul\":3047:3053   */\n      dup5\n        /* \"#utility.yul\":3003:3074   */\n      tag_42\n      jump\t// in\n    tag_68:\n        /* \"#utility.yul\":2859:3081   */\n      swap3\n      swap2\n      pop\n      pop\n      jump\t// out\n        /* \"#utility.yul\":3087:3506   */\n    tag_23:\n        /* \"#utility.yul\":3253:3257   */\n      0x00\n        /* \"#utility.yul\":3291:3293   */\n      0x20\n        /* \"#utility.yul\":3280:3289   */\n      dup3\n        /* \"#utility.yul\":3276:3294   */\n      add\n        /* \"#utility.yul\":3268:3294   */\n      swap1\n      pop\n        /* \"#utility.yul\":3340:3349   */\n      dup2\n        /* \"#utility.yul\":3334:3338   */\n      dup2\n        /* \"#utility.yul\":3330:3350   */\n      sub\n        /* \"#utility.yul\":3326:3327   */\n      0x00\n        /* \"#utility.yul\":3315:3324   */\n      dup4\n        /* \"#utility.yul\":3311:3328   */\n      add\n        /* \"#utility.yul\":3304:3351   */\n      mstore\n        /* \"#utility.yul\":3368:3499   */\n      tag_70\n        /* \"#utility.yul\":3494:3498   */\n      dup2\n        /* \"#utility.yul\":3368:3499   */\n      tag_57\n      jump\t// in\n    tag_70:\n        /* \"#utility.yul\":3360:3499   */\n      swap1\n      pop\n        /* \"#utility.yul\":3087:3506   */\n      swap2\n      swap1\n      pop\n      jump\t// out\n        /* \"#utility.yul\":3593:3762   */\n    tag_60:\n        /* \"#utility.yul\":3677:3688   */\n      0x00\n        /* \"#utility.yul\":3711:3717   */\n      dup3\n        /* \"#utility.yul\":3706:3709   */\n      dup3\n        /* \"#utility.yul\":3699:3718   */\n      mstore\n        /* \"#utility.yul\":3751:3755   */\n      0x20\n        /* \"#utility.yul\":3746:3749   */\n      dup3\n        /* \"#utility.yul\":3742:3756   */\n      add\n        /* \"#utility.yul\":3727:3756   */\n      swap1\n      pop\n        /* \"#utility.yul\":3593:3762   */\n      swap3\n      swap2\n      pop\n      pop\n      jump\t// out\n        /* \"#utility.yul\":3768:3916   */\n    tag_49:\n        /* \"#utility.yul\":3870:3881   */\n      0x00\n        /* \"#utility.yul\":3907:3910   */\n      dup2\n        /* \"#utility.yul\":3892:3910   */\n      swap1\n      pop\n        /* \"#utility.yul\":3768:3916   */\n      swap3\n      swap2\n      pop\n      pop\n      jump\t// out\n        /* \"#utility.yul\":3922:4018   */\n    tag_75:\n        /* \"#utility.yul\":3959:3966   */\n      0x00\n        /* \"#utility.yul\":3988:4012   */\n      tag_77\n        /* \"#utility.yul\":4006:4011   */\n      dup3\n        /* \"#utility.yul\":3988:4012   */\n      tag_78\n      jump\t// in\n    tag_77:\n        /* \"#utility.yul\":3977:4012   */\n      swap1\n      pop\n        /* \"#utility.yul\":3922:4018   */\n      swap2\n      swap1\n      pop\n      jump\t// out\n        /* \"#utility.yul\":4024:4101   */\n    tag_45:\n        /* \"#utility.yul\":4061:4068   */\n      0x00\n        /* \"#utility.yul\":4090:4095   */\n      dup2\n        /* \"#utility.yul\":4079:4095   */\n      swap1\n      pop\n        /* \"#utility.yul\":4024:4101   */\n      swap2\n      swap1\n      pop\n      jump\t// out\n        /* \"#utility.yul\":4107:4233   */\n    tag_78:\n        /* \"#utility.yul\":4144:4151   */\n      0x00\n        /* \"#utility.yul\":4184:4226   */\n      0xffffffffffffffffffffffffffffffffffffffff\n        /* \"#utility.yul\":4177:4182   */\n      dup3\n        /* \"#utility.yul\":4173:4227   */\n      and\n        /* \"#utility.yul\":4162:4227   */\n      swap1\n      pop\n        /* \"#utility.yul\":4107:4233   */\n      swap2\n      swap1\n      pop\n      jump\t// out\n        /* \"#utility.yul\":4362:4479   */\n    tag_39:\n        /* \"#utility.yul\":4471:4472   */\n      0x00\n        /* \"#utility.yul\":4468:4469   */\n      dup1\n        /* \"#utility.yul\":4461:4473   */\n      revert\n        /* \"#utility.yul\":4485:4639   */\n    tag_51:\n        /* \"#utility.yul\":4625:4631   */\n      0x5553455200000000000000000000000000000000000000000000000000000000\n        /* \"#utility.yul\":4621:4622   */\n      0x00\n        /* \"#utility.yul\":4613:4619   */\n      dup3\n        /* \"#utility.yul\":4609:4623   */\n      add\n        /* \"#utility.yul\":4602:4632   */\n      mstore\n        /* \"#utility.yul\":4485:4639   */\n      pop\n      jump\t// out\n        /* \"#utility.yul\":4645:4800   */\n    tag_56:\n        /* \"#utility.yul\":4785:4792   */\n      0x41444d494e000000000000000000000000000000000000000000000000000000\n        /* \"#utility.yul\":4781:4782   */\n      0x00\n        /* \"#utility.yul\":4773:4779   */\n      dup3\n        /* \"#utility.yul\":4769:4783   */\n      add\n        /* \"#utility.yul\":4762:4793   */\n      mstore\n        /* \"#utility.yul\":4645:4800   */\n      pop\n      jump\t// out\n        /* \"#utility.yul\":4806:4970   */\n    tag_62:\n        /* \"#utility.yul\":4946:4962   */\n      0x4e6f7420617574686f72697a6564000000000000000000000000000000000000\n        /* \"#utility.yul\":4942:4943   */\n      0x00\n        /* \"#utility.yul\":4934:4940   */\n      dup3\n        /* \"#utility.yul\":4930:4944   */\n      add\n        /* \"#utility.yul\":4923:4963   */\n      mstore\n        /* \"#utility.yul\":4806:4970   */\n      pop\n      jump\t// out\n        /* \"#utility.yul\":4976:5098   */\n    tag_31:\n        /* \"#utility.yul\":5049:5073   */\n      tag_88\n        /* \"#utility.yul\":5067:5072   */\n      dup2\n        /* \"#utility.yul\":5049:5073   */\n      tag_75\n      jump\t// in\n    tag_88:\n        /* \"#utility.yul\":5042:5047   */\n      dup2\n        /* \"#utility.yul\":5039:5074   */\n      eq\n        /* \"#utility.yul\":5029:5092   */\n      tag_89\n      jumpi\n        /* \"#utility.yul\":5088:5089   */\n      0x00\n        /* \"#utility.yul\":5085:5086   */\n      dup1\n        /* \"#utility.yul\":5078:5090   */\n      revert\n        /* \"#utility.yul\":5029:5092   */\n    tag_89:\n        /* \"#utility.yul\":4976:5098   */\n      pop\n      jump\t// out\n        /* \"#utility.yul\":5104:5226   */\n    tag_35:\n        /* \"#utility.yul\":5177:5201   */\n      tag_91\n        /* \"#utility.yul\":5195:5200   */\n      dup2\n        /* \"#utility.yul\":5177:5201   */\n      tag_45\n      jump\t// in\n    tag_91:\n        /* \"#utility.yul\":5170:5175   */\n      dup2\n        /* \"#utility.yul\":5167:5202   */\n      eq\n        /* \"#utility.yul\":5157:5220   */\n      tag_92\n      jumpi\n        /* \"#utility.yul\":5216:5217   */\n      0x00\n        /* \"#utility.yul\":5213:5214   */\n      dup1\n        /* \"#utility.yul\":5206:5218   */\n      revert\n        /* \"#utility.yul\":5157:5220   */\n    tag_92:\n        /* \"#utility.yul\":5104:5226   */\n      pop\n      jump\t// out\n\n    auxdata: 0xa26469706673582212201317e8849ffc739063d02abb46a6875bb4c5e868033459e2951e21190426a5e064736f6c63430008070033\n}\n",
				"bytecode": {
					"linkReferences": {},
					"object": "608060405234801561001057600080fd5b5061049f806100206000396000f3fe608060405234801561001057600080fd5b50600436106100415760003560e01c80632a0acc6a146100465780632f2ff15d1461006457806381e167cf14610080575b600080fd5b61004e61009e565b60405161005b9190610328565b60405180910390f35b61007e60048036038101906100799190610246565b6100c6565b005b6100886101f4565b6040516100959190610328565b60405180910390f35b6040516020016100ad90610313565b6040516020818303038152906040528051906020012081565b6040516020016100d590610313565b6040516020818303038152906040528051906020012060008082815260200190815260200160002060003373ffffffffffffffffffffffffffffffffffffffff1673ffffffffffffffffffffffffffffffffffffffff16815260200190815260200160002060009054906101000a900460ff16610187576040517f08c379a000000000000000000000000000000000000000000000000000000000815260040161017e90610343565b60405180910390fd5b600160008085815260200190815260200160002060008473ffffffffffffffffffffffffffffffffffffffff1673ffffffffffffffffffffffffffffffffffffffff16815260200190815260200160002060006101000a81548160ff021916908315150217905550505050565b604051602001610203906102fe565b6040516020818303038152906040528051906020012081565b60008135905061022b8161043b565b92915050565b60008135905061024081610452565b92915050565b6000806040838503121561025d5761025c6103bb565b5b600061026b85828601610231565b925050602061027c8582860161021c565b9150509250929050565b61028f81610391565b82525050565b60006102a2600483610374565b91506102ad826103c0565b600482019050919050565b60006102c5600583610374565b91506102d0826103e9565b600582019050919050565b60006102e8600e83610363565b91506102f382610412565b602082019050919050565b600061030982610295565b9150819050919050565b600061031e826102b8565b9150819050919050565b600060208201905061033d6000830184610286565b92915050565b6000602082019050818103600083015261035c816102db565b9050919050565b600082825260208201905092915050565b600081905092915050565b600061038a8261039b565b9050919050565b6000819050919050565b600073ffffffffffffffffffffffffffffffffffffffff82169050919050565b600080fd5b7f5553455200000000000000000000000000000000000000000000000000000000600082015250565b7f41444d494e000000000000000000000000000000000000000000000000000000600082015250565b7f4e6f7420617574686f72697a6564000000000000000000000000000000000000600082015250565b6104448161037f565b811461044f57600080fd5b50565b61045b81610391565b811461046657600080fd5b5056fea26469706673582212201317e8849ffc739063d02abb46a6875bb4c5e868033459e2951e21190426a5e064736f6c63430008070033",
					"opcodes": "PUSH1 0x80 PUSH1 0x40 MSTORE CALLVALUE DUP1 ISZERO PUSH2 0x10 JUMPI PUSH1 0x0 DUP1 REVERT JUMPDEST POP PUSH2 0x49F DUP1 PUSH2 0x20 PUSH1 0x0 CODECOPY PUSH1 0x0 RETURN INVALID PUSH1 0x80 PUSH1 0x40 MSTORE CALLVALUE DUP1 ISZERO PUSH2 0x10 JUMPI PUSH1 0x0 DUP1 REVERT JUMPDEST POP PUSH1 0x4 CALLDATASIZE LT PUSH2 0x41 JUMPI PUSH1 0x0 CALLDATALOAD PUSH1 0xE0 SHR DUP1 PUSH4 0x2A0ACC6A EQ PUSH2 0x46 JUMPI DUP1 PUSH4 0x2F2FF15D EQ PUSH2 0x64 JUMPI DUP1 PUSH4 0x81E167CF EQ PUSH2 0x80 JUMPI JUMPDEST PUSH1 0x0 DUP1 REVERT JUMPDEST PUSH2 0x4E PUSH2 0x9E JUMP JUMPDEST PUSH1 0x40 MLOAD PUSH2 0x5B SWAP2 SWAP1 PUSH2 0x328 JUMP JUMPDEST PUSH1 0x40 MLOAD DUP1 SWAP2 SUB SWAP1 RETURN JUMPDEST PUSH2 0x7E PUSH1 0x4 DUP1 CALLDATASIZE SUB DUP2 ADD SWAP1 PUSH2 0x79 SWAP2 SWAP1 PUSH2 0x246 JUMP JUMPDEST PUSH2 0xC6 JUMP JUMPDEST STOP JUMPDEST PUSH2 0x88 PUSH2 0x1F4 JUMP JUMPDEST PUSH1 0x40 MLOAD PUSH2 0x95 SWAP2 SWAP1 PUSH2 0x328 JUMP JUMPDEST PUSH1 0x40 MLOAD DUP1 SWAP2 SUB SWAP1 RETURN JUMPDEST PUSH1 0x40 MLOAD PUSH1 0x20 ADD PUSH2 0xAD SWAP1 PUSH2 0x313 JUMP JUMPDEST PUSH1 0x40 MLOAD PUSH1 0x20 DUP2 DUP4 SUB SUB DUP2 MSTORE SWAP1 PUSH1 0x40 MSTORE DUP1 MLOAD SWAP1 PUSH1 0x20 ADD KECCAK256 DUP2 JUMP JUMPDEST PUSH1 0x40 MLOAD PUSH1 0x20 ADD PUSH2 0xD5 SWAP1 PUSH2 0x313 JUMP JUMPDEST PUSH1 0x40 MLOAD PUSH1 0x20 DUP2 DUP4 SUB SUB DUP2 MSTORE SWAP1 PUSH1 0x40 MSTORE DUP1 MLOAD SWAP1 PUSH1 0x20 ADD KECCAK256 PUSH1 0x0 DUP1 DUP3 DUP2 MSTORE PUSH1 0x20 ADD SWAP1 DUP2 MSTORE PUSH1 0x20 ADD PUSH1 0x0 KECCAK256 PUSH1 0x0 CALLER PUSH20 0xFFFFFFFFFFFFFFFFFFFFFFFFFFFFFFFFFFFFFFFF AND PUSH20 0xFFFFFFFFFFFFFFFFFFFFFFFFFFFFFFFFFFFFFFFF AND DUP2 MSTORE PUSH1 0x20 ADD SWAP1 DUP2 MSTORE PUSH1 0x20 ADD PUSH1 0x0 KECCAK256 PUSH1 0x0 SWAP1 SLOAD SWAP1 PUSH2 0x100 EXP SWAP1 DIV PUSH1 0xFF AND PUSH2 0x187 JUMPI PUSH1 0x40 MLOAD PUSH32 0x8C379A000000000000000000000000000000000000000000000000000000000 DUP2 MSTORE PUSH1 0x4 ADD PUSH2 0x17E SWAP1 PUSH2 0x343 JUMP JUMPDEST PUSH1 0x40 MLOAD DUP1 SWAP2 SUB SWAP1 REVERT JUMPDEST PUSH1 0x1 PUSH1 0x0 DUP1 DUP6 DUP2 MSTORE PUSH1 0x20 ADD SWAP1 DUP2 MSTORE PUSH1 0x20 ADD PUSH1 0x0 KECCAK256 PUSH1 0x0 DUP5 PUSH20 0xFFFFFFFFFFFFFFFFFFFFFFFFFFFFFFFFFFFFFFFF AND PUSH20 0xFFFFFFFFFFFFFFFFFFFFFFFFFFFFFFFFFFFFFFFF AND DUP2 MSTORE PUSH1 0x20 ADD SWAP1 DUP2 MSTORE PUSH1 0x20 ADD PUSH1 0x0 KECCAK256 PUSH1 0x0 PUSH2 0x100 EXP DUP2 SLOAD DUP2 PUSH1 0xFF MUL NOT AND SWAP1 DUP4 ISZERO ISZERO MUL OR SWAP1 SSTORE POP POP POP POP JUMP JUMPDEST PUSH1 0x40 MLOAD PUSH1 0x20 ADD PUSH2 0x203 SWAP1 PUSH2 0x2FE JUMP JUMPDEST PUSH1 0x40 MLOAD PUSH1 0x20 DUP2 DUP4 SUB SUB DUP2 MSTORE SWAP1 PUSH1 0x40 MSTORE DUP1 MLOAD SWAP1 PUSH1 0x20 ADD KECCAK256 DUP2 JUMP JUMPDEST PUSH1 0x0 DUP2 CALLDATALOAD SWAP1 POP PUSH2 0x22B DUP2 PUSH2 0x43B JUMP JUMPDEST SWAP3 SWAP2 POP POP JUMP JUMPDEST PUSH1 0x0 DUP2 CALLDATALOAD SWAP1 POP PUSH2 0x240 DUP2 PUSH2 0x452 JUMP JUMPDEST SWAP3 SWAP2 POP POP JUMP JUMPDEST PUSH1 0x0 DUP1 PUSH1 0x40 DUP4 DUP6 SUB SLT ISZERO PUSH2 0x25D JUMPI PUSH2 0x25C PUSH2 0x3BB JUMP JUMPDEST JUMPDEST PUSH1 0x0 PUSH2 0x26B DUP6 DUP3 DUP7 ADD PUSH2 0x231 JUMP JUMPDEST SWAP3 POP POP PUSH1 0x20 PUSH2 0x27C DUP6 DUP3 DUP7 ADD PUSH2 0x21C JUMP JUMPDEST SWAP2 POP POP SWAP3 POP SWAP3 SWAP1 POP JUMP JUMPDEST PUSH2 0x28F DUP2 PUSH2 0x391 JUMP JUMPDEST DUP3 MSTORE POP POP JUMP JUMPDEST PUSH1 0x0 PUSH2 0x2A2 PUSH1 0x4 DUP4 PUSH2 0x374 JUMP JUMPDEST SWAP2 POP PUSH2 0x2AD DUP3 PUSH2 0x3C0 JUMP JUMPDEST PUSH1 0x4 DUP3 ADD SWAP1 POP SWAP2 SWAP1 POP JUMP JUMPDEST PUSH1 0x0 PUSH2 0x2C5 PUSH1 0x5 DUP4 PUSH2 0x374 JUMP JUMPDEST SWAP2 POP PUSH2 0x2D0 DUP3 PUSH2 0x3E9 JUMP JUMPDEST PUSH1 0x5 DUP3 ADD SWAP1 POP SWAP2 SWAP1 POP JUMP JUMPDEST PUSH1 0x0 PUSH2 0x2E8 PUSH1 0xE DUP4 PUSH2 0x363 JUMP JUMPDEST SWAP2 POP PUSH2 0x2F3 DUP3 PUSH2 0x412 JUMP JUMPDEST PUSH1 0x20 DUP3 ADD SWAP1 POP SWAP2 SWAP1 POP JUMP JUMPDEST PUSH1 0x0 PUSH2 0x309 DUP3 PUSH2 0x295 JUMP JUMPDEST SWAP2 POP DUP2 SWAP1 POP SWAP2 SWAP1 POP JUMP JUMPDEST PUSH1 0x0 PUSH2 0x31E DUP3 PUSH2 0x2B8 JUMP JUMPDEST SWAP2 POP DUP2 SWAP1 POP SWAP2 SWAP1 POP JUMP JUMPDEST PUSH1 0x0 PUSH1 0x20 DUP3 ADD SWAP1 POP PUSH2 0x33D PUSH1 0x0 DUP4 ADD DUP5 PUSH2 0x286 JUMP JUMPDEST SWAP3 SWAP2 POP POP JUMP JUMPDEST PUSH1 0x0 PUSH1 0x20 DUP3 ADD SWAP1 POP DUP2 DUP2 SUB PUSH1 0x0 DUP4 ADD MSTORE PUSH2 0x35C DUP2 PUSH2 0x2DB JUMP JUMPDEST SWAP1 POP SWAP2 SWAP1 POP JUMP JUMPDEST PUSH1 0x0 DUP3 DUP3 MSTORE PUSH1 0x20 DUP3 ADD SWAP1 POP SWAP3 SWAP2 POP POP JUMP JUMPDEST PUSH1 0x0 DUP2 SWAP1 POP SWAP3 SWAP2 POP POP JUMP JUMPDEST PUSH1 0x0 PUSH2 0x38A DUP3 PUSH2 0x39B JUMP JUMPDEST SWAP1 POP SWAP2 SWAP1 POP JUMP JUMPDEST PUSH1 0x0 DUP2 SWAP1 POP SWAP2 SWAP1 POP JUMP JUMPDEST PUSH1 0x0 PUSH20 0xFFFFFFFFFFFFFFFFFFFFFFFFFFFFFFFFFFFFFFFF DUP3 AND SWAP1 POP SWAP2 SWAP1 POP JUMP JUMPDEST PUSH1 0x0 DUP1 REVERT JUMPDEST PUSH32 0x5553455200000000000000000000000000000000000000000000000000000000 PUSH1 0x0 DUP3 ADD MSTORE POP JUMP JUMPDEST PUSH32 0x41444D494E000000000000000000000000000000000000000000000000000000 PUSH1 0x0 DUP3 ADD MSTORE POP JUMP JUMPDEST PUSH32 0x4E6F7420617574686F72697A6564000000000000000000000000000000000000 PUSH1 0x0 DUP3 ADD MSTORE POP JUMP JUMPDEST PUSH2 0x444 DUP2 PUSH2 0x37F JUMP JUMPDEST DUP2 EQ PUSH2 0x44F JUMPI PUSH1 0x0 DUP1 REVERT JUMPDEST POP JUMP JUMPDEST PUSH2 0x45B DUP2 PUSH2 0x391 JUMP JUMPDEST DUP2 EQ PUSH2 0x466 JUMPI PUSH1 0x0 DUP1 REVERT JUMPDEST POP JUMP INVALID LOG2 PUSH5 0x6970667358 0x22 SLT KECCAK256 SGT OR 0xE8 DUP5 SWAP16 0xFC PUSH20 0x9063D02ABB46A6875BB4C5E868033459E2951E21 NOT DIV 0x26 0xA5 0xE0 PUSH5 0x736F6C6343 STOP ADDMOD SMOD STOP CALLER "
				},
				"gasEstimates": {
					"creation": {
						"codeDepositCost": "236600",
						"executionCost": "275",
						"totalCost": "236875"
					},
					"external": {
						"ADMIN()": "612",
						"USER()": "656",
						"grantRole(bytes32,address)": "27696"
					}
				},
				"methodIdentifiers": {
					"ADMIN()": "2a0acc6a",
					"USER()": "81e167cf",
					"grantRole(bytes32,address)": "2f2ff15d"
				}
			},
			"storageLayout": {
				"storage": [
					{
						"astId": 7,
						"contract": "AccessControl.sol:AccessControl",
						"label": "roles",
						"offset": 0,
						"slot": "0",
						"type": "t_mapping(t_bytes32,t_mapping(t_address,t_bool))"
					}
				],
				"types": {
					"t_address": {
						"encoding": "inplace",
						"label": "address",
						"numberOfBytes": "20"
					},
					"t_bool": {
						"encoding": "inplace",
						"label": "bool",
						"numberOfBytes": "1"
					},
					"t_bytes32": {
						"encoding": "inplace",
						"label": "bytes32",
						"numberOfBytes": "32"
					},
					"t_mapping(t_address,t_bool)": {
						"encoding": "mapping",
						"key": "t_address",
						"label": "mapping(address => bool)",
						"numberOfBytes": "32",
						"value": "t_bool"
					},
					"t_mapping(t_bytes32,t_mapping(t_address,t_bool))": {
						"encoding": "mapping",
						"key": "t_bytes32",
						"label": "mapping(bytes32 => mapping(address => bool))",
						"numberOfBytes": "32",
						"value": "t_mapping(t_address,t_bool)"
					}
				}
			},
			"userdoc": {
				"kind": "user",
				"methods": {},
				"version": 1
			}
		}
	}
}