{
	"Documents/dev/Lime/contracts/Enums.sol": {
		"Enums": {
			"abi": [
				{
					"inputs": [],
					"name": "get",
					"outputs": [
						{
							"internalType": "enum Enums.Status",
							"name": "",
							"type": "uint8"
						}
					],
					"stateMutability": "view",
					"type": "function"
				},
				{
					"inputs": [
						{
							"internalType": "enum Enums.Status",
							"name": "_s",
							"type": "uint8"
						}
					],
					"name": "set",
					"outputs": [],
					"stateMutability": "nonpayable",
					"type": "function"
				}
			],
			"devdoc": {
				"kind": "dev",
				"methods": {},
				"version": 1
			},
			"evm": {
				"assembly": "    /* \"Documents/dev/Lime/contracts/Enums.sol\":56:314  contract Enums{... */\n  mstore(0x40, 0x80)\n  callvalue\n  dup1\n  iszero\n  tag_1\n  jumpi\n  0x00\n  dup1\n  revert\ntag_1:\n  pop\n  dataSize(sub_0)\n  dup1\n  dataOffset(sub_0)\n  0x00\n  codecopy\n  0x00\n  return\nstop\n\nsub_0: assembly {\n        /* \"Documents/dev/Lime/contracts/Enums.sol\":56:314  contract Enums{... */\n      mstore(0x40, 0x80)\n      callvalue\n      dup1\n      iszero\n      tag_1\n      jumpi\n      0x00\n      dup1\n      revert\n    tag_1:\n      pop\n      jumpi(tag_2, lt(calldatasize, 0x04))\n      shr(0xe0, calldataload(0x00))\n      dup1\n      0x24b8ba5f\n      eq\n      tag_3\n      jumpi\n      dup1\n      0x6d4ce63c\n      eq\n      tag_4\n      jumpi\n    tag_2:\n      0x00\n      dup1\n      revert\n        /* \"Documents/dev/Lime/contracts/Enums.sol\":263:312  function set(Status _s) external {... */\n    tag_3:\n      tag_5\n      0x04\n      dup1\n      calldatasize\n      sub\n      dup2\n      add\n      swap1\n      tag_6\n      swap2\n      swap1\n      tag_7\n      jump\t// in\n    tag_6:\n      tag_8\n      jump\t// in\n    tag_5:\n      stop\n        /* \"Documents/dev/Lime/contracts/Enums.sol\":180:257  function get() external  view returns (Status){... */\n    tag_4:\n      tag_9\n      tag_10\n      jump\t// in\n    tag_9:\n      mload(0x40)\n      tag_11\n      swap2\n      swap1\n      tag_12\n      jump\t// in\n    tag_11:\n      mload(0x40)\n      dup1\n      swap2\n      sub\n      swap1\n      return\n        /* \"Documents/dev/Lime/contracts/Enums.sol\":263:312  function set(Status _s) external {... */\n    tag_8:\n      pop\n      jump\t// out\n        /* \"Documents/dev/Lime/contracts/Enums.sol\":180:257  function get() external  view returns (Status){... */\n    tag_10:\n        /* \"Documents/dev/Lime/contracts/Enums.sol\":219:225  Status */\n      0x00\n        /* \"Documents/dev/Lime/contracts/Enums.sol\":243:250  message */\n      dup1\n      0x00\n      swap1\n      sload\n      swap1\n      0x0100\n      exp\n      swap1\n      div\n      0xff\n      and\n        /* \"Documents/dev/Lime/contracts/Enums.sol\":236:250  return message */\n      swap1\n      pop\n        /* \"Documents/dev/Lime/contracts/Enums.sol\":180:257  function get() external  view returns (Status){... */\n      swap1\n      jump\t// out\n        /* \"#utility.yul\":7:162   */\n    tag_16:\n        /* \"#utility.yul\":61:66   */\n      0x00\n        /* \"#utility.yul\":99:105   */\n      dup2\n        /* \"#utility.yul\":86:106   */\n      calldataload\n        /* \"#utility.yul\":77:106   */\n      swap1\n      pop\n        /* \"#utility.yul\":115:156   */\n      tag_18\n        /* \"#utility.yul\":150:155   */\n      dup2\n        /* \"#utility.yul\":115:156   */\n      tag_19\n      jump\t// in\n    tag_18:\n        /* \"#utility.yul\":7:162   */\n      swap3\n      swap2\n      pop\n      pop\n      jump\t// out\n        /* \"#utility.yul\":168:513   */\n    tag_7:\n        /* \"#utility.yul\":235:241   */\n      0x00\n        /* \"#utility.yul\":284:286   */\n      0x20\n        /* \"#utility.yul\":272:281   */\n      dup3\n        /* \"#utility.yul\":263:270   */\n      dup5\n        /* \"#utility.yul\":259:282   */\n      sub\n        /* \"#utility.yul\":255:287   */\n      slt\n        /* \"#utility.yul\":252:371   */\n      iszero\n      tag_21\n      jumpi\n        /* \"#utility.yul\":290:369   */\n      tag_22\n      tag_23\n      jump\t// in\n    tag_22:\n        /* \"#utility.yul\":252:371   */\n    tag_21:\n        /* \"#utility.yul\":410:411   */\n      0x00\n        /* \"#utility.yul\":435:496   */\n      tag_24\n        /* \"#utility.yul\":488:495   */\n      dup5\n        /* \"#utility.yul\":479:485   */\n      dup3\n        /* \"#utility.yul\":468:477   */\n      dup6\n        /* \"#utility.yul\":464:486   */\n      add\n        /* \"#utility.yul\":435:496   */\n      tag_16\n      jump\t// in\n    tag_24:\n        /* \"#utility.yul\":425:496   */\n      swap2\n      pop\n        /* \"#utility.yul\":381:506   */\n      pop\n        /* \"#utility.yul\":168:513   */\n      swap3\n      swap2\n      pop\n      pop\n      jump\t// out\n        /* \"#utility.yul\":519:662   */\n    tag_25:\n        /* \"#utility.yul\":612:655   */\n      tag_27\n        /* \"#utility.yul\":649:654   */\n      dup2\n        /* \"#utility.yul\":612:655   */\n      tag_28\n      jump\t// in\n    tag_27:\n        /* \"#utility.yul\":607:610   */\n      dup3\n        /* \"#utility.yul\":600:656   */\n      mstore\n        /* \"#utility.yul\":519:662   */\n      pop\n      pop\n      jump\t// out\n        /* \"#utility.yul\":668:902   */\n    tag_12:\n        /* \"#utility.yul\":767:771   */\n      0x00\n        /* \"#utility.yul\":805:807   */\n      0x20\n        /* \"#utility.yul\":794:803   */\n      dup3\n        /* \"#utility.yul\":790:808   */\n      add\n        /* \"#utility.yul\":782:808   */\n      swap1\n      pop\n        /* \"#utility.yul\":818:895   */\n      tag_30\n        /* \"#utility.yul\":892:893   */\n      0x00\n        /* \"#utility.yul\":881:890   */\n      dup4\n        /* \"#utility.yul\":877:894   */\n      add\n        /* \"#utility.yul\":868:874   */\n      dup5\n        /* \"#utility.yul\":818:895   */\n      tag_25\n      jump\t// in\n    tag_30:\n        /* \"#utility.yul\":668:902   */\n      swap3\n      swap2\n      pop\n      pop\n      jump\t// out\n        /* \"#utility.yul\":989:1116   */\n    tag_33:\n        /* \"#utility.yul\":1034:1041   */\n      0x00\n        /* \"#utility.yul\":1063:1068   */\n      dup2\n        /* \"#utility.yul\":1052:1068   */\n      swap1\n      pop\n        /* \"#utility.yul\":1069:1110   */\n      tag_35\n        /* \"#utility.yul\":1104:1109   */\n      dup3\n        /* \"#utility.yul\":1069:1110   */\n      tag_36\n      jump\t// in\n    tag_35:\n        /* \"#utility.yul\":989:1116   */\n      swap2\n      swap1\n      pop\n      jump\t// out\n        /* \"#utility.yul\":1122:1249   */\n    tag_28:\n        /* \"#utility.yul\":1178:1187   */\n      0x00\n        /* \"#utility.yul\":1211:1243   */\n      tag_38\n        /* \"#utility.yul\":1237:1242   */\n      dup3\n        /* \"#utility.yul\":1211:1243   */\n      tag_33\n      jump\t// in\n    tag_38:\n        /* \"#utility.yul\":1198:1243   */\n      swap1\n      pop\n        /* \"#utility.yul\":1122:1249   */\n      swap2\n      swap1\n      pop\n      jump\t// out\n        /* \"#utility.yul\":1255:1435   */\n    tag_39:\n        /* \"#utility.yul\":1303:1380   */\n      0x4e487b7100000000000000000000000000000000000000000000000000000000\n        /* \"#utility.yul\":1300:1301   */\n      0x00\n        /* \"#utility.yul\":1293:1381   */\n      mstore\n        /* \"#utility.yul\":1400:1404   */\n      0x21\n        /* \"#utility.yul\":1397:1398   */\n      0x04\n        /* \"#utility.yul\":1390:1405   */\n      mstore\n        /* \"#utility.yul\":1424:1428   */\n      0x24\n        /* \"#utility.yul\":1421:1422   */\n      0x00\n        /* \"#utility.yul\":1414:1429   */\n      revert\n        /* \"#utility.yul\":1564:1681   */\n    tag_23:\n        /* \"#utility.yul\":1673:1674   */\n      0x00\n        /* \"#utility.yul\":1670:1671   */\n      dup1\n        /* \"#utility.yul\":1663:1675   */\n      revert\n        /* \"#utility.yul\":1687:1800   */\n    tag_36:\n        /* \"#utility.yul\":1768:1769   */\n      0x04\n        /* \"#utility.yul\":1761:1766   */\n      dup2\n        /* \"#utility.yul\":1758:1770   */\n      lt\n        /* \"#utility.yul\":1748:1794   */\n      tag_45\n      jumpi\n        /* \"#utility.yul\":1774:1792   */\n      tag_46\n      tag_39\n      jump\t// in\n    tag_46:\n        /* \"#utility.yul\":1748:1794   */\n    tag_45:\n        /* \"#utility.yul\":1687:1800   */\n      pop\n      jump\t// out\n        /* \"#utility.yul\":1806:1913   */\n    tag_19:\n        /* \"#utility.yul\":1887:1888   */\n      0x04\n        /* \"#utility.yul\":1880:1885   */\n      dup2\n        /* \"#utility.yul\":1877:1889   */\n      lt\n        /* \"#utility.yul\":1867:1907   */\n      tag_48\n      jumpi\n        /* \"#utility.yul\":1903:1904   */\n      0x00\n        /* \"#utility.yul\":1900:1901   */\n      dup1\n        /* \"#utility.yul\":1893:1905   */\n      revert\n        /* \"#utility.yul\":1867:1907   */\n    tag_48:\n        /* \"#utility.yul\":1806:1913   */\n      pop\n      jump\t// out\n\n    auxdata: 0xa2646970667358221220352169983736e00c3b39ae3f0aaa6529d5cd238f29ada6c620c276b9997b531f64736f6c63430008070033\n}\n",
				"bytecode": {
					"linkReferences": {},
					"object": "608060405234801561001057600080fd5b506101ad806100206000396000f3fe608060405234801561001057600080fd5b50600436106100365760003560e01c806324b8ba5f1461003b5780636d4ce63c14610057575b600080fd5b610055600480360381019061005091906100a3565b610075565b005b61005f610078565b60405161006c91906100df565b60405180910390f35b50565b60008060009054906101000a900460ff16905090565b60008135905061009d81610167565b92915050565b6000602082840312156100b9576100b861014e565b5b60006100c78482850161008e565b91505092915050565b6100d98161010d565b82525050565b60006020820190506100f460008301846100d0565b92915050565b600081905061010882610153565b919050565b6000610118826100fa565b9050919050565b7f4e487b7100000000000000000000000000000000000000000000000000000000600052602160045260246000fd5b600080fd5b600481106101645761016361011f565b5b50565b6004811061017457600080fd5b5056fea2646970667358221220352169983736e00c3b39ae3f0aaa6529d5cd238f29ada6c620c276b9997b531f64736f6c63430008070033",
					"opcodes": "PUSH1 0x80 PUSH1 0x40 MSTORE CALLVALUE DUP1 ISZERO PUSH2 0x10 JUMPI PUSH1 0x0 DUP1 REVERT JUMPDEST POP PUSH2 0x1AD DUP1 PUSH2 0x20 PUSH1 0x0 CODECOPY PUSH1 0x0 RETURN INVALID PUSH1 0x80 PUSH1 0x40 MSTORE CALLVALUE DUP1 ISZERO PUSH2 0x10 JUMPI PUSH1 0x0 DUP1 REVERT JUMPDEST POP PUSH1 0x4 CALLDATASIZE LT PUSH2 0x36 JUMPI PUSH1 0x0 CALLDATALOAD PUSH1 0xE0 SHR DUP1 PUSH4 0x24B8BA5F EQ PUSH2 0x3B JUMPI DUP1 PUSH4 0x6D4CE63C EQ PUSH2 0x57 JUMPI JUMPDEST PUSH1 0x0 DUP1 REVERT JUMPDEST PUSH2 0x55 PUSH1 0x4 DUP1 CALLDATASIZE SUB DUP2 ADD SWAP1 PUSH2 0x50 SWAP2 SWAP1 PUSH2 0xA3 JUMP JUMPDEST PUSH2 0x75 JUMP JUMPDEST STOP JUMPDEST PUSH2 0x5F PUSH2 0x78 JUMP JUMPDEST PUSH1 0x40 MLOAD PUSH2 0x6C SWAP2 SWAP1 PUSH2 0xDF JUMP JUMPDEST PUSH1 0x40 MLOAD DUP1 SWAP2 SUB SWAP1 RETURN JUMPDEST POP JUMP JUMPDEST PUSH1 0x0 DUP1 PUSH1 0x0 SWAP1 SLOAD SWAP1 PUSH2 0x100 EXP SWAP1 DIV PUSH1 0xFF AND SWAP1 POP SWAP1 JUMP JUMPDEST PUSH1 0x0 DUP2 CALLDATALOAD SWAP1 POP PUSH2 0x9D DUP2 PUSH2 0x167 JUMP JUMPDEST SWAP3 SWAP2 POP POP JUMP JUMPDEST PUSH1 0x0 PUSH1 0x20 DUP3 DUP5 SUB SLT ISZERO PUSH2 0xB9 JUMPI PUSH2 0xB8 PUSH2 0x14E JUMP JUMPDEST JUMPDEST PUSH1 0x0 PUSH2 0xC7 DUP5 DUP3 DUP6 ADD PUSH2 0x8E JUMP JUMPDEST SWAP2 POP POP SWAP3 SWAP2 POP POP JUMP JUMPDEST PUSH2 0xD9 DUP2 PUSH2 0x10D JUMP JUMPDEST DUP3 MSTORE POP POP JUMP JUMPDEST PUSH1 0x0 PUSH1 0x20 DUP3 ADD SWAP1 POP PUSH2 0xF4 PUSH1 0x0 DUP4 ADD DUP5 PUSH2 0xD0 JUMP JUMPDEST SWAP3 SWAP2 POP POP JUMP JUMPDEST PUSH1 0x0 DUP2 SWAP1 POP PUSH2 0x108 DUP3 PUSH2 0x153 JUMP JUMPDEST SWAP2 SWAP1 POP JUMP JUMPDEST PUSH1 0x0 PUSH2 0x118 DUP3 PUSH2 0xFA JUMP JUMPDEST SWAP1 POP SWAP2 SWAP1 POP JUMP JUMPDEST PUSH32 0x4E487B7100000000000000000000000000000000000000000000000000000000 PUSH1 0x0 MSTORE PUSH1 0x21 PUSH1 0x4 MSTORE PUSH1 0x24 PUSH1 0x0 REVERT JUMPDEST PUSH1 0x0 DUP1 REVERT JUMPDEST PUSH1 0x4 DUP2 LT PUSH2 0x164 JUMPI PUSH2 0x163 PUSH2 0x11F JUMP JUMPDEST JUMPDEST POP JUMP JUMPDEST PUSH1 0x4 DUP2 LT PUSH2 0x174 JUMPI PUSH1 0x0 DUP1 REVERT JUMPDEST POP JUMP INVALID LOG2 PUSH5 0x6970667358 0x22 SLT KECCAK256 CALLDATALOAD 0x21 PUSH10 0x983736E00C3B39AE3F0A 0xAA PUSH6 0x29D5CD238F29 0xAD 0xA6 0xC6 KECCAK256 0xC2 PUSH23 0xB9997B531F64736F6C6343000807003300000000000000 "
				},
				"gasEstimates": {
					"creation": {
						"codeDepositCost": "85800",
						"executionCost": "135",
						"totalCost": "85935"
					},
					"external": {
						"get()": "2568",
						"set(uint8)": "341"
					}
				},
				"methodIdentifiers": {
					"get()": "6d4ce63c",
					"set(uint8)": "24b8ba5f"
				}
			},
			"storageLayout": {
				"storage": [
					{
						"astId": 9,
						"contract": "Documents/dev/Lime/contracts/Enums.sol:Enums",
						"label": "message",
						"offset": 0,
						"slot": "0",
						"type": "t_enum(Status)6"
					}
				],
				"types": {
					"t_enum(Status)6": {
						"encoding": "inplace",
						"label": "enum Enums.Status",
						"numberOfBytes": "1"
					}
				}
			},
			"userdoc": {
				"kind": "user",
				"methods": {},
				"version": 1
			}
		}
	}
}