{
	"Documents/dev/Lime/contracts/HellowWorld.sol": {
		"HellowWorld": {
			"abi": [
				{
					"inputs": [],
					"name": "addr",
					"outputs": [
						{
							"internalType": "address",
							"name": "",
							"type": "address"
						}
					],
					"stateMutability": "view",
					"type": "function"
				},
				{
					"inputs": [],
					"name": "b",
					"outputs": [
						{
							"internalType": "bool",
							"name": "",
							"type": "bool"
						}
					],
					"stateMutability": "view",
					"type": "function"
				},
				{
					"inputs": [],
					"name": "i",
					"outputs": [
						{
							"internalType": "int256",
							"name": "",
							"type": "int256"
						}
					],
					"stateMutability": "view",
					"type": "function"
				},
				{
					"inputs": [],
					"name": "maxInt",
					"outputs": [
						{
							"internalType": "int256",
							"name": "",
							"type": "int256"
						}
					],
					"stateMutability": "view",
					"type": "function"
				},
				{
					"inputs": [],
					"name": "minInt",
					"outputs": [
						{
							"internalType": "int256",
							"name": "",
							"type": "int256"
						}
					],
					"stateMutability": "view",
					"type": "function"
				},
				{
					"inputs": [],
					"name": "myString",
					"outputs": [
						{
							"internalType": "string",
							"name": "",
							"type": "string"
						}
					],
					"stateMutability": "view",
					"type": "function"
				},
				{
					"inputs": [],
					"name": "u",
					"outputs": [
						{
							"internalType": "uint256",
							"name": "",
							"type": "uint256"
						}
					],
					"stateMutability": "view",
					"type": "function"
				}
			],
			"devdoc": {
				"kind": "dev",
				"methods": {},
				"version": 1
			},
			"evm": {
				"assembly": "    /* \"Documents/dev/Lime/contracts/HellowWorld.sol\":57:350  contract HellowWorld{... */\n  mstore(0x40, 0x80)\n    /* \"Documents/dev/Lime/contracts/HellowWorld.sol\":83:123  string public myString = \"Hellow world!\" */\n  mload(0x40)\n  dup1\n  0x40\n  add\n  0x40\n  mstore\n  dup1\n  0x0d\n  dup2\n  mstore\n  0x20\n  add\n  0x48656c6c6f7720776f726c642100000000000000000000000000000000000000\n  dup2\n  mstore\n  pop\n  0x00\n  swap1\n  dup1\n  mload\n  swap1\n  0x20\n  add\n  swap1\n  tag_1\n  swap3\n  swap2\n  swap1\n  tag_2\n  jump\t// in\ntag_1:\n  pop\n    /* \"Documents/dev/Lime/contracts/HellowWorld.sol\":145:149  true */\n  0x01\n    /* \"Documents/dev/Lime/contracts/HellowWorld.sol\":129:149  bool public b = true */\n  dup1\n  exp(0x0100, 0x00)\n  dup2\n  sload\n  dup2\n  0xff\n  mul\n  not\n  and\n  swap1\n  dup4\n  iszero\n  iszero\n  mul\n  or\n  swap1\n  sstore\n  pop\n    /* \"Documents/dev/Lime/contracts/HellowWorld.sol\":171:174  123 */\n  0x7b\n    /* \"Documents/dev/Lime/contracts/HellowWorld.sol\":155:174  uint public u = 123 */\n  0x02\n  sstore\n    /* \"Documents/dev/Lime/contracts/HellowWorld.sol\":195:199  -123 */\n  0xffffffffffffffffffffffffffffffffffffffffffffffffffffffffffffff85\n    /* \"Documents/dev/Lime/contracts/HellowWorld.sol\":180:199  int public i = -123 */\n  0x03\n  sstore\n    /* \"Documents/dev/Lime/contracts/HellowWorld.sol\":225:238  type(int).min */\n  0x8000000000000000000000000000000000000000000000000000000000000000\n    /* \"Documents/dev/Lime/contracts/HellowWorld.sol\":205:238  int public minInt = type(int).min */\n  0x04\n  sstore\n    /* \"Documents/dev/Lime/contracts/HellowWorld.sol\":264:277  type(int).max */\n  0x7fffffffffffffffffffffffffffffffffffffffffffffffffffffffffffffff\n    /* \"Documents/dev/Lime/contracts/HellowWorld.sol\":244:277  int public maxInt = type(int).max */\n  0x05\n  sstore\n    /* \"Documents/dev/Lime/contracts/HellowWorld.sol\":305:347  0x3fD54D99efAE01c478831Ba2Cd0611cE5FCBAbb0 */\n  0x3fd54d99efae01c478831ba2cd0611ce5fcbabb0\n    /* \"Documents/dev/Lime/contracts/HellowWorld.sol\":283:347  address public addr = 0x3fD54D99efAE01c478831Ba2Cd0611cE5FCBAbb0 */\n  0x06\n  exp(0x0100, 0x00)\n  dup2\n  sload\n  dup2\n  0xffffffffffffffffffffffffffffffffffffffff\n  mul\n  not\n  and\n  swap1\n  dup4\n  0xffffffffffffffffffffffffffffffffffffffff\n  and\n  mul\n  or\n  swap1\n  sstore\n  pop\n    /* \"Documents/dev/Lime/contracts/HellowWorld.sol\":57:350  contract HellowWorld{... */\n  callvalue\n  dup1\n  iszero\n  tag_3\n  jumpi\n  0x00\n  dup1\n  revert\ntag_3:\n  pop\n  jump(tag_4)\ntag_2:\n  dup3\n  dup1\n  sload\n  tag_5\n  swap1\n  tag_6\n  jump\t// in\ntag_5:\n  swap1\n  0x00\n  mstore\n  keccak256(0x00, 0x20)\n  swap1\n  0x1f\n  add\n  0x20\n  swap1\n  div\n  dup2\n  add\n  swap3\n  dup3\n  tag_8\n  jumpi\n  0x00\n  dup6\n  sstore\n  jump(tag_7)\ntag_8:\n  dup3\n  0x1f\n  lt\n  tag_9\n  jumpi\n  dup1\n  mload\n  not(0xff)\n  and\n  dup4\n  dup1\n  add\n  or\n  dup6\n  sstore\n  jump(tag_7)\ntag_9:\n  dup3\n  dup1\n  add\n  0x01\n  add\n  dup6\n  sstore\n  dup3\n  iszero\n  tag_7\n  jumpi\n  swap2\n  dup3\n  add\ntag_10:\n  dup3\n  dup2\n  gt\n  iszero\n  tag_11\n  jumpi\n  dup3\n  mload\n  dup3\n  sstore\n  swap2\n  0x20\n  add\n  swap2\n  swap1\n  0x01\n  add\n  swap1\n  jump(tag_10)\ntag_11:\ntag_7:\n  pop\n  swap1\n  pop\n  tag_12\n  swap2\n  swap1\n  tag_13\n  jump\t// in\ntag_12:\n  pop\n  swap1\n  jump\t// out\ntag_13:\ntag_14:\n  dup1\n  dup3\n  gt\n  iszero\n  tag_15\n  jumpi\n  0x00\n  dup2\n  0x00\n  swap1\n  sstore\n  pop\n  0x01\n  add\n  jump(tag_14)\ntag_15:\n  pop\n  swap1\n  jump\t// out\n    /* \"#utility.yul\":7:327   */\ntag_6:\n    /* \"#utility.yul\":51:57   */\n  0x00\n    /* \"#utility.yul\":88:89   */\n  0x02\n    /* \"#utility.yul\":82:86   */\n  dup3\n    /* \"#utility.yul\":78:90   */\n  div\n    /* \"#utility.yul\":68:90   */\n  swap1\n  pop\n    /* \"#utility.yul\":135:136   */\n  0x01\n    /* \"#utility.yul\":129:133   */\n  dup3\n    /* \"#utility.yul\":125:137   */\n  and\n    /* \"#utility.yul\":156:174   */\n  dup1\n    /* \"#utility.yul\":146:227   */\n  tag_18\n  jumpi\n    /* \"#utility.yul\":212:216   */\n  0x7f\n    /* \"#utility.yul\":204:210   */\n  dup3\n    /* \"#utility.yul\":200:217   */\n  and\n    /* \"#utility.yul\":190:217   */\n  swap2\n  pop\n    /* \"#utility.yul\":146:227   */\ntag_18:\n    /* \"#utility.yul\":274:276   */\n  0x20\n    /* \"#utility.yul\":266:272   */\n  dup3\n    /* \"#utility.yul\":263:277   */\n  lt\n    /* \"#utility.yul\":243:261   */\n  dup2\n    /* \"#utility.yul\":240:278   */\n  eq\n    /* \"#utility.yul\":237:321   */\n  iszero\n  tag_19\n  jumpi\n    /* \"#utility.yul\":293:311   */\n  tag_20\n  tag_21\n  jump\t// in\ntag_20:\n    /* \"#utility.yul\":237:321   */\ntag_19:\n    /* \"#utility.yul\":58:327   */\n  pop\n    /* \"#utility.yul\":7:327   */\n  swap2\n  swap1\n  pop\n  jump\t// out\n    /* \"#utility.yul\":333:513   */\ntag_21:\n    /* \"#utility.yul\":381:458   */\n  0x4e487b7100000000000000000000000000000000000000000000000000000000\n    /* \"#utility.yul\":378:379   */\n  0x00\n    /* \"#utility.yul\":371:459   */\n  mstore\n    /* \"#utility.yul\":478:482   */\n  0x22\n    /* \"#utility.yul\":475:476   */\n  0x04\n    /* \"#utility.yul\":468:483   */\n  mstore\n    /* \"#utility.yul\":502:506   */\n  0x24\n    /* \"#utility.yul\":499:500   */\n  0x00\n    /* \"#utility.yul\":492:507   */\n  revert\n    /* \"Documents/dev/Lime/contracts/HellowWorld.sol\":57:350  contract HellowWorld{... */\ntag_4:\n  dataSize(sub_0)\n  dup1\n  dataOffset(sub_0)\n  0x00\n  codecopy\n  0x00\n  return\nstop\n\nsub_0: assembly {\n        /* \"Documents/dev/Lime/contracts/HellowWorld.sol\":57:350  contract HellowWorld{... */\n      mstore(0x40, 0x80)\n      callvalue\n      dup1\n      iszero\n      tag_1\n      jumpi\n      0x00\n      dup1\n      revert\n    tag_1:\n      pop\n      jumpi(tag_2, lt(calldatasize, 0x04))\n      shr(0xe0, calldataload(0x00))\n      dup1\n      0x7a4c2571\n      gt\n      tag_10\n      jumpi\n      dup1\n      0x7a4c2571\n      eq\n      tag_6\n      jumpi\n      dup1\n      0x7e4e14cc\n      eq\n      tag_7\n      jumpi\n      dup1\n      0xc6a898c5\n      eq\n      tag_8\n      jumpi\n      dup1\n      0xe5aa3d58\n      eq\n      tag_9\n      jumpi\n      jump(tag_2)\n    tag_10:\n      dup1\n      0x492bfa18\n      eq\n      tag_3\n      jumpi\n      dup1\n      0x4df7e3d0\n      eq\n      tag_4\n      jumpi\n      dup1\n      0x767800de\n      eq\n      tag_5\n      jumpi\n    tag_2:\n      0x00\n      dup1\n      revert\n        /* \"Documents/dev/Lime/contracts/HellowWorld.sol\":83:123  string public myString = \"Hellow world!\" */\n    tag_3:\n      tag_11\n      tag_12\n      jump\t// in\n    tag_11:\n      mload(0x40)\n      tag_13\n      swap2\n      swap1\n      tag_14\n      jump\t// in\n    tag_13:\n      mload(0x40)\n      dup1\n      swap2\n      sub\n      swap1\n      return\n        /* \"Documents/dev/Lime/contracts/HellowWorld.sol\":129:149  bool public b = true */\n    tag_4:\n      tag_15\n      tag_16\n      jump\t// in\n    tag_15:\n      mload(0x40)\n      tag_17\n      swap2\n      swap1\n      tag_18\n      jump\t// in\n    tag_17:\n      mload(0x40)\n      dup1\n      swap2\n      sub\n      swap1\n      return\n        /* \"Documents/dev/Lime/contracts/HellowWorld.sol\":283:347  address public addr = 0x3fD54D99efAE01c478831Ba2Cd0611cE5FCBAbb0 */\n    tag_5:\n      tag_19\n      tag_20\n      jump\t// in\n    tag_19:\n      mload(0x40)\n      tag_21\n      swap2\n      swap1\n      tag_22\n      jump\t// in\n    tag_21:\n      mload(0x40)\n      dup1\n      swap2\n      sub\n      swap1\n      return\n        /* \"Documents/dev/Lime/contracts/HellowWorld.sol\":244:277  int public maxInt = type(int).max */\n    tag_6:\n      tag_23\n      tag_24\n      jump\t// in\n    tag_23:\n      mload(0x40)\n      tag_25\n      swap2\n      swap1\n      tag_26\n      jump\t// in\n    tag_25:\n      mload(0x40)\n      dup1\n      swap2\n      sub\n      swap1\n      return\n        /* \"Documents/dev/Lime/contracts/HellowWorld.sol\":205:238  int public minInt = type(int).min */\n    tag_7:\n      tag_27\n      tag_28\n      jump\t// in\n    tag_27:\n      mload(0x40)\n      tag_29\n      swap2\n      swap1\n      tag_26\n      jump\t// in\n    tag_29:\n      mload(0x40)\n      dup1\n      swap2\n      sub\n      swap1\n      return\n        /* \"Documents/dev/Lime/contracts/HellowWorld.sol\":155:174  uint public u = 123 */\n    tag_8:\n      tag_30\n      tag_31\n      jump\t// in\n    tag_30:\n      mload(0x40)\n      tag_32\n      swap2\n      swap1\n      tag_33\n      jump\t// in\n    tag_32:\n      mload(0x40)\n      dup1\n      swap2\n      sub\n      swap1\n      return\n        /* \"Documents/dev/Lime/contracts/HellowWorld.sol\":180:199  int public i = -123 */\n    tag_9:\n      tag_34\n      tag_35\n      jump\t// in\n    tag_34:\n      mload(0x40)\n      tag_36\n      swap2\n      swap1\n      tag_26\n      jump\t// in\n    tag_36:\n      mload(0x40)\n      dup1\n      swap2\n      sub\n      swap1\n      return\n        /* \"Documents/dev/Lime/contracts/HellowWorld.sol\":83:123  string public myString = \"Hellow world!\" */\n    tag_12:\n      0x00\n      dup1\n      sload\n      tag_37\n      swap1\n      tag_38\n      jump\t// in\n    tag_37:\n      dup1\n      0x1f\n      add\n      0x20\n      dup1\n      swap2\n      div\n      mul\n      0x20\n      add\n      mload(0x40)\n      swap1\n      dup2\n      add\n      0x40\n      mstore\n      dup1\n      swap3\n      swap2\n      swap1\n      dup2\n      dup2\n      mstore\n      0x20\n      add\n      dup3\n      dup1\n      sload\n      tag_39\n      swap1\n      tag_38\n      jump\t// in\n    tag_39:\n      dup1\n      iszero\n      tag_40\n      jumpi\n      dup1\n      0x1f\n      lt\n      tag_41\n      jumpi\n      0x0100\n      dup1\n      dup4\n      sload\n      div\n      mul\n      dup4\n      mstore\n      swap2\n      0x20\n      add\n      swap2\n      jump(tag_40)\n    tag_41:\n      dup3\n      add\n      swap2\n      swap1\n      0x00\n      mstore\n      keccak256(0x00, 0x20)\n      swap1\n    tag_42:\n      dup2\n      sload\n      dup2\n      mstore\n      swap1\n      0x01\n      add\n      swap1\n      0x20\n      add\n      dup1\n      dup4\n      gt\n      tag_42\n      jumpi\n      dup3\n      swap1\n      sub\n      0x1f\n      and\n      dup3\n      add\n      swap2\n    tag_40:\n      pop\n      pop\n      pop\n      pop\n      pop\n      dup2\n      jump\t// out\n        /* \"Documents/dev/Lime/contracts/HellowWorld.sol\":129:149  bool public b = true */\n    tag_16:\n      0x01\n      0x00\n      swap1\n      sload\n      swap1\n      0x0100\n      exp\n      swap1\n      div\n      0xff\n      and\n      dup2\n      jump\t// out\n        /* \"Documents/dev/Lime/contracts/HellowWorld.sol\":283:347  address public addr = 0x3fD54D99efAE01c478831Ba2Cd0611cE5FCBAbb0 */\n    tag_20:\n      0x06\n      0x00\n      swap1\n      sload\n      swap1\n      0x0100\n      exp\n      swap1\n      div\n      0xffffffffffffffffffffffffffffffffffffffff\n      and\n      dup2\n      jump\t// out\n        /* \"Documents/dev/Lime/contracts/HellowWorld.sol\":244:277  int public maxInt = type(int).max */\n    tag_24:\n      sload(0x05)\n      dup2\n      jump\t// out\n        /* \"Documents/dev/Lime/contracts/HellowWorld.sol\":205:238  int public minInt = type(int).min */\n    tag_28:\n      sload(0x04)\n      dup2\n      jump\t// out\n        /* \"Documents/dev/Lime/contracts/HellowWorld.sol\":155:174  uint public u = 123 */\n    tag_31:\n      sload(0x02)\n      dup2\n      jump\t// out\n        /* \"Documents/dev/Lime/contracts/HellowWorld.sol\":180:199  int public i = -123 */\n    tag_35:\n      sload(0x03)\n      dup2\n      jump\t// out\n        /* \"#utility.yul\":7:125   */\n    tag_44:\n        /* \"#utility.yul\":94:118   */\n      tag_46\n        /* \"#utility.yul\":112:117   */\n      dup2\n        /* \"#utility.yul\":94:118   */\n      tag_47\n      jump\t// in\n    tag_46:\n        /* \"#utility.yul\":89:92   */\n      dup3\n        /* \"#utility.yul\":82:119   */\n      mstore\n        /* \"#utility.yul\":7:125   */\n      pop\n      pop\n      jump\t// out\n        /* \"#utility.yul\":131:240   */\n    tag_48:\n        /* \"#utility.yul\":212:233   */\n      tag_50\n        /* \"#utility.yul\":227:232   */\n      dup2\n        /* \"#utility.yul\":212:233   */\n      tag_51\n      jump\t// in\n    tag_50:\n        /* \"#utility.yul\":207:210   */\n      dup3\n        /* \"#utility.yul\":200:234   */\n      mstore\n        /* \"#utility.yul\":131:240   */\n      pop\n      pop\n      jump\t// out\n        /* \"#utility.yul\":246:361   */\n    tag_52:\n        /* \"#utility.yul\":331:354   */\n      tag_54\n        /* \"#utility.yul\":348:353   */\n      dup2\n        /* \"#utility.yul\":331:354   */\n      tag_55\n      jump\t// in\n    tag_54:\n        /* \"#utility.yul\":326:329   */\n      dup3\n        /* \"#utility.yul\":319:355   */\n      mstore\n        /* \"#utility.yul\":246:361   */\n      pop\n      pop\n      jump\t// out\n        /* \"#utility.yul\":367:731   */\n    tag_56:\n        /* \"#utility.yul\":455:458   */\n      0x00\n        /* \"#utility.yul\":483:522   */\n      tag_58\n        /* \"#utility.yul\":516:521   */\n      dup3\n        /* \"#utility.yul\":483:522   */\n      tag_59\n      jump\t// in\n    tag_58:\n        /* \"#utility.yul\":538:609   */\n      tag_60\n        /* \"#utility.yul\":602:608   */\n      dup2\n        /* \"#utility.yul\":597:600   */\n      dup6\n        /* \"#utility.yul\":538:609   */\n      tag_61\n      jump\t// in\n    tag_60:\n        /* \"#utility.yul\":531:609   */\n      swap4\n      pop\n        /* \"#utility.yul\":618:670   */\n      tag_62\n        /* \"#utility.yul\":663:669   */\n      dup2\n        /* \"#utility.yul\":658:661   */\n      dup6\n        /* \"#utility.yul\":651:655   */\n      0x20\n        /* \"#utility.yul\":644:649   */\n      dup7\n        /* \"#utility.yul\":640:656   */\n      add\n        /* \"#utility.yul\":618:670   */\n      tag_63\n      jump\t// in\n    tag_62:\n        /* \"#utility.yul\":695:724   */\n      tag_64\n        /* \"#utility.yul\":717:723   */\n      dup2\n        /* \"#utility.yul\":695:724   */\n      tag_65\n      jump\t// in\n    tag_64:\n        /* \"#utility.yul\":690:693   */\n      dup5\n        /* \"#utility.yul\":686:725   */\n      add\n        /* \"#utility.yul\":679:725   */\n      swap2\n      pop\n        /* \"#utility.yul\":459:731   */\n      pop\n        /* \"#utility.yul\":367:731   */\n      swap3\n      swap2\n      pop\n      pop\n      jump\t// out\n        /* \"#utility.yul\":737:855   */\n    tag_66:\n        /* \"#utility.yul\":824:848   */\n      tag_68\n        /* \"#utility.yul\":842:847   */\n      dup2\n        /* \"#utility.yul\":824:848   */\n      tag_69\n      jump\t// in\n    tag_68:\n        /* \"#utility.yul\":819:822   */\n      dup3\n        /* \"#utility.yul\":812:849   */\n      mstore\n        /* \"#utility.yul\":737:855   */\n      pop\n      pop\n      jump\t// out\n        /* \"#utility.yul\":861:1083   */\n    tag_22:\n        /* \"#utility.yul\":954:958   */\n      0x00\n        /* \"#utility.yul\":992:994   */\n      0x20\n        /* \"#utility.yul\":981:990   */\n      dup3\n        /* \"#utility.yul\":977:995   */\n      add\n        /* \"#utility.yul\":969:995   */\n      swap1\n      pop\n        /* \"#utility.yul\":1005:1076   */\n      tag_71\n        /* \"#utility.yul\":1073:1074   */\n      0x00\n        /* \"#utility.yul\":1062:1071   */\n      dup4\n        /* \"#utility.yul\":1058:1075   */\n      add\n        /* \"#utility.yul\":1049:1055   */\n      dup5\n        /* \"#utility.yul\":1005:1076   */\n      tag_44\n      jump\t// in\n    tag_71:\n        /* \"#utility.yul\":861:1083   */\n      swap3\n      swap2\n      pop\n      pop\n      jump\t// out\n        /* \"#utility.yul\":1089:1299   */\n    tag_18:\n        /* \"#utility.yul\":1176:1180   */\n      0x00\n        /* \"#utility.yul\":1214:1216   */\n      0x20\n        /* \"#utility.yul\":1203:1212   */\n      dup3\n        /* \"#utility.yul\":1199:1217   */\n      add\n        /* \"#utility.yul\":1191:1217   */\n      swap1\n      pop\n        /* \"#utility.yul\":1227:1292   */\n      tag_73\n        /* \"#utility.yul\":1289:1290   */\n      0x00\n        /* \"#utility.yul\":1278:1287   */\n      dup4\n        /* \"#utility.yul\":1274:1291   */\n      add\n        /* \"#utility.yul\":1265:1271   */\n      dup5\n        /* \"#utility.yul\":1227:1292   */\n      tag_48\n      jump\t// in\n    tag_73:\n        /* \"#utility.yul\":1089:1299   */\n      swap3\n      swap2\n      pop\n      pop\n      jump\t// out\n        /* \"#utility.yul\":1305:1523   */\n    tag_26:\n        /* \"#utility.yul\":1396:1400   */\n      0x00\n        /* \"#utility.yul\":1434:1436   */\n      0x20\n        /* \"#utility.yul\":1423:1432   */\n      dup3\n        /* \"#utility.yul\":1419:1437   */\n      add\n        /* \"#utility.yul\":1411:1437   */\n      swap1\n      pop\n        /* \"#utility.yul\":1447:1516   */\n      tag_75\n        /* \"#utility.yul\":1513:1514   */\n      0x00\n        /* \"#utility.yul\":1502:1511   */\n      dup4\n        /* \"#utility.yul\":1498:1515   */\n      add\n        /* \"#utility.yul\":1489:1495   */\n      dup5\n        /* \"#utility.yul\":1447:1516   */\n      tag_52\n      jump\t// in\n    tag_75:\n        /* \"#utility.yul\":1305:1523   */\n      swap3\n      swap2\n      pop\n      pop\n      jump\t// out\n        /* \"#utility.yul\":1529:1842   */\n    tag_14:\n        /* \"#utility.yul\":1642:1646   */\n      0x00\n        /* \"#utility.yul\":1680:1682   */\n      0x20\n        /* \"#utility.yul\":1669:1678   */\n      dup3\n        /* \"#utility.yul\":1665:1683   */\n      add\n        /* \"#utility.yul\":1657:1683   */\n      swap1\n      pop\n        /* \"#utility.yul\":1729:1738   */\n      dup2\n        /* \"#utility.yul\":1723:1727   */\n      dup2\n        /* \"#utility.yul\":1719:1739   */\n      sub\n        /* \"#utility.yul\":1715:1716   */\n      0x00\n        /* \"#utility.yul\":1704:1713   */\n      dup4\n        /* \"#utility.yul\":1700:1717   */\n      add\n        /* \"#utility.yul\":1693:1740   */\n      mstore\n        /* \"#utility.yul\":1757:1835   */\n      tag_77\n        /* \"#utility.yul\":1830:1834   */\n      dup2\n        /* \"#utility.yul\":1821:1827   */\n      dup5\n        /* \"#utility.yul\":1757:1835   */\n      tag_56\n      jump\t// in\n    tag_77:\n        /* \"#utility.yul\":1749:1835   */\n      swap1\n      pop\n        /* \"#utility.yul\":1529:1842   */\n      swap3\n      swap2\n      pop\n      pop\n      jump\t// out\n        /* \"#utility.yul\":1848:2070   */\n    tag_33:\n        /* \"#utility.yul\":1941:1945   */\n      0x00\n        /* \"#utility.yul\":1979:1981   */\n      0x20\n        /* \"#utility.yul\":1968:1977   */\n      dup3\n        /* \"#utility.yul\":1964:1982   */\n      add\n        /* \"#utility.yul\":1956:1982   */\n      swap1\n      pop\n        /* \"#utility.yul\":1992:2063   */\n      tag_79\n        /* \"#utility.yul\":2060:2061   */\n      0x00\n        /* \"#utility.yul\":2049:2058   */\n      dup4\n        /* \"#utility.yul\":2045:2062   */\n      add\n        /* \"#utility.yul\":2036:2042   */\n      dup5\n        /* \"#utility.yul\":1992:2063   */\n      tag_66\n      jump\t// in\n    tag_79:\n        /* \"#utility.yul\":1848:2070   */\n      swap3\n      swap2\n      pop\n      pop\n      jump\t// out\n        /* \"#utility.yul\":2076:2175   */\n    tag_59:\n        /* \"#utility.yul\":2128:2134   */\n      0x00\n        /* \"#utility.yul\":2162:2167   */\n      dup2\n        /* \"#utility.yul\":2156:2168   */\n      mload\n        /* \"#utility.yul\":2146:2168   */\n      swap1\n      pop\n        /* \"#utility.yul\":2076:2175   */\n      swap2\n      swap1\n      pop\n      jump\t// out\n        /* \"#utility.yul\":2181:2350   */\n    tag_61:\n        /* \"#utility.yul\":2265:2276   */\n      0x00\n        /* \"#utility.yul\":2299:2305   */\n      dup3\n        /* \"#utility.yul\":2294:2297   */\n      dup3\n        /* \"#utility.yul\":2287:2306   */\n      mstore\n        /* \"#utility.yul\":2339:2343   */\n      0x20\n        /* \"#utility.yul\":2334:2337   */\n      dup3\n        /* \"#utility.yul\":2330:2344   */\n      add\n        /* \"#utility.yul\":2315:2344   */\n      swap1\n      pop\n        /* \"#utility.yul\":2181:2350   */\n      swap3\n      swap2\n      pop\n      pop\n      jump\t// out\n        /* \"#utility.yul\":2356:2452   */\n    tag_47:\n        /* \"#utility.yul\":2393:2400   */\n      0x00\n        /* \"#utility.yul\":2422:2446   */\n      tag_83\n        /* \"#utility.yul\":2440:2445   */\n      dup3\n        /* \"#utility.yul\":2422:2446   */\n      tag_84\n      jump\t// in\n    tag_83:\n        /* \"#utility.yul\":2411:2446   */\n      swap1\n      pop\n        /* \"#utility.yul\":2356:2452   */\n      swap2\n      swap1\n      pop\n      jump\t// out\n        /* \"#utility.yul\":2458:2548   */\n    tag_51:\n        /* \"#utility.yul\":2492:2499   */\n      0x00\n        /* \"#utility.yul\":2535:2540   */\n      dup2\n        /* \"#utility.yul\":2528:2541   */\n      iszero\n        /* \"#utility.yul\":2521:2542   */\n      iszero\n        /* \"#utility.yul\":2510:2542   */\n      swap1\n      pop\n        /* \"#utility.yul\":2458:2548   */\n      swap2\n      swap1\n      pop\n      jump\t// out\n        /* \"#utility.yul\":2554:2630   */\n    tag_55:\n        /* \"#utility.yul\":2590:2597   */\n      0x00\n        /* \"#utility.yul\":2619:2624   */\n      dup2\n        /* \"#utility.yul\":2608:2624   */\n      swap1\n      pop\n        /* \"#utility.yul\":2554:2630   */\n      swap2\n      swap1\n      pop\n      jump\t// out\n        /* \"#utility.yul\":2636:2762   */\n    tag_84:\n        /* \"#utility.yul\":2673:2680   */\n      0x00\n        /* \"#utility.yul\":2713:2755   */\n      0xffffffffffffffffffffffffffffffffffffffff\n        /* \"#utility.yul\":2706:2711   */\n      dup3\n        /* \"#utility.yul\":2702:2756   */\n      and\n        /* \"#utility.yul\":2691:2756   */\n      swap1\n      pop\n        /* \"#utility.yul\":2636:2762   */\n      swap2\n      swap1\n      pop\n      jump\t// out\n        /* \"#utility.yul\":2768:2845   */\n    tag_69:\n        /* \"#utility.yul\":2805:2812   */\n      0x00\n        /* \"#utility.yul\":2834:2839   */\n      dup2\n        /* \"#utility.yul\":2823:2839   */\n      swap1\n      pop\n        /* \"#utility.yul\":2768:2845   */\n      swap2\n      swap1\n      pop\n      jump\t// out\n        /* \"#utility.yul\":2851:3158   */\n    tag_63:\n        /* \"#utility.yul\":2919:2920   */\n      0x00\n        /* \"#utility.yul\":2929:3042   */\n    tag_90:\n        /* \"#utility.yul\":2943:2949   */\n      dup4\n        /* \"#utility.yul\":2940:2941   */\n      dup2\n        /* \"#utility.yul\":2937:2950   */\n      lt\n        /* \"#utility.yul\":2929:3042   */\n      iszero\n      tag_92\n      jumpi\n        /* \"#utility.yul\":3028:3029   */\n      dup1\n        /* \"#utility.yul\":3023:3026   */\n      dup3\n        /* \"#utility.yul\":3019:3030   */\n      add\n        /* \"#utility.yul\":3013:3031   */\n      mload\n        /* \"#utility.yul\":3009:3010   */\n      dup2\n        /* \"#utility.yul\":3004:3007   */\n      dup5\n        /* \"#utility.yul\":3000:3011   */\n      add\n        /* \"#utility.yul\":2993:3032   */\n      mstore\n        /* \"#utility.yul\":2965:2967   */\n      0x20\n        /* \"#utility.yul\":2962:2963   */\n      dup2\n        /* \"#utility.yul\":2958:2968   */\n      add\n        /* \"#utility.yul\":2953:2968   */\n      swap1\n      pop\n        /* \"#utility.yul\":2929:3042   */\n      jump(tag_90)\n    tag_92:\n        /* \"#utility.yul\":3060:3066   */\n      dup4\n        /* \"#utility.yul\":3057:3058   */\n      dup2\n        /* \"#utility.yul\":3054:3067   */\n      gt\n        /* \"#utility.yul\":3051:3152   */\n      iszero\n      tag_93\n      jumpi\n        /* \"#utility.yul\":3140:3141   */\n      0x00\n        /* \"#utility.yul\":3131:3137   */\n      dup5\n        /* \"#utility.yul\":3126:3129   */\n      dup5\n        /* \"#utility.yul\":3122:3138   */\n      add\n        /* \"#utility.yul\":3115:3142   */\n      mstore\n        /* \"#utility.yul\":3051:3152   */\n    tag_93:\n        /* \"#utility.yul\":2900:3158   */\n      pop\n        /* \"#utility.yul\":2851:3158   */\n      pop\n      pop\n      pop\n      jump\t// out\n        /* \"#utility.yul\":3164:3484   */\n    tag_38:\n        /* \"#utility.yul\":3208:3214   */\n      0x00\n        /* \"#utility.yul\":3245:3246   */\n      0x02\n        /* \"#utility.yul\":3239:3243   */\n      dup3\n        /* \"#utility.yul\":3235:3247   */\n      div\n        /* \"#utility.yul\":3225:3247   */\n      swap1\n      pop\n        /* \"#utility.yul\":3292:3293   */\n      0x01\n        /* \"#utility.yul\":3286:3290   */\n      dup3\n        /* \"#utility.yul\":3282:3294   */\n      and\n        /* \"#utility.yul\":3313:3331   */\n      dup1\n        /* \"#utility.yul\":3303:3384   */\n      tag_95\n      jumpi\n        /* \"#utility.yul\":3369:3373   */\n      0x7f\n        /* \"#utility.yul\":3361:3367   */\n      dup3\n        /* \"#utility.yul\":3357:3374   */\n      and\n        /* \"#utility.yul\":3347:3374   */\n      swap2\n      pop\n        /* \"#utility.yul\":3303:3384   */\n    tag_95:\n        /* \"#utility.yul\":3431:3433   */\n      0x20\n        /* \"#utility.yul\":3423:3429   */\n      dup3\n        /* \"#utility.yul\":3420:3434   */\n      lt\n        /* \"#utility.yul\":3400:3418   */\n      dup2\n        /* \"#utility.yul\":3397:3435   */\n      eq\n        /* \"#utility.yul\":3394:3478   */\n      iszero\n      tag_96\n      jumpi\n        /* \"#utility.yul\":3450:3468   */\n      tag_97\n      tag_98\n      jump\t// in\n    tag_97:\n        /* \"#utility.yul\":3394:3478   */\n    tag_96:\n        /* \"#utility.yul\":3215:3484   */\n      pop\n        /* \"#utility.yul\":3164:3484   */\n      swap2\n      swap1\n      pop\n      jump\t// out\n        /* \"#utility.yul\":3490:3670   */\n    tag_98:\n        /* \"#utility.yul\":3538:3615   */\n      0x4e487b7100000000000000000000000000000000000000000000000000000000\n        /* \"#utility.yul\":3535:3536   */\n      0x00\n        /* \"#utility.yul\":3528:3616   */\n      mstore\n        /* \"#utility.yul\":3635:3639   */\n      0x22\n        /* \"#utility.yul\":3632:3633   */\n      0x04\n        /* \"#utility.yul\":3625:3640   */\n      mstore\n        /* \"#utility.yul\":3659:3663   */\n      0x24\n        /* \"#utility.yul\":3656:3657   */\n      0x00\n        /* \"#utility.yul\":3649:3664   */\n      revert\n        /* \"#utility.yul\":3676:3778   */\n    tag_65:\n        /* \"#utility.yul\":3717:3723   */\n      0x00\n        /* \"#utility.yul\":3768:3770   */\n      0x1f\n        /* \"#utility.yul\":3764:3771   */\n      not\n        /* \"#utility.yul\":3759:3761   */\n      0x1f\n        /* \"#utility.yul\":3752:3757   */\n      dup4\n        /* \"#utility.yul\":3748:3762   */\n      add\n        /* \"#utility.yul\":3744:3772   */\n      and\n        /* \"#utility.yul\":3734:3772   */\n      swap1\n      pop\n        /* \"#utility.yul\":3676:3778   */\n      swap2\n      swap1\n      pop\n      jump\t// out\n\n    auxdata: 0xa26469706673582212201e5e0279cf39af651fe671a2107a83907eea9ab8b92c6365841d76d1b72cd30964736f6c63430008070033\n}\n",
				"bytecode": {
					"linkReferences": {},
					"object": "60806040526040518060400160405280600d81526020017f48656c6c6f7720776f726c6421000000000000000000000000000000000000008152506000908051906020019061004f929190610142565b5060018060006101000a81548160ff021916908315150217905550607b6002557fffffffffffffffffffffffffffffffffffffffffffffffffffffffffffffff856003557f80000000000000000000000000000000000000000000000000000000000000006004557f7fffffffffffffffffffffffffffffffffffffffffffffffffffffffffffffff600555733fd54d99efae01c478831ba2cd0611ce5fcbabb0600660006101000a81548173ffffffffffffffffffffffffffffffffffffffff021916908373ffffffffffffffffffffffffffffffffffffffff16021790555034801561013c57600080fd5b50610246565b82805461014e906101e5565b90600052602060002090601f01602090048101928261017057600085556101b7565b82601f1061018957805160ff19168380011785556101b7565b828001600101855582156101b7579182015b828111156101b657825182559160200191906001019061019b565b5b5090506101c491906101c8565b5090565b5b808211156101e15760008160009055506001016101c9565b5090565b600060028204905060018216806101fd57607f821691505b6020821081141561021157610210610217565b5b50919050565b7f4e487b7100000000000000000000000000000000000000000000000000000000600052602260045260246000fd5b61047f806102556000396000f3fe608060405234801561001057600080fd5b506004361061007d5760003560e01c80637a4c25711161005b5780637a4c2571146100dc5780637e4e14cc146100fa578063c6a898c514610118578063e5aa3d58146101365761007d565b8063492bfa18146100825780634df7e3d0146100a0578063767800de146100be575b600080fd5b61008a610154565b60405161009791906102f9565b60405180910390f35b6100a86101e2565b6040516100b591906102c3565b60405180910390f35b6100c66101f5565b6040516100d391906102a8565b60405180910390f35b6100e461021b565b6040516100f191906102de565b60405180910390f35b610102610221565b60405161010f91906102de565b60405180910390f35b610120610227565b60405161012d919061031b565b60405180910390f35b61013e61022d565b60405161014b91906102de565b60405180910390f35b60008054610161906103d7565b80601f016020809104026020016040519081016040528092919081815260200182805461018d906103d7565b80156101da5780601f106101af576101008083540402835291602001916101da565b820191906000526020600020905b8154815290600101906020018083116101bd57829003601f168201915b505050505081565b600160009054906101000a900460ff1681565b600660009054906101000a900473ffffffffffffffffffffffffffffffffffffffff1681565b60055481565b60045481565b60025481565b60035481565b61023c81610352565b82525050565b61024b81610364565b82525050565b61025a81610370565b82525050565b600061026b82610336565b6102758185610341565b93506102858185602086016103a4565b61028e81610438565b840191505092915050565b6102a28161039a565b82525050565b60006020820190506102bd6000830184610233565b92915050565b60006020820190506102d86000830184610242565b92915050565b60006020820190506102f36000830184610251565b92915050565b600060208201905081810360008301526103138184610260565b905092915050565b60006020820190506103306000830184610299565b92915050565b600081519050919050565b600082825260208201905092915050565b600061035d8261037a565b9050919050565b60008115159050919050565b6000819050919050565b600073ffffffffffffffffffffffffffffffffffffffff82169050919050565b6000819050919050565b60005b838110156103c25780820151818401526020810190506103a7565b838111156103d1576000848401525b50505050565b600060028204905060018216806103ef57607f821691505b6020821081141561040357610402610409565b5b50919050565b7f4e487b7100000000000000000000000000000000000000000000000000000000600052602260045260246000fd5b6000601f19601f830116905091905056fea26469706673582212201e5e0279cf39af651fe671a2107a83907eea9ab8b92c6365841d76d1b72cd30964736f6c63430008070033",
					"opcodes": "PUSH1 0x80 PUSH1 0x40 MSTORE PUSH1 0x40 MLOAD DUP1 PUSH1 0x40 ADD PUSH1 0x40 MSTORE DUP1 PUSH1 0xD DUP2 MSTORE PUSH1 0x20 ADD PUSH32 0x48656C6C6F7720776F726C642100000000000000000000000000000000000000 DUP2 MSTORE POP PUSH1 0x0 SWAP1 DUP1 MLOAD SWAP1 PUSH1 0x20 ADD SWAP1 PUSH2 0x4F SWAP3 SWAP2 SWAP1 PUSH2 0x142 JUMP JUMPDEST POP PUSH1 0x1 DUP1 PUSH1 0x0 PUSH2 0x100 EXP DUP2 SLOAD DUP2 PUSH1 0xFF MUL NOT AND SWAP1 DUP4 ISZERO ISZERO MUL OR SWAP1 SSTORE POP PUSH1 0x7B PUSH1 0x2 SSTORE PUSH32 0xFFFFFFFFFFFFFFFFFFFFFFFFFFFFFFFFFFFFFFFFFFFFFFFFFFFFFFFFFFFFFF85 PUSH1 0x3 SSTORE PUSH32 0x8000000000000000000000000000000000000000000000000000000000000000 PUSH1 0x4 SSTORE PUSH32 0x7FFFFFFFFFFFFFFFFFFFFFFFFFFFFFFFFFFFFFFFFFFFFFFFFFFFFFFFFFFFFFFF PUSH1 0x5 SSTORE PUSH20 0x3FD54D99EFAE01C478831BA2CD0611CE5FCBABB0 PUSH1 0x6 PUSH1 0x0 PUSH2 0x100 EXP DUP2 SLOAD DUP2 PUSH20 0xFFFFFFFFFFFFFFFFFFFFFFFFFFFFFFFFFFFFFFFF MUL NOT AND SWAP1 DUP4 PUSH20 0xFFFFFFFFFFFFFFFFFFFFFFFFFFFFFFFFFFFFFFFF AND MUL OR SWAP1 SSTORE POP CALLVALUE DUP1 ISZERO PUSH2 0x13C JUMPI PUSH1 0x0 DUP1 REVERT JUMPDEST POP PUSH2 0x246 JUMP JUMPDEST DUP3 DUP1 SLOAD PUSH2 0x14E SWAP1 PUSH2 0x1E5 JUMP JUMPDEST SWAP1 PUSH1 0x0 MSTORE PUSH1 0x20 PUSH1 0x0 KECCAK256 SWAP1 PUSH1 0x1F ADD PUSH1 0x20 SWAP1 DIV DUP2 ADD SWAP3 DUP3 PUSH2 0x170 JUMPI PUSH1 0x0 DUP6 SSTORE PUSH2 0x1B7 JUMP JUMPDEST DUP3 PUSH1 0x1F LT PUSH2 0x189 JUMPI DUP1 MLOAD PUSH1 0xFF NOT AND DUP4 DUP1 ADD OR DUP6 SSTORE PUSH2 0x1B7 JUMP JUMPDEST DUP3 DUP1 ADD PUSH1 0x1 ADD DUP6 SSTORE DUP3 ISZERO PUSH2 0x1B7 JUMPI SWAP2 DUP3 ADD JUMPDEST DUP3 DUP2 GT ISZERO PUSH2 0x1B6 JUMPI DUP3 MLOAD DUP3 SSTORE SWAP2 PUSH1 0x20 ADD SWAP2 SWAP1 PUSH1 0x1 ADD SWAP1 PUSH2 0x19B JUMP JUMPDEST JUMPDEST POP SWAP1 POP PUSH2 0x1C4 SWAP2 SWAP1 PUSH2 0x1C8 JUMP JUMPDEST POP SWAP1 JUMP JUMPDEST JUMPDEST DUP1 DUP3 GT ISZERO PUSH2 0x1E1 JUMPI PUSH1 0x0 DUP2 PUSH1 0x0 SWAP1 SSTORE POP PUSH1 0x1 ADD PUSH2 0x1C9 JUMP JUMPDEST POP SWAP1 JUMP JUMPDEST PUSH1 0x0 PUSH1 0x2 DUP3 DIV SWAP1 POP PUSH1 0x1 DUP3 AND DUP1 PUSH2 0x1FD JUMPI PUSH1 0x7F DUP3 AND SWAP2 POP JUMPDEST PUSH1 0x20 DUP3 LT DUP2 EQ ISZERO PUSH2 0x211 JUMPI PUSH2 0x210 PUSH2 0x217 JUMP JUMPDEST JUMPDEST POP SWAP2 SWAP1 POP JUMP JUMPDEST PUSH32 0x4E487B7100000000000000000000000000000000000000000000000000000000 PUSH1 0x0 MSTORE PUSH1 0x22 PUSH1 0x4 MSTORE PUSH1 0x24 PUSH1 0x0 REVERT JUMPDEST PUSH2 0x47F DUP1 PUSH2 0x255 PUSH1 0x0 CODECOPY PUSH1 0x0 RETURN INVALID PUSH1 0x80 PUSH1 0x40 MSTORE CALLVALUE DUP1 ISZERO PUSH2 0x10 JUMPI PUSH1 0x0 DUP1 REVERT JUMPDEST POP PUSH1 0x4 CALLDATASIZE LT PUSH2 0x7D JUMPI PUSH1 0x0 CALLDATALOAD PUSH1 0xE0 SHR DUP1 PUSH4 0x7A4C2571 GT PUSH2 0x5B JUMPI DUP1 PUSH4 0x7A4C2571 EQ PUSH2 0xDC JUMPI DUP1 PUSH4 0x7E4E14CC EQ PUSH2 0xFA JUMPI DUP1 PUSH4 0xC6A898C5 EQ PUSH2 0x118 JUMPI DUP1 PUSH4 0xE5AA3D58 EQ PUSH2 0x136 JUMPI PUSH2 0x7D JUMP JUMPDEST DUP1 PUSH4 0x492BFA18 EQ PUSH2 0x82 JUMPI DUP1 PUSH4 0x4DF7E3D0 EQ PUSH2 0xA0 JUMPI DUP1 PUSH4 0x767800DE EQ PUSH2 0xBE JUMPI JUMPDEST PUSH1 0x0 DUP1 REVERT JUMPDEST PUSH2 0x8A PUSH2 0x154 JUMP JUMPDEST PUSH1 0x40 MLOAD PUSH2 0x97 SWAP2 SWAP1 PUSH2 0x2F9 JUMP JUMPDEST PUSH1 0x40 MLOAD DUP1 SWAP2 SUB SWAP1 RETURN JUMPDEST PUSH2 0xA8 PUSH2 0x1E2 JUMP JUMPDEST PUSH1 0x40 MLOAD PUSH2 0xB5 SWAP2 SWAP1 PUSH2 0x2C3 JUMP JUMPDEST PUSH1 0x40 MLOAD DUP1 SWAP2 SUB SWAP1 RETURN JUMPDEST PUSH2 0xC6 PUSH2 0x1F5 JUMP JUMPDEST PUSH1 0x40 MLOAD PUSH2 0xD3 SWAP2 SWAP1 PUSH2 0x2A8 JUMP JUMPDEST PUSH1 0x40 MLOAD DUP1 SWAP2 SUB SWAP1 RETURN JUMPDEST PUSH2 0xE4 PUSH2 0x21B JUMP JUMPDEST PUSH1 0x40 MLOAD PUSH2 0xF1 SWAP2 SWAP1 PUSH2 0x2DE JUMP JUMPDEST PUSH1 0x40 MLOAD DUP1 SWAP2 SUB SWAP1 RETURN JUMPDEST PUSH2 0x102 PUSH2 0x221 JUMP JUMPDEST PUSH1 0x40 MLOAD PUSH2 0x10F SWAP2 SWAP1 PUSH2 0x2DE JUMP JUMPDEST PUSH1 0x40 MLOAD DUP1 SWAP2 SUB SWAP1 RETURN JUMPDEST PUSH2 0x120 PUSH2 0x227 JUMP JUMPDEST PUSH1 0x40 MLOAD PUSH2 0x12D SWAP2 SWAP1 PUSH2 0x31B JUMP JUMPDEST PUSH1 0x40 MLOAD DUP1 SWAP2 SUB SWAP1 RETURN JUMPDEST PUSH2 0x13E PUSH2 0x22D JUMP JUMPDEST PUSH1 0x40 MLOAD PUSH2 0x14B SWAP2 SWAP1 PUSH2 0x2DE JUMP JUMPDEST PUSH1 0x40 MLOAD DUP1 SWAP2 SUB SWAP1 RETURN JUMPDEST PUSH1 0x0 DUP1 SLOAD PUSH2 0x161 SWAP1 PUSH2 0x3D7 JUMP JUMPDEST DUP1 PUSH1 0x1F ADD PUSH1 0x20 DUP1 SWAP2 DIV MUL PUSH1 0x20 ADD PUSH1 0x40 MLOAD SWAP1 DUP2 ADD PUSH1 0x40 MSTORE DUP1 SWAP3 SWAP2 SWAP1 DUP2 DUP2 MSTORE PUSH1 0x20 ADD DUP3 DUP1 SLOAD PUSH2 0x18D SWAP1 PUSH2 0x3D7 JUMP JUMPDEST DUP1 ISZERO PUSH2 0x1DA JUMPI DUP1 PUSH1 0x1F LT PUSH2 0x1AF JUMPI PUSH2 0x100 DUP1 DUP4 SLOAD DIV MUL DUP4 MSTORE SWAP2 PUSH1 0x20 ADD SWAP2 PUSH2 0x1DA JUMP JUMPDEST DUP3 ADD SWAP2 SWAP1 PUSH1 0x0 MSTORE PUSH1 0x20 PUSH1 0x0 KECCAK256 SWAP1 JUMPDEST DUP2 SLOAD DUP2 MSTORE SWAP1 PUSH1 0x1 ADD SWAP1 PUSH1 0x20 ADD DUP1 DUP4 GT PUSH2 0x1BD JUMPI DUP3 SWAP1 SUB PUSH1 0x1F AND DUP3 ADD SWAP2 JUMPDEST POP POP POP POP POP DUP2 JUMP JUMPDEST PUSH1 0x1 PUSH1 0x0 SWAP1 SLOAD SWAP1 PUSH2 0x100 EXP SWAP1 DIV PUSH1 0xFF AND DUP2 JUMP JUMPDEST PUSH1 0x6 PUSH1 0x0 SWAP1 SLOAD SWAP1 PUSH2 0x100 EXP SWAP1 DIV PUSH20 0xFFFFFFFFFFFFFFFFFFFFFFFFFFFFFFFFFFFFFFFF AND DUP2 JUMP JUMPDEST PUSH1 0x5 SLOAD DUP2 JUMP JUMPDEST PUSH1 0x4 SLOAD DUP2 JUMP JUMPDEST PUSH1 0x2 SLOAD DUP2 JUMP JUMPDEST PUSH1 0x3 SLOAD DUP2 JUMP JUMPDEST PUSH2 0x23C DUP2 PUSH2 0x352 JUMP JUMPDEST DUP3 MSTORE POP POP JUMP JUMPDEST PUSH2 0x24B DUP2 PUSH2 0x364 JUMP JUMPDEST DUP3 MSTORE POP POP JUMP JUMPDEST PUSH2 0x25A DUP2 PUSH2 0x370 JUMP JUMPDEST DUP3 MSTORE POP POP JUMP JUMPDEST PUSH1 0x0 PUSH2 0x26B DUP3 PUSH2 0x336 JUMP JUMPDEST PUSH2 0x275 DUP2 DUP6 PUSH2 0x341 JUMP JUMPDEST SWAP4 POP PUSH2 0x285 DUP2 DUP6 PUSH1 0x20 DUP7 ADD PUSH2 0x3A4 JUMP JUMPDEST PUSH2 0x28E DUP2 PUSH2 0x438 JUMP JUMPDEST DUP5 ADD SWAP2 POP POP SWAP3 SWAP2 POP POP JUMP JUMPDEST PUSH2 0x2A2 DUP2 PUSH2 0x39A JUMP JUMPDEST DUP3 MSTORE POP POP JUMP JUMPDEST PUSH1 0x0 PUSH1 0x20 DUP3 ADD SWAP1 POP PUSH2 0x2BD PUSH1 0x0 DUP4 ADD DUP5 PUSH2 0x233 JUMP JUMPDEST SWAP3 SWAP2 POP POP JUMP JUMPDEST PUSH1 0x0 PUSH1 0x20 DUP3 ADD SWAP1 POP PUSH2 0x2D8 PUSH1 0x0 DUP4 ADD DUP5 PUSH2 0x242 JUMP JUMPDEST SWAP3 SWAP2 POP POP JUMP JUMPDEST PUSH1 0x0 PUSH1 0x20 DUP3 ADD SWAP1 POP PUSH2 0x2F3 PUSH1 0x0 DUP4 ADD DUP5 PUSH2 0x251 JUMP JUMPDEST SWAP3 SWAP2 POP POP JUMP JUMPDEST PUSH1 0x0 PUSH1 0x20 DUP3 ADD SWAP1 POP DUP2 DUP2 SUB PUSH1 0x0 DUP4 ADD MSTORE PUSH2 0x313 DUP2 DUP5 PUSH2 0x260 JUMP JUMPDEST SWAP1 POP SWAP3 SWAP2 POP POP JUMP JUMPDEST PUSH1 0x0 PUSH1 0x20 DUP3 ADD SWAP1 POP PUSH2 0x330 PUSH1 0x0 DUP4 ADD DUP5 PUSH2 0x299 JUMP JUMPDEST SWAP3 SWAP2 POP POP JUMP JUMPDEST PUSH1 0x0 DUP2 MLOAD SWAP1 POP SWAP2 SWAP1 POP JUMP JUMPDEST PUSH1 0x0 DUP3 DUP3 MSTORE PUSH1 0x20 DUP3 ADD SWAP1 POP SWAP3 SWAP2 POP POP JUMP JUMPDEST PUSH1 0x0 PUSH2 0x35D DUP3 PUSH2 0x37A JUMP JUMPDEST SWAP1 POP SWAP2 SWAP1 POP JUMP JUMPDEST PUSH1 0x0 DUP2 ISZERO ISZERO SWAP1 POP SWAP2 SWAP1 POP JUMP JUMPDEST PUSH1 0x0 DUP2 SWAP1 POP SWAP2 SWAP1 POP JUMP JUMPDEST PUSH1 0x0 PUSH20 0xFFFFFFFFFFFFFFFFFFFFFFFFFFFFFFFFFFFFFFFF DUP3 AND SWAP1 POP SWAP2 SWAP1 POP JUMP JUMPDEST PUSH1 0x0 DUP2 SWAP1 POP SWAP2 SWAP1 POP JUMP JUMPDEST PUSH1 0x0 JUMPDEST DUP4 DUP2 LT ISZERO PUSH2 0x3C2 JUMPI DUP1 DUP3 ADD MLOAD DUP2 DUP5 ADD MSTORE PUSH1 0x20 DUP2 ADD SWAP1 POP PUSH2 0x3A7 JUMP JUMPDEST DUP4 DUP2 GT ISZERO PUSH2 0x3D1 JUMPI PUSH1 0x0 DUP5 DUP5 ADD MSTORE JUMPDEST POP POP POP POP JUMP JUMPDEST PUSH1 0x0 PUSH1 0x2 DUP3 DIV SWAP1 POP PUSH1 0x1 DUP3 AND DUP1 PUSH2 0x3EF JUMPI PUSH1 0x7F DUP3 AND SWAP2 POP JUMPDEST PUSH1 0x20 DUP3 LT DUP2 EQ ISZERO PUSH2 0x403 JUMPI PUSH2 0x402 PUSH2 0x409 JUMP JUMPDEST JUMPDEST POP SWAP2 SWAP1 POP JUMP JUMPDEST PUSH32 0x4E487B7100000000000000000000000000000000000000000000000000000000 PUSH1 0x0 MSTORE PUSH1 0x22 PUSH1 0x4 MSTORE PUSH1 0x24 PUSH1 0x0 REVERT JUMPDEST PUSH1 0x0 PUSH1 0x1F NOT PUSH1 0x1F DUP4 ADD AND SWAP1 POP SWAP2 SWAP1 POP JUMP INVALID LOG2 PUSH5 0x6970667358 0x22 SLT KECCAK256 0x1E 0x5E MUL PUSH26 0xCF39AF651FE671A2107A83907EEA9AB8B92C6365841D76D1B72C 0xD3 MULMOD PUSH5 0x736F6C6343 STOP ADDMOD SMOD STOP CALLER "
				},
				"gasEstimates": {
					"creation": {
						"codeDepositCost": "230200",
						"executionCost": "infinite",
						"totalCost": "infinite"
					},
					"external": {
						"addr()": "2559",
						"b()": "2494",
						"i()": "2495",
						"maxInt()": "2429",
						"minInt()": "2451",
						"myString()": "infinite",
						"u()": "2473"
					}
				},
				"methodIdentifiers": {
					"addr()": "767800de",
					"b()": "4df7e3d0",
					"i()": "e5aa3d58",
					"maxInt()": "7a4c2571",
					"minInt()": "7e4e14cc",
					"myString()": "492bfa18",
					"u()": "c6a898c5"
				}
			},
			"storageLayout": {
				"storage": [
					{
						"astId": 4,
						"contract": "Documents/dev/Lime/contracts/HellowWorld.sol:HellowWorld",
						"label": "myString",
						"offset": 0,
						"slot": "0",
						"type": "t_string_storage"
					},
					{
						"astId": 7,
						"contract": "Documents/dev/Lime/contracts/HellowWorld.sol:HellowWorld",
						"label": "b",
						"offset": 0,
						"slot": "1",
						"type": "t_bool"
					},
					{
						"astId": 10,
						"contract": "Documents/dev/Lime/contracts/HellowWorld.sol:HellowWorld",
						"label": "u",
						"offset": 0,
						"slot": "2",
						"type": "t_uint256"
					},
					{
						"astId": 14,
						"contract": "Documents/dev/Lime/contracts/HellowWorld.sol:HellowWorld",
						"label": "i",
						"offset": 0,
						"slot": "3",
						"type": "t_int256"
					},
					{
						"astId": 21,
						"contract": "Documents/dev/Lime/contracts/HellowWorld.sol:HellowWorld",
						"label": "minInt",
						"offset": 0,
						"slot": "4",
						"type": "t_int256"
					},
					{
						"astId": 28,
						"contract": "Documents/dev/Lime/contracts/HellowWorld.sol:HellowWorld",
						"label": "maxInt",
						"offset": 0,
						"slot": "5",
						"type": "t_int256"
					},
					{
						"astId": 31,
						"contract": "Documents/dev/Lime/contracts/HellowWorld.sol:HellowWorld",
						"label": "addr",
						"offset": 0,
						"slot": "6",
						"type": "t_address"
					}
				],
				"types": {
					"t_address": {
						"encoding": "inplace",
						"label": "address",
						"numberOfBytes": "20"
					},
					"t_bool": {
						"encoding": "inplace",
						"label": "bool",
						"numberOfBytes": "1"
					},
					"t_int256": {
						"encoding": "inplace",
						"label": "int256",
						"numberOfBytes": "32"
					},
					"t_string_storage": {
						"encoding": "bytes",
						"label": "string",
						"numberOfBytes": "32"
					},
					"t_uint256": {
						"encoding": "inplace",
						"label": "uint256",
						"numberOfBytes": "32"
					}
				}
			},
			"userdoc": {
				"kind": "user",
				"methods": {},
				"version": 1
			}
		}
	}
}