{
	"Inheritance.sol": {
		"child": {
			"abi": [
				{
					"constant": true,
					"inputs": [],
					"name": "getValue",
					"outputs": [
						{
							"internalType": "uint256",
							"name": "",
							"type": "uint256"
						}
					],
					"payable": false,
					"stateMutability": "view",
					"type": "function"
				},
				{
					"constant": false,
					"inputs": [],
					"name": "setValue",
					"outputs": [],
					"payable": false,
					"stateMutability": "nonpayable",
					"type": "function"
				}
			],
			"devdoc": {
				"methods": {}
			},
			"evm": {
				"assembly": "    /* \"Inheritance.sol\":225:443  contract child is parent{ ... */\n  mstore(0x40, 0x80)\n  callvalue\n    /* \"--CODEGEN--\":8:17   */\n  dup1\n    /* \"--CODEGEN--\":5:7   */\n  iszero\n  tag_1\n  jumpi\n    /* \"--CODEGEN--\":30:31   */\n  0x00\n    /* \"--CODEGEN--\":27:28   */\n  dup1\n    /* \"--CODEGEN--\":20:32   */\n  revert\n    /* \"--CODEGEN--\":5:7   */\ntag_1:\n    /* \"Inheritance.sol\":225:443  contract child is parent{ ... */\n  pop\n  dataSize(sub_0)\n  dup1\n  dataOffset(sub_0)\n  0x00\n  codecopy\n  0x00\n  return\nstop\n\nsub_0: assembly {\n        /* \"Inheritance.sol\":225:443  contract child is parent{ ... */\n      mstore(0x40, 0x80)\n      callvalue\n        /* \"--CODEGEN--\":8:17   */\n      dup1\n        /* \"--CODEGEN--\":5:7   */\n      iszero\n      tag_1\n      jumpi\n        /* \"--CODEGEN--\":30:31   */\n      0x00\n        /* \"--CODEGEN--\":27:28   */\n      dup1\n        /* \"--CODEGEN--\":20:32   */\n      revert\n        /* \"--CODEGEN--\":5:7   */\n    tag_1:\n        /* \"Inheritance.sol\":225:443  contract child is parent{ ... */\n      pop\n      jumpi(tag_2, lt(calldatasize, 0x04))\n      shr(0xe0, calldataload(0x00))\n      dup1\n      0x20965255\n      eq\n      tag_3\n      jumpi\n      dup1\n      0x4fa519fa\n      eq\n      tag_4\n      jumpi\n    tag_2:\n      0x00\n      dup1\n      revert\n        /* \"Inheritance.sol\":358:440  function getValue(... */\n    tag_3:\n      tag_5\n      tag_6\n      jump\t// in\n    tag_5:\n      mload(0x40)\n      dup1\n      dup3\n      dup2\n      mstore\n      0x20\n      add\n      swap2\n      pop\n      pop\n      mload(0x40)\n      dup1\n      swap2\n      sub\n      swap1\n      return\n        /* \"Inheritance.sol\":90:190  function setValue() external { ... */\n    tag_4:\n      tag_7\n      tag_8\n      jump\t// in\n    tag_7:\n      stop\n        /* \"Inheritance.sol\":358:440  function getValue(... */\n    tag_6:\n        /* \"Inheritance.sol\":405:409  uint */\n      0x00\n        /* \"Inheritance.sol\":429:432  sum */\n      dup1\n      sload\n        /* \"Inheritance.sol\":422:432  return sum */\n      swap1\n      pop\n        /* \"Inheritance.sol\":358:440  function getValue(... */\n      swap1\n      jump\t// out\n        /* \"Inheritance.sol\":90:190  function setValue() external { ... */\n    tag_8:\n        /* \"Inheritance.sol\":130:136  uint a */\n      0x00\n        /* \"Inheritance.sol\":139:141  10 */\n      0x0a\n        /* \"Inheritance.sol\":130:141  uint a = 10 */\n      swap1\n      pop\n        /* \"Inheritance.sol\":151:157  uint b */\n      0x00\n        /* \"Inheritance.sol\":160:162  20 */\n      0x14\n        /* \"Inheritance.sol\":151:162  uint b = 20 */\n      swap1\n      pop\n        /* \"Inheritance.sol\":182:183  b */\n      dup1\n        /* \"Inheritance.sol\":178:179  a */\n      dup3\n        /* \"Inheritance.sol\":178:183  a + b */\n      add\n        /* \"Inheritance.sol\":172:175  sum */\n      0x00\n        /* \"Inheritance.sol\":172:183  sum = a + b */\n      dup2\n      swap1\n      sstore\n      pop\n        /* \"Inheritance.sol\":90:190  function setValue() external { ... */\n      pop\n      pop\n      jump\t// out\n\n    auxdata: 0xa265627a7a723158201c272943adba88ef0d68460980d557e483e9f04fbb5b90bd296f7e328ec201a764736f6c63430005110032\n}\n",
				"bytecode": {
					"linkReferences": {},
					"object": "6080604052348015600f57600080fd5b5060b28061001e6000396000f3fe6080604052348015600f57600080fd5b506004361060325760003560e01c8063209652551460375780634fa519fa146053575b600080fd5b603d605b565b6040518082815260200191505060405180910390f35b60596064565b005b60008054905090565b6000600a9050600060149050808201600081905550505056fea265627a7a723158201c272943adba88ef0d68460980d557e483e9f04fbb5b90bd296f7e328ec201a764736f6c63430005110032",
					"opcodes": "PUSH1 0x80 PUSH1 0x40 MSTORE CALLVALUE DUP1 ISZERO PUSH1 0xF JUMPI PUSH1 0x0 DUP1 REVERT JUMPDEST POP PUSH1 0xB2 DUP1 PUSH2 0x1E PUSH1 0x0 CODECOPY PUSH1 0x0 RETURN INVALID PUSH1 0x80 PUSH1 0x40 MSTORE CALLVALUE DUP1 ISZERO PUSH1 0xF JUMPI PUSH1 0x0 DUP1 REVERT JUMPDEST POP PUSH1 0x4 CALLDATASIZE LT PUSH1 0x32 JUMPI PUSH1 0x0 CALLDATALOAD PUSH1 0xE0 SHR DUP1 PUSH4 0x20965255 EQ PUSH1 0x37 JUMPI DUP1 PUSH4 0x4FA519FA EQ PUSH1 0x53 JUMPI JUMPDEST PUSH1 0x0 DUP1 REVERT JUMPDEST PUSH1 0x3D PUSH1 0x5B JUMP JUMPDEST PUSH1 0x40 MLOAD DUP1 DUP3 DUP2 MSTORE PUSH1 0x20 ADD SWAP2 POP POP PUSH1 0x40 MLOAD DUP1 SWAP2 SUB SWAP1 RETURN JUMPDEST PUSH1 0x59 PUSH1 0x64 JUMP JUMPDEST STOP JUMPDEST PUSH1 0x0 DUP1 SLOAD SWAP1 POP SWAP1 JUMP JUMPDEST PUSH1 0x0 PUSH1 0xA SWAP1 POP PUSH1 0x0 PUSH1 0x14 SWAP1 POP DUP1 DUP3 ADD PUSH1 0x0 DUP2 SWAP1 SSTORE POP POP POP JUMP INVALID LOG2 PUSH6 0x627A7A723158 KECCAK256 SHR 0x27 0x29 NUMBER 0xAD 0xBA DUP9 0xEF 0xD PUSH9 0x460980D557E483E9F0 0x4F 0xBB JUMPDEST SWAP1 0xBD 0x29 PUSH16 0x7E328EC201A764736F6C634300051100 ORIGIN "
				},
				"gasEstimates": {
					"creation": {
						"codeDepositCost": "35600",
						"executionCost": "87",
						"totalCost": "35687"
					},
					"external": {
						"getValue()": "991",
						"setValue()": "20190"
					}
				},
				"methodIdentifiers": {
					"getValue()": "20965255",
					"setValue()": "4fa519fa"
				}
			},
			"storageLayout": {
				"storage": [
					{
						"astId": 3,
						"contract": "Inheritance.sol:child",
						"label": "sum",
						"offset": 0,
						"slot": "0",
						"type": "t_uint256"
					}
				],
				"types": {
					"t_uint256": {
						"encoding": "inplace",
						"label": "uint256",
						"numberOfBytes": "32"
					}
				}
			},
			"userdoc": {
				"methods": {}
			}
		}
	}
}