{
	"Inheritance.sol": {
		"parent": {
			"abi": [
				{
					"constant": false,
					"inputs": [],
					"name": "setValue",
					"outputs": [],
					"payable": false,
					"stateMutability": "nonpayable",
					"type": "function"
				}
			],
			"devdoc": {
				"methods": {}
			},
			"evm": {
				"assembly": "    /* \"Inheritance.sol\":36:193  contract parent{ ... */\n  mstore(0x40, 0x80)\n  callvalue\n    /* \"--CODEGEN--\":8:17   */\n  dup1\n    /* \"--CODEGEN--\":5:7   */\n  iszero\n  tag_1\n  jumpi\n    /* \"--CODEGEN--\":30:31   */\n  0x00\n    /* \"--CODEGEN--\":27:28   */\n  dup1\n    /* \"--CODEGEN--\":20:32   */\n  revert\n    /* \"--CODEGEN--\":5:7   */\ntag_1:\n    /* \"Inheritance.sol\":36:193  contract parent{ ... */\n  pop\n  dataSize(sub_0)\n  dup1\n  dataOffset(sub_0)\n  0x00\n  codecopy\n  0x00\n  return\nstop\n\nsub_0: assembly {\n        /* \"Inheritance.sol\":36:193  contract parent{ ... */\n      mstore(0x40, 0x80)\n      callvalue\n        /* \"--CODEGEN--\":8:17   */\n      dup1\n        /* \"--CODEGEN--\":5:7   */\n      iszero\n      tag_1\n      jumpi\n        /* \"--CODEGEN--\":30:31   */\n      0x00\n        /* \"--CODEGEN--\":27:28   */\n      dup1\n        /* \"--CODEGEN--\":20:32   */\n      revert\n        /* \"--CODEGEN--\":5:7   */\n    tag_1:\n        /* \"Inheritance.sol\":36:193  contract parent{ ... */\n      pop\n      jumpi(tag_2, lt(calldatasize, 0x04))\n      shr(0xe0, calldataload(0x00))\n      dup1\n      0x4fa519fa\n      eq\n      tag_3\n      jumpi\n    tag_2:\n      0x00\n      dup1\n      revert\n        /* \"Inheritance.sol\":90:190  function setValue() external { ... */\n    tag_3:\n      tag_4\n      tag_5\n      jump\t// in\n    tag_4:\n      stop\n    tag_5:\n        /* \"Inheritance.sol\":130:136  uint a */\n      0x00\n        /* \"Inheritance.sol\":139:141  10 */\n      0x0a\n        /* \"Inheritance.sol\":130:141  uint a = 10 */\n      swap1\n      pop\n        /* \"Inheritance.sol\":151:157  uint b */\n      0x00\n        /* \"Inheritance.sol\":160:162  20 */\n      0x14\n        /* \"Inheritance.sol\":151:162  uint b = 20 */\n      swap1\n      pop\n        /* \"Inheritance.sol\":182:183  b */\n      dup1\n        /* \"Inheritance.sol\":178:179  a */\n      dup3\n        /* \"Inheritance.sol\":178:183  a + b */\n      add\n        /* \"Inheritance.sol\":172:175  sum */\n      0x00\n        /* \"Inheritance.sol\":172:183  sum = a + b */\n      dup2\n      swap1\n      sstore\n      pop\n        /* \"Inheritance.sol\":90:190  function setValue() external { ... */\n      pop\n      pop\n      jump\t// out\n\n    auxdata: 0xa265627a7a723158207293ec2bba1a13892b07202583cacc73eefe638a0d98645ba9e8de3968b3306264736f6c63430005110032\n}\n",
				"bytecode": {
					"linkReferences": {},
					"object": "6080604052348015600f57600080fd5b5060838061001e6000396000f3fe6080604052348015600f57600080fd5b506004361060285760003560e01c80634fa519fa14602d575b600080fd5b60336035565b005b6000600a9050600060149050808201600081905550505056fea265627a7a723158207293ec2bba1a13892b07202583cacc73eefe638a0d98645ba9e8de3968b3306264736f6c63430005110032",
					"opcodes": "PUSH1 0x80 PUSH1 0x40 MSTORE CALLVALUE DUP1 ISZERO PUSH1 0xF JUMPI PUSH1 0x0 DUP1 REVERT JUMPDEST POP PUSH1 0x83 DUP1 PUSH2 0x1E PUSH1 0x0 CODECOPY PUSH1 0x0 RETURN INVALID PUSH1 0x80 PUSH1 0x40 MSTORE CALLVALUE DUP1 ISZERO PUSH1 0xF JUMPI PUSH1 0x0 DUP1 REVERT JUMPDEST POP PUSH1 0x4 CALLDATASIZE LT PUSH1 0x28 JUMPI PUSH1 0x0 CALLDATALOAD PUSH1 0xE0 SHR DUP1 PUSH4 0x4FA519FA EQ PUSH1 0x2D JUMPI JUMPDEST PUSH1 0x0 DUP1 REVERT JUMPDEST PUSH1 0x33 PUSH1 0x35 JUMP JUMPDEST STOP JUMPDEST PUSH1 0x0 PUSH1 0xA SWAP1 POP PUSH1 0x0 PUSH1 0x14 SWAP1 POP DUP1 DUP3 ADD PUSH1 0x0 DUP2 SWAP1 SSTORE POP POP POP JUMP INVALID LOG2 PUSH6 0x627A7A723158 KECCAK256 PUSH19 0x93EC2BBA1A13892B07202583CACC73EEFE638A 0xD SWAP9 PUSH5 0x5BA9E8DE39 PUSH9 0xB3306264736F6C6343 STOP SDIV GT STOP ORIGIN "
				},
				"gasEstimates": {
					"creation": {
						"codeDepositCost": "26200",
						"executionCost": "81",
						"totalCost": "26281"
					},
					"external": {
						"setValue()": "20168"
					}
				},
				"methodIdentifiers": {
					"setValue()": "4fa519fa"
				}
			},
			"storageLayout": {
				"storage": [
					{
						"astId": 3,
						"contract": "Inheritance.sol:parent",
						"label": "sum",
						"offset": 0,
						"slot": "0",
						"type": "t_uint256"
					}
				],
				"types": {
					"t_uint256": {
						"encoding": "inplace",
						"label": "uint256",
						"numberOfBytes": "32"
					}
				}
			},
			"userdoc": {
				"methods": {}
			}
		}
	}
}