{
	"ChangeVarsWithDelegate.sol": {
		"Updated": {
			"abi": [
				{
					"inputs": [
						{
							"internalType": "uint256",
							"name": "d1",
							"type": "uint256"
						},
						{
							"internalType": "string",
							"name": "d2",
							"type": "string"
						},
						{
							"internalType": "address",
							"name": "d3",
							"type": "address"
						}
					],
					"name": "set",
					"outputs": [],
					"stateMutability": "nonpayable",
					"type": "function"
				}
			],
			"devdoc": {
				"kind": "dev",
				"methods": {},
				"version": 1
			},
			"evm": {
				"assembly": "    /* \"ChangeVarsWithDelegate.sol\":333:558  contract Updated{... */\n  mstore(0x40, 0x80)\n  callvalue\n  dup1\n  iszero\n  tag_1\n  jumpi\n  0x00\n  dup1\n  revert\ntag_1:\n  pop\n  dataSize(sub_0)\n  dup1\n  dataOffset(sub_0)\n  0x00\n  codecopy\n  0x00\n  return\nstop\n\nsub_0: assembly {\n        /* \"ChangeVarsWithDelegate.sol\":333:558  contract Updated{... */\n      mstore(0x40, 0x80)\n      callvalue\n      dup1\n      iszero\n      tag_1\n      jumpi\n      0x00\n      dup1\n      revert\n    tag_1:\n      pop\n      jumpi(tag_2, lt(calldatasize, 0x04))\n      shr(0xe0, calldataload(0x00))\n      dup1\n      0x5eba0df0\n      eq\n      tag_3\n      jumpi\n    tag_2:\n      0x00\n      dup1\n      revert\n        /* \"ChangeVarsWithDelegate.sol\":434:556  function set(uint d1,string calldata d2,address d3) external {... */\n    tag_3:\n      tag_4\n      0x04\n      dup1\n      calldatasize\n      sub\n      dup2\n      add\n      swap1\n      tag_5\n      swap2\n      swap1\n      tag_6\n      jump\t// in\n    tag_5:\n      tag_7\n      jump\t// in\n    tag_4:\n      stop\n    tag_7:\n        /* \"ChangeVarsWithDelegate.sol\":511:513  d1 */\n      dup4\n        /* \"ChangeVarsWithDelegate.sol\":505:510  data1 */\n      0x00\n        /* \"ChangeVarsWithDelegate.sol\":505:513  data1=d1 */\n      dup2\n      swap1\n      sstore\n      pop\n        /* \"ChangeVarsWithDelegate.sol\":529:531  d2 */\n      dup3\n      dup3\n        /* \"ChangeVarsWithDelegate.sol\":523:528  data2 */\n      0x01\n        /* \"ChangeVarsWithDelegate.sol\":523:531  data2=d2 */\n      swap2\n      swap1\n      tag_9\n      swap3\n      swap2\n      swap1\n      tag_10\n      jump\t// in\n    tag_9:\n      pop\n        /* \"ChangeVarsWithDelegate.sol\":547:549  d3 */\n      dup1\n        /* \"ChangeVarsWithDelegate.sol\":541:546  data3 */\n      0x02\n      0x00\n        /* \"ChangeVarsWithDelegate.sol\":541:549  data3=d3 */\n      0x0100\n      exp\n      dup2\n      sload\n      dup2\n      0xffffffffffffffffffffffffffffffffffffffff\n      mul\n      not\n      and\n      swap1\n      dup4\n      0xffffffffffffffffffffffffffffffffffffffff\n      and\n      mul\n      or\n      swap1\n      sstore\n      pop\n        /* \"ChangeVarsWithDelegate.sol\":434:556  function set(uint d1,string calldata d2,address d3) external {... */\n      pop\n      pop\n      pop\n      pop\n      jump\t// out\n    tag_10:\n      dup3\n      dup1\n      sload\n      tag_11\n      swap1\n      tag_12\n      jump\t// in\n    tag_11:\n      swap1\n      0x00\n      mstore\n      keccak256(0x00, 0x20)\n      swap1\n      0x1f\n      add\n      0x20\n      swap1\n      div\n      dup2\n      add\n      swap3\n      dup3\n      tag_14\n      jumpi\n      0x00\n      dup6\n      sstore\n      jump(tag_13)\n    tag_14:\n      dup3\n      0x1f\n      lt\n      tag_15\n      jumpi\n      dup1\n      calldataload\n      not(0xff)\n      and\n      dup4\n      dup1\n      add\n      or\n      dup6\n      sstore\n      jump(tag_13)\n    tag_15:\n      dup3\n      dup1\n      add\n      0x01\n      add\n      dup6\n      sstore\n      dup3\n      iszero\n      tag_13\n      jumpi\n      swap2\n      dup3\n      add\n    tag_16:\n      dup3\n      dup2\n      gt\n      iszero\n      tag_17\n      jumpi\n      dup3\n      calldataload\n      dup3\n      sstore\n      swap2\n      0x20\n      add\n      swap2\n      swap1\n      0x01\n      add\n      swap1\n      jump(tag_16)\n    tag_17:\n    tag_13:\n      pop\n      swap1\n      pop\n      tag_18\n      swap2\n      swap1\n      tag_19\n      jump\t// in\n    tag_18:\n      pop\n      swap1\n      jump\t// out\n    tag_19:\n    tag_20:\n      dup1\n      dup3\n      gt\n      iszero\n      tag_21\n      jumpi\n      0x00\n      dup2\n      0x00\n      swap1\n      sstore\n      pop\n      0x01\n      add\n      jump(tag_20)\n    tag_21:\n      pop\n      swap1\n      jump\t// out\n        /* \"#utility.yul\":7:146   */\n    tag_23:\n        /* \"#utility.yul\":53:58   */\n      0x00\n        /* \"#utility.yul\":91:97   */\n      dup2\n        /* \"#utility.yul\":78:98   */\n      calldataload\n        /* \"#utility.yul\":69:98   */\n      swap1\n      pop\n        /* \"#utility.yul\":107:140   */\n      tag_25\n        /* \"#utility.yul\":134:139   */\n      dup2\n        /* \"#utility.yul\":107:140   */\n      tag_26\n      jump\t// in\n    tag_25:\n        /* \"#utility.yul\":7:146   */\n      swap3\n      swap2\n      pop\n      pop\n      jump\t// out\n        /* \"#utility.yul\":166:719   */\n    tag_27:\n        /* \"#utility.yul\":224:232   */\n      0x00\n        /* \"#utility.yul\":234:240   */\n      dup1\n        /* \"#utility.yul\":284:287   */\n      dup4\n        /* \"#utility.yul\":277:281   */\n      0x1f\n        /* \"#utility.yul\":269:275   */\n      dup5\n        /* \"#utility.yul\":265:282   */\n      add\n        /* \"#utility.yul\":261:288   */\n      slt\n        /* \"#utility.yul\":251:373   */\n      tag_29\n      jumpi\n        /* \"#utility.yul\":292:371   */\n      tag_30\n      tag_31\n      jump\t// in\n    tag_30:\n        /* \"#utility.yul\":251:373   */\n    tag_29:\n        /* \"#utility.yul\":405:411   */\n      dup3\n        /* \"#utility.yul\":392:412   */\n      calldataload\n        /* \"#utility.yul\":382:412   */\n      swap1\n      pop\n        /* \"#utility.yul\":435:453   */\n      0xffffffffffffffff\n        /* \"#utility.yul\":427:433   */\n      dup2\n        /* \"#utility.yul\":424:454   */\n      gt\n        /* \"#utility.yul\":421:538   */\n      iszero\n      tag_32\n      jumpi\n        /* \"#utility.yul\":457:536   */\n      tag_33\n      tag_34\n      jump\t// in\n    tag_33:\n        /* \"#utility.yul\":421:538   */\n    tag_32:\n        /* \"#utility.yul\":571:575   */\n      0x20\n        /* \"#utility.yul\":563:569   */\n      dup4\n        /* \"#utility.yul\":559:576   */\n      add\n        /* \"#utility.yul\":547:576   */\n      swap2\n      pop\n        /* \"#utility.yul\":625:628   */\n      dup4\n        /* \"#utility.yul\":617:621   */\n      0x01\n        /* \"#utility.yul\":609:615   */\n      dup3\n        /* \"#utility.yul\":605:622   */\n      mul\n        /* \"#utility.yul\":595:603   */\n      dup4\n        /* \"#utility.yul\":591:623   */\n      add\n        /* \"#utility.yul\":588:629   */\n      gt\n        /* \"#utility.yul\":585:713   */\n      iszero\n      tag_35\n      jumpi\n        /* \"#utility.yul\":632:711   */\n      tag_36\n      tag_37\n      jump\t// in\n    tag_36:\n        /* \"#utility.yul\":585:713   */\n    tag_35:\n        /* \"#utility.yul\":166:719   */\n      swap3\n      pop\n      swap3\n      swap1\n      pop\n      jump\t// out\n        /* \"#utility.yul\":725:864   */\n    tag_38:\n        /* \"#utility.yul\":771:776   */\n      0x00\n        /* \"#utility.yul\":809:815   */\n      dup2\n        /* \"#utility.yul\":796:816   */\n      calldataload\n        /* \"#utility.yul\":787:816   */\n      swap1\n      pop\n        /* \"#utility.yul\":825:858   */\n      tag_40\n        /* \"#utility.yul\":852:857   */\n      dup2\n        /* \"#utility.yul\":825:858   */\n      tag_41\n      jump\t// in\n    tag_40:\n        /* \"#utility.yul\":725:864   */\n      swap3\n      swap2\n      pop\n      pop\n      jump\t// out\n        /* \"#utility.yul\":870:1689   */\n    tag_6:\n        /* \"#utility.yul\":959:965   */\n      0x00\n        /* \"#utility.yul\":967:973   */\n      dup1\n        /* \"#utility.yul\":975:981   */\n      0x00\n        /* \"#utility.yul\":983:989   */\n      dup1\n        /* \"#utility.yul\":1032:1034   */\n      0x60\n        /* \"#utility.yul\":1020:1029   */\n      dup6\n        /* \"#utility.yul\":1011:1018   */\n      dup8\n        /* \"#utility.yul\":1007:1030   */\n      sub\n        /* \"#utility.yul\":1003:1035   */\n      slt\n        /* \"#utility.yul\":1000:1119   */\n      iszero\n      tag_43\n      jumpi\n        /* \"#utility.yul\":1038:1117   */\n      tag_44\n      tag_45\n      jump\t// in\n    tag_44:\n        /* \"#utility.yul\":1000:1119   */\n    tag_43:\n        /* \"#utility.yul\":1158:1159   */\n      0x00\n        /* \"#utility.yul\":1183:1236   */\n      tag_46\n        /* \"#utility.yul\":1228:1235   */\n      dup8\n        /* \"#utility.yul\":1219:1225   */\n      dup3\n        /* \"#utility.yul\":1208:1217   */\n      dup9\n        /* \"#utility.yul\":1204:1226   */\n      add\n        /* \"#utility.yul\":1183:1236   */\n      tag_38\n      jump\t// in\n    tag_46:\n        /* \"#utility.yul\":1173:1236   */\n      swap5\n      pop\n        /* \"#utility.yul\":1129:1246   */\n      pop\n        /* \"#utility.yul\":1313:1315   */\n      0x20\n        /* \"#utility.yul\":1302:1311   */\n      dup6\n        /* \"#utility.yul\":1298:1316   */\n      add\n        /* \"#utility.yul\":1285:1317   */\n      calldataload\n        /* \"#utility.yul\":1344:1362   */\n      0xffffffffffffffff\n        /* \"#utility.yul\":1336:1342   */\n      dup2\n        /* \"#utility.yul\":1333:1363   */\n      gt\n        /* \"#utility.yul\":1330:1447   */\n      iszero\n      tag_47\n      jumpi\n        /* \"#utility.yul\":1366:1445   */\n      tag_48\n      tag_49\n      jump\t// in\n    tag_48:\n        /* \"#utility.yul\":1330:1447   */\n    tag_47:\n        /* \"#utility.yul\":1479:1544   */\n      tag_50\n        /* \"#utility.yul\":1536:1543   */\n      dup8\n        /* \"#utility.yul\":1527:1533   */\n      dup3\n        /* \"#utility.yul\":1516:1525   */\n      dup9\n        /* \"#utility.yul\":1512:1534   */\n      add\n        /* \"#utility.yul\":1479:1544   */\n      tag_27\n      jump\t// in\n    tag_50:\n        /* \"#utility.yul\":1461:1544   */\n      swap4\n      pop\n      swap4\n      pop\n        /* \"#utility.yul\":1256:1554   */\n      pop\n        /* \"#utility.yul\":1593:1595   */\n      0x40\n        /* \"#utility.yul\":1619:1672   */\n      tag_51\n        /* \"#utility.yul\":1664:1671   */\n      dup8\n        /* \"#utility.yul\":1655:1661   */\n      dup3\n        /* \"#utility.yul\":1644:1653   */\n      dup9\n        /* \"#utility.yul\":1640:1662   */\n      add\n        /* \"#utility.yul\":1619:1672   */\n      tag_23\n      jump\t// in\n    tag_51:\n        /* \"#utility.yul\":1609:1672   */\n      swap2\n      pop\n        /* \"#utility.yul\":1564:1682   */\n      pop\n        /* \"#utility.yul\":870:1689   */\n      swap3\n      swap6\n      swap2\n      swap5\n      pop\n      swap3\n      pop\n      jump\t// out\n        /* \"#utility.yul\":1776:1872   */\n    tag_54:\n        /* \"#utility.yul\":1813:1820   */\n      0x00\n        /* \"#utility.yul\":1842:1866   */\n      tag_56\n        /* \"#utility.yul\":1860:1865   */\n      dup3\n        /* \"#utility.yul\":1842:1866   */\n      tag_57\n      jump\t// in\n    tag_56:\n        /* \"#utility.yul\":1831:1866   */\n      swap1\n      pop\n        /* \"#utility.yul\":1776:1872   */\n      swap2\n      swap1\n      pop\n      jump\t// out\n        /* \"#utility.yul\":1878:2004   */\n    tag_57:\n        /* \"#utility.yul\":1915:1922   */\n      0x00\n        /* \"#utility.yul\":1955:1997   */\n      0xffffffffffffffffffffffffffffffffffffffff\n        /* \"#utility.yul\":1948:1953   */\n      dup3\n        /* \"#utility.yul\":1944:1998   */\n      and\n        /* \"#utility.yul\":1933:1998   */\n      swap1\n      pop\n        /* \"#utility.yul\":1878:2004   */\n      swap2\n      swap1\n      pop\n      jump\t// out\n        /* \"#utility.yul\":2010:2087   */\n    tag_59:\n        /* \"#utility.yul\":2047:2054   */\n      0x00\n        /* \"#utility.yul\":2076:2081   */\n      dup2\n        /* \"#utility.yul\":2065:2081   */\n      swap1\n      pop\n        /* \"#utility.yul\":2010:2087   */\n      swap2\n      swap1\n      pop\n      jump\t// out\n        /* \"#utility.yul\":2093:2413   */\n    tag_12:\n        /* \"#utility.yul\":2137:2143   */\n      0x00\n        /* \"#utility.yul\":2174:2175   */\n      0x02\n        /* \"#utility.yul\":2168:2172   */\n      dup3\n        /* \"#utility.yul\":2164:2176   */\n      div\n        /* \"#utility.yul\":2154:2176   */\n      swap1\n      pop\n        /* \"#utility.yul\":2221:2222   */\n      0x01\n        /* \"#utility.yul\":2215:2219   */\n      dup3\n        /* \"#utility.yul\":2211:2223   */\n      and\n        /* \"#utility.yul\":2242:2260   */\n      dup1\n        /* \"#utility.yul\":2232:2313   */\n      tag_62\n      jumpi\n        /* \"#utility.yul\":2298:2302   */\n      0x7f\n        /* \"#utility.yul\":2290:2296   */\n      dup3\n        /* \"#utility.yul\":2286:2303   */\n      and\n        /* \"#utility.yul\":2276:2303   */\n      swap2\n      pop\n        /* \"#utility.yul\":2232:2313   */\n    tag_62:\n        /* \"#utility.yul\":2360:2362   */\n      0x20\n        /* \"#utility.yul\":2352:2358   */\n      dup3\n        /* \"#utility.yul\":2349:2363   */\n      lt\n        /* \"#utility.yul\":2329:2347   */\n      dup2\n        /* \"#utility.yul\":2326:2364   */\n      eq\n        /* \"#utility.yul\":2323:2407   */\n      iszero\n      tag_63\n      jumpi\n        /* \"#utility.yul\":2379:2397   */\n      tag_64\n      tag_65\n      jump\t// in\n    tag_64:\n        /* \"#utility.yul\":2323:2407   */\n    tag_63:\n        /* \"#utility.yul\":2144:2413   */\n      pop\n        /* \"#utility.yul\":2093:2413   */\n      swap2\n      swap1\n      pop\n      jump\t// out\n        /* \"#utility.yul\":2419:2599   */\n    tag_65:\n        /* \"#utility.yul\":2467:2544   */\n      0x4e487b7100000000000000000000000000000000000000000000000000000000\n        /* \"#utility.yul\":2464:2465   */\n      0x00\n        /* \"#utility.yul\":2457:2545   */\n      mstore\n        /* \"#utility.yul\":2564:2568   */\n      0x22\n        /* \"#utility.yul\":2561:2562   */\n      0x04\n        /* \"#utility.yul\":2554:2569   */\n      mstore\n        /* \"#utility.yul\":2588:2592   */\n      0x24\n        /* \"#utility.yul\":2585:2586   */\n      0x00\n        /* \"#utility.yul\":2578:2593   */\n      revert\n        /* \"#utility.yul\":2605:2722   */\n    tag_34:\n        /* \"#utility.yul\":2714:2715   */\n      0x00\n        /* \"#utility.yul\":2711:2712   */\n      dup1\n        /* \"#utility.yul\":2704:2716   */\n      revert\n        /* \"#utility.yul\":2728:2845   */\n    tag_31:\n        /* \"#utility.yul\":2837:2838   */\n      0x00\n        /* \"#utility.yul\":2834:2835   */\n      dup1\n        /* \"#utility.yul\":2827:2839   */\n      revert\n        /* \"#utility.yul\":2851:2968   */\n    tag_37:\n        /* \"#utility.yul\":2960:2961   */\n      0x00\n        /* \"#utility.yul\":2957:2958   */\n      dup1\n        /* \"#utility.yul\":2950:2962   */\n      revert\n        /* \"#utility.yul\":2974:3091   */\n    tag_49:\n        /* \"#utility.yul\":3083:3084   */\n      0x00\n        /* \"#utility.yul\":3080:3081   */\n      dup1\n        /* \"#utility.yul\":3073:3085   */\n      revert\n        /* \"#utility.yul\":3097:3214   */\n    tag_45:\n        /* \"#utility.yul\":3206:3207   */\n      0x00\n        /* \"#utility.yul\":3203:3204   */\n      dup1\n        /* \"#utility.yul\":3196:3208   */\n      revert\n        /* \"#utility.yul\":3220:3342   */\n    tag_26:\n        /* \"#utility.yul\":3293:3317   */\n      tag_73\n        /* \"#utility.yul\":3311:3316   */\n      dup2\n        /* \"#utility.yul\":3293:3317   */\n      tag_54\n      jump\t// in\n    tag_73:\n        /* \"#utility.yul\":3286:3291   */\n      dup2\n        /* \"#utility.yul\":3283:3318   */\n      eq\n        /* \"#utility.yul\":3273:3336   */\n      tag_74\n      jumpi\n        /* \"#utility.yul\":3332:3333   */\n      0x00\n        /* \"#utility.yul\":3329:3330   */\n      dup1\n        /* \"#utility.yul\":3322:3334   */\n      revert\n        /* \"#utility.yul\":3273:3336   */\n    tag_74:\n        /* \"#utility.yul\":3220:3342   */\n      pop\n      jump\t// out\n        /* \"#utility.yul\":3348:3470   */\n    tag_41:\n        /* \"#utility.yul\":3421:3445   */\n      tag_76\n        /* \"#utility.yul\":3439:3444   */\n      dup2\n        /* \"#utility.yul\":3421:3445   */\n      tag_59\n      jump\t// in\n    tag_76:\n        /* \"#utility.yul\":3414:3419   */\n      dup2\n        /* \"#utility.yul\":3411:3446   */\n      eq\n        /* \"#utility.yul\":3401:3464   */\n      tag_77\n      jumpi\n        /* \"#utility.yul\":3460:3461   */\n      0x00\n        /* \"#utility.yul\":3457:3458   */\n      dup1\n        /* \"#utility.yul\":3450:3462   */\n      revert\n        /* \"#utility.yul\":3401:3464   */\n    tag_77:\n        /* \"#utility.yul\":3348:3470   */\n      pop\n      jump\t// out\n\n    auxdata: 0xa2646970667358221220b47ca43e412089869d62633d02d3644a1e04107f147317538b1b8cc3abde3bb564736f6c63430008070033\n}\n",
				"bytecode": {
					"linkReferences": {},
					"object": "608060405234801561001057600080fd5b5061035d806100206000396000f3fe608060405234801561001057600080fd5b506004361061002b5760003560e01c80635eba0df014610030575b600080fd5b61004a600480360381019061004591906101cf565b61004c565b005b836000819055508282600191906100649291906100ac565b5080600260006101000a81548173ffffffffffffffffffffffffffffffffffffffff021916908373ffffffffffffffffffffffffffffffffffffffff16021790555050505050565b8280546100b89061027f565b90600052602060002090601f0160209004810192826100da5760008555610121565b82601f106100f357803560ff1916838001178555610121565b82800160010185558215610121579182015b82811115610120578235825591602001919060010190610105565b5b50905061012e9190610132565b5090565b5b8082111561014b576000816000905550600101610133565b5090565b60008135905061015e816102f9565b92915050565b60008083601f84011261017a576101796102e5565b5b8235905067ffffffffffffffff811115610197576101966102e0565b5b6020830191508360018202830111156101b3576101b26102ea565b5b9250929050565b6000813590506101c981610310565b92915050565b600080600080606085870312156101e9576101e86102f4565b5b60006101f7878288016101ba565b945050602085013567ffffffffffffffff811115610218576102176102ef565b5b61022487828801610164565b935093505060406102378782880161014f565b91505092959194509250565b600061024e82610255565b9050919050565b600073ffffffffffffffffffffffffffffffffffffffff82169050919050565b6000819050919050565b6000600282049050600182168061029757607f821691505b602082108114156102ab576102aa6102b1565b5b50919050565b7f4e487b7100000000000000000000000000000000000000000000000000000000600052602260045260246000fd5b600080fd5b600080fd5b600080fd5b600080fd5b600080fd5b61030281610243565b811461030d57600080fd5b50565b61031981610275565b811461032457600080fd5b5056fea2646970667358221220b47ca43e412089869d62633d02d3644a1e04107f147317538b1b8cc3abde3bb564736f6c63430008070033",
					"opcodes": "PUSH1 0x80 PUSH1 0x40 MSTORE CALLVALUE DUP1 ISZERO PUSH2 0x10 JUMPI PUSH1 0x0 DUP1 REVERT JUMPDEST POP PUSH2 0x35D DUP1 PUSH2 0x20 PUSH1 0x0 CODECOPY PUSH1 0x0 RETURN INVALID PUSH1 0x80 PUSH1 0x40 MSTORE CALLVALUE DUP1 ISZERO PUSH2 0x10 JUMPI PUSH1 0x0 DUP1 REVERT JUMPDEST POP PUSH1 0x4 CALLDATASIZE LT PUSH2 0x2B JUMPI PUSH1 0x0 CALLDATALOAD PUSH1 0xE0 SHR DUP1 PUSH4 0x5EBA0DF0 EQ PUSH2 0x30 JUMPI JUMPDEST PUSH1 0x0 DUP1 REVERT JUMPDEST PUSH2 0x4A PUSH1 0x4 DUP1 CALLDATASIZE SUB DUP2 ADD SWAP1 PUSH2 0x45 SWAP2 SWAP1 PUSH2 0x1CF JUMP JUMPDEST PUSH2 0x4C JUMP JUMPDEST STOP JUMPDEST DUP4 PUSH1 0x0 DUP2 SWAP1 SSTORE POP DUP3 DUP3 PUSH1 0x1 SWAP2 SWAP1 PUSH2 0x64 SWAP3 SWAP2 SWAP1 PUSH2 0xAC JUMP JUMPDEST POP DUP1 PUSH1 0x2 PUSH1 0x0 PUSH2 0x100 EXP DUP2 SLOAD DUP2 PUSH20 0xFFFFFFFFFFFFFFFFFFFFFFFFFFFFFFFFFFFFFFFF MUL NOT AND SWAP1 DUP4 PUSH20 0xFFFFFFFFFFFFFFFFFFFFFFFFFFFFFFFFFFFFFFFF AND MUL OR SWAP1 SSTORE POP POP POP POP POP JUMP JUMPDEST DUP3 DUP1 SLOAD PUSH2 0xB8 SWAP1 PUSH2 0x27F JUMP JUMPDEST SWAP1 PUSH1 0x0 MSTORE PUSH1 0x20 PUSH1 0x0 KECCAK256 SWAP1 PUSH1 0x1F ADD PUSH1 0x20 SWAP1 DIV DUP2 ADD SWAP3 DUP3 PUSH2 0xDA JUMPI PUSH1 0x0 DUP6 SSTORE PUSH2 0x121 JUMP JUMPDEST DUP3 PUSH1 0x1F LT PUSH2 0xF3 JUMPI DUP1 CALLDATALOAD PUSH1 0xFF NOT AND DUP4 DUP1 ADD OR DUP6 SSTORE PUSH2 0x121 JUMP JUMPDEST DUP3 DUP1 ADD PUSH1 0x1 ADD DUP6 SSTORE DUP3 ISZERO PUSH2 0x121 JUMPI SWAP2 DUP3 ADD JUMPDEST DUP3 DUP2 GT ISZERO PUSH2 0x120 JUMPI DUP3 CALLDATALOAD DUP3 SSTORE SWAP2 PUSH1 0x20 ADD SWAP2 SWAP1 PUSH1 0x1 ADD SWAP1 PUSH2 0x105 JUMP JUMPDEST JUMPDEST POP SWAP1 POP PUSH2 0x12E SWAP2 SWAP1 PUSH2 0x132 JUMP JUMPDEST POP SWAP1 JUMP JUMPDEST JUMPDEST DUP1 DUP3 GT ISZERO PUSH2 0x14B JUMPI PUSH1 0x0 DUP2 PUSH1 0x0 SWAP1 SSTORE POP PUSH1 0x1 ADD PUSH2 0x133 JUMP JUMPDEST POP SWAP1 JUMP JUMPDEST PUSH1 0x0 DUP2 CALLDATALOAD SWAP1 POP PUSH2 0x15E DUP2 PUSH2 0x2F9 JUMP JUMPDEST SWAP3 SWAP2 POP POP JUMP JUMPDEST PUSH1 0x0 DUP1 DUP4 PUSH1 0x1F DUP5 ADD SLT PUSH2 0x17A JUMPI PUSH2 0x179 PUSH2 0x2E5 JUMP JUMPDEST JUMPDEST DUP3 CALLDATALOAD SWAP1 POP PUSH8 0xFFFFFFFFFFFFFFFF DUP2 GT ISZERO PUSH2 0x197 JUMPI PUSH2 0x196 PUSH2 0x2E0 JUMP JUMPDEST JUMPDEST PUSH1 0x20 DUP4 ADD SWAP2 POP DUP4 PUSH1 0x1 DUP3 MUL DUP4 ADD GT ISZERO PUSH2 0x1B3 JUMPI PUSH2 0x1B2 PUSH2 0x2EA JUMP JUMPDEST JUMPDEST SWAP3 POP SWAP3 SWAP1 POP JUMP JUMPDEST PUSH1 0x0 DUP2 CALLDATALOAD SWAP1 POP PUSH2 0x1C9 DUP2 PUSH2 0x310 JUMP JUMPDEST SWAP3 SWAP2 POP POP JUMP JUMPDEST PUSH1 0x0 DUP1 PUSH1 0x0 DUP1 PUSH1 0x60 DUP6 DUP8 SUB SLT ISZERO PUSH2 0x1E9 JUMPI PUSH2 0x1E8 PUSH2 0x2F4 JUMP JUMPDEST JUMPDEST PUSH1 0x0 PUSH2 0x1F7 DUP8 DUP3 DUP9 ADD PUSH2 0x1BA JUMP JUMPDEST SWAP5 POP POP PUSH1 0x20 DUP6 ADD CALLDATALOAD PUSH8 0xFFFFFFFFFFFFFFFF DUP2 GT ISZERO PUSH2 0x218 JUMPI PUSH2 0x217 PUSH2 0x2EF JUMP JUMPDEST JUMPDEST PUSH2 0x224 DUP8 DUP3 DUP9 ADD PUSH2 0x164 JUMP JUMPDEST SWAP4 POP SWAP4 POP POP PUSH1 0x40 PUSH2 0x237 DUP8 DUP3 DUP9 ADD PUSH2 0x14F JUMP JUMPDEST SWAP2 POP POP SWAP3 SWAP6 SWAP2 SWAP5 POP SWAP3 POP JUMP JUMPDEST PUSH1 0x0 PUSH2 0x24E DUP3 PUSH2 0x255 JUMP JUMPDEST SWAP1 POP SWAP2 SWAP1 POP JUMP JUMPDEST PUSH1 0x0 PUSH20 0xFFFFFFFFFFFFFFFFFFFFFFFFFFFFFFFFFFFFFFFF DUP3 AND SWAP1 POP SWAP2 SWAP1 POP JUMP JUMPDEST PUSH1 0x0 DUP2 SWAP1 POP SWAP2 SWAP1 POP JUMP JUMPDEST PUSH1 0x0 PUSH1 0x2 DUP3 DIV SWAP1 POP PUSH1 0x1 DUP3 AND DUP1 PUSH2 0x297 JUMPI PUSH1 0x7F DUP3 AND SWAP2 POP JUMPDEST PUSH1 0x20 DUP3 LT DUP2 EQ ISZERO PUSH2 0x2AB JUMPI PUSH2 0x2AA PUSH2 0x2B1 JUMP JUMPDEST JUMPDEST POP SWAP2 SWAP1 POP JUMP JUMPDEST PUSH32 0x4E487B7100000000000000000000000000000000000000000000000000000000 PUSH1 0x0 MSTORE PUSH1 0x22 PUSH1 0x4 MSTORE PUSH1 0x24 PUSH1 0x0 REVERT JUMPDEST PUSH1 0x0 DUP1 REVERT JUMPDEST PUSH1 0x0 DUP1 REVERT JUMPDEST PUSH1 0x0 DUP1 REVERT JUMPDEST PUSH1 0x0 DUP1 REVERT JUMPDEST PUSH1 0x0 DUP1 REVERT JUMPDEST PUSH2 0x302 DUP2 PUSH2 0x243 JUMP JUMPDEST DUP2 EQ PUSH2 0x30D JUMPI PUSH1 0x0 DUP1 REVERT JUMPDEST POP JUMP JUMPDEST PUSH2 0x319 DUP2 PUSH2 0x275 JUMP JUMPDEST DUP2 EQ PUSH2 0x324 JUMPI PUSH1 0x0 DUP1 REVERT JUMPDEST POP JUMP INVALID LOG2 PUSH5 0x6970667358 0x22 SLT KECCAK256 0xB4 PUSH29 0xA43E412089869D62633D02D3644A1E04107F147317538B1B8CC3ABDE3B 0xB5 PUSH5 0x736F6C6343 STOP ADDMOD SMOD STOP CALLER "
				},
				"gasEstimates": {
					"creation": {
						"codeDepositCost": "172200",
						"executionCost": "214",
						"totalCost": "172414"
					},
					"external": {
						"set(uint256,string,address)": "infinite"
					}
				},
				"methodIdentifiers": {
					"set(uint256,string,address)": "5eba0df0"
				}
			},
			"storageLayout": {
				"storage": [
					{
						"astId": 39,
						"contract": "ChangeVarsWithDelegate.sol:Updated",
						"label": "data1",
						"offset": 0,
						"slot": "0",
						"type": "t_uint256"
					},
					{
						"astId": 41,
						"contract": "ChangeVarsWithDelegate.sol:Updated",
						"label": "data2",
						"offset": 0,
						"slot": "1",
						"type": "t_string_storage"
					},
					{
						"astId": 43,
						"contract": "ChangeVarsWithDelegate.sol:Updated",
						"label": "data3",
						"offset": 0,
						"slot": "2",
						"type": "t_address"
					},
					{
						"astId": 45,
						"contract": "ChangeVarsWithDelegate.sol:Updated",
						"label": "myModifier",
						"offset": 0,
						"slot": "3",
						"type": "t_uint256"
					}
				],
				"types": {
					"t_address": {
						"encoding": "inplace",
						"label": "address",
						"numberOfBytes": "20"
					},
					"t_string_storage": {
						"encoding": "bytes",
						"label": "string",
						"numberOfBytes": "32"
					},
					"t_uint256": {
						"encoding": "inplace",
						"label": "uint256",
						"numberOfBytes": "32"
					}
				}
			},
			"userdoc": {
				"kind": "user",
				"methods": {},
				"version": 1
			}
		}
	}
}