{
	"ChangeVarsWithDelegate.sol": {
		"Deployed": {
			"abi": [
				{
					"inputs": [
						{
							"internalType": "address",
							"name": "u",
							"type": "address"
						},
						{
							"internalType": "uint256",
							"name": "d1",
							"type": "uint256"
						},
						{
							"internalType": "string",
							"name": "d2",
							"type": "string"
						},
						{
							"internalType": "address",
							"name": "d3",
							"type": "address"
						}
					],
					"name": "set",
					"outputs": [],
					"stateMutability": "nonpayable",
					"type": "function"
				}
			],
			"devdoc": {
				"kind": "dev",
				"methods": {},
				"version": 1
			},
			"evm": {
				"assembly": "    /* \"ChangeVarsWithDelegate.sol\":57:330  contract Deployed{... */\n  mstore(0x40, 0x80)\n  callvalue\n  dup1\n  iszero\n  tag_1\n  jumpi\n  0x00\n  dup1\n  revert\ntag_1:\n  pop\n  dataSize(sub_0)\n  dup1\n  dataOffset(sub_0)\n  0x00\n  codecopy\n  0x00\n  return\nstop\n\nsub_0: assembly {\n        /* \"ChangeVarsWithDelegate.sol\":57:330  contract Deployed{... */\n      mstore(0x40, 0x80)\n      callvalue\n      dup1\n      iszero\n      tag_1\n      jumpi\n      0x00\n      dup1\n      revert\n    tag_1:\n      pop\n      jumpi(tag_2, lt(calldatasize, 0x04))\n      shr(0xe0, calldataload(0x00))\n      dup1\n      0xab5b1aa7\n      eq\n      tag_3\n      jumpi\n    tag_2:\n      0x00\n      dup1\n      revert\n        /* \"ChangeVarsWithDelegate.sol\":134:327  function set(address u,uint d1,string calldata d2,address d3) external {... */\n    tag_3:\n      tag_4\n      0x04\n      dup1\n      calldatasize\n      sub\n      dup2\n      add\n      swap1\n      tag_5\n      swap2\n      swap1\n      tag_6\n      jump\t// in\n    tag_5:\n      tag_7\n      jump\t// in\n    tag_4:\n      stop\n    tag_7:\n        /* \"ChangeVarsWithDelegate.sol\":216:228  bool success */\n      0x00\n        /* \"ChangeVarsWithDelegate.sol\":230:247  bytes memory data */\n      dup1\n        /* \"ChangeVarsWithDelegate.sol\":251:252  u */\n      dup7\n        /* \"ChangeVarsWithDelegate.sol\":251:265  u.delegatecall */\n      0xffffffffffffffffffffffffffffffffffffffff\n      and\n        /* \"ChangeVarsWithDelegate.sol\":289:309  Updated.set.selector */\n      shl(0xe0, 0x5eba0df0)\n        /* \"ChangeVarsWithDelegate.sol\":310:312  d1 */\n      dup8\n        /* \"ChangeVarsWithDelegate.sol\":313:315  d2 */\n      dup8\n      dup8\n        /* \"ChangeVarsWithDelegate.sol\":316:318  d3 */\n      dup8\n        /* \"ChangeVarsWithDelegate.sol\":266:319  abi.encodeWithSelector(Updated.set.selector,d1,d2,d3) */\n      add(0x24, mload(0x40))\n      tag_9\n      swap5\n      swap4\n      swap3\n      swap2\n      swap1\n      tag_10\n      jump\t// in\n    tag_9:\n      mload(0x40)\n      0x20\n      dup2\n      dup4\n      sub\n      sub\n      dup2\n      mstore\n      swap1\n      0x40\n      mstore\n      swap1\n      not(0xffffffffffffffffffffffffffffffffffffffffffffffffffffffff)\n      and\n      0x20\n      dup3\n      add\n      dup1\n      mload\n      0xffffffffffffffffffffffffffffffffffffffffffffffffffffffff\n      dup4\n      dup2\n      dup4\n      and\n      or\n      dup4\n      mstore\n      pop\n      pop\n      pop\n      pop\n        /* \"ChangeVarsWithDelegate.sol\":251:320  u.delegatecall(abi.encodeWithSelector(Updated.set.selector,d1,d2,d3)) */\n      mload(0x40)\n      tag_11\n      swap2\n      swap1\n      tag_12\n      jump\t// in\n    tag_11:\n      0x00\n      mload(0x40)\n      dup1\n      dup4\n      sub\n      dup2\n      dup6\n      gas\n      delegatecall\n      swap2\n      pop\n      pop\n      returndatasize\n      dup1\n      0x00\n      dup2\n      eq\n      tag_15\n      jumpi\n      mload(0x40)\n      swap2\n      pop\n      and(add(returndatasize, 0x3f), not(0x1f))\n      dup3\n      add\n      0x40\n      mstore\n      returndatasize\n      dup3\n      mstore\n      returndatasize\n      0x00\n      0x20\n      dup5\n      add\n      returndatacopy\n      jump(tag_14)\n    tag_15:\n      0x60\n      swap2\n      pop\n    tag_14:\n      pop\n        /* \"ChangeVarsWithDelegate.sol\":215:320  (bool success, bytes memory data) = u.delegatecall(abi.encodeWithSelector(Updated.set.selector,d1,d2,d3)) */\n      swap2\n      pop\n      swap2\n      pop\n        /* \"ChangeVarsWithDelegate.sol\":205:327  {... */\n      pop\n      pop\n        /* \"ChangeVarsWithDelegate.sol\":134:327  function set(address u,uint d1,string calldata d2,address d3) external {... */\n      pop\n      pop\n      pop\n      pop\n      pop\n      jump\t// out\n        /* \"#utility.yul\":7:146   */\n    tag_17:\n        /* \"#utility.yul\":53:58   */\n      0x00\n        /* \"#utility.yul\":91:97   */\n      dup2\n        /* \"#utility.yul\":78:98   */\n      calldataload\n        /* \"#utility.yul\":69:98   */\n      swap1\n      pop\n        /* \"#utility.yul\":107:140   */\n      tag_19\n        /* \"#utility.yul\":134:139   */\n      dup2\n        /* \"#utility.yul\":107:140   */\n      tag_20\n      jump\t// in\n    tag_19:\n        /* \"#utility.yul\":7:146   */\n      swap3\n      swap2\n      pop\n      pop\n      jump\t// out\n        /* \"#utility.yul\":166:719   */\n    tag_21:\n        /* \"#utility.yul\":224:232   */\n      0x00\n        /* \"#utility.yul\":234:240   */\n      dup1\n        /* \"#utility.yul\":284:287   */\n      dup4\n        /* \"#utility.yul\":277:281   */\n      0x1f\n        /* \"#utility.yul\":269:275   */\n      dup5\n        /* \"#utility.yul\":265:282   */\n      add\n        /* \"#utility.yul\":261:288   */\n      slt\n        /* \"#utility.yul\":251:373   */\n      tag_23\n      jumpi\n        /* \"#utility.yul\":292:371   */\n      tag_24\n      tag_25\n      jump\t// in\n    tag_24:\n        /* \"#utility.yul\":251:373   */\n    tag_23:\n        /* \"#utility.yul\":405:411   */\n      dup3\n        /* \"#utility.yul\":392:412   */\n      calldataload\n        /* \"#utility.yul\":382:412   */\n      swap1\n      pop\n        /* \"#utility.yul\":435:453   */\n      0xffffffffffffffff\n        /* \"#utility.yul\":427:433   */\n      dup2\n        /* \"#utility.yul\":424:454   */\n      gt\n        /* \"#utility.yul\":421:538   */\n      iszero\n      tag_26\n      jumpi\n        /* \"#utility.yul\":457:536   */\n      tag_27\n      tag_28\n      jump\t// in\n    tag_27:\n        /* \"#utility.yul\":421:538   */\n    tag_26:\n        /* \"#utility.yul\":571:575   */\n      0x20\n        /* \"#utility.yul\":563:569   */\n      dup4\n        /* \"#utility.yul\":559:576   */\n      add\n        /* \"#utility.yul\":547:576   */\n      swap2\n      pop\n        /* \"#utility.yul\":625:628   */\n      dup4\n        /* \"#utility.yul\":617:621   */\n      0x01\n        /* \"#utility.yul\":609:615   */\n      dup3\n        /* \"#utility.yul\":605:622   */\n      mul\n        /* \"#utility.yul\":595:603   */\n      dup4\n        /* \"#utility.yul\":591:623   */\n      add\n        /* \"#utility.yul\":588:629   */\n      gt\n        /* \"#utility.yul\":585:713   */\n      iszero\n      tag_29\n      jumpi\n        /* \"#utility.yul\":632:711   */\n      tag_30\n      tag_31\n      jump\t// in\n    tag_30:\n        /* \"#utility.yul\":585:713   */\n    tag_29:\n        /* \"#utility.yul\":166:719   */\n      swap3\n      pop\n      swap3\n      swap1\n      pop\n      jump\t// out\n        /* \"#utility.yul\":725:864   */\n    tag_32:\n        /* \"#utility.yul\":771:776   */\n      0x00\n        /* \"#utility.yul\":809:815   */\n      dup2\n        /* \"#utility.yul\":796:816   */\n      calldataload\n        /* \"#utility.yul\":787:816   */\n      swap1\n      pop\n        /* \"#utility.yul\":825:858   */\n      tag_34\n        /* \"#utility.yul\":852:857   */\n      dup2\n        /* \"#utility.yul\":825:858   */\n      tag_35\n      jump\t// in\n    tag_34:\n        /* \"#utility.yul\":725:864   */\n      swap3\n      swap2\n      pop\n      pop\n      jump\t// out\n        /* \"#utility.yul\":870:1835   */\n    tag_6:\n        /* \"#utility.yul\":968:974   */\n      0x00\n        /* \"#utility.yul\":976:982   */\n      dup1\n        /* \"#utility.yul\":984:990   */\n      0x00\n        /* \"#utility.yul\":992:998   */\n      dup1\n        /* \"#utility.yul\":1000:1006   */\n      0x00\n        /* \"#utility.yul\":1049:1052   */\n      0x80\n        /* \"#utility.yul\":1037:1046   */\n      dup7\n        /* \"#utility.yul\":1028:1035   */\n      dup9\n        /* \"#utility.yul\":1024:1047   */\n      sub\n        /* \"#utility.yul\":1020:1053   */\n      slt\n        /* \"#utility.yul\":1017:1137   */\n      iszero\n      tag_37\n      jumpi\n        /* \"#utility.yul\":1056:1135   */\n      tag_38\n      tag_39\n      jump\t// in\n    tag_38:\n        /* \"#utility.yul\":1017:1137   */\n    tag_37:\n        /* \"#utility.yul\":1176:1177   */\n      0x00\n        /* \"#utility.yul\":1201:1254   */\n      tag_40\n        /* \"#utility.yul\":1246:1253   */\n      dup9\n        /* \"#utility.yul\":1237:1243   */\n      dup3\n        /* \"#utility.yul\":1226:1235   */\n      dup10\n        /* \"#utility.yul\":1222:1244   */\n      add\n        /* \"#utility.yul\":1201:1254   */\n      tag_17\n      jump\t// in\n    tag_40:\n        /* \"#utility.yul\":1191:1254   */\n      swap6\n      pop\n        /* \"#utility.yul\":1147:1264   */\n      pop\n        /* \"#utility.yul\":1303:1305   */\n      0x20\n        /* \"#utility.yul\":1329:1382   */\n      tag_41\n        /* \"#utility.yul\":1374:1381   */\n      dup9\n        /* \"#utility.yul\":1365:1371   */\n      dup3\n        /* \"#utility.yul\":1354:1363   */\n      dup10\n        /* \"#utility.yul\":1350:1372   */\n      add\n        /* \"#utility.yul\":1329:1382   */\n      tag_32\n      jump\t// in\n    tag_41:\n        /* \"#utility.yul\":1319:1382   */\n      swap5\n      pop\n        /* \"#utility.yul\":1274:1392   */\n      pop\n        /* \"#utility.yul\":1459:1461   */\n      0x40\n        /* \"#utility.yul\":1448:1457   */\n      dup7\n        /* \"#utility.yul\":1444:1462   */\n      add\n        /* \"#utility.yul\":1431:1463   */\n      calldataload\n        /* \"#utility.yul\":1490:1508   */\n      0xffffffffffffffff\n        /* \"#utility.yul\":1482:1488   */\n      dup2\n        /* \"#utility.yul\":1479:1509   */\n      gt\n        /* \"#utility.yul\":1476:1593   */\n      iszero\n      tag_42\n      jumpi\n        /* \"#utility.yul\":1512:1591   */\n      tag_43\n      tag_44\n      jump\t// in\n    tag_43:\n        /* \"#utility.yul\":1476:1593   */\n    tag_42:\n        /* \"#utility.yul\":1625:1690   */\n      tag_45\n        /* \"#utility.yul\":1682:1689   */\n      dup9\n        /* \"#utility.yul\":1673:1679   */\n      dup3\n        /* \"#utility.yul\":1662:1671   */\n      dup10\n        /* \"#utility.yul\":1658:1680   */\n      add\n        /* \"#utility.yul\":1625:1690   */\n      tag_21\n      jump\t// in\n    tag_45:\n        /* \"#utility.yul\":1607:1690   */\n      swap4\n      pop\n      swap4\n      pop\n        /* \"#utility.yul\":1402:1700   */\n      pop\n        /* \"#utility.yul\":1739:1741   */\n      0x60\n        /* \"#utility.yul\":1765:1818   */\n      tag_46\n        /* \"#utility.yul\":1810:1817   */\n      dup9\n        /* \"#utility.yul\":1801:1807   */\n      dup3\n        /* \"#utility.yul\":1790:1799   */\n      dup10\n        /* \"#utility.yul\":1786:1808   */\n      add\n        /* \"#utility.yul\":1765:1818   */\n      tag_17\n      jump\t// in\n    tag_46:\n        /* \"#utility.yul\":1755:1818   */\n      swap2\n      pop\n        /* \"#utility.yul\":1710:1828   */\n      pop\n        /* \"#utility.yul\":870:1835   */\n      swap3\n      swap6\n      pop\n      swap3\n      swap6\n      swap1\n      swap4\n      pop\n      jump\t// out\n        /* \"#utility.yul\":1841:1959   */\n    tag_47:\n        /* \"#utility.yul\":1928:1952   */\n      tag_49\n        /* \"#utility.yul\":1946:1951   */\n      dup2\n        /* \"#utility.yul\":1928:1952   */\n      tag_50\n      jump\t// in\n    tag_49:\n        /* \"#utility.yul\":1923:1926   */\n      dup3\n        /* \"#utility.yul\":1916:1953   */\n      mstore\n        /* \"#utility.yul\":1841:1959   */\n      pop\n      pop\n      jump\t// out\n        /* \"#utility.yul\":1965:2338   */\n    tag_51:\n        /* \"#utility.yul\":2069:2072   */\n      0x00\n        /* \"#utility.yul\":2097:2135   */\n      tag_53\n        /* \"#utility.yul\":2129:2134   */\n      dup3\n        /* \"#utility.yul\":2097:2135   */\n      tag_54\n      jump\t// in\n    tag_53:\n        /* \"#utility.yul\":2151:2239   */\n      tag_55\n        /* \"#utility.yul\":2232:2238   */\n      dup2\n        /* \"#utility.yul\":2227:2230   */\n      dup6\n        /* \"#utility.yul\":2151:2239   */\n      tag_56\n      jump\t// in\n    tag_55:\n        /* \"#utility.yul\":2144:2239   */\n      swap4\n      pop\n        /* \"#utility.yul\":2248:2300   */\n      tag_57\n        /* \"#utility.yul\":2293:2299   */\n      dup2\n        /* \"#utility.yul\":2288:2291   */\n      dup6\n        /* \"#utility.yul\":2281:2285   */\n      0x20\n        /* \"#utility.yul\":2274:2279   */\n      dup7\n        /* \"#utility.yul\":2270:2286   */\n      add\n        /* \"#utility.yul\":2248:2300   */\n      tag_58\n      jump\t// in\n    tag_57:\n        /* \"#utility.yul\":2325:2331   */\n      dup1\n        /* \"#utility.yul\":2320:2323   */\n      dup5\n        /* \"#utility.yul\":2316:2332   */\n      add\n        /* \"#utility.yul\":2309:2332   */\n      swap2\n      pop\n        /* \"#utility.yul\":2073:2338   */\n      pop\n        /* \"#utility.yul\":1965:2338   */\n      swap3\n      swap2\n      pop\n      pop\n      jump\t// out\n        /* \"#utility.yul\":2368:2672   */\n    tag_59:\n        /* \"#utility.yul\":2466:2469   */\n      0x00\n        /* \"#utility.yul\":2487:2558   */\n      tag_61\n        /* \"#utility.yul\":2551:2557   */\n      dup4\n        /* \"#utility.yul\":2546:2549   */\n      dup6\n        /* \"#utility.yul\":2487:2558   */\n      tag_62\n      jump\t// in\n    tag_61:\n        /* \"#utility.yul\":2480:2558   */\n      swap4\n      pop\n        /* \"#utility.yul\":2568:2611   */\n      tag_63\n        /* \"#utility.yul\":2604:2610   */\n      dup4\n        /* \"#utility.yul\":2599:2602   */\n      dup6\n        /* \"#utility.yul\":2592:2597   */\n      dup5\n        /* \"#utility.yul\":2568:2611   */\n      tag_64\n      jump\t// in\n    tag_63:\n        /* \"#utility.yul\":2636:2665   */\n      tag_65\n        /* \"#utility.yul\":2658:2664   */\n      dup4\n        /* \"#utility.yul\":2636:2665   */\n      tag_66\n      jump\t// in\n    tag_65:\n        /* \"#utility.yul\":2631:2634   */\n      dup5\n        /* \"#utility.yul\":2627:2666   */\n      add\n        /* \"#utility.yul\":2620:2666   */\n      swap1\n      pop\n        /* \"#utility.yul\":2368:2672   */\n      swap4\n      swap3\n      pop\n      pop\n      pop\n      jump\t// out\n        /* \"#utility.yul\":2678:2796   */\n    tag_67:\n        /* \"#utility.yul\":2765:2789   */\n      tag_69\n        /* \"#utility.yul\":2783:2788   */\n      dup2\n        /* \"#utility.yul\":2765:2789   */\n      tag_70\n      jump\t// in\n    tag_69:\n        /* \"#utility.yul\":2760:2763   */\n      dup3\n        /* \"#utility.yul\":2753:2790   */\n      mstore\n        /* \"#utility.yul\":2678:2796   */\n      pop\n      pop\n      jump\t// out\n        /* \"#utility.yul\":2802:3073   */\n    tag_12:\n        /* \"#utility.yul\":2932:2935   */\n      0x00\n        /* \"#utility.yul\":2954:3047   */\n      tag_72\n        /* \"#utility.yul\":3043:3046   */\n      dup3\n        /* \"#utility.yul\":3034:3040   */\n      dup5\n        /* \"#utility.yul\":2954:3047   */\n      tag_51\n      jump\t// in\n    tag_72:\n        /* \"#utility.yul\":2947:3047   */\n      swap2\n      pop\n        /* \"#utility.yul\":3064:3067   */\n      dup2\n        /* \"#utility.yul\":3057:3067   */\n      swap1\n      pop\n        /* \"#utility.yul\":2802:3073   */\n      swap3\n      swap2\n      pop\n      pop\n      jump\t// out\n        /* \"#utility.yul\":3079:3632   */\n    tag_10:\n        /* \"#utility.yul\":3258:3262   */\n      0x00\n        /* \"#utility.yul\":3296:3298   */\n      0x60\n        /* \"#utility.yul\":3285:3294   */\n      dup3\n        /* \"#utility.yul\":3281:3299   */\n      add\n        /* \"#utility.yul\":3273:3299   */\n      swap1\n      pop\n        /* \"#utility.yul\":3309:3380   */\n      tag_74\n        /* \"#utility.yul\":3377:3378   */\n      0x00\n        /* \"#utility.yul\":3366:3375   */\n      dup4\n        /* \"#utility.yul\":3362:3379   */\n      add\n        /* \"#utility.yul\":3353:3359   */\n      dup8\n        /* \"#utility.yul\":3309:3380   */\n      tag_67\n      jump\t// in\n    tag_74:\n        /* \"#utility.yul\":3427:3436   */\n      dup2\n        /* \"#utility.yul\":3421:3425   */\n      dup2\n        /* \"#utility.yul\":3417:3437   */\n      sub\n        /* \"#utility.yul\":3412:3414   */\n      0x20\n        /* \"#utility.yul\":3401:3410   */\n      dup4\n        /* \"#utility.yul\":3397:3415   */\n      add\n        /* \"#utility.yul\":3390:3438   */\n      mstore\n        /* \"#utility.yul\":3455:3543   */\n      tag_75\n        /* \"#utility.yul\":3538:3542   */\n      dup2\n        /* \"#utility.yul\":3529:3535   */\n      dup6\n        /* \"#utility.yul\":3521:3527   */\n      dup8\n        /* \"#utility.yul\":3455:3543   */\n      tag_59\n      jump\t// in\n    tag_75:\n        /* \"#utility.yul\":3447:3543   */\n      swap1\n      pop\n        /* \"#utility.yul\":3553:3625   */\n      tag_76\n        /* \"#utility.yul\":3621:3623   */\n      0x40\n        /* \"#utility.yul\":3610:3619   */\n      dup4\n        /* \"#utility.yul\":3606:3624   */\n      add\n        /* \"#utility.yul\":3597:3603   */\n      dup5\n        /* \"#utility.yul\":3553:3625   */\n      tag_47\n      jump\t// in\n    tag_76:\n        /* \"#utility.yul\":3079:3632   */\n      swap6\n      swap5\n      pop\n      pop\n      pop\n      pop\n      pop\n      jump\t// out\n        /* \"#utility.yul\":3719:3817   */\n    tag_54:\n        /* \"#utility.yul\":3770:3776   */\n      0x00\n        /* \"#utility.yul\":3804:3809   */\n      dup2\n        /* \"#utility.yul\":3798:3810   */\n      mload\n        /* \"#utility.yul\":3788:3810   */\n      swap1\n      pop\n        /* \"#utility.yul\":3719:3817   */\n      swap2\n      swap1\n      pop\n      jump\t// out\n        /* \"#utility.yul\":3823:3970   */\n    tag_56:\n        /* \"#utility.yul\":3924:3935   */\n      0x00\n        /* \"#utility.yul\":3961:3964   */\n      dup2\n        /* \"#utility.yul\":3946:3964   */\n      swap1\n      pop\n        /* \"#utility.yul\":3823:3970   */\n      swap3\n      swap2\n      pop\n      pop\n      jump\t// out\n        /* \"#utility.yul\":3976:4145   */\n    tag_62:\n        /* \"#utility.yul\":4060:4071   */\n      0x00\n        /* \"#utility.yul\":4094:4100   */\n      dup3\n        /* \"#utility.yul\":4089:4092   */\n      dup3\n        /* \"#utility.yul\":4082:4101   */\n      mstore\n        /* \"#utility.yul\":4134:4138   */\n      0x20\n        /* \"#utility.yul\":4129:4132   */\n      dup3\n        /* \"#utility.yul\":4125:4139   */\n      add\n        /* \"#utility.yul\":4110:4139   */\n      swap1\n      pop\n        /* \"#utility.yul\":3976:4145   */\n      swap3\n      swap2\n      pop\n      pop\n      jump\t// out\n        /* \"#utility.yul\":4151:4247   */\n    tag_50:\n        /* \"#utility.yul\":4188:4195   */\n      0x00\n        /* \"#utility.yul\":4217:4241   */\n      tag_83\n        /* \"#utility.yul\":4235:4240   */\n      dup3\n        /* \"#utility.yul\":4217:4241   */\n      tag_84\n      jump\t// in\n    tag_83:\n        /* \"#utility.yul\":4206:4241   */\n      swap1\n      pop\n        /* \"#utility.yul\":4151:4247   */\n      swap2\n      swap1\n      pop\n      jump\t// out\n        /* \"#utility.yul\":4253:4379   */\n    tag_84:\n        /* \"#utility.yul\":4290:4297   */\n      0x00\n        /* \"#utility.yul\":4330:4372   */\n      0xffffffffffffffffffffffffffffffffffffffff\n        /* \"#utility.yul\":4323:4328   */\n      dup3\n        /* \"#utility.yul\":4319:4373   */\n      and\n        /* \"#utility.yul\":4308:4373   */\n      swap1\n      pop\n        /* \"#utility.yul\":4253:4379   */\n      swap2\n      swap1\n      pop\n      jump\t// out\n        /* \"#utility.yul\":4385:4462   */\n    tag_70:\n        /* \"#utility.yul\":4422:4429   */\n      0x00\n        /* \"#utility.yul\":4451:4456   */\n      dup2\n        /* \"#utility.yul\":4440:4456   */\n      swap1\n      pop\n        /* \"#utility.yul\":4385:4462   */\n      swap2\n      swap1\n      pop\n      jump\t// out\n        /* \"#utility.yul\":4468:4622   */\n    tag_64:\n        /* \"#utility.yul\":4552:4558   */\n      dup3\n        /* \"#utility.yul\":4547:4550   */\n      dup2\n        /* \"#utility.yul\":4542:4545   */\n      dup4\n        /* \"#utility.yul\":4529:4559   */\n      calldatacopy\n        /* \"#utility.yul\":4614:4615   */\n      0x00\n        /* \"#utility.yul\":4605:4611   */\n      dup4\n        /* \"#utility.yul\":4600:4603   */\n      dup4\n        /* \"#utility.yul\":4596:4612   */\n      add\n        /* \"#utility.yul\":4589:4616   */\n      mstore\n        /* \"#utility.yul\":4468:4622   */\n      pop\n      pop\n      pop\n      jump\t// out\n        /* \"#utility.yul\":4628:4935   */\n    tag_58:\n        /* \"#utility.yul\":4696:4697   */\n      0x00\n        /* \"#utility.yul\":4706:4819   */\n    tag_89:\n        /* \"#utility.yul\":4720:4726   */\n      dup4\n        /* \"#utility.yul\":4717:4718   */\n      dup2\n        /* \"#utility.yul\":4714:4727   */\n      lt\n        /* \"#utility.yul\":4706:4819   */\n      iszero\n      tag_91\n      jumpi\n        /* \"#utility.yul\":4805:4806   */\n      dup1\n        /* \"#utility.yul\":4800:4803   */\n      dup3\n        /* \"#utility.yul\":4796:4807   */\n      add\n        /* \"#utility.yul\":4790:4808   */\n      mload\n        /* \"#utility.yul\":4786:4787   */\n      dup2\n        /* \"#utility.yul\":4781:4784   */\n      dup5\n        /* \"#utility.yul\":4777:4788   */\n      add\n        /* \"#utility.yul\":4770:4809   */\n      mstore\n        /* \"#utility.yul\":4742:4744   */\n      0x20\n        /* \"#utility.yul\":4739:4740   */\n      dup2\n        /* \"#utility.yul\":4735:4745   */\n      add\n        /* \"#utility.yul\":4730:4745   */\n      swap1\n      pop\n        /* \"#utility.yul\":4706:4819   */\n      jump(tag_89)\n    tag_91:\n        /* \"#utility.yul\":4837:4843   */\n      dup4\n        /* \"#utility.yul\":4834:4835   */\n      dup2\n        /* \"#utility.yul\":4831:4844   */\n      gt\n        /* \"#utility.yul\":4828:4929   */\n      iszero\n      tag_92\n      jumpi\n        /* \"#utility.yul\":4917:4918   */\n      0x00\n        /* \"#utility.yul\":4908:4914   */\n      dup5\n        /* \"#utility.yul\":4903:4906   */\n      dup5\n        /* \"#utility.yul\":4899:4915   */\n      add\n        /* \"#utility.yul\":4892:4919   */\n      mstore\n        /* \"#utility.yul\":4828:4929   */\n    tag_92:\n        /* \"#utility.yul\":4677:4935   */\n      pop\n        /* \"#utility.yul\":4628:4935   */\n      pop\n      pop\n      pop\n      jump\t// out\n        /* \"#utility.yul\":4941:5058   */\n    tag_28:\n        /* \"#utility.yul\":5050:5051   */\n      0x00\n        /* \"#utility.yul\":5047:5048   */\n      dup1\n        /* \"#utility.yul\":5040:5052   */\n      revert\n        /* \"#utility.yul\":5064:5181   */\n    tag_25:\n        /* \"#utility.yul\":5173:5174   */\n      0x00\n        /* \"#utility.yul\":5170:5171   */\n      dup1\n        /* \"#utility.yul\":5163:5175   */\n      revert\n        /* \"#utility.yul\":5187:5304   */\n    tag_31:\n        /* \"#utility.yul\":5296:5297   */\n      0x00\n        /* \"#utility.yul\":5293:5294   */\n      dup1\n        /* \"#utility.yul\":5286:5298   */\n      revert\n        /* \"#utility.yul\":5310:5427   */\n    tag_44:\n        /* \"#utility.yul\":5419:5420   */\n      0x00\n        /* \"#utility.yul\":5416:5417   */\n      dup1\n        /* \"#utility.yul\":5409:5421   */\n      revert\n        /* \"#utility.yul\":5433:5550   */\n    tag_39:\n        /* \"#utility.yul\":5542:5543   */\n      0x00\n        /* \"#utility.yul\":5539:5540   */\n      dup1\n        /* \"#utility.yul\":5532:5544   */\n      revert\n        /* \"#utility.yul\":5556:5658   */\n    tag_66:\n        /* \"#utility.yul\":5597:5603   */\n      0x00\n        /* \"#utility.yul\":5648:5650   */\n      0x1f\n        /* \"#utility.yul\":5644:5651   */\n      not\n        /* \"#utility.yul\":5639:5641   */\n      0x1f\n        /* \"#utility.yul\":5632:5637   */\n      dup4\n        /* \"#utility.yul\":5628:5642   */\n      add\n        /* \"#utility.yul\":5624:5652   */\n      and\n        /* \"#utility.yul\":5614:5652   */\n      swap1\n      pop\n        /* \"#utility.yul\":5556:5658   */\n      swap2\n      swap1\n      pop\n      jump\t// out\n        /* \"#utility.yul\":5664:5786   */\n    tag_20:\n        /* \"#utility.yul\":5737:5761   */\n      tag_100\n        /* \"#utility.yul\":5755:5760   */\n      dup2\n        /* \"#utility.yul\":5737:5761   */\n      tag_50\n      jump\t// in\n    tag_100:\n        /* \"#utility.yul\":5730:5735   */\n      dup2\n        /* \"#utility.yul\":5727:5762   */\n      eq\n        /* \"#utility.yul\":5717:5780   */\n      tag_101\n      jumpi\n        /* \"#utility.yul\":5776:5777   */\n      0x00\n        /* \"#utility.yul\":5773:5774   */\n      dup1\n        /* \"#utility.yul\":5766:5778   */\n      revert\n        /* \"#utility.yul\":5717:5780   */\n    tag_101:\n        /* \"#utility.yul\":5664:5786   */\n      pop\n      jump\t// out\n        /* \"#utility.yul\":5792:5914   */\n    tag_35:\n        /* \"#utility.yul\":5865:5889   */\n      tag_103\n        /* \"#utility.yul\":5883:5888   */\n      dup2\n        /* \"#utility.yul\":5865:5889   */\n      tag_70\n      jump\t// in\n    tag_103:\n        /* \"#utility.yul\":5858:5863   */\n      dup2\n        /* \"#utility.yul\":5855:5890   */\n      eq\n        /* \"#utility.yul\":5845:5908   */\n      tag_104\n      jumpi\n        /* \"#utility.yul\":5904:5905   */\n      0x00\n        /* \"#utility.yul\":5901:5902   */\n      dup1\n        /* \"#utility.yul\":5894:5906   */\n      revert\n        /* \"#utility.yul\":5845:5908   */\n    tag_104:\n        /* \"#utility.yul\":5792:5914   */\n      pop\n      jump\t// out\n\n    auxdata: 0xa26469706673582212203f1b0e2811157f4b06ee07a427254b5dbfc22638c511fed5649eb9383618f12364736f6c63430008070033\n}\n",
				"bytecode": {
					"linkReferences": {},
					"object": "608060405234801561001057600080fd5b5061044b806100206000396000f3fe608060405234801561001057600080fd5b506004361061002b5760003560e01c8063ab5b1aa714610030575b600080fd5b61004a600480360381019061004591906101bd565b61004c565b005b6000808673ffffffffffffffffffffffffffffffffffffffff16635eba0df060e01b8787878760405160240161008594939291906102d8565b604051602081830303815290604052907bffffffffffffffffffffffffffffffffffffffffffffffffffffffff19166020820180517bffffffffffffffffffffffffffffffffffffffffffffffffffffffff83818316178352505050506040516100ef91906102c1565b600060405180830381855af49150503d806000811461012a576040519150601f19603f3d011682016040523d82523d6000602084013e61012f565b606091505b509150915050505050505050565b60008135905061014c816103e7565b92915050565b60008083601f840112610168576101676103c2565b5b8235905067ffffffffffffffff811115610185576101846103bd565b5b6020830191508360018202830111156101a1576101a06103c7565b5b9250929050565b6000813590506101b7816103fe565b92915050565b6000806000806000608086880312156101d9576101d86103d1565b5b60006101e78882890161013d565b95505060206101f8888289016101a8565b945050604086013567ffffffffffffffff811115610219576102186103cc565b5b61022588828901610152565b935093505060606102388882890161013d565b9150509295509295909350565b61024e8161033f565b82525050565b600061025f82610318565b6102698185610323565b935061027981856020860161038a565b80840191505092915050565b6000610291838561032e565b935061029e83858461037b565b6102a7836103d6565b840190509392505050565b6102bb81610371565b82525050565b60006102cd8284610254565b915081905092915050565b60006060820190506102ed60008301876102b2565b8181036020830152610300818587610285565b905061030f6040830184610245565b95945050505050565b600081519050919050565b600081905092915050565b600082825260208201905092915050565b600061034a82610351565b9050919050565b600073ffffffffffffffffffffffffffffffffffffffff82169050919050565b6000819050919050565b82818337600083830152505050565b60005b838110156103a857808201518184015260208101905061038d565b838111156103b7576000848401525b50505050565b600080fd5b600080fd5b600080fd5b600080fd5b600080fd5b6000601f19601f8301169050919050565b6103f08161033f565b81146103fb57600080fd5b50565b61040781610371565b811461041257600080fd5b5056fea26469706673582212203f1b0e2811157f4b06ee07a427254b5dbfc22638c511fed5649eb9383618f12364736f6c63430008070033",
					"opcodes": "PUSH1 0x80 PUSH1 0x40 MSTORE CALLVALUE DUP1 ISZERO PUSH2 0x10 JUMPI PUSH1 0x0 DUP1 REVERT JUMPDEST POP PUSH2 0x44B DUP1 PUSH2 0x20 PUSH1 0x0 CODECOPY PUSH1 0x0 RETURN INVALID PUSH1 0x80 PUSH1 0x40 MSTORE CALLVALUE DUP1 ISZERO PUSH2 0x10 JUMPI PUSH1 0x0 DUP1 REVERT JUMPDEST POP PUSH1 0x4 CALLDATASIZE LT PUSH2 0x2B JUMPI PUSH1 0x0 CALLDATALOAD PUSH1 0xE0 SHR DUP1 PUSH4 0xAB5B1AA7 EQ PUSH2 0x30 JUMPI JUMPDEST PUSH1 0x0 DUP1 REVERT JUMPDEST PUSH2 0x4A PUSH1 0x4 DUP1 CALLDATASIZE SUB DUP2 ADD SWAP1 PUSH2 0x45 SWAP2 SWAP1 PUSH2 0x1BD JUMP JUMPDEST PUSH2 0x4C JUMP JUMPDEST STOP JUMPDEST PUSH1 0x0 DUP1 DUP7 PUSH20 0xFFFFFFFFFFFFFFFFFFFFFFFFFFFFFFFFFFFFFFFF AND PUSH4 0x5EBA0DF0 PUSH1 0xE0 SHL DUP8 DUP8 DUP8 DUP8 PUSH1 0x40 MLOAD PUSH1 0x24 ADD PUSH2 0x85 SWAP5 SWAP4 SWAP3 SWAP2 SWAP1 PUSH2 0x2D8 JUMP JUMPDEST PUSH1 0x40 MLOAD PUSH1 0x20 DUP2 DUP4 SUB SUB DUP2 MSTORE SWAP1 PUSH1 0x40 MSTORE SWAP1 PUSH28 0xFFFFFFFFFFFFFFFFFFFFFFFFFFFFFFFFFFFFFFFFFFFFFFFFFFFFFFFF NOT AND PUSH1 0x20 DUP3 ADD DUP1 MLOAD PUSH28 0xFFFFFFFFFFFFFFFFFFFFFFFFFFFFFFFFFFFFFFFFFFFFFFFFFFFFFFFF DUP4 DUP2 DUP4 AND OR DUP4 MSTORE POP POP POP POP PUSH1 0x40 MLOAD PUSH2 0xEF SWAP2 SWAP1 PUSH2 0x2C1 JUMP JUMPDEST PUSH1 0x0 PUSH1 0x40 MLOAD DUP1 DUP4 SUB DUP2 DUP6 GAS DELEGATECALL SWAP2 POP POP RETURNDATASIZE DUP1 PUSH1 0x0 DUP2 EQ PUSH2 0x12A JUMPI PUSH1 0x40 MLOAD SWAP2 POP PUSH1 0x1F NOT PUSH1 0x3F RETURNDATASIZE ADD AND DUP3 ADD PUSH1 0x40 MSTORE RETURNDATASIZE DUP3 MSTORE RETURNDATASIZE PUSH1 0x0 PUSH1 0x20 DUP5 ADD RETURNDATACOPY PUSH2 0x12F JUMP JUMPDEST PUSH1 0x60 SWAP2 POP JUMPDEST POP SWAP2 POP SWAP2 POP POP POP POP POP POP POP POP JUMP JUMPDEST PUSH1 0x0 DUP2 CALLDATALOAD SWAP1 POP PUSH2 0x14C DUP2 PUSH2 0x3E7 JUMP JUMPDEST SWAP3 SWAP2 POP POP JUMP JUMPDEST PUSH1 0x0 DUP1 DUP4 PUSH1 0x1F DUP5 ADD SLT PUSH2 0x168 JUMPI PUSH2 0x167 PUSH2 0x3C2 JUMP JUMPDEST JUMPDEST DUP3 CALLDATALOAD SWAP1 POP PUSH8 0xFFFFFFFFFFFFFFFF DUP2 GT ISZERO PUSH2 0x185 JUMPI PUSH2 0x184 PUSH2 0x3BD JUMP JUMPDEST JUMPDEST PUSH1 0x20 DUP4 ADD SWAP2 POP DUP4 PUSH1 0x1 DUP3 MUL DUP4 ADD GT ISZERO PUSH2 0x1A1 JUMPI PUSH2 0x1A0 PUSH2 0x3C7 JUMP JUMPDEST JUMPDEST SWAP3 POP SWAP3 SWAP1 POP JUMP JUMPDEST PUSH1 0x0 DUP2 CALLDATALOAD SWAP1 POP PUSH2 0x1B7 DUP2 PUSH2 0x3FE JUMP JUMPDEST SWAP3 SWAP2 POP POP JUMP JUMPDEST PUSH1 0x0 DUP1 PUSH1 0x0 DUP1 PUSH1 0x0 PUSH1 0x80 DUP7 DUP9 SUB SLT ISZERO PUSH2 0x1D9 JUMPI PUSH2 0x1D8 PUSH2 0x3D1 JUMP JUMPDEST JUMPDEST PUSH1 0x0 PUSH2 0x1E7 DUP9 DUP3 DUP10 ADD PUSH2 0x13D JUMP JUMPDEST SWAP6 POP POP PUSH1 0x20 PUSH2 0x1F8 DUP9 DUP3 DUP10 ADD PUSH2 0x1A8 JUMP JUMPDEST SWAP5 POP POP PUSH1 0x40 DUP7 ADD CALLDATALOAD PUSH8 0xFFFFFFFFFFFFFFFF DUP2 GT ISZERO PUSH2 0x219 JUMPI PUSH2 0x218 PUSH2 0x3CC JUMP JUMPDEST JUMPDEST PUSH2 0x225 DUP9 DUP3 DUP10 ADD PUSH2 0x152 JUMP JUMPDEST SWAP4 POP SWAP4 POP POP PUSH1 0x60 PUSH2 0x238 DUP9 DUP3 DUP10 ADD PUSH2 0x13D JUMP JUMPDEST SWAP2 POP POP SWAP3 SWAP6 POP SWAP3 SWAP6 SWAP1 SWAP4 POP JUMP JUMPDEST PUSH2 0x24E DUP2 PUSH2 0x33F JUMP JUMPDEST DUP3 MSTORE POP POP JUMP JUMPDEST PUSH1 0x0 PUSH2 0x25F DUP3 PUSH2 0x318 JUMP JUMPDEST PUSH2 0x269 DUP2 DUP6 PUSH2 0x323 JUMP JUMPDEST SWAP4 POP PUSH2 0x279 DUP2 DUP6 PUSH1 0x20 DUP7 ADD PUSH2 0x38A JUMP JUMPDEST DUP1 DUP5 ADD SWAP2 POP POP SWAP3 SWAP2 POP POP JUMP JUMPDEST PUSH1 0x0 PUSH2 0x291 DUP4 DUP6 PUSH2 0x32E JUMP JUMPDEST SWAP4 POP PUSH2 0x29E DUP4 DUP6 DUP5 PUSH2 0x37B JUMP JUMPDEST PUSH2 0x2A7 DUP4 PUSH2 0x3D6 JUMP JUMPDEST DUP5 ADD SWAP1 POP SWAP4 SWAP3 POP POP POP JUMP JUMPDEST PUSH2 0x2BB DUP2 PUSH2 0x371 JUMP JUMPDEST DUP3 MSTORE POP POP JUMP JUMPDEST PUSH1 0x0 PUSH2 0x2CD DUP3 DUP5 PUSH2 0x254 JUMP JUMPDEST SWAP2 POP DUP2 SWAP1 POP SWAP3 SWAP2 POP POP JUMP JUMPDEST PUSH1 0x0 PUSH1 0x60 DUP3 ADD SWAP1 POP PUSH2 0x2ED PUSH1 0x0 DUP4 ADD DUP8 PUSH2 0x2B2 JUMP JUMPDEST DUP2 DUP2 SUB PUSH1 0x20 DUP4 ADD MSTORE PUSH2 0x300 DUP2 DUP6 DUP8 PUSH2 0x285 JUMP JUMPDEST SWAP1 POP PUSH2 0x30F PUSH1 0x40 DUP4 ADD DUP5 PUSH2 0x245 JUMP JUMPDEST SWAP6 SWAP5 POP POP POP POP POP JUMP JUMPDEST PUSH1 0x0 DUP2 MLOAD SWAP1 POP SWAP2 SWAP1 POP JUMP JUMPDEST PUSH1 0x0 DUP2 SWAP1 POP SWAP3 SWAP2 POP POP JUMP JUMPDEST PUSH1 0x0 DUP3 DUP3 MSTORE PUSH1 0x20 DUP3 ADD SWAP1 POP SWAP3 SWAP2 POP POP JUMP JUMPDEST PUSH1 0x0 PUSH2 0x34A DUP3 PUSH2 0x351 JUMP JUMPDEST SWAP1 POP SWAP2 SWAP1 POP JUMP JUMPDEST PUSH1 0x0 PUSH20 0xFFFFFFFFFFFFFFFFFFFFFFFFFFFFFFFFFFFFFFFF DUP3 AND SWAP1 POP SWAP2 SWAP1 POP JUMP JUMPDEST PUSH1 0x0 DUP2 SWAP1 POP SWAP2 SWAP1 POP JUMP JUMPDEST DUP3 DUP2 DUP4 CALLDATACOPY PUSH1 0x0 DUP4 DUP4 ADD MSTORE POP POP POP JUMP JUMPDEST PUSH1 0x0 JUMPDEST DUP4 DUP2 LT ISZERO PUSH2 0x3A8 JUMPI DUP1 DUP3 ADD MLOAD DUP2 DUP5 ADD MSTORE PUSH1 0x20 DUP2 ADD SWAP1 POP PUSH2 0x38D JUMP JUMPDEST DUP4 DUP2 GT ISZERO PUSH2 0x3B7 JUMPI PUSH1 0x0 DUP5 DUP5 ADD MSTORE JUMPDEST POP POP POP POP JUMP JUMPDEST PUSH1 0x0 DUP1 REVERT JUMPDEST PUSH1 0x0 DUP1 REVERT JUMPDEST PUSH1 0x0 DUP1 REVERT JUMPDEST PUSH1 0x0 DUP1 REVERT JUMPDEST PUSH1 0x0 DUP1 REVERT JUMPDEST PUSH1 0x0 PUSH1 0x1F NOT PUSH1 0x1F DUP4 ADD AND SWAP1 POP SWAP2 SWAP1 POP JUMP JUMPDEST PUSH2 0x3F0 DUP2 PUSH2 0x33F JUMP JUMPDEST DUP2 EQ PUSH2 0x3FB JUMPI PUSH1 0x0 DUP1 REVERT JUMPDEST POP JUMP JUMPDEST PUSH2 0x407 DUP2 PUSH2 0x371 JUMP JUMPDEST DUP2 EQ PUSH2 0x412 JUMPI PUSH1 0x0 DUP1 REVERT JUMPDEST POP JUMP INVALID LOG2 PUSH5 0x6970667358 0x22 SLT KECCAK256 EXTCODEHASH SHL 0xE 0x28 GT ISZERO PUSH32 0x4B06EE07A427254B5DBFC22638C511FED5649EB9383618F12364736F6C634300 ADDMOD SMOD STOP CALLER "
				},
				"gasEstimates": {
					"creation": {
						"codeDepositCost": "219800",
						"executionCost": "263",
						"totalCost": "220063"
					},
					"external": {
						"set(address,uint256,string,address)": "infinite"
					}
				},
				"methodIdentifiers": {
					"set(address,uint256,string,address)": "ab5b1aa7"
				}
			},
			"storageLayout": {
				"storage": [
					{
						"astId": 3,
						"contract": "ChangeVarsWithDelegate.sol:Deployed",
						"label": "data1",
						"offset": 0,
						"slot": "0",
						"type": "t_uint256"
					},
					{
						"astId": 5,
						"contract": "ChangeVarsWithDelegate.sol:Deployed",
						"label": "data2",
						"offset": 0,
						"slot": "1",
						"type": "t_string_storage"
					},
					{
						"astId": 7,
						"contract": "ChangeVarsWithDelegate.sol:Deployed",
						"label": "data3",
						"offset": 0,
						"slot": "2",
						"type": "t_address"
					}
				],
				"types": {
					"t_address": {
						"encoding": "inplace",
						"label": "address",
						"numberOfBytes": "20"
					},
					"t_string_storage": {
						"encoding": "bytes",
						"label": "string",
						"numberOfBytes": "32"
					},
					"t_uint256": {
						"encoding": "inplace",
						"label": "uint256",
						"numberOfBytes": "32"
					}
				}
			},
			"userdoc": {
				"kind": "user",
				"methods": {},
				"version": 1
			}
		}
	}
}