{
	"Documents/dev/Lime/contracts/Functions.sol": {
		"Functions": {
			"abi": [
				{
					"inputs": [
						{
							"internalType": "uint256",
							"name": "x",
							"type": "uint256"
						},
						{
							"internalType": "uint256",
							"name": "y",
							"type": "uint256"
						}
					],
					"name": "add",
					"outputs": [
						{
							"internalType": "uint256",
							"name": "",
							"type": "uint256"
						}
					],
					"stateMutability": "pure",
					"type": "function"
				},
				{
					"inputs": [],
					"name": "addr",
					"outputs": [
						{
							"internalType": "address",
							"name": "",
							"type": "address"
						}
					],
					"stateMutability": "view",
					"type": "function"
				},
				{
					"inputs": [],
					"name": "getData",
					"outputs": [
						{
							"internalType": "address",
							"name": "",
							"type": "address"
						},
						{
							"internalType": "uint256",
							"name": "",
							"type": "uint256"
						},
						{
							"internalType": "uint256",
							"name": "",
							"type": "uint256"
						}
					],
					"stateMutability": "view",
					"type": "function"
				},
				{
					"inputs": [],
					"name": "i",
					"outputs": [
						{
							"internalType": "uint256",
							"name": "",
							"type": "uint256"
						}
					],
					"stateMutability": "view",
					"type": "function"
				},
				{
					"inputs": [],
					"name": "purFunction",
					"outputs": [
						{
							"internalType": "uint256",
							"name": "",
							"type": "uint256"
						}
					],
					"stateMutability": "pure",
					"type": "function"
				},
				{
					"inputs": [
						{
							"internalType": "uint256",
							"name": "x",
							"type": "uint256"
						},
						{
							"internalType": "uint256",
							"name": "y",
							"type": "uint256"
						}
					],
					"name": "sub",
					"outputs": [
						{
							"internalType": "uint256",
							"name": "",
							"type": "uint256"
						}
					],
					"stateMutability": "pure",
					"type": "function"
				},
				{
					"inputs": [],
					"name": "viewFunc",
					"outputs": [
						{
							"internalType": "uint256",
							"name": "",
							"type": "uint256"
						}
					],
					"stateMutability": "view",
					"type": "function"
				}
			],
			"devdoc": {
				"kind": "dev",
				"methods": {},
				"version": 1
			},
			"evm": {
				"assembly": "    /* \"Documents/dev/Lime/contracts/Functions.sol\":56:758  contract Functions{... */\n  mstore(0x40, 0x80)\n    /* \"Documents/dev/Lime/contracts/Functions.sol\":96:99  123 */\n  0x7b\n    /* \"Documents/dev/Lime/contracts/Functions.sol\":80:99  uint public i = 123 */\n  0x00\n  sstore\n    /* \"Documents/dev/Lime/contracts/Functions.sol\":135:137  10 */\n  0x0a\n    /* \"Documents/dev/Lime/contracts/Functions.sol\":105:138  address public addr = address(10) */\n  0x01\n  exp(0x0100, 0x00)\n  dup2\n  sload\n  dup2\n  0xffffffffffffffffffffffffffffffffffffffff\n  mul\n  not\n  and\n  swap1\n  dup4\n  0xffffffffffffffffffffffffffffffffffffffff\n  and\n  mul\n  or\n  swap1\n  sstore\n  pop\n    /* \"Documents/dev/Lime/contracts/Functions.sol\":56:758  contract Functions{... */\n  callvalue\n  dup1\n  iszero\n  tag_1\n  jumpi\n  0x00\n  dup1\n  revert\ntag_1:\n  pop\n  dataSize(sub_0)\n  dup1\n  dataOffset(sub_0)\n  0x00\n  codecopy\n  0x00\n  return\nstop\n\nsub_0: assembly {\n        /* \"Documents/dev/Lime/contracts/Functions.sol\":56:758  contract Functions{... */\n      mstore(0x40, 0x80)\n      callvalue\n      dup1\n      iszero\n      tag_1\n      jumpi\n      0x00\n      dup1\n      revert\n    tag_1:\n      pop\n      jumpi(tag_2, lt(calldatasize, 0x04))\n      shr(0xe0, calldataload(0x00))\n      dup1\n      0x771602f7\n      gt\n      tag_10\n      jumpi\n      dup1\n      0x771602f7\n      eq\n      tag_6\n      jumpi\n      dup1\n      0x7f2857b6\n      eq\n      tag_7\n      jumpi\n      dup1\n      0xb67d77c5\n      eq\n      tag_8\n      jumpi\n      dup1\n      0xe5aa3d58\n      eq\n      tag_9\n      jumpi\n      jump(tag_2)\n    tag_10:\n      dup1\n      0x3bc5de30\n      eq\n      tag_3\n      jumpi\n      dup1\n      0x68e9a33c\n      eq\n      tag_4\n      jumpi\n      dup1\n      0x767800de\n      eq\n      tag_5\n      jumpi\n    tag_2:\n      0x00\n      dup1\n      revert\n        /* \"Documents/dev/Lime/contracts/Functions.sol\":322:550  function getData() external view returns(address,uint,uint){... */\n    tag_3:\n      tag_11\n      tag_12\n      jump\t// in\n    tag_11:\n      mload(0x40)\n      tag_13\n      swap4\n      swap3\n      swap2\n      swap1\n      tag_14\n      jump\t// in\n    tag_13:\n      mload(0x40)\n      dup1\n      swap2\n      sub\n      swap1\n      return\n        /* \"Documents/dev/Lime/contracts/Functions.sol\":678:754  function purFunction() external pure returns (uint){... */\n    tag_4:\n      tag_15\n      tag_16\n      jump\t// in\n    tag_15:\n      mload(0x40)\n      tag_17\n      swap2\n      swap1\n      tag_18\n      jump\t// in\n    tag_17:\n      mload(0x40)\n      dup1\n      swap2\n      sub\n      swap1\n      return\n        /* \"Documents/dev/Lime/contracts/Functions.sol\":105:138  address public addr = address(10) */\n    tag_5:\n      tag_19\n      tag_20\n      jump\t// in\n    tag_19:\n      mload(0x40)\n      tag_21\n      swap2\n      swap1\n      tag_22\n      jump\t// in\n    tag_21:\n      mload(0x40)\n      dup1\n      swap2\n      sub\n      swap1\n      return\n        /* \"Documents/dev/Lime/contracts/Functions.sol\":145:227  function add(uint x,uint y) external pure returns(uint){... */\n    tag_6:\n      tag_23\n      0x04\n      dup1\n      calldatasize\n      sub\n      dup2\n      add\n      swap1\n      tag_24\n      swap2\n      swap1\n      tag_25\n      jump\t// in\n    tag_24:\n      tag_26\n      jump\t// in\n    tag_23:\n      mload(0x40)\n      tag_27\n      swap2\n      swap1\n      tag_18\n      jump\t// in\n    tag_27:\n      mload(0x40)\n      dup1\n      swap2\n      sub\n      swap1\n      return\n        /* \"Documents/dev/Lime/contracts/Functions.sol\":588:661  function viewFunc() external view returns (uint){... */\n    tag_7:\n      tag_28\n      tag_29\n      jump\t// in\n    tag_28:\n      mload(0x40)\n      tag_30\n      swap2\n      swap1\n      tag_18\n      jump\t// in\n    tag_30:\n      mload(0x40)\n      dup1\n      swap2\n      sub\n      swap1\n      return\n        /* \"Documents/dev/Lime/contracts/Functions.sol\":233:316  function sub(uint x,uint y) external pure returns (uint){... */\n    tag_8:\n      tag_31\n      0x04\n      dup1\n      calldatasize\n      sub\n      dup2\n      add\n      swap1\n      tag_32\n      swap2\n      swap1\n      tag_25\n      jump\t// in\n    tag_32:\n      tag_33\n      jump\t// in\n    tag_31:\n      mload(0x40)\n      tag_34\n      swap2\n      swap1\n      tag_18\n      jump\t// in\n    tag_34:\n      mload(0x40)\n      dup1\n      swap2\n      sub\n      swap1\n      return\n        /* \"Documents/dev/Lime/contracts/Functions.sol\":80:99  uint public i = 123 */\n    tag_9:\n      tag_35\n      tag_36\n      jump\t// in\n    tag_35:\n      mload(0x40)\n      tag_37\n      swap2\n      swap1\n      tag_18\n      jump\t// in\n    tag_37:\n      mload(0x40)\n      dup1\n      swap2\n      sub\n      swap1\n      return\n        /* \"Documents/dev/Lime/contracts/Functions.sol\":322:550  function getData() external view returns(address,uint,uint){... */\n    tag_12:\n        /* \"Documents/dev/Lime/contracts/Functions.sol\":363:370  address */\n      0x00\n        /* \"Documents/dev/Lime/contracts/Functions.sol\":371:375  uint */\n      dup1\n        /* \"Documents/dev/Lime/contracts/Functions.sol\":376:380  uint */\n      0x00\n        /* \"Documents/dev/Lime/contracts/Functions.sol\":391:405  address sender */\n      dup1\n        /* \"Documents/dev/Lime/contracts/Functions.sol\":408:418  msg.sender */\n      caller\n        /* \"Documents/dev/Lime/contracts/Functions.sol\":391:418  address sender = msg.sender */\n      swap1\n      pop\n        /* \"Documents/dev/Lime/contracts/Functions.sol\":428:442  uint timestamp */\n      0x00\n        /* \"Documents/dev/Lime/contracts/Functions.sol\":445:460  block.timestamp */\n      timestamp\n        /* \"Documents/dev/Lime/contracts/Functions.sol\":428:460  uint timestamp = block.timestamp */\n      swap1\n      pop\n        /* \"Documents/dev/Lime/contracts/Functions.sol\":470:483  uint blockNum */\n      0x00\n        /* \"Documents/dev/Lime/contracts/Functions.sol\":486:498  block.number */\n      number\n        /* \"Documents/dev/Lime/contracts/Functions.sol\":470:498  uint blockNum = block.number */\n      swap1\n      pop\n        /* \"Documents/dev/Lime/contracts/Functions.sol\":517:523  sender */\n      dup3\n        /* \"Documents/dev/Lime/contracts/Functions.sol\":524:533  timestamp */\n      dup3\n        /* \"Documents/dev/Lime/contracts/Functions.sol\":534:542  blockNum */\n      dup3\n        /* \"Documents/dev/Lime/contracts/Functions.sol\":509:543  return (sender,timestamp,blockNum) */\n      swap6\n      pop\n      swap6\n      pop\n      swap6\n      pop\n      pop\n      pop\n      pop\n        /* \"Documents/dev/Lime/contracts/Functions.sol\":322:550  function getData() external view returns(address,uint,uint){... */\n      swap1\n      swap2\n      swap3\n      jump\t// out\n        /* \"Documents/dev/Lime/contracts/Functions.sol\":678:754  function purFunction() external pure returns (uint){... */\n    tag_16:\n        /* \"Documents/dev/Lime/contracts/Functions.sol\":724:728  uint */\n      0x00\n        /* \"Documents/dev/Lime/contracts/Functions.sol\":746:747  1 */\n      0x01\n        /* \"Documents/dev/Lime/contracts/Functions.sol\":739:747  return 1 */\n      swap1\n      pop\n        /* \"Documents/dev/Lime/contracts/Functions.sol\":678:754  function purFunction() external pure returns (uint){... */\n      swap1\n      jump\t// out\n        /* \"Documents/dev/Lime/contracts/Functions.sol\":105:138  address public addr = address(10) */\n    tag_20:\n      0x01\n      0x00\n      swap1\n      sload\n      swap1\n      0x0100\n      exp\n      swap1\n      div\n      0xffffffffffffffffffffffffffffffffffffffff\n      and\n      dup2\n      jump\t// out\n        /* \"Documents/dev/Lime/contracts/Functions.sol\":145:227  function add(uint x,uint y) external pure returns(uint){... */\n    tag_26:\n        /* \"Documents/dev/Lime/contracts/Functions.sol\":195:199  uint */\n      0x00\n        /* \"Documents/dev/Lime/contracts/Functions.sol\":219:220  y */\n      dup2\n        /* \"Documents/dev/Lime/contracts/Functions.sol\":217:218  x */\n      dup4\n        /* \"Documents/dev/Lime/contracts/Functions.sol\":217:220  x+y */\n      tag_41\n      swap2\n      swap1\n      tag_42\n      jump\t// in\n    tag_41:\n        /* \"Documents/dev/Lime/contracts/Functions.sol\":210:220  return x+y */\n      swap1\n      pop\n        /* \"Documents/dev/Lime/contracts/Functions.sol\":145:227  function add(uint x,uint y) external pure returns(uint){... */\n      swap3\n      swap2\n      pop\n      pop\n      jump\t// out\n        /* \"Documents/dev/Lime/contracts/Functions.sol\":588:661  function viewFunc() external view returns (uint){... */\n    tag_29:\n        /* \"Documents/dev/Lime/contracts/Functions.sol\":631:635  uint */\n      0x00\n        /* \"Documents/dev/Lime/contracts/Functions.sol\":653:654  i */\n      dup1\n      sload\n        /* \"Documents/dev/Lime/contracts/Functions.sol\":646:654  return i */\n      swap1\n      pop\n        /* \"Documents/dev/Lime/contracts/Functions.sol\":588:661  function viewFunc() external view returns (uint){... */\n      swap1\n      jump\t// out\n        /* \"Documents/dev/Lime/contracts/Functions.sol\":233:316  function sub(uint x,uint y) external pure returns (uint){... */\n    tag_33:\n        /* \"Documents/dev/Lime/contracts/Functions.sol\":284:288  uint */\n      0x00\n        /* \"Documents/dev/Lime/contracts/Functions.sol\":308:309  y */\n      dup2\n        /* \"Documents/dev/Lime/contracts/Functions.sol\":306:307  x */\n      dup4\n        /* \"Documents/dev/Lime/contracts/Functions.sol\":306:309  x-y */\n      tag_45\n      swap2\n      swap1\n      tag_46\n      jump\t// in\n    tag_45:\n        /* \"Documents/dev/Lime/contracts/Functions.sol\":299:309  return x-y */\n      swap1\n      pop\n        /* \"Documents/dev/Lime/contracts/Functions.sol\":233:316  function sub(uint x,uint y) external pure returns (uint){... */\n      swap3\n      swap2\n      pop\n      pop\n      jump\t// out\n        /* \"Documents/dev/Lime/contracts/Functions.sol\":80:99  uint public i = 123 */\n    tag_36:\n      sload(0x00)\n      dup2\n      jump\t// out\n        /* \"#utility.yul\":7:146   */\n    tag_48:\n        /* \"#utility.yul\":53:58   */\n      0x00\n        /* \"#utility.yul\":91:97   */\n      dup2\n        /* \"#utility.yul\":78:98   */\n      calldataload\n        /* \"#utility.yul\":69:98   */\n      swap1\n      pop\n        /* \"#utility.yul\":107:140   */\n      tag_50\n        /* \"#utility.yul\":134:139   */\n      dup2\n        /* \"#utility.yul\":107:140   */\n      tag_51\n      jump\t// in\n    tag_50:\n        /* \"#utility.yul\":7:146   */\n      swap3\n      swap2\n      pop\n      pop\n      jump\t// out\n        /* \"#utility.yul\":152:626   */\n    tag_25:\n        /* \"#utility.yul\":220:226   */\n      0x00\n        /* \"#utility.yul\":228:234   */\n      dup1\n        /* \"#utility.yul\":277:279   */\n      0x40\n        /* \"#utility.yul\":265:274   */\n      dup4\n        /* \"#utility.yul\":256:263   */\n      dup6\n        /* \"#utility.yul\":252:275   */\n      sub\n        /* \"#utility.yul\":248:280   */\n      slt\n        /* \"#utility.yul\":245:364   */\n      iszero\n      tag_53\n      jumpi\n        /* \"#utility.yul\":283:362   */\n      tag_54\n      tag_55\n      jump\t// in\n    tag_54:\n        /* \"#utility.yul\":245:364   */\n    tag_53:\n        /* \"#utility.yul\":403:404   */\n      0x00\n        /* \"#utility.yul\":428:481   */\n      tag_56\n        /* \"#utility.yul\":473:480   */\n      dup6\n        /* \"#utility.yul\":464:470   */\n      dup3\n        /* \"#utility.yul\":453:462   */\n      dup7\n        /* \"#utility.yul\":449:471   */\n      add\n        /* \"#utility.yul\":428:481   */\n      tag_48\n      jump\t// in\n    tag_56:\n        /* \"#utility.yul\":418:481   */\n      swap3\n      pop\n        /* \"#utility.yul\":374:491   */\n      pop\n        /* \"#utility.yul\":530:532   */\n      0x20\n        /* \"#utility.yul\":556:609   */\n      tag_57\n        /* \"#utility.yul\":601:608   */\n      dup6\n        /* \"#utility.yul\":592:598   */\n      dup3\n        /* \"#utility.yul\":581:590   */\n      dup7\n        /* \"#utility.yul\":577:599   */\n      add\n        /* \"#utility.yul\":556:609   */\n      tag_48\n      jump\t// in\n    tag_57:\n        /* \"#utility.yul\":546:609   */\n      swap2\n      pop\n        /* \"#utility.yul\":501:619   */\n      pop\n        /* \"#utility.yul\":152:626   */\n      swap3\n      pop\n      swap3\n      swap1\n      pop\n      jump\t// out\n        /* \"#utility.yul\":632:750   */\n    tag_58:\n        /* \"#utility.yul\":719:743   */\n      tag_60\n        /* \"#utility.yul\":737:742   */\n      dup2\n        /* \"#utility.yul\":719:743   */\n      tag_61\n      jump\t// in\n    tag_60:\n        /* \"#utility.yul\":714:717   */\n      dup3\n        /* \"#utility.yul\":707:744   */\n      mstore\n        /* \"#utility.yul\":632:750   */\n      pop\n      pop\n      jump\t// out\n        /* \"#utility.yul\":756:874   */\n    tag_62:\n        /* \"#utility.yul\":843:867   */\n      tag_64\n        /* \"#utility.yul\":861:866   */\n      dup2\n        /* \"#utility.yul\":843:867   */\n      tag_65\n      jump\t// in\n    tag_64:\n        /* \"#utility.yul\":838:841   */\n      dup3\n        /* \"#utility.yul\":831:868   */\n      mstore\n        /* \"#utility.yul\":756:874   */\n      pop\n      pop\n      jump\t// out\n        /* \"#utility.yul\":880:1102   */\n    tag_22:\n        /* \"#utility.yul\":973:977   */\n      0x00\n        /* \"#utility.yul\":1011:1013   */\n      0x20\n        /* \"#utility.yul\":1000:1009   */\n      dup3\n        /* \"#utility.yul\":996:1014   */\n      add\n        /* \"#utility.yul\":988:1014   */\n      swap1\n      pop\n        /* \"#utility.yul\":1024:1095   */\n      tag_67\n        /* \"#utility.yul\":1092:1093   */\n      0x00\n        /* \"#utility.yul\":1081:1090   */\n      dup4\n        /* \"#utility.yul\":1077:1094   */\n      add\n        /* \"#utility.yul\":1068:1074   */\n      dup5\n        /* \"#utility.yul\":1024:1095   */\n      tag_58\n      jump\t// in\n    tag_67:\n        /* \"#utility.yul\":880:1102   */\n      swap3\n      swap2\n      pop\n      pop\n      jump\t// out\n        /* \"#utility.yul\":1108:1550   */\n    tag_14:\n        /* \"#utility.yul\":1257:1261   */\n      0x00\n        /* \"#utility.yul\":1295:1297   */\n      0x60\n        /* \"#utility.yul\":1284:1293   */\n      dup3\n        /* \"#utility.yul\":1280:1298   */\n      add\n        /* \"#utility.yul\":1272:1298   */\n      swap1\n      pop\n        /* \"#utility.yul\":1308:1379   */\n      tag_69\n        /* \"#utility.yul\":1376:1377   */\n      0x00\n        /* \"#utility.yul\":1365:1374   */\n      dup4\n        /* \"#utility.yul\":1361:1378   */\n      add\n        /* \"#utility.yul\":1352:1358   */\n      dup7\n        /* \"#utility.yul\":1308:1379   */\n      tag_58\n      jump\t// in\n    tag_69:\n        /* \"#utility.yul\":1389:1461   */\n      tag_70\n        /* \"#utility.yul\":1457:1459   */\n      0x20\n        /* \"#utility.yul\":1446:1455   */\n      dup4\n        /* \"#utility.yul\":1442:1460   */\n      add\n        /* \"#utility.yul\":1433:1439   */\n      dup6\n        /* \"#utility.yul\":1389:1461   */\n      tag_62\n      jump\t// in\n    tag_70:\n        /* \"#utility.yul\":1471:1543   */\n      tag_71\n        /* \"#utility.yul\":1539:1541   */\n      0x40\n        /* \"#utility.yul\":1528:1537   */\n      dup4\n        /* \"#utility.yul\":1524:1542   */\n      add\n        /* \"#utility.yul\":1515:1521   */\n      dup5\n        /* \"#utility.yul\":1471:1543   */\n      tag_62\n      jump\t// in\n    tag_71:\n        /* \"#utility.yul\":1108:1550   */\n      swap5\n      swap4\n      pop\n      pop\n      pop\n      pop\n      jump\t// out\n        /* \"#utility.yul\":1556:1778   */\n    tag_18:\n        /* \"#utility.yul\":1649:1653   */\n      0x00\n        /* \"#utility.yul\":1687:1689   */\n      0x20\n        /* \"#utility.yul\":1676:1685   */\n      dup3\n        /* \"#utility.yul\":1672:1690   */\n      add\n        /* \"#utility.yul\":1664:1690   */\n      swap1\n      pop\n        /* \"#utility.yul\":1700:1771   */\n      tag_73\n        /* \"#utility.yul\":1768:1769   */\n      0x00\n        /* \"#utility.yul\":1757:1766   */\n      dup4\n        /* \"#utility.yul\":1753:1770   */\n      add\n        /* \"#utility.yul\":1744:1750   */\n      dup5\n        /* \"#utility.yul\":1700:1771   */\n      tag_62\n      jump\t// in\n    tag_73:\n        /* \"#utility.yul\":1556:1778   */\n      swap3\n      swap2\n      pop\n      pop\n      jump\t// out\n        /* \"#utility.yul\":1865:2170   */\n    tag_42:\n        /* \"#utility.yul\":1905:1908   */\n      0x00\n        /* \"#utility.yul\":1924:1944   */\n      tag_77\n        /* \"#utility.yul\":1942:1943   */\n      dup3\n        /* \"#utility.yul\":1924:1944   */\n      tag_65\n      jump\t// in\n    tag_77:\n        /* \"#utility.yul\":1919:1944   */\n      swap2\n      pop\n        /* \"#utility.yul\":1958:1978   */\n      tag_78\n        /* \"#utility.yul\":1976:1977   */\n      dup4\n        /* \"#utility.yul\":1958:1978   */\n      tag_65\n      jump\t// in\n    tag_78:\n        /* \"#utility.yul\":1953:1978   */\n      swap3\n      pop\n        /* \"#utility.yul\":2112:2113   */\n      dup3\n        /* \"#utility.yul\":2044:2110   */\n      0xffffffffffffffffffffffffffffffffffffffffffffffffffffffffffffffff\n        /* \"#utility.yul\":2040:2114   */\n      sub\n        /* \"#utility.yul\":2037:2038   */\n      dup3\n        /* \"#utility.yul\":2034:2115   */\n      gt\n        /* \"#utility.yul\":2031:2138   */\n      iszero\n      tag_79\n      jumpi\n        /* \"#utility.yul\":2118:2136   */\n      tag_80\n      tag_81\n      jump\t// in\n    tag_80:\n        /* \"#utility.yul\":2031:2138   */\n    tag_79:\n        /* \"#utility.yul\":2162:2163   */\n      dup3\n        /* \"#utility.yul\":2159:2160   */\n      dup3\n        /* \"#utility.yul\":2155:2164   */\n      add\n        /* \"#utility.yul\":2148:2164   */\n      swap1\n      pop\n        /* \"#utility.yul\":1865:2170   */\n      swap3\n      swap2\n      pop\n      pop\n      jump\t// out\n        /* \"#utility.yul\":2176:2367   */\n    tag_46:\n        /* \"#utility.yul\":2216:2220   */\n      0x00\n        /* \"#utility.yul\":2236:2256   */\n      tag_83\n        /* \"#utility.yul\":2254:2255   */\n      dup3\n        /* \"#utility.yul\":2236:2256   */\n      tag_65\n      jump\t// in\n    tag_83:\n        /* \"#utility.yul\":2231:2256   */\n      swap2\n      pop\n        /* \"#utility.yul\":2270:2290   */\n      tag_84\n        /* \"#utility.yul\":2288:2289   */\n      dup4\n        /* \"#utility.yul\":2270:2290   */\n      tag_65\n      jump\t// in\n    tag_84:\n        /* \"#utility.yul\":2265:2290   */\n      swap3\n      pop\n        /* \"#utility.yul\":2309:2310   */\n      dup3\n        /* \"#utility.yul\":2306:2307   */\n      dup3\n        /* \"#utility.yul\":2303:2311   */\n      lt\n        /* \"#utility.yul\":2300:2334   */\n      iszero\n      tag_85\n      jumpi\n        /* \"#utility.yul\":2314:2332   */\n      tag_86\n      tag_81\n      jump\t// in\n    tag_86:\n        /* \"#utility.yul\":2300:2334   */\n    tag_85:\n        /* \"#utility.yul\":2359:2360   */\n      dup3\n        /* \"#utility.yul\":2356:2357   */\n      dup3\n        /* \"#utility.yul\":2352:2361   */\n      sub\n        /* \"#utility.yul\":2344:2361   */\n      swap1\n      pop\n        /* \"#utility.yul\":2176:2367   */\n      swap3\n      swap2\n      pop\n      pop\n      jump\t// out\n        /* \"#utility.yul\":2373:2469   */\n    tag_61:\n        /* \"#utility.yul\":2410:2417   */\n      0x00\n        /* \"#utility.yul\":2439:2463   */\n      tag_88\n        /* \"#utility.yul\":2457:2462   */\n      dup3\n        /* \"#utility.yul\":2439:2463   */\n      tag_89\n      jump\t// in\n    tag_88:\n        /* \"#utility.yul\":2428:2463   */\n      swap1\n      pop\n        /* \"#utility.yul\":2373:2469   */\n      swap2\n      swap1\n      pop\n      jump\t// out\n        /* \"#utility.yul\":2475:2601   */\n    tag_89:\n        /* \"#utility.yul\":2512:2519   */\n      0x00\n        /* \"#utility.yul\":2552:2594   */\n      0xffffffffffffffffffffffffffffffffffffffff\n        /* \"#utility.yul\":2545:2550   */\n      dup3\n        /* \"#utility.yul\":2541:2595   */\n      and\n        /* \"#utility.yul\":2530:2595   */\n      swap1\n      pop\n        /* \"#utility.yul\":2475:2601   */\n      swap2\n      swap1\n      pop\n      jump\t// out\n        /* \"#utility.yul\":2607:2684   */\n    tag_65:\n        /* \"#utility.yul\":2644:2651   */\n      0x00\n        /* \"#utility.yul\":2673:2678   */\n      dup2\n        /* \"#utility.yul\":2662:2678   */\n      swap1\n      pop\n        /* \"#utility.yul\":2607:2684   */\n      swap2\n      swap1\n      pop\n      jump\t// out\n        /* \"#utility.yul\":2690:2870   */\n    tag_81:\n        /* \"#utility.yul\":2738:2815   */\n      0x4e487b7100000000000000000000000000000000000000000000000000000000\n        /* \"#utility.yul\":2735:2736   */\n      0x00\n        /* \"#utility.yul\":2728:2816   */\n      mstore\n        /* \"#utility.yul\":2835:2839   */\n      0x11\n        /* \"#utility.yul\":2832:2833   */\n      0x04\n        /* \"#utility.yul\":2825:2840   */\n      mstore\n        /* \"#utility.yul\":2859:2863   */\n      0x24\n        /* \"#utility.yul\":2856:2857   */\n      0x00\n        /* \"#utility.yul\":2849:2864   */\n      revert\n        /* \"#utility.yul\":2999:3116   */\n    tag_55:\n        /* \"#utility.yul\":3108:3109   */\n      0x00\n        /* \"#utility.yul\":3105:3106   */\n      dup1\n        /* \"#utility.yul\":3098:3110   */\n      revert\n        /* \"#utility.yul\":3122:3244   */\n    tag_51:\n        /* \"#utility.yul\":3195:3219   */\n      tag_97\n        /* \"#utility.yul\":3213:3218   */\n      dup2\n        /* \"#utility.yul\":3195:3219   */\n      tag_65\n      jump\t// in\n    tag_97:\n        /* \"#utility.yul\":3188:3193   */\n      dup2\n        /* \"#utility.yul\":3185:3220   */\n      eq\n        /* \"#utility.yul\":3175:3238   */\n      tag_98\n      jumpi\n        /* \"#utility.yul\":3234:3235   */\n      0x00\n        /* \"#utility.yul\":3231:3232   */\n      dup1\n        /* \"#utility.yul\":3224:3236   */\n      revert\n        /* \"#utility.yul\":3175:3238   */\n    tag_98:\n        /* \"#utility.yul\":3122:3244   */\n      pop\n      jump\t// out\n\n    auxdata: 0xa264697066735822122035a055ae23afe5812e3a6ad097786e8a637a6c39cbf3fef67dc36a7f36fb467764736f6c63430008070033\n}\n",
				"bytecode": {
					"linkReferences": {},
					"object": "6080604052607b600055600a600160006101000a81548173ffffffffffffffffffffffffffffffffffffffff021916908373ffffffffffffffffffffffffffffffffffffffff16021790555034801561005757600080fd5b5061042f806100676000396000f3fe608060405234801561001057600080fd5b506004361061007d5760003560e01c8063771602f71161005b578063771602f7146100de5780637f2857b61461010e578063b67d77c51461012c578063e5aa3d581461015c5761007d565b80633bc5de301461008257806368e9a33c146100a2578063767800de146100c0575b600080fd5b61008a61017a565b60405161009993929190610296565b60405180910390f35b6100aa61019e565b6040516100b791906102cd565b60405180910390f35b6100c86101a7565b6040516100d5919061027b565b60405180910390f35b6100f860048036038101906100f3919061021d565b6101cd565b60405161010591906102cd565b60405180910390f35b6101166101e3565b60405161012391906102cd565b60405180910390f35b6101466004803603810190610141919061021d565b6101ec565b60405161015391906102cd565b60405180910390f35b610164610202565b60405161017191906102cd565b60405180910390f35b60008060008033905060004290506000439050828282955095509550505050909192565b60006001905090565b600160009054906101000a900473ffffffffffffffffffffffffffffffffffffffff1681565b600081836101db91906102e8565b905092915050565b60008054905090565b600081836101fa919061033e565b905092915050565b60005481565b600081359050610217816103e2565b92915050565b60008060408385031215610234576102336103dd565b5b600061024285828601610208565b925050602061025385828601610208565b9150509250929050565b61026681610372565b82525050565b610275816103a4565b82525050565b6000602082019050610290600083018461025d565b92915050565b60006060820190506102ab600083018661025d565b6102b8602083018561026c565b6102c5604083018461026c565b949350505050565b60006020820190506102e2600083018461026c565b92915050565b60006102f3826103a4565b91506102fe836103a4565b9250827fffffffffffffffffffffffffffffffffffffffffffffffffffffffffffffffff03821115610333576103326103ae565b5b828201905092915050565b6000610349826103a4565b9150610354836103a4565b925082821015610367576103666103ae565b5b828203905092915050565b600061037d82610384565b9050919050565b600073ffffffffffffffffffffffffffffffffffffffff82169050919050565b6000819050919050565b7f4e487b7100000000000000000000000000000000000000000000000000000000600052601160045260246000fd5b600080fd5b6103eb816103a4565b81146103f657600080fd5b5056fea264697066735822122035a055ae23afe5812e3a6ad097786e8a637a6c39cbf3fef67dc36a7f36fb467764736f6c63430008070033",
					"opcodes": "PUSH1 0x80 PUSH1 0x40 MSTORE PUSH1 0x7B PUSH1 0x0 SSTORE PUSH1 0xA PUSH1 0x1 PUSH1 0x0 PUSH2 0x100 EXP DUP2 SLOAD DUP2 PUSH20 0xFFFFFFFFFFFFFFFFFFFFFFFFFFFFFFFFFFFFFFFF MUL NOT AND SWAP1 DUP4 PUSH20 0xFFFFFFFFFFFFFFFFFFFFFFFFFFFFFFFFFFFFFFFF AND MUL OR SWAP1 SSTORE POP CALLVALUE DUP1 ISZERO PUSH2 0x57 JUMPI PUSH1 0x0 DUP1 REVERT JUMPDEST POP PUSH2 0x42F DUP1 PUSH2 0x67 PUSH1 0x0 CODECOPY PUSH1 0x0 RETURN INVALID PUSH1 0x80 PUSH1 0x40 MSTORE CALLVALUE DUP1 ISZERO PUSH2 0x10 JUMPI PUSH1 0x0 DUP1 REVERT JUMPDEST POP PUSH1 0x4 CALLDATASIZE LT PUSH2 0x7D JUMPI PUSH1 0x0 CALLDATALOAD PUSH1 0xE0 SHR DUP1 PUSH4 0x771602F7 GT PUSH2 0x5B JUMPI DUP1 PUSH4 0x771602F7 EQ PUSH2 0xDE JUMPI DUP1 PUSH4 0x7F2857B6 EQ PUSH2 0x10E JUMPI DUP1 PUSH4 0xB67D77C5 EQ PUSH2 0x12C JUMPI DUP1 PUSH4 0xE5AA3D58 EQ PUSH2 0x15C JUMPI PUSH2 0x7D JUMP JUMPDEST DUP1 PUSH4 0x3BC5DE30 EQ PUSH2 0x82 JUMPI DUP1 PUSH4 0x68E9A33C EQ PUSH2 0xA2 JUMPI DUP1 PUSH4 0x767800DE EQ PUSH2 0xC0 JUMPI JUMPDEST PUSH1 0x0 DUP1 REVERT JUMPDEST PUSH2 0x8A PUSH2 0x17A JUMP JUMPDEST PUSH1 0x40 MLOAD PUSH2 0x99 SWAP4 SWAP3 SWAP2 SWAP1 PUSH2 0x296 JUMP JUMPDEST PUSH1 0x40 MLOAD DUP1 SWAP2 SUB SWAP1 RETURN JUMPDEST PUSH2 0xAA PUSH2 0x19E JUMP JUMPDEST PUSH1 0x40 MLOAD PUSH2 0xB7 SWAP2 SWAP1 PUSH2 0x2CD JUMP JUMPDEST PUSH1 0x40 MLOAD DUP1 SWAP2 SUB SWAP1 RETURN JUMPDEST PUSH2 0xC8 PUSH2 0x1A7 JUMP JUMPDEST PUSH1 0x40 MLOAD PUSH2 0xD5 SWAP2 SWAP1 PUSH2 0x27B JUMP JUMPDEST PUSH1 0x40 MLOAD DUP1 SWAP2 SUB SWAP1 RETURN JUMPDEST PUSH2 0xF8 PUSH1 0x4 DUP1 CALLDATASIZE SUB DUP2 ADD SWAP1 PUSH2 0xF3 SWAP2 SWAP1 PUSH2 0x21D JUMP JUMPDEST PUSH2 0x1CD JUMP JUMPDEST PUSH1 0x40 MLOAD PUSH2 0x105 SWAP2 SWAP1 PUSH2 0x2CD JUMP JUMPDEST PUSH1 0x40 MLOAD DUP1 SWAP2 SUB SWAP1 RETURN JUMPDEST PUSH2 0x116 PUSH2 0x1E3 JUMP JUMPDEST PUSH1 0x40 MLOAD PUSH2 0x123 SWAP2 SWAP1 PUSH2 0x2CD JUMP JUMPDEST PUSH1 0x40 MLOAD DUP1 SWAP2 SUB SWAP1 RETURN JUMPDEST PUSH2 0x146 PUSH1 0x4 DUP1 CALLDATASIZE SUB DUP2 ADD SWAP1 PUSH2 0x141 SWAP2 SWAP1 PUSH2 0x21D JUMP JUMPDEST PUSH2 0x1EC JUMP JUMPDEST PUSH1 0x40 MLOAD PUSH2 0x153 SWAP2 SWAP1 PUSH2 0x2CD JUMP JUMPDEST PUSH1 0x40 MLOAD DUP1 SWAP2 SUB SWAP1 RETURN JUMPDEST PUSH2 0x164 PUSH2 0x202 JUMP JUMPDEST PUSH1 0x40 MLOAD PUSH2 0x171 SWAP2 SWAP1 PUSH2 0x2CD JUMP JUMPDEST PUSH1 0x40 MLOAD DUP1 SWAP2 SUB SWAP1 RETURN JUMPDEST PUSH1 0x0 DUP1 PUSH1 0x0 DUP1 CALLER SWAP1 POP PUSH1 0x0 TIMESTAMP SWAP1 POP PUSH1 0x0 NUMBER SWAP1 POP DUP3 DUP3 DUP3 SWAP6 POP SWAP6 POP SWAP6 POP POP POP POP SWAP1 SWAP2 SWAP3 JUMP JUMPDEST PUSH1 0x0 PUSH1 0x1 SWAP1 POP SWAP1 JUMP JUMPDEST PUSH1 0x1 PUSH1 0x0 SWAP1 SLOAD SWAP1 PUSH2 0x100 EXP SWAP1 DIV PUSH20 0xFFFFFFFFFFFFFFFFFFFFFFFFFFFFFFFFFFFFFFFF AND DUP2 JUMP JUMPDEST PUSH1 0x0 DUP2 DUP4 PUSH2 0x1DB SWAP2 SWAP1 PUSH2 0x2E8 JUMP JUMPDEST SWAP1 POP SWAP3 SWAP2 POP POP JUMP JUMPDEST PUSH1 0x0 DUP1 SLOAD SWAP1 POP SWAP1 JUMP JUMPDEST PUSH1 0x0 DUP2 DUP4 PUSH2 0x1FA SWAP2 SWAP1 PUSH2 0x33E JUMP JUMPDEST SWAP1 POP SWAP3 SWAP2 POP POP JUMP JUMPDEST PUSH1 0x0 SLOAD DUP2 JUMP JUMPDEST PUSH1 0x0 DUP2 CALLDATALOAD SWAP1 POP PUSH2 0x217 DUP2 PUSH2 0x3E2 JUMP JUMPDEST SWAP3 SWAP2 POP POP JUMP JUMPDEST PUSH1 0x0 DUP1 PUSH1 0x40 DUP4 DUP6 SUB SLT ISZERO PUSH2 0x234 JUMPI PUSH2 0x233 PUSH2 0x3DD JUMP JUMPDEST JUMPDEST PUSH1 0x0 PUSH2 0x242 DUP6 DUP3 DUP7 ADD PUSH2 0x208 JUMP JUMPDEST SWAP3 POP POP PUSH1 0x20 PUSH2 0x253 DUP6 DUP3 DUP7 ADD PUSH2 0x208 JUMP JUMPDEST SWAP2 POP POP SWAP3 POP SWAP3 SWAP1 POP JUMP JUMPDEST PUSH2 0x266 DUP2 PUSH2 0x372 JUMP JUMPDEST DUP3 MSTORE POP POP JUMP JUMPDEST PUSH2 0x275 DUP2 PUSH2 0x3A4 JUMP JUMPDEST DUP3 MSTORE POP POP JUMP JUMPDEST PUSH1 0x0 PUSH1 0x20 DUP3 ADD SWAP1 POP PUSH2 0x290 PUSH1 0x0 DUP4 ADD DUP5 PUSH2 0x25D JUMP JUMPDEST SWAP3 SWAP2 POP POP JUMP JUMPDEST PUSH1 0x0 PUSH1 0x60 DUP3 ADD SWAP1 POP PUSH2 0x2AB PUSH1 0x0 DUP4 ADD DUP7 PUSH2 0x25D JUMP JUMPDEST PUSH2 0x2B8 PUSH1 0x20 DUP4 ADD DUP6 PUSH2 0x26C JUMP JUMPDEST PUSH2 0x2C5 PUSH1 0x40 DUP4 ADD DUP5 PUSH2 0x26C JUMP JUMPDEST SWAP5 SWAP4 POP POP POP POP JUMP JUMPDEST PUSH1 0x0 PUSH1 0x20 DUP3 ADD SWAP1 POP PUSH2 0x2E2 PUSH1 0x0 DUP4 ADD DUP5 PUSH2 0x26C JUMP JUMPDEST SWAP3 SWAP2 POP POP JUMP JUMPDEST PUSH1 0x0 PUSH2 0x2F3 DUP3 PUSH2 0x3A4 JUMP JUMPDEST SWAP2 POP PUSH2 0x2FE DUP4 PUSH2 0x3A4 JUMP JUMPDEST SWAP3 POP DUP3 PUSH32 0xFFFFFFFFFFFFFFFFFFFFFFFFFFFFFFFFFFFFFFFFFFFFFFFFFFFFFFFFFFFFFFFF SUB DUP3 GT ISZERO PUSH2 0x333 JUMPI PUSH2 0x332 PUSH2 0x3AE JUMP JUMPDEST JUMPDEST DUP3 DUP3 ADD SWAP1 POP SWAP3 SWAP2 POP POP JUMP JUMPDEST PUSH1 0x0 PUSH2 0x349 DUP3 PUSH2 0x3A4 JUMP JUMPDEST SWAP2 POP PUSH2 0x354 DUP4 PUSH2 0x3A4 JUMP JUMPDEST SWAP3 POP DUP3 DUP3 LT ISZERO PUSH2 0x367 JUMPI PUSH2 0x366 PUSH2 0x3AE JUMP JUMPDEST JUMPDEST DUP3 DUP3 SUB SWAP1 POP SWAP3 SWAP2 POP POP JUMP JUMPDEST PUSH1 0x0 PUSH2 0x37D DUP3 PUSH2 0x384 JUMP JUMPDEST SWAP1 POP SWAP2 SWAP1 POP JUMP JUMPDEST PUSH1 0x0 PUSH20 0xFFFFFFFFFFFFFFFFFFFFFFFFFFFFFFFFFFFFFFFF DUP3 AND SWAP1 POP SWAP2 SWAP1 POP JUMP JUMPDEST PUSH1 0x0 DUP2 SWAP1 POP SWAP2 SWAP1 POP JUMP JUMPDEST PUSH32 0x4E487B7100000000000000000000000000000000000000000000000000000000 PUSH1 0x0 MSTORE PUSH1 0x11 PUSH1 0x4 MSTORE PUSH1 0x24 PUSH1 0x0 REVERT JUMPDEST PUSH1 0x0 DUP1 REVERT JUMPDEST PUSH2 0x3EB DUP2 PUSH2 0x3A4 JUMP JUMPDEST DUP2 EQ PUSH2 0x3F6 JUMPI PUSH1 0x0 DUP1 REVERT JUMPDEST POP JUMP INVALID LOG2 PUSH5 0x6970667358 0x22 SLT KECCAK256 CALLDATALOAD LOG0 SSTORE 0xAE 0x23 0xAF 0xE5 DUP2 0x2E GASPRICE PUSH11 0xD097786E8A637A6C39CBF3 INVALID 0xF6 PUSH30 0xC36A7F36FB467764736F6C63430008070033000000000000000000000000 "
				},
				"gasEstimates": {
					"creation": {
						"codeDepositCost": "214200",
						"executionCost": "46630",
						"totalCost": "260830"
					},
					"external": {
						"add(uint256,uint256)": "infinite",
						"addr()": "2559",
						"getData()": "infinite",
						"i()": "2495",
						"purFunction()": "360",
						"sub(uint256,uint256)": "infinite",
						"viewFunc()": "2459"
					}
				},
				"methodIdentifiers": {
					"add(uint256,uint256)": "771602f7",
					"addr()": "767800de",
					"getData()": "3bc5de30",
					"i()": "e5aa3d58",
					"purFunction()": "68e9a33c",
					"sub(uint256,uint256)": "b67d77c5",
					"viewFunc()": "7f2857b6"
				}
			},
			"storageLayout": {
				"storage": [
					{
						"astId": 4,
						"contract": "Documents/dev/Lime/contracts/Functions.sol:Functions",
						"label": "i",
						"offset": 0,
						"slot": "0",
						"type": "t_uint256"
					},
					{
						"astId": 10,
						"contract": "Documents/dev/Lime/contracts/Functions.sol:Functions",
						"label": "addr",
						"offset": 0,
						"slot": "1",
						"type": "t_address"
					}
				],
				"types": {
					"t_address": {
						"encoding": "inplace",
						"label": "address",
						"numberOfBytes": "20"
					},
					"t_uint256": {
						"encoding": "inplace",
						"label": "uint256",
						"numberOfBytes": "32"
					}
				}
			},
			"userdoc": {
				"kind": "user",
				"methods": {},
				"version": 1
			}
		}
	}
}