{
	"Documents/dev/Lime/contracts/Errors.sol": {
		"Errors": {
			"abi": [
				{
					"inputs": [],
					"name": "MyError",
					"type": "error"
				},
				{
					"inputs": [],
					"name": "foo",
					"outputs": [],
					"stateMutability": "nonpayable",
					"type": "function"
				},
				{
					"inputs": [],
					"name": "num",
					"outputs": [
						{
							"internalType": "uint256",
							"name": "",
							"type": "uint256"
						}
					],
					"stateMutability": "view",
					"type": "function"
				},
				{
					"inputs": [],
					"name": "testAssert",
					"outputs": [],
					"stateMutability": "view",
					"type": "function"
				},
				{
					"inputs": [
						{
							"internalType": "uint256",
							"name": "_i",
							"type": "uint256"
						}
					],
					"name": "testCustomError",
					"outputs": [],
					"stateMutability": "pure",
					"type": "function"
				},
				{
					"inputs": [
						{
							"internalType": "uint256",
							"name": "_i",
							"type": "uint256"
						}
					],
					"name": "testRequire",
					"outputs": [],
					"stateMutability": "pure",
					"type": "function"
				},
				{
					"inputs": [
						{
							"internalType": "uint256",
							"name": "_i",
							"type": "uint256"
						}
					],
					"name": "testRevert",
					"outputs": [],
					"stateMutability": "pure",
					"type": "function"
				}
			],
			"devdoc": {
				"kind": "dev",
				"methods": {},
				"version": 1
			},
			"evm": {
				"assembly": "    /* \"Documents/dev/Lime/contracts/Errors.sol\":56:654  contract Errors{... */\n  mstore(0x40, 0x80)\n    /* \"Documents/dev/Lime/contracts/Errors.sol\":384:387  123 */\n  0x7b\n    /* \"Documents/dev/Lime/contracts/Errors.sol\":367:387  uint public num =123 */\n  0x00\n  sstore\n    /* \"Documents/dev/Lime/contracts/Errors.sol\":56:654  contract Errors{... */\n  callvalue\n  dup1\n  iszero\n  tag_1\n  jumpi\n  0x00\n  dup1\n  revert\ntag_1:\n  pop\n  dataSize(sub_0)\n  dup1\n  dataOffset(sub_0)\n  0x00\n  codecopy\n  0x00\n  return\nstop\n\nsub_0: assembly {\n        /* \"Documents/dev/Lime/contracts/Errors.sol\":56:654  contract Errors{... */\n      mstore(0x40, 0x80)\n      callvalue\n      dup1\n      iszero\n      tag_1\n      jumpi\n      0x00\n      dup1\n      revert\n    tag_1:\n      pop\n      jumpi(tag_2, lt(calldatasize, 0x04))\n      shr(0xe0, calldataload(0x00))\n      dup1\n      0x20987767\n      eq\n      tag_3\n      jumpi\n      dup1\n      0x2b813bc0\n      eq\n      tag_4\n      jumpi\n      dup1\n      0x4e70b1dc\n      eq\n      tag_5\n      jumpi\n      dup1\n      0x75f7286c\n      eq\n      tag_6\n      jumpi\n      dup1\n      0xb8bd717f\n      eq\n      tag_7\n      jumpi\n      dup1\n      0xc2985578\n      eq\n      tag_8\n      jumpi\n    tag_2:\n      0x00\n      dup1\n      revert\n        /* \"Documents/dev/Lime/contracts/Errors.sol\":165:361  function testRevert(uint _i) external pure {... */\n    tag_3:\n      tag_9\n      0x04\n      dup1\n      calldatasize\n      sub\n      dup2\n      add\n      swap1\n      tag_10\n      swap2\n      swap1\n      tag_11\n      jump\t// in\n    tag_10:\n      tag_12\n      jump\t// in\n    tag_9:\n      stop\n        /* \"Documents/dev/Lime/contracts/Errors.sol\":393:460  function testAssert() public view {... */\n    tag_4:\n      tag_13\n      tag_14\n      jump\t// in\n    tag_13:\n      stop\n        /* \"Documents/dev/Lime/contracts/Errors.sol\":367:387  uint public num =123 */\n    tag_5:\n      tag_15\n      tag_16\n      jump\t// in\n    tag_15:\n      mload(0x40)\n      tag_17\n      swap2\n      swap1\n      tag_18\n      jump\t// in\n    tag_17:\n      mload(0x40)\n      dup1\n      swap2\n      sub\n      swap1\n      return\n        /* \"Documents/dev/Lime/contracts/Errors.sol\":537:652  function testCustomError(uint _i) external pure{... */\n    tag_6:\n      tag_19\n      0x04\n      dup1\n      calldatasize\n      sub\n      dup2\n      add\n      swap1\n      tag_20\n      swap2\n      swap1\n      tag_11\n      jump\t// in\n    tag_20:\n      tag_21\n      jump\t// in\n    tag_19:\n      stop\n        /* \"Documents/dev/Lime/contracts/Errors.sol\":77:160  function testRequire(uint _i) external pure {... */\n    tag_7:\n      tag_22\n      0x04\n      dup1\n      calldatasize\n      sub\n      dup2\n      add\n      swap1\n      tag_23\n      swap2\n      swap1\n      tag_11\n      jump\t// in\n    tag_23:\n      tag_24\n      jump\t// in\n    tag_22:\n      stop\n        /* \"Documents/dev/Lime/contracts/Errors.sol\":466:510  function foo() public{... */\n    tag_8:\n      tag_25\n      tag_26\n      jump\t// in\n    tag_25:\n      stop\n        /* \"Documents/dev/Lime/contracts/Errors.sol\":165:361  function testRevert(uint _i) external pure {... */\n    tag_12:\n        /* \"Documents/dev/Lime/contracts/Errors.sol\":225:226  1 */\n      0x01\n        /* \"Documents/dev/Lime/contracts/Errors.sol\":222:224  _i */\n      dup2\n        /* \"Documents/dev/Lime/contracts/Errors.sol\":222:226  _i>1 */\n      gt\n        /* \"Documents/dev/Lime/contracts/Errors.sol\":218:355  if( _i>1){... */\n      iszero\n      tag_28\n      jumpi\n        /* \"Documents/dev/Lime/contracts/Errors.sol\":247:248  5 */\n      0x05\n        /* \"Documents/dev/Lime/contracts/Errors.sol\":244:246  _i */\n      dup2\n        /* \"Documents/dev/Lime/contracts/Errors.sol\":244:248  _i>5 */\n      gt\n        /* \"Documents/dev/Lime/contracts/Errors.sol\":241:345  if(_i>5){... */\n      iszero\n      tag_29\n      jumpi\n        /* \"Documents/dev/Lime/contracts/Errors.sol\":273:275  10 */\n      0x0a\n        /* \"Documents/dev/Lime/contracts/Errors.sol\":270:272  _i */\n      dup2\n        /* \"Documents/dev/Lime/contracts/Errors.sol\":270:275  _i>10 */\n      gt\n        /* \"Documents/dev/Lime/contracts/Errors.sol\":267:331  if(_i>10){... */\n      iszero\n      tag_30\n      jumpi\n        /* \"Documents/dev/Lime/contracts/Errors.sol\":298:312  revert(\"i>10\") */\n      mload(0x40)\n      0x08c379a000000000000000000000000000000000000000000000000000000000\n      dup2\n      mstore\n      0x04\n      add\n      tag_31\n      swap1\n      tag_32\n      jump\t// in\n    tag_31:\n      mload(0x40)\n      dup1\n      swap2\n      sub\n      swap1\n      revert\n        /* \"Documents/dev/Lime/contracts/Errors.sol\":267:331  if(_i>10){... */\n    tag_30:\n        /* \"Documents/dev/Lime/contracts/Errors.sol\":241:345  if(_i>5){... */\n    tag_29:\n        /* \"Documents/dev/Lime/contracts/Errors.sol\":218:355  if( _i>1){... */\n    tag_28:\n        /* \"Documents/dev/Lime/contracts/Errors.sol\":165:361  function testRevert(uint _i) external pure {... */\n      pop\n      jump\t// out\n        /* \"Documents/dev/Lime/contracts/Errors.sol\":393:460  function testAssert() public view {... */\n    tag_14:\n        /* \"Documents/dev/Lime/contracts/Errors.sol\":449:452  123 */\n      0x7b\n        /* \"Documents/dev/Lime/contracts/Errors.sol\":444:447  num */\n      sload(0x00)\n        /* \"Documents/dev/Lime/contracts/Errors.sol\":444:452  num==123 */\n      eq\n        /* \"Documents/dev/Lime/contracts/Errors.sol\":437:453  assert(num==123) */\n      tag_34\n      jumpi\n      tag_35\n      tag_36\n      jump\t// in\n    tag_35:\n    tag_34:\n        /* \"Documents/dev/Lime/contracts/Errors.sol\":393:460  function testAssert() public view {... */\n      jump\t// out\n        /* \"Documents/dev/Lime/contracts/Errors.sol\":367:387  uint public num =123 */\n    tag_16:\n      sload(0x00)\n      dup2\n      jump\t// out\n        /* \"Documents/dev/Lime/contracts/Errors.sol\":537:652  function testCustomError(uint _i) external pure{... */\n    tag_21:\n        /* \"Documents/dev/Lime/contracts/Errors.sol\":602:604  10 */\n      0x0a\n        /* \"Documents/dev/Lime/contracts/Errors.sol\":598:600  _i */\n      dup2\n        /* \"Documents/dev/Lime/contracts/Errors.sol\":598:604  _i> 10 */\n      gt\n        /* \"Documents/dev/Lime/contracts/Errors.sol\":594:646  if( _i> 10){... */\n      iszero\n      tag_38\n      jumpi\n        /* \"Documents/dev/Lime/contracts/Errors.sol\":626:635  MyError() */\n      mload(0x40)\n      0xdd6c951c00000000000000000000000000000000000000000000000000000000\n      dup2\n      mstore\n      0x04\n      add\n      mload(0x40)\n      dup1\n      swap2\n      sub\n      swap1\n      revert\n        /* \"Documents/dev/Lime/contracts/Errors.sol\":594:646  if( _i> 10){... */\n    tag_38:\n        /* \"Documents/dev/Lime/contracts/Errors.sol\":537:652  function testCustomError(uint _i) external pure{... */\n      pop\n      jump\t// out\n        /* \"Documents/dev/Lime/contracts/Errors.sol\":77:160  function testRequire(uint _i) external pure {... */\n    tag_24:\n        /* \"Documents/dev/Lime/contracts/Errors.sol\":143:145  10 */\n      0x0a\n        /* \"Documents/dev/Lime/contracts/Errors.sol\":139:141  _i */\n      dup2\n        /* \"Documents/dev/Lime/contracts/Errors.sol\":139:145  _i<=10 */\n      gt\n      iszero\n        /* \"Documents/dev/Lime/contracts/Errors.sol\":131:153  require(_i<=10,\"i>10\") */\n      tag_40\n      jumpi\n      mload(0x40)\n      0x08c379a000000000000000000000000000000000000000000000000000000000\n      dup2\n      mstore\n      0x04\n      add\n      tag_41\n      swap1\n      tag_32\n      jump\t// in\n    tag_41:\n      mload(0x40)\n      dup1\n      swap2\n      sub\n      swap1\n      revert\n    tag_40:\n        /* \"Documents/dev/Lime/contracts/Errors.sol\":77:160  function testRequire(uint _i) external pure {... */\n      pop\n      jump\t// out\n        /* \"Documents/dev/Lime/contracts/Errors.sol\":466:510  function foo() public{... */\n    tag_26:\n        /* \"Documents/dev/Lime/contracts/Errors.sol\":502:503  1 */\n      0x01\n        /* \"Documents/dev/Lime/contracts/Errors.sol\":497:500  num */\n      0x00\n      dup1\n        /* \"Documents/dev/Lime/contracts/Errors.sol\":497:503  num+=1 */\n      dup3\n      dup3\n      sload\n      tag_43\n      swap2\n      swap1\n      tag_44\n      jump\t// in\n    tag_43:\n      swap3\n      pop\n      pop\n      dup2\n      swap1\n      sstore\n      pop\n        /* \"Documents/dev/Lime/contracts/Errors.sol\":466:510  function foo() public{... */\n      jump\t// out\n        /* \"#utility.yul\":7:146   */\n    tag_46:\n        /* \"#utility.yul\":53:58   */\n      0x00\n        /* \"#utility.yul\":91:97   */\n      dup2\n        /* \"#utility.yul\":78:98   */\n      calldataload\n        /* \"#utility.yul\":69:98   */\n      swap1\n      pop\n        /* \"#utility.yul\":107:140   */\n      tag_48\n        /* \"#utility.yul\":134:139   */\n      dup2\n        /* \"#utility.yul\":107:140   */\n      tag_49\n      jump\t// in\n    tag_48:\n        /* \"#utility.yul\":7:146   */\n      swap3\n      swap2\n      pop\n      pop\n      jump\t// out\n        /* \"#utility.yul\":152:481   */\n    tag_11:\n        /* \"#utility.yul\":211:217   */\n      0x00\n        /* \"#utility.yul\":260:262   */\n      0x20\n        /* \"#utility.yul\":248:257   */\n      dup3\n        /* \"#utility.yul\":239:246   */\n      dup5\n        /* \"#utility.yul\":235:258   */\n      sub\n        /* \"#utility.yul\":231:263   */\n      slt\n        /* \"#utility.yul\":228:347   */\n      iszero\n      tag_51\n      jumpi\n        /* \"#utility.yul\":266:345   */\n      tag_52\n      tag_53\n      jump\t// in\n    tag_52:\n        /* \"#utility.yul\":228:347   */\n    tag_51:\n        /* \"#utility.yul\":386:387   */\n      0x00\n        /* \"#utility.yul\":411:464   */\n      tag_54\n        /* \"#utility.yul\":456:463   */\n      dup5\n        /* \"#utility.yul\":447:453   */\n      dup3\n        /* \"#utility.yul\":436:445   */\n      dup6\n        /* \"#utility.yul\":432:454   */\n      add\n        /* \"#utility.yul\":411:464   */\n      tag_46\n      jump\t// in\n    tag_54:\n        /* \"#utility.yul\":401:464   */\n      swap2\n      pop\n        /* \"#utility.yul\":357:474   */\n      pop\n        /* \"#utility.yul\":152:481   */\n      swap3\n      swap2\n      pop\n      pop\n      jump\t// out\n        /* \"#utility.yul\":487:852   */\n    tag_55:\n        /* \"#utility.yul\":629:632   */\n      0x00\n        /* \"#utility.yul\":650:716   */\n      tag_57\n        /* \"#utility.yul\":714:715   */\n      0x04\n        /* \"#utility.yul\":709:712   */\n      dup4\n        /* \"#utility.yul\":650:716   */\n      tag_58\n      jump\t// in\n    tag_57:\n        /* \"#utility.yul\":643:716   */\n      swap2\n      pop\n        /* \"#utility.yul\":725:818   */\n      tag_59\n        /* \"#utility.yul\":814:817   */\n      dup3\n        /* \"#utility.yul\":725:818   */\n      tag_60\n      jump\t// in\n    tag_59:\n        /* \"#utility.yul\":843:845   */\n      0x20\n        /* \"#utility.yul\":838:841   */\n      dup3\n        /* \"#utility.yul\":834:846   */\n      add\n        /* \"#utility.yul\":827:846   */\n      swap1\n      pop\n        /* \"#utility.yul\":487:852   */\n      swap2\n      swap1\n      pop\n      jump\t// out\n        /* \"#utility.yul\":858:976   */\n    tag_61:\n        /* \"#utility.yul\":945:969   */\n      tag_63\n        /* \"#utility.yul\":963:968   */\n      dup2\n        /* \"#utility.yul\":945:969   */\n      tag_64\n      jump\t// in\n    tag_63:\n        /* \"#utility.yul\":940:943   */\n      dup3\n        /* \"#utility.yul\":933:970   */\n      mstore\n        /* \"#utility.yul\":858:976   */\n      pop\n      pop\n      jump\t// out\n        /* \"#utility.yul\":982:1401   */\n    tag_32:\n        /* \"#utility.yul\":1148:1152   */\n      0x00\n        /* \"#utility.yul\":1186:1188   */\n      0x20\n        /* \"#utility.yul\":1175:1184   */\n      dup3\n        /* \"#utility.yul\":1171:1189   */\n      add\n        /* \"#utility.yul\":1163:1189   */\n      swap1\n      pop\n        /* \"#utility.yul\":1235:1244   */\n      dup2\n        /* \"#utility.yul\":1229:1233   */\n      dup2\n        /* \"#utility.yul\":1225:1245   */\n      sub\n        /* \"#utility.yul\":1221:1222   */\n      0x00\n        /* \"#utility.yul\":1210:1219   */\n      dup4\n        /* \"#utility.yul\":1206:1223   */\n      add\n        /* \"#utility.yul\":1199:1246   */\n      mstore\n        /* \"#utility.yul\":1263:1394   */\n      tag_66\n        /* \"#utility.yul\":1389:1393   */\n      dup2\n        /* \"#utility.yul\":1263:1394   */\n      tag_55\n      jump\t// in\n    tag_66:\n        /* \"#utility.yul\":1255:1394   */\n      swap1\n      pop\n        /* \"#utility.yul\":982:1401   */\n      swap2\n      swap1\n      pop\n      jump\t// out\n        /* \"#utility.yul\":1407:1629   */\n    tag_18:\n        /* \"#utility.yul\":1500:1504   */\n      0x00\n        /* \"#utility.yul\":1538:1540   */\n      0x20\n        /* \"#utility.yul\":1527:1536   */\n      dup3\n        /* \"#utility.yul\":1523:1541   */\n      add\n        /* \"#utility.yul\":1515:1541   */\n      swap1\n      pop\n        /* \"#utility.yul\":1551:1622   */\n      tag_68\n        /* \"#utility.yul\":1619:1620   */\n      0x00\n        /* \"#utility.yul\":1608:1617   */\n      dup4\n        /* \"#utility.yul\":1604:1621   */\n      add\n        /* \"#utility.yul\":1595:1601   */\n      dup5\n        /* \"#utility.yul\":1551:1622   */\n      tag_61\n      jump\t// in\n    tag_68:\n        /* \"#utility.yul\":1407:1629   */\n      swap3\n      swap2\n      pop\n      pop\n      jump\t// out\n        /* \"#utility.yul\":1716:1885   */\n    tag_58:\n        /* \"#utility.yul\":1800:1811   */\n      0x00\n        /* \"#utility.yul\":1834:1840   */\n      dup3\n        /* \"#utility.yul\":1829:1832   */\n      dup3\n        /* \"#utility.yul\":1822:1841   */\n      mstore\n        /* \"#utility.yul\":1874:1878   */\n      0x20\n        /* \"#utility.yul\":1869:1872   */\n      dup3\n        /* \"#utility.yul\":1865:1879   */\n      add\n        /* \"#utility.yul\":1850:1879   */\n      swap1\n      pop\n        /* \"#utility.yul\":1716:1885   */\n      swap3\n      swap2\n      pop\n      pop\n      jump\t// out\n        /* \"#utility.yul\":1891:2196   */\n    tag_44:\n        /* \"#utility.yul\":1931:1934   */\n      0x00\n        /* \"#utility.yul\":1950:1970   */\n      tag_73\n        /* \"#utility.yul\":1968:1969   */\n      dup3\n        /* \"#utility.yul\":1950:1970   */\n      tag_64\n      jump\t// in\n    tag_73:\n        /* \"#utility.yul\":1945:1970   */\n      swap2\n      pop\n        /* \"#utility.yul\":1984:2004   */\n      tag_74\n        /* \"#utility.yul\":2002:2003   */\n      dup4\n        /* \"#utility.yul\":1984:2004   */\n      tag_64\n      jump\t// in\n    tag_74:\n        /* \"#utility.yul\":1979:2004   */\n      swap3\n      pop\n        /* \"#utility.yul\":2138:2139   */\n      dup3\n        /* \"#utility.yul\":2070:2136   */\n      0xffffffffffffffffffffffffffffffffffffffffffffffffffffffffffffffff\n        /* \"#utility.yul\":2066:2140   */\n      sub\n        /* \"#utility.yul\":2063:2064   */\n      dup3\n        /* \"#utility.yul\":2060:2141   */\n      gt\n        /* \"#utility.yul\":2057:2164   */\n      iszero\n      tag_75\n      jumpi\n        /* \"#utility.yul\":2144:2162   */\n      tag_76\n      tag_77\n      jump\t// in\n    tag_76:\n        /* \"#utility.yul\":2057:2164   */\n    tag_75:\n        /* \"#utility.yul\":2188:2189   */\n      dup3\n        /* \"#utility.yul\":2185:2186   */\n      dup3\n        /* \"#utility.yul\":2181:2190   */\n      add\n        /* \"#utility.yul\":2174:2190   */\n      swap1\n      pop\n        /* \"#utility.yul\":1891:2196   */\n      swap3\n      swap2\n      pop\n      pop\n      jump\t// out\n        /* \"#utility.yul\":2202:2279   */\n    tag_64:\n        /* \"#utility.yul\":2239:2246   */\n      0x00\n        /* \"#utility.yul\":2268:2273   */\n      dup2\n        /* \"#utility.yul\":2257:2273   */\n      swap1\n      pop\n        /* \"#utility.yul\":2202:2279   */\n      swap2\n      swap1\n      pop\n      jump\t// out\n        /* \"#utility.yul\":2285:2465   */\n    tag_36:\n        /* \"#utility.yul\":2333:2410   */\n      0x4e487b7100000000000000000000000000000000000000000000000000000000\n        /* \"#utility.yul\":2330:2331   */\n      0x00\n        /* \"#utility.yul\":2323:2411   */\n      mstore\n        /* \"#utility.yul\":2430:2434   */\n      0x01\n        /* \"#utility.yul\":2427:2428   */\n      0x04\n        /* \"#utility.yul\":2420:2435   */\n      mstore\n        /* \"#utility.yul\":2454:2458   */\n      0x24\n        /* \"#utility.yul\":2451:2452   */\n      0x00\n        /* \"#utility.yul\":2444:2459   */\n      revert\n        /* \"#utility.yul\":2471:2651   */\n    tag_77:\n        /* \"#utility.yul\":2519:2596   */\n      0x4e487b7100000000000000000000000000000000000000000000000000000000\n        /* \"#utility.yul\":2516:2517   */\n      0x00\n        /* \"#utility.yul\":2509:2597   */\n      mstore\n        /* \"#utility.yul\":2616:2620   */\n      0x11\n        /* \"#utility.yul\":2613:2614   */\n      0x04\n        /* \"#utility.yul\":2606:2621   */\n      mstore\n        /* \"#utility.yul\":2640:2644   */\n      0x24\n        /* \"#utility.yul\":2637:2638   */\n      0x00\n        /* \"#utility.yul\":2630:2645   */\n      revert\n        /* \"#utility.yul\":2780:2897   */\n    tag_53:\n        /* \"#utility.yul\":2889:2890   */\n      0x00\n        /* \"#utility.yul\":2886:2887   */\n      dup1\n        /* \"#utility.yul\":2879:2891   */\n      revert\n        /* \"#utility.yul\":2903:3057   */\n    tag_60:\n        /* \"#utility.yul\":3043:3049   */\n      0x693e313000000000000000000000000000000000000000000000000000000000\n        /* \"#utility.yul\":3039:3040   */\n      0x00\n        /* \"#utility.yul\":3031:3037   */\n      dup3\n        /* \"#utility.yul\":3027:3041   */\n      add\n        /* \"#utility.yul\":3020:3050   */\n      mstore\n        /* \"#utility.yul\":2903:3057   */\n      pop\n      jump\t// out\n        /* \"#utility.yul\":3063:3185   */\n    tag_49:\n        /* \"#utility.yul\":3136:3160   */\n      tag_86\n        /* \"#utility.yul\":3154:3159   */\n      dup2\n        /* \"#utility.yul\":3136:3160   */\n      tag_64\n      jump\t// in\n    tag_86:\n        /* \"#utility.yul\":3129:3134   */\n      dup2\n        /* \"#utility.yul\":3126:3161   */\n      eq\n        /* \"#utility.yul\":3116:3179   */\n      tag_87\n      jumpi\n        /* \"#utility.yul\":3175:3176   */\n      0x00\n        /* \"#utility.yul\":3172:3173   */\n      dup1\n        /* \"#utility.yul\":3165:3177   */\n      revert\n        /* \"#utility.yul\":3116:3179   */\n    tag_87:\n        /* \"#utility.yul\":3063:3185   */\n      pop\n      jump\t// out\n\n    auxdata: 0xa2646970667358221220e527cfc448202af533628950cf055a049828db799d0384e8b7394d9aaf171fa664736f6c63430008070033\n}\n",
				"bytecode": {
					"linkReferences": {},
					"object": "6080604052607b60005534801561001557600080fd5b506103fc806100256000396000f3fe608060405234801561001057600080fd5b50600436106100625760003560e01c806320987767146100675780632b813bc0146100835780634e70b1dc1461008d57806375f7286c146100ab578063b8bd717f146100c7578063c2985578146100e3575b600080fd5b610081600480360381019061007c9190610218565b6100ed565b005b61008b610148565b005b61009561015d565b6040516100a29190610297565b60405180910390f35b6100c560048036038101906100c09190610218565b610163565b005b6100e160048036038101906100dc9190610218565b6101a1565b005b6100eb6101e8565b005b600181111561014557600581111561014457600a811115610143576040517f08c379a000000000000000000000000000000000000000000000000000000000815260040161013a90610277565b60405180910390fd5b5b5b50565b607b6000541461015b5761015a610323565b5b565b60005481565b600a81111561019e576040517fdd6c951c00000000000000000000000000000000000000000000000000000000815260040160405180910390fd5b50565b600a8111156101e5576040517f08c379a00000000000000000000000000000000000000000000000000000000081526004016101dc90610277565b60405180910390fd5b50565b60016000808282546101fa91906102c3565b92505081905550565b600081359050610212816103af565b92915050565b60006020828403121561022e5761022d610381565b5b600061023c84828501610203565b91505092915050565b60006102526004836102b2565b915061025d82610386565b602082019050919050565b61027181610319565b82525050565b6000602082019050818103600083015261029081610245565b9050919050565b60006020820190506102ac6000830184610268565b92915050565b600082825260208201905092915050565b60006102ce82610319565b91506102d983610319565b9250827fffffffffffffffffffffffffffffffffffffffffffffffffffffffffffffffff0382111561030e5761030d610352565b5b828201905092915050565b6000819050919050565b7f4e487b7100000000000000000000000000000000000000000000000000000000600052600160045260246000fd5b7f4e487b7100000000000000000000000000000000000000000000000000000000600052601160045260246000fd5b600080fd5b7f693e313000000000000000000000000000000000000000000000000000000000600082015250565b6103b881610319565b81146103c357600080fd5b5056fea2646970667358221220e527cfc448202af533628950cf055a049828db799d0384e8b7394d9aaf171fa664736f6c63430008070033",
					"opcodes": "PUSH1 0x80 PUSH1 0x40 MSTORE PUSH1 0x7B PUSH1 0x0 SSTORE CALLVALUE DUP1 ISZERO PUSH2 0x15 JUMPI PUSH1 0x0 DUP1 REVERT JUMPDEST POP PUSH2 0x3FC DUP1 PUSH2 0x25 PUSH1 0x0 CODECOPY PUSH1 0x0 RETURN INVALID PUSH1 0x80 PUSH1 0x40 MSTORE CALLVALUE DUP1 ISZERO PUSH2 0x10 JUMPI PUSH1 0x0 DUP1 REVERT JUMPDEST POP PUSH1 0x4 CALLDATASIZE LT PUSH2 0x62 JUMPI PUSH1 0x0 CALLDATALOAD PUSH1 0xE0 SHR DUP1 PUSH4 0x20987767 EQ PUSH2 0x67 JUMPI DUP1 PUSH4 0x2B813BC0 EQ PUSH2 0x83 JUMPI DUP1 PUSH4 0x4E70B1DC EQ PUSH2 0x8D JUMPI DUP1 PUSH4 0x75F7286C EQ PUSH2 0xAB JUMPI DUP1 PUSH4 0xB8BD717F EQ PUSH2 0xC7 JUMPI DUP1 PUSH4 0xC2985578 EQ PUSH2 0xE3 JUMPI JUMPDEST PUSH1 0x0 DUP1 REVERT JUMPDEST PUSH2 0x81 PUSH1 0x4 DUP1 CALLDATASIZE SUB DUP2 ADD SWAP1 PUSH2 0x7C SWAP2 SWAP1 PUSH2 0x218 JUMP JUMPDEST PUSH2 0xED JUMP JUMPDEST STOP JUMPDEST PUSH2 0x8B PUSH2 0x148 JUMP JUMPDEST STOP JUMPDEST PUSH2 0x95 PUSH2 0x15D JUMP JUMPDEST PUSH1 0x40 MLOAD PUSH2 0xA2 SWAP2 SWAP1 PUSH2 0x297 JUMP JUMPDEST PUSH1 0x40 MLOAD DUP1 SWAP2 SUB SWAP1 RETURN JUMPDEST PUSH2 0xC5 PUSH1 0x4 DUP1 CALLDATASIZE SUB DUP2 ADD SWAP1 PUSH2 0xC0 SWAP2 SWAP1 PUSH2 0x218 JUMP JUMPDEST PUSH2 0x163 JUMP JUMPDEST STOP JUMPDEST PUSH2 0xE1 PUSH1 0x4 DUP1 CALLDATASIZE SUB DUP2 ADD SWAP1 PUSH2 0xDC SWAP2 SWAP1 PUSH2 0x218 JUMP JUMPDEST PUSH2 0x1A1 JUMP JUMPDEST STOP JUMPDEST PUSH2 0xEB PUSH2 0x1E8 JUMP JUMPDEST STOP JUMPDEST PUSH1 0x1 DUP2 GT ISZERO PUSH2 0x145 JUMPI PUSH1 0x5 DUP2 GT ISZERO PUSH2 0x144 JUMPI PUSH1 0xA DUP2 GT ISZERO PUSH2 0x143 JUMPI PUSH1 0x40 MLOAD PUSH32 0x8C379A000000000000000000000000000000000000000000000000000000000 DUP2 MSTORE PUSH1 0x4 ADD PUSH2 0x13A SWAP1 PUSH2 0x277 JUMP JUMPDEST PUSH1 0x40 MLOAD DUP1 SWAP2 SUB SWAP1 REVERT JUMPDEST JUMPDEST JUMPDEST POP JUMP JUMPDEST PUSH1 0x7B PUSH1 0x0 SLOAD EQ PUSH2 0x15B JUMPI PUSH2 0x15A PUSH2 0x323 JUMP JUMPDEST JUMPDEST JUMP JUMPDEST PUSH1 0x0 SLOAD DUP2 JUMP JUMPDEST PUSH1 0xA DUP2 GT ISZERO PUSH2 0x19E JUMPI PUSH1 0x40 MLOAD PUSH32 0xDD6C951C00000000000000000000000000000000000000000000000000000000 DUP2 MSTORE PUSH1 0x4 ADD PUSH1 0x40 MLOAD DUP1 SWAP2 SUB SWAP1 REVERT JUMPDEST POP JUMP JUMPDEST PUSH1 0xA DUP2 GT ISZERO PUSH2 0x1E5 JUMPI PUSH1 0x40 MLOAD PUSH32 0x8C379A000000000000000000000000000000000000000000000000000000000 DUP2 MSTORE PUSH1 0x4 ADD PUSH2 0x1DC SWAP1 PUSH2 0x277 JUMP JUMPDEST PUSH1 0x40 MLOAD DUP1 SWAP2 SUB SWAP1 REVERT JUMPDEST POP JUMP JUMPDEST PUSH1 0x1 PUSH1 0x0 DUP1 DUP3 DUP3 SLOAD PUSH2 0x1FA SWAP2 SWAP1 PUSH2 0x2C3 JUMP JUMPDEST SWAP3 POP POP DUP2 SWAP1 SSTORE POP JUMP JUMPDEST PUSH1 0x0 DUP2 CALLDATALOAD SWAP1 POP PUSH2 0x212 DUP2 PUSH2 0x3AF JUMP JUMPDEST SWAP3 SWAP2 POP POP JUMP JUMPDEST PUSH1 0x0 PUSH1 0x20 DUP3 DUP5 SUB SLT ISZERO PUSH2 0x22E JUMPI PUSH2 0x22D PUSH2 0x381 JUMP JUMPDEST JUMPDEST PUSH1 0x0 PUSH2 0x23C DUP5 DUP3 DUP6 ADD PUSH2 0x203 JUMP JUMPDEST SWAP2 POP POP SWAP3 SWAP2 POP POP JUMP JUMPDEST PUSH1 0x0 PUSH2 0x252 PUSH1 0x4 DUP4 PUSH2 0x2B2 JUMP JUMPDEST SWAP2 POP PUSH2 0x25D DUP3 PUSH2 0x386 JUMP JUMPDEST PUSH1 0x20 DUP3 ADD SWAP1 POP SWAP2 SWAP1 POP JUMP JUMPDEST PUSH2 0x271 DUP2 PUSH2 0x319 JUMP JUMPDEST DUP3 MSTORE POP POP JUMP JUMPDEST PUSH1 0x0 PUSH1 0x20 DUP3 ADD SWAP1 POP DUP2 DUP2 SUB PUSH1 0x0 DUP4 ADD MSTORE PUSH2 0x290 DUP2 PUSH2 0x245 JUMP JUMPDEST SWAP1 POP SWAP2 SWAP1 POP JUMP JUMPDEST PUSH1 0x0 PUSH1 0x20 DUP3 ADD SWAP1 POP PUSH2 0x2AC PUSH1 0x0 DUP4 ADD DUP5 PUSH2 0x268 JUMP JUMPDEST SWAP3 SWAP2 POP POP JUMP JUMPDEST PUSH1 0x0 DUP3 DUP3 MSTORE PUSH1 0x20 DUP3 ADD SWAP1 POP SWAP3 SWAP2 POP POP JUMP JUMPDEST PUSH1 0x0 PUSH2 0x2CE DUP3 PUSH2 0x319 JUMP JUMPDEST SWAP2 POP PUSH2 0x2D9 DUP4 PUSH2 0x319 JUMP JUMPDEST SWAP3 POP DUP3 PUSH32 0xFFFFFFFFFFFFFFFFFFFFFFFFFFFFFFFFFFFFFFFFFFFFFFFFFFFFFFFFFFFFFFFF SUB DUP3 GT ISZERO PUSH2 0x30E JUMPI PUSH2 0x30D PUSH2 0x352 JUMP JUMPDEST JUMPDEST DUP3 DUP3 ADD SWAP1 POP SWAP3 SWAP2 POP POP JUMP JUMPDEST PUSH1 0x0 DUP2 SWAP1 POP SWAP2 SWAP1 POP JUMP JUMPDEST PUSH32 0x4E487B7100000000000000000000000000000000000000000000000000000000 PUSH1 0x0 MSTORE PUSH1 0x1 PUSH1 0x4 MSTORE PUSH1 0x24 PUSH1 0x0 REVERT JUMPDEST PUSH32 0x4E487B7100000000000000000000000000000000000000000000000000000000 PUSH1 0x0 MSTORE PUSH1 0x11 PUSH1 0x4 MSTORE PUSH1 0x24 PUSH1 0x0 REVERT JUMPDEST PUSH1 0x0 DUP1 REVERT JUMPDEST PUSH32 0x693E313000000000000000000000000000000000000000000000000000000000 PUSH1 0x0 DUP3 ADD MSTORE POP JUMP JUMPDEST PUSH2 0x3B8 DUP2 PUSH2 0x319 JUMP JUMPDEST DUP2 EQ PUSH2 0x3C3 JUMPI PUSH1 0x0 DUP1 REVERT JUMPDEST POP JUMP INVALID LOG2 PUSH5 0x6970667358 0x22 SLT KECCAK256 0xE5 0x27 0xCF 0xC4 BASEFEE KECCAK256 0x2A CREATE2 CALLER PUSH3 0x8950CF SDIV GAS DIV SWAP9 0x28 0xDB PUSH26 0x9D0384E8B7394D9AAF171FA664736F6C63430008070033000000 "
				},
				"gasEstimates": {
					"creation": {
						"codeDepositCost": "204000",
						"executionCost": "22351",
						"totalCost": "226351"
					},
					"external": {
						"foo()": "infinite",
						"num()": "2451",
						"testAssert()": "2296",
						"testCustomError(uint256)": "509",
						"testRequire(uint256)": "785",
						"testRevert(uint256)": "747"
					}
				},
				"methodIdentifiers": {
					"foo()": "c2985578",
					"num()": "4e70b1dc",
					"testAssert()": "2b813bc0",
					"testCustomError(uint256)": "75f7286c",
					"testRequire(uint256)": "b8bd717f",
					"testRevert(uint256)": "20987767"
				}
			},
			"storageLayout": {
				"storage": [
					{
						"astId": 42,
						"contract": "Documents/dev/Lime/contracts/Errors.sol:Errors",
						"label": "num",
						"offset": 0,
						"slot": "0",
						"type": "t_uint256"
					}
				],
				"types": {
					"t_uint256": {
						"encoding": "inplace",
						"label": "uint256",
						"numberOfBytes": "32"
					}
				}
			},
			"userdoc": {
				"kind": "user",
				"methods": {},
				"version": 1
			}
		}
	}
}