{
	"Payable.sol": {
		"Payable": {
			"abi": [
				{
					"inputs": [],
					"stateMutability": "nonpayable",
					"type": "constructor"
				},
				{
					"inputs": [],
					"name": "deposit",
					"outputs": [],
					"stateMutability": "payable",
					"type": "function"
				},
				{
					"inputs": [],
					"name": "getBalance",
					"outputs": [
						{
							"internalType": "uint256",
							"name": "",
							"type": "uint256"
						}
					],
					"stateMutability": "view",
					"type": "function"
				},
				{
					"inputs": [],
					"name": "owner",
					"outputs": [
						{
							"internalType": "address payable",
							"name": "",
							"type": "address"
						}
					],
					"stateMutability": "view",
					"type": "function"
				}
			],
			"devdoc": {
				"kind": "dev",
				"methods": {},
				"version": 1
			},
			"evm": {
				"assembly": "    /* \"Payable.sol\":56:314  contract Payable{... */\n  mstore(0x40, 0x80)\n    /* \"Payable.sol\":112:169  constructor(){... */\n  callvalue\n  dup1\n  iszero\n  tag_1\n  jumpi\n  0x00\n  dup1\n  revert\ntag_1:\n  pop\n    /* \"Payable.sol\":151:161  msg.sender */\n  caller\n    /* \"Payable.sol\":135:140  owner */\n  0x00\n  dup1\n    /* \"Payable.sol\":135:162  owner = payable(msg.sender) */\n  0x0100\n  exp\n  dup2\n  sload\n  dup2\n  0xffffffffffffffffffffffffffffffffffffffff\n  mul\n  not\n  and\n  swap1\n  dup4\n  0xffffffffffffffffffffffffffffffffffffffff\n  and\n  mul\n  or\n  swap1\n  sstore\n  pop\n    /* \"Payable.sol\":56:314  contract Payable{... */\n  dataSize(sub_0)\n  dup1\n  dataOffset(sub_0)\n  0x00\n  codecopy\n  0x00\n  return\nstop\n\nsub_0: assembly {\n        /* \"Payable.sol\":56:314  contract Payable{... */\n      mstore(0x40, 0x80)\n      jumpi(tag_1, lt(calldatasize, 0x04))\n      shr(0xe0, calldataload(0x00))\n      dup1\n      0x12065fe0\n      eq\n      tag_2\n      jumpi\n      dup1\n      0x8da5cb5b\n      eq\n      tag_3\n      jumpi\n      dup1\n      0xd0e30db0\n      eq\n      tag_4\n      jumpi\n    tag_1:\n      0x00\n      dup1\n      revert\n        /* \"Payable.sol\":218:312  function getBalance() external view returns(uint){... */\n    tag_2:\n      callvalue\n      dup1\n      iszero\n      tag_5\n      jumpi\n      0x00\n      dup1\n      revert\n    tag_5:\n      pop\n      tag_6\n      tag_7\n      jump\t// in\n    tag_6:\n      mload(0x40)\n      tag_8\n      swap2\n      swap1\n      tag_9\n      jump\t// in\n    tag_8:\n      mload(0x40)\n      dup1\n      swap2\n      sub\n      swap1\n      return\n        /* \"Payable.sol\":78:106  address payable public owner */\n    tag_3:\n      callvalue\n      dup1\n      iszero\n      tag_10\n      jumpi\n      0x00\n      dup1\n      revert\n    tag_10:\n      pop\n      tag_11\n      tag_12\n      jump\t// in\n    tag_11:\n      mload(0x40)\n      tag_13\n      swap2\n      swap1\n      tag_14\n      jump\t// in\n    tag_13:\n      mload(0x40)\n      dup1\n      swap2\n      sub\n      swap1\n      return\n        /* \"Payable.sol\":175:212  function deposit() external payable{} */\n    tag_4:\n      tag_15\n      tag_16\n      jump\t// in\n    tag_15:\n      stop\n        /* \"Payable.sol\":218:312  function getBalance() external view returns(uint){... */\n    tag_7:\n        /* \"Payable.sol\":262:266  uint */\n      0x00\n        /* \"Payable.sol\":284:305  address(this).balance */\n      selfbalance\n        /* \"Payable.sol\":277:305  return address(this).balance */\n      swap1\n      pop\n        /* \"Payable.sol\":218:312  function getBalance() external view returns(uint){... */\n      swap1\n      jump\t// out\n        /* \"Payable.sol\":78:106  address payable public owner */\n    tag_12:\n      0x00\n      dup1\n      sload\n      swap1\n      0x0100\n      exp\n      swap1\n      div\n      0xffffffffffffffffffffffffffffffffffffffff\n      and\n      dup2\n      jump\t// out\n        /* \"Payable.sol\":175:212  function deposit() external payable{} */\n    tag_16:\n      jump\t// out\n        /* \"#utility.yul\":7:149   */\n    tag_20:\n        /* \"#utility.yul\":110:142   */\n      tag_22\n        /* \"#utility.yul\":136:141   */\n      dup2\n        /* \"#utility.yul\":110:142   */\n      tag_23\n      jump\t// in\n    tag_22:\n        /* \"#utility.yul\":105:108   */\n      dup3\n        /* \"#utility.yul\":98:143   */\n      mstore\n        /* \"#utility.yul\":7:149   */\n      pop\n      pop\n      jump\t// out\n        /* \"#utility.yul\":155:273   */\n    tag_24:\n        /* \"#utility.yul\":242:266   */\n      tag_26\n        /* \"#utility.yul\":260:265   */\n      dup2\n        /* \"#utility.yul\":242:266   */\n      tag_27\n      jump\t// in\n    tag_26:\n        /* \"#utility.yul\":237:240   */\n      dup3\n        /* \"#utility.yul\":230:267   */\n      mstore\n        /* \"#utility.yul\":155:273   */\n      pop\n      pop\n      jump\t// out\n        /* \"#utility.yul\":279:533   */\n    tag_14:\n        /* \"#utility.yul\":388:392   */\n      0x00\n        /* \"#utility.yul\":426:428   */\n      0x20\n        /* \"#utility.yul\":415:424   */\n      dup3\n        /* \"#utility.yul\":411:429   */\n      add\n        /* \"#utility.yul\":403:429   */\n      swap1\n      pop\n        /* \"#utility.yul\":439:526   */\n      tag_29\n        /* \"#utility.yul\":523:524   */\n      0x00\n        /* \"#utility.yul\":512:521   */\n      dup4\n        /* \"#utility.yul\":508:525   */\n      add\n        /* \"#utility.yul\":499:505   */\n      dup5\n        /* \"#utility.yul\":439:526   */\n      tag_20\n      jump\t// in\n    tag_29:\n        /* \"#utility.yul\":279:533   */\n      swap3\n      swap2\n      pop\n      pop\n      jump\t// out\n        /* \"#utility.yul\":539:761   */\n    tag_9:\n        /* \"#utility.yul\":632:636   */\n      0x00\n        /* \"#utility.yul\":670:672   */\n      0x20\n        /* \"#utility.yul\":659:668   */\n      dup3\n        /* \"#utility.yul\":655:673   */\n      add\n        /* \"#utility.yul\":647:673   */\n      swap1\n      pop\n        /* \"#utility.yul\":683:754   */\n      tag_31\n        /* \"#utility.yul\":751:752   */\n      0x00\n        /* \"#utility.yul\":740:749   */\n      dup4\n        /* \"#utility.yul\":736:753   */\n      add\n        /* \"#utility.yul\":727:733   */\n      dup5\n        /* \"#utility.yul\":683:754   */\n      tag_24\n      jump\t// in\n    tag_31:\n        /* \"#utility.yul\":539:761   */\n      swap3\n      swap2\n      pop\n      pop\n      jump\t// out\n        /* \"#utility.yul\":767:871   */\n    tag_23:\n        /* \"#utility.yul\":812:819   */\n      0x00\n        /* \"#utility.yul\":841:865   */\n      tag_33\n        /* \"#utility.yul\":859:864   */\n      dup3\n        /* \"#utility.yul\":841:865   */\n      tag_34\n      jump\t// in\n    tag_33:\n        /* \"#utility.yul\":830:865   */\n      swap1\n      pop\n        /* \"#utility.yul\":767:871   */\n      swap2\n      swap1\n      pop\n      jump\t// out\n        /* \"#utility.yul\":877:1003   */\n    tag_34:\n        /* \"#utility.yul\":914:921   */\n      0x00\n        /* \"#utility.yul\":954:996   */\n      0xffffffffffffffffffffffffffffffffffffffff\n        /* \"#utility.yul\":947:952   */\n      dup3\n        /* \"#utility.yul\":943:997   */\n      and\n        /* \"#utility.yul\":932:997   */\n      swap1\n      pop\n        /* \"#utility.yul\":877:1003   */\n      swap2\n      swap1\n      pop\n      jump\t// out\n        /* \"#utility.yul\":1009:1086   */\n    tag_27:\n        /* \"#utility.yul\":1046:1053   */\n      0x00\n        /* \"#utility.yul\":1075:1080   */\n      dup2\n        /* \"#utility.yul\":1064:1080   */\n      swap1\n      pop\n        /* \"#utility.yul\":1009:1086   */\n      swap2\n      swap1\n      pop\n      jump\t// out\n\n    auxdata: 0xa2646970667358221220054b2f365cc426b5c9f5ebcc507e4a0107dfc1029cb3687470fd4b9e5ca565c064736f6c63430008070033\n}\n",
				"bytecode": {
					"linkReferences": {},
					"object": "608060405234801561001057600080fd5b50336000806101000a81548173ffffffffffffffffffffffffffffffffffffffff021916908373ffffffffffffffffffffffffffffffffffffffff16021790555061018d806100606000396000f3fe6080604052600436106100345760003560e01c806312065fe0146100395780638da5cb5b14610064578063d0e30db01461008f575b600080fd5b34801561004557600080fd5b5061004e610099565b60405161005b9190610100565b60405180910390f35b34801561007057600080fd5b506100796100a1565b60405161008691906100e5565b60405180910390f35b6100976100c5565b005b600047905090565b60008054906101000a900473ffffffffffffffffffffffffffffffffffffffff1681565b565b6100d08161011b565b82525050565b6100df8161014d565b82525050565b60006020820190506100fa60008301846100c7565b92915050565b600060208201905061011560008301846100d6565b92915050565b60006101268261012d565b9050919050565b600073ffffffffffffffffffffffffffffffffffffffff82169050919050565b600081905091905056fea2646970667358221220054b2f365cc426b5c9f5ebcc507e4a0107dfc1029cb3687470fd4b9e5ca565c064736f6c63430008070033",
					"opcodes": "PUSH1 0x80 PUSH1 0x40 MSTORE CALLVALUE DUP1 ISZERO PUSH2 0x10 JUMPI PUSH1 0x0 DUP1 REVERT JUMPDEST POP CALLER PUSH1 0x0 DUP1 PUSH2 0x100 EXP DUP2 SLOAD DUP2 PUSH20 0xFFFFFFFFFFFFFFFFFFFFFFFFFFFFFFFFFFFFFFFF MUL NOT AND SWAP1 DUP4 PUSH20 0xFFFFFFFFFFFFFFFFFFFFFFFFFFFFFFFFFFFFFFFF AND MUL OR SWAP1 SSTORE POP PUSH2 0x18D DUP1 PUSH2 0x60 PUSH1 0x0 CODECOPY PUSH1 0x0 RETURN INVALID PUSH1 0x80 PUSH1 0x40 MSTORE PUSH1 0x4 CALLDATASIZE LT PUSH2 0x34 JUMPI PUSH1 0x0 CALLDATALOAD PUSH1 0xE0 SHR DUP1 PUSH4 0x12065FE0 EQ PUSH2 0x39 JUMPI DUP1 PUSH4 0x8DA5CB5B EQ PUSH2 0x64 JUMPI DUP1 PUSH4 0xD0E30DB0 EQ PUSH2 0x8F JUMPI JUMPDEST PUSH1 0x0 DUP1 REVERT JUMPDEST CALLVALUE DUP1 ISZERO PUSH2 0x45 JUMPI PUSH1 0x0 DUP1 REVERT JUMPDEST POP PUSH2 0x4E PUSH2 0x99 JUMP JUMPDEST PUSH1 0x40 MLOAD PUSH2 0x5B SWAP2 SWAP1 PUSH2 0x100 JUMP JUMPDEST PUSH1 0x40 MLOAD DUP1 SWAP2 SUB SWAP1 RETURN JUMPDEST CALLVALUE DUP1 ISZERO PUSH2 0x70 JUMPI PUSH1 0x0 DUP1 REVERT JUMPDEST POP PUSH2 0x79 PUSH2 0xA1 JUMP JUMPDEST PUSH1 0x40 MLOAD PUSH2 0x86 SWAP2 SWAP1 PUSH2 0xE5 JUMP JUMPDEST PUSH1 0x40 MLOAD DUP1 SWAP2 SUB SWAP1 RETURN JUMPDEST PUSH2 0x97 PUSH2 0xC5 JUMP JUMPDEST STOP JUMPDEST PUSH1 0x0 SELFBALANCE SWAP1 POP SWAP1 JUMP JUMPDEST PUSH1 0x0 DUP1 SLOAD SWAP1 PUSH2 0x100 EXP SWAP1 DIV PUSH20 0xFFFFFFFFFFFFFFFFFFFFFFFFFFFFFFFFFFFFFFFF AND DUP2 JUMP JUMPDEST JUMP JUMPDEST PUSH2 0xD0 DUP2 PUSH2 0x11B JUMP JUMPDEST DUP3 MSTORE POP POP JUMP JUMPDEST PUSH2 0xDF DUP2 PUSH2 0x14D JUMP JUMPDEST DUP3 MSTORE POP POP JUMP JUMPDEST PUSH1 0x0 PUSH1 0x20 DUP3 ADD SWAP1 POP PUSH2 0xFA PUSH1 0x0 DUP4 ADD DUP5 PUSH2 0xC7 JUMP JUMPDEST SWAP3 SWAP2 POP POP JUMP JUMPDEST PUSH1 0x0 PUSH1 0x20 DUP3 ADD SWAP1 POP PUSH2 0x115 PUSH1 0x0 DUP4 ADD DUP5 PUSH2 0xD6 JUMP JUMPDEST SWAP3 SWAP2 POP POP JUMP JUMPDEST PUSH1 0x0 PUSH2 0x126 DUP3 PUSH2 0x12D JUMP JUMPDEST SWAP1 POP SWAP2 SWAP1 POP JUMP JUMPDEST PUSH1 0x0 PUSH20 0xFFFFFFFFFFFFFFFFFFFFFFFFFFFFFFFFFFFFFFFF DUP3 AND SWAP1 POP SWAP2 SWAP1 POP JUMP JUMPDEST PUSH1 0x0 DUP2 SWAP1 POP SWAP2 SWAP1 POP JUMP INVALID LOG2 PUSH5 0x6970667358 0x22 SLT KECCAK256 SDIV 0x4B 0x2F CALLDATASIZE 0x5C 0xC4 0x26 0xB5 0xC9 CREATE2 0xEB 0xCC POP PUSH31 0x4A0107DFC1029CB3687470FD4B9E5CA565C064736F6C634300080700330000 "
				},
				"gasEstimates": {
					"creation": {
						"codeDepositCost": "79400",
						"executionCost": "24395",
						"totalCost": "103795"
					},
					"external": {
						"deposit()": "142",
						"getBalance()": "317",
						"owner()": "2511"
					}
				},
				"methodIdentifiers": {
					"deposit()": "d0e30db0",
					"getBalance()": "12065fe0",
					"owner()": "8da5cb5b"
				}
			},
			"storageLayout": {
				"storage": [
					{
						"astId": 3,
						"contract": "Payable.sol:Payable",
						"label": "owner",
						"offset": 0,
						"slot": "0",
						"type": "t_address_payable"
					}
				],
				"types": {
					"t_address_payable": {
						"encoding": "inplace",
						"label": "address payable",
						"numberOfBytes": "20"
					}
				}
			},
			"userdoc": {
				"kind": "user",
				"methods": {},
				"version": 1
			}
		}
	}
}