{
	"Call.sol": {
		"CallTest": {
			"abi": [
				{
					"inputs": [],
					"stateMutability": "payable",
					"type": "constructor"
				},
				{
					"anonymous": false,
					"inputs": [
						{
							"indexed": false,
							"internalType": "uint256",
							"name": "a",
							"type": "uint256"
						}
					],
					"name": "Log",
					"type": "event"
				},
				{
					"inputs": [
						{
							"internalType": "address",
							"name": "c",
							"type": "address"
						}
					],
					"name": "getX",
					"outputs": [
						{
							"internalType": "uint256",
							"name": "",
							"type": "uint256"
						}
					],
					"stateMutability": "nonpayable",
					"type": "function"
				},
				{
					"inputs": [
						{
							"internalType": "address",
							"name": "c",
							"type": "address"
						}
					],
					"name": "notExisting",
					"outputs": [],
					"stateMutability": "nonpayable",
					"type": "function"
				},
				{
					"inputs": [
						{
							"internalType": "address",
							"name": "c",
							"type": "address"
						},
						{
							"internalType": "uint256",
							"name": "_x",
							"type": "uint256"
						}
					],
					"name": "setX",
					"outputs": [],
					"stateMutability": "nonpayable",
					"type": "function"
				}
			],
			"devdoc": {
				"kind": "dev",
				"methods": {},
				"version": 1
			},
			"evm": {
				"assembly": "    /* \"Call.sol\":229:951  contract CallTest{... */\n  mstore(0x40, 0x80)\n  dataSize(sub_0)\n  dup1\n  dataOffset(sub_0)\n  0x00\n  codecopy\n  0x00\n  return\nstop\n\nsub_0: assembly {\n        /* \"Call.sol\":229:951  contract CallTest{... */\n      mstore(0x40, 0x80)\n      callvalue\n      dup1\n      iszero\n      tag_1\n      jumpi\n      0x00\n      dup1\n      revert\n    tag_1:\n      pop\n      jumpi(tag_2, lt(calldatasize, 0x04))\n      shr(0xe0, calldataload(0x00))\n      dup1\n      0x0895119b\n      eq\n      tag_3\n      jumpi\n      dup1\n      0x4a2ad99f\n      eq\n      tag_4\n      jumpi\n      dup1\n      0x7c94c8ca\n      eq\n      tag_5\n      jumpi\n    tag_2:\n      0x00\n      dup1\n      revert\n        /* \"Call.sol\":787:949  function notExisting(address c) external {... */\n    tag_3:\n      tag_6\n      0x04\n      dup1\n      calldatasize\n      sub\n      dup2\n      add\n      swap1\n      tag_7\n      swap2\n      swap1\n      tag_8\n      jump\t// in\n    tag_7:\n      tag_9\n      jump\t// in\n    tag_6:\n      stop\n        /* \"Call.sol\":622:781  function setX(address c,uint _x) external{... */\n    tag_4:\n      tag_10\n      0x04\n      dup1\n      calldatasize\n      sub\n      dup2\n      add\n      swap1\n      tag_11\n      swap2\n      swap1\n      tag_12\n      jump\t// in\n    tag_11:\n      tag_13\n      jump\t// in\n    tag_10:\n      stop\n        /* \"Call.sol\":303:615  function getX(address c) external returns(uint){... */\n    tag_5:\n      tag_14\n      0x04\n      dup1\n      calldatasize\n      sub\n      dup2\n      add\n      swap1\n      tag_15\n      swap2\n      swap1\n      tag_8\n      jump\t// in\n    tag_15:\n      tag_16\n      jump\t// in\n    tag_14:\n      mload(0x40)\n      tag_17\n      swap2\n      swap1\n      tag_18\n      jump\t// in\n    tag_17:\n      mload(0x40)\n      dup1\n      swap2\n      sub\n      swap1\n      return\n        /* \"Call.sol\":787:949  function notExisting(address c) external {... */\n    tag_9:\n        /* \"Call.sol\":839:851  bool success */\n      0x00\n        /* \"Call.sol\":857:858  c */\n      dup2\n        /* \"Call.sol\":857:863  c.call */\n      0xffffffffffffffffffffffffffffffffffffffff\n      and\n        /* \"Call.sol\":902:905  123 */\n      0x7b\n        /* \"Call.sol\":864:906  abi.encodeWithSignature(\"something()\",123) */\n      add(0x24, mload(0x40))\n      tag_20\n      swap2\n      swap1\n      tag_21\n      jump\t// in\n    tag_20:\n      mload(0x40)\n      0x20\n      dup2\n      dup4\n      sub\n      sub\n      dup2\n      mstore\n      swap1\n      0x40\n      mstore\n      and(not(0xffffffffffffffffffffffffffffffffffffffffffffffffffffffff), 0xa7a0d53700000000000000000000000000000000000000000000000000000000)\n      0x20\n      dup3\n      add\n      dup1\n      mload\n      0xffffffffffffffffffffffffffffffffffffffffffffffffffffffff\n      dup4\n      dup2\n      dup4\n      and\n      or\n      dup4\n      mstore\n      pop\n      pop\n      pop\n      pop\n        /* \"Call.sol\":857:907  c.call(abi.encodeWithSignature(\"something()\",123)) */\n      mload(0x40)\n      tag_22\n      swap2\n      swap1\n      tag_23\n      jump\t// in\n    tag_22:\n      0x00\n      mload(0x40)\n      dup1\n      dup4\n      sub\n      dup2\n      0x00\n      dup7\n      gas\n      call\n      swap2\n      pop\n      pop\n      returndatasize\n      dup1\n      0x00\n      dup2\n      eq\n      tag_26\n      jumpi\n      mload(0x40)\n      swap2\n      pop\n      and(add(returndatasize, 0x3f), not(0x1f))\n      dup3\n      add\n      0x40\n      mstore\n      returndatasize\n      dup3\n      mstore\n      returndatasize\n      0x00\n      0x20\n      dup5\n      add\n      returndatacopy\n      jump(tag_25)\n    tag_26:\n      0x60\n      swap2\n      pop\n    tag_25:\n      pop\n        /* \"Call.sol\":838:907  (bool success,)  = c.call(abi.encodeWithSignature(\"something()\",123)) */\n      pop\n      swap1\n      pop\n        /* \"Call.sol\":925:932  success */\n      dup1\n        /* \"Call.sol\":917:942  require(success,\"Failed\") */\n      tag_27\n      jumpi\n      mload(0x40)\n      0x08c379a000000000000000000000000000000000000000000000000000000000\n      dup2\n      mstore\n      0x04\n      add\n      tag_28\n      swap1\n      tag_29\n      jump\t// in\n    tag_28:\n      mload(0x40)\n      dup1\n      swap2\n      sub\n      swap1\n      revert\n    tag_27:\n        /* \"Call.sol\":828:949  {... */\n      pop\n        /* \"Call.sol\":787:949  function notExisting(address c) external {... */\n      pop\n      jump\t// out\n        /* \"Call.sol\":622:781  function setX(address c,uint _x) external{... */\n    tag_13:\n        /* \"Call.sol\":674:686  bool success */\n      0x00\n        /* \"Call.sol\":691:692  c */\n      dup3\n        /* \"Call.sol\":691:697  c.call */\n      0xffffffffffffffffffffffffffffffffffffffff\n      and\n        /* \"Call.sol\":738:740  _x */\n      dup3\n        /* \"Call.sol\":698:741  abi.encodeWithSignature(\"setX(uint256)\",_x) */\n      add(0x24, mload(0x40))\n      tag_31\n      swap2\n      swap1\n      tag_18\n      jump\t// in\n    tag_31:\n      mload(0x40)\n      0x20\n      dup2\n      dup4\n      sub\n      sub\n      dup2\n      mstore\n      swap1\n      0x40\n      mstore\n      and(not(0xffffffffffffffffffffffffffffffffffffffffffffffffffffffff), 0x4018d9aa00000000000000000000000000000000000000000000000000000000)\n      0x20\n      dup3\n      add\n      dup1\n      mload\n      0xffffffffffffffffffffffffffffffffffffffffffffffffffffffff\n      dup4\n      dup2\n      dup4\n      and\n      or\n      dup4\n      mstore\n      pop\n      pop\n      pop\n      pop\n        /* \"Call.sol\":691:742  c.call(abi.encodeWithSignature(\"setX(uint256)\",_x)) */\n      mload(0x40)\n      tag_32\n      swap2\n      swap1\n      tag_23\n      jump\t// in\n    tag_32:\n      0x00\n      mload(0x40)\n      dup1\n      dup4\n      sub\n      dup2\n      0x00\n      dup7\n      gas\n      call\n      swap2\n      pop\n      pop\n      returndatasize\n      dup1\n      0x00\n      dup2\n      eq\n      tag_35\n      jumpi\n      mload(0x40)\n      swap2\n      pop\n      and(add(returndatasize, 0x3f), not(0x1f))\n      dup3\n      add\n      0x40\n      mstore\n      returndatasize\n      dup3\n      mstore\n      returndatasize\n      0x00\n      0x20\n      dup5\n      add\n      returndatacopy\n      jump(tag_34)\n    tag_35:\n      0x60\n      swap2\n      pop\n    tag_34:\n      pop\n        /* \"Call.sol\":673:742  (bool success,) = c.call(abi.encodeWithSignature(\"setX(uint256)\",_x)) */\n      pop\n      swap1\n      pop\n        /* \"Call.sol\":760:767  success */\n      dup1\n        /* \"Call.sol\":752:774  require(success,\"ASD\") */\n      tag_36\n      jumpi\n      mload(0x40)\n      0x08c379a000000000000000000000000000000000000000000000000000000000\n      dup2\n      mstore\n      0x04\n      add\n      tag_37\n      swap1\n      tag_38\n      jump\t// in\n    tag_37:\n      mload(0x40)\n      dup1\n      swap2\n      sub\n      swap1\n      revert\n    tag_36:\n        /* \"Call.sol\":663:781  {... */\n      pop\n        /* \"Call.sol\":622:781  function setX(address c,uint _x) external{... */\n      pop\n      pop\n      jump\t// out\n        /* \"Call.sol\":303:615  function getX(address c) external returns(uint){... */\n    tag_16:\n        /* \"Call.sol\":345:349  uint */\n      0x00\n        /* \"Call.sol\":361:373  bool success */\n      dup1\n        /* \"Call.sol\":375:392  bytes memory data */\n      0x00\n        /* \"Call.sol\":397:398  c */\n      dup4\n        /* \"Call.sol\":397:403  c.call */\n      0xffffffffffffffffffffffffffffffffffffffff\n      and\n        /* \"Call.sol\":410:413  111 */\n      0x6f\n        /* \"Call.sol\":415:448  abi.encodeWithSignature(\"getX()\") */\n      add(0x24, mload(0x40))\n      mload(0x40)\n      0x20\n      dup2\n      dup4\n      sub\n      sub\n      dup2\n      mstore\n      swap1\n      0x40\n      mstore\n      and(not(0xffffffffffffffffffffffffffffffffffffffffffffffffffffffff), 0x5197c7aa00000000000000000000000000000000000000000000000000000000)\n      0x20\n      dup3\n      add\n      dup1\n      mload\n      0xffffffffffffffffffffffffffffffffffffffffffffffffffffffff\n      dup4\n      dup2\n      dup4\n      and\n      or\n      dup4\n      mstore\n      pop\n      pop\n      pop\n      pop\n        /* \"Call.sol\":397:449  c.call{value:111}(abi.encodeWithSignature(\"getX()\")) */\n      mload(0x40)\n      tag_40\n      swap2\n      swap1\n      tag_23\n      jump\t// in\n    tag_40:\n      0x00\n      mload(0x40)\n      dup1\n      dup4\n      sub\n      dup2\n      dup6\n      dup8\n      gas\n      call\n      swap3\n      pop\n      pop\n      pop\n      returndatasize\n      dup1\n      0x00\n      dup2\n      eq\n      tag_43\n      jumpi\n      mload(0x40)\n      swap2\n      pop\n      and(add(returndatasize, 0x3f), not(0x1f))\n      dup3\n      add\n      0x40\n      mstore\n      returndatasize\n      dup3\n      mstore\n      returndatasize\n      0x00\n      0x20\n      dup5\n      add\n      returndatacopy\n      jump(tag_42)\n    tag_43:\n      0x60\n      swap2\n      pop\n    tag_42:\n      pop\n        /* \"Call.sol\":360:449  (bool success, bytes memory data ) = c.call{value:111}(abi.encodeWithSignature(\"getX()\")) */\n      swap2\n      pop\n      swap2\n      pop\n        /* \"Call.sol\":467:474  success */\n      dup2\n        /* \"Call.sol\":459:484  require(success,\"Failed\") */\n      tag_44\n      jumpi\n      mload(0x40)\n      0x08c379a000000000000000000000000000000000000000000000000000000000\n      dup2\n      mstore\n      0x04\n      add\n      tag_45\n      swap1\n      tag_29\n      jump\t// in\n    tag_45:\n      mload(0x40)\n      dup1\n      swap2\n      sub\n      swap1\n      revert\n    tag_44:\n        /* \"Call.sol\":494:500  uint r */\n      0x00\n        /* \"Call.sol\":554:558  0x20 */\n      0x20\n        /* \"Call.sol\":548:552  data */\n      dup3\n        /* \"Call.sol\":544:559  add(data, 0x20) */\n      add\n        /* \"Call.sol\":538:560  mload(add(data, 0x20)) */\n      mload\n        /* \"Call.sol\":533:560  r := mload(add(data, 0x20)) */\n      swap1\n      pop\n        /* \"Call.sol\":584:590  Log(r) */\n      0x909c57d5c6ac08245cf2a6de3900e2b868513fa59099b92b27d8db823d92df9c\n        /* \"Call.sol\":588:589  r */\n      dup2\n        /* \"Call.sol\":584:590  Log(r) */\n      mload(0x40)\n      tag_46\n      swap2\n      swap1\n      tag_18\n      jump\t// in\n    tag_46:\n      mload(0x40)\n      dup1\n      swap2\n      sub\n      swap1\n      log1\n        /* \"Call.sol\":607:608  r */\n      dup1\n        /* \"Call.sol\":600:608  return r */\n      swap4\n      pop\n      pop\n      pop\n      pop\n        /* \"Call.sol\":303:615  function getX(address c) external returns(uint){... */\n      swap2\n      swap1\n      pop\n      jump\t// out\n        /* \"#utility.yul\":7:146   */\n    tag_48:\n        /* \"#utility.yul\":53:58   */\n      0x00\n        /* \"#utility.yul\":91:97   */\n      dup2\n        /* \"#utility.yul\":78:98   */\n      calldataload\n        /* \"#utility.yul\":69:98   */\n      swap1\n      pop\n        /* \"#utility.yul\":107:140   */\n      tag_50\n        /* \"#utility.yul\":134:139   */\n      dup2\n        /* \"#utility.yul\":107:140   */\n      tag_51\n      jump\t// in\n    tag_50:\n        /* \"#utility.yul\":7:146   */\n      swap3\n      swap2\n      pop\n      pop\n      jump\t// out\n        /* \"#utility.yul\":152:291   */\n    tag_52:\n        /* \"#utility.yul\":198:203   */\n      0x00\n        /* \"#utility.yul\":236:242   */\n      dup2\n        /* \"#utility.yul\":223:243   */\n      calldataload\n        /* \"#utility.yul\":214:243   */\n      swap1\n      pop\n        /* \"#utility.yul\":252:285   */\n      tag_54\n        /* \"#utility.yul\":279:284   */\n      dup2\n        /* \"#utility.yul\":252:285   */\n      tag_55\n      jump\t// in\n    tag_54:\n        /* \"#utility.yul\":152:291   */\n      swap3\n      swap2\n      pop\n      pop\n      jump\t// out\n        /* \"#utility.yul\":297:626   */\n    tag_8:\n        /* \"#utility.yul\":356:362   */\n      0x00\n        /* \"#utility.yul\":405:407   */\n      0x20\n        /* \"#utility.yul\":393:402   */\n      dup3\n        /* \"#utility.yul\":384:391   */\n      dup5\n        /* \"#utility.yul\":380:403   */\n      sub\n        /* \"#utility.yul\":376:408   */\n      slt\n        /* \"#utility.yul\":373:492   */\n      iszero\n      tag_57\n      jumpi\n        /* \"#utility.yul\":411:490   */\n      tag_58\n      tag_59\n      jump\t// in\n    tag_58:\n        /* \"#utility.yul\":373:492   */\n    tag_57:\n        /* \"#utility.yul\":531:532   */\n      0x00\n        /* \"#utility.yul\":556:609   */\n      tag_60\n        /* \"#utility.yul\":601:608   */\n      dup5\n        /* \"#utility.yul\":592:598   */\n      dup3\n        /* \"#utility.yul\":581:590   */\n      dup6\n        /* \"#utility.yul\":577:599   */\n      add\n        /* \"#utility.yul\":556:609   */\n      tag_48\n      jump\t// in\n    tag_60:\n        /* \"#utility.yul\":546:609   */\n      swap2\n      pop\n        /* \"#utility.yul\":502:619   */\n      pop\n        /* \"#utility.yul\":297:626   */\n      swap3\n      swap2\n      pop\n      pop\n      jump\t// out\n        /* \"#utility.yul\":632:1106   */\n    tag_12:\n        /* \"#utility.yul\":700:706   */\n      0x00\n        /* \"#utility.yul\":708:714   */\n      dup1\n        /* \"#utility.yul\":757:759   */\n      0x40\n        /* \"#utility.yul\":745:754   */\n      dup4\n        /* \"#utility.yul\":736:743   */\n      dup6\n        /* \"#utility.yul\":732:755   */\n      sub\n        /* \"#utility.yul\":728:760   */\n      slt\n        /* \"#utility.yul\":725:844   */\n      iszero\n      tag_62\n      jumpi\n        /* \"#utility.yul\":763:842   */\n      tag_63\n      tag_59\n      jump\t// in\n    tag_63:\n        /* \"#utility.yul\":725:844   */\n    tag_62:\n        /* \"#utility.yul\":883:884   */\n      0x00\n        /* \"#utility.yul\":908:961   */\n      tag_64\n        /* \"#utility.yul\":953:960   */\n      dup6\n        /* \"#utility.yul\":944:950   */\n      dup3\n        /* \"#utility.yul\":933:942   */\n      dup7\n        /* \"#utility.yul\":929:951   */\n      add\n        /* \"#utility.yul\":908:961   */\n      tag_48\n      jump\t// in\n    tag_64:\n        /* \"#utility.yul\":898:961   */\n      swap3\n      pop\n        /* \"#utility.yul\":854:971   */\n      pop\n        /* \"#utility.yul\":1010:1012   */\n      0x20\n        /* \"#utility.yul\":1036:1089   */\n      tag_65\n        /* \"#utility.yul\":1081:1088   */\n      dup6\n        /* \"#utility.yul\":1072:1078   */\n      dup3\n        /* \"#utility.yul\":1061:1070   */\n      dup7\n        /* \"#utility.yul\":1057:1079   */\n      add\n        /* \"#utility.yul\":1036:1089   */\n      tag_52\n      jump\t// in\n    tag_65:\n        /* \"#utility.yul\":1026:1089   */\n      swap2\n      pop\n        /* \"#utility.yul\":981:1099   */\n      pop\n        /* \"#utility.yul\":632:1106   */\n      swap3\n      pop\n      swap3\n      swap1\n      pop\n      jump\t// out\n        /* \"#utility.yul\":1112:1485   */\n    tag_66:\n        /* \"#utility.yul\":1216:1219   */\n      0x00\n        /* \"#utility.yul\":1244:1282   */\n      tag_68\n        /* \"#utility.yul\":1276:1281   */\n      dup3\n        /* \"#utility.yul\":1244:1282   */\n      tag_69\n      jump\t// in\n    tag_68:\n        /* \"#utility.yul\":1298:1386   */\n      tag_70\n        /* \"#utility.yul\":1379:1385   */\n      dup2\n        /* \"#utility.yul\":1374:1377   */\n      dup6\n        /* \"#utility.yul\":1298:1386   */\n      tag_71\n      jump\t// in\n    tag_70:\n        /* \"#utility.yul\":1291:1386   */\n      swap4\n      pop\n        /* \"#utility.yul\":1395:1447   */\n      tag_72\n        /* \"#utility.yul\":1440:1446   */\n      dup2\n        /* \"#utility.yul\":1435:1438   */\n      dup6\n        /* \"#utility.yul\":1428:1432   */\n      0x20\n        /* \"#utility.yul\":1421:1426   */\n      dup7\n        /* \"#utility.yul\":1417:1433   */\n      add\n        /* \"#utility.yul\":1395:1447   */\n      tag_73\n      jump\t// in\n    tag_72:\n        /* \"#utility.yul\":1472:1478   */\n      dup1\n        /* \"#utility.yul\":1467:1470   */\n      dup5\n        /* \"#utility.yul\":1463:1479   */\n      add\n        /* \"#utility.yul\":1456:1479   */\n      swap2\n      pop\n        /* \"#utility.yul\":1220:1485   */\n      pop\n        /* \"#utility.yul\":1112:1485   */\n      swap3\n      swap2\n      pop\n      pop\n      jump\t// out\n        /* \"#utility.yul\":1491:1638   */\n    tag_74:\n        /* \"#utility.yul\":1586:1631   */\n      tag_76\n        /* \"#utility.yul\":1625:1630   */\n      dup2\n        /* \"#utility.yul\":1586:1631   */\n      tag_77\n      jump\t// in\n    tag_76:\n        /* \"#utility.yul\":1581:1584   */\n      dup3\n        /* \"#utility.yul\":1574:1632   */\n      mstore\n        /* \"#utility.yul\":1491:1638   */\n      pop\n      pop\n      jump\t// out\n        /* \"#utility.yul\":1644:2009   */\n    tag_78:\n        /* \"#utility.yul\":1786:1789   */\n      0x00\n        /* \"#utility.yul\":1807:1873   */\n      tag_80\n        /* \"#utility.yul\":1871:1872   */\n      0x06\n        /* \"#utility.yul\":1866:1869   */\n      dup4\n        /* \"#utility.yul\":1807:1873   */\n      tag_81\n      jump\t// in\n    tag_80:\n        /* \"#utility.yul\":1800:1873   */\n      swap2\n      pop\n        /* \"#utility.yul\":1882:1975   */\n      tag_82\n        /* \"#utility.yul\":1971:1974   */\n      dup3\n        /* \"#utility.yul\":1882:1975   */\n      tag_83\n      jump\t// in\n    tag_82:\n        /* \"#utility.yul\":2000:2002   */\n      0x20\n        /* \"#utility.yul\":1995:1998   */\n      dup3\n        /* \"#utility.yul\":1991:2003   */\n      add\n        /* \"#utility.yul\":1984:2003   */\n      swap1\n      pop\n        /* \"#utility.yul\":1644:2009   */\n      swap2\n      swap1\n      pop\n      jump\t// out\n        /* \"#utility.yul\":2015:2380   */\n    tag_84:\n        /* \"#utility.yul\":2157:2160   */\n      0x00\n        /* \"#utility.yul\":2178:2244   */\n      tag_86\n        /* \"#utility.yul\":2242:2243   */\n      0x03\n        /* \"#utility.yul\":2237:2240   */\n      dup4\n        /* \"#utility.yul\":2178:2244   */\n      tag_81\n      jump\t// in\n    tag_86:\n        /* \"#utility.yul\":2171:2244   */\n      swap2\n      pop\n        /* \"#utility.yul\":2253:2346   */\n      tag_87\n        /* \"#utility.yul\":2342:2345   */\n      dup3\n        /* \"#utility.yul\":2253:2346   */\n      tag_88\n      jump\t// in\n    tag_87:\n        /* \"#utility.yul\":2371:2373   */\n      0x20\n        /* \"#utility.yul\":2366:2369   */\n      dup3\n        /* \"#utility.yul\":2362:2374   */\n      add\n        /* \"#utility.yul\":2355:2374   */\n      swap1\n      pop\n        /* \"#utility.yul\":2015:2380   */\n      swap2\n      swap1\n      pop\n      jump\t// out\n        /* \"#utility.yul\":2386:2504   */\n    tag_89:\n        /* \"#utility.yul\":2473:2497   */\n      tag_91\n        /* \"#utility.yul\":2491:2496   */\n      dup2\n        /* \"#utility.yul\":2473:2497   */\n      tag_92\n      jump\t// in\n    tag_91:\n        /* \"#utility.yul\":2468:2471   */\n      dup3\n        /* \"#utility.yul\":2461:2498   */\n      mstore\n        /* \"#utility.yul\":2386:2504   */\n      pop\n      pop\n      jump\t// out\n        /* \"#utility.yul\":2510:2781   */\n    tag_23:\n        /* \"#utility.yul\":2640:2643   */\n      0x00\n        /* \"#utility.yul\":2662:2755   */\n      tag_94\n        /* \"#utility.yul\":2751:2754   */\n      dup3\n        /* \"#utility.yul\":2742:2748   */\n      dup5\n        /* \"#utility.yul\":2662:2755   */\n      tag_66\n      jump\t// in\n    tag_94:\n        /* \"#utility.yul\":2655:2755   */\n      swap2\n      pop\n        /* \"#utility.yul\":2772:2775   */\n      dup2\n        /* \"#utility.yul\":2765:2775   */\n      swap1\n      pop\n        /* \"#utility.yul\":2510:2781   */\n      swap3\n      swap2\n      pop\n      pop\n      jump\t// out\n        /* \"#utility.yul\":2787:3025   */\n    tag_21:\n        /* \"#utility.yul\":2888:2892   */\n      0x00\n        /* \"#utility.yul\":2926:2928   */\n      0x20\n        /* \"#utility.yul\":2915:2924   */\n      dup3\n        /* \"#utility.yul\":2911:2929   */\n      add\n        /* \"#utility.yul\":2903:2929   */\n      swap1\n      pop\n        /* \"#utility.yul\":2939:3018   */\n      tag_96\n        /* \"#utility.yul\":3015:3016   */\n      0x00\n        /* \"#utility.yul\":3004:3013   */\n      dup4\n        /* \"#utility.yul\":3000:3017   */\n      add\n        /* \"#utility.yul\":2991:2997   */\n      dup5\n        /* \"#utility.yul\":2939:3018   */\n      tag_74\n      jump\t// in\n    tag_96:\n        /* \"#utility.yul\":2787:3025   */\n      swap3\n      swap2\n      pop\n      pop\n      jump\t// out\n        /* \"#utility.yul\":3031:3450   */\n    tag_29:\n        /* \"#utility.yul\":3197:3201   */\n      0x00\n        /* \"#utility.yul\":3235:3237   */\n      0x20\n        /* \"#utility.yul\":3224:3233   */\n      dup3\n        /* \"#utility.yul\":3220:3238   */\n      add\n        /* \"#utility.yul\":3212:3238   */\n      swap1\n      pop\n        /* \"#utility.yul\":3284:3293   */\n      dup2\n        /* \"#utility.yul\":3278:3282   */\n      dup2\n        /* \"#utility.yul\":3274:3294   */\n      sub\n        /* \"#utility.yul\":3270:3271   */\n      0x00\n        /* \"#utility.yul\":3259:3268   */\n      dup4\n        /* \"#utility.yul\":3255:3272   */\n      add\n        /* \"#utility.yul\":3248:3295   */\n      mstore\n        /* \"#utility.yul\":3312:3443   */\n      tag_98\n        /* \"#utility.yul\":3438:3442   */\n      dup2\n        /* \"#utility.yul\":3312:3443   */\n      tag_78\n      jump\t// in\n    tag_98:\n        /* \"#utility.yul\":3304:3443   */\n      swap1\n      pop\n        /* \"#utility.yul\":3031:3450   */\n      swap2\n      swap1\n      pop\n      jump\t// out\n        /* \"#utility.yul\":3456:3875   */\n    tag_38:\n        /* \"#utility.yul\":3622:3626   */\n      0x00\n        /* \"#utility.yul\":3660:3662   */\n      0x20\n        /* \"#utility.yul\":3649:3658   */\n      dup3\n        /* \"#utility.yul\":3645:3663   */\n      add\n        /* \"#utility.yul\":3637:3663   */\n      swap1\n      pop\n        /* \"#utility.yul\":3709:3718   */\n      dup2\n        /* \"#utility.yul\":3703:3707   */\n      dup2\n        /* \"#utility.yul\":3699:3719   */\n      sub\n        /* \"#utility.yul\":3695:3696   */\n      0x00\n        /* \"#utility.yul\":3684:3693   */\n      dup4\n        /* \"#utility.yul\":3680:3697   */\n      add\n        /* \"#utility.yul\":3673:3720   */\n      mstore\n        /* \"#utility.yul\":3737:3868   */\n      tag_100\n        /* \"#utility.yul\":3863:3867   */\n      dup2\n        /* \"#utility.yul\":3737:3868   */\n      tag_84\n      jump\t// in\n    tag_100:\n        /* \"#utility.yul\":3729:3868   */\n      swap1\n      pop\n        /* \"#utility.yul\":3456:3875   */\n      swap2\n      swap1\n      pop\n      jump\t// out\n        /* \"#utility.yul\":3881:4103   */\n    tag_18:\n        /* \"#utility.yul\":3974:3978   */\n      0x00\n        /* \"#utility.yul\":4012:4014   */\n      0x20\n        /* \"#utility.yul\":4001:4010   */\n      dup3\n        /* \"#utility.yul\":3997:4015   */\n      add\n        /* \"#utility.yul\":3989:4015   */\n      swap1\n      pop\n        /* \"#utility.yul\":4025:4096   */\n      tag_102\n        /* \"#utility.yul\":4093:4094   */\n      0x00\n        /* \"#utility.yul\":4082:4091   */\n      dup4\n        /* \"#utility.yul\":4078:4095   */\n      add\n        /* \"#utility.yul\":4069:4075   */\n      dup5\n        /* \"#utility.yul\":4025:4096   */\n      tag_89\n      jump\t// in\n    tag_102:\n        /* \"#utility.yul\":3881:4103   */\n      swap3\n      swap2\n      pop\n      pop\n      jump\t// out\n        /* \"#utility.yul\":4190:4288   */\n    tag_69:\n        /* \"#utility.yul\":4241:4247   */\n      0x00\n        /* \"#utility.yul\":4275:4280   */\n      dup2\n        /* \"#utility.yul\":4269:4281   */\n      mload\n        /* \"#utility.yul\":4259:4281   */\n      swap1\n      pop\n        /* \"#utility.yul\":4190:4288   */\n      swap2\n      swap1\n      pop\n      jump\t// out\n        /* \"#utility.yul\":4294:4441   */\n    tag_71:\n        /* \"#utility.yul\":4395:4406   */\n      0x00\n        /* \"#utility.yul\":4432:4435   */\n      dup2\n        /* \"#utility.yul\":4417:4435   */\n      swap1\n      pop\n        /* \"#utility.yul\":4294:4441   */\n      swap3\n      swap2\n      pop\n      pop\n      jump\t// out\n        /* \"#utility.yul\":4447:4616   */\n    tag_81:\n        /* \"#utility.yul\":4531:4542   */\n      0x00\n        /* \"#utility.yul\":4565:4571   */\n      dup3\n        /* \"#utility.yul\":4560:4563   */\n      dup3\n        /* \"#utility.yul\":4553:4572   */\n      mstore\n        /* \"#utility.yul\":4605:4609   */\n      0x20\n        /* \"#utility.yul\":4600:4603   */\n      dup3\n        /* \"#utility.yul\":4596:4610   */\n      add\n        /* \"#utility.yul\":4581:4610   */\n      swap1\n      pop\n        /* \"#utility.yul\":4447:4616   */\n      swap3\n      swap2\n      pop\n      pop\n      jump\t// out\n        /* \"#utility.yul\":4622:4718   */\n    tag_108:\n        /* \"#utility.yul\":4659:4666   */\n      0x00\n        /* \"#utility.yul\":4688:4712   */\n      tag_110\n        /* \"#utility.yul\":4706:4711   */\n      dup3\n        /* \"#utility.yul\":4688:4712   */\n      tag_111\n      jump\t// in\n    tag_110:\n        /* \"#utility.yul\":4677:4712   */\n      swap1\n      pop\n        /* \"#utility.yul\":4622:4718   */\n      swap2\n      swap1\n      pop\n      jump\t// out\n        /* \"#utility.yul\":4724:4850   */\n    tag_111:\n        /* \"#utility.yul\":4761:4768   */\n      0x00\n        /* \"#utility.yul\":4801:4843   */\n      0xffffffffffffffffffffffffffffffffffffffff\n        /* \"#utility.yul\":4794:4799   */\n      dup3\n        /* \"#utility.yul\":4790:4844   */\n      and\n        /* \"#utility.yul\":4779:4844   */\n      swap1\n      pop\n        /* \"#utility.yul\":4724:4850   */\n      swap2\n      swap1\n      pop\n      jump\t// out\n        /* \"#utility.yul\":4856:4933   */\n    tag_92:\n        /* \"#utility.yul\":4893:4900   */\n      0x00\n        /* \"#utility.yul\":4922:4927   */\n      dup2\n        /* \"#utility.yul\":4911:4927   */\n      swap1\n      pop\n        /* \"#utility.yul\":4856:4933   */\n      swap2\n      swap1\n      pop\n      jump\t// out\n        /* \"#utility.yul\":4939:5025   */\n    tag_114:\n        /* \"#utility.yul\":4974:4981   */\n      0x00\n        /* \"#utility.yul\":5014:5018   */\n      0xff\n        /* \"#utility.yul\":5007:5012   */\n      dup3\n        /* \"#utility.yul\":5003:5019   */\n      and\n        /* \"#utility.yul\":4992:5019   */\n      swap1\n      pop\n        /* \"#utility.yul\":4939:5025   */\n      swap2\n      swap1\n      pop\n      jump\t// out\n        /* \"#utility.yul\":5031:5150   */\n    tag_77:\n        /* \"#utility.yul\":5089:5098   */\n      0x00\n        /* \"#utility.yul\":5122:5144   */\n      tag_117\n        /* \"#utility.yul\":5138:5143   */\n      dup3\n        /* \"#utility.yul\":5122:5144   */\n      tag_114\n      jump\t// in\n    tag_117:\n        /* \"#utility.yul\":5109:5144   */\n      swap1\n      pop\n        /* \"#utility.yul\":5031:5150   */\n      swap2\n      swap1\n      pop\n      jump\t// out\n        /* \"#utility.yul\":5156:5463   */\n    tag_73:\n        /* \"#utility.yul\":5224:5225   */\n      0x00\n        /* \"#utility.yul\":5234:5347   */\n    tag_119:\n        /* \"#utility.yul\":5248:5254   */\n      dup4\n        /* \"#utility.yul\":5245:5246   */\n      dup2\n        /* \"#utility.yul\":5242:5255   */\n      lt\n        /* \"#utility.yul\":5234:5347   */\n      iszero\n      tag_121\n      jumpi\n        /* \"#utility.yul\":5333:5334   */\n      dup1\n        /* \"#utility.yul\":5328:5331   */\n      dup3\n        /* \"#utility.yul\":5324:5335   */\n      add\n        /* \"#utility.yul\":5318:5336   */\n      mload\n        /* \"#utility.yul\":5314:5315   */\n      dup2\n        /* \"#utility.yul\":5309:5312   */\n      dup5\n        /* \"#utility.yul\":5305:5316   */\n      add\n        /* \"#utility.yul\":5298:5337   */\n      mstore\n        /* \"#utility.yul\":5270:5272   */\n      0x20\n        /* \"#utility.yul\":5267:5268   */\n      dup2\n        /* \"#utility.yul\":5263:5273   */\n      add\n        /* \"#utility.yul\":5258:5273   */\n      swap1\n      pop\n        /* \"#utility.yul\":5234:5347   */\n      jump(tag_119)\n    tag_121:\n        /* \"#utility.yul\":5365:5371   */\n      dup4\n        /* \"#utility.yul\":5362:5363   */\n      dup2\n        /* \"#utility.yul\":5359:5372   */\n      gt\n        /* \"#utility.yul\":5356:5457   */\n      iszero\n      tag_122\n      jumpi\n        /* \"#utility.yul\":5445:5446   */\n      0x00\n        /* \"#utility.yul\":5436:5442   */\n      dup5\n        /* \"#utility.yul\":5431:5434   */\n      dup5\n        /* \"#utility.yul\":5427:5443   */\n      add\n        /* \"#utility.yul\":5420:5447   */\n      mstore\n        /* \"#utility.yul\":5356:5457   */\n    tag_122:\n        /* \"#utility.yul\":5205:5463   */\n      pop\n        /* \"#utility.yul\":5156:5463   */\n      pop\n      pop\n      pop\n      jump\t// out\n        /* \"#utility.yul\":5592:5709   */\n    tag_59:\n        /* \"#utility.yul\":5701:5702   */\n      0x00\n        /* \"#utility.yul\":5698:5699   */\n      dup1\n        /* \"#utility.yul\":5691:5703   */\n      revert\n        /* \"#utility.yul\":5715:5871   */\n    tag_83:\n        /* \"#utility.yul\":5855:5863   */\n      0x4661696c65640000000000000000000000000000000000000000000000000000\n        /* \"#utility.yul\":5851:5852   */\n      0x00\n        /* \"#utility.yul\":5843:5849   */\n      dup3\n        /* \"#utility.yul\":5839:5853   */\n      add\n        /* \"#utility.yul\":5832:5864   */\n      mstore\n        /* \"#utility.yul\":5715:5871   */\n      pop\n      jump\t// out\n        /* \"#utility.yul\":5877:6030   */\n    tag_88:\n        /* \"#utility.yul\":6017:6022   */\n      0x4153440000000000000000000000000000000000000000000000000000000000\n        /* \"#utility.yul\":6013:6014   */\n      0x00\n        /* \"#utility.yul\":6005:6011   */\n      dup3\n        /* \"#utility.yul\":6001:6015   */\n      add\n        /* \"#utility.yul\":5994:6023   */\n      mstore\n        /* \"#utility.yul\":5877:6030   */\n      pop\n      jump\t// out\n        /* \"#utility.yul\":6036:6158   */\n    tag_51:\n        /* \"#utility.yul\":6109:6133   */\n      tag_129\n        /* \"#utility.yul\":6127:6132   */\n      dup2\n        /* \"#utility.yul\":6109:6133   */\n      tag_108\n      jump\t// in\n    tag_129:\n        /* \"#utility.yul\":6102:6107   */\n      dup2\n        /* \"#utility.yul\":6099:6134   */\n      eq\n        /* \"#utility.yul\":6089:6152   */\n      tag_130\n      jumpi\n        /* \"#utility.yul\":6148:6149   */\n      0x00\n        /* \"#utility.yul\":6145:6146   */\n      dup1\n        /* \"#utility.yul\":6138:6150   */\n      revert\n        /* \"#utility.yul\":6089:6152   */\n    tag_130:\n        /* \"#utility.yul\":6036:6158   */\n      pop\n      jump\t// out\n        /* \"#utility.yul\":6164:6286   */\n    tag_55:\n        /* \"#utility.yul\":6237:6261   */\n      tag_132\n        /* \"#utility.yul\":6255:6260   */\n      dup2\n        /* \"#utility.yul\":6237:6261   */\n      tag_92\n      jump\t// in\n    tag_132:\n        /* \"#utility.yul\":6230:6235   */\n      dup2\n        /* \"#utility.yul\":6227:6262   */\n      eq\n        /* \"#utility.yul\":6217:6280   */\n      tag_133\n      jumpi\n        /* \"#utility.yul\":6276:6277   */\n      0x00\n        /* \"#utility.yul\":6273:6274   */\n      dup1\n        /* \"#utility.yul\":6266:6278   */\n      revert\n        /* \"#utility.yul\":6217:6280   */\n    tag_133:\n        /* \"#utility.yul\":6164:6286   */\n      pop\n      jump\t// out\n\n    auxdata: 0xa264697066735822122036eb7e1eab7a03622d1be99d189c62c2bdfdf65ab14a8eb226f7c8b3cb67678a64736f6c63430008070033\n}\n",
				"bytecode": {
					"linkReferences": {},
					"object": "60806040526107d5806100136000396000f3fe608060405234801561001057600080fd5b50600436106100415760003560e01c80630895119b146100465780634a2ad99f146100625780637c94c8ca1461007e575b600080fd5b610060600480360381019061005b91906104d6565b6100ae565b005b61007c60048036038101906100779190610503565b6101ed565b005b610098600480360381019061009391906104d6565b61032c565b6040516100a5919061064a565b60405180910390f35b60008173ffffffffffffffffffffffffffffffffffffffff16607b6040516024016100d991906105ef565b6040516020818303038152906040527fa7a0d537000000000000000000000000000000000000000000000000000000007bffffffffffffffffffffffffffffffffffffffffffffffffffffffff19166020820180517bffffffffffffffffffffffffffffffffffffffffffffffffffffffff838183161783525050505060405161016391906105d8565b6000604051808303816000865af19150503d80600081146101a0576040519150601f19603f3d011682016040523d82523d6000602084013e6101a5565b606091505b50509050806101e9576040517f08c379a00000000000000000000000000000000000000000000000000000000081526004016101e09061060a565b60405180910390fd5b5050565b60008273ffffffffffffffffffffffffffffffffffffffff1682604051602401610217919061064a565b6040516020818303038152906040527f4018d9aa000000000000000000000000000000000000000000000000000000007bffffffffffffffffffffffffffffffffffffffffffffffffffffffff19166020820180517bffffffffffffffffffffffffffffffffffffffffffffffffffffffff83818316178352505050506040516102a191906105d8565b6000604051808303816000865af19150503d80600081146102de576040519150601f19603f3d011682016040523d82523d6000602084013e6102e3565b606091505b5050905080610327576040517f08c379a000000000000000000000000000000000000000000000000000000000815260040161031e9061062a565b60405180910390fd5b505050565b60008060008373ffffffffffffffffffffffffffffffffffffffff16606f6040516024016040516020818303038152906040527f5197c7aa000000000000000000000000000000000000000000000000000000007bffffffffffffffffffffffffffffffffffffffffffffffffffffffff19166020820180517bffffffffffffffffffffffffffffffffffffffffffffffffffffffff83818316178352505050506040516103da91906105d8565b60006040518083038185875af1925050503d8060008114610417576040519150601f19603f3d011682016040523d82523d6000602084013e61041c565b606091505b509150915081610461576040517f08c379a00000000000000000000000000000000000000000000000000000000081526004016104589061060a565b60405180910390fd5b6000602082015190507f909c57d5c6ac08245cf2a6de3900e2b868513fa59099b92b27d8db823d92df9c81604051610499919061064a565b60405180910390a1809350505050919050565b6000813590506104bb81610771565b92915050565b6000813590506104d081610788565b92915050565b6000602082840312156104ec576104eb61071a565b5b60006104fa848285016104ac565b91505092915050565b6000806040838503121561051a5761051961071a565b5b6000610528858286016104ac565b9250506020610539858286016104c1565b9150509250929050565b600061054e82610665565b6105588185610670565b93506105688185602086016106e7565b80840191505092915050565b61057d816106d5565b82525050565b600061059060068361067b565b915061059b8261071f565b602082019050919050565b60006105b360038361067b565b91506105be82610748565b602082019050919050565b6105d2816106be565b82525050565b60006105e48284610543565b915081905092915050565b60006020820190506106046000830184610574565b92915050565b6000602082019050818103600083015261062381610583565b9050919050565b60006020820190508181036000830152610643816105a6565b9050919050565b600060208201905061065f60008301846105c9565b92915050565b600081519050919050565b600081905092915050565b600082825260208201905092915050565b60006106978261069e565b9050919050565b600073ffffffffffffffffffffffffffffffffffffffff82169050919050565b6000819050919050565b600060ff82169050919050565b60006106e0826106c8565b9050919050565b60005b838110156107055780820151818401526020810190506106ea565b83811115610714576000848401525b50505050565b600080fd5b7f4661696c65640000000000000000000000000000000000000000000000000000600082015250565b7f4153440000000000000000000000000000000000000000000000000000000000600082015250565b61077a8161068c565b811461078557600080fd5b50565b610791816106be565b811461079c57600080fd5b5056fea264697066735822122036eb7e1eab7a03622d1be99d189c62c2bdfdf65ab14a8eb226f7c8b3cb67678a64736f6c63430008070033",
					"opcodes": "PUSH1 0x80 PUSH1 0x40 MSTORE PUSH2 0x7D5 DUP1 PUSH2 0x13 PUSH1 0x0 CODECOPY PUSH1 0x0 RETURN INVALID PUSH1 0x80 PUSH1 0x40 MSTORE CALLVALUE DUP1 ISZERO PUSH2 0x10 JUMPI PUSH1 0x0 DUP1 REVERT JUMPDEST POP PUSH1 0x4 CALLDATASIZE LT PUSH2 0x41 JUMPI PUSH1 0x0 CALLDATALOAD PUSH1 0xE0 SHR DUP1 PUSH4 0x895119B EQ PUSH2 0x46 JUMPI DUP1 PUSH4 0x4A2AD99F EQ PUSH2 0x62 JUMPI DUP1 PUSH4 0x7C94C8CA EQ PUSH2 0x7E JUMPI JUMPDEST PUSH1 0x0 DUP1 REVERT JUMPDEST PUSH2 0x60 PUSH1 0x4 DUP1 CALLDATASIZE SUB DUP2 ADD SWAP1 PUSH2 0x5B SWAP2 SWAP1 PUSH2 0x4D6 JUMP JUMPDEST PUSH2 0xAE JUMP JUMPDEST STOP JUMPDEST PUSH2 0x7C PUSH1 0x4 DUP1 CALLDATASIZE SUB DUP2 ADD SWAP1 PUSH2 0x77 SWAP2 SWAP1 PUSH2 0x503 JUMP JUMPDEST PUSH2 0x1ED JUMP JUMPDEST STOP JUMPDEST PUSH2 0x98 PUSH1 0x4 DUP1 CALLDATASIZE SUB DUP2 ADD SWAP1 PUSH2 0x93 SWAP2 SWAP1 PUSH2 0x4D6 JUMP JUMPDEST PUSH2 0x32C JUMP JUMPDEST PUSH1 0x40 MLOAD PUSH2 0xA5 SWAP2 SWAP1 PUSH2 0x64A JUMP JUMPDEST PUSH1 0x40 MLOAD DUP1 SWAP2 SUB SWAP1 RETURN JUMPDEST PUSH1 0x0 DUP2 PUSH20 0xFFFFFFFFFFFFFFFFFFFFFFFFFFFFFFFFFFFFFFFF AND PUSH1 0x7B PUSH1 0x40 MLOAD PUSH1 0x24 ADD PUSH2 0xD9 SWAP2 SWAP1 PUSH2 0x5EF JUMP JUMPDEST PUSH1 0x40 MLOAD PUSH1 0x20 DUP2 DUP4 SUB SUB DUP2 MSTORE SWAP1 PUSH1 0x40 MSTORE PUSH32 0xA7A0D53700000000000000000000000000000000000000000000000000000000 PUSH28 0xFFFFFFFFFFFFFFFFFFFFFFFFFFFFFFFFFFFFFFFFFFFFFFFFFFFFFFFF NOT AND PUSH1 0x20 DUP3 ADD DUP1 MLOAD PUSH28 0xFFFFFFFFFFFFFFFFFFFFFFFFFFFFFFFFFFFFFFFFFFFFFFFFFFFFFFFF DUP4 DUP2 DUP4 AND OR DUP4 MSTORE POP POP POP POP PUSH1 0x40 MLOAD PUSH2 0x163 SWAP2 SWAP1 PUSH2 0x5D8 JUMP JUMPDEST PUSH1 0x0 PUSH1 0x40 MLOAD DUP1 DUP4 SUB DUP2 PUSH1 0x0 DUP7 GAS CALL SWAP2 POP POP RETURNDATASIZE DUP1 PUSH1 0x0 DUP2 EQ PUSH2 0x1A0 JUMPI PUSH1 0x40 MLOAD SWAP2 POP PUSH1 0x1F NOT PUSH1 0x3F RETURNDATASIZE ADD AND DUP3 ADD PUSH1 0x40 MSTORE RETURNDATASIZE DUP3 MSTORE RETURNDATASIZE PUSH1 0x0 PUSH1 0x20 DUP5 ADD RETURNDATACOPY PUSH2 0x1A5 JUMP JUMPDEST PUSH1 0x60 SWAP2 POP JUMPDEST POP POP SWAP1 POP DUP1 PUSH2 0x1E9 JUMPI PUSH1 0x40 MLOAD PUSH32 0x8C379A000000000000000000000000000000000000000000000000000000000 DUP2 MSTORE PUSH1 0x4 ADD PUSH2 0x1E0 SWAP1 PUSH2 0x60A JUMP JUMPDEST PUSH1 0x40 MLOAD DUP1 SWAP2 SUB SWAP1 REVERT JUMPDEST POP POP JUMP JUMPDEST PUSH1 0x0 DUP3 PUSH20 0xFFFFFFFFFFFFFFFFFFFFFFFFFFFFFFFFFFFFFFFF AND DUP3 PUSH1 0x40 MLOAD PUSH1 0x24 ADD PUSH2 0x217 SWAP2 SWAP1 PUSH2 0x64A JUMP JUMPDEST PUSH1 0x40 MLOAD PUSH1 0x20 DUP2 DUP4 SUB SUB DUP2 MSTORE SWAP1 PUSH1 0x40 MSTORE PUSH32 0x4018D9AA00000000000000000000000000000000000000000000000000000000 PUSH28 0xFFFFFFFFFFFFFFFFFFFFFFFFFFFFFFFFFFFFFFFFFFFFFFFFFFFFFFFF NOT AND PUSH1 0x20 DUP3 ADD DUP1 MLOAD PUSH28 0xFFFFFFFFFFFFFFFFFFFFFFFFFFFFFFFFFFFFFFFFFFFFFFFFFFFFFFFF DUP4 DUP2 DUP4 AND OR DUP4 MSTORE POP POP POP POP PUSH1 0x40 MLOAD PUSH2 0x2A1 SWAP2 SWAP1 PUSH2 0x5D8 JUMP JUMPDEST PUSH1 0x0 PUSH1 0x40 MLOAD DUP1 DUP4 SUB DUP2 PUSH1 0x0 DUP7 GAS CALL SWAP2 POP POP RETURNDATASIZE DUP1 PUSH1 0x0 DUP2 EQ PUSH2 0x2DE JUMPI PUSH1 0x40 MLOAD SWAP2 POP PUSH1 0x1F NOT PUSH1 0x3F RETURNDATASIZE ADD AND DUP3 ADD PUSH1 0x40 MSTORE RETURNDATASIZE DUP3 MSTORE RETURNDATASIZE PUSH1 0x0 PUSH1 0x20 DUP5 ADD RETURNDATACOPY PUSH2 0x2E3 JUMP JUMPDEST PUSH1 0x60 SWAP2 POP JUMPDEST POP POP SWAP1 POP DUP1 PUSH2 0x327 JUMPI PUSH1 0x40 MLOAD PUSH32 0x8C379A000000000000000000000000000000000000000000000000000000000 DUP2 MSTORE PUSH1 0x4 ADD PUSH2 0x31E SWAP1 PUSH2 0x62A JUMP JUMPDEST PUSH1 0x40 MLOAD DUP1 SWAP2 SUB SWAP1 REVERT JUMPDEST POP POP POP JUMP JUMPDEST PUSH1 0x0 DUP1 PUSH1 0x0 DUP4 PUSH20 0xFFFFFFFFFFFFFFFFFFFFFFFFFFFFFFFFFFFFFFFF AND PUSH1 0x6F PUSH1 0x40 MLOAD PUSH1 0x24 ADD PUSH1 0x40 MLOAD PUSH1 0x20 DUP2 DUP4 SUB SUB DUP2 MSTORE SWAP1 PUSH1 0x40 MSTORE PUSH32 0x5197C7AA00000000000000000000000000000000000000000000000000000000 PUSH28 0xFFFFFFFFFFFFFFFFFFFFFFFFFFFFFFFFFFFFFFFFFFFFFFFFFFFFFFFF NOT AND PUSH1 0x20 DUP3 ADD DUP1 MLOAD PUSH28 0xFFFFFFFFFFFFFFFFFFFFFFFFFFFFFFFFFFFFFFFFFFFFFFFFFFFFFFFF DUP4 DUP2 DUP4 AND OR DUP4 MSTORE POP POP POP POP PUSH1 0x40 MLOAD PUSH2 0x3DA SWAP2 SWAP1 PUSH2 0x5D8 JUMP JUMPDEST PUSH1 0x0 PUSH1 0x40 MLOAD DUP1 DUP4 SUB DUP2 DUP6 DUP8 GAS CALL SWAP3 POP POP POP RETURNDATASIZE DUP1 PUSH1 0x0 DUP2 EQ PUSH2 0x417 JUMPI PUSH1 0x40 MLOAD SWAP2 POP PUSH1 0x1F NOT PUSH1 0x3F RETURNDATASIZE ADD AND DUP3 ADD PUSH1 0x40 MSTORE RETURNDATASIZE DUP3 MSTORE RETURNDATASIZE PUSH1 0x0 PUSH1 0x20 DUP5 ADD RETURNDATACOPY PUSH2 0x41C JUMP JUMPDEST PUSH1 0x60 SWAP2 POP JUMPDEST POP SWAP2 POP SWAP2 POP DUP2 PUSH2 0x461 JUMPI PUSH1 0x40 MLOAD PUSH32 0x8C379A000000000000000000000000000000000000000000000000000000000 DUP2 MSTORE PUSH1 0x4 ADD PUSH2 0x458 SWAP1 PUSH2 0x60A JUMP JUMPDEST PUSH1 0x40 MLOAD DUP1 SWAP2 SUB SWAP1 REVERT JUMPDEST PUSH1 0x0 PUSH1 0x20 DUP3 ADD MLOAD SWAP1 POP PUSH32 0x909C57D5C6AC08245CF2A6DE3900E2B868513FA59099B92B27D8DB823D92DF9C DUP2 PUSH1 0x40 MLOAD PUSH2 0x499 SWAP2 SWAP1 PUSH2 0x64A JUMP JUMPDEST PUSH1 0x40 MLOAD DUP1 SWAP2 SUB SWAP1 LOG1 DUP1 SWAP4 POP POP POP POP SWAP2 SWAP1 POP JUMP JUMPDEST PUSH1 0x0 DUP2 CALLDATALOAD SWAP1 POP PUSH2 0x4BB DUP2 PUSH2 0x771 JUMP JUMPDEST SWAP3 SWAP2 POP POP JUMP JUMPDEST PUSH1 0x0 DUP2 CALLDATALOAD SWAP1 POP PUSH2 0x4D0 DUP2 PUSH2 0x788 JUMP JUMPDEST SWAP3 SWAP2 POP POP JUMP JUMPDEST PUSH1 0x0 PUSH1 0x20 DUP3 DUP5 SUB SLT ISZERO PUSH2 0x4EC JUMPI PUSH2 0x4EB PUSH2 0x71A JUMP JUMPDEST JUMPDEST PUSH1 0x0 PUSH2 0x4FA DUP5 DUP3 DUP6 ADD PUSH2 0x4AC JUMP JUMPDEST SWAP2 POP POP SWAP3 SWAP2 POP POP JUMP JUMPDEST PUSH1 0x0 DUP1 PUSH1 0x40 DUP4 DUP6 SUB SLT ISZERO PUSH2 0x51A JUMPI PUSH2 0x519 PUSH2 0x71A JUMP JUMPDEST JUMPDEST PUSH1 0x0 PUSH2 0x528 DUP6 DUP3 DUP7 ADD PUSH2 0x4AC JUMP JUMPDEST SWAP3 POP POP PUSH1 0x20 PUSH2 0x539 DUP6 DUP3 DUP7 ADD PUSH2 0x4C1 JUMP JUMPDEST SWAP2 POP POP SWAP3 POP SWAP3 SWAP1 POP JUMP JUMPDEST PUSH1 0x0 PUSH2 0x54E DUP3 PUSH2 0x665 JUMP JUMPDEST PUSH2 0x558 DUP2 DUP6 PUSH2 0x670 JUMP JUMPDEST SWAP4 POP PUSH2 0x568 DUP2 DUP6 PUSH1 0x20 DUP7 ADD PUSH2 0x6E7 JUMP JUMPDEST DUP1 DUP5 ADD SWAP2 POP POP SWAP3 SWAP2 POP POP JUMP JUMPDEST PUSH2 0x57D DUP2 PUSH2 0x6D5 JUMP JUMPDEST DUP3 MSTORE POP POP JUMP JUMPDEST PUSH1 0x0 PUSH2 0x590 PUSH1 0x6 DUP4 PUSH2 0x67B JUMP JUMPDEST SWAP2 POP PUSH2 0x59B DUP3 PUSH2 0x71F JUMP JUMPDEST PUSH1 0x20 DUP3 ADD SWAP1 POP SWAP2 SWAP1 POP JUMP JUMPDEST PUSH1 0x0 PUSH2 0x5B3 PUSH1 0x3 DUP4 PUSH2 0x67B JUMP JUMPDEST SWAP2 POP PUSH2 0x5BE DUP3 PUSH2 0x748 JUMP JUMPDEST PUSH1 0x20 DUP3 ADD SWAP1 POP SWAP2 SWAP1 POP JUMP JUMPDEST PUSH2 0x5D2 DUP2 PUSH2 0x6BE JUMP JUMPDEST DUP3 MSTORE POP POP JUMP JUMPDEST PUSH1 0x0 PUSH2 0x5E4 DUP3 DUP5 PUSH2 0x543 JUMP JUMPDEST SWAP2 POP DUP2 SWAP1 POP SWAP3 SWAP2 POP POP JUMP JUMPDEST PUSH1 0x0 PUSH1 0x20 DUP3 ADD SWAP1 POP PUSH2 0x604 PUSH1 0x0 DUP4 ADD DUP5 PUSH2 0x574 JUMP JUMPDEST SWAP3 SWAP2 POP POP JUMP JUMPDEST PUSH1 0x0 PUSH1 0x20 DUP3 ADD SWAP1 POP DUP2 DUP2 SUB PUSH1 0x0 DUP4 ADD MSTORE PUSH2 0x623 DUP2 PUSH2 0x583 JUMP JUMPDEST SWAP1 POP SWAP2 SWAP1 POP JUMP JUMPDEST PUSH1 0x0 PUSH1 0x20 DUP3 ADD SWAP1 POP DUP2 DUP2 SUB PUSH1 0x0 DUP4 ADD MSTORE PUSH2 0x643 DUP2 PUSH2 0x5A6 JUMP JUMPDEST SWAP1 POP SWAP2 SWAP1 POP JUMP JUMPDEST PUSH1 0x0 PUSH1 0x20 DUP3 ADD SWAP1 POP PUSH2 0x65F PUSH1 0x0 DUP4 ADD DUP5 PUSH2 0x5C9 JUMP JUMPDEST SWAP3 SWAP2 POP POP JUMP JUMPDEST PUSH1 0x0 DUP2 MLOAD SWAP1 POP SWAP2 SWAP1 POP JUMP JUMPDEST PUSH1 0x0 DUP2 SWAP1 POP SWAP3 SWAP2 POP POP JUMP JUMPDEST PUSH1 0x0 DUP3 DUP3 MSTORE PUSH1 0x20 DUP3 ADD SWAP1 POP SWAP3 SWAP2 POP POP JUMP JUMPDEST PUSH1 0x0 PUSH2 0x697 DUP3 PUSH2 0x69E JUMP JUMPDEST SWAP1 POP SWAP2 SWAP1 POP JUMP JUMPDEST PUSH1 0x0 PUSH20 0xFFFFFFFFFFFFFFFFFFFFFFFFFFFFFFFFFFFFFFFF DUP3 AND SWAP1 POP SWAP2 SWAP1 POP JUMP JUMPDEST PUSH1 0x0 DUP2 SWAP1 POP SWAP2 SWAP1 POP JUMP JUMPDEST PUSH1 0x0 PUSH1 0xFF DUP3 AND SWAP1 POP SWAP2 SWAP1 POP JUMP JUMPDEST PUSH1 0x0 PUSH2 0x6E0 DUP3 PUSH2 0x6C8 JUMP JUMPDEST SWAP1 POP SWAP2 SWAP1 POP JUMP JUMPDEST PUSH1 0x0 JUMPDEST DUP4 DUP2 LT ISZERO PUSH2 0x705 JUMPI DUP1 DUP3 ADD MLOAD DUP2 DUP5 ADD MSTORE PUSH1 0x20 DUP2 ADD SWAP1 POP PUSH2 0x6EA JUMP JUMPDEST DUP4 DUP2 GT ISZERO PUSH2 0x714 JUMPI PUSH1 0x0 DUP5 DUP5 ADD MSTORE JUMPDEST POP POP POP POP JUMP JUMPDEST PUSH1 0x0 DUP1 REVERT JUMPDEST PUSH32 0x4661696C65640000000000000000000000000000000000000000000000000000 PUSH1 0x0 DUP3 ADD MSTORE POP JUMP JUMPDEST PUSH32 0x4153440000000000000000000000000000000000000000000000000000000000 PUSH1 0x0 DUP3 ADD MSTORE POP JUMP JUMPDEST PUSH2 0x77A DUP2 PUSH2 0x68C JUMP JUMPDEST DUP2 EQ PUSH2 0x785 JUMPI PUSH1 0x0 DUP1 REVERT JUMPDEST POP JUMP JUMPDEST PUSH2 0x791 DUP2 PUSH2 0x6BE JUMP JUMPDEST DUP2 EQ PUSH2 0x79C JUMPI PUSH1 0x0 DUP1 REVERT JUMPDEST POP JUMP INVALID LOG2 PUSH5 0x6970667358 0x22 SLT KECCAK256 CALLDATASIZE 0xEB PUSH31 0x1EAB7A03622D1BE99D189C62C2BDFDF65AB14A8EB226F7C8B3CB67678A6473 PUSH16 0x6C634300080700330000000000000000 "
				},
				"gasEstimates": {
					"creation": {
						"codeDepositCost": "401000",
						"executionCost": "412",
						"totalCost": "401412"
					},
					"external": {
						"getX(address)": "infinite",
						"notExisting(address)": "infinite",
						"setX(address,uint256)": "infinite"
					}
				},
				"methodIdentifiers": {
					"getX(address)": "7c94c8ca",
					"notExisting(address)": "0895119b",
					"setX(address,uint256)": "4a2ad99f"
				}
			},
			"storageLayout": {
				"storage": [],
				"types": null
			},
			"userdoc": {
				"kind": "user",
				"methods": {},
				"version": 1
			}
		}
	}
}