{
	"AccessControl.sol": {
		"AccessControl": {
			"abi": [
				{
					"inputs": [],
					"name": "ADMIN",
					"outputs": [
						{
							"internalType": "bytes32",
							"name": "",
							"type": "bytes32"
						}
					],
					"stateMutability": "view",
					"type": "function"
				},
				{
					"inputs": [],
					"name": "USER",
					"outputs": [
						{
							"internalType": "bytes32",
							"name": "",
							"type": "bytes32"
						}
					],
					"stateMutability": "view",
					"type": "function"
				},
				{
					"inputs": [
						{
							"internalType": "bytes32",
							"name": "_role",
							"type": "bytes32"
						},
						{
							"internalType": "address",
							"name": "_account",
							"type": "address"
						}
					],
					"name": "_grantRole",
					"outputs": [],
					"stateMutability": "nonpayable",
					"type": "function"
				}
			],
			"devdoc": {
				"kind": "dev",
				"methods": {},
				"version": 1
			},
			"evm": {
				"assembly": "    /* \"AccessControl.sol\":56:521  contract AccessControl{... */\n  mstore(0x40, 0x80)\n  callvalue\n  dup1\n  iszero\n  tag_1\n  jumpi\n  0x00\n  dup1\n  revert\ntag_1:\n  pop\n  dataSize(sub_0)\n  dup1\n  dataOffset(sub_0)\n  0x00\n  codecopy\n  0x00\n  return\nstop\n\nsub_0: assembly {\n        /* \"AccessControl.sol\":56:521  contract AccessControl{... */\n      mstore(0x40, 0x80)\n      callvalue\n      dup1\n      iszero\n      tag_1\n      jumpi\n      0x00\n      dup1\n      revert\n    tag_1:\n      pop\n      jumpi(tag_2, lt(calldatasize, 0x04))\n      shr(0xe0, calldataload(0x00))\n      dup1\n      0x2a0acc6a\n      eq\n      tag_3\n      jumpi\n      dup1\n      0x81e167cf\n      eq\n      tag_4\n      jumpi\n      dup1\n      0xce2cc1d0\n      eq\n      tag_5\n      jumpi\n    tag_2:\n      0x00\n      dup1\n      revert\n        /* \"AccessControl.sol\":141:209  bytes32 public constant ADMIN = keccak256(abi.encodePacked(\"ADMIN\")) */\n    tag_3:\n      tag_6\n      tag_7\n      jump\t// in\n    tag_6:\n      mload(0x40)\n      tag_8\n      swap2\n      swap1\n      tag_9\n      jump\t// in\n    tag_8:\n      mload(0x40)\n      dup1\n      swap2\n      sub\n      swap1\n      return\n        /* \"AccessControl.sol\":215:281  bytes32 public constant USER = keccak256(abi.encodePacked(\"USER\")) */\n    tag_4:\n      tag_10\n      tag_11\n      jump\t// in\n    tag_10:\n      mload(0x40)\n      tag_12\n      swap2\n      swap1\n      tag_9\n      jump\t// in\n    tag_12:\n      mload(0x40)\n      dup1\n      swap2\n      sub\n      swap1\n      return\n        /* \"AccessControl.sol\":407:516  function _grantRole(bytes32  _role, address _account) external {... */\n    tag_5:\n      tag_13\n      0x04\n      dup1\n      calldatasize\n      sub\n      dup2\n      add\n      swap1\n      tag_14\n      swap2\n      swap1\n      tag_15\n      jump\t// in\n    tag_14:\n      tag_16\n      jump\t// in\n    tag_13:\n      stop\n        /* \"AccessControl.sol\":141:209  bytes32 public constant ADMIN = keccak256(abi.encodePacked(\"ADMIN\")) */\n    tag_7:\n        /* \"AccessControl.sol\":183:208  abi.encodePacked(\"ADMIN\") */\n      add(0x20, mload(0x40))\n      tag_17\n      swap1\n      tag_18\n      jump\t// in\n    tag_17:\n      mload(0x40)\n      0x20\n      dup2\n      dup4\n      sub\n      sub\n      dup2\n      mstore\n      swap1\n      0x40\n      mstore\n        /* \"AccessControl.sol\":173:209  keccak256(abi.encodePacked(\"ADMIN\")) */\n      dup1\n      mload\n      swap1\n      0x20\n      add\n      keccak256\n        /* \"AccessControl.sol\":141:209  bytes32 public constant ADMIN = keccak256(abi.encodePacked(\"ADMIN\")) */\n      dup2\n      jump\t// out\n        /* \"AccessControl.sol\":215:281  bytes32 public constant USER = keccak256(abi.encodePacked(\"USER\")) */\n    tag_11:\n        /* \"AccessControl.sol\":256:280  abi.encodePacked(\"USER\") */\n      add(0x20, mload(0x40))\n      tag_19\n      swap1\n      tag_20\n      jump\t// in\n    tag_19:\n      mload(0x40)\n      0x20\n      dup2\n      dup4\n      sub\n      sub\n      dup2\n      mstore\n      swap1\n      0x40\n      mstore\n        /* \"AccessControl.sol\":246:281  keccak256(abi.encodePacked(\"USER\")) */\n      dup1\n      mload\n      swap1\n      0x20\n      add\n      keccak256\n        /* \"AccessControl.sol\":215:281  bytes32 public constant USER = keccak256(abi.encodePacked(\"USER\")) */\n      dup2\n      jump\t// out\n        /* \"AccessControl.sol\":407:516  function _grantRole(bytes32  _role, address _account) external {... */\n    tag_16:\n        /* \"AccessControl.sol\":505:509  true */\n      0x01\n        /* \"AccessControl.sol\":480:485  roles */\n      0x00\n        /* \"AccessControl.sol\":480:492  roles[_role] */\n      dup1\n        /* \"AccessControl.sol\":486:491  _role */\n      dup5\n        /* \"AccessControl.sol\":480:492  roles[_role] */\n      dup2\n      mstore\n      0x20\n      add\n      swap1\n      dup2\n      mstore\n      0x20\n      add\n      0x00\n      keccak256\n        /* \"AccessControl.sol\":480:502  roles[_role][_account] */\n      0x00\n        /* \"AccessControl.sol\":493:501  _account */\n      dup4\n        /* \"AccessControl.sol\":480:502  roles[_role][_account] */\n      0xffffffffffffffffffffffffffffffffffffffff\n      and\n      0xffffffffffffffffffffffffffffffffffffffff\n      and\n      dup2\n      mstore\n      0x20\n      add\n      swap1\n      dup2\n      mstore\n      0x20\n      add\n      0x00\n      keccak256\n      0x00\n        /* \"AccessControl.sol\":480:509  roles[_role][_account] = true */\n      0x0100\n      exp\n      dup2\n      sload\n      dup2\n      0xff\n      mul\n      not\n      and\n      swap1\n      dup4\n      iszero\n      iszero\n      mul\n      or\n      swap1\n      sstore\n      pop\n        /* \"AccessControl.sol\":407:516  function _grantRole(bytes32  _role, address _account) external {... */\n      pop\n      pop\n      jump\t// out\n        /* \"#utility.yul\":7:146   */\n    tag_23:\n        /* \"#utility.yul\":53:58   */\n      0x00\n        /* \"#utility.yul\":91:97   */\n      dup2\n        /* \"#utility.yul\":78:98   */\n      calldataload\n        /* \"#utility.yul\":69:98   */\n      swap1\n      pop\n        /* \"#utility.yul\":107:140   */\n      tag_25\n        /* \"#utility.yul\":134:139   */\n      dup2\n        /* \"#utility.yul\":107:140   */\n      tag_26\n      jump\t// in\n    tag_25:\n        /* \"#utility.yul\":7:146   */\n      swap3\n      swap2\n      pop\n      pop\n      jump\t// out\n        /* \"#utility.yul\":152:291   */\n    tag_27:\n        /* \"#utility.yul\":198:203   */\n      0x00\n        /* \"#utility.yul\":236:242   */\n      dup2\n        /* \"#utility.yul\":223:243   */\n      calldataload\n        /* \"#utility.yul\":214:243   */\n      swap1\n      pop\n        /* \"#utility.yul\":252:285   */\n      tag_29\n        /* \"#utility.yul\":279:284   */\n      dup2\n        /* \"#utility.yul\":252:285   */\n      tag_30\n      jump\t// in\n    tag_29:\n        /* \"#utility.yul\":152:291   */\n      swap3\n      swap2\n      pop\n      pop\n      jump\t// out\n        /* \"#utility.yul\":297:771   */\n    tag_15:\n        /* \"#utility.yul\":365:371   */\n      0x00\n        /* \"#utility.yul\":373:379   */\n      dup1\n        /* \"#utility.yul\":422:424   */\n      0x40\n        /* \"#utility.yul\":410:419   */\n      dup4\n        /* \"#utility.yul\":401:408   */\n      dup6\n        /* \"#utility.yul\":397:420   */\n      sub\n        /* \"#utility.yul\":393:425   */\n      slt\n        /* \"#utility.yul\":390:509   */\n      iszero\n      tag_32\n      jumpi\n        /* \"#utility.yul\":428:507   */\n      tag_33\n      tag_34\n      jump\t// in\n    tag_33:\n        /* \"#utility.yul\":390:509   */\n    tag_32:\n        /* \"#utility.yul\":548:549   */\n      0x00\n        /* \"#utility.yul\":573:626   */\n      tag_35\n        /* \"#utility.yul\":618:625   */\n      dup6\n        /* \"#utility.yul\":609:615   */\n      dup3\n        /* \"#utility.yul\":598:607   */\n      dup7\n        /* \"#utility.yul\":594:616   */\n      add\n        /* \"#utility.yul\":573:626   */\n      tag_27\n      jump\t// in\n    tag_35:\n        /* \"#utility.yul\":563:626   */\n      swap3\n      pop\n        /* \"#utility.yul\":519:636   */\n      pop\n        /* \"#utility.yul\":675:677   */\n      0x20\n        /* \"#utility.yul\":701:754   */\n      tag_36\n        /* \"#utility.yul\":746:753   */\n      dup6\n        /* \"#utility.yul\":737:743   */\n      dup3\n        /* \"#utility.yul\":726:735   */\n      dup7\n        /* \"#utility.yul\":722:744   */\n      add\n        /* \"#utility.yul\":701:754   */\n      tag_23\n      jump\t// in\n    tag_36:\n        /* \"#utility.yul\":691:754   */\n      swap2\n      pop\n        /* \"#utility.yul\":646:764   */\n      pop\n        /* \"#utility.yul\":297:771   */\n      swap3\n      pop\n      swap3\n      swap1\n      pop\n      jump\t// out\n        /* \"#utility.yul\":777:895   */\n    tag_37:\n        /* \"#utility.yul\":864:888   */\n      tag_39\n        /* \"#utility.yul\":882:887   */\n      dup2\n        /* \"#utility.yul\":864:888   */\n      tag_40\n      jump\t// in\n    tag_39:\n        /* \"#utility.yul\":859:862   */\n      dup3\n        /* \"#utility.yul\":852:889   */\n      mstore\n        /* \"#utility.yul\":777:895   */\n      pop\n      pop\n      jump\t// out\n        /* \"#utility.yul\":901:1301   */\n    tag_41:\n        /* \"#utility.yul\":1061:1064   */\n      0x00\n        /* \"#utility.yul\":1082:1166   */\n      tag_43\n        /* \"#utility.yul\":1164:1165   */\n      0x04\n        /* \"#utility.yul\":1159:1162   */\n      dup4\n        /* \"#utility.yul\":1082:1166   */\n      tag_44\n      jump\t// in\n    tag_43:\n        /* \"#utility.yul\":1075:1166   */\n      swap2\n      pop\n        /* \"#utility.yul\":1175:1268   */\n      tag_45\n        /* \"#utility.yul\":1264:1267   */\n      dup3\n        /* \"#utility.yul\":1175:1268   */\n      tag_46\n      jump\t// in\n    tag_45:\n        /* \"#utility.yul\":1293:1294   */\n      0x04\n        /* \"#utility.yul\":1288:1291   */\n      dup3\n        /* \"#utility.yul\":1284:1295   */\n      add\n        /* \"#utility.yul\":1277:1295   */\n      swap1\n      pop\n        /* \"#utility.yul\":901:1301   */\n      swap2\n      swap1\n      pop\n      jump\t// out\n        /* \"#utility.yul\":1307:1707   */\n    tag_47:\n        /* \"#utility.yul\":1467:1470   */\n      0x00\n        /* \"#utility.yul\":1488:1572   */\n      tag_49\n        /* \"#utility.yul\":1570:1571   */\n      0x05\n        /* \"#utility.yul\":1565:1568   */\n      dup4\n        /* \"#utility.yul\":1488:1572   */\n      tag_44\n      jump\t// in\n    tag_49:\n        /* \"#utility.yul\":1481:1572   */\n      swap2\n      pop\n        /* \"#utility.yul\":1581:1674   */\n      tag_50\n        /* \"#utility.yul\":1670:1673   */\n      dup3\n        /* \"#utility.yul\":1581:1674   */\n      tag_51\n      jump\t// in\n    tag_50:\n        /* \"#utility.yul\":1699:1700   */\n      0x05\n        /* \"#utility.yul\":1694:1697   */\n      dup3\n        /* \"#utility.yul\":1690:1701   */\n      add\n        /* \"#utility.yul\":1683:1701   */\n      swap1\n      pop\n        /* \"#utility.yul\":1307:1707   */\n      swap2\n      swap1\n      pop\n      jump\t// out\n        /* \"#utility.yul\":1713:2094   */\n    tag_20:\n        /* \"#utility.yul\":1898:1901   */\n      0x00\n        /* \"#utility.yul\":1920:2068   */\n      tag_53\n        /* \"#utility.yul\":2064:2067   */\n      dup3\n        /* \"#utility.yul\":1920:2068   */\n      tag_41\n      jump\t// in\n    tag_53:\n        /* \"#utility.yul\":1913:2068   */\n      swap2\n      pop\n        /* \"#utility.yul\":2085:2088   */\n      dup2\n        /* \"#utility.yul\":2078:2088   */\n      swap1\n      pop\n        /* \"#utility.yul\":1713:2094   */\n      swap2\n      swap1\n      pop\n      jump\t// out\n        /* \"#utility.yul\":2100:2481   */\n    tag_18:\n        /* \"#utility.yul\":2285:2288   */\n      0x00\n        /* \"#utility.yul\":2307:2455   */\n      tag_55\n        /* \"#utility.yul\":2451:2454   */\n      dup3\n        /* \"#utility.yul\":2307:2455   */\n      tag_47\n      jump\t// in\n    tag_55:\n        /* \"#utility.yul\":2300:2455   */\n      swap2\n      pop\n        /* \"#utility.yul\":2472:2475   */\n      dup2\n        /* \"#utility.yul\":2465:2475   */\n      swap1\n      pop\n        /* \"#utility.yul\":2100:2481   */\n      swap2\n      swap1\n      pop\n      jump\t// out\n        /* \"#utility.yul\":2487:2709   */\n    tag_9:\n        /* \"#utility.yul\":2580:2584   */\n      0x00\n        /* \"#utility.yul\":2618:2620   */\n      0x20\n        /* \"#utility.yul\":2607:2616   */\n      dup3\n        /* \"#utility.yul\":2603:2621   */\n      add\n        /* \"#utility.yul\":2595:2621   */\n      swap1\n      pop\n        /* \"#utility.yul\":2631:2702   */\n      tag_57\n        /* \"#utility.yul\":2699:2700   */\n      0x00\n        /* \"#utility.yul\":2688:2697   */\n      dup4\n        /* \"#utility.yul\":2684:2701   */\n      add\n        /* \"#utility.yul\":2675:2681   */\n      dup5\n        /* \"#utility.yul\":2631:2702   */\n      tag_37\n      jump\t// in\n    tag_57:\n        /* \"#utility.yul\":2487:2709   */\n      swap3\n      swap2\n      pop\n      pop\n      jump\t// out\n        /* \"#utility.yul\":2796:2944   */\n    tag_44:\n        /* \"#utility.yul\":2898:2909   */\n      0x00\n        /* \"#utility.yul\":2935:2938   */\n      dup2\n        /* \"#utility.yul\":2920:2938   */\n      swap1\n      pop\n        /* \"#utility.yul\":2796:2944   */\n      swap3\n      swap2\n      pop\n      pop\n      jump\t// out\n        /* \"#utility.yul\":2950:3046   */\n    tag_61:\n        /* \"#utility.yul\":2987:2994   */\n      0x00\n        /* \"#utility.yul\":3016:3040   */\n      tag_63\n        /* \"#utility.yul\":3034:3039   */\n      dup3\n        /* \"#utility.yul\":3016:3040   */\n      tag_64\n      jump\t// in\n    tag_63:\n        /* \"#utility.yul\":3005:3040   */\n      swap1\n      pop\n        /* \"#utility.yul\":2950:3046   */\n      swap2\n      swap1\n      pop\n      jump\t// out\n        /* \"#utility.yul\":3052:3129   */\n    tag_40:\n        /* \"#utility.yul\":3089:3096   */\n      0x00\n        /* \"#utility.yul\":3118:3123   */\n      dup2\n        /* \"#utility.yul\":3107:3123   */\n      swap1\n      pop\n        /* \"#utility.yul\":3052:3129   */\n      swap2\n      swap1\n      pop\n      jump\t// out\n        /* \"#utility.yul\":3135:3261   */\n    tag_64:\n        /* \"#utility.yul\":3172:3179   */\n      0x00\n        /* \"#utility.yul\":3212:3254   */\n      0xffffffffffffffffffffffffffffffffffffffff\n        /* \"#utility.yul\":3205:3210   */\n      dup3\n        /* \"#utility.yul\":3201:3255   */\n      and\n        /* \"#utility.yul\":3190:3255   */\n      swap1\n      pop\n        /* \"#utility.yul\":3135:3261   */\n      swap2\n      swap1\n      pop\n      jump\t// out\n        /* \"#utility.yul\":3390:3507   */\n    tag_34:\n        /* \"#utility.yul\":3499:3500   */\n      0x00\n        /* \"#utility.yul\":3496:3497   */\n      dup1\n        /* \"#utility.yul\":3489:3501   */\n      revert\n        /* \"#utility.yul\":3513:3667   */\n    tag_46:\n        /* \"#utility.yul\":3653:3659   */\n      0x5553455200000000000000000000000000000000000000000000000000000000\n        /* \"#utility.yul\":3649:3650   */\n      0x00\n        /* \"#utility.yul\":3641:3647   */\n      dup3\n        /* \"#utility.yul\":3637:3651   */\n      add\n        /* \"#utility.yul\":3630:3660   */\n      mstore\n        /* \"#utility.yul\":3513:3667   */\n      pop\n      jump\t// out\n        /* \"#utility.yul\":3673:3828   */\n    tag_51:\n        /* \"#utility.yul\":3813:3820   */\n      0x41444d494e000000000000000000000000000000000000000000000000000000\n        /* \"#utility.yul\":3809:3810   */\n      0x00\n        /* \"#utility.yul\":3801:3807   */\n      dup3\n        /* \"#utility.yul\":3797:3811   */\n      add\n        /* \"#utility.yul\":3790:3821   */\n      mstore\n        /* \"#utility.yul\":3673:3828   */\n      pop\n      jump\t// out\n        /* \"#utility.yul\":3834:3956   */\n    tag_26:\n        /* \"#utility.yul\":3907:3931   */\n      tag_73\n        /* \"#utility.yul\":3925:3930   */\n      dup2\n        /* \"#utility.yul\":3907:3931   */\n      tag_61\n      jump\t// in\n    tag_73:\n        /* \"#utility.yul\":3900:3905   */\n      dup2\n        /* \"#utility.yul\":3897:3932   */\n      eq\n        /* \"#utility.yul\":3887:3950   */\n      tag_74\n      jumpi\n        /* \"#utility.yul\":3946:3947   */\n      0x00\n        /* \"#utility.yul\":3943:3944   */\n      dup1\n        /* \"#utility.yul\":3936:3948   */\n      revert\n        /* \"#utility.yul\":3887:3950   */\n    tag_74:\n        /* \"#utility.yul\":3834:3956   */\n      pop\n      jump\t// out\n        /* \"#utility.yul\":3962:4084   */\n    tag_30:\n        /* \"#utility.yul\":4035:4059   */\n      tag_76\n        /* \"#utility.yul\":4053:4058   */\n      dup2\n        /* \"#utility.yul\":4035:4059   */\n      tag_40\n      jump\t// in\n    tag_76:\n        /* \"#utility.yul\":4028:4033   */\n      dup2\n        /* \"#utility.yul\":4025:4060   */\n      eq\n        /* \"#utility.yul\":4015:4078   */\n      tag_77\n      jumpi\n        /* \"#utility.yul\":4074:4075   */\n      0x00\n        /* \"#utility.yul\":4071:4072   */\n      dup1\n        /* \"#utility.yul\":4064:4076   */\n      revert\n        /* \"#utility.yul\":4015:4078   */\n    tag_77:\n        /* \"#utility.yul\":3962:4084   */\n      pop\n      jump\t// out\n\n    auxdata: 0xa2646970667358221220a6830b2dd9eae13c6a9bd9617221bc9ba483881d85eab971c8b976fa29dd881164736f6c63430008070033\n}\n",
				"bytecode": {
					"linkReferences": {},
					"object": "608060405234801561001057600080fd5b50610360806100206000396000f3fe608060405234801561001057600080fd5b50600436106100415760003560e01c80632a0acc6a1461004657806381e167cf14610064578063ce2cc1d014610082575b600080fd5b61004e61009e565b60405161005b9190610243565b60405180910390f35b61006c6100c6565b6040516100799190610243565b60405180910390f35b61009c60048036038101906100979190610184565b6100ee565b005b6040516020016100ad9061022e565b6040516020818303038152906040528051906020012081565b6040516020016100d590610219565b6040516020818303038152906040528051906020012081565b600160008084815260200190815260200160002060008373ffffffffffffffffffffffffffffffffffffffff1673ffffffffffffffffffffffffffffffffffffffff16815260200190815260200160002060006101000a81548160ff0219169083151502179055505050565b600081359050610169816102fc565b92915050565b60008135905061017e81610313565b92915050565b6000806040838503121561019b5761019a6102a5565b5b60006101a98582860161016f565b92505060206101ba8582860161015a565b9150509250929050565b6101cd8161027b565b82525050565b60006101e060048361025e565b91506101eb826102aa565b600482019050919050565b600061020360058361025e565b915061020e826102d3565b600582019050919050565b6000610224826101d3565b9150819050919050565b6000610239826101f6565b9150819050919050565b600060208201905061025860008301846101c4565b92915050565b600081905092915050565b600061027482610285565b9050919050565b6000819050919050565b600073ffffffffffffffffffffffffffffffffffffffff82169050919050565b600080fd5b7f5553455200000000000000000000000000000000000000000000000000000000600082015250565b7f41444d494e000000000000000000000000000000000000000000000000000000600082015250565b61030581610269565b811461031057600080fd5b50565b61031c8161027b565b811461032757600080fd5b5056fea2646970667358221220a6830b2dd9eae13c6a9bd9617221bc9ba483881d85eab971c8b976fa29dd881164736f6c63430008070033",
					"opcodes": "PUSH1 0x80 PUSH1 0x40 MSTORE CALLVALUE DUP1 ISZERO PUSH2 0x10 JUMPI PUSH1 0x0 DUP1 REVERT JUMPDEST POP PUSH2 0x360 DUP1 PUSH2 0x20 PUSH1 0x0 CODECOPY PUSH1 0x0 RETURN INVALID PUSH1 0x80 PUSH1 0x40 MSTORE CALLVALUE DUP1 ISZERO PUSH2 0x10 JUMPI PUSH1 0x0 DUP1 REVERT JUMPDEST POP PUSH1 0x4 CALLDATASIZE LT PUSH2 0x41 JUMPI PUSH1 0x0 CALLDATALOAD PUSH1 0xE0 SHR DUP1 PUSH4 0x2A0ACC6A EQ PUSH2 0x46 JUMPI DUP1 PUSH4 0x81E167CF EQ PUSH2 0x64 JUMPI DUP1 PUSH4 0xCE2CC1D0 EQ PUSH2 0x82 JUMPI JUMPDEST PUSH1 0x0 DUP1 REVERT JUMPDEST PUSH2 0x4E PUSH2 0x9E JUMP JUMPDEST PUSH1 0x40 MLOAD PUSH2 0x5B SWAP2 SWAP1 PUSH2 0x243 JUMP JUMPDEST PUSH1 0x40 MLOAD DUP1 SWAP2 SUB SWAP1 RETURN JUMPDEST PUSH2 0x6C PUSH2 0xC6 JUMP JUMPDEST PUSH1 0x40 MLOAD PUSH2 0x79 SWAP2 SWAP1 PUSH2 0x243 JUMP JUMPDEST PUSH1 0x40 MLOAD DUP1 SWAP2 SUB SWAP1 RETURN JUMPDEST PUSH2 0x9C PUSH1 0x4 DUP1 CALLDATASIZE SUB DUP2 ADD SWAP1 PUSH2 0x97 SWAP2 SWAP1 PUSH2 0x184 JUMP JUMPDEST PUSH2 0xEE JUMP JUMPDEST STOP JUMPDEST PUSH1 0x40 MLOAD PUSH1 0x20 ADD PUSH2 0xAD SWAP1 PUSH2 0x22E JUMP JUMPDEST PUSH1 0x40 MLOAD PUSH1 0x20 DUP2 DUP4 SUB SUB DUP2 MSTORE SWAP1 PUSH1 0x40 MSTORE DUP1 MLOAD SWAP1 PUSH1 0x20 ADD KECCAK256 DUP2 JUMP JUMPDEST PUSH1 0x40 MLOAD PUSH1 0x20 ADD PUSH2 0xD5 SWAP1 PUSH2 0x219 JUMP JUMPDEST PUSH1 0x40 MLOAD PUSH1 0x20 DUP2 DUP4 SUB SUB DUP2 MSTORE SWAP1 PUSH1 0x40 MSTORE DUP1 MLOAD SWAP1 PUSH1 0x20 ADD KECCAK256 DUP2 JUMP JUMPDEST PUSH1 0x1 PUSH1 0x0 DUP1 DUP5 DUP2 MSTORE PUSH1 0x20 ADD SWAP1 DUP2 MSTORE PUSH1 0x20 ADD PUSH1 0x0 KECCAK256 PUSH1 0x0 DUP4 PUSH20 0xFFFFFFFFFFFFFFFFFFFFFFFFFFFFFFFFFFFFFFFF AND PUSH20 0xFFFFFFFFFFFFFFFFFFFFFFFFFFFFFFFFFFFFFFFF AND DUP2 MSTORE PUSH1 0x20 ADD SWAP1 DUP2 MSTORE PUSH1 0x20 ADD PUSH1 0x0 KECCAK256 PUSH1 0x0 PUSH2 0x100 EXP DUP2 SLOAD DUP2 PUSH1 0xFF MUL NOT AND SWAP1 DUP4 ISZERO ISZERO MUL OR SWAP1 SSTORE POP POP POP JUMP JUMPDEST PUSH1 0x0 DUP2 CALLDATALOAD SWAP1 POP PUSH2 0x169 DUP2 PUSH2 0x2FC JUMP JUMPDEST SWAP3 SWAP2 POP POP JUMP JUMPDEST PUSH1 0x0 DUP2 CALLDATALOAD SWAP1 POP PUSH2 0x17E DUP2 PUSH2 0x313 JUMP JUMPDEST SWAP3 SWAP2 POP POP JUMP JUMPDEST PUSH1 0x0 DUP1 PUSH1 0x40 DUP4 DUP6 SUB SLT ISZERO PUSH2 0x19B JUMPI PUSH2 0x19A PUSH2 0x2A5 JUMP JUMPDEST JUMPDEST PUSH1 0x0 PUSH2 0x1A9 DUP6 DUP3 DUP7 ADD PUSH2 0x16F JUMP JUMPDEST SWAP3 POP POP PUSH1 0x20 PUSH2 0x1BA DUP6 DUP3 DUP7 ADD PUSH2 0x15A JUMP JUMPDEST SWAP2 POP POP SWAP3 POP SWAP3 SWAP1 POP JUMP JUMPDEST PUSH2 0x1CD DUP2 PUSH2 0x27B JUMP JUMPDEST DUP3 MSTORE POP POP JUMP JUMPDEST PUSH1 0x0 PUSH2 0x1E0 PUSH1 0x4 DUP4 PUSH2 0x25E JUMP JUMPDEST SWAP2 POP PUSH2 0x1EB DUP3 PUSH2 0x2AA JUMP JUMPDEST PUSH1 0x4 DUP3 ADD SWAP1 POP SWAP2 SWAP1 POP JUMP JUMPDEST PUSH1 0x0 PUSH2 0x203 PUSH1 0x5 DUP4 PUSH2 0x25E JUMP JUMPDEST SWAP2 POP PUSH2 0x20E DUP3 PUSH2 0x2D3 JUMP JUMPDEST PUSH1 0x5 DUP3 ADD SWAP1 POP SWAP2 SWAP1 POP JUMP JUMPDEST PUSH1 0x0 PUSH2 0x224 DUP3 PUSH2 0x1D3 JUMP JUMPDEST SWAP2 POP DUP2 SWAP1 POP SWAP2 SWAP1 POP JUMP JUMPDEST PUSH1 0x0 PUSH2 0x239 DUP3 PUSH2 0x1F6 JUMP JUMPDEST SWAP2 POP DUP2 SWAP1 POP SWAP2 SWAP1 POP JUMP JUMPDEST PUSH1 0x0 PUSH1 0x20 DUP3 ADD SWAP1 POP PUSH2 0x258 PUSH1 0x0 DUP4 ADD DUP5 PUSH2 0x1C4 JUMP JUMPDEST SWAP3 SWAP2 POP POP JUMP JUMPDEST PUSH1 0x0 DUP2 SWAP1 POP SWAP3 SWAP2 POP POP JUMP JUMPDEST PUSH1 0x0 PUSH2 0x274 DUP3 PUSH2 0x285 JUMP JUMPDEST SWAP1 POP SWAP2 SWAP1 POP JUMP JUMPDEST PUSH1 0x0 DUP2 SWAP1 POP SWAP2 SWAP1 POP JUMP JUMPDEST PUSH1 0x0 PUSH20 0xFFFFFFFFFFFFFFFFFFFFFFFFFFFFFFFFFFFFFFFF DUP3 AND SWAP1 POP SWAP2 SWAP1 POP JUMP JUMPDEST PUSH1 0x0 DUP1 REVERT JUMPDEST PUSH32 0x5553455200000000000000000000000000000000000000000000000000000000 PUSH1 0x0 DUP3 ADD MSTORE POP JUMP JUMPDEST PUSH32 0x41444D494E000000000000000000000000000000000000000000000000000000 PUSH1 0x0 DUP3 ADD MSTORE POP JUMP JUMPDEST PUSH2 0x305 DUP2 PUSH2 0x269 JUMP JUMPDEST DUP2 EQ PUSH2 0x310 JUMPI PUSH1 0x0 DUP1 REVERT JUMPDEST POP JUMP JUMPDEST PUSH2 0x31C DUP2 PUSH2 0x27B JUMP JUMPDEST DUP2 EQ PUSH2 0x327 JUMPI PUSH1 0x0 DUP1 REVERT JUMPDEST POP JUMP INVALID LOG2 PUSH5 0x6970667358 0x22 SLT KECCAK256 0xA6 DUP4 SIGNEXTEND 0x2D 0xD9 0xEA 0xE1 EXTCODECOPY PUSH11 0x9BD9617221BC9BA483881D DUP6 0xEA 0xB9 PUSH18 0xC8B976FA29DD881164736F6C634300080700 CALLER "
				},
				"gasEstimates": {
					"creation": {
						"codeDepositCost": "172800",
						"executionCost": "214",
						"totalCost": "173014"
					},
					"external": {
						"ADMIN()": "612",
						"USER()": "634",
						"_grantRole(bytes32,address)": "25085"
					}
				},
				"methodIdentifiers": {
					"ADMIN()": "2a0acc6a",
					"USER()": "81e167cf",
					"_grantRole(bytes32,address)": "ce2cc1d0"
				}
			},
			"storageLayout": {
				"storage": [
					{
						"astId": 7,
						"contract": "AccessControl.sol:AccessControl",
						"label": "roles",
						"offset": 0,
						"slot": "0",
						"type": "t_mapping(t_bytes32,t_mapping(t_address,t_bool))"
					}
				],
				"types": {
					"t_address": {
						"encoding": "inplace",
						"label": "address",
						"numberOfBytes": "20"
					},
					"t_bool": {
						"encoding": "inplace",
						"label": "bool",
						"numberOfBytes": "1"
					},
					"t_bytes32": {
						"encoding": "inplace",
						"label": "bytes32",
						"numberOfBytes": "32"
					},
					"t_mapping(t_address,t_bool)": {
						"encoding": "mapping",
						"key": "t_address",
						"label": "mapping(address => bool)",
						"numberOfBytes": "32",
						"value": "t_bool"
					},
					"t_mapping(t_bytes32,t_mapping(t_address,t_bool))": {
						"encoding": "mapping",
						"key": "t_bytes32",
						"label": "mapping(bytes32 => mapping(address => bool))",
						"numberOfBytes": "32",
						"value": "t_mapping(t_address,t_bool)"
					}
				}
			},
			"userdoc": {
				"kind": "user",
				"methods": {},
				"version": 1
			}
		}
	}
}