{
	"Documents/dev/Lime/contracts/HellowWorld.sol": {
		"HellowWorld": {
			"abi": [
				{
					"inputs": [],
					"name": "b",
					"outputs": [
						{
							"internalType": "bool",
							"name": "",
							"type": "bool"
						}
					],
					"stateMutability": "view",
					"type": "function"
				},
				{
					"inputs": [],
					"name": "i",
					"outputs": [
						{
							"internalType": "int256",
							"name": "",
							"type": "int256"
						}
					],
					"stateMutability": "view",
					"type": "function"
				},
				{
					"inputs": [],
					"name": "maxInt",
					"outputs": [
						{
							"internalType": "int256",
							"name": "",
							"type": "int256"
						}
					],
					"stateMutability": "view",
					"type": "function"
				},
				{
					"inputs": [],
					"name": "minInt",
					"outputs": [
						{
							"internalType": "int256",
							"name": "",
							"type": "int256"
						}
					],
					"stateMutability": "view",
					"type": "function"
				},
				{
					"inputs": [],
					"name": "myString",
					"outputs": [
						{
							"internalType": "string",
							"name": "",
							"type": "string"
						}
					],
					"stateMutability": "view",
					"type": "function"
				},
				{
					"inputs": [],
					"name": "u",
					"outputs": [
						{
							"internalType": "uint256",
							"name": "",
							"type": "uint256"
						}
					],
					"stateMutability": "view",
					"type": "function"
				}
			],
			"devdoc": {
				"kind": "dev",
				"methods": {},
				"version": 1
			},
			"evm": {
				"assembly": "    /* \"Documents/dev/Lime/contracts/HellowWorld.sol\":57:285  contract HellowWorld{... */\n  mstore(0x40, 0x80)\n    /* \"Documents/dev/Lime/contracts/HellowWorld.sol\":83:123  string public myString = \"Hellow world!\" */\n  mload(0x40)\n  dup1\n  0x40\n  add\n  0x40\n  mstore\n  dup1\n  0x0d\n  dup2\n  mstore\n  0x20\n  add\n  0x48656c6c6f7720776f726c642100000000000000000000000000000000000000\n  dup2\n  mstore\n  pop\n  0x00\n  swap1\n  dup1\n  mload\n  swap1\n  0x20\n  add\n  swap1\n  tag_1\n  swap3\n  swap2\n  swap1\n  tag_2\n  jump\t// in\ntag_1:\n  pop\n    /* \"Documents/dev/Lime/contracts/HellowWorld.sol\":145:149  true */\n  0x01\n    /* \"Documents/dev/Lime/contracts/HellowWorld.sol\":129:149  bool public b = true */\n  dup1\n  exp(0x0100, 0x00)\n  dup2\n  sload\n  dup2\n  0xff\n  mul\n  not\n  and\n  swap1\n  dup4\n  iszero\n  iszero\n  mul\n  or\n  swap1\n  sstore\n  pop\n    /* \"Documents/dev/Lime/contracts/HellowWorld.sol\":171:174  123 */\n  0x7b\n    /* \"Documents/dev/Lime/contracts/HellowWorld.sol\":155:174  uint public u = 123 */\n  0x02\n  sstore\n    /* \"Documents/dev/Lime/contracts/HellowWorld.sol\":195:199  -123 */\n  0xffffffffffffffffffffffffffffffffffffffffffffffffffffffffffffff85\n    /* \"Documents/dev/Lime/contracts/HellowWorld.sol\":180:199  int public i = -123 */\n  0x03\n  sstore\n    /* \"Documents/dev/Lime/contracts/HellowWorld.sol\":225:238  type(int).min */\n  0x8000000000000000000000000000000000000000000000000000000000000000\n    /* \"Documents/dev/Lime/contracts/HellowWorld.sol\":205:238  int public minInt = type(int).min */\n  0x04\n  sstore\n    /* \"Documents/dev/Lime/contracts/HellowWorld.sol\":264:277  type(int).max */\n  0x7fffffffffffffffffffffffffffffffffffffffffffffffffffffffffffffff\n    /* \"Documents/dev/Lime/contracts/HellowWorld.sol\":244:277  int public maxInt = type(int).max */\n  0x05\n  sstore\n    /* \"Documents/dev/Lime/contracts/HellowWorld.sol\":57:285  contract HellowWorld{... */\n  callvalue\n  dup1\n  iszero\n  tag_3\n  jumpi\n  0x00\n  dup1\n  revert\ntag_3:\n  pop\n  jump(tag_4)\ntag_2:\n  dup3\n  dup1\n  sload\n  tag_5\n  swap1\n  tag_6\n  jump\t// in\ntag_5:\n  swap1\n  0x00\n  mstore\n  keccak256(0x00, 0x20)\n  swap1\n  0x1f\n  add\n  0x20\n  swap1\n  div\n  dup2\n  add\n  swap3\n  dup3\n  tag_8\n  jumpi\n  0x00\n  dup6\n  sstore\n  jump(tag_7)\ntag_8:\n  dup3\n  0x1f\n  lt\n  tag_9\n  jumpi\n  dup1\n  mload\n  not(0xff)\n  and\n  dup4\n  dup1\n  add\n  or\n  dup6\n  sstore\n  jump(tag_7)\ntag_9:\n  dup3\n  dup1\n  add\n  0x01\n  add\n  dup6\n  sstore\n  dup3\n  iszero\n  tag_7\n  jumpi\n  swap2\n  dup3\n  add\ntag_10:\n  dup3\n  dup2\n  gt\n  iszero\n  tag_11\n  jumpi\n  dup3\n  mload\n  dup3\n  sstore\n  swap2\n  0x20\n  add\n  swap2\n  swap1\n  0x01\n  add\n  swap1\n  jump(tag_10)\ntag_11:\ntag_7:\n  pop\n  swap1\n  pop\n  tag_12\n  swap2\n  swap1\n  tag_13\n  jump\t// in\ntag_12:\n  pop\n  swap1\n  jump\t// out\ntag_13:\ntag_14:\n  dup1\n  dup3\n  gt\n  iszero\n  tag_15\n  jumpi\n  0x00\n  dup2\n  0x00\n  swap1\n  sstore\n  pop\n  0x01\n  add\n  jump(tag_14)\ntag_15:\n  pop\n  swap1\n  jump\t// out\n    /* \"#utility.yul\":7:327   */\ntag_6:\n    /* \"#utility.yul\":51:57   */\n  0x00\n    /* \"#utility.yul\":88:89   */\n  0x02\n    /* \"#utility.yul\":82:86   */\n  dup3\n    /* \"#utility.yul\":78:90   */\n  div\n    /* \"#utility.yul\":68:90   */\n  swap1\n  pop\n    /* \"#utility.yul\":135:136   */\n  0x01\n    /* \"#utility.yul\":129:133   */\n  dup3\n    /* \"#utility.yul\":125:137   */\n  and\n    /* \"#utility.yul\":156:174   */\n  dup1\n    /* \"#utility.yul\":146:227   */\n  tag_18\n  jumpi\n    /* \"#utility.yul\":212:216   */\n  0x7f\n    /* \"#utility.yul\":204:210   */\n  dup3\n    /* \"#utility.yul\":200:217   */\n  and\n    /* \"#utility.yul\":190:217   */\n  swap2\n  pop\n    /* \"#utility.yul\":146:227   */\ntag_18:\n    /* \"#utility.yul\":274:276   */\n  0x20\n    /* \"#utility.yul\":266:272   */\n  dup3\n    /* \"#utility.yul\":263:277   */\n  lt\n    /* \"#utility.yul\":243:261   */\n  dup2\n    /* \"#utility.yul\":240:278   */\n  eq\n    /* \"#utility.yul\":237:321   */\n  iszero\n  tag_19\n  jumpi\n    /* \"#utility.yul\":293:311   */\n  tag_20\n  tag_21\n  jump\t// in\ntag_20:\n    /* \"#utility.yul\":237:321   */\ntag_19:\n    /* \"#utility.yul\":58:327   */\n  pop\n    /* \"#utility.yul\":7:327   */\n  swap2\n  swap1\n  pop\n  jump\t// out\n    /* \"#utility.yul\":333:513   */\ntag_21:\n    /* \"#utility.yul\":381:458   */\n  0x4e487b7100000000000000000000000000000000000000000000000000000000\n    /* \"#utility.yul\":378:379   */\n  0x00\n    /* \"#utility.yul\":371:459   */\n  mstore\n    /* \"#utility.yul\":478:482   */\n  0x22\n    /* \"#utility.yul\":475:476   */\n  0x04\n    /* \"#utility.yul\":468:483   */\n  mstore\n    /* \"#utility.yul\":502:506   */\n  0x24\n    /* \"#utility.yul\":499:500   */\n  0x00\n    /* \"#utility.yul\":492:507   */\n  revert\n    /* \"Documents/dev/Lime/contracts/HellowWorld.sol\":57:285  contract HellowWorld{... */\ntag_4:\n  dataSize(sub_0)\n  dup1\n  dataOffset(sub_0)\n  0x00\n  codecopy\n  0x00\n  return\nstop\n\nsub_0: assembly {\n        /* \"Documents/dev/Lime/contracts/HellowWorld.sol\":57:285  contract HellowWorld{... */\n      mstore(0x40, 0x80)\n      callvalue\n      dup1\n      iszero\n      tag_1\n      jumpi\n      0x00\n      dup1\n      revert\n    tag_1:\n      pop\n      jumpi(tag_2, lt(calldatasize, 0x04))\n      shr(0xe0, calldataload(0x00))\n      dup1\n      0x492bfa18\n      eq\n      tag_3\n      jumpi\n      dup1\n      0x4df7e3d0\n      eq\n      tag_4\n      jumpi\n      dup1\n      0x7a4c2571\n      eq\n      tag_5\n      jumpi\n      dup1\n      0x7e4e14cc\n      eq\n      tag_6\n      jumpi\n      dup1\n      0xc6a898c5\n      eq\n      tag_7\n      jumpi\n      dup1\n      0xe5aa3d58\n      eq\n      tag_8\n      jumpi\n    tag_2:\n      0x00\n      dup1\n      revert\n        /* \"Documents/dev/Lime/contracts/HellowWorld.sol\":83:123  string public myString = \"Hellow world!\" */\n    tag_3:\n      tag_9\n      tag_10\n      jump\t// in\n    tag_9:\n      mload(0x40)\n      tag_11\n      swap2\n      swap1\n      tag_12\n      jump\t// in\n    tag_11:\n      mload(0x40)\n      dup1\n      swap2\n      sub\n      swap1\n      return\n        /* \"Documents/dev/Lime/contracts/HellowWorld.sol\":129:149  bool public b = true */\n    tag_4:\n      tag_13\n      tag_14\n      jump\t// in\n    tag_13:\n      mload(0x40)\n      tag_15\n      swap2\n      swap1\n      tag_16\n      jump\t// in\n    tag_15:\n      mload(0x40)\n      dup1\n      swap2\n      sub\n      swap1\n      return\n        /* \"Documents/dev/Lime/contracts/HellowWorld.sol\":244:277  int public maxInt = type(int).max */\n    tag_5:\n      tag_17\n      tag_18\n      jump\t// in\n    tag_17:\n      mload(0x40)\n      tag_19\n      swap2\n      swap1\n      tag_20\n      jump\t// in\n    tag_19:\n      mload(0x40)\n      dup1\n      swap2\n      sub\n      swap1\n      return\n        /* \"Documents/dev/Lime/contracts/HellowWorld.sol\":205:238  int public minInt = type(int).min */\n    tag_6:\n      tag_21\n      tag_22\n      jump\t// in\n    tag_21:\n      mload(0x40)\n      tag_23\n      swap2\n      swap1\n      tag_20\n      jump\t// in\n    tag_23:\n      mload(0x40)\n      dup1\n      swap2\n      sub\n      swap1\n      return\n        /* \"Documents/dev/Lime/contracts/HellowWorld.sol\":155:174  uint public u = 123 */\n    tag_7:\n      tag_24\n      tag_25\n      jump\t// in\n    tag_24:\n      mload(0x40)\n      tag_26\n      swap2\n      swap1\n      tag_27\n      jump\t// in\n    tag_26:\n      mload(0x40)\n      dup1\n      swap2\n      sub\n      swap1\n      return\n        /* \"Documents/dev/Lime/contracts/HellowWorld.sol\":180:199  int public i = -123 */\n    tag_8:\n      tag_28\n      tag_29\n      jump\t// in\n    tag_28:\n      mload(0x40)\n      tag_30\n      swap2\n      swap1\n      tag_20\n      jump\t// in\n    tag_30:\n      mload(0x40)\n      dup1\n      swap2\n      sub\n      swap1\n      return\n        /* \"Documents/dev/Lime/contracts/HellowWorld.sol\":83:123  string public myString = \"Hellow world!\" */\n    tag_10:\n      0x00\n      dup1\n      sload\n      tag_31\n      swap1\n      tag_32\n      jump\t// in\n    tag_31:\n      dup1\n      0x1f\n      add\n      0x20\n      dup1\n      swap2\n      div\n      mul\n      0x20\n      add\n      mload(0x40)\n      swap1\n      dup2\n      add\n      0x40\n      mstore\n      dup1\n      swap3\n      swap2\n      swap1\n      dup2\n      dup2\n      mstore\n      0x20\n      add\n      dup3\n      dup1\n      sload\n      tag_33\n      swap1\n      tag_32\n      jump\t// in\n    tag_33:\n      dup1\n      iszero\n      tag_34\n      jumpi\n      dup1\n      0x1f\n      lt\n      tag_35\n      jumpi\n      0x0100\n      dup1\n      dup4\n      sload\n      div\n      mul\n      dup4\n      mstore\n      swap2\n      0x20\n      add\n      swap2\n      jump(tag_34)\n    tag_35:\n      dup3\n      add\n      swap2\n      swap1\n      0x00\n      mstore\n      keccak256(0x00, 0x20)\n      swap1\n    tag_36:\n      dup2\n      sload\n      dup2\n      mstore\n      swap1\n      0x01\n      add\n      swap1\n      0x20\n      add\n      dup1\n      dup4\n      gt\n      tag_36\n      jumpi\n      dup3\n      swap1\n      sub\n      0x1f\n      and\n      dup3\n      add\n      swap2\n    tag_34:\n      pop\n      pop\n      pop\n      pop\n      pop\n      dup2\n      jump\t// out\n        /* \"Documents/dev/Lime/contracts/HellowWorld.sol\":129:149  bool public b = true */\n    tag_14:\n      0x01\n      0x00\n      swap1\n      sload\n      swap1\n      0x0100\n      exp\n      swap1\n      div\n      0xff\n      and\n      dup2\n      jump\t// out\n        /* \"Documents/dev/Lime/contracts/HellowWorld.sol\":244:277  int public maxInt = type(int).max */\n    tag_18:\n      sload(0x05)\n      dup2\n      jump\t// out\n        /* \"Documents/dev/Lime/contracts/HellowWorld.sol\":205:238  int public minInt = type(int).min */\n    tag_22:\n      sload(0x04)\n      dup2\n      jump\t// out\n        /* \"Documents/dev/Lime/contracts/HellowWorld.sol\":155:174  uint public u = 123 */\n    tag_25:\n      sload(0x02)\n      dup2\n      jump\t// out\n        /* \"Documents/dev/Lime/contracts/HellowWorld.sol\":180:199  int public i = -123 */\n    tag_29:\n      sload(0x03)\n      dup2\n      jump\t// out\n        /* \"#utility.yul\":7:116   */\n    tag_38:\n        /* \"#utility.yul\":88:109   */\n      tag_40\n        /* \"#utility.yul\":103:108   */\n      dup2\n        /* \"#utility.yul\":88:109   */\n      tag_41\n      jump\t// in\n    tag_40:\n        /* \"#utility.yul\":83:86   */\n      dup3\n        /* \"#utility.yul\":76:110   */\n      mstore\n        /* \"#utility.yul\":7:116   */\n      pop\n      pop\n      jump\t// out\n        /* \"#utility.yul\":122:237   */\n    tag_42:\n        /* \"#utility.yul\":207:230   */\n      tag_44\n        /* \"#utility.yul\":224:229   */\n      dup2\n        /* \"#utility.yul\":207:230   */\n      tag_45\n      jump\t// in\n    tag_44:\n        /* \"#utility.yul\":202:205   */\n      dup3\n        /* \"#utility.yul\":195:231   */\n      mstore\n        /* \"#utility.yul\":122:237   */\n      pop\n      pop\n      jump\t// out\n        /* \"#utility.yul\":243:607   */\n    tag_46:\n        /* \"#utility.yul\":331:334   */\n      0x00\n        /* \"#utility.yul\":359:398   */\n      tag_48\n        /* \"#utility.yul\":392:397   */\n      dup3\n        /* \"#utility.yul\":359:398   */\n      tag_49\n      jump\t// in\n    tag_48:\n        /* \"#utility.yul\":414:485   */\n      tag_50\n        /* \"#utility.yul\":478:484   */\n      dup2\n        /* \"#utility.yul\":473:476   */\n      dup6\n        /* \"#utility.yul\":414:485   */\n      tag_51\n      jump\t// in\n    tag_50:\n        /* \"#utility.yul\":407:485   */\n      swap4\n      pop\n        /* \"#utility.yul\":494:546   */\n      tag_52\n        /* \"#utility.yul\":539:545   */\n      dup2\n        /* \"#utility.yul\":534:537   */\n      dup6\n        /* \"#utility.yul\":527:531   */\n      0x20\n        /* \"#utility.yul\":520:525   */\n      dup7\n        /* \"#utility.yul\":516:532   */\n      add\n        /* \"#utility.yul\":494:546   */\n      tag_53\n      jump\t// in\n    tag_52:\n        /* \"#utility.yul\":571:600   */\n      tag_54\n        /* \"#utility.yul\":593:599   */\n      dup2\n        /* \"#utility.yul\":571:600   */\n      tag_55\n      jump\t// in\n    tag_54:\n        /* \"#utility.yul\":566:569   */\n      dup5\n        /* \"#utility.yul\":562:601   */\n      add\n        /* \"#utility.yul\":555:601   */\n      swap2\n      pop\n        /* \"#utility.yul\":335:607   */\n      pop\n        /* \"#utility.yul\":243:607   */\n      swap3\n      swap2\n      pop\n      pop\n      jump\t// out\n        /* \"#utility.yul\":613:731   */\n    tag_56:\n        /* \"#utility.yul\":700:724   */\n      tag_58\n        /* \"#utility.yul\":718:723   */\n      dup2\n        /* \"#utility.yul\":700:724   */\n      tag_59\n      jump\t// in\n    tag_58:\n        /* \"#utility.yul\":695:698   */\n      dup3\n        /* \"#utility.yul\":688:725   */\n      mstore\n        /* \"#utility.yul\":613:731   */\n      pop\n      pop\n      jump\t// out\n        /* \"#utility.yul\":737:947   */\n    tag_16:\n        /* \"#utility.yul\":824:828   */\n      0x00\n        /* \"#utility.yul\":862:864   */\n      0x20\n        /* \"#utility.yul\":851:860   */\n      dup3\n        /* \"#utility.yul\":847:865   */\n      add\n        /* \"#utility.yul\":839:865   */\n      swap1\n      pop\n        /* \"#utility.yul\":875:940   */\n      tag_61\n        /* \"#utility.yul\":937:938   */\n      0x00\n        /* \"#utility.yul\":926:935   */\n      dup4\n        /* \"#utility.yul\":922:939   */\n      add\n        /* \"#utility.yul\":913:919   */\n      dup5\n        /* \"#utility.yul\":875:940   */\n      tag_38\n      jump\t// in\n    tag_61:\n        /* \"#utility.yul\":737:947   */\n      swap3\n      swap2\n      pop\n      pop\n      jump\t// out\n        /* \"#utility.yul\":953:1171   */\n    tag_20:\n        /* \"#utility.yul\":1044:1048   */\n      0x00\n        /* \"#utility.yul\":1082:1084   */\n      0x20\n        /* \"#utility.yul\":1071:1080   */\n      dup3\n        /* \"#utility.yul\":1067:1085   */\n      add\n        /* \"#utility.yul\":1059:1085   */\n      swap1\n      pop\n        /* \"#utility.yul\":1095:1164   */\n      tag_63\n        /* \"#utility.yul\":1161:1162   */\n      0x00\n        /* \"#utility.yul\":1150:1159   */\n      dup4\n        /* \"#utility.yul\":1146:1163   */\n      add\n        /* \"#utility.yul\":1137:1143   */\n      dup5\n        /* \"#utility.yul\":1095:1164   */\n      tag_42\n      jump\t// in\n    tag_63:\n        /* \"#utility.yul\":953:1171   */\n      swap3\n      swap2\n      pop\n      pop\n      jump\t// out\n        /* \"#utility.yul\":1177:1490   */\n    tag_12:\n        /* \"#utility.yul\":1290:1294   */\n      0x00\n        /* \"#utility.yul\":1328:1330   */\n      0x20\n        /* \"#utility.yul\":1317:1326   */\n      dup3\n        /* \"#utility.yul\":1313:1331   */\n      add\n        /* \"#utility.yul\":1305:1331   */\n      swap1\n      pop\n        /* \"#utility.yul\":1377:1386   */\n      dup2\n        /* \"#utility.yul\":1371:1375   */\n      dup2\n        /* \"#utility.yul\":1367:1387   */\n      sub\n        /* \"#utility.yul\":1363:1364   */\n      0x00\n        /* \"#utility.yul\":1352:1361   */\n      dup4\n        /* \"#utility.yul\":1348:1365   */\n      add\n        /* \"#utility.yul\":1341:1388   */\n      mstore\n        /* \"#utility.yul\":1405:1483   */\n      tag_65\n        /* \"#utility.yul\":1478:1482   */\n      dup2\n        /* \"#utility.yul\":1469:1475   */\n      dup5\n        /* \"#utility.yul\":1405:1483   */\n      tag_46\n      jump\t// in\n    tag_65:\n        /* \"#utility.yul\":1397:1483   */\n      swap1\n      pop\n        /* \"#utility.yul\":1177:1490   */\n      swap3\n      swap2\n      pop\n      pop\n      jump\t// out\n        /* \"#utility.yul\":1496:1718   */\n    tag_27:\n        /* \"#utility.yul\":1589:1593   */\n      0x00\n        /* \"#utility.yul\":1627:1629   */\n      0x20\n        /* \"#utility.yul\":1616:1625   */\n      dup3\n        /* \"#utility.yul\":1612:1630   */\n      add\n        /* \"#utility.yul\":1604:1630   */\n      swap1\n      pop\n        /* \"#utility.yul\":1640:1711   */\n      tag_67\n        /* \"#utility.yul\":1708:1709   */\n      0x00\n        /* \"#utility.yul\":1697:1706   */\n      dup4\n        /* \"#utility.yul\":1693:1710   */\n      add\n        /* \"#utility.yul\":1684:1690   */\n      dup5\n        /* \"#utility.yul\":1640:1711   */\n      tag_56\n      jump\t// in\n    tag_67:\n        /* \"#utility.yul\":1496:1718   */\n      swap3\n      swap2\n      pop\n      pop\n      jump\t// out\n        /* \"#utility.yul\":1724:1823   */\n    tag_49:\n        /* \"#utility.yul\":1776:1782   */\n      0x00\n        /* \"#utility.yul\":1810:1815   */\n      dup2\n        /* \"#utility.yul\":1804:1816   */\n      mload\n        /* \"#utility.yul\":1794:1816   */\n      swap1\n      pop\n        /* \"#utility.yul\":1724:1823   */\n      swap2\n      swap1\n      pop\n      jump\t// out\n        /* \"#utility.yul\":1829:1998   */\n    tag_51:\n        /* \"#utility.yul\":1913:1924   */\n      0x00\n        /* \"#utility.yul\":1947:1953   */\n      dup3\n        /* \"#utility.yul\":1942:1945   */\n      dup3\n        /* \"#utility.yul\":1935:1954   */\n      mstore\n        /* \"#utility.yul\":1987:1991   */\n      0x20\n        /* \"#utility.yul\":1982:1985   */\n      dup3\n        /* \"#utility.yul\":1978:1992   */\n      add\n        /* \"#utility.yul\":1963:1992   */\n      swap1\n      pop\n        /* \"#utility.yul\":1829:1998   */\n      swap3\n      swap2\n      pop\n      pop\n      jump\t// out\n        /* \"#utility.yul\":2004:2094   */\n    tag_41:\n        /* \"#utility.yul\":2038:2045   */\n      0x00\n        /* \"#utility.yul\":2081:2086   */\n      dup2\n        /* \"#utility.yul\":2074:2087   */\n      iszero\n        /* \"#utility.yul\":2067:2088   */\n      iszero\n        /* \"#utility.yul\":2056:2088   */\n      swap1\n      pop\n        /* \"#utility.yul\":2004:2094   */\n      swap2\n      swap1\n      pop\n      jump\t// out\n        /* \"#utility.yul\":2100:2176   */\n    tag_45:\n        /* \"#utility.yul\":2136:2143   */\n      0x00\n        /* \"#utility.yul\":2165:2170   */\n      dup2\n        /* \"#utility.yul\":2154:2170   */\n      swap1\n      pop\n        /* \"#utility.yul\":2100:2176   */\n      swap2\n      swap1\n      pop\n      jump\t// out\n        /* \"#utility.yul\":2182:2259   */\n    tag_59:\n        /* \"#utility.yul\":2219:2226   */\n      0x00\n        /* \"#utility.yul\":2248:2253   */\n      dup2\n        /* \"#utility.yul\":2237:2253   */\n      swap1\n      pop\n        /* \"#utility.yul\":2182:2259   */\n      swap2\n      swap1\n      pop\n      jump\t// out\n        /* \"#utility.yul\":2265:2572   */\n    tag_53:\n        /* \"#utility.yul\":2333:2334   */\n      0x00\n        /* \"#utility.yul\":2343:2456   */\n    tag_74:\n        /* \"#utility.yul\":2357:2363   */\n      dup4\n        /* \"#utility.yul\":2354:2355   */\n      dup2\n        /* \"#utility.yul\":2351:2364   */\n      lt\n        /* \"#utility.yul\":2343:2456   */\n      iszero\n      tag_76\n      jumpi\n        /* \"#utility.yul\":2442:2443   */\n      dup1\n        /* \"#utility.yul\":2437:2440   */\n      dup3\n        /* \"#utility.yul\":2433:2444   */\n      add\n        /* \"#utility.yul\":2427:2445   */\n      mload\n        /* \"#utility.yul\":2423:2424   */\n      dup2\n        /* \"#utility.yul\":2418:2421   */\n      dup5\n        /* \"#utility.yul\":2414:2425   */\n      add\n        /* \"#utility.yul\":2407:2446   */\n      mstore\n        /* \"#utility.yul\":2379:2381   */\n      0x20\n        /* \"#utility.yul\":2376:2377   */\n      dup2\n        /* \"#utility.yul\":2372:2382   */\n      add\n        /* \"#utility.yul\":2367:2382   */\n      swap1\n      pop\n        /* \"#utility.yul\":2343:2456   */\n      jump(tag_74)\n    tag_76:\n        /* \"#utility.yul\":2474:2480   */\n      dup4\n        /* \"#utility.yul\":2471:2472   */\n      dup2\n        /* \"#utility.yul\":2468:2481   */\n      gt\n        /* \"#utility.yul\":2465:2566   */\n      iszero\n      tag_77\n      jumpi\n        /* \"#utility.yul\":2554:2555   */\n      0x00\n        /* \"#utility.yul\":2545:2551   */\n      dup5\n        /* \"#utility.yul\":2540:2543   */\n      dup5\n        /* \"#utility.yul\":2536:2552   */\n      add\n        /* \"#utility.yul\":2529:2556   */\n      mstore\n        /* \"#utility.yul\":2465:2566   */\n    tag_77:\n        /* \"#utility.yul\":2314:2572   */\n      pop\n        /* \"#utility.yul\":2265:2572   */\n      pop\n      pop\n      pop\n      jump\t// out\n        /* \"#utility.yul\":2578:2898   */\n    tag_32:\n        /* \"#utility.yul\":2622:2628   */\n      0x00\n        /* \"#utility.yul\":2659:2660   */\n      0x02\n        /* \"#utility.yul\":2653:2657   */\n      dup3\n        /* \"#utility.yul\":2649:2661   */\n      div\n        /* \"#utility.yul\":2639:2661   */\n      swap1\n      pop\n        /* \"#utility.yul\":2706:2707   */\n      0x01\n        /* \"#utility.yul\":2700:2704   */\n      dup3\n        /* \"#utility.yul\":2696:2708   */\n      and\n        /* \"#utility.yul\":2727:2745   */\n      dup1\n        /* \"#utility.yul\":2717:2798   */\n      tag_79\n      jumpi\n        /* \"#utility.yul\":2783:2787   */\n      0x7f\n        /* \"#utility.yul\":2775:2781   */\n      dup3\n        /* \"#utility.yul\":2771:2788   */\n      and\n        /* \"#utility.yul\":2761:2788   */\n      swap2\n      pop\n        /* \"#utility.yul\":2717:2798   */\n    tag_79:\n        /* \"#utility.yul\":2845:2847   */\n      0x20\n        /* \"#utility.yul\":2837:2843   */\n      dup3\n        /* \"#utility.yul\":2834:2848   */\n      lt\n        /* \"#utility.yul\":2814:2832   */\n      dup2\n        /* \"#utility.yul\":2811:2849   */\n      eq\n        /* \"#utility.yul\":2808:2892   */\n      iszero\n      tag_80\n      jumpi\n        /* \"#utility.yul\":2864:2882   */\n      tag_81\n      tag_82\n      jump\t// in\n    tag_81:\n        /* \"#utility.yul\":2808:2892   */\n    tag_80:\n        /* \"#utility.yul\":2629:2898   */\n      pop\n        /* \"#utility.yul\":2578:2898   */\n      swap2\n      swap1\n      pop\n      jump\t// out\n        /* \"#utility.yul\":2904:3084   */\n    tag_82:\n        /* \"#utility.yul\":2952:3029   */\n      0x4e487b7100000000000000000000000000000000000000000000000000000000\n        /* \"#utility.yul\":2949:2950   */\n      0x00\n        /* \"#utility.yul\":2942:3030   */\n      mstore\n        /* \"#utility.yul\":3049:3053   */\n      0x22\n        /* \"#utility.yul\":3046:3047   */\n      0x04\n        /* \"#utility.yul\":3039:3054   */\n      mstore\n        /* \"#utility.yul\":3073:3077   */\n      0x24\n        /* \"#utility.yul\":3070:3071   */\n      0x00\n        /* \"#utility.yul\":3063:3078   */\n      revert\n        /* \"#utility.yul\":3090:3192   */\n    tag_55:\n        /* \"#utility.yul\":3131:3137   */\n      0x00\n        /* \"#utility.yul\":3182:3184   */\n      0x1f\n        /* \"#utility.yul\":3178:3185   */\n      not\n        /* \"#utility.yul\":3173:3175   */\n      0x1f\n        /* \"#utility.yul\":3166:3171   */\n      dup4\n        /* \"#utility.yul\":3162:3176   */\n      add\n        /* \"#utility.yul\":3158:3186   */\n      and\n        /* \"#utility.yul\":3148:3186   */\n      swap1\n      pop\n        /* \"#utility.yul\":3090:3192   */\n      swap2\n      swap1\n      pop\n      jump\t// out\n\n    auxdata: 0xa2646970667358221220671366ca39ad691eb8f0c256456fbb55867437ce049a9351d6ecd71f4380e59a64736f6c63430008070033\n}\n",
				"bytecode": {
					"linkReferences": {},
					"object": "60806040526040518060400160405280600d81526020017f48656c6c6f7720776f726c6421000000000000000000000000000000000000008152506000908051906020019061004f9291906100ed565b5060018060006101000a81548160ff021916908315150217905550607b6002557fffffffffffffffffffffffffffffffffffffffffffffffffffffffffffffff856003557f80000000000000000000000000000000000000000000000000000000000000006004557f7fffffffffffffffffffffffffffffffffffffffffffffffffffffffffffffff6005553480156100e757600080fd5b506101f1565b8280546100f990610190565b90600052602060002090601f01602090048101928261011b5760008555610162565b82601f1061013457805160ff1916838001178555610162565b82800160010185558215610162579182015b82811115610161578251825591602001919060010190610146565b5b50905061016f9190610173565b5090565b5b8082111561018c576000816000905550600101610174565b5090565b600060028204905060018216806101a857607f821691505b602082108114156101bc576101bb6101c2565b5b50919050565b7f4e487b7100000000000000000000000000000000000000000000000000000000600052602260045260246000fd5b6103c4806102006000396000f3fe608060405234801561001057600080fd5b50600436106100625760003560e01c8063492bfa18146100675780634df7e3d0146100855780637a4c2571146100a35780637e4e14cc146100c1578063c6a898c5146100df578063e5aa3d58146100fd575b600080fd5b61006f61011b565b60405161007c9190610270565b60405180910390f35b61008d6101a9565b60405161009a919061023a565b60405180910390f35b6100ab6101bc565b6040516100b89190610255565b60405180910390f35b6100c96101c2565b6040516100d69190610255565b60405180910390f35b6100e76101c8565b6040516100f49190610292565b60405180910390f35b6101056101ce565b6040516101129190610255565b60405180910390f35b600080546101289061031c565b80601f01602080910402602001604051908101604052809291908181526020018280546101549061031c565b80156101a15780601f10610176576101008083540402835291602001916101a1565b820191906000526020600020905b81548152906001019060200180831161018457829003601f168201915b505050505081565b600160009054906101000a900460ff1681565b60055481565b60045481565b60025481565b60035481565b6101dd816102c9565b82525050565b6101ec816102d5565b82525050565b60006101fd826102ad565b61020781856102b8565b93506102178185602086016102e9565b6102208161037d565b840191505092915050565b610234816102df565b82525050565b600060208201905061024f60008301846101d4565b92915050565b600060208201905061026a60008301846101e3565b92915050565b6000602082019050818103600083015261028a81846101f2565b905092915050565b60006020820190506102a7600083018461022b565b92915050565b600081519050919050565b600082825260208201905092915050565b60008115159050919050565b6000819050919050565b6000819050919050565b60005b838110156103075780820151818401526020810190506102ec565b83811115610316576000848401525b50505050565b6000600282049050600182168061033457607f821691505b602082108114156103485761034761034e565b5b50919050565b7f4e487b7100000000000000000000000000000000000000000000000000000000600052602260045260246000fd5b6000601f19601f830116905091905056fea2646970667358221220671366ca39ad691eb8f0c256456fbb55867437ce049a9351d6ecd71f4380e59a64736f6c63430008070033",
					"opcodes": "PUSH1 0x80 PUSH1 0x40 MSTORE PUSH1 0x40 MLOAD DUP1 PUSH1 0x40 ADD PUSH1 0x40 MSTORE DUP1 PUSH1 0xD DUP2 MSTORE PUSH1 0x20 ADD PUSH32 0x48656C6C6F7720776F726C642100000000000000000000000000000000000000 DUP2 MSTORE POP PUSH1 0x0 SWAP1 DUP1 MLOAD SWAP1 PUSH1 0x20 ADD SWAP1 PUSH2 0x4F SWAP3 SWAP2 SWAP1 PUSH2 0xED JUMP JUMPDEST POP PUSH1 0x1 DUP1 PUSH1 0x0 PUSH2 0x100 EXP DUP2 SLOAD DUP2 PUSH1 0xFF MUL NOT AND SWAP1 DUP4 ISZERO ISZERO MUL OR SWAP1 SSTORE POP PUSH1 0x7B PUSH1 0x2 SSTORE PUSH32 0xFFFFFFFFFFFFFFFFFFFFFFFFFFFFFFFFFFFFFFFFFFFFFFFFFFFFFFFFFFFFFF85 PUSH1 0x3 SSTORE PUSH32 0x8000000000000000000000000000000000000000000000000000000000000000 PUSH1 0x4 SSTORE PUSH32 0x7FFFFFFFFFFFFFFFFFFFFFFFFFFFFFFFFFFFFFFFFFFFFFFFFFFFFFFFFFFFFFFF PUSH1 0x5 SSTORE CALLVALUE DUP1 ISZERO PUSH2 0xE7 JUMPI PUSH1 0x0 DUP1 REVERT JUMPDEST POP PUSH2 0x1F1 JUMP JUMPDEST DUP3 DUP1 SLOAD PUSH2 0xF9 SWAP1 PUSH2 0x190 JUMP JUMPDEST SWAP1 PUSH1 0x0 MSTORE PUSH1 0x20 PUSH1 0x0 KECCAK256 SWAP1 PUSH1 0x1F ADD PUSH1 0x20 SWAP1 DIV DUP2 ADD SWAP3 DUP3 PUSH2 0x11B JUMPI PUSH1 0x0 DUP6 SSTORE PUSH2 0x162 JUMP JUMPDEST DUP3 PUSH1 0x1F LT PUSH2 0x134 JUMPI DUP1 MLOAD PUSH1 0xFF NOT AND DUP4 DUP1 ADD OR DUP6 SSTORE PUSH2 0x162 JUMP JUMPDEST DUP3 DUP1 ADD PUSH1 0x1 ADD DUP6 SSTORE DUP3 ISZERO PUSH2 0x162 JUMPI SWAP2 DUP3 ADD JUMPDEST DUP3 DUP2 GT ISZERO PUSH2 0x161 JUMPI DUP3 MLOAD DUP3 SSTORE SWAP2 PUSH1 0x20 ADD SWAP2 SWAP1 PUSH1 0x1 ADD SWAP1 PUSH2 0x146 JUMP JUMPDEST JUMPDEST POP SWAP1 POP PUSH2 0x16F SWAP2 SWAP1 PUSH2 0x173 JUMP JUMPDEST POP SWAP1 JUMP JUMPDEST JUMPDEST DUP1 DUP3 GT ISZERO PUSH2 0x18C JUMPI PUSH1 0x0 DUP2 PUSH1 0x0 SWAP1 SSTORE POP PUSH1 0x1 ADD PUSH2 0x174 JUMP JUMPDEST POP SWAP1 JUMP JUMPDEST PUSH1 0x0 PUSH1 0x2 DUP3 DIV SWAP1 POP PUSH1 0x1 DUP3 AND DUP1 PUSH2 0x1A8 JUMPI PUSH1 0x7F DUP3 AND SWAP2 POP JUMPDEST PUSH1 0x20 DUP3 LT DUP2 EQ ISZERO PUSH2 0x1BC JUMPI PUSH2 0x1BB PUSH2 0x1C2 JUMP JUMPDEST JUMPDEST POP SWAP2 SWAP1 POP JUMP JUMPDEST PUSH32 0x4E487B7100000000000000000000000000000000000000000000000000000000 PUSH1 0x0 MSTORE PUSH1 0x22 PUSH1 0x4 MSTORE PUSH1 0x24 PUSH1 0x0 REVERT JUMPDEST PUSH2 0x3C4 DUP1 PUSH2 0x200 PUSH1 0x0 CODECOPY PUSH1 0x0 RETURN INVALID PUSH1 0x80 PUSH1 0x40 MSTORE CALLVALUE DUP1 ISZERO PUSH2 0x10 JUMPI PUSH1 0x0 DUP1 REVERT JUMPDEST POP PUSH1 0x4 CALLDATASIZE LT PUSH2 0x62 JUMPI PUSH1 0x0 CALLDATALOAD PUSH1 0xE0 SHR DUP1 PUSH4 0x492BFA18 EQ PUSH2 0x67 JUMPI DUP1 PUSH4 0x4DF7E3D0 EQ PUSH2 0x85 JUMPI DUP1 PUSH4 0x7A4C2571 EQ PUSH2 0xA3 JUMPI DUP1 PUSH4 0x7E4E14CC EQ PUSH2 0xC1 JUMPI DUP1 PUSH4 0xC6A898C5 EQ PUSH2 0xDF JUMPI DUP1 PUSH4 0xE5AA3D58 EQ PUSH2 0xFD JUMPI JUMPDEST PUSH1 0x0 DUP1 REVERT JUMPDEST PUSH2 0x6F PUSH2 0x11B JUMP JUMPDEST PUSH1 0x40 MLOAD PUSH2 0x7C SWAP2 SWAP1 PUSH2 0x270 JUMP JUMPDEST PUSH1 0x40 MLOAD DUP1 SWAP2 SUB SWAP1 RETURN JUMPDEST PUSH2 0x8D PUSH2 0x1A9 JUMP JUMPDEST PUSH1 0x40 MLOAD PUSH2 0x9A SWAP2 SWAP1 PUSH2 0x23A JUMP JUMPDEST PUSH1 0x40 MLOAD DUP1 SWAP2 SUB SWAP1 RETURN JUMPDEST PUSH2 0xAB PUSH2 0x1BC JUMP JUMPDEST PUSH1 0x40 MLOAD PUSH2 0xB8 SWAP2 SWAP1 PUSH2 0x255 JUMP JUMPDEST PUSH1 0x40 MLOAD DUP1 SWAP2 SUB SWAP1 RETURN JUMPDEST PUSH2 0xC9 PUSH2 0x1C2 JUMP JUMPDEST PUSH1 0x40 MLOAD PUSH2 0xD6 SWAP2 SWAP1 PUSH2 0x255 JUMP JUMPDEST PUSH1 0x40 MLOAD DUP1 SWAP2 SUB SWAP1 RETURN JUMPDEST PUSH2 0xE7 PUSH2 0x1C8 JUMP JUMPDEST PUSH1 0x40 MLOAD PUSH2 0xF4 SWAP2 SWAP1 PUSH2 0x292 JUMP JUMPDEST PUSH1 0x40 MLOAD DUP1 SWAP2 SUB SWAP1 RETURN JUMPDEST PUSH2 0x105 PUSH2 0x1CE JUMP JUMPDEST PUSH1 0x40 MLOAD PUSH2 0x112 SWAP2 SWAP1 PUSH2 0x255 JUMP JUMPDEST PUSH1 0x40 MLOAD DUP1 SWAP2 SUB SWAP1 RETURN JUMPDEST PUSH1 0x0 DUP1 SLOAD PUSH2 0x128 SWAP1 PUSH2 0x31C JUMP JUMPDEST DUP1 PUSH1 0x1F ADD PUSH1 0x20 DUP1 SWAP2 DIV MUL PUSH1 0x20 ADD PUSH1 0x40 MLOAD SWAP1 DUP2 ADD PUSH1 0x40 MSTORE DUP1 SWAP3 SWAP2 SWAP1 DUP2 DUP2 MSTORE PUSH1 0x20 ADD DUP3 DUP1 SLOAD PUSH2 0x154 SWAP1 PUSH2 0x31C JUMP JUMPDEST DUP1 ISZERO PUSH2 0x1A1 JUMPI DUP1 PUSH1 0x1F LT PUSH2 0x176 JUMPI PUSH2 0x100 DUP1 DUP4 SLOAD DIV MUL DUP4 MSTORE SWAP2 PUSH1 0x20 ADD SWAP2 PUSH2 0x1A1 JUMP JUMPDEST DUP3 ADD SWAP2 SWAP1 PUSH1 0x0 MSTORE PUSH1 0x20 PUSH1 0x0 KECCAK256 SWAP1 JUMPDEST DUP2 SLOAD DUP2 MSTORE SWAP1 PUSH1 0x1 ADD SWAP1 PUSH1 0x20 ADD DUP1 DUP4 GT PUSH2 0x184 JUMPI DUP3 SWAP1 SUB PUSH1 0x1F AND DUP3 ADD SWAP2 JUMPDEST POP POP POP POP POP DUP2 JUMP JUMPDEST PUSH1 0x1 PUSH1 0x0 SWAP1 SLOAD SWAP1 PUSH2 0x100 EXP SWAP1 DIV PUSH1 0xFF AND DUP2 JUMP JUMPDEST PUSH1 0x5 SLOAD DUP2 JUMP JUMPDEST PUSH1 0x4 SLOAD DUP2 JUMP JUMPDEST PUSH1 0x2 SLOAD DUP2 JUMP JUMPDEST PUSH1 0x3 SLOAD DUP2 JUMP JUMPDEST PUSH2 0x1DD DUP2 PUSH2 0x2C9 JUMP JUMPDEST DUP3 MSTORE POP POP JUMP JUMPDEST PUSH2 0x1EC DUP2 PUSH2 0x2D5 JUMP JUMPDEST DUP3 MSTORE POP POP JUMP JUMPDEST PUSH1 0x0 PUSH2 0x1FD DUP3 PUSH2 0x2AD JUMP JUMPDEST PUSH2 0x207 DUP2 DUP6 PUSH2 0x2B8 JUMP JUMPDEST SWAP4 POP PUSH2 0x217 DUP2 DUP6 PUSH1 0x20 DUP7 ADD PUSH2 0x2E9 JUMP JUMPDEST PUSH2 0x220 DUP2 PUSH2 0x37D JUMP JUMPDEST DUP5 ADD SWAP2 POP POP SWAP3 SWAP2 POP POP JUMP JUMPDEST PUSH2 0x234 DUP2 PUSH2 0x2DF JUMP JUMPDEST DUP3 MSTORE POP POP JUMP JUMPDEST PUSH1 0x0 PUSH1 0x20 DUP3 ADD SWAP1 POP PUSH2 0x24F PUSH1 0x0 DUP4 ADD DUP5 PUSH2 0x1D4 JUMP JUMPDEST SWAP3 SWAP2 POP POP JUMP JUMPDEST PUSH1 0x0 PUSH1 0x20 DUP3 ADD SWAP1 POP PUSH2 0x26A PUSH1 0x0 DUP4 ADD DUP5 PUSH2 0x1E3 JUMP JUMPDEST SWAP3 SWAP2 POP POP JUMP JUMPDEST PUSH1 0x0 PUSH1 0x20 DUP3 ADD SWAP1 POP DUP2 DUP2 SUB PUSH1 0x0 DUP4 ADD MSTORE PUSH2 0x28A DUP2 DUP5 PUSH2 0x1F2 JUMP JUMPDEST SWAP1 POP SWAP3 SWAP2 POP POP JUMP JUMPDEST PUSH1 0x0 PUSH1 0x20 DUP3 ADD SWAP1 POP PUSH2 0x2A7 PUSH1 0x0 DUP4 ADD DUP5 PUSH2 0x22B JUMP JUMPDEST SWAP3 SWAP2 POP POP JUMP JUMPDEST PUSH1 0x0 DUP2 MLOAD SWAP1 POP SWAP2 SWAP1 POP JUMP JUMPDEST PUSH1 0x0 DUP3 DUP3 MSTORE PUSH1 0x20 DUP3 ADD SWAP1 POP SWAP3 SWAP2 POP POP JUMP JUMPDEST PUSH1 0x0 DUP2 ISZERO ISZERO SWAP1 POP SWAP2 SWAP1 POP JUMP JUMPDEST PUSH1 0x0 DUP2 SWAP1 POP SWAP2 SWAP1 POP JUMP JUMPDEST PUSH1 0x0 DUP2 SWAP1 POP SWAP2 SWAP1 POP JUMP JUMPDEST PUSH1 0x0 JUMPDEST DUP4 DUP2 LT ISZERO PUSH2 0x307 JUMPI DUP1 DUP3 ADD MLOAD DUP2 DUP5 ADD MSTORE PUSH1 0x20 DUP2 ADD SWAP1 POP PUSH2 0x2EC JUMP JUMPDEST DUP4 DUP2 GT ISZERO PUSH2 0x316 JUMPI PUSH1 0x0 DUP5 DUP5 ADD MSTORE JUMPDEST POP POP POP POP JUMP JUMPDEST PUSH1 0x0 PUSH1 0x2 DUP3 DIV SWAP1 POP PUSH1 0x1 DUP3 AND DUP1 PUSH2 0x334 JUMPI PUSH1 0x7F DUP3 AND SWAP2 POP JUMPDEST PUSH1 0x20 DUP3 LT DUP2 EQ ISZERO PUSH2 0x348 JUMPI PUSH2 0x347 PUSH2 0x34E JUMP JUMPDEST JUMPDEST POP SWAP2 SWAP1 POP JUMP JUMPDEST PUSH32 0x4E487B7100000000000000000000000000000000000000000000000000000000 PUSH1 0x0 MSTORE PUSH1 0x22 PUSH1 0x4 MSTORE PUSH1 0x24 PUSH1 0x0 REVERT JUMPDEST PUSH1 0x0 PUSH1 0x1F NOT PUSH1 0x1F DUP4 ADD AND SWAP1 POP SWAP2 SWAP1 POP JUMP INVALID LOG2 PUSH5 0x6970667358 0x22 SLT KECCAK256 PUSH8 0x1366CA39AD691EB8 CREATE 0xC2 JUMP GASLIMIT PUSH16 0xBB55867437CE049A9351D6ECD71F4380 0xE5 SWAP11 PUSH5 0x736F6C6343 STOP ADDMOD SMOD STOP CALLER "
				},
				"gasEstimates": {
					"creation": {
						"codeDepositCost": "192800",
						"executionCost": "infinite",
						"totalCost": "infinite"
					},
					"external": {
						"b()": "2471",
						"i()": "2517",
						"maxInt()": "2451",
						"minInt()": "2473",
						"myString()": "infinite",
						"u()": "2495"
					}
				},
				"methodIdentifiers": {
					"b()": "4df7e3d0",
					"i()": "e5aa3d58",
					"maxInt()": "7a4c2571",
					"minInt()": "7e4e14cc",
					"myString()": "492bfa18",
					"u()": "c6a898c5"
				}
			},
			"storageLayout": {
				"storage": [
					{
						"astId": 4,
						"contract": "Documents/dev/Lime/contracts/HellowWorld.sol:HellowWorld",
						"label": "myString",
						"offset": 0,
						"slot": "0",
						"type": "t_string_storage"
					},
					{
						"astId": 7,
						"contract": "Documents/dev/Lime/contracts/HellowWorld.sol:HellowWorld",
						"label": "b",
						"offset": 0,
						"slot": "1",
						"type": "t_bool"
					},
					{
						"astId": 10,
						"contract": "Documents/dev/Lime/contracts/HellowWorld.sol:HellowWorld",
						"label": "u",
						"offset": 0,
						"slot": "2",
						"type": "t_uint256"
					},
					{
						"astId": 14,
						"contract": "Documents/dev/Lime/contracts/HellowWorld.sol:HellowWorld",
						"label": "i",
						"offset": 0,
						"slot": "3",
						"type": "t_int256"
					},
					{
						"astId": 21,
						"contract": "Documents/dev/Lime/contracts/HellowWorld.sol:HellowWorld",
						"label": "minInt",
						"offset": 0,
						"slot": "4",
						"type": "t_int256"
					},
					{
						"astId": 28,
						"contract": "Documents/dev/Lime/contracts/HellowWorld.sol:HellowWorld",
						"label": "maxInt",
						"offset": 0,
						"slot": "5",
						"type": "t_int256"
					}
				],
				"types": {
					"t_bool": {
						"encoding": "inplace",
						"label": "bool",
						"numberOfBytes": "1"
					},
					"t_int256": {
						"encoding": "inplace",
						"label": "int256",
						"numberOfBytes": "32"
					},
					"t_string_storage": {
						"encoding": "bytes",
						"label": "string",
						"numberOfBytes": "32"
					},
					"t_uint256": {
						"encoding": "inplace",
						"label": "uint256",
						"numberOfBytes": "32"
					}
				}
			},
			"userdoc": {
				"kind": "user",
				"methods": {},
				"version": 1
			}
		}
	}
}