{
	"Delegate.sol": {
		"Sender": {
			"abi": [
				{
					"inputs": [],
					"stateMutability": "payable",
					"type": "constructor"
				},
				{
					"inputs": [
						{
							"internalType": "address",
							"name": "c",
							"type": "address"
						},
						{
							"internalType": "address",
							"name": "dest1",
							"type": "address"
						},
						{
							"internalType": "address",
							"name": "dest2",
							"type": "address"
						},
						{
							"internalType": "uint256",
							"name": "amount",
							"type": "uint256"
						}
					],
					"name": "send",
					"outputs": [],
					"stateMutability": "nonpayable",
					"type": "function"
				}
			],
			"devdoc": {
				"kind": "dev",
				"methods": {},
				"version": 1
			},
			"evm": {
				"assembly": "    /* \"Delegate.sol\":145:398  contract Sender{... */\n  mstore(0x40, 0x80)\n  dataSize(sub_0)\n  dup1\n  dataOffset(sub_0)\n  0x00\n  codecopy\n  0x00\n  return\nstop\n\nsub_0: assembly {\n        /* \"Delegate.sol\":145:398  contract Sender{... */\n      mstore(0x40, 0x80)\n      callvalue\n      dup1\n      iszero\n      tag_1\n      jumpi\n      0x00\n      dup1\n      revert\n    tag_1:\n      pop\n      jumpi(tag_2, lt(calldatasize, 0x04))\n      shr(0xe0, calldataload(0x00))\n      dup1\n      0x06e83e2f\n      eq\n      tag_3\n      jumpi\n    tag_2:\n      0x00\n      dup1\n      revert\n        /* \"Delegate.sol\":194:396  function send(address c, address dest1,address dest2,uint amount) external {... */\n    tag_3:\n      tag_4\n      0x04\n      dup1\n      calldatasize\n      sub\n      dup2\n      add\n      swap1\n      tag_5\n      swap2\n      swap1\n      tag_6\n      jump\t// in\n    tag_5:\n      tag_7\n      jump\t// in\n    tag_4:\n      stop\n    tag_7:\n        /* \"Delegate.sol\":280:292  bool success */\n      0x00\n        /* \"Delegate.sol\":294:311  bytes memory data */\n      dup1\n        /* \"Delegate.sol\":315:316  c */\n      dup6\n        /* \"Delegate.sol\":315:329  c.delegatecall */\n      0xffffffffffffffffffffffffffffffffffffffff\n      and\n        /* \"Delegate.sol\":353:368  C.send.selector */\n      shl(0xe0, 0xb6d9d451)\n        /* \"Delegate.sol\":369:374  dest1 */\n      dup7\n        /* \"Delegate.sol\":375:380  dest2 */\n      dup7\n        /* \"Delegate.sol\":381:387  amount */\n      dup7\n        /* \"Delegate.sol\":330:388  abi.encodeWithSelector(C.send.selector,dest1,dest2,amount) */\n      add(0x24, mload(0x40))\n      tag_9\n      swap4\n      swap3\n      swap2\n      swap1\n      tag_10\n      jump\t// in\n    tag_9:\n      mload(0x40)\n      0x20\n      dup2\n      dup4\n      sub\n      sub\n      dup2\n      mstore\n      swap1\n      0x40\n      mstore\n      swap1\n      not(0xffffffffffffffffffffffffffffffffffffffffffffffffffffffff)\n      and\n      0x20\n      dup3\n      add\n      dup1\n      mload\n      0xffffffffffffffffffffffffffffffffffffffffffffffffffffffff\n      dup4\n      dup2\n      dup4\n      and\n      or\n      dup4\n      mstore\n      pop\n      pop\n      pop\n      pop\n        /* \"Delegate.sol\":315:389  c.delegatecall(abi.encodeWithSelector(C.send.selector,dest1,dest2,amount)) */\n      mload(0x40)\n      tag_11\n      swap2\n      swap1\n      tag_12\n      jump\t// in\n    tag_11:\n      0x00\n      mload(0x40)\n      dup1\n      dup4\n      sub\n      dup2\n      dup6\n      gas\n      delegatecall\n      swap2\n      pop\n      pop\n      returndatasize\n      dup1\n      0x00\n      dup2\n      eq\n      tag_15\n      jumpi\n      mload(0x40)\n      swap2\n      pop\n      and(add(returndatasize, 0x3f), not(0x1f))\n      dup3\n      add\n      0x40\n      mstore\n      returndatasize\n      dup3\n      mstore\n      returndatasize\n      0x00\n      0x20\n      dup5\n      add\n      returndatacopy\n      jump(tag_14)\n    tag_15:\n      0x60\n      swap2\n      pop\n    tag_14:\n      pop\n        /* \"Delegate.sol\":279:389  (bool success, bytes memory data) = c.delegatecall(abi.encodeWithSelector(C.send.selector,dest1,dest2,amount)) */\n      swap2\n      pop\n      swap2\n      pop\n        /* \"Delegate.sol\":269:396  {... */\n      pop\n      pop\n        /* \"Delegate.sol\":194:396  function send(address c, address dest1,address dest2,uint amount) external {... */\n      pop\n      pop\n      pop\n      pop\n      jump\t// out\n        /* \"#utility.yul\":7:146   */\n    tag_17:\n        /* \"#utility.yul\":53:58   */\n      0x00\n        /* \"#utility.yul\":91:97   */\n      dup2\n        /* \"#utility.yul\":78:98   */\n      calldataload\n        /* \"#utility.yul\":69:98   */\n      swap1\n      pop\n        /* \"#utility.yul\":107:140   */\n      tag_19\n        /* \"#utility.yul\":134:139   */\n      dup2\n        /* \"#utility.yul\":107:140   */\n      tag_20\n      jump\t// in\n    tag_19:\n        /* \"#utility.yul\":7:146   */\n      swap3\n      swap2\n      pop\n      pop\n      jump\t// out\n        /* \"#utility.yul\":152:291   */\n    tag_21:\n        /* \"#utility.yul\":198:203   */\n      0x00\n        /* \"#utility.yul\":236:242   */\n      dup2\n        /* \"#utility.yul\":223:243   */\n      calldataload\n        /* \"#utility.yul\":214:243   */\n      swap1\n      pop\n        /* \"#utility.yul\":252:285   */\n      tag_23\n        /* \"#utility.yul\":279:284   */\n      dup2\n        /* \"#utility.yul\":252:285   */\n      tag_24\n      jump\t// in\n    tag_23:\n        /* \"#utility.yul\":152:291   */\n      swap3\n      swap2\n      pop\n      pop\n      jump\t// out\n        /* \"#utility.yul\":297:1062   */\n    tag_6:\n        /* \"#utility.yul\":383:389   */\n      0x00\n        /* \"#utility.yul\":391:397   */\n      dup1\n        /* \"#utility.yul\":399:405   */\n      0x00\n        /* \"#utility.yul\":407:413   */\n      dup1\n        /* \"#utility.yul\":456:459   */\n      0x80\n        /* \"#utility.yul\":444:453   */\n      dup6\n        /* \"#utility.yul\":435:442   */\n      dup8\n        /* \"#utility.yul\":431:454   */\n      sub\n        /* \"#utility.yul\":427:460   */\n      slt\n        /* \"#utility.yul\":424:544   */\n      iszero\n      tag_26\n      jumpi\n        /* \"#utility.yul\":463:542   */\n      tag_27\n      tag_28\n      jump\t// in\n    tag_27:\n        /* \"#utility.yul\":424:544   */\n    tag_26:\n        /* \"#utility.yul\":583:584   */\n      0x00\n        /* \"#utility.yul\":608:661   */\n      tag_29\n        /* \"#utility.yul\":653:660   */\n      dup8\n        /* \"#utility.yul\":644:650   */\n      dup3\n        /* \"#utility.yul\":633:642   */\n      dup9\n        /* \"#utility.yul\":629:651   */\n      add\n        /* \"#utility.yul\":608:661   */\n      tag_17\n      jump\t// in\n    tag_29:\n        /* \"#utility.yul\":598:661   */\n      swap5\n      pop\n        /* \"#utility.yul\":554:671   */\n      pop\n        /* \"#utility.yul\":710:712   */\n      0x20\n        /* \"#utility.yul\":736:789   */\n      tag_30\n        /* \"#utility.yul\":781:788   */\n      dup8\n        /* \"#utility.yul\":772:778   */\n      dup3\n        /* \"#utility.yul\":761:770   */\n      dup9\n        /* \"#utility.yul\":757:779   */\n      add\n        /* \"#utility.yul\":736:789   */\n      tag_17\n      jump\t// in\n    tag_30:\n        /* \"#utility.yul\":726:789   */\n      swap4\n      pop\n        /* \"#utility.yul\":681:799   */\n      pop\n        /* \"#utility.yul\":838:840   */\n      0x40\n        /* \"#utility.yul\":864:917   */\n      tag_31\n        /* \"#utility.yul\":909:916   */\n      dup8\n        /* \"#utility.yul\":900:906   */\n      dup3\n        /* \"#utility.yul\":889:898   */\n      dup9\n        /* \"#utility.yul\":885:907   */\n      add\n        /* \"#utility.yul\":864:917   */\n      tag_17\n      jump\t// in\n    tag_31:\n        /* \"#utility.yul\":854:917   */\n      swap3\n      pop\n        /* \"#utility.yul\":809:927   */\n      pop\n        /* \"#utility.yul\":966:968   */\n      0x60\n        /* \"#utility.yul\":992:1045   */\n      tag_32\n        /* \"#utility.yul\":1037:1044   */\n      dup8\n        /* \"#utility.yul\":1028:1034   */\n      dup3\n        /* \"#utility.yul\":1017:1026   */\n      dup9\n        /* \"#utility.yul\":1013:1035   */\n      add\n        /* \"#utility.yul\":992:1045   */\n      tag_21\n      jump\t// in\n    tag_32:\n        /* \"#utility.yul\":982:1045   */\n      swap2\n      pop\n        /* \"#utility.yul\":937:1055   */\n      pop\n        /* \"#utility.yul\":297:1062   */\n      swap3\n      swap6\n      swap2\n      swap5\n      pop\n      swap3\n      pop\n      jump\t// out\n        /* \"#utility.yul\":1068:1186   */\n    tag_33:\n        /* \"#utility.yul\":1155:1179   */\n      tag_35\n        /* \"#utility.yul\":1173:1178   */\n      dup2\n        /* \"#utility.yul\":1155:1179   */\n      tag_36\n      jump\t// in\n    tag_35:\n        /* \"#utility.yul\":1150:1153   */\n      dup3\n        /* \"#utility.yul\":1143:1180   */\n      mstore\n        /* \"#utility.yul\":1068:1186   */\n      pop\n      pop\n      jump\t// out\n        /* \"#utility.yul\":1192:1565   */\n    tag_37:\n        /* \"#utility.yul\":1296:1299   */\n      0x00\n        /* \"#utility.yul\":1324:1362   */\n      tag_39\n        /* \"#utility.yul\":1356:1361   */\n      dup3\n        /* \"#utility.yul\":1324:1362   */\n      tag_40\n      jump\t// in\n    tag_39:\n        /* \"#utility.yul\":1378:1466   */\n      tag_41\n        /* \"#utility.yul\":1459:1465   */\n      dup2\n        /* \"#utility.yul\":1454:1457   */\n      dup6\n        /* \"#utility.yul\":1378:1466   */\n      tag_42\n      jump\t// in\n    tag_41:\n        /* \"#utility.yul\":1371:1466   */\n      swap4\n      pop\n        /* \"#utility.yul\":1475:1527   */\n      tag_43\n        /* \"#utility.yul\":1520:1526   */\n      dup2\n        /* \"#utility.yul\":1515:1518   */\n      dup6\n        /* \"#utility.yul\":1508:1512   */\n      0x20\n        /* \"#utility.yul\":1501:1506   */\n      dup7\n        /* \"#utility.yul\":1497:1513   */\n      add\n        /* \"#utility.yul\":1475:1527   */\n      tag_44\n      jump\t// in\n    tag_43:\n        /* \"#utility.yul\":1552:1558   */\n      dup1\n        /* \"#utility.yul\":1547:1550   */\n      dup5\n        /* \"#utility.yul\":1543:1559   */\n      add\n        /* \"#utility.yul\":1536:1559   */\n      swap2\n      pop\n        /* \"#utility.yul\":1300:1565   */\n      pop\n        /* \"#utility.yul\":1192:1565   */\n      swap3\n      swap2\n      pop\n      pop\n      jump\t// out\n        /* \"#utility.yul\":1571:1689   */\n    tag_45:\n        /* \"#utility.yul\":1658:1682   */\n      tag_47\n        /* \"#utility.yul\":1676:1681   */\n      dup2\n        /* \"#utility.yul\":1658:1682   */\n      tag_48\n      jump\t// in\n    tag_47:\n        /* \"#utility.yul\":1653:1656   */\n      dup3\n        /* \"#utility.yul\":1646:1683   */\n      mstore\n        /* \"#utility.yul\":1571:1689   */\n      pop\n      pop\n      jump\t// out\n        /* \"#utility.yul\":1695:1966   */\n    tag_12:\n        /* \"#utility.yul\":1825:1828   */\n      0x00\n        /* \"#utility.yul\":1847:1940   */\n      tag_50\n        /* \"#utility.yul\":1936:1939   */\n      dup3\n        /* \"#utility.yul\":1927:1933   */\n      dup5\n        /* \"#utility.yul\":1847:1940   */\n      tag_37\n      jump\t// in\n    tag_50:\n        /* \"#utility.yul\":1840:1940   */\n      swap2\n      pop\n        /* \"#utility.yul\":1957:1960   */\n      dup2\n        /* \"#utility.yul\":1950:1960   */\n      swap1\n      pop\n        /* \"#utility.yul\":1695:1966   */\n      swap3\n      swap2\n      pop\n      pop\n      jump\t// out\n        /* \"#utility.yul\":1972:2414   */\n    tag_10:\n        /* \"#utility.yul\":2121:2125   */\n      0x00\n        /* \"#utility.yul\":2159:2161   */\n      0x60\n        /* \"#utility.yul\":2148:2157   */\n      dup3\n        /* \"#utility.yul\":2144:2162   */\n      add\n        /* \"#utility.yul\":2136:2162   */\n      swap1\n      pop\n        /* \"#utility.yul\":2172:2243   */\n      tag_52\n        /* \"#utility.yul\":2240:2241   */\n      0x00\n        /* \"#utility.yul\":2229:2238   */\n      dup4\n        /* \"#utility.yul\":2225:2242   */\n      add\n        /* \"#utility.yul\":2216:2222   */\n      dup7\n        /* \"#utility.yul\":2172:2243   */\n      tag_33\n      jump\t// in\n    tag_52:\n        /* \"#utility.yul\":2253:2325   */\n      tag_53\n        /* \"#utility.yul\":2321:2323   */\n      0x20\n        /* \"#utility.yul\":2310:2319   */\n      dup4\n        /* \"#utility.yul\":2306:2324   */\n      add\n        /* \"#utility.yul\":2297:2303   */\n      dup6\n        /* \"#utility.yul\":2253:2325   */\n      tag_33\n      jump\t// in\n    tag_53:\n        /* \"#utility.yul\":2335:2407   */\n      tag_54\n        /* \"#utility.yul\":2403:2405   */\n      0x40\n        /* \"#utility.yul\":2392:2401   */\n      dup4\n        /* \"#utility.yul\":2388:2406   */\n      add\n        /* \"#utility.yul\":2379:2385   */\n      dup5\n        /* \"#utility.yul\":2335:2407   */\n      tag_45\n      jump\t// in\n    tag_54:\n        /* \"#utility.yul\":1972:2414   */\n      swap5\n      swap4\n      pop\n      pop\n      pop\n      pop\n      jump\t// out\n        /* \"#utility.yul\":2501:2599   */\n    tag_40:\n        /* \"#utility.yul\":2552:2558   */\n      0x00\n        /* \"#utility.yul\":2586:2591   */\n      dup2\n        /* \"#utility.yul\":2580:2592   */\n      mload\n        /* \"#utility.yul\":2570:2592   */\n      swap1\n      pop\n        /* \"#utility.yul\":2501:2599   */\n      swap2\n      swap1\n      pop\n      jump\t// out\n        /* \"#utility.yul\":2605:2752   */\n    tag_42:\n        /* \"#utility.yul\":2706:2717   */\n      0x00\n        /* \"#utility.yul\":2743:2746   */\n      dup2\n        /* \"#utility.yul\":2728:2746   */\n      swap1\n      pop\n        /* \"#utility.yul\":2605:2752   */\n      swap3\n      swap2\n      pop\n      pop\n      jump\t// out\n        /* \"#utility.yul\":2758:2854   */\n    tag_36:\n        /* \"#utility.yul\":2795:2802   */\n      0x00\n        /* \"#utility.yul\":2824:2848   */\n      tag_60\n        /* \"#utility.yul\":2842:2847   */\n      dup3\n        /* \"#utility.yul\":2824:2848   */\n      tag_61\n      jump\t// in\n    tag_60:\n        /* \"#utility.yul\":2813:2848   */\n      swap1\n      pop\n        /* \"#utility.yul\":2758:2854   */\n      swap2\n      swap1\n      pop\n      jump\t// out\n        /* \"#utility.yul\":2860:2986   */\n    tag_61:\n        /* \"#utility.yul\":2897:2904   */\n      0x00\n        /* \"#utility.yul\":2937:2979   */\n      0xffffffffffffffffffffffffffffffffffffffff\n        /* \"#utility.yul\":2930:2935   */\n      dup3\n        /* \"#utility.yul\":2926:2980   */\n      and\n        /* \"#utility.yul\":2915:2980   */\n      swap1\n      pop\n        /* \"#utility.yul\":2860:2986   */\n      swap2\n      swap1\n      pop\n      jump\t// out\n        /* \"#utility.yul\":2992:3069   */\n    tag_48:\n        /* \"#utility.yul\":3029:3036   */\n      0x00\n        /* \"#utility.yul\":3058:3063   */\n      dup2\n        /* \"#utility.yul\":3047:3063   */\n      swap1\n      pop\n        /* \"#utility.yul\":2992:3069   */\n      swap2\n      swap1\n      pop\n      jump\t// out\n        /* \"#utility.yul\":3075:3382   */\n    tag_44:\n        /* \"#utility.yul\":3143:3144   */\n      0x00\n        /* \"#utility.yul\":3153:3266   */\n    tag_65:\n        /* \"#utility.yul\":3167:3173   */\n      dup4\n        /* \"#utility.yul\":3164:3165   */\n      dup2\n        /* \"#utility.yul\":3161:3174   */\n      lt\n        /* \"#utility.yul\":3153:3266   */\n      iszero\n      tag_67\n      jumpi\n        /* \"#utility.yul\":3252:3253   */\n      dup1\n        /* \"#utility.yul\":3247:3250   */\n      dup3\n        /* \"#utility.yul\":3243:3254   */\n      add\n        /* \"#utility.yul\":3237:3255   */\n      mload\n        /* \"#utility.yul\":3233:3234   */\n      dup2\n        /* \"#utility.yul\":3228:3231   */\n      dup5\n        /* \"#utility.yul\":3224:3235   */\n      add\n        /* \"#utility.yul\":3217:3256   */\n      mstore\n        /* \"#utility.yul\":3189:3191   */\n      0x20\n        /* \"#utility.yul\":3186:3187   */\n      dup2\n        /* \"#utility.yul\":3182:3192   */\n      add\n        /* \"#utility.yul\":3177:3192   */\n      swap1\n      pop\n        /* \"#utility.yul\":3153:3266   */\n      jump(tag_65)\n    tag_67:\n        /* \"#utility.yul\":3284:3290   */\n      dup4\n        /* \"#utility.yul\":3281:3282   */\n      dup2\n        /* \"#utility.yul\":3278:3291   */\n      gt\n        /* \"#utility.yul\":3275:3376   */\n      iszero\n      tag_68\n      jumpi\n        /* \"#utility.yul\":3364:3365   */\n      0x00\n        /* \"#utility.yul\":3355:3361   */\n      dup5\n        /* \"#utility.yul\":3350:3353   */\n      dup5\n        /* \"#utility.yul\":3346:3362   */\n      add\n        /* \"#utility.yul\":3339:3366   */\n      mstore\n        /* \"#utility.yul\":3275:3376   */\n    tag_68:\n        /* \"#utility.yul\":3124:3382   */\n      pop\n        /* \"#utility.yul\":3075:3382   */\n      pop\n      pop\n      pop\n      jump\t// out\n        /* \"#utility.yul\":3511:3628   */\n    tag_28:\n        /* \"#utility.yul\":3620:3621   */\n      0x00\n        /* \"#utility.yul\":3617:3618   */\n      dup1\n        /* \"#utility.yul\":3610:3622   */\n      revert\n        /* \"#utility.yul\":3634:3756   */\n    tag_20:\n        /* \"#utility.yul\":3707:3731   */\n      tag_73\n        /* \"#utility.yul\":3725:3730   */\n      dup2\n        /* \"#utility.yul\":3707:3731   */\n      tag_36\n      jump\t// in\n    tag_73:\n        /* \"#utility.yul\":3700:3705   */\n      dup2\n        /* \"#utility.yul\":3697:3732   */\n      eq\n        /* \"#utility.yul\":3687:3750   */\n      tag_74\n      jumpi\n        /* \"#utility.yul\":3746:3747   */\n      0x00\n        /* \"#utility.yul\":3743:3744   */\n      dup1\n        /* \"#utility.yul\":3736:3748   */\n      revert\n        /* \"#utility.yul\":3687:3750   */\n    tag_74:\n        /* \"#utility.yul\":3634:3756   */\n      pop\n      jump\t// out\n        /* \"#utility.yul\":3762:3884   */\n    tag_24:\n        /* \"#utility.yul\":3835:3859   */\n      tag_76\n        /* \"#utility.yul\":3853:3858   */\n      dup2\n        /* \"#utility.yul\":3835:3859   */\n      tag_48\n      jump\t// in\n    tag_76:\n        /* \"#utility.yul\":3828:3833   */\n      dup2\n        /* \"#utility.yul\":3825:3860   */\n      eq\n        /* \"#utility.yul\":3815:3878   */\n      tag_77\n      jumpi\n        /* \"#utility.yul\":3874:3875   */\n      0x00\n        /* \"#utility.yul\":3871:3872   */\n      dup1\n        /* \"#utility.yul\":3864:3876   */\n      revert\n        /* \"#utility.yul\":3815:3878   */\n    tag_77:\n        /* \"#utility.yul\":3762:3884   */\n      pop\n      jump\t// out\n\n    auxdata: 0xa26469706673582212202b9a24173bc00cc0c3325efda465fb9ecbcb1fea8dd6276132fe117579891efd64736f6c63430008070033\n}\n",
				"bytecode": {
					"linkReferences": {},
					"object": "6080604052610356806100136000396000f3fe608060405234801561001057600080fd5b506004361061002b5760003560e01c806306e83e2f14610030575b600080fd5b61004a60048036038101906100459190610164565b61004c565b005b6000808573ffffffffffffffffffffffffffffffffffffffff1663b6d9d45160e01b86868660405160240161008393929190610231565b604051602081830303815290604052907bffffffffffffffffffffffffffffffffffffffffffffffffffffffff19166020820180517bffffffffffffffffffffffffffffffffffffffffffffffffffffffff83818316178352505050506040516100ed919061021a565b600060405180830381855af49150503d8060008114610128576040519150601f19603f3d011682016040523d82523d6000602084013e61012d565b606091505b5091509150505050505050565b600081359050610149816102f2565b92915050565b60008135905061015e81610309565b92915050565b6000806000806080858703121561017e5761017d6102ed565b5b600061018c8782880161013a565b945050602061019d8782880161013a565b93505060406101ae8782880161013a565b92505060606101bf8782880161014f565b91505092959194509250565b6101d48161027e565b82525050565b60006101e582610268565b6101ef8185610273565b93506101ff8185602086016102ba565b80840191505092915050565b610214816102b0565b82525050565b600061022682846101da565b915081905092915050565b600060608201905061024660008301866101cb565b61025360208301856101cb565b610260604083018461020b565b949350505050565b600081519050919050565b600081905092915050565b600061028982610290565b9050919050565b600073ffffffffffffffffffffffffffffffffffffffff82169050919050565b6000819050919050565b60005b838110156102d85780820151818401526020810190506102bd565b838111156102e7576000848401525b50505050565b600080fd5b6102fb8161027e565b811461030657600080fd5b50565b610312816102b0565b811461031d57600080fd5b5056fea26469706673582212202b9a24173bc00cc0c3325efda465fb9ecbcb1fea8dd6276132fe117579891efd64736f6c63430008070033",
					"opcodes": "PUSH1 0x80 PUSH1 0x40 MSTORE PUSH2 0x356 DUP1 PUSH2 0x13 PUSH1 0x0 CODECOPY PUSH1 0x0 RETURN INVALID PUSH1 0x80 PUSH1 0x40 MSTORE CALLVALUE DUP1 ISZERO PUSH2 0x10 JUMPI PUSH1 0x0 DUP1 REVERT JUMPDEST POP PUSH1 0x4 CALLDATASIZE LT PUSH2 0x2B JUMPI PUSH1 0x0 CALLDATALOAD PUSH1 0xE0 SHR DUP1 PUSH4 0x6E83E2F EQ PUSH2 0x30 JUMPI JUMPDEST PUSH1 0x0 DUP1 REVERT JUMPDEST PUSH2 0x4A PUSH1 0x4 DUP1 CALLDATASIZE SUB DUP2 ADD SWAP1 PUSH2 0x45 SWAP2 SWAP1 PUSH2 0x164 JUMP JUMPDEST PUSH2 0x4C JUMP JUMPDEST STOP JUMPDEST PUSH1 0x0 DUP1 DUP6 PUSH20 0xFFFFFFFFFFFFFFFFFFFFFFFFFFFFFFFFFFFFFFFF AND PUSH4 0xB6D9D451 PUSH1 0xE0 SHL DUP7 DUP7 DUP7 PUSH1 0x40 MLOAD PUSH1 0x24 ADD PUSH2 0x83 SWAP4 SWAP3 SWAP2 SWAP1 PUSH2 0x231 JUMP JUMPDEST PUSH1 0x40 MLOAD PUSH1 0x20 DUP2 DUP4 SUB SUB DUP2 MSTORE SWAP1 PUSH1 0x40 MSTORE SWAP1 PUSH28 0xFFFFFFFFFFFFFFFFFFFFFFFFFFFFFFFFFFFFFFFFFFFFFFFFFFFFFFFF NOT AND PUSH1 0x20 DUP3 ADD DUP1 MLOAD PUSH28 0xFFFFFFFFFFFFFFFFFFFFFFFFFFFFFFFFFFFFFFFFFFFFFFFFFFFFFFFF DUP4 DUP2 DUP4 AND OR DUP4 MSTORE POP POP POP POP PUSH1 0x40 MLOAD PUSH2 0xED SWAP2 SWAP1 PUSH2 0x21A JUMP JUMPDEST PUSH1 0x0 PUSH1 0x40 MLOAD DUP1 DUP4 SUB DUP2 DUP6 GAS DELEGATECALL SWAP2 POP POP RETURNDATASIZE DUP1 PUSH1 0x0 DUP2 EQ PUSH2 0x128 JUMPI PUSH1 0x40 MLOAD SWAP2 POP PUSH1 0x1F NOT PUSH1 0x3F RETURNDATASIZE ADD AND DUP3 ADD PUSH1 0x40 MSTORE RETURNDATASIZE DUP3 MSTORE RETURNDATASIZE PUSH1 0x0 PUSH1 0x20 DUP5 ADD RETURNDATACOPY PUSH2 0x12D JUMP JUMPDEST PUSH1 0x60 SWAP2 POP JUMPDEST POP SWAP2 POP SWAP2 POP POP POP POP POP POP POP JUMP JUMPDEST PUSH1 0x0 DUP2 CALLDATALOAD SWAP1 POP PUSH2 0x149 DUP2 PUSH2 0x2F2 JUMP JUMPDEST SWAP3 SWAP2 POP POP JUMP JUMPDEST PUSH1 0x0 DUP2 CALLDATALOAD SWAP1 POP PUSH2 0x15E DUP2 PUSH2 0x309 JUMP JUMPDEST SWAP3 SWAP2 POP POP JUMP JUMPDEST PUSH1 0x0 DUP1 PUSH1 0x0 DUP1 PUSH1 0x80 DUP6 DUP8 SUB SLT ISZERO PUSH2 0x17E JUMPI PUSH2 0x17D PUSH2 0x2ED JUMP JUMPDEST JUMPDEST PUSH1 0x0 PUSH2 0x18C DUP8 DUP3 DUP9 ADD PUSH2 0x13A JUMP JUMPDEST SWAP5 POP POP PUSH1 0x20 PUSH2 0x19D DUP8 DUP3 DUP9 ADD PUSH2 0x13A JUMP JUMPDEST SWAP4 POP POP PUSH1 0x40 PUSH2 0x1AE DUP8 DUP3 DUP9 ADD PUSH2 0x13A JUMP JUMPDEST SWAP3 POP POP PUSH1 0x60 PUSH2 0x1BF DUP8 DUP3 DUP9 ADD PUSH2 0x14F JUMP JUMPDEST SWAP2 POP POP SWAP3 SWAP6 SWAP2 SWAP5 POP SWAP3 POP JUMP JUMPDEST PUSH2 0x1D4 DUP2 PUSH2 0x27E JUMP JUMPDEST DUP3 MSTORE POP POP JUMP JUMPDEST PUSH1 0x0 PUSH2 0x1E5 DUP3 PUSH2 0x268 JUMP JUMPDEST PUSH2 0x1EF DUP2 DUP6 PUSH2 0x273 JUMP JUMPDEST SWAP4 POP PUSH2 0x1FF DUP2 DUP6 PUSH1 0x20 DUP7 ADD PUSH2 0x2BA JUMP JUMPDEST DUP1 DUP5 ADD SWAP2 POP POP SWAP3 SWAP2 POP POP JUMP JUMPDEST PUSH2 0x214 DUP2 PUSH2 0x2B0 JUMP JUMPDEST DUP3 MSTORE POP POP JUMP JUMPDEST PUSH1 0x0 PUSH2 0x226 DUP3 DUP5 PUSH2 0x1DA JUMP JUMPDEST SWAP2 POP DUP2 SWAP1 POP SWAP3 SWAP2 POP POP JUMP JUMPDEST PUSH1 0x0 PUSH1 0x60 DUP3 ADD SWAP1 POP PUSH2 0x246 PUSH1 0x0 DUP4 ADD DUP7 PUSH2 0x1CB JUMP JUMPDEST PUSH2 0x253 PUSH1 0x20 DUP4 ADD DUP6 PUSH2 0x1CB JUMP JUMPDEST PUSH2 0x260 PUSH1 0x40 DUP4 ADD DUP5 PUSH2 0x20B JUMP JUMPDEST SWAP5 SWAP4 POP POP POP POP JUMP JUMPDEST PUSH1 0x0 DUP2 MLOAD SWAP1 POP SWAP2 SWAP1 POP JUMP JUMPDEST PUSH1 0x0 DUP2 SWAP1 POP SWAP3 SWAP2 POP POP JUMP JUMPDEST PUSH1 0x0 PUSH2 0x289 DUP3 PUSH2 0x290 JUMP JUMPDEST SWAP1 POP SWAP2 SWAP1 POP JUMP JUMPDEST PUSH1 0x0 PUSH20 0xFFFFFFFFFFFFFFFFFFFFFFFFFFFFFFFFFFFFFFFF DUP3 AND SWAP1 POP SWAP2 SWAP1 POP JUMP JUMPDEST PUSH1 0x0 DUP2 SWAP1 POP SWAP2 SWAP1 POP JUMP JUMPDEST PUSH1 0x0 JUMPDEST DUP4 DUP2 LT ISZERO PUSH2 0x2D8 JUMPI DUP1 DUP3 ADD MLOAD DUP2 DUP5 ADD MSTORE PUSH1 0x20 DUP2 ADD SWAP1 POP PUSH2 0x2BD JUMP JUMPDEST DUP4 DUP2 GT ISZERO PUSH2 0x2E7 JUMPI PUSH1 0x0 DUP5 DUP5 ADD MSTORE JUMPDEST POP POP POP POP JUMP JUMPDEST PUSH1 0x0 DUP1 REVERT JUMPDEST PUSH2 0x2FB DUP2 PUSH2 0x27E JUMP JUMPDEST DUP2 EQ PUSH2 0x306 JUMPI PUSH1 0x0 DUP1 REVERT JUMPDEST POP JUMP JUMPDEST PUSH2 0x312 DUP2 PUSH2 0x2B0 JUMP JUMPDEST DUP2 EQ PUSH2 0x31D JUMPI PUSH1 0x0 DUP1 REVERT JUMPDEST POP JUMP INVALID LOG2 PUSH5 0x6970667358 0x22 SLT KECCAK256 0x2B SWAP11 0x24 OR EXTCODESIZE 0xC0 0xC 0xC0 0xC3 ORIGIN 0x5E REVERT LOG4 PUSH6 0xFB9ECBCB1FEA DUP14 0xD6 0x27 PUSH2 0x32FE GT PUSH22 0x79891EFD64736F6C6343000807003300000000000000 "
				},
				"gasEstimates": {
					"creation": {
						"codeDepositCost": "170800",
						"executionCost": "190",
						"totalCost": "170990"
					},
					"external": {
						"send(address,address,address,uint256)": "infinite"
					}
				},
				"methodIdentifiers": {
					"send(address,address,address,uint256)": "06e83e2f"
				}
			},
			"storageLayout": {
				"storage": [],
				"types": null
			},
			"userdoc": {
				"kind": "user",
				"methods": {},
				"version": 1
			}
		}
	}
}