{
	"PiggyBank.sol": {
		"PiggyBank": {
			"abi": [
				{
					"anonymous": false,
					"inputs": [
						{
							"indexed": false,
							"internalType": "address",
							"name": "sender",
							"type": "address"
						},
						{
							"indexed": false,
							"internalType": "uint256",
							"name": "amount",
							"type": "uint256"
						}
					],
					"name": "Deposit",
					"type": "event"
				},
				{
					"inputs": [],
					"name": "deposit",
					"outputs": [],
					"stateMutability": "payable",
					"type": "function"
				},
				{
					"inputs": [],
					"name": "withdraw",
					"outputs": [],
					"stateMutability": "nonpayable",
					"type": "function"
				}
			],
			"devdoc": {
				"kind": "dev",
				"methods": {},
				"version": 1
			},
			"evm": {
				"assembly": "    /* \"PiggyBank.sol\":56:329  contract PiggyBank{... */\n  mstore(0x40, 0x80)\n    /* \"PiggyBank.sol\":144:154  msg.sender */\n  caller\n    /* \"PiggyBank.sol\":128:154  address owner = msg.sender */\n  0x00\n  dup1\n  0x0100\n  exp\n  dup2\n  sload\n  dup2\n  0xffffffffffffffffffffffffffffffffffffffff\n  mul\n  not\n  and\n  swap1\n  dup4\n  0xffffffffffffffffffffffffffffffffffffffff\n  and\n  mul\n  or\n  swap1\n  sstore\n  pop\n    /* \"PiggyBank.sol\":56:329  contract PiggyBank{... */\n  callvalue\n  dup1\n  iszero\n  tag_1\n  jumpi\n  0x00\n  dup1\n  revert\ntag_1:\n  pop\n  dataSize(sub_0)\n  dup1\n  dataOffset(sub_0)\n  0x00\n  codecopy\n  0x00\n  return\nstop\n\nsub_0: assembly {\n        /* \"PiggyBank.sol\":56:329  contract PiggyBank{... */\n      mstore(0x40, 0x80)\n      jumpi(tag_1, lt(calldatasize, 0x04))\n      shr(0xe0, calldataload(0x00))\n      dup1\n      0x3ccfd60b\n      eq\n      tag_2\n      jumpi\n      dup1\n      0xd0e30db0\n      eq\n      tag_3\n      jumpi\n    tag_1:\n      0x00\n      dup1\n      revert\n        /* \"PiggyBank.sol\":280:325  function withdraw() external {... */\n    tag_2:\n      callvalue\n      dup1\n      iszero\n      tag_4\n      jumpi\n      0x00\n      dup1\n      revert\n    tag_4:\n      pop\n      tag_5\n      tag_6\n      jump\t// in\n    tag_5:\n      stop\n        /* \"PiggyBank.sol\":188:274  function deposit() external payable{... */\n    tag_3:\n      tag_7\n      tag_8\n      jump\t// in\n    tag_7:\n      stop\n        /* \"PiggyBank.sol\":280:325  function withdraw() external {... */\n    tag_6:\n      jump\t// out\n        /* \"PiggyBank.sol\":188:274  function deposit() external payable{... */\n    tag_8:\n        /* \"PiggyBank.sol\":238:267  Deposit(msg.sender,msg.value) */\n      0xe1fffcc4923d04b559f4d29a8bfc6cda04eb5b0d3c460751c2402c5c5cc9109c\n        /* \"PiggyBank.sol\":246:256  msg.sender */\n      caller\n        /* \"PiggyBank.sol\":257:266  msg.value */\n      callvalue\n        /* \"PiggyBank.sol\":238:267  Deposit(msg.sender,msg.value) */\n      mload(0x40)\n      tag_11\n      swap3\n      swap2\n      swap1\n      tag_12\n      jump\t// in\n    tag_11:\n      mload(0x40)\n      dup1\n      swap2\n      sub\n      swap1\n      log1\n        /* \"PiggyBank.sol\":188:274  function deposit() external payable{... */\n      jump\t// out\n        /* \"#utility.yul\":7:125   */\n    tag_14:\n        /* \"#utility.yul\":94:118   */\n      tag_16\n        /* \"#utility.yul\":112:117   */\n      dup2\n        /* \"#utility.yul\":94:118   */\n      tag_17\n      jump\t// in\n    tag_16:\n        /* \"#utility.yul\":89:92   */\n      dup3\n        /* \"#utility.yul\":82:119   */\n      mstore\n        /* \"#utility.yul\":7:125   */\n      pop\n      pop\n      jump\t// out\n        /* \"#utility.yul\":131:249   */\n    tag_18:\n        /* \"#utility.yul\":218:242   */\n      tag_20\n        /* \"#utility.yul\":236:241   */\n      dup2\n        /* \"#utility.yul\":218:242   */\n      tag_21\n      jump\t// in\n    tag_20:\n        /* \"#utility.yul\":213:216   */\n      dup3\n        /* \"#utility.yul\":206:243   */\n      mstore\n        /* \"#utility.yul\":131:249   */\n      pop\n      pop\n      jump\t// out\n        /* \"#utility.yul\":255:587   */\n    tag_12:\n        /* \"#utility.yul\":376:380   */\n      0x00\n        /* \"#utility.yul\":414:416   */\n      0x40\n        /* \"#utility.yul\":403:412   */\n      dup3\n        /* \"#utility.yul\":399:417   */\n      add\n        /* \"#utility.yul\":391:417   */\n      swap1\n      pop\n        /* \"#utility.yul\":427:498   */\n      tag_23\n        /* \"#utility.yul\":495:496   */\n      0x00\n        /* \"#utility.yul\":484:493   */\n      dup4\n        /* \"#utility.yul\":480:497   */\n      add\n        /* \"#utility.yul\":471:477   */\n      dup6\n        /* \"#utility.yul\":427:498   */\n      tag_14\n      jump\t// in\n    tag_23:\n        /* \"#utility.yul\":508:580   */\n      tag_24\n        /* \"#utility.yul\":576:578   */\n      0x20\n        /* \"#utility.yul\":565:574   */\n      dup4\n        /* \"#utility.yul\":561:579   */\n      add\n        /* \"#utility.yul\":552:558   */\n      dup5\n        /* \"#utility.yul\":508:580   */\n      tag_18\n      jump\t// in\n    tag_24:\n        /* \"#utility.yul\":255:587   */\n      swap4\n      swap3\n      pop\n      pop\n      pop\n      jump\t// out\n        /* \"#utility.yul\":593:689   */\n    tag_17:\n        /* \"#utility.yul\":630:637   */\n      0x00\n        /* \"#utility.yul\":659:683   */\n      tag_26\n        /* \"#utility.yul\":677:682   */\n      dup3\n        /* \"#utility.yul\":659:683   */\n      tag_27\n      jump\t// in\n    tag_26:\n        /* \"#utility.yul\":648:683   */\n      swap1\n      pop\n        /* \"#utility.yul\":593:689   */\n      swap2\n      swap1\n      pop\n      jump\t// out\n        /* \"#utility.yul\":695:821   */\n    tag_27:\n        /* \"#utility.yul\":732:739   */\n      0x00\n        /* \"#utility.yul\":772:814   */\n      0xffffffffffffffffffffffffffffffffffffffff\n        /* \"#utility.yul\":765:770   */\n      dup3\n        /* \"#utility.yul\":761:815   */\n      and\n        /* \"#utility.yul\":750:815   */\n      swap1\n      pop\n        /* \"#utility.yul\":695:821   */\n      swap2\n      swap1\n      pop\n      jump\t// out\n        /* \"#utility.yul\":827:904   */\n    tag_21:\n        /* \"#utility.yul\":864:871   */\n      0x00\n        /* \"#utility.yul\":893:898   */\n      dup2\n        /* \"#utility.yul\":882:898   */\n      swap1\n      pop\n        /* \"#utility.yul\":827:904   */\n      swap2\n      swap1\n      pop\n      jump\t// out\n\n    auxdata: 0xa2646970667358221220c5a6bd267f36b884b7be05975d0bee09f8ab1b7e8e2a6e2327515e65deefb24d64736f6c63430008070033\n}\n",
				"bytecode": {
					"linkReferences": {},
					"object": "6080604052336000806101000a81548173ffffffffffffffffffffffffffffffffffffffff021916908373ffffffffffffffffffffffffffffffffffffffff16021790555034801561005057600080fd5b50610131806100606000396000f3fe60806040526004361060265760003560e01c80633ccfd60b14602b578063d0e30db014603f575b600080fd5b348015603657600080fd5b50603d6047565b005b60456049565b005b565b7fe1fffcc4923d04b559f4d29a8bfc6cda04eb5b0d3c460751c2402c5c5cc9109c33346040516078929190609c565b60405180910390a1565b60898160c1565b82525050565b60968160f1565b82525050565b600060408201905060af60008301856082565b60ba6020830184608f565b9392505050565b600060ca8260d1565b9050919050565b600073ffffffffffffffffffffffffffffffffffffffff82169050919050565b600081905091905056fea2646970667358221220c5a6bd267f36b884b7be05975d0bee09f8ab1b7e8e2a6e2327515e65deefb24d64736f6c63430008070033",
					"opcodes": "PUSH1 0x80 PUSH1 0x40 MSTORE CALLER PUSH1 0x0 DUP1 PUSH2 0x100 EXP DUP2 SLOAD DUP2 PUSH20 0xFFFFFFFFFFFFFFFFFFFFFFFFFFFFFFFFFFFFFFFF MUL NOT AND SWAP1 DUP4 PUSH20 0xFFFFFFFFFFFFFFFFFFFFFFFFFFFFFFFFFFFFFFFF AND MUL OR SWAP1 SSTORE POP CALLVALUE DUP1 ISZERO PUSH2 0x50 JUMPI PUSH1 0x0 DUP1 REVERT JUMPDEST POP PUSH2 0x131 DUP1 PUSH2 0x60 PUSH1 0x0 CODECOPY PUSH1 0x0 RETURN INVALID PUSH1 0x80 PUSH1 0x40 MSTORE PUSH1 0x4 CALLDATASIZE LT PUSH1 0x26 JUMPI PUSH1 0x0 CALLDATALOAD PUSH1 0xE0 SHR DUP1 PUSH4 0x3CCFD60B EQ PUSH1 0x2B JUMPI DUP1 PUSH4 0xD0E30DB0 EQ PUSH1 0x3F JUMPI JUMPDEST PUSH1 0x0 DUP1 REVERT JUMPDEST CALLVALUE DUP1 ISZERO PUSH1 0x36 JUMPI PUSH1 0x0 DUP1 REVERT JUMPDEST POP PUSH1 0x3D PUSH1 0x47 JUMP JUMPDEST STOP JUMPDEST PUSH1 0x45 PUSH1 0x49 JUMP JUMPDEST STOP JUMPDEST JUMP JUMPDEST PUSH32 0xE1FFFCC4923D04B559F4D29A8BFC6CDA04EB5B0D3C460751C2402C5C5CC9109C CALLER CALLVALUE PUSH1 0x40 MLOAD PUSH1 0x78 SWAP3 SWAP2 SWAP1 PUSH1 0x9C JUMP JUMPDEST PUSH1 0x40 MLOAD DUP1 SWAP2 SUB SWAP1 LOG1 JUMP JUMPDEST PUSH1 0x89 DUP2 PUSH1 0xC1 JUMP JUMPDEST DUP3 MSTORE POP POP JUMP JUMPDEST PUSH1 0x96 DUP2 PUSH1 0xF1 JUMP JUMPDEST DUP3 MSTORE POP POP JUMP JUMPDEST PUSH1 0x0 PUSH1 0x40 DUP3 ADD SWAP1 POP PUSH1 0xAF PUSH1 0x0 DUP4 ADD DUP6 PUSH1 0x82 JUMP JUMPDEST PUSH1 0xBA PUSH1 0x20 DUP4 ADD DUP5 PUSH1 0x8F JUMP JUMPDEST SWAP4 SWAP3 POP POP POP JUMP JUMPDEST PUSH1 0x0 PUSH1 0xCA DUP3 PUSH1 0xD1 JUMP JUMPDEST SWAP1 POP SWAP2 SWAP1 POP JUMP JUMPDEST PUSH1 0x0 PUSH20 0xFFFFFFFFFFFFFFFFFFFFFFFFFFFFFFFFFFFFFFFF DUP3 AND SWAP1 POP SWAP2 SWAP1 POP JUMP JUMPDEST PUSH1 0x0 DUP2 SWAP1 POP SWAP2 SWAP1 POP JUMP INVALID LOG2 PUSH5 0x6970667358 0x22 SLT KECCAK256 0xC5 0xA6 0xBD 0x26 PUSH32 0x36B884B7BE05975D0BEE09F8AB1B7E8E2A6E2327515E65DEEFB24D64736F6C63 NUMBER STOP ADDMOD SMOD STOP CALLER "
				},
				"gasEstimates": {
					"creation": {
						"codeDepositCost": "61000",
						"executionCost": "24377",
						"totalCost": "85377"
					},
					"external": {
						"deposit()": "1717",
						"withdraw()": "122"
					}
				},
				"methodIdentifiers": {
					"deposit()": "d0e30db0",
					"withdraw()": "3ccfd60b"
				}
			},
			"storageLayout": {
				"storage": [
					{
						"astId": 11,
						"contract": "PiggyBank.sol:PiggyBank",
						"label": "owner",
						"offset": 0,
						"slot": "0",
						"type": "t_address"
					}
				],
				"types": {
					"t_address": {
						"encoding": "inplace",
						"label": "address",
						"numberOfBytes": "20"
					}
				}
			},
			"userdoc": {
				"kind": "user",
				"methods": {},
				"version": 1
			}
		}
	}
}