{
	"Call.sol": {
		"CallTest": {
			"abi": [
				{
					"inputs": [],
					"stateMutability": "payable",
					"type": "constructor"
				},
				{
					"anonymous": false,
					"inputs": [
						{
							"indexed": false,
							"internalType": "uint256",
							"name": "a",
							"type": "uint256"
						}
					],
					"name": "Log",
					"type": "event"
				},
				{
					"inputs": [
						{
							"internalType": "address",
							"name": "c",
							"type": "address"
						}
					],
					"name": "getX",
					"outputs": [
						{
							"internalType": "uint256",
							"name": "",
							"type": "uint256"
						}
					],
					"stateMutability": "nonpayable",
					"type": "function"
				},
				{
					"inputs": [
						{
							"internalType": "address",
							"name": "c",
							"type": "address"
						},
						{
							"internalType": "uint256",
							"name": "_x",
							"type": "uint256"
						}
					],
					"name": "setX",
					"outputs": [],
					"stateMutability": "nonpayable",
					"type": "function"
				}
			],
			"devdoc": {
				"kind": "dev",
				"methods": {},
				"version": 1
			},
			"evm": {
				"assembly": "    /* \"Call.sol\":229:783  contract CallTest{... */\n  mstore(0x40, 0x80)\n  dataSize(sub_0)\n  dup1\n  dataOffset(sub_0)\n  0x00\n  codecopy\n  0x00\n  return\nstop\n\nsub_0: assembly {\n        /* \"Call.sol\":229:783  contract CallTest{... */\n      mstore(0x40, 0x80)\n      callvalue\n      dup1\n      iszero\n      tag_1\n      jumpi\n      0x00\n      dup1\n      revert\n    tag_1:\n      pop\n      jumpi(tag_2, lt(calldatasize, 0x04))\n      shr(0xe0, calldataload(0x00))\n      dup1\n      0x4a2ad99f\n      eq\n      tag_3\n      jumpi\n      dup1\n      0x7c94c8ca\n      eq\n      tag_4\n      jumpi\n    tag_2:\n      0x00\n      dup1\n      revert\n        /* \"Call.sol\":622:781  function setX(address c,uint _x) external{... */\n    tag_3:\n      tag_5\n      0x04\n      dup1\n      calldatasize\n      sub\n      dup2\n      add\n      swap1\n      tag_6\n      swap2\n      swap1\n      tag_7\n      jump\t// in\n    tag_6:\n      tag_8\n      jump\t// in\n    tag_5:\n      stop\n        /* \"Call.sol\":303:615  function getX(address c) external returns(uint){... */\n    tag_4:\n      tag_9\n      0x04\n      dup1\n      calldatasize\n      sub\n      dup2\n      add\n      swap1\n      tag_10\n      swap2\n      swap1\n      tag_11\n      jump\t// in\n    tag_10:\n      tag_12\n      jump\t// in\n    tag_9:\n      mload(0x40)\n      tag_13\n      swap2\n      swap1\n      tag_14\n      jump\t// in\n    tag_13:\n      mload(0x40)\n      dup1\n      swap2\n      sub\n      swap1\n      return\n        /* \"Call.sol\":622:781  function setX(address c,uint _x) external{... */\n    tag_8:\n        /* \"Call.sol\":674:686  bool success */\n      0x00\n        /* \"Call.sol\":691:692  c */\n      dup3\n        /* \"Call.sol\":691:697  c.call */\n      0xffffffffffffffffffffffffffffffffffffffff\n      and\n        /* \"Call.sol\":738:740  _x */\n      dup3\n        /* \"Call.sol\":698:741  abi.encodeWithSignature(\"setX(uint256)\",_x) */\n      add(0x24, mload(0x40))\n      tag_16\n      swap2\n      swap1\n      tag_14\n      jump\t// in\n    tag_16:\n      mload(0x40)\n      0x20\n      dup2\n      dup4\n      sub\n      sub\n      dup2\n      mstore\n      swap1\n      0x40\n      mstore\n      and(not(0xffffffffffffffffffffffffffffffffffffffffffffffffffffffff), 0x4018d9aa00000000000000000000000000000000000000000000000000000000)\n      0x20\n      dup3\n      add\n      dup1\n      mload\n      0xffffffffffffffffffffffffffffffffffffffffffffffffffffffff\n      dup4\n      dup2\n      dup4\n      and\n      or\n      dup4\n      mstore\n      pop\n      pop\n      pop\n      pop\n        /* \"Call.sol\":691:742  c.call(abi.encodeWithSignature(\"setX(uint256)\",_x)) */\n      mload(0x40)\n      tag_17\n      swap2\n      swap1\n      tag_18\n      jump\t// in\n    tag_17:\n      0x00\n      mload(0x40)\n      dup1\n      dup4\n      sub\n      dup2\n      0x00\n      dup7\n      gas\n      call\n      swap2\n      pop\n      pop\n      returndatasize\n      dup1\n      0x00\n      dup2\n      eq\n      tag_21\n      jumpi\n      mload(0x40)\n      swap2\n      pop\n      and(add(returndatasize, 0x3f), not(0x1f))\n      dup3\n      add\n      0x40\n      mstore\n      returndatasize\n      dup3\n      mstore\n      returndatasize\n      0x00\n      0x20\n      dup5\n      add\n      returndatacopy\n      jump(tag_20)\n    tag_21:\n      0x60\n      swap2\n      pop\n    tag_20:\n      pop\n        /* \"Call.sol\":673:742  (bool success,) = c.call(abi.encodeWithSignature(\"setX(uint256)\",_x)) */\n      pop\n      swap1\n      pop\n        /* \"Call.sol\":760:767  success */\n      dup1\n        /* \"Call.sol\":752:774  require(success,\"ASD\") */\n      tag_22\n      jumpi\n      mload(0x40)\n      0x08c379a000000000000000000000000000000000000000000000000000000000\n      dup2\n      mstore\n      0x04\n      add\n      tag_23\n      swap1\n      tag_24\n      jump\t// in\n    tag_23:\n      mload(0x40)\n      dup1\n      swap2\n      sub\n      swap1\n      revert\n    tag_22:\n        /* \"Call.sol\":663:781  {... */\n      pop\n        /* \"Call.sol\":622:781  function setX(address c,uint _x) external{... */\n      pop\n      pop\n      jump\t// out\n        /* \"Call.sol\":303:615  function getX(address c) external returns(uint){... */\n    tag_12:\n        /* \"Call.sol\":345:349  uint */\n      0x00\n        /* \"Call.sol\":361:373  bool success */\n      dup1\n        /* \"Call.sol\":375:392  bytes memory data */\n      0x00\n        /* \"Call.sol\":397:398  c */\n      dup4\n        /* \"Call.sol\":397:403  c.call */\n      0xffffffffffffffffffffffffffffffffffffffff\n      and\n        /* \"Call.sol\":410:413  111 */\n      0x6f\n        /* \"Call.sol\":415:448  abi.encodeWithSignature(\"getX()\") */\n      add(0x24, mload(0x40))\n      mload(0x40)\n      0x20\n      dup2\n      dup4\n      sub\n      sub\n      dup2\n      mstore\n      swap1\n      0x40\n      mstore\n      and(not(0xffffffffffffffffffffffffffffffffffffffffffffffffffffffff), 0x5197c7aa00000000000000000000000000000000000000000000000000000000)\n      0x20\n      dup3\n      add\n      dup1\n      mload\n      0xffffffffffffffffffffffffffffffffffffffffffffffffffffffff\n      dup4\n      dup2\n      dup4\n      and\n      or\n      dup4\n      mstore\n      pop\n      pop\n      pop\n      pop\n        /* \"Call.sol\":397:449  c.call{value:111}(abi.encodeWithSignature(\"getX()\")) */\n      mload(0x40)\n      tag_26\n      swap2\n      swap1\n      tag_18\n      jump\t// in\n    tag_26:\n      0x00\n      mload(0x40)\n      dup1\n      dup4\n      sub\n      dup2\n      dup6\n      dup8\n      gas\n      call\n      swap3\n      pop\n      pop\n      pop\n      returndatasize\n      dup1\n      0x00\n      dup2\n      eq\n      tag_29\n      jumpi\n      mload(0x40)\n      swap2\n      pop\n      and(add(returndatasize, 0x3f), not(0x1f))\n      dup3\n      add\n      0x40\n      mstore\n      returndatasize\n      dup3\n      mstore\n      returndatasize\n      0x00\n      0x20\n      dup5\n      add\n      returndatacopy\n      jump(tag_28)\n    tag_29:\n      0x60\n      swap2\n      pop\n    tag_28:\n      pop\n        /* \"Call.sol\":360:449  (bool success, bytes memory data ) = c.call{value:111}(abi.encodeWithSignature(\"getX()\")) */\n      swap2\n      pop\n      swap2\n      pop\n        /* \"Call.sol\":467:474  success */\n      dup2\n        /* \"Call.sol\":459:484  require(success,\"Failed\") */\n      tag_30\n      jumpi\n      mload(0x40)\n      0x08c379a000000000000000000000000000000000000000000000000000000000\n      dup2\n      mstore\n      0x04\n      add\n      tag_31\n      swap1\n      tag_32\n      jump\t// in\n    tag_31:\n      mload(0x40)\n      dup1\n      swap2\n      sub\n      swap1\n      revert\n    tag_30:\n        /* \"Call.sol\":494:500  uint r */\n      0x00\n        /* \"Call.sol\":554:558  0x20 */\n      0x20\n        /* \"Call.sol\":548:552  data */\n      dup3\n        /* \"Call.sol\":544:559  add(data, 0x20) */\n      add\n        /* \"Call.sol\":538:560  mload(add(data, 0x20)) */\n      mload\n        /* \"Call.sol\":533:560  r := mload(add(data, 0x20)) */\n      swap1\n      pop\n        /* \"Call.sol\":584:590  Log(r) */\n      0x909c57d5c6ac08245cf2a6de3900e2b868513fa59099b92b27d8db823d92df9c\n        /* \"Call.sol\":588:589  r */\n      dup2\n        /* \"Call.sol\":584:590  Log(r) */\n      mload(0x40)\n      tag_33\n      swap2\n      swap1\n      tag_14\n      jump\t// in\n    tag_33:\n      mload(0x40)\n      dup1\n      swap2\n      sub\n      swap1\n      log1\n        /* \"Call.sol\":607:608  r */\n      dup1\n        /* \"Call.sol\":600:608  return r */\n      swap4\n      pop\n      pop\n      pop\n      pop\n        /* \"Call.sol\":303:615  function getX(address c) external returns(uint){... */\n      swap2\n      swap1\n      pop\n      jump\t// out\n        /* \"#utility.yul\":7:146   */\n    tag_35:\n        /* \"#utility.yul\":53:58   */\n      0x00\n        /* \"#utility.yul\":91:97   */\n      dup2\n        /* \"#utility.yul\":78:98   */\n      calldataload\n        /* \"#utility.yul\":69:98   */\n      swap1\n      pop\n        /* \"#utility.yul\":107:140   */\n      tag_37\n        /* \"#utility.yul\":134:139   */\n      dup2\n        /* \"#utility.yul\":107:140   */\n      tag_38\n      jump\t// in\n    tag_37:\n        /* \"#utility.yul\":7:146   */\n      swap3\n      swap2\n      pop\n      pop\n      jump\t// out\n        /* \"#utility.yul\":152:291   */\n    tag_39:\n        /* \"#utility.yul\":198:203   */\n      0x00\n        /* \"#utility.yul\":236:242   */\n      dup2\n        /* \"#utility.yul\":223:243   */\n      calldataload\n        /* \"#utility.yul\":214:243   */\n      swap1\n      pop\n        /* \"#utility.yul\":252:285   */\n      tag_41\n        /* \"#utility.yul\":279:284   */\n      dup2\n        /* \"#utility.yul\":252:285   */\n      tag_42\n      jump\t// in\n    tag_41:\n        /* \"#utility.yul\":152:291   */\n      swap3\n      swap2\n      pop\n      pop\n      jump\t// out\n        /* \"#utility.yul\":297:626   */\n    tag_11:\n        /* \"#utility.yul\":356:362   */\n      0x00\n        /* \"#utility.yul\":405:407   */\n      0x20\n        /* \"#utility.yul\":393:402   */\n      dup3\n        /* \"#utility.yul\":384:391   */\n      dup5\n        /* \"#utility.yul\":380:403   */\n      sub\n        /* \"#utility.yul\":376:408   */\n      slt\n        /* \"#utility.yul\":373:492   */\n      iszero\n      tag_44\n      jumpi\n        /* \"#utility.yul\":411:490   */\n      tag_45\n      tag_46\n      jump\t// in\n    tag_45:\n        /* \"#utility.yul\":373:492   */\n    tag_44:\n        /* \"#utility.yul\":531:532   */\n      0x00\n        /* \"#utility.yul\":556:609   */\n      tag_47\n        /* \"#utility.yul\":601:608   */\n      dup5\n        /* \"#utility.yul\":592:598   */\n      dup3\n        /* \"#utility.yul\":581:590   */\n      dup6\n        /* \"#utility.yul\":577:599   */\n      add\n        /* \"#utility.yul\":556:609   */\n      tag_35\n      jump\t// in\n    tag_47:\n        /* \"#utility.yul\":546:609   */\n      swap2\n      pop\n        /* \"#utility.yul\":502:619   */\n      pop\n        /* \"#utility.yul\":297:626   */\n      swap3\n      swap2\n      pop\n      pop\n      jump\t// out\n        /* \"#utility.yul\":632:1106   */\n    tag_7:\n        /* \"#utility.yul\":700:706   */\n      0x00\n        /* \"#utility.yul\":708:714   */\n      dup1\n        /* \"#utility.yul\":757:759   */\n      0x40\n        /* \"#utility.yul\":745:754   */\n      dup4\n        /* \"#utility.yul\":736:743   */\n      dup6\n        /* \"#utility.yul\":732:755   */\n      sub\n        /* \"#utility.yul\":728:760   */\n      slt\n        /* \"#utility.yul\":725:844   */\n      iszero\n      tag_49\n      jumpi\n        /* \"#utility.yul\":763:842   */\n      tag_50\n      tag_46\n      jump\t// in\n    tag_50:\n        /* \"#utility.yul\":725:844   */\n    tag_49:\n        /* \"#utility.yul\":883:884   */\n      0x00\n        /* \"#utility.yul\":908:961   */\n      tag_51\n        /* \"#utility.yul\":953:960   */\n      dup6\n        /* \"#utility.yul\":944:950   */\n      dup3\n        /* \"#utility.yul\":933:942   */\n      dup7\n        /* \"#utility.yul\":929:951   */\n      add\n        /* \"#utility.yul\":908:961   */\n      tag_35\n      jump\t// in\n    tag_51:\n        /* \"#utility.yul\":898:961   */\n      swap3\n      pop\n        /* \"#utility.yul\":854:971   */\n      pop\n        /* \"#utility.yul\":1010:1012   */\n      0x20\n        /* \"#utility.yul\":1036:1089   */\n      tag_52\n        /* \"#utility.yul\":1081:1088   */\n      dup6\n        /* \"#utility.yul\":1072:1078   */\n      dup3\n        /* \"#utility.yul\":1061:1070   */\n      dup7\n        /* \"#utility.yul\":1057:1079   */\n      add\n        /* \"#utility.yul\":1036:1089   */\n      tag_39\n      jump\t// in\n    tag_52:\n        /* \"#utility.yul\":1026:1089   */\n      swap2\n      pop\n        /* \"#utility.yul\":981:1099   */\n      pop\n        /* \"#utility.yul\":632:1106   */\n      swap3\n      pop\n      swap3\n      swap1\n      pop\n      jump\t// out\n        /* \"#utility.yul\":1112:1485   */\n    tag_53:\n        /* \"#utility.yul\":1216:1219   */\n      0x00\n        /* \"#utility.yul\":1244:1282   */\n      tag_55\n        /* \"#utility.yul\":1276:1281   */\n      dup3\n        /* \"#utility.yul\":1244:1282   */\n      tag_56\n      jump\t// in\n    tag_55:\n        /* \"#utility.yul\":1298:1386   */\n      tag_57\n        /* \"#utility.yul\":1379:1385   */\n      dup2\n        /* \"#utility.yul\":1374:1377   */\n      dup6\n        /* \"#utility.yul\":1298:1386   */\n      tag_58\n      jump\t// in\n    tag_57:\n        /* \"#utility.yul\":1291:1386   */\n      swap4\n      pop\n        /* \"#utility.yul\":1395:1447   */\n      tag_59\n        /* \"#utility.yul\":1440:1446   */\n      dup2\n        /* \"#utility.yul\":1435:1438   */\n      dup6\n        /* \"#utility.yul\":1428:1432   */\n      0x20\n        /* \"#utility.yul\":1421:1426   */\n      dup7\n        /* \"#utility.yul\":1417:1433   */\n      add\n        /* \"#utility.yul\":1395:1447   */\n      tag_60\n      jump\t// in\n    tag_59:\n        /* \"#utility.yul\":1472:1478   */\n      dup1\n        /* \"#utility.yul\":1467:1470   */\n      dup5\n        /* \"#utility.yul\":1463:1479   */\n      add\n        /* \"#utility.yul\":1456:1479   */\n      swap2\n      pop\n        /* \"#utility.yul\":1220:1485   */\n      pop\n        /* \"#utility.yul\":1112:1485   */\n      swap3\n      swap2\n      pop\n      pop\n      jump\t// out\n        /* \"#utility.yul\":1491:1856   */\n    tag_61:\n        /* \"#utility.yul\":1633:1636   */\n      0x00\n        /* \"#utility.yul\":1654:1720   */\n      tag_63\n        /* \"#utility.yul\":1718:1719   */\n      0x06\n        /* \"#utility.yul\":1713:1716   */\n      dup4\n        /* \"#utility.yul\":1654:1720   */\n      tag_64\n      jump\t// in\n    tag_63:\n        /* \"#utility.yul\":1647:1720   */\n      swap2\n      pop\n        /* \"#utility.yul\":1729:1822   */\n      tag_65\n        /* \"#utility.yul\":1818:1821   */\n      dup3\n        /* \"#utility.yul\":1729:1822   */\n      tag_66\n      jump\t// in\n    tag_65:\n        /* \"#utility.yul\":1847:1849   */\n      0x20\n        /* \"#utility.yul\":1842:1845   */\n      dup3\n        /* \"#utility.yul\":1838:1850   */\n      add\n        /* \"#utility.yul\":1831:1850   */\n      swap1\n      pop\n        /* \"#utility.yul\":1491:1856   */\n      swap2\n      swap1\n      pop\n      jump\t// out\n        /* \"#utility.yul\":1862:2227   */\n    tag_67:\n        /* \"#utility.yul\":2004:2007   */\n      0x00\n        /* \"#utility.yul\":2025:2091   */\n      tag_69\n        /* \"#utility.yul\":2089:2090   */\n      0x03\n        /* \"#utility.yul\":2084:2087   */\n      dup4\n        /* \"#utility.yul\":2025:2091   */\n      tag_64\n      jump\t// in\n    tag_69:\n        /* \"#utility.yul\":2018:2091   */\n      swap2\n      pop\n        /* \"#utility.yul\":2100:2193   */\n      tag_70\n        /* \"#utility.yul\":2189:2192   */\n      dup3\n        /* \"#utility.yul\":2100:2193   */\n      tag_71\n      jump\t// in\n    tag_70:\n        /* \"#utility.yul\":2218:2220   */\n      0x20\n        /* \"#utility.yul\":2213:2216   */\n      dup3\n        /* \"#utility.yul\":2209:2221   */\n      add\n        /* \"#utility.yul\":2202:2221   */\n      swap1\n      pop\n        /* \"#utility.yul\":1862:2227   */\n      swap2\n      swap1\n      pop\n      jump\t// out\n        /* \"#utility.yul\":2233:2351   */\n    tag_72:\n        /* \"#utility.yul\":2320:2344   */\n      tag_74\n        /* \"#utility.yul\":2338:2343   */\n      dup2\n        /* \"#utility.yul\":2320:2344   */\n      tag_75\n      jump\t// in\n    tag_74:\n        /* \"#utility.yul\":2315:2318   */\n      dup3\n        /* \"#utility.yul\":2308:2345   */\n      mstore\n        /* \"#utility.yul\":2233:2351   */\n      pop\n      pop\n      jump\t// out\n        /* \"#utility.yul\":2357:2628   */\n    tag_18:\n        /* \"#utility.yul\":2487:2490   */\n      0x00\n        /* \"#utility.yul\":2509:2602   */\n      tag_77\n        /* \"#utility.yul\":2598:2601   */\n      dup3\n        /* \"#utility.yul\":2589:2595   */\n      dup5\n        /* \"#utility.yul\":2509:2602   */\n      tag_53\n      jump\t// in\n    tag_77:\n        /* \"#utility.yul\":2502:2602   */\n      swap2\n      pop\n        /* \"#utility.yul\":2619:2622   */\n      dup2\n        /* \"#utility.yul\":2612:2622   */\n      swap1\n      pop\n        /* \"#utility.yul\":2357:2628   */\n      swap3\n      swap2\n      pop\n      pop\n      jump\t// out\n        /* \"#utility.yul\":2634:3053   */\n    tag_32:\n        /* \"#utility.yul\":2800:2804   */\n      0x00\n        /* \"#utility.yul\":2838:2840   */\n      0x20\n        /* \"#utility.yul\":2827:2836   */\n      dup3\n        /* \"#utility.yul\":2823:2841   */\n      add\n        /* \"#utility.yul\":2815:2841   */\n      swap1\n      pop\n        /* \"#utility.yul\":2887:2896   */\n      dup2\n        /* \"#utility.yul\":2881:2885   */\n      dup2\n        /* \"#utility.yul\":2877:2897   */\n      sub\n        /* \"#utility.yul\":2873:2874   */\n      0x00\n        /* \"#utility.yul\":2862:2871   */\n      dup4\n        /* \"#utility.yul\":2858:2875   */\n      add\n        /* \"#utility.yul\":2851:2898   */\n      mstore\n        /* \"#utility.yul\":2915:3046   */\n      tag_79\n        /* \"#utility.yul\":3041:3045   */\n      dup2\n        /* \"#utility.yul\":2915:3046   */\n      tag_61\n      jump\t// in\n    tag_79:\n        /* \"#utility.yul\":2907:3046   */\n      swap1\n      pop\n        /* \"#utility.yul\":2634:3053   */\n      swap2\n      swap1\n      pop\n      jump\t// out\n        /* \"#utility.yul\":3059:3478   */\n    tag_24:\n        /* \"#utility.yul\":3225:3229   */\n      0x00\n        /* \"#utility.yul\":3263:3265   */\n      0x20\n        /* \"#utility.yul\":3252:3261   */\n      dup3\n        /* \"#utility.yul\":3248:3266   */\n      add\n        /* \"#utility.yul\":3240:3266   */\n      swap1\n      pop\n        /* \"#utility.yul\":3312:3321   */\n      dup2\n        /* \"#utility.yul\":3306:3310   */\n      dup2\n        /* \"#utility.yul\":3302:3322   */\n      sub\n        /* \"#utility.yul\":3298:3299   */\n      0x00\n        /* \"#utility.yul\":3287:3296   */\n      dup4\n        /* \"#utility.yul\":3283:3300   */\n      add\n        /* \"#utility.yul\":3276:3323   */\n      mstore\n        /* \"#utility.yul\":3340:3471   */\n      tag_81\n        /* \"#utility.yul\":3466:3470   */\n      dup2\n        /* \"#utility.yul\":3340:3471   */\n      tag_67\n      jump\t// in\n    tag_81:\n        /* \"#utility.yul\":3332:3471   */\n      swap1\n      pop\n        /* \"#utility.yul\":3059:3478   */\n      swap2\n      swap1\n      pop\n      jump\t// out\n        /* \"#utility.yul\":3484:3706   */\n    tag_14:\n        /* \"#utility.yul\":3577:3581   */\n      0x00\n        /* \"#utility.yul\":3615:3617   */\n      0x20\n        /* \"#utility.yul\":3604:3613   */\n      dup3\n        /* \"#utility.yul\":3600:3618   */\n      add\n        /* \"#utility.yul\":3592:3618   */\n      swap1\n      pop\n        /* \"#utility.yul\":3628:3699   */\n      tag_83\n        /* \"#utility.yul\":3696:3697   */\n      0x00\n        /* \"#utility.yul\":3685:3694   */\n      dup4\n        /* \"#utility.yul\":3681:3698   */\n      add\n        /* \"#utility.yul\":3672:3678   */\n      dup5\n        /* \"#utility.yul\":3628:3699   */\n      tag_72\n      jump\t// in\n    tag_83:\n        /* \"#utility.yul\":3484:3706   */\n      swap3\n      swap2\n      pop\n      pop\n      jump\t// out\n        /* \"#utility.yul\":3793:3891   */\n    tag_56:\n        /* \"#utility.yul\":3844:3850   */\n      0x00\n        /* \"#utility.yul\":3878:3883   */\n      dup2\n        /* \"#utility.yul\":3872:3884   */\n      mload\n        /* \"#utility.yul\":3862:3884   */\n      swap1\n      pop\n        /* \"#utility.yul\":3793:3891   */\n      swap2\n      swap1\n      pop\n      jump\t// out\n        /* \"#utility.yul\":3897:4044   */\n    tag_58:\n        /* \"#utility.yul\":3998:4009   */\n      0x00\n        /* \"#utility.yul\":4035:4038   */\n      dup2\n        /* \"#utility.yul\":4020:4038   */\n      swap1\n      pop\n        /* \"#utility.yul\":3897:4044   */\n      swap3\n      swap2\n      pop\n      pop\n      jump\t// out\n        /* \"#utility.yul\":4050:4219   */\n    tag_64:\n        /* \"#utility.yul\":4134:4145   */\n      0x00\n        /* \"#utility.yul\":4168:4174   */\n      dup3\n        /* \"#utility.yul\":4163:4166   */\n      dup3\n        /* \"#utility.yul\":4156:4175   */\n      mstore\n        /* \"#utility.yul\":4208:4212   */\n      0x20\n        /* \"#utility.yul\":4203:4206   */\n      dup3\n        /* \"#utility.yul\":4199:4213   */\n      add\n        /* \"#utility.yul\":4184:4213   */\n      swap1\n      pop\n        /* \"#utility.yul\":4050:4219   */\n      swap3\n      swap2\n      pop\n      pop\n      jump\t// out\n        /* \"#utility.yul\":4225:4321   */\n    tag_89:\n        /* \"#utility.yul\":4262:4269   */\n      0x00\n        /* \"#utility.yul\":4291:4315   */\n      tag_91\n        /* \"#utility.yul\":4309:4314   */\n      dup3\n        /* \"#utility.yul\":4291:4315   */\n      tag_92\n      jump\t// in\n    tag_91:\n        /* \"#utility.yul\":4280:4315   */\n      swap1\n      pop\n        /* \"#utility.yul\":4225:4321   */\n      swap2\n      swap1\n      pop\n      jump\t// out\n        /* \"#utility.yul\":4327:4453   */\n    tag_92:\n        /* \"#utility.yul\":4364:4371   */\n      0x00\n        /* \"#utility.yul\":4404:4446   */\n      0xffffffffffffffffffffffffffffffffffffffff\n        /* \"#utility.yul\":4397:4402   */\n      dup3\n        /* \"#utility.yul\":4393:4447   */\n      and\n        /* \"#utility.yul\":4382:4447   */\n      swap1\n      pop\n        /* \"#utility.yul\":4327:4453   */\n      swap2\n      swap1\n      pop\n      jump\t// out\n        /* \"#utility.yul\":4459:4536   */\n    tag_75:\n        /* \"#utility.yul\":4496:4503   */\n      0x00\n        /* \"#utility.yul\":4525:4530   */\n      dup2\n        /* \"#utility.yul\":4514:4530   */\n      swap1\n      pop\n        /* \"#utility.yul\":4459:4536   */\n      swap2\n      swap1\n      pop\n      jump\t// out\n        /* \"#utility.yul\":4542:4849   */\n    tag_60:\n        /* \"#utility.yul\":4610:4611   */\n      0x00\n        /* \"#utility.yul\":4620:4733   */\n    tag_96:\n        /* \"#utility.yul\":4634:4640   */\n      dup4\n        /* \"#utility.yul\":4631:4632   */\n      dup2\n        /* \"#utility.yul\":4628:4641   */\n      lt\n        /* \"#utility.yul\":4620:4733   */\n      iszero\n      tag_98\n      jumpi\n        /* \"#utility.yul\":4719:4720   */\n      dup1\n        /* \"#utility.yul\":4714:4717   */\n      dup3\n        /* \"#utility.yul\":4710:4721   */\n      add\n        /* \"#utility.yul\":4704:4722   */\n      mload\n        /* \"#utility.yul\":4700:4701   */\n      dup2\n        /* \"#utility.yul\":4695:4698   */\n      dup5\n        /* \"#utility.yul\":4691:4702   */\n      add\n        /* \"#utility.yul\":4684:4723   */\n      mstore\n        /* \"#utility.yul\":4656:4658   */\n      0x20\n        /* \"#utility.yul\":4653:4654   */\n      dup2\n        /* \"#utility.yul\":4649:4659   */\n      add\n        /* \"#utility.yul\":4644:4659   */\n      swap1\n      pop\n        /* \"#utility.yul\":4620:4733   */\n      jump(tag_96)\n    tag_98:\n        /* \"#utility.yul\":4751:4757   */\n      dup4\n        /* \"#utility.yul\":4748:4749   */\n      dup2\n        /* \"#utility.yul\":4745:4758   */\n      gt\n        /* \"#utility.yul\":4742:4843   */\n      iszero\n      tag_99\n      jumpi\n        /* \"#utility.yul\":4831:4832   */\n      0x00\n        /* \"#utility.yul\":4822:4828   */\n      dup5\n        /* \"#utility.yul\":4817:4820   */\n      dup5\n        /* \"#utility.yul\":4813:4829   */\n      add\n        /* \"#utility.yul\":4806:4833   */\n      mstore\n        /* \"#utility.yul\":4742:4843   */\n    tag_99:\n        /* \"#utility.yul\":4591:4849   */\n      pop\n        /* \"#utility.yul\":4542:4849   */\n      pop\n      pop\n      pop\n      jump\t// out\n        /* \"#utility.yul\":4978:5095   */\n    tag_46:\n        /* \"#utility.yul\":5087:5088   */\n      0x00\n        /* \"#utility.yul\":5084:5085   */\n      dup1\n        /* \"#utility.yul\":5077:5089   */\n      revert\n        /* \"#utility.yul\":5101:5257   */\n    tag_66:\n        /* \"#utility.yul\":5241:5249   */\n      0x4661696c65640000000000000000000000000000000000000000000000000000\n        /* \"#utility.yul\":5237:5238   */\n      0x00\n        /* \"#utility.yul\":5229:5235   */\n      dup3\n        /* \"#utility.yul\":5225:5239   */\n      add\n        /* \"#utility.yul\":5218:5250   */\n      mstore\n        /* \"#utility.yul\":5101:5257   */\n      pop\n      jump\t// out\n        /* \"#utility.yul\":5263:5416   */\n    tag_71:\n        /* \"#utility.yul\":5403:5408   */\n      0x4153440000000000000000000000000000000000000000000000000000000000\n        /* \"#utility.yul\":5399:5400   */\n      0x00\n        /* \"#utility.yul\":5391:5397   */\n      dup3\n        /* \"#utility.yul\":5387:5401   */\n      add\n        /* \"#utility.yul\":5380:5409   */\n      mstore\n        /* \"#utility.yul\":5263:5416   */\n      pop\n      jump\t// out\n        /* \"#utility.yul\":5422:5544   */\n    tag_38:\n        /* \"#utility.yul\":5495:5519   */\n      tag_106\n        /* \"#utility.yul\":5513:5518   */\n      dup2\n        /* \"#utility.yul\":5495:5519   */\n      tag_89\n      jump\t// in\n    tag_106:\n        /* \"#utility.yul\":5488:5493   */\n      dup2\n        /* \"#utility.yul\":5485:5520   */\n      eq\n        /* \"#utility.yul\":5475:5538   */\n      tag_107\n      jumpi\n        /* \"#utility.yul\":5534:5535   */\n      0x00\n        /* \"#utility.yul\":5531:5532   */\n      dup1\n        /* \"#utility.yul\":5524:5536   */\n      revert\n        /* \"#utility.yul\":5475:5538   */\n    tag_107:\n        /* \"#utility.yul\":5422:5544   */\n      pop\n      jump\t// out\n        /* \"#utility.yul\":5550:5672   */\n    tag_42:\n        /* \"#utility.yul\":5623:5647   */\n      tag_109\n        /* \"#utility.yul\":5641:5646   */\n      dup2\n        /* \"#utility.yul\":5623:5647   */\n      tag_75\n      jump\t// in\n    tag_109:\n        /* \"#utility.yul\":5616:5621   */\n      dup2\n        /* \"#utility.yul\":5613:5648   */\n      eq\n        /* \"#utility.yul\":5603:5666   */\n      tag_110\n      jumpi\n        /* \"#utility.yul\":5662:5663   */\n      0x00\n        /* \"#utility.yul\":5659:5660   */\n      dup1\n        /* \"#utility.yul\":5652:5664   */\n      revert\n        /* \"#utility.yul\":5603:5666   */\n    tag_110:\n        /* \"#utility.yul\":5550:5672   */\n      pop\n      jump\t// out\n\n    auxdata: 0xa26469706673582212208a350034c3de99e3631b9ede0532e7b18aa9cef825eb7cbf5647defe53306c3d64736f6c63430008070033\n}\n",
				"bytecode": {
					"linkReferences": {},
					"object": "6080604052610626806100136000396000f3fe608060405234801561001057600080fd5b50600436106100365760003560e01c80634a2ad99f1461003b5780637c94c8ca14610057575b600080fd5b6100556004803603810190610050919061039d565b610087565b005b610071600480360381019061006c9190610370565b6101c6565b60405161007e91906104ba565b60405180910390f35b60008273ffffffffffffffffffffffffffffffffffffffff16826040516024016100b191906104ba565b6040516020818303038152906040527f4018d9aa000000000000000000000000000000000000000000000000000000007bffffffffffffffffffffffffffffffffffffffffffffffffffffffff19166020820180517bffffffffffffffffffffffffffffffffffffffffffffffffffffffff838183161783525050505060405161013b9190610463565b6000604051808303816000865af19150503d8060008114610178576040519150601f19603f3d011682016040523d82523d6000602084013e61017d565b606091505b50509050806101c1576040517f08c379a00000000000000000000000000000000000000000000000000000000081526004016101b89061049a565b60405180910390fd5b505050565b60008060008373ffffffffffffffffffffffffffffffffffffffff16606f6040516024016040516020818303038152906040527f5197c7aa000000000000000000000000000000000000000000000000000000007bffffffffffffffffffffffffffffffffffffffffffffffffffffffff19166020820180517bffffffffffffffffffffffffffffffffffffffffffffffffffffffff83818316178352505050506040516102749190610463565b60006040518083038185875af1925050503d80600081146102b1576040519150601f19603f3d011682016040523d82523d6000602084013e6102b6565b606091505b5091509150816102fb576040517f08c379a00000000000000000000000000000000000000000000000000000000081526004016102f29061047a565b60405180910390fd5b6000602082015190507f909c57d5c6ac08245cf2a6de3900e2b868513fa59099b92b27d8db823d92df9c8160405161033391906104ba565b60405180910390a1809350505050919050565b600081359050610355816105c2565b92915050565b60008135905061036a816105d9565b92915050565b6000602082840312156103865761038561056b565b5b600061039484828501610346565b91505092915050565b600080604083850312156103b4576103b361056b565b5b60006103c285828601610346565b92505060206103d38582860161035b565b9150509250929050565b60006103e8826104d5565b6103f281856104e0565b9350610402818560208601610538565b80840191505092915050565b600061041b6006836104eb565b915061042682610570565b602082019050919050565b600061043e6003836104eb565b915061044982610599565b602082019050919050565b61045d8161052e565b82525050565b600061046f82846103dd565b915081905092915050565b600060208201905081810360008301526104938161040e565b9050919050565b600060208201905081810360008301526104b381610431565b9050919050565b60006020820190506104cf6000830184610454565b92915050565b600081519050919050565b600081905092915050565b600082825260208201905092915050565b60006105078261050e565b9050919050565b600073ffffffffffffffffffffffffffffffffffffffff82169050919050565b6000819050919050565b60005b8381101561055657808201518184015260208101905061053b565b83811115610565576000848401525b50505050565b600080fd5b7f4661696c65640000000000000000000000000000000000000000000000000000600082015250565b7f4153440000000000000000000000000000000000000000000000000000000000600082015250565b6105cb816104fc565b81146105d657600080fd5b50565b6105e28161052e565b81146105ed57600080fd5b5056fea26469706673582212208a350034c3de99e3631b9ede0532e7b18aa9cef825eb7cbf5647defe53306c3d64736f6c63430008070033",
					"opcodes": "PUSH1 0x80 PUSH1 0x40 MSTORE PUSH2 0x626 DUP1 PUSH2 0x13 PUSH1 0x0 CODECOPY PUSH1 0x0 RETURN INVALID PUSH1 0x80 PUSH1 0x40 MSTORE CALLVALUE DUP1 ISZERO PUSH2 0x10 JUMPI PUSH1 0x0 DUP1 REVERT JUMPDEST POP PUSH1 0x4 CALLDATASIZE LT PUSH2 0x36 JUMPI PUSH1 0x0 CALLDATALOAD PUSH1 0xE0 SHR DUP1 PUSH4 0x4A2AD99F EQ PUSH2 0x3B JUMPI DUP1 PUSH4 0x7C94C8CA EQ PUSH2 0x57 JUMPI JUMPDEST PUSH1 0x0 DUP1 REVERT JUMPDEST PUSH2 0x55 PUSH1 0x4 DUP1 CALLDATASIZE SUB DUP2 ADD SWAP1 PUSH2 0x50 SWAP2 SWAP1 PUSH2 0x39D JUMP JUMPDEST PUSH2 0x87 JUMP JUMPDEST STOP JUMPDEST PUSH2 0x71 PUSH1 0x4 DUP1 CALLDATASIZE SUB DUP2 ADD SWAP1 PUSH2 0x6C SWAP2 SWAP1 PUSH2 0x370 JUMP JUMPDEST PUSH2 0x1C6 JUMP JUMPDEST PUSH1 0x40 MLOAD PUSH2 0x7E SWAP2 SWAP1 PUSH2 0x4BA JUMP JUMPDEST PUSH1 0x40 MLOAD DUP1 SWAP2 SUB SWAP1 RETURN JUMPDEST PUSH1 0x0 DUP3 PUSH20 0xFFFFFFFFFFFFFFFFFFFFFFFFFFFFFFFFFFFFFFFF AND DUP3 PUSH1 0x40 MLOAD PUSH1 0x24 ADD PUSH2 0xB1 SWAP2 SWAP1 PUSH2 0x4BA JUMP JUMPDEST PUSH1 0x40 MLOAD PUSH1 0x20 DUP2 DUP4 SUB SUB DUP2 MSTORE SWAP1 PUSH1 0x40 MSTORE PUSH32 0x4018D9AA00000000000000000000000000000000000000000000000000000000 PUSH28 0xFFFFFFFFFFFFFFFFFFFFFFFFFFFFFFFFFFFFFFFFFFFFFFFFFFFFFFFF NOT AND PUSH1 0x20 DUP3 ADD DUP1 MLOAD PUSH28 0xFFFFFFFFFFFFFFFFFFFFFFFFFFFFFFFFFFFFFFFFFFFFFFFFFFFFFFFF DUP4 DUP2 DUP4 AND OR DUP4 MSTORE POP POP POP POP PUSH1 0x40 MLOAD PUSH2 0x13B SWAP2 SWAP1 PUSH2 0x463 JUMP JUMPDEST PUSH1 0x0 PUSH1 0x40 MLOAD DUP1 DUP4 SUB DUP2 PUSH1 0x0 DUP7 GAS CALL SWAP2 POP POP RETURNDATASIZE DUP1 PUSH1 0x0 DUP2 EQ PUSH2 0x178 JUMPI PUSH1 0x40 MLOAD SWAP2 POP PUSH1 0x1F NOT PUSH1 0x3F RETURNDATASIZE ADD AND DUP3 ADD PUSH1 0x40 MSTORE RETURNDATASIZE DUP3 MSTORE RETURNDATASIZE PUSH1 0x0 PUSH1 0x20 DUP5 ADD RETURNDATACOPY PUSH2 0x17D JUMP JUMPDEST PUSH1 0x60 SWAP2 POP JUMPDEST POP POP SWAP1 POP DUP1 PUSH2 0x1C1 JUMPI PUSH1 0x40 MLOAD PUSH32 0x8C379A000000000000000000000000000000000000000000000000000000000 DUP2 MSTORE PUSH1 0x4 ADD PUSH2 0x1B8 SWAP1 PUSH2 0x49A JUMP JUMPDEST PUSH1 0x40 MLOAD DUP1 SWAP2 SUB SWAP1 REVERT JUMPDEST POP POP POP JUMP JUMPDEST PUSH1 0x0 DUP1 PUSH1 0x0 DUP4 PUSH20 0xFFFFFFFFFFFFFFFFFFFFFFFFFFFFFFFFFFFFFFFF AND PUSH1 0x6F PUSH1 0x40 MLOAD PUSH1 0x24 ADD PUSH1 0x40 MLOAD PUSH1 0x20 DUP2 DUP4 SUB SUB DUP2 MSTORE SWAP1 PUSH1 0x40 MSTORE PUSH32 0x5197C7AA00000000000000000000000000000000000000000000000000000000 PUSH28 0xFFFFFFFFFFFFFFFFFFFFFFFFFFFFFFFFFFFFFFFFFFFFFFFFFFFFFFFF NOT AND PUSH1 0x20 DUP3 ADD DUP1 MLOAD PUSH28 0xFFFFFFFFFFFFFFFFFFFFFFFFFFFFFFFFFFFFFFFFFFFFFFFFFFFFFFFF DUP4 DUP2 DUP4 AND OR DUP4 MSTORE POP POP POP POP PUSH1 0x40 MLOAD PUSH2 0x274 SWAP2 SWAP1 PUSH2 0x463 JUMP JUMPDEST PUSH1 0x0 PUSH1 0x40 MLOAD DUP1 DUP4 SUB DUP2 DUP6 DUP8 GAS CALL SWAP3 POP POP POP RETURNDATASIZE DUP1 PUSH1 0x0 DUP2 EQ PUSH2 0x2B1 JUMPI PUSH1 0x40 MLOAD SWAP2 POP PUSH1 0x1F NOT PUSH1 0x3F RETURNDATASIZE ADD AND DUP3 ADD PUSH1 0x40 MSTORE RETURNDATASIZE DUP3 MSTORE RETURNDATASIZE PUSH1 0x0 PUSH1 0x20 DUP5 ADD RETURNDATACOPY PUSH2 0x2B6 JUMP JUMPDEST PUSH1 0x60 SWAP2 POP JUMPDEST POP SWAP2 POP SWAP2 POP DUP2 PUSH2 0x2FB JUMPI PUSH1 0x40 MLOAD PUSH32 0x8C379A000000000000000000000000000000000000000000000000000000000 DUP2 MSTORE PUSH1 0x4 ADD PUSH2 0x2F2 SWAP1 PUSH2 0x47A JUMP JUMPDEST PUSH1 0x40 MLOAD DUP1 SWAP2 SUB SWAP1 REVERT JUMPDEST PUSH1 0x0 PUSH1 0x20 DUP3 ADD MLOAD SWAP1 POP PUSH32 0x909C57D5C6AC08245CF2A6DE3900E2B868513FA59099B92B27D8DB823D92DF9C DUP2 PUSH1 0x40 MLOAD PUSH2 0x333 SWAP2 SWAP1 PUSH2 0x4BA JUMP JUMPDEST PUSH1 0x40 MLOAD DUP1 SWAP2 SUB SWAP1 LOG1 DUP1 SWAP4 POP POP POP POP SWAP2 SWAP1 POP JUMP JUMPDEST PUSH1 0x0 DUP2 CALLDATALOAD SWAP1 POP PUSH2 0x355 DUP2 PUSH2 0x5C2 JUMP JUMPDEST SWAP3 SWAP2 POP POP JUMP JUMPDEST PUSH1 0x0 DUP2 CALLDATALOAD SWAP1 POP PUSH2 0x36A DUP2 PUSH2 0x5D9 JUMP JUMPDEST SWAP3 SWAP2 POP POP JUMP JUMPDEST PUSH1 0x0 PUSH1 0x20 DUP3 DUP5 SUB SLT ISZERO PUSH2 0x386 JUMPI PUSH2 0x385 PUSH2 0x56B JUMP JUMPDEST JUMPDEST PUSH1 0x0 PUSH2 0x394 DUP5 DUP3 DUP6 ADD PUSH2 0x346 JUMP JUMPDEST SWAP2 POP POP SWAP3 SWAP2 POP POP JUMP JUMPDEST PUSH1 0x0 DUP1 PUSH1 0x40 DUP4 DUP6 SUB SLT ISZERO PUSH2 0x3B4 JUMPI PUSH2 0x3B3 PUSH2 0x56B JUMP JUMPDEST JUMPDEST PUSH1 0x0 PUSH2 0x3C2 DUP6 DUP3 DUP7 ADD PUSH2 0x346 JUMP JUMPDEST SWAP3 POP POP PUSH1 0x20 PUSH2 0x3D3 DUP6 DUP3 DUP7 ADD PUSH2 0x35B JUMP JUMPDEST SWAP2 POP POP SWAP3 POP SWAP3 SWAP1 POP JUMP JUMPDEST PUSH1 0x0 PUSH2 0x3E8 DUP3 PUSH2 0x4D5 JUMP JUMPDEST PUSH2 0x3F2 DUP2 DUP6 PUSH2 0x4E0 JUMP JUMPDEST SWAP4 POP PUSH2 0x402 DUP2 DUP6 PUSH1 0x20 DUP7 ADD PUSH2 0x538 JUMP JUMPDEST DUP1 DUP5 ADD SWAP2 POP POP SWAP3 SWAP2 POP POP JUMP JUMPDEST PUSH1 0x0 PUSH2 0x41B PUSH1 0x6 DUP4 PUSH2 0x4EB JUMP JUMPDEST SWAP2 POP PUSH2 0x426 DUP3 PUSH2 0x570 JUMP JUMPDEST PUSH1 0x20 DUP3 ADD SWAP1 POP SWAP2 SWAP1 POP JUMP JUMPDEST PUSH1 0x0 PUSH2 0x43E PUSH1 0x3 DUP4 PUSH2 0x4EB JUMP JUMPDEST SWAP2 POP PUSH2 0x449 DUP3 PUSH2 0x599 JUMP JUMPDEST PUSH1 0x20 DUP3 ADD SWAP1 POP SWAP2 SWAP1 POP JUMP JUMPDEST PUSH2 0x45D DUP2 PUSH2 0x52E JUMP JUMPDEST DUP3 MSTORE POP POP JUMP JUMPDEST PUSH1 0x0 PUSH2 0x46F DUP3 DUP5 PUSH2 0x3DD JUMP JUMPDEST SWAP2 POP DUP2 SWAP1 POP SWAP3 SWAP2 POP POP JUMP JUMPDEST PUSH1 0x0 PUSH1 0x20 DUP3 ADD SWAP1 POP DUP2 DUP2 SUB PUSH1 0x0 DUP4 ADD MSTORE PUSH2 0x493 DUP2 PUSH2 0x40E JUMP JUMPDEST SWAP1 POP SWAP2 SWAP1 POP JUMP JUMPDEST PUSH1 0x0 PUSH1 0x20 DUP3 ADD SWAP1 POP DUP2 DUP2 SUB PUSH1 0x0 DUP4 ADD MSTORE PUSH2 0x4B3 DUP2 PUSH2 0x431 JUMP JUMPDEST SWAP1 POP SWAP2 SWAP1 POP JUMP JUMPDEST PUSH1 0x0 PUSH1 0x20 DUP3 ADD SWAP1 POP PUSH2 0x4CF PUSH1 0x0 DUP4 ADD DUP5 PUSH2 0x454 JUMP JUMPDEST SWAP3 SWAP2 POP POP JUMP JUMPDEST PUSH1 0x0 DUP2 MLOAD SWAP1 POP SWAP2 SWAP1 POP JUMP JUMPDEST PUSH1 0x0 DUP2 SWAP1 POP SWAP3 SWAP2 POP POP JUMP JUMPDEST PUSH1 0x0 DUP3 DUP3 MSTORE PUSH1 0x20 DUP3 ADD SWAP1 POP SWAP3 SWAP2 POP POP JUMP JUMPDEST PUSH1 0x0 PUSH2 0x507 DUP3 PUSH2 0x50E JUMP JUMPDEST SWAP1 POP SWAP2 SWAP1 POP JUMP JUMPDEST PUSH1 0x0 PUSH20 0xFFFFFFFFFFFFFFFFFFFFFFFFFFFFFFFFFFFFFFFF DUP3 AND SWAP1 POP SWAP2 SWAP1 POP JUMP JUMPDEST PUSH1 0x0 DUP2 SWAP1 POP SWAP2 SWAP1 POP JUMP JUMPDEST PUSH1 0x0 JUMPDEST DUP4 DUP2 LT ISZERO PUSH2 0x556 JUMPI DUP1 DUP3 ADD MLOAD DUP2 DUP5 ADD MSTORE PUSH1 0x20 DUP2 ADD SWAP1 POP PUSH2 0x53B JUMP JUMPDEST DUP4 DUP2 GT ISZERO PUSH2 0x565 JUMPI PUSH1 0x0 DUP5 DUP5 ADD MSTORE JUMPDEST POP POP POP POP JUMP JUMPDEST PUSH1 0x0 DUP1 REVERT JUMPDEST PUSH32 0x4661696C65640000000000000000000000000000000000000000000000000000 PUSH1 0x0 DUP3 ADD MSTORE POP JUMP JUMPDEST PUSH32 0x4153440000000000000000000000000000000000000000000000000000000000 PUSH1 0x0 DUP3 ADD MSTORE POP JUMP JUMPDEST PUSH2 0x5CB DUP2 PUSH2 0x4FC JUMP JUMPDEST DUP2 EQ PUSH2 0x5D6 JUMPI PUSH1 0x0 DUP1 REVERT JUMPDEST POP JUMP JUMPDEST PUSH2 0x5E2 DUP2 PUSH2 0x52E JUMP JUMPDEST DUP2 EQ PUSH2 0x5ED JUMPI PUSH1 0x0 DUP1 REVERT JUMPDEST POP JUMP INVALID LOG2 PUSH5 0x6970667358 0x22 SLT KECCAK256 DUP11 CALLDATALOAD STOP CALLVALUE 0xC3 0xDE SWAP10 0xE3 PUSH4 0x1B9EDE05 ORIGIN 0xE7 0xB1 DUP11 0xA9 0xCE 0xF8 0x25 0xEB PUSH29 0xBF5647DEFE53306C3D64736F6C63430008070033000000000000000000 "
				},
				"gasEstimates": {
					"creation": {
						"codeDepositCost": "314800",
						"executionCost": "331",
						"totalCost": "315131"
					},
					"external": {
						"getX(address)": "infinite",
						"setX(address,uint256)": "infinite"
					}
				},
				"methodIdentifiers": {
					"getX(address)": "7c94c8ca",
					"setX(address,uint256)": "4a2ad99f"
				}
			},
			"storageLayout": {
				"storage": [],
				"types": null
			},
			"userdoc": {
				"kind": "user",
				"methods": {},
				"version": 1
			}
		}
	}
}