{
	"ChangeVarsWithDelegate.sol": {
		"Deployed": {
			"abi": [
				{
					"inputs": [],
					"name": "getData",
					"outputs": [
						{
							"internalType": "uint256",
							"name": "",
							"type": "uint256"
						},
						{
							"internalType": "string",
							"name": "",
							"type": "string"
						},
						{
							"internalType": "address",
							"name": "",
							"type": "address"
						}
					],
					"stateMutability": "view",
					"type": "function"
				},
				{
					"inputs": [
						{
							"internalType": "address",
							"name": "u",
							"type": "address"
						},
						{
							"internalType": "uint256",
							"name": "d1",
							"type": "uint256"
						},
						{
							"internalType": "string",
							"name": "d2",
							"type": "string"
						},
						{
							"internalType": "address",
							"name": "d3",
							"type": "address"
						}
					],
					"name": "set",
					"outputs": [],
					"stateMutability": "nonpayable",
					"type": "function"
				}
			],
			"devdoc": {
				"kind": "dev",
				"methods": {},
				"version": 1
			},
			"evm": {
				"assembly": "    /* \"ChangeVarsWithDelegate.sol\":57:449  contract Deployed{... */\n  mstore(0x40, 0x80)\n  callvalue\n  dup1\n  iszero\n  tag_1\n  jumpi\n  0x00\n  dup1\n  revert\ntag_1:\n  pop\n  dataSize(sub_0)\n  dup1\n  dataOffset(sub_0)\n  0x00\n  codecopy\n  0x00\n  return\nstop\n\nsub_0: assembly {\n        /* \"ChangeVarsWithDelegate.sol\":57:449  contract Deployed{... */\n      mstore(0x40, 0x80)\n      callvalue\n      dup1\n      iszero\n      tag_1\n      jumpi\n      0x00\n      dup1\n      revert\n    tag_1:\n      pop\n      jumpi(tag_2, lt(calldatasize, 0x04))\n      shr(0xe0, calldataload(0x00))\n      dup1\n      0x3bc5de30\n      eq\n      tag_3\n      jumpi\n      dup1\n      0xab5b1aa7\n      eq\n      tag_4\n      jumpi\n    tag_2:\n      0x00\n      dup1\n      revert\n        /* \"ChangeVarsWithDelegate.sol\":334:446  function getData() external view returns(uint,string memory ,address){... */\n    tag_3:\n      tag_5\n      tag_6\n      jump\t// in\n    tag_5:\n      mload(0x40)\n      tag_7\n      swap4\n      swap3\n      swap2\n      swap1\n      tag_8\n      jump\t// in\n    tag_7:\n      mload(0x40)\n      dup1\n      swap2\n      sub\n      swap1\n      return\n        /* \"ChangeVarsWithDelegate.sol\":134:327  function set(address u,uint d1,string calldata d2,address d3) external {... */\n    tag_4:\n      tag_9\n      0x04\n      dup1\n      calldatasize\n      sub\n      dup2\n      add\n      swap1\n      tag_10\n      swap2\n      swap1\n      tag_11\n      jump\t// in\n    tag_10:\n      tag_12\n      jump\t// in\n    tag_9:\n      stop\n        /* \"ChangeVarsWithDelegate.sol\":334:446  function getData() external view returns(uint,string memory ,address){... */\n    tag_6:\n        /* \"ChangeVarsWithDelegate.sol\":375:379  uint */\n      0x00\n        /* \"ChangeVarsWithDelegate.sol\":380:393  string memory */\n      0x60\n        /* \"ChangeVarsWithDelegate.sol\":395:402  address */\n      0x00\n        /* \"ChangeVarsWithDelegate.sol\":421:426  data1 */\n      dup1\n      sload\n        /* \"ChangeVarsWithDelegate.sol\":427:432  data2 */\n      0x01\n        /* \"ChangeVarsWithDelegate.sol\":433:438  data3 */\n      0x02\n      0x00\n      swap1\n      sload\n      swap1\n      0x0100\n      exp\n      swap1\n      div\n      0xffffffffffffffffffffffffffffffffffffffff\n      and\n        /* \"ChangeVarsWithDelegate.sol\":413:439  return (data1,data2,data3) */\n      dup2\n      dup1\n      sload\n      tag_14\n      swap1\n      tag_15\n      jump\t// in\n    tag_14:\n      dup1\n      0x1f\n      add\n      0x20\n      dup1\n      swap2\n      div\n      mul\n      0x20\n      add\n      mload(0x40)\n      swap1\n      dup2\n      add\n      0x40\n      mstore\n      dup1\n      swap3\n      swap2\n      swap1\n      dup2\n      dup2\n      mstore\n      0x20\n      add\n      dup3\n      dup1\n      sload\n      tag_16\n      swap1\n      tag_15\n      jump\t// in\n    tag_16:\n      dup1\n      iszero\n      tag_17\n      jumpi\n      dup1\n      0x1f\n      lt\n      tag_18\n      jumpi\n      0x0100\n      dup1\n      dup4\n      sload\n      div\n      mul\n      dup4\n      mstore\n      swap2\n      0x20\n      add\n      swap2\n      jump(tag_17)\n    tag_18:\n      dup3\n      add\n      swap2\n      swap1\n      0x00\n      mstore\n      keccak256(0x00, 0x20)\n      swap1\n    tag_19:\n      dup2\n      sload\n      dup2\n      mstore\n      swap1\n      0x01\n      add\n      swap1\n      0x20\n      add\n      dup1\n      dup4\n      gt\n      tag_19\n      jumpi\n      dup3\n      swap1\n      sub\n      0x1f\n      and\n      dup3\n      add\n      swap2\n    tag_17:\n      pop\n      pop\n      pop\n      pop\n      pop\n      swap2\n      pop\n      swap3\n      pop\n      swap3\n      pop\n      swap3\n      pop\n        /* \"ChangeVarsWithDelegate.sol\":334:446  function getData() external view returns(uint,string memory ,address){... */\n      swap1\n      swap2\n      swap3\n      jump\t// out\n        /* \"ChangeVarsWithDelegate.sol\":134:327  function set(address u,uint d1,string calldata d2,address d3) external {... */\n    tag_12:\n        /* \"ChangeVarsWithDelegate.sol\":216:228  bool success */\n      0x00\n        /* \"ChangeVarsWithDelegate.sol\":230:247  bytes memory data */\n      dup1\n        /* \"ChangeVarsWithDelegate.sol\":251:252  u */\n      dup7\n        /* \"ChangeVarsWithDelegate.sol\":251:265  u.delegatecall */\n      0xffffffffffffffffffffffffffffffffffffffff\n      and\n        /* \"ChangeVarsWithDelegate.sol\":289:309  Updated.set.selector */\n      shl(0xe0, 0x5eba0df0)\n        /* \"ChangeVarsWithDelegate.sol\":310:312  d1 */\n      dup8\n        /* \"ChangeVarsWithDelegate.sol\":313:315  d2 */\n      dup8\n      dup8\n        /* \"ChangeVarsWithDelegate.sol\":316:318  d3 */\n      dup8\n        /* \"ChangeVarsWithDelegate.sol\":266:319  abi.encodeWithSelector(Updated.set.selector,d1,d2,d3) */\n      add(0x24, mload(0x40))\n      tag_21\n      swap5\n      swap4\n      swap3\n      swap2\n      swap1\n      tag_22\n      jump\t// in\n    tag_21:\n      mload(0x40)\n      0x20\n      dup2\n      dup4\n      sub\n      sub\n      dup2\n      mstore\n      swap1\n      0x40\n      mstore\n      swap1\n      not(0xffffffffffffffffffffffffffffffffffffffffffffffffffffffff)\n      and\n      0x20\n      dup3\n      add\n      dup1\n      mload\n      0xffffffffffffffffffffffffffffffffffffffffffffffffffffffff\n      dup4\n      dup2\n      dup4\n      and\n      or\n      dup4\n      mstore\n      pop\n      pop\n      pop\n      pop\n        /* \"ChangeVarsWithDelegate.sol\":251:320  u.delegatecall(abi.encodeWithSelector(Updated.set.selector,d1,d2,d3)) */\n      mload(0x40)\n      tag_23\n      swap2\n      swap1\n      tag_24\n      jump\t// in\n    tag_23:\n      0x00\n      mload(0x40)\n      dup1\n      dup4\n      sub\n      dup2\n      dup6\n      gas\n      delegatecall\n      swap2\n      pop\n      pop\n      returndatasize\n      dup1\n      0x00\n      dup2\n      eq\n      tag_27\n      jumpi\n      mload(0x40)\n      swap2\n      pop\n      and(add(returndatasize, 0x3f), not(0x1f))\n      dup3\n      add\n      0x40\n      mstore\n      returndatasize\n      dup3\n      mstore\n      returndatasize\n      0x00\n      0x20\n      dup5\n      add\n      returndatacopy\n      jump(tag_26)\n    tag_27:\n      0x60\n      swap2\n      pop\n    tag_26:\n      pop\n        /* \"ChangeVarsWithDelegate.sol\":215:320  (bool success, bytes memory data) = u.delegatecall(abi.encodeWithSelector(Updated.set.selector,d1,d2,d3)) */\n      swap2\n      pop\n      swap2\n      pop\n        /* \"ChangeVarsWithDelegate.sol\":205:327  {... */\n      pop\n      pop\n        /* \"ChangeVarsWithDelegate.sol\":134:327  function set(address u,uint d1,string calldata d2,address d3) external {... */\n      pop\n      pop\n      pop\n      pop\n      pop\n      jump\t// out\n        /* \"#utility.yul\":7:146   */\n    tag_29:\n        /* \"#utility.yul\":53:58   */\n      0x00\n        /* \"#utility.yul\":91:97   */\n      dup2\n        /* \"#utility.yul\":78:98   */\n      calldataload\n        /* \"#utility.yul\":69:98   */\n      swap1\n      pop\n        /* \"#utility.yul\":107:140   */\n      tag_31\n        /* \"#utility.yul\":134:139   */\n      dup2\n        /* \"#utility.yul\":107:140   */\n      tag_32\n      jump\t// in\n    tag_31:\n        /* \"#utility.yul\":7:146   */\n      swap3\n      swap2\n      pop\n      pop\n      jump\t// out\n        /* \"#utility.yul\":166:719   */\n    tag_33:\n        /* \"#utility.yul\":224:232   */\n      0x00\n        /* \"#utility.yul\":234:240   */\n      dup1\n        /* \"#utility.yul\":284:287   */\n      dup4\n        /* \"#utility.yul\":277:281   */\n      0x1f\n        /* \"#utility.yul\":269:275   */\n      dup5\n        /* \"#utility.yul\":265:282   */\n      add\n        /* \"#utility.yul\":261:288   */\n      slt\n        /* \"#utility.yul\":251:373   */\n      tag_35\n      jumpi\n        /* \"#utility.yul\":292:371   */\n      tag_36\n      tag_37\n      jump\t// in\n    tag_36:\n        /* \"#utility.yul\":251:373   */\n    tag_35:\n        /* \"#utility.yul\":405:411   */\n      dup3\n        /* \"#utility.yul\":392:412   */\n      calldataload\n        /* \"#utility.yul\":382:412   */\n      swap1\n      pop\n        /* \"#utility.yul\":435:453   */\n      0xffffffffffffffff\n        /* \"#utility.yul\":427:433   */\n      dup2\n        /* \"#utility.yul\":424:454   */\n      gt\n        /* \"#utility.yul\":421:538   */\n      iszero\n      tag_38\n      jumpi\n        /* \"#utility.yul\":457:536   */\n      tag_39\n      tag_40\n      jump\t// in\n    tag_39:\n        /* \"#utility.yul\":421:538   */\n    tag_38:\n        /* \"#utility.yul\":571:575   */\n      0x20\n        /* \"#utility.yul\":563:569   */\n      dup4\n        /* \"#utility.yul\":559:576   */\n      add\n        /* \"#utility.yul\":547:576   */\n      swap2\n      pop\n        /* \"#utility.yul\":625:628   */\n      dup4\n        /* \"#utility.yul\":617:621   */\n      0x01\n        /* \"#utility.yul\":609:615   */\n      dup3\n        /* \"#utility.yul\":605:622   */\n      mul\n        /* \"#utility.yul\":595:603   */\n      dup4\n        /* \"#utility.yul\":591:623   */\n      add\n        /* \"#utility.yul\":588:629   */\n      gt\n        /* \"#utility.yul\":585:713   */\n      iszero\n      tag_41\n      jumpi\n        /* \"#utility.yul\":632:711   */\n      tag_42\n      tag_43\n      jump\t// in\n    tag_42:\n        /* \"#utility.yul\":585:713   */\n    tag_41:\n        /* \"#utility.yul\":166:719   */\n      swap3\n      pop\n      swap3\n      swap1\n      pop\n      jump\t// out\n        /* \"#utility.yul\":725:864   */\n    tag_44:\n        /* \"#utility.yul\":771:776   */\n      0x00\n        /* \"#utility.yul\":809:815   */\n      dup2\n        /* \"#utility.yul\":796:816   */\n      calldataload\n        /* \"#utility.yul\":787:816   */\n      swap1\n      pop\n        /* \"#utility.yul\":825:858   */\n      tag_46\n        /* \"#utility.yul\":852:857   */\n      dup2\n        /* \"#utility.yul\":825:858   */\n      tag_47\n      jump\t// in\n    tag_46:\n        /* \"#utility.yul\":725:864   */\n      swap3\n      swap2\n      pop\n      pop\n      jump\t// out\n        /* \"#utility.yul\":870:1835   */\n    tag_11:\n        /* \"#utility.yul\":968:974   */\n      0x00\n        /* \"#utility.yul\":976:982   */\n      dup1\n        /* \"#utility.yul\":984:990   */\n      0x00\n        /* \"#utility.yul\":992:998   */\n      dup1\n        /* \"#utility.yul\":1000:1006   */\n      0x00\n        /* \"#utility.yul\":1049:1052   */\n      0x80\n        /* \"#utility.yul\":1037:1046   */\n      dup7\n        /* \"#utility.yul\":1028:1035   */\n      dup9\n        /* \"#utility.yul\":1024:1047   */\n      sub\n        /* \"#utility.yul\":1020:1053   */\n      slt\n        /* \"#utility.yul\":1017:1137   */\n      iszero\n      tag_49\n      jumpi\n        /* \"#utility.yul\":1056:1135   */\n      tag_50\n      tag_51\n      jump\t// in\n    tag_50:\n        /* \"#utility.yul\":1017:1137   */\n    tag_49:\n        /* \"#utility.yul\":1176:1177   */\n      0x00\n        /* \"#utility.yul\":1201:1254   */\n      tag_52\n        /* \"#utility.yul\":1246:1253   */\n      dup9\n        /* \"#utility.yul\":1237:1243   */\n      dup3\n        /* \"#utility.yul\":1226:1235   */\n      dup10\n        /* \"#utility.yul\":1222:1244   */\n      add\n        /* \"#utility.yul\":1201:1254   */\n      tag_29\n      jump\t// in\n    tag_52:\n        /* \"#utility.yul\":1191:1254   */\n      swap6\n      pop\n        /* \"#utility.yul\":1147:1264   */\n      pop\n        /* \"#utility.yul\":1303:1305   */\n      0x20\n        /* \"#utility.yul\":1329:1382   */\n      tag_53\n        /* \"#utility.yul\":1374:1381   */\n      dup9\n        /* \"#utility.yul\":1365:1371   */\n      dup3\n        /* \"#utility.yul\":1354:1363   */\n      dup10\n        /* \"#utility.yul\":1350:1372   */\n      add\n        /* \"#utility.yul\":1329:1382   */\n      tag_44\n      jump\t// in\n    tag_53:\n        /* \"#utility.yul\":1319:1382   */\n      swap5\n      pop\n        /* \"#utility.yul\":1274:1392   */\n      pop\n        /* \"#utility.yul\":1459:1461   */\n      0x40\n        /* \"#utility.yul\":1448:1457   */\n      dup7\n        /* \"#utility.yul\":1444:1462   */\n      add\n        /* \"#utility.yul\":1431:1463   */\n      calldataload\n        /* \"#utility.yul\":1490:1508   */\n      0xffffffffffffffff\n        /* \"#utility.yul\":1482:1488   */\n      dup2\n        /* \"#utility.yul\":1479:1509   */\n      gt\n        /* \"#utility.yul\":1476:1593   */\n      iszero\n      tag_54\n      jumpi\n        /* \"#utility.yul\":1512:1591   */\n      tag_55\n      tag_56\n      jump\t// in\n    tag_55:\n        /* \"#utility.yul\":1476:1593   */\n    tag_54:\n        /* \"#utility.yul\":1625:1690   */\n      tag_57\n        /* \"#utility.yul\":1682:1689   */\n      dup9\n        /* \"#utility.yul\":1673:1679   */\n      dup3\n        /* \"#utility.yul\":1662:1671   */\n      dup10\n        /* \"#utility.yul\":1658:1680   */\n      add\n        /* \"#utility.yul\":1625:1690   */\n      tag_33\n      jump\t// in\n    tag_57:\n        /* \"#utility.yul\":1607:1690   */\n      swap4\n      pop\n      swap4\n      pop\n        /* \"#utility.yul\":1402:1700   */\n      pop\n        /* \"#utility.yul\":1739:1741   */\n      0x60\n        /* \"#utility.yul\":1765:1818   */\n      tag_58\n        /* \"#utility.yul\":1810:1817   */\n      dup9\n        /* \"#utility.yul\":1801:1807   */\n      dup3\n        /* \"#utility.yul\":1790:1799   */\n      dup10\n        /* \"#utility.yul\":1786:1808   */\n      add\n        /* \"#utility.yul\":1765:1818   */\n      tag_29\n      jump\t// in\n    tag_58:\n        /* \"#utility.yul\":1755:1818   */\n      swap2\n      pop\n        /* \"#utility.yul\":1710:1828   */\n      pop\n        /* \"#utility.yul\":870:1835   */\n      swap3\n      swap6\n      pop\n      swap3\n      swap6\n      swap1\n      swap4\n      pop\n      jump\t// out\n        /* \"#utility.yul\":1841:1959   */\n    tag_59:\n        /* \"#utility.yul\":1928:1952   */\n      tag_61\n        /* \"#utility.yul\":1946:1951   */\n      dup2\n        /* \"#utility.yul\":1928:1952   */\n      tag_62\n      jump\t// in\n    tag_61:\n        /* \"#utility.yul\":1923:1926   */\n      dup3\n        /* \"#utility.yul\":1916:1953   */\n      mstore\n        /* \"#utility.yul\":1841:1959   */\n      pop\n      pop\n      jump\t// out\n        /* \"#utility.yul\":1965:2338   */\n    tag_63:\n        /* \"#utility.yul\":2069:2072   */\n      0x00\n        /* \"#utility.yul\":2097:2135   */\n      tag_65\n        /* \"#utility.yul\":2129:2134   */\n      dup3\n        /* \"#utility.yul\":2097:2135   */\n      tag_66\n      jump\t// in\n    tag_65:\n        /* \"#utility.yul\":2151:2239   */\n      tag_67\n        /* \"#utility.yul\":2232:2238   */\n      dup2\n        /* \"#utility.yul\":2227:2230   */\n      dup6\n        /* \"#utility.yul\":2151:2239   */\n      tag_68\n      jump\t// in\n    tag_67:\n        /* \"#utility.yul\":2144:2239   */\n      swap4\n      pop\n        /* \"#utility.yul\":2248:2300   */\n      tag_69\n        /* \"#utility.yul\":2293:2299   */\n      dup2\n        /* \"#utility.yul\":2288:2291   */\n      dup6\n        /* \"#utility.yul\":2281:2285   */\n      0x20\n        /* \"#utility.yul\":2274:2279   */\n      dup7\n        /* \"#utility.yul\":2270:2286   */\n      add\n        /* \"#utility.yul\":2248:2300   */\n      tag_70\n      jump\t// in\n    tag_69:\n        /* \"#utility.yul\":2325:2331   */\n      dup1\n        /* \"#utility.yul\":2320:2323   */\n      dup5\n        /* \"#utility.yul\":2316:2332   */\n      add\n        /* \"#utility.yul\":2309:2332   */\n      swap2\n      pop\n        /* \"#utility.yul\":2073:2338   */\n      pop\n        /* \"#utility.yul\":1965:2338   */\n      swap3\n      swap2\n      pop\n      pop\n      jump\t// out\n        /* \"#utility.yul\":2368:2672   */\n    tag_71:\n        /* \"#utility.yul\":2466:2469   */\n      0x00\n        /* \"#utility.yul\":2487:2558   */\n      tag_73\n        /* \"#utility.yul\":2551:2557   */\n      dup4\n        /* \"#utility.yul\":2546:2549   */\n      dup6\n        /* \"#utility.yul\":2487:2558   */\n      tag_74\n      jump\t// in\n    tag_73:\n        /* \"#utility.yul\":2480:2558   */\n      swap4\n      pop\n        /* \"#utility.yul\":2568:2611   */\n      tag_75\n        /* \"#utility.yul\":2604:2610   */\n      dup4\n        /* \"#utility.yul\":2599:2602   */\n      dup6\n        /* \"#utility.yul\":2592:2597   */\n      dup5\n        /* \"#utility.yul\":2568:2611   */\n      tag_76\n      jump\t// in\n    tag_75:\n        /* \"#utility.yul\":2636:2665   */\n      tag_77\n        /* \"#utility.yul\":2658:2664   */\n      dup4\n        /* \"#utility.yul\":2636:2665   */\n      tag_78\n      jump\t// in\n    tag_77:\n        /* \"#utility.yul\":2631:2634   */\n      dup5\n        /* \"#utility.yul\":2627:2666   */\n      add\n        /* \"#utility.yul\":2620:2666   */\n      swap1\n      pop\n        /* \"#utility.yul\":2368:2672   */\n      swap4\n      swap3\n      pop\n      pop\n      pop\n      jump\t// out\n        /* \"#utility.yul\":2678:3042   */\n    tag_79:\n        /* \"#utility.yul\":2766:2769   */\n      0x00\n        /* \"#utility.yul\":2794:2833   */\n      tag_81\n        /* \"#utility.yul\":2827:2832   */\n      dup3\n        /* \"#utility.yul\":2794:2833   */\n      tag_82\n      jump\t// in\n    tag_81:\n        /* \"#utility.yul\":2849:2920   */\n      tag_83\n        /* \"#utility.yul\":2913:2919   */\n      dup2\n        /* \"#utility.yul\":2908:2911   */\n      dup6\n        /* \"#utility.yul\":2849:2920   */\n      tag_74\n      jump\t// in\n    tag_83:\n        /* \"#utility.yul\":2842:2920   */\n      swap4\n      pop\n        /* \"#utility.yul\":2929:2981   */\n      tag_84\n        /* \"#utility.yul\":2974:2980   */\n      dup2\n        /* \"#utility.yul\":2969:2972   */\n      dup6\n        /* \"#utility.yul\":2962:2966   */\n      0x20\n        /* \"#utility.yul\":2955:2960   */\n      dup7\n        /* \"#utility.yul\":2951:2967   */\n      add\n        /* \"#utility.yul\":2929:2981   */\n      tag_70\n      jump\t// in\n    tag_84:\n        /* \"#utility.yul\":3006:3035   */\n      tag_85\n        /* \"#utility.yul\":3028:3034   */\n      dup2\n        /* \"#utility.yul\":3006:3035   */\n      tag_78\n      jump\t// in\n    tag_85:\n        /* \"#utility.yul\":3001:3004   */\n      dup5\n        /* \"#utility.yul\":2997:3036   */\n      add\n        /* \"#utility.yul\":2990:3036   */\n      swap2\n      pop\n        /* \"#utility.yul\":2770:3042   */\n      pop\n        /* \"#utility.yul\":2678:3042   */\n      swap3\n      swap2\n      pop\n      pop\n      jump\t// out\n        /* \"#utility.yul\":3048:3166   */\n    tag_86:\n        /* \"#utility.yul\":3135:3159   */\n      tag_88\n        /* \"#utility.yul\":3153:3158   */\n      dup2\n        /* \"#utility.yul\":3135:3159   */\n      tag_89\n      jump\t// in\n    tag_88:\n        /* \"#utility.yul\":3130:3133   */\n      dup3\n        /* \"#utility.yul\":3123:3160   */\n      mstore\n        /* \"#utility.yul\":3048:3166   */\n      pop\n      pop\n      jump\t// out\n        /* \"#utility.yul\":3172:3443   */\n    tag_24:\n        /* \"#utility.yul\":3302:3305   */\n      0x00\n        /* \"#utility.yul\":3324:3417   */\n      tag_91\n        /* \"#utility.yul\":3413:3416   */\n      dup3\n        /* \"#utility.yul\":3404:3410   */\n      dup5\n        /* \"#utility.yul\":3324:3417   */\n      tag_63\n      jump\t// in\n    tag_91:\n        /* \"#utility.yul\":3317:3417   */\n      swap2\n      pop\n        /* \"#utility.yul\":3434:3437   */\n      dup2\n        /* \"#utility.yul\":3427:3437   */\n      swap1\n      pop\n        /* \"#utility.yul\":3172:3443   */\n      swap3\n      swap2\n      pop\n      pop\n      jump\t// out\n        /* \"#utility.yul\":3449:4002   */\n    tag_22:\n        /* \"#utility.yul\":3628:3632   */\n      0x00\n        /* \"#utility.yul\":3666:3668   */\n      0x60\n        /* \"#utility.yul\":3655:3664   */\n      dup3\n        /* \"#utility.yul\":3651:3669   */\n      add\n        /* \"#utility.yul\":3643:3669   */\n      swap1\n      pop\n        /* \"#utility.yul\":3679:3750   */\n      tag_93\n        /* \"#utility.yul\":3747:3748   */\n      0x00\n        /* \"#utility.yul\":3736:3745   */\n      dup4\n        /* \"#utility.yul\":3732:3749   */\n      add\n        /* \"#utility.yul\":3723:3729   */\n      dup8\n        /* \"#utility.yul\":3679:3750   */\n      tag_86\n      jump\t// in\n    tag_93:\n        /* \"#utility.yul\":3797:3806   */\n      dup2\n        /* \"#utility.yul\":3791:3795   */\n      dup2\n        /* \"#utility.yul\":3787:3807   */\n      sub\n        /* \"#utility.yul\":3782:3784   */\n      0x20\n        /* \"#utility.yul\":3771:3780   */\n      dup4\n        /* \"#utility.yul\":3767:3785   */\n      add\n        /* \"#utility.yul\":3760:3808   */\n      mstore\n        /* \"#utility.yul\":3825:3913   */\n      tag_94\n        /* \"#utility.yul\":3908:3912   */\n      dup2\n        /* \"#utility.yul\":3899:3905   */\n      dup6\n        /* \"#utility.yul\":3891:3897   */\n      dup8\n        /* \"#utility.yul\":3825:3913   */\n      tag_71\n      jump\t// in\n    tag_94:\n        /* \"#utility.yul\":3817:3913   */\n      swap1\n      pop\n        /* \"#utility.yul\":3923:3995   */\n      tag_95\n        /* \"#utility.yul\":3991:3993   */\n      0x40\n        /* \"#utility.yul\":3980:3989   */\n      dup4\n        /* \"#utility.yul\":3976:3994   */\n      add\n        /* \"#utility.yul\":3967:3973   */\n      dup5\n        /* \"#utility.yul\":3923:3995   */\n      tag_59\n      jump\t// in\n    tag_95:\n        /* \"#utility.yul\":3449:4002   */\n      swap6\n      swap5\n      pop\n      pop\n      pop\n      pop\n      pop\n      jump\t// out\n        /* \"#utility.yul\":4008:4541   */\n    tag_8:\n        /* \"#utility.yul\":4177:4181   */\n      0x00\n        /* \"#utility.yul\":4215:4217   */\n      0x60\n        /* \"#utility.yul\":4204:4213   */\n      dup3\n        /* \"#utility.yul\":4200:4218   */\n      add\n        /* \"#utility.yul\":4192:4218   */\n      swap1\n      pop\n        /* \"#utility.yul\":4228:4299   */\n      tag_97\n        /* \"#utility.yul\":4296:4297   */\n      0x00\n        /* \"#utility.yul\":4285:4294   */\n      dup4\n        /* \"#utility.yul\":4281:4298   */\n      add\n        /* \"#utility.yul\":4272:4278   */\n      dup7\n        /* \"#utility.yul\":4228:4299   */\n      tag_86\n      jump\t// in\n    tag_97:\n        /* \"#utility.yul\":4346:4355   */\n      dup2\n        /* \"#utility.yul\":4340:4344   */\n      dup2\n        /* \"#utility.yul\":4336:4356   */\n      sub\n        /* \"#utility.yul\":4331:4333   */\n      0x20\n        /* \"#utility.yul\":4320:4329   */\n      dup4\n        /* \"#utility.yul\":4316:4334   */\n      add\n        /* \"#utility.yul\":4309:4357   */\n      mstore\n        /* \"#utility.yul\":4374:4452   */\n      tag_98\n        /* \"#utility.yul\":4447:4451   */\n      dup2\n        /* \"#utility.yul\":4438:4444   */\n      dup6\n        /* \"#utility.yul\":4374:4452   */\n      tag_79\n      jump\t// in\n    tag_98:\n        /* \"#utility.yul\":4366:4452   */\n      swap1\n      pop\n        /* \"#utility.yul\":4462:4534   */\n      tag_99\n        /* \"#utility.yul\":4530:4532   */\n      0x40\n        /* \"#utility.yul\":4519:4528   */\n      dup4\n        /* \"#utility.yul\":4515:4533   */\n      add\n        /* \"#utility.yul\":4506:4512   */\n      dup5\n        /* \"#utility.yul\":4462:4534   */\n      tag_59\n      jump\t// in\n    tag_99:\n        /* \"#utility.yul\":4008:4541   */\n      swap5\n      swap4\n      pop\n      pop\n      pop\n      pop\n      jump\t// out\n        /* \"#utility.yul\":4628:4726   */\n    tag_66:\n        /* \"#utility.yul\":4679:4685   */\n      0x00\n        /* \"#utility.yul\":4713:4718   */\n      dup2\n        /* \"#utility.yul\":4707:4719   */\n      mload\n        /* \"#utility.yul\":4697:4719   */\n      swap1\n      pop\n        /* \"#utility.yul\":4628:4726   */\n      swap2\n      swap1\n      pop\n      jump\t// out\n        /* \"#utility.yul\":4732:4831   */\n    tag_82:\n        /* \"#utility.yul\":4784:4790   */\n      0x00\n        /* \"#utility.yul\":4818:4823   */\n      dup2\n        /* \"#utility.yul\":4812:4824   */\n      mload\n        /* \"#utility.yul\":4802:4824   */\n      swap1\n      pop\n        /* \"#utility.yul\":4732:4831   */\n      swap2\n      swap1\n      pop\n      jump\t// out\n        /* \"#utility.yul\":4837:4984   */\n    tag_68:\n        /* \"#utility.yul\":4938:4949   */\n      0x00\n        /* \"#utility.yul\":4975:4978   */\n      dup2\n        /* \"#utility.yul\":4960:4978   */\n      swap1\n      pop\n        /* \"#utility.yul\":4837:4984   */\n      swap3\n      swap2\n      pop\n      pop\n      jump\t// out\n        /* \"#utility.yul\":4990:5159   */\n    tag_74:\n        /* \"#utility.yul\":5074:5085   */\n      0x00\n        /* \"#utility.yul\":5108:5114   */\n      dup3\n        /* \"#utility.yul\":5103:5106   */\n      dup3\n        /* \"#utility.yul\":5096:5115   */\n      mstore\n        /* \"#utility.yul\":5148:5152   */\n      0x20\n        /* \"#utility.yul\":5143:5146   */\n      dup3\n        /* \"#utility.yul\":5139:5153   */\n      add\n        /* \"#utility.yul\":5124:5153   */\n      swap1\n      pop\n        /* \"#utility.yul\":4990:5159   */\n      swap3\n      swap2\n      pop\n      pop\n      jump\t// out\n        /* \"#utility.yul\":5165:5261   */\n    tag_62:\n        /* \"#utility.yul\":5202:5209   */\n      0x00\n        /* \"#utility.yul\":5231:5255   */\n      tag_107\n        /* \"#utility.yul\":5249:5254   */\n      dup3\n        /* \"#utility.yul\":5231:5255   */\n      tag_108\n      jump\t// in\n    tag_107:\n        /* \"#utility.yul\":5220:5255   */\n      swap1\n      pop\n        /* \"#utility.yul\":5165:5261   */\n      swap2\n      swap1\n      pop\n      jump\t// out\n        /* \"#utility.yul\":5267:5393   */\n    tag_108:\n        /* \"#utility.yul\":5304:5311   */\n      0x00\n        /* \"#utility.yul\":5344:5386   */\n      0xffffffffffffffffffffffffffffffffffffffff\n        /* \"#utility.yul\":5337:5342   */\n      dup3\n        /* \"#utility.yul\":5333:5387   */\n      and\n        /* \"#utility.yul\":5322:5387   */\n      swap1\n      pop\n        /* \"#utility.yul\":5267:5393   */\n      swap2\n      swap1\n      pop\n      jump\t// out\n        /* \"#utility.yul\":5399:5476   */\n    tag_89:\n        /* \"#utility.yul\":5436:5443   */\n      0x00\n        /* \"#utility.yul\":5465:5470   */\n      dup2\n        /* \"#utility.yul\":5454:5470   */\n      swap1\n      pop\n        /* \"#utility.yul\":5399:5476   */\n      swap2\n      swap1\n      pop\n      jump\t// out\n        /* \"#utility.yul\":5482:5636   */\n    tag_76:\n        /* \"#utility.yul\":5566:5572   */\n      dup3\n        /* \"#utility.yul\":5561:5564   */\n      dup2\n        /* \"#utility.yul\":5556:5559   */\n      dup4\n        /* \"#utility.yul\":5543:5573   */\n      calldatacopy\n        /* \"#utility.yul\":5628:5629   */\n      0x00\n        /* \"#utility.yul\":5619:5625   */\n      dup4\n        /* \"#utility.yul\":5614:5617   */\n      dup4\n        /* \"#utility.yul\":5610:5626   */\n      add\n        /* \"#utility.yul\":5603:5630   */\n      mstore\n        /* \"#utility.yul\":5482:5636   */\n      pop\n      pop\n      pop\n      jump\t// out\n        /* \"#utility.yul\":5642:5949   */\n    tag_70:\n        /* \"#utility.yul\":5710:5711   */\n      0x00\n        /* \"#utility.yul\":5720:5833   */\n    tag_113:\n        /* \"#utility.yul\":5734:5740   */\n      dup4\n        /* \"#utility.yul\":5731:5732   */\n      dup2\n        /* \"#utility.yul\":5728:5741   */\n      lt\n        /* \"#utility.yul\":5720:5833   */\n      iszero\n      tag_115\n      jumpi\n        /* \"#utility.yul\":5819:5820   */\n      dup1\n        /* \"#utility.yul\":5814:5817   */\n      dup3\n        /* \"#utility.yul\":5810:5821   */\n      add\n        /* \"#utility.yul\":5804:5822   */\n      mload\n        /* \"#utility.yul\":5800:5801   */\n      dup2\n        /* \"#utility.yul\":5795:5798   */\n      dup5\n        /* \"#utility.yul\":5791:5802   */\n      add\n        /* \"#utility.yul\":5784:5823   */\n      mstore\n        /* \"#utility.yul\":5756:5758   */\n      0x20\n        /* \"#utility.yul\":5753:5754   */\n      dup2\n        /* \"#utility.yul\":5749:5759   */\n      add\n        /* \"#utility.yul\":5744:5759   */\n      swap1\n      pop\n        /* \"#utility.yul\":5720:5833   */\n      jump(tag_113)\n    tag_115:\n        /* \"#utility.yul\":5851:5857   */\n      dup4\n        /* \"#utility.yul\":5848:5849   */\n      dup2\n        /* \"#utility.yul\":5845:5858   */\n      gt\n        /* \"#utility.yul\":5842:5943   */\n      iszero\n      tag_116\n      jumpi\n        /* \"#utility.yul\":5931:5932   */\n      0x00\n        /* \"#utility.yul\":5922:5928   */\n      dup5\n        /* \"#utility.yul\":5917:5920   */\n      dup5\n        /* \"#utility.yul\":5913:5929   */\n      add\n        /* \"#utility.yul\":5906:5933   */\n      mstore\n        /* \"#utility.yul\":5842:5943   */\n    tag_116:\n        /* \"#utility.yul\":5691:5949   */\n      pop\n        /* \"#utility.yul\":5642:5949   */\n      pop\n      pop\n      pop\n      jump\t// out\n        /* \"#utility.yul\":5955:6275   */\n    tag_15:\n        /* \"#utility.yul\":5999:6005   */\n      0x00\n        /* \"#utility.yul\":6036:6037   */\n      0x02\n        /* \"#utility.yul\":6030:6034   */\n      dup3\n        /* \"#utility.yul\":6026:6038   */\n      div\n        /* \"#utility.yul\":6016:6038   */\n      swap1\n      pop\n        /* \"#utility.yul\":6083:6084   */\n      0x01\n        /* \"#utility.yul\":6077:6081   */\n      dup3\n        /* \"#utility.yul\":6073:6085   */\n      and\n        /* \"#utility.yul\":6104:6122   */\n      dup1\n        /* \"#utility.yul\":6094:6175   */\n      tag_118\n      jumpi\n        /* \"#utility.yul\":6160:6164   */\n      0x7f\n        /* \"#utility.yul\":6152:6158   */\n      dup3\n        /* \"#utility.yul\":6148:6165   */\n      and\n        /* \"#utility.yul\":6138:6165   */\n      swap2\n      pop\n        /* \"#utility.yul\":6094:6175   */\n    tag_118:\n        /* \"#utility.yul\":6222:6224   */\n      0x20\n        /* \"#utility.yul\":6214:6220   */\n      dup3\n        /* \"#utility.yul\":6211:6225   */\n      lt\n        /* \"#utility.yul\":6191:6209   */\n      dup2\n        /* \"#utility.yul\":6188:6226   */\n      eq\n        /* \"#utility.yul\":6185:6269   */\n      iszero\n      tag_119\n      jumpi\n        /* \"#utility.yul\":6241:6259   */\n      tag_120\n      tag_121\n      jump\t// in\n    tag_120:\n        /* \"#utility.yul\":6185:6269   */\n    tag_119:\n        /* \"#utility.yul\":6006:6275   */\n      pop\n        /* \"#utility.yul\":5955:6275   */\n      swap2\n      swap1\n      pop\n      jump\t// out\n        /* \"#utility.yul\":6281:6461   */\n    tag_121:\n        /* \"#utility.yul\":6329:6406   */\n      0x4e487b7100000000000000000000000000000000000000000000000000000000\n        /* \"#utility.yul\":6326:6327   */\n      0x00\n        /* \"#utility.yul\":6319:6407   */\n      mstore\n        /* \"#utility.yul\":6426:6430   */\n      0x22\n        /* \"#utility.yul\":6423:6424   */\n      0x04\n        /* \"#utility.yul\":6416:6431   */\n      mstore\n        /* \"#utility.yul\":6450:6454   */\n      0x24\n        /* \"#utility.yul\":6447:6448   */\n      0x00\n        /* \"#utility.yul\":6440:6455   */\n      revert\n        /* \"#utility.yul\":6467:6584   */\n    tag_40:\n        /* \"#utility.yul\":6576:6577   */\n      0x00\n        /* \"#utility.yul\":6573:6574   */\n      dup1\n        /* \"#utility.yul\":6566:6578   */\n      revert\n        /* \"#utility.yul\":6590:6707   */\n    tag_37:\n        /* \"#utility.yul\":6699:6700   */\n      0x00\n        /* \"#utility.yul\":6696:6697   */\n      dup1\n        /* \"#utility.yul\":6689:6701   */\n      revert\n        /* \"#utility.yul\":6713:6830   */\n    tag_43:\n        /* \"#utility.yul\":6822:6823   */\n      0x00\n        /* \"#utility.yul\":6819:6820   */\n      dup1\n        /* \"#utility.yul\":6812:6824   */\n      revert\n        /* \"#utility.yul\":6836:6953   */\n    tag_56:\n        /* \"#utility.yul\":6945:6946   */\n      0x00\n        /* \"#utility.yul\":6942:6943   */\n      dup1\n        /* \"#utility.yul\":6935:6947   */\n      revert\n        /* \"#utility.yul\":6959:7076   */\n    tag_51:\n        /* \"#utility.yul\":7068:7069   */\n      0x00\n        /* \"#utility.yul\":7065:7066   */\n      dup1\n        /* \"#utility.yul\":7058:7070   */\n      revert\n        /* \"#utility.yul\":7082:7184   */\n    tag_78:\n        /* \"#utility.yul\":7123:7129   */\n      0x00\n        /* \"#utility.yul\":7174:7176   */\n      0x1f\n        /* \"#utility.yul\":7170:7177   */\n      not\n        /* \"#utility.yul\":7165:7167   */\n      0x1f\n        /* \"#utility.yul\":7158:7163   */\n      dup4\n        /* \"#utility.yul\":7154:7168   */\n      add\n        /* \"#utility.yul\":7150:7178   */\n      and\n        /* \"#utility.yul\":7140:7178   */\n      swap1\n      pop\n        /* \"#utility.yul\":7082:7184   */\n      swap2\n      swap1\n      pop\n      jump\t// out\n        /* \"#utility.yul\":7190:7312   */\n    tag_32:\n        /* \"#utility.yul\":7263:7287   */\n      tag_130\n        /* \"#utility.yul\":7281:7286   */\n      dup2\n        /* \"#utility.yul\":7263:7287   */\n      tag_62\n      jump\t// in\n    tag_130:\n        /* \"#utility.yul\":7256:7261   */\n      dup2\n        /* \"#utility.yul\":7253:7288   */\n      eq\n        /* \"#utility.yul\":7243:7306   */\n      tag_131\n      jumpi\n        /* \"#utility.yul\":7302:7303   */\n      0x00\n        /* \"#utility.yul\":7299:7300   */\n      dup1\n        /* \"#utility.yul\":7292:7304   */\n      revert\n        /* \"#utility.yul\":7243:7306   */\n    tag_131:\n        /* \"#utility.yul\":7190:7312   */\n      pop\n      jump\t// out\n        /* \"#utility.yul\":7318:7440   */\n    tag_47:\n        /* \"#utility.yul\":7391:7415   */\n      tag_133\n        /* \"#utility.yul\":7409:7414   */\n      dup2\n        /* \"#utility.yul\":7391:7415   */\n      tag_89\n      jump\t// in\n    tag_133:\n        /* \"#utility.yul\":7384:7389   */\n      dup2\n        /* \"#utility.yul\":7381:7416   */\n      eq\n        /* \"#utility.yul\":7371:7434   */\n      tag_134\n      jumpi\n        /* \"#utility.yul\":7430:7431   */\n      0x00\n        /* \"#utility.yul\":7427:7428   */\n      dup1\n        /* \"#utility.yul\":7420:7432   */\n      revert\n        /* \"#utility.yul\":7371:7434   */\n    tag_134:\n        /* \"#utility.yul\":7318:7440   */\n      pop\n      jump\t// out\n\n    auxdata: 0xa2646970667358221220b1ca00528e54e7bea72ae707a4524e164c4e0b7c2645556221390133dfc48bad64736f6c63430008070033\n}\n",
				"bytecode": {
					"linkReferences": {},
					"object": "608060405234801561001057600080fd5b5061061d806100206000396000f3fe608060405234801561001057600080fd5b50600436106100365760003560e01c80633bc5de301461003b578063ab5b1aa71461005b575b600080fd5b610043610077565b60405161005293929190610440565b60405180910390f35b610075600480360381019061007091906102ac565b61013b565b005b60006060600080546001600260009054906101000a900473ffffffffffffffffffffffffffffffffffffffff168180546100b09061052e565b80601f01602080910402602001604051908101604052809291908181526020018280546100dc9061052e565b80156101295780601f106100fe57610100808354040283529160200191610129565b820191906000526020600020905b81548152906001019060200180831161010c57829003601f168201915b50505050509150925092509250909192565b6000808673ffffffffffffffffffffffffffffffffffffffff16635eba0df060e01b878787876040516024016101749493929190610400565b604051602081830303815290604052907bffffffffffffffffffffffffffffffffffffffffffffffffffffffff19166020820180517bffffffffffffffffffffffffffffffffffffffffffffffffffffffff83818316178352505050506040516101de91906103e9565b600060405180830381855af49150503d8060008114610219576040519150601f19603f3d011682016040523d82523d6000602084013e61021e565b606091505b509150915050505050505050565b60008135905061023b816105b9565b92915050565b60008083601f84011261025757610256610594565b5b8235905067ffffffffffffffff8111156102745761027361058f565b5b6020830191508360018202830111156102905761028f610599565b5b9250929050565b6000813590506102a6816105d0565b92915050565b6000806000806000608086880312156102c8576102c76105a3565b5b60006102d68882890161022c565b95505060206102e788828901610297565b945050604086013567ffffffffffffffff8111156103085761030761059e565b5b61031488828901610241565b935093505060606103278882890161022c565b9150509295509295909350565b61033d816104b0565b82525050565b600061034e8261047e565b6103588185610494565b93506103688185602086016104fb565b80840191505092915050565b6000610380838561049f565b935061038d8385846104ec565b610396836105a8565b840190509392505050565b60006103ac82610489565b6103b6818561049f565b93506103c68185602086016104fb565b6103cf816105a8565b840191505092915050565b6103e3816104e2565b82525050565b60006103f58284610343565b915081905092915050565b600060608201905061041560008301876103da565b8181036020830152610428818587610374565b90506104376040830184610334565b95945050505050565b600060608201905061045560008301866103da565b818103602083015261046781856103a1565b90506104766040830184610334565b949350505050565b600081519050919050565b600081519050919050565b600081905092915050565b600082825260208201905092915050565b60006104bb826104c2565b9050919050565b600073ffffffffffffffffffffffffffffffffffffffff82169050919050565b6000819050919050565b82818337600083830152505050565b60005b838110156105195780820151818401526020810190506104fe565b83811115610528576000848401525b50505050565b6000600282049050600182168061054657607f821691505b6020821081141561055a57610559610560565b5b50919050565b7f4e487b7100000000000000000000000000000000000000000000000000000000600052602260045260246000fd5b600080fd5b600080fd5b600080fd5b600080fd5b600080fd5b6000601f19601f8301169050919050565b6105c2816104b0565b81146105cd57600080fd5b50565b6105d9816104e2565b81146105e457600080fd5b5056fea2646970667358221220b1ca00528e54e7bea72ae707a4524e164c4e0b7c2645556221390133dfc48bad64736f6c63430008070033",
					"opcodes": "PUSH1 0x80 PUSH1 0x40 MSTORE CALLVALUE DUP1 ISZERO PUSH2 0x10 JUMPI PUSH1 0x0 DUP1 REVERT JUMPDEST POP PUSH2 0x61D DUP1 PUSH2 0x20 PUSH1 0x0 CODECOPY PUSH1 0x0 RETURN INVALID PUSH1 0x80 PUSH1 0x40 MSTORE CALLVALUE DUP1 ISZERO PUSH2 0x10 JUMPI PUSH1 0x0 DUP1 REVERT JUMPDEST POP PUSH1 0x4 CALLDATASIZE LT PUSH2 0x36 JUMPI PUSH1 0x0 CALLDATALOAD PUSH1 0xE0 SHR DUP1 PUSH4 0x3BC5DE30 EQ PUSH2 0x3B JUMPI DUP1 PUSH4 0xAB5B1AA7 EQ PUSH2 0x5B JUMPI JUMPDEST PUSH1 0x0 DUP1 REVERT JUMPDEST PUSH2 0x43 PUSH2 0x77 JUMP JUMPDEST PUSH1 0x40 MLOAD PUSH2 0x52 SWAP4 SWAP3 SWAP2 SWAP1 PUSH2 0x440 JUMP JUMPDEST PUSH1 0x40 MLOAD DUP1 SWAP2 SUB SWAP1 RETURN JUMPDEST PUSH2 0x75 PUSH1 0x4 DUP1 CALLDATASIZE SUB DUP2 ADD SWAP1 PUSH2 0x70 SWAP2 SWAP1 PUSH2 0x2AC JUMP JUMPDEST PUSH2 0x13B JUMP JUMPDEST STOP JUMPDEST PUSH1 0x0 PUSH1 0x60 PUSH1 0x0 DUP1 SLOAD PUSH1 0x1 PUSH1 0x2 PUSH1 0x0 SWAP1 SLOAD SWAP1 PUSH2 0x100 EXP SWAP1 DIV PUSH20 0xFFFFFFFFFFFFFFFFFFFFFFFFFFFFFFFFFFFFFFFF AND DUP2 DUP1 SLOAD PUSH2 0xB0 SWAP1 PUSH2 0x52E JUMP JUMPDEST DUP1 PUSH1 0x1F ADD PUSH1 0x20 DUP1 SWAP2 DIV MUL PUSH1 0x20 ADD PUSH1 0x40 MLOAD SWAP1 DUP2 ADD PUSH1 0x40 MSTORE DUP1 SWAP3 SWAP2 SWAP1 DUP2 DUP2 MSTORE PUSH1 0x20 ADD DUP3 DUP1 SLOAD PUSH2 0xDC SWAP1 PUSH2 0x52E JUMP JUMPDEST DUP1 ISZERO PUSH2 0x129 JUMPI DUP1 PUSH1 0x1F LT PUSH2 0xFE JUMPI PUSH2 0x100 DUP1 DUP4 SLOAD DIV MUL DUP4 MSTORE SWAP2 PUSH1 0x20 ADD SWAP2 PUSH2 0x129 JUMP JUMPDEST DUP3 ADD SWAP2 SWAP1 PUSH1 0x0 MSTORE PUSH1 0x20 PUSH1 0x0 KECCAK256 SWAP1 JUMPDEST DUP2 SLOAD DUP2 MSTORE SWAP1 PUSH1 0x1 ADD SWAP1 PUSH1 0x20 ADD DUP1 DUP4 GT PUSH2 0x10C JUMPI DUP3 SWAP1 SUB PUSH1 0x1F AND DUP3 ADD SWAP2 JUMPDEST POP POP POP POP POP SWAP2 POP SWAP3 POP SWAP3 POP SWAP3 POP SWAP1 SWAP2 SWAP3 JUMP JUMPDEST PUSH1 0x0 DUP1 DUP7 PUSH20 0xFFFFFFFFFFFFFFFFFFFFFFFFFFFFFFFFFFFFFFFF AND PUSH4 0x5EBA0DF0 PUSH1 0xE0 SHL DUP8 DUP8 DUP8 DUP8 PUSH1 0x40 MLOAD PUSH1 0x24 ADD PUSH2 0x174 SWAP5 SWAP4 SWAP3 SWAP2 SWAP1 PUSH2 0x400 JUMP JUMPDEST PUSH1 0x40 MLOAD PUSH1 0x20 DUP2 DUP4 SUB SUB DUP2 MSTORE SWAP1 PUSH1 0x40 MSTORE SWAP1 PUSH28 0xFFFFFFFFFFFFFFFFFFFFFFFFFFFFFFFFFFFFFFFFFFFFFFFFFFFFFFFF NOT AND PUSH1 0x20 DUP3 ADD DUP1 MLOAD PUSH28 0xFFFFFFFFFFFFFFFFFFFFFFFFFFFFFFFFFFFFFFFFFFFFFFFFFFFFFFFF DUP4 DUP2 DUP4 AND OR DUP4 MSTORE POP POP POP POP PUSH1 0x40 MLOAD PUSH2 0x1DE SWAP2 SWAP1 PUSH2 0x3E9 JUMP JUMPDEST PUSH1 0x0 PUSH1 0x40 MLOAD DUP1 DUP4 SUB DUP2 DUP6 GAS DELEGATECALL SWAP2 POP POP RETURNDATASIZE DUP1 PUSH1 0x0 DUP2 EQ PUSH2 0x219 JUMPI PUSH1 0x40 MLOAD SWAP2 POP PUSH1 0x1F NOT PUSH1 0x3F RETURNDATASIZE ADD AND DUP3 ADD PUSH1 0x40 MSTORE RETURNDATASIZE DUP3 MSTORE RETURNDATASIZE PUSH1 0x0 PUSH1 0x20 DUP5 ADD RETURNDATACOPY PUSH2 0x21E JUMP JUMPDEST PUSH1 0x60 SWAP2 POP JUMPDEST POP SWAP2 POP SWAP2 POP POP POP POP POP POP POP POP JUMP JUMPDEST PUSH1 0x0 DUP2 CALLDATALOAD SWAP1 POP PUSH2 0x23B DUP2 PUSH2 0x5B9 JUMP JUMPDEST SWAP3 SWAP2 POP POP JUMP JUMPDEST PUSH1 0x0 DUP1 DUP4 PUSH1 0x1F DUP5 ADD SLT PUSH2 0x257 JUMPI PUSH2 0x256 PUSH2 0x594 JUMP JUMPDEST JUMPDEST DUP3 CALLDATALOAD SWAP1 POP PUSH8 0xFFFFFFFFFFFFFFFF DUP2 GT ISZERO PUSH2 0x274 JUMPI PUSH2 0x273 PUSH2 0x58F JUMP JUMPDEST JUMPDEST PUSH1 0x20 DUP4 ADD SWAP2 POP DUP4 PUSH1 0x1 DUP3 MUL DUP4 ADD GT ISZERO PUSH2 0x290 JUMPI PUSH2 0x28F PUSH2 0x599 JUMP JUMPDEST JUMPDEST SWAP3 POP SWAP3 SWAP1 POP JUMP JUMPDEST PUSH1 0x0 DUP2 CALLDATALOAD SWAP1 POP PUSH2 0x2A6 DUP2 PUSH2 0x5D0 JUMP JUMPDEST SWAP3 SWAP2 POP POP JUMP JUMPDEST PUSH1 0x0 DUP1 PUSH1 0x0 DUP1 PUSH1 0x0 PUSH1 0x80 DUP7 DUP9 SUB SLT ISZERO PUSH2 0x2C8 JUMPI PUSH2 0x2C7 PUSH2 0x5A3 JUMP JUMPDEST JUMPDEST PUSH1 0x0 PUSH2 0x2D6 DUP9 DUP3 DUP10 ADD PUSH2 0x22C JUMP JUMPDEST SWAP6 POP POP PUSH1 0x20 PUSH2 0x2E7 DUP9 DUP3 DUP10 ADD PUSH2 0x297 JUMP JUMPDEST SWAP5 POP POP PUSH1 0x40 DUP7 ADD CALLDATALOAD PUSH8 0xFFFFFFFFFFFFFFFF DUP2 GT ISZERO PUSH2 0x308 JUMPI PUSH2 0x307 PUSH2 0x59E JUMP JUMPDEST JUMPDEST PUSH2 0x314 DUP9 DUP3 DUP10 ADD PUSH2 0x241 JUMP JUMPDEST SWAP4 POP SWAP4 POP POP PUSH1 0x60 PUSH2 0x327 DUP9 DUP3 DUP10 ADD PUSH2 0x22C JUMP JUMPDEST SWAP2 POP POP SWAP3 SWAP6 POP SWAP3 SWAP6 SWAP1 SWAP4 POP JUMP JUMPDEST PUSH2 0x33D DUP2 PUSH2 0x4B0 JUMP JUMPDEST DUP3 MSTORE POP POP JUMP JUMPDEST PUSH1 0x0 PUSH2 0x34E DUP3 PUSH2 0x47E JUMP JUMPDEST PUSH2 0x358 DUP2 DUP6 PUSH2 0x494 JUMP JUMPDEST SWAP4 POP PUSH2 0x368 DUP2 DUP6 PUSH1 0x20 DUP7 ADD PUSH2 0x4FB JUMP JUMPDEST DUP1 DUP5 ADD SWAP2 POP POP SWAP3 SWAP2 POP POP JUMP JUMPDEST PUSH1 0x0 PUSH2 0x380 DUP4 DUP6 PUSH2 0x49F JUMP JUMPDEST SWAP4 POP PUSH2 0x38D DUP4 DUP6 DUP5 PUSH2 0x4EC JUMP JUMPDEST PUSH2 0x396 DUP4 PUSH2 0x5A8 JUMP JUMPDEST DUP5 ADD SWAP1 POP SWAP4 SWAP3 POP POP POP JUMP JUMPDEST PUSH1 0x0 PUSH2 0x3AC DUP3 PUSH2 0x489 JUMP JUMPDEST PUSH2 0x3B6 DUP2 DUP6 PUSH2 0x49F JUMP JUMPDEST SWAP4 POP PUSH2 0x3C6 DUP2 DUP6 PUSH1 0x20 DUP7 ADD PUSH2 0x4FB JUMP JUMPDEST PUSH2 0x3CF DUP2 PUSH2 0x5A8 JUMP JUMPDEST DUP5 ADD SWAP2 POP POP SWAP3 SWAP2 POP POP JUMP JUMPDEST PUSH2 0x3E3 DUP2 PUSH2 0x4E2 JUMP JUMPDEST DUP3 MSTORE POP POP JUMP JUMPDEST PUSH1 0x0 PUSH2 0x3F5 DUP3 DUP5 PUSH2 0x343 JUMP JUMPDEST SWAP2 POP DUP2 SWAP1 POP SWAP3 SWAP2 POP POP JUMP JUMPDEST PUSH1 0x0 PUSH1 0x60 DUP3 ADD SWAP1 POP PUSH2 0x415 PUSH1 0x0 DUP4 ADD DUP8 PUSH2 0x3DA JUMP JUMPDEST DUP2 DUP2 SUB PUSH1 0x20 DUP4 ADD MSTORE PUSH2 0x428 DUP2 DUP6 DUP8 PUSH2 0x374 JUMP JUMPDEST SWAP1 POP PUSH2 0x437 PUSH1 0x40 DUP4 ADD DUP5 PUSH2 0x334 JUMP JUMPDEST SWAP6 SWAP5 POP POP POP POP POP JUMP JUMPDEST PUSH1 0x0 PUSH1 0x60 DUP3 ADD SWAP1 POP PUSH2 0x455 PUSH1 0x0 DUP4 ADD DUP7 PUSH2 0x3DA JUMP JUMPDEST DUP2 DUP2 SUB PUSH1 0x20 DUP4 ADD MSTORE PUSH2 0x467 DUP2 DUP6 PUSH2 0x3A1 JUMP JUMPDEST SWAP1 POP PUSH2 0x476 PUSH1 0x40 DUP4 ADD DUP5 PUSH2 0x334 JUMP JUMPDEST SWAP5 SWAP4 POP POP POP POP JUMP JUMPDEST PUSH1 0x0 DUP2 MLOAD SWAP1 POP SWAP2 SWAP1 POP JUMP JUMPDEST PUSH1 0x0 DUP2 MLOAD SWAP1 POP SWAP2 SWAP1 POP JUMP JUMPDEST PUSH1 0x0 DUP2 SWAP1 POP SWAP3 SWAP2 POP POP JUMP JUMPDEST PUSH1 0x0 DUP3 DUP3 MSTORE PUSH1 0x20 DUP3 ADD SWAP1 POP SWAP3 SWAP2 POP POP JUMP JUMPDEST PUSH1 0x0 PUSH2 0x4BB DUP3 PUSH2 0x4C2 JUMP JUMPDEST SWAP1 POP SWAP2 SWAP1 POP JUMP JUMPDEST PUSH1 0x0 PUSH20 0xFFFFFFFFFFFFFFFFFFFFFFFFFFFFFFFFFFFFFFFF DUP3 AND SWAP1 POP SWAP2 SWAP1 POP JUMP JUMPDEST PUSH1 0x0 DUP2 SWAP1 POP SWAP2 SWAP1 POP JUMP JUMPDEST DUP3 DUP2 DUP4 CALLDATACOPY PUSH1 0x0 DUP4 DUP4 ADD MSTORE POP POP POP JUMP JUMPDEST PUSH1 0x0 JUMPDEST DUP4 DUP2 LT ISZERO PUSH2 0x519 JUMPI DUP1 DUP3 ADD MLOAD DUP2 DUP5 ADD MSTORE PUSH1 0x20 DUP2 ADD SWAP1 POP PUSH2 0x4FE JUMP JUMPDEST DUP4 DUP2 GT ISZERO PUSH2 0x528 JUMPI PUSH1 0x0 DUP5 DUP5 ADD MSTORE JUMPDEST POP POP POP POP JUMP JUMPDEST PUSH1 0x0 PUSH1 0x2 DUP3 DIV SWAP1 POP PUSH1 0x1 DUP3 AND DUP1 PUSH2 0x546 JUMPI PUSH1 0x7F DUP3 AND SWAP2 POP JUMPDEST PUSH1 0x20 DUP3 LT DUP2 EQ ISZERO PUSH2 0x55A JUMPI PUSH2 0x559 PUSH2 0x560 JUMP JUMPDEST JUMPDEST POP SWAP2 SWAP1 POP JUMP JUMPDEST PUSH32 0x4E487B7100000000000000000000000000000000000000000000000000000000 PUSH1 0x0 MSTORE PUSH1 0x22 PUSH1 0x4 MSTORE PUSH1 0x24 PUSH1 0x0 REVERT JUMPDEST PUSH1 0x0 DUP1 REVERT JUMPDEST PUSH1 0x0 DUP1 REVERT JUMPDEST PUSH1 0x0 DUP1 REVERT JUMPDEST PUSH1 0x0 DUP1 REVERT JUMPDEST PUSH1 0x0 DUP1 REVERT JUMPDEST PUSH1 0x0 PUSH1 0x1F NOT PUSH1 0x1F DUP4 ADD AND SWAP1 POP SWAP2 SWAP1 POP JUMP JUMPDEST PUSH2 0x5C2 DUP2 PUSH2 0x4B0 JUMP JUMPDEST DUP2 EQ PUSH2 0x5CD JUMPI PUSH1 0x0 DUP1 REVERT JUMPDEST POP JUMP JUMPDEST PUSH2 0x5D9 DUP2 PUSH2 0x4E2 JUMP JUMPDEST DUP2 EQ PUSH2 0x5E4 JUMPI PUSH1 0x0 DUP1 REVERT JUMPDEST POP JUMP INVALID LOG2 PUSH5 0x6970667358 0x22 SLT KECCAK256 0xB1 0xCA STOP MSTORE DUP15 SLOAD 0xE7 0xBE 0xA7 0x2A 0xE7 SMOD LOG4 MSTORE 0x4E AND 0x4C 0x4E SIGNEXTEND PUSH29 0x2645556221390133DFC48BAD64736F6C63430008070033000000000000 "
				},
				"gasEstimates": {
					"creation": {
						"codeDepositCost": "313000",
						"executionCost": "349",
						"totalCost": "313349"
					},
					"external": {
						"getData()": "infinite",
						"set(address,uint256,string,address)": "infinite"
					}
				},
				"methodIdentifiers": {
					"getData()": "3bc5de30",
					"set(address,uint256,string,address)": "ab5b1aa7"
				}
			},
			"storageLayout": {
				"storage": [
					{
						"astId": 3,
						"contract": "ChangeVarsWithDelegate.sol:Deployed",
						"label": "data1",
						"offset": 0,
						"slot": "0",
						"type": "t_uint256"
					},
					{
						"astId": 5,
						"contract": "ChangeVarsWithDelegate.sol:Deployed",
						"label": "data2",
						"offset": 0,
						"slot": "1",
						"type": "t_string_storage"
					},
					{
						"astId": 7,
						"contract": "ChangeVarsWithDelegate.sol:Deployed",
						"label": "data3",
						"offset": 0,
						"slot": "2",
						"type": "t_address"
					}
				],
				"types": {
					"t_address": {
						"encoding": "inplace",
						"label": "address",
						"numberOfBytes": "20"
					},
					"t_string_storage": {
						"encoding": "bytes",
						"label": "string",
						"numberOfBytes": "32"
					},
					"t_uint256": {
						"encoding": "inplace",
						"label": "uint256",
						"numberOfBytes": "32"
					}
				}
			},
			"userdoc": {
				"kind": "user",
				"methods": {},
				"version": 1
			}
		}
	}
}