{
	"ChangeVarsWithDelegate.sol": {
		"Updated": {
			"abi": [
				{
					"inputs": [],
					"name": "getModifier",
					"outputs": [
						{
							"internalType": "uint256",
							"name": "",
							"type": "uint256"
						}
					],
					"stateMutability": "view",
					"type": "function"
				},
				{
					"inputs": [
						{
							"internalType": "uint256",
							"name": "d1",
							"type": "uint256"
						},
						{
							"internalType": "string",
							"name": "d2",
							"type": "string"
						},
						{
							"internalType": "address",
							"name": "d3",
							"type": "address"
						}
					],
					"name": "set",
					"outputs": [],
					"stateMutability": "nonpayable",
					"type": "function"
				},
				{
					"inputs": [
						{
							"internalType": "uint256",
							"name": "m",
							"type": "uint256"
						}
					],
					"name": "setModifier",
					"outputs": [],
					"stateMutability": "nonpayable",
					"type": "function"
				}
			],
			"devdoc": {
				"kind": "dev",
				"methods": {},
				"version": 1
			},
			"evm": {
				"assembly": "    /* \"ChangeVarsWithDelegate.sol\":451:838  contract Updated{... */\n  mstore(0x40, 0x80)\n  callvalue\n  dup1\n  iszero\n  tag_1\n  jumpi\n  0x00\n  dup1\n  revert\ntag_1:\n  pop\n  dataSize(sub_0)\n  dup1\n  dataOffset(sub_0)\n  0x00\n  codecopy\n  0x00\n  return\nstop\n\nsub_0: assembly {\n        /* \"ChangeVarsWithDelegate.sol\":451:838  contract Updated{... */\n      mstore(0x40, 0x80)\n      callvalue\n      dup1\n      iszero\n      tag_1\n      jumpi\n      0x00\n      dup1\n      revert\n    tag_1:\n      pop\n      jumpi(tag_2, lt(calldatasize, 0x04))\n      shr(0xe0, calldataload(0x00))\n      dup1\n      0x27852c8d\n      eq\n      tag_3\n      jumpi\n      dup1\n      0x5eba0df0\n      eq\n      tag_4\n      jumpi\n      dup1\n      0xcc53907e\n      eq\n      tag_5\n      jumpi\n    tag_2:\n      0x00\n      dup1\n      revert\n        /* \"ChangeVarsWithDelegate.sol\":548:615  function setModifier(uint m) external {... */\n    tag_3:\n      tag_6\n      0x04\n      dup1\n      calldatasize\n      sub\n      dup2\n      add\n      swap1\n      tag_7\n      swap2\n      swap1\n      tag_8\n      jump\t// in\n    tag_7:\n      tag_9\n      jump\t// in\n    tag_6:\n      stop\n        /* \"ChangeVarsWithDelegate.sol\":711:836  function set(uint d1,string calldata d2,address d3) external {... */\n    tag_4:\n      tag_10\n      0x04\n      dup1\n      calldatasize\n      sub\n      dup2\n      add\n      swap1\n      tag_11\n      swap2\n      swap1\n      tag_12\n      jump\t// in\n    tag_11:\n      tag_13\n      jump\t// in\n    tag_10:\n      stop\n        /* \"ChangeVarsWithDelegate.sol\":621:705  function getModifier() external view returns(uint){... */\n    tag_5:\n      tag_14\n      tag_15\n      jump\t// in\n    tag_14:\n      mload(0x40)\n      tag_16\n      swap2\n      swap1\n      tag_17\n      jump\t// in\n    tag_16:\n      mload(0x40)\n      dup1\n      swap2\n      sub\n      swap1\n      return\n        /* \"ChangeVarsWithDelegate.sol\":548:615  function setModifier(uint m) external {... */\n    tag_9:\n        /* \"ChangeVarsWithDelegate.sol\":607:608  m */\n      dup1\n        /* \"ChangeVarsWithDelegate.sol\":596:606  myModifier */\n      0x03\n        /* \"ChangeVarsWithDelegate.sol\":596:608  myModifier=m */\n      dup2\n      swap1\n      sstore\n      pop\n        /* \"ChangeVarsWithDelegate.sol\":548:615  function setModifier(uint m) external {... */\n      pop\n      jump\t// out\n        /* \"ChangeVarsWithDelegate.sol\":711:836  function set(uint d1,string calldata d2,address d3) external {... */\n    tag_13:\n        /* \"ChangeVarsWithDelegate.sol\":791:793  10 */\n      0x0a\n        /* \"ChangeVarsWithDelegate.sol\":788:790  d1 */\n      dup5\n        /* \"ChangeVarsWithDelegate.sol\":788:793  d1*10 */\n      tag_20\n      swap2\n      swap1\n      tag_21\n      jump\t// in\n    tag_20:\n        /* \"ChangeVarsWithDelegate.sol\":782:787  data1 */\n      0x00\n        /* \"ChangeVarsWithDelegate.sol\":782:793  data1=d1*10 */\n      dup2\n      swap1\n      sstore\n      pop\n        /* \"ChangeVarsWithDelegate.sol\":809:811  d2 */\n      dup3\n      dup3\n        /* \"ChangeVarsWithDelegate.sol\":803:808  data2 */\n      0x01\n        /* \"ChangeVarsWithDelegate.sol\":803:811  data2=d2 */\n      swap2\n      swap1\n      tag_22\n      swap3\n      swap2\n      swap1\n      tag_23\n      jump\t// in\n    tag_22:\n      pop\n        /* \"ChangeVarsWithDelegate.sol\":827:829  d3 */\n      dup1\n        /* \"ChangeVarsWithDelegate.sol\":821:826  data3 */\n      0x02\n      0x00\n        /* \"ChangeVarsWithDelegate.sol\":821:829  data3=d3 */\n      0x0100\n      exp\n      dup2\n      sload\n      dup2\n      0xffffffffffffffffffffffffffffffffffffffff\n      mul\n      not\n      and\n      swap1\n      dup4\n      0xffffffffffffffffffffffffffffffffffffffff\n      and\n      mul\n      or\n      swap1\n      sstore\n      pop\n        /* \"ChangeVarsWithDelegate.sol\":711:836  function set(uint d1,string calldata d2,address d3) external {... */\n      pop\n      pop\n      pop\n      pop\n      jump\t// out\n        /* \"ChangeVarsWithDelegate.sol\":621:705  function getModifier() external view returns(uint){... */\n    tag_15:\n        /* \"ChangeVarsWithDelegate.sol\":666:670  uint */\n      0x00\n        /* \"ChangeVarsWithDelegate.sol\":688:698  myModifier */\n      sload(0x03)\n        /* \"ChangeVarsWithDelegate.sol\":681:698  return myModifier */\n      swap1\n      pop\n        /* \"ChangeVarsWithDelegate.sol\":621:705  function getModifier() external view returns(uint){... */\n      swap1\n      jump\t// out\n    tag_23:\n      dup3\n      dup1\n      sload\n      tag_25\n      swap1\n      tag_26\n      jump\t// in\n    tag_25:\n      swap1\n      0x00\n      mstore\n      keccak256(0x00, 0x20)\n      swap1\n      0x1f\n      add\n      0x20\n      swap1\n      div\n      dup2\n      add\n      swap3\n      dup3\n      tag_28\n      jumpi\n      0x00\n      dup6\n      sstore\n      jump(tag_27)\n    tag_28:\n      dup3\n      0x1f\n      lt\n      tag_29\n      jumpi\n      dup1\n      calldataload\n      not(0xff)\n      and\n      dup4\n      dup1\n      add\n      or\n      dup6\n      sstore\n      jump(tag_27)\n    tag_29:\n      dup3\n      dup1\n      add\n      0x01\n      add\n      dup6\n      sstore\n      dup3\n      iszero\n      tag_27\n      jumpi\n      swap2\n      dup3\n      add\n    tag_30:\n      dup3\n      dup2\n      gt\n      iszero\n      tag_31\n      jumpi\n      dup3\n      calldataload\n      dup3\n      sstore\n      swap2\n      0x20\n      add\n      swap2\n      swap1\n      0x01\n      add\n      swap1\n      jump(tag_30)\n    tag_31:\n    tag_27:\n      pop\n      swap1\n      pop\n      tag_32\n      swap2\n      swap1\n      tag_33\n      jump\t// in\n    tag_32:\n      pop\n      swap1\n      jump\t// out\n    tag_33:\n    tag_34:\n      dup1\n      dup3\n      gt\n      iszero\n      tag_35\n      jumpi\n      0x00\n      dup2\n      0x00\n      swap1\n      sstore\n      pop\n      0x01\n      add\n      jump(tag_34)\n    tag_35:\n      pop\n      swap1\n      jump\t// out\n        /* \"#utility.yul\":7:146   */\n    tag_37:\n        /* \"#utility.yul\":53:58   */\n      0x00\n        /* \"#utility.yul\":91:97   */\n      dup2\n        /* \"#utility.yul\":78:98   */\n      calldataload\n        /* \"#utility.yul\":69:98   */\n      swap1\n      pop\n        /* \"#utility.yul\":107:140   */\n      tag_39\n        /* \"#utility.yul\":134:139   */\n      dup2\n        /* \"#utility.yul\":107:140   */\n      tag_40\n      jump\t// in\n    tag_39:\n        /* \"#utility.yul\":7:146   */\n      swap3\n      swap2\n      pop\n      pop\n      jump\t// out\n        /* \"#utility.yul\":166:719   */\n    tag_41:\n        /* \"#utility.yul\":224:232   */\n      0x00\n        /* \"#utility.yul\":234:240   */\n      dup1\n        /* \"#utility.yul\":284:287   */\n      dup4\n        /* \"#utility.yul\":277:281   */\n      0x1f\n        /* \"#utility.yul\":269:275   */\n      dup5\n        /* \"#utility.yul\":265:282   */\n      add\n        /* \"#utility.yul\":261:288   */\n      slt\n        /* \"#utility.yul\":251:373   */\n      tag_43\n      jumpi\n        /* \"#utility.yul\":292:371   */\n      tag_44\n      tag_45\n      jump\t// in\n    tag_44:\n        /* \"#utility.yul\":251:373   */\n    tag_43:\n        /* \"#utility.yul\":405:411   */\n      dup3\n        /* \"#utility.yul\":392:412   */\n      calldataload\n        /* \"#utility.yul\":382:412   */\n      swap1\n      pop\n        /* \"#utility.yul\":435:453   */\n      0xffffffffffffffff\n        /* \"#utility.yul\":427:433   */\n      dup2\n        /* \"#utility.yul\":424:454   */\n      gt\n        /* \"#utility.yul\":421:538   */\n      iszero\n      tag_46\n      jumpi\n        /* \"#utility.yul\":457:536   */\n      tag_47\n      tag_48\n      jump\t// in\n    tag_47:\n        /* \"#utility.yul\":421:538   */\n    tag_46:\n        /* \"#utility.yul\":571:575   */\n      0x20\n        /* \"#utility.yul\":563:569   */\n      dup4\n        /* \"#utility.yul\":559:576   */\n      add\n        /* \"#utility.yul\":547:576   */\n      swap2\n      pop\n        /* \"#utility.yul\":625:628   */\n      dup4\n        /* \"#utility.yul\":617:621   */\n      0x01\n        /* \"#utility.yul\":609:615   */\n      dup3\n        /* \"#utility.yul\":605:622   */\n      mul\n        /* \"#utility.yul\":595:603   */\n      dup4\n        /* \"#utility.yul\":591:623   */\n      add\n        /* \"#utility.yul\":588:629   */\n      gt\n        /* \"#utility.yul\":585:713   */\n      iszero\n      tag_49\n      jumpi\n        /* \"#utility.yul\":632:711   */\n      tag_50\n      tag_51\n      jump\t// in\n    tag_50:\n        /* \"#utility.yul\":585:713   */\n    tag_49:\n        /* \"#utility.yul\":166:719   */\n      swap3\n      pop\n      swap3\n      swap1\n      pop\n      jump\t// out\n        /* \"#utility.yul\":725:864   */\n    tag_52:\n        /* \"#utility.yul\":771:776   */\n      0x00\n        /* \"#utility.yul\":809:815   */\n      dup2\n        /* \"#utility.yul\":796:816   */\n      calldataload\n        /* \"#utility.yul\":787:816   */\n      swap1\n      pop\n        /* \"#utility.yul\":825:858   */\n      tag_54\n        /* \"#utility.yul\":852:857   */\n      dup2\n        /* \"#utility.yul\":825:858   */\n      tag_55\n      jump\t// in\n    tag_54:\n        /* \"#utility.yul\":725:864   */\n      swap3\n      swap2\n      pop\n      pop\n      jump\t// out\n        /* \"#utility.yul\":870:1199   */\n    tag_8:\n        /* \"#utility.yul\":929:935   */\n      0x00\n        /* \"#utility.yul\":978:980   */\n      0x20\n        /* \"#utility.yul\":966:975   */\n      dup3\n        /* \"#utility.yul\":957:964   */\n      dup5\n        /* \"#utility.yul\":953:976   */\n      sub\n        /* \"#utility.yul\":949:981   */\n      slt\n        /* \"#utility.yul\":946:1065   */\n      iszero\n      tag_57\n      jumpi\n        /* \"#utility.yul\":984:1063   */\n      tag_58\n      tag_59\n      jump\t// in\n    tag_58:\n        /* \"#utility.yul\":946:1065   */\n    tag_57:\n        /* \"#utility.yul\":1104:1105   */\n      0x00\n        /* \"#utility.yul\":1129:1182   */\n      tag_60\n        /* \"#utility.yul\":1174:1181   */\n      dup5\n        /* \"#utility.yul\":1165:1171   */\n      dup3\n        /* \"#utility.yul\":1154:1163   */\n      dup6\n        /* \"#utility.yul\":1150:1172   */\n      add\n        /* \"#utility.yul\":1129:1182   */\n      tag_52\n      jump\t// in\n    tag_60:\n        /* \"#utility.yul\":1119:1182   */\n      swap2\n      pop\n        /* \"#utility.yul\":1075:1192   */\n      pop\n        /* \"#utility.yul\":870:1199   */\n      swap3\n      swap2\n      pop\n      pop\n      jump\t// out\n        /* \"#utility.yul\":1205:2024   */\n    tag_12:\n        /* \"#utility.yul\":1294:1300   */\n      0x00\n        /* \"#utility.yul\":1302:1308   */\n      dup1\n        /* \"#utility.yul\":1310:1316   */\n      0x00\n        /* \"#utility.yul\":1318:1324   */\n      dup1\n        /* \"#utility.yul\":1367:1369   */\n      0x60\n        /* \"#utility.yul\":1355:1364   */\n      dup6\n        /* \"#utility.yul\":1346:1353   */\n      dup8\n        /* \"#utility.yul\":1342:1365   */\n      sub\n        /* \"#utility.yul\":1338:1370   */\n      slt\n        /* \"#utility.yul\":1335:1454   */\n      iszero\n      tag_62\n      jumpi\n        /* \"#utility.yul\":1373:1452   */\n      tag_63\n      tag_59\n      jump\t// in\n    tag_63:\n        /* \"#utility.yul\":1335:1454   */\n    tag_62:\n        /* \"#utility.yul\":1493:1494   */\n      0x00\n        /* \"#utility.yul\":1518:1571   */\n      tag_64\n        /* \"#utility.yul\":1563:1570   */\n      dup8\n        /* \"#utility.yul\":1554:1560   */\n      dup3\n        /* \"#utility.yul\":1543:1552   */\n      dup9\n        /* \"#utility.yul\":1539:1561   */\n      add\n        /* \"#utility.yul\":1518:1571   */\n      tag_52\n      jump\t// in\n    tag_64:\n        /* \"#utility.yul\":1508:1571   */\n      swap5\n      pop\n        /* \"#utility.yul\":1464:1581   */\n      pop\n        /* \"#utility.yul\":1648:1650   */\n      0x20\n        /* \"#utility.yul\":1637:1646   */\n      dup6\n        /* \"#utility.yul\":1633:1651   */\n      add\n        /* \"#utility.yul\":1620:1652   */\n      calldataload\n        /* \"#utility.yul\":1679:1697   */\n      0xffffffffffffffff\n        /* \"#utility.yul\":1671:1677   */\n      dup2\n        /* \"#utility.yul\":1668:1698   */\n      gt\n        /* \"#utility.yul\":1665:1782   */\n      iszero\n      tag_65\n      jumpi\n        /* \"#utility.yul\":1701:1780   */\n      tag_66\n      tag_67\n      jump\t// in\n    tag_66:\n        /* \"#utility.yul\":1665:1782   */\n    tag_65:\n        /* \"#utility.yul\":1814:1879   */\n      tag_68\n        /* \"#utility.yul\":1871:1878   */\n      dup8\n        /* \"#utility.yul\":1862:1868   */\n      dup3\n        /* \"#utility.yul\":1851:1860   */\n      dup9\n        /* \"#utility.yul\":1847:1869   */\n      add\n        /* \"#utility.yul\":1814:1879   */\n      tag_41\n      jump\t// in\n    tag_68:\n        /* \"#utility.yul\":1796:1879   */\n      swap4\n      pop\n      swap4\n      pop\n        /* \"#utility.yul\":1591:1889   */\n      pop\n        /* \"#utility.yul\":1928:1930   */\n      0x40\n        /* \"#utility.yul\":1954:2007   */\n      tag_69\n        /* \"#utility.yul\":1999:2006   */\n      dup8\n        /* \"#utility.yul\":1990:1996   */\n      dup3\n        /* \"#utility.yul\":1979:1988   */\n      dup9\n        /* \"#utility.yul\":1975:1997   */\n      add\n        /* \"#utility.yul\":1954:2007   */\n      tag_37\n      jump\t// in\n    tag_69:\n        /* \"#utility.yul\":1944:2007   */\n      swap2\n      pop\n        /* \"#utility.yul\":1899:2017   */\n      pop\n        /* \"#utility.yul\":1205:2024   */\n      swap3\n      swap6\n      swap2\n      swap5\n      pop\n      swap3\n      pop\n      jump\t// out\n        /* \"#utility.yul\":2030:2148   */\n    tag_70:\n        /* \"#utility.yul\":2117:2141   */\n      tag_72\n        /* \"#utility.yul\":2135:2140   */\n      dup2\n        /* \"#utility.yul\":2117:2141   */\n      tag_73\n      jump\t// in\n    tag_72:\n        /* \"#utility.yul\":2112:2115   */\n      dup3\n        /* \"#utility.yul\":2105:2142   */\n      mstore\n        /* \"#utility.yul\":2030:2148   */\n      pop\n      pop\n      jump\t// out\n        /* \"#utility.yul\":2154:2376   */\n    tag_17:\n        /* \"#utility.yul\":2247:2251   */\n      0x00\n        /* \"#utility.yul\":2285:2287   */\n      0x20\n        /* \"#utility.yul\":2274:2283   */\n      dup3\n        /* \"#utility.yul\":2270:2288   */\n      add\n        /* \"#utility.yul\":2262:2288   */\n      swap1\n      pop\n        /* \"#utility.yul\":2298:2369   */\n      tag_75\n        /* \"#utility.yul\":2366:2367   */\n      0x00\n        /* \"#utility.yul\":2355:2364   */\n      dup4\n        /* \"#utility.yul\":2351:2368   */\n      add\n        /* \"#utility.yul\":2342:2348   */\n      dup5\n        /* \"#utility.yul\":2298:2369   */\n      tag_70\n      jump\t// in\n    tag_75:\n        /* \"#utility.yul\":2154:2376   */\n      swap3\n      swap2\n      pop\n      pop\n      jump\t// out\n        /* \"#utility.yul\":2463:2811   */\n    tag_21:\n        /* \"#utility.yul\":2503:2510   */\n      0x00\n        /* \"#utility.yul\":2526:2546   */\n      tag_79\n        /* \"#utility.yul\":2544:2545   */\n      dup3\n        /* \"#utility.yul\":2526:2546   */\n      tag_73\n      jump\t// in\n    tag_79:\n        /* \"#utility.yul\":2521:2546   */\n      swap2\n      pop\n        /* \"#utility.yul\":2560:2580   */\n      tag_80\n        /* \"#utility.yul\":2578:2579   */\n      dup4\n        /* \"#utility.yul\":2560:2580   */\n      tag_73\n      jump\t// in\n    tag_80:\n        /* \"#utility.yul\":2555:2580   */\n      swap3\n      pop\n        /* \"#utility.yul\":2748:2749   */\n      dup2\n        /* \"#utility.yul\":2680:2746   */\n      0xffffffffffffffffffffffffffffffffffffffffffffffffffffffffffffffff\n        /* \"#utility.yul\":2676:2750   */\n      div\n        /* \"#utility.yul\":2673:2674   */\n      dup4\n        /* \"#utility.yul\":2670:2751   */\n      gt\n        /* \"#utility.yul\":2665:2666   */\n      dup3\n        /* \"#utility.yul\":2658:2667   */\n      iszero\n        /* \"#utility.yul\":2651:2668   */\n      iszero\n        /* \"#utility.yul\":2647:2752   */\n      and\n        /* \"#utility.yul\":2644:2775   */\n      iszero\n      tag_81\n      jumpi\n        /* \"#utility.yul\":2755:2773   */\n      tag_82\n      tag_83\n      jump\t// in\n    tag_82:\n        /* \"#utility.yul\":2644:2775   */\n    tag_81:\n        /* \"#utility.yul\":2803:2804   */\n      dup3\n        /* \"#utility.yul\":2800:2801   */\n      dup3\n        /* \"#utility.yul\":2796:2805   */\n      mul\n        /* \"#utility.yul\":2785:2805   */\n      swap1\n      pop\n        /* \"#utility.yul\":2463:2811   */\n      swap3\n      swap2\n      pop\n      pop\n      jump\t// out\n        /* \"#utility.yul\":2817:2913   */\n    tag_84:\n        /* \"#utility.yul\":2854:2861   */\n      0x00\n        /* \"#utility.yul\":2883:2907   */\n      tag_86\n        /* \"#utility.yul\":2901:2906   */\n      dup3\n        /* \"#utility.yul\":2883:2907   */\n      tag_87\n      jump\t// in\n    tag_86:\n        /* \"#utility.yul\":2872:2907   */\n      swap1\n      pop\n        /* \"#utility.yul\":2817:2913   */\n      swap2\n      swap1\n      pop\n      jump\t// out\n        /* \"#utility.yul\":2919:3045   */\n    tag_87:\n        /* \"#utility.yul\":2956:2963   */\n      0x00\n        /* \"#utility.yul\":2996:3038   */\n      0xffffffffffffffffffffffffffffffffffffffff\n        /* \"#utility.yul\":2989:2994   */\n      dup3\n        /* \"#utility.yul\":2985:3039   */\n      and\n        /* \"#utility.yul\":2974:3039   */\n      swap1\n      pop\n        /* \"#utility.yul\":2919:3045   */\n      swap2\n      swap1\n      pop\n      jump\t// out\n        /* \"#utility.yul\":3051:3128   */\n    tag_73:\n        /* \"#utility.yul\":3088:3095   */\n      0x00\n        /* \"#utility.yul\":3117:3122   */\n      dup2\n        /* \"#utility.yul\":3106:3122   */\n      swap1\n      pop\n        /* \"#utility.yul\":3051:3128   */\n      swap2\n      swap1\n      pop\n      jump\t// out\n        /* \"#utility.yul\":3134:3454   */\n    tag_26:\n        /* \"#utility.yul\":3178:3184   */\n      0x00\n        /* \"#utility.yul\":3215:3216   */\n      0x02\n        /* \"#utility.yul\":3209:3213   */\n      dup3\n        /* \"#utility.yul\":3205:3217   */\n      div\n        /* \"#utility.yul\":3195:3217   */\n      swap1\n      pop\n        /* \"#utility.yul\":3262:3263   */\n      0x01\n        /* \"#utility.yul\":3256:3260   */\n      dup3\n        /* \"#utility.yul\":3252:3264   */\n      and\n        /* \"#utility.yul\":3283:3301   */\n      dup1\n        /* \"#utility.yul\":3273:3354   */\n      tag_91\n      jumpi\n        /* \"#utility.yul\":3339:3343   */\n      0x7f\n        /* \"#utility.yul\":3331:3337   */\n      dup3\n        /* \"#utility.yul\":3327:3344   */\n      and\n        /* \"#utility.yul\":3317:3344   */\n      swap2\n      pop\n        /* \"#utility.yul\":3273:3354   */\n    tag_91:\n        /* \"#utility.yul\":3401:3403   */\n      0x20\n        /* \"#utility.yul\":3393:3399   */\n      dup3\n        /* \"#utility.yul\":3390:3404   */\n      lt\n        /* \"#utility.yul\":3370:3388   */\n      dup2\n        /* \"#utility.yul\":3367:3405   */\n      eq\n        /* \"#utility.yul\":3364:3448   */\n      iszero\n      tag_92\n      jumpi\n        /* \"#utility.yul\":3420:3438   */\n      tag_93\n      tag_94\n      jump\t// in\n    tag_93:\n        /* \"#utility.yul\":3364:3448   */\n    tag_92:\n        /* \"#utility.yul\":3185:3454   */\n      pop\n        /* \"#utility.yul\":3134:3454   */\n      swap2\n      swap1\n      pop\n      jump\t// out\n        /* \"#utility.yul\":3460:3640   */\n    tag_83:\n        /* \"#utility.yul\":3508:3585   */\n      0x4e487b7100000000000000000000000000000000000000000000000000000000\n        /* \"#utility.yul\":3505:3506   */\n      0x00\n        /* \"#utility.yul\":3498:3586   */\n      mstore\n        /* \"#utility.yul\":3605:3609   */\n      0x11\n        /* \"#utility.yul\":3602:3603   */\n      0x04\n        /* \"#utility.yul\":3595:3610   */\n      mstore\n        /* \"#utility.yul\":3629:3633   */\n      0x24\n        /* \"#utility.yul\":3626:3627   */\n      0x00\n        /* \"#utility.yul\":3619:3634   */\n      revert\n        /* \"#utility.yul\":3646:3826   */\n    tag_94:\n        /* \"#utility.yul\":3694:3771   */\n      0x4e487b7100000000000000000000000000000000000000000000000000000000\n        /* \"#utility.yul\":3691:3692   */\n      0x00\n        /* \"#utility.yul\":3684:3772   */\n      mstore\n        /* \"#utility.yul\":3791:3795   */\n      0x22\n        /* \"#utility.yul\":3788:3789   */\n      0x04\n        /* \"#utility.yul\":3781:3796   */\n      mstore\n        /* \"#utility.yul\":3815:3819   */\n      0x24\n        /* \"#utility.yul\":3812:3813   */\n      0x00\n        /* \"#utility.yul\":3805:3820   */\n      revert\n        /* \"#utility.yul\":3832:3949   */\n    tag_48:\n        /* \"#utility.yul\":3941:3942   */\n      0x00\n        /* \"#utility.yul\":3938:3939   */\n      dup1\n        /* \"#utility.yul\":3931:3943   */\n      revert\n        /* \"#utility.yul\":3955:4072   */\n    tag_45:\n        /* \"#utility.yul\":4064:4065   */\n      0x00\n        /* \"#utility.yul\":4061:4062   */\n      dup1\n        /* \"#utility.yul\":4054:4066   */\n      revert\n        /* \"#utility.yul\":4078:4195   */\n    tag_51:\n        /* \"#utility.yul\":4187:4188   */\n      0x00\n        /* \"#utility.yul\":4184:4185   */\n      dup1\n        /* \"#utility.yul\":4177:4189   */\n      revert\n        /* \"#utility.yul\":4201:4318   */\n    tag_67:\n        /* \"#utility.yul\":4310:4311   */\n      0x00\n        /* \"#utility.yul\":4307:4308   */\n      dup1\n        /* \"#utility.yul\":4300:4312   */\n      revert\n        /* \"#utility.yul\":4324:4441   */\n    tag_59:\n        /* \"#utility.yul\":4433:4434   */\n      0x00\n        /* \"#utility.yul\":4430:4431   */\n      dup1\n        /* \"#utility.yul\":4423:4435   */\n      revert\n        /* \"#utility.yul\":4447:4569   */\n    tag_40:\n        /* \"#utility.yul\":4520:4544   */\n      tag_103\n        /* \"#utility.yul\":4538:4543   */\n      dup2\n        /* \"#utility.yul\":4520:4544   */\n      tag_84\n      jump\t// in\n    tag_103:\n        /* \"#utility.yul\":4513:4518   */\n      dup2\n        /* \"#utility.yul\":4510:4545   */\n      eq\n        /* \"#utility.yul\":4500:4563   */\n      tag_104\n      jumpi\n        /* \"#utility.yul\":4559:4560   */\n      0x00\n        /* \"#utility.yul\":4556:4557   */\n      dup1\n        /* \"#utility.yul\":4549:4561   */\n      revert\n        /* \"#utility.yul\":4500:4563   */\n    tag_104:\n        /* \"#utility.yul\":4447:4569   */\n      pop\n      jump\t// out\n        /* \"#utility.yul\":4575:4697   */\n    tag_55:\n        /* \"#utility.yul\":4648:4672   */\n      tag_106\n        /* \"#utility.yul\":4666:4671   */\n      dup2\n        /* \"#utility.yul\":4648:4672   */\n      tag_73\n      jump\t// in\n    tag_106:\n        /* \"#utility.yul\":4641:4646   */\n      dup2\n        /* \"#utility.yul\":4638:4673   */\n      eq\n        /* \"#utility.yul\":4628:4691   */\n      tag_107\n      jumpi\n        /* \"#utility.yul\":4687:4688   */\n      0x00\n        /* \"#utility.yul\":4684:4685   */\n      dup1\n        /* \"#utility.yul\":4677:4689   */\n      revert\n        /* \"#utility.yul\":4628:4691   */\n    tag_107:\n        /* \"#utility.yul\":4575:4697   */\n      pop\n      jump\t// out\n\n    auxdata: 0xa26469706673582212209ed39efd0388568b42f139247ef469cd3b76c7551d9dab1fe57807eb43ff355064736f6c63430008070033\n}\n",
				"bytecode": {
					"linkReferences": {},
					"object": "608060405234801561001057600080fd5b506104ad806100206000396000f3fe608060405234801561001057600080fd5b50600436106100415760003560e01c806327852c8d146100465780635eba0df014610062578063cc53907e1461007e575b600080fd5b610060600480360381019061005b919061023f565b61009c565b005b61007c6004803603810190610077919061026c565b6100a6565b005b610086610112565b60405161009391906102ef565b60405180910390f35b8060038190555050565b600a846100b3919061030a565b6000819055508282600191906100ca92919061011c565b5080600260006101000a81548173ffffffffffffffffffffffffffffffffffffffff021916908373ffffffffffffffffffffffffffffffffffffffff16021790555050505050565b6000600354905090565b828054610128906103a0565b90600052602060002090601f01602090048101928261014a5760008555610191565b82601f1061016357803560ff1916838001178555610191565b82800160010185558215610191579182015b82811115610190578235825591602001919060010190610175565b5b50905061019e91906101a2565b5090565b5b808211156101bb5760008160009055506001016101a3565b5090565b6000813590506101ce81610449565b92915050565b60008083601f8401126101ea576101e9610435565b5b8235905067ffffffffffffffff81111561020757610206610430565b5b6020830191508360018202830111156102235761022261043a565b5b9250929050565b60008135905061023981610460565b92915050565b60006020828403121561025557610254610444565b5b60006102638482850161022a565b91505092915050565b6000806000806060858703121561028657610285610444565b5b60006102948782880161022a565b945050602085013567ffffffffffffffff8111156102b5576102b461043f565b5b6102c1878288016101d4565b935093505060406102d4878288016101bf565b91505092959194509250565b6102e981610396565b82525050565b600060208201905061030460008301846102e0565b92915050565b600061031582610396565b915061032083610396565b9250817fffffffffffffffffffffffffffffffffffffffffffffffffffffffffffffffff0483118215151615610359576103586103d2565b5b828202905092915050565b600061036f82610376565b9050919050565b600073ffffffffffffffffffffffffffffffffffffffff82169050919050565b6000819050919050565b600060028204905060018216806103b857607f821691505b602082108114156103cc576103cb610401565b5b50919050565b7f4e487b7100000000000000000000000000000000000000000000000000000000600052601160045260246000fd5b7f4e487b7100000000000000000000000000000000000000000000000000000000600052602260045260246000fd5b600080fd5b600080fd5b600080fd5b600080fd5b600080fd5b61045281610364565b811461045d57600080fd5b50565b61046981610396565b811461047457600080fd5b5056fea26469706673582212209ed39efd0388568b42f139247ef469cd3b76c7551d9dab1fe57807eb43ff355064736f6c63430008070033",
					"opcodes": "PUSH1 0x80 PUSH1 0x40 MSTORE CALLVALUE DUP1 ISZERO PUSH2 0x10 JUMPI PUSH1 0x0 DUP1 REVERT JUMPDEST POP PUSH2 0x4AD DUP1 PUSH2 0x20 PUSH1 0x0 CODECOPY PUSH1 0x0 RETURN INVALID PUSH1 0x80 PUSH1 0x40 MSTORE CALLVALUE DUP1 ISZERO PUSH2 0x10 JUMPI PUSH1 0x0 DUP1 REVERT JUMPDEST POP PUSH1 0x4 CALLDATASIZE LT PUSH2 0x41 JUMPI PUSH1 0x0 CALLDATALOAD PUSH1 0xE0 SHR DUP1 PUSH4 0x27852C8D EQ PUSH2 0x46 JUMPI DUP1 PUSH4 0x5EBA0DF0 EQ PUSH2 0x62 JUMPI DUP1 PUSH4 0xCC53907E EQ PUSH2 0x7E JUMPI JUMPDEST PUSH1 0x0 DUP1 REVERT JUMPDEST PUSH2 0x60 PUSH1 0x4 DUP1 CALLDATASIZE SUB DUP2 ADD SWAP1 PUSH2 0x5B SWAP2 SWAP1 PUSH2 0x23F JUMP JUMPDEST PUSH2 0x9C JUMP JUMPDEST STOP JUMPDEST PUSH2 0x7C PUSH1 0x4 DUP1 CALLDATASIZE SUB DUP2 ADD SWAP1 PUSH2 0x77 SWAP2 SWAP1 PUSH2 0x26C JUMP JUMPDEST PUSH2 0xA6 JUMP JUMPDEST STOP JUMPDEST PUSH2 0x86 PUSH2 0x112 JUMP JUMPDEST PUSH1 0x40 MLOAD PUSH2 0x93 SWAP2 SWAP1 PUSH2 0x2EF JUMP JUMPDEST PUSH1 0x40 MLOAD DUP1 SWAP2 SUB SWAP1 RETURN JUMPDEST DUP1 PUSH1 0x3 DUP2 SWAP1 SSTORE POP POP JUMP JUMPDEST PUSH1 0xA DUP5 PUSH2 0xB3 SWAP2 SWAP1 PUSH2 0x30A JUMP JUMPDEST PUSH1 0x0 DUP2 SWAP1 SSTORE POP DUP3 DUP3 PUSH1 0x1 SWAP2 SWAP1 PUSH2 0xCA SWAP3 SWAP2 SWAP1 PUSH2 0x11C JUMP JUMPDEST POP DUP1 PUSH1 0x2 PUSH1 0x0 PUSH2 0x100 EXP DUP2 SLOAD DUP2 PUSH20 0xFFFFFFFFFFFFFFFFFFFFFFFFFFFFFFFFFFFFFFFF MUL NOT AND SWAP1 DUP4 PUSH20 0xFFFFFFFFFFFFFFFFFFFFFFFFFFFFFFFFFFFFFFFF AND MUL OR SWAP1 SSTORE POP POP POP POP POP JUMP JUMPDEST PUSH1 0x0 PUSH1 0x3 SLOAD SWAP1 POP SWAP1 JUMP JUMPDEST DUP3 DUP1 SLOAD PUSH2 0x128 SWAP1 PUSH2 0x3A0 JUMP JUMPDEST SWAP1 PUSH1 0x0 MSTORE PUSH1 0x20 PUSH1 0x0 KECCAK256 SWAP1 PUSH1 0x1F ADD PUSH1 0x20 SWAP1 DIV DUP2 ADD SWAP3 DUP3 PUSH2 0x14A JUMPI PUSH1 0x0 DUP6 SSTORE PUSH2 0x191 JUMP JUMPDEST DUP3 PUSH1 0x1F LT PUSH2 0x163 JUMPI DUP1 CALLDATALOAD PUSH1 0xFF NOT AND DUP4 DUP1 ADD OR DUP6 SSTORE PUSH2 0x191 JUMP JUMPDEST DUP3 DUP1 ADD PUSH1 0x1 ADD DUP6 SSTORE DUP3 ISZERO PUSH2 0x191 JUMPI SWAP2 DUP3 ADD JUMPDEST DUP3 DUP2 GT ISZERO PUSH2 0x190 JUMPI DUP3 CALLDATALOAD DUP3 SSTORE SWAP2 PUSH1 0x20 ADD SWAP2 SWAP1 PUSH1 0x1 ADD SWAP1 PUSH2 0x175 JUMP JUMPDEST JUMPDEST POP SWAP1 POP PUSH2 0x19E SWAP2 SWAP1 PUSH2 0x1A2 JUMP JUMPDEST POP SWAP1 JUMP JUMPDEST JUMPDEST DUP1 DUP3 GT ISZERO PUSH2 0x1BB JUMPI PUSH1 0x0 DUP2 PUSH1 0x0 SWAP1 SSTORE POP PUSH1 0x1 ADD PUSH2 0x1A3 JUMP JUMPDEST POP SWAP1 JUMP JUMPDEST PUSH1 0x0 DUP2 CALLDATALOAD SWAP1 POP PUSH2 0x1CE DUP2 PUSH2 0x449 JUMP JUMPDEST SWAP3 SWAP2 POP POP JUMP JUMPDEST PUSH1 0x0 DUP1 DUP4 PUSH1 0x1F DUP5 ADD SLT PUSH2 0x1EA JUMPI PUSH2 0x1E9 PUSH2 0x435 JUMP JUMPDEST JUMPDEST DUP3 CALLDATALOAD SWAP1 POP PUSH8 0xFFFFFFFFFFFFFFFF DUP2 GT ISZERO PUSH2 0x207 JUMPI PUSH2 0x206 PUSH2 0x430 JUMP JUMPDEST JUMPDEST PUSH1 0x20 DUP4 ADD SWAP2 POP DUP4 PUSH1 0x1 DUP3 MUL DUP4 ADD GT ISZERO PUSH2 0x223 JUMPI PUSH2 0x222 PUSH2 0x43A JUMP JUMPDEST JUMPDEST SWAP3 POP SWAP3 SWAP1 POP JUMP JUMPDEST PUSH1 0x0 DUP2 CALLDATALOAD SWAP1 POP PUSH2 0x239 DUP2 PUSH2 0x460 JUMP JUMPDEST SWAP3 SWAP2 POP POP JUMP JUMPDEST PUSH1 0x0 PUSH1 0x20 DUP3 DUP5 SUB SLT ISZERO PUSH2 0x255 JUMPI PUSH2 0x254 PUSH2 0x444 JUMP JUMPDEST JUMPDEST PUSH1 0x0 PUSH2 0x263 DUP5 DUP3 DUP6 ADD PUSH2 0x22A JUMP JUMPDEST SWAP2 POP POP SWAP3 SWAP2 POP POP JUMP JUMPDEST PUSH1 0x0 DUP1 PUSH1 0x0 DUP1 PUSH1 0x60 DUP6 DUP8 SUB SLT ISZERO PUSH2 0x286 JUMPI PUSH2 0x285 PUSH2 0x444 JUMP JUMPDEST JUMPDEST PUSH1 0x0 PUSH2 0x294 DUP8 DUP3 DUP9 ADD PUSH2 0x22A JUMP JUMPDEST SWAP5 POP POP PUSH1 0x20 DUP6 ADD CALLDATALOAD PUSH8 0xFFFFFFFFFFFFFFFF DUP2 GT ISZERO PUSH2 0x2B5 JUMPI PUSH2 0x2B4 PUSH2 0x43F JUMP JUMPDEST JUMPDEST PUSH2 0x2C1 DUP8 DUP3 DUP9 ADD PUSH2 0x1D4 JUMP JUMPDEST SWAP4 POP SWAP4 POP POP PUSH1 0x40 PUSH2 0x2D4 DUP8 DUP3 DUP9 ADD PUSH2 0x1BF JUMP JUMPDEST SWAP2 POP POP SWAP3 SWAP6 SWAP2 SWAP5 POP SWAP3 POP JUMP JUMPDEST PUSH2 0x2E9 DUP2 PUSH2 0x396 JUMP JUMPDEST DUP3 MSTORE POP POP JUMP JUMPDEST PUSH1 0x0 PUSH1 0x20 DUP3 ADD SWAP1 POP PUSH2 0x304 PUSH1 0x0 DUP4 ADD DUP5 PUSH2 0x2E0 JUMP JUMPDEST SWAP3 SWAP2 POP POP JUMP JUMPDEST PUSH1 0x0 PUSH2 0x315 DUP3 PUSH2 0x396 JUMP JUMPDEST SWAP2 POP PUSH2 0x320 DUP4 PUSH2 0x396 JUMP JUMPDEST SWAP3 POP DUP2 PUSH32 0xFFFFFFFFFFFFFFFFFFFFFFFFFFFFFFFFFFFFFFFFFFFFFFFFFFFFFFFFFFFFFFFF DIV DUP4 GT DUP3 ISZERO ISZERO AND ISZERO PUSH2 0x359 JUMPI PUSH2 0x358 PUSH2 0x3D2 JUMP JUMPDEST JUMPDEST DUP3 DUP3 MUL SWAP1 POP SWAP3 SWAP2 POP POP JUMP JUMPDEST PUSH1 0x0 PUSH2 0x36F DUP3 PUSH2 0x376 JUMP JUMPDEST SWAP1 POP SWAP2 SWAP1 POP JUMP JUMPDEST PUSH1 0x0 PUSH20 0xFFFFFFFFFFFFFFFFFFFFFFFFFFFFFFFFFFFFFFFF DUP3 AND SWAP1 POP SWAP2 SWAP1 POP JUMP JUMPDEST PUSH1 0x0 DUP2 SWAP1 POP SWAP2 SWAP1 POP JUMP JUMPDEST PUSH1 0x0 PUSH1 0x2 DUP3 DIV SWAP1 POP PUSH1 0x1 DUP3 AND DUP1 PUSH2 0x3B8 JUMPI PUSH1 0x7F DUP3 AND SWAP2 POP JUMPDEST PUSH1 0x20 DUP3 LT DUP2 EQ ISZERO PUSH2 0x3CC JUMPI PUSH2 0x3CB PUSH2 0x401 JUMP JUMPDEST JUMPDEST POP SWAP2 SWAP1 POP JUMP JUMPDEST PUSH32 0x4E487B7100000000000000000000000000000000000000000000000000000000 PUSH1 0x0 MSTORE PUSH1 0x11 PUSH1 0x4 MSTORE PUSH1 0x24 PUSH1 0x0 REVERT JUMPDEST PUSH32 0x4E487B7100000000000000000000000000000000000000000000000000000000 PUSH1 0x0 MSTORE PUSH1 0x22 PUSH1 0x4 MSTORE PUSH1 0x24 PUSH1 0x0 REVERT JUMPDEST PUSH1 0x0 DUP1 REVERT JUMPDEST PUSH1 0x0 DUP1 REVERT JUMPDEST PUSH1 0x0 DUP1 REVERT JUMPDEST PUSH1 0x0 DUP1 REVERT JUMPDEST PUSH1 0x0 DUP1 REVERT JUMPDEST PUSH2 0x452 DUP2 PUSH2 0x364 JUMP JUMPDEST DUP2 EQ PUSH2 0x45D JUMPI PUSH1 0x0 DUP1 REVERT JUMPDEST POP JUMP JUMPDEST PUSH2 0x469 DUP2 PUSH2 0x396 JUMP JUMPDEST DUP2 EQ PUSH2 0x474 JUMPI PUSH1 0x0 DUP1 REVERT JUMPDEST POP JUMP INVALID LOG2 PUSH5 0x6970667358 0x22 SLT KECCAK256 SWAP15 0xD3 SWAP15 REVERT SUB DUP9 JUMP DUP12 TIMESTAMP CALL CODECOPY 0x24 PUSH31 0xF469CD3B76C7551D9DAB1FE57807EB43FF355064736F6C6343000807003300 "
				},
				"gasEstimates": {
					"creation": {
						"codeDepositCost": "239400",
						"executionCost": "281",
						"totalCost": "239681"
					},
					"external": {
						"getModifier()": "2459",
						"set(uint256,string,address)": "infinite",
						"setModifier(uint256)": "22498"
					}
				},
				"methodIdentifiers": {
					"getModifier()": "cc53907e",
					"set(uint256,string,address)": "5eba0df0",
					"setModifier(uint256)": "27852c8d"
				}
			},
			"storageLayout": {
				"storage": [
					{
						"astId": 54,
						"contract": "ChangeVarsWithDelegate.sol:Updated",
						"label": "data1",
						"offset": 0,
						"slot": "0",
						"type": "t_uint256"
					},
					{
						"astId": 56,
						"contract": "ChangeVarsWithDelegate.sol:Updated",
						"label": "data2",
						"offset": 0,
						"slot": "1",
						"type": "t_string_storage"
					},
					{
						"astId": 58,
						"contract": "ChangeVarsWithDelegate.sol:Updated",
						"label": "data3",
						"offset": 0,
						"slot": "2",
						"type": "t_address"
					},
					{
						"astId": 60,
						"contract": "ChangeVarsWithDelegate.sol:Updated",
						"label": "myModifier",
						"offset": 0,
						"slot": "3",
						"type": "t_uint256"
					}
				],
				"types": {
					"t_address": {
						"encoding": "inplace",
						"label": "address",
						"numberOfBytes": "20"
					},
					"t_string_storage": {
						"encoding": "bytes",
						"label": "string",
						"numberOfBytes": "32"
					},
					"t_uint256": {
						"encoding": "inplace",
						"label": "uint256",
						"numberOfBytes": "32"
					}
				}
			},
			"userdoc": {
				"kind": "user",
				"methods": {},
				"version": 1
			}
		}
	}
}