{
	"MultiSigWallet.sol": {
		"MultiSigWallet": {
			"abi": [
				{
					"inputs": [
						{
							"internalType": "address[]",
							"name": "_owners",
							"type": "address[]"
						},
						{
							"internalType": "int256",
							"name": "_required",
							"type": "int256"
						}
					],
					"stateMutability": "nonpayable",
					"type": "constructor"
				},
				{
					"inputs": [
						{
							"internalType": "uint256",
							"name": "txId",
							"type": "uint256"
						}
					],
					"name": "approve",
					"outputs": [],
					"stateMutability": "nonpayable",
					"type": "function"
				},
				{
					"inputs": [
						{
							"internalType": "address",
							"name": "_destination",
							"type": "address"
						},
						{
							"internalType": "uint256",
							"name": "_amount",
							"type": "uint256"
						},
						{
							"internalType": "bytes",
							"name": "_data",
							"type": "bytes"
						}
					],
					"name": "submit",
					"outputs": [],
					"stateMutability": "nonpayable",
					"type": "function"
				},
				{
					"stateMutability": "payable",
					"type": "receive"
				}
			],
			"devdoc": {
				"kind": "dev",
				"methods": {},
				"version": 1
			},
			"evm": {
				"assembly": "    /* \"MultiSigWallet.sol\":56:1090  contract MultiSigWallet{... */\n  mstore(0x40, 0x80)\n    /* \"MultiSigWallet.sol\":353:704  constructor(address[] memory _owners, int _required){... */\n  callvalue\n  dup1\n  iszero\n  tag_1\n  jumpi\n  0x00\n  dup1\n  revert\ntag_1:\n  pop\n  mload(0x40)\n  sub(codesize, bytecodeSize)\n  dup1\n  bytecodeSize\n  dup4\n  codecopy\n  dup2\n  dup2\n  add\n  0x40\n  mstore\n  dup2\n  add\n  swap1\n  tag_2\n  swap2\n  swap1\n  tag_3\n  jump\t// in\ntag_2:\n    /* \"MultiSigWallet.sol\":438:439  0 */\n  0x00\n    /* \"MultiSigWallet.sol\":423:430  _owners */\n  dup3\n    /* \"MultiSigWallet.sol\":423:437  _owners.length */\n  mload\n    /* \"MultiSigWallet.sol\":423:439  _owners.length>0 */\n  gt\n    /* \"MultiSigWallet.sol\":415:452  require(_owners.length>0,\"no owners\") */\n  tag_6\n  jumpi\n  mload(0x40)\n  0x08c379a000000000000000000000000000000000000000000000000000000000\n  dup2\n  mstore\n  0x04\n  add\n  tag_7\n  swap1\n  tag_8\n  jump\t// in\ntag_7:\n  mload(0x40)\n  dup1\n  swap2\n  sub\n  swap1\n  revert\ntag_6:\n    /* \"MultiSigWallet.sol\":466:472  uint i */\n  0x00\n    /* \"MultiSigWallet.sol\":462:698  for(uint i=0;i<_owners.length;i++){... */\ntag_9:\n    /* \"MultiSigWallet.sol\":477:484  _owners */\n  dup3\n    /* \"MultiSigWallet.sol\":477:491  _owners.length */\n  mload\n    /* \"MultiSigWallet.sol\":475:476  i */\n  dup2\n    /* \"MultiSigWallet.sol\":475:491  i<_owners.length */\n  lt\n    /* \"MultiSigWallet.sol\":462:698  for(uint i=0;i<_owners.length;i++){... */\n  iszero\n  tag_10\n  jumpi\n    /* \"MultiSigWallet.sol\":510:523  address owner */\n  0x00\n    /* \"MultiSigWallet.sol\":526:533  _owners */\n  dup4\n    /* \"MultiSigWallet.sol\":534:535  i */\n  dup3\n    /* \"MultiSigWallet.sol\":526:536  _owners[i] */\n  dup2\n  mload\n  dup2\n  lt\n  tag_12\n  jumpi\n  tag_13\n  tag_14\n  jump\t// in\ntag_13:\ntag_12:\n  0x20\n  mul\n  0x20\n  add\n  add\n  mload\n    /* \"MultiSigWallet.sol\":510:536  address owner = _owners[i] */\n  swap1\n  pop\n    /* \"MultiSigWallet.sol\":578:579  0 */\n  0x00\n    /* \"MultiSigWallet.sol\":558:580  _owners[i]!=address(0) */\n  0xffffffffffffffffffffffffffffffffffffffff\n  and\n    /* \"MultiSigWallet.sol\":558:565  _owners */\n  dup5\n    /* \"MultiSigWallet.sol\":566:567  i */\n  dup4\n    /* \"MultiSigWallet.sol\":558:568  _owners[i] */\n  dup2\n  mload\n  dup2\n  lt\n  tag_15\n  jumpi\n  tag_16\n  tag_14\n  jump\t// in\ntag_16:\ntag_15:\n  0x20\n  mul\n  0x20\n  add\n  add\n  mload\n    /* \"MultiSigWallet.sol\":558:580  _owners[i]!=address(0) */\n  0xffffffffffffffffffffffffffffffffffffffff\n  and\n  eq\n  iszero\n    /* \"MultiSigWallet.sol\":550:599  require(_owners[i]!=address(0),\"invalid address\") */\n  tag_17\n  jumpi\n  mload(0x40)\n  0x08c379a000000000000000000000000000000000000000000000000000000000\n  dup2\n  mstore\n  0x04\n  add\n  tag_18\n  swap1\n  tag_19\n  jump\t// in\ntag_18:\n  mload(0x40)\n  dup1\n  swap2\n  sub\n  swap1\n  revert\ntag_17:\n    /* \"MultiSigWallet.sol\":622:629  isOwner */\n  0x00\n    /* \"MultiSigWallet.sol\":622:636  isOwner[owner] */\n  dup1\n    /* \"MultiSigWallet.sol\":630:635  owner */\n  dup3\n    /* \"MultiSigWallet.sol\":622:636  isOwner[owner] */\n  0xffffffffffffffffffffffffffffffffffffffff\n  and\n  0xffffffffffffffffffffffffffffffffffffffff\n  and\n  dup2\n  mstore\n  0x20\n  add\n  swap1\n  dup2\n  mstore\n  0x20\n  add\n  0x00\n  keccak256\n  0x00\n  swap1\n  sload\n  swap1\n  0x0100\n  exp\n  swap1\n  div\n  0xff\n  and\n    /* \"MultiSigWallet.sol\":621:636  !isOwner[owner] */\n  iszero\n    /* \"MultiSigWallet.sol\":613:653  require(!isOwner[owner],\"already owner\") */\n  tag_20\n  jumpi\n  mload(0x40)\n  0x08c379a000000000000000000000000000000000000000000000000000000000\n  dup2\n  mstore\n  0x04\n  add\n  tag_21\n  swap1\n  tag_22\n  jump\t// in\ntag_21:\n  mload(0x40)\n  dup1\n  swap2\n  sub\n  swap1\n  revert\ntag_20:\n    /* \"MultiSigWallet.sol\":682:686  true */\n  0x01\n    /* \"MultiSigWallet.sol\":667:674  isOwner */\n  0x00\n    /* \"MultiSigWallet.sol\":667:681  isOwner[owner] */\n  dup1\n    /* \"MultiSigWallet.sol\":675:680  owner */\n  dup4\n    /* \"MultiSigWallet.sol\":667:681  isOwner[owner] */\n  0xffffffffffffffffffffffffffffffffffffffff\n  and\n  0xffffffffffffffffffffffffffffffffffffffff\n  and\n  dup2\n  mstore\n  0x20\n  add\n  swap1\n  dup2\n  mstore\n  0x20\n  add\n  0x00\n  keccak256\n  0x00\n    /* \"MultiSigWallet.sol\":667:686  isOwner[owner]=true */\n  0x0100\n  exp\n  dup2\n  sload\n  dup2\n  0xff\n  mul\n  not\n  and\n  swap1\n  dup4\n  iszero\n  iszero\n  mul\n  or\n  swap1\n  sstore\n  pop\n    /* \"MultiSigWallet.sol\":496:698  {... */\n  pop\n    /* \"MultiSigWallet.sol\":492:495  i++ */\n  dup1\n  dup1\n  tag_23\n  swap1\n  tag_24\n  jump\t// in\ntag_23:\n  swap2\n  pop\n  pop\n    /* \"MultiSigWallet.sol\":462:698  for(uint i=0;i<_owners.length;i++){... */\n  jump(tag_9)\ntag_10:\n  pop\n    /* \"MultiSigWallet.sol\":353:704  constructor(address[] memory _owners, int _required){... */\n  pop\n  pop\n    /* \"MultiSigWallet.sol\":56:1090  contract MultiSigWallet{... */\n  jump(tag_25)\n    /* \"#utility.yul\":24:768   */\ntag_27:\n    /* \"#utility.yul\":131:136   */\n  0x00\n    /* \"#utility.yul\":156:237   */\n  tag_29\n    /* \"#utility.yul\":172:236   */\n  tag_30\n    /* \"#utility.yul\":229:235   */\n  dup5\n    /* \"#utility.yul\":172:236   */\n  tag_31\n  jump\t// in\ntag_30:\n    /* \"#utility.yul\":156:237   */\n  tag_32\n  jump\t// in\ntag_29:\n    /* \"#utility.yul\":147:237   */\n  swap1\n  pop\n    /* \"#utility.yul\":257:262   */\n  dup1\n    /* \"#utility.yul\":286:292   */\n  dup4\n    /* \"#utility.yul\":279:284   */\n  dup3\n    /* \"#utility.yul\":272:293   */\n  mstore\n    /* \"#utility.yul\":320:324   */\n  0x20\n    /* \"#utility.yul\":313:318   */\n  dup3\n    /* \"#utility.yul\":309:325   */\n  add\n    /* \"#utility.yul\":302:325   */\n  swap1\n  pop\n    /* \"#utility.yul\":346:352   */\n  dup3\n    /* \"#utility.yul\":396:399   */\n  dup6\n    /* \"#utility.yul\":388:392   */\n  0x20\n    /* \"#utility.yul\":380:386   */\n  dup7\n    /* \"#utility.yul\":376:393   */\n  mul\n    /* \"#utility.yul\":371:374   */\n  dup3\n    /* \"#utility.yul\":367:394   */\n  add\n    /* \"#utility.yul\":364:400   */\n  gt\n    /* \"#utility.yul\":361:504   */\n  iszero\n  tag_33\n  jumpi\n    /* \"#utility.yul\":415:494   */\n  tag_34\n  tag_35\n  jump\t// in\ntag_34:\n    /* \"#utility.yul\":361:504   */\ntag_33:\n    /* \"#utility.yul\":528:529   */\n  0x00\n    /* \"#utility.yul\":513:762   */\ntag_36:\n    /* \"#utility.yul\":538:544   */\n  dup6\n    /* \"#utility.yul\":535:536   */\n  dup2\n    /* \"#utility.yul\":532:545   */\n  lt\n    /* \"#utility.yul\":513:762   */\n  iszero\n  tag_38\n  jumpi\n    /* \"#utility.yul\":606:609   */\n  dup2\n    /* \"#utility.yul\":635:683   */\n  tag_39\n    /* \"#utility.yul\":679:682   */\n  dup9\n    /* \"#utility.yul\":667:677   */\n  dup3\n    /* \"#utility.yul\":635:683   */\n  tag_40\n  jump\t// in\ntag_39:\n    /* \"#utility.yul\":630:633   */\n  dup5\n    /* \"#utility.yul\":623:684   */\n  mstore\n    /* \"#utility.yul\":713:717   */\n  0x20\n    /* \"#utility.yul\":708:711   */\n  dup5\n    /* \"#utility.yul\":704:718   */\n  add\n    /* \"#utility.yul\":697:718   */\n  swap4\n  pop\n    /* \"#utility.yul\":747:751   */\n  0x20\n    /* \"#utility.yul\":742:745   */\n  dup4\n    /* \"#utility.yul\":738:752   */\n  add\n    /* \"#utility.yul\":731:752   */\n  swap3\n  pop\n    /* \"#utility.yul\":573:762   */\n  pop\n    /* \"#utility.yul\":560:561   */\n  0x01\n    /* \"#utility.yul\":557:558   */\n  dup2\n    /* \"#utility.yul\":553:562   */\n  add\n    /* \"#utility.yul\":548:562   */\n  swap1\n  pop\n    /* \"#utility.yul\":513:762   */\n  jump(tag_36)\ntag_38:\n    /* \"#utility.yul\":517:531   */\n  pop\n    /* \"#utility.yul\":137:768   */\n  pop\n  pop\n    /* \"#utility.yul\":24:768   */\n  swap4\n  swap3\n  pop\n  pop\n  pop\n  jump\t// out\n    /* \"#utility.yul\":774:917   */\ntag_40:\n    /* \"#utility.yul\":831:836   */\n  0x00\n    /* \"#utility.yul\":862:868   */\n  dup2\n    /* \"#utility.yul\":856:869   */\n  mload\n    /* \"#utility.yul\":847:869   */\n  swap1\n  pop\n    /* \"#utility.yul\":878:911   */\n  tag_42\n    /* \"#utility.yul\":905:910   */\n  dup2\n    /* \"#utility.yul\":878:911   */\n  tag_43\n  jump\t// in\ntag_42:\n    /* \"#utility.yul\":774:917   */\n  swap3\n  swap2\n  pop\n  pop\n  jump\t// out\n    /* \"#utility.yul\":940:1325   */\ntag_44:\n    /* \"#utility.yul\":1022:1027   */\n  0x00\n    /* \"#utility.yul\":1071:1074   */\n  dup3\n    /* \"#utility.yul\":1064:1068   */\n  0x1f\n    /* \"#utility.yul\":1056:1062   */\n  dup4\n    /* \"#utility.yul\":1052:1069   */\n  add\n    /* \"#utility.yul\":1048:1075   */\n  slt\n    /* \"#utility.yul\":1038:1160   */\n  tag_46\n  jumpi\n    /* \"#utility.yul\":1079:1158   */\n  tag_47\n  tag_48\n  jump\t// in\ntag_47:\n    /* \"#utility.yul\":1038:1160   */\ntag_46:\n    /* \"#utility.yul\":1189:1195   */\n  dup2\n    /* \"#utility.yul\":1183:1196   */\n  mload\n    /* \"#utility.yul\":1214:1319   */\n  tag_49\n    /* \"#utility.yul\":1315:1318   */\n  dup5\n    /* \"#utility.yul\":1307:1313   */\n  dup3\n    /* \"#utility.yul\":1300:1304   */\n  0x20\n    /* \"#utility.yul\":1292:1298   */\n  dup7\n    /* \"#utility.yul\":1288:1305   */\n  add\n    /* \"#utility.yul\":1214:1319   */\n  tag_27\n  jump\t// in\ntag_49:\n    /* \"#utility.yul\":1205:1319   */\n  swap2\n  pop\n    /* \"#utility.yul\":1028:1325   */\n  pop\n    /* \"#utility.yul\":940:1325   */\n  swap3\n  swap2\n  pop\n  pop\n  jump\t// out\n    /* \"#utility.yul\":1331:1472   */\ntag_50:\n    /* \"#utility.yul\":1387:1392   */\n  0x00\n    /* \"#utility.yul\":1418:1424   */\n  dup2\n    /* \"#utility.yul\":1412:1425   */\n  mload\n    /* \"#utility.yul\":1403:1425   */\n  swap1\n  pop\n    /* \"#utility.yul\":1434:1466   */\n  tag_52\n    /* \"#utility.yul\":1460:1465   */\n  dup2\n    /* \"#utility.yul\":1434:1466   */\n  tag_53\n  jump\t// in\ntag_52:\n    /* \"#utility.yul\":1331:1472   */\n  swap3\n  swap2\n  pop\n  pop\n  jump\t// out\n    /* \"#utility.yul\":1478:2186   */\ntag_3:\n    /* \"#utility.yul\":1581:1587   */\n  0x00\n    /* \"#utility.yul\":1589:1595   */\n  dup1\n    /* \"#utility.yul\":1638:1640   */\n  0x40\n    /* \"#utility.yul\":1626:1635   */\n  dup4\n    /* \"#utility.yul\":1617:1624   */\n  dup6\n    /* \"#utility.yul\":1613:1636   */\n  sub\n    /* \"#utility.yul\":1609:1641   */\n  slt\n    /* \"#utility.yul\":1606:1725   */\n  iszero\n  tag_55\n  jumpi\n    /* \"#utility.yul\":1644:1723   */\n  tag_56\n  tag_57\n  jump\t// in\ntag_56:\n    /* \"#utility.yul\":1606:1725   */\ntag_55:\n    /* \"#utility.yul\":1785:1786   */\n  0x00\n    /* \"#utility.yul\":1774:1783   */\n  dup4\n    /* \"#utility.yul\":1770:1787   */\n  add\n    /* \"#utility.yul\":1764:1788   */\n  mload\n    /* \"#utility.yul\":1815:1833   */\n  0xffffffffffffffff\n    /* \"#utility.yul\":1807:1813   */\n  dup2\n    /* \"#utility.yul\":1804:1834   */\n  gt\n    /* \"#utility.yul\":1801:1918   */\n  iszero\n  tag_58\n  jumpi\n    /* \"#utility.yul\":1837:1916   */\n  tag_59\n  tag_60\n  jump\t// in\ntag_59:\n    /* \"#utility.yul\":1801:1918   */\ntag_58:\n    /* \"#utility.yul\":1942:2031   */\n  tag_61\n    /* \"#utility.yul\":2023:2030   */\n  dup6\n    /* \"#utility.yul\":2014:2020   */\n  dup3\n    /* \"#utility.yul\":2003:2012   */\n  dup7\n    /* \"#utility.yul\":1999:2021   */\n  add\n    /* \"#utility.yul\":1942:2031   */\n  tag_44\n  jump\t// in\ntag_61:\n    /* \"#utility.yul\":1932:2031   */\n  swap3\n  pop\n    /* \"#utility.yul\":1735:2041   */\n  pop\n    /* \"#utility.yul\":2080:2082   */\n  0x20\n    /* \"#utility.yul\":2106:2169   */\n  tag_62\n    /* \"#utility.yul\":2161:2168   */\n  dup6\n    /* \"#utility.yul\":2152:2158   */\n  dup3\n    /* \"#utility.yul\":2141:2150   */\n  dup7\n    /* \"#utility.yul\":2137:2159   */\n  add\n    /* \"#utility.yul\":2106:2169   */\n  tag_50\n  jump\t// in\ntag_62:\n    /* \"#utility.yul\":2096:2169   */\n  swap2\n  pop\n    /* \"#utility.yul\":2051:2179   */\n  pop\n    /* \"#utility.yul\":1478:2186   */\n  swap3\n  pop\n  swap3\n  swap1\n  pop\n  jump\t// out\n    /* \"#utility.yul\":2192:2558   */\ntag_63:\n    /* \"#utility.yul\":2334:2337   */\n  0x00\n    /* \"#utility.yul\":2355:2422   */\n  tag_65\n    /* \"#utility.yul\":2419:2421   */\n  0x0d\n    /* \"#utility.yul\":2414:2417   */\n  dup4\n    /* \"#utility.yul\":2355:2422   */\n  tag_66\n  jump\t// in\ntag_65:\n    /* \"#utility.yul\":2348:2422   */\n  swap2\n  pop\n    /* \"#utility.yul\":2431:2524   */\n  tag_67\n    /* \"#utility.yul\":2520:2523   */\n  dup3\n    /* \"#utility.yul\":2431:2524   */\n  tag_68\n  jump\t// in\ntag_67:\n    /* \"#utility.yul\":2549:2551   */\n  0x20\n    /* \"#utility.yul\":2544:2547   */\n  dup3\n    /* \"#utility.yul\":2540:2552   */\n  add\n    /* \"#utility.yul\":2533:2552   */\n  swap1\n  pop\n    /* \"#utility.yul\":2192:2558   */\n  swap2\n  swap1\n  pop\n  jump\t// out\n    /* \"#utility.yul\":2564:2930   */\ntag_69:\n    /* \"#utility.yul\":2706:2709   */\n  0x00\n    /* \"#utility.yul\":2727:2794   */\n  tag_71\n    /* \"#utility.yul\":2791:2793   */\n  0x0f\n    /* \"#utility.yul\":2786:2789   */\n  dup4\n    /* \"#utility.yul\":2727:2794   */\n  tag_66\n  jump\t// in\ntag_71:\n    /* \"#utility.yul\":2720:2794   */\n  swap2\n  pop\n    /* \"#utility.yul\":2803:2896   */\n  tag_72\n    /* \"#utility.yul\":2892:2895   */\n  dup3\n    /* \"#utility.yul\":2803:2896   */\n  tag_73\n  jump\t// in\ntag_72:\n    /* \"#utility.yul\":2921:2923   */\n  0x20\n    /* \"#utility.yul\":2916:2919   */\n  dup3\n    /* \"#utility.yul\":2912:2924   */\n  add\n    /* \"#utility.yul\":2905:2924   */\n  swap1\n  pop\n    /* \"#utility.yul\":2564:2930   */\n  swap2\n  swap1\n  pop\n  jump\t// out\n    /* \"#utility.yul\":2936:3301   */\ntag_74:\n    /* \"#utility.yul\":3078:3081   */\n  0x00\n    /* \"#utility.yul\":3099:3165   */\n  tag_76\n    /* \"#utility.yul\":3163:3164   */\n  0x09\n    /* \"#utility.yul\":3158:3161   */\n  dup4\n    /* \"#utility.yul\":3099:3165   */\n  tag_66\n  jump\t// in\ntag_76:\n    /* \"#utility.yul\":3092:3165   */\n  swap2\n  pop\n    /* \"#utility.yul\":3174:3267   */\n  tag_77\n    /* \"#utility.yul\":3263:3266   */\n  dup3\n    /* \"#utility.yul\":3174:3267   */\n  tag_78\n  jump\t// in\ntag_77:\n    /* \"#utility.yul\":3292:3294   */\n  0x20\n    /* \"#utility.yul\":3287:3290   */\n  dup3\n    /* \"#utility.yul\":3283:3295   */\n  add\n    /* \"#utility.yul\":3276:3295   */\n  swap1\n  pop\n    /* \"#utility.yul\":2936:3301   */\n  swap2\n  swap1\n  pop\n  jump\t// out\n    /* \"#utility.yul\":3307:3726   */\ntag_22:\n    /* \"#utility.yul\":3473:3477   */\n  0x00\n    /* \"#utility.yul\":3511:3513   */\n  0x20\n    /* \"#utility.yul\":3500:3509   */\n  dup3\n    /* \"#utility.yul\":3496:3514   */\n  add\n    /* \"#utility.yul\":3488:3514   */\n  swap1\n  pop\n    /* \"#utility.yul\":3560:3569   */\n  dup2\n    /* \"#utility.yul\":3554:3558   */\n  dup2\n    /* \"#utility.yul\":3550:3570   */\n  sub\n    /* \"#utility.yul\":3546:3547   */\n  0x00\n    /* \"#utility.yul\":3535:3544   */\n  dup4\n    /* \"#utility.yul\":3531:3548   */\n  add\n    /* \"#utility.yul\":3524:3571   */\n  mstore\n    /* \"#utility.yul\":3588:3719   */\n  tag_80\n    /* \"#utility.yul\":3714:3718   */\n  dup2\n    /* \"#utility.yul\":3588:3719   */\n  tag_63\n  jump\t// in\ntag_80:\n    /* \"#utility.yul\":3580:3719   */\n  swap1\n  pop\n    /* \"#utility.yul\":3307:3726   */\n  swap2\n  swap1\n  pop\n  jump\t// out\n    /* \"#utility.yul\":3732:4151   */\ntag_19:\n    /* \"#utility.yul\":3898:3902   */\n  0x00\n    /* \"#utility.yul\":3936:3938   */\n  0x20\n    /* \"#utility.yul\":3925:3934   */\n  dup3\n    /* \"#utility.yul\":3921:3939   */\n  add\n    /* \"#utility.yul\":3913:3939   */\n  swap1\n  pop\n    /* \"#utility.yul\":3985:3994   */\n  dup2\n    /* \"#utility.yul\":3979:3983   */\n  dup2\n    /* \"#utility.yul\":3975:3995   */\n  sub\n    /* \"#utility.yul\":3971:3972   */\n  0x00\n    /* \"#utility.yul\":3960:3969   */\n  dup4\n    /* \"#utility.yul\":3956:3973   */\n  add\n    /* \"#utility.yul\":3949:3996   */\n  mstore\n    /* \"#utility.yul\":4013:4144   */\n  tag_82\n    /* \"#utility.yul\":4139:4143   */\n  dup2\n    /* \"#utility.yul\":4013:4144   */\n  tag_69\n  jump\t// in\ntag_82:\n    /* \"#utility.yul\":4005:4144   */\n  swap1\n  pop\n    /* \"#utility.yul\":3732:4151   */\n  swap2\n  swap1\n  pop\n  jump\t// out\n    /* \"#utility.yul\":4157:4576   */\ntag_8:\n    /* \"#utility.yul\":4323:4327   */\n  0x00\n    /* \"#utility.yul\":4361:4363   */\n  0x20\n    /* \"#utility.yul\":4350:4359   */\n  dup3\n    /* \"#utility.yul\":4346:4364   */\n  add\n    /* \"#utility.yul\":4338:4364   */\n  swap1\n  pop\n    /* \"#utility.yul\":4410:4419   */\n  dup2\n    /* \"#utility.yul\":4404:4408   */\n  dup2\n    /* \"#utility.yul\":4400:4420   */\n  sub\n    /* \"#utility.yul\":4396:4397   */\n  0x00\n    /* \"#utility.yul\":4385:4394   */\n  dup4\n    /* \"#utility.yul\":4381:4398   */\n  add\n    /* \"#utility.yul\":4374:4421   */\n  mstore\n    /* \"#utility.yul\":4438:4569   */\n  tag_84\n    /* \"#utility.yul\":4564:4568   */\n  dup2\n    /* \"#utility.yul\":4438:4569   */\n  tag_74\n  jump\t// in\ntag_84:\n    /* \"#utility.yul\":4430:4569   */\n  swap1\n  pop\n    /* \"#utility.yul\":4157:4576   */\n  swap2\n  swap1\n  pop\n  jump\t// out\n    /* \"#utility.yul\":4582:4711   */\ntag_32:\n    /* \"#utility.yul\":4616:4622   */\n  0x00\n    /* \"#utility.yul\":4643:4663   */\n  tag_86\n  tag_87\n  jump\t// in\ntag_86:\n    /* \"#utility.yul\":4633:4663   */\n  swap1\n  pop\n    /* \"#utility.yul\":4672:4705   */\n  tag_88\n    /* \"#utility.yul\":4700:4704   */\n  dup3\n    /* \"#utility.yul\":4692:4698   */\n  dup3\n    /* \"#utility.yul\":4672:4705   */\n  tag_89\n  jump\t// in\ntag_88:\n    /* \"#utility.yul\":4582:4711   */\n  swap2\n  swap1\n  pop\n  jump\t// out\n    /* \"#utility.yul\":4717:4792   */\ntag_87:\n    /* \"#utility.yul\":4750:4756   */\n  0x00\n    /* \"#utility.yul\":4783:4785   */\n  0x40\n    /* \"#utility.yul\":4777:4786   */\n  mload\n    /* \"#utility.yul\":4767:4786   */\n  swap1\n  pop\n    /* \"#utility.yul\":4717:4792   */\n  swap1\n  jump\t// out\n    /* \"#utility.yul\":4798:5109   */\ntag_31:\n    /* \"#utility.yul\":4875:4879   */\n  0x00\n    /* \"#utility.yul\":4965:4983   */\n  0xffffffffffffffff\n    /* \"#utility.yul\":4957:4963   */\n  dup3\n    /* \"#utility.yul\":4954:4984   */\n  gt\n    /* \"#utility.yul\":4951:5007   */\n  iszero\n  tag_92\n  jumpi\n    /* \"#utility.yul\":4987:5005   */\n  tag_93\n  tag_94\n  jump\t// in\ntag_93:\n    /* \"#utility.yul\":4951:5007   */\ntag_92:\n    /* \"#utility.yul\":5037:5041   */\n  0x20\n    /* \"#utility.yul\":5029:5035   */\n  dup3\n    /* \"#utility.yul\":5025:5042   */\n  mul\n    /* \"#utility.yul\":5017:5042   */\n  swap1\n  pop\n    /* \"#utility.yul\":5097:5101   */\n  0x20\n    /* \"#utility.yul\":5091:5095   */\n  dup2\n    /* \"#utility.yul\":5087:5102   */\n  add\n    /* \"#utility.yul\":5079:5102   */\n  swap1\n  pop\n    /* \"#utility.yul\":4798:5109   */\n  swap2\n  swap1\n  pop\n  jump\t// out\n    /* \"#utility.yul\":5115:5284   */\ntag_66:\n    /* \"#utility.yul\":5199:5210   */\n  0x00\n    /* \"#utility.yul\":5233:5239   */\n  dup3\n    /* \"#utility.yul\":5228:5231   */\n  dup3\n    /* \"#utility.yul\":5221:5240   */\n  mstore\n    /* \"#utility.yul\":5273:5277   */\n  0x20\n    /* \"#utility.yul\":5268:5271   */\n  dup3\n    /* \"#utility.yul\":5264:5278   */\n  add\n    /* \"#utility.yul\":5249:5278   */\n  swap1\n  pop\n    /* \"#utility.yul\":5115:5284   */\n  swap3\n  swap2\n  pop\n  pop\n  jump\t// out\n    /* \"#utility.yul\":5290:5386   */\ntag_96:\n    /* \"#utility.yul\":5327:5334   */\n  0x00\n    /* \"#utility.yul\":5356:5380   */\n  tag_98\n    /* \"#utility.yul\":5374:5379   */\n  dup3\n    /* \"#utility.yul\":5356:5380   */\n  tag_99\n  jump\t// in\ntag_98:\n    /* \"#utility.yul\":5345:5380   */\n  swap1\n  pop\n    /* \"#utility.yul\":5290:5386   */\n  swap2\n  swap1\n  pop\n  jump\t// out\n    /* \"#utility.yul\":5392:5468   */\ntag_100:\n    /* \"#utility.yul\":5428:5435   */\n  0x00\n    /* \"#utility.yul\":5457:5462   */\n  dup2\n    /* \"#utility.yul\":5446:5462   */\n  swap1\n  pop\n    /* \"#utility.yul\":5392:5468   */\n  swap2\n  swap1\n  pop\n  jump\t// out\n    /* \"#utility.yul\":5474:5600   */\ntag_99:\n    /* \"#utility.yul\":5511:5518   */\n  0x00\n    /* \"#utility.yul\":5551:5593   */\n  0xffffffffffffffffffffffffffffffffffffffff\n    /* \"#utility.yul\":5544:5549   */\n  dup3\n    /* \"#utility.yul\":5540:5594   */\n  and\n    /* \"#utility.yul\":5529:5594   */\n  swap1\n  pop\n    /* \"#utility.yul\":5474:5600   */\n  swap2\n  swap1\n  pop\n  jump\t// out\n    /* \"#utility.yul\":5606:5683   */\ntag_103:\n    /* \"#utility.yul\":5643:5650   */\n  0x00\n    /* \"#utility.yul\":5672:5677   */\n  dup2\n    /* \"#utility.yul\":5661:5677   */\n  swap1\n  pop\n    /* \"#utility.yul\":5606:5683   */\n  swap2\n  swap1\n  pop\n  jump\t// out\n    /* \"#utility.yul\":5689:5970   */\ntag_89:\n    /* \"#utility.yul\":5772:5799   */\n  tag_106\n    /* \"#utility.yul\":5794:5798   */\n  dup3\n    /* \"#utility.yul\":5772:5799   */\n  tag_107\n  jump\t// in\ntag_106:\n    /* \"#utility.yul\":5764:5770   */\n  dup2\n    /* \"#utility.yul\":5760:5800   */\n  add\n    /* \"#utility.yul\":5902:5908   */\n  dup2\n    /* \"#utility.yul\":5890:5900   */\n  dup2\n    /* \"#utility.yul\":5887:5909   */\n  lt\n    /* \"#utility.yul\":5866:5884   */\n  0xffffffffffffffff\n    /* \"#utility.yul\":5854:5864   */\n  dup3\n    /* \"#utility.yul\":5851:5885   */\n  gt\n    /* \"#utility.yul\":5848:5910   */\n  or\n    /* \"#utility.yul\":5845:5933   */\n  iszero\n  tag_108\n  jumpi\n    /* \"#utility.yul\":5913:5931   */\n  tag_109\n  tag_94\n  jump\t// in\ntag_109:\n    /* \"#utility.yul\":5845:5933   */\ntag_108:\n    /* \"#utility.yul\":5953:5963   */\n  dup1\n    /* \"#utility.yul\":5949:5951   */\n  0x40\n    /* \"#utility.yul\":5942:5964   */\n  mstore\n    /* \"#utility.yul\":5732:5970   */\n  pop\n    /* \"#utility.yul\":5689:5970   */\n  pop\n  pop\n  jump\t// out\n    /* \"#utility.yul\":5976:6209   */\ntag_24:\n    /* \"#utility.yul\":6015:6018   */\n  0x00\n    /* \"#utility.yul\":6038:6062   */\n  tag_111\n    /* \"#utility.yul\":6056:6061   */\n  dup3\n    /* \"#utility.yul\":6038:6062   */\n  tag_103\n  jump\t// in\ntag_111:\n    /* \"#utility.yul\":6029:6062   */\n  swap2\n  pop\n    /* \"#utility.yul\":6084:6150   */\n  0xffffffffffffffffffffffffffffffffffffffffffffffffffffffffffffffff\n    /* \"#utility.yul\":6077:6082   */\n  dup3\n    /* \"#utility.yul\":6074:6151   */\n  eq\n    /* \"#utility.yul\":6071:6174   */\n  iszero\n  tag_112\n  jumpi\n    /* \"#utility.yul\":6154:6172   */\n  tag_113\n  tag_114\n  jump\t// in\ntag_113:\n    /* \"#utility.yul\":6071:6174   */\ntag_112:\n    /* \"#utility.yul\":6201:6202   */\n  0x01\n    /* \"#utility.yul\":6194:6199   */\n  dup3\n    /* \"#utility.yul\":6190:6203   */\n  add\n    /* \"#utility.yul\":6183:6203   */\n  swap1\n  pop\n    /* \"#utility.yul\":5976:6209   */\n  swap2\n  swap1\n  pop\n  jump\t// out\n    /* \"#utility.yul\":6215:6395   */\ntag_114:\n    /* \"#utility.yul\":6263:6340   */\n  0x4e487b7100000000000000000000000000000000000000000000000000000000\n    /* \"#utility.yul\":6260:6261   */\n  0x00\n    /* \"#utility.yul\":6253:6341   */\n  mstore\n    /* \"#utility.yul\":6360:6364   */\n  0x11\n    /* \"#utility.yul\":6357:6358   */\n  0x04\n    /* \"#utility.yul\":6350:6365   */\n  mstore\n    /* \"#utility.yul\":6384:6388   */\n  0x24\n    /* \"#utility.yul\":6381:6382   */\n  0x00\n    /* \"#utility.yul\":6374:6389   */\n  revert\n    /* \"#utility.yul\":6401:6581   */\ntag_14:\n    /* \"#utility.yul\":6449:6526   */\n  0x4e487b7100000000000000000000000000000000000000000000000000000000\n    /* \"#utility.yul\":6446:6447   */\n  0x00\n    /* \"#utility.yul\":6439:6527   */\n  mstore\n    /* \"#utility.yul\":6546:6550   */\n  0x32\n    /* \"#utility.yul\":6543:6544   */\n  0x04\n    /* \"#utility.yul\":6536:6551   */\n  mstore\n    /* \"#utility.yul\":6570:6574   */\n  0x24\n    /* \"#utility.yul\":6567:6568   */\n  0x00\n    /* \"#utility.yul\":6560:6575   */\n  revert\n    /* \"#utility.yul\":6587:6767   */\ntag_94:\n    /* \"#utility.yul\":6635:6712   */\n  0x4e487b7100000000000000000000000000000000000000000000000000000000\n    /* \"#utility.yul\":6632:6633   */\n  0x00\n    /* \"#utility.yul\":6625:6713   */\n  mstore\n    /* \"#utility.yul\":6732:6736   */\n  0x41\n    /* \"#utility.yul\":6729:6730   */\n  0x04\n    /* \"#utility.yul\":6722:6737   */\n  mstore\n    /* \"#utility.yul\":6756:6760   */\n  0x24\n    /* \"#utility.yul\":6753:6754   */\n  0x00\n    /* \"#utility.yul\":6746:6761   */\n  revert\n    /* \"#utility.yul\":6773:6890   */\ntag_48:\n    /* \"#utility.yul\":6882:6883   */\n  0x00\n    /* \"#utility.yul\":6879:6880   */\n  dup1\n    /* \"#utility.yul\":6872:6884   */\n  revert\n    /* \"#utility.yul\":6896:7013   */\ntag_35:\n    /* \"#utility.yul\":7005:7006   */\n  0x00\n    /* \"#utility.yul\":7002:7003   */\n  dup1\n    /* \"#utility.yul\":6995:7007   */\n  revert\n    /* \"#utility.yul\":7019:7136   */\ntag_60:\n    /* \"#utility.yul\":7128:7129   */\n  0x00\n    /* \"#utility.yul\":7125:7126   */\n  dup1\n    /* \"#utility.yul\":7118:7130   */\n  revert\n    /* \"#utility.yul\":7142:7259   */\ntag_57:\n    /* \"#utility.yul\":7251:7252   */\n  0x00\n    /* \"#utility.yul\":7248:7249   */\n  dup1\n    /* \"#utility.yul\":7241:7253   */\n  revert\n    /* \"#utility.yul\":7265:7367   */\ntag_107:\n    /* \"#utility.yul\":7306:7312   */\n  0x00\n    /* \"#utility.yul\":7357:7359   */\n  0x1f\n    /* \"#utility.yul\":7353:7360   */\n  not\n    /* \"#utility.yul\":7348:7350   */\n  0x1f\n    /* \"#utility.yul\":7341:7346   */\n  dup4\n    /* \"#utility.yul\":7337:7351   */\n  add\n    /* \"#utility.yul\":7333:7361   */\n  and\n    /* \"#utility.yul\":7323:7361   */\n  swap1\n  pop\n    /* \"#utility.yul\":7265:7367   */\n  swap2\n  swap1\n  pop\n  jump\t// out\n    /* \"#utility.yul\":7373:7536   */\ntag_68:\n    /* \"#utility.yul\":7513:7528   */\n  0x616c7265616479206f776e657200000000000000000000000000000000000000\n    /* \"#utility.yul\":7509:7510   */\n  0x00\n    /* \"#utility.yul\":7501:7507   */\n  dup3\n    /* \"#utility.yul\":7497:7511   */\n  add\n    /* \"#utility.yul\":7490:7529   */\n  mstore\n    /* \"#utility.yul\":7373:7536   */\n  pop\n  jump\t// out\n    /* \"#utility.yul\":7542:7707   */\ntag_73:\n    /* \"#utility.yul\":7682:7699   */\n  0x696e76616c696420616464726573730000000000000000000000000000000000\n    /* \"#utility.yul\":7678:7679   */\n  0x00\n    /* \"#utility.yul\":7670:7676   */\n  dup3\n    /* \"#utility.yul\":7666:7680   */\n  add\n    /* \"#utility.yul\":7659:7700   */\n  mstore\n    /* \"#utility.yul\":7542:7707   */\n  pop\n  jump\t// out\n    /* \"#utility.yul\":7713:7872   */\ntag_78:\n    /* \"#utility.yul\":7853:7864   */\n  0x6e6f206f776e6572730000000000000000000000000000000000000000000000\n    /* \"#utility.yul\":7849:7850   */\n  0x00\n    /* \"#utility.yul\":7841:7847   */\n  dup3\n    /* \"#utility.yul\":7837:7851   */\n  add\n    /* \"#utility.yul\":7830:7865   */\n  mstore\n    /* \"#utility.yul\":7713:7872   */\n  pop\n  jump\t// out\n    /* \"#utility.yul\":7878:8000   */\ntag_43:\n    /* \"#utility.yul\":7951:7975   */\n  tag_127\n    /* \"#utility.yul\":7969:7974   */\n  dup2\n    /* \"#utility.yul\":7951:7975   */\n  tag_96\n  jump\t// in\ntag_127:\n    /* \"#utility.yul\":7944:7949   */\n  dup2\n    /* \"#utility.yul\":7941:7976   */\n  eq\n    /* \"#utility.yul\":7931:7994   */\n  tag_128\n  jumpi\n    /* \"#utility.yul\":7990:7991   */\n  0x00\n    /* \"#utility.yul\":7987:7988   */\n  dup1\n    /* \"#utility.yul\":7980:7992   */\n  revert\n    /* \"#utility.yul\":7931:7994   */\ntag_128:\n    /* \"#utility.yul\":7878:8000   */\n  pop\n  jump\t// out\n    /* \"#utility.yul\":8006:8126   */\ntag_53:\n    /* \"#utility.yul\":8078:8101   */\n  tag_130\n    /* \"#utility.yul\":8095:8100   */\n  dup2\n    /* \"#utility.yul\":8078:8101   */\n  tag_100\n  jump\t// in\ntag_130:\n    /* \"#utility.yul\":8071:8076   */\n  dup2\n    /* \"#utility.yul\":8068:8102   */\n  eq\n    /* \"#utility.yul\":8058:8120   */\n  tag_131\n  jumpi\n    /* \"#utility.yul\":8116:8117   */\n  0x00\n    /* \"#utility.yul\":8113:8114   */\n  dup1\n    /* \"#utility.yul\":8106:8118   */\n  revert\n    /* \"#utility.yul\":8058:8120   */\ntag_131:\n    /* \"#utility.yul\":8006:8126   */\n  pop\n  jump\t// out\n    /* \"MultiSigWallet.sol\":56:1090  contract MultiSigWallet{... */\ntag_25:\n  dataSize(sub_0)\n  dup1\n  dataOffset(sub_0)\n  0x00\n  codecopy\n  0x00\n  return\nstop\n\nsub_0: assembly {\n        /* \"MultiSigWallet.sol\":56:1090  contract MultiSigWallet{... */\n      mstore(0x40, 0x80)\n      jumpi(tag_1, lt(calldatasize, 0x04))\n      shr(0xe0, calldataload(0x00))\n      dup1\n      0x14de327f\n      eq\n      tag_3\n      jumpi\n      dup1\n      0xb759f954\n      eq\n      tag_4\n      jumpi\n      jump(tag_2)\n    tag_1:\n      jumpi(tag_2, calldatasize)\n      stop\n    tag_2:\n      0x00\n      dup1\n      revert\n        /* \"MultiSigWallet.sol\":824:1029  function submit(address _destination,uint _amount, bytes calldata _data) onlyOwner external{... */\n    tag_3:\n      callvalue\n      dup1\n      iszero\n      tag_7\n      jumpi\n      0x00\n      dup1\n      revert\n    tag_7:\n      pop\n      tag_8\n      0x04\n      dup1\n      calldatasize\n      sub\n      dup2\n      add\n      swap1\n      tag_9\n      swap2\n      swap1\n      tag_10\n      jump\t// in\n    tag_9:\n      tag_11\n      jump\t// in\n    tag_8:\n      stop\n        /* \"MultiSigWallet.sol\":1035:1082  function approve(uint txId)external onlyOwner{} */\n    tag_4:\n      callvalue\n      dup1\n      iszero\n      tag_12\n      jumpi\n      0x00\n      dup1\n      revert\n    tag_12:\n      pop\n      tag_13\n      0x04\n      dup1\n      calldatasize\n      sub\n      dup2\n      add\n      swap1\n      tag_14\n      swap2\n      swap1\n      tag_15\n      jump\t// in\n    tag_14:\n      tag_16\n      jump\t// in\n    tag_13:\n      stop\n        /* \"MultiSigWallet.sol\":824:1029  function submit(address _destination,uint _amount, bytes calldata _data) onlyOwner external{... */\n    tag_11:\n        /* \"MultiSigWallet.sol\":781:788  isOwner */\n      0x00\n        /* \"MultiSigWallet.sol\":781:800  isOwner[msg.sender] */\n      dup1\n        /* \"MultiSigWallet.sol\":789:799  msg.sender */\n      caller\n        /* \"MultiSigWallet.sol\":781:800  isOwner[msg.sender] */\n      0xffffffffffffffffffffffffffffffffffffffff\n      and\n      0xffffffffffffffffffffffffffffffffffffffff\n      and\n      dup2\n      mstore\n      0x20\n      add\n      swap1\n      dup2\n      mstore\n      0x20\n      add\n      0x00\n      keccak256\n      0x00\n      swap1\n      sload\n      swap1\n      0x0100\n      exp\n      swap1\n      div\n      0xff\n      and\n        /* \"MultiSigWallet.sol\":773:801  require(isOwner[msg.sender]) */\n      tag_18\n      jumpi\n      0x00\n      dup1\n      revert\n    tag_18:\n        /* \"MultiSigWallet.sol\":925:945  Transaction memory t */\n      0x00\n        /* \"MultiSigWallet.sol\":948:993  Transaction(_destination,_amount,_data,false) */\n      mload(0x40)\n      dup1\n      0x80\n      add\n      0x40\n      mstore\n      dup1\n        /* \"MultiSigWallet.sol\":960:972  _destination */\n      dup7\n        /* \"MultiSigWallet.sol\":948:993  Transaction(_destination,_amount,_data,false) */\n      0xffffffffffffffffffffffffffffffffffffffff\n      and\n      dup2\n      mstore\n      0x20\n      add\n        /* \"MultiSigWallet.sol\":973:980  _amount */\n      dup6\n        /* \"MultiSigWallet.sol\":948:993  Transaction(_destination,_amount,_data,false) */\n      dup2\n      mstore\n      0x20\n      add\n        /* \"MultiSigWallet.sol\":981:986  _data */\n      dup5\n      dup5\n        /* \"MultiSigWallet.sol\":948:993  Transaction(_destination,_amount,_data,false) */\n      dup1\n      dup1\n      0x1f\n      add\n      0x20\n      dup1\n      swap2\n      div\n      mul\n      0x20\n      add\n      mload(0x40)\n      swap1\n      dup2\n      add\n      0x40\n      mstore\n      dup1\n      swap4\n      swap3\n      swap2\n      swap1\n      dup2\n      dup2\n      mstore\n      0x20\n      add\n      dup4\n      dup4\n      dup1\n      dup3\n      dup5\n      calldatacopy\n      0x00\n      dup2\n      dup5\n      add\n      mstore\n      not(0x1f)\n      0x1f\n      dup3\n      add\n      and\n      swap1\n      pop\n      dup1\n      dup4\n      add\n      swap3\n      pop\n      pop\n      pop\n      pop\n      pop\n      pop\n      pop\n      dup2\n      mstore\n      0x20\n      add\n        /* \"MultiSigWallet.sol\":987:992  false */\n      0x00\n        /* \"MultiSigWallet.sol\":948:993  Transaction(_destination,_amount,_data,false) */\n      iszero\n      iszero\n      dup2\n      mstore\n      pop\n        /* \"MultiSigWallet.sol\":925:993  Transaction memory t = Transaction(_destination,_amount,_data,false) */\n      swap1\n      pop\n        /* \"MultiSigWallet.sol\":1003:1014  transactons */\n      0x01\n        /* \"MultiSigWallet.sol\":1020:1021  t */\n      dup2\n        /* \"MultiSigWallet.sol\":1003:1022  transactons.push(t) */\n      swap1\n      dup1\n      0x01\n      dup2\n      sload\n      add\n      dup1\n      dup3\n      sstore\n      dup1\n      swap2\n      pop\n      pop\n      0x01\n      swap1\n      sub\n      swap1\n      0x00\n      mstore\n      keccak256(0x00, 0x20)\n      swap1\n      0x04\n      mul\n      add\n      0x00\n      swap1\n      swap2\n      swap1\n      swap2\n      swap1\n      swap2\n      pop\n      0x00\n      dup3\n      add\n      mload\n      dup2\n      0x00\n      add\n      exp(0x0100, 0x00)\n      dup2\n      sload\n      dup2\n      0xffffffffffffffffffffffffffffffffffffffff\n      mul\n      not\n      and\n      swap1\n      dup4\n      0xffffffffffffffffffffffffffffffffffffffff\n      and\n      mul\n      or\n      swap1\n      sstore\n      pop\n      0x20\n      dup3\n      add\n      mload\n      dup2\n      0x01\n      add\n      sstore\n      0x40\n      dup3\n      add\n      mload\n      dup2\n      0x02\n      add\n      swap1\n      dup1\n      mload\n      swap1\n      0x20\n      add\n      swap1\n      tag_21\n      swap3\n      swap2\n      swap1\n      tag_22\n      jump\t// in\n    tag_21:\n      pop\n      0x60\n      dup3\n      add\n      mload\n      dup2\n      0x03\n      add\n      exp(0x0100, 0x00)\n      dup2\n      sload\n      dup2\n      0xff\n      mul\n      not\n      and\n      swap1\n      dup4\n      iszero\n      iszero\n      mul\n      or\n      swap1\n      sstore\n      pop\n      pop\n      pop\n        /* \"MultiSigWallet.sol\":915:1029  {... */\n      pop\n        /* \"MultiSigWallet.sol\":824:1029  function submit(address _destination,uint _amount, bytes calldata _data) onlyOwner external{... */\n      pop\n      pop\n      pop\n      pop\n      jump\t// out\n        /* \"MultiSigWallet.sol\":1035:1082  function approve(uint txId)external onlyOwner{} */\n    tag_16:\n        /* \"MultiSigWallet.sol\":781:788  isOwner */\n      0x00\n        /* \"MultiSigWallet.sol\":781:800  isOwner[msg.sender] */\n      dup1\n        /* \"MultiSigWallet.sol\":789:799  msg.sender */\n      caller\n        /* \"MultiSigWallet.sol\":781:800  isOwner[msg.sender] */\n      0xffffffffffffffffffffffffffffffffffffffff\n      and\n      0xffffffffffffffffffffffffffffffffffffffff\n      and\n      dup2\n      mstore\n      0x20\n      add\n      swap1\n      dup2\n      mstore\n      0x20\n      add\n      0x00\n      keccak256\n      0x00\n      swap1\n      sload\n      swap1\n      0x0100\n      exp\n      swap1\n      div\n      0xff\n      and\n        /* \"MultiSigWallet.sol\":773:801  require(isOwner[msg.sender]) */\n      tag_24\n      jumpi\n      0x00\n      dup1\n      revert\n    tag_24:\n        /* \"MultiSigWallet.sol\":1035:1082  function approve(uint txId)external onlyOwner{} */\n      pop\n      jump\t// out\n    tag_22:\n      dup3\n      dup1\n      sload\n      tag_26\n      swap1\n      tag_27\n      jump\t// in\n    tag_26:\n      swap1\n      0x00\n      mstore\n      keccak256(0x00, 0x20)\n      swap1\n      0x1f\n      add\n      0x20\n      swap1\n      div\n      dup2\n      add\n      swap3\n      dup3\n      tag_29\n      jumpi\n      0x00\n      dup6\n      sstore\n      jump(tag_28)\n    tag_29:\n      dup3\n      0x1f\n      lt\n      tag_30\n      jumpi\n      dup1\n      mload\n      not(0xff)\n      and\n      dup4\n      dup1\n      add\n      or\n      dup6\n      sstore\n      jump(tag_28)\n    tag_30:\n      dup3\n      dup1\n      add\n      0x01\n      add\n      dup6\n      sstore\n      dup3\n      iszero\n      tag_28\n      jumpi\n      swap2\n      dup3\n      add\n    tag_31:\n      dup3\n      dup2\n      gt\n      iszero\n      tag_32\n      jumpi\n      dup3\n      mload\n      dup3\n      sstore\n      swap2\n      0x20\n      add\n      swap2\n      swap1\n      0x01\n      add\n      swap1\n      jump(tag_31)\n    tag_32:\n    tag_28:\n      pop\n      swap1\n      pop\n      tag_33\n      swap2\n      swap1\n      tag_34\n      jump\t// in\n    tag_33:\n      pop\n      swap1\n      jump\t// out\n    tag_34:\n    tag_35:\n      dup1\n      dup3\n      gt\n      iszero\n      tag_36\n      jumpi\n      0x00\n      dup2\n      0x00\n      swap1\n      sstore\n      pop\n      0x01\n      add\n      jump(tag_35)\n    tag_36:\n      pop\n      swap1\n      jump\t// out\n        /* \"#utility.yul\":7:146   */\n    tag_38:\n        /* \"#utility.yul\":53:58   */\n      0x00\n        /* \"#utility.yul\":91:97   */\n      dup2\n        /* \"#utility.yul\":78:98   */\n      calldataload\n        /* \"#utility.yul\":69:98   */\n      swap1\n      pop\n        /* \"#utility.yul\":107:140   */\n      tag_40\n        /* \"#utility.yul\":134:139   */\n      dup2\n        /* \"#utility.yul\":107:140   */\n      tag_41\n      jump\t// in\n    tag_40:\n        /* \"#utility.yul\":7:146   */\n      swap3\n      swap2\n      pop\n      pop\n      jump\t// out\n        /* \"#utility.yul\":165:717   */\n    tag_42:\n        /* \"#utility.yul\":222:230   */\n      0x00\n        /* \"#utility.yul\":232:238   */\n      dup1\n        /* \"#utility.yul\":282:285   */\n      dup4\n        /* \"#utility.yul\":275:279   */\n      0x1f\n        /* \"#utility.yul\":267:273   */\n      dup5\n        /* \"#utility.yul\":263:280   */\n      add\n        /* \"#utility.yul\":259:286   */\n      slt\n        /* \"#utility.yul\":249:371   */\n      tag_44\n      jumpi\n        /* \"#utility.yul\":290:369   */\n      tag_45\n      tag_46\n      jump\t// in\n    tag_45:\n        /* \"#utility.yul\":249:371   */\n    tag_44:\n        /* \"#utility.yul\":403:409   */\n      dup3\n        /* \"#utility.yul\":390:410   */\n      calldataload\n        /* \"#utility.yul\":380:410   */\n      swap1\n      pop\n        /* \"#utility.yul\":433:451   */\n      0xffffffffffffffff\n        /* \"#utility.yul\":425:431   */\n      dup2\n        /* \"#utility.yul\":422:452   */\n      gt\n        /* \"#utility.yul\":419:536   */\n      iszero\n      tag_47\n      jumpi\n        /* \"#utility.yul\":455:534   */\n      tag_48\n      tag_49\n      jump\t// in\n    tag_48:\n        /* \"#utility.yul\":419:536   */\n    tag_47:\n        /* \"#utility.yul\":569:573   */\n      0x20\n        /* \"#utility.yul\":561:567   */\n      dup4\n        /* \"#utility.yul\":557:574   */\n      add\n        /* \"#utility.yul\":545:574   */\n      swap2\n      pop\n        /* \"#utility.yul\":623:626   */\n      dup4\n        /* \"#utility.yul\":615:619   */\n      0x01\n        /* \"#utility.yul\":607:613   */\n      dup3\n        /* \"#utility.yul\":603:620   */\n      mul\n        /* \"#utility.yul\":593:601   */\n      dup4\n        /* \"#utility.yul\":589:621   */\n      add\n        /* \"#utility.yul\":586:627   */\n      gt\n        /* \"#utility.yul\":583:711   */\n      iszero\n      tag_50\n      jumpi\n        /* \"#utility.yul\":630:709   */\n      tag_51\n      tag_52\n      jump\t// in\n    tag_51:\n        /* \"#utility.yul\":583:711   */\n    tag_50:\n        /* \"#utility.yul\":165:717   */\n      swap3\n      pop\n      swap3\n      swap1\n      pop\n      jump\t// out\n        /* \"#utility.yul\":723:862   */\n    tag_53:\n        /* \"#utility.yul\":769:774   */\n      0x00\n        /* \"#utility.yul\":807:813   */\n      dup2\n        /* \"#utility.yul\":794:814   */\n      calldataload\n        /* \"#utility.yul\":785:814   */\n      swap1\n      pop\n        /* \"#utility.yul\":823:856   */\n      tag_55\n        /* \"#utility.yul\":850:855   */\n      dup2\n        /* \"#utility.yul\":823:856   */\n      tag_56\n      jump\t// in\n    tag_55:\n        /* \"#utility.yul\":723:862   */\n      swap3\n      swap2\n      pop\n      pop\n      jump\t// out\n        /* \"#utility.yul\":868:1685   */\n    tag_10:\n        /* \"#utility.yul\":956:962   */\n      0x00\n        /* \"#utility.yul\":964:970   */\n      dup1\n        /* \"#utility.yul\":972:978   */\n      0x00\n        /* \"#utility.yul\":980:986   */\n      dup1\n        /* \"#utility.yul\":1029:1031   */\n      0x60\n        /* \"#utility.yul\":1017:1026   */\n      dup6\n        /* \"#utility.yul\":1008:1015   */\n      dup8\n        /* \"#utility.yul\":1004:1027   */\n      sub\n        /* \"#utility.yul\":1000:1032   */\n      slt\n        /* \"#utility.yul\":997:1116   */\n      iszero\n      tag_58\n      jumpi\n        /* \"#utility.yul\":1035:1114   */\n      tag_59\n      tag_60\n      jump\t// in\n    tag_59:\n        /* \"#utility.yul\":997:1116   */\n    tag_58:\n        /* \"#utility.yul\":1155:1156   */\n      0x00\n        /* \"#utility.yul\":1180:1233   */\n      tag_61\n        /* \"#utility.yul\":1225:1232   */\n      dup8\n        /* \"#utility.yul\":1216:1222   */\n      dup3\n        /* \"#utility.yul\":1205:1214   */\n      dup9\n        /* \"#utility.yul\":1201:1223   */\n      add\n        /* \"#utility.yul\":1180:1233   */\n      tag_38\n      jump\t// in\n    tag_61:\n        /* \"#utility.yul\":1170:1233   */\n      swap5\n      pop\n        /* \"#utility.yul\":1126:1243   */\n      pop\n        /* \"#utility.yul\":1282:1284   */\n      0x20\n        /* \"#utility.yul\":1308:1361   */\n      tag_62\n        /* \"#utility.yul\":1353:1360   */\n      dup8\n        /* \"#utility.yul\":1344:1350   */\n      dup3\n        /* \"#utility.yul\":1333:1342   */\n      dup9\n        /* \"#utility.yul\":1329:1351   */\n      add\n        /* \"#utility.yul\":1308:1361   */\n      tag_53\n      jump\t// in\n    tag_62:\n        /* \"#utility.yul\":1298:1361   */\n      swap4\n      pop\n        /* \"#utility.yul\":1253:1371   */\n      pop\n        /* \"#utility.yul\":1438:1440   */\n      0x40\n        /* \"#utility.yul\":1427:1436   */\n      dup6\n        /* \"#utility.yul\":1423:1441   */\n      add\n        /* \"#utility.yul\":1410:1442   */\n      calldataload\n        /* \"#utility.yul\":1469:1487   */\n      0xffffffffffffffff\n        /* \"#utility.yul\":1461:1467   */\n      dup2\n        /* \"#utility.yul\":1458:1488   */\n      gt\n        /* \"#utility.yul\":1455:1572   */\n      iszero\n      tag_63\n      jumpi\n        /* \"#utility.yul\":1491:1570   */\n      tag_64\n      tag_65\n      jump\t// in\n    tag_64:\n        /* \"#utility.yul\":1455:1572   */\n    tag_63:\n        /* \"#utility.yul\":1604:1668   */\n      tag_66\n        /* \"#utility.yul\":1660:1667   */\n      dup8\n        /* \"#utility.yul\":1651:1657   */\n      dup3\n        /* \"#utility.yul\":1640:1649   */\n      dup9\n        /* \"#utility.yul\":1636:1658   */\n      add\n        /* \"#utility.yul\":1604:1668   */\n      tag_42\n      jump\t// in\n    tag_66:\n        /* \"#utility.yul\":1586:1668   */\n      swap3\n      pop\n      swap3\n      pop\n        /* \"#utility.yul\":1381:1678   */\n      pop\n        /* \"#utility.yul\":868:1685   */\n      swap3\n      swap6\n      swap2\n      swap5\n      pop\n      swap3\n      pop\n      jump\t// out\n        /* \"#utility.yul\":1691:2020   */\n    tag_15:\n        /* \"#utility.yul\":1750:1756   */\n      0x00\n        /* \"#utility.yul\":1799:1801   */\n      0x20\n        /* \"#utility.yul\":1787:1796   */\n      dup3\n        /* \"#utility.yul\":1778:1785   */\n      dup5\n        /* \"#utility.yul\":1774:1797   */\n      sub\n        /* \"#utility.yul\":1770:1802   */\n      slt\n        /* \"#utility.yul\":1767:1886   */\n      iszero\n      tag_68\n      jumpi\n        /* \"#utility.yul\":1805:1884   */\n      tag_69\n      tag_60\n      jump\t// in\n    tag_69:\n        /* \"#utility.yul\":1767:1886   */\n    tag_68:\n        /* \"#utility.yul\":1925:1926   */\n      0x00\n        /* \"#utility.yul\":1950:2003   */\n      tag_70\n        /* \"#utility.yul\":1995:2002   */\n      dup5\n        /* \"#utility.yul\":1986:1992   */\n      dup3\n        /* \"#utility.yul\":1975:1984   */\n      dup6\n        /* \"#utility.yul\":1971:1993   */\n      add\n        /* \"#utility.yul\":1950:2003   */\n      tag_53\n      jump\t// in\n    tag_70:\n        /* \"#utility.yul\":1940:2003   */\n      swap2\n      pop\n        /* \"#utility.yul\":1896:2013   */\n      pop\n        /* \"#utility.yul\":1691:2020   */\n      swap3\n      swap2\n      pop\n      pop\n      jump\t// out\n        /* \"#utility.yul\":2107:2203   */\n    tag_73:\n        /* \"#utility.yul\":2144:2151   */\n      0x00\n        /* \"#utility.yul\":2173:2197   */\n      tag_75\n        /* \"#utility.yul\":2191:2196   */\n      dup3\n        /* \"#utility.yul\":2173:2197   */\n      tag_76\n      jump\t// in\n    tag_75:\n        /* \"#utility.yul\":2162:2197   */\n      swap1\n      pop\n        /* \"#utility.yul\":2107:2203   */\n      swap2\n      swap1\n      pop\n      jump\t// out\n        /* \"#utility.yul\":2209:2335   */\n    tag_76:\n        /* \"#utility.yul\":2246:2253   */\n      0x00\n        /* \"#utility.yul\":2286:2328   */\n      0xffffffffffffffffffffffffffffffffffffffff\n        /* \"#utility.yul\":2279:2284   */\n      dup3\n        /* \"#utility.yul\":2275:2329   */\n      and\n        /* \"#utility.yul\":2264:2329   */\n      swap1\n      pop\n        /* \"#utility.yul\":2209:2335   */\n      swap2\n      swap1\n      pop\n      jump\t// out\n        /* \"#utility.yul\":2341:2418   */\n    tag_78:\n        /* \"#utility.yul\":2378:2385   */\n      0x00\n        /* \"#utility.yul\":2407:2412   */\n      dup2\n        /* \"#utility.yul\":2396:2412   */\n      swap1\n      pop\n        /* \"#utility.yul\":2341:2418   */\n      swap2\n      swap1\n      pop\n      jump\t// out\n        /* \"#utility.yul\":2424:2744   */\n    tag_27:\n        /* \"#utility.yul\":2468:2474   */\n      0x00\n        /* \"#utility.yul\":2505:2506   */\n      0x02\n        /* \"#utility.yul\":2499:2503   */\n      dup3\n        /* \"#utility.yul\":2495:2507   */\n      div\n        /* \"#utility.yul\":2485:2507   */\n      swap1\n      pop\n        /* \"#utility.yul\":2552:2553   */\n      0x01\n        /* \"#utility.yul\":2546:2550   */\n      dup3\n        /* \"#utility.yul\":2542:2554   */\n      and\n        /* \"#utility.yul\":2573:2591   */\n      dup1\n        /* \"#utility.yul\":2563:2644   */\n      tag_81\n      jumpi\n        /* \"#utility.yul\":2629:2633   */\n      0x7f\n        /* \"#utility.yul\":2621:2627   */\n      dup3\n        /* \"#utility.yul\":2617:2634   */\n      and\n        /* \"#utility.yul\":2607:2634   */\n      swap2\n      pop\n        /* \"#utility.yul\":2563:2644   */\n    tag_81:\n        /* \"#utility.yul\":2691:2693   */\n      0x20\n        /* \"#utility.yul\":2683:2689   */\n      dup3\n        /* \"#utility.yul\":2680:2694   */\n      lt\n        /* \"#utility.yul\":2660:2678   */\n      dup2\n        /* \"#utility.yul\":2657:2695   */\n      eq\n        /* \"#utility.yul\":2654:2738   */\n      iszero\n      tag_82\n      jumpi\n        /* \"#utility.yul\":2710:2728   */\n      tag_83\n      tag_84\n      jump\t// in\n    tag_83:\n        /* \"#utility.yul\":2654:2738   */\n    tag_82:\n        /* \"#utility.yul\":2475:2744   */\n      pop\n        /* \"#utility.yul\":2424:2744   */\n      swap2\n      swap1\n      pop\n      jump\t// out\n        /* \"#utility.yul\":2750:2930   */\n    tag_84:\n        /* \"#utility.yul\":2798:2875   */\n      0x4e487b7100000000000000000000000000000000000000000000000000000000\n        /* \"#utility.yul\":2795:2796   */\n      0x00\n        /* \"#utility.yul\":2788:2876   */\n      mstore\n        /* \"#utility.yul\":2895:2899   */\n      0x22\n        /* \"#utility.yul\":2892:2893   */\n      0x04\n        /* \"#utility.yul\":2885:2900   */\n      mstore\n        /* \"#utility.yul\":2919:2923   */\n      0x24\n        /* \"#utility.yul\":2916:2917   */\n      0x00\n        /* \"#utility.yul\":2909:2924   */\n      revert\n        /* \"#utility.yul\":2936:3053   */\n    tag_49:\n        /* \"#utility.yul\":3045:3046   */\n      0x00\n        /* \"#utility.yul\":3042:3043   */\n      dup1\n        /* \"#utility.yul\":3035:3047   */\n      revert\n        /* \"#utility.yul\":3059:3176   */\n    tag_46:\n        /* \"#utility.yul\":3168:3169   */\n      0x00\n        /* \"#utility.yul\":3165:3166   */\n      dup1\n        /* \"#utility.yul\":3158:3170   */\n      revert\n        /* \"#utility.yul\":3182:3299   */\n    tag_52:\n        /* \"#utility.yul\":3291:3292   */\n      0x00\n        /* \"#utility.yul\":3288:3289   */\n      dup1\n        /* \"#utility.yul\":3281:3293   */\n      revert\n        /* \"#utility.yul\":3305:3422   */\n    tag_65:\n        /* \"#utility.yul\":3414:3415   */\n      0x00\n        /* \"#utility.yul\":3411:3412   */\n      dup1\n        /* \"#utility.yul\":3404:3416   */\n      revert\n        /* \"#utility.yul\":3428:3545   */\n    tag_60:\n        /* \"#utility.yul\":3537:3538   */\n      0x00\n        /* \"#utility.yul\":3534:3535   */\n      dup1\n        /* \"#utility.yul\":3527:3539   */\n      revert\n        /* \"#utility.yul\":3551:3673   */\n    tag_41:\n        /* \"#utility.yul\":3624:3648   */\n      tag_92\n        /* \"#utility.yul\":3642:3647   */\n      dup2\n        /* \"#utility.yul\":3624:3648   */\n      tag_73\n      jump\t// in\n    tag_92:\n        /* \"#utility.yul\":3617:3622   */\n      dup2\n        /* \"#utility.yul\":3614:3649   */\n      eq\n        /* \"#utility.yul\":3604:3667   */\n      tag_93\n      jumpi\n        /* \"#utility.yul\":3663:3664   */\n      0x00\n        /* \"#utility.yul\":3660:3661   */\n      dup1\n        /* \"#utility.yul\":3653:3665   */\n      revert\n        /* \"#utility.yul\":3604:3667   */\n    tag_93:\n        /* \"#utility.yul\":3551:3673   */\n      pop\n      jump\t// out\n        /* \"#utility.yul\":3679:3801   */\n    tag_56:\n        /* \"#utility.yul\":3752:3776   */\n      tag_95\n        /* \"#utility.yul\":3770:3775   */\n      dup2\n        /* \"#utility.yul\":3752:3776   */\n      tag_78\n      jump\t// in\n    tag_95:\n        /* \"#utility.yul\":3745:3750   */\n      dup2\n        /* \"#utility.yul\":3742:3777   */\n      eq\n        /* \"#utility.yul\":3732:3795   */\n      tag_96\n      jumpi\n        /* \"#utility.yul\":3791:3792   */\n      0x00\n        /* \"#utility.yul\":3788:3789   */\n      dup1\n        /* \"#utility.yul\":3781:3793   */\n      revert\n        /* \"#utility.yul\":3732:3795   */\n    tag_96:\n        /* \"#utility.yul\":3679:3801   */\n      pop\n      jump\t// out\n\n    auxdata: 0xa264697066735822122029fdbb588d73d7d43be3e3f34775a56eba3ac5e540014ed2247bb29fb7f2dab564736f6c63430008070033\n}\n",
				"bytecode": {
					"linkReferences": {},
					"object": "60806040523480156200001157600080fd5b5060405162000c6138038062000c6183398181016040528101906200003791906200031f565b60008251116200007e576040517f08c379a000000000000000000000000000000000000000000000000000000000815260040162000075906200043e565b60405180910390fd5b60005b82518110156200023a576000838281518110620000a357620000a2620005c4565b5b60200260200101519050600073ffffffffffffffffffffffffffffffffffffffff16848381518110620000db57620000da620005c4565b5b602002602001015173ffffffffffffffffffffffffffffffffffffffff1614156200013d576040517f08c379a000000000000000000000000000000000000000000000000000000000815260040162000134906200041c565b60405180910390fd5b6000808273ffffffffffffffffffffffffffffffffffffffff1673ffffffffffffffffffffffffffffffffffffffff16815260200190815260200160002060009054906101000a900460ff1615620001cc576040517f08c379a0000000000000000000000000000000000000000000000000000000008152600401620001c390620003fa565b60405180910390fd5b60016000808373ffffffffffffffffffffffffffffffffffffffff1673ffffffffffffffffffffffffffffffffffffffff16815260200190815260200160002060006101000a81548160ff021916908315150217905550508080620002319062000547565b91505062000081565b505050620006f6565b60006200025a620002548462000489565b62000460565b9050808382526020820190508285602086028201111562000280576200027f62000627565b5b60005b85811015620002b45781620002998882620002be565b84526020840193506020830192505060018101905062000283565b5050509392505050565b600081519050620002cf81620006c2565b92915050565b600082601f830112620002ed57620002ec62000622565b5b8151620002ff84826020860162000243565b91505092915050565b6000815190506200031981620006dc565b92915050565b6000806040838503121562000339576200033862000631565b5b600083015167ffffffffffffffff8111156200035a57620003596200062c565b5b6200036885828601620002d5565b92505060206200037b8582860162000308565b9150509250929050565b600062000394600d83620004b8565b9150620003a18262000647565b602082019050919050565b6000620003bb600f83620004b8565b9150620003c88262000670565b602082019050919050565b6000620003e2600983620004b8565b9150620003ef8262000699565b602082019050919050565b60006020820190508181036000830152620004158162000385565b9050919050565b600060208201905081810360008301526200043781620003ac565b9050919050565b600060208201905081810360008301526200045981620003d3565b9050919050565b60006200046c6200047f565b90506200047a828262000511565b919050565b6000604051905090565b600067ffffffffffffffff821115620004a757620004a6620005f3565b5b602082029050602081019050919050565b600082825260208201905092915050565b6000620004d682620004e7565b9050919050565b6000819050919050565b600073ffffffffffffffffffffffffffffffffffffffff82169050919050565b6000819050919050565b6200051c8262000636565b810181811067ffffffffffffffff821117156200053e576200053d620005f3565b5b80604052505050565b6000620005548262000507565b91507fffffffffffffffffffffffffffffffffffffffffffffffffffffffffffffffff8214156200058a576200058962000595565b5b600182019050919050565b7f4e487b7100000000000000000000000000000000000000000000000000000000600052601160045260246000fd5b7f4e487b7100000000000000000000000000000000000000000000000000000000600052603260045260246000fd5b7f4e487b7100000000000000000000000000000000000000000000000000000000600052604160045260246000fd5b600080fd5b600080fd5b600080fd5b600080fd5b6000601f19601f8301169050919050565b7f616c7265616479206f776e657200000000000000000000000000000000000000600082015250565b7f696e76616c696420616464726573730000000000000000000000000000000000600082015250565b7f6e6f206f776e6572730000000000000000000000000000000000000000000000600082015250565b620006cd81620004c9565b8114620006d957600080fd5b50565b620006e781620004dd565b8114620006f357600080fd5b50565b61055b80620007066000396000f3fe60806040526004361061002d5760003560e01c806314de327f14610039578063b759f9541461006257610034565b3661003457005b600080fd5b34801561004557600080fd5b50610060600480360381019061005b91906103a0565b61008b565b005b34801561006e57600080fd5b5061008960048036038101906100849190610414565b610225565b005b6000803373ffffffffffffffffffffffffffffffffffffffff1673ffffffffffffffffffffffffffffffffffffffff16815260200190815260200160002060009054906101000a900460ff166100e057600080fd5b600060405180608001604052808673ffffffffffffffffffffffffffffffffffffffff16815260200185815260200184848080601f016020809104026020016040519081016040528093929190818152602001838380828437600081840152601f19601f820116905080830192505050505050508152602001600015158152509050600181908060018154018082558091505060019003906000526020600020906004020160009091909190915060008201518160000160006101000a81548173ffffffffffffffffffffffffffffffffffffffff021916908373ffffffffffffffffffffffffffffffffffffffff1602179055506020820151816001015560408201518160020190805190602001906101fb92919061027d565b5060608201518160030160006101000a81548160ff02191690831515021790555050505050505050565b6000803373ffffffffffffffffffffffffffffffffffffffff1673ffffffffffffffffffffffffffffffffffffffff16815260200190815260200160002060009054906101000a900460ff1661027a57600080fd5b50565b8280546102899061047d565b90600052602060002090601f0160209004810192826102ab57600085556102f2565b82601f106102c457805160ff19168380011785556102f2565b828001600101855582156102f2579182015b828111156102f15782518255916020019190600101906102d6565b5b5090506102ff9190610303565b5090565b5b8082111561031c576000816000905550600101610304565b5090565b60008135905061032f816104f7565b92915050565b60008083601f84011261034b5761034a6104e3565b5b8235905067ffffffffffffffff811115610368576103676104de565b5b602083019150836001820283011115610384576103836104e8565b5b9250929050565b60008135905061039a8161050e565b92915050565b600080600080606085870312156103ba576103b96104f2565b5b60006103c887828801610320565b94505060206103d98782880161038b565b935050604085013567ffffffffffffffff8111156103fa576103f96104ed565b5b61040687828801610335565b925092505092959194509250565b60006020828403121561042a576104296104f2565b5b60006104388482850161038b565b91505092915050565b600061044c82610453565b9050919050565b600073ffffffffffffffffffffffffffffffffffffffff82169050919050565b6000819050919050565b6000600282049050600182168061049557607f821691505b602082108114156104a9576104a86104af565b5b50919050565b7f4e487b7100000000000000000000000000000000000000000000000000000000600052602260045260246000fd5b600080fd5b600080fd5b600080fd5b600080fd5b600080fd5b61050081610441565b811461050b57600080fd5b50565b61051781610473565b811461052257600080fd5b5056fea264697066735822122029fdbb588d73d7d43be3e3f34775a56eba3ac5e540014ed2247bb29fb7f2dab564736f6c63430008070033",
					"opcodes": "PUSH1 0x80 PUSH1 0x40 MSTORE CALLVALUE DUP1 ISZERO PUSH3 0x11 JUMPI PUSH1 0x0 DUP1 REVERT JUMPDEST POP PUSH1 0x40 MLOAD PUSH3 0xC61 CODESIZE SUB DUP1 PUSH3 0xC61 DUP4 CODECOPY DUP2 DUP2 ADD PUSH1 0x40 MSTORE DUP2 ADD SWAP1 PUSH3 0x37 SWAP2 SWAP1 PUSH3 0x31F JUMP JUMPDEST PUSH1 0x0 DUP3 MLOAD GT PUSH3 0x7E JUMPI PUSH1 0x40 MLOAD PUSH32 0x8C379A000000000000000000000000000000000000000000000000000000000 DUP2 MSTORE PUSH1 0x4 ADD PUSH3 0x75 SWAP1 PUSH3 0x43E JUMP JUMPDEST PUSH1 0x40 MLOAD DUP1 SWAP2 SUB SWAP1 REVERT JUMPDEST PUSH1 0x0 JUMPDEST DUP3 MLOAD DUP2 LT ISZERO PUSH3 0x23A JUMPI PUSH1 0x0 DUP4 DUP3 DUP2 MLOAD DUP2 LT PUSH3 0xA3 JUMPI PUSH3 0xA2 PUSH3 0x5C4 JUMP JUMPDEST JUMPDEST PUSH1 0x20 MUL PUSH1 0x20 ADD ADD MLOAD SWAP1 POP PUSH1 0x0 PUSH20 0xFFFFFFFFFFFFFFFFFFFFFFFFFFFFFFFFFFFFFFFF AND DUP5 DUP4 DUP2 MLOAD DUP2 LT PUSH3 0xDB JUMPI PUSH3 0xDA PUSH3 0x5C4 JUMP JUMPDEST JUMPDEST PUSH1 0x20 MUL PUSH1 0x20 ADD ADD MLOAD PUSH20 0xFFFFFFFFFFFFFFFFFFFFFFFFFFFFFFFFFFFFFFFF AND EQ ISZERO PUSH3 0x13D JUMPI PUSH1 0x40 MLOAD PUSH32 0x8C379A000000000000000000000000000000000000000000000000000000000 DUP2 MSTORE PUSH1 0x4 ADD PUSH3 0x134 SWAP1 PUSH3 0x41C JUMP JUMPDEST PUSH1 0x40 MLOAD DUP1 SWAP2 SUB SWAP1 REVERT JUMPDEST PUSH1 0x0 DUP1 DUP3 PUSH20 0xFFFFFFFFFFFFFFFFFFFFFFFFFFFFFFFFFFFFFFFF AND PUSH20 0xFFFFFFFFFFFFFFFFFFFFFFFFFFFFFFFFFFFFFFFF AND DUP2 MSTORE PUSH1 0x20 ADD SWAP1 DUP2 MSTORE PUSH1 0x20 ADD PUSH1 0x0 KECCAK256 PUSH1 0x0 SWAP1 SLOAD SWAP1 PUSH2 0x100 EXP SWAP1 DIV PUSH1 0xFF AND ISZERO PUSH3 0x1CC JUMPI PUSH1 0x40 MLOAD PUSH32 0x8C379A000000000000000000000000000000000000000000000000000000000 DUP2 MSTORE PUSH1 0x4 ADD PUSH3 0x1C3 SWAP1 PUSH3 0x3FA JUMP JUMPDEST PUSH1 0x40 MLOAD DUP1 SWAP2 SUB SWAP1 REVERT JUMPDEST PUSH1 0x1 PUSH1 0x0 DUP1 DUP4 PUSH20 0xFFFFFFFFFFFFFFFFFFFFFFFFFFFFFFFFFFFFFFFF AND PUSH20 0xFFFFFFFFFFFFFFFFFFFFFFFFFFFFFFFFFFFFFFFF AND DUP2 MSTORE PUSH1 0x20 ADD SWAP1 DUP2 MSTORE PUSH1 0x20 ADD PUSH1 0x0 KECCAK256 PUSH1 0x0 PUSH2 0x100 EXP DUP2 SLOAD DUP2 PUSH1 0xFF MUL NOT AND SWAP1 DUP4 ISZERO ISZERO MUL OR SWAP1 SSTORE POP POP DUP1 DUP1 PUSH3 0x231 SWAP1 PUSH3 0x547 JUMP JUMPDEST SWAP2 POP POP PUSH3 0x81 JUMP JUMPDEST POP POP POP PUSH3 0x6F6 JUMP JUMPDEST PUSH1 0x0 PUSH3 0x25A PUSH3 0x254 DUP5 PUSH3 0x489 JUMP JUMPDEST PUSH3 0x460 JUMP JUMPDEST SWAP1 POP DUP1 DUP4 DUP3 MSTORE PUSH1 0x20 DUP3 ADD SWAP1 POP DUP3 DUP6 PUSH1 0x20 DUP7 MUL DUP3 ADD GT ISZERO PUSH3 0x280 JUMPI PUSH3 0x27F PUSH3 0x627 JUMP JUMPDEST JUMPDEST PUSH1 0x0 JUMPDEST DUP6 DUP2 LT ISZERO PUSH3 0x2B4 JUMPI DUP2 PUSH3 0x299 DUP9 DUP3 PUSH3 0x2BE JUMP JUMPDEST DUP5 MSTORE PUSH1 0x20 DUP5 ADD SWAP4 POP PUSH1 0x20 DUP4 ADD SWAP3 POP POP PUSH1 0x1 DUP2 ADD SWAP1 POP PUSH3 0x283 JUMP JUMPDEST POP POP POP SWAP4 SWAP3 POP POP POP JUMP JUMPDEST PUSH1 0x0 DUP2 MLOAD SWAP1 POP PUSH3 0x2CF DUP2 PUSH3 0x6C2 JUMP JUMPDEST SWAP3 SWAP2 POP POP JUMP JUMPDEST PUSH1 0x0 DUP3 PUSH1 0x1F DUP4 ADD SLT PUSH3 0x2ED JUMPI PUSH3 0x2EC PUSH3 0x622 JUMP JUMPDEST JUMPDEST DUP2 MLOAD PUSH3 0x2FF DUP5 DUP3 PUSH1 0x20 DUP7 ADD PUSH3 0x243 JUMP JUMPDEST SWAP2 POP POP SWAP3 SWAP2 POP POP JUMP JUMPDEST PUSH1 0x0 DUP2 MLOAD SWAP1 POP PUSH3 0x319 DUP2 PUSH3 0x6DC JUMP JUMPDEST SWAP3 SWAP2 POP POP JUMP JUMPDEST PUSH1 0x0 DUP1 PUSH1 0x40 DUP4 DUP6 SUB SLT ISZERO PUSH3 0x339 JUMPI PUSH3 0x338 PUSH3 0x631 JUMP JUMPDEST JUMPDEST PUSH1 0x0 DUP4 ADD MLOAD PUSH8 0xFFFFFFFFFFFFFFFF DUP2 GT ISZERO PUSH3 0x35A JUMPI PUSH3 0x359 PUSH3 0x62C JUMP JUMPDEST JUMPDEST PUSH3 0x368 DUP6 DUP3 DUP7 ADD PUSH3 0x2D5 JUMP JUMPDEST SWAP3 POP POP PUSH1 0x20 PUSH3 0x37B DUP6 DUP3 DUP7 ADD PUSH3 0x308 JUMP JUMPDEST SWAP2 POP POP SWAP3 POP SWAP3 SWAP1 POP JUMP JUMPDEST PUSH1 0x0 PUSH3 0x394 PUSH1 0xD DUP4 PUSH3 0x4B8 JUMP JUMPDEST SWAP2 POP PUSH3 0x3A1 DUP3 PUSH3 0x647 JUMP JUMPDEST PUSH1 0x20 DUP3 ADD SWAP1 POP SWAP2 SWAP1 POP JUMP JUMPDEST PUSH1 0x0 PUSH3 0x3BB PUSH1 0xF DUP4 PUSH3 0x4B8 JUMP JUMPDEST SWAP2 POP PUSH3 0x3C8 DUP3 PUSH3 0x670 JUMP JUMPDEST PUSH1 0x20 DUP3 ADD SWAP1 POP SWAP2 SWAP1 POP JUMP JUMPDEST PUSH1 0x0 PUSH3 0x3E2 PUSH1 0x9 DUP4 PUSH3 0x4B8 JUMP JUMPDEST SWAP2 POP PUSH3 0x3EF DUP3 PUSH3 0x699 JUMP JUMPDEST PUSH1 0x20 DUP3 ADD SWAP1 POP SWAP2 SWAP1 POP JUMP JUMPDEST PUSH1 0x0 PUSH1 0x20 DUP3 ADD SWAP1 POP DUP2 DUP2 SUB PUSH1 0x0 DUP4 ADD MSTORE PUSH3 0x415 DUP2 PUSH3 0x385 JUMP JUMPDEST SWAP1 POP SWAP2 SWAP1 POP JUMP JUMPDEST PUSH1 0x0 PUSH1 0x20 DUP3 ADD SWAP1 POP DUP2 DUP2 SUB PUSH1 0x0 DUP4 ADD MSTORE PUSH3 0x437 DUP2 PUSH3 0x3AC JUMP JUMPDEST SWAP1 POP SWAP2 SWAP1 POP JUMP JUMPDEST PUSH1 0x0 PUSH1 0x20 DUP3 ADD SWAP1 POP DUP2 DUP2 SUB PUSH1 0x0 DUP4 ADD MSTORE PUSH3 0x459 DUP2 PUSH3 0x3D3 JUMP JUMPDEST SWAP1 POP SWAP2 SWAP1 POP JUMP JUMPDEST PUSH1 0x0 PUSH3 0x46C PUSH3 0x47F JUMP JUMPDEST SWAP1 POP PUSH3 0x47A DUP3 DUP3 PUSH3 0x511 JUMP JUMPDEST SWAP2 SWAP1 POP JUMP JUMPDEST PUSH1 0x0 PUSH1 0x40 MLOAD SWAP1 POP SWAP1 JUMP JUMPDEST PUSH1 0x0 PUSH8 0xFFFFFFFFFFFFFFFF DUP3 GT ISZERO PUSH3 0x4A7 JUMPI PUSH3 0x4A6 PUSH3 0x5F3 JUMP JUMPDEST JUMPDEST PUSH1 0x20 DUP3 MUL SWAP1 POP PUSH1 0x20 DUP2 ADD SWAP1 POP SWAP2 SWAP1 POP JUMP JUMPDEST PUSH1 0x0 DUP3 DUP3 MSTORE PUSH1 0x20 DUP3 ADD SWAP1 POP SWAP3 SWAP2 POP POP JUMP JUMPDEST PUSH1 0x0 PUSH3 0x4D6 DUP3 PUSH3 0x4E7 JUMP JUMPDEST SWAP1 POP SWAP2 SWAP1 POP JUMP JUMPDEST PUSH1 0x0 DUP2 SWAP1 POP SWAP2 SWAP1 POP JUMP JUMPDEST PUSH1 0x0 PUSH20 0xFFFFFFFFFFFFFFFFFFFFFFFFFFFFFFFFFFFFFFFF DUP3 AND SWAP1 POP SWAP2 SWAP1 POP JUMP JUMPDEST PUSH1 0x0 DUP2 SWAP1 POP SWAP2 SWAP1 POP JUMP JUMPDEST PUSH3 0x51C DUP3 PUSH3 0x636 JUMP JUMPDEST DUP2 ADD DUP2 DUP2 LT PUSH8 0xFFFFFFFFFFFFFFFF DUP3 GT OR ISZERO PUSH3 0x53E JUMPI PUSH3 0x53D PUSH3 0x5F3 JUMP JUMPDEST JUMPDEST DUP1 PUSH1 0x40 MSTORE POP POP POP JUMP JUMPDEST PUSH1 0x0 PUSH3 0x554 DUP3 PUSH3 0x507 JUMP JUMPDEST SWAP2 POP PUSH32 0xFFFFFFFFFFFFFFFFFFFFFFFFFFFFFFFFFFFFFFFFFFFFFFFFFFFFFFFFFFFFFFFF DUP3 EQ ISZERO PUSH3 0x58A JUMPI PUSH3 0x589 PUSH3 0x595 JUMP JUMPDEST JUMPDEST PUSH1 0x1 DUP3 ADD SWAP1 POP SWAP2 SWAP1 POP JUMP JUMPDEST PUSH32 0x4E487B7100000000000000000000000000000000000000000000000000000000 PUSH1 0x0 MSTORE PUSH1 0x11 PUSH1 0x4 MSTORE PUSH1 0x24 PUSH1 0x0 REVERT JUMPDEST PUSH32 0x4E487B7100000000000000000000000000000000000000000000000000000000 PUSH1 0x0 MSTORE PUSH1 0x32 PUSH1 0x4 MSTORE PUSH1 0x24 PUSH1 0x0 REVERT JUMPDEST PUSH32 0x4E487B7100000000000000000000000000000000000000000000000000000000 PUSH1 0x0 MSTORE PUSH1 0x41 PUSH1 0x4 MSTORE PUSH1 0x24 PUSH1 0x0 REVERT JUMPDEST PUSH1 0x0 DUP1 REVERT JUMPDEST PUSH1 0x0 DUP1 REVERT JUMPDEST PUSH1 0x0 DUP1 REVERT JUMPDEST PUSH1 0x0 DUP1 REVERT JUMPDEST PUSH1 0x0 PUSH1 0x1F NOT PUSH1 0x1F DUP4 ADD AND SWAP1 POP SWAP2 SWAP1 POP JUMP JUMPDEST PUSH32 0x616C7265616479206F776E657200000000000000000000000000000000000000 PUSH1 0x0 DUP3 ADD MSTORE POP JUMP JUMPDEST PUSH32 0x696E76616C696420616464726573730000000000000000000000000000000000 PUSH1 0x0 DUP3 ADD MSTORE POP JUMP JUMPDEST PUSH32 0x6E6F206F776E6572730000000000000000000000000000000000000000000000 PUSH1 0x0 DUP3 ADD MSTORE POP JUMP JUMPDEST PUSH3 0x6CD DUP2 PUSH3 0x4C9 JUMP JUMPDEST DUP2 EQ PUSH3 0x6D9 JUMPI PUSH1 0x0 DUP1 REVERT JUMPDEST POP JUMP JUMPDEST PUSH3 0x6E7 DUP2 PUSH3 0x4DD JUMP JUMPDEST DUP2 EQ PUSH3 0x6F3 JUMPI PUSH1 0x0 DUP1 REVERT JUMPDEST POP JUMP JUMPDEST PUSH2 0x55B DUP1 PUSH3 0x706 PUSH1 0x0 CODECOPY PUSH1 0x0 RETURN INVALID PUSH1 0x80 PUSH1 0x40 MSTORE PUSH1 0x4 CALLDATASIZE LT PUSH2 0x2D JUMPI PUSH1 0x0 CALLDATALOAD PUSH1 0xE0 SHR DUP1 PUSH4 0x14DE327F EQ PUSH2 0x39 JUMPI DUP1 PUSH4 0xB759F954 EQ PUSH2 0x62 JUMPI PUSH2 0x34 JUMP JUMPDEST CALLDATASIZE PUSH2 0x34 JUMPI STOP JUMPDEST PUSH1 0x0 DUP1 REVERT JUMPDEST CALLVALUE DUP1 ISZERO PUSH2 0x45 JUMPI PUSH1 0x0 DUP1 REVERT JUMPDEST POP PUSH2 0x60 PUSH1 0x4 DUP1 CALLDATASIZE SUB DUP2 ADD SWAP1 PUSH2 0x5B SWAP2 SWAP1 PUSH2 0x3A0 JUMP JUMPDEST PUSH2 0x8B JUMP JUMPDEST STOP JUMPDEST CALLVALUE DUP1 ISZERO PUSH2 0x6E JUMPI PUSH1 0x0 DUP1 REVERT JUMPDEST POP PUSH2 0x89 PUSH1 0x4 DUP1 CALLDATASIZE SUB DUP2 ADD SWAP1 PUSH2 0x84 SWAP2 SWAP1 PUSH2 0x414 JUMP JUMPDEST PUSH2 0x225 JUMP JUMPDEST STOP JUMPDEST PUSH1 0x0 DUP1 CALLER PUSH20 0xFFFFFFFFFFFFFFFFFFFFFFFFFFFFFFFFFFFFFFFF AND PUSH20 0xFFFFFFFFFFFFFFFFFFFFFFFFFFFFFFFFFFFFFFFF AND DUP2 MSTORE PUSH1 0x20 ADD SWAP1 DUP2 MSTORE PUSH1 0x20 ADD PUSH1 0x0 KECCAK256 PUSH1 0x0 SWAP1 SLOAD SWAP1 PUSH2 0x100 EXP SWAP1 DIV PUSH1 0xFF AND PUSH2 0xE0 JUMPI PUSH1 0x0 DUP1 REVERT JUMPDEST PUSH1 0x0 PUSH1 0x40 MLOAD DUP1 PUSH1 0x80 ADD PUSH1 0x40 MSTORE DUP1 DUP7 PUSH20 0xFFFFFFFFFFFFFFFFFFFFFFFFFFFFFFFFFFFFFFFF AND DUP2 MSTORE PUSH1 0x20 ADD DUP6 DUP2 MSTORE PUSH1 0x20 ADD DUP5 DUP5 DUP1 DUP1 PUSH1 0x1F ADD PUSH1 0x20 DUP1 SWAP2 DIV MUL PUSH1 0x20 ADD PUSH1 0x40 MLOAD SWAP1 DUP2 ADD PUSH1 0x40 MSTORE DUP1 SWAP4 SWAP3 SWAP2 SWAP1 DUP2 DUP2 MSTORE PUSH1 0x20 ADD DUP4 DUP4 DUP1 DUP3 DUP5 CALLDATACOPY PUSH1 0x0 DUP2 DUP5 ADD MSTORE PUSH1 0x1F NOT PUSH1 0x1F DUP3 ADD AND SWAP1 POP DUP1 DUP4 ADD SWAP3 POP POP POP POP POP POP POP DUP2 MSTORE PUSH1 0x20 ADD PUSH1 0x0 ISZERO ISZERO DUP2 MSTORE POP SWAP1 POP PUSH1 0x1 DUP2 SWAP1 DUP1 PUSH1 0x1 DUP2 SLOAD ADD DUP1 DUP3 SSTORE DUP1 SWAP2 POP POP PUSH1 0x1 SWAP1 SUB SWAP1 PUSH1 0x0 MSTORE PUSH1 0x20 PUSH1 0x0 KECCAK256 SWAP1 PUSH1 0x4 MUL ADD PUSH1 0x0 SWAP1 SWAP2 SWAP1 SWAP2 SWAP1 SWAP2 POP PUSH1 0x0 DUP3 ADD MLOAD DUP2 PUSH1 0x0 ADD PUSH1 0x0 PUSH2 0x100 EXP DUP2 SLOAD DUP2 PUSH20 0xFFFFFFFFFFFFFFFFFFFFFFFFFFFFFFFFFFFFFFFF MUL NOT AND SWAP1 DUP4 PUSH20 0xFFFFFFFFFFFFFFFFFFFFFFFFFFFFFFFFFFFFFFFF AND MUL OR SWAP1 SSTORE POP PUSH1 0x20 DUP3 ADD MLOAD DUP2 PUSH1 0x1 ADD SSTORE PUSH1 0x40 DUP3 ADD MLOAD DUP2 PUSH1 0x2 ADD SWAP1 DUP1 MLOAD SWAP1 PUSH1 0x20 ADD SWAP1 PUSH2 0x1FB SWAP3 SWAP2 SWAP1 PUSH2 0x27D JUMP JUMPDEST POP PUSH1 0x60 DUP3 ADD MLOAD DUP2 PUSH1 0x3 ADD PUSH1 0x0 PUSH2 0x100 EXP DUP2 SLOAD DUP2 PUSH1 0xFF MUL NOT AND SWAP1 DUP4 ISZERO ISZERO MUL OR SWAP1 SSTORE POP POP POP POP POP POP POP POP JUMP JUMPDEST PUSH1 0x0 DUP1 CALLER PUSH20 0xFFFFFFFFFFFFFFFFFFFFFFFFFFFFFFFFFFFFFFFF AND PUSH20 0xFFFFFFFFFFFFFFFFFFFFFFFFFFFFFFFFFFFFFFFF AND DUP2 MSTORE PUSH1 0x20 ADD SWAP1 DUP2 MSTORE PUSH1 0x20 ADD PUSH1 0x0 KECCAK256 PUSH1 0x0 SWAP1 SLOAD SWAP1 PUSH2 0x100 EXP SWAP1 DIV PUSH1 0xFF AND PUSH2 0x27A JUMPI PUSH1 0x0 DUP1 REVERT JUMPDEST POP JUMP JUMPDEST DUP3 DUP1 SLOAD PUSH2 0x289 SWAP1 PUSH2 0x47D JUMP JUMPDEST SWAP1 PUSH1 0x0 MSTORE PUSH1 0x20 PUSH1 0x0 KECCAK256 SWAP1 PUSH1 0x1F ADD PUSH1 0x20 SWAP1 DIV DUP2 ADD SWAP3 DUP3 PUSH2 0x2AB JUMPI PUSH1 0x0 DUP6 SSTORE PUSH2 0x2F2 JUMP JUMPDEST DUP3 PUSH1 0x1F LT PUSH2 0x2C4 JUMPI DUP1 MLOAD PUSH1 0xFF NOT AND DUP4 DUP1 ADD OR DUP6 SSTORE PUSH2 0x2F2 JUMP JUMPDEST DUP3 DUP1 ADD PUSH1 0x1 ADD DUP6 SSTORE DUP3 ISZERO PUSH2 0x2F2 JUMPI SWAP2 DUP3 ADD JUMPDEST DUP3 DUP2 GT ISZERO PUSH2 0x2F1 JUMPI DUP3 MLOAD DUP3 SSTORE SWAP2 PUSH1 0x20 ADD SWAP2 SWAP1 PUSH1 0x1 ADD SWAP1 PUSH2 0x2D6 JUMP JUMPDEST JUMPDEST POP SWAP1 POP PUSH2 0x2FF SWAP2 SWAP1 PUSH2 0x303 JUMP JUMPDEST POP SWAP1 JUMP JUMPDEST JUMPDEST DUP1 DUP3 GT ISZERO PUSH2 0x31C JUMPI PUSH1 0x0 DUP2 PUSH1 0x0 SWAP1 SSTORE POP PUSH1 0x1 ADD PUSH2 0x304 JUMP JUMPDEST POP SWAP1 JUMP JUMPDEST PUSH1 0x0 DUP2 CALLDATALOAD SWAP1 POP PUSH2 0x32F DUP2 PUSH2 0x4F7 JUMP JUMPDEST SWAP3 SWAP2 POP POP JUMP JUMPDEST PUSH1 0x0 DUP1 DUP4 PUSH1 0x1F DUP5 ADD SLT PUSH2 0x34B JUMPI PUSH2 0x34A PUSH2 0x4E3 JUMP JUMPDEST JUMPDEST DUP3 CALLDATALOAD SWAP1 POP PUSH8 0xFFFFFFFFFFFFFFFF DUP2 GT ISZERO PUSH2 0x368 JUMPI PUSH2 0x367 PUSH2 0x4DE JUMP JUMPDEST JUMPDEST PUSH1 0x20 DUP4 ADD SWAP2 POP DUP4 PUSH1 0x1 DUP3 MUL DUP4 ADD GT ISZERO PUSH2 0x384 JUMPI PUSH2 0x383 PUSH2 0x4E8 JUMP JUMPDEST JUMPDEST SWAP3 POP SWAP3 SWAP1 POP JUMP JUMPDEST PUSH1 0x0 DUP2 CALLDATALOAD SWAP1 POP PUSH2 0x39A DUP2 PUSH2 0x50E JUMP JUMPDEST SWAP3 SWAP2 POP POP JUMP JUMPDEST PUSH1 0x0 DUP1 PUSH1 0x0 DUP1 PUSH1 0x60 DUP6 DUP8 SUB SLT ISZERO PUSH2 0x3BA JUMPI PUSH2 0x3B9 PUSH2 0x4F2 JUMP JUMPDEST JUMPDEST PUSH1 0x0 PUSH2 0x3C8 DUP8 DUP3 DUP9 ADD PUSH2 0x320 JUMP JUMPDEST SWAP5 POP POP PUSH1 0x20 PUSH2 0x3D9 DUP8 DUP3 DUP9 ADD PUSH2 0x38B JUMP JUMPDEST SWAP4 POP POP PUSH1 0x40 DUP6 ADD CALLDATALOAD PUSH8 0xFFFFFFFFFFFFFFFF DUP2 GT ISZERO PUSH2 0x3FA JUMPI PUSH2 0x3F9 PUSH2 0x4ED JUMP JUMPDEST JUMPDEST PUSH2 0x406 DUP8 DUP3 DUP9 ADD PUSH2 0x335 JUMP JUMPDEST SWAP3 POP SWAP3 POP POP SWAP3 SWAP6 SWAP2 SWAP5 POP SWAP3 POP JUMP JUMPDEST PUSH1 0x0 PUSH1 0x20 DUP3 DUP5 SUB SLT ISZERO PUSH2 0x42A JUMPI PUSH2 0x429 PUSH2 0x4F2 JUMP JUMPDEST JUMPDEST PUSH1 0x0 PUSH2 0x438 DUP5 DUP3 DUP6 ADD PUSH2 0x38B JUMP JUMPDEST SWAP2 POP POP SWAP3 SWAP2 POP POP JUMP JUMPDEST PUSH1 0x0 PUSH2 0x44C DUP3 PUSH2 0x453 JUMP JUMPDEST SWAP1 POP SWAP2 SWAP1 POP JUMP JUMPDEST PUSH1 0x0 PUSH20 0xFFFFFFFFFFFFFFFFFFFFFFFFFFFFFFFFFFFFFFFF DUP3 AND SWAP1 POP SWAP2 SWAP1 POP JUMP JUMPDEST PUSH1 0x0 DUP2 SWAP1 POP SWAP2 SWAP1 POP JUMP JUMPDEST PUSH1 0x0 PUSH1 0x2 DUP3 DIV SWAP1 POP PUSH1 0x1 DUP3 AND DUP1 PUSH2 0x495 JUMPI PUSH1 0x7F DUP3 AND SWAP2 POP JUMPDEST PUSH1 0x20 DUP3 LT DUP2 EQ ISZERO PUSH2 0x4A9 JUMPI PUSH2 0x4A8 PUSH2 0x4AF JUMP JUMPDEST JUMPDEST POP SWAP2 SWAP1 POP JUMP JUMPDEST PUSH32 0x4E487B7100000000000000000000000000000000000000000000000000000000 PUSH1 0x0 MSTORE PUSH1 0x22 PUSH1 0x4 MSTORE PUSH1 0x24 PUSH1 0x0 REVERT JUMPDEST PUSH1 0x0 DUP1 REVERT JUMPDEST PUSH1 0x0 DUP1 REVERT JUMPDEST PUSH1 0x0 DUP1 REVERT JUMPDEST PUSH1 0x0 DUP1 REVERT JUMPDEST PUSH1 0x0 DUP1 REVERT JUMPDEST PUSH2 0x500 DUP2 PUSH2 0x441 JUMP JUMPDEST DUP2 EQ PUSH2 0x50B JUMPI PUSH1 0x0 DUP1 REVERT JUMPDEST POP JUMP JUMPDEST PUSH2 0x517 DUP2 PUSH2 0x473 JUMP JUMPDEST DUP2 EQ PUSH2 0x522 JUMPI PUSH1 0x0 DUP1 REVERT JUMPDEST POP JUMP INVALID LOG2 PUSH5 0x6970667358 0x22 SLT KECCAK256 0x29 REVERT 0xBB PC DUP14 PUSH20 0xD7D43BE3E3F34775A56EBA3AC5E540014ED2247B 0xB2 SWAP16 0xB7 CALLCODE 0xDA 0xB5 PUSH5 0x736F6C6343 STOP ADDMOD SMOD STOP CALLER "
				},
				"gasEstimates": {
					"creation": {
						"codeDepositCost": "274200",
						"executionCost": "infinite",
						"totalCost": "infinite"
					},
					"external": {
						"approve(uint256)": "2648",
						"submit(address,uint256,bytes)": "infinite"
					}
				},
				"methodIdentifiers": {
					"approve(uint256)": "b759f954",
					"submit(address,uint256,bytes)": "14de327f"
				}
			},
			"storageLayout": {
				"storage": [
					{
						"astId": 5,
						"contract": "MultiSigWallet.sol:MultiSigWallet",
						"label": "isOwner",
						"offset": 0,
						"slot": "0",
						"type": "t_mapping(t_address,t_bool)"
					},
					{
						"astId": 18,
						"contract": "MultiSigWallet.sol:MultiSigWallet",
						"label": "transactons",
						"offset": 0,
						"slot": "1",
						"type": "t_array(t_struct(Transaction)14_storage)dyn_storage"
					},
					{
						"astId": 20,
						"contract": "MultiSigWallet.sol:MultiSigWallet",
						"label": "required",
						"offset": 0,
						"slot": "2",
						"type": "t_uint256"
					},
					{
						"astId": 26,
						"contract": "MultiSigWallet.sol:MultiSigWallet",
						"label": "approved",
						"offset": 0,
						"slot": "3",
						"type": "t_mapping(t_uint256,t_mapping(t_address,t_bool))"
					}
				],
				"types": {
					"t_address": {
						"encoding": "inplace",
						"label": "address",
						"numberOfBytes": "20"
					},
					"t_array(t_struct(Transaction)14_storage)dyn_storage": {
						"base": "t_struct(Transaction)14_storage",
						"encoding": "dynamic_array",
						"label": "struct MultiSigWallet.Transaction[]",
						"numberOfBytes": "32"
					},
					"t_bool": {
						"encoding": "inplace",
						"label": "bool",
						"numberOfBytes": "1"
					},
					"t_bytes_storage": {
						"encoding": "bytes",
						"label": "bytes",
						"numberOfBytes": "32"
					},
					"t_mapping(t_address,t_bool)": {
						"encoding": "mapping",
						"key": "t_address",
						"label": "mapping(address => bool)",
						"numberOfBytes": "32",
						"value": "t_bool"
					},
					"t_mapping(t_uint256,t_mapping(t_address,t_bool))": {
						"encoding": "mapping",
						"key": "t_uint256",
						"label": "mapping(uint256 => mapping(address => bool))",
						"numberOfBytes": "32",
						"value": "t_mapping(t_address,t_bool)"
					},
					"t_struct(Transaction)14_storage": {
						"encoding": "inplace",
						"label": "struct MultiSigWallet.Transaction",
						"members": [
							{
								"astId": 7,
								"contract": "MultiSigWallet.sol:MultiSigWallet",
								"label": "destination",
								"offset": 0,
								"slot": "0",
								"type": "t_address"
							},
							{
								"astId": 9,
								"contract": "MultiSigWallet.sol:MultiSigWallet",
								"label": "value",
								"offset": 0,
								"slot": "1",
								"type": "t_uint256"
							},
							{
								"astId": 11,
								"contract": "MultiSigWallet.sol:MultiSigWallet",
								"label": "data",
								"offset": 0,
								"slot": "2",
								"type": "t_bytes_storage"
							},
							{
								"astId": 13,
								"contract": "MultiSigWallet.sol:MultiSigWallet",
								"label": "executed",
								"offset": 0,
								"slot": "3",
								"type": "t_bool"
							}
						],
						"numberOfBytes": "128"
					},
					"t_uint256": {
						"encoding": "inplace",
						"label": "uint256",
						"numberOfBytes": "32"
					}
				}
			},
			"userdoc": {
				"kind": "user",
				"methods": {},
				"version": 1
			}
		}
	}
}