{
	"Delegate.sol": {
		"Sender": {
			"abi": [
				{
					"inputs": [],
					"stateMutability": "payable",
					"type": "constructor"
				},
				{
					"inputs": [
						{
							"internalType": "address",
							"name": "c",
							"type": "address"
						},
						{
							"internalType": "address payable",
							"name": "dest1",
							"type": "address"
						},
						{
							"internalType": "address",
							"name": "dest2",
							"type": "address"
						}
					],
					"name": "send",
					"outputs": [],
					"stateMutability": "nonpayable",
					"type": "function"
				}
			],
			"devdoc": {
				"kind": "dev",
				"methods": {},
				"version": 1
			},
			"evm": {
				"assembly": "    /* \"Delegate.sol\":249:491  contract Sender{... */\n  mstore(0x40, 0x80)\n  dataSize(sub_0)\n  dup1\n  dataOffset(sub_0)\n  0x00\n  codecopy\n  0x00\n  return\nstop\n\nsub_0: assembly {\n        /* \"Delegate.sol\":249:491  contract Sender{... */\n      mstore(0x40, 0x80)\n      callvalue\n      dup1\n      iszero\n      tag_1\n      jumpi\n      0x00\n      dup1\n      revert\n    tag_1:\n      pop\n      jumpi(tag_2, lt(calldatasize, 0x04))\n      shr(0xe0, calldataload(0x00))\n      dup1\n      0x011d7cd6\n      eq\n      tag_3\n      jumpi\n    tag_2:\n      0x00\n      dup1\n      revert\n        /* \"Delegate.sol\":298:489  function send(address c, address payable dest1,address dest2) external {... */\n    tag_3:\n      tag_4\n      0x04\n      dup1\n      calldatasize\n      sub\n      dup2\n      add\n      swap1\n      tag_5\n      swap2\n      swap1\n      tag_6\n      jump\t// in\n    tag_5:\n      tag_7\n      jump\t// in\n    tag_4:\n      stop\n    tag_7:\n        /* \"Delegate.sol\":380:392  bool success */\n      0x00\n        /* \"Delegate.sol\":394:411  bytes memory data */\n      dup1\n        /* \"Delegate.sol\":415:416  c */\n      dup5\n        /* \"Delegate.sol\":415:429  c.delegatecall */\n      0xffffffffffffffffffffffffffffffffffffffff\n      and\n        /* \"Delegate.sol\":453:468  C.send.selector */\n      shl(0xe0, 0xb6d9d451)\n        /* \"Delegate.sol\":469:474  dest1 */\n      dup6\n        /* \"Delegate.sol\":475:480  dest2 */\n      dup6\n        /* \"Delegate.sol\":430:481  abi.encodeWithSelector(C.send.selector,dest1,dest2) */\n      add(0x24, mload(0x40))\n      tag_9\n      swap3\n      swap2\n      swap1\n      tag_10\n      jump\t// in\n    tag_9:\n      mload(0x40)\n      0x20\n      dup2\n      dup4\n      sub\n      sub\n      dup2\n      mstore\n      swap1\n      0x40\n      mstore\n      swap1\n      not(0xffffffffffffffffffffffffffffffffffffffffffffffffffffffff)\n      and\n      0x20\n      dup3\n      add\n      dup1\n      mload\n      0xffffffffffffffffffffffffffffffffffffffffffffffffffffffff\n      dup4\n      dup2\n      dup4\n      and\n      or\n      dup4\n      mstore\n      pop\n      pop\n      pop\n      pop\n        /* \"Delegate.sol\":415:482  c.delegatecall(abi.encodeWithSelector(C.send.selector,dest1,dest2)) */\n      mload(0x40)\n      tag_11\n      swap2\n      swap1\n      tag_12\n      jump\t// in\n    tag_11:\n      0x00\n      mload(0x40)\n      dup1\n      dup4\n      sub\n      dup2\n      dup6\n      gas\n      delegatecall\n      swap2\n      pop\n      pop\n      returndatasize\n      dup1\n      0x00\n      dup2\n      eq\n      tag_15\n      jumpi\n      mload(0x40)\n      swap2\n      pop\n      and(add(returndatasize, 0x3f), not(0x1f))\n      dup3\n      add\n      0x40\n      mstore\n      returndatasize\n      dup3\n      mstore\n      returndatasize\n      0x00\n      0x20\n      dup5\n      add\n      returndatacopy\n      jump(tag_14)\n    tag_15:\n      0x60\n      swap2\n      pop\n    tag_14:\n      pop\n        /* \"Delegate.sol\":379:482  (bool success, bytes memory data) = c.delegatecall(abi.encodeWithSelector(C.send.selector,dest1,dest2)) */\n      swap2\n      pop\n      swap2\n      pop\n        /* \"Delegate.sol\":369:489  {... */\n      pop\n      pop\n        /* \"Delegate.sol\":298:489  function send(address c, address payable dest1,address dest2) external {... */\n      pop\n      pop\n      pop\n      jump\t// out\n        /* \"#utility.yul\":7:146   */\n    tag_17:\n        /* \"#utility.yul\":53:58   */\n      0x00\n        /* \"#utility.yul\":91:97   */\n      dup2\n        /* \"#utility.yul\":78:98   */\n      calldataload\n        /* \"#utility.yul\":69:98   */\n      swap1\n      pop\n        /* \"#utility.yul\":107:140   */\n      tag_19\n        /* \"#utility.yul\":134:139   */\n      dup2\n        /* \"#utility.yul\":107:140   */\n      tag_20\n      jump\t// in\n    tag_19:\n        /* \"#utility.yul\":7:146   */\n      swap3\n      swap2\n      pop\n      pop\n      jump\t// out\n        /* \"#utility.yul\":152:307   */\n    tag_21:\n        /* \"#utility.yul\":206:211   */\n      0x00\n        /* \"#utility.yul\":244:250   */\n      dup2\n        /* \"#utility.yul\":231:251   */\n      calldataload\n        /* \"#utility.yul\":222:251   */\n      swap1\n      pop\n        /* \"#utility.yul\":260:301   */\n      tag_23\n        /* \"#utility.yul\":295:300   */\n      dup2\n        /* \"#utility.yul\":260:301   */\n      tag_24\n      jump\t// in\n    tag_23:\n        /* \"#utility.yul\":152:307   */\n      swap3\n      swap2\n      pop\n      pop\n      jump\t// out\n        /* \"#utility.yul\":313:948   */\n    tag_6:\n        /* \"#utility.yul\":398:404   */\n      0x00\n        /* \"#utility.yul\":406:412   */\n      dup1\n        /* \"#utility.yul\":414:420   */\n      0x00\n        /* \"#utility.yul\":463:465   */\n      0x60\n        /* \"#utility.yul\":451:460   */\n      dup5\n        /* \"#utility.yul\":442:449   */\n      dup7\n        /* \"#utility.yul\":438:461   */\n      sub\n        /* \"#utility.yul\":434:466   */\n      slt\n        /* \"#utility.yul\":431:550   */\n      iszero\n      tag_26\n      jumpi\n        /* \"#utility.yul\":469:548   */\n      tag_27\n      tag_28\n      jump\t// in\n    tag_27:\n        /* \"#utility.yul\":431:550   */\n    tag_26:\n        /* \"#utility.yul\":589:590   */\n      0x00\n        /* \"#utility.yul\":614:667   */\n      tag_29\n        /* \"#utility.yul\":659:666   */\n      dup7\n        /* \"#utility.yul\":650:656   */\n      dup3\n        /* \"#utility.yul\":639:648   */\n      dup8\n        /* \"#utility.yul\":635:657   */\n      add\n        /* \"#utility.yul\":614:667   */\n      tag_17\n      jump\t// in\n    tag_29:\n        /* \"#utility.yul\":604:667   */\n      swap4\n      pop\n        /* \"#utility.yul\":560:677   */\n      pop\n        /* \"#utility.yul\":716:718   */\n      0x20\n        /* \"#utility.yul\":742:803   */\n      tag_30\n        /* \"#utility.yul\":795:802   */\n      dup7\n        /* \"#utility.yul\":786:792   */\n      dup3\n        /* \"#utility.yul\":775:784   */\n      dup8\n        /* \"#utility.yul\":771:793   */\n      add\n        /* \"#utility.yul\":742:803   */\n      tag_21\n      jump\t// in\n    tag_30:\n        /* \"#utility.yul\":732:803   */\n      swap3\n      pop\n        /* \"#utility.yul\":687:813   */\n      pop\n        /* \"#utility.yul\":852:854   */\n      0x40\n        /* \"#utility.yul\":878:931   */\n      tag_31\n        /* \"#utility.yul\":923:930   */\n      dup7\n        /* \"#utility.yul\":914:920   */\n      dup3\n        /* \"#utility.yul\":903:912   */\n      dup8\n        /* \"#utility.yul\":899:921   */\n      add\n        /* \"#utility.yul\":878:931   */\n      tag_17\n      jump\t// in\n    tag_31:\n        /* \"#utility.yul\":868:931   */\n      swap2\n      pop\n        /* \"#utility.yul\":823:941   */\n      pop\n        /* \"#utility.yul\":313:948   */\n      swap3\n      pop\n      swap3\n      pop\n      swap3\n      jump\t// out\n        /* \"#utility.yul\":954:1096   */\n    tag_32:\n        /* \"#utility.yul\":1057:1089   */\n      tag_34\n        /* \"#utility.yul\":1083:1088   */\n      dup2\n        /* \"#utility.yul\":1057:1089   */\n      tag_35\n      jump\t// in\n    tag_34:\n        /* \"#utility.yul\":1052:1055   */\n      dup3\n        /* \"#utility.yul\":1045:1090   */\n      mstore\n        /* \"#utility.yul\":954:1096   */\n      pop\n      pop\n      jump\t// out\n        /* \"#utility.yul\":1102:1220   */\n    tag_36:\n        /* \"#utility.yul\":1189:1213   */\n      tag_38\n        /* \"#utility.yul\":1207:1212   */\n      dup2\n        /* \"#utility.yul\":1189:1213   */\n      tag_39\n      jump\t// in\n    tag_38:\n        /* \"#utility.yul\":1184:1187   */\n      dup3\n        /* \"#utility.yul\":1177:1214   */\n      mstore\n        /* \"#utility.yul\":1102:1220   */\n      pop\n      pop\n      jump\t// out\n        /* \"#utility.yul\":1226:1599   */\n    tag_40:\n        /* \"#utility.yul\":1330:1333   */\n      0x00\n        /* \"#utility.yul\":1358:1396   */\n      tag_42\n        /* \"#utility.yul\":1390:1395   */\n      dup3\n        /* \"#utility.yul\":1358:1396   */\n      tag_43\n      jump\t// in\n    tag_42:\n        /* \"#utility.yul\":1412:1500   */\n      tag_44\n        /* \"#utility.yul\":1493:1499   */\n      dup2\n        /* \"#utility.yul\":1488:1491   */\n      dup6\n        /* \"#utility.yul\":1412:1500   */\n      tag_45\n      jump\t// in\n    tag_44:\n        /* \"#utility.yul\":1405:1500   */\n      swap4\n      pop\n        /* \"#utility.yul\":1509:1561   */\n      tag_46\n        /* \"#utility.yul\":1554:1560   */\n      dup2\n        /* \"#utility.yul\":1549:1552   */\n      dup6\n        /* \"#utility.yul\":1542:1546   */\n      0x20\n        /* \"#utility.yul\":1535:1540   */\n      dup7\n        /* \"#utility.yul\":1531:1547   */\n      add\n        /* \"#utility.yul\":1509:1561   */\n      tag_47\n      jump\t// in\n    tag_46:\n        /* \"#utility.yul\":1586:1592   */\n      dup1\n        /* \"#utility.yul\":1581:1584   */\n      dup5\n        /* \"#utility.yul\":1577:1593   */\n      add\n        /* \"#utility.yul\":1570:1593   */\n      swap2\n      pop\n        /* \"#utility.yul\":1334:1599   */\n      pop\n        /* \"#utility.yul\":1226:1599   */\n      swap3\n      swap2\n      pop\n      pop\n      jump\t// out\n        /* \"#utility.yul\":1605:1876   */\n    tag_12:\n        /* \"#utility.yul\":1735:1738   */\n      0x00\n        /* \"#utility.yul\":1757:1850   */\n      tag_49\n        /* \"#utility.yul\":1846:1849   */\n      dup3\n        /* \"#utility.yul\":1837:1843   */\n      dup5\n        /* \"#utility.yul\":1757:1850   */\n      tag_40\n      jump\t// in\n    tag_49:\n        /* \"#utility.yul\":1750:1850   */\n      swap2\n      pop\n        /* \"#utility.yul\":1867:1870   */\n      dup2\n        /* \"#utility.yul\":1860:1870   */\n      swap1\n      pop\n        /* \"#utility.yul\":1605:1876   */\n      swap3\n      swap2\n      pop\n      pop\n      jump\t// out\n        /* \"#utility.yul\":1882:2246   */\n    tag_10:\n        /* \"#utility.yul\":2019:2023   */\n      0x00\n        /* \"#utility.yul\":2057:2059   */\n      0x40\n        /* \"#utility.yul\":2046:2055   */\n      dup3\n        /* \"#utility.yul\":2042:2060   */\n      add\n        /* \"#utility.yul\":2034:2060   */\n      swap1\n      pop\n        /* \"#utility.yul\":2070:2157   */\n      tag_51\n        /* \"#utility.yul\":2154:2155   */\n      0x00\n        /* \"#utility.yul\":2143:2152   */\n      dup4\n        /* \"#utility.yul\":2139:2156   */\n      add\n        /* \"#utility.yul\":2130:2136   */\n      dup6\n        /* \"#utility.yul\":2070:2157   */\n      tag_32\n      jump\t// in\n    tag_51:\n        /* \"#utility.yul\":2167:2239   */\n      tag_52\n        /* \"#utility.yul\":2235:2237   */\n      0x20\n        /* \"#utility.yul\":2224:2233   */\n      dup4\n        /* \"#utility.yul\":2220:2238   */\n      add\n        /* \"#utility.yul\":2211:2217   */\n      dup5\n        /* \"#utility.yul\":2167:2239   */\n      tag_36\n      jump\t// in\n    tag_52:\n        /* \"#utility.yul\":1882:2246   */\n      swap4\n      swap3\n      pop\n      pop\n      pop\n      jump\t// out\n        /* \"#utility.yul\":2333:2431   */\n    tag_43:\n        /* \"#utility.yul\":2384:2390   */\n      0x00\n        /* \"#utility.yul\":2418:2423   */\n      dup2\n        /* \"#utility.yul\":2412:2424   */\n      mload\n        /* \"#utility.yul\":2402:2424   */\n      swap1\n      pop\n        /* \"#utility.yul\":2333:2431   */\n      swap2\n      swap1\n      pop\n      jump\t// out\n        /* \"#utility.yul\":2437:2584   */\n    tag_45:\n        /* \"#utility.yul\":2538:2549   */\n      0x00\n        /* \"#utility.yul\":2575:2578   */\n      dup2\n        /* \"#utility.yul\":2560:2578   */\n      swap1\n      pop\n        /* \"#utility.yul\":2437:2584   */\n      swap3\n      swap2\n      pop\n      pop\n      jump\t// out\n        /* \"#utility.yul\":2590:2686   */\n    tag_39:\n        /* \"#utility.yul\":2627:2634   */\n      0x00\n        /* \"#utility.yul\":2656:2680   */\n      tag_58\n        /* \"#utility.yul\":2674:2679   */\n      dup3\n        /* \"#utility.yul\":2656:2680   */\n      tag_59\n      jump\t// in\n    tag_58:\n        /* \"#utility.yul\":2645:2680   */\n      swap1\n      pop\n        /* \"#utility.yul\":2590:2686   */\n      swap2\n      swap1\n      pop\n      jump\t// out\n        /* \"#utility.yul\":2692:2796   */\n    tag_35:\n        /* \"#utility.yul\":2737:2744   */\n      0x00\n        /* \"#utility.yul\":2766:2790   */\n      tag_61\n        /* \"#utility.yul\":2784:2789   */\n      dup3\n        /* \"#utility.yul\":2766:2790   */\n      tag_59\n      jump\t// in\n    tag_61:\n        /* \"#utility.yul\":2755:2790   */\n      swap1\n      pop\n        /* \"#utility.yul\":2692:2796   */\n      swap2\n      swap1\n      pop\n      jump\t// out\n        /* \"#utility.yul\":2802:2928   */\n    tag_59:\n        /* \"#utility.yul\":2839:2846   */\n      0x00\n        /* \"#utility.yul\":2879:2921   */\n      0xffffffffffffffffffffffffffffffffffffffff\n        /* \"#utility.yul\":2872:2877   */\n      dup3\n        /* \"#utility.yul\":2868:2922   */\n      and\n        /* \"#utility.yul\":2857:2922   */\n      swap1\n      pop\n        /* \"#utility.yul\":2802:2928   */\n      swap2\n      swap1\n      pop\n      jump\t// out\n        /* \"#utility.yul\":2934:3241   */\n    tag_47:\n        /* \"#utility.yul\":3002:3003   */\n      0x00\n        /* \"#utility.yul\":3012:3125   */\n    tag_64:\n        /* \"#utility.yul\":3026:3032   */\n      dup4\n        /* \"#utility.yul\":3023:3024   */\n      dup2\n        /* \"#utility.yul\":3020:3033   */\n      lt\n        /* \"#utility.yul\":3012:3125   */\n      iszero\n      tag_66\n      jumpi\n        /* \"#utility.yul\":3111:3112   */\n      dup1\n        /* \"#utility.yul\":3106:3109   */\n      dup3\n        /* \"#utility.yul\":3102:3113   */\n      add\n        /* \"#utility.yul\":3096:3114   */\n      mload\n        /* \"#utility.yul\":3092:3093   */\n      dup2\n        /* \"#utility.yul\":3087:3090   */\n      dup5\n        /* \"#utility.yul\":3083:3094   */\n      add\n        /* \"#utility.yul\":3076:3115   */\n      mstore\n        /* \"#utility.yul\":3048:3050   */\n      0x20\n        /* \"#utility.yul\":3045:3046   */\n      dup2\n        /* \"#utility.yul\":3041:3051   */\n      add\n        /* \"#utility.yul\":3036:3051   */\n      swap1\n      pop\n        /* \"#utility.yul\":3012:3125   */\n      jump(tag_64)\n    tag_66:\n        /* \"#utility.yul\":3143:3149   */\n      dup4\n        /* \"#utility.yul\":3140:3141   */\n      dup2\n        /* \"#utility.yul\":3137:3150   */\n      gt\n        /* \"#utility.yul\":3134:3235   */\n      iszero\n      tag_67\n      jumpi\n        /* \"#utility.yul\":3223:3224   */\n      0x00\n        /* \"#utility.yul\":3214:3220   */\n      dup5\n        /* \"#utility.yul\":3209:3212   */\n      dup5\n        /* \"#utility.yul\":3205:3221   */\n      add\n        /* \"#utility.yul\":3198:3225   */\n      mstore\n        /* \"#utility.yul\":3134:3235   */\n    tag_67:\n        /* \"#utility.yul\":2983:3241   */\n      pop\n        /* \"#utility.yul\":2934:3241   */\n      pop\n      pop\n      pop\n      jump\t// out\n        /* \"#utility.yul\":3370:3487   */\n    tag_28:\n        /* \"#utility.yul\":3479:3480   */\n      0x00\n        /* \"#utility.yul\":3476:3477   */\n      dup1\n        /* \"#utility.yul\":3469:3481   */\n      revert\n        /* \"#utility.yul\":3493:3615   */\n    tag_20:\n        /* \"#utility.yul\":3566:3590   */\n      tag_72\n        /* \"#utility.yul\":3584:3589   */\n      dup2\n        /* \"#utility.yul\":3566:3590   */\n      tag_39\n      jump\t// in\n    tag_72:\n        /* \"#utility.yul\":3559:3564   */\n      dup2\n        /* \"#utility.yul\":3556:3591   */\n      eq\n        /* \"#utility.yul\":3546:3609   */\n      tag_73\n      jumpi\n        /* \"#utility.yul\":3605:3606   */\n      0x00\n        /* \"#utility.yul\":3602:3603   */\n      dup1\n        /* \"#utility.yul\":3595:3607   */\n      revert\n        /* \"#utility.yul\":3546:3609   */\n    tag_73:\n        /* \"#utility.yul\":3493:3615   */\n      pop\n      jump\t// out\n        /* \"#utility.yul\":3621:3759   */\n    tag_24:\n        /* \"#utility.yul\":3702:3734   */\n      tag_75\n        /* \"#utility.yul\":3728:3733   */\n      dup2\n        /* \"#utility.yul\":3702:3734   */\n      tag_35\n      jump\t// in\n    tag_75:\n        /* \"#utility.yul\":3695:3700   */\n      dup2\n        /* \"#utility.yul\":3692:3735   */\n      eq\n        /* \"#utility.yul\":3682:3753   */\n      tag_76\n      jumpi\n        /* \"#utility.yul\":3749:3750   */\n      0x00\n        /* \"#utility.yul\":3746:3747   */\n      dup1\n        /* \"#utility.yul\":3739:3751   */\n      revert\n        /* \"#utility.yul\":3682:3753   */\n    tag_76:\n        /* \"#utility.yul\":3621:3759   */\n      pop\n      jump\t// out\n\n    auxdata: 0xa264697066735822122054a523b47f31efa730d044a55fa35421b88adec4597d0d72525fc8404117099d64736f6c63430008070033\n}\n",
				"bytecode": {
					"linkReferences": {},
					"object": "6080604052610339806100136000396000f3fe608060405234801561001057600080fd5b506004361061002b5760003560e01c8063011d7cd614610030575b600080fd5b61004a60048036038101906100459190610161565b61004c565b005b6000808473ffffffffffffffffffffffffffffffffffffffff1663b6d9d45160e01b858560405160240161008192919061021a565b604051602081830303815290604052907bffffffffffffffffffffffffffffffffffffffffffffffffffffffff19166020820180517bffffffffffffffffffffffffffffffffffffffffffffffffffffffff83818316178352505050506040516100eb9190610203565b600060405180830381855af49150503d8060008114610126576040519150601f19603f3d011682016040523d82523d6000602084013e61012b565b606091505b50915091505050505050565b600081359050610146816102d5565b92915050565b60008135905061015b816102ec565b92915050565b60008060006060848603121561017a576101796102d0565b5b600061018886828701610137565b93505060206101998682870161014c565b92505060406101aa86828701610137565b9150509250925092565b6101bd8161026b565b82525050565b6101cc81610259565b82525050565b60006101dd82610243565b6101e7818561024e565b93506101f781856020860161029d565b80840191505092915050565b600061020f82846101d2565b915081905092915050565b600060408201905061022f60008301856101b4565b61023c60208301846101c3565b9392505050565b600081519050919050565b600081905092915050565b60006102648261027d565b9050919050565b60006102768261027d565b9050919050565b600073ffffffffffffffffffffffffffffffffffffffff82169050919050565b60005b838110156102bb5780820151818401526020810190506102a0565b838111156102ca576000848401525b50505050565b600080fd5b6102de81610259565b81146102e957600080fd5b50565b6102f58161026b565b811461030057600080fd5b5056fea264697066735822122054a523b47f31efa730d044a55fa35421b88adec4597d0d72525fc8404117099d64736f6c63430008070033",
					"opcodes": "PUSH1 0x80 PUSH1 0x40 MSTORE PUSH2 0x339 DUP1 PUSH2 0x13 PUSH1 0x0 CODECOPY PUSH1 0x0 RETURN INVALID PUSH1 0x80 PUSH1 0x40 MSTORE CALLVALUE DUP1 ISZERO PUSH2 0x10 JUMPI PUSH1 0x0 DUP1 REVERT JUMPDEST POP PUSH1 0x4 CALLDATASIZE LT PUSH2 0x2B JUMPI PUSH1 0x0 CALLDATALOAD PUSH1 0xE0 SHR DUP1 PUSH4 0x11D7CD6 EQ PUSH2 0x30 JUMPI JUMPDEST PUSH1 0x0 DUP1 REVERT JUMPDEST PUSH2 0x4A PUSH1 0x4 DUP1 CALLDATASIZE SUB DUP2 ADD SWAP1 PUSH2 0x45 SWAP2 SWAP1 PUSH2 0x161 JUMP JUMPDEST PUSH2 0x4C JUMP JUMPDEST STOP JUMPDEST PUSH1 0x0 DUP1 DUP5 PUSH20 0xFFFFFFFFFFFFFFFFFFFFFFFFFFFFFFFFFFFFFFFF AND PUSH4 0xB6D9D451 PUSH1 0xE0 SHL DUP6 DUP6 PUSH1 0x40 MLOAD PUSH1 0x24 ADD PUSH2 0x81 SWAP3 SWAP2 SWAP1 PUSH2 0x21A JUMP JUMPDEST PUSH1 0x40 MLOAD PUSH1 0x20 DUP2 DUP4 SUB SUB DUP2 MSTORE SWAP1 PUSH1 0x40 MSTORE SWAP1 PUSH28 0xFFFFFFFFFFFFFFFFFFFFFFFFFFFFFFFFFFFFFFFFFFFFFFFFFFFFFFFF NOT AND PUSH1 0x20 DUP3 ADD DUP1 MLOAD PUSH28 0xFFFFFFFFFFFFFFFFFFFFFFFFFFFFFFFFFFFFFFFFFFFFFFFFFFFFFFFF DUP4 DUP2 DUP4 AND OR DUP4 MSTORE POP POP POP POP PUSH1 0x40 MLOAD PUSH2 0xEB SWAP2 SWAP1 PUSH2 0x203 JUMP JUMPDEST PUSH1 0x0 PUSH1 0x40 MLOAD DUP1 DUP4 SUB DUP2 DUP6 GAS DELEGATECALL SWAP2 POP POP RETURNDATASIZE DUP1 PUSH1 0x0 DUP2 EQ PUSH2 0x126 JUMPI PUSH1 0x40 MLOAD SWAP2 POP PUSH1 0x1F NOT PUSH1 0x3F RETURNDATASIZE ADD AND DUP3 ADD PUSH1 0x40 MSTORE RETURNDATASIZE DUP3 MSTORE RETURNDATASIZE PUSH1 0x0 PUSH1 0x20 DUP5 ADD RETURNDATACOPY PUSH2 0x12B JUMP JUMPDEST PUSH1 0x60 SWAP2 POP JUMPDEST POP SWAP2 POP SWAP2 POP POP POP POP POP POP JUMP JUMPDEST PUSH1 0x0 DUP2 CALLDATALOAD SWAP1 POP PUSH2 0x146 DUP2 PUSH2 0x2D5 JUMP JUMPDEST SWAP3 SWAP2 POP POP JUMP JUMPDEST PUSH1 0x0 DUP2 CALLDATALOAD SWAP1 POP PUSH2 0x15B DUP2 PUSH2 0x2EC JUMP JUMPDEST SWAP3 SWAP2 POP POP JUMP JUMPDEST PUSH1 0x0 DUP1 PUSH1 0x0 PUSH1 0x60 DUP5 DUP7 SUB SLT ISZERO PUSH2 0x17A JUMPI PUSH2 0x179 PUSH2 0x2D0 JUMP JUMPDEST JUMPDEST PUSH1 0x0 PUSH2 0x188 DUP7 DUP3 DUP8 ADD PUSH2 0x137 JUMP JUMPDEST SWAP4 POP POP PUSH1 0x20 PUSH2 0x199 DUP7 DUP3 DUP8 ADD PUSH2 0x14C JUMP JUMPDEST SWAP3 POP POP PUSH1 0x40 PUSH2 0x1AA DUP7 DUP3 DUP8 ADD PUSH2 0x137 JUMP JUMPDEST SWAP2 POP POP SWAP3 POP SWAP3 POP SWAP3 JUMP JUMPDEST PUSH2 0x1BD DUP2 PUSH2 0x26B JUMP JUMPDEST DUP3 MSTORE POP POP JUMP JUMPDEST PUSH2 0x1CC DUP2 PUSH2 0x259 JUMP JUMPDEST DUP3 MSTORE POP POP JUMP JUMPDEST PUSH1 0x0 PUSH2 0x1DD DUP3 PUSH2 0x243 JUMP JUMPDEST PUSH2 0x1E7 DUP2 DUP6 PUSH2 0x24E JUMP JUMPDEST SWAP4 POP PUSH2 0x1F7 DUP2 DUP6 PUSH1 0x20 DUP7 ADD PUSH2 0x29D JUMP JUMPDEST DUP1 DUP5 ADD SWAP2 POP POP SWAP3 SWAP2 POP POP JUMP JUMPDEST PUSH1 0x0 PUSH2 0x20F DUP3 DUP5 PUSH2 0x1D2 JUMP JUMPDEST SWAP2 POP DUP2 SWAP1 POP SWAP3 SWAP2 POP POP JUMP JUMPDEST PUSH1 0x0 PUSH1 0x40 DUP3 ADD SWAP1 POP PUSH2 0x22F PUSH1 0x0 DUP4 ADD DUP6 PUSH2 0x1B4 JUMP JUMPDEST PUSH2 0x23C PUSH1 0x20 DUP4 ADD DUP5 PUSH2 0x1C3 JUMP JUMPDEST SWAP4 SWAP3 POP POP POP JUMP JUMPDEST PUSH1 0x0 DUP2 MLOAD SWAP1 POP SWAP2 SWAP1 POP JUMP JUMPDEST PUSH1 0x0 DUP2 SWAP1 POP SWAP3 SWAP2 POP POP JUMP JUMPDEST PUSH1 0x0 PUSH2 0x264 DUP3 PUSH2 0x27D JUMP JUMPDEST SWAP1 POP SWAP2 SWAP1 POP JUMP JUMPDEST PUSH1 0x0 PUSH2 0x276 DUP3 PUSH2 0x27D JUMP JUMPDEST SWAP1 POP SWAP2 SWAP1 POP JUMP JUMPDEST PUSH1 0x0 PUSH20 0xFFFFFFFFFFFFFFFFFFFFFFFFFFFFFFFFFFFFFFFF DUP3 AND SWAP1 POP SWAP2 SWAP1 POP JUMP JUMPDEST PUSH1 0x0 JUMPDEST DUP4 DUP2 LT ISZERO PUSH2 0x2BB JUMPI DUP1 DUP3 ADD MLOAD DUP2 DUP5 ADD MSTORE PUSH1 0x20 DUP2 ADD SWAP1 POP PUSH2 0x2A0 JUMP JUMPDEST DUP4 DUP2 GT ISZERO PUSH2 0x2CA JUMPI PUSH1 0x0 DUP5 DUP5 ADD MSTORE JUMPDEST POP POP POP POP JUMP JUMPDEST PUSH1 0x0 DUP1 REVERT JUMPDEST PUSH2 0x2DE DUP2 PUSH2 0x259 JUMP JUMPDEST DUP2 EQ PUSH2 0x2E9 JUMPI PUSH1 0x0 DUP1 REVERT JUMPDEST POP JUMP JUMPDEST PUSH2 0x2F5 DUP2 PUSH2 0x26B JUMP JUMPDEST DUP2 EQ PUSH2 0x300 JUMPI PUSH1 0x0 DUP1 REVERT JUMPDEST POP JUMP INVALID LOG2 PUSH5 0x6970667358 0x22 SLT KECCAK256 SLOAD 0xA5 0x23 0xB4 PUSH32 0x31EFA730D044A55FA35421B88ADEC4597D0D72525FC8404117099D64736F6C63 NUMBER STOP ADDMOD SMOD STOP CALLER "
				},
				"gasEstimates": {
					"creation": {
						"codeDepositCost": "165000",
						"executionCost": "184",
						"totalCost": "165184"
					},
					"external": {
						"send(address,address,address)": "infinite"
					}
				},
				"methodIdentifiers": {
					"send(address,address,address)": "011d7cd6"
				}
			},
			"storageLayout": {
				"storage": [],
				"types": null
			},
			"userdoc": {
				"kind": "user",
				"methods": {},
				"version": 1
			}
		}
	}
}