{
	"Delegate.sol": {
		"Sender": {
			"abi": [
				{
					"inputs": [],
					"stateMutability": "payable",
					"type": "constructor"
				},
				{
					"inputs": [],
					"name": "getBalance",
					"outputs": [
						{
							"internalType": "uint256",
							"name": "",
							"type": "uint256"
						}
					],
					"stateMutability": "view",
					"type": "function"
				},
				{
					"inputs": [
						{
							"internalType": "address",
							"name": "c",
							"type": "address"
						},
						{
							"internalType": "address payable",
							"name": "dest1",
							"type": "address"
						},
						{
							"internalType": "address",
							"name": "dest2",
							"type": "address"
						},
						{
							"internalType": "uint256",
							"name": "amount",
							"type": "uint256"
						}
					],
					"name": "send",
					"outputs": [],
					"stateMutability": "nonpayable",
					"type": "function"
				}
			],
			"devdoc": {
				"kind": "dev",
				"methods": {},
				"version": 1
			},
			"evm": {
				"assembly": "    /* \"Delegate.sol\":330:689  contract Sender{... */\n  mstore(0x40, 0x80)\n  dataSize(sub_0)\n  dup1\n  dataOffset(sub_0)\n  0x00\n  codecopy\n  0x00\n  return\nstop\n\nsub_0: assembly {\n        /* \"Delegate.sol\":330:689  contract Sender{... */\n      mstore(0x40, 0x80)\n      callvalue\n      dup1\n      iszero\n      tag_1\n      jumpi\n      0x00\n      dup1\n      revert\n    tag_1:\n      pop\n      jumpi(tag_2, lt(calldatasize, 0x04))\n      shr(0xe0, calldataload(0x00))\n      dup1\n      0x06e83e2f\n      eq\n      tag_3\n      jumpi\n      dup1\n      0x12065fe0\n      eq\n      tag_4\n      jumpi\n    tag_2:\n      0x00\n      dup1\n      revert\n        /* \"Delegate.sol\":478:687  function send(address c, address payable dest1,address dest2,uint amount) external{... */\n    tag_3:\n      tag_5\n      0x04\n      dup1\n      calldatasize\n      sub\n      dup2\n      add\n      swap1\n      tag_6\n      swap2\n      swap1\n      tag_7\n      jump\t// in\n    tag_6:\n      tag_8\n      jump\t// in\n    tag_5:\n      stop\n        /* \"Delegate.sol\":379:473  function getBalance() external view returns(uint){... */\n    tag_4:\n      tag_9\n      tag_10\n      jump\t// in\n    tag_9:\n      mload(0x40)\n      tag_11\n      swap2\n      swap1\n      tag_12\n      jump\t// in\n    tag_11:\n      mload(0x40)\n      dup1\n      swap2\n      sub\n      swap1\n      return\n        /* \"Delegate.sol\":478:687  function send(address c, address payable dest1,address dest2,uint amount) external{... */\n    tag_8:\n        /* \"Delegate.sol\":571:583  bool success */\n      0x00\n        /* \"Delegate.sol\":585:602  bytes memory data */\n      dup1\n        /* \"Delegate.sol\":606:607  c */\n      dup6\n        /* \"Delegate.sol\":606:620  c.delegatecall */\n      0xffffffffffffffffffffffffffffffffffffffff\n      and\n        /* \"Delegate.sol\":644:659  C.send.selector */\n      shl(0xe0, 0x0779afe6)\n        /* \"Delegate.sol\":660:665  dest1 */\n      dup7\n        /* \"Delegate.sol\":666:671  dest2 */\n      dup7\n        /* \"Delegate.sol\":672:678  amount */\n      dup7\n        /* \"Delegate.sol\":621:679  abi.encodeWithSelector(C.send.selector,dest1,dest2,amount) */\n      add(0x24, mload(0x40))\n      tag_14\n      swap4\n      swap3\n      swap2\n      swap1\n      tag_15\n      jump\t// in\n    tag_14:\n      mload(0x40)\n      0x20\n      dup2\n      dup4\n      sub\n      sub\n      dup2\n      mstore\n      swap1\n      0x40\n      mstore\n      swap1\n      not(0xffffffffffffffffffffffffffffffffffffffffffffffffffffffff)\n      and\n      0x20\n      dup3\n      add\n      dup1\n      mload\n      0xffffffffffffffffffffffffffffffffffffffffffffffffffffffff\n      dup4\n      dup2\n      dup4\n      and\n      or\n      dup4\n      mstore\n      pop\n      pop\n      pop\n      pop\n        /* \"Delegate.sol\":606:680  c.delegatecall(abi.encodeWithSelector(C.send.selector,dest1,dest2,amount)) */\n      mload(0x40)\n      tag_16\n      swap2\n      swap1\n      tag_17\n      jump\t// in\n    tag_16:\n      0x00\n      mload(0x40)\n      dup1\n      dup4\n      sub\n      dup2\n      dup6\n      gas\n      delegatecall\n      swap2\n      pop\n      pop\n      returndatasize\n      dup1\n      0x00\n      dup2\n      eq\n      tag_20\n      jumpi\n      mload(0x40)\n      swap2\n      pop\n      and(add(returndatasize, 0x3f), not(0x1f))\n      dup3\n      add\n      0x40\n      mstore\n      returndatasize\n      dup3\n      mstore\n      returndatasize\n      0x00\n      0x20\n      dup5\n      add\n      returndatacopy\n      jump(tag_19)\n    tag_20:\n      0x60\n      swap2\n      pop\n    tag_19:\n      pop\n        /* \"Delegate.sol\":570:680  (bool success, bytes memory data) = c.delegatecall(abi.encodeWithSelector(C.send.selector,dest1,dest2,amount)) */\n      swap2\n      pop\n      swap2\n      pop\n        /* \"Delegate.sol\":560:687  {... */\n      pop\n      pop\n        /* \"Delegate.sol\":478:687  function send(address c, address payable dest1,address dest2,uint amount) external{... */\n      pop\n      pop\n      pop\n      pop\n      jump\t// out\n        /* \"Delegate.sol\":379:473  function getBalance() external view returns(uint){... */\n    tag_10:\n        /* \"Delegate.sol\":423:427  uint */\n      0x00\n        /* \"Delegate.sol\":445:466  address(this).balance */\n      selfbalance\n        /* \"Delegate.sol\":438:466  return address(this).balance */\n      swap1\n      pop\n        /* \"Delegate.sol\":379:473  function getBalance() external view returns(uint){... */\n      swap1\n      jump\t// out\n        /* \"#utility.yul\":7:146   */\n    tag_23:\n        /* \"#utility.yul\":53:58   */\n      0x00\n        /* \"#utility.yul\":91:97   */\n      dup2\n        /* \"#utility.yul\":78:98   */\n      calldataload\n        /* \"#utility.yul\":69:98   */\n      swap1\n      pop\n        /* \"#utility.yul\":107:140   */\n      tag_25\n        /* \"#utility.yul\":134:139   */\n      dup2\n        /* \"#utility.yul\":107:140   */\n      tag_26\n      jump\t// in\n    tag_25:\n        /* \"#utility.yul\":7:146   */\n      swap3\n      swap2\n      pop\n      pop\n      jump\t// out\n        /* \"#utility.yul\":152:307   */\n    tag_27:\n        /* \"#utility.yul\":206:211   */\n      0x00\n        /* \"#utility.yul\":244:250   */\n      dup2\n        /* \"#utility.yul\":231:251   */\n      calldataload\n        /* \"#utility.yul\":222:251   */\n      swap1\n      pop\n        /* \"#utility.yul\":260:301   */\n      tag_29\n        /* \"#utility.yul\":295:300   */\n      dup2\n        /* \"#utility.yul\":260:301   */\n      tag_30\n      jump\t// in\n    tag_29:\n        /* \"#utility.yul\":152:307   */\n      swap3\n      swap2\n      pop\n      pop\n      jump\t// out\n        /* \"#utility.yul\":313:452   */\n    tag_31:\n        /* \"#utility.yul\":359:364   */\n      0x00\n        /* \"#utility.yul\":397:403   */\n      dup2\n        /* \"#utility.yul\":384:404   */\n      calldataload\n        /* \"#utility.yul\":375:404   */\n      swap1\n      pop\n        /* \"#utility.yul\":413:446   */\n      tag_33\n        /* \"#utility.yul\":440:445   */\n      dup2\n        /* \"#utility.yul\":413:446   */\n      tag_34\n      jump\t// in\n    tag_33:\n        /* \"#utility.yul\":313:452   */\n      swap3\n      swap2\n      pop\n      pop\n      jump\t// out\n        /* \"#utility.yul\":458:1239   */\n    tag_7:\n        /* \"#utility.yul\":552:558   */\n      0x00\n        /* \"#utility.yul\":560:566   */\n      dup1\n        /* \"#utility.yul\":568:574   */\n      0x00\n        /* \"#utility.yul\":576:582   */\n      dup1\n        /* \"#utility.yul\":625:628   */\n      0x80\n        /* \"#utility.yul\":613:622   */\n      dup6\n        /* \"#utility.yul\":604:611   */\n      dup8\n        /* \"#utility.yul\":600:623   */\n      sub\n        /* \"#utility.yul\":596:629   */\n      slt\n        /* \"#utility.yul\":593:713   */\n      iszero\n      tag_36\n      jumpi\n        /* \"#utility.yul\":632:711   */\n      tag_37\n      tag_38\n      jump\t// in\n    tag_37:\n        /* \"#utility.yul\":593:713   */\n    tag_36:\n        /* \"#utility.yul\":752:753   */\n      0x00\n        /* \"#utility.yul\":777:830   */\n      tag_39\n        /* \"#utility.yul\":822:829   */\n      dup8\n        /* \"#utility.yul\":813:819   */\n      dup3\n        /* \"#utility.yul\":802:811   */\n      dup9\n        /* \"#utility.yul\":798:820   */\n      add\n        /* \"#utility.yul\":777:830   */\n      tag_23\n      jump\t// in\n    tag_39:\n        /* \"#utility.yul\":767:830   */\n      swap5\n      pop\n        /* \"#utility.yul\":723:840   */\n      pop\n        /* \"#utility.yul\":879:881   */\n      0x20\n        /* \"#utility.yul\":905:966   */\n      tag_40\n        /* \"#utility.yul\":958:965   */\n      dup8\n        /* \"#utility.yul\":949:955   */\n      dup3\n        /* \"#utility.yul\":938:947   */\n      dup9\n        /* \"#utility.yul\":934:956   */\n      add\n        /* \"#utility.yul\":905:966   */\n      tag_27\n      jump\t// in\n    tag_40:\n        /* \"#utility.yul\":895:966   */\n      swap4\n      pop\n        /* \"#utility.yul\":850:976   */\n      pop\n        /* \"#utility.yul\":1015:1017   */\n      0x40\n        /* \"#utility.yul\":1041:1094   */\n      tag_41\n        /* \"#utility.yul\":1086:1093   */\n      dup8\n        /* \"#utility.yul\":1077:1083   */\n      dup3\n        /* \"#utility.yul\":1066:1075   */\n      dup9\n        /* \"#utility.yul\":1062:1084   */\n      add\n        /* \"#utility.yul\":1041:1094   */\n      tag_23\n      jump\t// in\n    tag_41:\n        /* \"#utility.yul\":1031:1094   */\n      swap3\n      pop\n        /* \"#utility.yul\":986:1104   */\n      pop\n        /* \"#utility.yul\":1143:1145   */\n      0x60\n        /* \"#utility.yul\":1169:1222   */\n      tag_42\n        /* \"#utility.yul\":1214:1221   */\n      dup8\n        /* \"#utility.yul\":1205:1211   */\n      dup3\n        /* \"#utility.yul\":1194:1203   */\n      dup9\n        /* \"#utility.yul\":1190:1212   */\n      add\n        /* \"#utility.yul\":1169:1222   */\n      tag_31\n      jump\t// in\n    tag_42:\n        /* \"#utility.yul\":1159:1222   */\n      swap2\n      pop\n        /* \"#utility.yul\":1114:1232   */\n      pop\n        /* \"#utility.yul\":458:1239   */\n      swap3\n      swap6\n      swap2\n      swap5\n      pop\n      swap3\n      pop\n      jump\t// out\n        /* \"#utility.yul\":1245:1387   */\n    tag_43:\n        /* \"#utility.yul\":1348:1380   */\n      tag_45\n        /* \"#utility.yul\":1374:1379   */\n      dup2\n        /* \"#utility.yul\":1348:1380   */\n      tag_46\n      jump\t// in\n    tag_45:\n        /* \"#utility.yul\":1343:1346   */\n      dup3\n        /* \"#utility.yul\":1336:1381   */\n      mstore\n        /* \"#utility.yul\":1245:1387   */\n      pop\n      pop\n      jump\t// out\n        /* \"#utility.yul\":1393:1511   */\n    tag_47:\n        /* \"#utility.yul\":1480:1504   */\n      tag_49\n        /* \"#utility.yul\":1498:1503   */\n      dup2\n        /* \"#utility.yul\":1480:1504   */\n      tag_50\n      jump\t// in\n    tag_49:\n        /* \"#utility.yul\":1475:1478   */\n      dup3\n        /* \"#utility.yul\":1468:1505   */\n      mstore\n        /* \"#utility.yul\":1393:1511   */\n      pop\n      pop\n      jump\t// out\n        /* \"#utility.yul\":1517:1890   */\n    tag_51:\n        /* \"#utility.yul\":1621:1624   */\n      0x00\n        /* \"#utility.yul\":1649:1687   */\n      tag_53\n        /* \"#utility.yul\":1681:1686   */\n      dup3\n        /* \"#utility.yul\":1649:1687   */\n      tag_54\n      jump\t// in\n    tag_53:\n        /* \"#utility.yul\":1703:1791   */\n      tag_55\n        /* \"#utility.yul\":1784:1790   */\n      dup2\n        /* \"#utility.yul\":1779:1782   */\n      dup6\n        /* \"#utility.yul\":1703:1791   */\n      tag_56\n      jump\t// in\n    tag_55:\n        /* \"#utility.yul\":1696:1791   */\n      swap4\n      pop\n        /* \"#utility.yul\":1800:1852   */\n      tag_57\n        /* \"#utility.yul\":1845:1851   */\n      dup2\n        /* \"#utility.yul\":1840:1843   */\n      dup6\n        /* \"#utility.yul\":1833:1837   */\n      0x20\n        /* \"#utility.yul\":1826:1831   */\n      dup7\n        /* \"#utility.yul\":1822:1838   */\n      add\n        /* \"#utility.yul\":1800:1852   */\n      tag_58\n      jump\t// in\n    tag_57:\n        /* \"#utility.yul\":1877:1883   */\n      dup1\n        /* \"#utility.yul\":1872:1875   */\n      dup5\n        /* \"#utility.yul\":1868:1884   */\n      add\n        /* \"#utility.yul\":1861:1884   */\n      swap2\n      pop\n        /* \"#utility.yul\":1625:1890   */\n      pop\n        /* \"#utility.yul\":1517:1890   */\n      swap3\n      swap2\n      pop\n      pop\n      jump\t// out\n        /* \"#utility.yul\":1896:2014   */\n    tag_59:\n        /* \"#utility.yul\":1983:2007   */\n      tag_61\n        /* \"#utility.yul\":2001:2006   */\n      dup2\n        /* \"#utility.yul\":1983:2007   */\n      tag_62\n      jump\t// in\n    tag_61:\n        /* \"#utility.yul\":1978:1981   */\n      dup3\n        /* \"#utility.yul\":1971:2008   */\n      mstore\n        /* \"#utility.yul\":1896:2014   */\n      pop\n      pop\n      jump\t// out\n        /* \"#utility.yul\":2020:2291   */\n    tag_17:\n        /* \"#utility.yul\":2150:2153   */\n      0x00\n        /* \"#utility.yul\":2172:2265   */\n      tag_64\n        /* \"#utility.yul\":2261:2264   */\n      dup3\n        /* \"#utility.yul\":2252:2258   */\n      dup5\n        /* \"#utility.yul\":2172:2265   */\n      tag_51\n      jump\t// in\n    tag_64:\n        /* \"#utility.yul\":2165:2265   */\n      swap2\n      pop\n        /* \"#utility.yul\":2282:2285   */\n      dup2\n        /* \"#utility.yul\":2275:2285   */\n      swap1\n      pop\n        /* \"#utility.yul\":2020:2291   */\n      swap3\n      swap2\n      pop\n      pop\n      jump\t// out\n        /* \"#utility.yul\":2297:2771   */\n    tag_15:\n        /* \"#utility.yul\":2462:2466   */\n      0x00\n        /* \"#utility.yul\":2500:2502   */\n      0x60\n        /* \"#utility.yul\":2489:2498   */\n      dup3\n        /* \"#utility.yul\":2485:2503   */\n      add\n        /* \"#utility.yul\":2477:2503   */\n      swap1\n      pop\n        /* \"#utility.yul\":2513:2600   */\n      tag_66\n        /* \"#utility.yul\":2597:2598   */\n      0x00\n        /* \"#utility.yul\":2586:2595   */\n      dup4\n        /* \"#utility.yul\":2582:2599   */\n      add\n        /* \"#utility.yul\":2573:2579   */\n      dup7\n        /* \"#utility.yul\":2513:2600   */\n      tag_43\n      jump\t// in\n    tag_66:\n        /* \"#utility.yul\":2610:2682   */\n      tag_67\n        /* \"#utility.yul\":2678:2680   */\n      0x20\n        /* \"#utility.yul\":2667:2676   */\n      dup4\n        /* \"#utility.yul\":2663:2681   */\n      add\n        /* \"#utility.yul\":2654:2660   */\n      dup6\n        /* \"#utility.yul\":2610:2682   */\n      tag_47\n      jump\t// in\n    tag_67:\n        /* \"#utility.yul\":2692:2764   */\n      tag_68\n        /* \"#utility.yul\":2760:2762   */\n      0x40\n        /* \"#utility.yul\":2749:2758   */\n      dup4\n        /* \"#utility.yul\":2745:2763   */\n      add\n        /* \"#utility.yul\":2736:2742   */\n      dup5\n        /* \"#utility.yul\":2692:2764   */\n      tag_59\n      jump\t// in\n    tag_68:\n        /* \"#utility.yul\":2297:2771   */\n      swap5\n      swap4\n      pop\n      pop\n      pop\n      pop\n      jump\t// out\n        /* \"#utility.yul\":2777:2999   */\n    tag_12:\n        /* \"#utility.yul\":2870:2874   */\n      0x00\n        /* \"#utility.yul\":2908:2910   */\n      0x20\n        /* \"#utility.yul\":2897:2906   */\n      dup3\n        /* \"#utility.yul\":2893:2911   */\n      add\n        /* \"#utility.yul\":2885:2911   */\n      swap1\n      pop\n        /* \"#utility.yul\":2921:2992   */\n      tag_70\n        /* \"#utility.yul\":2989:2990   */\n      0x00\n        /* \"#utility.yul\":2978:2987   */\n      dup4\n        /* \"#utility.yul\":2974:2991   */\n      add\n        /* \"#utility.yul\":2965:2971   */\n      dup5\n        /* \"#utility.yul\":2921:2992   */\n      tag_59\n      jump\t// in\n    tag_70:\n        /* \"#utility.yul\":2777:2999   */\n      swap3\n      swap2\n      pop\n      pop\n      jump\t// out\n        /* \"#utility.yul\":3086:3184   */\n    tag_54:\n        /* \"#utility.yul\":3137:3143   */\n      0x00\n        /* \"#utility.yul\":3171:3176   */\n      dup2\n        /* \"#utility.yul\":3165:3177   */\n      mload\n        /* \"#utility.yul\":3155:3177   */\n      swap1\n      pop\n        /* \"#utility.yul\":3086:3184   */\n      swap2\n      swap1\n      pop\n      jump\t// out\n        /* \"#utility.yul\":3190:3337   */\n    tag_56:\n        /* \"#utility.yul\":3291:3302   */\n      0x00\n        /* \"#utility.yul\":3328:3331   */\n      dup2\n        /* \"#utility.yul\":3313:3331   */\n      swap1\n      pop\n        /* \"#utility.yul\":3190:3337   */\n      swap3\n      swap2\n      pop\n      pop\n      jump\t// out\n        /* \"#utility.yul\":3343:3439   */\n    tag_50:\n        /* \"#utility.yul\":3380:3387   */\n      0x00\n        /* \"#utility.yul\":3409:3433   */\n      tag_76\n        /* \"#utility.yul\":3427:3432   */\n      dup3\n        /* \"#utility.yul\":3409:3433   */\n      tag_77\n      jump\t// in\n    tag_76:\n        /* \"#utility.yul\":3398:3433   */\n      swap1\n      pop\n        /* \"#utility.yul\":3343:3439   */\n      swap2\n      swap1\n      pop\n      jump\t// out\n        /* \"#utility.yul\":3445:3549   */\n    tag_46:\n        /* \"#utility.yul\":3490:3497   */\n      0x00\n        /* \"#utility.yul\":3519:3543   */\n      tag_79\n        /* \"#utility.yul\":3537:3542   */\n      dup3\n        /* \"#utility.yul\":3519:3543   */\n      tag_77\n      jump\t// in\n    tag_79:\n        /* \"#utility.yul\":3508:3543   */\n      swap1\n      pop\n        /* \"#utility.yul\":3445:3549   */\n      swap2\n      swap1\n      pop\n      jump\t// out\n        /* \"#utility.yul\":3555:3681   */\n    tag_77:\n        /* \"#utility.yul\":3592:3599   */\n      0x00\n        /* \"#utility.yul\":3632:3674   */\n      0xffffffffffffffffffffffffffffffffffffffff\n        /* \"#utility.yul\":3625:3630   */\n      dup3\n        /* \"#utility.yul\":3621:3675   */\n      and\n        /* \"#utility.yul\":3610:3675   */\n      swap1\n      pop\n        /* \"#utility.yul\":3555:3681   */\n      swap2\n      swap1\n      pop\n      jump\t// out\n        /* \"#utility.yul\":3687:3764   */\n    tag_62:\n        /* \"#utility.yul\":3724:3731   */\n      0x00\n        /* \"#utility.yul\":3753:3758   */\n      dup2\n        /* \"#utility.yul\":3742:3758   */\n      swap1\n      pop\n        /* \"#utility.yul\":3687:3764   */\n      swap2\n      swap1\n      pop\n      jump\t// out\n        /* \"#utility.yul\":3770:4077   */\n    tag_58:\n        /* \"#utility.yul\":3838:3839   */\n      0x00\n        /* \"#utility.yul\":3848:3961   */\n    tag_83:\n        /* \"#utility.yul\":3862:3868   */\n      dup4\n        /* \"#utility.yul\":3859:3860   */\n      dup2\n        /* \"#utility.yul\":3856:3869   */\n      lt\n        /* \"#utility.yul\":3848:3961   */\n      iszero\n      tag_85\n      jumpi\n        /* \"#utility.yul\":3947:3948   */\n      dup1\n        /* \"#utility.yul\":3942:3945   */\n      dup3\n        /* \"#utility.yul\":3938:3949   */\n      add\n        /* \"#utility.yul\":3932:3950   */\n      mload\n        /* \"#utility.yul\":3928:3929   */\n      dup2\n        /* \"#utility.yul\":3923:3926   */\n      dup5\n        /* \"#utility.yul\":3919:3930   */\n      add\n        /* \"#utility.yul\":3912:3951   */\n      mstore\n        /* \"#utility.yul\":3884:3886   */\n      0x20\n        /* \"#utility.yul\":3881:3882   */\n      dup2\n        /* \"#utility.yul\":3877:3887   */\n      add\n        /* \"#utility.yul\":3872:3887   */\n      swap1\n      pop\n        /* \"#utility.yul\":3848:3961   */\n      jump(tag_83)\n    tag_85:\n        /* \"#utility.yul\":3979:3985   */\n      dup4\n        /* \"#utility.yul\":3976:3977   */\n      dup2\n        /* \"#utility.yul\":3973:3986   */\n      gt\n        /* \"#utility.yul\":3970:4071   */\n      iszero\n      tag_86\n      jumpi\n        /* \"#utility.yul\":4059:4060   */\n      0x00\n        /* \"#utility.yul\":4050:4056   */\n      dup5\n        /* \"#utility.yul\":4045:4048   */\n      dup5\n        /* \"#utility.yul\":4041:4057   */\n      add\n        /* \"#utility.yul\":4034:4061   */\n      mstore\n        /* \"#utility.yul\":3970:4071   */\n    tag_86:\n        /* \"#utility.yul\":3819:4077   */\n      pop\n        /* \"#utility.yul\":3770:4077   */\n      pop\n      pop\n      pop\n      jump\t// out\n        /* \"#utility.yul\":4206:4323   */\n    tag_38:\n        /* \"#utility.yul\":4315:4316   */\n      0x00\n        /* \"#utility.yul\":4312:4313   */\n      dup1\n        /* \"#utility.yul\":4305:4317   */\n      revert\n        /* \"#utility.yul\":4329:4451   */\n    tag_26:\n        /* \"#utility.yul\":4402:4426   */\n      tag_91\n        /* \"#utility.yul\":4420:4425   */\n      dup2\n        /* \"#utility.yul\":4402:4426   */\n      tag_50\n      jump\t// in\n    tag_91:\n        /* \"#utility.yul\":4395:4400   */\n      dup2\n        /* \"#utility.yul\":4392:4427   */\n      eq\n        /* \"#utility.yul\":4382:4445   */\n      tag_92\n      jumpi\n        /* \"#utility.yul\":4441:4442   */\n      0x00\n        /* \"#utility.yul\":4438:4439   */\n      dup1\n        /* \"#utility.yul\":4431:4443   */\n      revert\n        /* \"#utility.yul\":4382:4445   */\n    tag_92:\n        /* \"#utility.yul\":4329:4451   */\n      pop\n      jump\t// out\n        /* \"#utility.yul\":4457:4595   */\n    tag_30:\n        /* \"#utility.yul\":4538:4570   */\n      tag_94\n        /* \"#utility.yul\":4564:4569   */\n      dup2\n        /* \"#utility.yul\":4538:4570   */\n      tag_46\n      jump\t// in\n    tag_94:\n        /* \"#utility.yul\":4531:4536   */\n      dup2\n        /* \"#utility.yul\":4528:4571   */\n      eq\n        /* \"#utility.yul\":4518:4589   */\n      tag_95\n      jumpi\n        /* \"#utility.yul\":4585:4586   */\n      0x00\n        /* \"#utility.yul\":4582:4583   */\n      dup1\n        /* \"#utility.yul\":4575:4587   */\n      revert\n        /* \"#utility.yul\":4518:4589   */\n    tag_95:\n        /* \"#utility.yul\":4457:4595   */\n      pop\n      jump\t// out\n        /* \"#utility.yul\":4601:4723   */\n    tag_34:\n        /* \"#utility.yul\":4674:4698   */\n      tag_97\n        /* \"#utility.yul\":4692:4697   */\n      dup2\n        /* \"#utility.yul\":4674:4698   */\n      tag_62\n      jump\t// in\n    tag_97:\n        /* \"#utility.yul\":4667:4672   */\n      dup2\n        /* \"#utility.yul\":4664:4699   */\n      eq\n        /* \"#utility.yul\":4654:4717   */\n      tag_98\n      jumpi\n        /* \"#utility.yul\":4713:4714   */\n      0x00\n        /* \"#utility.yul\":4710:4711   */\n      dup1\n        /* \"#utility.yul\":4703:4715   */\n      revert\n        /* \"#utility.yul\":4654:4717   */\n    tag_98:\n        /* \"#utility.yul\":4601:4723   */\n      pop\n      jump\t// out\n\n    auxdata: 0xa264697066735822122047e928e3fd0c3a572da1f3dab9ac82b4150cf09b1969165fc8be7c342a4b18c964736f6c63430008070033\n}\n",
				"bytecode": {
					"linkReferences": {},
					"object": "60806040526103ef806100136000396000f3fe608060405234801561001057600080fd5b50600436106100365760003560e01c806306e83e2f1461003b57806312065fe014610057575b600080fd5b610055600480360381019061005091906101aa565b610075565b005b61005f610163565b60405161006c91906102bd565b60405180910390f35b6000808573ffffffffffffffffffffffffffffffffffffffff16630779afe660e01b8686866040516024016100ac93929190610286565b604051602081830303815290604052907bffffffffffffffffffffffffffffffffffffffffffffffffffffffff19166020820180517bffffffffffffffffffffffffffffffffffffffffffffffffffffffff8381831617835250505050604051610116919061026f565b600060405180830381855af49150503d8060008114610151576040519150601f19603f3d011682016040523d82523d6000602084013e610156565b606091505b5091509150505050505050565b600047905090565b60008135905061017a81610374565b92915050565b60008135905061018f8161038b565b92915050565b6000813590506101a4816103a2565b92915050565b600080600080608085870312156101c4576101c361036f565b5b60006101d28782880161016b565b94505060206101e387828801610180565b93505060406101f48782880161016b565b925050606061020587828801610195565b91505092959194509250565b61021a81610300565b82525050565b610229816102ee565b82525050565b600061023a826102d8565b61024481856102e3565b935061025481856020860161033c565b80840191505092915050565b61026981610332565b82525050565b600061027b828461022f565b915081905092915050565b600060608201905061029b6000830186610211565b6102a86020830185610220565b6102b56040830184610260565b949350505050565b60006020820190506102d26000830184610260565b92915050565b600081519050919050565b600081905092915050565b60006102f982610312565b9050919050565b600061030b82610312565b9050919050565b600073ffffffffffffffffffffffffffffffffffffffff82169050919050565b6000819050919050565b60005b8381101561035a57808201518184015260208101905061033f565b83811115610369576000848401525b50505050565b600080fd5b61037d816102ee565b811461038857600080fd5b50565b61039481610300565b811461039f57600080fd5b50565b6103ab81610332565b81146103b657600080fd5b5056fea264697066735822122047e928e3fd0c3a572da1f3dab9ac82b4150cf09b1969165fc8be7c342a4b18c964736f6c63430008070033",
					"opcodes": "PUSH1 0x80 PUSH1 0x40 MSTORE PUSH2 0x3EF DUP1 PUSH2 0x13 PUSH1 0x0 CODECOPY PUSH1 0x0 RETURN INVALID PUSH1 0x80 PUSH1 0x40 MSTORE CALLVALUE DUP1 ISZERO PUSH2 0x10 JUMPI PUSH1 0x0 DUP1 REVERT JUMPDEST POP PUSH1 0x4 CALLDATASIZE LT PUSH2 0x36 JUMPI PUSH1 0x0 CALLDATALOAD PUSH1 0xE0 SHR DUP1 PUSH4 0x6E83E2F EQ PUSH2 0x3B JUMPI DUP1 PUSH4 0x12065FE0 EQ PUSH2 0x57 JUMPI JUMPDEST PUSH1 0x0 DUP1 REVERT JUMPDEST PUSH2 0x55 PUSH1 0x4 DUP1 CALLDATASIZE SUB DUP2 ADD SWAP1 PUSH2 0x50 SWAP2 SWAP1 PUSH2 0x1AA JUMP JUMPDEST PUSH2 0x75 JUMP JUMPDEST STOP JUMPDEST PUSH2 0x5F PUSH2 0x163 JUMP JUMPDEST PUSH1 0x40 MLOAD PUSH2 0x6C SWAP2 SWAP1 PUSH2 0x2BD JUMP JUMPDEST PUSH1 0x40 MLOAD DUP1 SWAP2 SUB SWAP1 RETURN JUMPDEST PUSH1 0x0 DUP1 DUP6 PUSH20 0xFFFFFFFFFFFFFFFFFFFFFFFFFFFFFFFFFFFFFFFF AND PUSH4 0x779AFE6 PUSH1 0xE0 SHL DUP7 DUP7 DUP7 PUSH1 0x40 MLOAD PUSH1 0x24 ADD PUSH2 0xAC SWAP4 SWAP3 SWAP2 SWAP1 PUSH2 0x286 JUMP JUMPDEST PUSH1 0x40 MLOAD PUSH1 0x20 DUP2 DUP4 SUB SUB DUP2 MSTORE SWAP1 PUSH1 0x40 MSTORE SWAP1 PUSH28 0xFFFFFFFFFFFFFFFFFFFFFFFFFFFFFFFFFFFFFFFFFFFFFFFFFFFFFFFF NOT AND PUSH1 0x20 DUP3 ADD DUP1 MLOAD PUSH28 0xFFFFFFFFFFFFFFFFFFFFFFFFFFFFFFFFFFFFFFFFFFFFFFFFFFFFFFFF DUP4 DUP2 DUP4 AND OR DUP4 MSTORE POP POP POP POP PUSH1 0x40 MLOAD PUSH2 0x116 SWAP2 SWAP1 PUSH2 0x26F JUMP JUMPDEST PUSH1 0x0 PUSH1 0x40 MLOAD DUP1 DUP4 SUB DUP2 DUP6 GAS DELEGATECALL SWAP2 POP POP RETURNDATASIZE DUP1 PUSH1 0x0 DUP2 EQ PUSH2 0x151 JUMPI PUSH1 0x40 MLOAD SWAP2 POP PUSH1 0x1F NOT PUSH1 0x3F RETURNDATASIZE ADD AND DUP3 ADD PUSH1 0x40 MSTORE RETURNDATASIZE DUP3 MSTORE RETURNDATASIZE PUSH1 0x0 PUSH1 0x20 DUP5 ADD RETURNDATACOPY PUSH2 0x156 JUMP JUMPDEST PUSH1 0x60 SWAP2 POP JUMPDEST POP SWAP2 POP SWAP2 POP POP POP POP POP POP POP JUMP JUMPDEST PUSH1 0x0 SELFBALANCE SWAP1 POP SWAP1 JUMP JUMPDEST PUSH1 0x0 DUP2 CALLDATALOAD SWAP1 POP PUSH2 0x17A DUP2 PUSH2 0x374 JUMP JUMPDEST SWAP3 SWAP2 POP POP JUMP JUMPDEST PUSH1 0x0 DUP2 CALLDATALOAD SWAP1 POP PUSH2 0x18F DUP2 PUSH2 0x38B JUMP JUMPDEST SWAP3 SWAP2 POP POP JUMP JUMPDEST PUSH1 0x0 DUP2 CALLDATALOAD SWAP1 POP PUSH2 0x1A4 DUP2 PUSH2 0x3A2 JUMP JUMPDEST SWAP3 SWAP2 POP POP JUMP JUMPDEST PUSH1 0x0 DUP1 PUSH1 0x0 DUP1 PUSH1 0x80 DUP6 DUP8 SUB SLT ISZERO PUSH2 0x1C4 JUMPI PUSH2 0x1C3 PUSH2 0x36F JUMP JUMPDEST JUMPDEST PUSH1 0x0 PUSH2 0x1D2 DUP8 DUP3 DUP9 ADD PUSH2 0x16B JUMP JUMPDEST SWAP5 POP POP PUSH1 0x20 PUSH2 0x1E3 DUP8 DUP3 DUP9 ADD PUSH2 0x180 JUMP JUMPDEST SWAP4 POP POP PUSH1 0x40 PUSH2 0x1F4 DUP8 DUP3 DUP9 ADD PUSH2 0x16B JUMP JUMPDEST SWAP3 POP POP PUSH1 0x60 PUSH2 0x205 DUP8 DUP3 DUP9 ADD PUSH2 0x195 JUMP JUMPDEST SWAP2 POP POP SWAP3 SWAP6 SWAP2 SWAP5 POP SWAP3 POP JUMP JUMPDEST PUSH2 0x21A DUP2 PUSH2 0x300 JUMP JUMPDEST DUP3 MSTORE POP POP JUMP JUMPDEST PUSH2 0x229 DUP2 PUSH2 0x2EE JUMP JUMPDEST DUP3 MSTORE POP POP JUMP JUMPDEST PUSH1 0x0 PUSH2 0x23A DUP3 PUSH2 0x2D8 JUMP JUMPDEST PUSH2 0x244 DUP2 DUP6 PUSH2 0x2E3 JUMP JUMPDEST SWAP4 POP PUSH2 0x254 DUP2 DUP6 PUSH1 0x20 DUP7 ADD PUSH2 0x33C JUMP JUMPDEST DUP1 DUP5 ADD SWAP2 POP POP SWAP3 SWAP2 POP POP JUMP JUMPDEST PUSH2 0x269 DUP2 PUSH2 0x332 JUMP JUMPDEST DUP3 MSTORE POP POP JUMP JUMPDEST PUSH1 0x0 PUSH2 0x27B DUP3 DUP5 PUSH2 0x22F JUMP JUMPDEST SWAP2 POP DUP2 SWAP1 POP SWAP3 SWAP2 POP POP JUMP JUMPDEST PUSH1 0x0 PUSH1 0x60 DUP3 ADD SWAP1 POP PUSH2 0x29B PUSH1 0x0 DUP4 ADD DUP7 PUSH2 0x211 JUMP JUMPDEST PUSH2 0x2A8 PUSH1 0x20 DUP4 ADD DUP6 PUSH2 0x220 JUMP JUMPDEST PUSH2 0x2B5 PUSH1 0x40 DUP4 ADD DUP5 PUSH2 0x260 JUMP JUMPDEST SWAP5 SWAP4 POP POP POP POP JUMP JUMPDEST PUSH1 0x0 PUSH1 0x20 DUP3 ADD SWAP1 POP PUSH2 0x2D2 PUSH1 0x0 DUP4 ADD DUP5 PUSH2 0x260 JUMP JUMPDEST SWAP3 SWAP2 POP POP JUMP JUMPDEST PUSH1 0x0 DUP2 MLOAD SWAP1 POP SWAP2 SWAP1 POP JUMP JUMPDEST PUSH1 0x0 DUP2 SWAP1 POP SWAP3 SWAP2 POP POP JUMP JUMPDEST PUSH1 0x0 PUSH2 0x2F9 DUP3 PUSH2 0x312 JUMP JUMPDEST SWAP1 POP SWAP2 SWAP1 POP JUMP JUMPDEST PUSH1 0x0 PUSH2 0x30B DUP3 PUSH2 0x312 JUMP JUMPDEST SWAP1 POP SWAP2 SWAP1 POP JUMP JUMPDEST PUSH1 0x0 PUSH20 0xFFFFFFFFFFFFFFFFFFFFFFFFFFFFFFFFFFFFFFFF DUP3 AND SWAP1 POP SWAP2 SWAP1 POP JUMP JUMPDEST PUSH1 0x0 DUP2 SWAP1 POP SWAP2 SWAP1 POP JUMP JUMPDEST PUSH1 0x0 JUMPDEST DUP4 DUP2 LT ISZERO PUSH2 0x35A JUMPI DUP1 DUP3 ADD MLOAD DUP2 DUP5 ADD MSTORE PUSH1 0x20 DUP2 ADD SWAP1 POP PUSH2 0x33F JUMP JUMPDEST DUP4 DUP2 GT ISZERO PUSH2 0x369 JUMPI PUSH1 0x0 DUP5 DUP5 ADD MSTORE JUMPDEST POP POP POP POP JUMP JUMPDEST PUSH1 0x0 DUP1 REVERT JUMPDEST PUSH2 0x37D DUP2 PUSH2 0x2EE JUMP JUMPDEST DUP2 EQ PUSH2 0x388 JUMPI PUSH1 0x0 DUP1 REVERT JUMPDEST POP JUMP JUMPDEST PUSH2 0x394 DUP2 PUSH2 0x300 JUMP JUMPDEST DUP2 EQ PUSH2 0x39F JUMPI PUSH1 0x0 DUP1 REVERT JUMPDEST POP JUMP JUMPDEST PUSH2 0x3AB DUP2 PUSH2 0x332 JUMP JUMPDEST DUP2 EQ PUSH2 0x3B6 JUMPI PUSH1 0x0 DUP1 REVERT JUMPDEST POP JUMP INVALID LOG2 PUSH5 0x6970667358 0x22 SLT KECCAK256 SELFBALANCE 0xE9 0x28 0xE3 REVERT 0xC GASPRICE JUMPI 0x2D LOG1 RETURN 0xDA 0xB9 0xAC DUP3 0xB4 ISZERO 0xC CREATE SWAP12 NOT PUSH10 0x165FC8BE7C342A4B18C9 PUSH5 0x736F6C6343 STOP ADDMOD SMOD STOP CALLER "
				},
				"gasEstimates": {
					"creation": {
						"codeDepositCost": "201400",
						"executionCost": "221",
						"totalCost": "201621"
					},
					"external": {
						"getBalance()": "339",
						"send(address,address,address,uint256)": "infinite"
					}
				},
				"methodIdentifiers": {
					"getBalance()": "12065fe0",
					"send(address,address,address,uint256)": "06e83e2f"
				}
			},
			"storageLayout": {
				"storage": [],
				"types": null
			},
			"userdoc": {
				"kind": "user",
				"methods": {},
				"version": 1
			}
		}
	}
}