{
	"DutchAuction.sol": {
		"DutchAuction": {
			"abi": [
				{
					"inputs": [
						{
							"internalType": "uint256",
							"name": "_startingPrice",
							"type": "uint256"
						},
						{
							"internalType": "uint256",
							"name": "_discount",
							"type": "uint256"
						},
						{
							"internalType": "address",
							"name": "_nft",
							"type": "address"
						},
						{
							"internalType": "uint256",
							"name": "_nftId",
							"type": "uint256"
						}
					],
					"stateMutability": "nonpayable",
					"type": "constructor"
				},
				{
					"inputs": [],
					"name": "DURATION",
					"outputs": [
						{
							"internalType": "uint256",
							"name": "",
							"type": "uint256"
						}
					],
					"stateMutability": "view",
					"type": "function"
				},
				{
					"inputs": [],
					"name": "discount",
					"outputs": [
						{
							"internalType": "uint256",
							"name": "",
							"type": "uint256"
						}
					],
					"stateMutability": "view",
					"type": "function"
				},
				{
					"inputs": [],
					"name": "expiresAt",
					"outputs": [
						{
							"internalType": "uint256",
							"name": "",
							"type": "uint256"
						}
					],
					"stateMutability": "view",
					"type": "function"
				},
				{
					"inputs": [],
					"name": "nft",
					"outputs": [
						{
							"internalType": "contract ERC721",
							"name": "",
							"type": "address"
						}
					],
					"stateMutability": "view",
					"type": "function"
				},
				{
					"inputs": [],
					"name": "nftId",
					"outputs": [
						{
							"internalType": "uint256",
							"name": "",
							"type": "uint256"
						}
					],
					"stateMutability": "view",
					"type": "function"
				},
				{
					"inputs": [],
					"name": "seller",
					"outputs": [
						{
							"internalType": "address payable",
							"name": "",
							"type": "address"
						}
					],
					"stateMutability": "view",
					"type": "function"
				},
				{
					"inputs": [],
					"name": "startingAt",
					"outputs": [
						{
							"internalType": "uint256",
							"name": "",
							"type": "uint256"
						}
					],
					"stateMutability": "view",
					"type": "function"
				},
				{
					"inputs": [],
					"name": "startingPrice",
					"outputs": [
						{
							"internalType": "uint256",
							"name": "",
							"type": "uint256"
						}
					],
					"stateMutability": "view",
					"type": "function"
				}
			],
			"devdoc": {
				"kind": "dev",
				"methods": {},
				"version": 1
			},
			"evm": {
				"assembly": "    /* \"DutchAuction.sol\":80:908  contract DutchAuction{... */\n  mstore(0x40, 0x0160)\n    /* \"DutchAuction.sol\":415:904  constructor(... */\n  callvalue\n  dup1\n  iszero\n  tag_1\n  jumpi\n  0x00\n  dup1\n  revert\ntag_1:\n  pop\n  mload(0x40)\n  sub(codesize, bytecodeSize)\n  dup1\n  bytecodeSize\n  dup4\n  codecopy\n  dup2\n  dup2\n  add\n  0x40\n  mstore\n  dup2\n  add\n  swap1\n  tag_2\n  swap2\n  swap1\n  tag_3\n  jump\t// in\ntag_2:\n    /* \"DutchAuction.sol\":555:565  msg.sender */\n  caller\n    /* \"DutchAuction.sol\":538:566  seller = payable(msg.sender) */\n  0xffffffffffffffffffffffffffffffffffffffff\n  and\n  0xc0\n  dup2\n  0xffffffffffffffffffffffffffffffffffffffff\n  and\n  0x60\n  shl\n  dup2\n  mstore\n  pop\n  pop\n    /* \"DutchAuction.sol\":599:600  0 */\n  0x00\n    /* \"DutchAuction.sol\":584:598  _startingPrice */\n  dup5\n    /* \"DutchAuction.sol\":584:600  _startingPrice>0 */\n  gt\n    /* \"DutchAuction.sol\":576:612  require(_startingPrice>0,\"price <0\") */\n  tag_6\n  jumpi\n  mload(0x40)\n  0x08c379a000000000000000000000000000000000000000000000000000000000\n  dup2\n  mstore\n  0x04\n  add\n  tag_7\n  swap1\n  tag_8\n  jump\t// in\ntag_7:\n  mload(0x40)\n  dup1\n  swap2\n  sub\n  swap1\n  revert\ntag_6:\n    /* \"DutchAuction.sol\":638:652  _startingPrice */\n  dup4\n    /* \"DutchAuction.sol\":622:652  startingPrice = _startingPrice */\n  0xe0\n  dup2\n  dup2\n  mstore\n  pop\n  pop\n    /* \"DutchAuction.sol\":673:682  _discount */\n  dup3\n    /* \"DutchAuction.sol\":662:682  discount = _discount */\n  0x0100\n  dup2\n  dup2\n  mstore\n  pop\n  pop\n    /* \"DutchAuction.sol\":705:709  _nft */\n  dup2\n    /* \"DutchAuction.sol\":692:710  nft = ERC721(_nft) */\n  0xffffffffffffffffffffffffffffffffffffffff\n  and\n  0x80\n  dup2\n  0xffffffffffffffffffffffffffffffffffffffff\n  and\n  0x60\n  shl\n  dup2\n  mstore\n  pop\n  pop\n    /* \"DutchAuction.sol\":728:734  _nftId */\n  dup1\n    /* \"DutchAuction.sol\":720:734  nftId = _nftId */\n  0xa0\n  dup2\n  dup2\n  mstore\n  pop\n  pop\n    /* \"DutchAuction.sol\":757:772  block.timestamp */\n  timestamp\n    /* \"DutchAuction.sol\":744:772  startingAt = block.timestamp */\n  0x0120\n  dup2\n  dup2\n  mstore\n  pop\n  pop\n    /* \"DutchAuction.sol\":139:145  7 days */\n  0x093a80\n    /* \"DutchAuction.sol\":794:809  block.timestamp */\n  timestamp\n    /* \"DutchAuction.sol\":794:818  block.timestamp+DURATION */\n  tag_9\n  swap2\n  swap1\n  tag_10\n  jump\t// in\ntag_9:\n    /* \"DutchAuction.sol\":782:818  expiresAt = block.timestamp+DURATION */\n  0x0140\n  dup2\n  dup2\n  mstore\n  pop\n  pop\n    /* \"DutchAuction.sol\":871:872  0 */\n  0x00\n    /* \"DutchAuction.sol\":860:869  _discount */\n  dup4\n    /* \"DutchAuction.sol\":139:145  7 days */\n  0x093a80\n    /* \"DutchAuction.sol\":851:869  DURATION*_discount */\n  tag_11\n  swap2\n  swap1\n  tag_12\n  jump\t// in\ntag_11:\n    /* \"DutchAuction.sol\":836:850  _startingPrice */\n  dup6\n    /* \"DutchAuction.sol\":836:869  _startingPrice-DURATION*_discount */\n  tag_13\n  swap2\n  swap1\n  tag_14\n  jump\t// in\ntag_13:\n    /* \"DutchAuction.sol\":836:872  _startingPrice-DURATION*_discount>=0 */\n  lt\n  iszero\n    /* \"DutchAuction.sol\":828:892  require(_startingPrice-DURATION*_discount>=0,\"discount too big\") */\n  tag_15\n  jumpi\n  mload(0x40)\n  0x08c379a000000000000000000000000000000000000000000000000000000000\n  dup2\n  mstore\n  0x04\n  add\n  tag_16\n  swap1\n  tag_17\n  jump\t// in\ntag_16:\n  mload(0x40)\n  dup1\n  swap2\n  sub\n  swap1\n  revert\ntag_15:\n    /* \"DutchAuction.sol\":415:904  constructor(... */\n  pop\n  pop\n  pop\n  pop\n    /* \"DutchAuction.sol\":80:908  contract DutchAuction{... */\n  jump(tag_18)\n    /* \"#utility.yul\":7:150   */\ntag_20:\n    /* \"#utility.yul\":64:69   */\n  0x00\n    /* \"#utility.yul\":95:101   */\n  dup2\n    /* \"#utility.yul\":89:102   */\n  mload\n    /* \"#utility.yul\":80:102   */\n  swap1\n  pop\n    /* \"#utility.yul\":111:144   */\n  tag_22\n    /* \"#utility.yul\":138:143   */\n  dup2\n    /* \"#utility.yul\":111:144   */\n  tag_23\n  jump\t// in\ntag_22:\n    /* \"#utility.yul\":7:150   */\n  swap3\n  swap2\n  pop\n  pop\n  jump\t// out\n    /* \"#utility.yul\":156:299   */\ntag_24:\n    /* \"#utility.yul\":213:218   */\n  0x00\n    /* \"#utility.yul\":244:250   */\n  dup2\n    /* \"#utility.yul\":238:251   */\n  mload\n    /* \"#utility.yul\":229:251   */\n  swap1\n  pop\n    /* \"#utility.yul\":260:293   */\n  tag_26\n    /* \"#utility.yul\":287:292   */\n  dup2\n    /* \"#utility.yul\":260:293   */\n  tag_27\n  jump\t// in\ntag_26:\n    /* \"#utility.yul\":156:299   */\n  swap3\n  swap2\n  pop\n  pop\n  jump\t// out\n    /* \"#utility.yul\":305:1125   */\ntag_3:\n    /* \"#utility.yul\":402:408   */\n  0x00\n    /* \"#utility.yul\":410:416   */\n  dup1\n    /* \"#utility.yul\":418:424   */\n  0x00\n    /* \"#utility.yul\":426:432   */\n  dup1\n    /* \"#utility.yul\":475:478   */\n  0x80\n    /* \"#utility.yul\":463:472   */\n  dup6\n    /* \"#utility.yul\":454:461   */\n  dup8\n    /* \"#utility.yul\":450:473   */\n  sub\n    /* \"#utility.yul\":446:479   */\n  slt\n    /* \"#utility.yul\":443:563   */\n  iszero\n  tag_29\n  jumpi\n    /* \"#utility.yul\":482:561   */\n  tag_30\n  tag_31\n  jump\t// in\ntag_30:\n    /* \"#utility.yul\":443:563   */\ntag_29:\n    /* \"#utility.yul\":602:603   */\n  0x00\n    /* \"#utility.yul\":627:691   */\n  tag_32\n    /* \"#utility.yul\":683:690   */\n  dup8\n    /* \"#utility.yul\":674:680   */\n  dup3\n    /* \"#utility.yul\":663:672   */\n  dup9\n    /* \"#utility.yul\":659:681   */\n  add\n    /* \"#utility.yul\":627:691   */\n  tag_24\n  jump\t// in\ntag_32:\n    /* \"#utility.yul\":617:691   */\n  swap5\n  pop\n    /* \"#utility.yul\":573:701   */\n  pop\n    /* \"#utility.yul\":740:742   */\n  0x20\n    /* \"#utility.yul\":766:830   */\n  tag_33\n    /* \"#utility.yul\":822:829   */\n  dup8\n    /* \"#utility.yul\":813:819   */\n  dup3\n    /* \"#utility.yul\":802:811   */\n  dup9\n    /* \"#utility.yul\":798:820   */\n  add\n    /* \"#utility.yul\":766:830   */\n  tag_24\n  jump\t// in\ntag_33:\n    /* \"#utility.yul\":756:830   */\n  swap4\n  pop\n    /* \"#utility.yul\":711:840   */\n  pop\n    /* \"#utility.yul\":879:881   */\n  0x40\n    /* \"#utility.yul\":905:969   */\n  tag_34\n    /* \"#utility.yul\":961:968   */\n  dup8\n    /* \"#utility.yul\":952:958   */\n  dup3\n    /* \"#utility.yul\":941:950   */\n  dup9\n    /* \"#utility.yul\":937:959   */\n  add\n    /* \"#utility.yul\":905:969   */\n  tag_20\n  jump\t// in\ntag_34:\n    /* \"#utility.yul\":895:969   */\n  swap3\n  pop\n    /* \"#utility.yul\":850:979   */\n  pop\n    /* \"#utility.yul\":1018:1020   */\n  0x60\n    /* \"#utility.yul\":1044:1108   */\n  tag_35\n    /* \"#utility.yul\":1100:1107   */\n  dup8\n    /* \"#utility.yul\":1091:1097   */\n  dup3\n    /* \"#utility.yul\":1080:1089   */\n  dup9\n    /* \"#utility.yul\":1076:1098   */\n  add\n    /* \"#utility.yul\":1044:1108   */\n  tag_24\n  jump\t// in\ntag_35:\n    /* \"#utility.yul\":1034:1108   */\n  swap2\n  pop\n    /* \"#utility.yul\":989:1118   */\n  pop\n    /* \"#utility.yul\":305:1125   */\n  swap3\n  swap6\n  swap2\n  swap5\n  pop\n  swap3\n  pop\n  jump\t// out\n    /* \"#utility.yul\":1131:1497   */\ntag_36:\n    /* \"#utility.yul\":1273:1276   */\n  0x00\n    /* \"#utility.yul\":1294:1361   */\n  tag_38\n    /* \"#utility.yul\":1358:1360   */\n  0x10\n    /* \"#utility.yul\":1353:1356   */\n  dup4\n    /* \"#utility.yul\":1294:1361   */\n  tag_39\n  jump\t// in\ntag_38:\n    /* \"#utility.yul\":1287:1361   */\n  swap2\n  pop\n    /* \"#utility.yul\":1370:1463   */\n  tag_40\n    /* \"#utility.yul\":1459:1462   */\n  dup3\n    /* \"#utility.yul\":1370:1463   */\n  tag_41\n  jump\t// in\ntag_40:\n    /* \"#utility.yul\":1488:1490   */\n  0x20\n    /* \"#utility.yul\":1483:1486   */\n  dup3\n    /* \"#utility.yul\":1479:1491   */\n  add\n    /* \"#utility.yul\":1472:1491   */\n  swap1\n  pop\n    /* \"#utility.yul\":1131:1497   */\n  swap2\n  swap1\n  pop\n  jump\t// out\n    /* \"#utility.yul\":1503:1868   */\ntag_42:\n    /* \"#utility.yul\":1645:1648   */\n  0x00\n    /* \"#utility.yul\":1666:1732   */\n  tag_44\n    /* \"#utility.yul\":1730:1731   */\n  0x08\n    /* \"#utility.yul\":1725:1728   */\n  dup4\n    /* \"#utility.yul\":1666:1732   */\n  tag_39\n  jump\t// in\ntag_44:\n    /* \"#utility.yul\":1659:1732   */\n  swap2\n  pop\n    /* \"#utility.yul\":1741:1834   */\n  tag_45\n    /* \"#utility.yul\":1830:1833   */\n  dup3\n    /* \"#utility.yul\":1741:1834   */\n  tag_46\n  jump\t// in\ntag_45:\n    /* \"#utility.yul\":1859:1861   */\n  0x20\n    /* \"#utility.yul\":1854:1857   */\n  dup3\n    /* \"#utility.yul\":1850:1862   */\n  add\n    /* \"#utility.yul\":1843:1862   */\n  swap1\n  pop\n    /* \"#utility.yul\":1503:1868   */\n  swap2\n  swap1\n  pop\n  jump\t// out\n    /* \"#utility.yul\":1874:2293   */\ntag_17:\n    /* \"#utility.yul\":2040:2044   */\n  0x00\n    /* \"#utility.yul\":2078:2080   */\n  0x20\n    /* \"#utility.yul\":2067:2076   */\n  dup3\n    /* \"#utility.yul\":2063:2081   */\n  add\n    /* \"#utility.yul\":2055:2081   */\n  swap1\n  pop\n    /* \"#utility.yul\":2127:2136   */\n  dup2\n    /* \"#utility.yul\":2121:2125   */\n  dup2\n    /* \"#utility.yul\":2117:2137   */\n  sub\n    /* \"#utility.yul\":2113:2114   */\n  0x00\n    /* \"#utility.yul\":2102:2111   */\n  dup4\n    /* \"#utility.yul\":2098:2115   */\n  add\n    /* \"#utility.yul\":2091:2138   */\n  mstore\n    /* \"#utility.yul\":2155:2286   */\n  tag_48\n    /* \"#utility.yul\":2281:2285   */\n  dup2\n    /* \"#utility.yul\":2155:2286   */\n  tag_36\n  jump\t// in\ntag_48:\n    /* \"#utility.yul\":2147:2286   */\n  swap1\n  pop\n    /* \"#utility.yul\":1874:2293   */\n  swap2\n  swap1\n  pop\n  jump\t// out\n    /* \"#utility.yul\":2299:2718   */\ntag_8:\n    /* \"#utility.yul\":2465:2469   */\n  0x00\n    /* \"#utility.yul\":2503:2505   */\n  0x20\n    /* \"#utility.yul\":2492:2501   */\n  dup3\n    /* \"#utility.yul\":2488:2506   */\n  add\n    /* \"#utility.yul\":2480:2506   */\n  swap1\n  pop\n    /* \"#utility.yul\":2552:2561   */\n  dup2\n    /* \"#utility.yul\":2546:2550   */\n  dup2\n    /* \"#utility.yul\":2542:2562   */\n  sub\n    /* \"#utility.yul\":2538:2539   */\n  0x00\n    /* \"#utility.yul\":2527:2536   */\n  dup4\n    /* \"#utility.yul\":2523:2540   */\n  add\n    /* \"#utility.yul\":2516:2563   */\n  mstore\n    /* \"#utility.yul\":2580:2711   */\n  tag_50\n    /* \"#utility.yul\":2706:2710   */\n  dup2\n    /* \"#utility.yul\":2580:2711   */\n  tag_42\n  jump\t// in\ntag_50:\n    /* \"#utility.yul\":2572:2711   */\n  swap1\n  pop\n    /* \"#utility.yul\":2299:2718   */\n  swap2\n  swap1\n  pop\n  jump\t// out\n    /* \"#utility.yul\":2805:2974   */\ntag_39:\n    /* \"#utility.yul\":2889:2900   */\n  0x00\n    /* \"#utility.yul\":2923:2929   */\n  dup3\n    /* \"#utility.yul\":2918:2921   */\n  dup3\n    /* \"#utility.yul\":2911:2930   */\n  mstore\n    /* \"#utility.yul\":2963:2967   */\n  0x20\n    /* \"#utility.yul\":2958:2961   */\n  dup3\n    /* \"#utility.yul\":2954:2968   */\n  add\n    /* \"#utility.yul\":2939:2968   */\n  swap1\n  pop\n    /* \"#utility.yul\":2805:2974   */\n  swap3\n  swap2\n  pop\n  pop\n  jump\t// out\n    /* \"#utility.yul\":2980:3285   */\ntag_10:\n    /* \"#utility.yul\":3020:3023   */\n  0x00\n    /* \"#utility.yul\":3039:3059   */\n  tag_55\n    /* \"#utility.yul\":3057:3058   */\n  dup3\n    /* \"#utility.yul\":3039:3059   */\n  tag_56\n  jump\t// in\ntag_55:\n    /* \"#utility.yul\":3034:3059   */\n  swap2\n  pop\n    /* \"#utility.yul\":3073:3093   */\n  tag_57\n    /* \"#utility.yul\":3091:3092   */\n  dup4\n    /* \"#utility.yul\":3073:3093   */\n  tag_56\n  jump\t// in\ntag_57:\n    /* \"#utility.yul\":3068:3093   */\n  swap3\n  pop\n    /* \"#utility.yul\":3227:3228   */\n  dup3\n    /* \"#utility.yul\":3159:3225   */\n  0xffffffffffffffffffffffffffffffffffffffffffffffffffffffffffffffff\n    /* \"#utility.yul\":3155:3229   */\n  sub\n    /* \"#utility.yul\":3152:3153   */\n  dup3\n    /* \"#utility.yul\":3149:3230   */\n  gt\n    /* \"#utility.yul\":3146:3253   */\n  iszero\n  tag_58\n  jumpi\n    /* \"#utility.yul\":3233:3251   */\n  tag_59\n  tag_60\n  jump\t// in\ntag_59:\n    /* \"#utility.yul\":3146:3253   */\ntag_58:\n    /* \"#utility.yul\":3277:3278   */\n  dup3\n    /* \"#utility.yul\":3274:3275   */\n  dup3\n    /* \"#utility.yul\":3270:3279   */\n  add\n    /* \"#utility.yul\":3263:3279   */\n  swap1\n  pop\n    /* \"#utility.yul\":2980:3285   */\n  swap3\n  swap2\n  pop\n  pop\n  jump\t// out\n    /* \"#utility.yul\":3291:3639   */\ntag_12:\n    /* \"#utility.yul\":3331:3338   */\n  0x00\n    /* \"#utility.yul\":3354:3374   */\n  tag_62\n    /* \"#utility.yul\":3372:3373   */\n  dup3\n    /* \"#utility.yul\":3354:3374   */\n  tag_56\n  jump\t// in\ntag_62:\n    /* \"#utility.yul\":3349:3374   */\n  swap2\n  pop\n    /* \"#utility.yul\":3388:3408   */\n  tag_63\n    /* \"#utility.yul\":3406:3407   */\n  dup4\n    /* \"#utility.yul\":3388:3408   */\n  tag_56\n  jump\t// in\ntag_63:\n    /* \"#utility.yul\":3383:3408   */\n  swap3\n  pop\n    /* \"#utility.yul\":3576:3577   */\n  dup2\n    /* \"#utility.yul\":3508:3574   */\n  0xffffffffffffffffffffffffffffffffffffffffffffffffffffffffffffffff\n    /* \"#utility.yul\":3504:3578   */\n  div\n    /* \"#utility.yul\":3501:3502   */\n  dup4\n    /* \"#utility.yul\":3498:3579   */\n  gt\n    /* \"#utility.yul\":3493:3494   */\n  dup3\n    /* \"#utility.yul\":3486:3495   */\n  iszero\n    /* \"#utility.yul\":3479:3496   */\n  iszero\n    /* \"#utility.yul\":3475:3580   */\n  and\n    /* \"#utility.yul\":3472:3603   */\n  iszero\n  tag_64\n  jumpi\n    /* \"#utility.yul\":3583:3601   */\n  tag_65\n  tag_60\n  jump\t// in\ntag_65:\n    /* \"#utility.yul\":3472:3603   */\ntag_64:\n    /* \"#utility.yul\":3631:3632   */\n  dup3\n    /* \"#utility.yul\":3628:3629   */\n  dup3\n    /* \"#utility.yul\":3624:3633   */\n  mul\n    /* \"#utility.yul\":3613:3633   */\n  swap1\n  pop\n    /* \"#utility.yul\":3291:3639   */\n  swap3\n  swap2\n  pop\n  pop\n  jump\t// out\n    /* \"#utility.yul\":3645:3836   */\ntag_14:\n    /* \"#utility.yul\":3685:3689   */\n  0x00\n    /* \"#utility.yul\":3705:3725   */\n  tag_67\n    /* \"#utility.yul\":3723:3724   */\n  dup3\n    /* \"#utility.yul\":3705:3725   */\n  tag_56\n  jump\t// in\ntag_67:\n    /* \"#utility.yul\":3700:3725   */\n  swap2\n  pop\n    /* \"#utility.yul\":3739:3759   */\n  tag_68\n    /* \"#utility.yul\":3757:3758   */\n  dup4\n    /* \"#utility.yul\":3739:3759   */\n  tag_56\n  jump\t// in\ntag_68:\n    /* \"#utility.yul\":3734:3759   */\n  swap3\n  pop\n    /* \"#utility.yul\":3778:3779   */\n  dup3\n    /* \"#utility.yul\":3775:3776   */\n  dup3\n    /* \"#utility.yul\":3772:3780   */\n  lt\n    /* \"#utility.yul\":3769:3803   */\n  iszero\n  tag_69\n  jumpi\n    /* \"#utility.yul\":3783:3801   */\n  tag_70\n  tag_60\n  jump\t// in\ntag_70:\n    /* \"#utility.yul\":3769:3803   */\ntag_69:\n    /* \"#utility.yul\":3828:3829   */\n  dup3\n    /* \"#utility.yul\":3825:3826   */\n  dup3\n    /* \"#utility.yul\":3821:3830   */\n  sub\n    /* \"#utility.yul\":3813:3830   */\n  swap1\n  pop\n    /* \"#utility.yul\":3645:3836   */\n  swap3\n  swap2\n  pop\n  pop\n  jump\t// out\n    /* \"#utility.yul\":3842:3938   */\ntag_71:\n    /* \"#utility.yul\":3879:3886   */\n  0x00\n    /* \"#utility.yul\":3908:3932   */\n  tag_73\n    /* \"#utility.yul\":3926:3931   */\n  dup3\n    /* \"#utility.yul\":3908:3932   */\n  tag_74\n  jump\t// in\ntag_73:\n    /* \"#utility.yul\":3897:3932   */\n  swap1\n  pop\n    /* \"#utility.yul\":3842:3938   */\n  swap2\n  swap1\n  pop\n  jump\t// out\n    /* \"#utility.yul\":3944:4070   */\ntag_74:\n    /* \"#utility.yul\":3981:3988   */\n  0x00\n    /* \"#utility.yul\":4021:4063   */\n  0xffffffffffffffffffffffffffffffffffffffff\n    /* \"#utility.yul\":4014:4019   */\n  dup3\n    /* \"#utility.yul\":4010:4064   */\n  and\n    /* \"#utility.yul\":3999:4064   */\n  swap1\n  pop\n    /* \"#utility.yul\":3944:4070   */\n  swap2\n  swap1\n  pop\n  jump\t// out\n    /* \"#utility.yul\":4076:4153   */\ntag_56:\n    /* \"#utility.yul\":4113:4120   */\n  0x00\n    /* \"#utility.yul\":4142:4147   */\n  dup2\n    /* \"#utility.yul\":4131:4147   */\n  swap1\n  pop\n    /* \"#utility.yul\":4076:4153   */\n  swap2\n  swap1\n  pop\n  jump\t// out\n    /* \"#utility.yul\":4159:4339   */\ntag_60:\n    /* \"#utility.yul\":4207:4284   */\n  0x4e487b7100000000000000000000000000000000000000000000000000000000\n    /* \"#utility.yul\":4204:4205   */\n  0x00\n    /* \"#utility.yul\":4197:4285   */\n  mstore\n    /* \"#utility.yul\":4304:4308   */\n  0x11\n    /* \"#utility.yul\":4301:4302   */\n  0x04\n    /* \"#utility.yul\":4294:4309   */\n  mstore\n    /* \"#utility.yul\":4328:4332   */\n  0x24\n    /* \"#utility.yul\":4325:4326   */\n  0x00\n    /* \"#utility.yul\":4318:4333   */\n  revert\n    /* \"#utility.yul\":4468:4585   */\ntag_31:\n    /* \"#utility.yul\":4577:4578   */\n  0x00\n    /* \"#utility.yul\":4574:4575   */\n  dup1\n    /* \"#utility.yul\":4567:4579   */\n  revert\n    /* \"#utility.yul\":4591:4757   */\ntag_41:\n    /* \"#utility.yul\":4731:4749   */\n  0x646973636f756e7420746f6f2062696700000000000000000000000000000000\n    /* \"#utility.yul\":4727:4728   */\n  0x00\n    /* \"#utility.yul\":4719:4725   */\n  dup3\n    /* \"#utility.yul\":4715:4729   */\n  add\n    /* \"#utility.yul\":4708:4750   */\n  mstore\n    /* \"#utility.yul\":4591:4757   */\n  pop\n  jump\t// out\n    /* \"#utility.yul\":4763:4921   */\ntag_46:\n    /* \"#utility.yul\":4903:4913   */\n  0x7072696365203c30000000000000000000000000000000000000000000000000\n    /* \"#utility.yul\":4899:4900   */\n  0x00\n    /* \"#utility.yul\":4891:4897   */\n  dup3\n    /* \"#utility.yul\":4887:4901   */\n  add\n    /* \"#utility.yul\":4880:4914   */\n  mstore\n    /* \"#utility.yul\":4763:4921   */\n  pop\n  jump\t// out\n    /* \"#utility.yul\":4927:5049   */\ntag_23:\n    /* \"#utility.yul\":5000:5024   */\n  tag_84\n    /* \"#utility.yul\":5018:5023   */\n  dup2\n    /* \"#utility.yul\":5000:5024   */\n  tag_71\n  jump\t// in\ntag_84:\n    /* \"#utility.yul\":4993:4998   */\n  dup2\n    /* \"#utility.yul\":4990:5025   */\n  eq\n    /* \"#utility.yul\":4980:5043   */\n  tag_85\n  jumpi\n    /* \"#utility.yul\":5039:5040   */\n  0x00\n    /* \"#utility.yul\":5036:5037   */\n  dup1\n    /* \"#utility.yul\":5029:5041   */\n  revert\n    /* \"#utility.yul\":4980:5043   */\ntag_85:\n    /* \"#utility.yul\":4927:5049   */\n  pop\n  jump\t// out\n    /* \"#utility.yul\":5055:5177   */\ntag_27:\n    /* \"#utility.yul\":5128:5152   */\n  tag_87\n    /* \"#utility.yul\":5146:5151   */\n  dup2\n    /* \"#utility.yul\":5128:5152   */\n  tag_56\n  jump\t// in\ntag_87:\n    /* \"#utility.yul\":5121:5126   */\n  dup2\n    /* \"#utility.yul\":5118:5153   */\n  eq\n    /* \"#utility.yul\":5108:5171   */\n  tag_88\n  jumpi\n    /* \"#utility.yul\":5167:5168   */\n  0x00\n    /* \"#utility.yul\":5164:5165   */\n  dup1\n    /* \"#utility.yul\":5157:5169   */\n  revert\n    /* \"#utility.yul\":5108:5171   */\ntag_88:\n    /* \"#utility.yul\":5055:5177   */\n  pop\n  jump\t// out\n    /* \"DutchAuction.sol\":80:908  contract DutchAuction{... */\ntag_18:\n  shr(0x60, mload(0x80))\n  mload(0xa0)\n  shr(0x60, mload(0xc0))\n  mload(0xe0)\n  mload(0x0100)\n  mload(0x0120)\n  mload(0x0140)\n  codecopy(0x00, dataOffset(sub_0), dataSize(sub_0))\n  0x00\n  assignImmutable(\"0x731dc163f73d31d8c68f9917ce4ff967753939f70432973c04fd2c2a48148607\")\n  0x00\n  assignImmutable(\"0x8fef2229291b68be841adf029e58b87f39ba144b2d3b0af1760243d0a9bc6a1c\")\n  0x00\n  assignImmutable(\"0x277ab82e5a4641341820a4a2933a62c1de997e42e92548657ae21b3728d580fe\")\n  0x00\n  assignImmutable(\"0x5c4c6aa067b6f8e6cb38e6ab843832a94d1712d661a04d73c517d6a1931a9e5d\")\n  0x00\n  assignImmutable(\"0x7f8b6b088b6d74c2852fc86c796dca07b44eed6fb3daf5e6b59f7c364db14528\")\n  0x00\n  assignImmutable(\"0x1a192fabce13988b84994d4296e6cdc418d55e2f1d7f942188d4040b94fc57ac\")\n  0x00\n  assignImmutable(\"0xe4b1702d9298fee62dfeccc57d322a463ad55ca201256d01f62b45b2e1c21c10\")\n  return(0x00, dataSize(sub_0))\nstop\n\nsub_0: assembly {\n        /* \"DutchAuction.sol\":80:908  contract DutchAuction{... */\n      mstore(0x40, 0x80)\n      callvalue\n      dup1\n      iszero\n      tag_1\n      jumpi\n      0x00\n      dup1\n      revert\n    tag_1:\n      pop\n      jumpi(tag_2, lt(calldatasize, 0x04))\n      shr(0xe0, calldataload(0x00))\n      dup1\n      0x8622a689\n      gt\n      tag_11\n      jumpi\n      dup1\n      0x8622a689\n      eq\n      tag_7\n      jumpi\n      dup1\n      0xc6bc5182\n      eq\n      tag_8\n      jumpi\n      dup1\n      0xd6fbf202\n      eq\n      tag_9\n      jumpi\n      dup1\n      0xdccd4315\n      eq\n      tag_10\n      jumpi\n      jump(tag_2)\n    tag_11:\n      dup1\n      0x08551a53\n      eq\n      tag_3\n      jumpi\n      dup1\n      0x1be05289\n      eq\n      tag_4\n      jumpi\n      dup1\n      0x47ccca02\n      eq\n      tag_5\n      jumpi\n      dup1\n      0x6b6f4a9d\n      eq\n      tag_6\n      jumpi\n    tag_2:\n      0x00\n      dup1\n      revert\n        /* \"DutchAuction.sol\":217:256  address payable public immutable seller */\n    tag_3:\n      tag_12\n      tag_13\n      jump\t// in\n    tag_12:\n      mload(0x40)\n      tag_14\n      swap2\n      swap1\n      tag_15\n      jump\t// in\n    tag_14:\n      mload(0x40)\n      dup1\n      swap2\n      sub\n      swap1\n      return\n        /* \"DutchAuction.sol\":107:145  uint public constant DURATION = 7 days */\n    tag_4:\n      tag_16\n      tag_17\n      jump\t// in\n    tag_16:\n      mload(0x40)\n      tag_18\n      swap2\n      swap1\n      tag_19\n      jump\t// in\n    tag_18:\n      mload(0x40)\n      dup1\n      swap2\n      sub\n      swap1\n      return\n        /* \"DutchAuction.sol\":151:178  ERC721 public immutable nft */\n    tag_5:\n      tag_20\n      tag_21\n      jump\t// in\n    tag_20:\n      mload(0x40)\n      tag_22\n      swap2\n      swap1\n      tag_23\n      jump\t// in\n    tag_22:\n      mload(0x40)\n      dup1\n      swap2\n      sub\n      swap1\n      return\n        /* \"DutchAuction.sol\":303:333  uint public immutable discount */\n    tag_6:\n      tag_24\n      tag_25\n      jump\t// in\n    tag_24:\n      mload(0x40)\n      tag_26\n      swap2\n      swap1\n      tag_19\n      jump\t// in\n    tag_26:\n      mload(0x40)\n      dup1\n      swap2\n      sub\n      swap1\n      return\n        /* \"DutchAuction.sol\":377:408  uint public immutable expiresAt */\n    tag_7:\n      tag_27\n      tag_28\n      jump\t// in\n    tag_27:\n      mload(0x40)\n      tag_29\n      swap2\n      swap1\n      tag_19\n      jump\t// in\n    tag_29:\n      mload(0x40)\n      dup1\n      swap2\n      sub\n      swap1\n      return\n        /* \"DutchAuction.sol\":184:211  uint public immutable nftId */\n    tag_8:\n      tag_30\n      tag_31\n      jump\t// in\n    tag_30:\n      mload(0x40)\n      tag_32\n      swap2\n      swap1\n      tag_19\n      jump\t// in\n    tag_32:\n      mload(0x40)\n      dup1\n      swap2\n      sub\n      swap1\n      return\n        /* \"DutchAuction.sol\":262:297  uint public immutable startingPrice */\n    tag_9:\n      tag_33\n      tag_34\n      jump\t// in\n    tag_33:\n      mload(0x40)\n      tag_35\n      swap2\n      swap1\n      tag_19\n      jump\t// in\n    tag_35:\n      mload(0x40)\n      dup1\n      swap2\n      sub\n      swap1\n      return\n        /* \"DutchAuction.sol\":339:371  uint public immutable startingAt */\n    tag_10:\n      tag_36\n      tag_37\n      jump\t// in\n    tag_36:\n      mload(0x40)\n      tag_38\n      swap2\n      swap1\n      tag_19\n      jump\t// in\n    tag_38:\n      mload(0x40)\n      dup1\n      swap2\n      sub\n      swap1\n      return\n        /* \"DutchAuction.sol\":217:256  address payable public immutable seller */\n    tag_13:\n      immutable(\"0x7f8b6b088b6d74c2852fc86c796dca07b44eed6fb3daf5e6b59f7c364db14528\")\n      dup2\n      jump\t// out\n        /* \"DutchAuction.sol\":107:145  uint public constant DURATION = 7 days */\n    tag_17:\n        /* \"DutchAuction.sol\":139:145  7 days */\n      0x093a80\n        /* \"DutchAuction.sol\":107:145  uint public constant DURATION = 7 days */\n      dup2\n      jump\t// out\n        /* \"DutchAuction.sol\":151:178  ERC721 public immutable nft */\n    tag_21:\n      immutable(\"0xe4b1702d9298fee62dfeccc57d322a463ad55ca201256d01f62b45b2e1c21c10\")\n      dup2\n      jump\t// out\n        /* \"DutchAuction.sol\":303:333  uint public immutable discount */\n    tag_25:\n      immutable(\"0x277ab82e5a4641341820a4a2933a62c1de997e42e92548657ae21b3728d580fe\")\n      dup2\n      jump\t// out\n        /* \"DutchAuction.sol\":377:408  uint public immutable expiresAt */\n    tag_28:\n      immutable(\"0x731dc163f73d31d8c68f9917ce4ff967753939f70432973c04fd2c2a48148607\")\n      dup2\n      jump\t// out\n        /* \"DutchAuction.sol\":184:211  uint public immutable nftId */\n    tag_31:\n      immutable(\"0x1a192fabce13988b84994d4296e6cdc418d55e2f1d7f942188d4040b94fc57ac\")\n      dup2\n      jump\t// out\n        /* \"DutchAuction.sol\":262:297  uint public immutable startingPrice */\n    tag_34:\n      immutable(\"0x5c4c6aa067b6f8e6cb38e6ab843832a94d1712d661a04d73c517d6a1931a9e5d\")\n      dup2\n      jump\t// out\n        /* \"DutchAuction.sol\":339:371  uint public immutable startingAt */\n    tag_37:\n      immutable(\"0x8fef2229291b68be841adf029e58b87f39ba144b2d3b0af1760243d0a9bc6a1c\")\n      dup2\n      jump\t// out\n        /* \"#utility.yul\":7:149   */\n    tag_40:\n        /* \"#utility.yul\":110:142   */\n      tag_42\n        /* \"#utility.yul\":136:141   */\n      dup2\n        /* \"#utility.yul\":110:142   */\n      tag_43\n      jump\t// in\n    tag_42:\n        /* \"#utility.yul\":105:108   */\n      dup3\n        /* \"#utility.yul\":98:143   */\n      mstore\n        /* \"#utility.yul\":7:149   */\n      pop\n      pop\n      jump\t// out\n        /* \"#utility.yul\":155:314   */\n    tag_44:\n        /* \"#utility.yul\":256:307   */\n      tag_46\n        /* \"#utility.yul\":301:306   */\n      dup2\n        /* \"#utility.yul\":256:307   */\n      tag_47\n      jump\t// in\n    tag_46:\n        /* \"#utility.yul\":251:254   */\n      dup3\n        /* \"#utility.yul\":244:308   */\n      mstore\n        /* \"#utility.yul\":155:314   */\n      pop\n      pop\n      jump\t// out\n        /* \"#utility.yul\":320:438   */\n    tag_48:\n        /* \"#utility.yul\":407:431   */\n      tag_50\n        /* \"#utility.yul\":425:430   */\n      dup2\n        /* \"#utility.yul\":407:431   */\n      tag_51\n      jump\t// in\n    tag_50:\n        /* \"#utility.yul\":402:405   */\n      dup3\n        /* \"#utility.yul\":395:432   */\n      mstore\n        /* \"#utility.yul\":320:438   */\n      pop\n      pop\n      jump\t// out\n        /* \"#utility.yul\":444:698   */\n    tag_15:\n        /* \"#utility.yul\":553:557   */\n      0x00\n        /* \"#utility.yul\":591:593   */\n      0x20\n        /* \"#utility.yul\":580:589   */\n      dup3\n        /* \"#utility.yul\":576:594   */\n      add\n        /* \"#utility.yul\":568:594   */\n      swap1\n      pop\n        /* \"#utility.yul\":604:691   */\n      tag_53\n        /* \"#utility.yul\":688:689   */\n      0x00\n        /* \"#utility.yul\":677:686   */\n      dup4\n        /* \"#utility.yul\":673:690   */\n      add\n        /* \"#utility.yul\":664:670   */\n      dup5\n        /* \"#utility.yul\":604:691   */\n      tag_40\n      jump\t// in\n    tag_53:\n        /* \"#utility.yul\":444:698   */\n      swap3\n      swap2\n      pop\n      pop\n      jump\t// out\n        /* \"#utility.yul\":704:954   */\n    tag_23:\n        /* \"#utility.yul\":811:815   */\n      0x00\n        /* \"#utility.yul\":849:851   */\n      0x20\n        /* \"#utility.yul\":838:847   */\n      dup3\n        /* \"#utility.yul\":834:852   */\n      add\n        /* \"#utility.yul\":826:852   */\n      swap1\n      pop\n        /* \"#utility.yul\":862:947   */\n      tag_55\n        /* \"#utility.yul\":944:945   */\n      0x00\n        /* \"#utility.yul\":933:942   */\n      dup4\n        /* \"#utility.yul\":929:946   */\n      add\n        /* \"#utility.yul\":920:926   */\n      dup5\n        /* \"#utility.yul\":862:947   */\n      tag_44\n      jump\t// in\n    tag_55:\n        /* \"#utility.yul\":704:954   */\n      swap3\n      swap2\n      pop\n      pop\n      jump\t// out\n        /* \"#utility.yul\":960:1182   */\n    tag_19:\n        /* \"#utility.yul\":1053:1057   */\n      0x00\n        /* \"#utility.yul\":1091:1093   */\n      0x20\n        /* \"#utility.yul\":1080:1089   */\n      dup3\n        /* \"#utility.yul\":1076:1094   */\n      add\n        /* \"#utility.yul\":1068:1094   */\n      swap1\n      pop\n        /* \"#utility.yul\":1104:1175   */\n      tag_57\n        /* \"#utility.yul\":1172:1173   */\n      0x00\n        /* \"#utility.yul\":1161:1170   */\n      dup4\n        /* \"#utility.yul\":1157:1174   */\n      add\n        /* \"#utility.yul\":1148:1154   */\n      dup5\n        /* \"#utility.yul\":1104:1175   */\n      tag_48\n      jump\t// in\n    tag_57:\n        /* \"#utility.yul\":960:1182   */\n      swap3\n      swap2\n      pop\n      pop\n      jump\t// out\n        /* \"#utility.yul\":1188:1292   */\n    tag_43:\n        /* \"#utility.yul\":1233:1240   */\n      0x00\n        /* \"#utility.yul\":1262:1286   */\n      tag_59\n        /* \"#utility.yul\":1280:1285   */\n      dup3\n        /* \"#utility.yul\":1262:1286   */\n      tag_60\n      jump\t// in\n    tag_59:\n        /* \"#utility.yul\":1251:1286   */\n      swap1\n      pop\n        /* \"#utility.yul\":1188:1292   */\n      swap2\n      swap1\n      pop\n      jump\t// out\n        /* \"#utility.yul\":1298:1424   */\n    tag_60:\n        /* \"#utility.yul\":1335:1342   */\n      0x00\n        /* \"#utility.yul\":1375:1417   */\n      0xffffffffffffffffffffffffffffffffffffffff\n        /* \"#utility.yul\":1368:1373   */\n      dup3\n        /* \"#utility.yul\":1364:1418   */\n      and\n        /* \"#utility.yul\":1353:1418   */\n      swap1\n      pop\n        /* \"#utility.yul\":1298:1424   */\n      swap2\n      swap1\n      pop\n      jump\t// out\n        /* \"#utility.yul\":1430:1507   */\n    tag_51:\n        /* \"#utility.yul\":1467:1474   */\n      0x00\n        /* \"#utility.yul\":1496:1501   */\n      dup2\n        /* \"#utility.yul\":1485:1501   */\n      swap1\n      pop\n        /* \"#utility.yul\":1430:1507   */\n      swap2\n      swap1\n      pop\n      jump\t// out\n        /* \"#utility.yul\":1513:1653   */\n    tag_47:\n        /* \"#utility.yul\":1577:1586   */\n      0x00\n        /* \"#utility.yul\":1610:1647   */\n      tag_64\n        /* \"#utility.yul\":1641:1646   */\n      dup3\n        /* \"#utility.yul\":1610:1647   */\n      tag_65\n      jump\t// in\n    tag_64:\n        /* \"#utility.yul\":1597:1647   */\n      swap1\n      pop\n        /* \"#utility.yul\":1513:1653   */\n      swap2\n      swap1\n      pop\n      jump\t// out\n        /* \"#utility.yul\":1659:1785   */\n    tag_65:\n        /* \"#utility.yul\":1709:1718   */\n      0x00\n        /* \"#utility.yul\":1742:1779   */\n      tag_67\n        /* \"#utility.yul\":1773:1778   */\n      dup3\n        /* \"#utility.yul\":1742:1779   */\n      tag_68\n      jump\t// in\n    tag_67:\n        /* \"#utility.yul\":1729:1779   */\n      swap1\n      pop\n        /* \"#utility.yul\":1659:1785   */\n      swap2\n      swap1\n      pop\n      jump\t// out\n        /* \"#utility.yul\":1791:1904   */\n    tag_68:\n        /* \"#utility.yul\":1841:1850   */\n      0x00\n        /* \"#utility.yul\":1874:1898   */\n      tag_70\n        /* \"#utility.yul\":1892:1897   */\n      dup3\n        /* \"#utility.yul\":1874:1898   */\n      tag_60\n      jump\t// in\n    tag_70:\n        /* \"#utility.yul\":1861:1898   */\n      swap1\n      pop\n        /* \"#utility.yul\":1791:1904   */\n      swap2\n      swap1\n      pop\n      jump\t// out\n\n    auxdata: 0xa26469706673582212200f0dbfc53472196657da111368d5ad67651c9763b71c7e91320db3e4a4bddd2c64736f6c63430008070033\n}\n",
				"bytecode": {
					"linkReferences": {},
					"object": "61016060405234801561001157600080fd5b506040516200088838038062000888833981810160405281019061003591906101af565b3373ffffffffffffffffffffffffffffffffffffffff1660c08173ffffffffffffffffffffffffffffffffffffffff1660601b81525050600084116100af576040517f08c379a00000000000000000000000000000000000000000000000000000000081526004016100a69061027c565b60405180910390fd5b8360e081815250508261010081815250508173ffffffffffffffffffffffffffffffffffffffff1660808173ffffffffffffffffffffffffffffffffffffffff1660601b815250508060a0818152505042610120818152505062093a804261011791906102ad565b610140818152505060008362093a806101309190610303565b8561013b919061035d565b101561017c576040517f08c379a00000000000000000000000000000000000000000000000000000000081526004016101739061025c565b60405180910390fd5b50505050610481565b60008151905061019481610453565b92915050565b6000815190506101a98161046a565b92915050565b600080600080608085870312156101c9576101c86103fc565b5b60006101d78782880161019a565b94505060206101e88782880161019a565b93505060406101f987828801610185565b925050606061020a8782880161019a565b91505092959194509250565b600061022360108361029c565b915061022e82610401565b602082019050919050565b600061024660088361029c565b91506102518261042a565b602082019050919050565b6000602082019050818103600083015261027581610216565b9050919050565b6000602082019050818103600083015261029581610239565b9050919050565b600082825260208201905092915050565b60006102b8826103c3565b91506102c3836103c3565b9250827fffffffffffffffffffffffffffffffffffffffffffffffffffffffffffffffff038211156102f8576102f76103cd565b5b828201905092915050565b600061030e826103c3565b9150610319836103c3565b9250817fffffffffffffffffffffffffffffffffffffffffffffffffffffffffffffffff0483118215151615610352576103516103cd565b5b828202905092915050565b6000610368826103c3565b9150610373836103c3565b925082821015610386576103856103cd565b5b828203905092915050565b600061039c826103a3565b9050919050565b600073ffffffffffffffffffffffffffffffffffffffff82169050919050565b6000819050919050565b7f4e487b7100000000000000000000000000000000000000000000000000000000600052601160045260246000fd5b600080fd5b7f646973636f756e7420746f6f2062696700000000000000000000000000000000600082015250565b7f7072696365203c30000000000000000000000000000000000000000000000000600082015250565b61045c81610391565b811461046757600080fd5b50565b610473816103c3565b811461047e57600080fd5b50565b60805160601c60a05160c05160601c60e0516101005161012051610140516103a6620004e260003960006101f20152600061025e015260006101ce0152600061023a0152600061017f01526000610216015260006101aa01526103a66000f3fe608060405234801561001057600080fd5b50600436106100885760003560e01c80638622a6891161005b5780638622a68914610105578063c6bc518214610123578063d6fbf20214610141578063dccd43151461015f57610088565b806308551a531461008d5780631be05289146100ab57806347ccca02146100c95780636b6f4a9d146100e7575b600080fd5b61009561017d565b6040516100a291906102ad565b60405180910390f35b6100b36101a1565b6040516100c091906102e3565b60405180910390f35b6100d16101a8565b6040516100de91906102c8565b60405180910390f35b6100ef6101cc565b6040516100fc91906102e3565b60405180910390f35b61010d6101f0565b60405161011a91906102e3565b60405180910390f35b61012b610214565b60405161013891906102e3565b60405180910390f35b610149610238565b60405161015691906102e3565b60405180910390f35b61016761025c565b60405161017491906102e3565b60405180910390f35b7f000000000000000000000000000000000000000000000000000000000000000081565b62093a8081565b7f000000000000000000000000000000000000000000000000000000000000000081565b7f000000000000000000000000000000000000000000000000000000000000000081565b7f000000000000000000000000000000000000000000000000000000000000000081565b7f000000000000000000000000000000000000000000000000000000000000000081565b7f000000000000000000000000000000000000000000000000000000000000000081565b7f000000000000000000000000000000000000000000000000000000000000000081565b610289816102fe565b82525050565b6102988161033a565b82525050565b6102a781610330565b82525050565b60006020820190506102c26000830184610280565b92915050565b60006020820190506102dd600083018461028f565b92915050565b60006020820190506102f8600083018461029e565b92915050565b600061030982610310565b9050919050565b600073ffffffffffffffffffffffffffffffffffffffff82169050919050565b6000819050919050565b60006103458261034c565b9050919050565b60006103578261035e565b9050919050565b600061036982610310565b905091905056fea26469706673582212200f0dbfc53472196657da111368d5ad67651c9763b71c7e91320db3e4a4bddd2c64736f6c63430008070033",
					"opcodes": "PUSH2 0x160 PUSH1 0x40 MSTORE CALLVALUE DUP1 ISZERO PUSH2 0x11 JUMPI PUSH1 0x0 DUP1 REVERT JUMPDEST POP PUSH1 0x40 MLOAD PUSH3 0x888 CODESIZE SUB DUP1 PUSH3 0x888 DUP4 CODECOPY DUP2 DUP2 ADD PUSH1 0x40 MSTORE DUP2 ADD SWAP1 PUSH2 0x35 SWAP2 SWAP1 PUSH2 0x1AF JUMP JUMPDEST CALLER PUSH20 0xFFFFFFFFFFFFFFFFFFFFFFFFFFFFFFFFFFFFFFFF AND PUSH1 0xC0 DUP2 PUSH20 0xFFFFFFFFFFFFFFFFFFFFFFFFFFFFFFFFFFFFFFFF AND PUSH1 0x60 SHL DUP2 MSTORE POP POP PUSH1 0x0 DUP5 GT PUSH2 0xAF JUMPI PUSH1 0x40 MLOAD PUSH32 0x8C379A000000000000000000000000000000000000000000000000000000000 DUP2 MSTORE PUSH1 0x4 ADD PUSH2 0xA6 SWAP1 PUSH2 0x27C JUMP JUMPDEST PUSH1 0x40 MLOAD DUP1 SWAP2 SUB SWAP1 REVERT JUMPDEST DUP4 PUSH1 0xE0 DUP2 DUP2 MSTORE POP POP DUP3 PUSH2 0x100 DUP2 DUP2 MSTORE POP POP DUP2 PUSH20 0xFFFFFFFFFFFFFFFFFFFFFFFFFFFFFFFFFFFFFFFF AND PUSH1 0x80 DUP2 PUSH20 0xFFFFFFFFFFFFFFFFFFFFFFFFFFFFFFFFFFFFFFFF AND PUSH1 0x60 SHL DUP2 MSTORE POP POP DUP1 PUSH1 0xA0 DUP2 DUP2 MSTORE POP POP TIMESTAMP PUSH2 0x120 DUP2 DUP2 MSTORE POP POP PUSH3 0x93A80 TIMESTAMP PUSH2 0x117 SWAP2 SWAP1 PUSH2 0x2AD JUMP JUMPDEST PUSH2 0x140 DUP2 DUP2 MSTORE POP POP PUSH1 0x0 DUP4 PUSH3 0x93A80 PUSH2 0x130 SWAP2 SWAP1 PUSH2 0x303 JUMP JUMPDEST DUP6 PUSH2 0x13B SWAP2 SWAP1 PUSH2 0x35D JUMP JUMPDEST LT ISZERO PUSH2 0x17C JUMPI PUSH1 0x40 MLOAD PUSH32 0x8C379A000000000000000000000000000000000000000000000000000000000 DUP2 MSTORE PUSH1 0x4 ADD PUSH2 0x173 SWAP1 PUSH2 0x25C JUMP JUMPDEST PUSH1 0x40 MLOAD DUP1 SWAP2 SUB SWAP1 REVERT JUMPDEST POP POP POP POP PUSH2 0x481 JUMP JUMPDEST PUSH1 0x0 DUP2 MLOAD SWAP1 POP PUSH2 0x194 DUP2 PUSH2 0x453 JUMP JUMPDEST SWAP3 SWAP2 POP POP JUMP JUMPDEST PUSH1 0x0 DUP2 MLOAD SWAP1 POP PUSH2 0x1A9 DUP2 PUSH2 0x46A JUMP JUMPDEST SWAP3 SWAP2 POP POP JUMP JUMPDEST PUSH1 0x0 DUP1 PUSH1 0x0 DUP1 PUSH1 0x80 DUP6 DUP8 SUB SLT ISZERO PUSH2 0x1C9 JUMPI PUSH2 0x1C8 PUSH2 0x3FC JUMP JUMPDEST JUMPDEST PUSH1 0x0 PUSH2 0x1D7 DUP8 DUP3 DUP9 ADD PUSH2 0x19A JUMP JUMPDEST SWAP5 POP POP PUSH1 0x20 PUSH2 0x1E8 DUP8 DUP3 DUP9 ADD PUSH2 0x19A JUMP JUMPDEST SWAP4 POP POP PUSH1 0x40 PUSH2 0x1F9 DUP8 DUP3 DUP9 ADD PUSH2 0x185 JUMP JUMPDEST SWAP3 POP POP PUSH1 0x60 PUSH2 0x20A DUP8 DUP3 DUP9 ADD PUSH2 0x19A JUMP JUMPDEST SWAP2 POP POP SWAP3 SWAP6 SWAP2 SWAP5 POP SWAP3 POP JUMP JUMPDEST PUSH1 0x0 PUSH2 0x223 PUSH1 0x10 DUP4 PUSH2 0x29C JUMP JUMPDEST SWAP2 POP PUSH2 0x22E DUP3 PUSH2 0x401 JUMP JUMPDEST PUSH1 0x20 DUP3 ADD SWAP1 POP SWAP2 SWAP1 POP JUMP JUMPDEST PUSH1 0x0 PUSH2 0x246 PUSH1 0x8 DUP4 PUSH2 0x29C JUMP JUMPDEST SWAP2 POP PUSH2 0x251 DUP3 PUSH2 0x42A JUMP JUMPDEST PUSH1 0x20 DUP3 ADD SWAP1 POP SWAP2 SWAP1 POP JUMP JUMPDEST PUSH1 0x0 PUSH1 0x20 DUP3 ADD SWAP1 POP DUP2 DUP2 SUB PUSH1 0x0 DUP4 ADD MSTORE PUSH2 0x275 DUP2 PUSH2 0x216 JUMP JUMPDEST SWAP1 POP SWAP2 SWAP1 POP JUMP JUMPDEST PUSH1 0x0 PUSH1 0x20 DUP3 ADD SWAP1 POP DUP2 DUP2 SUB PUSH1 0x0 DUP4 ADD MSTORE PUSH2 0x295 DUP2 PUSH2 0x239 JUMP JUMPDEST SWAP1 POP SWAP2 SWAP1 POP JUMP JUMPDEST PUSH1 0x0 DUP3 DUP3 MSTORE PUSH1 0x20 DUP3 ADD SWAP1 POP SWAP3 SWAP2 POP POP JUMP JUMPDEST PUSH1 0x0 PUSH2 0x2B8 DUP3 PUSH2 0x3C3 JUMP JUMPDEST SWAP2 POP PUSH2 0x2C3 DUP4 PUSH2 0x3C3 JUMP JUMPDEST SWAP3 POP DUP3 PUSH32 0xFFFFFFFFFFFFFFFFFFFFFFFFFFFFFFFFFFFFFFFFFFFFFFFFFFFFFFFFFFFFFFFF SUB DUP3 GT ISZERO PUSH2 0x2F8 JUMPI PUSH2 0x2F7 PUSH2 0x3CD JUMP JUMPDEST JUMPDEST DUP3 DUP3 ADD SWAP1 POP SWAP3 SWAP2 POP POP JUMP JUMPDEST PUSH1 0x0 PUSH2 0x30E DUP3 PUSH2 0x3C3 JUMP JUMPDEST SWAP2 POP PUSH2 0x319 DUP4 PUSH2 0x3C3 JUMP JUMPDEST SWAP3 POP DUP2 PUSH32 0xFFFFFFFFFFFFFFFFFFFFFFFFFFFFFFFFFFFFFFFFFFFFFFFFFFFFFFFFFFFFFFFF DIV DUP4 GT DUP3 ISZERO ISZERO AND ISZERO PUSH2 0x352 JUMPI PUSH2 0x351 PUSH2 0x3CD JUMP JUMPDEST JUMPDEST DUP3 DUP3 MUL SWAP1 POP SWAP3 SWAP2 POP POP JUMP JUMPDEST PUSH1 0x0 PUSH2 0x368 DUP3 PUSH2 0x3C3 JUMP JUMPDEST SWAP2 POP PUSH2 0x373 DUP4 PUSH2 0x3C3 JUMP JUMPDEST SWAP3 POP DUP3 DUP3 LT ISZERO PUSH2 0x386 JUMPI PUSH2 0x385 PUSH2 0x3CD JUMP JUMPDEST JUMPDEST DUP3 DUP3 SUB SWAP1 POP SWAP3 SWAP2 POP POP JUMP JUMPDEST PUSH1 0x0 PUSH2 0x39C DUP3 PUSH2 0x3A3 JUMP JUMPDEST SWAP1 POP SWAP2 SWAP1 POP JUMP JUMPDEST PUSH1 0x0 PUSH20 0xFFFFFFFFFFFFFFFFFFFFFFFFFFFFFFFFFFFFFFFF DUP3 AND SWAP1 POP SWAP2 SWAP1 POP JUMP JUMPDEST PUSH1 0x0 DUP2 SWAP1 POP SWAP2 SWAP1 POP JUMP JUMPDEST PUSH32 0x4E487B7100000000000000000000000000000000000000000000000000000000 PUSH1 0x0 MSTORE PUSH1 0x11 PUSH1 0x4 MSTORE PUSH1 0x24 PUSH1 0x0 REVERT JUMPDEST PUSH1 0x0 DUP1 REVERT JUMPDEST PUSH32 0x646973636F756E7420746F6F2062696700000000000000000000000000000000 PUSH1 0x0 DUP3 ADD MSTORE POP JUMP JUMPDEST PUSH32 0x7072696365203C30000000000000000000000000000000000000000000000000 PUSH1 0x0 DUP3 ADD MSTORE POP JUMP JUMPDEST PUSH2 0x45C DUP2 PUSH2 0x391 JUMP JUMPDEST DUP2 EQ PUSH2 0x467 JUMPI PUSH1 0x0 DUP1 REVERT JUMPDEST POP JUMP JUMPDEST PUSH2 0x473 DUP2 PUSH2 0x3C3 JUMP JUMPDEST DUP2 EQ PUSH2 0x47E JUMPI PUSH1 0x0 DUP1 REVERT JUMPDEST POP JUMP JUMPDEST PUSH1 0x80 MLOAD PUSH1 0x60 SHR PUSH1 0xA0 MLOAD PUSH1 0xC0 MLOAD PUSH1 0x60 SHR PUSH1 0xE0 MLOAD PUSH2 0x100 MLOAD PUSH2 0x120 MLOAD PUSH2 0x140 MLOAD PUSH2 0x3A6 PUSH3 0x4E2 PUSH1 0x0 CODECOPY PUSH1 0x0 PUSH2 0x1F2 ADD MSTORE PUSH1 0x0 PUSH2 0x25E ADD MSTORE PUSH1 0x0 PUSH2 0x1CE ADD MSTORE PUSH1 0x0 PUSH2 0x23A ADD MSTORE PUSH1 0x0 PUSH2 0x17F ADD MSTORE PUSH1 0x0 PUSH2 0x216 ADD MSTORE PUSH1 0x0 PUSH2 0x1AA ADD MSTORE PUSH2 0x3A6 PUSH1 0x0 RETURN INVALID PUSH1 0x80 PUSH1 0x40 MSTORE CALLVALUE DUP1 ISZERO PUSH2 0x10 JUMPI PUSH1 0x0 DUP1 REVERT JUMPDEST POP PUSH1 0x4 CALLDATASIZE LT PUSH2 0x88 JUMPI PUSH1 0x0 CALLDATALOAD PUSH1 0xE0 SHR DUP1 PUSH4 0x8622A689 GT PUSH2 0x5B JUMPI DUP1 PUSH4 0x8622A689 EQ PUSH2 0x105 JUMPI DUP1 PUSH4 0xC6BC5182 EQ PUSH2 0x123 JUMPI DUP1 PUSH4 0xD6FBF202 EQ PUSH2 0x141 JUMPI DUP1 PUSH4 0xDCCD4315 EQ PUSH2 0x15F JUMPI PUSH2 0x88 JUMP JUMPDEST DUP1 PUSH4 0x8551A53 EQ PUSH2 0x8D JUMPI DUP1 PUSH4 0x1BE05289 EQ PUSH2 0xAB JUMPI DUP1 PUSH4 0x47CCCA02 EQ PUSH2 0xC9 JUMPI DUP1 PUSH4 0x6B6F4A9D EQ PUSH2 0xE7 JUMPI JUMPDEST PUSH1 0x0 DUP1 REVERT JUMPDEST PUSH2 0x95 PUSH2 0x17D JUMP JUMPDEST PUSH1 0x40 MLOAD PUSH2 0xA2 SWAP2 SWAP1 PUSH2 0x2AD JUMP JUMPDEST PUSH1 0x40 MLOAD DUP1 SWAP2 SUB SWAP1 RETURN JUMPDEST PUSH2 0xB3 PUSH2 0x1A1 JUMP JUMPDEST PUSH1 0x40 MLOAD PUSH2 0xC0 SWAP2 SWAP1 PUSH2 0x2E3 JUMP JUMPDEST PUSH1 0x40 MLOAD DUP1 SWAP2 SUB SWAP1 RETURN JUMPDEST PUSH2 0xD1 PUSH2 0x1A8 JUMP JUMPDEST PUSH1 0x40 MLOAD PUSH2 0xDE SWAP2 SWAP1 PUSH2 0x2C8 JUMP JUMPDEST PUSH1 0x40 MLOAD DUP1 SWAP2 SUB SWAP1 RETURN JUMPDEST PUSH2 0xEF PUSH2 0x1CC JUMP JUMPDEST PUSH1 0x40 MLOAD PUSH2 0xFC SWAP2 SWAP1 PUSH2 0x2E3 JUMP JUMPDEST PUSH1 0x40 MLOAD DUP1 SWAP2 SUB SWAP1 RETURN JUMPDEST PUSH2 0x10D PUSH2 0x1F0 JUMP JUMPDEST PUSH1 0x40 MLOAD PUSH2 0x11A SWAP2 SWAP1 PUSH2 0x2E3 JUMP JUMPDEST PUSH1 0x40 MLOAD DUP1 SWAP2 SUB SWAP1 RETURN JUMPDEST PUSH2 0x12B PUSH2 0x214 JUMP JUMPDEST PUSH1 0x40 MLOAD PUSH2 0x138 SWAP2 SWAP1 PUSH2 0x2E3 JUMP JUMPDEST PUSH1 0x40 MLOAD DUP1 SWAP2 SUB SWAP1 RETURN JUMPDEST PUSH2 0x149 PUSH2 0x238 JUMP JUMPDEST PUSH1 0x40 MLOAD PUSH2 0x156 SWAP2 SWAP1 PUSH2 0x2E3 JUMP JUMPDEST PUSH1 0x40 MLOAD DUP1 SWAP2 SUB SWAP1 RETURN JUMPDEST PUSH2 0x167 PUSH2 0x25C JUMP JUMPDEST PUSH1 0x40 MLOAD PUSH2 0x174 SWAP2 SWAP1 PUSH2 0x2E3 JUMP JUMPDEST PUSH1 0x40 MLOAD DUP1 SWAP2 SUB SWAP1 RETURN JUMPDEST PUSH32 0x0 DUP2 JUMP JUMPDEST PUSH3 0x93A80 DUP2 JUMP JUMPDEST PUSH32 0x0 DUP2 JUMP JUMPDEST PUSH32 0x0 DUP2 JUMP JUMPDEST PUSH32 0x0 DUP2 JUMP JUMPDEST PUSH32 0x0 DUP2 JUMP JUMPDEST PUSH32 0x0 DUP2 JUMP JUMPDEST PUSH32 0x0 DUP2 JUMP JUMPDEST PUSH2 0x289 DUP2 PUSH2 0x2FE JUMP JUMPDEST DUP3 MSTORE POP POP JUMP JUMPDEST PUSH2 0x298 DUP2 PUSH2 0x33A JUMP JUMPDEST DUP3 MSTORE POP POP JUMP JUMPDEST PUSH2 0x2A7 DUP2 PUSH2 0x330 JUMP JUMPDEST DUP3 MSTORE POP POP JUMP JUMPDEST PUSH1 0x0 PUSH1 0x20 DUP3 ADD SWAP1 POP PUSH2 0x2C2 PUSH1 0x0 DUP4 ADD DUP5 PUSH2 0x280 JUMP JUMPDEST SWAP3 SWAP2 POP POP JUMP JUMPDEST PUSH1 0x0 PUSH1 0x20 DUP3 ADD SWAP1 POP PUSH2 0x2DD PUSH1 0x0 DUP4 ADD DUP5 PUSH2 0x28F JUMP JUMPDEST SWAP3 SWAP2 POP POP JUMP JUMPDEST PUSH1 0x0 PUSH1 0x20 DUP3 ADD SWAP1 POP PUSH2 0x2F8 PUSH1 0x0 DUP4 ADD DUP5 PUSH2 0x29E JUMP JUMPDEST SWAP3 SWAP2 POP POP JUMP JUMPDEST PUSH1 0x0 PUSH2 0x309 DUP3 PUSH2 0x310 JUMP JUMPDEST SWAP1 POP SWAP2 SWAP1 POP JUMP JUMPDEST PUSH1 0x0 PUSH20 0xFFFFFFFFFFFFFFFFFFFFFFFFFFFFFFFFFFFFFFFF DUP3 AND SWAP1 POP SWAP2 SWAP1 POP JUMP JUMPDEST PUSH1 0x0 DUP2 SWAP1 POP SWAP2 SWAP1 POP JUMP JUMPDEST PUSH1 0x0 PUSH2 0x345 DUP3 PUSH2 0x34C JUMP JUMPDEST SWAP1 POP SWAP2 SWAP1 POP JUMP JUMPDEST PUSH1 0x0 PUSH2 0x357 DUP3 PUSH2 0x35E JUMP JUMPDEST SWAP1 POP SWAP2 SWAP1 POP JUMP JUMPDEST PUSH1 0x0 PUSH2 0x369 DUP3 PUSH2 0x310 JUMP JUMPDEST SWAP1 POP SWAP2 SWAP1 POP JUMP INVALID LOG2 PUSH5 0x6970667358 0x22 SLT KECCAK256 0xF 0xD 0xBF 0xC5 CALLVALUE PUSH19 0x196657DA111368D5AD67651C9763B71C7E9132 0xD 0xB3 0xE4 LOG4 0xBD 0xDD 0x2C PUSH5 0x736F6C6343 STOP ADDMOD SMOD STOP CALLER "
				},
				"gasEstimates": {
					"creation": {
						"codeDepositCost": "186800",
						"executionCost": "infinite",
						"totalCost": "infinite"
					},
					"external": {
						"DURATION()": "352",
						"discount()": "infinite",
						"expiresAt()": "infinite",
						"nft()": "infinite",
						"nftId()": "infinite",
						"seller()": "infinite",
						"startingAt()": "infinite",
						"startingPrice()": "infinite"
					}
				},
				"methodIdentifiers": {
					"DURATION()": "1be05289",
					"discount()": "6b6f4a9d",
					"expiresAt()": "8622a689",
					"nft()": "47ccca02",
					"nftId()": "c6bc5182",
					"seller()": "08551a53",
					"startingAt()": "dccd4315",
					"startingPrice()": "d6fbf202"
				}
			},
			"storageLayout": {
				"storage": [],
				"types": null
			},
			"userdoc": {
				"kind": "user",
				"methods": {},
				"version": 1
			}
		}
	}
}