{
	"Documents/dev/Lime/contracts/Mapping.sol": {
		"Mapping": {
			"abi": [
				{
					"inputs": [
						{
							"internalType": "address",
							"name": "",
							"type": "address"
						}
					],
					"name": "added",
					"outputs": [
						{
							"internalType": "bool",
							"name": "",
							"type": "bool"
						}
					],
					"stateMutability": "view",
					"type": "function"
				},
				{
					"inputs": [
						{
							"internalType": "address",
							"name": "",
							"type": "address"
						}
					],
					"name": "balance",
					"outputs": [
						{
							"internalType": "uint256",
							"name": "",
							"type": "uint256"
						}
					],
					"stateMutability": "view",
					"type": "function"
				},
				{
					"inputs": [],
					"name": "getSize",
					"outputs": [
						{
							"internalType": "uint256",
							"name": "",
							"type": "uint256"
						}
					],
					"stateMutability": "view",
					"type": "function"
				},
				{
					"inputs": [
						{
							"internalType": "address",
							"name": "_key",
							"type": "address"
						},
						{
							"internalType": "uint256",
							"name": "_val",
							"type": "uint256"
						}
					],
					"name": "set",
					"outputs": [],
					"stateMutability": "nonpayable",
					"type": "function"
				}
			],
			"devdoc": {
				"kind": "dev",
				"methods": {},
				"version": 1
			},
			"evm": {
				"assembly": "    /* \"Documents/dev/Lime/contracts/Mapping.sol\":56:458  contract Mapping{... */\n  mstore(0x40, 0x80)\n  callvalue\n  dup1\n  iszero\n  tag_1\n  jumpi\n  0x00\n  dup1\n  revert\ntag_1:\n  pop\n  dataSize(sub_0)\n  dup1\n  dataOffset(sub_0)\n  0x00\n  codecopy\n  0x00\n  return\nstop\n\nsub_0: assembly {\n        /* \"Documents/dev/Lime/contracts/Mapping.sol\":56:458  contract Mapping{... */\n      mstore(0x40, 0x80)\n      callvalue\n      dup1\n      iszero\n      tag_1\n      jumpi\n      0x00\n      dup1\n      revert\n    tag_1:\n      pop\n      jumpi(tag_2, lt(calldatasize, 0x04))\n      shr(0xe0, calldataload(0x00))\n      dup1\n      0x3825d828\n      eq\n      tag_3\n      jumpi\n      dup1\n      0x7f440103\n      eq\n      tag_4\n      jumpi\n      dup1\n      0xde8fa431\n      eq\n      tag_5\n      jumpi\n      dup1\n      0xe3d670d7\n      eq\n      tag_6\n      jumpi\n    tag_2:\n      0x00\n      dup1\n      revert\n        /* \"Documents/dev/Lime/contracts/Mapping.sol\":187:368  function set(address _key, uint _val) external {... */\n    tag_3:\n      tag_7\n      0x04\n      dup1\n      calldatasize\n      sub\n      dup2\n      add\n      swap1\n      tag_8\n      swap2\n      swap1\n      tag_9\n      jump\t// in\n    tag_8:\n      tag_10\n      jump\t// in\n    tag_7:\n      stop\n        /* \"Documents/dev/Lime/contracts/Mapping.sol\":123:160  mapping(address => bool) public added */\n    tag_4:\n      tag_11\n      0x04\n      dup1\n      calldatasize\n      sub\n      dup2\n      add\n      swap1\n      tag_12\n      swap2\n      swap1\n      tag_13\n      jump\t// in\n    tag_12:\n      tag_14\n      jump\t// in\n    tag_11:\n      mload(0x40)\n      tag_15\n      swap2\n      swap1\n      tag_16\n      jump\t// in\n    tag_15:\n      mload(0x40)\n      dup1\n      swap2\n      sub\n      swap1\n      return\n        /* \"Documents/dev/Lime/contracts/Mapping.sol\":374:455  function getSize() external view returns(uint){... */\n    tag_5:\n      tag_17\n      tag_18\n      jump\t// in\n    tag_17:\n      mload(0x40)\n      tag_19\n      swap2\n      swap1\n      tag_20\n      jump\t// in\n    tag_19:\n      mload(0x40)\n      dup1\n      swap2\n      sub\n      swap1\n      return\n        /* \"Documents/dev/Lime/contracts/Mapping.sol\":78:117  mapping(address => uint) public balance */\n    tag_6:\n      tag_21\n      0x04\n      dup1\n      calldatasize\n      sub\n      dup2\n      add\n      swap1\n      tag_22\n      swap2\n      swap1\n      tag_13\n      jump\t// in\n    tag_22:\n      tag_23\n      jump\t// in\n    tag_21:\n      mload(0x40)\n      tag_24\n      swap2\n      swap1\n      tag_20\n      jump\t// in\n    tag_24:\n      mload(0x40)\n      dup1\n      swap2\n      sub\n      swap1\n      return\n        /* \"Documents/dev/Lime/contracts/Mapping.sol\":187:368  function set(address _key, uint _val) external {... */\n    tag_10:\n        /* \"Documents/dev/Lime/contracts/Mapping.sol\":260:264  _val */\n      dup1\n        /* \"Documents/dev/Lime/contracts/Mapping.sol\":244:251  balance */\n      0x00\n        /* \"Documents/dev/Lime/contracts/Mapping.sol\":244:257  balance[_key] */\n      dup1\n        /* \"Documents/dev/Lime/contracts/Mapping.sol\":252:256  _key */\n      dup5\n        /* \"Documents/dev/Lime/contracts/Mapping.sol\":244:257  balance[_key] */\n      0xffffffffffffffffffffffffffffffffffffffff\n      and\n      0xffffffffffffffffffffffffffffffffffffffff\n      and\n      dup2\n      mstore\n      0x20\n      add\n      swap1\n      dup2\n      mstore\n      0x20\n      add\n      0x00\n      keccak256\n        /* \"Documents/dev/Lime/contracts/Mapping.sol\":244:264  balance[_key] = _val */\n      dup2\n      swap1\n      sstore\n      pop\n        /* \"Documents/dev/Lime/contracts/Mapping.sol\":278:283  added */\n      0x01\n        /* \"Documents/dev/Lime/contracts/Mapping.sol\":278:289  added[_key] */\n      0x00\n        /* \"Documents/dev/Lime/contracts/Mapping.sol\":284:288  _key */\n      dup4\n        /* \"Documents/dev/Lime/contracts/Mapping.sol\":278:289  added[_key] */\n      0xffffffffffffffffffffffffffffffffffffffff\n      and\n      0xffffffffffffffffffffffffffffffffffffffff\n      and\n      dup2\n      mstore\n      0x20\n      add\n      swap1\n      dup2\n      mstore\n      0x20\n      add\n      0x00\n      keccak256\n      0x00\n      swap1\n      sload\n      swap1\n      0x0100\n      exp\n      swap1\n      div\n      0xff\n      and\n        /* \"Documents/dev/Lime/contracts/Mapping.sol\":274:362  if(!added[_key]){... */\n      tag_26\n      jumpi\n        /* \"Documents/dev/Lime/contracts/Mapping.sol\":318:322  true */\n      0x01\n        /* \"Documents/dev/Lime/contracts/Mapping.sol\":304:309  added */\n      dup1\n        /* \"Documents/dev/Lime/contracts/Mapping.sol\":304:315  added[_key] */\n      0x00\n        /* \"Documents/dev/Lime/contracts/Mapping.sol\":310:314  _key */\n      dup5\n        /* \"Documents/dev/Lime/contracts/Mapping.sol\":304:315  added[_key] */\n      0xffffffffffffffffffffffffffffffffffffffff\n      and\n      0xffffffffffffffffffffffffffffffffffffffff\n      and\n      dup2\n      mstore\n      0x20\n      add\n      swap1\n      dup2\n      mstore\n      0x20\n      add\n      0x00\n      keccak256\n      0x00\n        /* \"Documents/dev/Lime/contracts/Mapping.sol\":304:322  added[_key] = true */\n      0x0100\n      exp\n      dup2\n      sload\n      dup2\n      0xff\n      mul\n      not\n      and\n      swap1\n      dup4\n      iszero\n      iszero\n      mul\n      or\n      swap1\n      sstore\n      pop\n        /* \"Documents/dev/Lime/contracts/Mapping.sol\":336:340  keys */\n      0x02\n        /* \"Documents/dev/Lime/contracts/Mapping.sol\":346:350  _key */\n      dup3\n        /* \"Documents/dev/Lime/contracts/Mapping.sol\":336:351  keys.push(_key) */\n      swap1\n      dup1\n      0x01\n      dup2\n      sload\n      add\n      dup1\n      dup3\n      sstore\n      dup1\n      swap2\n      pop\n      pop\n      0x01\n      swap1\n      sub\n      swap1\n      0x00\n      mstore\n      keccak256(0x00, 0x20)\n      add\n      0x00\n      swap1\n      swap2\n      swap1\n      swap2\n      swap1\n      swap2\n      0x0100\n      exp\n      dup2\n      sload\n      dup2\n      0xffffffffffffffffffffffffffffffffffffffff\n      mul\n      not\n      and\n      swap1\n      dup4\n      0xffffffffffffffffffffffffffffffffffffffff\n      and\n      mul\n      or\n      swap1\n      sstore\n      pop\n        /* \"Documents/dev/Lime/contracts/Mapping.sol\":274:362  if(!added[_key]){... */\n    tag_26:\n        /* \"Documents/dev/Lime/contracts/Mapping.sol\":187:368  function set(address _key, uint _val) external {... */\n      pop\n      pop\n      jump\t// out\n        /* \"Documents/dev/Lime/contracts/Mapping.sol\":123:160  mapping(address => bool) public added */\n    tag_14:\n      mstore(0x20, 0x01)\n      dup1\n      0x00\n      mstore\n      keccak256(0x00, 0x40)\n      0x00\n      swap2\n      pop\n      sload\n      swap1\n      0x0100\n      exp\n      swap1\n      div\n      0xff\n      and\n      dup2\n      jump\t// out\n        /* \"Documents/dev/Lime/contracts/Mapping.sol\":374:455  function getSize() external view returns(uint){... */\n    tag_18:\n        /* \"Documents/dev/Lime/contracts/Mapping.sol\":415:419  uint */\n      0x00\n        /* \"Documents/dev/Lime/contracts/Mapping.sol\":437:441  keys */\n      0x02\n        /* \"Documents/dev/Lime/contracts/Mapping.sol\":437:448  keys.length */\n      dup1\n      sload\n      swap1\n      pop\n        /* \"Documents/dev/Lime/contracts/Mapping.sol\":430:448  return keys.length */\n      swap1\n      pop\n        /* \"Documents/dev/Lime/contracts/Mapping.sol\":374:455  function getSize() external view returns(uint){... */\n      swap1\n      jump\t// out\n        /* \"Documents/dev/Lime/contracts/Mapping.sol\":78:117  mapping(address => uint) public balance */\n    tag_23:\n      mstore(0x20, 0x00)\n      dup1\n      0x00\n      mstore\n      keccak256(0x00, 0x40)\n      0x00\n      swap2\n      pop\n      swap1\n      pop\n      sload\n      dup2\n      jump\t// out\n        /* \"#utility.yul\":7:146   */\n    tag_30:\n        /* \"#utility.yul\":53:58   */\n      0x00\n        /* \"#utility.yul\":91:97   */\n      dup2\n        /* \"#utility.yul\":78:98   */\n      calldataload\n        /* \"#utility.yul\":69:98   */\n      swap1\n      pop\n        /* \"#utility.yul\":107:140   */\n      tag_32\n        /* \"#utility.yul\":134:139   */\n      dup2\n        /* \"#utility.yul\":107:140   */\n      tag_33\n      jump\t// in\n    tag_32:\n        /* \"#utility.yul\":7:146   */\n      swap3\n      swap2\n      pop\n      pop\n      jump\t// out\n        /* \"#utility.yul\":152:291   */\n    tag_34:\n        /* \"#utility.yul\":198:203   */\n      0x00\n        /* \"#utility.yul\":236:242   */\n      dup2\n        /* \"#utility.yul\":223:243   */\n      calldataload\n        /* \"#utility.yul\":214:243   */\n      swap1\n      pop\n        /* \"#utility.yul\":252:285   */\n      tag_36\n        /* \"#utility.yul\":279:284   */\n      dup2\n        /* \"#utility.yul\":252:285   */\n      tag_37\n      jump\t// in\n    tag_36:\n        /* \"#utility.yul\":152:291   */\n      swap3\n      swap2\n      pop\n      pop\n      jump\t// out\n        /* \"#utility.yul\":297:626   */\n    tag_13:\n        /* \"#utility.yul\":356:362   */\n      0x00\n        /* \"#utility.yul\":405:407   */\n      0x20\n        /* \"#utility.yul\":393:402   */\n      dup3\n        /* \"#utility.yul\":384:391   */\n      dup5\n        /* \"#utility.yul\":380:403   */\n      sub\n        /* \"#utility.yul\":376:408   */\n      slt\n        /* \"#utility.yul\":373:492   */\n      iszero\n      tag_39\n      jumpi\n        /* \"#utility.yul\":411:490   */\n      tag_40\n      tag_41\n      jump\t// in\n    tag_40:\n        /* \"#utility.yul\":373:492   */\n    tag_39:\n        /* \"#utility.yul\":531:532   */\n      0x00\n        /* \"#utility.yul\":556:609   */\n      tag_42\n        /* \"#utility.yul\":601:608   */\n      dup5\n        /* \"#utility.yul\":592:598   */\n      dup3\n        /* \"#utility.yul\":581:590   */\n      dup6\n        /* \"#utility.yul\":577:599   */\n      add\n        /* \"#utility.yul\":556:609   */\n      tag_30\n      jump\t// in\n    tag_42:\n        /* \"#utility.yul\":546:609   */\n      swap2\n      pop\n        /* \"#utility.yul\":502:619   */\n      pop\n        /* \"#utility.yul\":297:626   */\n      swap3\n      swap2\n      pop\n      pop\n      jump\t// out\n        /* \"#utility.yul\":632:1106   */\n    tag_9:\n        /* \"#utility.yul\":700:706   */\n      0x00\n        /* \"#utility.yul\":708:714   */\n      dup1\n        /* \"#utility.yul\":757:759   */\n      0x40\n        /* \"#utility.yul\":745:754   */\n      dup4\n        /* \"#utility.yul\":736:743   */\n      dup6\n        /* \"#utility.yul\":732:755   */\n      sub\n        /* \"#utility.yul\":728:760   */\n      slt\n        /* \"#utility.yul\":725:844   */\n      iszero\n      tag_44\n      jumpi\n        /* \"#utility.yul\":763:842   */\n      tag_45\n      tag_41\n      jump\t// in\n    tag_45:\n        /* \"#utility.yul\":725:844   */\n    tag_44:\n        /* \"#utility.yul\":883:884   */\n      0x00\n        /* \"#utility.yul\":908:961   */\n      tag_46\n        /* \"#utility.yul\":953:960   */\n      dup6\n        /* \"#utility.yul\":944:950   */\n      dup3\n        /* \"#utility.yul\":933:942   */\n      dup7\n        /* \"#utility.yul\":929:951   */\n      add\n        /* \"#utility.yul\":908:961   */\n      tag_30\n      jump\t// in\n    tag_46:\n        /* \"#utility.yul\":898:961   */\n      swap3\n      pop\n        /* \"#utility.yul\":854:971   */\n      pop\n        /* \"#utility.yul\":1010:1012   */\n      0x20\n        /* \"#utility.yul\":1036:1089   */\n      tag_47\n        /* \"#utility.yul\":1081:1088   */\n      dup6\n        /* \"#utility.yul\":1072:1078   */\n      dup3\n        /* \"#utility.yul\":1061:1070   */\n      dup7\n        /* \"#utility.yul\":1057:1079   */\n      add\n        /* \"#utility.yul\":1036:1089   */\n      tag_34\n      jump\t// in\n    tag_47:\n        /* \"#utility.yul\":1026:1089   */\n      swap2\n      pop\n        /* \"#utility.yul\":981:1099   */\n      pop\n        /* \"#utility.yul\":632:1106   */\n      swap3\n      pop\n      swap3\n      swap1\n      pop\n      jump\t// out\n        /* \"#utility.yul\":1112:1221   */\n    tag_48:\n        /* \"#utility.yul\":1193:1214   */\n      tag_50\n        /* \"#utility.yul\":1208:1213   */\n      dup2\n        /* \"#utility.yul\":1193:1214   */\n      tag_51\n      jump\t// in\n    tag_50:\n        /* \"#utility.yul\":1188:1191   */\n      dup3\n        /* \"#utility.yul\":1181:1215   */\n      mstore\n        /* \"#utility.yul\":1112:1221   */\n      pop\n      pop\n      jump\t// out\n        /* \"#utility.yul\":1227:1345   */\n    tag_52:\n        /* \"#utility.yul\":1314:1338   */\n      tag_54\n        /* \"#utility.yul\":1332:1337   */\n      dup2\n        /* \"#utility.yul\":1314:1338   */\n      tag_55\n      jump\t// in\n    tag_54:\n        /* \"#utility.yul\":1309:1312   */\n      dup3\n        /* \"#utility.yul\":1302:1339   */\n      mstore\n        /* \"#utility.yul\":1227:1345   */\n      pop\n      pop\n      jump\t// out\n        /* \"#utility.yul\":1351:1561   */\n    tag_16:\n        /* \"#utility.yul\":1438:1442   */\n      0x00\n        /* \"#utility.yul\":1476:1478   */\n      0x20\n        /* \"#utility.yul\":1465:1474   */\n      dup3\n        /* \"#utility.yul\":1461:1479   */\n      add\n        /* \"#utility.yul\":1453:1479   */\n      swap1\n      pop\n        /* \"#utility.yul\":1489:1554   */\n      tag_57\n        /* \"#utility.yul\":1551:1552   */\n      0x00\n        /* \"#utility.yul\":1540:1549   */\n      dup4\n        /* \"#utility.yul\":1536:1553   */\n      add\n        /* \"#utility.yul\":1527:1533   */\n      dup5\n        /* \"#utility.yul\":1489:1554   */\n      tag_48\n      jump\t// in\n    tag_57:\n        /* \"#utility.yul\":1351:1561   */\n      swap3\n      swap2\n      pop\n      pop\n      jump\t// out\n        /* \"#utility.yul\":1567:1789   */\n    tag_20:\n        /* \"#utility.yul\":1660:1664   */\n      0x00\n        /* \"#utility.yul\":1698:1700   */\n      0x20\n        /* \"#utility.yul\":1687:1696   */\n      dup3\n        /* \"#utility.yul\":1683:1701   */\n      add\n        /* \"#utility.yul\":1675:1701   */\n      swap1\n      pop\n        /* \"#utility.yul\":1711:1782   */\n      tag_59\n        /* \"#utility.yul\":1779:1780   */\n      0x00\n        /* \"#utility.yul\":1768:1777   */\n      dup4\n        /* \"#utility.yul\":1764:1781   */\n      add\n        /* \"#utility.yul\":1755:1761   */\n      dup5\n        /* \"#utility.yul\":1711:1782   */\n      tag_52\n      jump\t// in\n    tag_59:\n        /* \"#utility.yul\":1567:1789   */\n      swap3\n      swap2\n      pop\n      pop\n      jump\t// out\n        /* \"#utility.yul\":1876:1972   */\n    tag_62:\n        /* \"#utility.yul\":1913:1920   */\n      0x00\n        /* \"#utility.yul\":1942:1966   */\n      tag_64\n        /* \"#utility.yul\":1960:1965   */\n      dup3\n        /* \"#utility.yul\":1942:1966   */\n      tag_65\n      jump\t// in\n    tag_64:\n        /* \"#utility.yul\":1931:1966   */\n      swap1\n      pop\n        /* \"#utility.yul\":1876:1972   */\n      swap2\n      swap1\n      pop\n      jump\t// out\n        /* \"#utility.yul\":1978:2068   */\n    tag_51:\n        /* \"#utility.yul\":2012:2019   */\n      0x00\n        /* \"#utility.yul\":2055:2060   */\n      dup2\n        /* \"#utility.yul\":2048:2061   */\n      iszero\n        /* \"#utility.yul\":2041:2062   */\n      iszero\n        /* \"#utility.yul\":2030:2062   */\n      swap1\n      pop\n        /* \"#utility.yul\":1978:2068   */\n      swap2\n      swap1\n      pop\n      jump\t// out\n        /* \"#utility.yul\":2074:2200   */\n    tag_65:\n        /* \"#utility.yul\":2111:2118   */\n      0x00\n        /* \"#utility.yul\":2151:2193   */\n      0xffffffffffffffffffffffffffffffffffffffff\n        /* \"#utility.yul\":2144:2149   */\n      dup3\n        /* \"#utility.yul\":2140:2194   */\n      and\n        /* \"#utility.yul\":2129:2194   */\n      swap1\n      pop\n        /* \"#utility.yul\":2074:2200   */\n      swap2\n      swap1\n      pop\n      jump\t// out\n        /* \"#utility.yul\":2206:2283   */\n    tag_55:\n        /* \"#utility.yul\":2243:2250   */\n      0x00\n        /* \"#utility.yul\":2272:2277   */\n      dup2\n        /* \"#utility.yul\":2261:2277   */\n      swap1\n      pop\n        /* \"#utility.yul\":2206:2283   */\n      swap2\n      swap1\n      pop\n      jump\t// out\n        /* \"#utility.yul\":2412:2529   */\n    tag_41:\n        /* \"#utility.yul\":2521:2522   */\n      0x00\n        /* \"#utility.yul\":2518:2519   */\n      dup1\n        /* \"#utility.yul\":2511:2523   */\n      revert\n        /* \"#utility.yul\":2535:2657   */\n    tag_33:\n        /* \"#utility.yul\":2608:2632   */\n      tag_73\n        /* \"#utility.yul\":2626:2631   */\n      dup2\n        /* \"#utility.yul\":2608:2632   */\n      tag_62\n      jump\t// in\n    tag_73:\n        /* \"#utility.yul\":2601:2606   */\n      dup2\n        /* \"#utility.yul\":2598:2633   */\n      eq\n        /* \"#utility.yul\":2588:2651   */\n      tag_74\n      jumpi\n        /* \"#utility.yul\":2647:2648   */\n      0x00\n        /* \"#utility.yul\":2644:2645   */\n      dup1\n        /* \"#utility.yul\":2637:2649   */\n      revert\n        /* \"#utility.yul\":2588:2651   */\n    tag_74:\n        /* \"#utility.yul\":2535:2657   */\n      pop\n      jump\t// out\n        /* \"#utility.yul\":2663:2785   */\n    tag_37:\n        /* \"#utility.yul\":2736:2760   */\n      tag_76\n        /* \"#utility.yul\":2754:2759   */\n      dup2\n        /* \"#utility.yul\":2736:2760   */\n      tag_55\n      jump\t// in\n    tag_76:\n        /* \"#utility.yul\":2729:2734   */\n      dup2\n        /* \"#utility.yul\":2726:2761   */\n      eq\n        /* \"#utility.yul\":2716:2779   */\n      tag_77\n      jumpi\n        /* \"#utility.yul\":2775:2776   */\n      0x00\n        /* \"#utility.yul\":2772:2773   */\n      dup1\n        /* \"#utility.yul\":2765:2777   */\n      revert\n        /* \"#utility.yul\":2716:2779   */\n    tag_77:\n        /* \"#utility.yul\":2663:2785   */\n      pop\n      jump\t// out\n\n    auxdata: 0xa2646970667358221220a079cde43d854956ac7b4d104b88af5541cad7cf606fb27a6109d6353f48948064736f6c63430008070033\n}\n",
				"bytecode": {
					"linkReferences": {},
					"object": "608060405234801561001057600080fd5b5061041f806100206000396000f3fe608060405234801561001057600080fd5b506004361061004c5760003560e01c80633825d828146100515780637f4401031461006d578063de8fa4311461009d578063e3d670d7146100bb575b600080fd5b61006b600480360381019061006691906102da565b6100eb565b005b610087600480360381019061008291906102ad565b61023e565b6040516100949190610338565b60405180910390f35b6100a561025e565b6040516100b29190610353565b60405180910390f35b6100d560048036038101906100d091906102ad565b61026b565b6040516100e29190610353565b60405180910390f35b806000808473ffffffffffffffffffffffffffffffffffffffff1673ffffffffffffffffffffffffffffffffffffffff16815260200190815260200160002081905550600160008373ffffffffffffffffffffffffffffffffffffffff1673ffffffffffffffffffffffffffffffffffffffff16815260200190815260200160002060009054906101000a900460ff1661023a5760018060008473ffffffffffffffffffffffffffffffffffffffff1673ffffffffffffffffffffffffffffffffffffffff16815260200190815260200160002060006101000a81548160ff0219169083151502179055506002829080600181540180825580915050600190039060005260206000200160009091909190916101000a81548173ffffffffffffffffffffffffffffffffffffffff021916908373ffffffffffffffffffffffffffffffffffffffff1602179055505b5050565b60016020528060005260406000206000915054906101000a900460ff1681565b6000600280549050905090565b60006020528060005260406000206000915090505481565b600081359050610292816103bb565b92915050565b6000813590506102a7816103d2565b92915050565b6000602082840312156102c3576102c26103b6565b5b60006102d184828501610283565b91505092915050565b600080604083850312156102f1576102f06103b6565b5b60006102ff85828601610283565b925050602061031085828601610298565b9150509250929050565b61032381610380565b82525050565b610332816103ac565b82525050565b600060208201905061034d600083018461031a565b92915050565b60006020820190506103686000830184610329565b92915050565b60006103798261038c565b9050919050565b60008115159050919050565b600073ffffffffffffffffffffffffffffffffffffffff82169050919050565b6000819050919050565b600080fd5b6103c48161036e565b81146103cf57600080fd5b50565b6103db816103ac565b81146103e657600080fd5b5056fea2646970667358221220a079cde43d854956ac7b4d104b88af5541cad7cf606fb27a6109d6353f48948064736f6c63430008070033",
					"opcodes": "PUSH1 0x80 PUSH1 0x40 MSTORE CALLVALUE DUP1 ISZERO PUSH2 0x10 JUMPI PUSH1 0x0 DUP1 REVERT JUMPDEST POP PUSH2 0x41F DUP1 PUSH2 0x20 PUSH1 0x0 CODECOPY PUSH1 0x0 RETURN INVALID PUSH1 0x80 PUSH1 0x40 MSTORE CALLVALUE DUP1 ISZERO PUSH2 0x10 JUMPI PUSH1 0x0 DUP1 REVERT JUMPDEST POP PUSH1 0x4 CALLDATASIZE LT PUSH2 0x4C JUMPI PUSH1 0x0 CALLDATALOAD PUSH1 0xE0 SHR DUP1 PUSH4 0x3825D828 EQ PUSH2 0x51 JUMPI DUP1 PUSH4 0x7F440103 EQ PUSH2 0x6D JUMPI DUP1 PUSH4 0xDE8FA431 EQ PUSH2 0x9D JUMPI DUP1 PUSH4 0xE3D670D7 EQ PUSH2 0xBB JUMPI JUMPDEST PUSH1 0x0 DUP1 REVERT JUMPDEST PUSH2 0x6B PUSH1 0x4 DUP1 CALLDATASIZE SUB DUP2 ADD SWAP1 PUSH2 0x66 SWAP2 SWAP1 PUSH2 0x2DA JUMP JUMPDEST PUSH2 0xEB JUMP JUMPDEST STOP JUMPDEST PUSH2 0x87 PUSH1 0x4 DUP1 CALLDATASIZE SUB DUP2 ADD SWAP1 PUSH2 0x82 SWAP2 SWAP1 PUSH2 0x2AD JUMP JUMPDEST PUSH2 0x23E JUMP JUMPDEST PUSH1 0x40 MLOAD PUSH2 0x94 SWAP2 SWAP1 PUSH2 0x338 JUMP JUMPDEST PUSH1 0x40 MLOAD DUP1 SWAP2 SUB SWAP1 RETURN JUMPDEST PUSH2 0xA5 PUSH2 0x25E JUMP JUMPDEST PUSH1 0x40 MLOAD PUSH2 0xB2 SWAP2 SWAP1 PUSH2 0x353 JUMP JUMPDEST PUSH1 0x40 MLOAD DUP1 SWAP2 SUB SWAP1 RETURN JUMPDEST PUSH2 0xD5 PUSH1 0x4 DUP1 CALLDATASIZE SUB DUP2 ADD SWAP1 PUSH2 0xD0 SWAP2 SWAP1 PUSH2 0x2AD JUMP JUMPDEST PUSH2 0x26B JUMP JUMPDEST PUSH1 0x40 MLOAD PUSH2 0xE2 SWAP2 SWAP1 PUSH2 0x353 JUMP JUMPDEST PUSH1 0x40 MLOAD DUP1 SWAP2 SUB SWAP1 RETURN JUMPDEST DUP1 PUSH1 0x0 DUP1 DUP5 PUSH20 0xFFFFFFFFFFFFFFFFFFFFFFFFFFFFFFFFFFFFFFFF AND PUSH20 0xFFFFFFFFFFFFFFFFFFFFFFFFFFFFFFFFFFFFFFFF AND DUP2 MSTORE PUSH1 0x20 ADD SWAP1 DUP2 MSTORE PUSH1 0x20 ADD PUSH1 0x0 KECCAK256 DUP2 SWAP1 SSTORE POP PUSH1 0x1 PUSH1 0x0 DUP4 PUSH20 0xFFFFFFFFFFFFFFFFFFFFFFFFFFFFFFFFFFFFFFFF AND PUSH20 0xFFFFFFFFFFFFFFFFFFFFFFFFFFFFFFFFFFFFFFFF AND DUP2 MSTORE PUSH1 0x20 ADD SWAP1 DUP2 MSTORE PUSH1 0x20 ADD PUSH1 0x0 KECCAK256 PUSH1 0x0 SWAP1 SLOAD SWAP1 PUSH2 0x100 EXP SWAP1 DIV PUSH1 0xFF AND PUSH2 0x23A JUMPI PUSH1 0x1 DUP1 PUSH1 0x0 DUP5 PUSH20 0xFFFFFFFFFFFFFFFFFFFFFFFFFFFFFFFFFFFFFFFF AND PUSH20 0xFFFFFFFFFFFFFFFFFFFFFFFFFFFFFFFFFFFFFFFF AND DUP2 MSTORE PUSH1 0x20 ADD SWAP1 DUP2 MSTORE PUSH1 0x20 ADD PUSH1 0x0 KECCAK256 PUSH1 0x0 PUSH2 0x100 EXP DUP2 SLOAD DUP2 PUSH1 0xFF MUL NOT AND SWAP1 DUP4 ISZERO ISZERO MUL OR SWAP1 SSTORE POP PUSH1 0x2 DUP3 SWAP1 DUP1 PUSH1 0x1 DUP2 SLOAD ADD DUP1 DUP3 SSTORE DUP1 SWAP2 POP POP PUSH1 0x1 SWAP1 SUB SWAP1 PUSH1 0x0 MSTORE PUSH1 0x20 PUSH1 0x0 KECCAK256 ADD PUSH1 0x0 SWAP1 SWAP2 SWAP1 SWAP2 SWAP1 SWAP2 PUSH2 0x100 EXP DUP2 SLOAD DUP2 PUSH20 0xFFFFFFFFFFFFFFFFFFFFFFFFFFFFFFFFFFFFFFFF MUL NOT AND SWAP1 DUP4 PUSH20 0xFFFFFFFFFFFFFFFFFFFFFFFFFFFFFFFFFFFFFFFF AND MUL OR SWAP1 SSTORE POP JUMPDEST POP POP JUMP JUMPDEST PUSH1 0x1 PUSH1 0x20 MSTORE DUP1 PUSH1 0x0 MSTORE PUSH1 0x40 PUSH1 0x0 KECCAK256 PUSH1 0x0 SWAP2 POP SLOAD SWAP1 PUSH2 0x100 EXP SWAP1 DIV PUSH1 0xFF AND DUP2 JUMP JUMPDEST PUSH1 0x0 PUSH1 0x2 DUP1 SLOAD SWAP1 POP SWAP1 POP SWAP1 JUMP JUMPDEST PUSH1 0x0 PUSH1 0x20 MSTORE DUP1 PUSH1 0x0 MSTORE PUSH1 0x40 PUSH1 0x0 KECCAK256 PUSH1 0x0 SWAP2 POP SWAP1 POP SLOAD DUP2 JUMP JUMPDEST PUSH1 0x0 DUP2 CALLDATALOAD SWAP1 POP PUSH2 0x292 DUP2 PUSH2 0x3BB JUMP JUMPDEST SWAP3 SWAP2 POP POP JUMP JUMPDEST PUSH1 0x0 DUP2 CALLDATALOAD SWAP1 POP PUSH2 0x2A7 DUP2 PUSH2 0x3D2 JUMP JUMPDEST SWAP3 SWAP2 POP POP JUMP JUMPDEST PUSH1 0x0 PUSH1 0x20 DUP3 DUP5 SUB SLT ISZERO PUSH2 0x2C3 JUMPI PUSH2 0x2C2 PUSH2 0x3B6 JUMP JUMPDEST JUMPDEST PUSH1 0x0 PUSH2 0x2D1 DUP5 DUP3 DUP6 ADD PUSH2 0x283 JUMP JUMPDEST SWAP2 POP POP SWAP3 SWAP2 POP POP JUMP JUMPDEST PUSH1 0x0 DUP1 PUSH1 0x40 DUP4 DUP6 SUB SLT ISZERO PUSH2 0x2F1 JUMPI PUSH2 0x2F0 PUSH2 0x3B6 JUMP JUMPDEST JUMPDEST PUSH1 0x0 PUSH2 0x2FF DUP6 DUP3 DUP7 ADD PUSH2 0x283 JUMP JUMPDEST SWAP3 POP POP PUSH1 0x20 PUSH2 0x310 DUP6 DUP3 DUP7 ADD PUSH2 0x298 JUMP JUMPDEST SWAP2 POP POP SWAP3 POP SWAP3 SWAP1 POP JUMP JUMPDEST PUSH2 0x323 DUP2 PUSH2 0x380 JUMP JUMPDEST DUP3 MSTORE POP POP JUMP JUMPDEST PUSH2 0x332 DUP2 PUSH2 0x3AC JUMP JUMPDEST DUP3 MSTORE POP POP JUMP JUMPDEST PUSH1 0x0 PUSH1 0x20 DUP3 ADD SWAP1 POP PUSH2 0x34D PUSH1 0x0 DUP4 ADD DUP5 PUSH2 0x31A JUMP JUMPDEST SWAP3 SWAP2 POP POP JUMP JUMPDEST PUSH1 0x0 PUSH1 0x20 DUP3 ADD SWAP1 POP PUSH2 0x368 PUSH1 0x0 DUP4 ADD DUP5 PUSH2 0x329 JUMP JUMPDEST SWAP3 SWAP2 POP POP JUMP JUMPDEST PUSH1 0x0 PUSH2 0x379 DUP3 PUSH2 0x38C JUMP JUMPDEST SWAP1 POP SWAP2 SWAP1 POP JUMP JUMPDEST PUSH1 0x0 DUP2 ISZERO ISZERO SWAP1 POP SWAP2 SWAP1 POP JUMP JUMPDEST PUSH1 0x0 PUSH20 0xFFFFFFFFFFFFFFFFFFFFFFFFFFFFFFFFFFFFFFFF DUP3 AND SWAP1 POP SWAP2 SWAP1 POP JUMP JUMPDEST PUSH1 0x0 DUP2 SWAP1 POP SWAP2 SWAP1 POP JUMP JUMPDEST PUSH1 0x0 DUP1 REVERT JUMPDEST PUSH2 0x3C4 DUP2 PUSH2 0x36E JUMP JUMPDEST DUP2 EQ PUSH2 0x3CF JUMPI PUSH1 0x0 DUP1 REVERT JUMPDEST POP JUMP JUMPDEST PUSH2 0x3DB DUP2 PUSH2 0x3AC JUMP JUMPDEST DUP2 EQ PUSH2 0x3E6 JUMPI PUSH1 0x0 DUP1 REVERT JUMPDEST POP JUMP INVALID LOG2 PUSH5 0x6970667358 0x22 SLT KECCAK256 LOG0 PUSH26 0xCDE43D854956AC7B4D104B88AF5541CAD7CF606FB27A6109D635 EXTCODEHASH BASEFEE SWAP5 DUP1 PUSH5 0x736F6C6343 STOP ADDMOD SMOD STOP CALLER "
				},
				"gasEstimates": {
					"creation": {
						"codeDepositCost": "211000",
						"executionCost": "251",
						"totalCost": "211251"
					},
					"external": {
						"added(address)": "2845",
						"balance(address)": "2858",
						"getSize()": "2467",
						"set(address,uint256)": "97989"
					}
				},
				"methodIdentifiers": {
					"added(address)": "7f440103",
					"balance(address)": "e3d670d7",
					"getSize()": "de8fa431",
					"set(address,uint256)": "3825d828"
				}
			},
			"storageLayout": {
				"storage": [
					{
						"astId": 5,
						"contract": "Documents/dev/Lime/contracts/Mapping.sol:Mapping",
						"label": "balance",
						"offset": 0,
						"slot": "0",
						"type": "t_mapping(t_address,t_uint256)"
					},
					{
						"astId": 9,
						"contract": "Documents/dev/Lime/contracts/Mapping.sol:Mapping",
						"label": "added",
						"offset": 0,
						"slot": "1",
						"type": "t_mapping(t_address,t_bool)"
					},
					{
						"astId": 12,
						"contract": "Documents/dev/Lime/contracts/Mapping.sol:Mapping",
						"label": "keys",
						"offset": 0,
						"slot": "2",
						"type": "t_array(t_address)dyn_storage"
					}
				],
				"types": {
					"t_address": {
						"encoding": "inplace",
						"label": "address",
						"numberOfBytes": "20"
					},
					"t_array(t_address)dyn_storage": {
						"base": "t_address",
						"encoding": "dynamic_array",
						"label": "address[]",
						"numberOfBytes": "32"
					},
					"t_bool": {
						"encoding": "inplace",
						"label": "bool",
						"numberOfBytes": "1"
					},
					"t_mapping(t_address,t_bool)": {
						"encoding": "mapping",
						"key": "t_address",
						"label": "mapping(address => bool)",
						"numberOfBytes": "32",
						"value": "t_bool"
					},
					"t_mapping(t_address,t_uint256)": {
						"encoding": "mapping",
						"key": "t_address",
						"label": "mapping(address => uint256)",
						"numberOfBytes": "32",
						"value": "t_uint256"
					},
					"t_uint256": {
						"encoding": "inplace",
						"label": "uint256",
						"numberOfBytes": "32"
					}
				}
			},
			"userdoc": {
				"kind": "user",
				"methods": {},
				"version": 1
			}
		}
	}
}