{
	"Documents/dev/Lime/contracts/Arrays.sol": {
		"Arrays": {
			"abi": [
				{
					"inputs": [
						{
							"internalType": "uint256",
							"name": "",
							"type": "uint256"
						}
					],
					"name": "arr",
					"outputs": [
						{
							"internalType": "uint256",
							"name": "",
							"type": "uint256"
						}
					],
					"stateMutability": "view",
					"type": "function"
				},
				{
					"inputs": [
						{
							"internalType": "uint256",
							"name": "",
							"type": "uint256"
						}
					],
					"name": "arr2",
					"outputs": [
						{
							"internalType": "uint256",
							"name": "",
							"type": "uint256"
						}
					],
					"stateMutability": "view",
					"type": "function"
				},
				{
					"inputs": [
						{
							"internalType": "uint256",
							"name": "i",
							"type": "uint256"
						}
					],
					"name": "derRemove",
					"outputs": [],
					"stateMutability": "nonpayable",
					"type": "function"
				},
				{
					"inputs": [
						{
							"internalType": "uint256",
							"name": "i",
							"type": "uint256"
						}
					],
					"name": "orderRemove",
					"outputs": [],
					"stateMutability": "nonpayable",
					"type": "function"
				}
			],
			"devdoc": {
				"kind": "dev",
				"methods": {},
				"version": 1
			},
			"evm": {
				"assembly": "    /* \"Documents/dev/Lime/contracts/Arrays.sol\":56:525  contract Arrays{... */\n  mstore(0x40, 0x80)\n    /* \"Documents/dev/Lime/contracts/Arrays.sol\":96:129  uint[] public arr = [1,2,3,4,5,6] */\n  mload(0x40)\n  dup1\n  0xc0\n  add\n  0x40\n  mstore\n  dup1\n    /* \"Documents/dev/Lime/contracts/Arrays.sol\":117:118  1 */\n  0x01\n    /* \"Documents/dev/Lime/contracts/Arrays.sol\":96:129  uint[] public arr = [1,2,3,4,5,6] */\n  0xff\n  and\n  dup2\n  mstore\n  0x20\n  add\n    /* \"Documents/dev/Lime/contracts/Arrays.sol\":119:120  2 */\n  0x02\n    /* \"Documents/dev/Lime/contracts/Arrays.sol\":96:129  uint[] public arr = [1,2,3,4,5,6] */\n  0xff\n  and\n  dup2\n  mstore\n  0x20\n  add\n    /* \"Documents/dev/Lime/contracts/Arrays.sol\":121:122  3 */\n  0x03\n    /* \"Documents/dev/Lime/contracts/Arrays.sol\":96:129  uint[] public arr = [1,2,3,4,5,6] */\n  0xff\n  and\n  dup2\n  mstore\n  0x20\n  add\n    /* \"Documents/dev/Lime/contracts/Arrays.sol\":123:124  4 */\n  0x04\n    /* \"Documents/dev/Lime/contracts/Arrays.sol\":96:129  uint[] public arr = [1,2,3,4,5,6] */\n  0xff\n  and\n  dup2\n  mstore\n  0x20\n  add\n    /* \"Documents/dev/Lime/contracts/Arrays.sol\":125:126  5 */\n  0x05\n    /* \"Documents/dev/Lime/contracts/Arrays.sol\":96:129  uint[] public arr = [1,2,3,4,5,6] */\n  0xff\n  and\n  dup2\n  mstore\n  0x20\n  add\n    /* \"Documents/dev/Lime/contracts/Arrays.sol\":127:128  6 */\n  0x06\n    /* \"Documents/dev/Lime/contracts/Arrays.sol\":96:129  uint[] public arr = [1,2,3,4,5,6] */\n  0xff\n  and\n  dup2\n  mstore\n  pop\n  0x00\n  swap1\n  0x06\n  tag_1\n  swap3\n  swap2\n  swap1\n  tag_2\n  jump\t// in\ntag_1:\n  pop\n    /* \"Documents/dev/Lime/contracts/Arrays.sol\":152:181  uint[3] public arr2 = [1,2,3] */\n  mload(0x40)\n  dup1\n  0x60\n  add\n  0x40\n  mstore\n  dup1\n    /* \"Documents/dev/Lime/contracts/Arrays.sol\":175:176  1 */\n  0x01\n    /* \"Documents/dev/Lime/contracts/Arrays.sol\":152:181  uint[3] public arr2 = [1,2,3] */\n  0xff\n  and\n  dup2\n  mstore\n  0x20\n  add\n    /* \"Documents/dev/Lime/contracts/Arrays.sol\":177:178  2 */\n  0x02\n    /* \"Documents/dev/Lime/contracts/Arrays.sol\":152:181  uint[3] public arr2 = [1,2,3] */\n  0xff\n  and\n  dup2\n  mstore\n  0x20\n  add\n    /* \"Documents/dev/Lime/contracts/Arrays.sol\":179:180  3 */\n  0x03\n    /* \"Documents/dev/Lime/contracts/Arrays.sol\":152:181  uint[3] public arr2 = [1,2,3] */\n  0xff\n  and\n  dup2\n  mstore\n  pop\n  0x01\n  swap1\n  0x03\n  tag_3\n  swap3\n  swap2\n  swap1\n  tag_4\n  jump\t// in\ntag_3:\n  pop\n    /* \"Documents/dev/Lime/contracts/Arrays.sol\":56:525  contract Arrays{... */\n  callvalue\n  dup1\n  iszero\n  tag_5\n  jumpi\n  0x00\n  dup1\n  revert\ntag_5:\n  pop\n  jump(tag_6)\ntag_2:\n  dup3\n  dup1\n  sload\n  dup3\n  dup3\n  sstore\n  swap1\n  0x00\n  mstore\n  keccak256(0x00, 0x20)\n  swap1\n  dup2\n  add\n  swap3\n  dup3\n  iszero\n  tag_7\n  jumpi\n  swap2\n  0x20\n  mul\n  dup3\n  add\ntag_8:\n  dup3\n  dup2\n  gt\n  iszero\n  tag_9\n  jumpi\n  dup3\n  mload\n  dup3\n  swap1\n  0xff\n  and\n  swap1\n  sstore\n  swap2\n  0x20\n  add\n  swap2\n  swap1\n  0x01\n  add\n  swap1\n  jump(tag_8)\ntag_9:\ntag_7:\n  pop\n  swap1\n  pop\n  tag_10\n  swap2\n  swap1\n  tag_11\n  jump\t// in\ntag_10:\n  pop\n  swap1\n  jump\t// out\ntag_4:\n  dup3\n  0x03\n  dup2\n  add\n  swap3\n  dup3\n  iszero\n  tag_12\n  jumpi\n  swap2\n  0x20\n  mul\n  dup3\n  add\ntag_13:\n  dup3\n  dup2\n  gt\n  iszero\n  tag_14\n  jumpi\n  dup3\n  mload\n  dup3\n  swap1\n  0xff\n  and\n  swap1\n  sstore\n  swap2\n  0x20\n  add\n  swap2\n  swap1\n  0x01\n  add\n  swap1\n  jump(tag_13)\ntag_14:\ntag_12:\n  pop\n  swap1\n  pop\n  tag_15\n  swap2\n  swap1\n  tag_11\n  jump\t// in\ntag_15:\n  pop\n  swap1\n  jump\t// out\ntag_11:\ntag_16:\n  dup1\n  dup3\n  gt\n  iszero\n  tag_17\n  jumpi\n  0x00\n  dup2\n  0x00\n  swap1\n  sstore\n  pop\n  0x01\n  add\n  jump(tag_16)\ntag_17:\n  pop\n  swap1\n  jump\t// out\ntag_6:\n  dataSize(sub_0)\n  dup1\n  dataOffset(sub_0)\n  0x00\n  codecopy\n  0x00\n  return\nstop\n\nsub_0: assembly {\n        /* \"Documents/dev/Lime/contracts/Arrays.sol\":56:525  contract Arrays{... */\n      mstore(0x40, 0x80)\n      callvalue\n      dup1\n      iszero\n      tag_1\n      jumpi\n      0x00\n      dup1\n      revert\n    tag_1:\n      pop\n      jumpi(tag_2, lt(calldatasize, 0x04))\n      shr(0xe0, calldataload(0x00))\n      dup1\n      0x71e5ee5f\n      eq\n      tag_3\n      jumpi\n      dup1\n      0x91d70b0e\n      eq\n      tag_4\n      jumpi\n      dup1\n      0xb1a86309\n      eq\n      tag_5\n      jumpi\n      dup1\n      0xedf0099b\n      eq\n      tag_6\n      jumpi\n    tag_2:\n      0x00\n      dup1\n      revert\n        /* \"Documents/dev/Lime/contracts/Arrays.sol\":96:129  uint[] public arr = [1,2,3,4,5,6] */\n    tag_3:\n      tag_7\n      0x04\n      dup1\n      calldatasize\n      sub\n      dup2\n      add\n      swap1\n      tag_8\n      swap2\n      swap1\n      tag_9\n      jump\t// in\n    tag_8:\n      tag_10\n      jump\t// in\n    tag_7:\n      mload(0x40)\n      tag_11\n      swap2\n      swap1\n      tag_12\n      jump\t// in\n    tag_11:\n      mload(0x40)\n      dup1\n      swap2\n      sub\n      swap1\n      return\n        /* \"Documents/dev/Lime/contracts/Arrays.sol\":359:522  function derRemove(uint i) public {... */\n    tag_4:\n      tag_13\n      0x04\n      dup1\n      calldatasize\n      sub\n      dup2\n      add\n      swap1\n      tag_14\n      swap2\n      swap1\n      tag_9\n      jump\t// in\n    tag_14:\n      tag_15\n      jump\t// in\n    tag_13:\n      stop\n        /* \"Documents/dev/Lime/contracts/Arrays.sol\":188:353  function orderRemove(uint i) public {... */\n    tag_5:\n      tag_16\n      0x04\n      dup1\n      calldatasize\n      sub\n      dup2\n      add\n      swap1\n      tag_17\n      swap2\n      swap1\n      tag_9\n      jump\t// in\n    tag_17:\n      tag_18\n      jump\t// in\n    tag_16:\n      stop\n        /* \"Documents/dev/Lime/contracts/Arrays.sol\":152:181  uint[3] public arr2 = [1,2,3] */\n    tag_6:\n      tag_19\n      0x04\n      dup1\n      calldatasize\n      sub\n      dup2\n      add\n      swap1\n      tag_20\n      swap2\n      swap1\n      tag_9\n      jump\t// in\n    tag_20:\n      tag_21\n      jump\t// in\n    tag_19:\n      mload(0x40)\n      tag_22\n      swap2\n      swap1\n      tag_12\n      jump\t// in\n    tag_22:\n      mload(0x40)\n      dup1\n      swap2\n      sub\n      swap1\n      return\n        /* \"Documents/dev/Lime/contracts/Arrays.sol\":96:129  uint[] public arr = [1,2,3,4,5,6] */\n    tag_10:\n      0x00\n      dup2\n      dup2\n      sload\n      dup2\n      lt\n      tag_23\n      jumpi\n      0x00\n      dup1\n      revert\n    tag_23:\n      swap1\n      0x00\n      mstore\n      keccak256(0x00, 0x20)\n      add\n      0x00\n      swap2\n      pop\n      swap1\n      pop\n      sload\n      dup2\n      jump\t// out\n        /* \"Documents/dev/Lime/contracts/Arrays.sol\":359:522  function derRemove(uint i) public {... */\n    tag_15:\n        /* \"Documents/dev/Lime/contracts/Arrays.sol\":412:415  arr */\n      0x00\n        /* \"Documents/dev/Lime/contracts/Arrays.sol\":412:422  arr.length */\n      dup1\n      sload\n      swap1\n      pop\n        /* \"Documents/dev/Lime/contracts/Arrays.sol\":410:411  i */\n      dup2\n        /* \"Documents/dev/Lime/contracts/Arrays.sol\":410:422  i<arr.length */\n      lt\n        /* \"Documents/dev/Lime/contracts/Arrays.sol\":403:423  assert(i<arr.length) */\n      tag_26\n      jumpi\n      tag_27\n      tag_28\n      jump\t// in\n    tag_27:\n    tag_26:\n        /* \"Documents/dev/Lime/contracts/Arrays.sol\":433:497  for(;i<arr.length-1;i++){... */\n    tag_29:\n        /* \"Documents/dev/Lime/contracts/Arrays.sol\":451:452  1 */\n      0x01\n        /* \"Documents/dev/Lime/contracts/Arrays.sol\":440:443  arr */\n      0x00\n        /* \"Documents/dev/Lime/contracts/Arrays.sol\":440:450  arr.length */\n      dup1\n      sload\n      swap1\n      pop\n        /* \"Documents/dev/Lime/contracts/Arrays.sol\":440:452  arr.length-1 */\n      tag_32\n      swap2\n      swap1\n      tag_33\n      jump\t// in\n    tag_32:\n        /* \"Documents/dev/Lime/contracts/Arrays.sol\":438:439  i */\n      dup2\n        /* \"Documents/dev/Lime/contracts/Arrays.sol\":438:452  i<arr.length-1 */\n      lt\n        /* \"Documents/dev/Lime/contracts/Arrays.sol\":433:497  for(;i<arr.length-1;i++){... */\n      iszero\n      tag_30\n      jumpi\n        /* \"Documents/dev/Lime/contracts/Arrays.sol\":478:481  arr */\n      0x00\n        /* \"Documents/dev/Lime/contracts/Arrays.sol\":484:485  1 */\n      0x01\n        /* \"Documents/dev/Lime/contracts/Arrays.sol\":482:483  i */\n      dup3\n        /* \"Documents/dev/Lime/contracts/Arrays.sol\":482:485  i+1 */\n      tag_34\n      swap2\n      swap1\n      tag_35\n      jump\t// in\n    tag_34:\n        /* \"Documents/dev/Lime/contracts/Arrays.sol\":478:486  arr[i+1] */\n      dup2\n      sload\n      dup2\n      lt\n      tag_36\n      jumpi\n      tag_37\n      tag_38\n      jump\t// in\n    tag_37:\n    tag_36:\n      swap1\n      0x00\n      mstore\n      keccak256(0x00, 0x20)\n      add\n      sload\n        /* \"Documents/dev/Lime/contracts/Arrays.sol\":471:474  arr */\n      0x00\n        /* \"Documents/dev/Lime/contracts/Arrays.sol\":475:476  i */\n      dup3\n        /* \"Documents/dev/Lime/contracts/Arrays.sol\":471:477  arr[i] */\n      dup2\n      sload\n      dup2\n      lt\n      tag_40\n      jumpi\n      tag_41\n      tag_38\n      jump\t// in\n    tag_41:\n    tag_40:\n      swap1\n      0x00\n      mstore\n      keccak256(0x00, 0x20)\n      add\n        /* \"Documents/dev/Lime/contracts/Arrays.sol\":471:486  arr[i]=arr[i+1] */\n      dup2\n      swap1\n      sstore\n      pop\n        /* \"Documents/dev/Lime/contracts/Arrays.sol\":453:456  i++ */\n      dup1\n      dup1\n      tag_43\n      swap1\n      tag_44\n      jump\t// in\n    tag_43:\n      swap2\n      pop\n      pop\n        /* \"Documents/dev/Lime/contracts/Arrays.sol\":433:497  for(;i<arr.length-1;i++){... */\n      jump(tag_29)\n    tag_30:\n        /* \"Documents/dev/Lime/contracts/Arrays.sol\":506:509  arr */\n      0x00\n        /* \"Documents/dev/Lime/contracts/Arrays.sol\":506:515  arr.pop() */\n      dup1\n      sload\n      dup1\n      tag_45\n      jumpi\n      tag_46\n      tag_47\n      jump\t// in\n    tag_46:\n    tag_45:\n      0x01\n      swap1\n      sub\n      dup2\n      dup2\n      swap1\n      0x00\n      mstore\n      keccak256(0x00, 0x20)\n      add\n      0x00\n      swap1\n      sstore\n      swap1\n      sstore\n        /* \"Documents/dev/Lime/contracts/Arrays.sol\":359:522  function derRemove(uint i) public {... */\n      pop\n      jump\t// out\n        /* \"Documents/dev/Lime/contracts/Arrays.sol\":188:353  function orderRemove(uint i) public {... */\n    tag_18:\n        /* \"Documents/dev/Lime/contracts/Arrays.sol\":243:246  arr */\n      0x00\n        /* \"Documents/dev/Lime/contracts/Arrays.sol\":243:253  arr.length */\n      dup1\n      sload\n      swap1\n      pop\n        /* \"Documents/dev/Lime/contracts/Arrays.sol\":241:242  i */\n      dup2\n        /* \"Documents/dev/Lime/contracts/Arrays.sol\":241:253  i<arr.length */\n      lt\n        /* \"Documents/dev/Lime/contracts/Arrays.sol\":234:254  assert(i<arr.length) */\n      tag_50\n      jumpi\n      tag_51\n      tag_28\n      jump\t// in\n    tag_51:\n    tag_50:\n        /* \"Documents/dev/Lime/contracts/Arrays.sol\":264:328  for(;i<arr.length-1;i++){... */\n    tag_52:\n        /* \"Documents/dev/Lime/contracts/Arrays.sol\":282:283  1 */\n      0x01\n        /* \"Documents/dev/Lime/contracts/Arrays.sol\":271:274  arr */\n      0x00\n        /* \"Documents/dev/Lime/contracts/Arrays.sol\":271:281  arr.length */\n      dup1\n      sload\n      swap1\n      pop\n        /* \"Documents/dev/Lime/contracts/Arrays.sol\":271:283  arr.length-1 */\n      tag_55\n      swap2\n      swap1\n      tag_33\n      jump\t// in\n    tag_55:\n        /* \"Documents/dev/Lime/contracts/Arrays.sol\":269:270  i */\n      dup2\n        /* \"Documents/dev/Lime/contracts/Arrays.sol\":269:283  i<arr.length-1 */\n      lt\n        /* \"Documents/dev/Lime/contracts/Arrays.sol\":264:328  for(;i<arr.length-1;i++){... */\n      iszero\n      tag_53\n      jumpi\n        /* \"Documents/dev/Lime/contracts/Arrays.sol\":309:312  arr */\n      0x00\n        /* \"Documents/dev/Lime/contracts/Arrays.sol\":315:316  1 */\n      0x01\n        /* \"Documents/dev/Lime/contracts/Arrays.sol\":313:314  i */\n      dup3\n        /* \"Documents/dev/Lime/contracts/Arrays.sol\":313:316  i+1 */\n      tag_56\n      swap2\n      swap1\n      tag_35\n      jump\t// in\n    tag_56:\n        /* \"Documents/dev/Lime/contracts/Arrays.sol\":309:317  arr[i+1] */\n      dup2\n      sload\n      dup2\n      lt\n      tag_57\n      jumpi\n      tag_58\n      tag_38\n      jump\t// in\n    tag_58:\n    tag_57:\n      swap1\n      0x00\n      mstore\n      keccak256(0x00, 0x20)\n      add\n      sload\n        /* \"Documents/dev/Lime/contracts/Arrays.sol\":302:305  arr */\n      0x00\n        /* \"Documents/dev/Lime/contracts/Arrays.sol\":306:307  i */\n      dup3\n        /* \"Documents/dev/Lime/contracts/Arrays.sol\":302:308  arr[i] */\n      dup2\n      sload\n      dup2\n      lt\n      tag_60\n      jumpi\n      tag_61\n      tag_38\n      jump\t// in\n    tag_61:\n    tag_60:\n      swap1\n      0x00\n      mstore\n      keccak256(0x00, 0x20)\n      add\n        /* \"Documents/dev/Lime/contracts/Arrays.sol\":302:317  arr[i]=arr[i+1] */\n      dup2\n      swap1\n      sstore\n      pop\n        /* \"Documents/dev/Lime/contracts/Arrays.sol\":284:287  i++ */\n      dup1\n      dup1\n      tag_63\n      swap1\n      tag_44\n      jump\t// in\n    tag_63:\n      swap2\n      pop\n      pop\n        /* \"Documents/dev/Lime/contracts/Arrays.sol\":264:328  for(;i<arr.length-1;i++){... */\n      jump(tag_52)\n    tag_53:\n        /* \"Documents/dev/Lime/contracts/Arrays.sol\":337:340  arr */\n      0x00\n        /* \"Documents/dev/Lime/contracts/Arrays.sol\":337:346  arr.pop() */\n      dup1\n      sload\n      dup1\n      tag_64\n      jumpi\n      tag_65\n      tag_47\n      jump\t// in\n    tag_65:\n    tag_64:\n      0x01\n      swap1\n      sub\n      dup2\n      dup2\n      swap1\n      0x00\n      mstore\n      keccak256(0x00, 0x20)\n      add\n      0x00\n      swap1\n      sstore\n      swap1\n      sstore\n        /* \"Documents/dev/Lime/contracts/Arrays.sol\":188:353  function orderRemove(uint i) public {... */\n      pop\n      jump\t// out\n        /* \"Documents/dev/Lime/contracts/Arrays.sol\":152:181  uint[3] public arr2 = [1,2,3] */\n    tag_21:\n      0x01\n      dup2\n      0x03\n      dup2\n      lt\n      tag_67\n      jumpi\n      0x00\n      dup1\n      revert\n    tag_67:\n      add\n      0x00\n      swap2\n      pop\n      swap1\n      pop\n      sload\n      dup2\n      jump\t// out\n        /* \"#utility.yul\":7:146   */\n    tag_70:\n        /* \"#utility.yul\":53:58   */\n      0x00\n        /* \"#utility.yul\":91:97   */\n      dup2\n        /* \"#utility.yul\":78:98   */\n      calldataload\n        /* \"#utility.yul\":69:98   */\n      swap1\n      pop\n        /* \"#utility.yul\":107:140   */\n      tag_72\n        /* \"#utility.yul\":134:139   */\n      dup2\n        /* \"#utility.yul\":107:140   */\n      tag_73\n      jump\t// in\n    tag_72:\n        /* \"#utility.yul\":7:146   */\n      swap3\n      swap2\n      pop\n      pop\n      jump\t// out\n        /* \"#utility.yul\":152:481   */\n    tag_9:\n        /* \"#utility.yul\":211:217   */\n      0x00\n        /* \"#utility.yul\":260:262   */\n      0x20\n        /* \"#utility.yul\":248:257   */\n      dup3\n        /* \"#utility.yul\":239:246   */\n      dup5\n        /* \"#utility.yul\":235:258   */\n      sub\n        /* \"#utility.yul\":231:263   */\n      slt\n        /* \"#utility.yul\":228:347   */\n      iszero\n      tag_75\n      jumpi\n        /* \"#utility.yul\":266:345   */\n      tag_76\n      tag_77\n      jump\t// in\n    tag_76:\n        /* \"#utility.yul\":228:347   */\n    tag_75:\n        /* \"#utility.yul\":386:387   */\n      0x00\n        /* \"#utility.yul\":411:464   */\n      tag_78\n        /* \"#utility.yul\":456:463   */\n      dup5\n        /* \"#utility.yul\":447:453   */\n      dup3\n        /* \"#utility.yul\":436:445   */\n      dup6\n        /* \"#utility.yul\":432:454   */\n      add\n        /* \"#utility.yul\":411:464   */\n      tag_70\n      jump\t// in\n    tag_78:\n        /* \"#utility.yul\":401:464   */\n      swap2\n      pop\n        /* \"#utility.yul\":357:474   */\n      pop\n        /* \"#utility.yul\":152:481   */\n      swap3\n      swap2\n      pop\n      pop\n      jump\t// out\n        /* \"#utility.yul\":487:605   */\n    tag_79:\n        /* \"#utility.yul\":574:598   */\n      tag_81\n        /* \"#utility.yul\":592:597   */\n      dup2\n        /* \"#utility.yul\":574:598   */\n      tag_82\n      jump\t// in\n    tag_81:\n        /* \"#utility.yul\":569:572   */\n      dup3\n        /* \"#utility.yul\":562:599   */\n      mstore\n        /* \"#utility.yul\":487:605   */\n      pop\n      pop\n      jump\t// out\n        /* \"#utility.yul\":611:833   */\n    tag_12:\n        /* \"#utility.yul\":704:708   */\n      0x00\n        /* \"#utility.yul\":742:744   */\n      0x20\n        /* \"#utility.yul\":731:740   */\n      dup3\n        /* \"#utility.yul\":727:745   */\n      add\n        /* \"#utility.yul\":719:745   */\n      swap1\n      pop\n        /* \"#utility.yul\":755:826   */\n      tag_84\n        /* \"#utility.yul\":823:824   */\n      0x00\n        /* \"#utility.yul\":812:821   */\n      dup4\n        /* \"#utility.yul\":808:825   */\n      add\n        /* \"#utility.yul\":799:805   */\n      dup5\n        /* \"#utility.yul\":755:826   */\n      tag_79\n      jump\t// in\n    tag_84:\n        /* \"#utility.yul\":611:833   */\n      swap3\n      swap2\n      pop\n      pop\n      jump\t// out\n        /* \"#utility.yul\":920:1225   */\n    tag_35:\n        /* \"#utility.yul\":960:963   */\n      0x00\n        /* \"#utility.yul\":979:999   */\n      tag_88\n        /* \"#utility.yul\":997:998   */\n      dup3\n        /* \"#utility.yul\":979:999   */\n      tag_82\n      jump\t// in\n    tag_88:\n        /* \"#utility.yul\":974:999   */\n      swap2\n      pop\n        /* \"#utility.yul\":1013:1033   */\n      tag_89\n        /* \"#utility.yul\":1031:1032   */\n      dup4\n        /* \"#utility.yul\":1013:1033   */\n      tag_82\n      jump\t// in\n    tag_89:\n        /* \"#utility.yul\":1008:1033   */\n      swap3\n      pop\n        /* \"#utility.yul\":1167:1168   */\n      dup3\n        /* \"#utility.yul\":1099:1165   */\n      0xffffffffffffffffffffffffffffffffffffffffffffffffffffffffffffffff\n        /* \"#utility.yul\":1095:1169   */\n      sub\n        /* \"#utility.yul\":1092:1093   */\n      dup3\n        /* \"#utility.yul\":1089:1170   */\n      gt\n        /* \"#utility.yul\":1086:1193   */\n      iszero\n      tag_90\n      jumpi\n        /* \"#utility.yul\":1173:1191   */\n      tag_91\n      tag_92\n      jump\t// in\n    tag_91:\n        /* \"#utility.yul\":1086:1193   */\n    tag_90:\n        /* \"#utility.yul\":1217:1218   */\n      dup3\n        /* \"#utility.yul\":1214:1215   */\n      dup3\n        /* \"#utility.yul\":1210:1219   */\n      add\n        /* \"#utility.yul\":1203:1219   */\n      swap1\n      pop\n        /* \"#utility.yul\":920:1225   */\n      swap3\n      swap2\n      pop\n      pop\n      jump\t// out\n        /* \"#utility.yul\":1231:1422   */\n    tag_33:\n        /* \"#utility.yul\":1271:1275   */\n      0x00\n        /* \"#utility.yul\":1291:1311   */\n      tag_94\n        /* \"#utility.yul\":1309:1310   */\n      dup3\n        /* \"#utility.yul\":1291:1311   */\n      tag_82\n      jump\t// in\n    tag_94:\n        /* \"#utility.yul\":1286:1311   */\n      swap2\n      pop\n        /* \"#utility.yul\":1325:1345   */\n      tag_95\n        /* \"#utility.yul\":1343:1344   */\n      dup4\n        /* \"#utility.yul\":1325:1345   */\n      tag_82\n      jump\t// in\n    tag_95:\n        /* \"#utility.yul\":1320:1345   */\n      swap3\n      pop\n        /* \"#utility.yul\":1364:1365   */\n      dup3\n        /* \"#utility.yul\":1361:1362   */\n      dup3\n        /* \"#utility.yul\":1358:1366   */\n      lt\n        /* \"#utility.yul\":1355:1389   */\n      iszero\n      tag_96\n      jumpi\n        /* \"#utility.yul\":1369:1387   */\n      tag_97\n      tag_92\n      jump\t// in\n    tag_97:\n        /* \"#utility.yul\":1355:1389   */\n    tag_96:\n        /* \"#utility.yul\":1414:1415   */\n      dup3\n        /* \"#utility.yul\":1411:1412   */\n      dup3\n        /* \"#utility.yul\":1407:1416   */\n      sub\n        /* \"#utility.yul\":1399:1416   */\n      swap1\n      pop\n        /* \"#utility.yul\":1231:1422   */\n      swap3\n      swap2\n      pop\n      pop\n      jump\t// out\n        /* \"#utility.yul\":1428:1505   */\n    tag_82:\n        /* \"#utility.yul\":1465:1472   */\n      0x00\n        /* \"#utility.yul\":1494:1499   */\n      dup2\n        /* \"#utility.yul\":1483:1499   */\n      swap1\n      pop\n        /* \"#utility.yul\":1428:1505   */\n      swap2\n      swap1\n      pop\n      jump\t// out\n        /* \"#utility.yul\":1511:1744   */\n    tag_44:\n        /* \"#utility.yul\":1550:1553   */\n      0x00\n        /* \"#utility.yul\":1573:1597   */\n      tag_100\n        /* \"#utility.yul\":1591:1596   */\n      dup3\n        /* \"#utility.yul\":1573:1597   */\n      tag_82\n      jump\t// in\n    tag_100:\n        /* \"#utility.yul\":1564:1597   */\n      swap2\n      pop\n        /* \"#utility.yul\":1619:1685   */\n      0xffffffffffffffffffffffffffffffffffffffffffffffffffffffffffffffff\n        /* \"#utility.yul\":1612:1617   */\n      dup3\n        /* \"#utility.yul\":1609:1686   */\n      eq\n        /* \"#utility.yul\":1606:1709   */\n      iszero\n      tag_101\n      jumpi\n        /* \"#utility.yul\":1689:1707   */\n      tag_102\n      tag_92\n      jump\t// in\n    tag_102:\n        /* \"#utility.yul\":1606:1709   */\n    tag_101:\n        /* \"#utility.yul\":1736:1737   */\n      0x01\n        /* \"#utility.yul\":1729:1734   */\n      dup3\n        /* \"#utility.yul\":1725:1738   */\n      add\n        /* \"#utility.yul\":1718:1738   */\n      swap1\n      pop\n        /* \"#utility.yul\":1511:1744   */\n      swap2\n      swap1\n      pop\n      jump\t// out\n        /* \"#utility.yul\":1750:1930   */\n    tag_28:\n        /* \"#utility.yul\":1798:1875   */\n      0x4e487b7100000000000000000000000000000000000000000000000000000000\n        /* \"#utility.yul\":1795:1796   */\n      0x00\n        /* \"#utility.yul\":1788:1876   */\n      mstore\n        /* \"#utility.yul\":1895:1899   */\n      0x01\n        /* \"#utility.yul\":1892:1893   */\n      0x04\n        /* \"#utility.yul\":1885:1900   */\n      mstore\n        /* \"#utility.yul\":1919:1923   */\n      0x24\n        /* \"#utility.yul\":1916:1917   */\n      0x00\n        /* \"#utility.yul\":1909:1924   */\n      revert\n        /* \"#utility.yul\":1936:2116   */\n    tag_92:\n        /* \"#utility.yul\":1984:2061   */\n      0x4e487b7100000000000000000000000000000000000000000000000000000000\n        /* \"#utility.yul\":1981:1982   */\n      0x00\n        /* \"#utility.yul\":1974:2062   */\n      mstore\n        /* \"#utility.yul\":2081:2085   */\n      0x11\n        /* \"#utility.yul\":2078:2079   */\n      0x04\n        /* \"#utility.yul\":2071:2086   */\n      mstore\n        /* \"#utility.yul\":2105:2109   */\n      0x24\n        /* \"#utility.yul\":2102:2103   */\n      0x00\n        /* \"#utility.yul\":2095:2110   */\n      revert\n        /* \"#utility.yul\":2122:2302   */\n    tag_47:\n        /* \"#utility.yul\":2170:2247   */\n      0x4e487b7100000000000000000000000000000000000000000000000000000000\n        /* \"#utility.yul\":2167:2168   */\n      0x00\n        /* \"#utility.yul\":2160:2248   */\n      mstore\n        /* \"#utility.yul\":2267:2271   */\n      0x31\n        /* \"#utility.yul\":2264:2265   */\n      0x04\n        /* \"#utility.yul\":2257:2272   */\n      mstore\n        /* \"#utility.yul\":2291:2295   */\n      0x24\n        /* \"#utility.yul\":2288:2289   */\n      0x00\n        /* \"#utility.yul\":2281:2296   */\n      revert\n        /* \"#utility.yul\":2308:2488   */\n    tag_38:\n        /* \"#utility.yul\":2356:2433   */\n      0x4e487b7100000000000000000000000000000000000000000000000000000000\n        /* \"#utility.yul\":2353:2354   */\n      0x00\n        /* \"#utility.yul\":2346:2434   */\n      mstore\n        /* \"#utility.yul\":2453:2457   */\n      0x32\n        /* \"#utility.yul\":2450:2451   */\n      0x04\n        /* \"#utility.yul\":2443:2458   */\n      mstore\n        /* \"#utility.yul\":2477:2481   */\n      0x24\n        /* \"#utility.yul\":2474:2475   */\n      0x00\n        /* \"#utility.yul\":2467:2482   */\n      revert\n        /* \"#utility.yul\":2617:2734   */\n    tag_77:\n        /* \"#utility.yul\":2726:2727   */\n      0x00\n        /* \"#utility.yul\":2723:2724   */\n      dup1\n        /* \"#utility.yul\":2716:2728   */\n      revert\n        /* \"#utility.yul\":2740:2862   */\n    tag_73:\n        /* \"#utility.yul\":2813:2837   */\n      tag_111\n        /* \"#utility.yul\":2831:2836   */\n      dup2\n        /* \"#utility.yul\":2813:2837   */\n      tag_82\n      jump\t// in\n    tag_111:\n        /* \"#utility.yul\":2806:2811   */\n      dup2\n        /* \"#utility.yul\":2803:2838   */\n      eq\n        /* \"#utility.yul\":2793:2856   */\n      tag_112\n      jumpi\n        /* \"#utility.yul\":2852:2853   */\n      0x00\n        /* \"#utility.yul\":2849:2850   */\n      dup1\n        /* \"#utility.yul\":2842:2854   */\n      revert\n        /* \"#utility.yul\":2793:2856   */\n    tag_112:\n        /* \"#utility.yul\":2740:2862   */\n      pop\n      jump\t// out\n\n    auxdata: 0xa26469706673582212200f009fe022358f82bde003b92d8952d0ba77623652be89c425480203a3ad75dc64736f6c63430008070033\n}\n",
				"bytecode": {
					"linkReferences": {},
					"object": "60806040526040518060c00160405280600160ff168152602001600260ff168152602001600360ff168152602001600460ff168152602001600560ff168152602001600660ff1681525060009060066100599291906100a4565b506040518060600160405280600160ff168152602001600260ff168152602001600360ff1681525060019060036100919291906100f6565b5034801561009e57600080fd5b50610158565b8280548282559060005260206000209081019282156100e5579160200282015b828111156100e4578251829060ff169055916020019190600101906100c4565b5b5090506100f2919061013b565b5090565b826003810192821561012a579160200282015b82811115610129578251829060ff16905591602001919060010190610109565b5b509050610137919061013b565b5090565b5b8082111561015457600081600090555060010161013c565b5090565b6104f3806101676000396000f3fe608060405234801561001057600080fd5b506004361061004c5760003560e01c806371e5ee5f1461005157806391d70b0e14610081578063b1a863091461009d578063edf0099b146100b9575b600080fd5b61006b600480360381019061006691906102b1565b6100e9565b60405161007891906102ed565b60405180910390f35b61009b600480360381019061009691906102b1565b61010d565b005b6100b760048036038101906100b291906102b1565b6101c7565b005b6100d360048036038101906100ce91906102b1565b610281565b6040516100e091906102ed565b60405180910390f35b600081815481106100f957600080fd5b906000526020600020016000915090505481565b6000805490508110610122576101216103e5565b5b5b6001600080549050610135919061035e565b81101561019c57600060018261014b9190610308565b8154811061015c5761015b610472565b5b90600052602060002001546000828154811061017b5761017a610472565b5b906000526020600020018190555080806101949061039c565b915050610123565b60008054806101ae576101ad610443565b5b6001900381819060005260206000200160009055905550565b60008054905081106101dc576101db6103e5565b5b5b60016000805490506101ef919061035e565b8110156102565760006001826102059190610308565b8154811061021657610215610472565b5b90600052602060002001546000828154811061023557610234610472565b5b9060005260206000200181905550808061024e9061039c565b9150506101dd565b600080548061026857610267610443565b5b6001900381819060005260206000200160009055905550565b6001816003811061029157600080fd5b016000915090505481565b6000813590506102ab816104a6565b92915050565b6000602082840312156102c7576102c66104a1565b5b60006102d58482850161029c565b91505092915050565b6102e781610392565b82525050565b600060208201905061030260008301846102de565b92915050565b600061031382610392565b915061031e83610392565b9250827fffffffffffffffffffffffffffffffffffffffffffffffffffffffffffffffff0382111561035357610352610414565b5b828201905092915050565b600061036982610392565b915061037483610392565b92508282101561038757610386610414565b5b828203905092915050565b6000819050919050565b60006103a782610392565b91507fffffffffffffffffffffffffffffffffffffffffffffffffffffffffffffffff8214156103da576103d9610414565b5b600182019050919050565b7f4e487b7100000000000000000000000000000000000000000000000000000000600052600160045260246000fd5b7f4e487b7100000000000000000000000000000000000000000000000000000000600052601160045260246000fd5b7f4e487b7100000000000000000000000000000000000000000000000000000000600052603160045260246000fd5b7f4e487b7100000000000000000000000000000000000000000000000000000000600052603260045260246000fd5b600080fd5b6104af81610392565b81146104ba57600080fd5b5056fea26469706673582212200f009fe022358f82bde003b92d8952d0ba77623652be89c425480203a3ad75dc64736f6c63430008070033",
					"opcodes": "PUSH1 0x80 PUSH1 0x40 MSTORE PUSH1 0x40 MLOAD DUP1 PUSH1 0xC0 ADD PUSH1 0x40 MSTORE DUP1 PUSH1 0x1 PUSH1 0xFF AND DUP2 MSTORE PUSH1 0x20 ADD PUSH1 0x2 PUSH1 0xFF AND DUP2 MSTORE PUSH1 0x20 ADD PUSH1 0x3 PUSH1 0xFF AND DUP2 MSTORE PUSH1 0x20 ADD PUSH1 0x4 PUSH1 0xFF AND DUP2 MSTORE PUSH1 0x20 ADD PUSH1 0x5 PUSH1 0xFF AND DUP2 MSTORE PUSH1 0x20 ADD PUSH1 0x6 PUSH1 0xFF AND DUP2 MSTORE POP PUSH1 0x0 SWAP1 PUSH1 0x6 PUSH2 0x59 SWAP3 SWAP2 SWAP1 PUSH2 0xA4 JUMP JUMPDEST POP PUSH1 0x40 MLOAD DUP1 PUSH1 0x60 ADD PUSH1 0x40 MSTORE DUP1 PUSH1 0x1 PUSH1 0xFF AND DUP2 MSTORE PUSH1 0x20 ADD PUSH1 0x2 PUSH1 0xFF AND DUP2 MSTORE PUSH1 0x20 ADD PUSH1 0x3 PUSH1 0xFF AND DUP2 MSTORE POP PUSH1 0x1 SWAP1 PUSH1 0x3 PUSH2 0x91 SWAP3 SWAP2 SWAP1 PUSH2 0xF6 JUMP JUMPDEST POP CALLVALUE DUP1 ISZERO PUSH2 0x9E JUMPI PUSH1 0x0 DUP1 REVERT JUMPDEST POP PUSH2 0x158 JUMP JUMPDEST DUP3 DUP1 SLOAD DUP3 DUP3 SSTORE SWAP1 PUSH1 0x0 MSTORE PUSH1 0x20 PUSH1 0x0 KECCAK256 SWAP1 DUP2 ADD SWAP3 DUP3 ISZERO PUSH2 0xE5 JUMPI SWAP2 PUSH1 0x20 MUL DUP3 ADD JUMPDEST DUP3 DUP2 GT ISZERO PUSH2 0xE4 JUMPI DUP3 MLOAD DUP3 SWAP1 PUSH1 0xFF AND SWAP1 SSTORE SWAP2 PUSH1 0x20 ADD SWAP2 SWAP1 PUSH1 0x1 ADD SWAP1 PUSH2 0xC4 JUMP JUMPDEST JUMPDEST POP SWAP1 POP PUSH2 0xF2 SWAP2 SWAP1 PUSH2 0x13B JUMP JUMPDEST POP SWAP1 JUMP JUMPDEST DUP3 PUSH1 0x3 DUP2 ADD SWAP3 DUP3 ISZERO PUSH2 0x12A JUMPI SWAP2 PUSH1 0x20 MUL DUP3 ADD JUMPDEST DUP3 DUP2 GT ISZERO PUSH2 0x129 JUMPI DUP3 MLOAD DUP3 SWAP1 PUSH1 0xFF AND SWAP1 SSTORE SWAP2 PUSH1 0x20 ADD SWAP2 SWAP1 PUSH1 0x1 ADD SWAP1 PUSH2 0x109 JUMP JUMPDEST JUMPDEST POP SWAP1 POP PUSH2 0x137 SWAP2 SWAP1 PUSH2 0x13B JUMP JUMPDEST POP SWAP1 JUMP JUMPDEST JUMPDEST DUP1 DUP3 GT ISZERO PUSH2 0x154 JUMPI PUSH1 0x0 DUP2 PUSH1 0x0 SWAP1 SSTORE POP PUSH1 0x1 ADD PUSH2 0x13C JUMP JUMPDEST POP SWAP1 JUMP JUMPDEST PUSH2 0x4F3 DUP1 PUSH2 0x167 PUSH1 0x0 CODECOPY PUSH1 0x0 RETURN INVALID PUSH1 0x80 PUSH1 0x40 MSTORE CALLVALUE DUP1 ISZERO PUSH2 0x10 JUMPI PUSH1 0x0 DUP1 REVERT JUMPDEST POP PUSH1 0x4 CALLDATASIZE LT PUSH2 0x4C JUMPI PUSH1 0x0 CALLDATALOAD PUSH1 0xE0 SHR DUP1 PUSH4 0x71E5EE5F EQ PUSH2 0x51 JUMPI DUP1 PUSH4 0x91D70B0E EQ PUSH2 0x81 JUMPI DUP1 PUSH4 0xB1A86309 EQ PUSH2 0x9D JUMPI DUP1 PUSH4 0xEDF0099B EQ PUSH2 0xB9 JUMPI JUMPDEST PUSH1 0x0 DUP1 REVERT JUMPDEST PUSH2 0x6B PUSH1 0x4 DUP1 CALLDATASIZE SUB DUP2 ADD SWAP1 PUSH2 0x66 SWAP2 SWAP1 PUSH2 0x2B1 JUMP JUMPDEST PUSH2 0xE9 JUMP JUMPDEST PUSH1 0x40 MLOAD PUSH2 0x78 SWAP2 SWAP1 PUSH2 0x2ED JUMP JUMPDEST PUSH1 0x40 MLOAD DUP1 SWAP2 SUB SWAP1 RETURN JUMPDEST PUSH2 0x9B PUSH1 0x4 DUP1 CALLDATASIZE SUB DUP2 ADD SWAP1 PUSH2 0x96 SWAP2 SWAP1 PUSH2 0x2B1 JUMP JUMPDEST PUSH2 0x10D JUMP JUMPDEST STOP JUMPDEST PUSH2 0xB7 PUSH1 0x4 DUP1 CALLDATASIZE SUB DUP2 ADD SWAP1 PUSH2 0xB2 SWAP2 SWAP1 PUSH2 0x2B1 JUMP JUMPDEST PUSH2 0x1C7 JUMP JUMPDEST STOP JUMPDEST PUSH2 0xD3 PUSH1 0x4 DUP1 CALLDATASIZE SUB DUP2 ADD SWAP1 PUSH2 0xCE SWAP2 SWAP1 PUSH2 0x2B1 JUMP JUMPDEST PUSH2 0x281 JUMP JUMPDEST PUSH1 0x40 MLOAD PUSH2 0xE0 SWAP2 SWAP1 PUSH2 0x2ED JUMP JUMPDEST PUSH1 0x40 MLOAD DUP1 SWAP2 SUB SWAP1 RETURN JUMPDEST PUSH1 0x0 DUP2 DUP2 SLOAD DUP2 LT PUSH2 0xF9 JUMPI PUSH1 0x0 DUP1 REVERT JUMPDEST SWAP1 PUSH1 0x0 MSTORE PUSH1 0x20 PUSH1 0x0 KECCAK256 ADD PUSH1 0x0 SWAP2 POP SWAP1 POP SLOAD DUP2 JUMP JUMPDEST PUSH1 0x0 DUP1 SLOAD SWAP1 POP DUP2 LT PUSH2 0x122 JUMPI PUSH2 0x121 PUSH2 0x3E5 JUMP JUMPDEST JUMPDEST JUMPDEST PUSH1 0x1 PUSH1 0x0 DUP1 SLOAD SWAP1 POP PUSH2 0x135 SWAP2 SWAP1 PUSH2 0x35E JUMP JUMPDEST DUP2 LT ISZERO PUSH2 0x19C JUMPI PUSH1 0x0 PUSH1 0x1 DUP3 PUSH2 0x14B SWAP2 SWAP1 PUSH2 0x308 JUMP JUMPDEST DUP2 SLOAD DUP2 LT PUSH2 0x15C JUMPI PUSH2 0x15B PUSH2 0x472 JUMP JUMPDEST JUMPDEST SWAP1 PUSH1 0x0 MSTORE PUSH1 0x20 PUSH1 0x0 KECCAK256 ADD SLOAD PUSH1 0x0 DUP3 DUP2 SLOAD DUP2 LT PUSH2 0x17B JUMPI PUSH2 0x17A PUSH2 0x472 JUMP JUMPDEST JUMPDEST SWAP1 PUSH1 0x0 MSTORE PUSH1 0x20 PUSH1 0x0 KECCAK256 ADD DUP2 SWAP1 SSTORE POP DUP1 DUP1 PUSH2 0x194 SWAP1 PUSH2 0x39C JUMP JUMPDEST SWAP2 POP POP PUSH2 0x123 JUMP JUMPDEST PUSH1 0x0 DUP1 SLOAD DUP1 PUSH2 0x1AE JUMPI PUSH2 0x1AD PUSH2 0x443 JUMP JUMPDEST JUMPDEST PUSH1 0x1 SWAP1 SUB DUP2 DUP2 SWAP1 PUSH1 0x0 MSTORE PUSH1 0x20 PUSH1 0x0 KECCAK256 ADD PUSH1 0x0 SWAP1 SSTORE SWAP1 SSTORE POP JUMP JUMPDEST PUSH1 0x0 DUP1 SLOAD SWAP1 POP DUP2 LT PUSH2 0x1DC JUMPI PUSH2 0x1DB PUSH2 0x3E5 JUMP JUMPDEST JUMPDEST JUMPDEST PUSH1 0x1 PUSH1 0x0 DUP1 SLOAD SWAP1 POP PUSH2 0x1EF SWAP2 SWAP1 PUSH2 0x35E JUMP JUMPDEST DUP2 LT ISZERO PUSH2 0x256 JUMPI PUSH1 0x0 PUSH1 0x1 DUP3 PUSH2 0x205 SWAP2 SWAP1 PUSH2 0x308 JUMP JUMPDEST DUP2 SLOAD DUP2 LT PUSH2 0x216 JUMPI PUSH2 0x215 PUSH2 0x472 JUMP JUMPDEST JUMPDEST SWAP1 PUSH1 0x0 MSTORE PUSH1 0x20 PUSH1 0x0 KECCAK256 ADD SLOAD PUSH1 0x0 DUP3 DUP2 SLOAD DUP2 LT PUSH2 0x235 JUMPI PUSH2 0x234 PUSH2 0x472 JUMP JUMPDEST JUMPDEST SWAP1 PUSH1 0x0 MSTORE PUSH1 0x20 PUSH1 0x0 KECCAK256 ADD DUP2 SWAP1 SSTORE POP DUP1 DUP1 PUSH2 0x24E SWAP1 PUSH2 0x39C JUMP JUMPDEST SWAP2 POP POP PUSH2 0x1DD JUMP JUMPDEST PUSH1 0x0 DUP1 SLOAD DUP1 PUSH2 0x268 JUMPI PUSH2 0x267 PUSH2 0x443 JUMP JUMPDEST JUMPDEST PUSH1 0x1 SWAP1 SUB DUP2 DUP2 SWAP1 PUSH1 0x0 MSTORE PUSH1 0x20 PUSH1 0x0 KECCAK256 ADD PUSH1 0x0 SWAP1 SSTORE SWAP1 SSTORE POP JUMP JUMPDEST PUSH1 0x1 DUP2 PUSH1 0x3 DUP2 LT PUSH2 0x291 JUMPI PUSH1 0x0 DUP1 REVERT JUMPDEST ADD PUSH1 0x0 SWAP2 POP SWAP1 POP SLOAD DUP2 JUMP JUMPDEST PUSH1 0x0 DUP2 CALLDATALOAD SWAP1 POP PUSH2 0x2AB DUP2 PUSH2 0x4A6 JUMP JUMPDEST SWAP3 SWAP2 POP POP JUMP JUMPDEST PUSH1 0x0 PUSH1 0x20 DUP3 DUP5 SUB SLT ISZERO PUSH2 0x2C7 JUMPI PUSH2 0x2C6 PUSH2 0x4A1 JUMP JUMPDEST JUMPDEST PUSH1 0x0 PUSH2 0x2D5 DUP5 DUP3 DUP6 ADD PUSH2 0x29C JUMP JUMPDEST SWAP2 POP POP SWAP3 SWAP2 POP POP JUMP JUMPDEST PUSH2 0x2E7 DUP2 PUSH2 0x392 JUMP JUMPDEST DUP3 MSTORE POP POP JUMP JUMPDEST PUSH1 0x0 PUSH1 0x20 DUP3 ADD SWAP1 POP PUSH2 0x302 PUSH1 0x0 DUP4 ADD DUP5 PUSH2 0x2DE JUMP JUMPDEST SWAP3 SWAP2 POP POP JUMP JUMPDEST PUSH1 0x0 PUSH2 0x313 DUP3 PUSH2 0x392 JUMP JUMPDEST SWAP2 POP PUSH2 0x31E DUP4 PUSH2 0x392 JUMP JUMPDEST SWAP3 POP DUP3 PUSH32 0xFFFFFFFFFFFFFFFFFFFFFFFFFFFFFFFFFFFFFFFFFFFFFFFFFFFFFFFFFFFFFFFF SUB DUP3 GT ISZERO PUSH2 0x353 JUMPI PUSH2 0x352 PUSH2 0x414 JUMP JUMPDEST JUMPDEST DUP3 DUP3 ADD SWAP1 POP SWAP3 SWAP2 POP POP JUMP JUMPDEST PUSH1 0x0 PUSH2 0x369 DUP3 PUSH2 0x392 JUMP JUMPDEST SWAP2 POP PUSH2 0x374 DUP4 PUSH2 0x392 JUMP JUMPDEST SWAP3 POP DUP3 DUP3 LT ISZERO PUSH2 0x387 JUMPI PUSH2 0x386 PUSH2 0x414 JUMP JUMPDEST JUMPDEST DUP3 DUP3 SUB SWAP1 POP SWAP3 SWAP2 POP POP JUMP JUMPDEST PUSH1 0x0 DUP2 SWAP1 POP SWAP2 SWAP1 POP JUMP JUMPDEST PUSH1 0x0 PUSH2 0x3A7 DUP3 PUSH2 0x392 JUMP JUMPDEST SWAP2 POP PUSH32 0xFFFFFFFFFFFFFFFFFFFFFFFFFFFFFFFFFFFFFFFFFFFFFFFFFFFFFFFFFFFFFFFF DUP3 EQ ISZERO PUSH2 0x3DA JUMPI PUSH2 0x3D9 PUSH2 0x414 JUMP JUMPDEST JUMPDEST PUSH1 0x1 DUP3 ADD SWAP1 POP SWAP2 SWAP1 POP JUMP JUMPDEST PUSH32 0x4E487B7100000000000000000000000000000000000000000000000000000000 PUSH1 0x0 MSTORE PUSH1 0x1 PUSH1 0x4 MSTORE PUSH1 0x24 PUSH1 0x0 REVERT JUMPDEST PUSH32 0x4E487B7100000000000000000000000000000000000000000000000000000000 PUSH1 0x0 MSTORE PUSH1 0x11 PUSH1 0x4 MSTORE PUSH1 0x24 PUSH1 0x0 REVERT JUMPDEST PUSH32 0x4E487B7100000000000000000000000000000000000000000000000000000000 PUSH1 0x0 MSTORE PUSH1 0x31 PUSH1 0x4 MSTORE PUSH1 0x24 PUSH1 0x0 REVERT JUMPDEST PUSH32 0x4E487B7100000000000000000000000000000000000000000000000000000000 PUSH1 0x0 MSTORE PUSH1 0x32 PUSH1 0x4 MSTORE PUSH1 0x24 PUSH1 0x0 REVERT JUMPDEST PUSH1 0x0 DUP1 REVERT JUMPDEST PUSH2 0x4AF DUP2 PUSH2 0x392 JUMP JUMPDEST DUP2 EQ PUSH2 0x4BA JUMPI PUSH1 0x0 DUP1 REVERT JUMPDEST POP JUMP INVALID LOG2 PUSH5 0x6970667358 0x22 SLT KECCAK256 0xF STOP SWAP16 0xE0 0x22 CALLDATALOAD DUP16 DUP3 0xBD 0xE0 SUB 0xB9 0x2D DUP10 MSTORE 0xD0 0xBA PUSH24 0x623652BE89C425480203A3AD75DC64736F6C634300080700 CALLER "
				},
				"gasEstimates": {
					"creation": {
						"codeDepositCost": "253400",
						"executionCost": "infinite",
						"totalCost": "infinite"
					},
					"external": {
						"arr(uint256)": "infinite",
						"arr2(uint256)": "infinite",
						"derRemove(uint256)": "infinite",
						"orderRemove(uint256)": "infinite"
					}
				},
				"methodIdentifiers": {
					"arr(uint256)": "71e5ee5f",
					"arr2(uint256)": "edf0099b",
					"derRemove(uint256)": "91d70b0e",
					"orderRemove(uint256)": "b1a86309"
				}
			},
			"storageLayout": {
				"storage": [
					{
						"astId": 11,
						"contract": "Documents/dev/Lime/contracts/Arrays.sol:Arrays",
						"label": "arr",
						"offset": 0,
						"slot": "0",
						"type": "t_array(t_uint256)dyn_storage"
					},
					{
						"astId": 19,
						"contract": "Documents/dev/Lime/contracts/Arrays.sol:Arrays",
						"label": "arr2",
						"offset": 0,
						"slot": "1",
						"type": "t_array(t_uint256)3_storage"
					}
				],
				"types": {
					"t_array(t_uint256)3_storage": {
						"base": "t_uint256",
						"encoding": "inplace",
						"label": "uint256[3]",
						"numberOfBytes": "96"
					},
					"t_array(t_uint256)dyn_storage": {
						"base": "t_uint256",
						"encoding": "dynamic_array",
						"label": "uint256[]",
						"numberOfBytes": "32"
					},
					"t_uint256": {
						"encoding": "inplace",
						"label": "uint256",
						"numberOfBytes": "32"
					}
				}
			},
			"userdoc": {
				"kind": "user",
				"methods": {},
				"version": 1
			}
		}
	}
}