{
	"Delegate.sol": {
		"Sender": {
			"abi": [
				{
					"inputs": [],
					"stateMutability": "payable",
					"type": "constructor"
				},
				{
					"inputs": [],
					"name": "getBalance",
					"outputs": [
						{
							"internalType": "uint256",
							"name": "",
							"type": "uint256"
						}
					],
					"stateMutability": "view",
					"type": "function"
				},
				{
					"inputs": [
						{
							"internalType": "address",
							"name": "c",
							"type": "address"
						},
						{
							"internalType": "address payable",
							"name": "dest1",
							"type": "address"
						},
						{
							"internalType": "address",
							"name": "dest2",
							"type": "address"
						}
					],
					"name": "send",
					"outputs": [],
					"stateMutability": "payable",
					"type": "function"
				}
			],
			"devdoc": {
				"kind": "dev",
				"methods": {},
				"version": 1
			},
			"evm": {
				"assembly": "    /* \"Delegate.sol\":335:683  contract Sender{... */\n  mstore(0x40, 0x80)\n  dataSize(sub_0)\n  dup1\n  dataOffset(sub_0)\n  0x00\n  codecopy\n  0x00\n  return\nstop\n\nsub_0: assembly {\n        /* \"Delegate.sol\":335:683  contract Sender{... */\n      mstore(0x40, 0x80)\n      jumpi(tag_1, lt(calldatasize, 0x04))\n      shr(0xe0, calldataload(0x00))\n      dup1\n      0x011d7cd6\n      eq\n      tag_2\n      jumpi\n      dup1\n      0x12065fe0\n      eq\n      tag_3\n      jumpi\n    tag_1:\n      0x00\n      dup1\n      revert\n        /* \"Delegate.sol\":483:681  function send(address c, address payable dest1,address dest2) external payable{... */\n    tag_2:\n      tag_4\n      0x04\n      dup1\n      calldatasize\n      sub\n      dup2\n      add\n      swap1\n      tag_5\n      swap2\n      swap1\n      tag_6\n      jump\t// in\n    tag_5:\n      tag_7\n      jump\t// in\n    tag_4:\n      stop\n        /* \"Delegate.sol\":384:478  function getBalance() external view returns(uint){... */\n    tag_3:\n      callvalue\n      dup1\n      iszero\n      tag_8\n      jumpi\n      0x00\n      dup1\n      revert\n    tag_8:\n      pop\n      tag_9\n      tag_10\n      jump\t// in\n    tag_9:\n      mload(0x40)\n      tag_11\n      swap2\n      swap1\n      tag_12\n      jump\t// in\n    tag_11:\n      mload(0x40)\n      dup1\n      swap2\n      sub\n      swap1\n      return\n        /* \"Delegate.sol\":483:681  function send(address c, address payable dest1,address dest2) external payable{... */\n    tag_7:\n        /* \"Delegate.sol\":572:584  bool success */\n      0x00\n        /* \"Delegate.sol\":586:603  bytes memory data */\n      dup1\n        /* \"Delegate.sol\":607:608  c */\n      dup5\n        /* \"Delegate.sol\":607:621  c.delegatecall */\n      0xffffffffffffffffffffffffffffffffffffffff\n      and\n        /* \"Delegate.sol\":645:660  C.send.selector */\n      shl(0xe0, 0xb6d9d451)\n        /* \"Delegate.sol\":661:666  dest1 */\n      dup6\n        /* \"Delegate.sol\":667:672  dest2 */\n      dup6\n        /* \"Delegate.sol\":622:673  abi.encodeWithSelector(C.send.selector,dest1,dest2) */\n      add(0x24, mload(0x40))\n      tag_14\n      swap3\n      swap2\n      swap1\n      tag_15\n      jump\t// in\n    tag_14:\n      mload(0x40)\n      0x20\n      dup2\n      dup4\n      sub\n      sub\n      dup2\n      mstore\n      swap1\n      0x40\n      mstore\n      swap1\n      not(0xffffffffffffffffffffffffffffffffffffffffffffffffffffffff)\n      and\n      0x20\n      dup3\n      add\n      dup1\n      mload\n      0xffffffffffffffffffffffffffffffffffffffffffffffffffffffff\n      dup4\n      dup2\n      dup4\n      and\n      or\n      dup4\n      mstore\n      pop\n      pop\n      pop\n      pop\n        /* \"Delegate.sol\":607:674  c.delegatecall(abi.encodeWithSelector(C.send.selector,dest1,dest2)) */\n      mload(0x40)\n      tag_16\n      swap2\n      swap1\n      tag_17\n      jump\t// in\n    tag_16:\n      0x00\n      mload(0x40)\n      dup1\n      dup4\n      sub\n      dup2\n      dup6\n      gas\n      delegatecall\n      swap2\n      pop\n      pop\n      returndatasize\n      dup1\n      0x00\n      dup2\n      eq\n      tag_20\n      jumpi\n      mload(0x40)\n      swap2\n      pop\n      and(add(returndatasize, 0x3f), not(0x1f))\n      dup3\n      add\n      0x40\n      mstore\n      returndatasize\n      dup3\n      mstore\n      returndatasize\n      0x00\n      0x20\n      dup5\n      add\n      returndatacopy\n      jump(tag_19)\n    tag_20:\n      0x60\n      swap2\n      pop\n    tag_19:\n      pop\n        /* \"Delegate.sol\":571:674  (bool success, bytes memory data) = c.delegatecall(abi.encodeWithSelector(C.send.selector,dest1,dest2)) */\n      swap2\n      pop\n      swap2\n      pop\n        /* \"Delegate.sol\":561:681  {... */\n      pop\n      pop\n        /* \"Delegate.sol\":483:681  function send(address c, address payable dest1,address dest2) external payable{... */\n      pop\n      pop\n      pop\n      jump\t// out\n        /* \"Delegate.sol\":384:478  function getBalance() external view returns(uint){... */\n    tag_10:\n        /* \"Delegate.sol\":428:432  uint */\n      0x00\n        /* \"Delegate.sol\":450:471  address(this).balance */\n      selfbalance\n        /* \"Delegate.sol\":443:471  return address(this).balance */\n      swap1\n      pop\n        /* \"Delegate.sol\":384:478  function getBalance() external view returns(uint){... */\n      swap1\n      jump\t// out\n        /* \"#utility.yul\":7:146   */\n    tag_23:\n        /* \"#utility.yul\":53:58   */\n      0x00\n        /* \"#utility.yul\":91:97   */\n      dup2\n        /* \"#utility.yul\":78:98   */\n      calldataload\n        /* \"#utility.yul\":69:98   */\n      swap1\n      pop\n        /* \"#utility.yul\":107:140   */\n      tag_25\n        /* \"#utility.yul\":134:139   */\n      dup2\n        /* \"#utility.yul\":107:140   */\n      tag_26\n      jump\t// in\n    tag_25:\n        /* \"#utility.yul\":7:146   */\n      swap3\n      swap2\n      pop\n      pop\n      jump\t// out\n        /* \"#utility.yul\":152:307   */\n    tag_27:\n        /* \"#utility.yul\":206:211   */\n      0x00\n        /* \"#utility.yul\":244:250   */\n      dup2\n        /* \"#utility.yul\":231:251   */\n      calldataload\n        /* \"#utility.yul\":222:251   */\n      swap1\n      pop\n        /* \"#utility.yul\":260:301   */\n      tag_29\n        /* \"#utility.yul\":295:300   */\n      dup2\n        /* \"#utility.yul\":260:301   */\n      tag_30\n      jump\t// in\n    tag_29:\n        /* \"#utility.yul\":152:307   */\n      swap3\n      swap2\n      pop\n      pop\n      jump\t// out\n        /* \"#utility.yul\":313:948   */\n    tag_6:\n        /* \"#utility.yul\":398:404   */\n      0x00\n        /* \"#utility.yul\":406:412   */\n      dup1\n        /* \"#utility.yul\":414:420   */\n      0x00\n        /* \"#utility.yul\":463:465   */\n      0x60\n        /* \"#utility.yul\":451:460   */\n      dup5\n        /* \"#utility.yul\":442:449   */\n      dup7\n        /* \"#utility.yul\":438:461   */\n      sub\n        /* \"#utility.yul\":434:466   */\n      slt\n        /* \"#utility.yul\":431:550   */\n      iszero\n      tag_32\n      jumpi\n        /* \"#utility.yul\":469:548   */\n      tag_33\n      tag_34\n      jump\t// in\n    tag_33:\n        /* \"#utility.yul\":431:550   */\n    tag_32:\n        /* \"#utility.yul\":589:590   */\n      0x00\n        /* \"#utility.yul\":614:667   */\n      tag_35\n        /* \"#utility.yul\":659:666   */\n      dup7\n        /* \"#utility.yul\":650:656   */\n      dup3\n        /* \"#utility.yul\":639:648   */\n      dup8\n        /* \"#utility.yul\":635:657   */\n      add\n        /* \"#utility.yul\":614:667   */\n      tag_23\n      jump\t// in\n    tag_35:\n        /* \"#utility.yul\":604:667   */\n      swap4\n      pop\n        /* \"#utility.yul\":560:677   */\n      pop\n        /* \"#utility.yul\":716:718   */\n      0x20\n        /* \"#utility.yul\":742:803   */\n      tag_36\n        /* \"#utility.yul\":795:802   */\n      dup7\n        /* \"#utility.yul\":786:792   */\n      dup3\n        /* \"#utility.yul\":775:784   */\n      dup8\n        /* \"#utility.yul\":771:793   */\n      add\n        /* \"#utility.yul\":742:803   */\n      tag_27\n      jump\t// in\n    tag_36:\n        /* \"#utility.yul\":732:803   */\n      swap3\n      pop\n        /* \"#utility.yul\":687:813   */\n      pop\n        /* \"#utility.yul\":852:854   */\n      0x40\n        /* \"#utility.yul\":878:931   */\n      tag_37\n        /* \"#utility.yul\":923:930   */\n      dup7\n        /* \"#utility.yul\":914:920   */\n      dup3\n        /* \"#utility.yul\":903:912   */\n      dup8\n        /* \"#utility.yul\":899:921   */\n      add\n        /* \"#utility.yul\":878:931   */\n      tag_23\n      jump\t// in\n    tag_37:\n        /* \"#utility.yul\":868:931   */\n      swap2\n      pop\n        /* \"#utility.yul\":823:941   */\n      pop\n        /* \"#utility.yul\":313:948   */\n      swap3\n      pop\n      swap3\n      pop\n      swap3\n      jump\t// out\n        /* \"#utility.yul\":954:1096   */\n    tag_38:\n        /* \"#utility.yul\":1057:1089   */\n      tag_40\n        /* \"#utility.yul\":1083:1088   */\n      dup2\n        /* \"#utility.yul\":1057:1089   */\n      tag_41\n      jump\t// in\n    tag_40:\n        /* \"#utility.yul\":1052:1055   */\n      dup3\n        /* \"#utility.yul\":1045:1090   */\n      mstore\n        /* \"#utility.yul\":954:1096   */\n      pop\n      pop\n      jump\t// out\n        /* \"#utility.yul\":1102:1220   */\n    tag_42:\n        /* \"#utility.yul\":1189:1213   */\n      tag_44\n        /* \"#utility.yul\":1207:1212   */\n      dup2\n        /* \"#utility.yul\":1189:1213   */\n      tag_45\n      jump\t// in\n    tag_44:\n        /* \"#utility.yul\":1184:1187   */\n      dup3\n        /* \"#utility.yul\":1177:1214   */\n      mstore\n        /* \"#utility.yul\":1102:1220   */\n      pop\n      pop\n      jump\t// out\n        /* \"#utility.yul\":1226:1599   */\n    tag_46:\n        /* \"#utility.yul\":1330:1333   */\n      0x00\n        /* \"#utility.yul\":1358:1396   */\n      tag_48\n        /* \"#utility.yul\":1390:1395   */\n      dup3\n        /* \"#utility.yul\":1358:1396   */\n      tag_49\n      jump\t// in\n    tag_48:\n        /* \"#utility.yul\":1412:1500   */\n      tag_50\n        /* \"#utility.yul\":1493:1499   */\n      dup2\n        /* \"#utility.yul\":1488:1491   */\n      dup6\n        /* \"#utility.yul\":1412:1500   */\n      tag_51\n      jump\t// in\n    tag_50:\n        /* \"#utility.yul\":1405:1500   */\n      swap4\n      pop\n        /* \"#utility.yul\":1509:1561   */\n      tag_52\n        /* \"#utility.yul\":1554:1560   */\n      dup2\n        /* \"#utility.yul\":1549:1552   */\n      dup6\n        /* \"#utility.yul\":1542:1546   */\n      0x20\n        /* \"#utility.yul\":1535:1540   */\n      dup7\n        /* \"#utility.yul\":1531:1547   */\n      add\n        /* \"#utility.yul\":1509:1561   */\n      tag_53\n      jump\t// in\n    tag_52:\n        /* \"#utility.yul\":1586:1592   */\n      dup1\n        /* \"#utility.yul\":1581:1584   */\n      dup5\n        /* \"#utility.yul\":1577:1593   */\n      add\n        /* \"#utility.yul\":1570:1593   */\n      swap2\n      pop\n        /* \"#utility.yul\":1334:1599   */\n      pop\n        /* \"#utility.yul\":1226:1599   */\n      swap3\n      swap2\n      pop\n      pop\n      jump\t// out\n        /* \"#utility.yul\":1605:1723   */\n    tag_54:\n        /* \"#utility.yul\":1692:1716   */\n      tag_56\n        /* \"#utility.yul\":1710:1715   */\n      dup2\n        /* \"#utility.yul\":1692:1716   */\n      tag_57\n      jump\t// in\n    tag_56:\n        /* \"#utility.yul\":1687:1690   */\n      dup3\n        /* \"#utility.yul\":1680:1717   */\n      mstore\n        /* \"#utility.yul\":1605:1723   */\n      pop\n      pop\n      jump\t// out\n        /* \"#utility.yul\":1729:2000   */\n    tag_17:\n        /* \"#utility.yul\":1859:1862   */\n      0x00\n        /* \"#utility.yul\":1881:1974   */\n      tag_59\n        /* \"#utility.yul\":1970:1973   */\n      dup3\n        /* \"#utility.yul\":1961:1967   */\n      dup5\n        /* \"#utility.yul\":1881:1974   */\n      tag_46\n      jump\t// in\n    tag_59:\n        /* \"#utility.yul\":1874:1974   */\n      swap2\n      pop\n        /* \"#utility.yul\":1991:1994   */\n      dup2\n        /* \"#utility.yul\":1984:1994   */\n      swap1\n      pop\n        /* \"#utility.yul\":1729:2000   */\n      swap3\n      swap2\n      pop\n      pop\n      jump\t// out\n        /* \"#utility.yul\":2006:2370   */\n    tag_15:\n        /* \"#utility.yul\":2143:2147   */\n      0x00\n        /* \"#utility.yul\":2181:2183   */\n      0x40\n        /* \"#utility.yul\":2170:2179   */\n      dup3\n        /* \"#utility.yul\":2166:2184   */\n      add\n        /* \"#utility.yul\":2158:2184   */\n      swap1\n      pop\n        /* \"#utility.yul\":2194:2281   */\n      tag_61\n        /* \"#utility.yul\":2278:2279   */\n      0x00\n        /* \"#utility.yul\":2267:2276   */\n      dup4\n        /* \"#utility.yul\":2263:2280   */\n      add\n        /* \"#utility.yul\":2254:2260   */\n      dup6\n        /* \"#utility.yul\":2194:2281   */\n      tag_38\n      jump\t// in\n    tag_61:\n        /* \"#utility.yul\":2291:2363   */\n      tag_62\n        /* \"#utility.yul\":2359:2361   */\n      0x20\n        /* \"#utility.yul\":2348:2357   */\n      dup4\n        /* \"#utility.yul\":2344:2362   */\n      add\n        /* \"#utility.yul\":2335:2341   */\n      dup5\n        /* \"#utility.yul\":2291:2363   */\n      tag_42\n      jump\t// in\n    tag_62:\n        /* \"#utility.yul\":2006:2370   */\n      swap4\n      swap3\n      pop\n      pop\n      pop\n      jump\t// out\n        /* \"#utility.yul\":2376:2598   */\n    tag_12:\n        /* \"#utility.yul\":2469:2473   */\n      0x00\n        /* \"#utility.yul\":2507:2509   */\n      0x20\n        /* \"#utility.yul\":2496:2505   */\n      dup3\n        /* \"#utility.yul\":2492:2510   */\n      add\n        /* \"#utility.yul\":2484:2510   */\n      swap1\n      pop\n        /* \"#utility.yul\":2520:2591   */\n      tag_64\n        /* \"#utility.yul\":2588:2589   */\n      0x00\n        /* \"#utility.yul\":2577:2586   */\n      dup4\n        /* \"#utility.yul\":2573:2590   */\n      add\n        /* \"#utility.yul\":2564:2570   */\n      dup5\n        /* \"#utility.yul\":2520:2591   */\n      tag_54\n      jump\t// in\n    tag_64:\n        /* \"#utility.yul\":2376:2598   */\n      swap3\n      swap2\n      pop\n      pop\n      jump\t// out\n        /* \"#utility.yul\":2685:2783   */\n    tag_49:\n        /* \"#utility.yul\":2736:2742   */\n      0x00\n        /* \"#utility.yul\":2770:2775   */\n      dup2\n        /* \"#utility.yul\":2764:2776   */\n      mload\n        /* \"#utility.yul\":2754:2776   */\n      swap1\n      pop\n        /* \"#utility.yul\":2685:2783   */\n      swap2\n      swap1\n      pop\n      jump\t// out\n        /* \"#utility.yul\":2789:2936   */\n    tag_51:\n        /* \"#utility.yul\":2890:2901   */\n      0x00\n        /* \"#utility.yul\":2927:2930   */\n      dup2\n        /* \"#utility.yul\":2912:2930   */\n      swap1\n      pop\n        /* \"#utility.yul\":2789:2936   */\n      swap3\n      swap2\n      pop\n      pop\n      jump\t// out\n        /* \"#utility.yul\":2942:3038   */\n    tag_45:\n        /* \"#utility.yul\":2979:2986   */\n      0x00\n        /* \"#utility.yul\":3008:3032   */\n      tag_70\n        /* \"#utility.yul\":3026:3031   */\n      dup3\n        /* \"#utility.yul\":3008:3032   */\n      tag_71\n      jump\t// in\n    tag_70:\n        /* \"#utility.yul\":2997:3032   */\n      swap1\n      pop\n        /* \"#utility.yul\":2942:3038   */\n      swap2\n      swap1\n      pop\n      jump\t// out\n        /* \"#utility.yul\":3044:3148   */\n    tag_41:\n        /* \"#utility.yul\":3089:3096   */\n      0x00\n        /* \"#utility.yul\":3118:3142   */\n      tag_73\n        /* \"#utility.yul\":3136:3141   */\n      dup3\n        /* \"#utility.yul\":3118:3142   */\n      tag_71\n      jump\t// in\n    tag_73:\n        /* \"#utility.yul\":3107:3142   */\n      swap1\n      pop\n        /* \"#utility.yul\":3044:3148   */\n      swap2\n      swap1\n      pop\n      jump\t// out\n        /* \"#utility.yul\":3154:3280   */\n    tag_71:\n        /* \"#utility.yul\":3191:3198   */\n      0x00\n        /* \"#utility.yul\":3231:3273   */\n      0xffffffffffffffffffffffffffffffffffffffff\n        /* \"#utility.yul\":3224:3229   */\n      dup3\n        /* \"#utility.yul\":3220:3274   */\n      and\n        /* \"#utility.yul\":3209:3274   */\n      swap1\n      pop\n        /* \"#utility.yul\":3154:3280   */\n      swap2\n      swap1\n      pop\n      jump\t// out\n        /* \"#utility.yul\":3286:3363   */\n    tag_57:\n        /* \"#utility.yul\":3323:3330   */\n      0x00\n        /* \"#utility.yul\":3352:3357   */\n      dup2\n        /* \"#utility.yul\":3341:3357   */\n      swap1\n      pop\n        /* \"#utility.yul\":3286:3363   */\n      swap2\n      swap1\n      pop\n      jump\t// out\n        /* \"#utility.yul\":3369:3676   */\n    tag_53:\n        /* \"#utility.yul\":3437:3438   */\n      0x00\n        /* \"#utility.yul\":3447:3560   */\n    tag_77:\n        /* \"#utility.yul\":3461:3467   */\n      dup4\n        /* \"#utility.yul\":3458:3459   */\n      dup2\n        /* \"#utility.yul\":3455:3468   */\n      lt\n        /* \"#utility.yul\":3447:3560   */\n      iszero\n      tag_79\n      jumpi\n        /* \"#utility.yul\":3546:3547   */\n      dup1\n        /* \"#utility.yul\":3541:3544   */\n      dup3\n        /* \"#utility.yul\":3537:3548   */\n      add\n        /* \"#utility.yul\":3531:3549   */\n      mload\n        /* \"#utility.yul\":3527:3528   */\n      dup2\n        /* \"#utility.yul\":3522:3525   */\n      dup5\n        /* \"#utility.yul\":3518:3529   */\n      add\n        /* \"#utility.yul\":3511:3550   */\n      mstore\n        /* \"#utility.yul\":3483:3485   */\n      0x20\n        /* \"#utility.yul\":3480:3481   */\n      dup2\n        /* \"#utility.yul\":3476:3486   */\n      add\n        /* \"#utility.yul\":3471:3486   */\n      swap1\n      pop\n        /* \"#utility.yul\":3447:3560   */\n      jump(tag_77)\n    tag_79:\n        /* \"#utility.yul\":3578:3584   */\n      dup4\n        /* \"#utility.yul\":3575:3576   */\n      dup2\n        /* \"#utility.yul\":3572:3585   */\n      gt\n        /* \"#utility.yul\":3569:3670   */\n      iszero\n      tag_80\n      jumpi\n        /* \"#utility.yul\":3658:3659   */\n      0x00\n        /* \"#utility.yul\":3649:3655   */\n      dup5\n        /* \"#utility.yul\":3644:3647   */\n      dup5\n        /* \"#utility.yul\":3640:3656   */\n      add\n        /* \"#utility.yul\":3633:3660   */\n      mstore\n        /* \"#utility.yul\":3569:3670   */\n    tag_80:\n        /* \"#utility.yul\":3418:3676   */\n      pop\n        /* \"#utility.yul\":3369:3676   */\n      pop\n      pop\n      pop\n      jump\t// out\n        /* \"#utility.yul\":3805:3922   */\n    tag_34:\n        /* \"#utility.yul\":3914:3915   */\n      0x00\n        /* \"#utility.yul\":3911:3912   */\n      dup1\n        /* \"#utility.yul\":3904:3916   */\n      revert\n        /* \"#utility.yul\":3928:4050   */\n    tag_26:\n        /* \"#utility.yul\":4001:4025   */\n      tag_85\n        /* \"#utility.yul\":4019:4024   */\n      dup2\n        /* \"#utility.yul\":4001:4025   */\n      tag_45\n      jump\t// in\n    tag_85:\n        /* \"#utility.yul\":3994:3999   */\n      dup2\n        /* \"#utility.yul\":3991:4026   */\n      eq\n        /* \"#utility.yul\":3981:4044   */\n      tag_86\n      jumpi\n        /* \"#utility.yul\":4040:4041   */\n      0x00\n        /* \"#utility.yul\":4037:4038   */\n      dup1\n        /* \"#utility.yul\":4030:4042   */\n      revert\n        /* \"#utility.yul\":3981:4044   */\n    tag_86:\n        /* \"#utility.yul\":3928:4050   */\n      pop\n      jump\t// out\n        /* \"#utility.yul\":4056:4194   */\n    tag_30:\n        /* \"#utility.yul\":4137:4169   */\n      tag_88\n        /* \"#utility.yul\":4163:4168   */\n      dup2\n        /* \"#utility.yul\":4137:4169   */\n      tag_41\n      jump\t// in\n    tag_88:\n        /* \"#utility.yul\":4130:4135   */\n      dup2\n        /* \"#utility.yul\":4127:4170   */\n      eq\n        /* \"#utility.yul\":4117:4188   */\n      tag_89\n      jumpi\n        /* \"#utility.yul\":4184:4185   */\n      0x00\n        /* \"#utility.yul\":4181:4182   */\n      dup1\n        /* \"#utility.yul\":4174:4186   */\n      revert\n        /* \"#utility.yul\":4117:4188   */\n    tag_89:\n        /* \"#utility.yul\":4056:4194   */\n      pop\n      jump\t// out\n\n    auxdata: 0xa264697066735822122040311c0bd0fbe227363b4615b4c0cb7a9879cd93cffd4e0a0f256487573c4cac64736f6c63430008070033\n}\n",
				"bytecode": {
					"linkReferences": {},
					"object": "608060405261039e806100136000396000f3fe6080604052600436106100295760003560e01c8063011d7cd61461002e57806312065fe01461004a575b600080fd5b61004860048036038101906100439190610192565b610075565b005b34801561005657600080fd5b5061005f610160565b60405161006c9190610283565b60405180910390f35b6000808473ffffffffffffffffffffffffffffffffffffffff1663b6d9d45160e01b85856040516024016100aa92919061025a565b604051602081830303815290604052907bffffffffffffffffffffffffffffffffffffffffffffffffffffffff19166020820180517bffffffffffffffffffffffffffffffffffffffffffffffffffffffff83818316178352505050506040516101149190610243565b600060405180830381855af49150503d806000811461014f576040519150601f19603f3d011682016040523d82523d6000602084013e610154565b606091505b50915091505050505050565b600047905090565b6000813590506101778161033a565b92915050565b60008135905061018c81610351565b92915050565b6000806000606084860312156101ab576101aa610335565b5b60006101b986828701610168565b93505060206101ca8682870161017d565b92505060406101db86828701610168565b9150509250925092565b6101ee816102c6565b82525050565b6101fd816102b4565b82525050565b600061020e8261029e565b61021881856102a9565b9350610228818560208601610302565b80840191505092915050565b61023d816102f8565b82525050565b600061024f8284610203565b915081905092915050565b600060408201905061026f60008301856101e5565b61027c60208301846101f4565b9392505050565b60006020820190506102986000830184610234565b92915050565b600081519050919050565b600081905092915050565b60006102bf826102d8565b9050919050565b60006102d1826102d8565b9050919050565b600073ffffffffffffffffffffffffffffffffffffffff82169050919050565b6000819050919050565b60005b83811015610320578082015181840152602081019050610305565b8381111561032f576000848401525b50505050565b600080fd5b610343816102b4565b811461034e57600080fd5b50565b61035a816102c6565b811461036557600080fd5b5056fea264697066735822122040311c0bd0fbe227363b4615b4c0cb7a9879cd93cffd4e0a0f256487573c4cac64736f6c63430008070033",
					"opcodes": "PUSH1 0x80 PUSH1 0x40 MSTORE PUSH2 0x39E DUP1 PUSH2 0x13 PUSH1 0x0 CODECOPY PUSH1 0x0 RETURN INVALID PUSH1 0x80 PUSH1 0x40 MSTORE PUSH1 0x4 CALLDATASIZE LT PUSH2 0x29 JUMPI PUSH1 0x0 CALLDATALOAD PUSH1 0xE0 SHR DUP1 PUSH4 0x11D7CD6 EQ PUSH2 0x2E JUMPI DUP1 PUSH4 0x12065FE0 EQ PUSH2 0x4A JUMPI JUMPDEST PUSH1 0x0 DUP1 REVERT JUMPDEST PUSH2 0x48 PUSH1 0x4 DUP1 CALLDATASIZE SUB DUP2 ADD SWAP1 PUSH2 0x43 SWAP2 SWAP1 PUSH2 0x192 JUMP JUMPDEST PUSH2 0x75 JUMP JUMPDEST STOP JUMPDEST CALLVALUE DUP1 ISZERO PUSH2 0x56 JUMPI PUSH1 0x0 DUP1 REVERT JUMPDEST POP PUSH2 0x5F PUSH2 0x160 JUMP JUMPDEST PUSH1 0x40 MLOAD PUSH2 0x6C SWAP2 SWAP1 PUSH2 0x283 JUMP JUMPDEST PUSH1 0x40 MLOAD DUP1 SWAP2 SUB SWAP1 RETURN JUMPDEST PUSH1 0x0 DUP1 DUP5 PUSH20 0xFFFFFFFFFFFFFFFFFFFFFFFFFFFFFFFFFFFFFFFF AND PUSH4 0xB6D9D451 PUSH1 0xE0 SHL DUP6 DUP6 PUSH1 0x40 MLOAD PUSH1 0x24 ADD PUSH2 0xAA SWAP3 SWAP2 SWAP1 PUSH2 0x25A JUMP JUMPDEST PUSH1 0x40 MLOAD PUSH1 0x20 DUP2 DUP4 SUB SUB DUP2 MSTORE SWAP1 PUSH1 0x40 MSTORE SWAP1 PUSH28 0xFFFFFFFFFFFFFFFFFFFFFFFFFFFFFFFFFFFFFFFFFFFFFFFFFFFFFFFF NOT AND PUSH1 0x20 DUP3 ADD DUP1 MLOAD PUSH28 0xFFFFFFFFFFFFFFFFFFFFFFFFFFFFFFFFFFFFFFFFFFFFFFFFFFFFFFFF DUP4 DUP2 DUP4 AND OR DUP4 MSTORE POP POP POP POP PUSH1 0x40 MLOAD PUSH2 0x114 SWAP2 SWAP1 PUSH2 0x243 JUMP JUMPDEST PUSH1 0x0 PUSH1 0x40 MLOAD DUP1 DUP4 SUB DUP2 DUP6 GAS DELEGATECALL SWAP2 POP POP RETURNDATASIZE DUP1 PUSH1 0x0 DUP2 EQ PUSH2 0x14F JUMPI PUSH1 0x40 MLOAD SWAP2 POP PUSH1 0x1F NOT PUSH1 0x3F RETURNDATASIZE ADD AND DUP3 ADD PUSH1 0x40 MSTORE RETURNDATASIZE DUP3 MSTORE RETURNDATASIZE PUSH1 0x0 PUSH1 0x20 DUP5 ADD RETURNDATACOPY PUSH2 0x154 JUMP JUMPDEST PUSH1 0x60 SWAP2 POP JUMPDEST POP SWAP2 POP SWAP2 POP POP POP POP POP POP JUMP JUMPDEST PUSH1 0x0 SELFBALANCE SWAP1 POP SWAP1 JUMP JUMPDEST PUSH1 0x0 DUP2 CALLDATALOAD SWAP1 POP PUSH2 0x177 DUP2 PUSH2 0x33A JUMP JUMPDEST SWAP3 SWAP2 POP POP JUMP JUMPDEST PUSH1 0x0 DUP2 CALLDATALOAD SWAP1 POP PUSH2 0x18C DUP2 PUSH2 0x351 JUMP JUMPDEST SWAP3 SWAP2 POP POP JUMP JUMPDEST PUSH1 0x0 DUP1 PUSH1 0x0 PUSH1 0x60 DUP5 DUP7 SUB SLT ISZERO PUSH2 0x1AB JUMPI PUSH2 0x1AA PUSH2 0x335 JUMP JUMPDEST JUMPDEST PUSH1 0x0 PUSH2 0x1B9 DUP7 DUP3 DUP8 ADD PUSH2 0x168 JUMP JUMPDEST SWAP4 POP POP PUSH1 0x20 PUSH2 0x1CA DUP7 DUP3 DUP8 ADD PUSH2 0x17D JUMP JUMPDEST SWAP3 POP POP PUSH1 0x40 PUSH2 0x1DB DUP7 DUP3 DUP8 ADD PUSH2 0x168 JUMP JUMPDEST SWAP2 POP POP SWAP3 POP SWAP3 POP SWAP3 JUMP JUMPDEST PUSH2 0x1EE DUP2 PUSH2 0x2C6 JUMP JUMPDEST DUP3 MSTORE POP POP JUMP JUMPDEST PUSH2 0x1FD DUP2 PUSH2 0x2B4 JUMP JUMPDEST DUP3 MSTORE POP POP JUMP JUMPDEST PUSH1 0x0 PUSH2 0x20E DUP3 PUSH2 0x29E JUMP JUMPDEST PUSH2 0x218 DUP2 DUP6 PUSH2 0x2A9 JUMP JUMPDEST SWAP4 POP PUSH2 0x228 DUP2 DUP6 PUSH1 0x20 DUP7 ADD PUSH2 0x302 JUMP JUMPDEST DUP1 DUP5 ADD SWAP2 POP POP SWAP3 SWAP2 POP POP JUMP JUMPDEST PUSH2 0x23D DUP2 PUSH2 0x2F8 JUMP JUMPDEST DUP3 MSTORE POP POP JUMP JUMPDEST PUSH1 0x0 PUSH2 0x24F DUP3 DUP5 PUSH2 0x203 JUMP JUMPDEST SWAP2 POP DUP2 SWAP1 POP SWAP3 SWAP2 POP POP JUMP JUMPDEST PUSH1 0x0 PUSH1 0x40 DUP3 ADD SWAP1 POP PUSH2 0x26F PUSH1 0x0 DUP4 ADD DUP6 PUSH2 0x1E5 JUMP JUMPDEST PUSH2 0x27C PUSH1 0x20 DUP4 ADD DUP5 PUSH2 0x1F4 JUMP JUMPDEST SWAP4 SWAP3 POP POP POP JUMP JUMPDEST PUSH1 0x0 PUSH1 0x20 DUP3 ADD SWAP1 POP PUSH2 0x298 PUSH1 0x0 DUP4 ADD DUP5 PUSH2 0x234 JUMP JUMPDEST SWAP3 SWAP2 POP POP JUMP JUMPDEST PUSH1 0x0 DUP2 MLOAD SWAP1 POP SWAP2 SWAP1 POP JUMP JUMPDEST PUSH1 0x0 DUP2 SWAP1 POP SWAP3 SWAP2 POP POP JUMP JUMPDEST PUSH1 0x0 PUSH2 0x2BF DUP3 PUSH2 0x2D8 JUMP JUMPDEST SWAP1 POP SWAP2 SWAP1 POP JUMP JUMPDEST PUSH1 0x0 PUSH2 0x2D1 DUP3 PUSH2 0x2D8 JUMP JUMPDEST SWAP1 POP SWAP2 SWAP1 POP JUMP JUMPDEST PUSH1 0x0 PUSH20 0xFFFFFFFFFFFFFFFFFFFFFFFFFFFFFFFFFFFFFFFF DUP3 AND SWAP1 POP SWAP2 SWAP1 POP JUMP JUMPDEST PUSH1 0x0 DUP2 SWAP1 POP SWAP2 SWAP1 POP JUMP JUMPDEST PUSH1 0x0 JUMPDEST DUP4 DUP2 LT ISZERO PUSH2 0x320 JUMPI DUP1 DUP3 ADD MLOAD DUP2 DUP5 ADD MSTORE PUSH1 0x20 DUP2 ADD SWAP1 POP PUSH2 0x305 JUMP JUMPDEST DUP4 DUP2 GT ISZERO PUSH2 0x32F JUMPI PUSH1 0x0 DUP5 DUP5 ADD MSTORE JUMPDEST POP POP POP POP JUMP JUMPDEST PUSH1 0x0 DUP1 REVERT JUMPDEST PUSH2 0x343 DUP2 PUSH2 0x2B4 JUMP JUMPDEST DUP2 EQ PUSH2 0x34E JUMPI PUSH1 0x0 DUP1 REVERT JUMPDEST POP JUMP JUMPDEST PUSH2 0x35A DUP2 PUSH2 0x2C6 JUMP JUMPDEST DUP2 EQ PUSH2 0x365 JUMPI PUSH1 0x0 DUP1 REVERT JUMPDEST POP JUMP INVALID LOG2 PUSH5 0x6970667358 0x22 SLT KECCAK256 BLOCKHASH BALANCE SHR SIGNEXTEND 0xD0 0xFB 0xE2 0x27 CALLDATASIZE EXTCODESIZE CHAINID ISZERO 0xB4 0xC0 0xCB PUSH27 0x9879CD93CFFD4E0A0F256487573C4CAC64736F6C63430008070033 "
				},
				"gasEstimates": {
					"creation": {
						"codeDepositCost": "185200",
						"executionCost": "202",
						"totalCost": "185402"
					},
					"external": {
						"getBalance()": "339",
						"send(address,address,address)": "infinite"
					}
				},
				"methodIdentifiers": {
					"getBalance()": "12065fe0",
					"send(address,address,address)": "011d7cd6"
				}
			},
			"storageLayout": {
				"storage": [],
				"types": null
			},
			"userdoc": {
				"kind": "user",
				"methods": {},
				"version": 1
			}
		}
	}
}