{
	"Delegate.sol": {
		"C": {
			"abi": [
				{
					"anonymous": false,
					"inputs": [
						{
							"indexed": false,
							"internalType": "address",
							"name": "source",
							"type": "address"
						},
						{
							"indexed": false,
							"internalType": "uint256",
							"name": "amount",
							"type": "uint256"
						}
					],
					"name": "Log",
					"type": "event"
				},
				{
					"inputs": [
						{
							"internalType": "address payable",
							"name": "dest1",
							"type": "address"
						},
						{
							"internalType": "address payable",
							"name": "dest2",
							"type": "address"
						}
					],
					"name": "send",
					"outputs": [],
					"stateMutability": "payable",
					"type": "function"
				}
			],
			"devdoc": {
				"kind": "dev",
				"methods": {},
				"version": 1
			},
			"evm": {
				"assembly": "    /* \"Delegate.sol\":56:331  contract C{... */\n  mstore(0x40, 0x80)\n  callvalue\n  dup1\n  iszero\n  tag_1\n  jumpi\n  0x00\n  dup1\n  revert\ntag_1:\n  pop\n  dataSize(sub_0)\n  dup1\n  dataOffset(sub_0)\n  0x00\n  codecopy\n  0x00\n  return\nstop\n\nsub_0: assembly {\n        /* \"Delegate.sol\":56:331  contract C{... */\n      mstore(0x40, 0x80)\n      jumpi(tag_1, lt(calldatasize, 0x04))\n      shr(0xe0, calldataload(0x00))\n      dup1\n      0xb6d9d451\n      eq\n      tag_2\n      jumpi\n    tag_1:\n      0x00\n      dup1\n      revert\n        /* \"Delegate.sol\":115:329  function send(address payable dest1,address payable dest2) external payable{... */\n    tag_2:\n      tag_3\n      0x04\n      dup1\n      calldatasize\n      sub\n      dup2\n      add\n      swap1\n      tag_4\n      swap2\n      swap1\n      tag_5\n      jump\t// in\n    tag_4:\n      tag_6\n      jump\t// in\n    tag_3:\n      stop\n    tag_6:\n        /* \"Delegate.sol\":208:213  dest1 */\n      dup2\n        /* \"Delegate.sol\":200:223  payable(dest1).transfer */\n      0xffffffffffffffffffffffffffffffffffffffff\n      and\n        /* \"Delegate.sol\":200:236  payable(dest1).transfer(msg.value/2) */\n      0x08fc\n        /* \"Delegate.sol\":234:235  2 */\n      0x02\n        /* \"Delegate.sol\":224:233  msg.value */\n      callvalue\n        /* \"Delegate.sol\":224:235  msg.value/2 */\n      tag_8\n      swap2\n      swap1\n      tag_9\n      jump\t// in\n    tag_8:\n        /* \"Delegate.sol\":200:236  payable(dest1).transfer(msg.value/2) */\n      swap1\n      dup2\n      iszero\n      mul\n      swap1\n      mload(0x40)\n      0x00\n      mload(0x40)\n      dup1\n      dup4\n      sub\n      dup2\n      dup6\n      dup9\n      dup9\n      call\n      swap4\n      pop\n      pop\n      pop\n      pop\n      iszero\n      dup1\n      iszero\n      tag_11\n      jumpi\n      returndatasize\n      0x00\n      dup1\n      returndatacopy\n      revert(0x00, returndatasize)\n    tag_11:\n      pop\n        /* \"Delegate.sol\":254:259  dest2 */\n      dup1\n        /* \"Delegate.sol\":246:269  payable(dest2).transfer */\n      0xffffffffffffffffffffffffffffffffffffffff\n      and\n        /* \"Delegate.sol\":246:282  payable(dest2).transfer(msg.value/2) */\n      0x08fc\n        /* \"Delegate.sol\":280:281  2 */\n      0x02\n        /* \"Delegate.sol\":270:279  msg.value */\n      callvalue\n        /* \"Delegate.sol\":270:281  msg.value/2 */\n      tag_12\n      swap2\n      swap1\n      tag_9\n      jump\t// in\n    tag_12:\n        /* \"Delegate.sol\":246:282  payable(dest2).transfer(msg.value/2) */\n      swap1\n      dup2\n      iszero\n      mul\n      swap1\n      mload(0x40)\n      0x00\n      mload(0x40)\n      dup1\n      dup4\n      sub\n      dup2\n      dup6\n      dup9\n      dup9\n      call\n      swap4\n      pop\n      pop\n      pop\n      pop\n      iszero\n      dup1\n      iszero\n      tag_14\n      jumpi\n      returndatasize\n      0x00\n      dup1\n      returndatacopy\n      revert(0x00, returndatasize)\n    tag_14:\n      pop\n        /* \"Delegate.sol\":297:322  Log(msg.sender,msg.value) */\n      0xf950957d2407bed19dc99b718b46b4ce6090c05589006dfb86fd22c34865b23e\n        /* \"Delegate.sol\":301:311  msg.sender */\n      caller\n        /* \"Delegate.sol\":312:321  msg.value */\n      callvalue\n        /* \"Delegate.sol\":297:322  Log(msg.sender,msg.value) */\n      mload(0x40)\n      tag_15\n      swap3\n      swap2\n      swap1\n      tag_16\n      jump\t// in\n    tag_15:\n      mload(0x40)\n      dup1\n      swap2\n      sub\n      swap1\n      log1\n        /* \"Delegate.sol\":115:329  function send(address payable dest1,address payable dest2) external payable{... */\n      pop\n      pop\n      jump\t// out\n        /* \"#utility.yul\":7:162   */\n    tag_18:\n        /* \"#utility.yul\":61:66   */\n      0x00\n        /* \"#utility.yul\":99:105   */\n      dup2\n        /* \"#utility.yul\":86:106   */\n      calldataload\n        /* \"#utility.yul\":77:106   */\n      swap1\n      pop\n        /* \"#utility.yul\":115:156   */\n      tag_20\n        /* \"#utility.yul\":150:155   */\n      dup2\n        /* \"#utility.yul\":115:156   */\n      tag_21\n      jump\t// in\n    tag_20:\n        /* \"#utility.yul\":7:162   */\n      swap3\n      swap2\n      pop\n      pop\n      jump\t// out\n        /* \"#utility.yul\":168:674   */\n    tag_5:\n        /* \"#utility.yul\":252:258   */\n      0x00\n        /* \"#utility.yul\":260:266   */\n      dup1\n        /* \"#utility.yul\":309:311   */\n      0x40\n        /* \"#utility.yul\":297:306   */\n      dup4\n        /* \"#utility.yul\":288:295   */\n      dup6\n        /* \"#utility.yul\":284:307   */\n      sub\n        /* \"#utility.yul\":280:312   */\n      slt\n        /* \"#utility.yul\":277:396   */\n      iszero\n      tag_23\n      jumpi\n        /* \"#utility.yul\":315:394   */\n      tag_24\n      tag_25\n      jump\t// in\n    tag_24:\n        /* \"#utility.yul\":277:396   */\n    tag_23:\n        /* \"#utility.yul\":435:436   */\n      0x00\n        /* \"#utility.yul\":460:521   */\n      tag_26\n        /* \"#utility.yul\":513:520   */\n      dup6\n        /* \"#utility.yul\":504:510   */\n      dup3\n        /* \"#utility.yul\":493:502   */\n      dup7\n        /* \"#utility.yul\":489:511   */\n      add\n        /* \"#utility.yul\":460:521   */\n      tag_18\n      jump\t// in\n    tag_26:\n        /* \"#utility.yul\":450:521   */\n      swap3\n      pop\n        /* \"#utility.yul\":406:531   */\n      pop\n        /* \"#utility.yul\":570:572   */\n      0x20\n        /* \"#utility.yul\":596:657   */\n      tag_27\n        /* \"#utility.yul\":649:656   */\n      dup6\n        /* \"#utility.yul\":640:646   */\n      dup3\n        /* \"#utility.yul\":629:638   */\n      dup7\n        /* \"#utility.yul\":625:647   */\n      add\n        /* \"#utility.yul\":596:657   */\n      tag_18\n      jump\t// in\n    tag_27:\n        /* \"#utility.yul\":586:657   */\n      swap2\n      pop\n        /* \"#utility.yul\":541:667   */\n      pop\n        /* \"#utility.yul\":168:674   */\n      swap3\n      pop\n      swap3\n      swap1\n      pop\n      jump\t// out\n        /* \"#utility.yul\":680:798   */\n    tag_28:\n        /* \"#utility.yul\":767:791   */\n      tag_30\n        /* \"#utility.yul\":785:790   */\n      dup2\n        /* \"#utility.yul\":767:791   */\n      tag_31\n      jump\t// in\n    tag_30:\n        /* \"#utility.yul\":762:765   */\n      dup3\n        /* \"#utility.yul\":755:792   */\n      mstore\n        /* \"#utility.yul\":680:798   */\n      pop\n      pop\n      jump\t// out\n        /* \"#utility.yul\":804:922   */\n    tag_32:\n        /* \"#utility.yul\":891:915   */\n      tag_34\n        /* \"#utility.yul\":909:914   */\n      dup2\n        /* \"#utility.yul\":891:915   */\n      tag_35\n      jump\t// in\n    tag_34:\n        /* \"#utility.yul\":886:889   */\n      dup3\n        /* \"#utility.yul\":879:916   */\n      mstore\n        /* \"#utility.yul\":804:922   */\n      pop\n      pop\n      jump\t// out\n        /* \"#utility.yul\":928:1260   */\n    tag_16:\n        /* \"#utility.yul\":1049:1053   */\n      0x00\n        /* \"#utility.yul\":1087:1089   */\n      0x40\n        /* \"#utility.yul\":1076:1085   */\n      dup3\n        /* \"#utility.yul\":1072:1090   */\n      add\n        /* \"#utility.yul\":1064:1090   */\n      swap1\n      pop\n        /* \"#utility.yul\":1100:1171   */\n      tag_37\n        /* \"#utility.yul\":1168:1169   */\n      0x00\n        /* \"#utility.yul\":1157:1166   */\n      dup4\n        /* \"#utility.yul\":1153:1170   */\n      add\n        /* \"#utility.yul\":1144:1150   */\n      dup6\n        /* \"#utility.yul\":1100:1171   */\n      tag_28\n      jump\t// in\n    tag_37:\n        /* \"#utility.yul\":1181:1253   */\n      tag_38\n        /* \"#utility.yul\":1249:1251   */\n      0x20\n        /* \"#utility.yul\":1238:1247   */\n      dup4\n        /* \"#utility.yul\":1234:1252   */\n      add\n        /* \"#utility.yul\":1225:1231   */\n      dup5\n        /* \"#utility.yul\":1181:1253   */\n      tag_32\n      jump\t// in\n    tag_38:\n        /* \"#utility.yul\":928:1260   */\n      swap4\n      swap3\n      pop\n      pop\n      pop\n      jump\t// out\n        /* \"#utility.yul\":1347:1532   */\n    tag_9:\n        /* \"#utility.yul\":1387:1388   */\n      0x00\n        /* \"#utility.yul\":1404:1424   */\n      tag_42\n        /* \"#utility.yul\":1422:1423   */\n      dup3\n        /* \"#utility.yul\":1404:1424   */\n      tag_35\n      jump\t// in\n    tag_42:\n        /* \"#utility.yul\":1399:1424   */\n      swap2\n      pop\n        /* \"#utility.yul\":1438:1458   */\n      tag_43\n        /* \"#utility.yul\":1456:1457   */\n      dup4\n        /* \"#utility.yul\":1438:1458   */\n      tag_35\n      jump\t// in\n    tag_43:\n        /* \"#utility.yul\":1433:1458   */\n      swap3\n      pop\n        /* \"#utility.yul\":1477:1478   */\n      dup3\n        /* \"#utility.yul\":1467:1502   */\n      tag_44\n      jumpi\n        /* \"#utility.yul\":1482:1500   */\n      tag_45\n      tag_46\n      jump\t// in\n    tag_45:\n        /* \"#utility.yul\":1467:1502   */\n    tag_44:\n        /* \"#utility.yul\":1524:1525   */\n      dup3\n        /* \"#utility.yul\":1521:1522   */\n      dup3\n        /* \"#utility.yul\":1517:1526   */\n      div\n        /* \"#utility.yul\":1512:1526   */\n      swap1\n      pop\n        /* \"#utility.yul\":1347:1532   */\n      swap3\n      swap2\n      pop\n      pop\n      jump\t// out\n        /* \"#utility.yul\":1538:1634   */\n    tag_31:\n        /* \"#utility.yul\":1575:1582   */\n      0x00\n        /* \"#utility.yul\":1604:1628   */\n      tag_48\n        /* \"#utility.yul\":1622:1627   */\n      dup3\n        /* \"#utility.yul\":1604:1628   */\n      tag_49\n      jump\t// in\n    tag_48:\n        /* \"#utility.yul\":1593:1628   */\n      swap1\n      pop\n        /* \"#utility.yul\":1538:1634   */\n      swap2\n      swap1\n      pop\n      jump\t// out\n        /* \"#utility.yul\":1640:1744   */\n    tag_50:\n        /* \"#utility.yul\":1685:1692   */\n      0x00\n        /* \"#utility.yul\":1714:1738   */\n      tag_52\n        /* \"#utility.yul\":1732:1737   */\n      dup3\n        /* \"#utility.yul\":1714:1738   */\n      tag_49\n      jump\t// in\n    tag_52:\n        /* \"#utility.yul\":1703:1738   */\n      swap1\n      pop\n        /* \"#utility.yul\":1640:1744   */\n      swap2\n      swap1\n      pop\n      jump\t// out\n        /* \"#utility.yul\":1750:1876   */\n    tag_49:\n        /* \"#utility.yul\":1787:1794   */\n      0x00\n        /* \"#utility.yul\":1827:1869   */\n      0xffffffffffffffffffffffffffffffffffffffff\n        /* \"#utility.yul\":1820:1825   */\n      dup3\n        /* \"#utility.yul\":1816:1870   */\n      and\n        /* \"#utility.yul\":1805:1870   */\n      swap1\n      pop\n        /* \"#utility.yul\":1750:1876   */\n      swap2\n      swap1\n      pop\n      jump\t// out\n        /* \"#utility.yul\":1882:1959   */\n    tag_35:\n        /* \"#utility.yul\":1919:1926   */\n      0x00\n        /* \"#utility.yul\":1948:1953   */\n      dup2\n        /* \"#utility.yul\":1937:1953   */\n      swap1\n      pop\n        /* \"#utility.yul\":1882:1959   */\n      swap2\n      swap1\n      pop\n      jump\t// out\n        /* \"#utility.yul\":2151:2331   */\n    tag_46:\n        /* \"#utility.yul\":2199:2276   */\n      0x4e487b7100000000000000000000000000000000000000000000000000000000\n        /* \"#utility.yul\":2196:2197   */\n      0x00\n        /* \"#utility.yul\":2189:2277   */\n      mstore\n        /* \"#utility.yul\":2296:2300   */\n      0x12\n        /* \"#utility.yul\":2293:2294   */\n      0x04\n        /* \"#utility.yul\":2286:2301   */\n      mstore\n        /* \"#utility.yul\":2320:2324   */\n      0x24\n        /* \"#utility.yul\":2317:2318   */\n      0x00\n        /* \"#utility.yul\":2310:2325   */\n      revert\n        /* \"#utility.yul\":2460:2577   */\n    tag_25:\n        /* \"#utility.yul\":2569:2570   */\n      0x00\n        /* \"#utility.yul\":2566:2567   */\n      dup1\n        /* \"#utility.yul\":2559:2571   */\n      revert\n        /* \"#utility.yul\":2583:2721   */\n    tag_21:\n        /* \"#utility.yul\":2664:2696   */\n      tag_62\n        /* \"#utility.yul\":2690:2695   */\n      dup2\n        /* \"#utility.yul\":2664:2696   */\n      tag_50\n      jump\t// in\n    tag_62:\n        /* \"#utility.yul\":2657:2662   */\n      dup2\n        /* \"#utility.yul\":2654:2697   */\n      eq\n        /* \"#utility.yul\":2644:2715   */\n      tag_63\n      jumpi\n        /* \"#utility.yul\":2711:2712   */\n      0x00\n        /* \"#utility.yul\":2708:2709   */\n      dup1\n        /* \"#utility.yul\":2701:2713   */\n      revert\n        /* \"#utility.yul\":2644:2715   */\n    tag_63:\n        /* \"#utility.yul\":2583:2721   */\n      pop\n      jump\t// out\n\n    auxdata: 0xa26469706673582212207b3cca65c0feae1b9966f3d692c4a15e8919e15e7c55431bc5551b35a3c25e7364736f6c63430008070033\n}\n",
				"bytecode": {
					"linkReferences": {},
					"object": "608060405234801561001057600080fd5b506102be806100206000396000f3fe60806040526004361061001e5760003560e01c8063b6d9d45114610023575b600080fd5b61003d60048036038101906100389190610137565b61003f565b005b8173ffffffffffffffffffffffffffffffffffffffff166108fc60023461006691906101be565b9081150290604051600060405180830381858888f19350505050158015610091573d6000803e3d6000fd5b508073ffffffffffffffffffffffffffffffffffffffff166108fc6002346100b991906101be565b9081150290604051600060405180830381858888f193505050501580156100e4573d6000803e3d6000fd5b507ff950957d2407bed19dc99b718b46b4ce6090c05589006dfb86fd22c34865b23e3334604051610116929190610195565b60405180910390a15050565b60008135905061013181610271565b92915050565b6000806040838503121561014e5761014d61026c565b5b600061015c85828601610122565b925050602061016d85828601610122565b9150509250929050565b610180816101ef565b82525050565b61018f81610233565b82525050565b60006040820190506101aa6000830185610177565b6101b76020830184610186565b9392505050565b60006101c982610233565b91506101d483610233565b9250826101e4576101e361023d565b5b828204905092915050565b60006101fa82610213565b9050919050565b600061020c82610213565b9050919050565b600073ffffffffffffffffffffffffffffffffffffffff82169050919050565b6000819050919050565b7f4e487b7100000000000000000000000000000000000000000000000000000000600052601260045260246000fd5b600080fd5b61027a81610201565b811461028557600080fd5b5056fea26469706673582212207b3cca65c0feae1b9966f3d692c4a15e8919e15e7c55431bc5551b35a3c25e7364736f6c63430008070033",
					"opcodes": "PUSH1 0x80 PUSH1 0x40 MSTORE CALLVALUE DUP1 ISZERO PUSH2 0x10 JUMPI PUSH1 0x0 DUP1 REVERT JUMPDEST POP PUSH2 0x2BE DUP1 PUSH2 0x20 PUSH1 0x0 CODECOPY PUSH1 0x0 RETURN INVALID PUSH1 0x80 PUSH1 0x40 MSTORE PUSH1 0x4 CALLDATASIZE LT PUSH2 0x1E JUMPI PUSH1 0x0 CALLDATALOAD PUSH1 0xE0 SHR DUP1 PUSH4 0xB6D9D451 EQ PUSH2 0x23 JUMPI JUMPDEST PUSH1 0x0 DUP1 REVERT JUMPDEST PUSH2 0x3D PUSH1 0x4 DUP1 CALLDATASIZE SUB DUP2 ADD SWAP1 PUSH2 0x38 SWAP2 SWAP1 PUSH2 0x137 JUMP JUMPDEST PUSH2 0x3F JUMP JUMPDEST STOP JUMPDEST DUP2 PUSH20 0xFFFFFFFFFFFFFFFFFFFFFFFFFFFFFFFFFFFFFFFF AND PUSH2 0x8FC PUSH1 0x2 CALLVALUE PUSH2 0x66 SWAP2 SWAP1 PUSH2 0x1BE JUMP JUMPDEST SWAP1 DUP2 ISZERO MUL SWAP1 PUSH1 0x40 MLOAD PUSH1 0x0 PUSH1 0x40 MLOAD DUP1 DUP4 SUB DUP2 DUP6 DUP9 DUP9 CALL SWAP4 POP POP POP POP ISZERO DUP1 ISZERO PUSH2 0x91 JUMPI RETURNDATASIZE PUSH1 0x0 DUP1 RETURNDATACOPY RETURNDATASIZE PUSH1 0x0 REVERT JUMPDEST POP DUP1 PUSH20 0xFFFFFFFFFFFFFFFFFFFFFFFFFFFFFFFFFFFFFFFF AND PUSH2 0x8FC PUSH1 0x2 CALLVALUE PUSH2 0xB9 SWAP2 SWAP1 PUSH2 0x1BE JUMP JUMPDEST SWAP1 DUP2 ISZERO MUL SWAP1 PUSH1 0x40 MLOAD PUSH1 0x0 PUSH1 0x40 MLOAD DUP1 DUP4 SUB DUP2 DUP6 DUP9 DUP9 CALL SWAP4 POP POP POP POP ISZERO DUP1 ISZERO PUSH2 0xE4 JUMPI RETURNDATASIZE PUSH1 0x0 DUP1 RETURNDATACOPY RETURNDATASIZE PUSH1 0x0 REVERT JUMPDEST POP PUSH32 0xF950957D2407BED19DC99B718B46B4CE6090C05589006DFB86FD22C34865B23E CALLER CALLVALUE PUSH1 0x40 MLOAD PUSH2 0x116 SWAP3 SWAP2 SWAP1 PUSH2 0x195 JUMP JUMPDEST PUSH1 0x40 MLOAD DUP1 SWAP2 SUB SWAP1 LOG1 POP POP JUMP JUMPDEST PUSH1 0x0 DUP2 CALLDATALOAD SWAP1 POP PUSH2 0x131 DUP2 PUSH2 0x271 JUMP JUMPDEST SWAP3 SWAP2 POP POP JUMP JUMPDEST PUSH1 0x0 DUP1 PUSH1 0x40 DUP4 DUP6 SUB SLT ISZERO PUSH2 0x14E JUMPI PUSH2 0x14D PUSH2 0x26C JUMP JUMPDEST JUMPDEST PUSH1 0x0 PUSH2 0x15C DUP6 DUP3 DUP7 ADD PUSH2 0x122 JUMP JUMPDEST SWAP3 POP POP PUSH1 0x20 PUSH2 0x16D DUP6 DUP3 DUP7 ADD PUSH2 0x122 JUMP JUMPDEST SWAP2 POP POP SWAP3 POP SWAP3 SWAP1 POP JUMP JUMPDEST PUSH2 0x180 DUP2 PUSH2 0x1EF JUMP JUMPDEST DUP3 MSTORE POP POP JUMP JUMPDEST PUSH2 0x18F DUP2 PUSH2 0x233 JUMP JUMPDEST DUP3 MSTORE POP POP JUMP JUMPDEST PUSH1 0x0 PUSH1 0x40 DUP3 ADD SWAP1 POP PUSH2 0x1AA PUSH1 0x0 DUP4 ADD DUP6 PUSH2 0x177 JUMP JUMPDEST PUSH2 0x1B7 PUSH1 0x20 DUP4 ADD DUP5 PUSH2 0x186 JUMP JUMPDEST SWAP4 SWAP3 POP POP POP JUMP JUMPDEST PUSH1 0x0 PUSH2 0x1C9 DUP3 PUSH2 0x233 JUMP JUMPDEST SWAP2 POP PUSH2 0x1D4 DUP4 PUSH2 0x233 JUMP JUMPDEST SWAP3 POP DUP3 PUSH2 0x1E4 JUMPI PUSH2 0x1E3 PUSH2 0x23D JUMP JUMPDEST JUMPDEST DUP3 DUP3 DIV SWAP1 POP SWAP3 SWAP2 POP POP JUMP JUMPDEST PUSH1 0x0 PUSH2 0x1FA DUP3 PUSH2 0x213 JUMP JUMPDEST SWAP1 POP SWAP2 SWAP1 POP JUMP JUMPDEST PUSH1 0x0 PUSH2 0x20C DUP3 PUSH2 0x213 JUMP JUMPDEST SWAP1 POP SWAP2 SWAP1 POP JUMP JUMPDEST PUSH1 0x0 PUSH20 0xFFFFFFFFFFFFFFFFFFFFFFFFFFFFFFFFFFFFFFFF DUP3 AND SWAP1 POP SWAP2 SWAP1 POP JUMP JUMPDEST PUSH1 0x0 DUP2 SWAP1 POP SWAP2 SWAP1 POP JUMP JUMPDEST PUSH32 0x4E487B7100000000000000000000000000000000000000000000000000000000 PUSH1 0x0 MSTORE PUSH1 0x12 PUSH1 0x4 MSTORE PUSH1 0x24 PUSH1 0x0 REVERT JUMPDEST PUSH1 0x0 DUP1 REVERT JUMPDEST PUSH2 0x27A DUP2 PUSH2 0x201 JUMP JUMPDEST DUP2 EQ PUSH2 0x285 JUMPI PUSH1 0x0 DUP1 REVERT JUMPDEST POP JUMP INVALID LOG2 PUSH5 0x6970667358 0x22 SLT KECCAK256 PUSH28 0x3CCA65C0FEAE1B9966F3D692C4A15E8919E15E7C55431BC5551B35A3 0xC2 0x5E PUSH20 0x64736F6C63430008070033000000000000000000 "
				},
				"gasEstimates": {
					"creation": {
						"codeDepositCost": "140400",
						"executionCost": "183",
						"totalCost": "140583"
					},
					"external": {
						"send(address,address)": "infinite"
					}
				},
				"methodIdentifiers": {
					"send(address,address)": "b6d9d451"
				}
			},
			"storageLayout": {
				"storage": [],
				"types": null
			},
			"userdoc": {
				"kind": "user",
				"methods": {},
				"version": 1
			}
		}
	}
}