{
	"Fallback.sol": {
		"Fallback": {
			"abi": [
				{
					"inputs": [],
					"name": "fallback",
					"outputs": [],
					"stateMutability": "payable",
					"type": "function"
				}
			],
			"devdoc": {
				"kind": "dev",
				"methods": {},
				"version": 1
			},
			"evm": {
				"assembly": "    /* \"Fallback.sol\":56:124  contract Fallback{... */\n  mstore(0x40, 0x80)\n  callvalue\n  dup1\n  iszero\n  tag_1\n  jumpi\n  0x00\n  dup1\n  revert\ntag_1:\n  pop\n  dataSize(sub_0)\n  dup1\n  dataOffset(sub_0)\n  0x00\n  codecopy\n  0x00\n  return\nstop\n\nsub_0: assembly {\n        /* \"Fallback.sol\":56:124  contract Fallback{... */\n      mstore(0x40, 0x80)\n      jumpi(tag_1, lt(calldatasize, 0x04))\n      shr(0xe0, calldataload(0x00))\n      dup1\n      0x552079dc\n      eq\n      tag_2\n      jumpi\n    tag_1:\n      0x00\n      dup1\n      revert\n        /* \"Fallback.sol\":79:116  function fallback()external payable{} */\n    tag_2:\n      tag_3\n      tag_4\n      jump\t// in\n    tag_3:\n      stop\n    tag_4:\n      jump\t// out\n\n    auxdata: 0xa2646970667358221220bf5b981c4e9fabc9899eb54a5bbd2a231fc47741686cca8e11b542cbc216be4b64736f6c63430008070033\n}\n",
				"bytecode": {
					"linkReferences": {},
					"object": "6080604052348015600f57600080fd5b50606180601d6000396000f3fe608060405260043610601c5760003560e01c8063552079dc146021575b600080fd5b60276029565b005b56fea2646970667358221220bf5b981c4e9fabc9899eb54a5bbd2a231fc47741686cca8e11b542cbc216be4b64736f6c63430008070033",
					"opcodes": "PUSH1 0x80 PUSH1 0x40 MSTORE CALLVALUE DUP1 ISZERO PUSH1 0xF JUMPI PUSH1 0x0 DUP1 REVERT JUMPDEST POP PUSH1 0x61 DUP1 PUSH1 0x1D PUSH1 0x0 CODECOPY PUSH1 0x0 RETURN INVALID PUSH1 0x80 PUSH1 0x40 MSTORE PUSH1 0x4 CALLDATASIZE LT PUSH1 0x1C JUMPI PUSH1 0x0 CALLDATALOAD PUSH1 0xE0 SHR DUP1 PUSH4 0x552079DC EQ PUSH1 0x21 JUMPI JUMPDEST PUSH1 0x0 DUP1 REVERT JUMPDEST PUSH1 0x27 PUSH1 0x29 JUMP JUMPDEST STOP JUMPDEST JUMP INVALID LOG2 PUSH5 0x6970667358 0x22 SLT KECCAK256 0xBF JUMPDEST SWAP9 SHR 0x4E SWAP16 0xAB 0xC9 DUP10 SWAP15 0xB5 0x4A JUMPDEST 0xBD 0x2A 0x23 0x1F 0xC4 PUSH24 0x41686CCA8E11B542CBC216BE4B64736F6C63430008070033 "
				},
				"deployedBytecode": {
					"immutableReferences": {},
					"linkReferences": {},
					"object": "608060405260043610601c5760003560e01c8063552079dc146021575b600080fd5b60276029565b005b56fea2646970667358221220bf5b981c4e9fabc9899eb54a5bbd2a231fc47741686cca8e11b542cbc216be4b64736f6c63430008070033",
					"opcodes": "PUSH1 0x80 PUSH1 0x40 MSTORE PUSH1 0x4 CALLDATASIZE LT PUSH1 0x1C JUMPI PUSH1 0x0 CALLDATALOAD PUSH1 0xE0 SHR DUP1 PUSH4 0x552079DC EQ PUSH1 0x21 JUMPI JUMPDEST PUSH1 0x0 DUP1 REVERT JUMPDEST PUSH1 0x27 PUSH1 0x29 JUMP JUMPDEST STOP JUMPDEST JUMP INVALID LOG2 PUSH5 0x6970667358 0x22 SLT KECCAK256 0xBF JUMPDEST SWAP9 SHR 0x4E SWAP16 0xAB 0xC9 DUP10 SWAP15 0xB5 0x4A JUMPDEST 0xBD 0x2A 0x23 0x1F 0xC4 PUSH24 0x41686CCA8E11B542CBC216BE4B64736F6C63430008070033 "
				},
				"gasEstimates": {
					"creation": {
						"codeDepositCost": "19400",
						"executionCost": "75",
						"totalCost": "19475"
					},
					"external": {
						"fallback()": "98"
					}
				},
				"methodIdentifiers": {
					"fallback()": "552079dc"
				}
			},
			"storageLayout": {
				"storage": [],
				"types": null
			},
			"userdoc": {
				"kind": "user",
				"methods": {},
				"version": 1
			}
		}
	}
}