{
	"Documents/dev/Lime/contracts/Functions.sol": {
		"Functions": {
			"abi": [
				{
					"inputs": [
						{
							"internalType": "uint256",
							"name": "x",
							"type": "uint256"
						},
						{
							"internalType": "uint256",
							"name": "y",
							"type": "uint256"
						}
					],
					"name": "add",
					"outputs": [
						{
							"internalType": "uint256",
							"name": "",
							"type": "uint256"
						}
					],
					"stateMutability": "pure",
					"type": "function"
				},
				{
					"inputs": [],
					"name": "foo",
					"outputs": [],
					"stateMutability": "nonpayable",
					"type": "function"
				},
				{
					"inputs": [],
					"name": "i",
					"outputs": [
						{
							"internalType": "uint256",
							"name": "",
							"type": "uint256"
						}
					],
					"stateMutability": "view",
					"type": "function"
				},
				{
					"inputs": [
						{
							"internalType": "uint256",
							"name": "x",
							"type": "uint256"
						},
						{
							"internalType": "uint256",
							"name": "y",
							"type": "uint256"
						}
					],
					"name": "sub",
					"outputs": [
						{
							"internalType": "uint256",
							"name": "",
							"type": "uint256"
						}
					],
					"stateMutability": "pure",
					"type": "function"
				}
			],
			"devdoc": {
				"kind": "dev",
				"methods": {},
				"version": 1
			},
			"evm": {
				"assembly": "    /* \"Documents/dev/Lime/contracts/Functions.sol\":56:325  contract Functions{... */\n  mstore(0x40, 0x80)\n    /* \"Documents/dev/Lime/contracts/Functions.sol\":96:99  123 */\n  0x7b\n    /* \"Documents/dev/Lime/contracts/Functions.sol\":80:99  uint public i = 123 */\n  0x00\n  sstore\n    /* \"Documents/dev/Lime/contracts/Functions.sol\":56:325  contract Functions{... */\n  callvalue\n  dup1\n  iszero\n  tag_1\n  jumpi\n  0x00\n  dup1\n  revert\ntag_1:\n  pop\n  dataSize(sub_0)\n  dup1\n  dataOffset(sub_0)\n  0x00\n  codecopy\n  0x00\n  return\nstop\n\nsub_0: assembly {\n        /* \"Documents/dev/Lime/contracts/Functions.sol\":56:325  contract Functions{... */\n      mstore(0x40, 0x80)\n      callvalue\n      dup1\n      iszero\n      tag_1\n      jumpi\n      0x00\n      dup1\n      revert\n    tag_1:\n      pop\n      jumpi(tag_2, lt(calldatasize, 0x04))\n      shr(0xe0, calldataload(0x00))\n      dup1\n      0x771602f7\n      eq\n      tag_3\n      jumpi\n      dup1\n      0xb67d77c5\n      eq\n      tag_4\n      jumpi\n      dup1\n      0xc2985578\n      eq\n      tag_5\n      jumpi\n      dup1\n      0xe5aa3d58\n      eq\n      tag_6\n      jumpi\n    tag_2:\n      0x00\n      dup1\n      revert\n        /* \"Documents/dev/Lime/contracts/Functions.sol\":151:233  function add(uint x,uint y) external pure returns(uint){... */\n    tag_3:\n      tag_7\n      0x04\n      dup1\n      calldatasize\n      sub\n      dup2\n      add\n      swap1\n      tag_8\n      swap2\n      swap1\n      tag_9\n      jump\t// in\n    tag_8:\n      tag_10\n      jump\t// in\n    tag_7:\n      mload(0x40)\n      tag_11\n      swap2\n      swap1\n      tag_12\n      jump\t// in\n    tag_11:\n      mload(0x40)\n      dup1\n      swap2\n      sub\n      swap1\n      return\n        /* \"Documents/dev/Lime/contracts/Functions.sol\":239:322  function sub(uint x,uint y) external pure returns (uint){... */\n    tag_4:\n      tag_13\n      0x04\n      dup1\n      calldatasize\n      sub\n      dup2\n      add\n      swap1\n      tag_14\n      swap2\n      swap1\n      tag_9\n      jump\t// in\n    tag_14:\n      tag_15\n      jump\t// in\n    tag_13:\n      mload(0x40)\n      tag_16\n      swap2\n      swap1\n      tag_12\n      jump\t// in\n    tag_16:\n      mload(0x40)\n      dup1\n      swap2\n      sub\n      swap1\n      return\n        /* \"Documents/dev/Lime/contracts/Functions.sol\":106:145  function foo() external{... */\n    tag_5:\n      tag_17\n      tag_18\n      jump\t// in\n    tag_17:\n      stop\n        /* \"Documents/dev/Lime/contracts/Functions.sol\":80:99  uint public i = 123 */\n    tag_6:\n      tag_19\n      tag_20\n      jump\t// in\n    tag_19:\n      mload(0x40)\n      tag_21\n      swap2\n      swap1\n      tag_12\n      jump\t// in\n    tag_21:\n      mload(0x40)\n      dup1\n      swap2\n      sub\n      swap1\n      return\n        /* \"Documents/dev/Lime/contracts/Functions.sol\":151:233  function add(uint x,uint y) external pure returns(uint){... */\n    tag_10:\n        /* \"Documents/dev/Lime/contracts/Functions.sol\":201:205  uint */\n      0x00\n        /* \"Documents/dev/Lime/contracts/Functions.sol\":225:226  y */\n      dup2\n        /* \"Documents/dev/Lime/contracts/Functions.sol\":223:224  x */\n      dup4\n        /* \"Documents/dev/Lime/contracts/Functions.sol\":223:226  x+y */\n      tag_23\n      swap2\n      swap1\n      tag_24\n      jump\t// in\n    tag_23:\n        /* \"Documents/dev/Lime/contracts/Functions.sol\":216:226  return x+y */\n      swap1\n      pop\n        /* \"Documents/dev/Lime/contracts/Functions.sol\":151:233  function add(uint x,uint y) external pure returns(uint){... */\n      swap3\n      swap2\n      pop\n      pop\n      jump\t// out\n        /* \"Documents/dev/Lime/contracts/Functions.sol\":239:322  function sub(uint x,uint y) external pure returns (uint){... */\n    tag_15:\n        /* \"Documents/dev/Lime/contracts/Functions.sol\":290:294  uint */\n      0x00\n        /* \"Documents/dev/Lime/contracts/Functions.sol\":314:315  y */\n      dup2\n        /* \"Documents/dev/Lime/contracts/Functions.sol\":312:313  x */\n      dup4\n        /* \"Documents/dev/Lime/contracts/Functions.sol\":312:315  x-y */\n      tag_26\n      swap2\n      swap1\n      tag_27\n      jump\t// in\n    tag_26:\n        /* \"Documents/dev/Lime/contracts/Functions.sol\":305:315  return x-y */\n      swap1\n      pop\n        /* \"Documents/dev/Lime/contracts/Functions.sol\":239:322  function sub(uint x,uint y) external pure returns (uint){... */\n      swap3\n      swap2\n      pop\n      pop\n      jump\t// out\n        /* \"Documents/dev/Lime/contracts/Functions.sol\":106:145  function foo() external{... */\n    tag_18:\n      jump\t// out\n        /* \"Documents/dev/Lime/contracts/Functions.sol\":80:99  uint public i = 123 */\n    tag_20:\n      sload(0x00)\n      dup2\n      jump\t// out\n        /* \"#utility.yul\":7:146   */\n    tag_30:\n        /* \"#utility.yul\":53:58   */\n      0x00\n        /* \"#utility.yul\":91:97   */\n      dup2\n        /* \"#utility.yul\":78:98   */\n      calldataload\n        /* \"#utility.yul\":69:98   */\n      swap1\n      pop\n        /* \"#utility.yul\":107:140   */\n      tag_32\n        /* \"#utility.yul\":134:139   */\n      dup2\n        /* \"#utility.yul\":107:140   */\n      tag_33\n      jump\t// in\n    tag_32:\n        /* \"#utility.yul\":7:146   */\n      swap3\n      swap2\n      pop\n      pop\n      jump\t// out\n        /* \"#utility.yul\":152:626   */\n    tag_9:\n        /* \"#utility.yul\":220:226   */\n      0x00\n        /* \"#utility.yul\":228:234   */\n      dup1\n        /* \"#utility.yul\":277:279   */\n      0x40\n        /* \"#utility.yul\":265:274   */\n      dup4\n        /* \"#utility.yul\":256:263   */\n      dup6\n        /* \"#utility.yul\":252:275   */\n      sub\n        /* \"#utility.yul\":248:280   */\n      slt\n        /* \"#utility.yul\":245:364   */\n      iszero\n      tag_35\n      jumpi\n        /* \"#utility.yul\":283:362   */\n      tag_36\n      tag_37\n      jump\t// in\n    tag_36:\n        /* \"#utility.yul\":245:364   */\n    tag_35:\n        /* \"#utility.yul\":403:404   */\n      0x00\n        /* \"#utility.yul\":428:481   */\n      tag_38\n        /* \"#utility.yul\":473:480   */\n      dup6\n        /* \"#utility.yul\":464:470   */\n      dup3\n        /* \"#utility.yul\":453:462   */\n      dup7\n        /* \"#utility.yul\":449:471   */\n      add\n        /* \"#utility.yul\":428:481   */\n      tag_30\n      jump\t// in\n    tag_38:\n        /* \"#utility.yul\":418:481   */\n      swap3\n      pop\n        /* \"#utility.yul\":374:491   */\n      pop\n        /* \"#utility.yul\":530:532   */\n      0x20\n        /* \"#utility.yul\":556:609   */\n      tag_39\n        /* \"#utility.yul\":601:608   */\n      dup6\n        /* \"#utility.yul\":592:598   */\n      dup3\n        /* \"#utility.yul\":581:590   */\n      dup7\n        /* \"#utility.yul\":577:599   */\n      add\n        /* \"#utility.yul\":556:609   */\n      tag_30\n      jump\t// in\n    tag_39:\n        /* \"#utility.yul\":546:609   */\n      swap2\n      pop\n        /* \"#utility.yul\":501:619   */\n      pop\n        /* \"#utility.yul\":152:626   */\n      swap3\n      pop\n      swap3\n      swap1\n      pop\n      jump\t// out\n        /* \"#utility.yul\":632:750   */\n    tag_40:\n        /* \"#utility.yul\":719:743   */\n      tag_42\n        /* \"#utility.yul\":737:742   */\n      dup2\n        /* \"#utility.yul\":719:743   */\n      tag_43\n      jump\t// in\n    tag_42:\n        /* \"#utility.yul\":714:717   */\n      dup3\n        /* \"#utility.yul\":707:744   */\n      mstore\n        /* \"#utility.yul\":632:750   */\n      pop\n      pop\n      jump\t// out\n        /* \"#utility.yul\":756:978   */\n    tag_12:\n        /* \"#utility.yul\":849:853   */\n      0x00\n        /* \"#utility.yul\":887:889   */\n      0x20\n        /* \"#utility.yul\":876:885   */\n      dup3\n        /* \"#utility.yul\":872:890   */\n      add\n        /* \"#utility.yul\":864:890   */\n      swap1\n      pop\n        /* \"#utility.yul\":900:971   */\n      tag_45\n        /* \"#utility.yul\":968:969   */\n      0x00\n        /* \"#utility.yul\":957:966   */\n      dup4\n        /* \"#utility.yul\":953:970   */\n      add\n        /* \"#utility.yul\":944:950   */\n      dup5\n        /* \"#utility.yul\":900:971   */\n      tag_40\n      jump\t// in\n    tag_45:\n        /* \"#utility.yul\":756:978   */\n      swap3\n      swap2\n      pop\n      pop\n      jump\t// out\n        /* \"#utility.yul\":1065:1370   */\n    tag_24:\n        /* \"#utility.yul\":1105:1108   */\n      0x00\n        /* \"#utility.yul\":1124:1144   */\n      tag_49\n        /* \"#utility.yul\":1142:1143   */\n      dup3\n        /* \"#utility.yul\":1124:1144   */\n      tag_43\n      jump\t// in\n    tag_49:\n        /* \"#utility.yul\":1119:1144   */\n      swap2\n      pop\n        /* \"#utility.yul\":1158:1178   */\n      tag_50\n        /* \"#utility.yul\":1176:1177   */\n      dup4\n        /* \"#utility.yul\":1158:1178   */\n      tag_43\n      jump\t// in\n    tag_50:\n        /* \"#utility.yul\":1153:1178   */\n      swap3\n      pop\n        /* \"#utility.yul\":1312:1313   */\n      dup3\n        /* \"#utility.yul\":1244:1310   */\n      0xffffffffffffffffffffffffffffffffffffffffffffffffffffffffffffffff\n        /* \"#utility.yul\":1240:1314   */\n      sub\n        /* \"#utility.yul\":1237:1238   */\n      dup3\n        /* \"#utility.yul\":1234:1315   */\n      gt\n        /* \"#utility.yul\":1231:1338   */\n      iszero\n      tag_51\n      jumpi\n        /* \"#utility.yul\":1318:1336   */\n      tag_52\n      tag_53\n      jump\t// in\n    tag_52:\n        /* \"#utility.yul\":1231:1338   */\n    tag_51:\n        /* \"#utility.yul\":1362:1363   */\n      dup3\n        /* \"#utility.yul\":1359:1360   */\n      dup3\n        /* \"#utility.yul\":1355:1364   */\n      add\n        /* \"#utility.yul\":1348:1364   */\n      swap1\n      pop\n        /* \"#utility.yul\":1065:1370   */\n      swap3\n      swap2\n      pop\n      pop\n      jump\t// out\n        /* \"#utility.yul\":1376:1567   */\n    tag_27:\n        /* \"#utility.yul\":1416:1420   */\n      0x00\n        /* \"#utility.yul\":1436:1456   */\n      tag_55\n        /* \"#utility.yul\":1454:1455   */\n      dup3\n        /* \"#utility.yul\":1436:1456   */\n      tag_43\n      jump\t// in\n    tag_55:\n        /* \"#utility.yul\":1431:1456   */\n      swap2\n      pop\n        /* \"#utility.yul\":1470:1490   */\n      tag_56\n        /* \"#utility.yul\":1488:1489   */\n      dup4\n        /* \"#utility.yul\":1470:1490   */\n      tag_43\n      jump\t// in\n    tag_56:\n        /* \"#utility.yul\":1465:1490   */\n      swap3\n      pop\n        /* \"#utility.yul\":1509:1510   */\n      dup3\n        /* \"#utility.yul\":1506:1507   */\n      dup3\n        /* \"#utility.yul\":1503:1511   */\n      lt\n        /* \"#utility.yul\":1500:1534   */\n      iszero\n      tag_57\n      jumpi\n        /* \"#utility.yul\":1514:1532   */\n      tag_58\n      tag_53\n      jump\t// in\n    tag_58:\n        /* \"#utility.yul\":1500:1534   */\n    tag_57:\n        /* \"#utility.yul\":1559:1560   */\n      dup3\n        /* \"#utility.yul\":1556:1557   */\n      dup3\n        /* \"#utility.yul\":1552:1561   */\n      sub\n        /* \"#utility.yul\":1544:1561   */\n      swap1\n      pop\n        /* \"#utility.yul\":1376:1567   */\n      swap3\n      swap2\n      pop\n      pop\n      jump\t// out\n        /* \"#utility.yul\":1573:1650   */\n    tag_43:\n        /* \"#utility.yul\":1610:1617   */\n      0x00\n        /* \"#utility.yul\":1639:1644   */\n      dup2\n        /* \"#utility.yul\":1628:1644   */\n      swap1\n      pop\n        /* \"#utility.yul\":1573:1650   */\n      swap2\n      swap1\n      pop\n      jump\t// out\n        /* \"#utility.yul\":1656:1836   */\n    tag_53:\n        /* \"#utility.yul\":1704:1781   */\n      0x4e487b7100000000000000000000000000000000000000000000000000000000\n        /* \"#utility.yul\":1701:1702   */\n      0x00\n        /* \"#utility.yul\":1694:1782   */\n      mstore\n        /* \"#utility.yul\":1801:1805   */\n      0x11\n        /* \"#utility.yul\":1798:1799   */\n      0x04\n        /* \"#utility.yul\":1791:1806   */\n      mstore\n        /* \"#utility.yul\":1825:1829   */\n      0x24\n        /* \"#utility.yul\":1822:1823   */\n      0x00\n        /* \"#utility.yul\":1815:1830   */\n      revert\n        /* \"#utility.yul\":1965:2082   */\n    tag_37:\n        /* \"#utility.yul\":2074:2075   */\n      0x00\n        /* \"#utility.yul\":2071:2072   */\n      dup1\n        /* \"#utility.yul\":2064:2076   */\n      revert\n        /* \"#utility.yul\":2088:2210   */\n    tag_33:\n        /* \"#utility.yul\":2161:2185   */\n      tag_65\n        /* \"#utility.yul\":2179:2184   */\n      dup2\n        /* \"#utility.yul\":2161:2185   */\n      tag_43\n      jump\t// in\n    tag_65:\n        /* \"#utility.yul\":2154:2159   */\n      dup2\n        /* \"#utility.yul\":2151:2186   */\n      eq\n        /* \"#utility.yul\":2141:2204   */\n      tag_66\n      jumpi\n        /* \"#utility.yul\":2200:2201   */\n      0x00\n        /* \"#utility.yul\":2197:2198   */\n      dup1\n        /* \"#utility.yul\":2190:2202   */\n      revert\n        /* \"#utility.yul\":2141:2204   */\n    tag_66:\n        /* \"#utility.yul\":2088:2210   */\n      pop\n      jump\t// out\n\n    auxdata: 0xa2646970667358221220f58c3794ccfbcaede69773ce5ad33118850686c603ba75be00aee61dbd07bb1a64736f6c63430008070033\n}\n",
				"bytecode": {
					"linkReferences": {},
					"object": "6080604052607b60005534801561001557600080fd5b506102a1806100256000396000f3fe608060405234801561001057600080fd5b506004361061004c5760003560e01c8063771602f714610051578063b67d77c514610081578063c2985578146100b1578063e5aa3d58146100bb575b600080fd5b61006b60048036038101906100669190610122565b6100d9565b6040516100789190610171565b60405180910390f35b61009b60048036038101906100969190610122565b6100ef565b6040516100a89190610171565b60405180910390f35b6100b9610105565b005b6100c3610107565b6040516100d09190610171565b60405180910390f35b600081836100e7919061018c565b905092915050565b600081836100fd91906101e2565b905092915050565b565b60005481565b60008135905061011c81610254565b92915050565b600080604083850312156101395761013861024f565b5b60006101478582860161010d565b92505060206101588582860161010d565b9150509250929050565b61016b81610216565b82525050565b60006020820190506101866000830184610162565b92915050565b600061019782610216565b91506101a283610216565b9250827fffffffffffffffffffffffffffffffffffffffffffffffffffffffffffffffff038211156101d7576101d6610220565b5b828201905092915050565b60006101ed82610216565b91506101f883610216565b92508282101561020b5761020a610220565b5b828203905092915050565b6000819050919050565b7f4e487b7100000000000000000000000000000000000000000000000000000000600052601160045260246000fd5b600080fd5b61025d81610216565b811461026857600080fd5b5056fea2646970667358221220f58c3794ccfbcaede69773ce5ad33118850686c603ba75be00aee61dbd07bb1a64736f6c63430008070033",
					"opcodes": "PUSH1 0x80 PUSH1 0x40 MSTORE PUSH1 0x7B PUSH1 0x0 SSTORE CALLVALUE DUP1 ISZERO PUSH2 0x15 JUMPI PUSH1 0x0 DUP1 REVERT JUMPDEST POP PUSH2 0x2A1 DUP1 PUSH2 0x25 PUSH1 0x0 CODECOPY PUSH1 0x0 RETURN INVALID PUSH1 0x80 PUSH1 0x40 MSTORE CALLVALUE DUP1 ISZERO PUSH2 0x10 JUMPI PUSH1 0x0 DUP1 REVERT JUMPDEST POP PUSH1 0x4 CALLDATASIZE LT PUSH2 0x4C JUMPI PUSH1 0x0 CALLDATALOAD PUSH1 0xE0 SHR DUP1 PUSH4 0x771602F7 EQ PUSH2 0x51 JUMPI DUP1 PUSH4 0xB67D77C5 EQ PUSH2 0x81 JUMPI DUP1 PUSH4 0xC2985578 EQ PUSH2 0xB1 JUMPI DUP1 PUSH4 0xE5AA3D58 EQ PUSH2 0xBB JUMPI JUMPDEST PUSH1 0x0 DUP1 REVERT JUMPDEST PUSH2 0x6B PUSH1 0x4 DUP1 CALLDATASIZE SUB DUP2 ADD SWAP1 PUSH2 0x66 SWAP2 SWAP1 PUSH2 0x122 JUMP JUMPDEST PUSH2 0xD9 JUMP JUMPDEST PUSH1 0x40 MLOAD PUSH2 0x78 SWAP2 SWAP1 PUSH2 0x171 JUMP JUMPDEST PUSH1 0x40 MLOAD DUP1 SWAP2 SUB SWAP1 RETURN JUMPDEST PUSH2 0x9B PUSH1 0x4 DUP1 CALLDATASIZE SUB DUP2 ADD SWAP1 PUSH2 0x96 SWAP2 SWAP1 PUSH2 0x122 JUMP JUMPDEST PUSH2 0xEF JUMP JUMPDEST PUSH1 0x40 MLOAD PUSH2 0xA8 SWAP2 SWAP1 PUSH2 0x171 JUMP JUMPDEST PUSH1 0x40 MLOAD DUP1 SWAP2 SUB SWAP1 RETURN JUMPDEST PUSH2 0xB9 PUSH2 0x105 JUMP JUMPDEST STOP JUMPDEST PUSH2 0xC3 PUSH2 0x107 JUMP JUMPDEST PUSH1 0x40 MLOAD PUSH2 0xD0 SWAP2 SWAP1 PUSH2 0x171 JUMP JUMPDEST PUSH1 0x40 MLOAD DUP1 SWAP2 SUB SWAP1 RETURN JUMPDEST PUSH1 0x0 DUP2 DUP4 PUSH2 0xE7 SWAP2 SWAP1 PUSH2 0x18C JUMP JUMPDEST SWAP1 POP SWAP3 SWAP2 POP POP JUMP JUMPDEST PUSH1 0x0 DUP2 DUP4 PUSH2 0xFD SWAP2 SWAP1 PUSH2 0x1E2 JUMP JUMPDEST SWAP1 POP SWAP3 SWAP2 POP POP JUMP JUMPDEST JUMP JUMPDEST PUSH1 0x0 SLOAD DUP2 JUMP JUMPDEST PUSH1 0x0 DUP2 CALLDATALOAD SWAP1 POP PUSH2 0x11C DUP2 PUSH2 0x254 JUMP JUMPDEST SWAP3 SWAP2 POP POP JUMP JUMPDEST PUSH1 0x0 DUP1 PUSH1 0x40 DUP4 DUP6 SUB SLT ISZERO PUSH2 0x139 JUMPI PUSH2 0x138 PUSH2 0x24F JUMP JUMPDEST JUMPDEST PUSH1 0x0 PUSH2 0x147 DUP6 DUP3 DUP7 ADD PUSH2 0x10D JUMP JUMPDEST SWAP3 POP POP PUSH1 0x20 PUSH2 0x158 DUP6 DUP3 DUP7 ADD PUSH2 0x10D JUMP JUMPDEST SWAP2 POP POP SWAP3 POP SWAP3 SWAP1 POP JUMP JUMPDEST PUSH2 0x16B DUP2 PUSH2 0x216 JUMP JUMPDEST DUP3 MSTORE POP POP JUMP JUMPDEST PUSH1 0x0 PUSH1 0x20 DUP3 ADD SWAP1 POP PUSH2 0x186 PUSH1 0x0 DUP4 ADD DUP5 PUSH2 0x162 JUMP JUMPDEST SWAP3 SWAP2 POP POP JUMP JUMPDEST PUSH1 0x0 PUSH2 0x197 DUP3 PUSH2 0x216 JUMP JUMPDEST SWAP2 POP PUSH2 0x1A2 DUP4 PUSH2 0x216 JUMP JUMPDEST SWAP3 POP DUP3 PUSH32 0xFFFFFFFFFFFFFFFFFFFFFFFFFFFFFFFFFFFFFFFFFFFFFFFFFFFFFFFFFFFFFFFF SUB DUP3 GT ISZERO PUSH2 0x1D7 JUMPI PUSH2 0x1D6 PUSH2 0x220 JUMP JUMPDEST JUMPDEST DUP3 DUP3 ADD SWAP1 POP SWAP3 SWAP2 POP POP JUMP JUMPDEST PUSH1 0x0 PUSH2 0x1ED DUP3 PUSH2 0x216 JUMP JUMPDEST SWAP2 POP PUSH2 0x1F8 DUP4 PUSH2 0x216 JUMP JUMPDEST SWAP3 POP DUP3 DUP3 LT ISZERO PUSH2 0x20B JUMPI PUSH2 0x20A PUSH2 0x220 JUMP JUMPDEST JUMPDEST DUP3 DUP3 SUB SWAP1 POP SWAP3 SWAP2 POP POP JUMP JUMPDEST PUSH1 0x0 DUP2 SWAP1 POP SWAP2 SWAP1 POP JUMP JUMPDEST PUSH32 0x4E487B7100000000000000000000000000000000000000000000000000000000 PUSH1 0x0 MSTORE PUSH1 0x11 PUSH1 0x4 MSTORE PUSH1 0x24 PUSH1 0x0 REVERT JUMPDEST PUSH1 0x0 DUP1 REVERT JUMPDEST PUSH2 0x25D DUP2 PUSH2 0x216 JUMP JUMPDEST DUP2 EQ PUSH2 0x268 JUMPI PUSH1 0x0 DUP1 REVERT JUMPDEST POP JUMP INVALID LOG2 PUSH5 0x6970667358 0x22 SLT KECCAK256 CREATE2 DUP13 CALLDATACOPY SWAP5 0xCC 0xFB 0xCA 0xED 0xE6 SWAP8 PUSH20 0xCE5AD33118850686C603BA75BE00AEE61DBD07BB BYTE PUSH5 0x736F6C6343 STOP ADDMOD SMOD STOP CALLER "
				},
				"gasEstimates": {
					"creation": {
						"codeDepositCost": "134600",
						"executionCost": "22289",
						"totalCost": "156889"
					},
					"external": {
						"add(uint256,uint256)": "infinite",
						"foo()": "166",
						"i()": "2473",
						"sub(uint256,uint256)": "infinite"
					}
				},
				"methodIdentifiers": {
					"add(uint256,uint256)": "771602f7",
					"foo()": "c2985578",
					"i()": "e5aa3d58",
					"sub(uint256,uint256)": "b67d77c5"
				}
			},
			"storageLayout": {
				"storage": [
					{
						"astId": 4,
						"contract": "Documents/dev/Lime/contracts/Functions.sol:Functions",
						"label": "i",
						"offset": 0,
						"slot": "0",
						"type": "t_uint256"
					}
				],
				"types": {
					"t_uint256": {
						"encoding": "inplace",
						"label": "uint256",
						"numberOfBytes": "32"
					}
				}
			},
			"userdoc": {
				"kind": "user",
				"methods": {},
				"version": 1
			}
		}
	}
}