{
	"Documents/dev/Lime/contracts/Errors.sol": {
		"Errors": {
			"abi": [
				{
					"inputs": [
						{
							"internalType": "address",
							"name": "caller",
							"type": "address"
						},
						{
							"internalType": "uint256",
							"name": "i",
							"type": "uint256"
						}
					],
					"name": "MyError",
					"type": "error"
				},
				{
					"inputs": [],
					"name": "foo",
					"outputs": [],
					"stateMutability": "nonpayable",
					"type": "function"
				},
				{
					"inputs": [],
					"name": "num",
					"outputs": [
						{
							"internalType": "uint256",
							"name": "",
							"type": "uint256"
						}
					],
					"stateMutability": "view",
					"type": "function"
				},
				{
					"inputs": [],
					"name": "testAssert",
					"outputs": [],
					"stateMutability": "view",
					"type": "function"
				},
				{
					"inputs": [
						{
							"internalType": "uint256",
							"name": "_i",
							"type": "uint256"
						}
					],
					"name": "testCustomError",
					"outputs": [],
					"stateMutability": "view",
					"type": "function"
				},
				{
					"inputs": [
						{
							"internalType": "uint256",
							"name": "_i",
							"type": "uint256"
						}
					],
					"name": "testRequire",
					"outputs": [],
					"stateMutability": "pure",
					"type": "function"
				},
				{
					"inputs": [
						{
							"internalType": "uint256",
							"name": "_i",
							"type": "uint256"
						}
					],
					"name": "testRevert",
					"outputs": [],
					"stateMutability": "pure",
					"type": "function"
				}
			],
			"devdoc": {
				"kind": "dev",
				"methods": {},
				"version": 1
			},
			"evm": {
				"assembly": "    /* \"Documents/dev/Lime/contracts/Errors.sol\":56:688  contract Errors{... */\n  mstore(0x40, 0x80)\n    /* \"Documents/dev/Lime/contracts/Errors.sol\":384:387  123 */\n  0x7b\n    /* \"Documents/dev/Lime/contracts/Errors.sol\":367:387  uint public num =123 */\n  0x00\n  sstore\n    /* \"Documents/dev/Lime/contracts/Errors.sol\":56:688  contract Errors{... */\n  callvalue\n  dup1\n  iszero\n  tag_1\n  jumpi\n  0x00\n  dup1\n  revert\ntag_1:\n  pop\n  dataSize(sub_0)\n  dup1\n  dataOffset(sub_0)\n  0x00\n  codecopy\n  0x00\n  return\nstop\n\nsub_0: assembly {\n        /* \"Documents/dev/Lime/contracts/Errors.sol\":56:688  contract Errors{... */\n      mstore(0x40, 0x80)\n      callvalue\n      dup1\n      iszero\n      tag_1\n      jumpi\n      0x00\n      dup1\n      revert\n    tag_1:\n      pop\n      jumpi(tag_2, lt(calldatasize, 0x04))\n      shr(0xe0, calldataload(0x00))\n      dup1\n      0x20987767\n      eq\n      tag_3\n      jumpi\n      dup1\n      0x2b813bc0\n      eq\n      tag_4\n      jumpi\n      dup1\n      0x4e70b1dc\n      eq\n      tag_5\n      jumpi\n      dup1\n      0x75f7286c\n      eq\n      tag_6\n      jumpi\n      dup1\n      0xb8bd717f\n      eq\n      tag_7\n      jumpi\n      dup1\n      0xc2985578\n      eq\n      tag_8\n      jumpi\n    tag_2:\n      0x00\n      dup1\n      revert\n        /* \"Documents/dev/Lime/contracts/Errors.sol\":165:361  function testRevert(uint _i) external pure {... */\n    tag_3:\n      tag_9\n      0x04\n      dup1\n      calldatasize\n      sub\n      dup2\n      add\n      swap1\n      tag_10\n      swap2\n      swap1\n      tag_11\n      jump\t// in\n    tag_10:\n      tag_12\n      jump\t// in\n    tag_9:\n      stop\n        /* \"Documents/dev/Lime/contracts/Errors.sol\":393:460  function testAssert() public view {... */\n    tag_4:\n      tag_13\n      tag_14\n      jump\t// in\n    tag_13:\n      stop\n        /* \"Documents/dev/Lime/contracts/Errors.sol\":367:387  uint public num =123 */\n    tag_5:\n      tag_15\n      tag_16\n      jump\t// in\n    tag_15:\n      mload(0x40)\n      tag_17\n      swap2\n      swap1\n      tag_18\n      jump\t// in\n    tag_17:\n      mload(0x40)\n      dup1\n      swap2\n      sub\n      swap1\n      return\n        /* \"Documents/dev/Lime/contracts/Errors.sol\":558:686  function testCustomError(uint _i) external view{... */\n    tag_6:\n      tag_19\n      0x04\n      dup1\n      calldatasize\n      sub\n      dup2\n      add\n      swap1\n      tag_20\n      swap2\n      swap1\n      tag_11\n      jump\t// in\n    tag_20:\n      tag_21\n      jump\t// in\n    tag_19:\n      stop\n        /* \"Documents/dev/Lime/contracts/Errors.sol\":77:160  function testRequire(uint _i) external pure {... */\n    tag_7:\n      tag_22\n      0x04\n      dup1\n      calldatasize\n      sub\n      dup2\n      add\n      swap1\n      tag_23\n      swap2\n      swap1\n      tag_11\n      jump\t// in\n    tag_23:\n      tag_24\n      jump\t// in\n    tag_22:\n      stop\n        /* \"Documents/dev/Lime/contracts/Errors.sol\":466:510  function foo() public{... */\n    tag_8:\n      tag_25\n      tag_26\n      jump\t// in\n    tag_25:\n      stop\n        /* \"Documents/dev/Lime/contracts/Errors.sol\":165:361  function testRevert(uint _i) external pure {... */\n    tag_12:\n        /* \"Documents/dev/Lime/contracts/Errors.sol\":225:226  1 */\n      0x01\n        /* \"Documents/dev/Lime/contracts/Errors.sol\":222:224  _i */\n      dup2\n        /* \"Documents/dev/Lime/contracts/Errors.sol\":222:226  _i>1 */\n      gt\n        /* \"Documents/dev/Lime/contracts/Errors.sol\":218:355  if( _i>1){... */\n      iszero\n      tag_28\n      jumpi\n        /* \"Documents/dev/Lime/contracts/Errors.sol\":247:248  5 */\n      0x05\n        /* \"Documents/dev/Lime/contracts/Errors.sol\":244:246  _i */\n      dup2\n        /* \"Documents/dev/Lime/contracts/Errors.sol\":244:248  _i>5 */\n      gt\n        /* \"Documents/dev/Lime/contracts/Errors.sol\":241:345  if(_i>5){... */\n      iszero\n      tag_29\n      jumpi\n        /* \"Documents/dev/Lime/contracts/Errors.sol\":273:275  10 */\n      0x0a\n        /* \"Documents/dev/Lime/contracts/Errors.sol\":270:272  _i */\n      dup2\n        /* \"Documents/dev/Lime/contracts/Errors.sol\":270:275  _i>10 */\n      gt\n        /* \"Documents/dev/Lime/contracts/Errors.sol\":267:331  if(_i>10){... */\n      iszero\n      tag_30\n      jumpi\n        /* \"Documents/dev/Lime/contracts/Errors.sol\":298:312  revert(\"i>10\") */\n      mload(0x40)\n      0x08c379a000000000000000000000000000000000000000000000000000000000\n      dup2\n      mstore\n      0x04\n      add\n      tag_31\n      swap1\n      tag_32\n      jump\t// in\n    tag_31:\n      mload(0x40)\n      dup1\n      swap2\n      sub\n      swap1\n      revert\n        /* \"Documents/dev/Lime/contracts/Errors.sol\":267:331  if(_i>10){... */\n    tag_30:\n        /* \"Documents/dev/Lime/contracts/Errors.sol\":241:345  if(_i>5){... */\n    tag_29:\n        /* \"Documents/dev/Lime/contracts/Errors.sol\":218:355  if( _i>1){... */\n    tag_28:\n        /* \"Documents/dev/Lime/contracts/Errors.sol\":165:361  function testRevert(uint _i) external pure {... */\n      pop\n      jump\t// out\n        /* \"Documents/dev/Lime/contracts/Errors.sol\":393:460  function testAssert() public view {... */\n    tag_14:\n        /* \"Documents/dev/Lime/contracts/Errors.sol\":449:452  123 */\n      0x7b\n        /* \"Documents/dev/Lime/contracts/Errors.sol\":444:447  num */\n      sload(0x00)\n        /* \"Documents/dev/Lime/contracts/Errors.sol\":444:452  num==123 */\n      eq\n        /* \"Documents/dev/Lime/contracts/Errors.sol\":437:453  assert(num==123) */\n      tag_34\n      jumpi\n      tag_35\n      tag_36\n      jump\t// in\n    tag_35:\n    tag_34:\n        /* \"Documents/dev/Lime/contracts/Errors.sol\":393:460  function testAssert() public view {... */\n      jump\t// out\n        /* \"Documents/dev/Lime/contracts/Errors.sol\":367:387  uint public num =123 */\n    tag_16:\n      sload(0x00)\n      dup2\n      jump\t// out\n        /* \"Documents/dev/Lime/contracts/Errors.sol\":558:686  function testCustomError(uint _i) external view{... */\n    tag_21:\n        /* \"Documents/dev/Lime/contracts/Errors.sol\":623:625  10 */\n      0x0a\n        /* \"Documents/dev/Lime/contracts/Errors.sol\":619:621  _i */\n      dup2\n        /* \"Documents/dev/Lime/contracts/Errors.sol\":619:625  _i> 10 */\n      gt\n        /* \"Documents/dev/Lime/contracts/Errors.sol\":615:680  if( _i> 10){... */\n      iszero\n      tag_38\n      jumpi\n        /* \"Documents/dev/Lime/contracts/Errors.sol\":655:665  msg.sender */\n      caller\n        /* \"Documents/dev/Lime/contracts/Errors.sol\":666:668  _i */\n      dup2\n        /* \"Documents/dev/Lime/contracts/Errors.sol\":647:669  MyError(msg.sender,_i) */\n      mload(0x40)\n      0xe2399bb800000000000000000000000000000000000000000000000000000000\n      dup2\n      mstore\n      0x04\n      add\n      tag_39\n      swap3\n      swap2\n      swap1\n      tag_40\n      jump\t// in\n    tag_39:\n      mload(0x40)\n      dup1\n      swap2\n      sub\n      swap1\n      revert\n        /* \"Documents/dev/Lime/contracts/Errors.sol\":615:680  if( _i> 10){... */\n    tag_38:\n        /* \"Documents/dev/Lime/contracts/Errors.sol\":558:686  function testCustomError(uint _i) external view{... */\n      pop\n      jump\t// out\n        /* \"Documents/dev/Lime/contracts/Errors.sol\":77:160  function testRequire(uint _i) external pure {... */\n    tag_24:\n        /* \"Documents/dev/Lime/contracts/Errors.sol\":143:145  10 */\n      0x0a\n        /* \"Documents/dev/Lime/contracts/Errors.sol\":139:141  _i */\n      dup2\n        /* \"Documents/dev/Lime/contracts/Errors.sol\":139:145  _i<=10 */\n      gt\n      iszero\n        /* \"Documents/dev/Lime/contracts/Errors.sol\":131:153  require(_i<=10,\"i>10\") */\n      tag_42\n      jumpi\n      mload(0x40)\n      0x08c379a000000000000000000000000000000000000000000000000000000000\n      dup2\n      mstore\n      0x04\n      add\n      tag_43\n      swap1\n      tag_32\n      jump\t// in\n    tag_43:\n      mload(0x40)\n      dup1\n      swap2\n      sub\n      swap1\n      revert\n    tag_42:\n        /* \"Documents/dev/Lime/contracts/Errors.sol\":77:160  function testRequire(uint _i) external pure {... */\n      pop\n      jump\t// out\n        /* \"Documents/dev/Lime/contracts/Errors.sol\":466:510  function foo() public{... */\n    tag_26:\n        /* \"Documents/dev/Lime/contracts/Errors.sol\":502:503  1 */\n      0x01\n        /* \"Documents/dev/Lime/contracts/Errors.sol\":497:500  num */\n      0x00\n      dup1\n        /* \"Documents/dev/Lime/contracts/Errors.sol\":497:503  num+=1 */\n      dup3\n      dup3\n      sload\n      tag_45\n      swap2\n      swap1\n      tag_46\n      jump\t// in\n    tag_45:\n      swap3\n      pop\n      pop\n      dup2\n      swap1\n      sstore\n      pop\n        /* \"Documents/dev/Lime/contracts/Errors.sol\":466:510  function foo() public{... */\n      jump\t// out\n        /* \"#utility.yul\":7:146   */\n    tag_48:\n        /* \"#utility.yul\":53:58   */\n      0x00\n        /* \"#utility.yul\":91:97   */\n      dup2\n        /* \"#utility.yul\":78:98   */\n      calldataload\n        /* \"#utility.yul\":69:98   */\n      swap1\n      pop\n        /* \"#utility.yul\":107:140   */\n      tag_50\n        /* \"#utility.yul\":134:139   */\n      dup2\n        /* \"#utility.yul\":107:140   */\n      tag_51\n      jump\t// in\n    tag_50:\n        /* \"#utility.yul\":7:146   */\n      swap3\n      swap2\n      pop\n      pop\n      jump\t// out\n        /* \"#utility.yul\":152:481   */\n    tag_11:\n        /* \"#utility.yul\":211:217   */\n      0x00\n        /* \"#utility.yul\":260:262   */\n      0x20\n        /* \"#utility.yul\":248:257   */\n      dup3\n        /* \"#utility.yul\":239:246   */\n      dup5\n        /* \"#utility.yul\":235:258   */\n      sub\n        /* \"#utility.yul\":231:263   */\n      slt\n        /* \"#utility.yul\":228:347   */\n      iszero\n      tag_53\n      jumpi\n        /* \"#utility.yul\":266:345   */\n      tag_54\n      tag_55\n      jump\t// in\n    tag_54:\n        /* \"#utility.yul\":228:347   */\n    tag_53:\n        /* \"#utility.yul\":386:387   */\n      0x00\n        /* \"#utility.yul\":411:464   */\n      tag_56\n        /* \"#utility.yul\":456:463   */\n      dup5\n        /* \"#utility.yul\":447:453   */\n      dup3\n        /* \"#utility.yul\":436:445   */\n      dup6\n        /* \"#utility.yul\":432:454   */\n      add\n        /* \"#utility.yul\":411:464   */\n      tag_48\n      jump\t// in\n    tag_56:\n        /* \"#utility.yul\":401:464   */\n      swap2\n      pop\n        /* \"#utility.yul\":357:474   */\n      pop\n        /* \"#utility.yul\":152:481   */\n      swap3\n      swap2\n      pop\n      pop\n      jump\t// out\n        /* \"#utility.yul\":487:605   */\n    tag_57:\n        /* \"#utility.yul\":574:598   */\n      tag_59\n        /* \"#utility.yul\":592:597   */\n      dup2\n        /* \"#utility.yul\":574:598   */\n      tag_60\n      jump\t// in\n    tag_59:\n        /* \"#utility.yul\":569:572   */\n      dup3\n        /* \"#utility.yul\":562:599   */\n      mstore\n        /* \"#utility.yul\":487:605   */\n      pop\n      pop\n      jump\t// out\n        /* \"#utility.yul\":611:976   */\n    tag_61:\n        /* \"#utility.yul\":753:756   */\n      0x00\n        /* \"#utility.yul\":774:840   */\n      tag_63\n        /* \"#utility.yul\":838:839   */\n      0x04\n        /* \"#utility.yul\":833:836   */\n      dup4\n        /* \"#utility.yul\":774:840   */\n      tag_64\n      jump\t// in\n    tag_63:\n        /* \"#utility.yul\":767:840   */\n      swap2\n      pop\n        /* \"#utility.yul\":849:942   */\n      tag_65\n        /* \"#utility.yul\":938:941   */\n      dup3\n        /* \"#utility.yul\":849:942   */\n      tag_66\n      jump\t// in\n    tag_65:\n        /* \"#utility.yul\":967:969   */\n      0x20\n        /* \"#utility.yul\":962:965   */\n      dup3\n        /* \"#utility.yul\":958:970   */\n      add\n        /* \"#utility.yul\":951:970   */\n      swap1\n      pop\n        /* \"#utility.yul\":611:976   */\n      swap2\n      swap1\n      pop\n      jump\t// out\n        /* \"#utility.yul\":982:1100   */\n    tag_67:\n        /* \"#utility.yul\":1069:1093   */\n      tag_69\n        /* \"#utility.yul\":1087:1092   */\n      dup2\n        /* \"#utility.yul\":1069:1093   */\n      tag_70\n      jump\t// in\n    tag_69:\n        /* \"#utility.yul\":1064:1067   */\n      dup3\n        /* \"#utility.yul\":1057:1094   */\n      mstore\n        /* \"#utility.yul\":982:1100   */\n      pop\n      pop\n      jump\t// out\n        /* \"#utility.yul\":1106:1438   */\n    tag_40:\n        /* \"#utility.yul\":1227:1231   */\n      0x00\n        /* \"#utility.yul\":1265:1267   */\n      0x40\n        /* \"#utility.yul\":1254:1263   */\n      dup3\n        /* \"#utility.yul\":1250:1268   */\n      add\n        /* \"#utility.yul\":1242:1268   */\n      swap1\n      pop\n        /* \"#utility.yul\":1278:1349   */\n      tag_72\n        /* \"#utility.yul\":1346:1347   */\n      0x00\n        /* \"#utility.yul\":1335:1344   */\n      dup4\n        /* \"#utility.yul\":1331:1348   */\n      add\n        /* \"#utility.yul\":1322:1328   */\n      dup6\n        /* \"#utility.yul\":1278:1349   */\n      tag_57\n      jump\t// in\n    tag_72:\n        /* \"#utility.yul\":1359:1431   */\n      tag_73\n        /* \"#utility.yul\":1427:1429   */\n      0x20\n        /* \"#utility.yul\":1416:1425   */\n      dup4\n        /* \"#utility.yul\":1412:1430   */\n      add\n        /* \"#utility.yul\":1403:1409   */\n      dup5\n        /* \"#utility.yul\":1359:1431   */\n      tag_67\n      jump\t// in\n    tag_73:\n        /* \"#utility.yul\":1106:1438   */\n      swap4\n      swap3\n      pop\n      pop\n      pop\n      jump\t// out\n        /* \"#utility.yul\":1444:1863   */\n    tag_32:\n        /* \"#utility.yul\":1610:1614   */\n      0x00\n        /* \"#utility.yul\":1648:1650   */\n      0x20\n        /* \"#utility.yul\":1637:1646   */\n      dup3\n        /* \"#utility.yul\":1633:1651   */\n      add\n        /* \"#utility.yul\":1625:1651   */\n      swap1\n      pop\n        /* \"#utility.yul\":1697:1706   */\n      dup2\n        /* \"#utility.yul\":1691:1695   */\n      dup2\n        /* \"#utility.yul\":1687:1707   */\n      sub\n        /* \"#utility.yul\":1683:1684   */\n      0x00\n        /* \"#utility.yul\":1672:1681   */\n      dup4\n        /* \"#utility.yul\":1668:1685   */\n      add\n        /* \"#utility.yul\":1661:1708   */\n      mstore\n        /* \"#utility.yul\":1725:1856   */\n      tag_75\n        /* \"#utility.yul\":1851:1855   */\n      dup2\n        /* \"#utility.yul\":1725:1856   */\n      tag_61\n      jump\t// in\n    tag_75:\n        /* \"#utility.yul\":1717:1856   */\n      swap1\n      pop\n        /* \"#utility.yul\":1444:1863   */\n      swap2\n      swap1\n      pop\n      jump\t// out\n        /* \"#utility.yul\":1869:2091   */\n    tag_18:\n        /* \"#utility.yul\":1962:1966   */\n      0x00\n        /* \"#utility.yul\":2000:2002   */\n      0x20\n        /* \"#utility.yul\":1989:1998   */\n      dup3\n        /* \"#utility.yul\":1985:2003   */\n      add\n        /* \"#utility.yul\":1977:2003   */\n      swap1\n      pop\n        /* \"#utility.yul\":2013:2084   */\n      tag_77\n        /* \"#utility.yul\":2081:2082   */\n      0x00\n        /* \"#utility.yul\":2070:2079   */\n      dup4\n        /* \"#utility.yul\":2066:2083   */\n      add\n        /* \"#utility.yul\":2057:2063   */\n      dup5\n        /* \"#utility.yul\":2013:2084   */\n      tag_67\n      jump\t// in\n    tag_77:\n        /* \"#utility.yul\":1869:2091   */\n      swap3\n      swap2\n      pop\n      pop\n      jump\t// out\n        /* \"#utility.yul\":2178:2347   */\n    tag_64:\n        /* \"#utility.yul\":2262:2273   */\n      0x00\n        /* \"#utility.yul\":2296:2302   */\n      dup3\n        /* \"#utility.yul\":2291:2294   */\n      dup3\n        /* \"#utility.yul\":2284:2303   */\n      mstore\n        /* \"#utility.yul\":2336:2340   */\n      0x20\n        /* \"#utility.yul\":2331:2334   */\n      dup3\n        /* \"#utility.yul\":2327:2341   */\n      add\n        /* \"#utility.yul\":2312:2341   */\n      swap1\n      pop\n        /* \"#utility.yul\":2178:2347   */\n      swap3\n      swap2\n      pop\n      pop\n      jump\t// out\n        /* \"#utility.yul\":2353:2658   */\n    tag_46:\n        /* \"#utility.yul\":2393:2396   */\n      0x00\n        /* \"#utility.yul\":2412:2432   */\n      tag_82\n        /* \"#utility.yul\":2430:2431   */\n      dup3\n        /* \"#utility.yul\":2412:2432   */\n      tag_70\n      jump\t// in\n    tag_82:\n        /* \"#utility.yul\":2407:2432   */\n      swap2\n      pop\n        /* \"#utility.yul\":2446:2466   */\n      tag_83\n        /* \"#utility.yul\":2464:2465   */\n      dup4\n        /* \"#utility.yul\":2446:2466   */\n      tag_70\n      jump\t// in\n    tag_83:\n        /* \"#utility.yul\":2441:2466   */\n      swap3\n      pop\n        /* \"#utility.yul\":2600:2601   */\n      dup3\n        /* \"#utility.yul\":2532:2598   */\n      0xffffffffffffffffffffffffffffffffffffffffffffffffffffffffffffffff\n        /* \"#utility.yul\":2528:2602   */\n      sub\n        /* \"#utility.yul\":2525:2526   */\n      dup3\n        /* \"#utility.yul\":2522:2603   */\n      gt\n        /* \"#utility.yul\":2519:2626   */\n      iszero\n      tag_84\n      jumpi\n        /* \"#utility.yul\":2606:2624   */\n      tag_85\n      tag_86\n      jump\t// in\n    tag_85:\n        /* \"#utility.yul\":2519:2626   */\n    tag_84:\n        /* \"#utility.yul\":2650:2651   */\n      dup3\n        /* \"#utility.yul\":2647:2648   */\n      dup3\n        /* \"#utility.yul\":2643:2652   */\n      add\n        /* \"#utility.yul\":2636:2652   */\n      swap1\n      pop\n        /* \"#utility.yul\":2353:2658   */\n      swap3\n      swap2\n      pop\n      pop\n      jump\t// out\n        /* \"#utility.yul\":2664:2760   */\n    tag_60:\n        /* \"#utility.yul\":2701:2708   */\n      0x00\n        /* \"#utility.yul\":2730:2754   */\n      tag_88\n        /* \"#utility.yul\":2748:2753   */\n      dup3\n        /* \"#utility.yul\":2730:2754   */\n      tag_89\n      jump\t// in\n    tag_88:\n        /* \"#utility.yul\":2719:2754   */\n      swap1\n      pop\n        /* \"#utility.yul\":2664:2760   */\n      swap2\n      swap1\n      pop\n      jump\t// out\n        /* \"#utility.yul\":2766:2892   */\n    tag_89:\n        /* \"#utility.yul\":2803:2810   */\n      0x00\n        /* \"#utility.yul\":2843:2885   */\n      0xffffffffffffffffffffffffffffffffffffffff\n        /* \"#utility.yul\":2836:2841   */\n      dup3\n        /* \"#utility.yul\":2832:2886   */\n      and\n        /* \"#utility.yul\":2821:2886   */\n      swap1\n      pop\n        /* \"#utility.yul\":2766:2892   */\n      swap2\n      swap1\n      pop\n      jump\t// out\n        /* \"#utility.yul\":2898:2975   */\n    tag_70:\n        /* \"#utility.yul\":2935:2942   */\n      0x00\n        /* \"#utility.yul\":2964:2969   */\n      dup2\n        /* \"#utility.yul\":2953:2969   */\n      swap1\n      pop\n        /* \"#utility.yul\":2898:2975   */\n      swap2\n      swap1\n      pop\n      jump\t// out\n        /* \"#utility.yul\":2981:3161   */\n    tag_36:\n        /* \"#utility.yul\":3029:3106   */\n      0x4e487b7100000000000000000000000000000000000000000000000000000000\n        /* \"#utility.yul\":3026:3027   */\n      0x00\n        /* \"#utility.yul\":3019:3107   */\n      mstore\n        /* \"#utility.yul\":3126:3130   */\n      0x01\n        /* \"#utility.yul\":3123:3124   */\n      0x04\n        /* \"#utility.yul\":3116:3131   */\n      mstore\n        /* \"#utility.yul\":3150:3154   */\n      0x24\n        /* \"#utility.yul\":3147:3148   */\n      0x00\n        /* \"#utility.yul\":3140:3155   */\n      revert\n        /* \"#utility.yul\":3167:3347   */\n    tag_86:\n        /* \"#utility.yul\":3215:3292   */\n      0x4e487b7100000000000000000000000000000000000000000000000000000000\n        /* \"#utility.yul\":3212:3213   */\n      0x00\n        /* \"#utility.yul\":3205:3293   */\n      mstore\n        /* \"#utility.yul\":3312:3316   */\n      0x11\n        /* \"#utility.yul\":3309:3310   */\n      0x04\n        /* \"#utility.yul\":3302:3317   */\n      mstore\n        /* \"#utility.yul\":3336:3340   */\n      0x24\n        /* \"#utility.yul\":3333:3334   */\n      0x00\n        /* \"#utility.yul\":3326:3341   */\n      revert\n        /* \"#utility.yul\":3476:3593   */\n    tag_55:\n        /* \"#utility.yul\":3585:3586   */\n      0x00\n        /* \"#utility.yul\":3582:3583   */\n      dup1\n        /* \"#utility.yul\":3575:3587   */\n      revert\n        /* \"#utility.yul\":3599:3753   */\n    tag_66:\n        /* \"#utility.yul\":3739:3745   */\n      0x693e313000000000000000000000000000000000000000000000000000000000\n        /* \"#utility.yul\":3735:3736   */\n      0x00\n        /* \"#utility.yul\":3727:3733   */\n      dup3\n        /* \"#utility.yul\":3723:3737   */\n      add\n        /* \"#utility.yul\":3716:3746   */\n      mstore\n        /* \"#utility.yul\":3599:3753   */\n      pop\n      jump\t// out\n        /* \"#utility.yul\":3759:3881   */\n    tag_51:\n        /* \"#utility.yul\":3832:3856   */\n      tag_99\n        /* \"#utility.yul\":3850:3855   */\n      dup2\n        /* \"#utility.yul\":3832:3856   */\n      tag_70\n      jump\t// in\n    tag_99:\n        /* \"#utility.yul\":3825:3830   */\n      dup2\n        /* \"#utility.yul\":3822:3857   */\n      eq\n        /* \"#utility.yul\":3812:3875   */\n      tag_100\n      jumpi\n        /* \"#utility.yul\":3871:3872   */\n      0x00\n        /* \"#utility.yul\":3868:3869   */\n      dup1\n        /* \"#utility.yul\":3861:3873   */\n      revert\n        /* \"#utility.yul\":3812:3875   */\n    tag_100:\n        /* \"#utility.yul\":3759:3881   */\n      pop\n      jump\t// out\n\n    auxdata: 0xa26469706673582212206b2ca04bb128fb12f66f6c2d16dc961101481774b1b5ff1fc2fe59d1f7f738d064736f6c63430008070033\n}\n",
				"bytecode": {
					"linkReferences": {},
					"object": "6080604052607b60005534801561001557600080fd5b50610473806100256000396000f3fe608060405234801561001057600080fd5b50600436106100625760003560e01c806320987767146100675780632b813bc0146100835780634e70b1dc1461008d57806375f7286c146100ab578063b8bd717f146100c7578063c2985578146100e3575b600080fd5b610081600480360381019061007c9190610225565b6100ed565b005b61008b610148565b005b61009561015d565b6040516100a291906102dc565b60405180910390f35b6100c560048036038101906100c09190610225565b610163565b005b6100e160048036038101906100dc9190610225565b6101ae565b005b6100eb6101f5565b005b600181111561014557600581111561014457600a811115610143576040517f08c379a000000000000000000000000000000000000000000000000000000000815260040161013a906102bc565b60405180910390fd5b5b5b50565b607b6000541461015b5761015a61039a565b5b565b60005481565b600a8111156101ab5733816040517fe2399bb80000000000000000000000000000000000000000000000000000000081526004016101a2929190610293565b60405180910390fd5b50565b600a8111156101f2576040517f08c379a00000000000000000000000000000000000000000000000000000000081526004016101e9906102bc565b60405180910390fd5b50565b60016000808282546102079190610308565b92505081905550565b60008135905061021f81610426565b92915050565b60006020828403121561023b5761023a6103f8565b5b600061024984828501610210565b91505092915050565b61025b8161035e565b82525050565b600061026e6004836102f7565b9150610279826103fd565b602082019050919050565b61028d81610390565b82525050565b60006040820190506102a86000830185610252565b6102b56020830184610284565b9392505050565b600060208201905081810360008301526102d581610261565b9050919050565b60006020820190506102f16000830184610284565b92915050565b600082825260208201905092915050565b600061031382610390565b915061031e83610390565b9250827fffffffffffffffffffffffffffffffffffffffffffffffffffffffffffffffff03821115610353576103526103c9565b5b828201905092915050565b600061036982610370565b9050919050565b600073ffffffffffffffffffffffffffffffffffffffff82169050919050565b6000819050919050565b7f4e487b7100000000000000000000000000000000000000000000000000000000600052600160045260246000fd5b7f4e487b7100000000000000000000000000000000000000000000000000000000600052601160045260246000fd5b600080fd5b7f693e313000000000000000000000000000000000000000000000000000000000600082015250565b61042f81610390565b811461043a57600080fd5b5056fea26469706673582212206b2ca04bb128fb12f66f6c2d16dc961101481774b1b5ff1fc2fe59d1f7f738d064736f6c63430008070033",
					"opcodes": "PUSH1 0x80 PUSH1 0x40 MSTORE PUSH1 0x7B PUSH1 0x0 SSTORE CALLVALUE DUP1 ISZERO PUSH2 0x15 JUMPI PUSH1 0x0 DUP1 REVERT JUMPDEST POP PUSH2 0x473 DUP1 PUSH2 0x25 PUSH1 0x0 CODECOPY PUSH1 0x0 RETURN INVALID PUSH1 0x80 PUSH1 0x40 MSTORE CALLVALUE DUP1 ISZERO PUSH2 0x10 JUMPI PUSH1 0x0 DUP1 REVERT JUMPDEST POP PUSH1 0x4 CALLDATASIZE LT PUSH2 0x62 JUMPI PUSH1 0x0 CALLDATALOAD PUSH1 0xE0 SHR DUP1 PUSH4 0x20987767 EQ PUSH2 0x67 JUMPI DUP1 PUSH4 0x2B813BC0 EQ PUSH2 0x83 JUMPI DUP1 PUSH4 0x4E70B1DC EQ PUSH2 0x8D JUMPI DUP1 PUSH4 0x75F7286C EQ PUSH2 0xAB JUMPI DUP1 PUSH4 0xB8BD717F EQ PUSH2 0xC7 JUMPI DUP1 PUSH4 0xC2985578 EQ PUSH2 0xE3 JUMPI JUMPDEST PUSH1 0x0 DUP1 REVERT JUMPDEST PUSH2 0x81 PUSH1 0x4 DUP1 CALLDATASIZE SUB DUP2 ADD SWAP1 PUSH2 0x7C SWAP2 SWAP1 PUSH2 0x225 JUMP JUMPDEST PUSH2 0xED JUMP JUMPDEST STOP JUMPDEST PUSH2 0x8B PUSH2 0x148 JUMP JUMPDEST STOP JUMPDEST PUSH2 0x95 PUSH2 0x15D JUMP JUMPDEST PUSH1 0x40 MLOAD PUSH2 0xA2 SWAP2 SWAP1 PUSH2 0x2DC JUMP JUMPDEST PUSH1 0x40 MLOAD DUP1 SWAP2 SUB SWAP1 RETURN JUMPDEST PUSH2 0xC5 PUSH1 0x4 DUP1 CALLDATASIZE SUB DUP2 ADD SWAP1 PUSH2 0xC0 SWAP2 SWAP1 PUSH2 0x225 JUMP JUMPDEST PUSH2 0x163 JUMP JUMPDEST STOP JUMPDEST PUSH2 0xE1 PUSH1 0x4 DUP1 CALLDATASIZE SUB DUP2 ADD SWAP1 PUSH2 0xDC SWAP2 SWAP1 PUSH2 0x225 JUMP JUMPDEST PUSH2 0x1AE JUMP JUMPDEST STOP JUMPDEST PUSH2 0xEB PUSH2 0x1F5 JUMP JUMPDEST STOP JUMPDEST PUSH1 0x1 DUP2 GT ISZERO PUSH2 0x145 JUMPI PUSH1 0x5 DUP2 GT ISZERO PUSH2 0x144 JUMPI PUSH1 0xA DUP2 GT ISZERO PUSH2 0x143 JUMPI PUSH1 0x40 MLOAD PUSH32 0x8C379A000000000000000000000000000000000000000000000000000000000 DUP2 MSTORE PUSH1 0x4 ADD PUSH2 0x13A SWAP1 PUSH2 0x2BC JUMP JUMPDEST PUSH1 0x40 MLOAD DUP1 SWAP2 SUB SWAP1 REVERT JUMPDEST JUMPDEST JUMPDEST POP JUMP JUMPDEST PUSH1 0x7B PUSH1 0x0 SLOAD EQ PUSH2 0x15B JUMPI PUSH2 0x15A PUSH2 0x39A JUMP JUMPDEST JUMPDEST JUMP JUMPDEST PUSH1 0x0 SLOAD DUP2 JUMP JUMPDEST PUSH1 0xA DUP2 GT ISZERO PUSH2 0x1AB JUMPI CALLER DUP2 PUSH1 0x40 MLOAD PUSH32 0xE2399BB800000000000000000000000000000000000000000000000000000000 DUP2 MSTORE PUSH1 0x4 ADD PUSH2 0x1A2 SWAP3 SWAP2 SWAP1 PUSH2 0x293 JUMP JUMPDEST PUSH1 0x40 MLOAD DUP1 SWAP2 SUB SWAP1 REVERT JUMPDEST POP JUMP JUMPDEST PUSH1 0xA DUP2 GT ISZERO PUSH2 0x1F2 JUMPI PUSH1 0x40 MLOAD PUSH32 0x8C379A000000000000000000000000000000000000000000000000000000000 DUP2 MSTORE PUSH1 0x4 ADD PUSH2 0x1E9 SWAP1 PUSH2 0x2BC JUMP JUMPDEST PUSH1 0x40 MLOAD DUP1 SWAP2 SUB SWAP1 REVERT JUMPDEST POP JUMP JUMPDEST PUSH1 0x1 PUSH1 0x0 DUP1 DUP3 DUP3 SLOAD PUSH2 0x207 SWAP2 SWAP1 PUSH2 0x308 JUMP JUMPDEST SWAP3 POP POP DUP2 SWAP1 SSTORE POP JUMP JUMPDEST PUSH1 0x0 DUP2 CALLDATALOAD SWAP1 POP PUSH2 0x21F DUP2 PUSH2 0x426 JUMP JUMPDEST SWAP3 SWAP2 POP POP JUMP JUMPDEST PUSH1 0x0 PUSH1 0x20 DUP3 DUP5 SUB SLT ISZERO PUSH2 0x23B JUMPI PUSH2 0x23A PUSH2 0x3F8 JUMP JUMPDEST JUMPDEST PUSH1 0x0 PUSH2 0x249 DUP5 DUP3 DUP6 ADD PUSH2 0x210 JUMP JUMPDEST SWAP2 POP POP SWAP3 SWAP2 POP POP JUMP JUMPDEST PUSH2 0x25B DUP2 PUSH2 0x35E JUMP JUMPDEST DUP3 MSTORE POP POP JUMP JUMPDEST PUSH1 0x0 PUSH2 0x26E PUSH1 0x4 DUP4 PUSH2 0x2F7 JUMP JUMPDEST SWAP2 POP PUSH2 0x279 DUP3 PUSH2 0x3FD JUMP JUMPDEST PUSH1 0x20 DUP3 ADD SWAP1 POP SWAP2 SWAP1 POP JUMP JUMPDEST PUSH2 0x28D DUP2 PUSH2 0x390 JUMP JUMPDEST DUP3 MSTORE POP POP JUMP JUMPDEST PUSH1 0x0 PUSH1 0x40 DUP3 ADD SWAP1 POP PUSH2 0x2A8 PUSH1 0x0 DUP4 ADD DUP6 PUSH2 0x252 JUMP JUMPDEST PUSH2 0x2B5 PUSH1 0x20 DUP4 ADD DUP5 PUSH2 0x284 JUMP JUMPDEST SWAP4 SWAP3 POP POP POP JUMP JUMPDEST PUSH1 0x0 PUSH1 0x20 DUP3 ADD SWAP1 POP DUP2 DUP2 SUB PUSH1 0x0 DUP4 ADD MSTORE PUSH2 0x2D5 DUP2 PUSH2 0x261 JUMP JUMPDEST SWAP1 POP SWAP2 SWAP1 POP JUMP JUMPDEST PUSH1 0x0 PUSH1 0x20 DUP3 ADD SWAP1 POP PUSH2 0x2F1 PUSH1 0x0 DUP4 ADD DUP5 PUSH2 0x284 JUMP JUMPDEST SWAP3 SWAP2 POP POP JUMP JUMPDEST PUSH1 0x0 DUP3 DUP3 MSTORE PUSH1 0x20 DUP3 ADD SWAP1 POP SWAP3 SWAP2 POP POP JUMP JUMPDEST PUSH1 0x0 PUSH2 0x313 DUP3 PUSH2 0x390 JUMP JUMPDEST SWAP2 POP PUSH2 0x31E DUP4 PUSH2 0x390 JUMP JUMPDEST SWAP3 POP DUP3 PUSH32 0xFFFFFFFFFFFFFFFFFFFFFFFFFFFFFFFFFFFFFFFFFFFFFFFFFFFFFFFFFFFFFFFF SUB DUP3 GT ISZERO PUSH2 0x353 JUMPI PUSH2 0x352 PUSH2 0x3C9 JUMP JUMPDEST JUMPDEST DUP3 DUP3 ADD SWAP1 POP SWAP3 SWAP2 POP POP JUMP JUMPDEST PUSH1 0x0 PUSH2 0x369 DUP3 PUSH2 0x370 JUMP JUMPDEST SWAP1 POP SWAP2 SWAP1 POP JUMP JUMPDEST PUSH1 0x0 PUSH20 0xFFFFFFFFFFFFFFFFFFFFFFFFFFFFFFFFFFFFFFFF DUP3 AND SWAP1 POP SWAP2 SWAP1 POP JUMP JUMPDEST PUSH1 0x0 DUP2 SWAP1 POP SWAP2 SWAP1 POP JUMP JUMPDEST PUSH32 0x4E487B7100000000000000000000000000000000000000000000000000000000 PUSH1 0x0 MSTORE PUSH1 0x1 PUSH1 0x4 MSTORE PUSH1 0x24 PUSH1 0x0 REVERT JUMPDEST PUSH32 0x4E487B7100000000000000000000000000000000000000000000000000000000 PUSH1 0x0 MSTORE PUSH1 0x11 PUSH1 0x4 MSTORE PUSH1 0x24 PUSH1 0x0 REVERT JUMPDEST PUSH1 0x0 DUP1 REVERT JUMPDEST PUSH32 0x693E313000000000000000000000000000000000000000000000000000000000 PUSH1 0x0 DUP3 ADD MSTORE POP JUMP JUMPDEST PUSH2 0x42F DUP2 PUSH2 0x390 JUMP JUMPDEST DUP2 EQ PUSH2 0x43A JUMPI PUSH1 0x0 DUP1 REVERT JUMPDEST POP JUMP INVALID LOG2 PUSH5 0x6970667358 0x22 SLT KECCAK256 PUSH12 0x2CA04BB128FB12F66F6C2D16 0xDC SWAP7 GT ADD BASEFEE OR PUSH21 0xB1B5FF1FC2FE59D1F7F738D064736F6C6343000807 STOP CALLER "
				},
				"gasEstimates": {
					"creation": {
						"codeDepositCost": "227800",
						"executionCost": "22375",
						"totalCost": "250175"
					},
					"external": {
						"foo()": "infinite",
						"num()": "2451",
						"testAssert()": "2296",
						"testCustomError(uint256)": "infinite",
						"testRequire(uint256)": "785",
						"testRevert(uint256)": "747"
					}
				},
				"methodIdentifiers": {
					"foo()": "c2985578",
					"num()": "4e70b1dc",
					"testAssert()": "2b813bc0",
					"testCustomError(uint256)": "75f7286c",
					"testRequire(uint256)": "b8bd717f",
					"testRevert(uint256)": "20987767"
				}
			},
			"storageLayout": {
				"storage": [
					{
						"astId": 42,
						"contract": "Documents/dev/Lime/contracts/Errors.sol:Errors",
						"label": "num",
						"offset": 0,
						"slot": "0",
						"type": "t_uint256"
					}
				],
				"types": {
					"t_uint256": {
						"encoding": "inplace",
						"label": "uint256",
						"numberOfBytes": "32"
					}
				}
			},
			"userdoc": {
				"kind": "user",
				"methods": {},
				"version": 1
			}
		}
	}
}