{
	"CrowdFund.sol": {
		"CrowdFund": {
			"abi": [
				{
					"inputs": [
						{
							"internalType": "address",
							"name": "_tk",
							"type": "address"
						}
					],
					"stateMutability": "nonpayable",
					"type": "constructor"
				},
				{
					"inputs": [
						{
							"internalType": "uint256",
							"name": "_id",
							"type": "uint256"
						}
					],
					"name": "cancel",
					"outputs": [],
					"stateMutability": "nonpayable",
					"type": "function"
				},
				{
					"inputs": [
						{
							"internalType": "uint256",
							"name": "_id",
							"type": "uint256"
						}
					],
					"name": "claim",
					"outputs": [],
					"stateMutability": "nonpayable",
					"type": "function"
				},
				{
					"inputs": [
						{
							"internalType": "uint256",
							"name": "_goal",
							"type": "uint256"
						},
						{
							"internalType": "uint32",
							"name": "_startAt",
							"type": "uint32"
						},
						{
							"internalType": "uint32",
							"name": "_endAt",
							"type": "uint32"
						}
					],
					"name": "launch",
					"outputs": [],
					"stateMutability": "nonpayable",
					"type": "function"
				},
				{
					"inputs": [
						{
							"internalType": "uint256",
							"name": "_id",
							"type": "uint256"
						},
						{
							"internalType": "uint256",
							"name": "_amount",
							"type": "uint256"
						}
					],
					"name": "pledge",
					"outputs": [],
					"stateMutability": "nonpayable",
					"type": "function"
				},
				{
					"inputs": [
						{
							"internalType": "uint256",
							"name": "_id",
							"type": "uint256"
						}
					],
					"name": "refund",
					"outputs": [],
					"stateMutability": "nonpayable",
					"type": "function"
				},
				{
					"inputs": [],
					"name": "token",
					"outputs": [
						{
							"internalType": "contract IERC20",
							"name": "",
							"type": "address"
						}
					],
					"stateMutability": "view",
					"type": "function"
				},
				{
					"inputs": [
						{
							"internalType": "uint256",
							"name": "_id",
							"type": "uint256"
						},
						{
							"internalType": "uint256",
							"name": "_amount",
							"type": "uint256"
						}
					],
					"name": "unpledge",
					"outputs": [],
					"stateMutability": "nonpayable",
					"type": "function"
				}
			],
			"devdoc": {
				"kind": "dev",
				"methods": {},
				"version": 1
			},
			"evm": {
				"assembly": "    /* \"CrowdFund.sol\":80:2688  contract CrowdFund{... */\n  mstore(0x40, 0xa0)\n    /* \"CrowdFund.sol\":423:483  constructor(address _tk){... */\n  callvalue\n  dup1\n  iszero\n  tag_1\n  jumpi\n  0x00\n  dup1\n  revert\ntag_1:\n  pop\n  mload(0x40)\n  sub(codesize, bytecodeSize)\n  dup1\n  bytecodeSize\n  dup4\n  codecopy\n  dup2\n  dup2\n  add\n  0x40\n  mstore\n  dup2\n  add\n  swap1\n  tag_2\n  swap2\n  swap1\n  tag_3\n  jump\t// in\ntag_2:\n    /* \"CrowdFund.sol\":472:475  _tk */\n  dup1\n    /* \"CrowdFund.sol\":457:476  token = IERC20(_tk) */\n  0xffffffffffffffffffffffffffffffffffffffff\n  and\n  0x80\n  dup2\n  0xffffffffffffffffffffffffffffffffffffffff\n  and\n  dup2\n  mstore\n  pop\n  pop\n    /* \"CrowdFund.sol\":423:483  constructor(address _tk){... */\n  pop\n    /* \"CrowdFund.sol\":80:2688  contract CrowdFund{... */\n  jump(tag_6)\n    /* \"#utility.yul\":88:205   */\ntag_8:\n    /* \"#utility.yul\":197:198   */\n  0x00\n    /* \"#utility.yul\":194:195   */\n  dup1\n    /* \"#utility.yul\":187:199   */\n  revert\n    /* \"#utility.yul\":334:460   */\ntag_10:\n    /* \"#utility.yul\":371:378   */\n  0x00\n    /* \"#utility.yul\":411:453   */\n  0xffffffffffffffffffffffffffffffffffffffff\n    /* \"#utility.yul\":404:409   */\n  dup3\n    /* \"#utility.yul\":400:454   */\n  and\n    /* \"#utility.yul\":389:454   */\n  swap1\n  pop\n    /* \"#utility.yul\":334:460   */\n  swap2\n  swap1\n  pop\n  jump\t// out\n    /* \"#utility.yul\":466:562   */\ntag_11:\n    /* \"#utility.yul\":503:510   */\n  0x00\n    /* \"#utility.yul\":532:556   */\n  tag_20\n    /* \"#utility.yul\":550:555   */\n  dup3\n    /* \"#utility.yul\":532:556   */\n  tag_10\n  jump\t// in\ntag_20:\n    /* \"#utility.yul\":521:556   */\n  swap1\n  pop\n    /* \"#utility.yul\":466:562   */\n  swap2\n  swap1\n  pop\n  jump\t// out\n    /* \"#utility.yul\":568:690   */\ntag_12:\n    /* \"#utility.yul\":641:665   */\n  tag_22\n    /* \"#utility.yul\":659:664   */\n  dup2\n    /* \"#utility.yul\":641:665   */\n  tag_11\n  jump\t// in\ntag_22:\n    /* \"#utility.yul\":634:639   */\n  dup2\n    /* \"#utility.yul\":631:666   */\n  eq\n    /* \"#utility.yul\":621:684   */\n  tag_23\n  jumpi\n    /* \"#utility.yul\":680:681   */\n  0x00\n    /* \"#utility.yul\":677:678   */\n  dup1\n    /* \"#utility.yul\":670:682   */\n  revert\n    /* \"#utility.yul\":621:684   */\ntag_23:\n    /* \"#utility.yul\":568:690   */\n  pop\n  jump\t// out\n    /* \"#utility.yul\":696:839   */\ntag_13:\n    /* \"#utility.yul\":753:758   */\n  0x00\n    /* \"#utility.yul\":784:790   */\n  dup2\n    /* \"#utility.yul\":778:791   */\n  mload\n    /* \"#utility.yul\":769:791   */\n  swap1\n  pop\n    /* \"#utility.yul\":800:833   */\n  tag_25\n    /* \"#utility.yul\":827:832   */\n  dup2\n    /* \"#utility.yul\":800:833   */\n  tag_12\n  jump\t// in\ntag_25:\n    /* \"#utility.yul\":696:839   */\n  swap3\n  swap2\n  pop\n  pop\n  jump\t// out\n    /* \"#utility.yul\":845:1196   */\ntag_3:\n    /* \"#utility.yul\":915:921   */\n  0x00\n    /* \"#utility.yul\":964:966   */\n  0x20\n    /* \"#utility.yul\":952:961   */\n  dup3\n    /* \"#utility.yul\":943:950   */\n  dup5\n    /* \"#utility.yul\":939:962   */\n  sub\n    /* \"#utility.yul\":935:967   */\n  slt\n    /* \"#utility.yul\":932:1051   */\n  iszero\n  tag_27\n  jumpi\n    /* \"#utility.yul\":970:1049   */\n  tag_28\n  tag_8\n  jump\t// in\ntag_28:\n    /* \"#utility.yul\":932:1051   */\ntag_27:\n    /* \"#utility.yul\":1090:1091   */\n  0x00\n    /* \"#utility.yul\":1115:1179   */\n  tag_29\n    /* \"#utility.yul\":1171:1178   */\n  dup5\n    /* \"#utility.yul\":1162:1168   */\n  dup3\n    /* \"#utility.yul\":1151:1160   */\n  dup6\n    /* \"#utility.yul\":1147:1169   */\n  add\n    /* \"#utility.yul\":1115:1179   */\n  tag_13\n  jump\t// in\ntag_29:\n    /* \"#utility.yul\":1105:1179   */\n  swap2\n  pop\n    /* \"#utility.yul\":1061:1189   */\n  pop\n    /* \"#utility.yul\":845:1196   */\n  swap3\n  swap2\n  pop\n  pop\n  jump\t// out\n    /* \"CrowdFund.sol\":80:2688  contract CrowdFund{... */\ntag_6:\n  mload(0x80)\n  codecopy(0x00, dataOffset(sub_0), dataSize(sub_0))\n  0x00\n  assignImmutable(\"0x731dc163f73d31d8c68f9917ce4ff967753939f70432973c04fd2c2a48148607\")\n  return(0x00, dataSize(sub_0))\nstop\n\nsub_0: assembly {\n        /* \"CrowdFund.sol\":80:2688  contract CrowdFund{... */\n      mstore(0x40, 0x80)\n      callvalue\n      dup1\n      iszero\n      tag_1\n      jumpi\n      0x00\n      dup1\n      revert\n    tag_1:\n      pop\n      jumpi(tag_2, lt(calldatasize, 0x04))\n      shr(0xe0, calldataload(0x00))\n      dup1\n      0x40e58ee5\n      gt\n      tag_10\n      jumpi\n      dup1\n      0x40e58ee5\n      eq\n      tag_6\n      jumpi\n      dup1\n      0x711853ab\n      eq\n      tag_7\n      jumpi\n      dup1\n      0xfc0c546a\n      eq\n      tag_8\n      jumpi\n      dup1\n      0xfde327be\n      eq\n      tag_9\n      jumpi\n      jump(tag_2)\n    tag_10:\n      dup1\n      0x278ecde1\n      eq\n      tag_3\n      jumpi\n      dup1\n      0x2c63f146\n      eq\n      tag_4\n      jumpi\n      dup1\n      0x379607f5\n      eq\n      tag_5\n      jumpi\n    tag_2:\n      0x00\n      dup1\n      revert\n        /* \"CrowdFund.sol\":2272:2683  function refund(uint _id) external {... */\n    tag_3:\n      tag_11\n      0x04\n      dup1\n      calldatasize\n      sub\n      dup2\n      add\n      swap1\n      tag_12\n      swap2\n      swap1\n      tag_13\n      jump\t// in\n    tag_12:\n      tag_14\n      jump\t// in\n    tag_11:\n      stop\n        /* \"CrowdFund.sol\":489:923  function launch(uint _goal, uint32 _startAt, uint32 _endAt) external {... */\n    tag_4:\n      tag_15\n      0x04\n      dup1\n      calldatasize\n      sub\n      dup2\n      add\n      swap1\n      tag_16\n      swap2\n      swap1\n      tag_17\n      jump\t// in\n    tag_16:\n      tag_18\n      jump\t// in\n    tag_15:\n      stop\n        /* \"CrowdFund.sol\":1855:2266  function claim(uint _id) external {... */\n    tag_5:\n      tag_19\n      0x04\n      dup1\n      calldatasize\n      sub\n      dup2\n      add\n      swap1\n      tag_20\n      swap2\n      swap1\n      tag_13\n      jump\t// in\n    tag_20:\n      tag_21\n      jump\t// in\n    tag_19:\n      stop\n        /* \"CrowdFund.sol\":929:1152  function cancel(uint _id) external{... */\n    tag_6:\n      tag_22\n      0x04\n      dup1\n      calldatasize\n      sub\n      dup2\n      add\n      swap1\n      tag_23\n      swap2\n      swap1\n      tag_13\n      jump\t// in\n    tag_23:\n      tag_24\n      jump\t// in\n    tag_22:\n      stop\n        /* \"CrowdFund.sol\":1515:1849  function unpledge(uint _id, uint _amount) external{... */\n    tag_7:\n      tag_25\n      0x04\n      dup1\n      calldatasize\n      sub\n      dup2\n      add\n      swap1\n      tag_26\n      swap2\n      swap1\n      tag_27\n      jump\t// in\n    tag_26:\n      tag_28\n      jump\t// in\n    tag_25:\n      stop\n        /* \"CrowdFund.sol\":284:313  IERC20 public immutable token */\n    tag_8:\n      tag_29\n      tag_30\n      jump\t// in\n    tag_29:\n      mload(0x40)\n      tag_31\n      swap2\n      swap1\n      tag_32\n      jump\t// in\n    tag_31:\n      mload(0x40)\n      dup1\n      swap2\n      sub\n      swap1\n      return\n        /* \"CrowdFund.sol\":1158:1509  function pledge(uint _id, uint _amount) external{... */\n    tag_9:\n      tag_33\n      0x04\n      dup1\n      calldatasize\n      sub\n      dup2\n      add\n      swap1\n      tag_34\n      swap2\n      swap1\n      tag_27\n      jump\t// in\n    tag_34:\n      tag_35\n      jump\t// in\n    tag_33:\n      stop\n        /* \"CrowdFund.sol\":2272:2683  function refund(uint _id) external {... */\n    tag_14:\n        /* \"CrowdFund.sol\":2317:2335  Campaign storage c */\n      0x00\n        /* \"CrowdFund.sol\":2338:2347  campaigns */\n      0x01\n        /* \"CrowdFund.sol\":2338:2352  campaigns[_id] */\n      0x00\n        /* \"CrowdFund.sol\":2348:2351  _id */\n      dup4\n        /* \"CrowdFund.sol\":2338:2352  campaigns[_id] */\n      dup2\n      mstore\n      0x20\n      add\n      swap1\n      dup2\n      mstore\n      0x20\n      add\n      0x00\n      keccak256\n        /* \"CrowdFund.sol\":2317:2352  Campaign storage c = campaigns[_id] */\n      swap1\n      pop\n        /* \"CrowdFund.sol\":2386:2387  c */\n      dup1\n        /* \"CrowdFund.sol\":2386:2395  c.startAt */\n      0x03\n      add\n      0x00\n      swap1\n      sload\n      swap1\n      0x0100\n      exp\n      swap1\n      div\n      0xffffffff\n      and\n        /* \"CrowdFund.sol\":2370:2395  block.timestamp>c.startAt */\n      0xffffffff\n      and\n        /* \"CrowdFund.sol\":2370:2385  block.timestamp */\n      timestamp\n        /* \"CrowdFund.sol\":2370:2395  block.timestamp>c.startAt */\n      gt\n        /* \"CrowdFund.sol\":2362:2410  require(block.timestamp>c.startAt,\"not started\") */\n      tag_37\n      jumpi\n      mload(0x40)\n      0x08c379a000000000000000000000000000000000000000000000000000000000\n      dup2\n      mstore\n      0x04\n      add\n      tag_38\n      swap1\n      tag_39\n      jump\t// in\n    tag_38:\n      mload(0x40)\n      dup1\n      swap2\n      sub\n      swap1\n      revert\n    tag_37:\n        /* \"CrowdFund.sol\":2444:2445  c */\n      dup1\n        /* \"CrowdFund.sol\":2444:2451  c.endAt */\n      0x03\n      add\n      0x04\n      swap1\n      sload\n      swap1\n      0x0100\n      exp\n      swap1\n      div\n      0xffffffff\n      and\n        /* \"CrowdFund.sol\":2428:2451  block.timestamp>c.endAt */\n      0xffffffff\n      and\n        /* \"CrowdFund.sol\":2428:2443  block.timestamp */\n      timestamp\n        /* \"CrowdFund.sol\":2428:2451  block.timestamp>c.endAt */\n      gt\n        /* \"CrowdFund.sol\":2420:2464  require(block.timestamp>c.endAt,\"not ended\") */\n      tag_40\n      jumpi\n      mload(0x40)\n      0x08c379a000000000000000000000000000000000000000000000000000000000\n      dup2\n      mstore\n      0x04\n      add\n      tag_41\n      swap1\n      tag_42\n      jump\t// in\n    tag_41:\n      mload(0x40)\n      dup1\n      swap2\n      sub\n      swap1\n      revert\n    tag_40:\n        /* \"CrowdFund.sol\":2492:2493  c */\n      dup1\n        /* \"CrowdFund.sol\":2492:2498  c.goal */\n      0x01\n      add\n      sload\n        /* \"CrowdFund.sol\":2482:2483  c */\n      dup2\n        /* \"CrowdFund.sol\":2482:2491  c.pledged */\n      0x02\n      add\n      sload\n        /* \"CrowdFund.sol\":2482:2498  c.pledged<c.goal */\n      lt\n        /* \"CrowdFund.sol\":2474:2536  require(c.pledged<c.goal,\"its already collected, cant refund\") */\n      tag_43\n      jumpi\n      mload(0x40)\n      0x08c379a000000000000000000000000000000000000000000000000000000000\n      dup2\n      mstore\n      0x04\n      add\n      tag_44\n      swap1\n      tag_45\n      jump\t// in\n    tag_44:\n      mload(0x40)\n      dup1\n      swap2\n      sub\n      swap1\n      revert\n    tag_43:\n        /* \"CrowdFund.sol\":2547:2555  uint bal */\n      0x00\n        /* \"CrowdFund.sol\":2558:2571  pledgedAmount */\n      0x02\n        /* \"CrowdFund.sol\":2558:2576  pledgedAmount[_id] */\n      0x00\n        /* \"CrowdFund.sol\":2572:2575  _id */\n      dup5\n        /* \"CrowdFund.sol\":2558:2576  pledgedAmount[_id] */\n      dup2\n      mstore\n      0x20\n      add\n      swap1\n      dup2\n      mstore\n      0x20\n      add\n      0x00\n      keccak256\n        /* \"CrowdFund.sol\":2558:2588  pledgedAmount[_id][msg.sender] */\n      0x00\n        /* \"CrowdFund.sol\":2577:2587  msg.sender */\n      caller\n        /* \"CrowdFund.sol\":2558:2588  pledgedAmount[_id][msg.sender] */\n      0xffffffffffffffffffffffffffffffffffffffff\n      and\n      0xffffffffffffffffffffffffffffffffffffffff\n      and\n      dup2\n      mstore\n      0x20\n      add\n      swap1\n      dup2\n      mstore\n      0x20\n      add\n      0x00\n      keccak256\n      sload\n        /* \"CrowdFund.sol\":2547:2588  uint bal = pledgedAmount[_id][msg.sender] */\n      swap1\n      pop\n        /* \"CrowdFund.sol\":2631:2632  0 */\n      0x00\n        /* \"CrowdFund.sol\":2598:2611  pledgedAmount */\n      0x02\n        /* \"CrowdFund.sol\":2598:2616  pledgedAmount[_id] */\n      0x00\n        /* \"CrowdFund.sol\":2612:2615  _id */\n      dup6\n        /* \"CrowdFund.sol\":2598:2616  pledgedAmount[_id] */\n      dup2\n      mstore\n      0x20\n      add\n      swap1\n      dup2\n      mstore\n      0x20\n      add\n      0x00\n      keccak256\n        /* \"CrowdFund.sol\":2598:2628  pledgedAmount[_id][msg.sender] */\n      0x00\n        /* \"CrowdFund.sol\":2617:2627  msg.sender */\n      caller\n        /* \"CrowdFund.sol\":2598:2628  pledgedAmount[_id][msg.sender] */\n      0xffffffffffffffffffffffffffffffffffffffff\n      and\n      0xffffffffffffffffffffffffffffffffffffffff\n      and\n      dup2\n      mstore\n      0x20\n      add\n      swap1\n      dup2\n      mstore\n      0x20\n      add\n      0x00\n      keccak256\n        /* \"CrowdFund.sol\":2598:2632  pledgedAmount[_id][msg.sender] = 0 */\n      dup2\n      swap1\n      sstore\n      pop\n        /* \"CrowdFund.sol\":2643:2648  token */\n      immutable(\"0x731dc163f73d31d8c68f9917ce4ff967753939f70432973c04fd2c2a48148607\")\n        /* \"CrowdFund.sol\":2643:2657  token.transfer */\n      0xffffffffffffffffffffffffffffffffffffffff\n      and\n      0xa9059cbb\n        /* \"CrowdFund.sol\":2658:2668  msg.sender */\n      caller\n        /* \"CrowdFund.sol\":2669:2672  bal */\n      dup4\n        /* \"CrowdFund.sol\":2643:2673  token.transfer(msg.sender,bal) */\n      mload(0x40)\n      dup4\n      0xffffffff\n      and\n      0xe0\n      shl\n      dup2\n      mstore\n      0x04\n      add\n      tag_46\n      swap3\n      swap2\n      swap1\n      tag_47\n      jump\t// in\n    tag_46:\n      0x20\n      mload(0x40)\n      dup1\n      dup4\n      sub\n      dup2\n      0x00\n      dup8\n      gas\n      call\n      iszero\n      dup1\n      iszero\n      tag_49\n      jumpi\n      returndatasize\n      0x00\n      dup1\n      returndatacopy\n      revert(0x00, returndatasize)\n    tag_49:\n      pop\n      pop\n      pop\n      pop\n      mload(0x40)\n      returndatasize\n      not(0x1f)\n      0x1f\n      dup3\n      add\n      and\n      dup3\n      add\n      dup1\n      0x40\n      mstore\n      pop\n      dup2\n      add\n      swap1\n      tag_50\n      swap2\n      swap1\n      tag_51\n      jump\t// in\n    tag_50:\n      pop\n        /* \"CrowdFund.sol\":2307:2683  {... */\n      pop\n      pop\n        /* \"CrowdFund.sol\":2272:2683  function refund(uint _id) external {... */\n      pop\n      jump\t// out\n        /* \"CrowdFund.sol\":489:923  function launch(uint _goal, uint32 _startAt, uint32 _endAt) external {... */\n    tag_18:\n        /* \"CrowdFund.sol\":585:591  _endAt */\n      dup1\n        /* \"CrowdFund.sol\":576:591  _startAt<_endAt */\n      0xffffffff\n      and\n        /* \"CrowdFund.sol\":576:584  _startAt */\n      dup3\n        /* \"CrowdFund.sol\":576:591  _startAt<_endAt */\n      0xffffffff\n      and\n      lt\n        /* \"CrowdFund.sol\":568:618  require(_startAt<_endAt,\"start and end incorrect\") */\n      tag_53\n      jumpi\n      mload(0x40)\n      0x08c379a000000000000000000000000000000000000000000000000000000000\n      dup2\n      mstore\n      0x04\n      add\n      tag_54\n      swap1\n      tag_55\n      jump\t// in\n    tag_54:\n      mload(0x40)\n      dup1\n      swap2\n      sub\n      swap1\n      revert\n    tag_53:\n        /* \"CrowdFund.sol\":652:659  90 days */\n      0x76a700\n        /* \"CrowdFund.sol\":645:651  _endAt */\n      dup2\n        /* \"CrowdFund.sol\":645:659  _endAt+90 days */\n      tag_56\n      swap2\n      swap1\n      tag_57\n      jump\t// in\n    tag_56:\n        /* \"CrowdFund.sol\":636:659  _startAt<_endAt+90 days */\n      0xffffffff\n      and\n        /* \"CrowdFund.sol\":636:644  _startAt */\n      dup3\n        /* \"CrowdFund.sol\":636:659  _startAt<_endAt+90 days */\n      0xffffffff\n      and\n      lt\n        /* \"CrowdFund.sol\":628:680  require(_startAt<_endAt+90 days,\"too long campaign\") */\n      tag_58\n      jumpi\n      mload(0x40)\n      0x08c379a000000000000000000000000000000000000000000000000000000000\n      dup2\n      mstore\n      0x04\n      add\n      tag_59\n      swap1\n      tag_60\n      jump\t// in\n    tag_59:\n      mload(0x40)\n      dup1\n      swap2\n      sub\n      swap1\n      revert\n    tag_58:\n        /* \"CrowdFund.sol\":698:699  1 */\n      0x01\n        /* \"CrowdFund.sol\":691:696  count */\n      0x00\n      dup1\n        /* \"CrowdFund.sol\":691:699  count+=1 */\n      dup3\n      dup3\n      sload\n      tag_61\n      swap2\n      swap1\n      tag_62\n      jump\t// in\n    tag_61:\n      swap3\n      pop\n      pop\n      dup2\n      swap1\n      sstore\n      pop\n        /* \"CrowdFund.sol\":729:916  Campaign({... */\n      mload(0x40)\n      dup1\n      0xc0\n      add\n      0x40\n      mstore\n      dup1\n        /* \"CrowdFund.sol\":760:770  msg.sender */\n      caller\n        /* \"CrowdFund.sol\":729:916  Campaign({... */\n      0xffffffffffffffffffffffffffffffffffffffff\n      and\n      dup2\n      mstore\n      0x20\n      add\n        /* \"CrowdFund.sol\":790:795  _goal */\n      dup5\n        /* \"CrowdFund.sol\":729:916  Campaign({... */\n      dup2\n      mstore\n      0x20\n      add\n        /* \"CrowdFund.sol\":818:819  0 */\n      0x00\n        /* \"CrowdFund.sol\":729:916  Campaign({... */\n      dup2\n      mstore\n      0x20\n      add\n        /* \"CrowdFund.sol\":842:850  _startAt */\n      dup4\n        /* \"CrowdFund.sol\":729:916  Campaign({... */\n      0xffffffff\n      and\n      dup2\n      mstore\n      0x20\n      add\n        /* \"CrowdFund.sol\":871:877  _endAt */\n      dup3\n        /* \"CrowdFund.sol\":729:916  Campaign({... */\n      0xffffffff\n      and\n      dup2\n      mstore\n      0x20\n      add\n        /* \"CrowdFund.sol\":900:905  false */\n      0x00\n        /* \"CrowdFund.sol\":729:916  Campaign({... */\n      iszero\n      iszero\n      dup2\n      mstore\n      pop\n        /* \"CrowdFund.sol\":710:719  campaigns */\n      0x01\n        /* \"CrowdFund.sol\":710:726  campaigns[count] */\n      0x00\n        /* \"CrowdFund.sol\":720:725  count */\n      dup1\n      sload\n        /* \"CrowdFund.sol\":710:726  campaigns[count] */\n      dup2\n      mstore\n      0x20\n      add\n      swap1\n      dup2\n      mstore\n      0x20\n      add\n      0x00\n      keccak256\n        /* \"CrowdFund.sol\":710:916  campaigns[count] = Campaign({... */\n      0x00\n      dup3\n      add\n      mload\n      dup2\n      0x00\n      add\n      exp(0x0100, 0x00)\n      dup2\n      sload\n      dup2\n      0xffffffffffffffffffffffffffffffffffffffff\n      mul\n      not\n      and\n      swap1\n      dup4\n      0xffffffffffffffffffffffffffffffffffffffff\n      and\n      mul\n      or\n      swap1\n      sstore\n      pop\n      0x20\n      dup3\n      add\n      mload\n      dup2\n      0x01\n      add\n      sstore\n      0x40\n      dup3\n      add\n      mload\n      dup2\n      0x02\n      add\n      sstore\n      0x60\n      dup3\n      add\n      mload\n      dup2\n      0x03\n      add\n      exp(0x0100, 0x00)\n      dup2\n      sload\n      dup2\n      0xffffffff\n      mul\n      not\n      and\n      swap1\n      dup4\n      0xffffffff\n      and\n      mul\n      or\n      swap1\n      sstore\n      pop\n      0x80\n      dup3\n      add\n      mload\n      dup2\n      0x03\n      add\n      exp(0x0100, 0x04)\n      dup2\n      sload\n      dup2\n      0xffffffff\n      mul\n      not\n      and\n      swap1\n      dup4\n      0xffffffff\n      and\n      mul\n      or\n      swap1\n      sstore\n      pop\n      0xa0\n      dup3\n      add\n      mload\n      dup2\n      0x03\n      add\n      exp(0x0100, 0x08)\n      dup2\n      sload\n      dup2\n      0xff\n      mul\n      not\n      and\n      swap1\n      dup4\n      iszero\n      iszero\n      mul\n      or\n      swap1\n      sstore\n      pop\n      swap1\n      pop\n      pop\n        /* \"CrowdFund.sol\":489:923  function launch(uint _goal, uint32 _startAt, uint32 _endAt) external {... */\n      pop\n      pop\n      pop\n      jump\t// out\n        /* \"CrowdFund.sol\":1855:2266  function claim(uint _id) external {... */\n    tag_21:\n        /* \"CrowdFund.sol\":1899:1917  Campaign storage c */\n      0x00\n        /* \"CrowdFund.sol\":1920:1929  campaigns */\n      0x01\n        /* \"CrowdFund.sol\":1920:1934  campaigns[_id] */\n      0x00\n        /* \"CrowdFund.sol\":1930:1933  _id */\n      dup4\n        /* \"CrowdFund.sol\":1920:1934  campaigns[_id] */\n      dup2\n      mstore\n      0x20\n      add\n      swap1\n      dup2\n      mstore\n      0x20\n      add\n      0x00\n      keccak256\n        /* \"CrowdFund.sol\":1899:1934  Campaign storage c = campaigns[_id] */\n      swap1\n      pop\n        /* \"CrowdFund.sol\":1968:1969  c */\n      dup1\n        /* \"CrowdFund.sol\":1968:1977  c.startAt */\n      0x03\n      add\n      0x00\n      swap1\n      sload\n      swap1\n      0x0100\n      exp\n      swap1\n      div\n      0xffffffff\n      and\n        /* \"CrowdFund.sol\":1952:1977  block.timestamp>c.startAt */\n      0xffffffff\n      and\n        /* \"CrowdFund.sol\":1952:1967  block.timestamp */\n      timestamp\n        /* \"CrowdFund.sol\":1952:1977  block.timestamp>c.startAt */\n      gt\n        /* \"CrowdFund.sol\":1944:1992  require(block.timestamp>c.startAt,\"not started\") */\n      tag_64\n      jumpi\n      mload(0x40)\n      0x08c379a000000000000000000000000000000000000000000000000000000000\n      dup2\n      mstore\n      0x04\n      add\n      tag_65\n      swap1\n      tag_39\n      jump\t// in\n    tag_65:\n      mload(0x40)\n      dup1\n      swap2\n      sub\n      swap1\n      revert\n    tag_64:\n        /* \"CrowdFund.sol\":2026:2027  c */\n      dup1\n        /* \"CrowdFund.sol\":2026:2033  c.endAt */\n      0x03\n      add\n      0x04\n      swap1\n      sload\n      swap1\n      0x0100\n      exp\n      swap1\n      div\n      0xffffffff\n      and\n        /* \"CrowdFund.sol\":2010:2033  block.timestamp>c.endAt */\n      0xffffffff\n      and\n        /* \"CrowdFund.sol\":2010:2025  block.timestamp */\n      timestamp\n        /* \"CrowdFund.sol\":2010:2033  block.timestamp>c.endAt */\n      gt\n        /* \"CrowdFund.sol\":2002:2046  require(block.timestamp>c.endAt,\"not ended\") */\n      tag_66\n      jumpi\n      mload(0x40)\n      0x08c379a000000000000000000000000000000000000000000000000000000000\n      dup2\n      mstore\n      0x04\n      add\n      tag_67\n      swap1\n      tag_42\n      jump\t// in\n    tag_67:\n      mload(0x40)\n      dup1\n      swap2\n      sub\n      swap1\n      revert\n    tag_66:\n        /* \"CrowdFund.sol\":2076:2077  c */\n      dup1\n        /* \"CrowdFund.sol\":2076:2085  c.creator */\n      0x00\n      add\n      0x00\n      swap1\n      sload\n      swap1\n      0x0100\n      exp\n      swap1\n      div\n      0xffffffffffffffffffffffffffffffffffffffff\n      and\n        /* \"CrowdFund.sol\":2064:2085  msg.sender==c.creator */\n      0xffffffffffffffffffffffffffffffffffffffff\n      and\n        /* \"CrowdFund.sol\":2064:2074  msg.sender */\n      caller\n        /* \"CrowdFund.sol\":2064:2085  msg.sender==c.creator */\n      0xffffffffffffffffffffffffffffffffffffffff\n      and\n      eq\n        /* \"CrowdFund.sol\":2056:2100  require(msg.sender==c.creator,\"not creator\") */\n      tag_68\n      jumpi\n      mload(0x40)\n      0x08c379a000000000000000000000000000000000000000000000000000000000\n      dup2\n      mstore\n      0x04\n      add\n      tag_69\n      swap1\n      tag_70\n      jump\t// in\n    tag_69:\n      mload(0x40)\n      dup1\n      swap2\n      sub\n      swap1\n      revert\n    tag_68:\n        /* \"CrowdFund.sol\":2129:2130  c */\n      dup1\n        /* \"CrowdFund.sol\":2129:2135  c.goal */\n      0x01\n      add\n      sload\n        /* \"CrowdFund.sol\":2118:2119  c */\n      dup2\n        /* \"CrowdFund.sol\":2118:2127  c.pledged */\n      0x02\n      add\n      sload\n        /* \"CrowdFund.sol\":2118:2135  c.pledged>=c.goal */\n      lt\n      iszero\n        /* \"CrowdFund.sol\":2110:2148  require(c.pledged>=c.goal,\"not enogh\") */\n      tag_71\n      jumpi\n      mload(0x40)\n      0x08c379a000000000000000000000000000000000000000000000000000000000\n      dup2\n      mstore\n      0x04\n      add\n      tag_72\n      swap1\n      tag_73\n      jump\t// in\n    tag_72:\n      mload(0x40)\n      dup1\n      swap2\n      sub\n      swap1\n      revert\n    tag_71:\n        /* \"CrowdFund.sol\":2167:2168  c */\n      dup1\n        /* \"CrowdFund.sol\":2167:2176  c.claimed */\n      0x03\n      add\n      0x08\n      swap1\n      sload\n      swap1\n      0x0100\n      exp\n      swap1\n      div\n      0xff\n      and\n        /* \"CrowdFund.sol\":2166:2176  !c.claimed */\n      iszero\n        /* \"CrowdFund.sol\":2158:2187  require(!c.claimed,\"claimed\") */\n      tag_74\n      jumpi\n      mload(0x40)\n      0x08c379a000000000000000000000000000000000000000000000000000000000\n      dup2\n      mstore\n      0x04\n      add\n      tag_75\n      swap1\n      tag_76\n      jump\t// in\n    tag_75:\n      mload(0x40)\n      dup1\n      swap2\n      sub\n      swap1\n      revert\n    tag_74:\n        /* \"CrowdFund.sol\":2209:2213  true */\n      0x01\n        /* \"CrowdFund.sol\":2197:2198  c */\n      dup2\n        /* \"CrowdFund.sol\":2197:2206  c.claimed */\n      0x03\n      add\n      0x08\n        /* \"CrowdFund.sol\":2197:2213  c.claimed = true */\n      0x0100\n      exp\n      dup2\n      sload\n      dup2\n      0xff\n      mul\n      not\n      and\n      swap1\n      dup4\n      iszero\n      iszero\n      mul\n      or\n      swap1\n      sstore\n      pop\n        /* \"CrowdFund.sol\":2223:2228  token */\n      immutable(\"0x731dc163f73d31d8c68f9917ce4ff967753939f70432973c04fd2c2a48148607\")\n        /* \"CrowdFund.sol\":2223:2237  token.transfer */\n      0xffffffffffffffffffffffffffffffffffffffff\n      and\n      0xa9059cbb\n        /* \"CrowdFund.sol\":2238:2248  msg.sender */\n      caller\n        /* \"CrowdFund.sol\":2249:2250  c */\n      dup4\n        /* \"CrowdFund.sol\":2249:2258  c.pledged */\n      0x02\n      add\n      sload\n        /* \"CrowdFund.sol\":2223:2259  token.transfer(msg.sender,c.pledged) */\n      mload(0x40)\n      dup4\n      0xffffffff\n      and\n      0xe0\n      shl\n      dup2\n      mstore\n      0x04\n      add\n      tag_77\n      swap3\n      swap2\n      swap1\n      tag_47\n      jump\t// in\n    tag_77:\n      0x20\n      mload(0x40)\n      dup1\n      dup4\n      sub\n      dup2\n      0x00\n      dup8\n      gas\n      call\n      iszero\n      dup1\n      iszero\n      tag_79\n      jumpi\n      returndatasize\n      0x00\n      dup1\n      returndatacopy\n      revert(0x00, returndatasize)\n    tag_79:\n      pop\n      pop\n      pop\n      pop\n      mload(0x40)\n      returndatasize\n      not(0x1f)\n      0x1f\n      dup3\n      add\n      and\n      dup3\n      add\n      dup1\n      0x40\n      mstore\n      pop\n      dup2\n      add\n      swap1\n      tag_80\n      swap2\n      swap1\n      tag_51\n      jump\t// in\n    tag_80:\n      pop\n        /* \"CrowdFund.sol\":1889:2266  {... */\n      pop\n        /* \"CrowdFund.sol\":1855:2266  function claim(uint _id) external {... */\n      pop\n      jump\t// out\n        /* \"CrowdFund.sol\":929:1152  function cancel(uint _id) external{... */\n    tag_24:\n        /* \"CrowdFund.sol\":973:997  Campaign memory campaign */\n      0x00\n        /* \"CrowdFund.sol\":1000:1009  campaigns */\n      0x01\n        /* \"CrowdFund.sol\":1000:1014  campaigns[_id] */\n      0x00\n        /* \"CrowdFund.sol\":1010:1013  _id */\n      dup4\n        /* \"CrowdFund.sol\":1000:1014  campaigns[_id] */\n      dup2\n      mstore\n      0x20\n      add\n      swap1\n      dup2\n      mstore\n      0x20\n      add\n      0x00\n      keccak256\n        /* \"CrowdFund.sol\":973:1014  Campaign memory campaign = campaigns[_id] */\n      mload(0x40)\n      dup1\n      0xc0\n      add\n      0x40\n      mstore\n      swap1\n      dup2\n      0x00\n      dup3\n      add\n      0x00\n      swap1\n      sload\n      swap1\n      0x0100\n      exp\n      swap1\n      div\n      0xffffffffffffffffffffffffffffffffffffffff\n      and\n      0xffffffffffffffffffffffffffffffffffffffff\n      and\n      0xffffffffffffffffffffffffffffffffffffffff\n      and\n      dup2\n      mstore\n      0x20\n      add\n      0x01\n      dup3\n      add\n      sload\n      dup2\n      mstore\n      0x20\n      add\n      0x02\n      dup3\n      add\n      sload\n      dup2\n      mstore\n      0x20\n      add\n      0x03\n      dup3\n      add\n      0x00\n      swap1\n      sload\n      swap1\n      0x0100\n      exp\n      swap1\n      div\n      0xffffffff\n      and\n      0xffffffff\n      and\n      0xffffffff\n      and\n      dup2\n      mstore\n      0x20\n      add\n      0x03\n      dup3\n      add\n      0x04\n      swap1\n      sload\n      swap1\n      0x0100\n      exp\n      swap1\n      div\n      0xffffffff\n      and\n      0xffffffff\n      and\n      0xffffffff\n      and\n      dup2\n      mstore\n      0x20\n      add\n      0x03\n      dup3\n      add\n      0x08\n      swap1\n      sload\n      swap1\n      0x0100\n      exp\n      swap1\n      div\n      0xff\n      and\n      iszero\n      iszero\n      iszero\n      iszero\n      dup2\n      mstore\n      pop\n      pop\n      swap1\n      pop\n        /* \"CrowdFund.sol\":1044:1052  campaign */\n      dup1\n        /* \"CrowdFund.sol\":1044:1060  campaign.creator */\n      0x00\n      add\n      mload\n        /* \"CrowdFund.sol\":1032:1060  msg.sender==campaign.creator */\n      0xffffffffffffffffffffffffffffffffffffffff\n      and\n        /* \"CrowdFund.sol\":1032:1042  msg.sender */\n      caller\n        /* \"CrowdFund.sol\":1032:1060  msg.sender==campaign.creator */\n      0xffffffffffffffffffffffffffffffffffffffff\n      and\n      eq\n        /* \"CrowdFund.sol\":1024:1061  require(msg.sender==campaign.creator) */\n      tag_82\n      jumpi\n      0x00\n      dup1\n      revert\n    tag_82:\n        /* \"CrowdFund.sol\":1096:1104  campaign */\n      dup1\n        /* \"CrowdFund.sol\":1096:1112  campaign.startAt */\n      0x60\n      add\n      mload\n        /* \"CrowdFund.sol\":1079:1112  block.timestamp>=campaign.startAt */\n      0xffffffff\n      and\n        /* \"CrowdFund.sol\":1079:1094  block.timestamp */\n      timestamp\n        /* \"CrowdFund.sol\":1079:1112  block.timestamp>=campaign.startAt */\n      lt\n      iszero\n        /* \"CrowdFund.sol\":1071:1113  require(block.timestamp>=campaign.startAt) */\n      tag_83\n      jumpi\n      0x00\n      dup1\n      revert\n    tag_83:\n        /* \"CrowdFund.sol\":1131:1140  campaigns */\n      0x01\n        /* \"CrowdFund.sol\":1131:1145  campaigns[_id] */\n      0x00\n        /* \"CrowdFund.sol\":1141:1144  _id */\n      dup4\n        /* \"CrowdFund.sol\":1131:1145  campaigns[_id] */\n      dup2\n      mstore\n      0x20\n      add\n      swap1\n      dup2\n      mstore\n      0x20\n      add\n      0x00\n      keccak256\n      0x00\n        /* \"CrowdFund.sol\":1124:1145  delete campaigns[_id] */\n      dup1\n      dup3\n      add\n      exp(0x0100, 0x00)\n      dup2\n      sload\n      swap1\n      0xffffffffffffffffffffffffffffffffffffffff\n      mul\n      not\n      and\n      swap1\n      sstore\n      0x01\n      dup3\n      add\n      0x00\n      swap1\n      sstore\n      0x02\n      dup3\n      add\n      0x00\n      swap1\n      sstore\n      0x03\n      dup3\n      add\n      exp(0x0100, 0x00)\n      dup2\n      sload\n      swap1\n      0xffffffff\n      mul\n      not\n      and\n      swap1\n      sstore\n      0x03\n      dup3\n      add\n      exp(0x0100, 0x04)\n      dup2\n      sload\n      swap1\n      0xffffffff\n      mul\n      not\n      and\n      swap1\n      sstore\n      0x03\n      dup3\n      add\n      exp(0x0100, 0x08)\n      dup2\n      sload\n      swap1\n      0xff\n      mul\n      not\n      and\n      swap1\n      sstore\n      pop\n      pop\n        /* \"CrowdFund.sol\":963:1152  {... */\n      pop\n        /* \"CrowdFund.sol\":929:1152  function cancel(uint _id) external{... */\n      pop\n      jump\t// out\n        /* \"CrowdFund.sol\":1515:1849  function unpledge(uint _id, uint _amount) external{... */\n    tag_28:\n        /* \"CrowdFund.sol\":1575:1593  Campaign storage c */\n      0x00\n        /* \"CrowdFund.sol\":1596:1605  campaigns */\n      0x01\n        /* \"CrowdFund.sol\":1596:1610  campaigns[_id] */\n      0x00\n        /* \"CrowdFund.sol\":1606:1609  _id */\n      dup5\n        /* \"CrowdFund.sol\":1596:1610  campaigns[_id] */\n      dup2\n      mstore\n      0x20\n      add\n      swap1\n      dup2\n      mstore\n      0x20\n      add\n      0x00\n      keccak256\n        /* \"CrowdFund.sol\":1575:1610  Campaign storage c = campaigns[_id] */\n      swap1\n      pop\n        /* \"CrowdFund.sol\":1644:1645  c */\n      dup1\n        /* \"CrowdFund.sol\":1644:1653  c.startAt */\n      0x03\n      add\n      0x00\n      swap1\n      sload\n      swap1\n      0x0100\n      exp\n      swap1\n      div\n      0xffffffff\n      and\n        /* \"CrowdFund.sol\":1628:1653  block.timestamp>c.startAt */\n      0xffffffff\n      and\n        /* \"CrowdFund.sol\":1628:1643  block.timestamp */\n      timestamp\n        /* \"CrowdFund.sol\":1628:1653  block.timestamp>c.startAt */\n      gt\n        /* \"CrowdFund.sol\":1620:1668  require(block.timestamp>c.startAt,\"not started\") */\n      tag_85\n      jumpi\n      mload(0x40)\n      0x08c379a000000000000000000000000000000000000000000000000000000000\n      dup2\n      mstore\n      0x04\n      add\n      tag_86\n      swap1\n      tag_39\n      jump\t// in\n    tag_86:\n      mload(0x40)\n      dup1\n      swap2\n      sub\n      swap1\n      revert\n    tag_85:\n        /* \"CrowdFund.sol\":1702:1703  c */\n      dup1\n        /* \"CrowdFund.sol\":1702:1709  c.endAt */\n      0x03\n      add\n      0x04\n      swap1\n      sload\n      swap1\n      0x0100\n      exp\n      swap1\n      div\n      0xffffffff\n      and\n        /* \"CrowdFund.sol\":1686:1709  block.timestamp<c.endAt */\n      0xffffffff\n      and\n        /* \"CrowdFund.sol\":1686:1701  block.timestamp */\n      timestamp\n        /* \"CrowdFund.sol\":1686:1709  block.timestamp<c.endAt */\n      lt\n        /* \"CrowdFund.sol\":1678:1718  require(block.timestamp<c.endAt,\"ended\") */\n      tag_87\n      jumpi\n      mload(0x40)\n      0x08c379a000000000000000000000000000000000000000000000000000000000\n      dup2\n      mstore\n      0x04\n      add\n      tag_88\n      swap1\n      tag_89\n      jump\t// in\n    tag_88:\n      mload(0x40)\n      dup1\n      swap2\n      sub\n      swap1\n      revert\n    tag_87:\n        /* \"CrowdFund.sol\":1740:1747  _amount */\n      dup2\n        /* \"CrowdFund.sol\":1729:1730  c */\n      dup2\n        /* \"CrowdFund.sol\":1729:1738  c.pledged */\n      0x02\n      add\n      0x00\n        /* \"CrowdFund.sol\":1729:1747  c.pledged-=_amount */\n      dup3\n      dup3\n      sload\n      tag_90\n      swap2\n      swap1\n      tag_91\n      jump\t// in\n    tag_90:\n      swap3\n      pop\n      pop\n      dup2\n      swap1\n      sstore\n      pop\n        /* \"CrowdFund.sol\":1791:1798  _amount */\n      dup2\n        /* \"CrowdFund.sol\":1757:1770  pledgedAmount */\n      0x02\n        /* \"CrowdFund.sol\":1757:1775  pledgedAmount[_id] */\n      0x00\n        /* \"CrowdFund.sol\":1771:1774  _id */\n      dup6\n        /* \"CrowdFund.sol\":1757:1775  pledgedAmount[_id] */\n      dup2\n      mstore\n      0x20\n      add\n      swap1\n      dup2\n      mstore\n      0x20\n      add\n      0x00\n      keccak256\n        /* \"CrowdFund.sol\":1757:1787  pledgedAmount[_id][msg.sender] */\n      0x00\n        /* \"CrowdFund.sol\":1776:1786  msg.sender */\n      caller\n        /* \"CrowdFund.sol\":1757:1787  pledgedAmount[_id][msg.sender] */\n      0xffffffffffffffffffffffffffffffffffffffff\n      and\n      0xffffffffffffffffffffffffffffffffffffffff\n      and\n      dup2\n      mstore\n      0x20\n      add\n      swap1\n      dup2\n      mstore\n      0x20\n      add\n      0x00\n      keccak256\n      0x00\n        /* \"CrowdFund.sol\":1757:1798  pledgedAmount[_id][msg.sender] -= _amount */\n      dup3\n      dup3\n      sload\n      tag_92\n      swap2\n      swap1\n      tag_91\n      jump\t// in\n    tag_92:\n      swap3\n      pop\n      pop\n      dup2\n      swap1\n      sstore\n      pop\n        /* \"CrowdFund.sol\":1808:1813  token */\n      immutable(\"0x731dc163f73d31d8c68f9917ce4ff967753939f70432973c04fd2c2a48148607\")\n        /* \"CrowdFund.sol\":1808:1822  token.transfer */\n      0xffffffffffffffffffffffffffffffffffffffff\n      and\n      0xa9059cbb\n        /* \"CrowdFund.sol\":1823:1833  msg.sender */\n      caller\n        /* \"CrowdFund.sol\":1834:1841  _amount */\n      dup5\n        /* \"CrowdFund.sol\":1808:1842  token.transfer(msg.sender,_amount) */\n      mload(0x40)\n      dup4\n      0xffffffff\n      and\n      0xe0\n      shl\n      dup2\n      mstore\n      0x04\n      add\n      tag_93\n      swap3\n      swap2\n      swap1\n      tag_47\n      jump\t// in\n    tag_93:\n      0x20\n      mload(0x40)\n      dup1\n      dup4\n      sub\n      dup2\n      0x00\n      dup8\n      gas\n      call\n      iszero\n      dup1\n      iszero\n      tag_95\n      jumpi\n      returndatasize\n      0x00\n      dup1\n      returndatacopy\n      revert(0x00, returndatasize)\n    tag_95:\n      pop\n      pop\n      pop\n      pop\n      mload(0x40)\n      returndatasize\n      not(0x1f)\n      0x1f\n      dup3\n      add\n      and\n      dup3\n      add\n      dup1\n      0x40\n      mstore\n      pop\n      dup2\n      add\n      swap1\n      tag_96\n      swap2\n      swap1\n      tag_51\n      jump\t// in\n    tag_96:\n      pop\n        /* \"CrowdFund.sol\":1565:1849  {... */\n      pop\n        /* \"CrowdFund.sol\":1515:1849  function unpledge(uint _id, uint _amount) external{... */\n      pop\n      pop\n      jump\t// out\n        /* \"CrowdFund.sol\":284:313  IERC20 public immutable token */\n    tag_30:\n      immutable(\"0x731dc163f73d31d8c68f9917ce4ff967753939f70432973c04fd2c2a48148607\")\n      dup2\n      jump\t// out\n        /* \"CrowdFund.sol\":1158:1509  function pledge(uint _id, uint _amount) external{... */\n    tag_35:\n        /* \"CrowdFund.sol\":1216:1234  Campaign storage c */\n      0x00\n        /* \"CrowdFund.sol\":1237:1246  campaigns */\n      0x01\n        /* \"CrowdFund.sol\":1237:1251  campaigns[_id] */\n      0x00\n        /* \"CrowdFund.sol\":1247:1250  _id */\n      dup5\n        /* \"CrowdFund.sol\":1237:1251  campaigns[_id] */\n      dup2\n      mstore\n      0x20\n      add\n      swap1\n      dup2\n      mstore\n      0x20\n      add\n      0x00\n      keccak256\n        /* \"CrowdFund.sol\":1216:1251  Campaign storage c = campaigns[_id] */\n      swap1\n      pop\n        /* \"CrowdFund.sol\":1285:1286  c */\n      dup1\n        /* \"CrowdFund.sol\":1285:1294  c.startAt */\n      0x03\n      add\n      0x00\n      swap1\n      sload\n      swap1\n      0x0100\n      exp\n      swap1\n      div\n      0xffffffff\n      and\n        /* \"CrowdFund.sol\":1269:1294  block.timestamp>c.startAt */\n      0xffffffff\n      and\n        /* \"CrowdFund.sol\":1269:1284  block.timestamp */\n      timestamp\n        /* \"CrowdFund.sol\":1269:1294  block.timestamp>c.startAt */\n      gt\n        /* \"CrowdFund.sol\":1261:1309  require(block.timestamp>c.startAt,\"not started\") */\n      tag_98\n      jumpi\n      mload(0x40)\n      0x08c379a000000000000000000000000000000000000000000000000000000000\n      dup2\n      mstore\n      0x04\n      add\n      tag_99\n      swap1\n      tag_39\n      jump\t// in\n    tag_99:\n      mload(0x40)\n      dup1\n      swap2\n      sub\n      swap1\n      revert\n    tag_98:\n        /* \"CrowdFund.sol\":1343:1344  c */\n      dup1\n        /* \"CrowdFund.sol\":1343:1350  c.endAt */\n      0x03\n      add\n      0x04\n      swap1\n      sload\n      swap1\n      0x0100\n      exp\n      swap1\n      div\n      0xffffffff\n      and\n        /* \"CrowdFund.sol\":1327:1350  block.timestamp<c.endAt */\n      0xffffffff\n      and\n        /* \"CrowdFund.sol\":1327:1342  block.timestamp */\n      timestamp\n        /* \"CrowdFund.sol\":1327:1350  block.timestamp<c.endAt */\n      lt\n        /* \"CrowdFund.sol\":1319:1359  require(block.timestamp<c.endAt,\"ended\") */\n      tag_100\n      jumpi\n      mload(0x40)\n      0x08c379a000000000000000000000000000000000000000000000000000000000\n      dup2\n      mstore\n      0x04\n      add\n      tag_101\n      swap1\n      tag_89\n      jump\t// in\n    tag_101:\n      mload(0x40)\n      dup1\n      swap2\n      sub\n      swap1\n      revert\n    tag_100:\n        /* \"CrowdFund.sol\":1381:1388  _amount */\n      dup2\n        /* \"CrowdFund.sol\":1370:1371  c */\n      dup2\n        /* \"CrowdFund.sol\":1370:1379  c.pledged */\n      0x02\n      add\n      0x00\n        /* \"CrowdFund.sol\":1370:1388  c.pledged+=_amount */\n      dup3\n      dup3\n      sload\n      tag_102\n      swap2\n      swap1\n      tag_62\n      jump\t// in\n    tag_102:\n      swap3\n      pop\n      pop\n      dup2\n      swap1\n      sstore\n      pop\n        /* \"CrowdFund.sol\":1432:1439  _amount */\n      dup2\n        /* \"CrowdFund.sol\":1398:1411  pledgedAmount */\n      0x02\n        /* \"CrowdFund.sol\":1398:1416  pledgedAmount[_id] */\n      0x00\n        /* \"CrowdFund.sol\":1412:1415  _id */\n      dup6\n        /* \"CrowdFund.sol\":1398:1416  pledgedAmount[_id] */\n      dup2\n      mstore\n      0x20\n      add\n      swap1\n      dup2\n      mstore\n      0x20\n      add\n      0x00\n      keccak256\n        /* \"CrowdFund.sol\":1398:1428  pledgedAmount[_id][msg.sender] */\n      0x00\n        /* \"CrowdFund.sol\":1417:1427  msg.sender */\n      caller\n        /* \"CrowdFund.sol\":1398:1428  pledgedAmount[_id][msg.sender] */\n      0xffffffffffffffffffffffffffffffffffffffff\n      and\n      0xffffffffffffffffffffffffffffffffffffffff\n      and\n      dup2\n      mstore\n      0x20\n      add\n      swap1\n      dup2\n      mstore\n      0x20\n      add\n      0x00\n      keccak256\n      0x00\n        /* \"CrowdFund.sol\":1398:1439  pledgedAmount[_id][msg.sender] += _amount */\n      dup3\n      dup3\n      sload\n      tag_103\n      swap2\n      swap1\n      tag_62\n      jump\t// in\n    tag_103:\n      swap3\n      pop\n      pop\n      dup2\n      swap1\n      sstore\n      pop\n        /* \"CrowdFund.sol\":1449:1454  token */\n      immutable(\"0x731dc163f73d31d8c68f9917ce4ff967753939f70432973c04fd2c2a48148607\")\n        /* \"CrowdFund.sol\":1449:1467  token.transferFrom */\n      0xffffffffffffffffffffffffffffffffffffffff\n      and\n      0x23b872dd\n        /* \"CrowdFund.sol\":1468:1478  msg.sender */\n      caller\n        /* \"CrowdFund.sol\":1487:1491  this */\n      address\n        /* \"CrowdFund.sol\":1493:1500  _amount */\n      dup6\n        /* \"CrowdFund.sol\":1449:1501  token.transferFrom(msg.sender,address(this),_amount) */\n      mload(0x40)\n      dup5\n      0xffffffff\n      and\n      0xe0\n      shl\n      dup2\n      mstore\n      0x04\n      add\n      tag_104\n      swap4\n      swap3\n      swap2\n      swap1\n      tag_105\n      jump\t// in\n    tag_104:\n      0x20\n      mload(0x40)\n      dup1\n      dup4\n      sub\n      dup2\n      0x00\n      dup8\n      gas\n      call\n      iszero\n      dup1\n      iszero\n      tag_107\n      jumpi\n      returndatasize\n      0x00\n      dup1\n      returndatacopy\n      revert(0x00, returndatasize)\n    tag_107:\n      pop\n      pop\n      pop\n      pop\n      mload(0x40)\n      returndatasize\n      not(0x1f)\n      0x1f\n      dup3\n      add\n      and\n      dup3\n      add\n      dup1\n      0x40\n      mstore\n      pop\n      dup2\n      add\n      swap1\n      tag_108\n      swap2\n      swap1\n      tag_51\n      jump\t// in\n    tag_108:\n      pop\n        /* \"CrowdFund.sol\":1206:1509  {... */\n      pop\n        /* \"CrowdFund.sol\":1158:1509  function pledge(uint _id, uint _amount) external{... */\n      pop\n      pop\n      jump\t// out\n        /* \"#utility.yul\":88:205   */\n    tag_110:\n        /* \"#utility.yul\":197:198   */\n      0x00\n        /* \"#utility.yul\":194:195   */\n      dup1\n        /* \"#utility.yul\":187:199   */\n      revert\n        /* \"#utility.yul\":334:411   */\n    tag_112:\n        /* \"#utility.yul\":371:378   */\n      0x00\n        /* \"#utility.yul\":400:405   */\n      dup2\n        /* \"#utility.yul\":389:405   */\n      swap1\n      pop\n        /* \"#utility.yul\":334:411   */\n      swap2\n      swap1\n      pop\n      jump\t// out\n        /* \"#utility.yul\":417:539   */\n    tag_113:\n        /* \"#utility.yul\":490:514   */\n      tag_156\n        /* \"#utility.yul\":508:513   */\n      dup2\n        /* \"#utility.yul\":490:514   */\n      tag_112\n      jump\t// in\n    tag_156:\n        /* \"#utility.yul\":483:488   */\n      dup2\n        /* \"#utility.yul\":480:515   */\n      eq\n        /* \"#utility.yul\":470:533   */\n      tag_157\n      jumpi\n        /* \"#utility.yul\":529:530   */\n      0x00\n        /* \"#utility.yul\":526:527   */\n      dup1\n        /* \"#utility.yul\":519:531   */\n      revert\n        /* \"#utility.yul\":470:533   */\n    tag_157:\n        /* \"#utility.yul\":417:539   */\n      pop\n      jump\t// out\n        /* \"#utility.yul\":545:684   */\n    tag_114:\n        /* \"#utility.yul\":591:596   */\n      0x00\n        /* \"#utility.yul\":629:635   */\n      dup2\n        /* \"#utility.yul\":616:636   */\n      calldataload\n        /* \"#utility.yul\":607:636   */\n      swap1\n      pop\n        /* \"#utility.yul\":645:678   */\n      tag_159\n        /* \"#utility.yul\":672:677   */\n      dup2\n        /* \"#utility.yul\":645:678   */\n      tag_113\n      jump\t// in\n    tag_159:\n        /* \"#utility.yul\":545:684   */\n      swap3\n      swap2\n      pop\n      pop\n      jump\t// out\n        /* \"#utility.yul\":690:1019   */\n    tag_13:\n        /* \"#utility.yul\":749:755   */\n      0x00\n        /* \"#utility.yul\":798:800   */\n      0x20\n        /* \"#utility.yul\":786:795   */\n      dup3\n        /* \"#utility.yul\":777:784   */\n      dup5\n        /* \"#utility.yul\":773:796   */\n      sub\n        /* \"#utility.yul\":769:801   */\n      slt\n        /* \"#utility.yul\":766:885   */\n      iszero\n      tag_161\n      jumpi\n        /* \"#utility.yul\":804:883   */\n      tag_162\n      tag_110\n      jump\t// in\n    tag_162:\n        /* \"#utility.yul\":766:885   */\n    tag_161:\n        /* \"#utility.yul\":924:925   */\n      0x00\n        /* \"#utility.yul\":949:1002   */\n      tag_163\n        /* \"#utility.yul\":994:1001   */\n      dup5\n        /* \"#utility.yul\":985:991   */\n      dup3\n        /* \"#utility.yul\":974:983   */\n      dup6\n        /* \"#utility.yul\":970:992   */\n      add\n        /* \"#utility.yul\":949:1002   */\n      tag_114\n      jump\t// in\n    tag_163:\n        /* \"#utility.yul\":939:1002   */\n      swap2\n      pop\n        /* \"#utility.yul\":895:1012   */\n      pop\n        /* \"#utility.yul\":690:1019   */\n      swap3\n      swap2\n      pop\n      pop\n      jump\t// out\n        /* \"#utility.yul\":1025:1118   */\n    tag_115:\n        /* \"#utility.yul\":1061:1068   */\n      0x00\n        /* \"#utility.yul\":1101:1111   */\n      0xffffffff\n        /* \"#utility.yul\":1094:1099   */\n      dup3\n        /* \"#utility.yul\":1090:1112   */\n      and\n        /* \"#utility.yul\":1079:1112   */\n      swap1\n      pop\n        /* \"#utility.yul\":1025:1118   */\n      swap2\n      swap1\n      pop\n      jump\t// out\n        /* \"#utility.yul\":1124:1244   */\n    tag_116:\n        /* \"#utility.yul\":1196:1219   */\n      tag_166\n        /* \"#utility.yul\":1213:1218   */\n      dup2\n        /* \"#utility.yul\":1196:1219   */\n      tag_115\n      jump\t// in\n    tag_166:\n        /* \"#utility.yul\":1189:1194   */\n      dup2\n        /* \"#utility.yul\":1186:1220   */\n      eq\n        /* \"#utility.yul\":1176:1238   */\n      tag_167\n      jumpi\n        /* \"#utility.yul\":1234:1235   */\n      0x00\n        /* \"#utility.yul\":1231:1232   */\n      dup1\n        /* \"#utility.yul\":1224:1236   */\n      revert\n        /* \"#utility.yul\":1176:1238   */\n    tag_167:\n        /* \"#utility.yul\":1124:1244   */\n      pop\n      jump\t// out\n        /* \"#utility.yul\":1250:1387   */\n    tag_117:\n        /* \"#utility.yul\":1295:1300   */\n      0x00\n        /* \"#utility.yul\":1333:1339   */\n      dup2\n        /* \"#utility.yul\":1320:1340   */\n      calldataload\n        /* \"#utility.yul\":1311:1340   */\n      swap1\n      pop\n        /* \"#utility.yul\":1349:1381   */\n      tag_169\n        /* \"#utility.yul\":1375:1380   */\n      dup2\n        /* \"#utility.yul\":1349:1381   */\n      tag_116\n      jump\t// in\n    tag_169:\n        /* \"#utility.yul\":1250:1387   */\n      swap3\n      swap2\n      pop\n      pop\n      jump\t// out\n        /* \"#utility.yul\":1393:2008   */\n    tag_17:\n        /* \"#utility.yul\":1468:1474   */\n      0x00\n        /* \"#utility.yul\":1476:1482   */\n      dup1\n        /* \"#utility.yul\":1484:1490   */\n      0x00\n        /* \"#utility.yul\":1533:1535   */\n      0x60\n        /* \"#utility.yul\":1521:1530   */\n      dup5\n        /* \"#utility.yul\":1512:1519   */\n      dup7\n        /* \"#utility.yul\":1508:1531   */\n      sub\n        /* \"#utility.yul\":1504:1536   */\n      slt\n        /* \"#utility.yul\":1501:1620   */\n      iszero\n      tag_171\n      jumpi\n        /* \"#utility.yul\":1539:1618   */\n      tag_172\n      tag_110\n      jump\t// in\n    tag_172:\n        /* \"#utility.yul\":1501:1620   */\n    tag_171:\n        /* \"#utility.yul\":1659:1660   */\n      0x00\n        /* \"#utility.yul\":1684:1737   */\n      tag_173\n        /* \"#utility.yul\":1729:1736   */\n      dup7\n        /* \"#utility.yul\":1720:1726   */\n      dup3\n        /* \"#utility.yul\":1709:1718   */\n      dup8\n        /* \"#utility.yul\":1705:1727   */\n      add\n        /* \"#utility.yul\":1684:1737   */\n      tag_114\n      jump\t// in\n    tag_173:\n        /* \"#utility.yul\":1674:1737   */\n      swap4\n      pop\n        /* \"#utility.yul\":1630:1747   */\n      pop\n        /* \"#utility.yul\":1786:1788   */\n      0x20\n        /* \"#utility.yul\":1812:1864   */\n      tag_174\n        /* \"#utility.yul\":1856:1863   */\n      dup7\n        /* \"#utility.yul\":1847:1853   */\n      dup3\n        /* \"#utility.yul\":1836:1845   */\n      dup8\n        /* \"#utility.yul\":1832:1854   */\n      add\n        /* \"#utility.yul\":1812:1864   */\n      tag_117\n      jump\t// in\n    tag_174:\n        /* \"#utility.yul\":1802:1864   */\n      swap3\n      pop\n        /* \"#utility.yul\":1757:1874   */\n      pop\n        /* \"#utility.yul\":1913:1915   */\n      0x40\n        /* \"#utility.yul\":1939:1991   */\n      tag_175\n        /* \"#utility.yul\":1983:1990   */\n      dup7\n        /* \"#utility.yul\":1974:1980   */\n      dup3\n        /* \"#utility.yul\":1963:1972   */\n      dup8\n        /* \"#utility.yul\":1959:1981   */\n      add\n        /* \"#utility.yul\":1939:1991   */\n      tag_117\n      jump\t// in\n    tag_175:\n        /* \"#utility.yul\":1929:1991   */\n      swap2\n      pop\n        /* \"#utility.yul\":1884:2001   */\n      pop\n        /* \"#utility.yul\":1393:2008   */\n      swap3\n      pop\n      swap3\n      pop\n      swap3\n      jump\t// out\n        /* \"#utility.yul\":2014:2488   */\n    tag_27:\n        /* \"#utility.yul\":2082:2088   */\n      0x00\n        /* \"#utility.yul\":2090:2096   */\n      dup1\n        /* \"#utility.yul\":2139:2141   */\n      0x40\n        /* \"#utility.yul\":2127:2136   */\n      dup4\n        /* \"#utility.yul\":2118:2125   */\n      dup6\n        /* \"#utility.yul\":2114:2137   */\n      sub\n        /* \"#utility.yul\":2110:2142   */\n      slt\n        /* \"#utility.yul\":2107:2226   */\n      iszero\n      tag_177\n      jumpi\n        /* \"#utility.yul\":2145:2224   */\n      tag_178\n      tag_110\n      jump\t// in\n    tag_178:\n        /* \"#utility.yul\":2107:2226   */\n    tag_177:\n        /* \"#utility.yul\":2265:2266   */\n      0x00\n        /* \"#utility.yul\":2290:2343   */\n      tag_179\n        /* \"#utility.yul\":2335:2342   */\n      dup6\n        /* \"#utility.yul\":2326:2332   */\n      dup3\n        /* \"#utility.yul\":2315:2324   */\n      dup7\n        /* \"#utility.yul\":2311:2333   */\n      add\n        /* \"#utility.yul\":2290:2343   */\n      tag_114\n      jump\t// in\n    tag_179:\n        /* \"#utility.yul\":2280:2343   */\n      swap3\n      pop\n        /* \"#utility.yul\":2236:2353   */\n      pop\n        /* \"#utility.yul\":2392:2394   */\n      0x20\n        /* \"#utility.yul\":2418:2471   */\n      tag_180\n        /* \"#utility.yul\":2463:2470   */\n      dup6\n        /* \"#utility.yul\":2454:2460   */\n      dup3\n        /* \"#utility.yul\":2443:2452   */\n      dup7\n        /* \"#utility.yul\":2439:2461   */\n      add\n        /* \"#utility.yul\":2418:2471   */\n      tag_114\n      jump\t// in\n    tag_180:\n        /* \"#utility.yul\":2408:2471   */\n      swap2\n      pop\n        /* \"#utility.yul\":2363:2481   */\n      pop\n        /* \"#utility.yul\":2014:2488   */\n      swap3\n      pop\n      swap3\n      swap1\n      pop\n      jump\t// out\n        /* \"#utility.yul\":2494:2620   */\n    tag_118:\n        /* \"#utility.yul\":2531:2538   */\n      0x00\n        /* \"#utility.yul\":2571:2613   */\n      0xffffffffffffffffffffffffffffffffffffffff\n        /* \"#utility.yul\":2564:2569   */\n      dup3\n        /* \"#utility.yul\":2560:2614   */\n      and\n        /* \"#utility.yul\":2549:2614   */\n      swap1\n      pop\n        /* \"#utility.yul\":2494:2620   */\n      swap2\n      swap1\n      pop\n      jump\t// out\n        /* \"#utility.yul\":2626:2686   */\n    tag_119:\n        /* \"#utility.yul\":2654:2657   */\n      0x00\n        /* \"#utility.yul\":2675:2680   */\n      dup2\n        /* \"#utility.yul\":2668:2680   */\n      swap1\n      pop\n        /* \"#utility.yul\":2626:2686   */\n      swap2\n      swap1\n      pop\n      jump\t// out\n        /* \"#utility.yul\":2692:2834   */\n    tag_120:\n        /* \"#utility.yul\":2742:2751   */\n      0x00\n        /* \"#utility.yul\":2775:2828   */\n      tag_184\n        /* \"#utility.yul\":2793:2827   */\n      tag_185\n        /* \"#utility.yul\":2802:2826   */\n      tag_186\n        /* \"#utility.yul\":2820:2825   */\n      dup5\n        /* \"#utility.yul\":2802:2826   */\n      tag_118\n      jump\t// in\n    tag_186:\n        /* \"#utility.yul\":2793:2827   */\n      tag_119\n      jump\t// in\n    tag_185:\n        /* \"#utility.yul\":2775:2828   */\n      tag_118\n      jump\t// in\n    tag_184:\n        /* \"#utility.yul\":2762:2828   */\n      swap1\n      pop\n        /* \"#utility.yul\":2692:2834   */\n      swap2\n      swap1\n      pop\n      jump\t// out\n        /* \"#utility.yul\":2840:2966   */\n    tag_121:\n        /* \"#utility.yul\":2890:2899   */\n      0x00\n        /* \"#utility.yul\":2923:2960   */\n      tag_188\n        /* \"#utility.yul\":2954:2959   */\n      dup3\n        /* \"#utility.yul\":2923:2960   */\n      tag_120\n      jump\t// in\n    tag_188:\n        /* \"#utility.yul\":2910:2960   */\n      swap1\n      pop\n        /* \"#utility.yul\":2840:2966   */\n      swap2\n      swap1\n      pop\n      jump\t// out\n        /* \"#utility.yul\":2972:3112   */\n    tag_122:\n        /* \"#utility.yul\":3036:3045   */\n      0x00\n        /* \"#utility.yul\":3069:3106   */\n      tag_190\n        /* \"#utility.yul\":3100:3105   */\n      dup3\n        /* \"#utility.yul\":3069:3106   */\n      tag_121\n      jump\t// in\n    tag_190:\n        /* \"#utility.yul\":3056:3106   */\n      swap1\n      pop\n        /* \"#utility.yul\":2972:3112   */\n      swap2\n      swap1\n      pop\n      jump\t// out\n        /* \"#utility.yul\":3118:3277   */\n    tag_123:\n        /* \"#utility.yul\":3219:3270   */\n      tag_192\n        /* \"#utility.yul\":3264:3269   */\n      dup2\n        /* \"#utility.yul\":3219:3270   */\n      tag_122\n      jump\t// in\n    tag_192:\n        /* \"#utility.yul\":3214:3217   */\n      dup3\n        /* \"#utility.yul\":3207:3271   */\n      mstore\n        /* \"#utility.yul\":3118:3277   */\n      pop\n      pop\n      jump\t// out\n        /* \"#utility.yul\":3283:3533   */\n    tag_32:\n        /* \"#utility.yul\":3390:3394   */\n      0x00\n        /* \"#utility.yul\":3428:3430   */\n      0x20\n        /* \"#utility.yul\":3417:3426   */\n      dup3\n        /* \"#utility.yul\":3413:3431   */\n      add\n        /* \"#utility.yul\":3405:3431   */\n      swap1\n      pop\n        /* \"#utility.yul\":3441:3526   */\n      tag_194\n        /* \"#utility.yul\":3523:3524   */\n      0x00\n        /* \"#utility.yul\":3512:3521   */\n      dup4\n        /* \"#utility.yul\":3508:3525   */\n      add\n        /* \"#utility.yul\":3499:3505   */\n      dup5\n        /* \"#utility.yul\":3441:3526   */\n      tag_123\n      jump\t// in\n    tag_194:\n        /* \"#utility.yul\":3283:3533   */\n      swap3\n      swap2\n      pop\n      pop\n      jump\t// out\n        /* \"#utility.yul\":3539:3708   */\n    tag_124:\n        /* \"#utility.yul\":3623:3634   */\n      0x00\n        /* \"#utility.yul\":3657:3663   */\n      dup3\n        /* \"#utility.yul\":3652:3655   */\n      dup3\n        /* \"#utility.yul\":3645:3664   */\n      mstore\n        /* \"#utility.yul\":3697:3701   */\n      0x20\n        /* \"#utility.yul\":3692:3695   */\n      dup3\n        /* \"#utility.yul\":3688:3702   */\n      add\n        /* \"#utility.yul\":3673:3702   */\n      swap1\n      pop\n        /* \"#utility.yul\":3539:3708   */\n      swap3\n      swap2\n      pop\n      pop\n      jump\t// out\n        /* \"#utility.yul\":3714:3875   */\n    tag_125:\n        /* \"#utility.yul\":3854:3867   */\n      0x6e6f742073746172746564000000000000000000000000000000000000000000\n        /* \"#utility.yul\":3850:3851   */\n      0x00\n        /* \"#utility.yul\":3842:3848   */\n      dup3\n        /* \"#utility.yul\":3838:3852   */\n      add\n        /* \"#utility.yul\":3831:3868   */\n      mstore\n        /* \"#utility.yul\":3714:3875   */\n      pop\n      jump\t// out\n        /* \"#utility.yul\":3881:4247   */\n    tag_126:\n        /* \"#utility.yul\":4023:4026   */\n      0x00\n        /* \"#utility.yul\":4044:4111   */\n      tag_198\n        /* \"#utility.yul\":4108:4110   */\n      0x0b\n        /* \"#utility.yul\":4103:4106   */\n      dup4\n        /* \"#utility.yul\":4044:4111   */\n      tag_124\n      jump\t// in\n    tag_198:\n        /* \"#utility.yul\":4037:4111   */\n      swap2\n      pop\n        /* \"#utility.yul\":4120:4213   */\n      tag_199\n        /* \"#utility.yul\":4209:4212   */\n      dup3\n        /* \"#utility.yul\":4120:4213   */\n      tag_125\n      jump\t// in\n    tag_199:\n        /* \"#utility.yul\":4238:4240   */\n      0x20\n        /* \"#utility.yul\":4233:4236   */\n      dup3\n        /* \"#utility.yul\":4229:4241   */\n      add\n        /* \"#utility.yul\":4222:4241   */\n      swap1\n      pop\n        /* \"#utility.yul\":3881:4247   */\n      swap2\n      swap1\n      pop\n      jump\t// out\n        /* \"#utility.yul\":4253:4672   */\n    tag_39:\n        /* \"#utility.yul\":4419:4423   */\n      0x00\n        /* \"#utility.yul\":4457:4459   */\n      0x20\n        /* \"#utility.yul\":4446:4455   */\n      dup3\n        /* \"#utility.yul\":4442:4460   */\n      add\n        /* \"#utility.yul\":4434:4460   */\n      swap1\n      pop\n        /* \"#utility.yul\":4506:4515   */\n      dup2\n        /* \"#utility.yul\":4500:4504   */\n      dup2\n        /* \"#utility.yul\":4496:4516   */\n      sub\n        /* \"#utility.yul\":4492:4493   */\n      0x00\n        /* \"#utility.yul\":4481:4490   */\n      dup4\n        /* \"#utility.yul\":4477:4494   */\n      add\n        /* \"#utility.yul\":4470:4517   */\n      mstore\n        /* \"#utility.yul\":4534:4665   */\n      tag_201\n        /* \"#utility.yul\":4660:4664   */\n      dup2\n        /* \"#utility.yul\":4534:4665   */\n      tag_126\n      jump\t// in\n    tag_201:\n        /* \"#utility.yul\":4526:4665   */\n      swap1\n      pop\n        /* \"#utility.yul\":4253:4672   */\n      swap2\n      swap1\n      pop\n      jump\t// out\n        /* \"#utility.yul\":4678:4837   */\n    tag_127:\n        /* \"#utility.yul\":4818:4829   */\n      0x6e6f7420656e6465640000000000000000000000000000000000000000000000\n        /* \"#utility.yul\":4814:4815   */\n      0x00\n        /* \"#utility.yul\":4806:4812   */\n      dup3\n        /* \"#utility.yul\":4802:4816   */\n      add\n        /* \"#utility.yul\":4795:4830   */\n      mstore\n        /* \"#utility.yul\":4678:4837   */\n      pop\n      jump\t// out\n        /* \"#utility.yul\":4843:5208   */\n    tag_128:\n        /* \"#utility.yul\":4985:4988   */\n      0x00\n        /* \"#utility.yul\":5006:5072   */\n      tag_204\n        /* \"#utility.yul\":5070:5071   */\n      0x09\n        /* \"#utility.yul\":5065:5068   */\n      dup4\n        /* \"#utility.yul\":5006:5072   */\n      tag_124\n      jump\t// in\n    tag_204:\n        /* \"#utility.yul\":4999:5072   */\n      swap2\n      pop\n        /* \"#utility.yul\":5081:5174   */\n      tag_205\n        /* \"#utility.yul\":5170:5173   */\n      dup3\n        /* \"#utility.yul\":5081:5174   */\n      tag_127\n      jump\t// in\n    tag_205:\n        /* \"#utility.yul\":5199:5201   */\n      0x20\n        /* \"#utility.yul\":5194:5197   */\n      dup3\n        /* \"#utility.yul\":5190:5202   */\n      add\n        /* \"#utility.yul\":5183:5202   */\n      swap1\n      pop\n        /* \"#utility.yul\":4843:5208   */\n      swap2\n      swap1\n      pop\n      jump\t// out\n        /* \"#utility.yul\":5214:5633   */\n    tag_42:\n        /* \"#utility.yul\":5380:5384   */\n      0x00\n        /* \"#utility.yul\":5418:5420   */\n      0x20\n        /* \"#utility.yul\":5407:5416   */\n      dup3\n        /* \"#utility.yul\":5403:5421   */\n      add\n        /* \"#utility.yul\":5395:5421   */\n      swap1\n      pop\n        /* \"#utility.yul\":5467:5476   */\n      dup2\n        /* \"#utility.yul\":5461:5465   */\n      dup2\n        /* \"#utility.yul\":5457:5477   */\n      sub\n        /* \"#utility.yul\":5453:5454   */\n      0x00\n        /* \"#utility.yul\":5442:5451   */\n      dup4\n        /* \"#utility.yul\":5438:5455   */\n      add\n        /* \"#utility.yul\":5431:5478   */\n      mstore\n        /* \"#utility.yul\":5495:5626   */\n      tag_207\n        /* \"#utility.yul\":5621:5625   */\n      dup2\n        /* \"#utility.yul\":5495:5626   */\n      tag_128\n      jump\t// in\n    tag_207:\n        /* \"#utility.yul\":5487:5626   */\n      swap1\n      pop\n        /* \"#utility.yul\":5214:5633   */\n      swap2\n      swap1\n      pop\n      jump\t// out\n        /* \"#utility.yul\":5639:5860   */\n    tag_129:\n        /* \"#utility.yul\":5779:5813   */\n      0x69747320616c726561647920636f6c6c65637465642c2063616e742072656675\n        /* \"#utility.yul\":5775:5776   */\n      0x00\n        /* \"#utility.yul\":5767:5773   */\n      dup3\n        /* \"#utility.yul\":5763:5777   */\n      add\n        /* \"#utility.yul\":5756:5814   */\n      mstore\n        /* \"#utility.yul\":5848:5852   */\n      0x6e64000000000000000000000000000000000000000000000000000000000000\n        /* \"#utility.yul\":5843:5845   */\n      0x20\n        /* \"#utility.yul\":5835:5841   */\n      dup3\n        /* \"#utility.yul\":5831:5846   */\n      add\n        /* \"#utility.yul\":5824:5853   */\n      mstore\n        /* \"#utility.yul\":5639:5860   */\n      pop\n      jump\t// out\n        /* \"#utility.yul\":5866:6232   */\n    tag_130:\n        /* \"#utility.yul\":6008:6011   */\n      0x00\n        /* \"#utility.yul\":6029:6096   */\n      tag_210\n        /* \"#utility.yul\":6093:6095   */\n      0x22\n        /* \"#utility.yul\":6088:6091   */\n      dup4\n        /* \"#utility.yul\":6029:6096   */\n      tag_124\n      jump\t// in\n    tag_210:\n        /* \"#utility.yul\":6022:6096   */\n      swap2\n      pop\n        /* \"#utility.yul\":6105:6198   */\n      tag_211\n        /* \"#utility.yul\":6194:6197   */\n      dup3\n        /* \"#utility.yul\":6105:6198   */\n      tag_129\n      jump\t// in\n    tag_211:\n        /* \"#utility.yul\":6223:6225   */\n      0x40\n        /* \"#utility.yul\":6218:6221   */\n      dup3\n        /* \"#utility.yul\":6214:6226   */\n      add\n        /* \"#utility.yul\":6207:6226   */\n      swap1\n      pop\n        /* \"#utility.yul\":5866:6232   */\n      swap2\n      swap1\n      pop\n      jump\t// out\n        /* \"#utility.yul\":6238:6657   */\n    tag_45:\n        /* \"#utility.yul\":6404:6408   */\n      0x00\n        /* \"#utility.yul\":6442:6444   */\n      0x20\n        /* \"#utility.yul\":6431:6440   */\n      dup3\n        /* \"#utility.yul\":6427:6445   */\n      add\n        /* \"#utility.yul\":6419:6445   */\n      swap1\n      pop\n        /* \"#utility.yul\":6491:6500   */\n      dup2\n        /* \"#utility.yul\":6485:6489   */\n      dup2\n        /* \"#utility.yul\":6481:6501   */\n      sub\n        /* \"#utility.yul\":6477:6478   */\n      0x00\n        /* \"#utility.yul\":6466:6475   */\n      dup4\n        /* \"#utility.yul\":6462:6479   */\n      add\n        /* \"#utility.yul\":6455:6502   */\n      mstore\n        /* \"#utility.yul\":6519:6650   */\n      tag_213\n        /* \"#utility.yul\":6645:6649   */\n      dup2\n        /* \"#utility.yul\":6519:6650   */\n      tag_130\n      jump\t// in\n    tag_213:\n        /* \"#utility.yul\":6511:6650   */\n      swap1\n      pop\n        /* \"#utility.yul\":6238:6657   */\n      swap2\n      swap1\n      pop\n      jump\t// out\n        /* \"#utility.yul\":6663:6759   */\n    tag_131:\n        /* \"#utility.yul\":6700:6707   */\n      0x00\n        /* \"#utility.yul\":6729:6753   */\n      tag_215\n        /* \"#utility.yul\":6747:6752   */\n      dup3\n        /* \"#utility.yul\":6729:6753   */\n      tag_118\n      jump\t// in\n    tag_215:\n        /* \"#utility.yul\":6718:6753   */\n      swap1\n      pop\n        /* \"#utility.yul\":6663:6759   */\n      swap2\n      swap1\n      pop\n      jump\t// out\n        /* \"#utility.yul\":6765:6883   */\n    tag_132:\n        /* \"#utility.yul\":6852:6876   */\n      tag_217\n        /* \"#utility.yul\":6870:6875   */\n      dup2\n        /* \"#utility.yul\":6852:6876   */\n      tag_131\n      jump\t// in\n    tag_217:\n        /* \"#utility.yul\":6847:6850   */\n      dup3\n        /* \"#utility.yul\":6840:6877   */\n      mstore\n        /* \"#utility.yul\":6765:6883   */\n      pop\n      pop\n      jump\t// out\n        /* \"#utility.yul\":6889:7007   */\n    tag_133:\n        /* \"#utility.yul\":6976:7000   */\n      tag_219\n        /* \"#utility.yul\":6994:6999   */\n      dup2\n        /* \"#utility.yul\":6976:7000   */\n      tag_112\n      jump\t// in\n    tag_219:\n        /* \"#utility.yul\":6971:6974   */\n      dup3\n        /* \"#utility.yul\":6964:7001   */\n      mstore\n        /* \"#utility.yul\":6889:7007   */\n      pop\n      pop\n      jump\t// out\n        /* \"#utility.yul\":7013:7345   */\n    tag_47:\n        /* \"#utility.yul\":7134:7138   */\n      0x00\n        /* \"#utility.yul\":7172:7174   */\n      0x40\n        /* \"#utility.yul\":7161:7170   */\n      dup3\n        /* \"#utility.yul\":7157:7175   */\n      add\n        /* \"#utility.yul\":7149:7175   */\n      swap1\n      pop\n        /* \"#utility.yul\":7185:7256   */\n      tag_221\n        /* \"#utility.yul\":7253:7254   */\n      0x00\n        /* \"#utility.yul\":7242:7251   */\n      dup4\n        /* \"#utility.yul\":7238:7255   */\n      add\n        /* \"#utility.yul\":7229:7235   */\n      dup6\n        /* \"#utility.yul\":7185:7256   */\n      tag_132\n      jump\t// in\n    tag_221:\n        /* \"#utility.yul\":7266:7338   */\n      tag_222\n        /* \"#utility.yul\":7334:7336   */\n      0x20\n        /* \"#utility.yul\":7323:7332   */\n      dup4\n        /* \"#utility.yul\":7319:7337   */\n      add\n        /* \"#utility.yul\":7310:7316   */\n      dup5\n        /* \"#utility.yul\":7266:7338   */\n      tag_133\n      jump\t// in\n    tag_222:\n        /* \"#utility.yul\":7013:7345   */\n      swap4\n      swap3\n      pop\n      pop\n      pop\n      jump\t// out\n        /* \"#utility.yul\":7351:7441   */\n    tag_134:\n        /* \"#utility.yul\":7385:7392   */\n      0x00\n        /* \"#utility.yul\":7428:7433   */\n      dup2\n        /* \"#utility.yul\":7421:7434   */\n      iszero\n        /* \"#utility.yul\":7414:7435   */\n      iszero\n        /* \"#utility.yul\":7403:7435   */\n      swap1\n      pop\n        /* \"#utility.yul\":7351:7441   */\n      swap2\n      swap1\n      pop\n      jump\t// out\n        /* \"#utility.yul\":7447:7563   */\n    tag_135:\n        /* \"#utility.yul\":7517:7538   */\n      tag_225\n        /* \"#utility.yul\":7532:7537   */\n      dup2\n        /* \"#utility.yul\":7517:7538   */\n      tag_134\n      jump\t// in\n    tag_225:\n        /* \"#utility.yul\":7510:7515   */\n      dup2\n        /* \"#utility.yul\":7507:7539   */\n      eq\n        /* \"#utility.yul\":7497:7557   */\n      tag_226\n      jumpi\n        /* \"#utility.yul\":7553:7554   */\n      0x00\n        /* \"#utility.yul\":7550:7551   */\n      dup1\n        /* \"#utility.yul\":7543:7555   */\n      revert\n        /* \"#utility.yul\":7497:7557   */\n    tag_226:\n        /* \"#utility.yul\":7447:7563   */\n      pop\n      jump\t// out\n        /* \"#utility.yul\":7569:7706   */\n    tag_136:\n        /* \"#utility.yul\":7623:7628   */\n      0x00\n        /* \"#utility.yul\":7654:7660   */\n      dup2\n        /* \"#utility.yul\":7648:7661   */\n      mload\n        /* \"#utility.yul\":7639:7661   */\n      swap1\n      pop\n        /* \"#utility.yul\":7670:7700   */\n      tag_228\n        /* \"#utility.yul\":7694:7699   */\n      dup2\n        /* \"#utility.yul\":7670:7700   */\n      tag_135\n      jump\t// in\n    tag_228:\n        /* \"#utility.yul\":7569:7706   */\n      swap3\n      swap2\n      pop\n      pop\n      jump\t// out\n        /* \"#utility.yul\":7712:8057   */\n    tag_51:\n        /* \"#utility.yul\":7779:7785   */\n      0x00\n        /* \"#utility.yul\":7828:7830   */\n      0x20\n        /* \"#utility.yul\":7816:7825   */\n      dup3\n        /* \"#utility.yul\":7807:7814   */\n      dup5\n        /* \"#utility.yul\":7803:7826   */\n      sub\n        /* \"#utility.yul\":7799:7831   */\n      slt\n        /* \"#utility.yul\":7796:7915   */\n      iszero\n      tag_230\n      jumpi\n        /* \"#utility.yul\":7834:7913   */\n      tag_231\n      tag_110\n      jump\t// in\n    tag_231:\n        /* \"#utility.yul\":7796:7915   */\n    tag_230:\n        /* \"#utility.yul\":7954:7955   */\n      0x00\n        /* \"#utility.yul\":7979:8040   */\n      tag_232\n        /* \"#utility.yul\":8032:8039   */\n      dup5\n        /* \"#utility.yul\":8023:8029   */\n      dup3\n        /* \"#utility.yul\":8012:8021   */\n      dup6\n        /* \"#utility.yul\":8008:8030   */\n      add\n        /* \"#utility.yul\":7979:8040   */\n      tag_136\n      jump\t// in\n    tag_232:\n        /* \"#utility.yul\":7969:8040   */\n      swap2\n      pop\n        /* \"#utility.yul\":7925:8050   */\n      pop\n        /* \"#utility.yul\":7712:8057   */\n      swap3\n      swap2\n      pop\n      pop\n      jump\t// out\n        /* \"#utility.yul\":8063:8236   */\n    tag_137:\n        /* \"#utility.yul\":8203:8228   */\n      0x737461727420616e6420656e6420696e636f7272656374000000000000000000\n        /* \"#utility.yul\":8199:8200   */\n      0x00\n        /* \"#utility.yul\":8191:8197   */\n      dup3\n        /* \"#utility.yul\":8187:8201   */\n      add\n        /* \"#utility.yul\":8180:8229   */\n      mstore\n        /* \"#utility.yul\":8063:8236   */\n      pop\n      jump\t// out\n        /* \"#utility.yul\":8242:8608   */\n    tag_138:\n        /* \"#utility.yul\":8384:8387   */\n      0x00\n        /* \"#utility.yul\":8405:8472   */\n      tag_235\n        /* \"#utility.yul\":8469:8471   */\n      0x17\n        /* \"#utility.yul\":8464:8467   */\n      dup4\n        /* \"#utility.yul\":8405:8472   */\n      tag_124\n      jump\t// in\n    tag_235:\n        /* \"#utility.yul\":8398:8472   */\n      swap2\n      pop\n        /* \"#utility.yul\":8481:8574   */\n      tag_236\n        /* \"#utility.yul\":8570:8573   */\n      dup3\n        /* \"#utility.yul\":8481:8574   */\n      tag_137\n      jump\t// in\n    tag_236:\n        /* \"#utility.yul\":8599:8601   */\n      0x20\n        /* \"#utility.yul\":8594:8597   */\n      dup3\n        /* \"#utility.yul\":8590:8602   */\n      add\n        /* \"#utility.yul\":8583:8602   */\n      swap1\n      pop\n        /* \"#utility.yul\":8242:8608   */\n      swap2\n      swap1\n      pop\n      jump\t// out\n        /* \"#utility.yul\":8614:9033   */\n    tag_55:\n        /* \"#utility.yul\":8780:8784   */\n      0x00\n        /* \"#utility.yul\":8818:8820   */\n      0x20\n        /* \"#utility.yul\":8807:8816   */\n      dup3\n        /* \"#utility.yul\":8803:8821   */\n      add\n        /* \"#utility.yul\":8795:8821   */\n      swap1\n      pop\n        /* \"#utility.yul\":8867:8876   */\n      dup2\n        /* \"#utility.yul\":8861:8865   */\n      dup2\n        /* \"#utility.yul\":8857:8877   */\n      sub\n        /* \"#utility.yul\":8853:8854   */\n      0x00\n        /* \"#utility.yul\":8842:8851   */\n      dup4\n        /* \"#utility.yul\":8838:8855   */\n      add\n        /* \"#utility.yul\":8831:8878   */\n      mstore\n        /* \"#utility.yul\":8895:9026   */\n      tag_238\n        /* \"#utility.yul\":9021:9025   */\n      dup2\n        /* \"#utility.yul\":8895:9026   */\n      tag_138\n      jump\t// in\n    tag_238:\n        /* \"#utility.yul\":8887:9026   */\n      swap1\n      pop\n        /* \"#utility.yul\":8614:9033   */\n      swap2\n      swap1\n      pop\n      jump\t// out\n        /* \"#utility.yul\":9039:9219   */\n    tag_139:\n        /* \"#utility.yul\":9087:9164   */\n      0x4e487b7100000000000000000000000000000000000000000000000000000000\n        /* \"#utility.yul\":9084:9085   */\n      0x00\n        /* \"#utility.yul\":9077:9165   */\n      mstore\n        /* \"#utility.yul\":9184:9188   */\n      0x11\n        /* \"#utility.yul\":9181:9182   */\n      0x04\n        /* \"#utility.yul\":9174:9189   */\n      mstore\n        /* \"#utility.yul\":9208:9212   */\n      0x24\n        /* \"#utility.yul\":9205:9206   */\n      0x00\n        /* \"#utility.yul\":9198:9213   */\n      revert\n        /* \"#utility.yul\":9225:9471   */\n    tag_57:\n        /* \"#utility.yul\":9264:9267   */\n      0x00\n        /* \"#utility.yul\":9283:9302   */\n      tag_241\n        /* \"#utility.yul\":9300:9301   */\n      dup3\n        /* \"#utility.yul\":9283:9302   */\n      tag_115\n      jump\t// in\n    tag_241:\n        /* \"#utility.yul\":9278:9302   */\n      swap2\n      pop\n        /* \"#utility.yul\":9316:9335   */\n      tag_242\n        /* \"#utility.yul\":9333:9334   */\n      dup4\n        /* \"#utility.yul\":9316:9335   */\n      tag_115\n      jump\t// in\n    tag_242:\n        /* \"#utility.yul\":9311:9335   */\n      swap3\n      pop\n        /* \"#utility.yul\":9413:9414   */\n      dup3\n        /* \"#utility.yul\":9401:9411   */\n      0xffffffff\n        /* \"#utility.yul\":9397:9415   */\n      sub\n        /* \"#utility.yul\":9394:9395   */\n      dup3\n        /* \"#utility.yul\":9391:9416   */\n      gt\n        /* \"#utility.yul\":9388:9439   */\n      iszero\n      tag_243\n      jumpi\n        /* \"#utility.yul\":9419:9437   */\n      tag_244\n      tag_139\n      jump\t// in\n    tag_244:\n        /* \"#utility.yul\":9388:9439   */\n    tag_243:\n        /* \"#utility.yul\":9463:9464   */\n      dup3\n        /* \"#utility.yul\":9460:9461   */\n      dup3\n        /* \"#utility.yul\":9456:9465   */\n      add\n        /* \"#utility.yul\":9449:9465   */\n      swap1\n      pop\n        /* \"#utility.yul\":9225:9471   */\n      swap3\n      swap2\n      pop\n      pop\n      jump\t// out\n        /* \"#utility.yul\":9477:9644   */\n    tag_140:\n        /* \"#utility.yul\":9617:9636   */\n      0x746f6f206c6f6e672063616d706169676e000000000000000000000000000000\n        /* \"#utility.yul\":9613:9614   */\n      0x00\n        /* \"#utility.yul\":9605:9611   */\n      dup3\n        /* \"#utility.yul\":9601:9615   */\n      add\n        /* \"#utility.yul\":9594:9637   */\n      mstore\n        /* \"#utility.yul\":9477:9644   */\n      pop\n      jump\t// out\n        /* \"#utility.yul\":9650:10016   */\n    tag_141:\n        /* \"#utility.yul\":9792:9795   */\n      0x00\n        /* \"#utility.yul\":9813:9880   */\n      tag_247\n        /* \"#utility.yul\":9877:9879   */\n      0x11\n        /* \"#utility.yul\":9872:9875   */\n      dup4\n        /* \"#utility.yul\":9813:9880   */\n      tag_124\n      jump\t// in\n    tag_247:\n        /* \"#utility.yul\":9806:9880   */\n      swap2\n      pop\n        /* \"#utility.yul\":9889:9982   */\n      tag_248\n        /* \"#utility.yul\":9978:9981   */\n      dup3\n        /* \"#utility.yul\":9889:9982   */\n      tag_140\n      jump\t// in\n    tag_248:\n        /* \"#utility.yul\":10007:10009   */\n      0x20\n        /* \"#utility.yul\":10002:10005   */\n      dup3\n        /* \"#utility.yul\":9998:10010   */\n      add\n        /* \"#utility.yul\":9991:10010   */\n      swap1\n      pop\n        /* \"#utility.yul\":9650:10016   */\n      swap2\n      swap1\n      pop\n      jump\t// out\n        /* \"#utility.yul\":10022:10441   */\n    tag_60:\n        /* \"#utility.yul\":10188:10192   */\n      0x00\n        /* \"#utility.yul\":10226:10228   */\n      0x20\n        /* \"#utility.yul\":10215:10224   */\n      dup3\n        /* \"#utility.yul\":10211:10229   */\n      add\n        /* \"#utility.yul\":10203:10229   */\n      swap1\n      pop\n        /* \"#utility.yul\":10275:10284   */\n      dup2\n        /* \"#utility.yul\":10269:10273   */\n      dup2\n        /* \"#utility.yul\":10265:10285   */\n      sub\n        /* \"#utility.yul\":10261:10262   */\n      0x00\n        /* \"#utility.yul\":10250:10259   */\n      dup4\n        /* \"#utility.yul\":10246:10263   */\n      add\n        /* \"#utility.yul\":10239:10286   */\n      mstore\n        /* \"#utility.yul\":10303:10434   */\n      tag_250\n        /* \"#utility.yul\":10429:10433   */\n      dup2\n        /* \"#utility.yul\":10303:10434   */\n      tag_141\n      jump\t// in\n    tag_250:\n        /* \"#utility.yul\":10295:10434   */\n      swap1\n      pop\n        /* \"#utility.yul\":10022:10441   */\n      swap2\n      swap1\n      pop\n      jump\t// out\n        /* \"#utility.yul\":10447:10752   */\n    tag_62:\n        /* \"#utility.yul\":10487:10490   */\n      0x00\n        /* \"#utility.yul\":10506:10526   */\n      tag_252\n        /* \"#utility.yul\":10524:10525   */\n      dup3\n        /* \"#utility.yul\":10506:10526   */\n      tag_112\n      jump\t// in\n    tag_252:\n        /* \"#utility.yul\":10501:10526   */\n      swap2\n      pop\n        /* \"#utility.yul\":10540:10560   */\n      tag_253\n        /* \"#utility.yul\":10558:10559   */\n      dup4\n        /* \"#utility.yul\":10540:10560   */\n      tag_112\n      jump\t// in\n    tag_253:\n        /* \"#utility.yul\":10535:10560   */\n      swap3\n      pop\n        /* \"#utility.yul\":10694:10695   */\n      dup3\n        /* \"#utility.yul\":10626:10692   */\n      0xffffffffffffffffffffffffffffffffffffffffffffffffffffffffffffffff\n        /* \"#utility.yul\":10622:10696   */\n      sub\n        /* \"#utility.yul\":10619:10620   */\n      dup3\n        /* \"#utility.yul\":10616:10697   */\n      gt\n        /* \"#utility.yul\":10613:10720   */\n      iszero\n      tag_254\n      jumpi\n        /* \"#utility.yul\":10700:10718   */\n      tag_255\n      tag_139\n      jump\t// in\n    tag_255:\n        /* \"#utility.yul\":10613:10720   */\n    tag_254:\n        /* \"#utility.yul\":10744:10745   */\n      dup3\n        /* \"#utility.yul\":10741:10742   */\n      dup3\n        /* \"#utility.yul\":10737:10746   */\n      add\n        /* \"#utility.yul\":10730:10746   */\n      swap1\n      pop\n        /* \"#utility.yul\":10447:10752   */\n      swap3\n      swap2\n      pop\n      pop\n      jump\t// out\n        /* \"#utility.yul\":10758:10919   */\n    tag_142:\n        /* \"#utility.yul\":10898:10911   */\n      0x6e6f742063726561746f72000000000000000000000000000000000000000000\n        /* \"#utility.yul\":10894:10895   */\n      0x00\n        /* \"#utility.yul\":10886:10892   */\n      dup3\n        /* \"#utility.yul\":10882:10896   */\n      add\n        /* \"#utility.yul\":10875:10912   */\n      mstore\n        /* \"#utility.yul\":10758:10919   */\n      pop\n      jump\t// out\n        /* \"#utility.yul\":10925:11291   */\n    tag_143:\n        /* \"#utility.yul\":11067:11070   */\n      0x00\n        /* \"#utility.yul\":11088:11155   */\n      tag_258\n        /* \"#utility.yul\":11152:11154   */\n      0x0b\n        /* \"#utility.yul\":11147:11150   */\n      dup4\n        /* \"#utility.yul\":11088:11155   */\n      tag_124\n      jump\t// in\n    tag_258:\n        /* \"#utility.yul\":11081:11155   */\n      swap2\n      pop\n        /* \"#utility.yul\":11164:11257   */\n      tag_259\n        /* \"#utility.yul\":11253:11256   */\n      dup3\n        /* \"#utility.yul\":11164:11257   */\n      tag_142\n      jump\t// in\n    tag_259:\n        /* \"#utility.yul\":11282:11284   */\n      0x20\n        /* \"#utility.yul\":11277:11280   */\n      dup3\n        /* \"#utility.yul\":11273:11285   */\n      add\n        /* \"#utility.yul\":11266:11285   */\n      swap1\n      pop\n        /* \"#utility.yul\":10925:11291   */\n      swap2\n      swap1\n      pop\n      jump\t// out\n        /* \"#utility.yul\":11297:11716   */\n    tag_70:\n        /* \"#utility.yul\":11463:11467   */\n      0x00\n        /* \"#utility.yul\":11501:11503   */\n      0x20\n        /* \"#utility.yul\":11490:11499   */\n      dup3\n        /* \"#utility.yul\":11486:11504   */\n      add\n        /* \"#utility.yul\":11478:11504   */\n      swap1\n      pop\n        /* \"#utility.yul\":11550:11559   */\n      dup2\n        /* \"#utility.yul\":11544:11548   */\n      dup2\n        /* \"#utility.yul\":11540:11560   */\n      sub\n        /* \"#utility.yul\":11536:11537   */\n      0x00\n        /* \"#utility.yul\":11525:11534   */\n      dup4\n        /* \"#utility.yul\":11521:11538   */\n      add\n        /* \"#utility.yul\":11514:11561   */\n      mstore\n        /* \"#utility.yul\":11578:11709   */\n      tag_261\n        /* \"#utility.yul\":11704:11708   */\n      dup2\n        /* \"#utility.yul\":11578:11709   */\n      tag_143\n      jump\t// in\n    tag_261:\n        /* \"#utility.yul\":11570:11709   */\n      swap1\n      pop\n        /* \"#utility.yul\":11297:11716   */\n      swap2\n      swap1\n      pop\n      jump\t// out\n        /* \"#utility.yul\":11722:11881   */\n    tag_144:\n        /* \"#utility.yul\":11862:11873   */\n      0x6e6f7420656e6f67680000000000000000000000000000000000000000000000\n        /* \"#utility.yul\":11858:11859   */\n      0x00\n        /* \"#utility.yul\":11850:11856   */\n      dup3\n        /* \"#utility.yul\":11846:11860   */\n      add\n        /* \"#utility.yul\":11839:11874   */\n      mstore\n        /* \"#utility.yul\":11722:11881   */\n      pop\n      jump\t// out\n        /* \"#utility.yul\":11887:12252   */\n    tag_145:\n        /* \"#utility.yul\":12029:12032   */\n      0x00\n        /* \"#utility.yul\":12050:12116   */\n      tag_264\n        /* \"#utility.yul\":12114:12115   */\n      0x09\n        /* \"#utility.yul\":12109:12112   */\n      dup4\n        /* \"#utility.yul\":12050:12116   */\n      tag_124\n      jump\t// in\n    tag_264:\n        /* \"#utility.yul\":12043:12116   */\n      swap2\n      pop\n        /* \"#utility.yul\":12125:12218   */\n      tag_265\n        /* \"#utility.yul\":12214:12217   */\n      dup3\n        /* \"#utility.yul\":12125:12218   */\n      tag_144\n      jump\t// in\n    tag_265:\n        /* \"#utility.yul\":12243:12245   */\n      0x20\n        /* \"#utility.yul\":12238:12241   */\n      dup3\n        /* \"#utility.yul\":12234:12246   */\n      add\n        /* \"#utility.yul\":12227:12246   */\n      swap1\n      pop\n        /* \"#utility.yul\":11887:12252   */\n      swap2\n      swap1\n      pop\n      jump\t// out\n        /* \"#utility.yul\":12258:12677   */\n    tag_73:\n        /* \"#utility.yul\":12424:12428   */\n      0x00\n        /* \"#utility.yul\":12462:12464   */\n      0x20\n        /* \"#utility.yul\":12451:12460   */\n      dup3\n        /* \"#utility.yul\":12447:12465   */\n      add\n        /* \"#utility.yul\":12439:12465   */\n      swap1\n      pop\n        /* \"#utility.yul\":12511:12520   */\n      dup2\n        /* \"#utility.yul\":12505:12509   */\n      dup2\n        /* \"#utility.yul\":12501:12521   */\n      sub\n        /* \"#utility.yul\":12497:12498   */\n      0x00\n        /* \"#utility.yul\":12486:12495   */\n      dup4\n        /* \"#utility.yul\":12482:12499   */\n      add\n        /* \"#utility.yul\":12475:12522   */\n      mstore\n        /* \"#utility.yul\":12539:12670   */\n      tag_267\n        /* \"#utility.yul\":12665:12669   */\n      dup2\n        /* \"#utility.yul\":12539:12670   */\n      tag_145\n      jump\t// in\n    tag_267:\n        /* \"#utility.yul\":12531:12670   */\n      swap1\n      pop\n        /* \"#utility.yul\":12258:12677   */\n      swap2\n      swap1\n      pop\n      jump\t// out\n        /* \"#utility.yul\":12683:12840   */\n    tag_146:\n        /* \"#utility.yul\":12823:12832   */\n      0x636c61696d656400000000000000000000000000000000000000000000000000\n        /* \"#utility.yul\":12819:12820   */\n      0x00\n        /* \"#utility.yul\":12811:12817   */\n      dup3\n        /* \"#utility.yul\":12807:12821   */\n      add\n        /* \"#utility.yul\":12800:12833   */\n      mstore\n        /* \"#utility.yul\":12683:12840   */\n      pop\n      jump\t// out\n        /* \"#utility.yul\":12846:13211   */\n    tag_147:\n        /* \"#utility.yul\":12988:12991   */\n      0x00\n        /* \"#utility.yul\":13009:13075   */\n      tag_270\n        /* \"#utility.yul\":13073:13074   */\n      0x07\n        /* \"#utility.yul\":13068:13071   */\n      dup4\n        /* \"#utility.yul\":13009:13075   */\n      tag_124\n      jump\t// in\n    tag_270:\n        /* \"#utility.yul\":13002:13075   */\n      swap2\n      pop\n        /* \"#utility.yul\":13084:13177   */\n      tag_271\n        /* \"#utility.yul\":13173:13176   */\n      dup3\n        /* \"#utility.yul\":13084:13177   */\n      tag_146\n      jump\t// in\n    tag_271:\n        /* \"#utility.yul\":13202:13204   */\n      0x20\n        /* \"#utility.yul\":13197:13200   */\n      dup3\n        /* \"#utility.yul\":13193:13205   */\n      add\n        /* \"#utility.yul\":13186:13205   */\n      swap1\n      pop\n        /* \"#utility.yul\":12846:13211   */\n      swap2\n      swap1\n      pop\n      jump\t// out\n        /* \"#utility.yul\":13217:13636   */\n    tag_76:\n        /* \"#utility.yul\":13383:13387   */\n      0x00\n        /* \"#utility.yul\":13421:13423   */\n      0x20\n        /* \"#utility.yul\":13410:13419   */\n      dup3\n        /* \"#utility.yul\":13406:13424   */\n      add\n        /* \"#utility.yul\":13398:13424   */\n      swap1\n      pop\n        /* \"#utility.yul\":13470:13479   */\n      dup2\n        /* \"#utility.yul\":13464:13468   */\n      dup2\n        /* \"#utility.yul\":13460:13480   */\n      sub\n        /* \"#utility.yul\":13456:13457   */\n      0x00\n        /* \"#utility.yul\":13445:13454   */\n      dup4\n        /* \"#utility.yul\":13441:13458   */\n      add\n        /* \"#utility.yul\":13434:13481   */\n      mstore\n        /* \"#utility.yul\":13498:13629   */\n      tag_273\n        /* \"#utility.yul\":13624:13628   */\n      dup2\n        /* \"#utility.yul\":13498:13629   */\n      tag_147\n      jump\t// in\n    tag_273:\n        /* \"#utility.yul\":13490:13629   */\n      swap1\n      pop\n        /* \"#utility.yul\":13217:13636   */\n      swap2\n      swap1\n      pop\n      jump\t// out\n        /* \"#utility.yul\":13642:13797   */\n    tag_148:\n        /* \"#utility.yul\":13782:13789   */\n      0x656e646564000000000000000000000000000000000000000000000000000000\n        /* \"#utility.yul\":13778:13779   */\n      0x00\n        /* \"#utility.yul\":13770:13776   */\n      dup3\n        /* \"#utility.yul\":13766:13780   */\n      add\n        /* \"#utility.yul\":13759:13790   */\n      mstore\n        /* \"#utility.yul\":13642:13797   */\n      pop\n      jump\t// out\n        /* \"#utility.yul\":13803:14168   */\n    tag_149:\n        /* \"#utility.yul\":13945:13948   */\n      0x00\n        /* \"#utility.yul\":13966:14032   */\n      tag_276\n        /* \"#utility.yul\":14030:14031   */\n      0x05\n        /* \"#utility.yul\":14025:14028   */\n      dup4\n        /* \"#utility.yul\":13966:14032   */\n      tag_124\n      jump\t// in\n    tag_276:\n        /* \"#utility.yul\":13959:14032   */\n      swap2\n      pop\n        /* \"#utility.yul\":14041:14134   */\n      tag_277\n        /* \"#utility.yul\":14130:14133   */\n      dup3\n        /* \"#utility.yul\":14041:14134   */\n      tag_148\n      jump\t// in\n    tag_277:\n        /* \"#utility.yul\":14159:14161   */\n      0x20\n        /* \"#utility.yul\":14154:14157   */\n      dup3\n        /* \"#utility.yul\":14150:14162   */\n      add\n        /* \"#utility.yul\":14143:14162   */\n      swap1\n      pop\n        /* \"#utility.yul\":13803:14168   */\n      swap2\n      swap1\n      pop\n      jump\t// out\n        /* \"#utility.yul\":14174:14593   */\n    tag_89:\n        /* \"#utility.yul\":14340:14344   */\n      0x00\n        /* \"#utility.yul\":14378:14380   */\n      0x20\n        /* \"#utility.yul\":14367:14376   */\n      dup3\n        /* \"#utility.yul\":14363:14381   */\n      add\n        /* \"#utility.yul\":14355:14381   */\n      swap1\n      pop\n        /* \"#utility.yul\":14427:14436   */\n      dup2\n        /* \"#utility.yul\":14421:14425   */\n      dup2\n        /* \"#utility.yul\":14417:14437   */\n      sub\n        /* \"#utility.yul\":14413:14414   */\n      0x00\n        /* \"#utility.yul\":14402:14411   */\n      dup4\n        /* \"#utility.yul\":14398:14415   */\n      add\n        /* \"#utility.yul\":14391:14438   */\n      mstore\n        /* \"#utility.yul\":14455:14586   */\n      tag_279\n        /* \"#utility.yul\":14581:14585   */\n      dup2\n        /* \"#utility.yul\":14455:14586   */\n      tag_149\n      jump\t// in\n    tag_279:\n        /* \"#utility.yul\":14447:14586   */\n      swap1\n      pop\n        /* \"#utility.yul\":14174:14593   */\n      swap2\n      swap1\n      pop\n      jump\t// out\n        /* \"#utility.yul\":14599:14790   */\n    tag_91:\n        /* \"#utility.yul\":14639:14643   */\n      0x00\n        /* \"#utility.yul\":14659:14679   */\n      tag_281\n        /* \"#utility.yul\":14677:14678   */\n      dup3\n        /* \"#utility.yul\":14659:14679   */\n      tag_112\n      jump\t// in\n    tag_281:\n        /* \"#utility.yul\":14654:14679   */\n      swap2\n      pop\n        /* \"#utility.yul\":14693:14713   */\n      tag_282\n        /* \"#utility.yul\":14711:14712   */\n      dup4\n        /* \"#utility.yul\":14693:14713   */\n      tag_112\n      jump\t// in\n    tag_282:\n        /* \"#utility.yul\":14688:14713   */\n      swap3\n      pop\n        /* \"#utility.yul\":14732:14733   */\n      dup3\n        /* \"#utility.yul\":14729:14730   */\n      dup3\n        /* \"#utility.yul\":14726:14734   */\n      lt\n        /* \"#utility.yul\":14723:14757   */\n      iszero\n      tag_283\n      jumpi\n        /* \"#utility.yul\":14737:14755   */\n      tag_284\n      tag_139\n      jump\t// in\n    tag_284:\n        /* \"#utility.yul\":14723:14757   */\n    tag_283:\n        /* \"#utility.yul\":14782:14783   */\n      dup3\n        /* \"#utility.yul\":14779:14780   */\n      dup3\n        /* \"#utility.yul\":14775:14784   */\n      sub\n        /* \"#utility.yul\":14767:14784   */\n      swap1\n      pop\n        /* \"#utility.yul\":14599:14790   */\n      swap3\n      swap2\n      pop\n      pop\n      jump\t// out\n        /* \"#utility.yul\":14796:15238   */\n    tag_105:\n        /* \"#utility.yul\":14945:14949   */\n      0x00\n        /* \"#utility.yul\":14983:14985   */\n      0x60\n        /* \"#utility.yul\":14972:14981   */\n      dup3\n        /* \"#utility.yul\":14968:14986   */\n      add\n        /* \"#utility.yul\":14960:14986   */\n      swap1\n      pop\n        /* \"#utility.yul\":14996:15067   */\n      tag_286\n        /* \"#utility.yul\":15064:15065   */\n      0x00\n        /* \"#utility.yul\":15053:15062   */\n      dup4\n        /* \"#utility.yul\":15049:15066   */\n      add\n        /* \"#utility.yul\":15040:15046   */\n      dup7\n        /* \"#utility.yul\":14996:15067   */\n      tag_132\n      jump\t// in\n    tag_286:\n        /* \"#utility.yul\":15077:15149   */\n      tag_287\n        /* \"#utility.yul\":15145:15147   */\n      0x20\n        /* \"#utility.yul\":15134:15143   */\n      dup4\n        /* \"#utility.yul\":15130:15148   */\n      add\n        /* \"#utility.yul\":15121:15127   */\n      dup6\n        /* \"#utility.yul\":15077:15149   */\n      tag_132\n      jump\t// in\n    tag_287:\n        /* \"#utility.yul\":15159:15231   */\n      tag_288\n        /* \"#utility.yul\":15227:15229   */\n      0x40\n        /* \"#utility.yul\":15216:15225   */\n      dup4\n        /* \"#utility.yul\":15212:15230   */\n      add\n        /* \"#utility.yul\":15203:15209   */\n      dup5\n        /* \"#utility.yul\":15159:15231   */\n      tag_133\n      jump\t// in\n    tag_288:\n        /* \"#utility.yul\":14796:15238   */\n      swap5\n      swap4\n      pop\n      pop\n      pop\n      pop\n      jump\t// out\n\n    auxdata: 0xa2646970667358221220d24a6c8b72a502344116e723b847178e9e756cb4e184923535c522cb37f85c6364736f6c634300080f0033\n}\n",
				"bytecode": {
					"linkReferences": {},
					"object": "60a06040523480156200001157600080fd5b506040516200178e3803806200178e8339818101604052810190620000379190620000dc565b8073ffffffffffffffffffffffffffffffffffffffff1660808173ffffffffffffffffffffffffffffffffffffffff1681525050506200010e565b600080fd5b600073ffffffffffffffffffffffffffffffffffffffff82169050919050565b6000620000a48262000077565b9050919050565b620000b68162000097565b8114620000c257600080fd5b50565b600081519050620000d681620000ab565b92915050565b600060208284031215620000f557620000f462000072565b5b60006200010584828501620000c5565b91505092915050565b608051611648620001466000396000818161030e015281816107c801528181610b9901528181610c3d0152610db201526116486000f3fe608060405234801561001057600080fd5b506004361061007d5760003560e01c806340e58ee51161005b57806340e58ee5146100d6578063711853ab146100f2578063fc0c546a1461010e578063fde327be1461012c5761007d565b8063278ecde1146100825780632c63f1461461009e578063379607f5146100ba575b600080fd5b61009c60048036038101906100979190610e91565b610148565b005b6100b860048036038101906100b39190610efa565b6103b0565b005b6100d460048036038101906100cf9190610e91565b6105ab565b005b6100f060048036038101906100eb9190610e91565b61086d565b005b61010c60048036038101906101079190610f4d565b610a46565b005b610116610c3b565b604051610123919061100c565b60405180910390f35b61014660048036038101906101419190610f4d565b610c5f565b005b60006001600083815260200190815260200160002090508060030160009054906101000a900463ffffffff1663ffffffff1642116101bb576040517f08c379a00000000000000000000000000000000000000000000000000000000081526004016101b290611084565b60405180910390fd5b8060030160049054906101000a900463ffffffff1663ffffffff164211610217576040517f08c379a000000000000000000000000000000000000000000000000000000000815260040161020e906110f0565b60405180910390fd5b8060010154816002015410610261576040517f08c379a000000000000000000000000000000000000000000000000000000000815260040161025890611182565b60405180910390fd5b60006002600084815260200190815260200160002060003373ffffffffffffffffffffffffffffffffffffffff1673ffffffffffffffffffffffffffffffffffffffff16815260200190815260200160002054905060006002600085815260200190815260200160002060003373ffffffffffffffffffffffffffffffffffffffff1673ffffffffffffffffffffffffffffffffffffffff168152602001908152602001600020819055507f000000000000000000000000000000000000000000000000000000000000000073ffffffffffffffffffffffffffffffffffffffff1663a9059cbb33836040518363ffffffff1660e01b81526004016103679291906111d2565b6020604051808303816000875af1158015610386573d6000803e3d6000fd5b505050506040513d601f19601f820116820180604052508101906103aa9190611233565b50505050565b8063ffffffff168263ffffffff16106103fe576040517f08c379a00000000000000000000000000000000000000000000000000000000081526004016103f5906112ac565b60405180910390fd5b6276a7008161040d91906112fb565b63ffffffff168263ffffffff161061045a576040517f08c379a000000000000000000000000000000000000000000000000000000000815260040161045190611381565b60405180910390fd5b600160008082825461046c91906113a1565b925050819055506040518060c001604052803373ffffffffffffffffffffffffffffffffffffffff168152602001848152602001600081526020018363ffffffff1681526020018263ffffffff16815260200160001515815250600160008054815260200190815260200160002060008201518160000160006101000a81548173ffffffffffffffffffffffffffffffffffffffff021916908373ffffffffffffffffffffffffffffffffffffffff160217905550602082015181600101556040820151816002015560608201518160030160006101000a81548163ffffffff021916908363ffffffff16021790555060808201518160030160046101000a81548163ffffffff021916908363ffffffff16021790555060a08201518160030160086101000a81548160ff021916908315150217905550905050505050565b60006001600083815260200190815260200160002090508060030160009054906101000a900463ffffffff1663ffffffff16421161061e576040517f08c379a000000000000000000000000000000000000000000000000000000000815260040161061590611084565b60405180910390fd5b8060030160049054906101000a900463ffffffff1663ffffffff16421161067a576040517f08c379a0000000000000000000000000000000000000000000000000000000008152600401610671906110f0565b60405180910390fd5b8060000160009054906101000a900473ffffffffffffffffffffffffffffffffffffffff1673ffffffffffffffffffffffffffffffffffffffff163373ffffffffffffffffffffffffffffffffffffffff161461070c576040517f08c379a000000000000000000000000000000000000000000000000000000000815260040161070390611443565b60405180910390fd5b806001015481600201541015610757576040517f08c379a000000000000000000000000000000000000000000000000000000000815260040161074e906114af565b60405180910390fd5b8060030160089054906101000a900460ff16156107a9576040517f08c379a00000000000000000000000000000000000000000000000000000000081526004016107a09061151b565b60405180910390fd5b60018160030160086101000a81548160ff0219169083151502179055507f000000000000000000000000000000000000000000000000000000000000000073ffffffffffffffffffffffffffffffffffffffff1663a9059cbb3383600201546040518363ffffffff1660e01b81526004016108259291906111d2565b6020604051808303816000875af1158015610844573d6000803e3d6000fd5b505050506040513d601f19601f820116820180604052508101906108689190611233565b505050565b6000600160008381526020019081526020016000206040518060c00160405290816000820160009054906101000a900473ffffffffffffffffffffffffffffffffffffffff1673ffffffffffffffffffffffffffffffffffffffff1673ffffffffffffffffffffffffffffffffffffffff16815260200160018201548152602001600282015481526020016003820160009054906101000a900463ffffffff1663ffffffff1663ffffffff1681526020016003820160049054906101000a900463ffffffff1663ffffffff1663ffffffff1681526020016003820160089054906101000a900460ff1615151515815250509050806000015173ffffffffffffffffffffffffffffffffffffffff163373ffffffffffffffffffffffffffffffffffffffff161461099c57600080fd5b806060015163ffffffff164210156109b357600080fd5b60016000838152602001908152602001600020600080820160006101000a81549073ffffffffffffffffffffffffffffffffffffffff0219169055600182016000905560028201600090556003820160006101000a81549063ffffffff02191690556003820160046101000a81549063ffffffff02191690556003820160086101000a81549060ff021916905550505050565b60006001600084815260200190815260200160002090508060030160009054906101000a900463ffffffff1663ffffffff164211610ab9576040517f08c379a0000000000000000000000000000000000000000000000000000000008152600401610ab090611084565b60405180910390fd5b8060030160049054906101000a900463ffffffff1663ffffffff164210610b15576040517f08c379a0000000000000000000000000000000000000000000000000000000008152600401610b0c90611587565b60405180910390fd5b81816002016000828254610b2991906115a7565b92505081905550816002600085815260200190815260200160002060003373ffffffffffffffffffffffffffffffffffffffff1673ffffffffffffffffffffffffffffffffffffffff1681526020019081526020016000206000828254610b9091906115a7565b925050819055507f000000000000000000000000000000000000000000000000000000000000000073ffffffffffffffffffffffffffffffffffffffff1663a9059cbb33846040518363ffffffff1660e01b8152600401610bf29291906111d2565b6020604051808303816000875af1158015610c11573d6000803e3d6000fd5b505050506040513d601f19601f82011682018060405250810190610c359190611233565b50505050565b7f000000000000000000000000000000000000000000000000000000000000000081565b60006001600084815260200190815260200160002090508060030160009054906101000a900463ffffffff1663ffffffff164211610cd2576040517f08c379a0000000000000000000000000000000000000000000000000000000008152600401610cc990611084565b60405180910390fd5b8060030160049054906101000a900463ffffffff1663ffffffff164210610d2e576040517f08c379a0000000000000000000000000000000000000000000000000000000008152600401610d2590611587565b60405180910390fd5b81816002016000828254610d4291906113a1565b92505081905550816002600085815260200190815260200160002060003373ffffffffffffffffffffffffffffffffffffffff1673ffffffffffffffffffffffffffffffffffffffff1681526020019081526020016000206000828254610da991906113a1565b925050819055507f000000000000000000000000000000000000000000000000000000000000000073ffffffffffffffffffffffffffffffffffffffff166323b872dd3330856040518463ffffffff1660e01b8152600401610e0d939291906115db565b6020604051808303816000875af1158015610e2c573d6000803e3d6000fd5b505050506040513d601f19601f82011682018060405250810190610e509190611233565b50505050565b600080fd5b6000819050919050565b610e6e81610e5b565b8114610e7957600080fd5b50565b600081359050610e8b81610e65565b92915050565b600060208284031215610ea757610ea6610e56565b5b6000610eb584828501610e7c565b91505092915050565b600063ffffffff82169050919050565b610ed781610ebe565b8114610ee257600080fd5b50565b600081359050610ef481610ece565b92915050565b600080600060608486031215610f1357610f12610e56565b5b6000610f2186828701610e7c565b9350506020610f3286828701610ee5565b9250506040610f4386828701610ee5565b9150509250925092565b60008060408385031215610f6457610f63610e56565b5b6000610f7285828601610e7c565b9250506020610f8385828601610e7c565b9150509250929050565b600073ffffffffffffffffffffffffffffffffffffffff82169050919050565b6000819050919050565b6000610fd2610fcd610fc884610f8d565b610fad565b610f8d565b9050919050565b6000610fe482610fb7565b9050919050565b6000610ff682610fd9565b9050919050565b61100681610feb565b82525050565b60006020820190506110216000830184610ffd565b92915050565b600082825260208201905092915050565b7f6e6f742073746172746564000000000000000000000000000000000000000000600082015250565b600061106e600b83611027565b915061107982611038565b602082019050919050565b6000602082019050818103600083015261109d81611061565b9050919050565b7f6e6f7420656e6465640000000000000000000000000000000000000000000000600082015250565b60006110da600983611027565b91506110e5826110a4565b602082019050919050565b60006020820190508181036000830152611109816110cd565b9050919050565b7f69747320616c726561647920636f6c6c65637465642c2063616e74207265667560008201527f6e64000000000000000000000000000000000000000000000000000000000000602082015250565b600061116c602283611027565b915061117782611110565b604082019050919050565b6000602082019050818103600083015261119b8161115f565b9050919050565b60006111ad82610f8d565b9050919050565b6111bd816111a2565b82525050565b6111cc81610e5b565b82525050565b60006040820190506111e760008301856111b4565b6111f460208301846111c3565b9392505050565b60008115159050919050565b611210816111fb565b811461121b57600080fd5b50565b60008151905061122d81611207565b92915050565b60006020828403121561124957611248610e56565b5b60006112578482850161121e565b91505092915050565b7f737461727420616e6420656e6420696e636f7272656374000000000000000000600082015250565b6000611296601783611027565b91506112a182611260565b602082019050919050565b600060208201905081810360008301526112c581611289565b9050919050565b7f4e487b7100000000000000000000000000000000000000000000000000000000600052601160045260246000fd5b600061130682610ebe565b915061131183610ebe565b92508263ffffffff0382111561132a576113296112cc565b5b828201905092915050565b7f746f6f206c6f6e672063616d706169676e000000000000000000000000000000600082015250565b600061136b601183611027565b915061137682611335565b602082019050919050565b6000602082019050818103600083015261139a8161135e565b9050919050565b60006113ac82610e5b565b91506113b783610e5b565b9250827fffffffffffffffffffffffffffffffffffffffffffffffffffffffffffffffff038211156113ec576113eb6112cc565b5b828201905092915050565b7f6e6f742063726561746f72000000000000000000000000000000000000000000600082015250565b600061142d600b83611027565b9150611438826113f7565b602082019050919050565b6000602082019050818103600083015261145c81611420565b9050919050565b7f6e6f7420656e6f67680000000000000000000000000000000000000000000000600082015250565b6000611499600983611027565b91506114a482611463565b602082019050919050565b600060208201905081810360008301526114c88161148c565b9050919050565b7f636c61696d656400000000000000000000000000000000000000000000000000600082015250565b6000611505600783611027565b9150611510826114cf565b602082019050919050565b60006020820190508181036000830152611534816114f8565b9050919050565b7f656e646564000000000000000000000000000000000000000000000000000000600082015250565b6000611571600583611027565b915061157c8261153b565b602082019050919050565b600060208201905081810360008301526115a081611564565b9050919050565b60006115b282610e5b565b91506115bd83610e5b565b9250828210156115d0576115cf6112cc565b5b828203905092915050565b60006060820190506115f060008301866111b4565b6115fd60208301856111b4565b61160a60408301846111c3565b94935050505056fea2646970667358221220d24a6c8b72a502344116e723b847178e9e756cb4e184923535c522cb37f85c6364736f6c634300080f0033",
					"opcodes": "PUSH1 0xA0 PUSH1 0x40 MSTORE CALLVALUE DUP1 ISZERO PUSH3 0x11 JUMPI PUSH1 0x0 DUP1 REVERT JUMPDEST POP PUSH1 0x40 MLOAD PUSH3 0x178E CODESIZE SUB DUP1 PUSH3 0x178E DUP4 CODECOPY DUP2 DUP2 ADD PUSH1 0x40 MSTORE DUP2 ADD SWAP1 PUSH3 0x37 SWAP2 SWAP1 PUSH3 0xDC JUMP JUMPDEST DUP1 PUSH20 0xFFFFFFFFFFFFFFFFFFFFFFFFFFFFFFFFFFFFFFFF AND PUSH1 0x80 DUP2 PUSH20 0xFFFFFFFFFFFFFFFFFFFFFFFFFFFFFFFFFFFFFFFF AND DUP2 MSTORE POP POP POP PUSH3 0x10E JUMP JUMPDEST PUSH1 0x0 DUP1 REVERT JUMPDEST PUSH1 0x0 PUSH20 0xFFFFFFFFFFFFFFFFFFFFFFFFFFFFFFFFFFFFFFFF DUP3 AND SWAP1 POP SWAP2 SWAP1 POP JUMP JUMPDEST PUSH1 0x0 PUSH3 0xA4 DUP3 PUSH3 0x77 JUMP JUMPDEST SWAP1 POP SWAP2 SWAP1 POP JUMP JUMPDEST PUSH3 0xB6 DUP2 PUSH3 0x97 JUMP JUMPDEST DUP2 EQ PUSH3 0xC2 JUMPI PUSH1 0x0 DUP1 REVERT JUMPDEST POP JUMP JUMPDEST PUSH1 0x0 DUP2 MLOAD SWAP1 POP PUSH3 0xD6 DUP2 PUSH3 0xAB JUMP JUMPDEST SWAP3 SWAP2 POP POP JUMP JUMPDEST PUSH1 0x0 PUSH1 0x20 DUP3 DUP5 SUB SLT ISZERO PUSH3 0xF5 JUMPI PUSH3 0xF4 PUSH3 0x72 JUMP JUMPDEST JUMPDEST PUSH1 0x0 PUSH3 0x105 DUP5 DUP3 DUP6 ADD PUSH3 0xC5 JUMP JUMPDEST SWAP2 POP POP SWAP3 SWAP2 POP POP JUMP JUMPDEST PUSH1 0x80 MLOAD PUSH2 0x1648 PUSH3 0x146 PUSH1 0x0 CODECOPY PUSH1 0x0 DUP2 DUP2 PUSH2 0x30E ADD MSTORE DUP2 DUP2 PUSH2 0x7C8 ADD MSTORE DUP2 DUP2 PUSH2 0xB99 ADD MSTORE DUP2 DUP2 PUSH2 0xC3D ADD MSTORE PUSH2 0xDB2 ADD MSTORE PUSH2 0x1648 PUSH1 0x0 RETURN INVALID PUSH1 0x80 PUSH1 0x40 MSTORE CALLVALUE DUP1 ISZERO PUSH2 0x10 JUMPI PUSH1 0x0 DUP1 REVERT JUMPDEST POP PUSH1 0x4 CALLDATASIZE LT PUSH2 0x7D JUMPI PUSH1 0x0 CALLDATALOAD PUSH1 0xE0 SHR DUP1 PUSH4 0x40E58EE5 GT PUSH2 0x5B JUMPI DUP1 PUSH4 0x40E58EE5 EQ PUSH2 0xD6 JUMPI DUP1 PUSH4 0x711853AB EQ PUSH2 0xF2 JUMPI DUP1 PUSH4 0xFC0C546A EQ PUSH2 0x10E JUMPI DUP1 PUSH4 0xFDE327BE EQ PUSH2 0x12C JUMPI PUSH2 0x7D JUMP JUMPDEST DUP1 PUSH4 0x278ECDE1 EQ PUSH2 0x82 JUMPI DUP1 PUSH4 0x2C63F146 EQ PUSH2 0x9E JUMPI DUP1 PUSH4 0x379607F5 EQ PUSH2 0xBA JUMPI JUMPDEST PUSH1 0x0 DUP1 REVERT JUMPDEST PUSH2 0x9C PUSH1 0x4 DUP1 CALLDATASIZE SUB DUP2 ADD SWAP1 PUSH2 0x97 SWAP2 SWAP1 PUSH2 0xE91 JUMP JUMPDEST PUSH2 0x148 JUMP JUMPDEST STOP JUMPDEST PUSH2 0xB8 PUSH1 0x4 DUP1 CALLDATASIZE SUB DUP2 ADD SWAP1 PUSH2 0xB3 SWAP2 SWAP1 PUSH2 0xEFA JUMP JUMPDEST PUSH2 0x3B0 JUMP JUMPDEST STOP JUMPDEST PUSH2 0xD4 PUSH1 0x4 DUP1 CALLDATASIZE SUB DUP2 ADD SWAP1 PUSH2 0xCF SWAP2 SWAP1 PUSH2 0xE91 JUMP JUMPDEST PUSH2 0x5AB JUMP JUMPDEST STOP JUMPDEST PUSH2 0xF0 PUSH1 0x4 DUP1 CALLDATASIZE SUB DUP2 ADD SWAP1 PUSH2 0xEB SWAP2 SWAP1 PUSH2 0xE91 JUMP JUMPDEST PUSH2 0x86D JUMP JUMPDEST STOP JUMPDEST PUSH2 0x10C PUSH1 0x4 DUP1 CALLDATASIZE SUB DUP2 ADD SWAP1 PUSH2 0x107 SWAP2 SWAP1 PUSH2 0xF4D JUMP JUMPDEST PUSH2 0xA46 JUMP JUMPDEST STOP JUMPDEST PUSH2 0x116 PUSH2 0xC3B JUMP JUMPDEST PUSH1 0x40 MLOAD PUSH2 0x123 SWAP2 SWAP1 PUSH2 0x100C JUMP JUMPDEST PUSH1 0x40 MLOAD DUP1 SWAP2 SUB SWAP1 RETURN JUMPDEST PUSH2 0x146 PUSH1 0x4 DUP1 CALLDATASIZE SUB DUP2 ADD SWAP1 PUSH2 0x141 SWAP2 SWAP1 PUSH2 0xF4D JUMP JUMPDEST PUSH2 0xC5F JUMP JUMPDEST STOP JUMPDEST PUSH1 0x0 PUSH1 0x1 PUSH1 0x0 DUP4 DUP2 MSTORE PUSH1 0x20 ADD SWAP1 DUP2 MSTORE PUSH1 0x20 ADD PUSH1 0x0 KECCAK256 SWAP1 POP DUP1 PUSH1 0x3 ADD PUSH1 0x0 SWAP1 SLOAD SWAP1 PUSH2 0x100 EXP SWAP1 DIV PUSH4 0xFFFFFFFF AND PUSH4 0xFFFFFFFF AND TIMESTAMP GT PUSH2 0x1BB JUMPI PUSH1 0x40 MLOAD PUSH32 0x8C379A000000000000000000000000000000000000000000000000000000000 DUP2 MSTORE PUSH1 0x4 ADD PUSH2 0x1B2 SWAP1 PUSH2 0x1084 JUMP JUMPDEST PUSH1 0x40 MLOAD DUP1 SWAP2 SUB SWAP1 REVERT JUMPDEST DUP1 PUSH1 0x3 ADD PUSH1 0x4 SWAP1 SLOAD SWAP1 PUSH2 0x100 EXP SWAP1 DIV PUSH4 0xFFFFFFFF AND PUSH4 0xFFFFFFFF AND TIMESTAMP GT PUSH2 0x217 JUMPI PUSH1 0x40 MLOAD PUSH32 0x8C379A000000000000000000000000000000000000000000000000000000000 DUP2 MSTORE PUSH1 0x4 ADD PUSH2 0x20E SWAP1 PUSH2 0x10F0 JUMP JUMPDEST PUSH1 0x40 MLOAD DUP1 SWAP2 SUB SWAP1 REVERT JUMPDEST DUP1 PUSH1 0x1 ADD SLOAD DUP2 PUSH1 0x2 ADD SLOAD LT PUSH2 0x261 JUMPI PUSH1 0x40 MLOAD PUSH32 0x8C379A000000000000000000000000000000000000000000000000000000000 DUP2 MSTORE PUSH1 0x4 ADD PUSH2 0x258 SWAP1 PUSH2 0x1182 JUMP JUMPDEST PUSH1 0x40 MLOAD DUP1 SWAP2 SUB SWAP1 REVERT JUMPDEST PUSH1 0x0 PUSH1 0x2 PUSH1 0x0 DUP5 DUP2 MSTORE PUSH1 0x20 ADD SWAP1 DUP2 MSTORE PUSH1 0x20 ADD PUSH1 0x0 KECCAK256 PUSH1 0x0 CALLER PUSH20 0xFFFFFFFFFFFFFFFFFFFFFFFFFFFFFFFFFFFFFFFF AND PUSH20 0xFFFFFFFFFFFFFFFFFFFFFFFFFFFFFFFFFFFFFFFF AND DUP2 MSTORE PUSH1 0x20 ADD SWAP1 DUP2 MSTORE PUSH1 0x20 ADD PUSH1 0x0 KECCAK256 SLOAD SWAP1 POP PUSH1 0x0 PUSH1 0x2 PUSH1 0x0 DUP6 DUP2 MSTORE PUSH1 0x20 ADD SWAP1 DUP2 MSTORE PUSH1 0x20 ADD PUSH1 0x0 KECCAK256 PUSH1 0x0 CALLER PUSH20 0xFFFFFFFFFFFFFFFFFFFFFFFFFFFFFFFFFFFFFFFF AND PUSH20 0xFFFFFFFFFFFFFFFFFFFFFFFFFFFFFFFFFFFFFFFF AND DUP2 MSTORE PUSH1 0x20 ADD SWAP1 DUP2 MSTORE PUSH1 0x20 ADD PUSH1 0x0 KECCAK256 DUP2 SWAP1 SSTORE POP PUSH32 0x0 PUSH20 0xFFFFFFFFFFFFFFFFFFFFFFFFFFFFFFFFFFFFFFFF AND PUSH4 0xA9059CBB CALLER DUP4 PUSH1 0x40 MLOAD DUP4 PUSH4 0xFFFFFFFF AND PUSH1 0xE0 SHL DUP2 MSTORE PUSH1 0x4 ADD PUSH2 0x367 SWAP3 SWAP2 SWAP1 PUSH2 0x11D2 JUMP JUMPDEST PUSH1 0x20 PUSH1 0x40 MLOAD DUP1 DUP4 SUB DUP2 PUSH1 0x0 DUP8 GAS CALL ISZERO DUP1 ISZERO PUSH2 0x386 JUMPI RETURNDATASIZE PUSH1 0x0 DUP1 RETURNDATACOPY RETURNDATASIZE PUSH1 0x0 REVERT JUMPDEST POP POP POP POP PUSH1 0x40 MLOAD RETURNDATASIZE PUSH1 0x1F NOT PUSH1 0x1F DUP3 ADD AND DUP3 ADD DUP1 PUSH1 0x40 MSTORE POP DUP2 ADD SWAP1 PUSH2 0x3AA SWAP2 SWAP1 PUSH2 0x1233 JUMP JUMPDEST POP POP POP POP JUMP JUMPDEST DUP1 PUSH4 0xFFFFFFFF AND DUP3 PUSH4 0xFFFFFFFF AND LT PUSH2 0x3FE JUMPI PUSH1 0x40 MLOAD PUSH32 0x8C379A000000000000000000000000000000000000000000000000000000000 DUP2 MSTORE PUSH1 0x4 ADD PUSH2 0x3F5 SWAP1 PUSH2 0x12AC JUMP JUMPDEST PUSH1 0x40 MLOAD DUP1 SWAP2 SUB SWAP1 REVERT JUMPDEST PUSH3 0x76A700 DUP2 PUSH2 0x40D SWAP2 SWAP1 PUSH2 0x12FB JUMP JUMPDEST PUSH4 0xFFFFFFFF AND DUP3 PUSH4 0xFFFFFFFF AND LT PUSH2 0x45A JUMPI PUSH1 0x40 MLOAD PUSH32 0x8C379A000000000000000000000000000000000000000000000000000000000 DUP2 MSTORE PUSH1 0x4 ADD PUSH2 0x451 SWAP1 PUSH2 0x1381 JUMP JUMPDEST PUSH1 0x40 MLOAD DUP1 SWAP2 SUB SWAP1 REVERT JUMPDEST PUSH1 0x1 PUSH1 0x0 DUP1 DUP3 DUP3 SLOAD PUSH2 0x46C SWAP2 SWAP1 PUSH2 0x13A1 JUMP JUMPDEST SWAP3 POP POP DUP2 SWAP1 SSTORE POP PUSH1 0x40 MLOAD DUP1 PUSH1 0xC0 ADD PUSH1 0x40 MSTORE DUP1 CALLER PUSH20 0xFFFFFFFFFFFFFFFFFFFFFFFFFFFFFFFFFFFFFFFF AND DUP2 MSTORE PUSH1 0x20 ADD DUP5 DUP2 MSTORE PUSH1 0x20 ADD PUSH1 0x0 DUP2 MSTORE PUSH1 0x20 ADD DUP4 PUSH4 0xFFFFFFFF AND DUP2 MSTORE PUSH1 0x20 ADD DUP3 PUSH4 0xFFFFFFFF AND DUP2 MSTORE PUSH1 0x20 ADD PUSH1 0x0 ISZERO ISZERO DUP2 MSTORE POP PUSH1 0x1 PUSH1 0x0 DUP1 SLOAD DUP2 MSTORE PUSH1 0x20 ADD SWAP1 DUP2 MSTORE PUSH1 0x20 ADD PUSH1 0x0 KECCAK256 PUSH1 0x0 DUP3 ADD MLOAD DUP2 PUSH1 0x0 ADD PUSH1 0x0 PUSH2 0x100 EXP DUP2 SLOAD DUP2 PUSH20 0xFFFFFFFFFFFFFFFFFFFFFFFFFFFFFFFFFFFFFFFF MUL NOT AND SWAP1 DUP4 PUSH20 0xFFFFFFFFFFFFFFFFFFFFFFFFFFFFFFFFFFFFFFFF AND MUL OR SWAP1 SSTORE POP PUSH1 0x20 DUP3 ADD MLOAD DUP2 PUSH1 0x1 ADD SSTORE PUSH1 0x40 DUP3 ADD MLOAD DUP2 PUSH1 0x2 ADD SSTORE PUSH1 0x60 DUP3 ADD MLOAD DUP2 PUSH1 0x3 ADD PUSH1 0x0 PUSH2 0x100 EXP DUP2 SLOAD DUP2 PUSH4 0xFFFFFFFF MUL NOT AND SWAP1 DUP4 PUSH4 0xFFFFFFFF AND MUL OR SWAP1 SSTORE POP PUSH1 0x80 DUP3 ADD MLOAD DUP2 PUSH1 0x3 ADD PUSH1 0x4 PUSH2 0x100 EXP DUP2 SLOAD DUP2 PUSH4 0xFFFFFFFF MUL NOT AND SWAP1 DUP4 PUSH4 0xFFFFFFFF AND MUL OR SWAP1 SSTORE POP PUSH1 0xA0 DUP3 ADD MLOAD DUP2 PUSH1 0x3 ADD PUSH1 0x8 PUSH2 0x100 EXP DUP2 SLOAD DUP2 PUSH1 0xFF MUL NOT AND SWAP1 DUP4 ISZERO ISZERO MUL OR SWAP1 SSTORE POP SWAP1 POP POP POP POP POP JUMP JUMPDEST PUSH1 0x0 PUSH1 0x1 PUSH1 0x0 DUP4 DUP2 MSTORE PUSH1 0x20 ADD SWAP1 DUP2 MSTORE PUSH1 0x20 ADD PUSH1 0x0 KECCAK256 SWAP1 POP DUP1 PUSH1 0x3 ADD PUSH1 0x0 SWAP1 SLOAD SWAP1 PUSH2 0x100 EXP SWAP1 DIV PUSH4 0xFFFFFFFF AND PUSH4 0xFFFFFFFF AND TIMESTAMP GT PUSH2 0x61E JUMPI PUSH1 0x40 MLOAD PUSH32 0x8C379A000000000000000000000000000000000000000000000000000000000 DUP2 MSTORE PUSH1 0x4 ADD PUSH2 0x615 SWAP1 PUSH2 0x1084 JUMP JUMPDEST PUSH1 0x40 MLOAD DUP1 SWAP2 SUB SWAP1 REVERT JUMPDEST DUP1 PUSH1 0x3 ADD PUSH1 0x4 SWAP1 SLOAD SWAP1 PUSH2 0x100 EXP SWAP1 DIV PUSH4 0xFFFFFFFF AND PUSH4 0xFFFFFFFF AND TIMESTAMP GT PUSH2 0x67A JUMPI PUSH1 0x40 MLOAD PUSH32 0x8C379A000000000000000000000000000000000000000000000000000000000 DUP2 MSTORE PUSH1 0x4 ADD PUSH2 0x671 SWAP1 PUSH2 0x10F0 JUMP JUMPDEST PUSH1 0x40 MLOAD DUP1 SWAP2 SUB SWAP1 REVERT JUMPDEST DUP1 PUSH1 0x0 ADD PUSH1 0x0 SWAP1 SLOAD SWAP1 PUSH2 0x100 EXP SWAP1 DIV PUSH20 0xFFFFFFFFFFFFFFFFFFFFFFFFFFFFFFFFFFFFFFFF AND PUSH20 0xFFFFFFFFFFFFFFFFFFFFFFFFFFFFFFFFFFFFFFFF AND CALLER PUSH20 0xFFFFFFFFFFFFFFFFFFFFFFFFFFFFFFFFFFFFFFFF AND EQ PUSH2 0x70C JUMPI PUSH1 0x40 MLOAD PUSH32 0x8C379A000000000000000000000000000000000000000000000000000000000 DUP2 MSTORE PUSH1 0x4 ADD PUSH2 0x703 SWAP1 PUSH2 0x1443 JUMP JUMPDEST PUSH1 0x40 MLOAD DUP1 SWAP2 SUB SWAP1 REVERT JUMPDEST DUP1 PUSH1 0x1 ADD SLOAD DUP2 PUSH1 0x2 ADD SLOAD LT ISZERO PUSH2 0x757 JUMPI PUSH1 0x40 MLOAD PUSH32 0x8C379A000000000000000000000000000000000000000000000000000000000 DUP2 MSTORE PUSH1 0x4 ADD PUSH2 0x74E SWAP1 PUSH2 0x14AF JUMP JUMPDEST PUSH1 0x40 MLOAD DUP1 SWAP2 SUB SWAP1 REVERT JUMPDEST DUP1 PUSH1 0x3 ADD PUSH1 0x8 SWAP1 SLOAD SWAP1 PUSH2 0x100 EXP SWAP1 DIV PUSH1 0xFF AND ISZERO PUSH2 0x7A9 JUMPI PUSH1 0x40 MLOAD PUSH32 0x8C379A000000000000000000000000000000000000000000000000000000000 DUP2 MSTORE PUSH1 0x4 ADD PUSH2 0x7A0 SWAP1 PUSH2 0x151B JUMP JUMPDEST PUSH1 0x40 MLOAD DUP1 SWAP2 SUB SWAP1 REVERT JUMPDEST PUSH1 0x1 DUP2 PUSH1 0x3 ADD PUSH1 0x8 PUSH2 0x100 EXP DUP2 SLOAD DUP2 PUSH1 0xFF MUL NOT AND SWAP1 DUP4 ISZERO ISZERO MUL OR SWAP1 SSTORE POP PUSH32 0x0 PUSH20 0xFFFFFFFFFFFFFFFFFFFFFFFFFFFFFFFFFFFFFFFF AND PUSH4 0xA9059CBB CALLER DUP4 PUSH1 0x2 ADD SLOAD PUSH1 0x40 MLOAD DUP4 PUSH4 0xFFFFFFFF AND PUSH1 0xE0 SHL DUP2 MSTORE PUSH1 0x4 ADD PUSH2 0x825 SWAP3 SWAP2 SWAP1 PUSH2 0x11D2 JUMP JUMPDEST PUSH1 0x20 PUSH1 0x40 MLOAD DUP1 DUP4 SUB DUP2 PUSH1 0x0 DUP8 GAS CALL ISZERO DUP1 ISZERO PUSH2 0x844 JUMPI RETURNDATASIZE PUSH1 0x0 DUP1 RETURNDATACOPY RETURNDATASIZE PUSH1 0x0 REVERT JUMPDEST POP POP POP POP PUSH1 0x40 MLOAD RETURNDATASIZE PUSH1 0x1F NOT PUSH1 0x1F DUP3 ADD AND DUP3 ADD DUP1 PUSH1 0x40 MSTORE POP DUP2 ADD SWAP1 PUSH2 0x868 SWAP2 SWAP1 PUSH2 0x1233 JUMP JUMPDEST POP POP POP JUMP JUMPDEST PUSH1 0x0 PUSH1 0x1 PUSH1 0x0 DUP4 DUP2 MSTORE PUSH1 0x20 ADD SWAP1 DUP2 MSTORE PUSH1 0x20 ADD PUSH1 0x0 KECCAK256 PUSH1 0x40 MLOAD DUP1 PUSH1 0xC0 ADD PUSH1 0x40 MSTORE SWAP1 DUP2 PUSH1 0x0 DUP3 ADD PUSH1 0x0 SWAP1 SLOAD SWAP1 PUSH2 0x100 EXP SWAP1 DIV PUSH20 0xFFFFFFFFFFFFFFFFFFFFFFFFFFFFFFFFFFFFFFFF AND PUSH20 0xFFFFFFFFFFFFFFFFFFFFFFFFFFFFFFFFFFFFFFFF AND PUSH20 0xFFFFFFFFFFFFFFFFFFFFFFFFFFFFFFFFFFFFFFFF AND DUP2 MSTORE PUSH1 0x20 ADD PUSH1 0x1 DUP3 ADD SLOAD DUP2 MSTORE PUSH1 0x20 ADD PUSH1 0x2 DUP3 ADD SLOAD DUP2 MSTORE PUSH1 0x20 ADD PUSH1 0x3 DUP3 ADD PUSH1 0x0 SWAP1 SLOAD SWAP1 PUSH2 0x100 EXP SWAP1 DIV PUSH4 0xFFFFFFFF AND PUSH4 0xFFFFFFFF AND PUSH4 0xFFFFFFFF AND DUP2 MSTORE PUSH1 0x20 ADD PUSH1 0x3 DUP3 ADD PUSH1 0x4 SWAP1 SLOAD SWAP1 PUSH2 0x100 EXP SWAP1 DIV PUSH4 0xFFFFFFFF AND PUSH4 0xFFFFFFFF AND PUSH4 0xFFFFFFFF AND DUP2 MSTORE PUSH1 0x20 ADD PUSH1 0x3 DUP3 ADD PUSH1 0x8 SWAP1 SLOAD SWAP1 PUSH2 0x100 EXP SWAP1 DIV PUSH1 0xFF AND ISZERO ISZERO ISZERO ISZERO DUP2 MSTORE POP POP SWAP1 POP DUP1 PUSH1 0x0 ADD MLOAD PUSH20 0xFFFFFFFFFFFFFFFFFFFFFFFFFFFFFFFFFFFFFFFF AND CALLER PUSH20 0xFFFFFFFFFFFFFFFFFFFFFFFFFFFFFFFFFFFFFFFF AND EQ PUSH2 0x99C JUMPI PUSH1 0x0 DUP1 REVERT JUMPDEST DUP1 PUSH1 0x60 ADD MLOAD PUSH4 0xFFFFFFFF AND TIMESTAMP LT ISZERO PUSH2 0x9B3 JUMPI PUSH1 0x0 DUP1 REVERT JUMPDEST PUSH1 0x1 PUSH1 0x0 DUP4 DUP2 MSTORE PUSH1 0x20 ADD SWAP1 DUP2 MSTORE PUSH1 0x20 ADD PUSH1 0x0 KECCAK256 PUSH1 0x0 DUP1 DUP3 ADD PUSH1 0x0 PUSH2 0x100 EXP DUP2 SLOAD SWAP1 PUSH20 0xFFFFFFFFFFFFFFFFFFFFFFFFFFFFFFFFFFFFFFFF MUL NOT AND SWAP1 SSTORE PUSH1 0x1 DUP3 ADD PUSH1 0x0 SWAP1 SSTORE PUSH1 0x2 DUP3 ADD PUSH1 0x0 SWAP1 SSTORE PUSH1 0x3 DUP3 ADD PUSH1 0x0 PUSH2 0x100 EXP DUP2 SLOAD SWAP1 PUSH4 0xFFFFFFFF MUL NOT AND SWAP1 SSTORE PUSH1 0x3 DUP3 ADD PUSH1 0x4 PUSH2 0x100 EXP DUP2 SLOAD SWAP1 PUSH4 0xFFFFFFFF MUL NOT AND SWAP1 SSTORE PUSH1 0x3 DUP3 ADD PUSH1 0x8 PUSH2 0x100 EXP DUP2 SLOAD SWAP1 PUSH1 0xFF MUL NOT AND SWAP1 SSTORE POP POP POP POP JUMP JUMPDEST PUSH1 0x0 PUSH1 0x1 PUSH1 0x0 DUP5 DUP2 MSTORE PUSH1 0x20 ADD SWAP1 DUP2 MSTORE PUSH1 0x20 ADD PUSH1 0x0 KECCAK256 SWAP1 POP DUP1 PUSH1 0x3 ADD PUSH1 0x0 SWAP1 SLOAD SWAP1 PUSH2 0x100 EXP SWAP1 DIV PUSH4 0xFFFFFFFF AND PUSH4 0xFFFFFFFF AND TIMESTAMP GT PUSH2 0xAB9 JUMPI PUSH1 0x40 MLOAD PUSH32 0x8C379A000000000000000000000000000000000000000000000000000000000 DUP2 MSTORE PUSH1 0x4 ADD PUSH2 0xAB0 SWAP1 PUSH2 0x1084 JUMP JUMPDEST PUSH1 0x40 MLOAD DUP1 SWAP2 SUB SWAP1 REVERT JUMPDEST DUP1 PUSH1 0x3 ADD PUSH1 0x4 SWAP1 SLOAD SWAP1 PUSH2 0x100 EXP SWAP1 DIV PUSH4 0xFFFFFFFF AND PUSH4 0xFFFFFFFF AND TIMESTAMP LT PUSH2 0xB15 JUMPI PUSH1 0x40 MLOAD PUSH32 0x8C379A000000000000000000000000000000000000000000000000000000000 DUP2 MSTORE PUSH1 0x4 ADD PUSH2 0xB0C SWAP1 PUSH2 0x1587 JUMP JUMPDEST PUSH1 0x40 MLOAD DUP1 SWAP2 SUB SWAP1 REVERT JUMPDEST DUP2 DUP2 PUSH1 0x2 ADD PUSH1 0x0 DUP3 DUP3 SLOAD PUSH2 0xB29 SWAP2 SWAP1 PUSH2 0x15A7 JUMP JUMPDEST SWAP3 POP POP DUP2 SWAP1 SSTORE POP DUP2 PUSH1 0x2 PUSH1 0x0 DUP6 DUP2 MSTORE PUSH1 0x20 ADD SWAP1 DUP2 MSTORE PUSH1 0x20 ADD PUSH1 0x0 KECCAK256 PUSH1 0x0 CALLER PUSH20 0xFFFFFFFFFFFFFFFFFFFFFFFFFFFFFFFFFFFFFFFF AND PUSH20 0xFFFFFFFFFFFFFFFFFFFFFFFFFFFFFFFFFFFFFFFF AND DUP2 MSTORE PUSH1 0x20 ADD SWAP1 DUP2 MSTORE PUSH1 0x20 ADD PUSH1 0x0 KECCAK256 PUSH1 0x0 DUP3 DUP3 SLOAD PUSH2 0xB90 SWAP2 SWAP1 PUSH2 0x15A7 JUMP JUMPDEST SWAP3 POP POP DUP2 SWAP1 SSTORE POP PUSH32 0x0 PUSH20 0xFFFFFFFFFFFFFFFFFFFFFFFFFFFFFFFFFFFFFFFF AND PUSH4 0xA9059CBB CALLER DUP5 PUSH1 0x40 MLOAD DUP4 PUSH4 0xFFFFFFFF AND PUSH1 0xE0 SHL DUP2 MSTORE PUSH1 0x4 ADD PUSH2 0xBF2 SWAP3 SWAP2 SWAP1 PUSH2 0x11D2 JUMP JUMPDEST PUSH1 0x20 PUSH1 0x40 MLOAD DUP1 DUP4 SUB DUP2 PUSH1 0x0 DUP8 GAS CALL ISZERO DUP1 ISZERO PUSH2 0xC11 JUMPI RETURNDATASIZE PUSH1 0x0 DUP1 RETURNDATACOPY RETURNDATASIZE PUSH1 0x0 REVERT JUMPDEST POP POP POP POP PUSH1 0x40 MLOAD RETURNDATASIZE PUSH1 0x1F NOT PUSH1 0x1F DUP3 ADD AND DUP3 ADD DUP1 PUSH1 0x40 MSTORE POP DUP2 ADD SWAP1 PUSH2 0xC35 SWAP2 SWAP1 PUSH2 0x1233 JUMP JUMPDEST POP POP POP POP JUMP JUMPDEST PUSH32 0x0 DUP2 JUMP JUMPDEST PUSH1 0x0 PUSH1 0x1 PUSH1 0x0 DUP5 DUP2 MSTORE PUSH1 0x20 ADD SWAP1 DUP2 MSTORE PUSH1 0x20 ADD PUSH1 0x0 KECCAK256 SWAP1 POP DUP1 PUSH1 0x3 ADD PUSH1 0x0 SWAP1 SLOAD SWAP1 PUSH2 0x100 EXP SWAP1 DIV PUSH4 0xFFFFFFFF AND PUSH4 0xFFFFFFFF AND TIMESTAMP GT PUSH2 0xCD2 JUMPI PUSH1 0x40 MLOAD PUSH32 0x8C379A000000000000000000000000000000000000000000000000000000000 DUP2 MSTORE PUSH1 0x4 ADD PUSH2 0xCC9 SWAP1 PUSH2 0x1084 JUMP JUMPDEST PUSH1 0x40 MLOAD DUP1 SWAP2 SUB SWAP1 REVERT JUMPDEST DUP1 PUSH1 0x3 ADD PUSH1 0x4 SWAP1 SLOAD SWAP1 PUSH2 0x100 EXP SWAP1 DIV PUSH4 0xFFFFFFFF AND PUSH4 0xFFFFFFFF AND TIMESTAMP LT PUSH2 0xD2E JUMPI PUSH1 0x40 MLOAD PUSH32 0x8C379A000000000000000000000000000000000000000000000000000000000 DUP2 MSTORE PUSH1 0x4 ADD PUSH2 0xD25 SWAP1 PUSH2 0x1587 JUMP JUMPDEST PUSH1 0x40 MLOAD DUP1 SWAP2 SUB SWAP1 REVERT JUMPDEST DUP2 DUP2 PUSH1 0x2 ADD PUSH1 0x0 DUP3 DUP3 SLOAD PUSH2 0xD42 SWAP2 SWAP1 PUSH2 0x13A1 JUMP JUMPDEST SWAP3 POP POP DUP2 SWAP1 SSTORE POP DUP2 PUSH1 0x2 PUSH1 0x0 DUP6 DUP2 MSTORE PUSH1 0x20 ADD SWAP1 DUP2 MSTORE PUSH1 0x20 ADD PUSH1 0x0 KECCAK256 PUSH1 0x0 CALLER PUSH20 0xFFFFFFFFFFFFFFFFFFFFFFFFFFFFFFFFFFFFFFFF AND PUSH20 0xFFFFFFFFFFFFFFFFFFFFFFFFFFFFFFFFFFFFFFFF AND DUP2 MSTORE PUSH1 0x20 ADD SWAP1 DUP2 MSTORE PUSH1 0x20 ADD PUSH1 0x0 KECCAK256 PUSH1 0x0 DUP3 DUP3 SLOAD PUSH2 0xDA9 SWAP2 SWAP1 PUSH2 0x13A1 JUMP JUMPDEST SWAP3 POP POP DUP2 SWAP1 SSTORE POP PUSH32 0x0 PUSH20 0xFFFFFFFFFFFFFFFFFFFFFFFFFFFFFFFFFFFFFFFF AND PUSH4 0x23B872DD CALLER ADDRESS DUP6 PUSH1 0x40 MLOAD DUP5 PUSH4 0xFFFFFFFF AND PUSH1 0xE0 SHL DUP2 MSTORE PUSH1 0x4 ADD PUSH2 0xE0D SWAP4 SWAP3 SWAP2 SWAP1 PUSH2 0x15DB JUMP JUMPDEST PUSH1 0x20 PUSH1 0x40 MLOAD DUP1 DUP4 SUB DUP2 PUSH1 0x0 DUP8 GAS CALL ISZERO DUP1 ISZERO PUSH2 0xE2C JUMPI RETURNDATASIZE PUSH1 0x0 DUP1 RETURNDATACOPY RETURNDATASIZE PUSH1 0x0 REVERT JUMPDEST POP POP POP POP PUSH1 0x40 MLOAD RETURNDATASIZE PUSH1 0x1F NOT PUSH1 0x1F DUP3 ADD AND DUP3 ADD DUP1 PUSH1 0x40 MSTORE POP DUP2 ADD SWAP1 PUSH2 0xE50 SWAP2 SWAP1 PUSH2 0x1233 JUMP JUMPDEST POP POP POP POP JUMP JUMPDEST PUSH1 0x0 DUP1 REVERT JUMPDEST PUSH1 0x0 DUP2 SWAP1 POP SWAP2 SWAP1 POP JUMP JUMPDEST PUSH2 0xE6E DUP2 PUSH2 0xE5B JUMP JUMPDEST DUP2 EQ PUSH2 0xE79 JUMPI PUSH1 0x0 DUP1 REVERT JUMPDEST POP JUMP JUMPDEST PUSH1 0x0 DUP2 CALLDATALOAD SWAP1 POP PUSH2 0xE8B DUP2 PUSH2 0xE65 JUMP JUMPDEST SWAP3 SWAP2 POP POP JUMP JUMPDEST PUSH1 0x0 PUSH1 0x20 DUP3 DUP5 SUB SLT ISZERO PUSH2 0xEA7 JUMPI PUSH2 0xEA6 PUSH2 0xE56 JUMP JUMPDEST JUMPDEST PUSH1 0x0 PUSH2 0xEB5 DUP5 DUP3 DUP6 ADD PUSH2 0xE7C JUMP JUMPDEST SWAP2 POP POP SWAP3 SWAP2 POP POP JUMP JUMPDEST PUSH1 0x0 PUSH4 0xFFFFFFFF DUP3 AND SWAP1 POP SWAP2 SWAP1 POP JUMP JUMPDEST PUSH2 0xED7 DUP2 PUSH2 0xEBE JUMP JUMPDEST DUP2 EQ PUSH2 0xEE2 JUMPI PUSH1 0x0 DUP1 REVERT JUMPDEST POP JUMP JUMPDEST PUSH1 0x0 DUP2 CALLDATALOAD SWAP1 POP PUSH2 0xEF4 DUP2 PUSH2 0xECE JUMP JUMPDEST SWAP3 SWAP2 POP POP JUMP JUMPDEST PUSH1 0x0 DUP1 PUSH1 0x0 PUSH1 0x60 DUP5 DUP7 SUB SLT ISZERO PUSH2 0xF13 JUMPI PUSH2 0xF12 PUSH2 0xE56 JUMP JUMPDEST JUMPDEST PUSH1 0x0 PUSH2 0xF21 DUP7 DUP3 DUP8 ADD PUSH2 0xE7C JUMP JUMPDEST SWAP4 POP POP PUSH1 0x20 PUSH2 0xF32 DUP7 DUP3 DUP8 ADD PUSH2 0xEE5 JUMP JUMPDEST SWAP3 POP POP PUSH1 0x40 PUSH2 0xF43 DUP7 DUP3 DUP8 ADD PUSH2 0xEE5 JUMP JUMPDEST SWAP2 POP POP SWAP3 POP SWAP3 POP SWAP3 JUMP JUMPDEST PUSH1 0x0 DUP1 PUSH1 0x40 DUP4 DUP6 SUB SLT ISZERO PUSH2 0xF64 JUMPI PUSH2 0xF63 PUSH2 0xE56 JUMP JUMPDEST JUMPDEST PUSH1 0x0 PUSH2 0xF72 DUP6 DUP3 DUP7 ADD PUSH2 0xE7C JUMP JUMPDEST SWAP3 POP POP PUSH1 0x20 PUSH2 0xF83 DUP6 DUP3 DUP7 ADD PUSH2 0xE7C JUMP JUMPDEST SWAP2 POP POP SWAP3 POP SWAP3 SWAP1 POP JUMP JUMPDEST PUSH1 0x0 PUSH20 0xFFFFFFFFFFFFFFFFFFFFFFFFFFFFFFFFFFFFFFFF DUP3 AND SWAP1 POP SWAP2 SWAP1 POP JUMP JUMPDEST PUSH1 0x0 DUP2 SWAP1 POP SWAP2 SWAP1 POP JUMP JUMPDEST PUSH1 0x0 PUSH2 0xFD2 PUSH2 0xFCD PUSH2 0xFC8 DUP5 PUSH2 0xF8D JUMP JUMPDEST PUSH2 0xFAD JUMP JUMPDEST PUSH2 0xF8D JUMP JUMPDEST SWAP1 POP SWAP2 SWAP1 POP JUMP JUMPDEST PUSH1 0x0 PUSH2 0xFE4 DUP3 PUSH2 0xFB7 JUMP JUMPDEST SWAP1 POP SWAP2 SWAP1 POP JUMP JUMPDEST PUSH1 0x0 PUSH2 0xFF6 DUP3 PUSH2 0xFD9 JUMP JUMPDEST SWAP1 POP SWAP2 SWAP1 POP JUMP JUMPDEST PUSH2 0x1006 DUP2 PUSH2 0xFEB JUMP JUMPDEST DUP3 MSTORE POP POP JUMP JUMPDEST PUSH1 0x0 PUSH1 0x20 DUP3 ADD SWAP1 POP PUSH2 0x1021 PUSH1 0x0 DUP4 ADD DUP5 PUSH2 0xFFD JUMP JUMPDEST SWAP3 SWAP2 POP POP JUMP JUMPDEST PUSH1 0x0 DUP3 DUP3 MSTORE PUSH1 0x20 DUP3 ADD SWAP1 POP SWAP3 SWAP2 POP POP JUMP JUMPDEST PUSH32 0x6E6F742073746172746564000000000000000000000000000000000000000000 PUSH1 0x0 DUP3 ADD MSTORE POP JUMP JUMPDEST PUSH1 0x0 PUSH2 0x106E PUSH1 0xB DUP4 PUSH2 0x1027 JUMP JUMPDEST SWAP2 POP PUSH2 0x1079 DUP3 PUSH2 0x1038 JUMP JUMPDEST PUSH1 0x20 DUP3 ADD SWAP1 POP SWAP2 SWAP1 POP JUMP JUMPDEST PUSH1 0x0 PUSH1 0x20 DUP3 ADD SWAP1 POP DUP2 DUP2 SUB PUSH1 0x0 DUP4 ADD MSTORE PUSH2 0x109D DUP2 PUSH2 0x1061 JUMP JUMPDEST SWAP1 POP SWAP2 SWAP1 POP JUMP JUMPDEST PUSH32 0x6E6F7420656E6465640000000000000000000000000000000000000000000000 PUSH1 0x0 DUP3 ADD MSTORE POP JUMP JUMPDEST PUSH1 0x0 PUSH2 0x10DA PUSH1 0x9 DUP4 PUSH2 0x1027 JUMP JUMPDEST SWAP2 POP PUSH2 0x10E5 DUP3 PUSH2 0x10A4 JUMP JUMPDEST PUSH1 0x20 DUP3 ADD SWAP1 POP SWAP2 SWAP1 POP JUMP JUMPDEST PUSH1 0x0 PUSH1 0x20 DUP3 ADD SWAP1 POP DUP2 DUP2 SUB PUSH1 0x0 DUP4 ADD MSTORE PUSH2 0x1109 DUP2 PUSH2 0x10CD JUMP JUMPDEST SWAP1 POP SWAP2 SWAP1 POP JUMP JUMPDEST PUSH32 0x69747320616C726561647920636F6C6C65637465642C2063616E742072656675 PUSH1 0x0 DUP3 ADD MSTORE PUSH32 0x6E64000000000000000000000000000000000000000000000000000000000000 PUSH1 0x20 DUP3 ADD MSTORE POP JUMP JUMPDEST PUSH1 0x0 PUSH2 0x116C PUSH1 0x22 DUP4 PUSH2 0x1027 JUMP JUMPDEST SWAP2 POP PUSH2 0x1177 DUP3 PUSH2 0x1110 JUMP JUMPDEST PUSH1 0x40 DUP3 ADD SWAP1 POP SWAP2 SWAP1 POP JUMP JUMPDEST PUSH1 0x0 PUSH1 0x20 DUP3 ADD SWAP1 POP DUP2 DUP2 SUB PUSH1 0x0 DUP4 ADD MSTORE PUSH2 0x119B DUP2 PUSH2 0x115F JUMP JUMPDEST SWAP1 POP SWAP2 SWAP1 POP JUMP JUMPDEST PUSH1 0x0 PUSH2 0x11AD DUP3 PUSH2 0xF8D JUMP JUMPDEST SWAP1 POP SWAP2 SWAP1 POP JUMP JUMPDEST PUSH2 0x11BD DUP2 PUSH2 0x11A2 JUMP JUMPDEST DUP3 MSTORE POP POP JUMP JUMPDEST PUSH2 0x11CC DUP2 PUSH2 0xE5B JUMP JUMPDEST DUP3 MSTORE POP POP JUMP JUMPDEST PUSH1 0x0 PUSH1 0x40 DUP3 ADD SWAP1 POP PUSH2 0x11E7 PUSH1 0x0 DUP4 ADD DUP6 PUSH2 0x11B4 JUMP JUMPDEST PUSH2 0x11F4 PUSH1 0x20 DUP4 ADD DUP5 PUSH2 0x11C3 JUMP JUMPDEST SWAP4 SWAP3 POP POP POP JUMP JUMPDEST PUSH1 0x0 DUP2 ISZERO ISZERO SWAP1 POP SWAP2 SWAP1 POP JUMP JUMPDEST PUSH2 0x1210 DUP2 PUSH2 0x11FB JUMP JUMPDEST DUP2 EQ PUSH2 0x121B JUMPI PUSH1 0x0 DUP1 REVERT JUMPDEST POP JUMP JUMPDEST PUSH1 0x0 DUP2 MLOAD SWAP1 POP PUSH2 0x122D DUP2 PUSH2 0x1207 JUMP JUMPDEST SWAP3 SWAP2 POP POP JUMP JUMPDEST PUSH1 0x0 PUSH1 0x20 DUP3 DUP5 SUB SLT ISZERO PUSH2 0x1249 JUMPI PUSH2 0x1248 PUSH2 0xE56 JUMP JUMPDEST JUMPDEST PUSH1 0x0 PUSH2 0x1257 DUP5 DUP3 DUP6 ADD PUSH2 0x121E JUMP JUMPDEST SWAP2 POP POP SWAP3 SWAP2 POP POP JUMP JUMPDEST PUSH32 0x737461727420616E6420656E6420696E636F7272656374000000000000000000 PUSH1 0x0 DUP3 ADD MSTORE POP JUMP JUMPDEST PUSH1 0x0 PUSH2 0x1296 PUSH1 0x17 DUP4 PUSH2 0x1027 JUMP JUMPDEST SWAP2 POP PUSH2 0x12A1 DUP3 PUSH2 0x1260 JUMP JUMPDEST PUSH1 0x20 DUP3 ADD SWAP1 POP SWAP2 SWAP1 POP JUMP JUMPDEST PUSH1 0x0 PUSH1 0x20 DUP3 ADD SWAP1 POP DUP2 DUP2 SUB PUSH1 0x0 DUP4 ADD MSTORE PUSH2 0x12C5 DUP2 PUSH2 0x1289 JUMP JUMPDEST SWAP1 POP SWAP2 SWAP1 POP JUMP JUMPDEST PUSH32 0x4E487B7100000000000000000000000000000000000000000000000000000000 PUSH1 0x0 MSTORE PUSH1 0x11 PUSH1 0x4 MSTORE PUSH1 0x24 PUSH1 0x0 REVERT JUMPDEST PUSH1 0x0 PUSH2 0x1306 DUP3 PUSH2 0xEBE JUMP JUMPDEST SWAP2 POP PUSH2 0x1311 DUP4 PUSH2 0xEBE JUMP JUMPDEST SWAP3 POP DUP3 PUSH4 0xFFFFFFFF SUB DUP3 GT ISZERO PUSH2 0x132A JUMPI PUSH2 0x1329 PUSH2 0x12CC JUMP JUMPDEST JUMPDEST DUP3 DUP3 ADD SWAP1 POP SWAP3 SWAP2 POP POP JUMP JUMPDEST PUSH32 0x746F6F206C6F6E672063616D706169676E000000000000000000000000000000 PUSH1 0x0 DUP3 ADD MSTORE POP JUMP JUMPDEST PUSH1 0x0 PUSH2 0x136B PUSH1 0x11 DUP4 PUSH2 0x1027 JUMP JUMPDEST SWAP2 POP PUSH2 0x1376 DUP3 PUSH2 0x1335 JUMP JUMPDEST PUSH1 0x20 DUP3 ADD SWAP1 POP SWAP2 SWAP1 POP JUMP JUMPDEST PUSH1 0x0 PUSH1 0x20 DUP3 ADD SWAP1 POP DUP2 DUP2 SUB PUSH1 0x0 DUP4 ADD MSTORE PUSH2 0x139A DUP2 PUSH2 0x135E JUMP JUMPDEST SWAP1 POP SWAP2 SWAP1 POP JUMP JUMPDEST PUSH1 0x0 PUSH2 0x13AC DUP3 PUSH2 0xE5B JUMP JUMPDEST SWAP2 POP PUSH2 0x13B7 DUP4 PUSH2 0xE5B JUMP JUMPDEST SWAP3 POP DUP3 PUSH32 0xFFFFFFFFFFFFFFFFFFFFFFFFFFFFFFFFFFFFFFFFFFFFFFFFFFFFFFFFFFFFFFFF SUB DUP3 GT ISZERO PUSH2 0x13EC JUMPI PUSH2 0x13EB PUSH2 0x12CC JUMP JUMPDEST JUMPDEST DUP3 DUP3 ADD SWAP1 POP SWAP3 SWAP2 POP POP JUMP JUMPDEST PUSH32 0x6E6F742063726561746F72000000000000000000000000000000000000000000 PUSH1 0x0 DUP3 ADD MSTORE POP JUMP JUMPDEST PUSH1 0x0 PUSH2 0x142D PUSH1 0xB DUP4 PUSH2 0x1027 JUMP JUMPDEST SWAP2 POP PUSH2 0x1438 DUP3 PUSH2 0x13F7 JUMP JUMPDEST PUSH1 0x20 DUP3 ADD SWAP1 POP SWAP2 SWAP1 POP JUMP JUMPDEST PUSH1 0x0 PUSH1 0x20 DUP3 ADD SWAP1 POP DUP2 DUP2 SUB PUSH1 0x0 DUP4 ADD MSTORE PUSH2 0x145C DUP2 PUSH2 0x1420 JUMP JUMPDEST SWAP1 POP SWAP2 SWAP1 POP JUMP JUMPDEST PUSH32 0x6E6F7420656E6F67680000000000000000000000000000000000000000000000 PUSH1 0x0 DUP3 ADD MSTORE POP JUMP JUMPDEST PUSH1 0x0 PUSH2 0x1499 PUSH1 0x9 DUP4 PUSH2 0x1027 JUMP JUMPDEST SWAP2 POP PUSH2 0x14A4 DUP3 PUSH2 0x1463 JUMP JUMPDEST PUSH1 0x20 DUP3 ADD SWAP1 POP SWAP2 SWAP1 POP JUMP JUMPDEST PUSH1 0x0 PUSH1 0x20 DUP3 ADD SWAP1 POP DUP2 DUP2 SUB PUSH1 0x0 DUP4 ADD MSTORE PUSH2 0x14C8 DUP2 PUSH2 0x148C JUMP JUMPDEST SWAP1 POP SWAP2 SWAP1 POP JUMP JUMPDEST PUSH32 0x636C61696D656400000000000000000000000000000000000000000000000000 PUSH1 0x0 DUP3 ADD MSTORE POP JUMP JUMPDEST PUSH1 0x0 PUSH2 0x1505 PUSH1 0x7 DUP4 PUSH2 0x1027 JUMP JUMPDEST SWAP2 POP PUSH2 0x1510 DUP3 PUSH2 0x14CF JUMP JUMPDEST PUSH1 0x20 DUP3 ADD SWAP1 POP SWAP2 SWAP1 POP JUMP JUMPDEST PUSH1 0x0 PUSH1 0x20 DUP3 ADD SWAP1 POP DUP2 DUP2 SUB PUSH1 0x0 DUP4 ADD MSTORE PUSH2 0x1534 DUP2 PUSH2 0x14F8 JUMP JUMPDEST SWAP1 POP SWAP2 SWAP1 POP JUMP JUMPDEST PUSH32 0x656E646564000000000000000000000000000000000000000000000000000000 PUSH1 0x0 DUP3 ADD MSTORE POP JUMP JUMPDEST PUSH1 0x0 PUSH2 0x1571 PUSH1 0x5 DUP4 PUSH2 0x1027 JUMP JUMPDEST SWAP2 POP PUSH2 0x157C DUP3 PUSH2 0x153B JUMP JUMPDEST PUSH1 0x20 DUP3 ADD SWAP1 POP SWAP2 SWAP1 POP JUMP JUMPDEST PUSH1 0x0 PUSH1 0x20 DUP3 ADD SWAP1 POP DUP2 DUP2 SUB PUSH1 0x0 DUP4 ADD MSTORE PUSH2 0x15A0 DUP2 PUSH2 0x1564 JUMP JUMPDEST SWAP1 POP SWAP2 SWAP1 POP JUMP JUMPDEST PUSH1 0x0 PUSH2 0x15B2 DUP3 PUSH2 0xE5B JUMP JUMPDEST SWAP2 POP PUSH2 0x15BD DUP4 PUSH2 0xE5B JUMP JUMPDEST SWAP3 POP DUP3 DUP3 LT ISZERO PUSH2 0x15D0 JUMPI PUSH2 0x15CF PUSH2 0x12CC JUMP JUMPDEST JUMPDEST DUP3 DUP3 SUB SWAP1 POP SWAP3 SWAP2 POP POP JUMP JUMPDEST PUSH1 0x0 PUSH1 0x60 DUP3 ADD SWAP1 POP PUSH2 0x15F0 PUSH1 0x0 DUP4 ADD DUP7 PUSH2 0x11B4 JUMP JUMPDEST PUSH2 0x15FD PUSH1 0x20 DUP4 ADD DUP6 PUSH2 0x11B4 JUMP JUMPDEST PUSH2 0x160A PUSH1 0x40 DUP4 ADD DUP5 PUSH2 0x11C3 JUMP JUMPDEST SWAP5 SWAP4 POP POP POP POP JUMP INVALID LOG2 PUSH5 0x6970667358 0x22 SLT KECCAK256 0xD2 0x4A PUSH13 0x8B72A502344116E723B847178E SWAP15 PUSH22 0x6CB4E184923535C522CB37F85C6364736F6C63430008 0xF STOP CALLER "
				},
				"gasEstimates": {
					"creation": {
						"codeDepositCost": "1140800",
						"executionCost": "infinite",
						"totalCost": "infinite"
					},
					"external": {
						"cancel(uint256)": "120854",
						"claim(uint256)": "infinite",
						"launch(uint256,uint32,uint32)": "infinite",
						"pledge(uint256,uint256)": "infinite",
						"refund(uint256)": "infinite",
						"token()": "infinite",
						"unpledge(uint256,uint256)": "infinite"
					}
				},
				"methodIdentifiers": {
					"cancel(uint256)": "40e58ee5",
					"claim(uint256)": "379607f5",
					"launch(uint256,uint32,uint32)": "2c63f146",
					"pledge(uint256,uint256)": "fde327be",
					"refund(uint256)": "278ecde1",
					"token()": "fc0c546a",
					"unpledge(uint256,uint256)": "711853ab"
				}
			},
			"storageLayout": {
				"storage": [
					{
						"astId": 4,
						"contract": "CrowdFund.sol:CrowdFund",
						"label": "count",
						"offset": 0,
						"slot": "0",
						"type": "t_uint256"
					},
					{
						"astId": 25,
						"contract": "CrowdFund.sol:CrowdFund",
						"label": "campaigns",
						"offset": 0,
						"slot": "1",
						"type": "t_mapping(t_uint256,t_struct(Campaign)17_storage)"
					},
					{
						"astId": 31,
						"contract": "CrowdFund.sol:CrowdFund",
						"label": "pledgedAmount",
						"offset": 0,
						"slot": "2",
						"type": "t_mapping(t_uint256,t_mapping(t_address,t_uint256))"
					}
				],
				"types": {
					"t_address": {
						"encoding": "inplace",
						"label": "address",
						"numberOfBytes": "20"
					},
					"t_bool": {
						"encoding": "inplace",
						"label": "bool",
						"numberOfBytes": "1"
					},
					"t_mapping(t_address,t_uint256)": {
						"encoding": "mapping",
						"key": "t_address",
						"label": "mapping(address => uint256)",
						"numberOfBytes": "32",
						"value": "t_uint256"
					},
					"t_mapping(t_uint256,t_mapping(t_address,t_uint256))": {
						"encoding": "mapping",
						"key": "t_uint256",
						"label": "mapping(uint256 => mapping(address => uint256))",
						"numberOfBytes": "32",
						"value": "t_mapping(t_address,t_uint256)"
					},
					"t_mapping(t_uint256,t_struct(Campaign)17_storage)": {
						"encoding": "mapping",
						"key": "t_uint256",
						"label": "mapping(uint256 => struct CrowdFund.Campaign)",
						"numberOfBytes": "32",
						"value": "t_struct(Campaign)17_storage"
					},
					"t_struct(Campaign)17_storage": {
						"encoding": "inplace",
						"label": "struct CrowdFund.Campaign",
						"members": [
							{
								"astId": 6,
								"contract": "CrowdFund.sol:CrowdFund",
								"label": "creator",
								"offset": 0,
								"slot": "0",
								"type": "t_address"
							},
							{
								"astId": 8,
								"contract": "CrowdFund.sol:CrowdFund",
								"label": "goal",
								"offset": 0,
								"slot": "1",
								"type": "t_uint256"
							},
							{
								"astId": 10,
								"contract": "CrowdFund.sol:CrowdFund",
								"label": "pledged",
								"offset": 0,
								"slot": "2",
								"type": "t_uint256"
							},
							{
								"astId": 12,
								"contract": "CrowdFund.sol:CrowdFund",
								"label": "startAt",
								"offset": 0,
								"slot": "3",
								"type": "t_uint32"
							},
							{
								"astId": 14,
								"contract": "CrowdFund.sol:CrowdFund",
								"label": "endAt",
								"offset": 4,
								"slot": "3",
								"type": "t_uint32"
							},
							{
								"astId": 16,
								"contract": "CrowdFund.sol:CrowdFund",
								"label": "claimed",
								"offset": 8,
								"slot": "3",
								"type": "t_bool"
							}
						],
						"numberOfBytes": "128"
					},
					"t_uint256": {
						"encoding": "inplace",
						"label": "uint256",
						"numberOfBytes": "32"
					},
					"t_uint32": {
						"encoding": "inplace",
						"label": "uint32",
						"numberOfBytes": "4"
					}
				}
			},
			"userdoc": {
				"kind": "user",
				"methods": {},
				"version": 1
			}
		}
	}
}