{
	"MultiCall.sol": {
		"TestMultiCall": {
			"abi": [
				{
					"inputs": [],
					"name": "f1",
					"outputs": [
						{
							"internalType": "uint256",
							"name": "",
							"type": "uint256"
						},
						{
							"internalType": "uint256",
							"name": "",
							"type": "uint256"
						}
					],
					"stateMutability": "view",
					"type": "function"
				},
				{
					"inputs": [],
					"name": "f2",
					"outputs": [
						{
							"internalType": "uint256",
							"name": "",
							"type": "uint256"
						},
						{
							"internalType": "uint256",
							"name": "",
							"type": "uint256"
						}
					],
					"stateMutability": "view",
					"type": "function"
				},
				{
					"inputs": [],
					"name": "getData1",
					"outputs": [
						{
							"internalType": "bytes",
							"name": "",
							"type": "bytes"
						}
					],
					"stateMutability": "pure",
					"type": "function"
				},
				{
					"inputs": [],
					"name": "getData2",
					"outputs": [
						{
							"internalType": "bytes",
							"name": "",
							"type": "bytes"
						}
					],
					"stateMutability": "pure",
					"type": "function"
				}
			],
			"devdoc": {
				"kind": "dev",
				"methods": {},
				"version": 1
			},
			"evm": {
				"assembly": "    /* \"MultiCall.sol\":58:519  contract TestMultiCall{... */\n  mstore(0x40, 0x80)\n  callvalue\n  dup1\n  iszero\n  tag_1\n  jumpi\n  0x00\n  dup1\n  revert\ntag_1:\n  pop\n  dataSize(sub_0)\n  dup1\n  dataOffset(sub_0)\n  0x00\n  codecopy\n  0x00\n  return\nstop\n\nsub_0: assembly {\n        /* \"MultiCall.sol\":58:519  contract TestMultiCall{... */\n      mstore(0x40, 0x80)\n      callvalue\n      dup1\n      iszero\n      tag_1\n      jumpi\n      0x00\n      dup1\n      revert\n    tag_1:\n      pop\n      jumpi(tag_2, lt(calldatasize, 0x04))\n      shr(0xe0, calldataload(0x00))\n      dup1\n      0x9942ec6f\n      eq\n      tag_3\n      jumpi\n      dup1\n      0x9944cc71\n      eq\n      tag_4\n      jumpi\n      dup1\n      0xa898fd70\n      eq\n      tag_5\n      jumpi\n      dup1\n      0xc27fc305\n      eq\n      tag_6\n      jumpi\n    tag_2:\n      0x00\n      dup1\n      revert\n        /* \"MultiCall.sol\":179:267  function f2() external view returns(uint,uint){... */\n    tag_3:\n      tag_7\n      tag_8\n      jump\t// in\n    tag_7:\n      mload(0x40)\n      tag_9\n      swap3\n      swap2\n      swap1\n      tag_10\n      jump\t// in\n    tag_9:\n      mload(0x40)\n      dup1\n      swap2\n      sub\n      swap1\n      return\n        /* \"MultiCall.sol\":273:392  function getData1() external pure returns(bytes memory){... */\n    tag_4:\n      tag_11\n      tag_12\n      jump\t// in\n    tag_11:\n      mload(0x40)\n      tag_13\n      swap2\n      swap1\n      tag_14\n      jump\t// in\n    tag_13:\n      mload(0x40)\n      dup1\n      swap2\n      sub\n      swap1\n      return\n        /* \"MultiCall.sol\":398:517  function getData2() external pure returns(bytes memory){... */\n    tag_5:\n      tag_15\n      tag_16\n      jump\t// in\n    tag_15:\n      mload(0x40)\n      tag_17\n      swap2\n      swap1\n      tag_14\n      jump\t// in\n    tag_17:\n      mload(0x40)\n      dup1\n      swap2\n      sub\n      swap1\n      return\n        /* \"MultiCall.sol\":86:174  function f1() external view returns(uint,uint){... */\n    tag_6:\n      tag_18\n      tag_19\n      jump\t// in\n    tag_18:\n      mload(0x40)\n      tag_20\n      swap3\n      swap2\n      swap1\n      tag_10\n      jump\t// in\n    tag_20:\n      mload(0x40)\n      dup1\n      swap2\n      sub\n      swap1\n      return\n        /* \"MultiCall.sol\":179:267  function f2() external view returns(uint,uint){... */\n    tag_8:\n        /* \"MultiCall.sol\":215:219  uint */\n      0x00\n        /* \"MultiCall.sol\":220:224  uint */\n      dup1\n        /* \"MultiCall.sol\":242:243  2 */\n      0x02\n        /* \"MultiCall.sol\":244:259  block.timestamp */\n      timestamp\n        /* \"MultiCall.sol\":235:260  return(2,block.timestamp) */\n      swap2\n      pop\n      swap2\n      pop\n        /* \"MultiCall.sol\":179:267  function f2() external view returns(uint,uint){... */\n      swap1\n      swap2\n      jump\t// out\n        /* \"MultiCall.sol\":273:392  function getData1() external pure returns(bytes memory){... */\n    tag_12:\n        /* \"MultiCall.sol\":315:327  bytes memory */\n      0x60\n        /* \"MultiCall.sol\":368:384  this.f1.selector */\n      shl(0xe0, 0xc27fc305)\n        /* \"MultiCall.sol\":345:385  abi.encodeWithSelector(this.f1.selector) */\n      add(0x24, mload(0x40))\n      mload(0x40)\n      0x20\n      dup2\n      dup4\n      sub\n      sub\n      dup2\n      mstore\n      swap1\n      0x40\n      mstore\n      swap1\n      not(0xffffffffffffffffffffffffffffffffffffffffffffffffffffffff)\n      and\n      0x20\n      dup3\n      add\n      dup1\n      mload\n      0xffffffffffffffffffffffffffffffffffffffffffffffffffffffff\n      dup4\n      dup2\n      dup4\n      and\n      or\n      dup4\n      mstore\n      pop\n      pop\n      pop\n      pop\n        /* \"MultiCall.sol\":338:385  return abi.encodeWithSelector(this.f1.selector) */\n      swap1\n      pop\n        /* \"MultiCall.sol\":273:392  function getData1() external pure returns(bytes memory){... */\n      swap1\n      jump\t// out\n        /* \"MultiCall.sol\":398:517  function getData2() external pure returns(bytes memory){... */\n    tag_16:\n        /* \"MultiCall.sol\":440:452  bytes memory */\n      0x60\n        /* \"MultiCall.sol\":493:509  this.f2.selector */\n      shl(0xe0, 0x9942ec6f)\n        /* \"MultiCall.sol\":470:510  abi.encodeWithSelector(this.f2.selector) */\n      add(0x24, mload(0x40))\n      mload(0x40)\n      0x20\n      dup2\n      dup4\n      sub\n      sub\n      dup2\n      mstore\n      swap1\n      0x40\n      mstore\n      swap1\n      not(0xffffffffffffffffffffffffffffffffffffffffffffffffffffffff)\n      and\n      0x20\n      dup3\n      add\n      dup1\n      mload\n      0xffffffffffffffffffffffffffffffffffffffffffffffffffffffff\n      dup4\n      dup2\n      dup4\n      and\n      or\n      dup4\n      mstore\n      pop\n      pop\n      pop\n      pop\n        /* \"MultiCall.sol\":463:510  return abi.encodeWithSelector(this.f2.selector) */\n      swap1\n      pop\n        /* \"MultiCall.sol\":398:517  function getData2() external pure returns(bytes memory){... */\n      swap1\n      jump\t// out\n        /* \"MultiCall.sol\":86:174  function f1() external view returns(uint,uint){... */\n    tag_19:\n        /* \"MultiCall.sol\":122:126  uint */\n      0x00\n        /* \"MultiCall.sol\":127:131  uint */\n      dup1\n        /* \"MultiCall.sol\":149:150  1 */\n      0x01\n        /* \"MultiCall.sol\":151:166  block.timestamp */\n      timestamp\n        /* \"MultiCall.sol\":142:167  return(1,block.timestamp) */\n      swap2\n      pop\n      swap2\n      pop\n        /* \"MultiCall.sol\":86:174  function f1() external view returns(uint,uint){... */\n      swap1\n      swap2\n      jump\t// out\n        /* \"#utility.yul\":7:84   */\n    tag_25:\n        /* \"#utility.yul\":44:51   */\n      0x00\n        /* \"#utility.yul\":73:78   */\n      dup2\n        /* \"#utility.yul\":62:78   */\n      swap1\n      pop\n        /* \"#utility.yul\":7:84   */\n      swap2\n      swap1\n      pop\n      jump\t// out\n        /* \"#utility.yul\":90:208   */\n    tag_26:\n        /* \"#utility.yul\":177:201   */\n      tag_35\n        /* \"#utility.yul\":195:200   */\n      dup2\n        /* \"#utility.yul\":177:201   */\n      tag_25\n      jump\t// in\n    tag_35:\n        /* \"#utility.yul\":172:175   */\n      dup3\n        /* \"#utility.yul\":165:202   */\n      mstore\n        /* \"#utility.yul\":90:208   */\n      pop\n      pop\n      jump\t// out\n        /* \"#utility.yul\":214:546   */\n    tag_10:\n        /* \"#utility.yul\":335:339   */\n      0x00\n        /* \"#utility.yul\":373:375   */\n      0x40\n        /* \"#utility.yul\":362:371   */\n      dup3\n        /* \"#utility.yul\":358:376   */\n      add\n        /* \"#utility.yul\":350:376   */\n      swap1\n      pop\n        /* \"#utility.yul\":386:457   */\n      tag_37\n        /* \"#utility.yul\":454:455   */\n      0x00\n        /* \"#utility.yul\":443:452   */\n      dup4\n        /* \"#utility.yul\":439:456   */\n      add\n        /* \"#utility.yul\":430:436   */\n      dup6\n        /* \"#utility.yul\":386:457   */\n      tag_26\n      jump\t// in\n    tag_37:\n        /* \"#utility.yul\":467:539   */\n      tag_38\n        /* \"#utility.yul\":535:537   */\n      0x20\n        /* \"#utility.yul\":524:533   */\n      dup4\n        /* \"#utility.yul\":520:538   */\n      add\n        /* \"#utility.yul\":511:517   */\n      dup5\n        /* \"#utility.yul\":467:539   */\n      tag_26\n      jump\t// in\n    tag_38:\n        /* \"#utility.yul\":214:546   */\n      swap4\n      swap3\n      pop\n      pop\n      pop\n      jump\t// out\n        /* \"#utility.yul\":552:650   */\n    tag_27:\n        /* \"#utility.yul\":603:609   */\n      0x00\n        /* \"#utility.yul\":637:642   */\n      dup2\n        /* \"#utility.yul\":631:643   */\n      mload\n        /* \"#utility.yul\":621:643   */\n      swap1\n      pop\n        /* \"#utility.yul\":552:650   */\n      swap2\n      swap1\n      pop\n      jump\t// out\n        /* \"#utility.yul\":656:824   */\n    tag_28:\n        /* \"#utility.yul\":739:750   */\n      0x00\n        /* \"#utility.yul\":773:779   */\n      dup3\n        /* \"#utility.yul\":768:771   */\n      dup3\n        /* \"#utility.yul\":761:780   */\n      mstore\n        /* \"#utility.yul\":813:817   */\n      0x20\n        /* \"#utility.yul\":808:811   */\n      dup3\n        /* \"#utility.yul\":804:818   */\n      add\n        /* \"#utility.yul\":789:818   */\n      swap1\n      pop\n        /* \"#utility.yul\":656:824   */\n      swap3\n      swap2\n      pop\n      pop\n      jump\t// out\n        /* \"#utility.yul\":830:1137   */\n    tag_29:\n        /* \"#utility.yul\":898:899   */\n      0x00\n        /* \"#utility.yul\":908:1021   */\n    tag_42:\n        /* \"#utility.yul\":922:928   */\n      dup4\n        /* \"#utility.yul\":919:920   */\n      dup2\n        /* \"#utility.yul\":916:929   */\n      lt\n        /* \"#utility.yul\":908:1021   */\n      iszero\n      tag_44\n      jumpi\n        /* \"#utility.yul\":1007:1008   */\n      dup1\n        /* \"#utility.yul\":1002:1005   */\n      dup3\n        /* \"#utility.yul\":998:1009   */\n      add\n        /* \"#utility.yul\":992:1010   */\n      mload\n        /* \"#utility.yul\":988:989   */\n      dup2\n        /* \"#utility.yul\":983:986   */\n      dup5\n        /* \"#utility.yul\":979:990   */\n      add\n        /* \"#utility.yul\":972:1011   */\n      mstore\n        /* \"#utility.yul\":944:946   */\n      0x20\n        /* \"#utility.yul\":941:942   */\n      dup2\n        /* \"#utility.yul\":937:947   */\n      add\n        /* \"#utility.yul\":932:947   */\n      swap1\n      pop\n        /* \"#utility.yul\":908:1021   */\n      jump(tag_42)\n    tag_44:\n        /* \"#utility.yul\":1039:1045   */\n      dup4\n        /* \"#utility.yul\":1036:1037   */\n      dup2\n        /* \"#utility.yul\":1033:1046   */\n      gt\n        /* \"#utility.yul\":1030:1131   */\n      iszero\n      tag_45\n      jumpi\n        /* \"#utility.yul\":1119:1120   */\n      0x00\n        /* \"#utility.yul\":1110:1116   */\n      dup5\n        /* \"#utility.yul\":1105:1108   */\n      dup5\n        /* \"#utility.yul\":1101:1117   */\n      add\n        /* \"#utility.yul\":1094:1121   */\n      mstore\n        /* \"#utility.yul\":1030:1131   */\n    tag_45:\n        /* \"#utility.yul\":879:1137   */\n      pop\n        /* \"#utility.yul\":830:1137   */\n      pop\n      pop\n      pop\n      jump\t// out\n        /* \"#utility.yul\":1143:1245   */\n    tag_30:\n        /* \"#utility.yul\":1184:1190   */\n      0x00\n        /* \"#utility.yul\":1235:1237   */\n      0x1f\n        /* \"#utility.yul\":1231:1238   */\n      not\n        /* \"#utility.yul\":1226:1228   */\n      0x1f\n        /* \"#utility.yul\":1219:1224   */\n      dup4\n        /* \"#utility.yul\":1215:1229   */\n      add\n        /* \"#utility.yul\":1211:1239   */\n      and\n        /* \"#utility.yul\":1201:1239   */\n      swap1\n      pop\n        /* \"#utility.yul\":1143:1245   */\n      swap2\n      swap1\n      pop\n      jump\t// out\n        /* \"#utility.yul\":1251:1611   */\n    tag_31:\n        /* \"#utility.yul\":1337:1340   */\n      0x00\n        /* \"#utility.yul\":1365:1403   */\n      tag_48\n        /* \"#utility.yul\":1397:1402   */\n      dup3\n        /* \"#utility.yul\":1365:1403   */\n      tag_27\n      jump\t// in\n    tag_48:\n        /* \"#utility.yul\":1419:1489   */\n      tag_49\n        /* \"#utility.yul\":1482:1488   */\n      dup2\n        /* \"#utility.yul\":1477:1480   */\n      dup6\n        /* \"#utility.yul\":1419:1489   */\n      tag_28\n      jump\t// in\n    tag_49:\n        /* \"#utility.yul\":1412:1489   */\n      swap4\n      pop\n        /* \"#utility.yul\":1498:1550   */\n      tag_50\n        /* \"#utility.yul\":1543:1549   */\n      dup2\n        /* \"#utility.yul\":1538:1541   */\n      dup6\n        /* \"#utility.yul\":1531:1535   */\n      0x20\n        /* \"#utility.yul\":1524:1529   */\n      dup7\n        /* \"#utility.yul\":1520:1536   */\n      add\n        /* \"#utility.yul\":1498:1550   */\n      tag_29\n      jump\t// in\n    tag_50:\n        /* \"#utility.yul\":1575:1604   */\n      tag_51\n        /* \"#utility.yul\":1597:1603   */\n      dup2\n        /* \"#utility.yul\":1575:1604   */\n      tag_30\n      jump\t// in\n    tag_51:\n        /* \"#utility.yul\":1570:1573   */\n      dup5\n        /* \"#utility.yul\":1566:1605   */\n      add\n        /* \"#utility.yul\":1559:1605   */\n      swap2\n      pop\n        /* \"#utility.yul\":1341:1611   */\n      pop\n        /* \"#utility.yul\":1251:1611   */\n      swap3\n      swap2\n      pop\n      pop\n      jump\t// out\n        /* \"#utility.yul\":1617:1926   */\n    tag_14:\n        /* \"#utility.yul\":1728:1732   */\n      0x00\n        /* \"#utility.yul\":1766:1768   */\n      0x20\n        /* \"#utility.yul\":1755:1764   */\n      dup3\n        /* \"#utility.yul\":1751:1769   */\n      add\n        /* \"#utility.yul\":1743:1769   */\n      swap1\n      pop\n        /* \"#utility.yul\":1815:1824   */\n      dup2\n        /* \"#utility.yul\":1809:1813   */\n      dup2\n        /* \"#utility.yul\":1805:1825   */\n      sub\n        /* \"#utility.yul\":1801:1802   */\n      0x00\n        /* \"#utility.yul\":1790:1799   */\n      dup4\n        /* \"#utility.yul\":1786:1803   */\n      add\n        /* \"#utility.yul\":1779:1826   */\n      mstore\n        /* \"#utility.yul\":1843:1919   */\n      tag_53\n        /* \"#utility.yul\":1914:1918   */\n      dup2\n        /* \"#utility.yul\":1905:1911   */\n      dup5\n        /* \"#utility.yul\":1843:1919   */\n      tag_31\n      jump\t// in\n    tag_53:\n        /* \"#utility.yul\":1835:1919   */\n      swap1\n      pop\n        /* \"#utility.yul\":1617:1926   */\n      swap3\n      swap2\n      pop\n      pop\n      jump\t// out\n\n    auxdata: 0xa264697066735822122069708442f312fbf332aa39cf79d54fa87c97487dd7e88bddac57184873d1784d64736f6c634300080f0033\n}\n",
				"bytecode": {
					"linkReferences": {},
					"object": "608060405234801561001057600080fd5b506102fe806100206000396000f3fe608060405234801561001057600080fd5b506004361061004c5760003560e01c80639942ec6f146100515780639944cc7114610070578063a898fd701461008e578063c27fc305146100ac575b600080fd5b6100596100cb565b6040516100679291906101e4565b60405180910390f35b6100786100d9565b60405161008591906102a6565b60405180910390f35b61009661014b565b6040516100a391906102a6565b60405180910390f35b6100b46101bd565b6040516100c29291906101e4565b60405180910390f35b600080600242915091509091565b606063c27fc30560e01b604051602401604051602081830303815290604052907bffffffffffffffffffffffffffffffffffffffffffffffffffffffff19166020820180517bffffffffffffffffffffffffffffffffffffffffffffffffffffffff8381831617835250505050905090565b6060639942ec6f60e01b604051602401604051602081830303815290604052907bffffffffffffffffffffffffffffffffffffffffffffffffffffffff19166020820180517bffffffffffffffffffffffffffffffffffffffffffffffffffffffff8381831617835250505050905090565b600080600142915091509091565b6000819050919050565b6101de816101cb565b82525050565b60006040820190506101f960008301856101d5565b61020660208301846101d5565b9392505050565b600081519050919050565b600082825260208201905092915050565b60005b8381101561024757808201518184015260208101905061022c565b83811115610256576000848401525b50505050565b6000601f19601f8301169050919050565b60006102788261020d565b6102828185610218565b9350610292818560208601610229565b61029b8161025c565b840191505092915050565b600060208201905081810360008301526102c0818461026d565b90509291505056fea264697066735822122069708442f312fbf332aa39cf79d54fa87c97487dd7e88bddac57184873d1784d64736f6c634300080f0033",
					"opcodes": "PUSH1 0x80 PUSH1 0x40 MSTORE CALLVALUE DUP1 ISZERO PUSH2 0x10 JUMPI PUSH1 0x0 DUP1 REVERT JUMPDEST POP PUSH2 0x2FE DUP1 PUSH2 0x20 PUSH1 0x0 CODECOPY PUSH1 0x0 RETURN INVALID PUSH1 0x80 PUSH1 0x40 MSTORE CALLVALUE DUP1 ISZERO PUSH2 0x10 JUMPI PUSH1 0x0 DUP1 REVERT JUMPDEST POP PUSH1 0x4 CALLDATASIZE LT PUSH2 0x4C JUMPI PUSH1 0x0 CALLDATALOAD PUSH1 0xE0 SHR DUP1 PUSH4 0x9942EC6F EQ PUSH2 0x51 JUMPI DUP1 PUSH4 0x9944CC71 EQ PUSH2 0x70 JUMPI DUP1 PUSH4 0xA898FD70 EQ PUSH2 0x8E JUMPI DUP1 PUSH4 0xC27FC305 EQ PUSH2 0xAC JUMPI JUMPDEST PUSH1 0x0 DUP1 REVERT JUMPDEST PUSH2 0x59 PUSH2 0xCB JUMP JUMPDEST PUSH1 0x40 MLOAD PUSH2 0x67 SWAP3 SWAP2 SWAP1 PUSH2 0x1E4 JUMP JUMPDEST PUSH1 0x40 MLOAD DUP1 SWAP2 SUB SWAP1 RETURN JUMPDEST PUSH2 0x78 PUSH2 0xD9 JUMP JUMPDEST PUSH1 0x40 MLOAD PUSH2 0x85 SWAP2 SWAP1 PUSH2 0x2A6 JUMP JUMPDEST PUSH1 0x40 MLOAD DUP1 SWAP2 SUB SWAP1 RETURN JUMPDEST PUSH2 0x96 PUSH2 0x14B JUMP JUMPDEST PUSH1 0x40 MLOAD PUSH2 0xA3 SWAP2 SWAP1 PUSH2 0x2A6 JUMP JUMPDEST PUSH1 0x40 MLOAD DUP1 SWAP2 SUB SWAP1 RETURN JUMPDEST PUSH2 0xB4 PUSH2 0x1BD JUMP JUMPDEST PUSH1 0x40 MLOAD PUSH2 0xC2 SWAP3 SWAP2 SWAP1 PUSH2 0x1E4 JUMP JUMPDEST PUSH1 0x40 MLOAD DUP1 SWAP2 SUB SWAP1 RETURN JUMPDEST PUSH1 0x0 DUP1 PUSH1 0x2 TIMESTAMP SWAP2 POP SWAP2 POP SWAP1 SWAP2 JUMP JUMPDEST PUSH1 0x60 PUSH4 0xC27FC305 PUSH1 0xE0 SHL PUSH1 0x40 MLOAD PUSH1 0x24 ADD PUSH1 0x40 MLOAD PUSH1 0x20 DUP2 DUP4 SUB SUB DUP2 MSTORE SWAP1 PUSH1 0x40 MSTORE SWAP1 PUSH28 0xFFFFFFFFFFFFFFFFFFFFFFFFFFFFFFFFFFFFFFFFFFFFFFFFFFFFFFFF NOT AND PUSH1 0x20 DUP3 ADD DUP1 MLOAD PUSH28 0xFFFFFFFFFFFFFFFFFFFFFFFFFFFFFFFFFFFFFFFFFFFFFFFFFFFFFFFF DUP4 DUP2 DUP4 AND OR DUP4 MSTORE POP POP POP POP SWAP1 POP SWAP1 JUMP JUMPDEST PUSH1 0x60 PUSH4 0x9942EC6F PUSH1 0xE0 SHL PUSH1 0x40 MLOAD PUSH1 0x24 ADD PUSH1 0x40 MLOAD PUSH1 0x20 DUP2 DUP4 SUB SUB DUP2 MSTORE SWAP1 PUSH1 0x40 MSTORE SWAP1 PUSH28 0xFFFFFFFFFFFFFFFFFFFFFFFFFFFFFFFFFFFFFFFFFFFFFFFFFFFFFFFF NOT AND PUSH1 0x20 DUP3 ADD DUP1 MLOAD PUSH28 0xFFFFFFFFFFFFFFFFFFFFFFFFFFFFFFFFFFFFFFFFFFFFFFFFFFFFFFFF DUP4 DUP2 DUP4 AND OR DUP4 MSTORE POP POP POP POP SWAP1 POP SWAP1 JUMP JUMPDEST PUSH1 0x0 DUP1 PUSH1 0x1 TIMESTAMP SWAP2 POP SWAP2 POP SWAP1 SWAP2 JUMP JUMPDEST PUSH1 0x0 DUP2 SWAP1 POP SWAP2 SWAP1 POP JUMP JUMPDEST PUSH2 0x1DE DUP2 PUSH2 0x1CB JUMP JUMPDEST DUP3 MSTORE POP POP JUMP JUMPDEST PUSH1 0x0 PUSH1 0x40 DUP3 ADD SWAP1 POP PUSH2 0x1F9 PUSH1 0x0 DUP4 ADD DUP6 PUSH2 0x1D5 JUMP JUMPDEST PUSH2 0x206 PUSH1 0x20 DUP4 ADD DUP5 PUSH2 0x1D5 JUMP JUMPDEST SWAP4 SWAP3 POP POP POP JUMP JUMPDEST PUSH1 0x0 DUP2 MLOAD SWAP1 POP SWAP2 SWAP1 POP JUMP JUMPDEST PUSH1 0x0 DUP3 DUP3 MSTORE PUSH1 0x20 DUP3 ADD SWAP1 POP SWAP3 SWAP2 POP POP JUMP JUMPDEST PUSH1 0x0 JUMPDEST DUP4 DUP2 LT ISZERO PUSH2 0x247 JUMPI DUP1 DUP3 ADD MLOAD DUP2 DUP5 ADD MSTORE PUSH1 0x20 DUP2 ADD SWAP1 POP PUSH2 0x22C JUMP JUMPDEST DUP4 DUP2 GT ISZERO PUSH2 0x256 JUMPI PUSH1 0x0 DUP5 DUP5 ADD MSTORE JUMPDEST POP POP POP POP JUMP JUMPDEST PUSH1 0x0 PUSH1 0x1F NOT PUSH1 0x1F DUP4 ADD AND SWAP1 POP SWAP2 SWAP1 POP JUMP JUMPDEST PUSH1 0x0 PUSH2 0x278 DUP3 PUSH2 0x20D JUMP JUMPDEST PUSH2 0x282 DUP2 DUP6 PUSH2 0x218 JUMP JUMPDEST SWAP4 POP PUSH2 0x292 DUP2 DUP6 PUSH1 0x20 DUP7 ADD PUSH2 0x229 JUMP JUMPDEST PUSH2 0x29B DUP2 PUSH2 0x25C JUMP JUMPDEST DUP5 ADD SWAP2 POP POP SWAP3 SWAP2 POP POP JUMP JUMPDEST PUSH1 0x0 PUSH1 0x20 DUP3 ADD SWAP1 POP DUP2 DUP2 SUB PUSH1 0x0 DUP4 ADD MSTORE PUSH2 0x2C0 DUP2 DUP5 PUSH2 0x26D JUMP JUMPDEST SWAP1 POP SWAP3 SWAP2 POP POP JUMP INVALID LOG2 PUSH5 0x6970667358 0x22 SLT KECCAK256 PUSH10 0x708442F312FBF332AA39 0xCF PUSH26 0xD54FA87C97487DD7E88BDDAC57184873D1784D64736F6C634300 ADDMOD 0xF STOP CALLER "
				},
				"gasEstimates": {
					"creation": {
						"codeDepositCost": "153200",
						"executionCost": "196",
						"totalCost": "153396"
					},
					"external": {
						"f1()": "infinite",
						"f2()": "infinite",
						"getData1()": "infinite",
						"getData2()": "infinite"
					}
				},
				"methodIdentifiers": {
					"f1()": "c27fc305",
					"f2()": "9942ec6f",
					"getData1()": "9944cc71",
					"getData2()": "a898fd70"
				}
			},
			"storageLayout": {
				"storage": [],
				"types": null
			},
			"userdoc": {
				"kind": "user",
				"methods": {},
				"version": 1
			}
		}
	}
}