{
	"ChangeVarsWithDelegate.sol": {
		"Updated": {
			"abi": [
				{
					"inputs": [],
					"name": "getModifier",
					"outputs": [
						{
							"internalType": "uint256",
							"name": "",
							"type": "uint256"
						}
					],
					"stateMutability": "view",
					"type": "function"
				},
				{
					"inputs": [
						{
							"internalType": "uint256",
							"name": "d1",
							"type": "uint256"
						},
						{
							"internalType": "string",
							"name": "d2",
							"type": "string"
						},
						{
							"internalType": "address",
							"name": "d3",
							"type": "address"
						}
					],
					"name": "set",
					"outputs": [],
					"stateMutability": "nonpayable",
					"type": "function"
				},
				{
					"inputs": [
						{
							"internalType": "uint256",
							"name": "m",
							"type": "uint256"
						}
					],
					"name": "setModifier",
					"outputs": [],
					"stateMutability": "nonpayable",
					"type": "function"
				}
			],
			"devdoc": {
				"kind": "dev",
				"methods": {},
				"version": 1
			},
			"evm": {
				"assembly": "    /* \"ChangeVarsWithDelegate.sol\":333:685  contract Updated{... */\n  mstore(0x40, 0x80)\n  callvalue\n  dup1\n  iszero\n  tag_1\n  jumpi\n  0x00\n  dup1\n  revert\ntag_1:\n  pop\n  dataSize(sub_0)\n  dup1\n  dataOffset(sub_0)\n  0x00\n  codecopy\n  0x00\n  return\nstop\n\nsub_0: assembly {\n        /* \"ChangeVarsWithDelegate.sol\":333:685  contract Updated{... */\n      mstore(0x40, 0x80)\n      callvalue\n      dup1\n      iszero\n      tag_1\n      jumpi\n      0x00\n      dup1\n      revert\n    tag_1:\n      pop\n      jumpi(tag_2, lt(calldatasize, 0x04))\n      shr(0xe0, calldataload(0x00))\n      dup1\n      0x27852c8d\n      eq\n      tag_3\n      jumpi\n      dup1\n      0x5eba0df0\n      eq\n      tag_4\n      jumpi\n      dup1\n      0xcc53907e\n      eq\n      tag_5\n      jumpi\n    tag_2:\n      0x00\n      dup1\n      revert\n        /* \"ChangeVarsWithDelegate.sol\":430:497  function setModifier(uint m) external {... */\n    tag_3:\n      tag_6\n      0x04\n      dup1\n      calldatasize\n      sub\n      dup2\n      add\n      swap1\n      tag_7\n      swap2\n      swap1\n      tag_8\n      jump\t// in\n    tag_7:\n      tag_9\n      jump\t// in\n    tag_6:\n      stop\n        /* \"ChangeVarsWithDelegate.sol\":561:683  function set(uint d1,string calldata d2,address d3) external {... */\n    tag_4:\n      tag_10\n      0x04\n      dup1\n      calldatasize\n      sub\n      dup2\n      add\n      swap1\n      tag_11\n      swap2\n      swap1\n      tag_12\n      jump\t// in\n    tag_11:\n      tag_13\n      jump\t// in\n    tag_10:\n      stop\n        /* \"ChangeVarsWithDelegate.sol\":503:555  function getModifier() external view returns(uint){} */\n    tag_5:\n      tag_14\n      tag_15\n      jump\t// in\n    tag_14:\n      mload(0x40)\n      tag_16\n      swap2\n      swap1\n      tag_17\n      jump\t// in\n    tag_16:\n      mload(0x40)\n      dup1\n      swap2\n      sub\n      swap1\n      return\n        /* \"ChangeVarsWithDelegate.sol\":430:497  function setModifier(uint m) external {... */\n    tag_9:\n        /* \"ChangeVarsWithDelegate.sol\":489:490  m */\n      dup1\n        /* \"ChangeVarsWithDelegate.sol\":478:488  myModifier */\n      0x03\n        /* \"ChangeVarsWithDelegate.sol\":478:490  myModifier=m */\n      dup2\n      swap1\n      sstore\n      pop\n        /* \"ChangeVarsWithDelegate.sol\":430:497  function setModifier(uint m) external {... */\n      pop\n      jump\t// out\n        /* \"ChangeVarsWithDelegate.sol\":561:683  function set(uint d1,string calldata d2,address d3) external {... */\n    tag_13:\n        /* \"ChangeVarsWithDelegate.sol\":638:640  d1 */\n      dup4\n        /* \"ChangeVarsWithDelegate.sol\":632:637  data1 */\n      0x00\n        /* \"ChangeVarsWithDelegate.sol\":632:640  data1=d1 */\n      dup2\n      swap1\n      sstore\n      pop\n        /* \"ChangeVarsWithDelegate.sol\":656:658  d2 */\n      dup3\n      dup3\n        /* \"ChangeVarsWithDelegate.sol\":650:655  data2 */\n      0x01\n        /* \"ChangeVarsWithDelegate.sol\":650:658  data2=d2 */\n      swap2\n      swap1\n      tag_20\n      swap3\n      swap2\n      swap1\n      tag_21\n      jump\t// in\n    tag_20:\n      pop\n        /* \"ChangeVarsWithDelegate.sol\":674:676  d3 */\n      dup1\n        /* \"ChangeVarsWithDelegate.sol\":668:673  data3 */\n      0x02\n      0x00\n        /* \"ChangeVarsWithDelegate.sol\":668:676  data3=d3 */\n      0x0100\n      exp\n      dup2\n      sload\n      dup2\n      0xffffffffffffffffffffffffffffffffffffffff\n      mul\n      not\n      and\n      swap1\n      dup4\n      0xffffffffffffffffffffffffffffffffffffffff\n      and\n      mul\n      or\n      swap1\n      sstore\n      pop\n        /* \"ChangeVarsWithDelegate.sol\":561:683  function set(uint d1,string calldata d2,address d3) external {... */\n      pop\n      pop\n      pop\n      pop\n      jump\t// out\n        /* \"ChangeVarsWithDelegate.sol\":503:555  function getModifier() external view returns(uint){} */\n    tag_15:\n        /* \"ChangeVarsWithDelegate.sol\":548:552  uint */\n      0x00\n        /* \"ChangeVarsWithDelegate.sol\":503:555  function getModifier() external view returns(uint){} */\n      swap1\n      jump\t// out\n    tag_21:\n      dup3\n      dup1\n      sload\n      tag_23\n      swap1\n      tag_24\n      jump\t// in\n    tag_23:\n      swap1\n      0x00\n      mstore\n      keccak256(0x00, 0x20)\n      swap1\n      0x1f\n      add\n      0x20\n      swap1\n      div\n      dup2\n      add\n      swap3\n      dup3\n      tag_26\n      jumpi\n      0x00\n      dup6\n      sstore\n      jump(tag_25)\n    tag_26:\n      dup3\n      0x1f\n      lt\n      tag_27\n      jumpi\n      dup1\n      calldataload\n      not(0xff)\n      and\n      dup4\n      dup1\n      add\n      or\n      dup6\n      sstore\n      jump(tag_25)\n    tag_27:\n      dup3\n      dup1\n      add\n      0x01\n      add\n      dup6\n      sstore\n      dup3\n      iszero\n      tag_25\n      jumpi\n      swap2\n      dup3\n      add\n    tag_28:\n      dup3\n      dup2\n      gt\n      iszero\n      tag_29\n      jumpi\n      dup3\n      calldataload\n      dup3\n      sstore\n      swap2\n      0x20\n      add\n      swap2\n      swap1\n      0x01\n      add\n      swap1\n      jump(tag_28)\n    tag_29:\n    tag_25:\n      pop\n      swap1\n      pop\n      tag_30\n      swap2\n      swap1\n      tag_31\n      jump\t// in\n    tag_30:\n      pop\n      swap1\n      jump\t// out\n    tag_31:\n    tag_32:\n      dup1\n      dup3\n      gt\n      iszero\n      tag_33\n      jumpi\n      0x00\n      dup2\n      0x00\n      swap1\n      sstore\n      pop\n      0x01\n      add\n      jump(tag_32)\n    tag_33:\n      pop\n      swap1\n      jump\t// out\n        /* \"#utility.yul\":7:146   */\n    tag_35:\n        /* \"#utility.yul\":53:58   */\n      0x00\n        /* \"#utility.yul\":91:97   */\n      dup2\n        /* \"#utility.yul\":78:98   */\n      calldataload\n        /* \"#utility.yul\":69:98   */\n      swap1\n      pop\n        /* \"#utility.yul\":107:140   */\n      tag_37\n        /* \"#utility.yul\":134:139   */\n      dup2\n        /* \"#utility.yul\":107:140   */\n      tag_38\n      jump\t// in\n    tag_37:\n        /* \"#utility.yul\":7:146   */\n      swap3\n      swap2\n      pop\n      pop\n      jump\t// out\n        /* \"#utility.yul\":166:719   */\n    tag_39:\n        /* \"#utility.yul\":224:232   */\n      0x00\n        /* \"#utility.yul\":234:240   */\n      dup1\n        /* \"#utility.yul\":284:287   */\n      dup4\n        /* \"#utility.yul\":277:281   */\n      0x1f\n        /* \"#utility.yul\":269:275   */\n      dup5\n        /* \"#utility.yul\":265:282   */\n      add\n        /* \"#utility.yul\":261:288   */\n      slt\n        /* \"#utility.yul\":251:373   */\n      tag_41\n      jumpi\n        /* \"#utility.yul\":292:371   */\n      tag_42\n      tag_43\n      jump\t// in\n    tag_42:\n        /* \"#utility.yul\":251:373   */\n    tag_41:\n        /* \"#utility.yul\":405:411   */\n      dup3\n        /* \"#utility.yul\":392:412   */\n      calldataload\n        /* \"#utility.yul\":382:412   */\n      swap1\n      pop\n        /* \"#utility.yul\":435:453   */\n      0xffffffffffffffff\n        /* \"#utility.yul\":427:433   */\n      dup2\n        /* \"#utility.yul\":424:454   */\n      gt\n        /* \"#utility.yul\":421:538   */\n      iszero\n      tag_44\n      jumpi\n        /* \"#utility.yul\":457:536   */\n      tag_45\n      tag_46\n      jump\t// in\n    tag_45:\n        /* \"#utility.yul\":421:538   */\n    tag_44:\n        /* \"#utility.yul\":571:575   */\n      0x20\n        /* \"#utility.yul\":563:569   */\n      dup4\n        /* \"#utility.yul\":559:576   */\n      add\n        /* \"#utility.yul\":547:576   */\n      swap2\n      pop\n        /* \"#utility.yul\":625:628   */\n      dup4\n        /* \"#utility.yul\":617:621   */\n      0x01\n        /* \"#utility.yul\":609:615   */\n      dup3\n        /* \"#utility.yul\":605:622   */\n      mul\n        /* \"#utility.yul\":595:603   */\n      dup4\n        /* \"#utility.yul\":591:623   */\n      add\n        /* \"#utility.yul\":588:629   */\n      gt\n        /* \"#utility.yul\":585:713   */\n      iszero\n      tag_47\n      jumpi\n        /* \"#utility.yul\":632:711   */\n      tag_48\n      tag_49\n      jump\t// in\n    tag_48:\n        /* \"#utility.yul\":585:713   */\n    tag_47:\n        /* \"#utility.yul\":166:719   */\n      swap3\n      pop\n      swap3\n      swap1\n      pop\n      jump\t// out\n        /* \"#utility.yul\":725:864   */\n    tag_50:\n        /* \"#utility.yul\":771:776   */\n      0x00\n        /* \"#utility.yul\":809:815   */\n      dup2\n        /* \"#utility.yul\":796:816   */\n      calldataload\n        /* \"#utility.yul\":787:816   */\n      swap1\n      pop\n        /* \"#utility.yul\":825:858   */\n      tag_52\n        /* \"#utility.yul\":852:857   */\n      dup2\n        /* \"#utility.yul\":825:858   */\n      tag_53\n      jump\t// in\n    tag_52:\n        /* \"#utility.yul\":725:864   */\n      swap3\n      swap2\n      pop\n      pop\n      jump\t// out\n        /* \"#utility.yul\":870:1199   */\n    tag_8:\n        /* \"#utility.yul\":929:935   */\n      0x00\n        /* \"#utility.yul\":978:980   */\n      0x20\n        /* \"#utility.yul\":966:975   */\n      dup3\n        /* \"#utility.yul\":957:964   */\n      dup5\n        /* \"#utility.yul\":953:976   */\n      sub\n        /* \"#utility.yul\":949:981   */\n      slt\n        /* \"#utility.yul\":946:1065   */\n      iszero\n      tag_55\n      jumpi\n        /* \"#utility.yul\":984:1063   */\n      tag_56\n      tag_57\n      jump\t// in\n    tag_56:\n        /* \"#utility.yul\":946:1065   */\n    tag_55:\n        /* \"#utility.yul\":1104:1105   */\n      0x00\n        /* \"#utility.yul\":1129:1182   */\n      tag_58\n        /* \"#utility.yul\":1174:1181   */\n      dup5\n        /* \"#utility.yul\":1165:1171   */\n      dup3\n        /* \"#utility.yul\":1154:1163   */\n      dup6\n        /* \"#utility.yul\":1150:1172   */\n      add\n        /* \"#utility.yul\":1129:1182   */\n      tag_50\n      jump\t// in\n    tag_58:\n        /* \"#utility.yul\":1119:1182   */\n      swap2\n      pop\n        /* \"#utility.yul\":1075:1192   */\n      pop\n        /* \"#utility.yul\":870:1199   */\n      swap3\n      swap2\n      pop\n      pop\n      jump\t// out\n        /* \"#utility.yul\":1205:2024   */\n    tag_12:\n        /* \"#utility.yul\":1294:1300   */\n      0x00\n        /* \"#utility.yul\":1302:1308   */\n      dup1\n        /* \"#utility.yul\":1310:1316   */\n      0x00\n        /* \"#utility.yul\":1318:1324   */\n      dup1\n        /* \"#utility.yul\":1367:1369   */\n      0x60\n        /* \"#utility.yul\":1355:1364   */\n      dup6\n        /* \"#utility.yul\":1346:1353   */\n      dup8\n        /* \"#utility.yul\":1342:1365   */\n      sub\n        /* \"#utility.yul\":1338:1370   */\n      slt\n        /* \"#utility.yul\":1335:1454   */\n      iszero\n      tag_60\n      jumpi\n        /* \"#utility.yul\":1373:1452   */\n      tag_61\n      tag_57\n      jump\t// in\n    tag_61:\n        /* \"#utility.yul\":1335:1454   */\n    tag_60:\n        /* \"#utility.yul\":1493:1494   */\n      0x00\n        /* \"#utility.yul\":1518:1571   */\n      tag_62\n        /* \"#utility.yul\":1563:1570   */\n      dup8\n        /* \"#utility.yul\":1554:1560   */\n      dup3\n        /* \"#utility.yul\":1543:1552   */\n      dup9\n        /* \"#utility.yul\":1539:1561   */\n      add\n        /* \"#utility.yul\":1518:1571   */\n      tag_50\n      jump\t// in\n    tag_62:\n        /* \"#utility.yul\":1508:1571   */\n      swap5\n      pop\n        /* \"#utility.yul\":1464:1581   */\n      pop\n        /* \"#utility.yul\":1648:1650   */\n      0x20\n        /* \"#utility.yul\":1637:1646   */\n      dup6\n        /* \"#utility.yul\":1633:1651   */\n      add\n        /* \"#utility.yul\":1620:1652   */\n      calldataload\n        /* \"#utility.yul\":1679:1697   */\n      0xffffffffffffffff\n        /* \"#utility.yul\":1671:1677   */\n      dup2\n        /* \"#utility.yul\":1668:1698   */\n      gt\n        /* \"#utility.yul\":1665:1782   */\n      iszero\n      tag_63\n      jumpi\n        /* \"#utility.yul\":1701:1780   */\n      tag_64\n      tag_65\n      jump\t// in\n    tag_64:\n        /* \"#utility.yul\":1665:1782   */\n    tag_63:\n        /* \"#utility.yul\":1814:1879   */\n      tag_66\n        /* \"#utility.yul\":1871:1878   */\n      dup8\n        /* \"#utility.yul\":1862:1868   */\n      dup3\n        /* \"#utility.yul\":1851:1860   */\n      dup9\n        /* \"#utility.yul\":1847:1869   */\n      add\n        /* \"#utility.yul\":1814:1879   */\n      tag_39\n      jump\t// in\n    tag_66:\n        /* \"#utility.yul\":1796:1879   */\n      swap4\n      pop\n      swap4\n      pop\n        /* \"#utility.yul\":1591:1889   */\n      pop\n        /* \"#utility.yul\":1928:1930   */\n      0x40\n        /* \"#utility.yul\":1954:2007   */\n      tag_67\n        /* \"#utility.yul\":1999:2006   */\n      dup8\n        /* \"#utility.yul\":1990:1996   */\n      dup3\n        /* \"#utility.yul\":1979:1988   */\n      dup9\n        /* \"#utility.yul\":1975:1997   */\n      add\n        /* \"#utility.yul\":1954:2007   */\n      tag_35\n      jump\t// in\n    tag_67:\n        /* \"#utility.yul\":1944:2007   */\n      swap2\n      pop\n        /* \"#utility.yul\":1899:2017   */\n      pop\n        /* \"#utility.yul\":1205:2024   */\n      swap3\n      swap6\n      swap2\n      swap5\n      pop\n      swap3\n      pop\n      jump\t// out\n        /* \"#utility.yul\":2030:2148   */\n    tag_68:\n        /* \"#utility.yul\":2117:2141   */\n      tag_70\n        /* \"#utility.yul\":2135:2140   */\n      dup2\n        /* \"#utility.yul\":2117:2141   */\n      tag_71\n      jump\t// in\n    tag_70:\n        /* \"#utility.yul\":2112:2115   */\n      dup3\n        /* \"#utility.yul\":2105:2142   */\n      mstore\n        /* \"#utility.yul\":2030:2148   */\n      pop\n      pop\n      jump\t// out\n        /* \"#utility.yul\":2154:2376   */\n    tag_17:\n        /* \"#utility.yul\":2247:2251   */\n      0x00\n        /* \"#utility.yul\":2285:2287   */\n      0x20\n        /* \"#utility.yul\":2274:2283   */\n      dup3\n        /* \"#utility.yul\":2270:2288   */\n      add\n        /* \"#utility.yul\":2262:2288   */\n      swap1\n      pop\n        /* \"#utility.yul\":2298:2369   */\n      tag_73\n        /* \"#utility.yul\":2366:2367   */\n      0x00\n        /* \"#utility.yul\":2355:2364   */\n      dup4\n        /* \"#utility.yul\":2351:2368   */\n      add\n        /* \"#utility.yul\":2342:2348   */\n      dup5\n        /* \"#utility.yul\":2298:2369   */\n      tag_68\n      jump\t// in\n    tag_73:\n        /* \"#utility.yul\":2154:2376   */\n      swap3\n      swap2\n      pop\n      pop\n      jump\t// out\n        /* \"#utility.yul\":2463:2559   */\n    tag_76:\n        /* \"#utility.yul\":2500:2507   */\n      0x00\n        /* \"#utility.yul\":2529:2553   */\n      tag_78\n        /* \"#utility.yul\":2547:2552   */\n      dup3\n        /* \"#utility.yul\":2529:2553   */\n      tag_79\n      jump\t// in\n    tag_78:\n        /* \"#utility.yul\":2518:2553   */\n      swap1\n      pop\n        /* \"#utility.yul\":2463:2559   */\n      swap2\n      swap1\n      pop\n      jump\t// out\n        /* \"#utility.yul\":2565:2691   */\n    tag_79:\n        /* \"#utility.yul\":2602:2609   */\n      0x00\n        /* \"#utility.yul\":2642:2684   */\n      0xffffffffffffffffffffffffffffffffffffffff\n        /* \"#utility.yul\":2635:2640   */\n      dup3\n        /* \"#utility.yul\":2631:2685   */\n      and\n        /* \"#utility.yul\":2620:2685   */\n      swap1\n      pop\n        /* \"#utility.yul\":2565:2691   */\n      swap2\n      swap1\n      pop\n      jump\t// out\n        /* \"#utility.yul\":2697:2774   */\n    tag_71:\n        /* \"#utility.yul\":2734:2741   */\n      0x00\n        /* \"#utility.yul\":2763:2768   */\n      dup2\n        /* \"#utility.yul\":2752:2768   */\n      swap1\n      pop\n        /* \"#utility.yul\":2697:2774   */\n      swap2\n      swap1\n      pop\n      jump\t// out\n        /* \"#utility.yul\":2780:3100   */\n    tag_24:\n        /* \"#utility.yul\":2824:2830   */\n      0x00\n        /* \"#utility.yul\":2861:2862   */\n      0x02\n        /* \"#utility.yul\":2855:2859   */\n      dup3\n        /* \"#utility.yul\":2851:2863   */\n      div\n        /* \"#utility.yul\":2841:2863   */\n      swap1\n      pop\n        /* \"#utility.yul\":2908:2909   */\n      0x01\n        /* \"#utility.yul\":2902:2906   */\n      dup3\n        /* \"#utility.yul\":2898:2910   */\n      and\n        /* \"#utility.yul\":2929:2947   */\n      dup1\n        /* \"#utility.yul\":2919:3000   */\n      tag_83\n      jumpi\n        /* \"#utility.yul\":2985:2989   */\n      0x7f\n        /* \"#utility.yul\":2977:2983   */\n      dup3\n        /* \"#utility.yul\":2973:2990   */\n      and\n        /* \"#utility.yul\":2963:2990   */\n      swap2\n      pop\n        /* \"#utility.yul\":2919:3000   */\n    tag_83:\n        /* \"#utility.yul\":3047:3049   */\n      0x20\n        /* \"#utility.yul\":3039:3045   */\n      dup3\n        /* \"#utility.yul\":3036:3050   */\n      lt\n        /* \"#utility.yul\":3016:3034   */\n      dup2\n        /* \"#utility.yul\":3013:3051   */\n      eq\n        /* \"#utility.yul\":3010:3094   */\n      iszero\n      tag_84\n      jumpi\n        /* \"#utility.yul\":3066:3084   */\n      tag_85\n      tag_86\n      jump\t// in\n    tag_85:\n        /* \"#utility.yul\":3010:3094   */\n    tag_84:\n        /* \"#utility.yul\":2831:3100   */\n      pop\n        /* \"#utility.yul\":2780:3100   */\n      swap2\n      swap1\n      pop\n      jump\t// out\n        /* \"#utility.yul\":3106:3286   */\n    tag_86:\n        /* \"#utility.yul\":3154:3231   */\n      0x4e487b7100000000000000000000000000000000000000000000000000000000\n        /* \"#utility.yul\":3151:3152   */\n      0x00\n        /* \"#utility.yul\":3144:3232   */\n      mstore\n        /* \"#utility.yul\":3251:3255   */\n      0x22\n        /* \"#utility.yul\":3248:3249   */\n      0x04\n        /* \"#utility.yul\":3241:3256   */\n      mstore\n        /* \"#utility.yul\":3275:3279   */\n      0x24\n        /* \"#utility.yul\":3272:3273   */\n      0x00\n        /* \"#utility.yul\":3265:3280   */\n      revert\n        /* \"#utility.yul\":3292:3409   */\n    tag_46:\n        /* \"#utility.yul\":3401:3402   */\n      0x00\n        /* \"#utility.yul\":3398:3399   */\n      dup1\n        /* \"#utility.yul\":3391:3403   */\n      revert\n        /* \"#utility.yul\":3415:3532   */\n    tag_43:\n        /* \"#utility.yul\":3524:3525   */\n      0x00\n        /* \"#utility.yul\":3521:3522   */\n      dup1\n        /* \"#utility.yul\":3514:3526   */\n      revert\n        /* \"#utility.yul\":3538:3655   */\n    tag_49:\n        /* \"#utility.yul\":3647:3648   */\n      0x00\n        /* \"#utility.yul\":3644:3645   */\n      dup1\n        /* \"#utility.yul\":3637:3649   */\n      revert\n        /* \"#utility.yul\":3661:3778   */\n    tag_65:\n        /* \"#utility.yul\":3770:3771   */\n      0x00\n        /* \"#utility.yul\":3767:3768   */\n      dup1\n        /* \"#utility.yul\":3760:3772   */\n      revert\n        /* \"#utility.yul\":3784:3901   */\n    tag_57:\n        /* \"#utility.yul\":3893:3894   */\n      0x00\n        /* \"#utility.yul\":3890:3891   */\n      dup1\n        /* \"#utility.yul\":3883:3895   */\n      revert\n        /* \"#utility.yul\":3907:4029   */\n    tag_38:\n        /* \"#utility.yul\":3980:4004   */\n      tag_94\n        /* \"#utility.yul\":3998:4003   */\n      dup2\n        /* \"#utility.yul\":3980:4004   */\n      tag_76\n      jump\t// in\n    tag_94:\n        /* \"#utility.yul\":3973:3978   */\n      dup2\n        /* \"#utility.yul\":3970:4005   */\n      eq\n        /* \"#utility.yul\":3960:4023   */\n      tag_95\n      jumpi\n        /* \"#utility.yul\":4019:4020   */\n      0x00\n        /* \"#utility.yul\":4016:4017   */\n      dup1\n        /* \"#utility.yul\":4009:4021   */\n      revert\n        /* \"#utility.yul\":3960:4023   */\n    tag_95:\n        /* \"#utility.yul\":3907:4029   */\n      pop\n      jump\t// out\n        /* \"#utility.yul\":4035:4157   */\n    tag_53:\n        /* \"#utility.yul\":4108:4132   */\n      tag_97\n        /* \"#utility.yul\":4126:4131   */\n      dup2\n        /* \"#utility.yul\":4108:4132   */\n      tag_71\n      jump\t// in\n    tag_97:\n        /* \"#utility.yul\":4101:4106   */\n      dup2\n        /* \"#utility.yul\":4098:4133   */\n      eq\n        /* \"#utility.yul\":4088:4151   */\n      tag_98\n      jumpi\n        /* \"#utility.yul\":4147:4148   */\n      0x00\n        /* \"#utility.yul\":4144:4145   */\n      dup1\n        /* \"#utility.yul\":4137:4149   */\n      revert\n        /* \"#utility.yul\":4088:4151   */\n    tag_98:\n        /* \"#utility.yul\":4035:4157   */\n      pop\n      jump\t// out\n\n    auxdata: 0xa2646970667358221220a2464e82d25788e9f53ce88df7b0d19ef196b76f04e66d7658450ba4b3ee2f4964736f6c63430008070033\n}\n",
				"bytecode": {
					"linkReferences": {},
					"object": "608060405234801561001057600080fd5b50610413806100206000396000f3fe608060405234801561001057600080fd5b50600436106100415760003560e01c806327852c8d146100465780635eba0df014610062578063cc53907e1461007e575b600080fd5b610060600480360381019061005b919061022e565b61009c565b005b61007c6004803603810190610077919061025b565b6100a6565b005b610086610106565b60405161009391906102de565b60405180910390f35b8060038190555050565b836000819055508282600191906100be92919061010b565b5080600260006101000a81548173ffffffffffffffffffffffffffffffffffffffff021916908373ffffffffffffffffffffffffffffffffffffffff16021790555050505050565b600090565b82805461011790610335565b90600052602060002090601f0160209004810192826101395760008555610180565b82601f1061015257803560ff1916838001178555610180565b82800160010185558215610180579182015b8281111561017f578235825591602001919060010190610164565b5b50905061018d9190610191565b5090565b5b808211156101aa576000816000905550600101610192565b5090565b6000813590506101bd816103af565b92915050565b60008083601f8401126101d9576101d861039b565b5b8235905067ffffffffffffffff8111156101f6576101f5610396565b5b602083019150836001820283011115610212576102116103a0565b5b9250929050565b600081359050610228816103c6565b92915050565b600060208284031215610244576102436103aa565b5b600061025284828501610219565b91505092915050565b60008060008060608587031215610275576102746103aa565b5b600061028387828801610219565b945050602085013567ffffffffffffffff8111156102a4576102a36103a5565b5b6102b0878288016101c3565b935093505060406102c3878288016101ae565b91505092959194509250565b6102d88161032b565b82525050565b60006020820190506102f360008301846102cf565b92915050565b60006103048261030b565b9050919050565b600073ffffffffffffffffffffffffffffffffffffffff82169050919050565b6000819050919050565b6000600282049050600182168061034d57607f821691505b6020821081141561036157610360610367565b5b50919050565b7f4e487b7100000000000000000000000000000000000000000000000000000000600052602260045260246000fd5b600080fd5b600080fd5b600080fd5b600080fd5b600080fd5b6103b8816102f9565b81146103c357600080fd5b50565b6103cf8161032b565b81146103da57600080fd5b5056fea2646970667358221220a2464e82d25788e9f53ce88df7b0d19ef196b76f04e66d7658450ba4b3ee2f4964736f6c63430008070033",
					"opcodes": "PUSH1 0x80 PUSH1 0x40 MSTORE CALLVALUE DUP1 ISZERO PUSH2 0x10 JUMPI PUSH1 0x0 DUP1 REVERT JUMPDEST POP PUSH2 0x413 DUP1 PUSH2 0x20 PUSH1 0x0 CODECOPY PUSH1 0x0 RETURN INVALID PUSH1 0x80 PUSH1 0x40 MSTORE CALLVALUE DUP1 ISZERO PUSH2 0x10 JUMPI PUSH1 0x0 DUP1 REVERT JUMPDEST POP PUSH1 0x4 CALLDATASIZE LT PUSH2 0x41 JUMPI PUSH1 0x0 CALLDATALOAD PUSH1 0xE0 SHR DUP1 PUSH4 0x27852C8D EQ PUSH2 0x46 JUMPI DUP1 PUSH4 0x5EBA0DF0 EQ PUSH2 0x62 JUMPI DUP1 PUSH4 0xCC53907E EQ PUSH2 0x7E JUMPI JUMPDEST PUSH1 0x0 DUP1 REVERT JUMPDEST PUSH2 0x60 PUSH1 0x4 DUP1 CALLDATASIZE SUB DUP2 ADD SWAP1 PUSH2 0x5B SWAP2 SWAP1 PUSH2 0x22E JUMP JUMPDEST PUSH2 0x9C JUMP JUMPDEST STOP JUMPDEST PUSH2 0x7C PUSH1 0x4 DUP1 CALLDATASIZE SUB DUP2 ADD SWAP1 PUSH2 0x77 SWAP2 SWAP1 PUSH2 0x25B JUMP JUMPDEST PUSH2 0xA6 JUMP JUMPDEST STOP JUMPDEST PUSH2 0x86 PUSH2 0x106 JUMP JUMPDEST PUSH1 0x40 MLOAD PUSH2 0x93 SWAP2 SWAP1 PUSH2 0x2DE JUMP JUMPDEST PUSH1 0x40 MLOAD DUP1 SWAP2 SUB SWAP1 RETURN JUMPDEST DUP1 PUSH1 0x3 DUP2 SWAP1 SSTORE POP POP JUMP JUMPDEST DUP4 PUSH1 0x0 DUP2 SWAP1 SSTORE POP DUP3 DUP3 PUSH1 0x1 SWAP2 SWAP1 PUSH2 0xBE SWAP3 SWAP2 SWAP1 PUSH2 0x10B JUMP JUMPDEST POP DUP1 PUSH1 0x2 PUSH1 0x0 PUSH2 0x100 EXP DUP2 SLOAD DUP2 PUSH20 0xFFFFFFFFFFFFFFFFFFFFFFFFFFFFFFFFFFFFFFFF MUL NOT AND SWAP1 DUP4 PUSH20 0xFFFFFFFFFFFFFFFFFFFFFFFFFFFFFFFFFFFFFFFF AND MUL OR SWAP1 SSTORE POP POP POP POP POP JUMP JUMPDEST PUSH1 0x0 SWAP1 JUMP JUMPDEST DUP3 DUP1 SLOAD PUSH2 0x117 SWAP1 PUSH2 0x335 JUMP JUMPDEST SWAP1 PUSH1 0x0 MSTORE PUSH1 0x20 PUSH1 0x0 KECCAK256 SWAP1 PUSH1 0x1F ADD PUSH1 0x20 SWAP1 DIV DUP2 ADD SWAP3 DUP3 PUSH2 0x139 JUMPI PUSH1 0x0 DUP6 SSTORE PUSH2 0x180 JUMP JUMPDEST DUP3 PUSH1 0x1F LT PUSH2 0x152 JUMPI DUP1 CALLDATALOAD PUSH1 0xFF NOT AND DUP4 DUP1 ADD OR DUP6 SSTORE PUSH2 0x180 JUMP JUMPDEST DUP3 DUP1 ADD PUSH1 0x1 ADD DUP6 SSTORE DUP3 ISZERO PUSH2 0x180 JUMPI SWAP2 DUP3 ADD JUMPDEST DUP3 DUP2 GT ISZERO PUSH2 0x17F JUMPI DUP3 CALLDATALOAD DUP3 SSTORE SWAP2 PUSH1 0x20 ADD SWAP2 SWAP1 PUSH1 0x1 ADD SWAP1 PUSH2 0x164 JUMP JUMPDEST JUMPDEST POP SWAP1 POP PUSH2 0x18D SWAP2 SWAP1 PUSH2 0x191 JUMP JUMPDEST POP SWAP1 JUMP JUMPDEST JUMPDEST DUP1 DUP3 GT ISZERO PUSH2 0x1AA JUMPI PUSH1 0x0 DUP2 PUSH1 0x0 SWAP1 SSTORE POP PUSH1 0x1 ADD PUSH2 0x192 JUMP JUMPDEST POP SWAP1 JUMP JUMPDEST PUSH1 0x0 DUP2 CALLDATALOAD SWAP1 POP PUSH2 0x1BD DUP2 PUSH2 0x3AF JUMP JUMPDEST SWAP3 SWAP2 POP POP JUMP JUMPDEST PUSH1 0x0 DUP1 DUP4 PUSH1 0x1F DUP5 ADD SLT PUSH2 0x1D9 JUMPI PUSH2 0x1D8 PUSH2 0x39B JUMP JUMPDEST JUMPDEST DUP3 CALLDATALOAD SWAP1 POP PUSH8 0xFFFFFFFFFFFFFFFF DUP2 GT ISZERO PUSH2 0x1F6 JUMPI PUSH2 0x1F5 PUSH2 0x396 JUMP JUMPDEST JUMPDEST PUSH1 0x20 DUP4 ADD SWAP2 POP DUP4 PUSH1 0x1 DUP3 MUL DUP4 ADD GT ISZERO PUSH2 0x212 JUMPI PUSH2 0x211 PUSH2 0x3A0 JUMP JUMPDEST JUMPDEST SWAP3 POP SWAP3 SWAP1 POP JUMP JUMPDEST PUSH1 0x0 DUP2 CALLDATALOAD SWAP1 POP PUSH2 0x228 DUP2 PUSH2 0x3C6 JUMP JUMPDEST SWAP3 SWAP2 POP POP JUMP JUMPDEST PUSH1 0x0 PUSH1 0x20 DUP3 DUP5 SUB SLT ISZERO PUSH2 0x244 JUMPI PUSH2 0x243 PUSH2 0x3AA JUMP JUMPDEST JUMPDEST PUSH1 0x0 PUSH2 0x252 DUP5 DUP3 DUP6 ADD PUSH2 0x219 JUMP JUMPDEST SWAP2 POP POP SWAP3 SWAP2 POP POP JUMP JUMPDEST PUSH1 0x0 DUP1 PUSH1 0x0 DUP1 PUSH1 0x60 DUP6 DUP8 SUB SLT ISZERO PUSH2 0x275 JUMPI PUSH2 0x274 PUSH2 0x3AA JUMP JUMPDEST JUMPDEST PUSH1 0x0 PUSH2 0x283 DUP8 DUP3 DUP9 ADD PUSH2 0x219 JUMP JUMPDEST SWAP5 POP POP PUSH1 0x20 DUP6 ADD CALLDATALOAD PUSH8 0xFFFFFFFFFFFFFFFF DUP2 GT ISZERO PUSH2 0x2A4 JUMPI PUSH2 0x2A3 PUSH2 0x3A5 JUMP JUMPDEST JUMPDEST PUSH2 0x2B0 DUP8 DUP3 DUP9 ADD PUSH2 0x1C3 JUMP JUMPDEST SWAP4 POP SWAP4 POP POP PUSH1 0x40 PUSH2 0x2C3 DUP8 DUP3 DUP9 ADD PUSH2 0x1AE JUMP JUMPDEST SWAP2 POP POP SWAP3 SWAP6 SWAP2 SWAP5 POP SWAP3 POP JUMP JUMPDEST PUSH2 0x2D8 DUP2 PUSH2 0x32B JUMP JUMPDEST DUP3 MSTORE POP POP JUMP JUMPDEST PUSH1 0x0 PUSH1 0x20 DUP3 ADD SWAP1 POP PUSH2 0x2F3 PUSH1 0x0 DUP4 ADD DUP5 PUSH2 0x2CF JUMP JUMPDEST SWAP3 SWAP2 POP POP JUMP JUMPDEST PUSH1 0x0 PUSH2 0x304 DUP3 PUSH2 0x30B JUMP JUMPDEST SWAP1 POP SWAP2 SWAP1 POP JUMP JUMPDEST PUSH1 0x0 PUSH20 0xFFFFFFFFFFFFFFFFFFFFFFFFFFFFFFFFFFFFFFFF DUP3 AND SWAP1 POP SWAP2 SWAP1 POP JUMP JUMPDEST PUSH1 0x0 DUP2 SWAP1 POP SWAP2 SWAP1 POP JUMP JUMPDEST PUSH1 0x0 PUSH1 0x2 DUP3 DIV SWAP1 POP PUSH1 0x1 DUP3 AND DUP1 PUSH2 0x34D JUMPI PUSH1 0x7F DUP3 AND SWAP2 POP JUMPDEST PUSH1 0x20 DUP3 LT DUP2 EQ ISZERO PUSH2 0x361 JUMPI PUSH2 0x360 PUSH2 0x367 JUMP JUMPDEST JUMPDEST POP SWAP2 SWAP1 POP JUMP JUMPDEST PUSH32 0x4E487B7100000000000000000000000000000000000000000000000000000000 PUSH1 0x0 MSTORE PUSH1 0x22 PUSH1 0x4 MSTORE PUSH1 0x24 PUSH1 0x0 REVERT JUMPDEST PUSH1 0x0 DUP1 REVERT JUMPDEST PUSH1 0x0 DUP1 REVERT JUMPDEST PUSH1 0x0 DUP1 REVERT JUMPDEST PUSH1 0x0 DUP1 REVERT JUMPDEST PUSH1 0x0 DUP1 REVERT JUMPDEST PUSH2 0x3B8 DUP2 PUSH2 0x2F9 JUMP JUMPDEST DUP2 EQ PUSH2 0x3C3 JUMPI PUSH1 0x0 DUP1 REVERT JUMPDEST POP JUMP JUMPDEST PUSH2 0x3CF DUP2 PUSH2 0x32B JUMP JUMPDEST DUP2 EQ PUSH2 0x3DA JUMPI PUSH1 0x0 DUP1 REVERT JUMPDEST POP JUMP INVALID LOG2 PUSH5 0x6970667358 0x22 SLT KECCAK256 LOG2 CHAINID 0x4E DUP3 0xD2 JUMPI DUP9 0xE9 CREATE2 EXTCODECOPY 0xE8 DUP14 0xF7 0xB0 0xD1 SWAP15 CALL SWAP7 0xB7 PUSH16 0x4E66D7658450BA4B3EE2F4964736F6C PUSH4 0x43000807 STOP CALLER "
				},
				"gasEstimates": {
					"creation": {
						"codeDepositCost": "208600",
						"executionCost": "251",
						"totalCost": "208851"
					},
					"external": {
						"getModifier()": "351",
						"set(uint256,string,address)": "infinite",
						"setModifier(uint256)": "22498"
					}
				},
				"methodIdentifiers": {
					"getModifier()": "cc53907e",
					"set(uint256,string,address)": "5eba0df0",
					"setModifier(uint256)": "27852c8d"
				}
			},
			"storageLayout": {
				"storage": [
					{
						"astId": 39,
						"contract": "ChangeVarsWithDelegate.sol:Updated",
						"label": "data1",
						"offset": 0,
						"slot": "0",
						"type": "t_uint256"
					},
					{
						"astId": 41,
						"contract": "ChangeVarsWithDelegate.sol:Updated",
						"label": "data2",
						"offset": 0,
						"slot": "1",
						"type": "t_string_storage"
					},
					{
						"astId": 43,
						"contract": "ChangeVarsWithDelegate.sol:Updated",
						"label": "data3",
						"offset": 0,
						"slot": "2",
						"type": "t_address"
					},
					{
						"astId": 45,
						"contract": "ChangeVarsWithDelegate.sol:Updated",
						"label": "myModifier",
						"offset": 0,
						"slot": "3",
						"type": "t_uint256"
					}
				],
				"types": {
					"t_address": {
						"encoding": "inplace",
						"label": "address",
						"numberOfBytes": "20"
					},
					"t_string_storage": {
						"encoding": "bytes",
						"label": "string",
						"numberOfBytes": "32"
					},
					"t_uint256": {
						"encoding": "inplace",
						"label": "uint256",
						"numberOfBytes": "32"
					}
				}
			},
			"userdoc": {
				"kind": "user",
				"methods": {},
				"version": 1
			}
		}
	}
}