{
	"Documents/dev/Lime/contracts/Functions.sol": {
		"Functions": {
			"abi": [
				{
					"inputs": [
						{
							"internalType": "uint256",
							"name": "x",
							"type": "uint256"
						},
						{
							"internalType": "uint256",
							"name": "y",
							"type": "uint256"
						}
					],
					"name": "add",
					"outputs": [
						{
							"internalType": "uint256",
							"name": "",
							"type": "uint256"
						}
					],
					"stateMutability": "pure",
					"type": "function"
				},
				{
					"inputs": [],
					"name": "addr",
					"outputs": [
						{
							"internalType": "address",
							"name": "",
							"type": "address"
						}
					],
					"stateMutability": "view",
					"type": "function"
				},
				{
					"inputs": [],
					"name": "i",
					"outputs": [
						{
							"internalType": "uint256",
							"name": "",
							"type": "uint256"
						}
					],
					"stateMutability": "view",
					"type": "function"
				},
				{
					"inputs": [
						{
							"internalType": "uint256",
							"name": "x",
							"type": "uint256"
						},
						{
							"internalType": "uint256",
							"name": "y",
							"type": "uint256"
						}
					],
					"name": "sub",
					"outputs": [
						{
							"internalType": "uint256",
							"name": "",
							"type": "uint256"
						}
					],
					"stateMutability": "pure",
					"type": "function"
				}
			],
			"devdoc": {
				"kind": "dev",
				"methods": {},
				"version": 1
			},
			"evm": {
				"assembly": "    /* \"Documents/dev/Lime/contracts/Functions.sol\":56:326  contract Functions{... */\n  mstore(0x40, 0x80)\n    /* \"Documents/dev/Lime/contracts/Functions.sol\":96:99  123 */\n  0x7b\n    /* \"Documents/dev/Lime/contracts/Functions.sol\":80:99  uint public i = 123 */\n  0x00\n  sstore\n    /* \"Documents/dev/Lime/contracts/Functions.sol\":135:137  10 */\n  0x0a\n    /* \"Documents/dev/Lime/contracts/Functions.sol\":105:138  address public addr = address(10) */\n  0x01\n  exp(0x0100, 0x00)\n  dup2\n  sload\n  dup2\n  0xffffffffffffffffffffffffffffffffffffffff\n  mul\n  not\n  and\n  swap1\n  dup4\n  0xffffffffffffffffffffffffffffffffffffffff\n  and\n  mul\n  or\n  swap1\n  sstore\n  pop\n    /* \"Documents/dev/Lime/contracts/Functions.sol\":56:326  contract Functions{... */\n  callvalue\n  dup1\n  iszero\n  tag_1\n  jumpi\n  0x00\n  dup1\n  revert\ntag_1:\n  pop\n  dataSize(sub_0)\n  dup1\n  dataOffset(sub_0)\n  0x00\n  codecopy\n  0x00\n  return\nstop\n\nsub_0: assembly {\n        /* \"Documents/dev/Lime/contracts/Functions.sol\":56:326  contract Functions{... */\n      mstore(0x40, 0x80)\n      callvalue\n      dup1\n      iszero\n      tag_1\n      jumpi\n      0x00\n      dup1\n      revert\n    tag_1:\n      pop\n      jumpi(tag_2, lt(calldatasize, 0x04))\n      shr(0xe0, calldataload(0x00))\n      dup1\n      0x767800de\n      eq\n      tag_3\n      jumpi\n      dup1\n      0x771602f7\n      eq\n      tag_4\n      jumpi\n      dup1\n      0xb67d77c5\n      eq\n      tag_5\n      jumpi\n      dup1\n      0xe5aa3d58\n      eq\n      tag_6\n      jumpi\n    tag_2:\n      0x00\n      dup1\n      revert\n        /* \"Documents/dev/Lime/contracts/Functions.sol\":105:138  address public addr = address(10) */\n    tag_3:\n      tag_7\n      tag_8\n      jump\t// in\n    tag_7:\n      mload(0x40)\n      tag_9\n      swap2\n      swap1\n      tag_10\n      jump\t// in\n    tag_9:\n      mload(0x40)\n      dup1\n      swap2\n      sub\n      swap1\n      return\n        /* \"Documents/dev/Lime/contracts/Functions.sol\":145:227  function add(uint x,uint y) external pure returns(uint){... */\n    tag_4:\n      tag_11\n      0x04\n      dup1\n      calldatasize\n      sub\n      dup2\n      add\n      swap1\n      tag_12\n      swap2\n      swap1\n      tag_13\n      jump\t// in\n    tag_12:\n      tag_14\n      jump\t// in\n    tag_11:\n      mload(0x40)\n      tag_15\n      swap2\n      swap1\n      tag_16\n      jump\t// in\n    tag_15:\n      mload(0x40)\n      dup1\n      swap2\n      sub\n      swap1\n      return\n        /* \"Documents/dev/Lime/contracts/Functions.sol\":233:316  function sub(uint x,uint y) external pure returns (uint){... */\n    tag_5:\n      tag_17\n      0x04\n      dup1\n      calldatasize\n      sub\n      dup2\n      add\n      swap1\n      tag_18\n      swap2\n      swap1\n      tag_13\n      jump\t// in\n    tag_18:\n      tag_19\n      jump\t// in\n    tag_17:\n      mload(0x40)\n      tag_20\n      swap2\n      swap1\n      tag_16\n      jump\t// in\n    tag_20:\n      mload(0x40)\n      dup1\n      swap2\n      sub\n      swap1\n      return\n        /* \"Documents/dev/Lime/contracts/Functions.sol\":80:99  uint public i = 123 */\n    tag_6:\n      tag_21\n      tag_22\n      jump\t// in\n    tag_21:\n      mload(0x40)\n      tag_23\n      swap2\n      swap1\n      tag_16\n      jump\t// in\n    tag_23:\n      mload(0x40)\n      dup1\n      swap2\n      sub\n      swap1\n      return\n        /* \"Documents/dev/Lime/contracts/Functions.sol\":105:138  address public addr = address(10) */\n    tag_8:\n      0x01\n      0x00\n      swap1\n      sload\n      swap1\n      0x0100\n      exp\n      swap1\n      div\n      0xffffffffffffffffffffffffffffffffffffffff\n      and\n      dup2\n      jump\t// out\n        /* \"Documents/dev/Lime/contracts/Functions.sol\":145:227  function add(uint x,uint y) external pure returns(uint){... */\n    tag_14:\n        /* \"Documents/dev/Lime/contracts/Functions.sol\":195:199  uint */\n      0x00\n        /* \"Documents/dev/Lime/contracts/Functions.sol\":219:220  y */\n      dup2\n        /* \"Documents/dev/Lime/contracts/Functions.sol\":217:218  x */\n      dup4\n        /* \"Documents/dev/Lime/contracts/Functions.sol\":217:220  x+y */\n      tag_25\n      swap2\n      swap1\n      tag_26\n      jump\t// in\n    tag_25:\n        /* \"Documents/dev/Lime/contracts/Functions.sol\":210:220  return x+y */\n      swap1\n      pop\n        /* \"Documents/dev/Lime/contracts/Functions.sol\":145:227  function add(uint x,uint y) external pure returns(uint){... */\n      swap3\n      swap2\n      pop\n      pop\n      jump\t// out\n        /* \"Documents/dev/Lime/contracts/Functions.sol\":233:316  function sub(uint x,uint y) external pure returns (uint){... */\n    tag_19:\n        /* \"Documents/dev/Lime/contracts/Functions.sol\":284:288  uint */\n      0x00\n        /* \"Documents/dev/Lime/contracts/Functions.sol\":308:309  y */\n      dup2\n        /* \"Documents/dev/Lime/contracts/Functions.sol\":306:307  x */\n      dup4\n        /* \"Documents/dev/Lime/contracts/Functions.sol\":306:309  x-y */\n      tag_28\n      swap2\n      swap1\n      tag_29\n      jump\t// in\n    tag_28:\n        /* \"Documents/dev/Lime/contracts/Functions.sol\":299:309  return x-y */\n      swap1\n      pop\n        /* \"Documents/dev/Lime/contracts/Functions.sol\":233:316  function sub(uint x,uint y) external pure returns (uint){... */\n      swap3\n      swap2\n      pop\n      pop\n      jump\t// out\n        /* \"Documents/dev/Lime/contracts/Functions.sol\":80:99  uint public i = 123 */\n    tag_22:\n      sload(0x00)\n      dup2\n      jump\t// out\n        /* \"#utility.yul\":7:146   */\n    tag_31:\n        /* \"#utility.yul\":53:58   */\n      0x00\n        /* \"#utility.yul\":91:97   */\n      dup2\n        /* \"#utility.yul\":78:98   */\n      calldataload\n        /* \"#utility.yul\":69:98   */\n      swap1\n      pop\n        /* \"#utility.yul\":107:140   */\n      tag_33\n        /* \"#utility.yul\":134:139   */\n      dup2\n        /* \"#utility.yul\":107:140   */\n      tag_34\n      jump\t// in\n    tag_33:\n        /* \"#utility.yul\":7:146   */\n      swap3\n      swap2\n      pop\n      pop\n      jump\t// out\n        /* \"#utility.yul\":152:626   */\n    tag_13:\n        /* \"#utility.yul\":220:226   */\n      0x00\n        /* \"#utility.yul\":228:234   */\n      dup1\n        /* \"#utility.yul\":277:279   */\n      0x40\n        /* \"#utility.yul\":265:274   */\n      dup4\n        /* \"#utility.yul\":256:263   */\n      dup6\n        /* \"#utility.yul\":252:275   */\n      sub\n        /* \"#utility.yul\":248:280   */\n      slt\n        /* \"#utility.yul\":245:364   */\n      iszero\n      tag_36\n      jumpi\n        /* \"#utility.yul\":283:362   */\n      tag_37\n      tag_38\n      jump\t// in\n    tag_37:\n        /* \"#utility.yul\":245:364   */\n    tag_36:\n        /* \"#utility.yul\":403:404   */\n      0x00\n        /* \"#utility.yul\":428:481   */\n      tag_39\n        /* \"#utility.yul\":473:480   */\n      dup6\n        /* \"#utility.yul\":464:470   */\n      dup3\n        /* \"#utility.yul\":453:462   */\n      dup7\n        /* \"#utility.yul\":449:471   */\n      add\n        /* \"#utility.yul\":428:481   */\n      tag_31\n      jump\t// in\n    tag_39:\n        /* \"#utility.yul\":418:481   */\n      swap3\n      pop\n        /* \"#utility.yul\":374:491   */\n      pop\n        /* \"#utility.yul\":530:532   */\n      0x20\n        /* \"#utility.yul\":556:609   */\n      tag_40\n        /* \"#utility.yul\":601:608   */\n      dup6\n        /* \"#utility.yul\":592:598   */\n      dup3\n        /* \"#utility.yul\":581:590   */\n      dup7\n        /* \"#utility.yul\":577:599   */\n      add\n        /* \"#utility.yul\":556:609   */\n      tag_31\n      jump\t// in\n    tag_40:\n        /* \"#utility.yul\":546:609   */\n      swap2\n      pop\n        /* \"#utility.yul\":501:619   */\n      pop\n        /* \"#utility.yul\":152:626   */\n      swap3\n      pop\n      swap3\n      swap1\n      pop\n      jump\t// out\n        /* \"#utility.yul\":632:750   */\n    tag_41:\n        /* \"#utility.yul\":719:743   */\n      tag_43\n        /* \"#utility.yul\":737:742   */\n      dup2\n        /* \"#utility.yul\":719:743   */\n      tag_44\n      jump\t// in\n    tag_43:\n        /* \"#utility.yul\":714:717   */\n      dup3\n        /* \"#utility.yul\":707:744   */\n      mstore\n        /* \"#utility.yul\":632:750   */\n      pop\n      pop\n      jump\t// out\n        /* \"#utility.yul\":756:874   */\n    tag_45:\n        /* \"#utility.yul\":843:867   */\n      tag_47\n        /* \"#utility.yul\":861:866   */\n      dup2\n        /* \"#utility.yul\":843:867   */\n      tag_48\n      jump\t// in\n    tag_47:\n        /* \"#utility.yul\":838:841   */\n      dup3\n        /* \"#utility.yul\":831:868   */\n      mstore\n        /* \"#utility.yul\":756:874   */\n      pop\n      pop\n      jump\t// out\n        /* \"#utility.yul\":880:1102   */\n    tag_10:\n        /* \"#utility.yul\":973:977   */\n      0x00\n        /* \"#utility.yul\":1011:1013   */\n      0x20\n        /* \"#utility.yul\":1000:1009   */\n      dup3\n        /* \"#utility.yul\":996:1014   */\n      add\n        /* \"#utility.yul\":988:1014   */\n      swap1\n      pop\n        /* \"#utility.yul\":1024:1095   */\n      tag_50\n        /* \"#utility.yul\":1092:1093   */\n      0x00\n        /* \"#utility.yul\":1081:1090   */\n      dup4\n        /* \"#utility.yul\":1077:1094   */\n      add\n        /* \"#utility.yul\":1068:1074   */\n      dup5\n        /* \"#utility.yul\":1024:1095   */\n      tag_41\n      jump\t// in\n    tag_50:\n        /* \"#utility.yul\":880:1102   */\n      swap3\n      swap2\n      pop\n      pop\n      jump\t// out\n        /* \"#utility.yul\":1108:1330   */\n    tag_16:\n        /* \"#utility.yul\":1201:1205   */\n      0x00\n        /* \"#utility.yul\":1239:1241   */\n      0x20\n        /* \"#utility.yul\":1228:1237   */\n      dup3\n        /* \"#utility.yul\":1224:1242   */\n      add\n        /* \"#utility.yul\":1216:1242   */\n      swap1\n      pop\n        /* \"#utility.yul\":1252:1323   */\n      tag_52\n        /* \"#utility.yul\":1320:1321   */\n      0x00\n        /* \"#utility.yul\":1309:1318   */\n      dup4\n        /* \"#utility.yul\":1305:1322   */\n      add\n        /* \"#utility.yul\":1296:1302   */\n      dup5\n        /* \"#utility.yul\":1252:1323   */\n      tag_45\n      jump\t// in\n    tag_52:\n        /* \"#utility.yul\":1108:1330   */\n      swap3\n      swap2\n      pop\n      pop\n      jump\t// out\n        /* \"#utility.yul\":1417:1722   */\n    tag_26:\n        /* \"#utility.yul\":1457:1460   */\n      0x00\n        /* \"#utility.yul\":1476:1496   */\n      tag_56\n        /* \"#utility.yul\":1494:1495   */\n      dup3\n        /* \"#utility.yul\":1476:1496   */\n      tag_48\n      jump\t// in\n    tag_56:\n        /* \"#utility.yul\":1471:1496   */\n      swap2\n      pop\n        /* \"#utility.yul\":1510:1530   */\n      tag_57\n        /* \"#utility.yul\":1528:1529   */\n      dup4\n        /* \"#utility.yul\":1510:1530   */\n      tag_48\n      jump\t// in\n    tag_57:\n        /* \"#utility.yul\":1505:1530   */\n      swap3\n      pop\n        /* \"#utility.yul\":1664:1665   */\n      dup3\n        /* \"#utility.yul\":1596:1662   */\n      0xffffffffffffffffffffffffffffffffffffffffffffffffffffffffffffffff\n        /* \"#utility.yul\":1592:1666   */\n      sub\n        /* \"#utility.yul\":1589:1590   */\n      dup3\n        /* \"#utility.yul\":1586:1667   */\n      gt\n        /* \"#utility.yul\":1583:1690   */\n      iszero\n      tag_58\n      jumpi\n        /* \"#utility.yul\":1670:1688   */\n      tag_59\n      tag_60\n      jump\t// in\n    tag_59:\n        /* \"#utility.yul\":1583:1690   */\n    tag_58:\n        /* \"#utility.yul\":1714:1715   */\n      dup3\n        /* \"#utility.yul\":1711:1712   */\n      dup3\n        /* \"#utility.yul\":1707:1716   */\n      add\n        /* \"#utility.yul\":1700:1716   */\n      swap1\n      pop\n        /* \"#utility.yul\":1417:1722   */\n      swap3\n      swap2\n      pop\n      pop\n      jump\t// out\n        /* \"#utility.yul\":1728:1919   */\n    tag_29:\n        /* \"#utility.yul\":1768:1772   */\n      0x00\n        /* \"#utility.yul\":1788:1808   */\n      tag_62\n        /* \"#utility.yul\":1806:1807   */\n      dup3\n        /* \"#utility.yul\":1788:1808   */\n      tag_48\n      jump\t// in\n    tag_62:\n        /* \"#utility.yul\":1783:1808   */\n      swap2\n      pop\n        /* \"#utility.yul\":1822:1842   */\n      tag_63\n        /* \"#utility.yul\":1840:1841   */\n      dup4\n        /* \"#utility.yul\":1822:1842   */\n      tag_48\n      jump\t// in\n    tag_63:\n        /* \"#utility.yul\":1817:1842   */\n      swap3\n      pop\n        /* \"#utility.yul\":1861:1862   */\n      dup3\n        /* \"#utility.yul\":1858:1859   */\n      dup3\n        /* \"#utility.yul\":1855:1863   */\n      lt\n        /* \"#utility.yul\":1852:1886   */\n      iszero\n      tag_64\n      jumpi\n        /* \"#utility.yul\":1866:1884   */\n      tag_65\n      tag_60\n      jump\t// in\n    tag_65:\n        /* \"#utility.yul\":1852:1886   */\n    tag_64:\n        /* \"#utility.yul\":1911:1912   */\n      dup3\n        /* \"#utility.yul\":1908:1909   */\n      dup3\n        /* \"#utility.yul\":1904:1913   */\n      sub\n        /* \"#utility.yul\":1896:1913   */\n      swap1\n      pop\n        /* \"#utility.yul\":1728:1919   */\n      swap3\n      swap2\n      pop\n      pop\n      jump\t// out\n        /* \"#utility.yul\":1925:2021   */\n    tag_44:\n        /* \"#utility.yul\":1962:1969   */\n      0x00\n        /* \"#utility.yul\":1991:2015   */\n      tag_67\n        /* \"#utility.yul\":2009:2014   */\n      dup3\n        /* \"#utility.yul\":1991:2015   */\n      tag_68\n      jump\t// in\n    tag_67:\n        /* \"#utility.yul\":1980:2015   */\n      swap1\n      pop\n        /* \"#utility.yul\":1925:2021   */\n      swap2\n      swap1\n      pop\n      jump\t// out\n        /* \"#utility.yul\":2027:2153   */\n    tag_68:\n        /* \"#utility.yul\":2064:2071   */\n      0x00\n        /* \"#utility.yul\":2104:2146   */\n      0xffffffffffffffffffffffffffffffffffffffff\n        /* \"#utility.yul\":2097:2102   */\n      dup3\n        /* \"#utility.yul\":2093:2147   */\n      and\n        /* \"#utility.yul\":2082:2147   */\n      swap1\n      pop\n        /* \"#utility.yul\":2027:2153   */\n      swap2\n      swap1\n      pop\n      jump\t// out\n        /* \"#utility.yul\":2159:2236   */\n    tag_48:\n        /* \"#utility.yul\":2196:2203   */\n      0x00\n        /* \"#utility.yul\":2225:2230   */\n      dup2\n        /* \"#utility.yul\":2214:2230   */\n      swap1\n      pop\n        /* \"#utility.yul\":2159:2236   */\n      swap2\n      swap1\n      pop\n      jump\t// out\n        /* \"#utility.yul\":2242:2422   */\n    tag_60:\n        /* \"#utility.yul\":2290:2367   */\n      0x4e487b7100000000000000000000000000000000000000000000000000000000\n        /* \"#utility.yul\":2287:2288   */\n      0x00\n        /* \"#utility.yul\":2280:2368   */\n      mstore\n        /* \"#utility.yul\":2387:2391   */\n      0x11\n        /* \"#utility.yul\":2384:2385   */\n      0x04\n        /* \"#utility.yul\":2377:2392   */\n      mstore\n        /* \"#utility.yul\":2411:2415   */\n      0x24\n        /* \"#utility.yul\":2408:2409   */\n      0x00\n        /* \"#utility.yul\":2401:2416   */\n      revert\n        /* \"#utility.yul\":2551:2668   */\n    tag_38:\n        /* \"#utility.yul\":2660:2661   */\n      0x00\n        /* \"#utility.yul\":2657:2658   */\n      dup1\n        /* \"#utility.yul\":2650:2662   */\n      revert\n        /* \"#utility.yul\":2674:2796   */\n    tag_34:\n        /* \"#utility.yul\":2747:2771   */\n      tag_76\n        /* \"#utility.yul\":2765:2770   */\n      dup2\n        /* \"#utility.yul\":2747:2771   */\n      tag_48\n      jump\t// in\n    tag_76:\n        /* \"#utility.yul\":2740:2745   */\n      dup2\n        /* \"#utility.yul\":2737:2772   */\n      eq\n        /* \"#utility.yul\":2727:2790   */\n      tag_77\n      jumpi\n        /* \"#utility.yul\":2786:2787   */\n      0x00\n        /* \"#utility.yul\":2783:2784   */\n      dup1\n        /* \"#utility.yul\":2776:2788   */\n      revert\n        /* \"#utility.yul\":2727:2790   */\n    tag_77:\n        /* \"#utility.yul\":2674:2796   */\n      pop\n      jump\t// out\n\n    auxdata: 0xa26469706673582212202b133310321ca09ab28285e79f244352ecad2c659da0a87f6b3bb768959a406864736f6c63430008070033\n}\n",
				"bytecode": {
					"linkReferences": {},
					"object": "6080604052607b600055600a600160006101000a81548173ffffffffffffffffffffffffffffffffffffffff021916908373ffffffffffffffffffffffffffffffffffffffff16021790555034801561005757600080fd5b50610335806100676000396000f3fe608060405234801561001057600080fd5b506004361061004c5760003560e01c8063767800de14610051578063771602f71461006f578063b67d77c51461009f578063e5aa3d58146100cf575b600080fd5b6100596100ed565b60405161006691906101b8565b60405180910390f35b6100896004803603810190610084919061015a565b610113565b60405161009691906101d3565b60405180910390f35b6100b960048036038101906100b4919061015a565b610129565b6040516100c691906101d3565b60405180910390f35b6100d761013f565b6040516100e491906101d3565b60405180910390f35b600160009054906101000a900473ffffffffffffffffffffffffffffffffffffffff1681565b6000818361012191906101ee565b905092915050565b600081836101379190610244565b905092915050565b60005481565b600081359050610154816102e8565b92915050565b60008060408385031215610171576101706102e3565b5b600061017f85828601610145565b925050602061019085828601610145565b9150509250929050565b6101a381610278565b82525050565b6101b2816102aa565b82525050565b60006020820190506101cd600083018461019a565b92915050565b60006020820190506101e860008301846101a9565b92915050565b60006101f9826102aa565b9150610204836102aa565b9250827fffffffffffffffffffffffffffffffffffffffffffffffffffffffffffffffff03821115610239576102386102b4565b5b828201905092915050565b600061024f826102aa565b915061025a836102aa565b92508282101561026d5761026c6102b4565b5b828203905092915050565b60006102838261028a565b9050919050565b600073ffffffffffffffffffffffffffffffffffffffff82169050919050565b6000819050919050565b7f4e487b7100000000000000000000000000000000000000000000000000000000600052601160045260246000fd5b600080fd5b6102f1816102aa565b81146102fc57600080fd5b5056fea26469706673582212202b133310321ca09ab28285e79f244352ecad2c659da0a87f6b3bb768959a406864736f6c63430008070033",
					"opcodes": "PUSH1 0x80 PUSH1 0x40 MSTORE PUSH1 0x7B PUSH1 0x0 SSTORE PUSH1 0xA PUSH1 0x1 PUSH1 0x0 PUSH2 0x100 EXP DUP2 SLOAD DUP2 PUSH20 0xFFFFFFFFFFFFFFFFFFFFFFFFFFFFFFFFFFFFFFFF MUL NOT AND SWAP1 DUP4 PUSH20 0xFFFFFFFFFFFFFFFFFFFFFFFFFFFFFFFFFFFFFFFF AND MUL OR SWAP1 SSTORE POP CALLVALUE DUP1 ISZERO PUSH2 0x57 JUMPI PUSH1 0x0 DUP1 REVERT JUMPDEST POP PUSH2 0x335 DUP1 PUSH2 0x67 PUSH1 0x0 CODECOPY PUSH1 0x0 RETURN INVALID PUSH1 0x80 PUSH1 0x40 MSTORE CALLVALUE DUP1 ISZERO PUSH2 0x10 JUMPI PUSH1 0x0 DUP1 REVERT JUMPDEST POP PUSH1 0x4 CALLDATASIZE LT PUSH2 0x4C JUMPI PUSH1 0x0 CALLDATALOAD PUSH1 0xE0 SHR DUP1 PUSH4 0x767800DE EQ PUSH2 0x51 JUMPI DUP1 PUSH4 0x771602F7 EQ PUSH2 0x6F JUMPI DUP1 PUSH4 0xB67D77C5 EQ PUSH2 0x9F JUMPI DUP1 PUSH4 0xE5AA3D58 EQ PUSH2 0xCF JUMPI JUMPDEST PUSH1 0x0 DUP1 REVERT JUMPDEST PUSH2 0x59 PUSH2 0xED JUMP JUMPDEST PUSH1 0x40 MLOAD PUSH2 0x66 SWAP2 SWAP1 PUSH2 0x1B8 JUMP JUMPDEST PUSH1 0x40 MLOAD DUP1 SWAP2 SUB SWAP1 RETURN JUMPDEST PUSH2 0x89 PUSH1 0x4 DUP1 CALLDATASIZE SUB DUP2 ADD SWAP1 PUSH2 0x84 SWAP2 SWAP1 PUSH2 0x15A JUMP JUMPDEST PUSH2 0x113 JUMP JUMPDEST PUSH1 0x40 MLOAD PUSH2 0x96 SWAP2 SWAP1 PUSH2 0x1D3 JUMP JUMPDEST PUSH1 0x40 MLOAD DUP1 SWAP2 SUB SWAP1 RETURN JUMPDEST PUSH2 0xB9 PUSH1 0x4 DUP1 CALLDATASIZE SUB DUP2 ADD SWAP1 PUSH2 0xB4 SWAP2 SWAP1 PUSH2 0x15A JUMP JUMPDEST PUSH2 0x129 JUMP JUMPDEST PUSH1 0x40 MLOAD PUSH2 0xC6 SWAP2 SWAP1 PUSH2 0x1D3 JUMP JUMPDEST PUSH1 0x40 MLOAD DUP1 SWAP2 SUB SWAP1 RETURN JUMPDEST PUSH2 0xD7 PUSH2 0x13F JUMP JUMPDEST PUSH1 0x40 MLOAD PUSH2 0xE4 SWAP2 SWAP1 PUSH2 0x1D3 JUMP JUMPDEST PUSH1 0x40 MLOAD DUP1 SWAP2 SUB SWAP1 RETURN JUMPDEST PUSH1 0x1 PUSH1 0x0 SWAP1 SLOAD SWAP1 PUSH2 0x100 EXP SWAP1 DIV PUSH20 0xFFFFFFFFFFFFFFFFFFFFFFFFFFFFFFFFFFFFFFFF AND DUP2 JUMP JUMPDEST PUSH1 0x0 DUP2 DUP4 PUSH2 0x121 SWAP2 SWAP1 PUSH2 0x1EE JUMP JUMPDEST SWAP1 POP SWAP3 SWAP2 POP POP JUMP JUMPDEST PUSH1 0x0 DUP2 DUP4 PUSH2 0x137 SWAP2 SWAP1 PUSH2 0x244 JUMP JUMPDEST SWAP1 POP SWAP3 SWAP2 POP POP JUMP JUMPDEST PUSH1 0x0 SLOAD DUP2 JUMP JUMPDEST PUSH1 0x0 DUP2 CALLDATALOAD SWAP1 POP PUSH2 0x154 DUP2 PUSH2 0x2E8 JUMP JUMPDEST SWAP3 SWAP2 POP POP JUMP JUMPDEST PUSH1 0x0 DUP1 PUSH1 0x40 DUP4 DUP6 SUB SLT ISZERO PUSH2 0x171 JUMPI PUSH2 0x170 PUSH2 0x2E3 JUMP JUMPDEST JUMPDEST PUSH1 0x0 PUSH2 0x17F DUP6 DUP3 DUP7 ADD PUSH2 0x145 JUMP JUMPDEST SWAP3 POP POP PUSH1 0x20 PUSH2 0x190 DUP6 DUP3 DUP7 ADD PUSH2 0x145 JUMP JUMPDEST SWAP2 POP POP SWAP3 POP SWAP3 SWAP1 POP JUMP JUMPDEST PUSH2 0x1A3 DUP2 PUSH2 0x278 JUMP JUMPDEST DUP3 MSTORE POP POP JUMP JUMPDEST PUSH2 0x1B2 DUP2 PUSH2 0x2AA JUMP JUMPDEST DUP3 MSTORE POP POP JUMP JUMPDEST PUSH1 0x0 PUSH1 0x20 DUP3 ADD SWAP1 POP PUSH2 0x1CD PUSH1 0x0 DUP4 ADD DUP5 PUSH2 0x19A JUMP JUMPDEST SWAP3 SWAP2 POP POP JUMP JUMPDEST PUSH1 0x0 PUSH1 0x20 DUP3 ADD SWAP1 POP PUSH2 0x1E8 PUSH1 0x0 DUP4 ADD DUP5 PUSH2 0x1A9 JUMP JUMPDEST SWAP3 SWAP2 POP POP JUMP JUMPDEST PUSH1 0x0 PUSH2 0x1F9 DUP3 PUSH2 0x2AA JUMP JUMPDEST SWAP2 POP PUSH2 0x204 DUP4 PUSH2 0x2AA JUMP JUMPDEST SWAP3 POP DUP3 PUSH32 0xFFFFFFFFFFFFFFFFFFFFFFFFFFFFFFFFFFFFFFFFFFFFFFFFFFFFFFFFFFFFFFFF SUB DUP3 GT ISZERO PUSH2 0x239 JUMPI PUSH2 0x238 PUSH2 0x2B4 JUMP JUMPDEST JUMPDEST DUP3 DUP3 ADD SWAP1 POP SWAP3 SWAP2 POP POP JUMP JUMPDEST PUSH1 0x0 PUSH2 0x24F DUP3 PUSH2 0x2AA JUMP JUMPDEST SWAP2 POP PUSH2 0x25A DUP4 PUSH2 0x2AA JUMP JUMPDEST SWAP3 POP DUP3 DUP3 LT ISZERO PUSH2 0x26D JUMPI PUSH2 0x26C PUSH2 0x2B4 JUMP JUMPDEST JUMPDEST DUP3 DUP3 SUB SWAP1 POP SWAP3 SWAP2 POP POP JUMP JUMPDEST PUSH1 0x0 PUSH2 0x283 DUP3 PUSH2 0x28A JUMP JUMPDEST SWAP1 POP SWAP2 SWAP1 POP JUMP JUMPDEST PUSH1 0x0 PUSH20 0xFFFFFFFFFFFFFFFFFFFFFFFFFFFFFFFFFFFFFFFF DUP3 AND SWAP1 POP SWAP2 SWAP1 POP JUMP JUMPDEST PUSH1 0x0 DUP2 SWAP1 POP SWAP2 SWAP1 POP JUMP JUMPDEST PUSH32 0x4E487B7100000000000000000000000000000000000000000000000000000000 PUSH1 0x0 MSTORE PUSH1 0x11 PUSH1 0x4 MSTORE PUSH1 0x24 PUSH1 0x0 REVERT JUMPDEST PUSH1 0x0 DUP1 REVERT JUMPDEST PUSH2 0x2F1 DUP2 PUSH2 0x2AA JUMP JUMPDEST DUP2 EQ PUSH2 0x2FC JUMPI PUSH1 0x0 DUP1 REVERT JUMPDEST POP JUMP INVALID LOG2 PUSH5 0x6970667358 0x22 SLT KECCAK256 0x2B SGT CALLER LT ORIGIN SHR LOG0 SWAP11 0xB2 DUP3 DUP6 0xE7 SWAP16 0x24 NUMBER MSTORE 0xEC 0xAD 0x2C PUSH6 0x9DA0A87F6B3B 0xB7 PUSH9 0x959A406864736F6C63 NUMBER STOP ADDMOD SMOD STOP CALLER "
				},
				"gasEstimates": {
					"creation": {
						"codeDepositCost": "164200",
						"executionCost": "46581",
						"totalCost": "210781"
					},
					"external": {
						"add(uint256,uint256)": "infinite",
						"addr()": "2492",
						"i()": "2473",
						"sub(uint256,uint256)": "infinite"
					}
				},
				"methodIdentifiers": {
					"add(uint256,uint256)": "771602f7",
					"addr()": "767800de",
					"i()": "e5aa3d58",
					"sub(uint256,uint256)": "b67d77c5"
				}
			},
			"storageLayout": {
				"storage": [
					{
						"astId": 4,
						"contract": "Documents/dev/Lime/contracts/Functions.sol:Functions",
						"label": "i",
						"offset": 0,
						"slot": "0",
						"type": "t_uint256"
					},
					{
						"astId": 10,
						"contract": "Documents/dev/Lime/contracts/Functions.sol:Functions",
						"label": "addr",
						"offset": 0,
						"slot": "1",
						"type": "t_address"
					}
				],
				"types": {
					"t_address": {
						"encoding": "inplace",
						"label": "address",
						"numberOfBytes": "20"
					},
					"t_uint256": {
						"encoding": "inplace",
						"label": "uint256",
						"numberOfBytes": "32"
					}
				}
			},
			"userdoc": {
				"kind": "user",
				"methods": {},
				"version": 1
			}
		}
	}
}