{
	"Documents/dev/Lime/contracts/Errors.sol": {
		"Errors": {
			"abi": [
				{
					"inputs": [],
					"name": "foo",
					"outputs": [],
					"stateMutability": "nonpayable",
					"type": "function"
				},
				{
					"inputs": [],
					"name": "num",
					"outputs": [
						{
							"internalType": "uint256",
							"name": "",
							"type": "uint256"
						}
					],
					"stateMutability": "view",
					"type": "function"
				},
				{
					"inputs": [],
					"name": "testAssert",
					"outputs": [],
					"stateMutability": "view",
					"type": "function"
				},
				{
					"inputs": [
						{
							"internalType": "uint256",
							"name": "_i",
							"type": "uint256"
						}
					],
					"name": "testRequire",
					"outputs": [],
					"stateMutability": "pure",
					"type": "function"
				},
				{
					"inputs": [
						{
							"internalType": "uint256",
							"name": "_i",
							"type": "uint256"
						}
					],
					"name": "testRevert",
					"outputs": [],
					"stateMutability": "pure",
					"type": "function"
				}
			],
			"devdoc": {
				"kind": "dev",
				"methods": {},
				"version": 1
			},
			"evm": {
				"assembly": "    /* \"Documents/dev/Lime/contracts/Errors.sol\":56:505  contract Errors{... */\n  mstore(0x40, 0x80)\n    /* \"Documents/dev/Lime/contracts/Errors.sol\":384:387  123 */\n  0x7b\n    /* \"Documents/dev/Lime/contracts/Errors.sol\":367:387  uint public num =123 */\n  0x00\n  sstore\n    /* \"Documents/dev/Lime/contracts/Errors.sol\":56:505  contract Errors{... */\n  callvalue\n  dup1\n  iszero\n  tag_1\n  jumpi\n  0x00\n  dup1\n  revert\ntag_1:\n  pop\n  dataSize(sub_0)\n  dup1\n  dataOffset(sub_0)\n  0x00\n  codecopy\n  0x00\n  return\nstop\n\nsub_0: assembly {\n        /* \"Documents/dev/Lime/contracts/Errors.sol\":56:505  contract Errors{... */\n      mstore(0x40, 0x80)\n      callvalue\n      dup1\n      iszero\n      tag_1\n      jumpi\n      0x00\n      dup1\n      revert\n    tag_1:\n      pop\n      jumpi(tag_2, lt(calldatasize, 0x04))\n      shr(0xe0, calldataload(0x00))\n      dup1\n      0x20987767\n      eq\n      tag_3\n      jumpi\n      dup1\n      0x2b813bc0\n      eq\n      tag_4\n      jumpi\n      dup1\n      0x4e70b1dc\n      eq\n      tag_5\n      jumpi\n      dup1\n      0xb8bd717f\n      eq\n      tag_6\n      jumpi\n      dup1\n      0xc2985578\n      eq\n      tag_7\n      jumpi\n    tag_2:\n      0x00\n      dup1\n      revert\n        /* \"Documents/dev/Lime/contracts/Errors.sol\":165:361  function testRevert(uint _i) external pure {... */\n    tag_3:\n      tag_8\n      0x04\n      dup1\n      calldatasize\n      sub\n      dup2\n      add\n      swap1\n      tag_9\n      swap2\n      swap1\n      tag_10\n      jump\t// in\n    tag_9:\n      tag_11\n      jump\t// in\n    tag_8:\n      stop\n        /* \"Documents/dev/Lime/contracts/Errors.sol\":393:460  function testAssert() public view {... */\n    tag_4:\n      tag_12\n      tag_13\n      jump\t// in\n    tag_12:\n      stop\n        /* \"Documents/dev/Lime/contracts/Errors.sol\":367:387  uint public num =123 */\n    tag_5:\n      tag_14\n      tag_15\n      jump\t// in\n    tag_14:\n      mload(0x40)\n      tag_16\n      swap2\n      swap1\n      tag_17\n      jump\t// in\n    tag_16:\n      mload(0x40)\n      dup1\n      swap2\n      sub\n      swap1\n      return\n        /* \"Documents/dev/Lime/contracts/Errors.sol\":77:160  function testRequire(uint _i) external pure {... */\n    tag_6:\n      tag_18\n      0x04\n      dup1\n      calldatasize\n      sub\n      dup2\n      add\n      swap1\n      tag_19\n      swap2\n      swap1\n      tag_10\n      jump\t// in\n    tag_19:\n      tag_20\n      jump\t// in\n    tag_18:\n      stop\n        /* \"Documents/dev/Lime/contracts/Errors.sol\":466:503  function foo() public{... */\n    tag_7:\n      tag_21\n      tag_22\n      jump\t// in\n    tag_21:\n      stop\n        /* \"Documents/dev/Lime/contracts/Errors.sol\":165:361  function testRevert(uint _i) external pure {... */\n    tag_11:\n        /* \"Documents/dev/Lime/contracts/Errors.sol\":225:226  1 */\n      0x01\n        /* \"Documents/dev/Lime/contracts/Errors.sol\":222:224  _i */\n      dup2\n        /* \"Documents/dev/Lime/contracts/Errors.sol\":222:226  _i>1 */\n      gt\n        /* \"Documents/dev/Lime/contracts/Errors.sol\":218:355  if( _i>1){... */\n      iszero\n      tag_24\n      jumpi\n        /* \"Documents/dev/Lime/contracts/Errors.sol\":247:248  5 */\n      0x05\n        /* \"Documents/dev/Lime/contracts/Errors.sol\":244:246  _i */\n      dup2\n        /* \"Documents/dev/Lime/contracts/Errors.sol\":244:248  _i>5 */\n      gt\n        /* \"Documents/dev/Lime/contracts/Errors.sol\":241:345  if(_i>5){... */\n      iszero\n      tag_25\n      jumpi\n        /* \"Documents/dev/Lime/contracts/Errors.sol\":273:275  10 */\n      0x0a\n        /* \"Documents/dev/Lime/contracts/Errors.sol\":270:272  _i */\n      dup2\n        /* \"Documents/dev/Lime/contracts/Errors.sol\":270:275  _i>10 */\n      gt\n        /* \"Documents/dev/Lime/contracts/Errors.sol\":267:331  if(_i>10){... */\n      iszero\n      tag_26\n      jumpi\n        /* \"Documents/dev/Lime/contracts/Errors.sol\":298:312  revert(\"i>10\") */\n      mload(0x40)\n      0x08c379a000000000000000000000000000000000000000000000000000000000\n      dup2\n      mstore\n      0x04\n      add\n      tag_27\n      swap1\n      tag_28\n      jump\t// in\n    tag_27:\n      mload(0x40)\n      dup1\n      swap2\n      sub\n      swap1\n      revert\n        /* \"Documents/dev/Lime/contracts/Errors.sol\":267:331  if(_i>10){... */\n    tag_26:\n        /* \"Documents/dev/Lime/contracts/Errors.sol\":241:345  if(_i>5){... */\n    tag_25:\n        /* \"Documents/dev/Lime/contracts/Errors.sol\":218:355  if( _i>1){... */\n    tag_24:\n        /* \"Documents/dev/Lime/contracts/Errors.sol\":165:361  function testRevert(uint _i) external pure {... */\n      pop\n      jump\t// out\n        /* \"Documents/dev/Lime/contracts/Errors.sol\":393:460  function testAssert() public view {... */\n    tag_13:\n        /* \"Documents/dev/Lime/contracts/Errors.sol\":449:452  123 */\n      0x7b\n        /* \"Documents/dev/Lime/contracts/Errors.sol\":444:447  num */\n      sload(0x00)\n        /* \"Documents/dev/Lime/contracts/Errors.sol\":444:452  num==123 */\n      eq\n        /* \"Documents/dev/Lime/contracts/Errors.sol\":437:453  assert(num==123) */\n      tag_30\n      jumpi\n      tag_31\n      tag_32\n      jump\t// in\n    tag_31:\n    tag_30:\n        /* \"Documents/dev/Lime/contracts/Errors.sol\":393:460  function testAssert() public view {... */\n      jump\t// out\n        /* \"Documents/dev/Lime/contracts/Errors.sol\":367:387  uint public num =123 */\n    tag_15:\n      sload(0x00)\n      dup2\n      jump\t// out\n        /* \"Documents/dev/Lime/contracts/Errors.sol\":77:160  function testRequire(uint _i) external pure {... */\n    tag_20:\n        /* \"Documents/dev/Lime/contracts/Errors.sol\":143:145  10 */\n      0x0a\n        /* \"Documents/dev/Lime/contracts/Errors.sol\":139:141  _i */\n      dup2\n        /* \"Documents/dev/Lime/contracts/Errors.sol\":139:145  _i<=10 */\n      gt\n      iszero\n        /* \"Documents/dev/Lime/contracts/Errors.sol\":131:153  require(_i<=10,\"i>10\") */\n      tag_34\n      jumpi\n      mload(0x40)\n      0x08c379a000000000000000000000000000000000000000000000000000000000\n      dup2\n      mstore\n      0x04\n      add\n      tag_35\n      swap1\n      tag_28\n      jump\t// in\n    tag_35:\n      mload(0x40)\n      dup1\n      swap2\n      sub\n      swap1\n      revert\n    tag_34:\n        /* \"Documents/dev/Lime/contracts/Errors.sol\":77:160  function testRequire(uint _i) external pure {... */\n      pop\n      jump\t// out\n        /* \"Documents/dev/Lime/contracts/Errors.sol\":466:503  function foo() public{... */\n    tag_22:\n      jump\t// out\n        /* \"#utility.yul\":7:146   */\n    tag_38:\n        /* \"#utility.yul\":53:58   */\n      0x00\n        /* \"#utility.yul\":91:97   */\n      dup2\n        /* \"#utility.yul\":78:98   */\n      calldataload\n        /* \"#utility.yul\":69:98   */\n      swap1\n      pop\n        /* \"#utility.yul\":107:140   */\n      tag_40\n        /* \"#utility.yul\":134:139   */\n      dup2\n        /* \"#utility.yul\":107:140   */\n      tag_41\n      jump\t// in\n    tag_40:\n        /* \"#utility.yul\":7:146   */\n      swap3\n      swap2\n      pop\n      pop\n      jump\t// out\n        /* \"#utility.yul\":152:481   */\n    tag_10:\n        /* \"#utility.yul\":211:217   */\n      0x00\n        /* \"#utility.yul\":260:262   */\n      0x20\n        /* \"#utility.yul\":248:257   */\n      dup3\n        /* \"#utility.yul\":239:246   */\n      dup5\n        /* \"#utility.yul\":235:258   */\n      sub\n        /* \"#utility.yul\":231:263   */\n      slt\n        /* \"#utility.yul\":228:347   */\n      iszero\n      tag_43\n      jumpi\n        /* \"#utility.yul\":266:345   */\n      tag_44\n      tag_45\n      jump\t// in\n    tag_44:\n        /* \"#utility.yul\":228:347   */\n    tag_43:\n        /* \"#utility.yul\":386:387   */\n      0x00\n        /* \"#utility.yul\":411:464   */\n      tag_46\n        /* \"#utility.yul\":456:463   */\n      dup5\n        /* \"#utility.yul\":447:453   */\n      dup3\n        /* \"#utility.yul\":436:445   */\n      dup6\n        /* \"#utility.yul\":432:454   */\n      add\n        /* \"#utility.yul\":411:464   */\n      tag_38\n      jump\t// in\n    tag_46:\n        /* \"#utility.yul\":401:464   */\n      swap2\n      pop\n        /* \"#utility.yul\":357:474   */\n      pop\n        /* \"#utility.yul\":152:481   */\n      swap3\n      swap2\n      pop\n      pop\n      jump\t// out\n        /* \"#utility.yul\":487:852   */\n    tag_47:\n        /* \"#utility.yul\":629:632   */\n      0x00\n        /* \"#utility.yul\":650:716   */\n      tag_49\n        /* \"#utility.yul\":714:715   */\n      0x04\n        /* \"#utility.yul\":709:712   */\n      dup4\n        /* \"#utility.yul\":650:716   */\n      tag_50\n      jump\t// in\n    tag_49:\n        /* \"#utility.yul\":643:716   */\n      swap2\n      pop\n        /* \"#utility.yul\":725:818   */\n      tag_51\n        /* \"#utility.yul\":814:817   */\n      dup3\n        /* \"#utility.yul\":725:818   */\n      tag_52\n      jump\t// in\n    tag_51:\n        /* \"#utility.yul\":843:845   */\n      0x20\n        /* \"#utility.yul\":838:841   */\n      dup3\n        /* \"#utility.yul\":834:846   */\n      add\n        /* \"#utility.yul\":827:846   */\n      swap1\n      pop\n        /* \"#utility.yul\":487:852   */\n      swap2\n      swap1\n      pop\n      jump\t// out\n        /* \"#utility.yul\":858:976   */\n    tag_53:\n        /* \"#utility.yul\":945:969   */\n      tag_55\n        /* \"#utility.yul\":963:968   */\n      dup2\n        /* \"#utility.yul\":945:969   */\n      tag_56\n      jump\t// in\n    tag_55:\n        /* \"#utility.yul\":940:943   */\n      dup3\n        /* \"#utility.yul\":933:970   */\n      mstore\n        /* \"#utility.yul\":858:976   */\n      pop\n      pop\n      jump\t// out\n        /* \"#utility.yul\":982:1401   */\n    tag_28:\n        /* \"#utility.yul\":1148:1152   */\n      0x00\n        /* \"#utility.yul\":1186:1188   */\n      0x20\n        /* \"#utility.yul\":1175:1184   */\n      dup3\n        /* \"#utility.yul\":1171:1189   */\n      add\n        /* \"#utility.yul\":1163:1189   */\n      swap1\n      pop\n        /* \"#utility.yul\":1235:1244   */\n      dup2\n        /* \"#utility.yul\":1229:1233   */\n      dup2\n        /* \"#utility.yul\":1225:1245   */\n      sub\n        /* \"#utility.yul\":1221:1222   */\n      0x00\n        /* \"#utility.yul\":1210:1219   */\n      dup4\n        /* \"#utility.yul\":1206:1223   */\n      add\n        /* \"#utility.yul\":1199:1246   */\n      mstore\n        /* \"#utility.yul\":1263:1394   */\n      tag_58\n        /* \"#utility.yul\":1389:1393   */\n      dup2\n        /* \"#utility.yul\":1263:1394   */\n      tag_47\n      jump\t// in\n    tag_58:\n        /* \"#utility.yul\":1255:1394   */\n      swap1\n      pop\n        /* \"#utility.yul\":982:1401   */\n      swap2\n      swap1\n      pop\n      jump\t// out\n        /* \"#utility.yul\":1407:1629   */\n    tag_17:\n        /* \"#utility.yul\":1500:1504   */\n      0x00\n        /* \"#utility.yul\":1538:1540   */\n      0x20\n        /* \"#utility.yul\":1527:1536   */\n      dup3\n        /* \"#utility.yul\":1523:1541   */\n      add\n        /* \"#utility.yul\":1515:1541   */\n      swap1\n      pop\n        /* \"#utility.yul\":1551:1622   */\n      tag_60\n        /* \"#utility.yul\":1619:1620   */\n      0x00\n        /* \"#utility.yul\":1608:1617   */\n      dup4\n        /* \"#utility.yul\":1604:1621   */\n      add\n        /* \"#utility.yul\":1595:1601   */\n      dup5\n        /* \"#utility.yul\":1551:1622   */\n      tag_53\n      jump\t// in\n    tag_60:\n        /* \"#utility.yul\":1407:1629   */\n      swap3\n      swap2\n      pop\n      pop\n      jump\t// out\n        /* \"#utility.yul\":1716:1885   */\n    tag_50:\n        /* \"#utility.yul\":1800:1811   */\n      0x00\n        /* \"#utility.yul\":1834:1840   */\n      dup3\n        /* \"#utility.yul\":1829:1832   */\n      dup3\n        /* \"#utility.yul\":1822:1841   */\n      mstore\n        /* \"#utility.yul\":1874:1878   */\n      0x20\n        /* \"#utility.yul\":1869:1872   */\n      dup3\n        /* \"#utility.yul\":1865:1879   */\n      add\n        /* \"#utility.yul\":1850:1879   */\n      swap1\n      pop\n        /* \"#utility.yul\":1716:1885   */\n      swap3\n      swap2\n      pop\n      pop\n      jump\t// out\n        /* \"#utility.yul\":1891:1968   */\n    tag_56:\n        /* \"#utility.yul\":1928:1935   */\n      0x00\n        /* \"#utility.yul\":1957:1962   */\n      dup2\n        /* \"#utility.yul\":1946:1962   */\n      swap1\n      pop\n        /* \"#utility.yul\":1891:1968   */\n      swap2\n      swap1\n      pop\n      jump\t// out\n        /* \"#utility.yul\":1974:2154   */\n    tag_32:\n        /* \"#utility.yul\":2022:2099   */\n      0x4e487b7100000000000000000000000000000000000000000000000000000000\n        /* \"#utility.yul\":2019:2020   */\n      0x00\n        /* \"#utility.yul\":2012:2100   */\n      mstore\n        /* \"#utility.yul\":2119:2123   */\n      0x01\n        /* \"#utility.yul\":2116:2117   */\n      0x04\n        /* \"#utility.yul\":2109:2124   */\n      mstore\n        /* \"#utility.yul\":2143:2147   */\n      0x24\n        /* \"#utility.yul\":2140:2141   */\n      0x00\n        /* \"#utility.yul\":2133:2148   */\n      revert\n        /* \"#utility.yul\":2283:2400   */\n    tag_45:\n        /* \"#utility.yul\":2392:2393   */\n      0x00\n        /* \"#utility.yul\":2389:2390   */\n      dup1\n        /* \"#utility.yul\":2382:2394   */\n      revert\n        /* \"#utility.yul\":2406:2560   */\n    tag_52:\n        /* \"#utility.yul\":2546:2552   */\n      0x693e313000000000000000000000000000000000000000000000000000000000\n        /* \"#utility.yul\":2542:2543   */\n      0x00\n        /* \"#utility.yul\":2534:2540   */\n      dup3\n        /* \"#utility.yul\":2530:2544   */\n      add\n        /* \"#utility.yul\":2523:2553   */\n      mstore\n        /* \"#utility.yul\":2406:2560   */\n      pop\n      jump\t// out\n        /* \"#utility.yul\":2566:2688   */\n    tag_41:\n        /* \"#utility.yul\":2639:2663   */\n      tag_71\n        /* \"#utility.yul\":2657:2662   */\n      dup2\n        /* \"#utility.yul\":2639:2663   */\n      tag_56\n      jump\t// in\n    tag_71:\n        /* \"#utility.yul\":2632:2637   */\n      dup2\n        /* \"#utility.yul\":2629:2664   */\n      eq\n        /* \"#utility.yul\":2619:2682   */\n      tag_72\n      jumpi\n        /* \"#utility.yul\":2678:2679   */\n      0x00\n        /* \"#utility.yul\":2675:2676   */\n      dup1\n        /* \"#utility.yul\":2668:2680   */\n      revert\n        /* \"#utility.yul\":2619:2682   */\n    tag_72:\n        /* \"#utility.yul\":2566:2688   */\n      pop\n      jump\t// out\n\n    auxdata: 0xa2646970667358221220bdffcd8a37a9c8f150abb7c2b0ac7a1f5e44aa4690640c763a10329b9df81d2164736f6c63430008070033\n}\n",
				"bytecode": {
					"linkReferences": {},
					"object": "6080604052607b60005534801561001557600080fd5b506102f9806100256000396000f3fe608060405234801561001057600080fd5b50600436106100575760003560e01c8063209877671461005c5780632b813bc0146100785780634e70b1dc14610082578063b8bd717f146100a0578063c2985578146100bc575b600080fd5b6100766004803603810190610071919061019a565b6100c6565b005b610080610121565b005b61008a610136565b6040516100979190610219565b60405180910390f35b6100ba60048036038101906100b5919061019a565b61013c565b005b6100c4610183565b005b600181111561011e57600581111561011d57600a81111561011c576040517f08c379a0000000000000000000000000000000000000000000000000000000008152600401610113906101f9565b60405180910390fd5b5b5b50565b607b600054146101345761013361024f565b5b565b60005481565b600a811115610180576040517f08c379a0000000000000000000000000000000000000000000000000000000008152600401610177906101f9565b60405180910390fd5b50565b565b600081359050610194816102ac565b92915050565b6000602082840312156101b0576101af61027e565b5b60006101be84828501610185565b91505092915050565b60006101d4600483610234565b91506101df82610283565b602082019050919050565b6101f381610245565b82525050565b60006020820190508181036000830152610212816101c7565b9050919050565b600060208201905061022e60008301846101ea565b92915050565b600082825260208201905092915050565b6000819050919050565b7f4e487b7100000000000000000000000000000000000000000000000000000000600052600160045260246000fd5b600080fd5b7f693e313000000000000000000000000000000000000000000000000000000000600082015250565b6102b581610245565b81146102c057600080fd5b5056fea2646970667358221220bdffcd8a37a9c8f150abb7c2b0ac7a1f5e44aa4690640c763a10329b9df81d2164736f6c63430008070033",
					"opcodes": "PUSH1 0x80 PUSH1 0x40 MSTORE PUSH1 0x7B PUSH1 0x0 SSTORE CALLVALUE DUP1 ISZERO PUSH2 0x15 JUMPI PUSH1 0x0 DUP1 REVERT JUMPDEST POP PUSH2 0x2F9 DUP1 PUSH2 0x25 PUSH1 0x0 CODECOPY PUSH1 0x0 RETURN INVALID PUSH1 0x80 PUSH1 0x40 MSTORE CALLVALUE DUP1 ISZERO PUSH2 0x10 JUMPI PUSH1 0x0 DUP1 REVERT JUMPDEST POP PUSH1 0x4 CALLDATASIZE LT PUSH2 0x57 JUMPI PUSH1 0x0 CALLDATALOAD PUSH1 0xE0 SHR DUP1 PUSH4 0x20987767 EQ PUSH2 0x5C JUMPI DUP1 PUSH4 0x2B813BC0 EQ PUSH2 0x78 JUMPI DUP1 PUSH4 0x4E70B1DC EQ PUSH2 0x82 JUMPI DUP1 PUSH4 0xB8BD717F EQ PUSH2 0xA0 JUMPI DUP1 PUSH4 0xC2985578 EQ PUSH2 0xBC JUMPI JUMPDEST PUSH1 0x0 DUP1 REVERT JUMPDEST PUSH2 0x76 PUSH1 0x4 DUP1 CALLDATASIZE SUB DUP2 ADD SWAP1 PUSH2 0x71 SWAP2 SWAP1 PUSH2 0x19A JUMP JUMPDEST PUSH2 0xC6 JUMP JUMPDEST STOP JUMPDEST PUSH2 0x80 PUSH2 0x121 JUMP JUMPDEST STOP JUMPDEST PUSH2 0x8A PUSH2 0x136 JUMP JUMPDEST PUSH1 0x40 MLOAD PUSH2 0x97 SWAP2 SWAP1 PUSH2 0x219 JUMP JUMPDEST PUSH1 0x40 MLOAD DUP1 SWAP2 SUB SWAP1 RETURN JUMPDEST PUSH2 0xBA PUSH1 0x4 DUP1 CALLDATASIZE SUB DUP2 ADD SWAP1 PUSH2 0xB5 SWAP2 SWAP1 PUSH2 0x19A JUMP JUMPDEST PUSH2 0x13C JUMP JUMPDEST STOP JUMPDEST PUSH2 0xC4 PUSH2 0x183 JUMP JUMPDEST STOP JUMPDEST PUSH1 0x1 DUP2 GT ISZERO PUSH2 0x11E JUMPI PUSH1 0x5 DUP2 GT ISZERO PUSH2 0x11D JUMPI PUSH1 0xA DUP2 GT ISZERO PUSH2 0x11C JUMPI PUSH1 0x40 MLOAD PUSH32 0x8C379A000000000000000000000000000000000000000000000000000000000 DUP2 MSTORE PUSH1 0x4 ADD PUSH2 0x113 SWAP1 PUSH2 0x1F9 JUMP JUMPDEST PUSH1 0x40 MLOAD DUP1 SWAP2 SUB SWAP1 REVERT JUMPDEST JUMPDEST JUMPDEST POP JUMP JUMPDEST PUSH1 0x7B PUSH1 0x0 SLOAD EQ PUSH2 0x134 JUMPI PUSH2 0x133 PUSH2 0x24F JUMP JUMPDEST JUMPDEST JUMP JUMPDEST PUSH1 0x0 SLOAD DUP2 JUMP JUMPDEST PUSH1 0xA DUP2 GT ISZERO PUSH2 0x180 JUMPI PUSH1 0x40 MLOAD PUSH32 0x8C379A000000000000000000000000000000000000000000000000000000000 DUP2 MSTORE PUSH1 0x4 ADD PUSH2 0x177 SWAP1 PUSH2 0x1F9 JUMP JUMPDEST PUSH1 0x40 MLOAD DUP1 SWAP2 SUB SWAP1 REVERT JUMPDEST POP JUMP JUMPDEST JUMP JUMPDEST PUSH1 0x0 DUP2 CALLDATALOAD SWAP1 POP PUSH2 0x194 DUP2 PUSH2 0x2AC JUMP JUMPDEST SWAP3 SWAP2 POP POP JUMP JUMPDEST PUSH1 0x0 PUSH1 0x20 DUP3 DUP5 SUB SLT ISZERO PUSH2 0x1B0 JUMPI PUSH2 0x1AF PUSH2 0x27E JUMP JUMPDEST JUMPDEST PUSH1 0x0 PUSH2 0x1BE DUP5 DUP3 DUP6 ADD PUSH2 0x185 JUMP JUMPDEST SWAP2 POP POP SWAP3 SWAP2 POP POP JUMP JUMPDEST PUSH1 0x0 PUSH2 0x1D4 PUSH1 0x4 DUP4 PUSH2 0x234 JUMP JUMPDEST SWAP2 POP PUSH2 0x1DF DUP3 PUSH2 0x283 JUMP JUMPDEST PUSH1 0x20 DUP3 ADD SWAP1 POP SWAP2 SWAP1 POP JUMP JUMPDEST PUSH2 0x1F3 DUP2 PUSH2 0x245 JUMP JUMPDEST DUP3 MSTORE POP POP JUMP JUMPDEST PUSH1 0x0 PUSH1 0x20 DUP3 ADD SWAP1 POP DUP2 DUP2 SUB PUSH1 0x0 DUP4 ADD MSTORE PUSH2 0x212 DUP2 PUSH2 0x1C7 JUMP JUMPDEST SWAP1 POP SWAP2 SWAP1 POP JUMP JUMPDEST PUSH1 0x0 PUSH1 0x20 DUP3 ADD SWAP1 POP PUSH2 0x22E PUSH1 0x0 DUP4 ADD DUP5 PUSH2 0x1EA JUMP JUMPDEST SWAP3 SWAP2 POP POP JUMP JUMPDEST PUSH1 0x0 DUP3 DUP3 MSTORE PUSH1 0x20 DUP3 ADD SWAP1 POP SWAP3 SWAP2 POP POP JUMP JUMPDEST PUSH1 0x0 DUP2 SWAP1 POP SWAP2 SWAP1 POP JUMP JUMPDEST PUSH32 0x4E487B7100000000000000000000000000000000000000000000000000000000 PUSH1 0x0 MSTORE PUSH1 0x1 PUSH1 0x4 MSTORE PUSH1 0x24 PUSH1 0x0 REVERT JUMPDEST PUSH1 0x0 DUP1 REVERT JUMPDEST PUSH32 0x693E313000000000000000000000000000000000000000000000000000000000 PUSH1 0x0 DUP3 ADD MSTORE POP JUMP JUMPDEST PUSH2 0x2B5 DUP2 PUSH2 0x245 JUMP JUMPDEST DUP2 EQ PUSH2 0x2C0 JUMPI PUSH1 0x0 DUP1 REVERT JUMPDEST POP JUMP INVALID LOG2 PUSH5 0x6970667358 0x22 SLT KECCAK256 0xBD SELFDESTRUCT 0xCD DUP11 CALLDATACOPY 0xA9 0xC8 CALL POP 0xAB 0xB7 0xC2 0xB0 0xAC PUSH27 0x1F5E44AA4690640C763A10329B9DF81D2164736F6C634300080700 CALLER "
				},
				"gasEstimates": {
					"creation": {
						"codeDepositCost": "152200",
						"executionCost": "22302",
						"totalCost": "174502"
					},
					"external": {
						"foo()": "210",
						"num()": "2451",
						"testAssert()": "2296",
						"testRequire(uint256)": "763",
						"testRevert(uint256)": "747"
					}
				},
				"methodIdentifiers": {
					"foo()": "c2985578",
					"num()": "4e70b1dc",
					"testAssert()": "2b813bc0",
					"testRequire(uint256)": "b8bd717f",
					"testRevert(uint256)": "20987767"
				}
			},
			"storageLayout": {
				"storage": [
					{
						"astId": 42,
						"contract": "Documents/dev/Lime/contracts/Errors.sol:Errors",
						"label": "num",
						"offset": 0,
						"slot": "0",
						"type": "t_uint256"
					}
				],
				"types": {
					"t_uint256": {
						"encoding": "inplace",
						"label": "uint256",
						"numberOfBytes": "32"
					}
				}
			},
			"userdoc": {
				"kind": "user",
				"methods": {},
				"version": 1
			}
		}
	}
}