{
	"CallOther.sol": {
		"CallTest": {
			"abi": [
				{
					"inputs": [
						{
							"internalType": "contract Test",
							"name": "c",
							"type": "address"
						},
						{
							"internalType": "uint256",
							"name": "_x",
							"type": "uint256"
						}
					],
					"name": "getX",
					"outputs": [],
					"stateMutability": "nonpayable",
					"type": "function"
				},
				{
					"inputs": [
						{
							"internalType": "address",
							"name": "c",
							"type": "address"
						}
					],
					"name": "getX",
					"outputs": [
						{
							"internalType": "uint256",
							"name": "",
							"type": "uint256"
						}
					],
					"stateMutability": "view",
					"type": "function"
				}
			],
			"devdoc": {
				"kind": "dev",
				"methods": {},
				"version": 1
			},
			"evm": {
				"assembly": "    /* \"CallOther.sol\":56:243  contract CallTest{... */\n  mstore(0x40, 0x80)\n  callvalue\n  dup1\n  iszero\n  tag_1\n  jumpi\n  0x00\n  dup1\n  revert\ntag_1:\n  pop\n  dataSize(sub_0)\n  dup1\n  dataOffset(sub_0)\n  0x00\n  codecopy\n  0x00\n  return\nstop\n\nsub_0: assembly {\n        /* \"CallOther.sol\":56:243  contract CallTest{... */\n      mstore(0x40, 0x80)\n      callvalue\n      dup1\n      iszero\n      tag_1\n      jumpi\n      0x00\n      dup1\n      revert\n    tag_1:\n      pop\n      jumpi(tag_2, lt(calldatasize, 0x04))\n      shr(0xe0, calldataload(0x00))\n      dup1\n      0x525b63e0\n      eq\n      tag_3\n      jumpi\n      dup1\n      0x7c94c8ca\n      eq\n      tag_4\n      jumpi\n    tag_2:\n      0x00\n      dup1\n      revert\n        /* \"CallOther.sol\":174:240  function getX(Test c,uint _x) external {... */\n    tag_3:\n      tag_5\n      0x04\n      dup1\n      calldatasize\n      sub\n      dup2\n      add\n      swap1\n      tag_6\n      swap2\n      swap1\n      tag_7\n      jump\t// in\n    tag_6:\n      tag_8\n      jump\t// in\n    tag_5:\n      stop\n        /* \"CallOther.sol\":79:169  function getX(address c) external view returns(uint){... */\n    tag_4:\n      tag_9\n      0x04\n      dup1\n      calldatasize\n      sub\n      dup2\n      add\n      swap1\n      tag_10\n      swap2\n      swap1\n      tag_11\n      jump\t// in\n    tag_10:\n      tag_12\n      jump\t// in\n    tag_9:\n      mload(0x40)\n      tag_13\n      swap2\n      swap1\n      tag_14\n      jump\t// in\n    tag_13:\n      mload(0x40)\n      dup1\n      swap2\n      sub\n      swap1\n      return\n        /* \"CallOther.sol\":174:240  function getX(Test c,uint _x) external {... */\n    tag_8:\n        /* \"CallOther.sol\":223:224  c */\n      dup2\n        /* \"CallOther.sol\":223:229  c.setX */\n      0xffffffffffffffffffffffffffffffffffffffff\n      and\n      0x4018d9aa\n        /* \"CallOther.sol\":230:232  _x */\n      dup3\n        /* \"CallOther.sol\":223:233  c.setX(_x) */\n      mload(0x40)\n      dup3\n      0xffffffff\n      and\n      0xe0\n      shl\n      dup2\n      mstore\n      0x04\n      add\n      tag_16\n      swap2\n      swap1\n      tag_14\n      jump\t// in\n    tag_16:\n      0x00\n      mload(0x40)\n      dup1\n      dup4\n      sub\n      dup2\n      0x00\n      dup8\n      dup1\n      extcodesize\n      iszero\n      dup1\n      iszero\n      tag_17\n      jumpi\n      0x00\n      dup1\n      revert\n    tag_17:\n      pop\n      gas\n      call\n      iszero\n      dup1\n      iszero\n      tag_19\n      jumpi\n      returndatasize\n      0x00\n      dup1\n      returndatacopy\n      revert(0x00, returndatasize)\n    tag_19:\n      pop\n      pop\n      pop\n      pop\n        /* \"CallOther.sol\":174:240  function getX(Test c,uint _x) external {... */\n      pop\n      pop\n      jump\t// out\n        /* \"CallOther.sol\":79:169  function getX(address c) external view returns(uint){... */\n    tag_12:\n        /* \"CallOther.sol\":126:130  uint */\n      0x00\n        /* \"CallOther.sol\":153:154  c */\n      dup2\n        /* \"CallOther.sol\":148:160  Test(c).getX */\n      0xffffffffffffffffffffffffffffffffffffffff\n      and\n      0x5197c7aa\n        /* \"CallOther.sol\":148:162  Test(c).getX() */\n      mload(0x40)\n      dup2\n      0xffffffff\n      and\n      0xe0\n      shl\n      dup2\n      mstore\n      0x04\n      add\n      0x20\n      mload(0x40)\n      dup1\n      dup4\n      sub\n      dup2\n      dup7\n      dup1\n      extcodesize\n      iszero\n      dup1\n      iszero\n      tag_21\n      jumpi\n      0x00\n      dup1\n      revert\n    tag_21:\n      pop\n      gas\n      staticcall\n      iszero\n      dup1\n      iszero\n      tag_23\n      jumpi\n      returndatasize\n      0x00\n      dup1\n      returndatacopy\n      revert(0x00, returndatasize)\n    tag_23:\n      pop\n      pop\n      pop\n      pop\n      mload(0x40)\n      returndatasize\n      not(0x1f)\n      0x1f\n      dup3\n      add\n      and\n      dup3\n      add\n      dup1\n      0x40\n      mstore\n      pop\n      dup2\n      add\n      swap1\n      tag_24\n      swap2\n      swap1\n      tag_25\n      jump\t// in\n    tag_24:\n        /* \"CallOther.sol\":141:162  return Test(c).getX() */\n      swap1\n      pop\n        /* \"CallOther.sol\":79:169  function getX(address c) external view returns(uint){... */\n      swap2\n      swap1\n      pop\n      jump\t// out\n        /* \"#utility.yul\":7:146   */\n    tag_27:\n        /* \"#utility.yul\":53:58   */\n      0x00\n        /* \"#utility.yul\":91:97   */\n      dup2\n        /* \"#utility.yul\":78:98   */\n      calldataload\n        /* \"#utility.yul\":69:98   */\n      swap1\n      pop\n        /* \"#utility.yul\":107:140   */\n      tag_29\n        /* \"#utility.yul\":134:139   */\n      dup2\n        /* \"#utility.yul\":107:140   */\n      tag_30\n      jump\t// in\n    tag_29:\n        /* \"#utility.yul\":7:146   */\n      swap3\n      swap2\n      pop\n      pop\n      jump\t// out\n        /* \"#utility.yul\":152:313   */\n    tag_31:\n        /* \"#utility.yul\":209:214   */\n      0x00\n        /* \"#utility.yul\":247:253   */\n      dup2\n        /* \"#utility.yul\":234:254   */\n      calldataload\n        /* \"#utility.yul\":225:254   */\n      swap1\n      pop\n        /* \"#utility.yul\":263:307   */\n      tag_33\n        /* \"#utility.yul\":301:306   */\n      dup2\n        /* \"#utility.yul\":263:307   */\n      tag_34\n      jump\t// in\n    tag_33:\n        /* \"#utility.yul\":152:313   */\n      swap3\n      swap2\n      pop\n      pop\n      jump\t// out\n        /* \"#utility.yul\":319:458   */\n    tag_35:\n        /* \"#utility.yul\":365:370   */\n      0x00\n        /* \"#utility.yul\":403:409   */\n      dup2\n        /* \"#utility.yul\":390:410   */\n      calldataload\n        /* \"#utility.yul\":381:410   */\n      swap1\n      pop\n        /* \"#utility.yul\":419:452   */\n      tag_37\n        /* \"#utility.yul\":446:451   */\n      dup2\n        /* \"#utility.yul\":419:452   */\n      tag_38\n      jump\t// in\n    tag_37:\n        /* \"#utility.yul\":319:458   */\n      swap3\n      swap2\n      pop\n      pop\n      jump\t// out\n        /* \"#utility.yul\":464:607   */\n    tag_39:\n        /* \"#utility.yul\":521:526   */\n      0x00\n        /* \"#utility.yul\":552:558   */\n      dup2\n        /* \"#utility.yul\":546:559   */\n      mload\n        /* \"#utility.yul\":537:559   */\n      swap1\n      pop\n        /* \"#utility.yul\":568:601   */\n      tag_41\n        /* \"#utility.yul\":595:600   */\n      dup2\n        /* \"#utility.yul\":568:601   */\n      tag_38\n      jump\t// in\n    tag_41:\n        /* \"#utility.yul\":464:607   */\n      swap3\n      swap2\n      pop\n      pop\n      jump\t// out\n        /* \"#utility.yul\":613:942   */\n    tag_11:\n        /* \"#utility.yul\":672:678   */\n      0x00\n        /* \"#utility.yul\":721:723   */\n      0x20\n        /* \"#utility.yul\":709:718   */\n      dup3\n        /* \"#utility.yul\":700:707   */\n      dup5\n        /* \"#utility.yul\":696:719   */\n      sub\n        /* \"#utility.yul\":692:724   */\n      slt\n        /* \"#utility.yul\":689:808   */\n      iszero\n      tag_43\n      jumpi\n        /* \"#utility.yul\":727:806   */\n      tag_44\n      tag_45\n      jump\t// in\n    tag_44:\n        /* \"#utility.yul\":689:808   */\n    tag_43:\n        /* \"#utility.yul\":847:848   */\n      0x00\n        /* \"#utility.yul\":872:925   */\n      tag_46\n        /* \"#utility.yul\":917:924   */\n      dup5\n        /* \"#utility.yul\":908:914   */\n      dup3\n        /* \"#utility.yul\":897:906   */\n      dup6\n        /* \"#utility.yul\":893:915   */\n      add\n        /* \"#utility.yul\":872:925   */\n      tag_27\n      jump\t// in\n    tag_46:\n        /* \"#utility.yul\":862:925   */\n      swap2\n      pop\n        /* \"#utility.yul\":818:935   */\n      pop\n        /* \"#utility.yul\":613:942   */\n      swap3\n      swap2\n      pop\n      pop\n      jump\t// out\n        /* \"#utility.yul\":948:1444   */\n    tag_7:\n        /* \"#utility.yul\":1027:1033   */\n      0x00\n        /* \"#utility.yul\":1035:1041   */\n      dup1\n        /* \"#utility.yul\":1084:1086   */\n      0x40\n        /* \"#utility.yul\":1072:1081   */\n      dup4\n        /* \"#utility.yul\":1063:1070   */\n      dup6\n        /* \"#utility.yul\":1059:1082   */\n      sub\n        /* \"#utility.yul\":1055:1087   */\n      slt\n        /* \"#utility.yul\":1052:1171   */\n      iszero\n      tag_48\n      jumpi\n        /* \"#utility.yul\":1090:1169   */\n      tag_49\n      tag_45\n      jump\t// in\n    tag_49:\n        /* \"#utility.yul\":1052:1171   */\n    tag_48:\n        /* \"#utility.yul\":1210:1211   */\n      0x00\n        /* \"#utility.yul\":1235:1299   */\n      tag_50\n        /* \"#utility.yul\":1291:1298   */\n      dup6\n        /* \"#utility.yul\":1282:1288   */\n      dup3\n        /* \"#utility.yul\":1271:1280   */\n      dup7\n        /* \"#utility.yul\":1267:1289   */\n      add\n        /* \"#utility.yul\":1235:1299   */\n      tag_31\n      jump\t// in\n    tag_50:\n        /* \"#utility.yul\":1225:1299   */\n      swap3\n      pop\n        /* \"#utility.yul\":1181:1309   */\n      pop\n        /* \"#utility.yul\":1348:1350   */\n      0x20\n        /* \"#utility.yul\":1374:1427   */\n      tag_51\n        /* \"#utility.yul\":1419:1426   */\n      dup6\n        /* \"#utility.yul\":1410:1416   */\n      dup3\n        /* \"#utility.yul\":1399:1408   */\n      dup7\n        /* \"#utility.yul\":1395:1417   */\n      add\n        /* \"#utility.yul\":1374:1427   */\n      tag_35\n      jump\t// in\n    tag_51:\n        /* \"#utility.yul\":1364:1427   */\n      swap2\n      pop\n        /* \"#utility.yul\":1319:1437   */\n      pop\n        /* \"#utility.yul\":948:1444   */\n      swap3\n      pop\n      swap3\n      swap1\n      pop\n      jump\t// out\n        /* \"#utility.yul\":1450:1801   */\n    tag_25:\n        /* \"#utility.yul\":1520:1526   */\n      0x00\n        /* \"#utility.yul\":1569:1571   */\n      0x20\n        /* \"#utility.yul\":1557:1566   */\n      dup3\n        /* \"#utility.yul\":1548:1555   */\n      dup5\n        /* \"#utility.yul\":1544:1567   */\n      sub\n        /* \"#utility.yul\":1540:1572   */\n      slt\n        /* \"#utility.yul\":1537:1656   */\n      iszero\n      tag_53\n      jumpi\n        /* \"#utility.yul\":1575:1654   */\n      tag_54\n      tag_45\n      jump\t// in\n    tag_54:\n        /* \"#utility.yul\":1537:1656   */\n    tag_53:\n        /* \"#utility.yul\":1695:1696   */\n      0x00\n        /* \"#utility.yul\":1720:1784   */\n      tag_55\n        /* \"#utility.yul\":1776:1783   */\n      dup5\n        /* \"#utility.yul\":1767:1773   */\n      dup3\n        /* \"#utility.yul\":1756:1765   */\n      dup6\n        /* \"#utility.yul\":1752:1774   */\n      add\n        /* \"#utility.yul\":1720:1784   */\n      tag_39\n      jump\t// in\n    tag_55:\n        /* \"#utility.yul\":1710:1784   */\n      swap2\n      pop\n        /* \"#utility.yul\":1666:1794   */\n      pop\n        /* \"#utility.yul\":1450:1801   */\n      swap3\n      swap2\n      pop\n      pop\n      jump\t// out\n        /* \"#utility.yul\":1807:1925   */\n    tag_56:\n        /* \"#utility.yul\":1894:1918   */\n      tag_58\n        /* \"#utility.yul\":1912:1917   */\n      dup2\n        /* \"#utility.yul\":1894:1918   */\n      tag_59\n      jump\t// in\n    tag_58:\n        /* \"#utility.yul\":1889:1892   */\n      dup3\n        /* \"#utility.yul\":1882:1919   */\n      mstore\n        /* \"#utility.yul\":1807:1925   */\n      pop\n      pop\n      jump\t// out\n        /* \"#utility.yul\":1931:2153   */\n    tag_14:\n        /* \"#utility.yul\":2024:2028   */\n      0x00\n        /* \"#utility.yul\":2062:2064   */\n      0x20\n        /* \"#utility.yul\":2051:2060   */\n      dup3\n        /* \"#utility.yul\":2047:2065   */\n      add\n        /* \"#utility.yul\":2039:2065   */\n      swap1\n      pop\n        /* \"#utility.yul\":2075:2146   */\n      tag_61\n        /* \"#utility.yul\":2143:2144   */\n      0x00\n        /* \"#utility.yul\":2132:2141   */\n      dup4\n        /* \"#utility.yul\":2128:2145   */\n      add\n        /* \"#utility.yul\":2119:2125   */\n      dup5\n        /* \"#utility.yul\":2075:2146   */\n      tag_56\n      jump\t// in\n    tag_61:\n        /* \"#utility.yul\":1931:2153   */\n      swap3\n      swap2\n      pop\n      pop\n      jump\t// out\n        /* \"#utility.yul\":2240:2336   */\n    tag_64:\n        /* \"#utility.yul\":2277:2284   */\n      0x00\n        /* \"#utility.yul\":2306:2330   */\n      tag_66\n        /* \"#utility.yul\":2324:2329   */\n      dup3\n        /* \"#utility.yul\":2306:2330   */\n      tag_67\n      jump\t// in\n    tag_66:\n        /* \"#utility.yul\":2295:2330   */\n      swap1\n      pop\n        /* \"#utility.yul\":2240:2336   */\n      swap2\n      swap1\n      pop\n      jump\t// out\n        /* \"#utility.yul\":2342:2449   */\n    tag_68:\n        /* \"#utility.yul\":2390:2397   */\n      0x00\n        /* \"#utility.yul\":2419:2443   */\n      tag_70\n        /* \"#utility.yul\":2437:2442   */\n      dup3\n        /* \"#utility.yul\":2419:2443   */\n      tag_64\n      jump\t// in\n    tag_70:\n        /* \"#utility.yul\":2408:2443   */\n      swap1\n      pop\n        /* \"#utility.yul\":2342:2449   */\n      swap2\n      swap1\n      pop\n      jump\t// out\n        /* \"#utility.yul\":2455:2581   */\n    tag_67:\n        /* \"#utility.yul\":2492:2499   */\n      0x00\n        /* \"#utility.yul\":2532:2574   */\n      0xffffffffffffffffffffffffffffffffffffffff\n        /* \"#utility.yul\":2525:2530   */\n      dup3\n        /* \"#utility.yul\":2521:2575   */\n      and\n        /* \"#utility.yul\":2510:2575   */\n      swap1\n      pop\n        /* \"#utility.yul\":2455:2581   */\n      swap2\n      swap1\n      pop\n      jump\t// out\n        /* \"#utility.yul\":2587:2664   */\n    tag_59:\n        /* \"#utility.yul\":2624:2631   */\n      0x00\n        /* \"#utility.yul\":2653:2658   */\n      dup2\n        /* \"#utility.yul\":2642:2658   */\n      swap1\n      pop\n        /* \"#utility.yul\":2587:2664   */\n      swap2\n      swap1\n      pop\n      jump\t// out\n        /* \"#utility.yul\":2793:2910   */\n    tag_45:\n        /* \"#utility.yul\":2902:2903   */\n      0x00\n        /* \"#utility.yul\":2899:2900   */\n      dup1\n        /* \"#utility.yul\":2892:2904   */\n      revert\n        /* \"#utility.yul\":2916:3038   */\n    tag_30:\n        /* \"#utility.yul\":2989:3013   */\n      tag_77\n        /* \"#utility.yul\":3007:3012   */\n      dup2\n        /* \"#utility.yul\":2989:3013   */\n      tag_64\n      jump\t// in\n    tag_77:\n        /* \"#utility.yul\":2982:2987   */\n      dup2\n        /* \"#utility.yul\":2979:3014   */\n      eq\n        /* \"#utility.yul\":2969:3032   */\n      tag_78\n      jumpi\n        /* \"#utility.yul\":3028:3029   */\n      0x00\n        /* \"#utility.yul\":3025:3026   */\n      dup1\n        /* \"#utility.yul\":3018:3030   */\n      revert\n        /* \"#utility.yul\":2969:3032   */\n    tag_78:\n        /* \"#utility.yul\":2916:3038   */\n      pop\n      jump\t// out\n        /* \"#utility.yul\":3044:3188   */\n    tag_34:\n        /* \"#utility.yul\":3128:3163   */\n      tag_80\n        /* \"#utility.yul\":3157:3162   */\n      dup2\n        /* \"#utility.yul\":3128:3163   */\n      tag_68\n      jump\t// in\n    tag_80:\n        /* \"#utility.yul\":3121:3126   */\n      dup2\n        /* \"#utility.yul\":3118:3164   */\n      eq\n        /* \"#utility.yul\":3108:3182   */\n      tag_81\n      jumpi\n        /* \"#utility.yul\":3178:3179   */\n      0x00\n        /* \"#utility.yul\":3175:3176   */\n      dup1\n        /* \"#utility.yul\":3168:3180   */\n      revert\n        /* \"#utility.yul\":3108:3182   */\n    tag_81:\n        /* \"#utility.yul\":3044:3188   */\n      pop\n      jump\t// out\n        /* \"#utility.yul\":3194:3316   */\n    tag_38:\n        /* \"#utility.yul\":3267:3291   */\n      tag_83\n        /* \"#utility.yul\":3285:3290   */\n      dup2\n        /* \"#utility.yul\":3267:3291   */\n      tag_59\n      jump\t// in\n    tag_83:\n        /* \"#utility.yul\":3260:3265   */\n      dup2\n        /* \"#utility.yul\":3257:3292   */\n      eq\n        /* \"#utility.yul\":3247:3310   */\n      tag_84\n      jumpi\n        /* \"#utility.yul\":3306:3307   */\n      0x00\n        /* \"#utility.yul\":3303:3304   */\n      dup1\n        /* \"#utility.yul\":3296:3308   */\n      revert\n        /* \"#utility.yul\":3247:3310   */\n    tag_84:\n        /* \"#utility.yul\":3194:3316   */\n      pop\n      jump\t// out\n\n    auxdata: 0xa2646970667358221220ae6065bc4c317f4e652562af30e0dc954835c76630076756a97a6433dce7a6b964736f6c63430008070033\n}\n",
				"bytecode": {
					"linkReferences": {},
					"object": "608060405234801561001057600080fd5b50610363806100206000396000f3fe608060405234801561001057600080fd5b50600436106100365760003560e01c8063525b63e01461003b5780637c94c8ca14610057575b600080fd5b610055600480360381019061005091906101fe565b610087565b005b610071600480360381019061006c91906101d1565b6100f6565b60405161007e919061027a565b60405180910390f35b8173ffffffffffffffffffffffffffffffffffffffff16634018d9aa826040518263ffffffff1660e01b81526004016100c0919061027a565b600060405180830381600087803b1580156100da57600080fd5b505af11580156100ee573d6000803e3d6000fd5b505050505050565b60008173ffffffffffffffffffffffffffffffffffffffff16635197c7aa6040518163ffffffff1660e01b815260040160206040518083038186803b15801561013e57600080fd5b505afa158015610152573d6000803e3d6000fd5b505050506040513d601f19601f82011682018060405250810190610176919061023e565b9050919050565b60008135905061018c816102e8565b92915050565b6000813590506101a1816102ff565b92915050565b6000813590506101b681610316565b92915050565b6000815190506101cb81610316565b92915050565b6000602082840312156101e7576101e66102e3565b5b60006101f58482850161017d565b91505092915050565b60008060408385031215610215576102146102e3565b5b600061022385828601610192565b9250506020610234858286016101a7565b9150509250929050565b600060208284031215610254576102536102e3565b5b6000610262848285016101bc565b91505092915050565b610274816102d9565b82525050565b600060208201905061028f600083018461026b565b92915050565b60006102a0826102b9565b9050919050565b60006102b282610295565b9050919050565b600073ffffffffffffffffffffffffffffffffffffffff82169050919050565b6000819050919050565b600080fd5b6102f181610295565b81146102fc57600080fd5b50565b610308816102a7565b811461031357600080fd5b50565b61031f816102d9565b811461032a57600080fd5b5056fea2646970667358221220ae6065bc4c317f4e652562af30e0dc954835c76630076756a97a6433dce7a6b964736f6c63430008070033",
					"opcodes": "PUSH1 0x80 PUSH1 0x40 MSTORE CALLVALUE DUP1 ISZERO PUSH2 0x10 JUMPI PUSH1 0x0 DUP1 REVERT JUMPDEST POP PUSH2 0x363 DUP1 PUSH2 0x20 PUSH1 0x0 CODECOPY PUSH1 0x0 RETURN INVALID PUSH1 0x80 PUSH1 0x40 MSTORE CALLVALUE DUP1 ISZERO PUSH2 0x10 JUMPI PUSH1 0x0 DUP1 REVERT JUMPDEST POP PUSH1 0x4 CALLDATASIZE LT PUSH2 0x36 JUMPI PUSH1 0x0 CALLDATALOAD PUSH1 0xE0 SHR DUP1 PUSH4 0x525B63E0 EQ PUSH2 0x3B JUMPI DUP1 PUSH4 0x7C94C8CA EQ PUSH2 0x57 JUMPI JUMPDEST PUSH1 0x0 DUP1 REVERT JUMPDEST PUSH2 0x55 PUSH1 0x4 DUP1 CALLDATASIZE SUB DUP2 ADD SWAP1 PUSH2 0x50 SWAP2 SWAP1 PUSH2 0x1FE JUMP JUMPDEST PUSH2 0x87 JUMP JUMPDEST STOP JUMPDEST PUSH2 0x71 PUSH1 0x4 DUP1 CALLDATASIZE SUB DUP2 ADD SWAP1 PUSH2 0x6C SWAP2 SWAP1 PUSH2 0x1D1 JUMP JUMPDEST PUSH2 0xF6 JUMP JUMPDEST PUSH1 0x40 MLOAD PUSH2 0x7E SWAP2 SWAP1 PUSH2 0x27A JUMP JUMPDEST PUSH1 0x40 MLOAD DUP1 SWAP2 SUB SWAP1 RETURN JUMPDEST DUP2 PUSH20 0xFFFFFFFFFFFFFFFFFFFFFFFFFFFFFFFFFFFFFFFF AND PUSH4 0x4018D9AA DUP3 PUSH1 0x40 MLOAD DUP3 PUSH4 0xFFFFFFFF AND PUSH1 0xE0 SHL DUP2 MSTORE PUSH1 0x4 ADD PUSH2 0xC0 SWAP2 SWAP1 PUSH2 0x27A JUMP JUMPDEST PUSH1 0x0 PUSH1 0x40 MLOAD DUP1 DUP4 SUB DUP2 PUSH1 0x0 DUP8 DUP1 EXTCODESIZE ISZERO DUP1 ISZERO PUSH2 0xDA JUMPI PUSH1 0x0 DUP1 REVERT JUMPDEST POP GAS CALL ISZERO DUP1 ISZERO PUSH2 0xEE JUMPI RETURNDATASIZE PUSH1 0x0 DUP1 RETURNDATACOPY RETURNDATASIZE PUSH1 0x0 REVERT JUMPDEST POP POP POP POP POP POP JUMP JUMPDEST PUSH1 0x0 DUP2 PUSH20 0xFFFFFFFFFFFFFFFFFFFFFFFFFFFFFFFFFFFFFFFF AND PUSH4 0x5197C7AA PUSH1 0x40 MLOAD DUP2 PUSH4 0xFFFFFFFF AND PUSH1 0xE0 SHL DUP2 MSTORE PUSH1 0x4 ADD PUSH1 0x20 PUSH1 0x40 MLOAD DUP1 DUP4 SUB DUP2 DUP7 DUP1 EXTCODESIZE ISZERO DUP1 ISZERO PUSH2 0x13E JUMPI PUSH1 0x0 DUP1 REVERT JUMPDEST POP GAS STATICCALL ISZERO DUP1 ISZERO PUSH2 0x152 JUMPI RETURNDATASIZE PUSH1 0x0 DUP1 RETURNDATACOPY RETURNDATASIZE PUSH1 0x0 REVERT JUMPDEST POP POP POP POP PUSH1 0x40 MLOAD RETURNDATASIZE PUSH1 0x1F NOT PUSH1 0x1F DUP3 ADD AND DUP3 ADD DUP1 PUSH1 0x40 MSTORE POP DUP2 ADD SWAP1 PUSH2 0x176 SWAP2 SWAP1 PUSH2 0x23E JUMP JUMPDEST SWAP1 POP SWAP2 SWAP1 POP JUMP JUMPDEST PUSH1 0x0 DUP2 CALLDATALOAD SWAP1 POP PUSH2 0x18C DUP2 PUSH2 0x2E8 JUMP JUMPDEST SWAP3 SWAP2 POP POP JUMP JUMPDEST PUSH1 0x0 DUP2 CALLDATALOAD SWAP1 POP PUSH2 0x1A1 DUP2 PUSH2 0x2FF JUMP JUMPDEST SWAP3 SWAP2 POP POP JUMP JUMPDEST PUSH1 0x0 DUP2 CALLDATALOAD SWAP1 POP PUSH2 0x1B6 DUP2 PUSH2 0x316 JUMP JUMPDEST SWAP3 SWAP2 POP POP JUMP JUMPDEST PUSH1 0x0 DUP2 MLOAD SWAP1 POP PUSH2 0x1CB DUP2 PUSH2 0x316 JUMP JUMPDEST SWAP3 SWAP2 POP POP JUMP JUMPDEST PUSH1 0x0 PUSH1 0x20 DUP3 DUP5 SUB SLT ISZERO PUSH2 0x1E7 JUMPI PUSH2 0x1E6 PUSH2 0x2E3 JUMP JUMPDEST JUMPDEST PUSH1 0x0 PUSH2 0x1F5 DUP5 DUP3 DUP6 ADD PUSH2 0x17D JUMP JUMPDEST SWAP2 POP POP SWAP3 SWAP2 POP POP JUMP JUMPDEST PUSH1 0x0 DUP1 PUSH1 0x40 DUP4 DUP6 SUB SLT ISZERO PUSH2 0x215 JUMPI PUSH2 0x214 PUSH2 0x2E3 JUMP JUMPDEST JUMPDEST PUSH1 0x0 PUSH2 0x223 DUP6 DUP3 DUP7 ADD PUSH2 0x192 JUMP JUMPDEST SWAP3 POP POP PUSH1 0x20 PUSH2 0x234 DUP6 DUP3 DUP7 ADD PUSH2 0x1A7 JUMP JUMPDEST SWAP2 POP POP SWAP3 POP SWAP3 SWAP1 POP JUMP JUMPDEST PUSH1 0x0 PUSH1 0x20 DUP3 DUP5 SUB SLT ISZERO PUSH2 0x254 JUMPI PUSH2 0x253 PUSH2 0x2E3 JUMP JUMPDEST JUMPDEST PUSH1 0x0 PUSH2 0x262 DUP5 DUP3 DUP6 ADD PUSH2 0x1BC JUMP JUMPDEST SWAP2 POP POP SWAP3 SWAP2 POP POP JUMP JUMPDEST PUSH2 0x274 DUP2 PUSH2 0x2D9 JUMP JUMPDEST DUP3 MSTORE POP POP JUMP JUMPDEST PUSH1 0x0 PUSH1 0x20 DUP3 ADD SWAP1 POP PUSH2 0x28F PUSH1 0x0 DUP4 ADD DUP5 PUSH2 0x26B JUMP JUMPDEST SWAP3 SWAP2 POP POP JUMP JUMPDEST PUSH1 0x0 PUSH2 0x2A0 DUP3 PUSH2 0x2B9 JUMP JUMPDEST SWAP1 POP SWAP2 SWAP1 POP JUMP JUMPDEST PUSH1 0x0 PUSH2 0x2B2 DUP3 PUSH2 0x295 JUMP JUMPDEST SWAP1 POP SWAP2 SWAP1 POP JUMP JUMPDEST PUSH1 0x0 PUSH20 0xFFFFFFFFFFFFFFFFFFFFFFFFFFFFFFFFFFFFFFFF DUP3 AND SWAP1 POP SWAP2 SWAP1 POP JUMP JUMPDEST PUSH1 0x0 DUP2 SWAP1 POP SWAP2 SWAP1 POP JUMP JUMPDEST PUSH1 0x0 DUP1 REVERT JUMPDEST PUSH2 0x2F1 DUP2 PUSH2 0x295 JUMP JUMPDEST DUP2 EQ PUSH2 0x2FC JUMPI PUSH1 0x0 DUP1 REVERT JUMPDEST POP JUMP JUMPDEST PUSH2 0x308 DUP2 PUSH2 0x2A7 JUMP JUMPDEST DUP2 EQ PUSH2 0x313 JUMPI PUSH1 0x0 DUP1 REVERT JUMPDEST POP JUMP JUMPDEST PUSH2 0x31F DUP2 PUSH2 0x2D9 JUMP JUMPDEST DUP2 EQ PUSH2 0x32A JUMPI PUSH1 0x0 DUP1 REVERT JUMPDEST POP JUMP INVALID LOG2 PUSH5 0x6970667358 0x22 SLT KECCAK256 0xAE PUSH1 0x65 0xBC 0x4C BALANCE PUSH32 0x4E652562AF30E0DC954835C76630076756A97A6433DCE7A6B964736F6C634300 ADDMOD SMOD STOP CALLER "
				},
				"gasEstimates": {
					"creation": {
						"codeDepositCost": "173400",
						"executionCost": "220",
						"totalCost": "173620"
					},
					"external": {
						"getX(address)": "infinite",
						"getX(address,uint256)": "infinite"
					}
				},
				"methodIdentifiers": {
					"getX(address)": "7c94c8ca",
					"getX(address,uint256)": "525b63e0"
				}
			},
			"storageLayout": {
				"storage": [],
				"types": null
			},
			"userdoc": {
				"kind": "user",
				"methods": {},
				"version": 1
			}
		}
	}
}