{
	"Documents/dev/Lime/contracts/Arrays.sol": {
		"Arrays": {
			"abi": [
				{
					"inputs": [
						{
							"internalType": "uint256",
							"name": "",
							"type": "uint256"
						}
					],
					"name": "arr",
					"outputs": [
						{
							"internalType": "uint256",
							"name": "",
							"type": "uint256"
						}
					],
					"stateMutability": "view",
					"type": "function"
				},
				{
					"inputs": [
						{
							"internalType": "uint256",
							"name": "",
							"type": "uint256"
						}
					],
					"name": "arr2",
					"outputs": [
						{
							"internalType": "uint256",
							"name": "",
							"type": "uint256"
						}
					],
					"stateMutability": "view",
					"type": "function"
				},
				{
					"inputs": [
						{
							"internalType": "uint256",
							"name": "i",
							"type": "uint256"
						}
					],
					"name": "orderRemove",
					"outputs": [],
					"stateMutability": "view",
					"type": "function"
				}
			],
			"devdoc": {
				"kind": "dev",
				"methods": {},
				"version": 1
			},
			"evm": {
				"assembly": "    /* \"Documents/dev/Lime/contracts/Arrays.sol\":56:269  contract Arrays{... */\n  mstore(0x40, 0x80)\n    /* \"Documents/dev/Lime/contracts/Arrays.sol\":96:129  uint[] public arr = [1,2,3,4,5,6] */\n  mload(0x40)\n  dup1\n  0xc0\n  add\n  0x40\n  mstore\n  dup1\n    /* \"Documents/dev/Lime/contracts/Arrays.sol\":117:118  1 */\n  0x01\n    /* \"Documents/dev/Lime/contracts/Arrays.sol\":96:129  uint[] public arr = [1,2,3,4,5,6] */\n  0xff\n  and\n  dup2\n  mstore\n  0x20\n  add\n    /* \"Documents/dev/Lime/contracts/Arrays.sol\":119:120  2 */\n  0x02\n    /* \"Documents/dev/Lime/contracts/Arrays.sol\":96:129  uint[] public arr = [1,2,3,4,5,6] */\n  0xff\n  and\n  dup2\n  mstore\n  0x20\n  add\n    /* \"Documents/dev/Lime/contracts/Arrays.sol\":121:122  3 */\n  0x03\n    /* \"Documents/dev/Lime/contracts/Arrays.sol\":96:129  uint[] public arr = [1,2,3,4,5,6] */\n  0xff\n  and\n  dup2\n  mstore\n  0x20\n  add\n    /* \"Documents/dev/Lime/contracts/Arrays.sol\":123:124  4 */\n  0x04\n    /* \"Documents/dev/Lime/contracts/Arrays.sol\":96:129  uint[] public arr = [1,2,3,4,5,6] */\n  0xff\n  and\n  dup2\n  mstore\n  0x20\n  add\n    /* \"Documents/dev/Lime/contracts/Arrays.sol\":125:126  5 */\n  0x05\n    /* \"Documents/dev/Lime/contracts/Arrays.sol\":96:129  uint[] public arr = [1,2,3,4,5,6] */\n  0xff\n  and\n  dup2\n  mstore\n  0x20\n  add\n    /* \"Documents/dev/Lime/contracts/Arrays.sol\":127:128  6 */\n  0x06\n    /* \"Documents/dev/Lime/contracts/Arrays.sol\":96:129  uint[] public arr = [1,2,3,4,5,6] */\n  0xff\n  and\n  dup2\n  mstore\n  pop\n  0x00\n  swap1\n  0x06\n  tag_1\n  swap3\n  swap2\n  swap1\n  tag_2\n  jump\t// in\ntag_1:\n  pop\n    /* \"Documents/dev/Lime/contracts/Arrays.sol\":152:181  uint[3] public arr2 = [1,2,3] */\n  mload(0x40)\n  dup1\n  0x60\n  add\n  0x40\n  mstore\n  dup1\n    /* \"Documents/dev/Lime/contracts/Arrays.sol\":175:176  1 */\n  0x01\n    /* \"Documents/dev/Lime/contracts/Arrays.sol\":152:181  uint[3] public arr2 = [1,2,3] */\n  0xff\n  and\n  dup2\n  mstore\n  0x20\n  add\n    /* \"Documents/dev/Lime/contracts/Arrays.sol\":177:178  2 */\n  0x02\n    /* \"Documents/dev/Lime/contracts/Arrays.sol\":152:181  uint[3] public arr2 = [1,2,3] */\n  0xff\n  and\n  dup2\n  mstore\n  0x20\n  add\n    /* \"Documents/dev/Lime/contracts/Arrays.sol\":179:180  3 */\n  0x03\n    /* \"Documents/dev/Lime/contracts/Arrays.sol\":152:181  uint[3] public arr2 = [1,2,3] */\n  0xff\n  and\n  dup2\n  mstore\n  pop\n  0x01\n  swap1\n  0x03\n  tag_3\n  swap3\n  swap2\n  swap1\n  tag_4\n  jump\t// in\ntag_3:\n  pop\n    /* \"Documents/dev/Lime/contracts/Arrays.sol\":56:269  contract Arrays{... */\n  callvalue\n  dup1\n  iszero\n  tag_5\n  jumpi\n  0x00\n  dup1\n  revert\ntag_5:\n  pop\n  jump(tag_6)\ntag_2:\n  dup3\n  dup1\n  sload\n  dup3\n  dup3\n  sstore\n  swap1\n  0x00\n  mstore\n  keccak256(0x00, 0x20)\n  swap1\n  dup2\n  add\n  swap3\n  dup3\n  iszero\n  tag_7\n  jumpi\n  swap2\n  0x20\n  mul\n  dup3\n  add\ntag_8:\n  dup3\n  dup2\n  gt\n  iszero\n  tag_9\n  jumpi\n  dup3\n  mload\n  dup3\n  swap1\n  0xff\n  and\n  swap1\n  sstore\n  swap2\n  0x20\n  add\n  swap2\n  swap1\n  0x01\n  add\n  swap1\n  jump(tag_8)\ntag_9:\ntag_7:\n  pop\n  swap1\n  pop\n  tag_10\n  swap2\n  swap1\n  tag_11\n  jump\t// in\ntag_10:\n  pop\n  swap1\n  jump\t// out\ntag_4:\n  dup3\n  0x03\n  dup2\n  add\n  swap3\n  dup3\n  iszero\n  tag_12\n  jumpi\n  swap2\n  0x20\n  mul\n  dup3\n  add\ntag_13:\n  dup3\n  dup2\n  gt\n  iszero\n  tag_14\n  jumpi\n  dup3\n  mload\n  dup3\n  swap1\n  0xff\n  and\n  swap1\n  sstore\n  swap2\n  0x20\n  add\n  swap2\n  swap1\n  0x01\n  add\n  swap1\n  jump(tag_13)\ntag_14:\ntag_12:\n  pop\n  swap1\n  pop\n  tag_15\n  swap2\n  swap1\n  tag_11\n  jump\t// in\ntag_15:\n  pop\n  swap1\n  jump\t// out\ntag_11:\ntag_16:\n  dup1\n  dup3\n  gt\n  iszero\n  tag_17\n  jumpi\n  0x00\n  dup2\n  0x00\n  swap1\n  sstore\n  pop\n  0x01\n  add\n  jump(tag_16)\ntag_17:\n  pop\n  swap1\n  jump\t// out\ntag_6:\n  dataSize(sub_0)\n  dup1\n  dataOffset(sub_0)\n  0x00\n  codecopy\n  0x00\n  return\nstop\n\nsub_0: assembly {\n        /* \"Documents/dev/Lime/contracts/Arrays.sol\":56:269  contract Arrays{... */\n      mstore(0x40, 0x80)\n      callvalue\n      dup1\n      iszero\n      tag_1\n      jumpi\n      0x00\n      dup1\n      revert\n    tag_1:\n      pop\n      jumpi(tag_2, lt(calldatasize, 0x04))\n      shr(0xe0, calldataload(0x00))\n      dup1\n      0x71e5ee5f\n      eq\n      tag_3\n      jumpi\n      dup1\n      0xb1a86309\n      eq\n      tag_4\n      jumpi\n      dup1\n      0xedf0099b\n      eq\n      tag_5\n      jumpi\n    tag_2:\n      0x00\n      dup1\n      revert\n        /* \"Documents/dev/Lime/contracts/Arrays.sol\":96:129  uint[] public arr = [1,2,3,4,5,6] */\n    tag_3:\n      tag_6\n      0x04\n      dup1\n      calldatasize\n      sub\n      dup2\n      add\n      swap1\n      tag_7\n      swap2\n      swap1\n      tag_8\n      jump\t// in\n    tag_7:\n      tag_9\n      jump\t// in\n    tag_6:\n      mload(0x40)\n      tag_10\n      swap2\n      swap1\n      tag_11\n      jump\t// in\n    tag_10:\n      mload(0x40)\n      dup1\n      swap2\n      sub\n      swap1\n      return\n        /* \"Documents/dev/Lime/contracts/Arrays.sol\":188:266  function orderRemove(uint i) public view {... */\n    tag_4:\n      tag_12\n      0x04\n      dup1\n      calldatasize\n      sub\n      dup2\n      add\n      swap1\n      tag_13\n      swap2\n      swap1\n      tag_8\n      jump\t// in\n    tag_13:\n      tag_14\n      jump\t// in\n    tag_12:\n      stop\n        /* \"Documents/dev/Lime/contracts/Arrays.sol\":152:181  uint[3] public arr2 = [1,2,3] */\n    tag_5:\n      tag_15\n      0x04\n      dup1\n      calldatasize\n      sub\n      dup2\n      add\n      swap1\n      tag_16\n      swap2\n      swap1\n      tag_8\n      jump\t// in\n    tag_16:\n      tag_17\n      jump\t// in\n    tag_15:\n      mload(0x40)\n      tag_18\n      swap2\n      swap1\n      tag_11\n      jump\t// in\n    tag_18:\n      mload(0x40)\n      dup1\n      swap2\n      sub\n      swap1\n      return\n        /* \"Documents/dev/Lime/contracts/Arrays.sol\":96:129  uint[] public arr = [1,2,3,4,5,6] */\n    tag_9:\n      0x00\n      dup2\n      dup2\n      sload\n      dup2\n      lt\n      tag_19\n      jumpi\n      0x00\n      dup1\n      revert\n    tag_19:\n      swap1\n      0x00\n      mstore\n      keccak256(0x00, 0x20)\n      add\n      0x00\n      swap2\n      pop\n      swap1\n      pop\n      sload\n      dup2\n      jump\t// out\n        /* \"Documents/dev/Lime/contracts/Arrays.sol\":188:266  function orderRemove(uint i) public view {... */\n    tag_14:\n        /* \"Documents/dev/Lime/contracts/Arrays.sol\":248:251  arr */\n      0x00\n        /* \"Documents/dev/Lime/contracts/Arrays.sol\":248:258  arr.length */\n      dup1\n      sload\n      swap1\n      pop\n        /* \"Documents/dev/Lime/contracts/Arrays.sol\":246:247  i */\n      dup2\n        /* \"Documents/dev/Lime/contracts/Arrays.sol\":246:258  i<arr.length */\n      lt\n        /* \"Documents/dev/Lime/contracts/Arrays.sol\":239:259  assert(i<arr.length) */\n      tag_22\n      jumpi\n      tag_23\n      tag_24\n      jump\t// in\n    tag_23:\n    tag_22:\n        /* \"Documents/dev/Lime/contracts/Arrays.sol\":188:266  function orderRemove(uint i) public view {... */\n      pop\n      jump\t// out\n        /* \"Documents/dev/Lime/contracts/Arrays.sol\":152:181  uint[3] public arr2 = [1,2,3] */\n    tag_17:\n      0x01\n      dup2\n      0x03\n      dup2\n      lt\n      tag_25\n      jumpi\n      0x00\n      dup1\n      revert\n    tag_25:\n      add\n      0x00\n      swap2\n      pop\n      swap1\n      pop\n      sload\n      dup2\n      jump\t// out\n        /* \"#utility.yul\":7:146   */\n    tag_28:\n        /* \"#utility.yul\":53:58   */\n      0x00\n        /* \"#utility.yul\":91:97   */\n      dup2\n        /* \"#utility.yul\":78:98   */\n      calldataload\n        /* \"#utility.yul\":69:98   */\n      swap1\n      pop\n        /* \"#utility.yul\":107:140   */\n      tag_30\n        /* \"#utility.yul\":134:139   */\n      dup2\n        /* \"#utility.yul\":107:140   */\n      tag_31\n      jump\t// in\n    tag_30:\n        /* \"#utility.yul\":7:146   */\n      swap3\n      swap2\n      pop\n      pop\n      jump\t// out\n        /* \"#utility.yul\":152:481   */\n    tag_8:\n        /* \"#utility.yul\":211:217   */\n      0x00\n        /* \"#utility.yul\":260:262   */\n      0x20\n        /* \"#utility.yul\":248:257   */\n      dup3\n        /* \"#utility.yul\":239:246   */\n      dup5\n        /* \"#utility.yul\":235:258   */\n      sub\n        /* \"#utility.yul\":231:263   */\n      slt\n        /* \"#utility.yul\":228:347   */\n      iszero\n      tag_33\n      jumpi\n        /* \"#utility.yul\":266:345   */\n      tag_34\n      tag_35\n      jump\t// in\n    tag_34:\n        /* \"#utility.yul\":228:347   */\n    tag_33:\n        /* \"#utility.yul\":386:387   */\n      0x00\n        /* \"#utility.yul\":411:464   */\n      tag_36\n        /* \"#utility.yul\":456:463   */\n      dup5\n        /* \"#utility.yul\":447:453   */\n      dup3\n        /* \"#utility.yul\":436:445   */\n      dup6\n        /* \"#utility.yul\":432:454   */\n      add\n        /* \"#utility.yul\":411:464   */\n      tag_28\n      jump\t// in\n    tag_36:\n        /* \"#utility.yul\":401:464   */\n      swap2\n      pop\n        /* \"#utility.yul\":357:474   */\n      pop\n        /* \"#utility.yul\":152:481   */\n      swap3\n      swap2\n      pop\n      pop\n      jump\t// out\n        /* \"#utility.yul\":487:605   */\n    tag_37:\n        /* \"#utility.yul\":574:598   */\n      tag_39\n        /* \"#utility.yul\":592:597   */\n      dup2\n        /* \"#utility.yul\":574:598   */\n      tag_40\n      jump\t// in\n    tag_39:\n        /* \"#utility.yul\":569:572   */\n      dup3\n        /* \"#utility.yul\":562:599   */\n      mstore\n        /* \"#utility.yul\":487:605   */\n      pop\n      pop\n      jump\t// out\n        /* \"#utility.yul\":611:833   */\n    tag_11:\n        /* \"#utility.yul\":704:708   */\n      0x00\n        /* \"#utility.yul\":742:744   */\n      0x20\n        /* \"#utility.yul\":731:740   */\n      dup3\n        /* \"#utility.yul\":727:745   */\n      add\n        /* \"#utility.yul\":719:745   */\n      swap1\n      pop\n        /* \"#utility.yul\":755:826   */\n      tag_42\n        /* \"#utility.yul\":823:824   */\n      0x00\n        /* \"#utility.yul\":812:821   */\n      dup4\n        /* \"#utility.yul\":808:825   */\n      add\n        /* \"#utility.yul\":799:805   */\n      dup5\n        /* \"#utility.yul\":755:826   */\n      tag_37\n      jump\t// in\n    tag_42:\n        /* \"#utility.yul\":611:833   */\n      swap3\n      swap2\n      pop\n      pop\n      jump\t// out\n        /* \"#utility.yul\":920:997   */\n    tag_40:\n        /* \"#utility.yul\":957:964   */\n      0x00\n        /* \"#utility.yul\":986:991   */\n      dup2\n        /* \"#utility.yul\":975:991   */\n      swap1\n      pop\n        /* \"#utility.yul\":920:997   */\n      swap2\n      swap1\n      pop\n      jump\t// out\n        /* \"#utility.yul\":1003:1183   */\n    tag_24:\n        /* \"#utility.yul\":1051:1128   */\n      0x4e487b7100000000000000000000000000000000000000000000000000000000\n        /* \"#utility.yul\":1048:1049   */\n      0x00\n        /* \"#utility.yul\":1041:1129   */\n      mstore\n        /* \"#utility.yul\":1148:1152   */\n      0x01\n        /* \"#utility.yul\":1145:1146   */\n      0x04\n        /* \"#utility.yul\":1138:1153   */\n      mstore\n        /* \"#utility.yul\":1172:1176   */\n      0x24\n        /* \"#utility.yul\":1169:1170   */\n      0x00\n        /* \"#utility.yul\":1162:1177   */\n      revert\n        /* \"#utility.yul\":1312:1429   */\n    tag_35:\n        /* \"#utility.yul\":1421:1422   */\n      0x00\n        /* \"#utility.yul\":1418:1419   */\n      dup1\n        /* \"#utility.yul\":1411:1423   */\n      revert\n        /* \"#utility.yul\":1435:1557   */\n    tag_31:\n        /* \"#utility.yul\":1508:1532   */\n      tag_51\n        /* \"#utility.yul\":1526:1531   */\n      dup2\n        /* \"#utility.yul\":1508:1532   */\n      tag_40\n      jump\t// in\n    tag_51:\n        /* \"#utility.yul\":1501:1506   */\n      dup2\n        /* \"#utility.yul\":1498:1533   */\n      eq\n        /* \"#utility.yul\":1488:1551   */\n      tag_52\n      jumpi\n        /* \"#utility.yul\":1547:1548   */\n      0x00\n        /* \"#utility.yul\":1544:1545   */\n      dup1\n        /* \"#utility.yul\":1537:1549   */\n      revert\n        /* \"#utility.yul\":1488:1551   */\n    tag_52:\n        /* \"#utility.yul\":1435:1557   */\n      pop\n      jump\t// out\n\n    auxdata: 0xa26469706673582212208e6fe5548f295c56e9e794b36b71ece8f0eb5e575ab464ea6f6bc2bb0ad2b58664736f6c63430008070033\n}\n",
				"bytecode": {
					"linkReferences": {},
					"object": "60806040526040518060c00160405280600160ff168152602001600260ff168152602001600360ff168152602001600460ff168152602001600560ff168152602001600660ff1681525060009060066100599291906100a4565b506040518060600160405280600160ff168152602001600260ff168152602001600360ff1681525060019060036100919291906100f6565b5034801561009e57600080fd5b50610158565b8280548282559060005260206000209081019282156100e5579160200282015b828111156100e4578251829060ff169055916020019190600101906100c4565b5b5090506100f2919061013b565b5090565b826003810192821561012a579160200282015b82811115610129578251829060ff16905591602001919060010190610109565b5b509050610137919061013b565b5090565b5b8082111561015457600081600090555060010161013c565b5090565b610210806101676000396000f3fe608060405234801561001057600080fd5b50600436106100415760003560e01c806371e5ee5f14610046578063b1a8630914610076578063edf0099b14610092575b600080fd5b610060600480360381019061005b919061012e565b6100c2565b60405161006d919061016a565b60405180910390f35b610090600480360381019061008b919061012e565b6100e6565b005b6100ac60048036038101906100a7919061012e565b6100fe565b6040516100b9919061016a565b60405180910390f35b600081815481106100d257600080fd5b906000526020600020016000915090505481565b60008054905081106100fb576100fa61018f565b5b50565b6001816003811061010e57600080fd5b016000915090505481565b600081359050610128816101c3565b92915050565b600060208284031215610144576101436101be565b5b600061015284828501610119565b91505092915050565b61016481610185565b82525050565b600060208201905061017f600083018461015b565b92915050565b6000819050919050565b7f4e487b7100000000000000000000000000000000000000000000000000000000600052600160045260246000fd5b600080fd5b6101cc81610185565b81146101d757600080fd5b5056fea26469706673582212208e6fe5548f295c56e9e794b36b71ece8f0eb5e575ab464ea6f6bc2bb0ad2b58664736f6c63430008070033",
					"opcodes": "PUSH1 0x80 PUSH1 0x40 MSTORE PUSH1 0x40 MLOAD DUP1 PUSH1 0xC0 ADD PUSH1 0x40 MSTORE DUP1 PUSH1 0x1 PUSH1 0xFF AND DUP2 MSTORE PUSH1 0x20 ADD PUSH1 0x2 PUSH1 0xFF AND DUP2 MSTORE PUSH1 0x20 ADD PUSH1 0x3 PUSH1 0xFF AND DUP2 MSTORE PUSH1 0x20 ADD PUSH1 0x4 PUSH1 0xFF AND DUP2 MSTORE PUSH1 0x20 ADD PUSH1 0x5 PUSH1 0xFF AND DUP2 MSTORE PUSH1 0x20 ADD PUSH1 0x6 PUSH1 0xFF AND DUP2 MSTORE POP PUSH1 0x0 SWAP1 PUSH1 0x6 PUSH2 0x59 SWAP3 SWAP2 SWAP1 PUSH2 0xA4 JUMP JUMPDEST POP PUSH1 0x40 MLOAD DUP1 PUSH1 0x60 ADD PUSH1 0x40 MSTORE DUP1 PUSH1 0x1 PUSH1 0xFF AND DUP2 MSTORE PUSH1 0x20 ADD PUSH1 0x2 PUSH1 0xFF AND DUP2 MSTORE PUSH1 0x20 ADD PUSH1 0x3 PUSH1 0xFF AND DUP2 MSTORE POP PUSH1 0x1 SWAP1 PUSH1 0x3 PUSH2 0x91 SWAP3 SWAP2 SWAP1 PUSH2 0xF6 JUMP JUMPDEST POP CALLVALUE DUP1 ISZERO PUSH2 0x9E JUMPI PUSH1 0x0 DUP1 REVERT JUMPDEST POP PUSH2 0x158 JUMP JUMPDEST DUP3 DUP1 SLOAD DUP3 DUP3 SSTORE SWAP1 PUSH1 0x0 MSTORE PUSH1 0x20 PUSH1 0x0 KECCAK256 SWAP1 DUP2 ADD SWAP3 DUP3 ISZERO PUSH2 0xE5 JUMPI SWAP2 PUSH1 0x20 MUL DUP3 ADD JUMPDEST DUP3 DUP2 GT ISZERO PUSH2 0xE4 JUMPI DUP3 MLOAD DUP3 SWAP1 PUSH1 0xFF AND SWAP1 SSTORE SWAP2 PUSH1 0x20 ADD SWAP2 SWAP1 PUSH1 0x1 ADD SWAP1 PUSH2 0xC4 JUMP JUMPDEST JUMPDEST POP SWAP1 POP PUSH2 0xF2 SWAP2 SWAP1 PUSH2 0x13B JUMP JUMPDEST POP SWAP1 JUMP JUMPDEST DUP3 PUSH1 0x3 DUP2 ADD SWAP3 DUP3 ISZERO PUSH2 0x12A JUMPI SWAP2 PUSH1 0x20 MUL DUP3 ADD JUMPDEST DUP3 DUP2 GT ISZERO PUSH2 0x129 JUMPI DUP3 MLOAD DUP3 SWAP1 PUSH1 0xFF AND SWAP1 SSTORE SWAP2 PUSH1 0x20 ADD SWAP2 SWAP1 PUSH1 0x1 ADD SWAP1 PUSH2 0x109 JUMP JUMPDEST JUMPDEST POP SWAP1 POP PUSH2 0x137 SWAP2 SWAP1 PUSH2 0x13B JUMP JUMPDEST POP SWAP1 JUMP JUMPDEST JUMPDEST DUP1 DUP3 GT ISZERO PUSH2 0x154 JUMPI PUSH1 0x0 DUP2 PUSH1 0x0 SWAP1 SSTORE POP PUSH1 0x1 ADD PUSH2 0x13C JUMP JUMPDEST POP SWAP1 JUMP JUMPDEST PUSH2 0x210 DUP1 PUSH2 0x167 PUSH1 0x0 CODECOPY PUSH1 0x0 RETURN INVALID PUSH1 0x80 PUSH1 0x40 MSTORE CALLVALUE DUP1 ISZERO PUSH2 0x10 JUMPI PUSH1 0x0 DUP1 REVERT JUMPDEST POP PUSH1 0x4 CALLDATASIZE LT PUSH2 0x41 JUMPI PUSH1 0x0 CALLDATALOAD PUSH1 0xE0 SHR DUP1 PUSH4 0x71E5EE5F EQ PUSH2 0x46 JUMPI DUP1 PUSH4 0xB1A86309 EQ PUSH2 0x76 JUMPI DUP1 PUSH4 0xEDF0099B EQ PUSH2 0x92 JUMPI JUMPDEST PUSH1 0x0 DUP1 REVERT JUMPDEST PUSH2 0x60 PUSH1 0x4 DUP1 CALLDATASIZE SUB DUP2 ADD SWAP1 PUSH2 0x5B SWAP2 SWAP1 PUSH2 0x12E JUMP JUMPDEST PUSH2 0xC2 JUMP JUMPDEST PUSH1 0x40 MLOAD PUSH2 0x6D SWAP2 SWAP1 PUSH2 0x16A JUMP JUMPDEST PUSH1 0x40 MLOAD DUP1 SWAP2 SUB SWAP1 RETURN JUMPDEST PUSH2 0x90 PUSH1 0x4 DUP1 CALLDATASIZE SUB DUP2 ADD SWAP1 PUSH2 0x8B SWAP2 SWAP1 PUSH2 0x12E JUMP JUMPDEST PUSH2 0xE6 JUMP JUMPDEST STOP JUMPDEST PUSH2 0xAC PUSH1 0x4 DUP1 CALLDATASIZE SUB DUP2 ADD SWAP1 PUSH2 0xA7 SWAP2 SWAP1 PUSH2 0x12E JUMP JUMPDEST PUSH2 0xFE JUMP JUMPDEST PUSH1 0x40 MLOAD PUSH2 0xB9 SWAP2 SWAP1 PUSH2 0x16A JUMP JUMPDEST PUSH1 0x40 MLOAD DUP1 SWAP2 SUB SWAP1 RETURN JUMPDEST PUSH1 0x0 DUP2 DUP2 SLOAD DUP2 LT PUSH2 0xD2 JUMPI PUSH1 0x0 DUP1 REVERT JUMPDEST SWAP1 PUSH1 0x0 MSTORE PUSH1 0x20 PUSH1 0x0 KECCAK256 ADD PUSH1 0x0 SWAP2 POP SWAP1 POP SLOAD DUP2 JUMP JUMPDEST PUSH1 0x0 DUP1 SLOAD SWAP1 POP DUP2 LT PUSH2 0xFB JUMPI PUSH2 0xFA PUSH2 0x18F JUMP JUMPDEST JUMPDEST POP JUMP JUMPDEST PUSH1 0x1 DUP2 PUSH1 0x3 DUP2 LT PUSH2 0x10E JUMPI PUSH1 0x0 DUP1 REVERT JUMPDEST ADD PUSH1 0x0 SWAP2 POP SWAP1 POP SLOAD DUP2 JUMP JUMPDEST PUSH1 0x0 DUP2 CALLDATALOAD SWAP1 POP PUSH2 0x128 DUP2 PUSH2 0x1C3 JUMP JUMPDEST SWAP3 SWAP2 POP POP JUMP JUMPDEST PUSH1 0x0 PUSH1 0x20 DUP3 DUP5 SUB SLT ISZERO PUSH2 0x144 JUMPI PUSH2 0x143 PUSH2 0x1BE JUMP JUMPDEST JUMPDEST PUSH1 0x0 PUSH2 0x152 DUP5 DUP3 DUP6 ADD PUSH2 0x119 JUMP JUMPDEST SWAP2 POP POP SWAP3 SWAP2 POP POP JUMP JUMPDEST PUSH2 0x164 DUP2 PUSH2 0x185 JUMP JUMPDEST DUP3 MSTORE POP POP JUMP JUMPDEST PUSH1 0x0 PUSH1 0x20 DUP3 ADD SWAP1 POP PUSH2 0x17F PUSH1 0x0 DUP4 ADD DUP5 PUSH2 0x15B JUMP JUMPDEST SWAP3 SWAP2 POP POP JUMP JUMPDEST PUSH1 0x0 DUP2 SWAP1 POP SWAP2 SWAP1 POP JUMP JUMPDEST PUSH32 0x4E487B7100000000000000000000000000000000000000000000000000000000 PUSH1 0x0 MSTORE PUSH1 0x1 PUSH1 0x4 MSTORE PUSH1 0x24 PUSH1 0x0 REVERT JUMPDEST PUSH1 0x0 DUP1 REVERT JUMPDEST PUSH2 0x1CC DUP2 PUSH2 0x185 JUMP JUMPDEST DUP2 EQ PUSH2 0x1D7 JUMPI PUSH1 0x0 DUP1 REVERT JUMPDEST POP JUMP INVALID LOG2 PUSH5 0x6970667358 0x22 SLT KECCAK256 DUP15 PUSH16 0xE5548F295C56E9E794B36B71ECE8F0EB 0x5E JUMPI GAS 0xB4 PUSH5 0xEA6F6BC2BB EXP 0xD2 0xB5 DUP7 PUSH5 0x736F6C6343 STOP ADDMOD SMOD STOP CALLER "
				},
				"gasEstimates": {
					"creation": {
						"codeDepositCost": "105600",
						"executionCost": "infinite",
						"totalCost": "infinite"
					},
					"external": {
						"arr(uint256)": "infinite",
						"arr2(uint256)": "infinite",
						"orderRemove(uint256)": "2564"
					}
				},
				"methodIdentifiers": {
					"arr(uint256)": "71e5ee5f",
					"arr2(uint256)": "edf0099b",
					"orderRemove(uint256)": "b1a86309"
				}
			},
			"storageLayout": {
				"storage": [
					{
						"astId": 11,
						"contract": "Documents/dev/Lime/contracts/Arrays.sol:Arrays",
						"label": "arr",
						"offset": 0,
						"slot": "0",
						"type": "t_array(t_uint256)dyn_storage"
					},
					{
						"astId": 19,
						"contract": "Documents/dev/Lime/contracts/Arrays.sol:Arrays",
						"label": "arr2",
						"offset": 0,
						"slot": "1",
						"type": "t_array(t_uint256)3_storage"
					}
				],
				"types": {
					"t_array(t_uint256)3_storage": {
						"base": "t_uint256",
						"encoding": "inplace",
						"label": "uint256[3]",
						"numberOfBytes": "96"
					},
					"t_array(t_uint256)dyn_storage": {
						"base": "t_uint256",
						"encoding": "dynamic_array",
						"label": "uint256[]",
						"numberOfBytes": "32"
					},
					"t_uint256": {
						"encoding": "inplace",
						"label": "uint256",
						"numberOfBytes": "32"
					}
				}
			},
			"userdoc": {
				"kind": "user",
				"methods": {},
				"version": 1
			}
		}
	}
}