{
	"MultiSigWallet.sol": {
		"MultiSigWallet": {
			"abi": [
				{
					"inputs": [
						{
							"internalType": "address[]",
							"name": "_owners",
							"type": "address[]"
						},
						{
							"internalType": "int256",
							"name": "_required",
							"type": "int256"
						}
					],
					"stateMutability": "nonpayable",
					"type": "constructor"
				},
				{
					"inputs": [
						{
							"internalType": "uint256",
							"name": "txId",
							"type": "uint256"
						}
					],
					"name": "approve",
					"outputs": [],
					"stateMutability": "nonpayable",
					"type": "function"
				},
				{
					"inputs": [
						{
							"internalType": "uint256",
							"name": "txId",
							"type": "uint256"
						}
					],
					"name": "execute",
					"outputs": [
						{
							"internalType": "bool",
							"name": "",
							"type": "bool"
						}
					],
					"stateMutability": "nonpayable",
					"type": "function"
				},
				{
					"inputs": [
						{
							"internalType": "uint256",
							"name": "txId",
							"type": "uint256"
						}
					],
					"name": "getApprovedCount",
					"outputs": [
						{
							"internalType": "uint256",
							"name": "count",
							"type": "uint256"
						}
					],
					"stateMutability": "view",
					"type": "function"
				},
				{
					"inputs": [
						{
							"internalType": "address",
							"name": "_destination",
							"type": "address"
						},
						{
							"internalType": "uint256",
							"name": "_amount",
							"type": "uint256"
						},
						{
							"internalType": "bytes",
							"name": "_data",
							"type": "bytes"
						}
					],
					"name": "submit",
					"outputs": [],
					"stateMutability": "nonpayable",
					"type": "function"
				},
				{
					"stateMutability": "payable",
					"type": "receive"
				}
			],
			"devdoc": {
				"kind": "dev",
				"methods": {},
				"version": 1
			},
			"evm": {
				"assembly": "    /* \"MultiSigWallet.sol\":56:2031  contract MultiSigWallet{... */\n  mstore(0x40, 0x80)\n    /* \"MultiSigWallet.sol\":375:758  constructor(address[] memory _owners, int _required){... */\n  callvalue\n  dup1\n  iszero\n  tag_1\n  jumpi\n  0x00\n  dup1\n  revert\ntag_1:\n  pop\n  mload(0x40)\n  sub(codesize, bytecodeSize)\n  dup1\n  bytecodeSize\n  dup4\n  codecopy\n  dup2\n  dup2\n  add\n  0x40\n  mstore\n  dup2\n  add\n  swap1\n  tag_2\n  swap2\n  swap1\n  tag_3\n  jump\t// in\ntag_2:\n    /* \"MultiSigWallet.sol\":460:461  0 */\n  0x00\n    /* \"MultiSigWallet.sol\":445:452  _owners */\n  dup3\n    /* \"MultiSigWallet.sol\":445:459  _owners.length */\n  mload\n    /* \"MultiSigWallet.sol\":445:461  _owners.length>0 */\n  gt\n    /* \"MultiSigWallet.sol\":437:474  require(_owners.length>0,\"no owners\") */\n  tag_6\n  jumpi\n  mload(0x40)\n  0x08c379a000000000000000000000000000000000000000000000000000000000\n  dup2\n  mstore\n  0x04\n  add\n  tag_7\n  swap1\n  tag_8\n  jump\t// in\ntag_7:\n  mload(0x40)\n  dup1\n  swap2\n  sub\n  swap1\n  revert\ntag_6:\n    /* \"MultiSigWallet.sol\":488:494  uint i */\n  0x00\n    /* \"MultiSigWallet.sol\":484:752  for(uint i=0;i<_owners.length;i++){... */\ntag_9:\n    /* \"MultiSigWallet.sol\":499:506  _owners */\n  dup3\n    /* \"MultiSigWallet.sol\":499:513  _owners.length */\n  mload\n    /* \"MultiSigWallet.sol\":497:498  i */\n  dup2\n    /* \"MultiSigWallet.sol\":497:513  i<_owners.length */\n  lt\n    /* \"MultiSigWallet.sol\":484:752  for(uint i=0;i<_owners.length;i++){... */\n  iszero\n  tag_10\n  jumpi\n    /* \"MultiSigWallet.sol\":532:545  address owner */\n  0x00\n    /* \"MultiSigWallet.sol\":548:555  _owners */\n  dup4\n    /* \"MultiSigWallet.sol\":556:557  i */\n  dup3\n    /* \"MultiSigWallet.sol\":548:558  _owners[i] */\n  dup2\n  mload\n  dup2\n  lt\n  tag_12\n  jumpi\n  tag_13\n  tag_14\n  jump\t// in\ntag_13:\ntag_12:\n  0x20\n  mul\n  0x20\n  add\n  add\n  mload\n    /* \"MultiSigWallet.sol\":532:558  address owner = _owners[i] */\n  swap1\n  pop\n    /* \"MultiSigWallet.sol\":600:601  0 */\n  0x00\n    /* \"MultiSigWallet.sol\":580:602  _owners[i]!=address(0) */\n  0xffffffffffffffffffffffffffffffffffffffff\n  and\n    /* \"MultiSigWallet.sol\":580:587  _owners */\n  dup5\n    /* \"MultiSigWallet.sol\":588:589  i */\n  dup4\n    /* \"MultiSigWallet.sol\":580:590  _owners[i] */\n  dup2\n  mload\n  dup2\n  lt\n  tag_15\n  jumpi\n  tag_16\n  tag_14\n  jump\t// in\ntag_16:\ntag_15:\n  0x20\n  mul\n  0x20\n  add\n  add\n  mload\n    /* \"MultiSigWallet.sol\":580:602  _owners[i]!=address(0) */\n  0xffffffffffffffffffffffffffffffffffffffff\n  and\n  eq\n  iszero\n    /* \"MultiSigWallet.sol\":572:621  require(_owners[i]!=address(0),\"invalid address\") */\n  tag_17\n  jumpi\n  mload(0x40)\n  0x08c379a000000000000000000000000000000000000000000000000000000000\n  dup2\n  mstore\n  0x04\n  add\n  tag_18\n  swap1\n  tag_19\n  jump\t// in\ntag_18:\n  mload(0x40)\n  dup1\n  swap2\n  sub\n  swap1\n  revert\ntag_17:\n    /* \"MultiSigWallet.sol\":644:651  isOwner */\n  0x00\n    /* \"MultiSigWallet.sol\":644:658  isOwner[owner] */\n  dup1\n    /* \"MultiSigWallet.sol\":652:657  owner */\n  dup3\n    /* \"MultiSigWallet.sol\":644:658  isOwner[owner] */\n  0xffffffffffffffffffffffffffffffffffffffff\n  and\n  0xffffffffffffffffffffffffffffffffffffffff\n  and\n  dup2\n  mstore\n  0x20\n  add\n  swap1\n  dup2\n  mstore\n  0x20\n  add\n  0x00\n  keccak256\n  0x00\n  swap1\n  sload\n  swap1\n  0x0100\n  exp\n  swap1\n  div\n  0xff\n  and\n    /* \"MultiSigWallet.sol\":643:658  !isOwner[owner] */\n  iszero\n    /* \"MultiSigWallet.sol\":635:675  require(!isOwner[owner],\"already owner\") */\n  tag_20\n  jumpi\n  mload(0x40)\n  0x08c379a000000000000000000000000000000000000000000000000000000000\n  dup2\n  mstore\n  0x04\n  add\n  tag_21\n  swap1\n  tag_22\n  jump\t// in\ntag_21:\n  mload(0x40)\n  dup1\n  swap2\n  sub\n  swap1\n  revert\ntag_20:\n    /* \"MultiSigWallet.sol\":704:708  true */\n  0x01\n    /* \"MultiSigWallet.sol\":689:696  isOwner */\n  0x00\n    /* \"MultiSigWallet.sol\":689:703  isOwner[owner] */\n  dup1\n    /* \"MultiSigWallet.sol\":697:702  owner */\n  dup4\n    /* \"MultiSigWallet.sol\":689:703  isOwner[owner] */\n  0xffffffffffffffffffffffffffffffffffffffff\n  and\n  0xffffffffffffffffffffffffffffffffffffffff\n  and\n  dup2\n  mstore\n  0x20\n  add\n  swap1\n  dup2\n  mstore\n  0x20\n  add\n  0x00\n  keccak256\n  0x00\n    /* \"MultiSigWallet.sol\":689:708  isOwner[owner]=true */\n  0x0100\n  exp\n  dup2\n  sload\n  dup2\n  0xff\n  mul\n  not\n  and\n  swap1\n  dup4\n  iszero\n  iszero\n  mul\n  or\n  swap1\n  sstore\n  pop\n    /* \"MultiSigWallet.sol\":722:728  owners */\n  0x01\n    /* \"MultiSigWallet.sol\":734:739  owner */\n  dup2\n    /* \"MultiSigWallet.sol\":722:740  owners.push(owner) */\n  swap1\n  dup1\n  0x01\n  dup2\n  sload\n  add\n  dup1\n  dup3\n  sstore\n  dup1\n  swap2\n  pop\n  pop\n  0x01\n  swap1\n  sub\n  swap1\n  0x00\n  mstore\n  keccak256(0x00, 0x20)\n  add\n  0x00\n  swap1\n  swap2\n  swap1\n  swap2\n  swap1\n  swap2\n  0x0100\n  exp\n  dup2\n  sload\n  dup2\n  0xffffffffffffffffffffffffffffffffffffffff\n  mul\n  not\n  and\n  swap1\n  dup4\n  0xffffffffffffffffffffffffffffffffffffffff\n  and\n  mul\n  or\n  swap1\n  sstore\n  pop\n    /* \"MultiSigWallet.sol\":518:752  {... */\n  pop\n    /* \"MultiSigWallet.sol\":514:517  i++ */\n  dup1\n  dup1\n  tag_24\n  swap1\n  tag_25\n  jump\t// in\ntag_24:\n  swap2\n  pop\n  pop\n    /* \"MultiSigWallet.sol\":484:752  for(uint i=0;i<_owners.length;i++){... */\n  jump(tag_9)\ntag_10:\n  pop\n    /* \"MultiSigWallet.sol\":375:758  constructor(address[] memory _owners, int _required){... */\n  pop\n  pop\n    /* \"MultiSigWallet.sol\":56:2031  contract MultiSigWallet{... */\n  jump(tag_26)\n    /* \"#utility.yul\":24:768   */\ntag_28:\n    /* \"#utility.yul\":131:136   */\n  0x00\n    /* \"#utility.yul\":156:237   */\n  tag_30\n    /* \"#utility.yul\":172:236   */\n  tag_31\n    /* \"#utility.yul\":229:235   */\n  dup5\n    /* \"#utility.yul\":172:236   */\n  tag_32\n  jump\t// in\ntag_31:\n    /* \"#utility.yul\":156:237   */\n  tag_33\n  jump\t// in\ntag_30:\n    /* \"#utility.yul\":147:237   */\n  swap1\n  pop\n    /* \"#utility.yul\":257:262   */\n  dup1\n    /* \"#utility.yul\":286:292   */\n  dup4\n    /* \"#utility.yul\":279:284   */\n  dup3\n    /* \"#utility.yul\":272:293   */\n  mstore\n    /* \"#utility.yul\":320:324   */\n  0x20\n    /* \"#utility.yul\":313:318   */\n  dup3\n    /* \"#utility.yul\":309:325   */\n  add\n    /* \"#utility.yul\":302:325   */\n  swap1\n  pop\n    /* \"#utility.yul\":346:352   */\n  dup3\n    /* \"#utility.yul\":396:399   */\n  dup6\n    /* \"#utility.yul\":388:392   */\n  0x20\n    /* \"#utility.yul\":380:386   */\n  dup7\n    /* \"#utility.yul\":376:393   */\n  mul\n    /* \"#utility.yul\":371:374   */\n  dup3\n    /* \"#utility.yul\":367:394   */\n  add\n    /* \"#utility.yul\":364:400   */\n  gt\n    /* \"#utility.yul\":361:504   */\n  iszero\n  tag_34\n  jumpi\n    /* \"#utility.yul\":415:494   */\n  tag_35\n  tag_36\n  jump\t// in\ntag_35:\n    /* \"#utility.yul\":361:504   */\ntag_34:\n    /* \"#utility.yul\":528:529   */\n  0x00\n    /* \"#utility.yul\":513:762   */\ntag_37:\n    /* \"#utility.yul\":538:544   */\n  dup6\n    /* \"#utility.yul\":535:536   */\n  dup2\n    /* \"#utility.yul\":532:545   */\n  lt\n    /* \"#utility.yul\":513:762   */\n  iszero\n  tag_39\n  jumpi\n    /* \"#utility.yul\":606:609   */\n  dup2\n    /* \"#utility.yul\":635:683   */\n  tag_40\n    /* \"#utility.yul\":679:682   */\n  dup9\n    /* \"#utility.yul\":667:677   */\n  dup3\n    /* \"#utility.yul\":635:683   */\n  tag_41\n  jump\t// in\ntag_40:\n    /* \"#utility.yul\":630:633   */\n  dup5\n    /* \"#utility.yul\":623:684   */\n  mstore\n    /* \"#utility.yul\":713:717   */\n  0x20\n    /* \"#utility.yul\":708:711   */\n  dup5\n    /* \"#utility.yul\":704:718   */\n  add\n    /* \"#utility.yul\":697:718   */\n  swap4\n  pop\n    /* \"#utility.yul\":747:751   */\n  0x20\n    /* \"#utility.yul\":742:745   */\n  dup4\n    /* \"#utility.yul\":738:752   */\n  add\n    /* \"#utility.yul\":731:752   */\n  swap3\n  pop\n    /* \"#utility.yul\":573:762   */\n  pop\n    /* \"#utility.yul\":560:561   */\n  0x01\n    /* \"#utility.yul\":557:558   */\n  dup2\n    /* \"#utility.yul\":553:562   */\n  add\n    /* \"#utility.yul\":548:562   */\n  swap1\n  pop\n    /* \"#utility.yul\":513:762   */\n  jump(tag_37)\ntag_39:\n    /* \"#utility.yul\":517:531   */\n  pop\n    /* \"#utility.yul\":137:768   */\n  pop\n  pop\n    /* \"#utility.yul\":24:768   */\n  swap4\n  swap3\n  pop\n  pop\n  pop\n  jump\t// out\n    /* \"#utility.yul\":774:917   */\ntag_41:\n    /* \"#utility.yul\":831:836   */\n  0x00\n    /* \"#utility.yul\":862:868   */\n  dup2\n    /* \"#utility.yul\":856:869   */\n  mload\n    /* \"#utility.yul\":847:869   */\n  swap1\n  pop\n    /* \"#utility.yul\":878:911   */\n  tag_43\n    /* \"#utility.yul\":905:910   */\n  dup2\n    /* \"#utility.yul\":878:911   */\n  tag_44\n  jump\t// in\ntag_43:\n    /* \"#utility.yul\":774:917   */\n  swap3\n  swap2\n  pop\n  pop\n  jump\t// out\n    /* \"#utility.yul\":940:1325   */\ntag_45:\n    /* \"#utility.yul\":1022:1027   */\n  0x00\n    /* \"#utility.yul\":1071:1074   */\n  dup3\n    /* \"#utility.yul\":1064:1068   */\n  0x1f\n    /* \"#utility.yul\":1056:1062   */\n  dup4\n    /* \"#utility.yul\":1052:1069   */\n  add\n    /* \"#utility.yul\":1048:1075   */\n  slt\n    /* \"#utility.yul\":1038:1160   */\n  tag_47\n  jumpi\n    /* \"#utility.yul\":1079:1158   */\n  tag_48\n  tag_49\n  jump\t// in\ntag_48:\n    /* \"#utility.yul\":1038:1160   */\ntag_47:\n    /* \"#utility.yul\":1189:1195   */\n  dup2\n    /* \"#utility.yul\":1183:1196   */\n  mload\n    /* \"#utility.yul\":1214:1319   */\n  tag_50\n    /* \"#utility.yul\":1315:1318   */\n  dup5\n    /* \"#utility.yul\":1307:1313   */\n  dup3\n    /* \"#utility.yul\":1300:1304   */\n  0x20\n    /* \"#utility.yul\":1292:1298   */\n  dup7\n    /* \"#utility.yul\":1288:1305   */\n  add\n    /* \"#utility.yul\":1214:1319   */\n  tag_28\n  jump\t// in\ntag_50:\n    /* \"#utility.yul\":1205:1319   */\n  swap2\n  pop\n    /* \"#utility.yul\":1028:1325   */\n  pop\n    /* \"#utility.yul\":940:1325   */\n  swap3\n  swap2\n  pop\n  pop\n  jump\t// out\n    /* \"#utility.yul\":1331:1472   */\ntag_51:\n    /* \"#utility.yul\":1387:1392   */\n  0x00\n    /* \"#utility.yul\":1418:1424   */\n  dup2\n    /* \"#utility.yul\":1412:1425   */\n  mload\n    /* \"#utility.yul\":1403:1425   */\n  swap1\n  pop\n    /* \"#utility.yul\":1434:1466   */\n  tag_53\n    /* \"#utility.yul\":1460:1465   */\n  dup2\n    /* \"#utility.yul\":1434:1466   */\n  tag_54\n  jump\t// in\ntag_53:\n    /* \"#utility.yul\":1331:1472   */\n  swap3\n  swap2\n  pop\n  pop\n  jump\t// out\n    /* \"#utility.yul\":1478:2186   */\ntag_3:\n    /* \"#utility.yul\":1581:1587   */\n  0x00\n    /* \"#utility.yul\":1589:1595   */\n  dup1\n    /* \"#utility.yul\":1638:1640   */\n  0x40\n    /* \"#utility.yul\":1626:1635   */\n  dup4\n    /* \"#utility.yul\":1617:1624   */\n  dup6\n    /* \"#utility.yul\":1613:1636   */\n  sub\n    /* \"#utility.yul\":1609:1641   */\n  slt\n    /* \"#utility.yul\":1606:1725   */\n  iszero\n  tag_56\n  jumpi\n    /* \"#utility.yul\":1644:1723   */\n  tag_57\n  tag_58\n  jump\t// in\ntag_57:\n    /* \"#utility.yul\":1606:1725   */\ntag_56:\n    /* \"#utility.yul\":1785:1786   */\n  0x00\n    /* \"#utility.yul\":1774:1783   */\n  dup4\n    /* \"#utility.yul\":1770:1787   */\n  add\n    /* \"#utility.yul\":1764:1788   */\n  mload\n    /* \"#utility.yul\":1815:1833   */\n  0xffffffffffffffff\n    /* \"#utility.yul\":1807:1813   */\n  dup2\n    /* \"#utility.yul\":1804:1834   */\n  gt\n    /* \"#utility.yul\":1801:1918   */\n  iszero\n  tag_59\n  jumpi\n    /* \"#utility.yul\":1837:1916   */\n  tag_60\n  tag_61\n  jump\t// in\ntag_60:\n    /* \"#utility.yul\":1801:1918   */\ntag_59:\n    /* \"#utility.yul\":1942:2031   */\n  tag_62\n    /* \"#utility.yul\":2023:2030   */\n  dup6\n    /* \"#utility.yul\":2014:2020   */\n  dup3\n    /* \"#utility.yul\":2003:2012   */\n  dup7\n    /* \"#utility.yul\":1999:2021   */\n  add\n    /* \"#utility.yul\":1942:2031   */\n  tag_45\n  jump\t// in\ntag_62:\n    /* \"#utility.yul\":1932:2031   */\n  swap3\n  pop\n    /* \"#utility.yul\":1735:2041   */\n  pop\n    /* \"#utility.yul\":2080:2082   */\n  0x20\n    /* \"#utility.yul\":2106:2169   */\n  tag_63\n    /* \"#utility.yul\":2161:2168   */\n  dup6\n    /* \"#utility.yul\":2152:2158   */\n  dup3\n    /* \"#utility.yul\":2141:2150   */\n  dup7\n    /* \"#utility.yul\":2137:2159   */\n  add\n    /* \"#utility.yul\":2106:2169   */\n  tag_51\n  jump\t// in\ntag_63:\n    /* \"#utility.yul\":2096:2169   */\n  swap2\n  pop\n    /* \"#utility.yul\":2051:2179   */\n  pop\n    /* \"#utility.yul\":1478:2186   */\n  swap3\n  pop\n  swap3\n  swap1\n  pop\n  jump\t// out\n    /* \"#utility.yul\":2192:2558   */\ntag_64:\n    /* \"#utility.yul\":2334:2337   */\n  0x00\n    /* \"#utility.yul\":2355:2422   */\n  tag_66\n    /* \"#utility.yul\":2419:2421   */\n  0x0d\n    /* \"#utility.yul\":2414:2417   */\n  dup4\n    /* \"#utility.yul\":2355:2422   */\n  tag_67\n  jump\t// in\ntag_66:\n    /* \"#utility.yul\":2348:2422   */\n  swap2\n  pop\n    /* \"#utility.yul\":2431:2524   */\n  tag_68\n    /* \"#utility.yul\":2520:2523   */\n  dup3\n    /* \"#utility.yul\":2431:2524   */\n  tag_69\n  jump\t// in\ntag_68:\n    /* \"#utility.yul\":2549:2551   */\n  0x20\n    /* \"#utility.yul\":2544:2547   */\n  dup3\n    /* \"#utility.yul\":2540:2552   */\n  add\n    /* \"#utility.yul\":2533:2552   */\n  swap1\n  pop\n    /* \"#utility.yul\":2192:2558   */\n  swap2\n  swap1\n  pop\n  jump\t// out\n    /* \"#utility.yul\":2564:2930   */\ntag_70:\n    /* \"#utility.yul\":2706:2709   */\n  0x00\n    /* \"#utility.yul\":2727:2794   */\n  tag_72\n    /* \"#utility.yul\":2791:2793   */\n  0x0f\n    /* \"#utility.yul\":2786:2789   */\n  dup4\n    /* \"#utility.yul\":2727:2794   */\n  tag_67\n  jump\t// in\ntag_72:\n    /* \"#utility.yul\":2720:2794   */\n  swap2\n  pop\n    /* \"#utility.yul\":2803:2896   */\n  tag_73\n    /* \"#utility.yul\":2892:2895   */\n  dup3\n    /* \"#utility.yul\":2803:2896   */\n  tag_74\n  jump\t// in\ntag_73:\n    /* \"#utility.yul\":2921:2923   */\n  0x20\n    /* \"#utility.yul\":2916:2919   */\n  dup3\n    /* \"#utility.yul\":2912:2924   */\n  add\n    /* \"#utility.yul\":2905:2924   */\n  swap1\n  pop\n    /* \"#utility.yul\":2564:2930   */\n  swap2\n  swap1\n  pop\n  jump\t// out\n    /* \"#utility.yul\":2936:3301   */\ntag_75:\n    /* \"#utility.yul\":3078:3081   */\n  0x00\n    /* \"#utility.yul\":3099:3165   */\n  tag_77\n    /* \"#utility.yul\":3163:3164   */\n  0x09\n    /* \"#utility.yul\":3158:3161   */\n  dup4\n    /* \"#utility.yul\":3099:3165   */\n  tag_67\n  jump\t// in\ntag_77:\n    /* \"#utility.yul\":3092:3165   */\n  swap2\n  pop\n    /* \"#utility.yul\":3174:3267   */\n  tag_78\n    /* \"#utility.yul\":3263:3266   */\n  dup3\n    /* \"#utility.yul\":3174:3267   */\n  tag_79\n  jump\t// in\ntag_78:\n    /* \"#utility.yul\":3292:3294   */\n  0x20\n    /* \"#utility.yul\":3287:3290   */\n  dup3\n    /* \"#utility.yul\":3283:3295   */\n  add\n    /* \"#utility.yul\":3276:3295   */\n  swap1\n  pop\n    /* \"#utility.yul\":2936:3301   */\n  swap2\n  swap1\n  pop\n  jump\t// out\n    /* \"#utility.yul\":3307:3726   */\ntag_22:\n    /* \"#utility.yul\":3473:3477   */\n  0x00\n    /* \"#utility.yul\":3511:3513   */\n  0x20\n    /* \"#utility.yul\":3500:3509   */\n  dup3\n    /* \"#utility.yul\":3496:3514   */\n  add\n    /* \"#utility.yul\":3488:3514   */\n  swap1\n  pop\n    /* \"#utility.yul\":3560:3569   */\n  dup2\n    /* \"#utility.yul\":3554:3558   */\n  dup2\n    /* \"#utility.yul\":3550:3570   */\n  sub\n    /* \"#utility.yul\":3546:3547   */\n  0x00\n    /* \"#utility.yul\":3535:3544   */\n  dup4\n    /* \"#utility.yul\":3531:3548   */\n  add\n    /* \"#utility.yul\":3524:3571   */\n  mstore\n    /* \"#utility.yul\":3588:3719   */\n  tag_81\n    /* \"#utility.yul\":3714:3718   */\n  dup2\n    /* \"#utility.yul\":3588:3719   */\n  tag_64\n  jump\t// in\ntag_81:\n    /* \"#utility.yul\":3580:3719   */\n  swap1\n  pop\n    /* \"#utility.yul\":3307:3726   */\n  swap2\n  swap1\n  pop\n  jump\t// out\n    /* \"#utility.yul\":3732:4151   */\ntag_19:\n    /* \"#utility.yul\":3898:3902   */\n  0x00\n    /* \"#utility.yul\":3936:3938   */\n  0x20\n    /* \"#utility.yul\":3925:3934   */\n  dup3\n    /* \"#utility.yul\":3921:3939   */\n  add\n    /* \"#utility.yul\":3913:3939   */\n  swap1\n  pop\n    /* \"#utility.yul\":3985:3994   */\n  dup2\n    /* \"#utility.yul\":3979:3983   */\n  dup2\n    /* \"#utility.yul\":3975:3995   */\n  sub\n    /* \"#utility.yul\":3971:3972   */\n  0x00\n    /* \"#utility.yul\":3960:3969   */\n  dup4\n    /* \"#utility.yul\":3956:3973   */\n  add\n    /* \"#utility.yul\":3949:3996   */\n  mstore\n    /* \"#utility.yul\":4013:4144   */\n  tag_83\n    /* \"#utility.yul\":4139:4143   */\n  dup2\n    /* \"#utility.yul\":4013:4144   */\n  tag_70\n  jump\t// in\ntag_83:\n    /* \"#utility.yul\":4005:4144   */\n  swap1\n  pop\n    /* \"#utility.yul\":3732:4151   */\n  swap2\n  swap1\n  pop\n  jump\t// out\n    /* \"#utility.yul\":4157:4576   */\ntag_8:\n    /* \"#utility.yul\":4323:4327   */\n  0x00\n    /* \"#utility.yul\":4361:4363   */\n  0x20\n    /* \"#utility.yul\":4350:4359   */\n  dup3\n    /* \"#utility.yul\":4346:4364   */\n  add\n    /* \"#utility.yul\":4338:4364   */\n  swap1\n  pop\n    /* \"#utility.yul\":4410:4419   */\n  dup2\n    /* \"#utility.yul\":4404:4408   */\n  dup2\n    /* \"#utility.yul\":4400:4420   */\n  sub\n    /* \"#utility.yul\":4396:4397   */\n  0x00\n    /* \"#utility.yul\":4385:4394   */\n  dup4\n    /* \"#utility.yul\":4381:4398   */\n  add\n    /* \"#utility.yul\":4374:4421   */\n  mstore\n    /* \"#utility.yul\":4438:4569   */\n  tag_85\n    /* \"#utility.yul\":4564:4568   */\n  dup2\n    /* \"#utility.yul\":4438:4569   */\n  tag_75\n  jump\t// in\ntag_85:\n    /* \"#utility.yul\":4430:4569   */\n  swap1\n  pop\n    /* \"#utility.yul\":4157:4576   */\n  swap2\n  swap1\n  pop\n  jump\t// out\n    /* \"#utility.yul\":4582:4711   */\ntag_33:\n    /* \"#utility.yul\":4616:4622   */\n  0x00\n    /* \"#utility.yul\":4643:4663   */\n  tag_87\n  tag_88\n  jump\t// in\ntag_87:\n    /* \"#utility.yul\":4633:4663   */\n  swap1\n  pop\n    /* \"#utility.yul\":4672:4705   */\n  tag_89\n    /* \"#utility.yul\":4700:4704   */\n  dup3\n    /* \"#utility.yul\":4692:4698   */\n  dup3\n    /* \"#utility.yul\":4672:4705   */\n  tag_90\n  jump\t// in\ntag_89:\n    /* \"#utility.yul\":4582:4711   */\n  swap2\n  swap1\n  pop\n  jump\t// out\n    /* \"#utility.yul\":4717:4792   */\ntag_88:\n    /* \"#utility.yul\":4750:4756   */\n  0x00\n    /* \"#utility.yul\":4783:4785   */\n  0x40\n    /* \"#utility.yul\":4777:4786   */\n  mload\n    /* \"#utility.yul\":4767:4786   */\n  swap1\n  pop\n    /* \"#utility.yul\":4717:4792   */\n  swap1\n  jump\t// out\n    /* \"#utility.yul\":4798:5109   */\ntag_32:\n    /* \"#utility.yul\":4875:4879   */\n  0x00\n    /* \"#utility.yul\":4965:4983   */\n  0xffffffffffffffff\n    /* \"#utility.yul\":4957:4963   */\n  dup3\n    /* \"#utility.yul\":4954:4984   */\n  gt\n    /* \"#utility.yul\":4951:5007   */\n  iszero\n  tag_93\n  jumpi\n    /* \"#utility.yul\":4987:5005   */\n  tag_94\n  tag_95\n  jump\t// in\ntag_94:\n    /* \"#utility.yul\":4951:5007   */\ntag_93:\n    /* \"#utility.yul\":5037:5041   */\n  0x20\n    /* \"#utility.yul\":5029:5035   */\n  dup3\n    /* \"#utility.yul\":5025:5042   */\n  mul\n    /* \"#utility.yul\":5017:5042   */\n  swap1\n  pop\n    /* \"#utility.yul\":5097:5101   */\n  0x20\n    /* \"#utility.yul\":5091:5095   */\n  dup2\n    /* \"#utility.yul\":5087:5102   */\n  add\n    /* \"#utility.yul\":5079:5102   */\n  swap1\n  pop\n    /* \"#utility.yul\":4798:5109   */\n  swap2\n  swap1\n  pop\n  jump\t// out\n    /* \"#utility.yul\":5115:5284   */\ntag_67:\n    /* \"#utility.yul\":5199:5210   */\n  0x00\n    /* \"#utility.yul\":5233:5239   */\n  dup3\n    /* \"#utility.yul\":5228:5231   */\n  dup3\n    /* \"#utility.yul\":5221:5240   */\n  mstore\n    /* \"#utility.yul\":5273:5277   */\n  0x20\n    /* \"#utility.yul\":5268:5271   */\n  dup3\n    /* \"#utility.yul\":5264:5278   */\n  add\n    /* \"#utility.yul\":5249:5278   */\n  swap1\n  pop\n    /* \"#utility.yul\":5115:5284   */\n  swap3\n  swap2\n  pop\n  pop\n  jump\t// out\n    /* \"#utility.yul\":5290:5386   */\ntag_97:\n    /* \"#utility.yul\":5327:5334   */\n  0x00\n    /* \"#utility.yul\":5356:5380   */\n  tag_99\n    /* \"#utility.yul\":5374:5379   */\n  dup3\n    /* \"#utility.yul\":5356:5380   */\n  tag_100\n  jump\t// in\ntag_99:\n    /* \"#utility.yul\":5345:5380   */\n  swap1\n  pop\n    /* \"#utility.yul\":5290:5386   */\n  swap2\n  swap1\n  pop\n  jump\t// out\n    /* \"#utility.yul\":5392:5468   */\ntag_101:\n    /* \"#utility.yul\":5428:5435   */\n  0x00\n    /* \"#utility.yul\":5457:5462   */\n  dup2\n    /* \"#utility.yul\":5446:5462   */\n  swap1\n  pop\n    /* \"#utility.yul\":5392:5468   */\n  swap2\n  swap1\n  pop\n  jump\t// out\n    /* \"#utility.yul\":5474:5600   */\ntag_100:\n    /* \"#utility.yul\":5511:5518   */\n  0x00\n    /* \"#utility.yul\":5551:5593   */\n  0xffffffffffffffffffffffffffffffffffffffff\n    /* \"#utility.yul\":5544:5549   */\n  dup3\n    /* \"#utility.yul\":5540:5594   */\n  and\n    /* \"#utility.yul\":5529:5594   */\n  swap1\n  pop\n    /* \"#utility.yul\":5474:5600   */\n  swap2\n  swap1\n  pop\n  jump\t// out\n    /* \"#utility.yul\":5606:5683   */\ntag_104:\n    /* \"#utility.yul\":5643:5650   */\n  0x00\n    /* \"#utility.yul\":5672:5677   */\n  dup2\n    /* \"#utility.yul\":5661:5677   */\n  swap1\n  pop\n    /* \"#utility.yul\":5606:5683   */\n  swap2\n  swap1\n  pop\n  jump\t// out\n    /* \"#utility.yul\":5689:5970   */\ntag_90:\n    /* \"#utility.yul\":5772:5799   */\n  tag_107\n    /* \"#utility.yul\":5794:5798   */\n  dup3\n    /* \"#utility.yul\":5772:5799   */\n  tag_108\n  jump\t// in\ntag_107:\n    /* \"#utility.yul\":5764:5770   */\n  dup2\n    /* \"#utility.yul\":5760:5800   */\n  add\n    /* \"#utility.yul\":5902:5908   */\n  dup2\n    /* \"#utility.yul\":5890:5900   */\n  dup2\n    /* \"#utility.yul\":5887:5909   */\n  lt\n    /* \"#utility.yul\":5866:5884   */\n  0xffffffffffffffff\n    /* \"#utility.yul\":5854:5864   */\n  dup3\n    /* \"#utility.yul\":5851:5885   */\n  gt\n    /* \"#utility.yul\":5848:5910   */\n  or\n    /* \"#utility.yul\":5845:5933   */\n  iszero\n  tag_109\n  jumpi\n    /* \"#utility.yul\":5913:5931   */\n  tag_110\n  tag_95\n  jump\t// in\ntag_110:\n    /* \"#utility.yul\":5845:5933   */\ntag_109:\n    /* \"#utility.yul\":5953:5963   */\n  dup1\n    /* \"#utility.yul\":5949:5951   */\n  0x40\n    /* \"#utility.yul\":5942:5964   */\n  mstore\n    /* \"#utility.yul\":5732:5970   */\n  pop\n    /* \"#utility.yul\":5689:5970   */\n  pop\n  pop\n  jump\t// out\n    /* \"#utility.yul\":5976:6209   */\ntag_25:\n    /* \"#utility.yul\":6015:6018   */\n  0x00\n    /* \"#utility.yul\":6038:6062   */\n  tag_112\n    /* \"#utility.yul\":6056:6061   */\n  dup3\n    /* \"#utility.yul\":6038:6062   */\n  tag_104\n  jump\t// in\ntag_112:\n    /* \"#utility.yul\":6029:6062   */\n  swap2\n  pop\n    /* \"#utility.yul\":6084:6150   */\n  0xffffffffffffffffffffffffffffffffffffffffffffffffffffffffffffffff\n    /* \"#utility.yul\":6077:6082   */\n  dup3\n    /* \"#utility.yul\":6074:6151   */\n  eq\n    /* \"#utility.yul\":6071:6174   */\n  iszero\n  tag_113\n  jumpi\n    /* \"#utility.yul\":6154:6172   */\n  tag_114\n  tag_115\n  jump\t// in\ntag_114:\n    /* \"#utility.yul\":6071:6174   */\ntag_113:\n    /* \"#utility.yul\":6201:6202   */\n  0x01\n    /* \"#utility.yul\":6194:6199   */\n  dup3\n    /* \"#utility.yul\":6190:6203   */\n  add\n    /* \"#utility.yul\":6183:6203   */\n  swap1\n  pop\n    /* \"#utility.yul\":5976:6209   */\n  swap2\n  swap1\n  pop\n  jump\t// out\n    /* \"#utility.yul\":6215:6395   */\ntag_115:\n    /* \"#utility.yul\":6263:6340   */\n  0x4e487b7100000000000000000000000000000000000000000000000000000000\n    /* \"#utility.yul\":6260:6261   */\n  0x00\n    /* \"#utility.yul\":6253:6341   */\n  mstore\n    /* \"#utility.yul\":6360:6364   */\n  0x11\n    /* \"#utility.yul\":6357:6358   */\n  0x04\n    /* \"#utility.yul\":6350:6365   */\n  mstore\n    /* \"#utility.yul\":6384:6388   */\n  0x24\n    /* \"#utility.yul\":6381:6382   */\n  0x00\n    /* \"#utility.yul\":6374:6389   */\n  revert\n    /* \"#utility.yul\":6401:6581   */\ntag_14:\n    /* \"#utility.yul\":6449:6526   */\n  0x4e487b7100000000000000000000000000000000000000000000000000000000\n    /* \"#utility.yul\":6446:6447   */\n  0x00\n    /* \"#utility.yul\":6439:6527   */\n  mstore\n    /* \"#utility.yul\":6546:6550   */\n  0x32\n    /* \"#utility.yul\":6543:6544   */\n  0x04\n    /* \"#utility.yul\":6536:6551   */\n  mstore\n    /* \"#utility.yul\":6570:6574   */\n  0x24\n    /* \"#utility.yul\":6567:6568   */\n  0x00\n    /* \"#utility.yul\":6560:6575   */\n  revert\n    /* \"#utility.yul\":6587:6767   */\ntag_95:\n    /* \"#utility.yul\":6635:6712   */\n  0x4e487b7100000000000000000000000000000000000000000000000000000000\n    /* \"#utility.yul\":6632:6633   */\n  0x00\n    /* \"#utility.yul\":6625:6713   */\n  mstore\n    /* \"#utility.yul\":6732:6736   */\n  0x41\n    /* \"#utility.yul\":6729:6730   */\n  0x04\n    /* \"#utility.yul\":6722:6737   */\n  mstore\n    /* \"#utility.yul\":6756:6760   */\n  0x24\n    /* \"#utility.yul\":6753:6754   */\n  0x00\n    /* \"#utility.yul\":6746:6761   */\n  revert\n    /* \"#utility.yul\":6773:6890   */\ntag_49:\n    /* \"#utility.yul\":6882:6883   */\n  0x00\n    /* \"#utility.yul\":6879:6880   */\n  dup1\n    /* \"#utility.yul\":6872:6884   */\n  revert\n    /* \"#utility.yul\":6896:7013   */\ntag_36:\n    /* \"#utility.yul\":7005:7006   */\n  0x00\n    /* \"#utility.yul\":7002:7003   */\n  dup1\n    /* \"#utility.yul\":6995:7007   */\n  revert\n    /* \"#utility.yul\":7019:7136   */\ntag_61:\n    /* \"#utility.yul\":7128:7129   */\n  0x00\n    /* \"#utility.yul\":7125:7126   */\n  dup1\n    /* \"#utility.yul\":7118:7130   */\n  revert\n    /* \"#utility.yul\":7142:7259   */\ntag_58:\n    /* \"#utility.yul\":7251:7252   */\n  0x00\n    /* \"#utility.yul\":7248:7249   */\n  dup1\n    /* \"#utility.yul\":7241:7253   */\n  revert\n    /* \"#utility.yul\":7265:7367   */\ntag_108:\n    /* \"#utility.yul\":7306:7312   */\n  0x00\n    /* \"#utility.yul\":7357:7359   */\n  0x1f\n    /* \"#utility.yul\":7353:7360   */\n  not\n    /* \"#utility.yul\":7348:7350   */\n  0x1f\n    /* \"#utility.yul\":7341:7346   */\n  dup4\n    /* \"#utility.yul\":7337:7351   */\n  add\n    /* \"#utility.yul\":7333:7361   */\n  and\n    /* \"#utility.yul\":7323:7361   */\n  swap1\n  pop\n    /* \"#utility.yul\":7265:7367   */\n  swap2\n  swap1\n  pop\n  jump\t// out\n    /* \"#utility.yul\":7373:7536   */\ntag_69:\n    /* \"#utility.yul\":7513:7528   */\n  0x616c7265616479206f776e657200000000000000000000000000000000000000\n    /* \"#utility.yul\":7509:7510   */\n  0x00\n    /* \"#utility.yul\":7501:7507   */\n  dup3\n    /* \"#utility.yul\":7497:7511   */\n  add\n    /* \"#utility.yul\":7490:7529   */\n  mstore\n    /* \"#utility.yul\":7373:7536   */\n  pop\n  jump\t// out\n    /* \"#utility.yul\":7542:7707   */\ntag_74:\n    /* \"#utility.yul\":7682:7699   */\n  0x696e76616c696420616464726573730000000000000000000000000000000000\n    /* \"#utility.yul\":7678:7679   */\n  0x00\n    /* \"#utility.yul\":7670:7676   */\n  dup3\n    /* \"#utility.yul\":7666:7680   */\n  add\n    /* \"#utility.yul\":7659:7700   */\n  mstore\n    /* \"#utility.yul\":7542:7707   */\n  pop\n  jump\t// out\n    /* \"#utility.yul\":7713:7872   */\ntag_79:\n    /* \"#utility.yul\":7853:7864   */\n  0x6e6f206f776e6572730000000000000000000000000000000000000000000000\n    /* \"#utility.yul\":7849:7850   */\n  0x00\n    /* \"#utility.yul\":7841:7847   */\n  dup3\n    /* \"#utility.yul\":7837:7851   */\n  add\n    /* \"#utility.yul\":7830:7865   */\n  mstore\n    /* \"#utility.yul\":7713:7872   */\n  pop\n  jump\t// out\n    /* \"#utility.yul\":7878:8000   */\ntag_44:\n    /* \"#utility.yul\":7951:7975   */\n  tag_128\n    /* \"#utility.yul\":7969:7974   */\n  dup2\n    /* \"#utility.yul\":7951:7975   */\n  tag_97\n  jump\t// in\ntag_128:\n    /* \"#utility.yul\":7944:7949   */\n  dup2\n    /* \"#utility.yul\":7941:7976   */\n  eq\n    /* \"#utility.yul\":7931:7994   */\n  tag_129\n  jumpi\n    /* \"#utility.yul\":7990:7991   */\n  0x00\n    /* \"#utility.yul\":7987:7988   */\n  dup1\n    /* \"#utility.yul\":7980:7992   */\n  revert\n    /* \"#utility.yul\":7931:7994   */\ntag_129:\n    /* \"#utility.yul\":7878:8000   */\n  pop\n  jump\t// out\n    /* \"#utility.yul\":8006:8126   */\ntag_54:\n    /* \"#utility.yul\":8078:8101   */\n  tag_131\n    /* \"#utility.yul\":8095:8100   */\n  dup2\n    /* \"#utility.yul\":8078:8101   */\n  tag_101\n  jump\t// in\ntag_131:\n    /* \"#utility.yul\":8071:8076   */\n  dup2\n    /* \"#utility.yul\":8068:8102   */\n  eq\n    /* \"#utility.yul\":8058:8120   */\n  tag_132\n  jumpi\n    /* \"#utility.yul\":8116:8117   */\n  0x00\n    /* \"#utility.yul\":8113:8114   */\n  dup1\n    /* \"#utility.yul\":8106:8118   */\n  revert\n    /* \"#utility.yul\":8058:8120   */\ntag_132:\n    /* \"#utility.yul\":8006:8126   */\n  pop\n  jump\t// out\n    /* \"MultiSigWallet.sol\":56:2031  contract MultiSigWallet{... */\ntag_26:\n  dataSize(sub_0)\n  dup1\n  dataOffset(sub_0)\n  0x00\n  codecopy\n  0x00\n  return\nstop\n\nsub_0: assembly {\n        /* \"MultiSigWallet.sol\":56:2031  contract MultiSigWallet{... */\n      mstore(0x40, 0x80)\n      jumpi(tag_1, lt(calldatasize, 0x04))\n      shr(0xe0, calldataload(0x00))\n      dup1\n      0x073cbe49\n      eq\n      tag_3\n      jumpi\n      dup1\n      0x14de327f\n      eq\n      tag_4\n      jumpi\n      dup1\n      0xb759f954\n      eq\n      tag_5\n      jumpi\n      dup1\n      0xfe0d94c1\n      eq\n      tag_6\n      jumpi\n      jump(tag_2)\n    tag_1:\n      jumpi(tag_2, calldatasize)\n      stop\n    tag_2:\n      0x00\n      dup1\n      revert\n        /* \"MultiSigWallet.sol\":1355:1608  function getApprovedCount(uint txId) public view returns(uint count) {... */\n    tag_3:\n      callvalue\n      dup1\n      iszero\n      tag_9\n      jumpi\n      0x00\n      dup1\n      revert\n    tag_9:\n      pop\n      tag_10\n      0x04\n      dup1\n      calldatasize\n      sub\n      dup2\n      add\n      swap1\n      tag_11\n      swap2\n      swap1\n      tag_12\n      jump\t// in\n    tag_11:\n      tag_13\n      jump\t// in\n    tag_10:\n      mload(0x40)\n      tag_14\n      swap2\n      swap1\n      tag_15\n      jump\t// in\n    tag_14:\n      mload(0x40)\n      dup1\n      swap2\n      sub\n      swap1\n      return\n        /* \"MultiSigWallet.sol\":878:1083  function submit(address _destination,uint _amount, bytes calldata _data) onlyOwner external{... */\n    tag_4:\n      callvalue\n      dup1\n      iszero\n      tag_16\n      jumpi\n      0x00\n      dup1\n      revert\n    tag_16:\n      pop\n      tag_17\n      0x04\n      dup1\n      calldatasize\n      sub\n      dup2\n      add\n      swap1\n      tag_18\n      swap2\n      swap1\n      tag_19\n      jump\t// in\n    tag_18:\n      tag_20\n      jump\t// in\n    tag_17:\n      stop\n        /* \"MultiSigWallet.sol\":1089:1345  function approve(uint txId)external onlyOwner{... */\n    tag_5:\n      callvalue\n      dup1\n      iszero\n      tag_21\n      jumpi\n      0x00\n      dup1\n      revert\n    tag_21:\n      pop\n      tag_22\n      0x04\n      dup1\n      calldatasize\n      sub\n      dup2\n      add\n      swap1\n      tag_23\n      swap2\n      swap1\n      tag_12\n      jump\t// in\n    tag_23:\n      tag_24\n      jump\t// in\n    tag_22:\n      stop\n        /* \"MultiSigWallet.sol\":1614:2028  function execute(uint txId) external returns(bool){... */\n    tag_6:\n      callvalue\n      dup1\n      iszero\n      tag_25\n      jumpi\n      0x00\n      dup1\n      revert\n    tag_25:\n      pop\n      tag_26\n      0x04\n      dup1\n      calldatasize\n      sub\n      dup2\n      add\n      swap1\n      tag_27\n      swap2\n      swap1\n      tag_12\n      jump\t// in\n    tag_27:\n      tag_28\n      jump\t// in\n    tag_26:\n      mload(0x40)\n      tag_29\n      swap2\n      swap1\n      tag_30\n      jump\t// in\n    tag_29:\n      mload(0x40)\n      dup1\n      swap2\n      sub\n      swap1\n      return\n        /* \"MultiSigWallet.sol\":1355:1608  function getApprovedCount(uint txId) public view returns(uint count) {... */\n    tag_13:\n        /* \"MultiSigWallet.sol\":1412:1422  uint count */\n      0x00\n        /* \"MultiSigWallet.sol\":1447:1458  transactons */\n      0x02\n        /* \"MultiSigWallet.sol\":1447:1465  transactons.length */\n      dup1\n      sload\n      swap1\n      pop\n        /* \"MultiSigWallet.sol\":1442:1446  txId */\n      dup3\n        /* \"MultiSigWallet.sol\":1442:1465  txId<transactons.length */\n      lt\n        /* \"MultiSigWallet.sol\":1434:1466  require(txId<transactons.length) */\n      tag_32\n      jumpi\n      0x00\n      dup1\n      revert\n    tag_32:\n        /* \"MultiSigWallet.sol\":1480:1486  uint i */\n      0x00\n        /* \"MultiSigWallet.sol\":1476:1602  for(uint i=0;i<owners.length;i++){... */\n    tag_33:\n        /* \"MultiSigWallet.sol\":1491:1497  owners */\n      0x01\n        /* \"MultiSigWallet.sol\":1491:1504  owners.length */\n      dup1\n      sload\n      swap1\n      pop\n        /* \"MultiSigWallet.sol\":1489:1490  i */\n      dup2\n        /* \"MultiSigWallet.sol\":1489:1504  i<owners.length */\n      lt\n        /* \"MultiSigWallet.sol\":1476:1602  for(uint i=0;i<owners.length;i++){... */\n      iszero\n      tag_34\n      jumpi\n        /* \"MultiSigWallet.sol\":1526:1534  approved */\n      0x04\n        /* \"MultiSigWallet.sol\":1526:1540  approved[txId] */\n      0x00\n        /* \"MultiSigWallet.sol\":1535:1539  txId */\n      dup5\n        /* \"MultiSigWallet.sol\":1526:1540  approved[txId] */\n      dup2\n      mstore\n      0x20\n      add\n      swap1\n      dup2\n      mstore\n      0x20\n      add\n      0x00\n      keccak256\n        /* \"MultiSigWallet.sol\":1526:1551  approved[txId][owners[i]] */\n      0x00\n        /* \"MultiSigWallet.sol\":1541:1547  owners */\n      0x01\n        /* \"MultiSigWallet.sol\":1548:1549  i */\n      dup4\n        /* \"MultiSigWallet.sol\":1541:1550  owners[i] */\n      dup2\n      sload\n      dup2\n      lt\n      tag_36\n      jumpi\n      tag_37\n      tag_38\n      jump\t// in\n    tag_37:\n    tag_36:\n      swap1\n      0x00\n      mstore\n      keccak256(0x00, 0x20)\n      add\n      0x00\n      swap1\n      sload\n      swap1\n      0x0100\n      exp\n      swap1\n      div\n      0xffffffffffffffffffffffffffffffffffffffff\n      and\n        /* \"MultiSigWallet.sol\":1526:1551  approved[txId][owners[i]] */\n      0xffffffffffffffffffffffffffffffffffffffff\n      and\n      0xffffffffffffffffffffffffffffffffffffffff\n      and\n      dup2\n      mstore\n      0x20\n      add\n      swap1\n      dup2\n      mstore\n      0x20\n      add\n      0x00\n      keccak256\n      0x00\n      swap1\n      sload\n      swap1\n      0x0100\n      exp\n      swap1\n      div\n      0xff\n      and\n        /* \"MultiSigWallet.sol\":1523:1592  if(approved[txId][owners[i]]){... */\n      iszero\n      tag_40\n      jumpi\n        /* \"MultiSigWallet.sol\":1570:1577  count++ */\n      dup2\n      dup1\n      tag_41\n      swap1\n      tag_42\n      jump\t// in\n    tag_41:\n      swap3\n      pop\n      pop\n        /* \"MultiSigWallet.sol\":1523:1592  if(approved[txId][owners[i]]){... */\n    tag_40:\n        /* \"MultiSigWallet.sol\":1505:1508  i++ */\n      dup1\n      dup1\n      tag_43\n      swap1\n      tag_42\n      jump\t// in\n    tag_43:\n      swap2\n      pop\n      pop\n        /* \"MultiSigWallet.sol\":1476:1602  for(uint i=0;i<owners.length;i++){... */\n      jump(tag_33)\n    tag_34:\n      pop\n        /* \"MultiSigWallet.sol\":1355:1608  function getApprovedCount(uint txId) public view returns(uint count) {... */\n      swap2\n      swap1\n      pop\n      jump\t// out\n        /* \"MultiSigWallet.sol\":878:1083  function submit(address _destination,uint _amount, bytes calldata _data) onlyOwner external{... */\n    tag_20:\n        /* \"MultiSigWallet.sol\":835:842  isOwner */\n      0x00\n        /* \"MultiSigWallet.sol\":835:854  isOwner[msg.sender] */\n      dup1\n        /* \"MultiSigWallet.sol\":843:853  msg.sender */\n      caller\n        /* \"MultiSigWallet.sol\":835:854  isOwner[msg.sender] */\n      0xffffffffffffffffffffffffffffffffffffffff\n      and\n      0xffffffffffffffffffffffffffffffffffffffff\n      and\n      dup2\n      mstore\n      0x20\n      add\n      swap1\n      dup2\n      mstore\n      0x20\n      add\n      0x00\n      keccak256\n      0x00\n      swap1\n      sload\n      swap1\n      0x0100\n      exp\n      swap1\n      div\n      0xff\n      and\n        /* \"MultiSigWallet.sol\":827:855  require(isOwner[msg.sender]) */\n      tag_45\n      jumpi\n      0x00\n      dup1\n      revert\n    tag_45:\n        /* \"MultiSigWallet.sol\":979:999  Transaction memory t */\n      0x00\n        /* \"MultiSigWallet.sol\":1002:1047  Transaction(_destination,_amount,_data,false) */\n      mload(0x40)\n      dup1\n      0x80\n      add\n      0x40\n      mstore\n      dup1\n        /* \"MultiSigWallet.sol\":1014:1026  _destination */\n      dup7\n        /* \"MultiSigWallet.sol\":1002:1047  Transaction(_destination,_amount,_data,false) */\n      0xffffffffffffffffffffffffffffffffffffffff\n      and\n      dup2\n      mstore\n      0x20\n      add\n        /* \"MultiSigWallet.sol\":1027:1034  _amount */\n      dup6\n        /* \"MultiSigWallet.sol\":1002:1047  Transaction(_destination,_amount,_data,false) */\n      dup2\n      mstore\n      0x20\n      add\n        /* \"MultiSigWallet.sol\":1035:1040  _data */\n      dup5\n      dup5\n        /* \"MultiSigWallet.sol\":1002:1047  Transaction(_destination,_amount,_data,false) */\n      dup1\n      dup1\n      0x1f\n      add\n      0x20\n      dup1\n      swap2\n      div\n      mul\n      0x20\n      add\n      mload(0x40)\n      swap1\n      dup2\n      add\n      0x40\n      mstore\n      dup1\n      swap4\n      swap3\n      swap2\n      swap1\n      dup2\n      dup2\n      mstore\n      0x20\n      add\n      dup4\n      dup4\n      dup1\n      dup3\n      dup5\n      calldatacopy\n      0x00\n      dup2\n      dup5\n      add\n      mstore\n      not(0x1f)\n      0x1f\n      dup3\n      add\n      and\n      swap1\n      pop\n      dup1\n      dup4\n      add\n      swap3\n      pop\n      pop\n      pop\n      pop\n      pop\n      pop\n      pop\n      dup2\n      mstore\n      0x20\n      add\n        /* \"MultiSigWallet.sol\":1041:1046  false */\n      0x00\n        /* \"MultiSigWallet.sol\":1002:1047  Transaction(_destination,_amount,_data,false) */\n      iszero\n      iszero\n      dup2\n      mstore\n      pop\n        /* \"MultiSigWallet.sol\":979:1047  Transaction memory t = Transaction(_destination,_amount,_data,false) */\n      swap1\n      pop\n        /* \"MultiSigWallet.sol\":1057:1068  transactons */\n      0x02\n        /* \"MultiSigWallet.sol\":1074:1075  t */\n      dup2\n        /* \"MultiSigWallet.sol\":1057:1076  transactons.push(t) */\n      swap1\n      dup1\n      0x01\n      dup2\n      sload\n      add\n      dup1\n      dup3\n      sstore\n      dup1\n      swap2\n      pop\n      pop\n      0x01\n      swap1\n      sub\n      swap1\n      0x00\n      mstore\n      keccak256(0x00, 0x20)\n      swap1\n      0x04\n      mul\n      add\n      0x00\n      swap1\n      swap2\n      swap1\n      swap2\n      swap1\n      swap2\n      pop\n      0x00\n      dup3\n      add\n      mload\n      dup2\n      0x00\n      add\n      exp(0x0100, 0x00)\n      dup2\n      sload\n      dup2\n      0xffffffffffffffffffffffffffffffffffffffff\n      mul\n      not\n      and\n      swap1\n      dup4\n      0xffffffffffffffffffffffffffffffffffffffff\n      and\n      mul\n      or\n      swap1\n      sstore\n      pop\n      0x20\n      dup3\n      add\n      mload\n      dup2\n      0x01\n      add\n      sstore\n      0x40\n      dup3\n      add\n      mload\n      dup2\n      0x02\n      add\n      swap1\n      dup1\n      mload\n      swap1\n      0x20\n      add\n      swap1\n      tag_48\n      swap3\n      swap2\n      swap1\n      tag_49\n      jump\t// in\n    tag_48:\n      pop\n      0x60\n      dup3\n      add\n      mload\n      dup2\n      0x03\n      add\n      exp(0x0100, 0x00)\n      dup2\n      sload\n      dup2\n      0xff\n      mul\n      not\n      and\n      swap1\n      dup4\n      iszero\n      iszero\n      mul\n      or\n      swap1\n      sstore\n      pop\n      pop\n      pop\n        /* \"MultiSigWallet.sol\":969:1083  {... */\n      pop\n        /* \"MultiSigWallet.sol\":878:1083  function submit(address _destination,uint _amount, bytes calldata _data) onlyOwner external{... */\n      pop\n      pop\n      pop\n      pop\n      jump\t// out\n        /* \"MultiSigWallet.sol\":1089:1345  function approve(uint txId)external onlyOwner{... */\n    tag_24:\n        /* \"MultiSigWallet.sol\":835:842  isOwner */\n      0x00\n        /* \"MultiSigWallet.sol\":835:854  isOwner[msg.sender] */\n      dup1\n        /* \"MultiSigWallet.sol\":843:853  msg.sender */\n      caller\n        /* \"MultiSigWallet.sol\":835:854  isOwner[msg.sender] */\n      0xffffffffffffffffffffffffffffffffffffffff\n      and\n      0xffffffffffffffffffffffffffffffffffffffff\n      and\n      dup2\n      mstore\n      0x20\n      add\n      swap1\n      dup2\n      mstore\n      0x20\n      add\n      0x00\n      keccak256\n      0x00\n      swap1\n      sload\n      swap1\n      0x0100\n      exp\n      swap1\n      div\n      0xff\n      and\n        /* \"MultiSigWallet.sol\":827:855  require(isOwner[msg.sender]) */\n      tag_51\n      jumpi\n      0x00\n      dup1\n      revert\n    tag_51:\n        /* \"MultiSigWallet.sol\":1157:1168  transactons */\n      0x02\n        /* \"MultiSigWallet.sol\":1157:1175  transactons.length */\n      dup1\n      sload\n      swap1\n      pop\n        /* \"MultiSigWallet.sol\":1152:1156  txId */\n      dup2\n        /* \"MultiSigWallet.sol\":1152:1175  txId<transactons.length */\n      lt\n        /* \"MultiSigWallet.sol\":1144:1176  require(txId<transactons.length) */\n      tag_53\n      jumpi\n      0x00\n      dup1\n      revert\n    tag_53:\n        /* \"MultiSigWallet.sol\":1195:1206  transactons */\n      0x02\n        /* \"MultiSigWallet.sol\":1207:1211  txId */\n      dup2\n        /* \"MultiSigWallet.sol\":1195:1212  transactons[txId] */\n      dup2\n      sload\n      dup2\n      lt\n      tag_54\n      jumpi\n      tag_55\n      tag_38\n      jump\t// in\n    tag_55:\n    tag_54:\n      swap1\n      0x00\n      mstore\n      keccak256(0x00, 0x20)\n      swap1\n      0x04\n      mul\n      add\n        /* \"MultiSigWallet.sol\":1195:1221  transactons[txId].executed */\n      0x03\n      add\n      0x00\n      swap1\n      sload\n      swap1\n      0x0100\n      exp\n      swap1\n      div\n      0xff\n      and\n        /* \"MultiSigWallet.sol\":1194:1221  !transactons[txId].executed */\n      iszero\n        /* \"MultiSigWallet.sol\":1186:1241  require(!transactons[txId].executed,\"avready executed\") */\n      tag_57\n      jumpi\n      mload(0x40)\n      0x08c379a000000000000000000000000000000000000000000000000000000000\n      dup2\n      mstore\n      0x04\n      add\n      tag_58\n      swap1\n      tag_59\n      jump\t// in\n    tag_58:\n      mload(0x40)\n      dup1\n      swap2\n      sub\n      swap1\n      revert\n    tag_57:\n        /* \"MultiSigWallet.sol\":1278:1282  true */\n      0x01\n        /* \"MultiSigWallet.sol\":1251:1259  approved */\n      0x04\n        /* \"MultiSigWallet.sol\":1251:1265  approved[txId] */\n      0x00\n        /* \"MultiSigWallet.sol\":1260:1264  txId */\n      dup4\n        /* \"MultiSigWallet.sol\":1251:1265  approved[txId] */\n      dup2\n      mstore\n      0x20\n      add\n      swap1\n      dup2\n      mstore\n      0x20\n      add\n      0x00\n      keccak256\n        /* \"MultiSigWallet.sol\":1251:1277  approved[txId][msg.sender] */\n      0x00\n        /* \"MultiSigWallet.sol\":1266:1276  msg.sender */\n      caller\n        /* \"MultiSigWallet.sol\":1251:1277  approved[txId][msg.sender] */\n      0xffffffffffffffffffffffffffffffffffffffff\n      and\n      0xffffffffffffffffffffffffffffffffffffffff\n      and\n      dup2\n      mstore\n      0x20\n      add\n      swap1\n      dup2\n      mstore\n      0x20\n      add\n      0x00\n      keccak256\n      0x00\n        /* \"MultiSigWallet.sol\":1251:1282  approved[txId][msg.sender]=true */\n      0x0100\n      exp\n      dup2\n      sload\n      dup2\n      0xff\n      mul\n      not\n      and\n      swap1\n      dup4\n      iszero\n      iszero\n      mul\n      or\n      swap1\n      sstore\n      pop\n        /* \"MultiSigWallet.sol\":1089:1345  function approve(uint txId)external onlyOwner{... */\n      pop\n      jump\t// out\n        /* \"MultiSigWallet.sol\":1614:2028  function execute(uint txId) external returns(bool){... */\n    tag_28:\n        /* \"MultiSigWallet.sol\":1659:1663  bool */\n      0x00\n        /* \"MultiSigWallet.sol\":1687:1698  transactons */\n      0x02\n        /* \"MultiSigWallet.sol\":1687:1705  transactons.length */\n      dup1\n      sload\n      swap1\n      pop\n        /* \"MultiSigWallet.sol\":1682:1686  txId */\n      dup3\n        /* \"MultiSigWallet.sol\":1682:1705  txId<transactons.length */\n      lt\n        /* \"MultiSigWallet.sol\":1674:1722  require(txId<transactons.length,\"invalid index\") */\n      tag_61\n      jumpi\n      mload(0x40)\n      0x08c379a000000000000000000000000000000000000000000000000000000000\n      dup2\n      mstore\n      0x04\n      add\n      tag_62\n      swap1\n      tag_63\n      jump\t// in\n    tag_62:\n      mload(0x40)\n      dup1\n      swap2\n      sub\n      swap1\n      revert\n    tag_61:\n        /* \"MultiSigWallet.sol\":1741:1752  transactons */\n      0x02\n        /* \"MultiSigWallet.sol\":1753:1757  txId */\n      dup3\n        /* \"MultiSigWallet.sol\":1741:1758  transactons[txId] */\n      dup2\n      sload\n      dup2\n      lt\n      tag_64\n      jumpi\n      tag_65\n      tag_38\n      jump\t// in\n    tag_65:\n    tag_64:\n      swap1\n      0x00\n      mstore\n      keccak256(0x00, 0x20)\n      swap1\n      0x04\n      mul\n      add\n        /* \"MultiSigWallet.sol\":1741:1767  transactons[txId].executed */\n      0x03\n      add\n      0x00\n      swap1\n      sload\n      swap1\n      0x0100\n      exp\n      swap1\n      div\n      0xff\n      and\n        /* \"MultiSigWallet.sol\":1740:1767  !transactons[txId].executed */\n      iszero\n        /* \"MultiSigWallet.sol\":1732:1787  require(!transactons[txId].executed,\"already executed\") */\n      tag_67\n      jumpi\n      mload(0x40)\n      0x08c379a000000000000000000000000000000000000000000000000000000000\n      dup2\n      mstore\n      0x04\n      add\n      tag_68\n      swap1\n      tag_69\n      jump\t// in\n    tag_68:\n      mload(0x40)\n      dup1\n      swap2\n      sub\n      swap1\n      revert\n    tag_67:\n        /* \"MultiSigWallet.sol\":1823:1831  required */\n      sload(0x03)\n        /* \"MultiSigWallet.sol\":1800:1822  getApprovedCount(txId) */\n      tag_70\n        /* \"MultiSigWallet.sol\":1817:1821  txId */\n      dup4\n        /* \"MultiSigWallet.sol\":1800:1816  getApprovedCount */\n      tag_13\n        /* \"MultiSigWallet.sol\":1800:1822  getApprovedCount(txId) */\n      jump\t// in\n    tag_70:\n        /* \"MultiSigWallet.sol\":1800:1831  getApprovedCount(txId)>required */\n      gt\n        /* \"MultiSigWallet.sol\":1797:2001  if(getApprovedCount(txId)>required){... */\n      iszero\n      tag_71\n      jumpi\n        /* \"MultiSigWallet.sol\":1847:1859  bool success */\n      0x00\n        /* \"MultiSigWallet.sol\":1865:1876  transactons */\n      0x02\n        /* \"MultiSigWallet.sol\":1877:1881  txId */\n      dup4\n        /* \"MultiSigWallet.sol\":1865:1882  transactons[txId] */\n      dup2\n      sload\n      dup2\n      lt\n      tag_72\n      jumpi\n      tag_73\n      tag_38\n      jump\t// in\n    tag_73:\n    tag_72:\n      swap1\n      0x00\n      mstore\n      keccak256(0x00, 0x20)\n      swap1\n      0x04\n      mul\n      add\n        /* \"MultiSigWallet.sol\":1865:1894  transactons[txId].destination */\n      0x00\n      add\n      0x00\n      swap1\n      sload\n      swap1\n      0x0100\n      exp\n      swap1\n      div\n      0xffffffffffffffffffffffffffffffffffffffff\n      and\n        /* \"MultiSigWallet.sol\":1865:1899  transactons[txId].destination.call */\n      0xffffffffffffffffffffffffffffffffffffffff\n      and\n        /* \"MultiSigWallet.sol\":1907:1918  transactons */\n      0x02\n        /* \"MultiSigWallet.sol\":1919:1923  txId */\n      dup5\n        /* \"MultiSigWallet.sol\":1907:1924  transactons[txId] */\n      dup2\n      sload\n      dup2\n      lt\n      tag_75\n      jumpi\n      tag_76\n      tag_38\n      jump\t// in\n    tag_76:\n    tag_75:\n      swap1\n      0x00\n      mstore\n      keccak256(0x00, 0x20)\n      swap1\n      0x04\n      mul\n      add\n        /* \"MultiSigWallet.sol\":1907:1930  transactons[txId].value */\n      0x01\n      add\n      sload\n        /* \"MultiSigWallet.sol\":1932:1943  transactons */\n      0x02\n        /* \"MultiSigWallet.sol\":1944:1948  txId */\n      dup6\n        /* \"MultiSigWallet.sol\":1932:1949  transactons[txId] */\n      dup2\n      sload\n      dup2\n      lt\n      tag_78\n      jumpi\n      tag_79\n      tag_38\n      jump\t// in\n    tag_79:\n    tag_78:\n      swap1\n      0x00\n      mstore\n      keccak256(0x00, 0x20)\n      swap1\n      0x04\n      mul\n      add\n        /* \"MultiSigWallet.sol\":1932:1954  transactons[txId].data */\n      0x02\n      add\n        /* \"MultiSigWallet.sol\":1865:1955  transactons[txId].destination.call{value: transactons[txId].value}(transactons[txId].data) */\n      mload(0x40)\n      tag_81\n      swap2\n      swap1\n      tag_82\n      jump\t// in\n    tag_81:\n      0x00\n      mload(0x40)\n      dup1\n      dup4\n      sub\n      dup2\n      dup6\n      dup8\n      gas\n      call\n      swap3\n      pop\n      pop\n      pop\n      returndatasize\n      dup1\n      0x00\n      dup2\n      eq\n      tag_85\n      jumpi\n      mload(0x40)\n      swap2\n      pop\n      and(add(returndatasize, 0x3f), not(0x1f))\n      dup3\n      add\n      0x40\n      mstore\n      returndatasize\n      dup3\n      mstore\n      returndatasize\n      0x00\n      0x20\n      dup5\n      add\n      returndatacopy\n      jump(tag_84)\n    tag_85:\n      0x60\n      swap2\n      pop\n    tag_84:\n      pop\n        /* \"MultiSigWallet.sol\":1846:1955  (bool success, ) = transactons[txId].destination.call{value: transactons[txId].value}(transactons[txId].data) */\n      pop\n      swap1\n      pop\n        /* \"MultiSigWallet.sol\":1973:1980  success */\n      dup1\n        /* \"MultiSigWallet.sol\":1965:1990  require(success,\"failed\") */\n      tag_86\n      jumpi\n      mload(0x40)\n      0x08c379a000000000000000000000000000000000000000000000000000000000\n      dup2\n      mstore\n      0x04\n      add\n      tag_87\n      swap1\n      tag_88\n      jump\t// in\n    tag_87:\n      mload(0x40)\n      dup1\n      swap2\n      sub\n      swap1\n      revert\n    tag_86:\n        /* \"MultiSigWallet.sol\":1832:2001  {... */\n      pop\n        /* \"MultiSigWallet.sol\":1797:2001  if(getApprovedCount(txId)>required){... */\n    tag_71:\n        /* \"MultiSigWallet.sol\":2017:2021  true */\n      0x01\n        /* \"MultiSigWallet.sol\":2010:2021  return true */\n      swap1\n      pop\n        /* \"MultiSigWallet.sol\":1614:2028  function execute(uint txId) external returns(bool){... */\n      swap2\n      swap1\n      pop\n      jump\t// out\n    tag_49:\n      dup3\n      dup1\n      sload\n      tag_89\n      swap1\n      tag_90\n      jump\t// in\n    tag_89:\n      swap1\n      0x00\n      mstore\n      keccak256(0x00, 0x20)\n      swap1\n      0x1f\n      add\n      0x20\n      swap1\n      div\n      dup2\n      add\n      swap3\n      dup3\n      tag_92\n      jumpi\n      0x00\n      dup6\n      sstore\n      jump(tag_91)\n    tag_92:\n      dup3\n      0x1f\n      lt\n      tag_93\n      jumpi\n      dup1\n      mload\n      not(0xff)\n      and\n      dup4\n      dup1\n      add\n      or\n      dup6\n      sstore\n      jump(tag_91)\n    tag_93:\n      dup3\n      dup1\n      add\n      0x01\n      add\n      dup6\n      sstore\n      dup3\n      iszero\n      tag_91\n      jumpi\n      swap2\n      dup3\n      add\n    tag_94:\n      dup3\n      dup2\n      gt\n      iszero\n      tag_95\n      jumpi\n      dup3\n      mload\n      dup3\n      sstore\n      swap2\n      0x20\n      add\n      swap2\n      swap1\n      0x01\n      add\n      swap1\n      jump(tag_94)\n    tag_95:\n    tag_91:\n      pop\n      swap1\n      pop\n      tag_96\n      swap2\n      swap1\n      tag_97\n      jump\t// in\n    tag_96:\n      pop\n      swap1\n      jump\t// out\n    tag_97:\n    tag_98:\n      dup1\n      dup3\n      gt\n      iszero\n      tag_99\n      jumpi\n      0x00\n      dup2\n      0x00\n      swap1\n      sstore\n      pop\n      0x01\n      add\n      jump(tag_98)\n    tag_99:\n      pop\n      swap1\n      jump\t// out\n        /* \"#utility.yul\":7:146   */\n    tag_101:\n        /* \"#utility.yul\":53:58   */\n      0x00\n        /* \"#utility.yul\":91:97   */\n      dup2\n        /* \"#utility.yul\":78:98   */\n      calldataload\n        /* \"#utility.yul\":69:98   */\n      swap1\n      pop\n        /* \"#utility.yul\":107:140   */\n      tag_103\n        /* \"#utility.yul\":134:139   */\n      dup2\n        /* \"#utility.yul\":107:140   */\n      tag_104\n      jump\t// in\n    tag_103:\n        /* \"#utility.yul\":7:146   */\n      swap3\n      swap2\n      pop\n      pop\n      jump\t// out\n        /* \"#utility.yul\":165:717   */\n    tag_105:\n        /* \"#utility.yul\":222:230   */\n      0x00\n        /* \"#utility.yul\":232:238   */\n      dup1\n        /* \"#utility.yul\":282:285   */\n      dup4\n        /* \"#utility.yul\":275:279   */\n      0x1f\n        /* \"#utility.yul\":267:273   */\n      dup5\n        /* \"#utility.yul\":263:280   */\n      add\n        /* \"#utility.yul\":259:286   */\n      slt\n        /* \"#utility.yul\":249:371   */\n      tag_107\n      jumpi\n        /* \"#utility.yul\":290:369   */\n      tag_108\n      tag_109\n      jump\t// in\n    tag_108:\n        /* \"#utility.yul\":249:371   */\n    tag_107:\n        /* \"#utility.yul\":403:409   */\n      dup3\n        /* \"#utility.yul\":390:410   */\n      calldataload\n        /* \"#utility.yul\":380:410   */\n      swap1\n      pop\n        /* \"#utility.yul\":433:451   */\n      0xffffffffffffffff\n        /* \"#utility.yul\":425:431   */\n      dup2\n        /* \"#utility.yul\":422:452   */\n      gt\n        /* \"#utility.yul\":419:536   */\n      iszero\n      tag_110\n      jumpi\n        /* \"#utility.yul\":455:534   */\n      tag_111\n      tag_112\n      jump\t// in\n    tag_111:\n        /* \"#utility.yul\":419:536   */\n    tag_110:\n        /* \"#utility.yul\":569:573   */\n      0x20\n        /* \"#utility.yul\":561:567   */\n      dup4\n        /* \"#utility.yul\":557:574   */\n      add\n        /* \"#utility.yul\":545:574   */\n      swap2\n      pop\n        /* \"#utility.yul\":623:626   */\n      dup4\n        /* \"#utility.yul\":615:619   */\n      0x01\n        /* \"#utility.yul\":607:613   */\n      dup3\n        /* \"#utility.yul\":603:620   */\n      mul\n        /* \"#utility.yul\":593:601   */\n      dup4\n        /* \"#utility.yul\":589:621   */\n      add\n        /* \"#utility.yul\":586:627   */\n      gt\n        /* \"#utility.yul\":583:711   */\n      iszero\n      tag_113\n      jumpi\n        /* \"#utility.yul\":630:709   */\n      tag_114\n      tag_115\n      jump\t// in\n    tag_114:\n        /* \"#utility.yul\":583:711   */\n    tag_113:\n        /* \"#utility.yul\":165:717   */\n      swap3\n      pop\n      swap3\n      swap1\n      pop\n      jump\t// out\n        /* \"#utility.yul\":723:862   */\n    tag_116:\n        /* \"#utility.yul\":769:774   */\n      0x00\n        /* \"#utility.yul\":807:813   */\n      dup2\n        /* \"#utility.yul\":794:814   */\n      calldataload\n        /* \"#utility.yul\":785:814   */\n      swap1\n      pop\n        /* \"#utility.yul\":823:856   */\n      tag_118\n        /* \"#utility.yul\":850:855   */\n      dup2\n        /* \"#utility.yul\":823:856   */\n      tag_119\n      jump\t// in\n    tag_118:\n        /* \"#utility.yul\":723:862   */\n      swap3\n      swap2\n      pop\n      pop\n      jump\t// out\n        /* \"#utility.yul\":868:1685   */\n    tag_19:\n        /* \"#utility.yul\":956:962   */\n      0x00\n        /* \"#utility.yul\":964:970   */\n      dup1\n        /* \"#utility.yul\":972:978   */\n      0x00\n        /* \"#utility.yul\":980:986   */\n      dup1\n        /* \"#utility.yul\":1029:1031   */\n      0x60\n        /* \"#utility.yul\":1017:1026   */\n      dup6\n        /* \"#utility.yul\":1008:1015   */\n      dup8\n        /* \"#utility.yul\":1004:1027   */\n      sub\n        /* \"#utility.yul\":1000:1032   */\n      slt\n        /* \"#utility.yul\":997:1116   */\n      iszero\n      tag_121\n      jumpi\n        /* \"#utility.yul\":1035:1114   */\n      tag_122\n      tag_123\n      jump\t// in\n    tag_122:\n        /* \"#utility.yul\":997:1116   */\n    tag_121:\n        /* \"#utility.yul\":1155:1156   */\n      0x00\n        /* \"#utility.yul\":1180:1233   */\n      tag_124\n        /* \"#utility.yul\":1225:1232   */\n      dup8\n        /* \"#utility.yul\":1216:1222   */\n      dup3\n        /* \"#utility.yul\":1205:1214   */\n      dup9\n        /* \"#utility.yul\":1201:1223   */\n      add\n        /* \"#utility.yul\":1180:1233   */\n      tag_101\n      jump\t// in\n    tag_124:\n        /* \"#utility.yul\":1170:1233   */\n      swap5\n      pop\n        /* \"#utility.yul\":1126:1243   */\n      pop\n        /* \"#utility.yul\":1282:1284   */\n      0x20\n        /* \"#utility.yul\":1308:1361   */\n      tag_125\n        /* \"#utility.yul\":1353:1360   */\n      dup8\n        /* \"#utility.yul\":1344:1350   */\n      dup3\n        /* \"#utility.yul\":1333:1342   */\n      dup9\n        /* \"#utility.yul\":1329:1351   */\n      add\n        /* \"#utility.yul\":1308:1361   */\n      tag_116\n      jump\t// in\n    tag_125:\n        /* \"#utility.yul\":1298:1361   */\n      swap4\n      pop\n        /* \"#utility.yul\":1253:1371   */\n      pop\n        /* \"#utility.yul\":1438:1440   */\n      0x40\n        /* \"#utility.yul\":1427:1436   */\n      dup6\n        /* \"#utility.yul\":1423:1441   */\n      add\n        /* \"#utility.yul\":1410:1442   */\n      calldataload\n        /* \"#utility.yul\":1469:1487   */\n      0xffffffffffffffff\n        /* \"#utility.yul\":1461:1467   */\n      dup2\n        /* \"#utility.yul\":1458:1488   */\n      gt\n        /* \"#utility.yul\":1455:1572   */\n      iszero\n      tag_126\n      jumpi\n        /* \"#utility.yul\":1491:1570   */\n      tag_127\n      tag_128\n      jump\t// in\n    tag_127:\n        /* \"#utility.yul\":1455:1572   */\n    tag_126:\n        /* \"#utility.yul\":1604:1668   */\n      tag_129\n        /* \"#utility.yul\":1660:1667   */\n      dup8\n        /* \"#utility.yul\":1651:1657   */\n      dup3\n        /* \"#utility.yul\":1640:1649   */\n      dup9\n        /* \"#utility.yul\":1636:1658   */\n      add\n        /* \"#utility.yul\":1604:1668   */\n      tag_105\n      jump\t// in\n    tag_129:\n        /* \"#utility.yul\":1586:1668   */\n      swap3\n      pop\n      swap3\n      pop\n        /* \"#utility.yul\":1381:1678   */\n      pop\n        /* \"#utility.yul\":868:1685   */\n      swap3\n      swap6\n      swap2\n      swap5\n      pop\n      swap3\n      pop\n      jump\t// out\n        /* \"#utility.yul\":1691:2020   */\n    tag_12:\n        /* \"#utility.yul\":1750:1756   */\n      0x00\n        /* \"#utility.yul\":1799:1801   */\n      0x20\n        /* \"#utility.yul\":1787:1796   */\n      dup3\n        /* \"#utility.yul\":1778:1785   */\n      dup5\n        /* \"#utility.yul\":1774:1797   */\n      sub\n        /* \"#utility.yul\":1770:1802   */\n      slt\n        /* \"#utility.yul\":1767:1886   */\n      iszero\n      tag_131\n      jumpi\n        /* \"#utility.yul\":1805:1884   */\n      tag_132\n      tag_123\n      jump\t// in\n    tag_132:\n        /* \"#utility.yul\":1767:1886   */\n    tag_131:\n        /* \"#utility.yul\":1925:1926   */\n      0x00\n        /* \"#utility.yul\":1950:2003   */\n      tag_133\n        /* \"#utility.yul\":1995:2002   */\n      dup5\n        /* \"#utility.yul\":1986:1992   */\n      dup3\n        /* \"#utility.yul\":1975:1984   */\n      dup6\n        /* \"#utility.yul\":1971:1993   */\n      add\n        /* \"#utility.yul\":1950:2003   */\n      tag_116\n      jump\t// in\n    tag_133:\n        /* \"#utility.yul\":1940:2003   */\n      swap2\n      pop\n        /* \"#utility.yul\":1896:2013   */\n      pop\n        /* \"#utility.yul\":1691:2020   */\n      swap3\n      swap2\n      pop\n      pop\n      jump\t// out\n        /* \"#utility.yul\":2026:2135   */\n    tag_134:\n        /* \"#utility.yul\":2107:2128   */\n      tag_136\n        /* \"#utility.yul\":2122:2127   */\n      dup2\n        /* \"#utility.yul\":2107:2128   */\n      tag_137\n      jump\t// in\n    tag_136:\n        /* \"#utility.yul\":2102:2105   */\n      dup3\n        /* \"#utility.yul\":2095:2129   */\n      mstore\n        /* \"#utility.yul\":2026:2135   */\n      pop\n      pop\n      jump\t// out\n        /* \"#utility.yul\":2163:3004   */\n    tag_138:\n        /* \"#utility.yul\":2264:2267   */\n      0x00\n        /* \"#utility.yul\":2301:2306   */\n      dup2\n        /* \"#utility.yul\":2295:2307   */\n      sload\n        /* \"#utility.yul\":2330:2366   */\n      tag_140\n        /* \"#utility.yul\":2356:2365   */\n      dup2\n        /* \"#utility.yul\":2330:2366   */\n      tag_90\n      jump\t// in\n    tag_140:\n        /* \"#utility.yul\":2382:2470   */\n      tag_141\n        /* \"#utility.yul\":2463:2469   */\n      dup2\n        /* \"#utility.yul\":2458:2461   */\n      dup7\n        /* \"#utility.yul\":2382:2470   */\n      tag_142\n      jump\t// in\n    tag_141:\n        /* \"#utility.yul\":2375:2470   */\n      swap5\n      pop\n        /* \"#utility.yul\":2501:2502   */\n      0x01\n        /* \"#utility.yul\":2490:2499   */\n      dup3\n        /* \"#utility.yul\":2486:2503   */\n      and\n        /* \"#utility.yul\":2517:2518   */\n      0x00\n        /* \"#utility.yul\":2512:2649   */\n      dup2\n      eq\n      tag_144\n      jumpi\n        /* \"#utility.yul\":2663:2664   */\n      0x01\n        /* \"#utility.yul\":2658:2998   */\n      dup2\n      eq\n      tag_145\n      jumpi\n        /* \"#utility.yul\":2479:2998   */\n      jump(tag_143)\n        /* \"#utility.yul\":2512:2649   */\n    tag_144:\n        /* \"#utility.yul\":2596:2600   */\n      0xff\n        /* \"#utility.yul\":2592:2601   */\n      not\n        /* \"#utility.yul\":2581:2590   */\n      dup4\n        /* \"#utility.yul\":2577:2602   */\n      and\n        /* \"#utility.yul\":2572:2575   */\n      dup7\n        /* \"#utility.yul\":2565:2603   */\n      mstore\n        /* \"#utility.yul\":2632:2638   */\n      dup2\n        /* \"#utility.yul\":2627:2630   */\n      dup7\n        /* \"#utility.yul\":2623:2639   */\n      add\n        /* \"#utility.yul\":2616:2639   */\n      swap4\n      pop\n        /* \"#utility.yul\":2512:2649   */\n      jump(tag_143)\n        /* \"#utility.yul\":2658:2998   */\n    tag_145:\n        /* \"#utility.yul\":2725:2762   */\n      tag_146\n        /* \"#utility.yul\":2756:2761   */\n      dup6\n        /* \"#utility.yul\":2725:2762   */\n      tag_147\n      jump\t// in\n    tag_146:\n        /* \"#utility.yul\":2784:2785   */\n      0x00\n        /* \"#utility.yul\":2798:2952   */\n    tag_148:\n        /* \"#utility.yul\":2812:2818   */\n      dup4\n        /* \"#utility.yul\":2809:2810   */\n      dup2\n        /* \"#utility.yul\":2806:2819   */\n      lt\n        /* \"#utility.yul\":2798:2952   */\n      iszero\n      tag_150\n      jumpi\n        /* \"#utility.yul\":2886:2893   */\n      dup2\n        /* \"#utility.yul\":2880:2894   */\n      sload\n        /* \"#utility.yul\":2876:2877   */\n      dup2\n        /* \"#utility.yul\":2871:2874   */\n      dup10\n        /* \"#utility.yul\":2867:2878   */\n      add\n        /* \"#utility.yul\":2860:2895   */\n      mstore\n        /* \"#utility.yul\":2936:2937   */\n      0x01\n        /* \"#utility.yul\":2927:2934   */\n      dup3\n        /* \"#utility.yul\":2923:2938   */\n      add\n        /* \"#utility.yul\":2912:2938   */\n      swap2\n      pop\n        /* \"#utility.yul\":2834:2838   */\n      0x20\n        /* \"#utility.yul\":2831:2832   */\n      dup2\n        /* \"#utility.yul\":2827:2839   */\n      add\n        /* \"#utility.yul\":2822:2839   */\n      swap1\n      pop\n        /* \"#utility.yul\":2798:2952   */\n      jump(tag_148)\n    tag_150:\n        /* \"#utility.yul\":2981:2987   */\n      dup4\n        /* \"#utility.yul\":2976:2979   */\n      dup9\n        /* \"#utility.yul\":2972:2988   */\n      add\n        /* \"#utility.yul\":2965:2988   */\n      swap6\n      pop\n        /* \"#utility.yul\":2665:2998   */\n      pop\n      pop\n        /* \"#utility.yul\":2479:2998   */\n    tag_143:\n      pop\n        /* \"#utility.yul\":2268:3004   */\n      pop\n      pop\n        /* \"#utility.yul\":2163:3004   */\n      swap3\n      swap2\n      pop\n      pop\n      jump\t// out\n        /* \"#utility.yul\":3010:3376   */\n    tag_151:\n        /* \"#utility.yul\":3152:3155   */\n      0x00\n        /* \"#utility.yul\":3173:3240   */\n      tag_153\n        /* \"#utility.yul\":3237:3239   */\n      0x10\n        /* \"#utility.yul\":3232:3235   */\n      dup4\n        /* \"#utility.yul\":3173:3240   */\n      tag_154\n      jump\t// in\n    tag_153:\n        /* \"#utility.yul\":3166:3240   */\n      swap2\n      pop\n        /* \"#utility.yul\":3249:3342   */\n      tag_155\n        /* \"#utility.yul\":3338:3341   */\n      dup3\n        /* \"#utility.yul\":3249:3342   */\n      tag_156\n      jump\t// in\n    tag_155:\n        /* \"#utility.yul\":3367:3369   */\n      0x20\n        /* \"#utility.yul\":3362:3365   */\n      dup3\n        /* \"#utility.yul\":3358:3370   */\n      add\n        /* \"#utility.yul\":3351:3370   */\n      swap1\n      pop\n        /* \"#utility.yul\":3010:3376   */\n      swap2\n      swap1\n      pop\n      jump\t// out\n        /* \"#utility.yul\":3382:3747   */\n    tag_157:\n        /* \"#utility.yul\":3524:3527   */\n      0x00\n        /* \"#utility.yul\":3545:3611   */\n      tag_159\n        /* \"#utility.yul\":3609:3610   */\n      0x06\n        /* \"#utility.yul\":3604:3607   */\n      dup4\n        /* \"#utility.yul\":3545:3611   */\n      tag_154\n      jump\t// in\n    tag_159:\n        /* \"#utility.yul\":3538:3611   */\n      swap2\n      pop\n        /* \"#utility.yul\":3620:3713   */\n      tag_160\n        /* \"#utility.yul\":3709:3712   */\n      dup3\n        /* \"#utility.yul\":3620:3713   */\n      tag_161\n      jump\t// in\n    tag_160:\n        /* \"#utility.yul\":3738:3740   */\n      0x20\n        /* \"#utility.yul\":3733:3736   */\n      dup3\n        /* \"#utility.yul\":3729:3741   */\n      add\n        /* \"#utility.yul\":3722:3741   */\n      swap1\n      pop\n        /* \"#utility.yul\":3382:3747   */\n      swap2\n      swap1\n      pop\n      jump\t// out\n        /* \"#utility.yul\":3753:4119   */\n    tag_162:\n        /* \"#utility.yul\":3895:3898   */\n      0x00\n        /* \"#utility.yul\":3916:3983   */\n      tag_164\n        /* \"#utility.yul\":3980:3982   */\n      0x10\n        /* \"#utility.yul\":3975:3978   */\n      dup4\n        /* \"#utility.yul\":3916:3983   */\n      tag_154\n      jump\t// in\n    tag_164:\n        /* \"#utility.yul\":3909:3983   */\n      swap2\n      pop\n        /* \"#utility.yul\":3992:4085   */\n      tag_165\n        /* \"#utility.yul\":4081:4084   */\n      dup3\n        /* \"#utility.yul\":3992:4085   */\n      tag_166\n      jump\t// in\n    tag_165:\n        /* \"#utility.yul\":4110:4112   */\n      0x20\n        /* \"#utility.yul\":4105:4108   */\n      dup3\n        /* \"#utility.yul\":4101:4113   */\n      add\n        /* \"#utility.yul\":4094:4113   */\n      swap1\n      pop\n        /* \"#utility.yul\":3753:4119   */\n      swap2\n      swap1\n      pop\n      jump\t// out\n        /* \"#utility.yul\":4125:4491   */\n    tag_167:\n        /* \"#utility.yul\":4267:4270   */\n      0x00\n        /* \"#utility.yul\":4288:4355   */\n      tag_169\n        /* \"#utility.yul\":4352:4354   */\n      0x0d\n        /* \"#utility.yul\":4347:4350   */\n      dup4\n        /* \"#utility.yul\":4288:4355   */\n      tag_154\n      jump\t// in\n    tag_169:\n        /* \"#utility.yul\":4281:4355   */\n      swap2\n      pop\n        /* \"#utility.yul\":4364:4457   */\n      tag_170\n        /* \"#utility.yul\":4453:4456   */\n      dup3\n        /* \"#utility.yul\":4364:4457   */\n      tag_171\n      jump\t// in\n    tag_170:\n        /* \"#utility.yul\":4482:4484   */\n      0x20\n        /* \"#utility.yul\":4477:4480   */\n      dup3\n        /* \"#utility.yul\":4473:4485   */\n      add\n        /* \"#utility.yul\":4466:4485   */\n      swap1\n      pop\n        /* \"#utility.yul\":4125:4491   */\n      swap2\n      swap1\n      pop\n      jump\t// out\n        /* \"#utility.yul\":4497:4615   */\n    tag_172:\n        /* \"#utility.yul\":4584:4608   */\n      tag_174\n        /* \"#utility.yul\":4602:4607   */\n      dup2\n        /* \"#utility.yul\":4584:4608   */\n      tag_175\n      jump\t// in\n    tag_174:\n        /* \"#utility.yul\":4579:4582   */\n      dup3\n        /* \"#utility.yul\":4572:4609   */\n      mstore\n        /* \"#utility.yul\":4497:4615   */\n      pop\n      pop\n      jump\t// out\n        /* \"#utility.yul\":4621:4886   */\n    tag_82:\n        /* \"#utility.yul\":4748:4751   */\n      0x00\n        /* \"#utility.yul\":4770:4860   */\n      tag_177\n        /* \"#utility.yul\":4856:4859   */\n      dup3\n        /* \"#utility.yul\":4847:4853   */\n      dup5\n        /* \"#utility.yul\":4770:4860   */\n      tag_138\n      jump\t// in\n    tag_177:\n        /* \"#utility.yul\":4763:4860   */\n      swap2\n      pop\n        /* \"#utility.yul\":4877:4880   */\n      dup2\n        /* \"#utility.yul\":4870:4880   */\n      swap1\n      pop\n        /* \"#utility.yul\":4621:4886   */\n      swap3\n      swap2\n      pop\n      pop\n      jump\t// out\n        /* \"#utility.yul\":4892:5102   */\n    tag_30:\n        /* \"#utility.yul\":4979:4983   */\n      0x00\n        /* \"#utility.yul\":5017:5019   */\n      0x20\n        /* \"#utility.yul\":5006:5015   */\n      dup3\n        /* \"#utility.yul\":5002:5020   */\n      add\n        /* \"#utility.yul\":4994:5020   */\n      swap1\n      pop\n        /* \"#utility.yul\":5030:5095   */\n      tag_179\n        /* \"#utility.yul\":5092:5093   */\n      0x00\n        /* \"#utility.yul\":5081:5090   */\n      dup4\n        /* \"#utility.yul\":5077:5094   */\n      add\n        /* \"#utility.yul\":5068:5074   */\n      dup5\n        /* \"#utility.yul\":5030:5095   */\n      tag_134\n      jump\t// in\n    tag_179:\n        /* \"#utility.yul\":4892:5102   */\n      swap3\n      swap2\n      pop\n      pop\n      jump\t// out\n        /* \"#utility.yul\":5108:5527   */\n    tag_69:\n        /* \"#utility.yul\":5274:5278   */\n      0x00\n        /* \"#utility.yul\":5312:5314   */\n      0x20\n        /* \"#utility.yul\":5301:5310   */\n      dup3\n        /* \"#utility.yul\":5297:5315   */\n      add\n        /* \"#utility.yul\":5289:5315   */\n      swap1\n      pop\n        /* \"#utility.yul\":5361:5370   */\n      dup2\n        /* \"#utility.yul\":5355:5359   */\n      dup2\n        /* \"#utility.yul\":5351:5371   */\n      sub\n        /* \"#utility.yul\":5347:5348   */\n      0x00\n        /* \"#utility.yul\":5336:5345   */\n      dup4\n        /* \"#utility.yul\":5332:5349   */\n      add\n        /* \"#utility.yul\":5325:5372   */\n      mstore\n        /* \"#utility.yul\":5389:5520   */\n      tag_181\n        /* \"#utility.yul\":5515:5519   */\n      dup2\n        /* \"#utility.yul\":5389:5520   */\n      tag_151\n      jump\t// in\n    tag_181:\n        /* \"#utility.yul\":5381:5520   */\n      swap1\n      pop\n        /* \"#utility.yul\":5108:5527   */\n      swap2\n      swap1\n      pop\n      jump\t// out\n        /* \"#utility.yul\":5533:5952   */\n    tag_88:\n        /* \"#utility.yul\":5699:5703   */\n      0x00\n        /* \"#utility.yul\":5737:5739   */\n      0x20\n        /* \"#utility.yul\":5726:5735   */\n      dup3\n        /* \"#utility.yul\":5722:5740   */\n      add\n        /* \"#utility.yul\":5714:5740   */\n      swap1\n      pop\n        /* \"#utility.yul\":5786:5795   */\n      dup2\n        /* \"#utility.yul\":5780:5784   */\n      dup2\n        /* \"#utility.yul\":5776:5796   */\n      sub\n        /* \"#utility.yul\":5772:5773   */\n      0x00\n        /* \"#utility.yul\":5761:5770   */\n      dup4\n        /* \"#utility.yul\":5757:5774   */\n      add\n        /* \"#utility.yul\":5750:5797   */\n      mstore\n        /* \"#utility.yul\":5814:5945   */\n      tag_183\n        /* \"#utility.yul\":5940:5944   */\n      dup2\n        /* \"#utility.yul\":5814:5945   */\n      tag_157\n      jump\t// in\n    tag_183:\n        /* \"#utility.yul\":5806:5945   */\n      swap1\n      pop\n        /* \"#utility.yul\":5533:5952   */\n      swap2\n      swap1\n      pop\n      jump\t// out\n        /* \"#utility.yul\":5958:6377   */\n    tag_59:\n        /* \"#utility.yul\":6124:6128   */\n      0x00\n        /* \"#utility.yul\":6162:6164   */\n      0x20\n        /* \"#utility.yul\":6151:6160   */\n      dup3\n        /* \"#utility.yul\":6147:6165   */\n      add\n        /* \"#utility.yul\":6139:6165   */\n      swap1\n      pop\n        /* \"#utility.yul\":6211:6220   */\n      dup2\n        /* \"#utility.yul\":6205:6209   */\n      dup2\n        /* \"#utility.yul\":6201:6221   */\n      sub\n        /* \"#utility.yul\":6197:6198   */\n      0x00\n        /* \"#utility.yul\":6186:6195   */\n      dup4\n        /* \"#utility.yul\":6182:6199   */\n      add\n        /* \"#utility.yul\":6175:6222   */\n      mstore\n        /* \"#utility.yul\":6239:6370   */\n      tag_185\n        /* \"#utility.yul\":6365:6369   */\n      dup2\n        /* \"#utility.yul\":6239:6370   */\n      tag_162\n      jump\t// in\n    tag_185:\n        /* \"#utility.yul\":6231:6370   */\n      swap1\n      pop\n        /* \"#utility.yul\":5958:6377   */\n      swap2\n      swap1\n      pop\n      jump\t// out\n        /* \"#utility.yul\":6383:6802   */\n    tag_63:\n        /* \"#utility.yul\":6549:6553   */\n      0x00\n        /* \"#utility.yul\":6587:6589   */\n      0x20\n        /* \"#utility.yul\":6576:6585   */\n      dup3\n        /* \"#utility.yul\":6572:6590   */\n      add\n        /* \"#utility.yul\":6564:6590   */\n      swap1\n      pop\n        /* \"#utility.yul\":6636:6645   */\n      dup2\n        /* \"#utility.yul\":6630:6634   */\n      dup2\n        /* \"#utility.yul\":6626:6646   */\n      sub\n        /* \"#utility.yul\":6622:6623   */\n      0x00\n        /* \"#utility.yul\":6611:6620   */\n      dup4\n        /* \"#utility.yul\":6607:6624   */\n      add\n        /* \"#utility.yul\":6600:6647   */\n      mstore\n        /* \"#utility.yul\":6664:6795   */\n      tag_187\n        /* \"#utility.yul\":6790:6794   */\n      dup2\n        /* \"#utility.yul\":6664:6795   */\n      tag_167\n      jump\t// in\n    tag_187:\n        /* \"#utility.yul\":6656:6795   */\n      swap1\n      pop\n        /* \"#utility.yul\":6383:6802   */\n      swap2\n      swap1\n      pop\n      jump\t// out\n        /* \"#utility.yul\":6808:7030   */\n    tag_15:\n        /* \"#utility.yul\":6901:6905   */\n      0x00\n        /* \"#utility.yul\":6939:6941   */\n      0x20\n        /* \"#utility.yul\":6928:6937   */\n      dup3\n        /* \"#utility.yul\":6924:6942   */\n      add\n        /* \"#utility.yul\":6916:6942   */\n      swap1\n      pop\n        /* \"#utility.yul\":6952:7023   */\n      tag_189\n        /* \"#utility.yul\":7020:7021   */\n      0x00\n        /* \"#utility.yul\":7009:7018   */\n      dup4\n        /* \"#utility.yul\":7005:7022   */\n      add\n        /* \"#utility.yul\":6996:7002   */\n      dup5\n        /* \"#utility.yul\":6952:7023   */\n      tag_172\n      jump\t// in\n    tag_189:\n        /* \"#utility.yul\":6808:7030   */\n      swap3\n      swap2\n      pop\n      pop\n      jump\t// out\n        /* \"#utility.yul\":7117:7257   */\n    tag_147:\n        /* \"#utility.yul\":7165:7169   */\n      0x00\n        /* \"#utility.yul\":7188:7191   */\n      dup2\n        /* \"#utility.yul\":7180:7191   */\n      swap1\n      pop\n        /* \"#utility.yul\":7211:7214   */\n      dup2\n        /* \"#utility.yul\":7208:7209   */\n      0x00\n        /* \"#utility.yul\":7201:7215   */\n      mstore\n        /* \"#utility.yul\":7245:7249   */\n      0x20\n        /* \"#utility.yul\":7242:7243   */\n      0x00\n        /* \"#utility.yul\":7232:7250   */\n      keccak256\n        /* \"#utility.yul\":7224:7250   */\n      swap1\n      pop\n        /* \"#utility.yul\":7117:7257   */\n      swap2\n      swap1\n      pop\n      jump\t// out\n        /* \"#utility.yul\":7263:7410   */\n    tag_142:\n        /* \"#utility.yul\":7364:7375   */\n      0x00\n        /* \"#utility.yul\":7401:7404   */\n      dup2\n        /* \"#utility.yul\":7386:7404   */\n      swap1\n      pop\n        /* \"#utility.yul\":7263:7410   */\n      swap3\n      swap2\n      pop\n      pop\n      jump\t// out\n        /* \"#utility.yul\":7416:7585   */\n    tag_154:\n        /* \"#utility.yul\":7500:7511   */\n      0x00\n        /* \"#utility.yul\":7534:7540   */\n      dup3\n        /* \"#utility.yul\":7529:7532   */\n      dup3\n        /* \"#utility.yul\":7522:7541   */\n      mstore\n        /* \"#utility.yul\":7574:7578   */\n      0x20\n        /* \"#utility.yul\":7569:7572   */\n      dup3\n        /* \"#utility.yul\":7565:7579   */\n      add\n        /* \"#utility.yul\":7550:7579   */\n      swap1\n      pop\n        /* \"#utility.yul\":7416:7585   */\n      swap3\n      swap2\n      pop\n      pop\n      jump\t// out\n        /* \"#utility.yul\":7591:7687   */\n    tag_195:\n        /* \"#utility.yul\":7628:7635   */\n      0x00\n        /* \"#utility.yul\":7657:7681   */\n      tag_197\n        /* \"#utility.yul\":7675:7680   */\n      dup3\n        /* \"#utility.yul\":7657:7681   */\n      tag_198\n      jump\t// in\n    tag_197:\n        /* \"#utility.yul\":7646:7681   */\n      swap1\n      pop\n        /* \"#utility.yul\":7591:7687   */\n      swap2\n      swap1\n      pop\n      jump\t// out\n        /* \"#utility.yul\":7693:7783   */\n    tag_137:\n        /* \"#utility.yul\":7727:7734   */\n      0x00\n        /* \"#utility.yul\":7770:7775   */\n      dup2\n        /* \"#utility.yul\":7763:7776   */\n      iszero\n        /* \"#utility.yul\":7756:7777   */\n      iszero\n        /* \"#utility.yul\":7745:7777   */\n      swap1\n      pop\n        /* \"#utility.yul\":7693:7783   */\n      swap2\n      swap1\n      pop\n      jump\t// out\n        /* \"#utility.yul\":7789:7915   */\n    tag_198:\n        /* \"#utility.yul\":7826:7833   */\n      0x00\n        /* \"#utility.yul\":7866:7908   */\n      0xffffffffffffffffffffffffffffffffffffffff\n        /* \"#utility.yul\":7859:7864   */\n      dup3\n        /* \"#utility.yul\":7855:7909   */\n      and\n        /* \"#utility.yul\":7844:7909   */\n      swap1\n      pop\n        /* \"#utility.yul\":7789:7915   */\n      swap2\n      swap1\n      pop\n      jump\t// out\n        /* \"#utility.yul\":7921:7998   */\n    tag_175:\n        /* \"#utility.yul\":7958:7965   */\n      0x00\n        /* \"#utility.yul\":7987:7992   */\n      dup2\n        /* \"#utility.yul\":7976:7992   */\n      swap1\n      pop\n        /* \"#utility.yul\":7921:7998   */\n      swap2\n      swap1\n      pop\n      jump\t// out\n        /* \"#utility.yul\":8004:8324   */\n    tag_90:\n        /* \"#utility.yul\":8048:8054   */\n      0x00\n        /* \"#utility.yul\":8085:8086   */\n      0x02\n        /* \"#utility.yul\":8079:8083   */\n      dup3\n        /* \"#utility.yul\":8075:8087   */\n      div\n        /* \"#utility.yul\":8065:8087   */\n      swap1\n      pop\n        /* \"#utility.yul\":8132:8133   */\n      0x01\n        /* \"#utility.yul\":8126:8130   */\n      dup3\n        /* \"#utility.yul\":8122:8134   */\n      and\n        /* \"#utility.yul\":8153:8171   */\n      dup1\n        /* \"#utility.yul\":8143:8224   */\n      tag_203\n      jumpi\n        /* \"#utility.yul\":8209:8213   */\n      0x7f\n        /* \"#utility.yul\":8201:8207   */\n      dup3\n        /* \"#utility.yul\":8197:8214   */\n      and\n        /* \"#utility.yul\":8187:8214   */\n      swap2\n      pop\n        /* \"#utility.yul\":8143:8224   */\n    tag_203:\n        /* \"#utility.yul\":8271:8273   */\n      0x20\n        /* \"#utility.yul\":8263:8269   */\n      dup3\n        /* \"#utility.yul\":8260:8274   */\n      lt\n        /* \"#utility.yul\":8240:8258   */\n      dup2\n        /* \"#utility.yul\":8237:8275   */\n      eq\n        /* \"#utility.yul\":8234:8318   */\n      iszero\n      tag_204\n      jumpi\n        /* \"#utility.yul\":8290:8308   */\n      tag_205\n      tag_206\n      jump\t// in\n    tag_205:\n        /* \"#utility.yul\":8234:8318   */\n    tag_204:\n        /* \"#utility.yul\":8055:8324   */\n      pop\n        /* \"#utility.yul\":8004:8324   */\n      swap2\n      swap1\n      pop\n      jump\t// out\n        /* \"#utility.yul\":8330:8563   */\n    tag_42:\n        /* \"#utility.yul\":8369:8372   */\n      0x00\n        /* \"#utility.yul\":8392:8416   */\n      tag_208\n        /* \"#utility.yul\":8410:8415   */\n      dup3\n        /* \"#utility.yul\":8392:8416   */\n      tag_175\n      jump\t// in\n    tag_208:\n        /* \"#utility.yul\":8383:8416   */\n      swap2\n      pop\n        /* \"#utility.yul\":8438:8504   */\n      0xffffffffffffffffffffffffffffffffffffffffffffffffffffffffffffffff\n        /* \"#utility.yul\":8431:8436   */\n      dup3\n        /* \"#utility.yul\":8428:8505   */\n      eq\n        /* \"#utility.yul\":8425:8528   */\n      iszero\n      tag_209\n      jumpi\n        /* \"#utility.yul\":8508:8526   */\n      tag_210\n      tag_211\n      jump\t// in\n    tag_210:\n        /* \"#utility.yul\":8425:8528   */\n    tag_209:\n        /* \"#utility.yul\":8555:8556   */\n      0x01\n        /* \"#utility.yul\":8548:8553   */\n      dup3\n        /* \"#utility.yul\":8544:8557   */\n      add\n        /* \"#utility.yul\":8537:8557   */\n      swap1\n      pop\n        /* \"#utility.yul\":8330:8563   */\n      swap2\n      swap1\n      pop\n      jump\t// out\n        /* \"#utility.yul\":8569:8749   */\n    tag_211:\n        /* \"#utility.yul\":8617:8694   */\n      0x4e487b7100000000000000000000000000000000000000000000000000000000\n        /* \"#utility.yul\":8614:8615   */\n      0x00\n        /* \"#utility.yul\":8607:8695   */\n      mstore\n        /* \"#utility.yul\":8714:8718   */\n      0x11\n        /* \"#utility.yul\":8711:8712   */\n      0x04\n        /* \"#utility.yul\":8704:8719   */\n      mstore\n        /* \"#utility.yul\":8738:8742   */\n      0x24\n        /* \"#utility.yul\":8735:8736   */\n      0x00\n        /* \"#utility.yul\":8728:8743   */\n      revert\n        /* \"#utility.yul\":8755:8935   */\n    tag_206:\n        /* \"#utility.yul\":8803:8880   */\n      0x4e487b7100000000000000000000000000000000000000000000000000000000\n        /* \"#utility.yul\":8800:8801   */\n      0x00\n        /* \"#utility.yul\":8793:8881   */\n      mstore\n        /* \"#utility.yul\":8900:8904   */\n      0x22\n        /* \"#utility.yul\":8897:8898   */\n      0x04\n        /* \"#utility.yul\":8890:8905   */\n      mstore\n        /* \"#utility.yul\":8924:8928   */\n      0x24\n        /* \"#utility.yul\":8921:8922   */\n      0x00\n        /* \"#utility.yul\":8914:8929   */\n      revert\n        /* \"#utility.yul\":8941:9121   */\n    tag_38:\n        /* \"#utility.yul\":8989:9066   */\n      0x4e487b7100000000000000000000000000000000000000000000000000000000\n        /* \"#utility.yul\":8986:8987   */\n      0x00\n        /* \"#utility.yul\":8979:9067   */\n      mstore\n        /* \"#utility.yul\":9086:9090   */\n      0x32\n        /* \"#utility.yul\":9083:9084   */\n      0x04\n        /* \"#utility.yul\":9076:9091   */\n      mstore\n        /* \"#utility.yul\":9110:9114   */\n      0x24\n        /* \"#utility.yul\":9107:9108   */\n      0x00\n        /* \"#utility.yul\":9100:9115   */\n      revert\n        /* \"#utility.yul\":9127:9244   */\n    tag_112:\n        /* \"#utility.yul\":9236:9237   */\n      0x00\n        /* \"#utility.yul\":9233:9234   */\n      dup1\n        /* \"#utility.yul\":9226:9238   */\n      revert\n        /* \"#utility.yul\":9250:9367   */\n    tag_109:\n        /* \"#utility.yul\":9359:9360   */\n      0x00\n        /* \"#utility.yul\":9356:9357   */\n      dup1\n        /* \"#utility.yul\":9349:9361   */\n      revert\n        /* \"#utility.yul\":9373:9490   */\n    tag_115:\n        /* \"#utility.yul\":9482:9483   */\n      0x00\n        /* \"#utility.yul\":9479:9480   */\n      dup1\n        /* \"#utility.yul\":9472:9484   */\n      revert\n        /* \"#utility.yul\":9496:9613   */\n    tag_128:\n        /* \"#utility.yul\":9605:9606   */\n      0x00\n        /* \"#utility.yul\":9602:9603   */\n      dup1\n        /* \"#utility.yul\":9595:9607   */\n      revert\n        /* \"#utility.yul\":9619:9736   */\n    tag_123:\n        /* \"#utility.yul\":9728:9729   */\n      0x00\n        /* \"#utility.yul\":9725:9726   */\n      dup1\n        /* \"#utility.yul\":9718:9730   */\n      revert\n        /* \"#utility.yul\":9742:9908   */\n    tag_156:\n        /* \"#utility.yul\":9882:9900   */\n      0x616c726561647920657865637574656400000000000000000000000000000000\n        /* \"#utility.yul\":9878:9879   */\n      0x00\n        /* \"#utility.yul\":9870:9876   */\n      dup3\n        /* \"#utility.yul\":9866:9880   */\n      add\n        /* \"#utility.yul\":9859:9901   */\n      mstore\n        /* \"#utility.yul\":9742:9908   */\n      pop\n      jump\t// out\n        /* \"#utility.yul\":9914:10070   */\n    tag_161:\n        /* \"#utility.yul\":10054:10062   */\n      0x6661696c65640000000000000000000000000000000000000000000000000000\n        /* \"#utility.yul\":10050:10051   */\n      0x00\n        /* \"#utility.yul\":10042:10048   */\n      dup3\n        /* \"#utility.yul\":10038:10052   */\n      add\n        /* \"#utility.yul\":10031:10063   */\n      mstore\n        /* \"#utility.yul\":9914:10070   */\n      pop\n      jump\t// out\n        /* \"#utility.yul\":10076:10242   */\n    tag_166:\n        /* \"#utility.yul\":10216:10234   */\n      0x6176726561647920657865637574656400000000000000000000000000000000\n        /* \"#utility.yul\":10212:10213   */\n      0x00\n        /* \"#utility.yul\":10204:10210   */\n      dup3\n        /* \"#utility.yul\":10200:10214   */\n      add\n        /* \"#utility.yul\":10193:10235   */\n      mstore\n        /* \"#utility.yul\":10076:10242   */\n      pop\n      jump\t// out\n        /* \"#utility.yul\":10248:10411   */\n    tag_171:\n        /* \"#utility.yul\":10388:10403   */\n      0x696e76616c696420696e64657800000000000000000000000000000000000000\n        /* \"#utility.yul\":10384:10385   */\n      0x00\n        /* \"#utility.yul\":10376:10382   */\n      dup3\n        /* \"#utility.yul\":10372:10386   */\n      add\n        /* \"#utility.yul\":10365:10404   */\n      mstore\n        /* \"#utility.yul\":10248:10411   */\n      pop\n      jump\t// out\n        /* \"#utility.yul\":10417:10539   */\n    tag_104:\n        /* \"#utility.yul\":10490:10514   */\n      tag_225\n        /* \"#utility.yul\":10508:10513   */\n      dup2\n        /* \"#utility.yul\":10490:10514   */\n      tag_195\n      jump\t// in\n    tag_225:\n        /* \"#utility.yul\":10483:10488   */\n      dup2\n        /* \"#utility.yul\":10480:10515   */\n      eq\n        /* \"#utility.yul\":10470:10533   */\n      tag_226\n      jumpi\n        /* \"#utility.yul\":10529:10530   */\n      0x00\n        /* \"#utility.yul\":10526:10527   */\n      dup1\n        /* \"#utility.yul\":10519:10531   */\n      revert\n        /* \"#utility.yul\":10470:10533   */\n    tag_226:\n        /* \"#utility.yul\":10417:10539   */\n      pop\n      jump\t// out\n        /* \"#utility.yul\":10545:10667   */\n    tag_119:\n        /* \"#utility.yul\":10618:10642   */\n      tag_228\n        /* \"#utility.yul\":10636:10641   */\n      dup2\n        /* \"#utility.yul\":10618:10642   */\n      tag_175\n      jump\t// in\n    tag_228:\n        /* \"#utility.yul\":10611:10616   */\n      dup2\n        /* \"#utility.yul\":10608:10643   */\n      eq\n        /* \"#utility.yul\":10598:10661   */\n      tag_229\n      jumpi\n        /* \"#utility.yul\":10657:10658   */\n      0x00\n        /* \"#utility.yul\":10654:10655   */\n      dup1\n        /* \"#utility.yul\":10647:10659   */\n      revert\n        /* \"#utility.yul\":10598:10661   */\n    tag_229:\n        /* \"#utility.yul\":10545:10667   */\n      pop\n      jump\t// out\n\n    auxdata: 0xa26469706673582212206ac3df6a83d7734b007ec3291c49b5f212aea7010d84b194ae5803e528247b0c64736f6c63430008070033\n}\n",
				"bytecode": {
					"linkReferences": {},
					"object": "60806040523480156200001157600080fd5b50604051620014c0380380620014c0833981810160405281019062000037919062000382565b60008251116200007e576040517f08c379a00000000000000000000000000000000000000000000000000000000081526004016200007590620004a1565b60405180910390fd5b60005b82518110156200029d576000838281518110620000a357620000a262000627565b5b60200260200101519050600073ffffffffffffffffffffffffffffffffffffffff16848381518110620000db57620000da62000627565b5b602002602001015173ffffffffffffffffffffffffffffffffffffffff1614156200013d576040517f08c379a000000000000000000000000000000000000000000000000000000000815260040162000134906200047f565b60405180910390fd5b6000808273ffffffffffffffffffffffffffffffffffffffff1673ffffffffffffffffffffffffffffffffffffffff16815260200190815260200160002060009054906101000a900460ff1615620001cc576040517f08c379a0000000000000000000000000000000000000000000000000000000008152600401620001c3906200045d565b60405180910390fd5b60016000808373ffffffffffffffffffffffffffffffffffffffff1673ffffffffffffffffffffffffffffffffffffffff16815260200190815260200160002060006101000a81548160ff0219169083151502179055506001819080600181540180825580915050600190039060005260206000200160009091909190916101000a81548173ffffffffffffffffffffffffffffffffffffffff021916908373ffffffffffffffffffffffffffffffffffffffff1602179055505080806200029490620005aa565b91505062000081565b50505062000759565b6000620002bd620002b784620004ec565b620004c3565b90508083825260208201905082856020860282011115620002e357620002e26200068a565b5b60005b85811015620003175781620002fc888262000321565b845260208401935060208301925050600181019050620002e6565b5050509392505050565b600081519050620003328162000725565b92915050565b600082601f83011262000350576200034f62000685565b5b815162000362848260208601620002a6565b91505092915050565b6000815190506200037c816200073f565b92915050565b600080604083850312156200039c576200039b62000694565b5b600083015167ffffffffffffffff811115620003bd57620003bc6200068f565b5b620003cb8582860162000338565b9250506020620003de858286016200036b565b9150509250929050565b6000620003f7600d836200051b565b91506200040482620006aa565b602082019050919050565b60006200041e600f836200051b565b91506200042b82620006d3565b602082019050919050565b6000620004456009836200051b565b91506200045282620006fc565b602082019050919050565b600060208201905081810360008301526200047881620003e8565b9050919050565b600060208201905081810360008301526200049a816200040f565b9050919050565b60006020820190508181036000830152620004bc8162000436565b9050919050565b6000620004cf620004e2565b9050620004dd828262000574565b919050565b6000604051905090565b600067ffffffffffffffff8211156200050a576200050962000656565b5b602082029050602081019050919050565b600082825260208201905092915050565b600062000539826200054a565b9050919050565b6000819050919050565b600073ffffffffffffffffffffffffffffffffffffffff82169050919050565b6000819050919050565b6200057f8262000699565b810181811067ffffffffffffffff82111715620005a157620005a062000656565b5b80604052505050565b6000620005b7826200056a565b91507fffffffffffffffffffffffffffffffffffffffffffffffffffffffffffffffff821415620005ed57620005ec620005f8565b5b600182019050919050565b7f4e487b7100000000000000000000000000000000000000000000000000000000600052601160045260246000fd5b7f4e487b7100000000000000000000000000000000000000000000000000000000600052603260045260246000fd5b7f4e487b7100000000000000000000000000000000000000000000000000000000600052604160045260246000fd5b600080fd5b600080fd5b600080fd5b600080fd5b6000601f19601f8301169050919050565b7f616c7265616479206f776e657200000000000000000000000000000000000000600082015250565b7f696e76616c696420616464726573730000000000000000000000000000000000600082015250565b7f6e6f206f776e6572730000000000000000000000000000000000000000000000600082015250565b62000730816200052c565b81146200073c57600080fd5b50565b6200074a8162000540565b81146200075657600080fd5b50565b610d5780620007696000396000f3fe6080604052600436106100435760003560e01c8063073cbe491461004f57806314de327f1461008c578063b759f954146100b5578063fe0d94c1146100de5761004a565b3661004a57005b600080fd5b34801561005b57600080fd5b5061007660048036038101906100719190610892565b61011b565b6040516100839190610a9a565b60405180910390f35b34801561009857600080fd5b506100b360048036038101906100ae919061081e565b610207565b005b3480156100c157600080fd5b506100dc60048036038101906100d79190610892565b6103a1565b005b3480156100ea57600080fd5b5061010560048036038101906101009190610892565b6104e6565b60405161011291906109ff565b60405180910390f35b6000600280549050821061012e57600080fd5b60005b600180549050811015610201576004600084815260200190815260200160002060006001838154811061016757610166610c07565b5b9060005260206000200160009054906101000a900473ffffffffffffffffffffffffffffffffffffffff1673ffffffffffffffffffffffffffffffffffffffff1673ffffffffffffffffffffffffffffffffffffffff16815260200190815260200160002060009054906101000a900460ff16156101ee5781806101ea90610b60565b9250505b80806101f990610b60565b915050610131565b50919050565b6000803373ffffffffffffffffffffffffffffffffffffffff1673ffffffffffffffffffffffffffffffffffffffff16815260200190815260200160002060009054906101000a900460ff1661025c57600080fd5b600060405180608001604052808673ffffffffffffffffffffffffffffffffffffffff16815260200185815260200184848080601f016020809104026020016040519081016040528093929190818152602001838380828437600081840152601f19601f820116905080830192505050505050508152602001600015158152509050600281908060018154018082558091505060019003906000526020600020906004020160009091909190915060008201518160000160006101000a81548173ffffffffffffffffffffffffffffffffffffffff021916908373ffffffffffffffffffffffffffffffffffffffff1602179055506020820151816001015560408201518160020190805190602001906103779291906106fb565b5060608201518160030160006101000a81548160ff02191690831515021790555050505050505050565b6000803373ffffffffffffffffffffffffffffffffffffffff1673ffffffffffffffffffffffffffffffffffffffff16815260200190815260200160002060009054906101000a900460ff166103f657600080fd5b600280549050811061040757600080fd5b6002818154811061041b5761041a610c07565b5b906000526020600020906004020160030160009054906101000a900460ff161561047a576040517f08c379a000000000000000000000000000000000000000000000000000000000815260040161047190610a5a565b60405180910390fd5b60016004600083815260200190815260200160002060003373ffffffffffffffffffffffffffffffffffffffff1673ffffffffffffffffffffffffffffffffffffffff16815260200190815260200160002060006101000a81548160ff02191690831515021790555050565b6000600280549050821061052f576040517f08c379a000000000000000000000000000000000000000000000000000000000815260040161052690610a7a565b60405180910390fd5b6002828154811061054357610542610c07565b5b906000526020600020906004020160030160009054906101000a900460ff16156105a2576040517f08c379a000000000000000000000000000000000000000000000000000000000815260040161059990610a1a565b60405180910390fd5b6003546105ae8361011b565b11156106f2576000600283815481106105ca576105c9610c07565b5b906000526020600020906004020160000160009054906101000a900473ffffffffffffffffffffffffffffffffffffffff1673ffffffffffffffffffffffffffffffffffffffff166002848154811061062657610625610c07565b5b9060005260206000209060040201600101546002858154811061064c5761064b610c07565b5b906000526020600020906004020160020160405161066a91906109e8565b60006040518083038185875af1925050503d80600081146106a7576040519150601f19603f3d011682016040523d82523d6000602084013e6106ac565b606091505b50509050806106f0576040517f08c379a00000000000000000000000000000000000000000000000000000000081526004016106e790610a3a565b60405180910390fd5b505b60019050919050565b82805461070790610b2e565b90600052602060002090601f0160209004810192826107295760008555610770565b82601f1061074257805160ff1916838001178555610770565b82800160010185558215610770579182015b8281111561076f578251825591602001919060010190610754565b5b50905061077d9190610781565b5090565b5b8082111561079a576000816000905550600101610782565b5090565b6000813590506107ad81610cf3565b92915050565b60008083601f8401126107c9576107c8610c3b565b5b8235905067ffffffffffffffff8111156107e6576107e5610c36565b5b60208301915083600182028301111561080257610801610c40565b5b9250929050565b60008135905061081881610d0a565b92915050565b6000806000806060858703121561083857610837610c4a565b5b60006108468782880161079e565b945050602061085787828801610809565b935050604085013567ffffffffffffffff81111561087857610877610c45565b5b610884878288016107b3565b925092505092959194509250565b6000602082840312156108a8576108a7610c4a565b5b60006108b684828501610809565b91505092915050565b6108c881610af8565b82525050565b600081546108db81610b2e565b6108e58186610aca565b94506001821660008114610900576001811461091157610944565b60ff19831686528186019350610944565b61091a85610ab5565b60005b8381101561093c5781548189015260018201915060208101905061091d565b838801955050505b50505092915050565b600061095a601083610ad5565b915061096582610c4f565b602082019050919050565b600061097d600683610ad5565b915061098882610c78565b602082019050919050565b60006109a0601083610ad5565b91506109ab82610ca1565b602082019050919050565b60006109c3600d83610ad5565b91506109ce82610cca565b602082019050919050565b6109e281610b24565b82525050565b60006109f482846108ce565b915081905092915050565b6000602082019050610a1460008301846108bf565b92915050565b60006020820190508181036000830152610a338161094d565b9050919050565b60006020820190508181036000830152610a5381610970565b9050919050565b60006020820190508181036000830152610a7381610993565b9050919050565b60006020820190508181036000830152610a93816109b6565b9050919050565b6000602082019050610aaf60008301846109d9565b92915050565b60008190508160005260206000209050919050565b600081905092915050565b600082825260208201905092915050565b6000610af182610b04565b9050919050565b60008115159050919050565b600073ffffffffffffffffffffffffffffffffffffffff82169050919050565b6000819050919050565b60006002820490506001821680610b4657607f821691505b60208210811415610b5a57610b59610bd8565b5b50919050565b6000610b6b82610b24565b91507fffffffffffffffffffffffffffffffffffffffffffffffffffffffffffffffff821415610b9e57610b9d610ba9565b5b600182019050919050565b7f4e487b7100000000000000000000000000000000000000000000000000000000600052601160045260246000fd5b7f4e487b7100000000000000000000000000000000000000000000000000000000600052602260045260246000fd5b7f4e487b7100000000000000000000000000000000000000000000000000000000600052603260045260246000fd5b600080fd5b600080fd5b600080fd5b600080fd5b600080fd5b7f616c726561647920657865637574656400000000000000000000000000000000600082015250565b7f6661696c65640000000000000000000000000000000000000000000000000000600082015250565b7f6176726561647920657865637574656400000000000000000000000000000000600082015250565b7f696e76616c696420696e64657800000000000000000000000000000000000000600082015250565b610cfc81610ae6565b8114610d0757600080fd5b50565b610d1381610b24565b8114610d1e57600080fd5b5056fea26469706673582212206ac3df6a83d7734b007ec3291c49b5f212aea7010d84b194ae5803e528247b0c64736f6c63430008070033",
					"opcodes": "PUSH1 0x80 PUSH1 0x40 MSTORE CALLVALUE DUP1 ISZERO PUSH3 0x11 JUMPI PUSH1 0x0 DUP1 REVERT JUMPDEST POP PUSH1 0x40 MLOAD PUSH3 0x14C0 CODESIZE SUB DUP1 PUSH3 0x14C0 DUP4 CODECOPY DUP2 DUP2 ADD PUSH1 0x40 MSTORE DUP2 ADD SWAP1 PUSH3 0x37 SWAP2 SWAP1 PUSH3 0x382 JUMP JUMPDEST PUSH1 0x0 DUP3 MLOAD GT PUSH3 0x7E JUMPI PUSH1 0x40 MLOAD PUSH32 0x8C379A000000000000000000000000000000000000000000000000000000000 DUP2 MSTORE PUSH1 0x4 ADD PUSH3 0x75 SWAP1 PUSH3 0x4A1 JUMP JUMPDEST PUSH1 0x40 MLOAD DUP1 SWAP2 SUB SWAP1 REVERT JUMPDEST PUSH1 0x0 JUMPDEST DUP3 MLOAD DUP2 LT ISZERO PUSH3 0x29D JUMPI PUSH1 0x0 DUP4 DUP3 DUP2 MLOAD DUP2 LT PUSH3 0xA3 JUMPI PUSH3 0xA2 PUSH3 0x627 JUMP JUMPDEST JUMPDEST PUSH1 0x20 MUL PUSH1 0x20 ADD ADD MLOAD SWAP1 POP PUSH1 0x0 PUSH20 0xFFFFFFFFFFFFFFFFFFFFFFFFFFFFFFFFFFFFFFFF AND DUP5 DUP4 DUP2 MLOAD DUP2 LT PUSH3 0xDB JUMPI PUSH3 0xDA PUSH3 0x627 JUMP JUMPDEST JUMPDEST PUSH1 0x20 MUL PUSH1 0x20 ADD ADD MLOAD PUSH20 0xFFFFFFFFFFFFFFFFFFFFFFFFFFFFFFFFFFFFFFFF AND EQ ISZERO PUSH3 0x13D JUMPI PUSH1 0x40 MLOAD PUSH32 0x8C379A000000000000000000000000000000000000000000000000000000000 DUP2 MSTORE PUSH1 0x4 ADD PUSH3 0x134 SWAP1 PUSH3 0x47F JUMP JUMPDEST PUSH1 0x40 MLOAD DUP1 SWAP2 SUB SWAP1 REVERT JUMPDEST PUSH1 0x0 DUP1 DUP3 PUSH20 0xFFFFFFFFFFFFFFFFFFFFFFFFFFFFFFFFFFFFFFFF AND PUSH20 0xFFFFFFFFFFFFFFFFFFFFFFFFFFFFFFFFFFFFFFFF AND DUP2 MSTORE PUSH1 0x20 ADD SWAP1 DUP2 MSTORE PUSH1 0x20 ADD PUSH1 0x0 KECCAK256 PUSH1 0x0 SWAP1 SLOAD SWAP1 PUSH2 0x100 EXP SWAP1 DIV PUSH1 0xFF AND ISZERO PUSH3 0x1CC JUMPI PUSH1 0x40 MLOAD PUSH32 0x8C379A000000000000000000000000000000000000000000000000000000000 DUP2 MSTORE PUSH1 0x4 ADD PUSH3 0x1C3 SWAP1 PUSH3 0x45D JUMP JUMPDEST PUSH1 0x40 MLOAD DUP1 SWAP2 SUB SWAP1 REVERT JUMPDEST PUSH1 0x1 PUSH1 0x0 DUP1 DUP4 PUSH20 0xFFFFFFFFFFFFFFFFFFFFFFFFFFFFFFFFFFFFFFFF AND PUSH20 0xFFFFFFFFFFFFFFFFFFFFFFFFFFFFFFFFFFFFFFFF AND DUP2 MSTORE PUSH1 0x20 ADD SWAP1 DUP2 MSTORE PUSH1 0x20 ADD PUSH1 0x0 KECCAK256 PUSH1 0x0 PUSH2 0x100 EXP DUP2 SLOAD DUP2 PUSH1 0xFF MUL NOT AND SWAP1 DUP4 ISZERO ISZERO MUL OR SWAP1 SSTORE POP PUSH1 0x1 DUP2 SWAP1 DUP1 PUSH1 0x1 DUP2 SLOAD ADD DUP1 DUP3 SSTORE DUP1 SWAP2 POP POP PUSH1 0x1 SWAP1 SUB SWAP1 PUSH1 0x0 MSTORE PUSH1 0x20 PUSH1 0x0 KECCAK256 ADD PUSH1 0x0 SWAP1 SWAP2 SWAP1 SWAP2 SWAP1 SWAP2 PUSH2 0x100 EXP DUP2 SLOAD DUP2 PUSH20 0xFFFFFFFFFFFFFFFFFFFFFFFFFFFFFFFFFFFFFFFF MUL NOT AND SWAP1 DUP4 PUSH20 0xFFFFFFFFFFFFFFFFFFFFFFFFFFFFFFFFFFFFFFFF AND MUL OR SWAP1 SSTORE POP POP DUP1 DUP1 PUSH3 0x294 SWAP1 PUSH3 0x5AA JUMP JUMPDEST SWAP2 POP POP PUSH3 0x81 JUMP JUMPDEST POP POP POP PUSH3 0x759 JUMP JUMPDEST PUSH1 0x0 PUSH3 0x2BD PUSH3 0x2B7 DUP5 PUSH3 0x4EC JUMP JUMPDEST PUSH3 0x4C3 JUMP JUMPDEST SWAP1 POP DUP1 DUP4 DUP3 MSTORE PUSH1 0x20 DUP3 ADD SWAP1 POP DUP3 DUP6 PUSH1 0x20 DUP7 MUL DUP3 ADD GT ISZERO PUSH3 0x2E3 JUMPI PUSH3 0x2E2 PUSH3 0x68A JUMP JUMPDEST JUMPDEST PUSH1 0x0 JUMPDEST DUP6 DUP2 LT ISZERO PUSH3 0x317 JUMPI DUP2 PUSH3 0x2FC DUP9 DUP3 PUSH3 0x321 JUMP JUMPDEST DUP5 MSTORE PUSH1 0x20 DUP5 ADD SWAP4 POP PUSH1 0x20 DUP4 ADD SWAP3 POP POP PUSH1 0x1 DUP2 ADD SWAP1 POP PUSH3 0x2E6 JUMP JUMPDEST POP POP POP SWAP4 SWAP3 POP POP POP JUMP JUMPDEST PUSH1 0x0 DUP2 MLOAD SWAP1 POP PUSH3 0x332 DUP2 PUSH3 0x725 JUMP JUMPDEST SWAP3 SWAP2 POP POP JUMP JUMPDEST PUSH1 0x0 DUP3 PUSH1 0x1F DUP4 ADD SLT PUSH3 0x350 JUMPI PUSH3 0x34F PUSH3 0x685 JUMP JUMPDEST JUMPDEST DUP2 MLOAD PUSH3 0x362 DUP5 DUP3 PUSH1 0x20 DUP7 ADD PUSH3 0x2A6 JUMP JUMPDEST SWAP2 POP POP SWAP3 SWAP2 POP POP JUMP JUMPDEST PUSH1 0x0 DUP2 MLOAD SWAP1 POP PUSH3 0x37C DUP2 PUSH3 0x73F JUMP JUMPDEST SWAP3 SWAP2 POP POP JUMP JUMPDEST PUSH1 0x0 DUP1 PUSH1 0x40 DUP4 DUP6 SUB SLT ISZERO PUSH3 0x39C JUMPI PUSH3 0x39B PUSH3 0x694 JUMP JUMPDEST JUMPDEST PUSH1 0x0 DUP4 ADD MLOAD PUSH8 0xFFFFFFFFFFFFFFFF DUP2 GT ISZERO PUSH3 0x3BD JUMPI PUSH3 0x3BC PUSH3 0x68F JUMP JUMPDEST JUMPDEST PUSH3 0x3CB DUP6 DUP3 DUP7 ADD PUSH3 0x338 JUMP JUMPDEST SWAP3 POP POP PUSH1 0x20 PUSH3 0x3DE DUP6 DUP3 DUP7 ADD PUSH3 0x36B JUMP JUMPDEST SWAP2 POP POP SWAP3 POP SWAP3 SWAP1 POP JUMP JUMPDEST PUSH1 0x0 PUSH3 0x3F7 PUSH1 0xD DUP4 PUSH3 0x51B JUMP JUMPDEST SWAP2 POP PUSH3 0x404 DUP3 PUSH3 0x6AA JUMP JUMPDEST PUSH1 0x20 DUP3 ADD SWAP1 POP SWAP2 SWAP1 POP JUMP JUMPDEST PUSH1 0x0 PUSH3 0x41E PUSH1 0xF DUP4 PUSH3 0x51B JUMP JUMPDEST SWAP2 POP PUSH3 0x42B DUP3 PUSH3 0x6D3 JUMP JUMPDEST PUSH1 0x20 DUP3 ADD SWAP1 POP SWAP2 SWAP1 POP JUMP JUMPDEST PUSH1 0x0 PUSH3 0x445 PUSH1 0x9 DUP4 PUSH3 0x51B JUMP JUMPDEST SWAP2 POP PUSH3 0x452 DUP3 PUSH3 0x6FC JUMP JUMPDEST PUSH1 0x20 DUP3 ADD SWAP1 POP SWAP2 SWAP1 POP JUMP JUMPDEST PUSH1 0x0 PUSH1 0x20 DUP3 ADD SWAP1 POP DUP2 DUP2 SUB PUSH1 0x0 DUP4 ADD MSTORE PUSH3 0x478 DUP2 PUSH3 0x3E8 JUMP JUMPDEST SWAP1 POP SWAP2 SWAP1 POP JUMP JUMPDEST PUSH1 0x0 PUSH1 0x20 DUP3 ADD SWAP1 POP DUP2 DUP2 SUB PUSH1 0x0 DUP4 ADD MSTORE PUSH3 0x49A DUP2 PUSH3 0x40F JUMP JUMPDEST SWAP1 POP SWAP2 SWAP1 POP JUMP JUMPDEST PUSH1 0x0 PUSH1 0x20 DUP3 ADD SWAP1 POP DUP2 DUP2 SUB PUSH1 0x0 DUP4 ADD MSTORE PUSH3 0x4BC DUP2 PUSH3 0x436 JUMP JUMPDEST SWAP1 POP SWAP2 SWAP1 POP JUMP JUMPDEST PUSH1 0x0 PUSH3 0x4CF PUSH3 0x4E2 JUMP JUMPDEST SWAP1 POP PUSH3 0x4DD DUP3 DUP3 PUSH3 0x574 JUMP JUMPDEST SWAP2 SWAP1 POP JUMP JUMPDEST PUSH1 0x0 PUSH1 0x40 MLOAD SWAP1 POP SWAP1 JUMP JUMPDEST PUSH1 0x0 PUSH8 0xFFFFFFFFFFFFFFFF DUP3 GT ISZERO PUSH3 0x50A JUMPI PUSH3 0x509 PUSH3 0x656 JUMP JUMPDEST JUMPDEST PUSH1 0x20 DUP3 MUL SWAP1 POP PUSH1 0x20 DUP2 ADD SWAP1 POP SWAP2 SWAP1 POP JUMP JUMPDEST PUSH1 0x0 DUP3 DUP3 MSTORE PUSH1 0x20 DUP3 ADD SWAP1 POP SWAP3 SWAP2 POP POP JUMP JUMPDEST PUSH1 0x0 PUSH3 0x539 DUP3 PUSH3 0x54A JUMP JUMPDEST SWAP1 POP SWAP2 SWAP1 POP JUMP JUMPDEST PUSH1 0x0 DUP2 SWAP1 POP SWAP2 SWAP1 POP JUMP JUMPDEST PUSH1 0x0 PUSH20 0xFFFFFFFFFFFFFFFFFFFFFFFFFFFFFFFFFFFFFFFF DUP3 AND SWAP1 POP SWAP2 SWAP1 POP JUMP JUMPDEST PUSH1 0x0 DUP2 SWAP1 POP SWAP2 SWAP1 POP JUMP JUMPDEST PUSH3 0x57F DUP3 PUSH3 0x699 JUMP JUMPDEST DUP2 ADD DUP2 DUP2 LT PUSH8 0xFFFFFFFFFFFFFFFF DUP3 GT OR ISZERO PUSH3 0x5A1 JUMPI PUSH3 0x5A0 PUSH3 0x656 JUMP JUMPDEST JUMPDEST DUP1 PUSH1 0x40 MSTORE POP POP POP JUMP JUMPDEST PUSH1 0x0 PUSH3 0x5B7 DUP3 PUSH3 0x56A JUMP JUMPDEST SWAP2 POP PUSH32 0xFFFFFFFFFFFFFFFFFFFFFFFFFFFFFFFFFFFFFFFFFFFFFFFFFFFFFFFFFFFFFFFF DUP3 EQ ISZERO PUSH3 0x5ED JUMPI PUSH3 0x5EC PUSH3 0x5F8 JUMP JUMPDEST JUMPDEST PUSH1 0x1 DUP3 ADD SWAP1 POP SWAP2 SWAP1 POP JUMP JUMPDEST PUSH32 0x4E487B7100000000000000000000000000000000000000000000000000000000 PUSH1 0x0 MSTORE PUSH1 0x11 PUSH1 0x4 MSTORE PUSH1 0x24 PUSH1 0x0 REVERT JUMPDEST PUSH32 0x4E487B7100000000000000000000000000000000000000000000000000000000 PUSH1 0x0 MSTORE PUSH1 0x32 PUSH1 0x4 MSTORE PUSH1 0x24 PUSH1 0x0 REVERT JUMPDEST PUSH32 0x4E487B7100000000000000000000000000000000000000000000000000000000 PUSH1 0x0 MSTORE PUSH1 0x41 PUSH1 0x4 MSTORE PUSH1 0x24 PUSH1 0x0 REVERT JUMPDEST PUSH1 0x0 DUP1 REVERT JUMPDEST PUSH1 0x0 DUP1 REVERT JUMPDEST PUSH1 0x0 DUP1 REVERT JUMPDEST PUSH1 0x0 DUP1 REVERT JUMPDEST PUSH1 0x0 PUSH1 0x1F NOT PUSH1 0x1F DUP4 ADD AND SWAP1 POP SWAP2 SWAP1 POP JUMP JUMPDEST PUSH32 0x616C7265616479206F776E657200000000000000000000000000000000000000 PUSH1 0x0 DUP3 ADD MSTORE POP JUMP JUMPDEST PUSH32 0x696E76616C696420616464726573730000000000000000000000000000000000 PUSH1 0x0 DUP3 ADD MSTORE POP JUMP JUMPDEST PUSH32 0x6E6F206F776E6572730000000000000000000000000000000000000000000000 PUSH1 0x0 DUP3 ADD MSTORE POP JUMP JUMPDEST PUSH3 0x730 DUP2 PUSH3 0x52C JUMP JUMPDEST DUP2 EQ PUSH3 0x73C JUMPI PUSH1 0x0 DUP1 REVERT JUMPDEST POP JUMP JUMPDEST PUSH3 0x74A DUP2 PUSH3 0x540 JUMP JUMPDEST DUP2 EQ PUSH3 0x756 JUMPI PUSH1 0x0 DUP1 REVERT JUMPDEST POP JUMP JUMPDEST PUSH2 0xD57 DUP1 PUSH3 0x769 PUSH1 0x0 CODECOPY PUSH1 0x0 RETURN INVALID PUSH1 0x80 PUSH1 0x40 MSTORE PUSH1 0x4 CALLDATASIZE LT PUSH2 0x43 JUMPI PUSH1 0x0 CALLDATALOAD PUSH1 0xE0 SHR DUP1 PUSH4 0x73CBE49 EQ PUSH2 0x4F JUMPI DUP1 PUSH4 0x14DE327F EQ PUSH2 0x8C JUMPI DUP1 PUSH4 0xB759F954 EQ PUSH2 0xB5 JUMPI DUP1 PUSH4 0xFE0D94C1 EQ PUSH2 0xDE JUMPI PUSH2 0x4A JUMP JUMPDEST CALLDATASIZE PUSH2 0x4A JUMPI STOP JUMPDEST PUSH1 0x0 DUP1 REVERT JUMPDEST CALLVALUE DUP1 ISZERO PUSH2 0x5B JUMPI PUSH1 0x0 DUP1 REVERT JUMPDEST POP PUSH2 0x76 PUSH1 0x4 DUP1 CALLDATASIZE SUB DUP2 ADD SWAP1 PUSH2 0x71 SWAP2 SWAP1 PUSH2 0x892 JUMP JUMPDEST PUSH2 0x11B JUMP JUMPDEST PUSH1 0x40 MLOAD PUSH2 0x83 SWAP2 SWAP1 PUSH2 0xA9A JUMP JUMPDEST PUSH1 0x40 MLOAD DUP1 SWAP2 SUB SWAP1 RETURN JUMPDEST CALLVALUE DUP1 ISZERO PUSH2 0x98 JUMPI PUSH1 0x0 DUP1 REVERT JUMPDEST POP PUSH2 0xB3 PUSH1 0x4 DUP1 CALLDATASIZE SUB DUP2 ADD SWAP1 PUSH2 0xAE SWAP2 SWAP1 PUSH2 0x81E JUMP JUMPDEST PUSH2 0x207 JUMP JUMPDEST STOP JUMPDEST CALLVALUE DUP1 ISZERO PUSH2 0xC1 JUMPI PUSH1 0x0 DUP1 REVERT JUMPDEST POP PUSH2 0xDC PUSH1 0x4 DUP1 CALLDATASIZE SUB DUP2 ADD SWAP1 PUSH2 0xD7 SWAP2 SWAP1 PUSH2 0x892 JUMP JUMPDEST PUSH2 0x3A1 JUMP JUMPDEST STOP JUMPDEST CALLVALUE DUP1 ISZERO PUSH2 0xEA JUMPI PUSH1 0x0 DUP1 REVERT JUMPDEST POP PUSH2 0x105 PUSH1 0x4 DUP1 CALLDATASIZE SUB DUP2 ADD SWAP1 PUSH2 0x100 SWAP2 SWAP1 PUSH2 0x892 JUMP JUMPDEST PUSH2 0x4E6 JUMP JUMPDEST PUSH1 0x40 MLOAD PUSH2 0x112 SWAP2 SWAP1 PUSH2 0x9FF JUMP JUMPDEST PUSH1 0x40 MLOAD DUP1 SWAP2 SUB SWAP1 RETURN JUMPDEST PUSH1 0x0 PUSH1 0x2 DUP1 SLOAD SWAP1 POP DUP3 LT PUSH2 0x12E JUMPI PUSH1 0x0 DUP1 REVERT JUMPDEST PUSH1 0x0 JUMPDEST PUSH1 0x1 DUP1 SLOAD SWAP1 POP DUP2 LT ISZERO PUSH2 0x201 JUMPI PUSH1 0x4 PUSH1 0x0 DUP5 DUP2 MSTORE PUSH1 0x20 ADD SWAP1 DUP2 MSTORE PUSH1 0x20 ADD PUSH1 0x0 KECCAK256 PUSH1 0x0 PUSH1 0x1 DUP4 DUP2 SLOAD DUP2 LT PUSH2 0x167 JUMPI PUSH2 0x166 PUSH2 0xC07 JUMP JUMPDEST JUMPDEST SWAP1 PUSH1 0x0 MSTORE PUSH1 0x20 PUSH1 0x0 KECCAK256 ADD PUSH1 0x0 SWAP1 SLOAD SWAP1 PUSH2 0x100 EXP SWAP1 DIV PUSH20 0xFFFFFFFFFFFFFFFFFFFFFFFFFFFFFFFFFFFFFFFF AND PUSH20 0xFFFFFFFFFFFFFFFFFFFFFFFFFFFFFFFFFFFFFFFF AND PUSH20 0xFFFFFFFFFFFFFFFFFFFFFFFFFFFFFFFFFFFFFFFF AND DUP2 MSTORE PUSH1 0x20 ADD SWAP1 DUP2 MSTORE PUSH1 0x20 ADD PUSH1 0x0 KECCAK256 PUSH1 0x0 SWAP1 SLOAD SWAP1 PUSH2 0x100 EXP SWAP1 DIV PUSH1 0xFF AND ISZERO PUSH2 0x1EE JUMPI DUP2 DUP1 PUSH2 0x1EA SWAP1 PUSH2 0xB60 JUMP JUMPDEST SWAP3 POP POP JUMPDEST DUP1 DUP1 PUSH2 0x1F9 SWAP1 PUSH2 0xB60 JUMP JUMPDEST SWAP2 POP POP PUSH2 0x131 JUMP JUMPDEST POP SWAP2 SWAP1 POP JUMP JUMPDEST PUSH1 0x0 DUP1 CALLER PUSH20 0xFFFFFFFFFFFFFFFFFFFFFFFFFFFFFFFFFFFFFFFF AND PUSH20 0xFFFFFFFFFFFFFFFFFFFFFFFFFFFFFFFFFFFFFFFF AND DUP2 MSTORE PUSH1 0x20 ADD SWAP1 DUP2 MSTORE PUSH1 0x20 ADD PUSH1 0x0 KECCAK256 PUSH1 0x0 SWAP1 SLOAD SWAP1 PUSH2 0x100 EXP SWAP1 DIV PUSH1 0xFF AND PUSH2 0x25C JUMPI PUSH1 0x0 DUP1 REVERT JUMPDEST PUSH1 0x0 PUSH1 0x40 MLOAD DUP1 PUSH1 0x80 ADD PUSH1 0x40 MSTORE DUP1 DUP7 PUSH20 0xFFFFFFFFFFFFFFFFFFFFFFFFFFFFFFFFFFFFFFFF AND DUP2 MSTORE PUSH1 0x20 ADD DUP6 DUP2 MSTORE PUSH1 0x20 ADD DUP5 DUP5 DUP1 DUP1 PUSH1 0x1F ADD PUSH1 0x20 DUP1 SWAP2 DIV MUL PUSH1 0x20 ADD PUSH1 0x40 MLOAD SWAP1 DUP2 ADD PUSH1 0x40 MSTORE DUP1 SWAP4 SWAP3 SWAP2 SWAP1 DUP2 DUP2 MSTORE PUSH1 0x20 ADD DUP4 DUP4 DUP1 DUP3 DUP5 CALLDATACOPY PUSH1 0x0 DUP2 DUP5 ADD MSTORE PUSH1 0x1F NOT PUSH1 0x1F DUP3 ADD AND SWAP1 POP DUP1 DUP4 ADD SWAP3 POP POP POP POP POP POP POP DUP2 MSTORE PUSH1 0x20 ADD PUSH1 0x0 ISZERO ISZERO DUP2 MSTORE POP SWAP1 POP PUSH1 0x2 DUP2 SWAP1 DUP1 PUSH1 0x1 DUP2 SLOAD ADD DUP1 DUP3 SSTORE DUP1 SWAP2 POP POP PUSH1 0x1 SWAP1 SUB SWAP1 PUSH1 0x0 MSTORE PUSH1 0x20 PUSH1 0x0 KECCAK256 SWAP1 PUSH1 0x4 MUL ADD PUSH1 0x0 SWAP1 SWAP2 SWAP1 SWAP2 SWAP1 SWAP2 POP PUSH1 0x0 DUP3 ADD MLOAD DUP2 PUSH1 0x0 ADD PUSH1 0x0 PUSH2 0x100 EXP DUP2 SLOAD DUP2 PUSH20 0xFFFFFFFFFFFFFFFFFFFFFFFFFFFFFFFFFFFFFFFF MUL NOT AND SWAP1 DUP4 PUSH20 0xFFFFFFFFFFFFFFFFFFFFFFFFFFFFFFFFFFFFFFFF AND MUL OR SWAP1 SSTORE POP PUSH1 0x20 DUP3 ADD MLOAD DUP2 PUSH1 0x1 ADD SSTORE PUSH1 0x40 DUP3 ADD MLOAD DUP2 PUSH1 0x2 ADD SWAP1 DUP1 MLOAD SWAP1 PUSH1 0x20 ADD SWAP1 PUSH2 0x377 SWAP3 SWAP2 SWAP1 PUSH2 0x6FB JUMP JUMPDEST POP PUSH1 0x60 DUP3 ADD MLOAD DUP2 PUSH1 0x3 ADD PUSH1 0x0 PUSH2 0x100 EXP DUP2 SLOAD DUP2 PUSH1 0xFF MUL NOT AND SWAP1 DUP4 ISZERO ISZERO MUL OR SWAP1 SSTORE POP POP POP POP POP POP POP POP JUMP JUMPDEST PUSH1 0x0 DUP1 CALLER PUSH20 0xFFFFFFFFFFFFFFFFFFFFFFFFFFFFFFFFFFFFFFFF AND PUSH20 0xFFFFFFFFFFFFFFFFFFFFFFFFFFFFFFFFFFFFFFFF AND DUP2 MSTORE PUSH1 0x20 ADD SWAP1 DUP2 MSTORE PUSH1 0x20 ADD PUSH1 0x0 KECCAK256 PUSH1 0x0 SWAP1 SLOAD SWAP1 PUSH2 0x100 EXP SWAP1 DIV PUSH1 0xFF AND PUSH2 0x3F6 JUMPI PUSH1 0x0 DUP1 REVERT JUMPDEST PUSH1 0x2 DUP1 SLOAD SWAP1 POP DUP2 LT PUSH2 0x407 JUMPI PUSH1 0x0 DUP1 REVERT JUMPDEST PUSH1 0x2 DUP2 DUP2 SLOAD DUP2 LT PUSH2 0x41B JUMPI PUSH2 0x41A PUSH2 0xC07 JUMP JUMPDEST JUMPDEST SWAP1 PUSH1 0x0 MSTORE PUSH1 0x20 PUSH1 0x0 KECCAK256 SWAP1 PUSH1 0x4 MUL ADD PUSH1 0x3 ADD PUSH1 0x0 SWAP1 SLOAD SWAP1 PUSH2 0x100 EXP SWAP1 DIV PUSH1 0xFF AND ISZERO PUSH2 0x47A JUMPI PUSH1 0x40 MLOAD PUSH32 0x8C379A000000000000000000000000000000000000000000000000000000000 DUP2 MSTORE PUSH1 0x4 ADD PUSH2 0x471 SWAP1 PUSH2 0xA5A JUMP JUMPDEST PUSH1 0x40 MLOAD DUP1 SWAP2 SUB SWAP1 REVERT JUMPDEST PUSH1 0x1 PUSH1 0x4 PUSH1 0x0 DUP4 DUP2 MSTORE PUSH1 0x20 ADD SWAP1 DUP2 MSTORE PUSH1 0x20 ADD PUSH1 0x0 KECCAK256 PUSH1 0x0 CALLER PUSH20 0xFFFFFFFFFFFFFFFFFFFFFFFFFFFFFFFFFFFFFFFF AND PUSH20 0xFFFFFFFFFFFFFFFFFFFFFFFFFFFFFFFFFFFFFFFF AND DUP2 MSTORE PUSH1 0x20 ADD SWAP1 DUP2 MSTORE PUSH1 0x20 ADD PUSH1 0x0 KECCAK256 PUSH1 0x0 PUSH2 0x100 EXP DUP2 SLOAD DUP2 PUSH1 0xFF MUL NOT AND SWAP1 DUP4 ISZERO ISZERO MUL OR SWAP1 SSTORE POP POP JUMP JUMPDEST PUSH1 0x0 PUSH1 0x2 DUP1 SLOAD SWAP1 POP DUP3 LT PUSH2 0x52F JUMPI PUSH1 0x40 MLOAD PUSH32 0x8C379A000000000000000000000000000000000000000000000000000000000 DUP2 MSTORE PUSH1 0x4 ADD PUSH2 0x526 SWAP1 PUSH2 0xA7A JUMP JUMPDEST PUSH1 0x40 MLOAD DUP1 SWAP2 SUB SWAP1 REVERT JUMPDEST PUSH1 0x2 DUP3 DUP2 SLOAD DUP2 LT PUSH2 0x543 JUMPI PUSH2 0x542 PUSH2 0xC07 JUMP JUMPDEST JUMPDEST SWAP1 PUSH1 0x0 MSTORE PUSH1 0x20 PUSH1 0x0 KECCAK256 SWAP1 PUSH1 0x4 MUL ADD PUSH1 0x3 ADD PUSH1 0x0 SWAP1 SLOAD SWAP1 PUSH2 0x100 EXP SWAP1 DIV PUSH1 0xFF AND ISZERO PUSH2 0x5A2 JUMPI PUSH1 0x40 MLOAD PUSH32 0x8C379A000000000000000000000000000000000000000000000000000000000 DUP2 MSTORE PUSH1 0x4 ADD PUSH2 0x599 SWAP1 PUSH2 0xA1A JUMP JUMPDEST PUSH1 0x40 MLOAD DUP1 SWAP2 SUB SWAP1 REVERT JUMPDEST PUSH1 0x3 SLOAD PUSH2 0x5AE DUP4 PUSH2 0x11B JUMP JUMPDEST GT ISZERO PUSH2 0x6F2 JUMPI PUSH1 0x0 PUSH1 0x2 DUP4 DUP2 SLOAD DUP2 LT PUSH2 0x5CA JUMPI PUSH2 0x5C9 PUSH2 0xC07 JUMP JUMPDEST JUMPDEST SWAP1 PUSH1 0x0 MSTORE PUSH1 0x20 PUSH1 0x0 KECCAK256 SWAP1 PUSH1 0x4 MUL ADD PUSH1 0x0 ADD PUSH1 0x0 SWAP1 SLOAD SWAP1 PUSH2 0x100 EXP SWAP1 DIV PUSH20 0xFFFFFFFFFFFFFFFFFFFFFFFFFFFFFFFFFFFFFFFF AND PUSH20 0xFFFFFFFFFFFFFFFFFFFFFFFFFFFFFFFFFFFFFFFF AND PUSH1 0x2 DUP5 DUP2 SLOAD DUP2 LT PUSH2 0x626 JUMPI PUSH2 0x625 PUSH2 0xC07 JUMP JUMPDEST JUMPDEST SWAP1 PUSH1 0x0 MSTORE PUSH1 0x20 PUSH1 0x0 KECCAK256 SWAP1 PUSH1 0x4 MUL ADD PUSH1 0x1 ADD SLOAD PUSH1 0x2 DUP6 DUP2 SLOAD DUP2 LT PUSH2 0x64C JUMPI PUSH2 0x64B PUSH2 0xC07 JUMP JUMPDEST JUMPDEST SWAP1 PUSH1 0x0 MSTORE PUSH1 0x20 PUSH1 0x0 KECCAK256 SWAP1 PUSH1 0x4 MUL ADD PUSH1 0x2 ADD PUSH1 0x40 MLOAD PUSH2 0x66A SWAP2 SWAP1 PUSH2 0x9E8 JUMP JUMPDEST PUSH1 0x0 PUSH1 0x40 MLOAD DUP1 DUP4 SUB DUP2 DUP6 DUP8 GAS CALL SWAP3 POP POP POP RETURNDATASIZE DUP1 PUSH1 0x0 DUP2 EQ PUSH2 0x6A7 JUMPI PUSH1 0x40 MLOAD SWAP2 POP PUSH1 0x1F NOT PUSH1 0x3F RETURNDATASIZE ADD AND DUP3 ADD PUSH1 0x40 MSTORE RETURNDATASIZE DUP3 MSTORE RETURNDATASIZE PUSH1 0x0 PUSH1 0x20 DUP5 ADD RETURNDATACOPY PUSH2 0x6AC JUMP JUMPDEST PUSH1 0x60 SWAP2 POP JUMPDEST POP POP SWAP1 POP DUP1 PUSH2 0x6F0 JUMPI PUSH1 0x40 MLOAD PUSH32 0x8C379A000000000000000000000000000000000000000000000000000000000 DUP2 MSTORE PUSH1 0x4 ADD PUSH2 0x6E7 SWAP1 PUSH2 0xA3A JUMP JUMPDEST PUSH1 0x40 MLOAD DUP1 SWAP2 SUB SWAP1 REVERT JUMPDEST POP JUMPDEST PUSH1 0x1 SWAP1 POP SWAP2 SWAP1 POP JUMP JUMPDEST DUP3 DUP1 SLOAD PUSH2 0x707 SWAP1 PUSH2 0xB2E JUMP JUMPDEST SWAP1 PUSH1 0x0 MSTORE PUSH1 0x20 PUSH1 0x0 KECCAK256 SWAP1 PUSH1 0x1F ADD PUSH1 0x20 SWAP1 DIV DUP2 ADD SWAP3 DUP3 PUSH2 0x729 JUMPI PUSH1 0x0 DUP6 SSTORE PUSH2 0x770 JUMP JUMPDEST DUP3 PUSH1 0x1F LT PUSH2 0x742 JUMPI DUP1 MLOAD PUSH1 0xFF NOT AND DUP4 DUP1 ADD OR DUP6 SSTORE PUSH2 0x770 JUMP JUMPDEST DUP3 DUP1 ADD PUSH1 0x1 ADD DUP6 SSTORE DUP3 ISZERO PUSH2 0x770 JUMPI SWAP2 DUP3 ADD JUMPDEST DUP3 DUP2 GT ISZERO PUSH2 0x76F JUMPI DUP3 MLOAD DUP3 SSTORE SWAP2 PUSH1 0x20 ADD SWAP2 SWAP1 PUSH1 0x1 ADD SWAP1 PUSH2 0x754 JUMP JUMPDEST JUMPDEST POP SWAP1 POP PUSH2 0x77D SWAP2 SWAP1 PUSH2 0x781 JUMP JUMPDEST POP SWAP1 JUMP JUMPDEST JUMPDEST DUP1 DUP3 GT ISZERO PUSH2 0x79A JUMPI PUSH1 0x0 DUP2 PUSH1 0x0 SWAP1 SSTORE POP PUSH1 0x1 ADD PUSH2 0x782 JUMP JUMPDEST POP SWAP1 JUMP JUMPDEST PUSH1 0x0 DUP2 CALLDATALOAD SWAP1 POP PUSH2 0x7AD DUP2 PUSH2 0xCF3 JUMP JUMPDEST SWAP3 SWAP2 POP POP JUMP JUMPDEST PUSH1 0x0 DUP1 DUP4 PUSH1 0x1F DUP5 ADD SLT PUSH2 0x7C9 JUMPI PUSH2 0x7C8 PUSH2 0xC3B JUMP JUMPDEST JUMPDEST DUP3 CALLDATALOAD SWAP1 POP PUSH8 0xFFFFFFFFFFFFFFFF DUP2 GT ISZERO PUSH2 0x7E6 JUMPI PUSH2 0x7E5 PUSH2 0xC36 JUMP JUMPDEST JUMPDEST PUSH1 0x20 DUP4 ADD SWAP2 POP DUP4 PUSH1 0x1 DUP3 MUL DUP4 ADD GT ISZERO PUSH2 0x802 JUMPI PUSH2 0x801 PUSH2 0xC40 JUMP JUMPDEST JUMPDEST SWAP3 POP SWAP3 SWAP1 POP JUMP JUMPDEST PUSH1 0x0 DUP2 CALLDATALOAD SWAP1 POP PUSH2 0x818 DUP2 PUSH2 0xD0A JUMP JUMPDEST SWAP3 SWAP2 POP POP JUMP JUMPDEST PUSH1 0x0 DUP1 PUSH1 0x0 DUP1 PUSH1 0x60 DUP6 DUP8 SUB SLT ISZERO PUSH2 0x838 JUMPI PUSH2 0x837 PUSH2 0xC4A JUMP JUMPDEST JUMPDEST PUSH1 0x0 PUSH2 0x846 DUP8 DUP3 DUP9 ADD PUSH2 0x79E JUMP JUMPDEST SWAP5 POP POP PUSH1 0x20 PUSH2 0x857 DUP8 DUP3 DUP9 ADD PUSH2 0x809 JUMP JUMPDEST SWAP4 POP POP PUSH1 0x40 DUP6 ADD CALLDATALOAD PUSH8 0xFFFFFFFFFFFFFFFF DUP2 GT ISZERO PUSH2 0x878 JUMPI PUSH2 0x877 PUSH2 0xC45 JUMP JUMPDEST JUMPDEST PUSH2 0x884 DUP8 DUP3 DUP9 ADD PUSH2 0x7B3 JUMP JUMPDEST SWAP3 POP SWAP3 POP POP SWAP3 SWAP6 SWAP2 SWAP5 POP SWAP3 POP JUMP JUMPDEST PUSH1 0x0 PUSH1 0x20 DUP3 DUP5 SUB SLT ISZERO PUSH2 0x8A8 JUMPI PUSH2 0x8A7 PUSH2 0xC4A JUMP JUMPDEST JUMPDEST PUSH1 0x0 PUSH2 0x8B6 DUP5 DUP3 DUP6 ADD PUSH2 0x809 JUMP JUMPDEST SWAP2 POP POP SWAP3 SWAP2 POP POP JUMP JUMPDEST PUSH2 0x8C8 DUP2 PUSH2 0xAF8 JUMP JUMPDEST DUP3 MSTORE POP POP JUMP JUMPDEST PUSH1 0x0 DUP2 SLOAD PUSH2 0x8DB DUP2 PUSH2 0xB2E JUMP JUMPDEST PUSH2 0x8E5 DUP2 DUP7 PUSH2 0xACA JUMP JUMPDEST SWAP5 POP PUSH1 0x1 DUP3 AND PUSH1 0x0 DUP2 EQ PUSH2 0x900 JUMPI PUSH1 0x1 DUP2 EQ PUSH2 0x911 JUMPI PUSH2 0x944 JUMP JUMPDEST PUSH1 0xFF NOT DUP4 AND DUP7 MSTORE DUP2 DUP7 ADD SWAP4 POP PUSH2 0x944 JUMP JUMPDEST PUSH2 0x91A DUP6 PUSH2 0xAB5 JUMP JUMPDEST PUSH1 0x0 JUMPDEST DUP4 DUP2 LT ISZERO PUSH2 0x93C JUMPI DUP2 SLOAD DUP2 DUP10 ADD MSTORE PUSH1 0x1 DUP3 ADD SWAP2 POP PUSH1 0x20 DUP2 ADD SWAP1 POP PUSH2 0x91D JUMP JUMPDEST DUP4 DUP9 ADD SWAP6 POP POP POP JUMPDEST POP POP POP SWAP3 SWAP2 POP POP JUMP JUMPDEST PUSH1 0x0 PUSH2 0x95A PUSH1 0x10 DUP4 PUSH2 0xAD5 JUMP JUMPDEST SWAP2 POP PUSH2 0x965 DUP3 PUSH2 0xC4F JUMP JUMPDEST PUSH1 0x20 DUP3 ADD SWAP1 POP SWAP2 SWAP1 POP JUMP JUMPDEST PUSH1 0x0 PUSH2 0x97D PUSH1 0x6 DUP4 PUSH2 0xAD5 JUMP JUMPDEST SWAP2 POP PUSH2 0x988 DUP3 PUSH2 0xC78 JUMP JUMPDEST PUSH1 0x20 DUP3 ADD SWAP1 POP SWAP2 SWAP1 POP JUMP JUMPDEST PUSH1 0x0 PUSH2 0x9A0 PUSH1 0x10 DUP4 PUSH2 0xAD5 JUMP JUMPDEST SWAP2 POP PUSH2 0x9AB DUP3 PUSH2 0xCA1 JUMP JUMPDEST PUSH1 0x20 DUP3 ADD SWAP1 POP SWAP2 SWAP1 POP JUMP JUMPDEST PUSH1 0x0 PUSH2 0x9C3 PUSH1 0xD DUP4 PUSH2 0xAD5 JUMP JUMPDEST SWAP2 POP PUSH2 0x9CE DUP3 PUSH2 0xCCA JUMP JUMPDEST PUSH1 0x20 DUP3 ADD SWAP1 POP SWAP2 SWAP1 POP JUMP JUMPDEST PUSH2 0x9E2 DUP2 PUSH2 0xB24 JUMP JUMPDEST DUP3 MSTORE POP POP JUMP JUMPDEST PUSH1 0x0 PUSH2 0x9F4 DUP3 DUP5 PUSH2 0x8CE JUMP JUMPDEST SWAP2 POP DUP2 SWAP1 POP SWAP3 SWAP2 POP POP JUMP JUMPDEST PUSH1 0x0 PUSH1 0x20 DUP3 ADD SWAP1 POP PUSH2 0xA14 PUSH1 0x0 DUP4 ADD DUP5 PUSH2 0x8BF JUMP JUMPDEST SWAP3 SWAP2 POP POP JUMP JUMPDEST PUSH1 0x0 PUSH1 0x20 DUP3 ADD SWAP1 POP DUP2 DUP2 SUB PUSH1 0x0 DUP4 ADD MSTORE PUSH2 0xA33 DUP2 PUSH2 0x94D JUMP JUMPDEST SWAP1 POP SWAP2 SWAP1 POP JUMP JUMPDEST PUSH1 0x0 PUSH1 0x20 DUP3 ADD SWAP1 POP DUP2 DUP2 SUB PUSH1 0x0 DUP4 ADD MSTORE PUSH2 0xA53 DUP2 PUSH2 0x970 JUMP JUMPDEST SWAP1 POP SWAP2 SWAP1 POP JUMP JUMPDEST PUSH1 0x0 PUSH1 0x20 DUP3 ADD SWAP1 POP DUP2 DUP2 SUB PUSH1 0x0 DUP4 ADD MSTORE PUSH2 0xA73 DUP2 PUSH2 0x993 JUMP JUMPDEST SWAP1 POP SWAP2 SWAP1 POP JUMP JUMPDEST PUSH1 0x0 PUSH1 0x20 DUP3 ADD SWAP1 POP DUP2 DUP2 SUB PUSH1 0x0 DUP4 ADD MSTORE PUSH2 0xA93 DUP2 PUSH2 0x9B6 JUMP JUMPDEST SWAP1 POP SWAP2 SWAP1 POP JUMP JUMPDEST PUSH1 0x0 PUSH1 0x20 DUP3 ADD SWAP1 POP PUSH2 0xAAF PUSH1 0x0 DUP4 ADD DUP5 PUSH2 0x9D9 JUMP JUMPDEST SWAP3 SWAP2 POP POP JUMP JUMPDEST PUSH1 0x0 DUP2 SWAP1 POP DUP2 PUSH1 0x0 MSTORE PUSH1 0x20 PUSH1 0x0 KECCAK256 SWAP1 POP SWAP2 SWAP1 POP JUMP JUMPDEST PUSH1 0x0 DUP2 SWAP1 POP SWAP3 SWAP2 POP POP JUMP JUMPDEST PUSH1 0x0 DUP3 DUP3 MSTORE PUSH1 0x20 DUP3 ADD SWAP1 POP SWAP3 SWAP2 POP POP JUMP JUMPDEST PUSH1 0x0 PUSH2 0xAF1 DUP3 PUSH2 0xB04 JUMP JUMPDEST SWAP1 POP SWAP2 SWAP1 POP JUMP JUMPDEST PUSH1 0x0 DUP2 ISZERO ISZERO SWAP1 POP SWAP2 SWAP1 POP JUMP JUMPDEST PUSH1 0x0 PUSH20 0xFFFFFFFFFFFFFFFFFFFFFFFFFFFFFFFFFFFFFFFF DUP3 AND SWAP1 POP SWAP2 SWAP1 POP JUMP JUMPDEST PUSH1 0x0 DUP2 SWAP1 POP SWAP2 SWAP1 POP JUMP JUMPDEST PUSH1 0x0 PUSH1 0x2 DUP3 DIV SWAP1 POP PUSH1 0x1 DUP3 AND DUP1 PUSH2 0xB46 JUMPI PUSH1 0x7F DUP3 AND SWAP2 POP JUMPDEST PUSH1 0x20 DUP3 LT DUP2 EQ ISZERO PUSH2 0xB5A JUMPI PUSH2 0xB59 PUSH2 0xBD8 JUMP JUMPDEST JUMPDEST POP SWAP2 SWAP1 POP JUMP JUMPDEST PUSH1 0x0 PUSH2 0xB6B DUP3 PUSH2 0xB24 JUMP JUMPDEST SWAP2 POP PUSH32 0xFFFFFFFFFFFFFFFFFFFFFFFFFFFFFFFFFFFFFFFFFFFFFFFFFFFFFFFFFFFFFFFF DUP3 EQ ISZERO PUSH2 0xB9E JUMPI PUSH2 0xB9D PUSH2 0xBA9 JUMP JUMPDEST JUMPDEST PUSH1 0x1 DUP3 ADD SWAP1 POP SWAP2 SWAP1 POP JUMP JUMPDEST PUSH32 0x4E487B7100000000000000000000000000000000000000000000000000000000 PUSH1 0x0 MSTORE PUSH1 0x11 PUSH1 0x4 MSTORE PUSH1 0x24 PUSH1 0x0 REVERT JUMPDEST PUSH32 0x4E487B7100000000000000000000000000000000000000000000000000000000 PUSH1 0x0 MSTORE PUSH1 0x22 PUSH1 0x4 MSTORE PUSH1 0x24 PUSH1 0x0 REVERT JUMPDEST PUSH32 0x4E487B7100000000000000000000000000000000000000000000000000000000 PUSH1 0x0 MSTORE PUSH1 0x32 PUSH1 0x4 MSTORE PUSH1 0x24 PUSH1 0x0 REVERT JUMPDEST PUSH1 0x0 DUP1 REVERT JUMPDEST PUSH1 0x0 DUP1 REVERT JUMPDEST PUSH1 0x0 DUP1 REVERT JUMPDEST PUSH1 0x0 DUP1 REVERT JUMPDEST PUSH1 0x0 DUP1 REVERT JUMPDEST PUSH32 0x616C726561647920657865637574656400000000000000000000000000000000 PUSH1 0x0 DUP3 ADD MSTORE POP JUMP JUMPDEST PUSH32 0x6661696C65640000000000000000000000000000000000000000000000000000 PUSH1 0x0 DUP3 ADD MSTORE POP JUMP JUMPDEST PUSH32 0x6176726561647920657865637574656400000000000000000000000000000000 PUSH1 0x0 DUP3 ADD MSTORE POP JUMP JUMPDEST PUSH32 0x696E76616C696420696E64657800000000000000000000000000000000000000 PUSH1 0x0 DUP3 ADD MSTORE POP JUMP JUMPDEST PUSH2 0xCFC DUP2 PUSH2 0xAE6 JUMP JUMPDEST DUP2 EQ PUSH2 0xD07 JUMPI PUSH1 0x0 DUP1 REVERT JUMPDEST POP JUMP JUMPDEST PUSH2 0xD13 DUP2 PUSH2 0xB24 JUMP JUMPDEST DUP2 EQ PUSH2 0xD1E JUMPI PUSH1 0x0 DUP1 REVERT JUMPDEST POP JUMP INVALID LOG2 PUSH5 0x6970667358 0x22 SLT KECCAK256 PUSH11 0xC3DF6A83D7734B007EC329 SHR 0x49 0xB5 CALLCODE SLT 0xAE 0xA7 ADD 0xD DUP5 0xB1 SWAP5 0xAE PC SUB 0xE5 0x28 0x24 PUSH28 0xC64736F6C6343000807003300000000000000000000000000000000 "
				},
				"gasEstimates": {
					"creation": {
						"codeDepositCost": "683000",
						"executionCost": "infinite",
						"totalCost": "infinite"
					},
					"external": {
						"approve(uint256)": "33588",
						"execute(uint256)": "infinite",
						"getApprovedCount(uint256)": "infinite",
						"submit(address,uint256,bytes)": "infinite"
					}
				},
				"methodIdentifiers": {
					"approve(uint256)": "b759f954",
					"execute(uint256)": "fe0d94c1",
					"getApprovedCount(uint256)": "073cbe49",
					"submit(address,uint256,bytes)": "14de327f"
				}
			},
			"storageLayout": {
				"storage": [
					{
						"astId": 5,
						"contract": "MultiSigWallet.sol:MultiSigWallet",
						"label": "isOwner",
						"offset": 0,
						"slot": "0",
						"type": "t_mapping(t_address,t_bool)"
					},
					{
						"astId": 8,
						"contract": "MultiSigWallet.sol:MultiSigWallet",
						"label": "owners",
						"offset": 0,
						"slot": "1",
						"type": "t_array(t_address)dyn_storage"
					},
					{
						"astId": 21,
						"contract": "MultiSigWallet.sol:MultiSigWallet",
						"label": "transactons",
						"offset": 0,
						"slot": "2",
						"type": "t_array(t_struct(Transaction)17_storage)dyn_storage"
					},
					{
						"astId": 23,
						"contract": "MultiSigWallet.sol:MultiSigWallet",
						"label": "required",
						"offset": 0,
						"slot": "3",
						"type": "t_uint256"
					},
					{
						"astId": 29,
						"contract": "MultiSigWallet.sol:MultiSigWallet",
						"label": "approved",
						"offset": 0,
						"slot": "4",
						"type": "t_mapping(t_uint256,t_mapping(t_address,t_bool))"
					}
				],
				"types": {
					"t_address": {
						"encoding": "inplace",
						"label": "address",
						"numberOfBytes": "20"
					},
					"t_array(t_address)dyn_storage": {
						"base": "t_address",
						"encoding": "dynamic_array",
						"label": "address[]",
						"numberOfBytes": "32"
					},
					"t_array(t_struct(Transaction)17_storage)dyn_storage": {
						"base": "t_struct(Transaction)17_storage",
						"encoding": "dynamic_array",
						"label": "struct MultiSigWallet.Transaction[]",
						"numberOfBytes": "32"
					},
					"t_bool": {
						"encoding": "inplace",
						"label": "bool",
						"numberOfBytes": "1"
					},
					"t_bytes_storage": {
						"encoding": "bytes",
						"label": "bytes",
						"numberOfBytes": "32"
					},
					"t_mapping(t_address,t_bool)": {
						"encoding": "mapping",
						"key": "t_address",
						"label": "mapping(address => bool)",
						"numberOfBytes": "32",
						"value": "t_bool"
					},
					"t_mapping(t_uint256,t_mapping(t_address,t_bool))": {
						"encoding": "mapping",
						"key": "t_uint256",
						"label": "mapping(uint256 => mapping(address => bool))",
						"numberOfBytes": "32",
						"value": "t_mapping(t_address,t_bool)"
					},
					"t_struct(Transaction)17_storage": {
						"encoding": "inplace",
						"label": "struct MultiSigWallet.Transaction",
						"members": [
							{
								"astId": 10,
								"contract": "MultiSigWallet.sol:MultiSigWallet",
								"label": "destination",
								"offset": 0,
								"slot": "0",
								"type": "t_address"
							},
							{
								"astId": 12,
								"contract": "MultiSigWallet.sol:MultiSigWallet",
								"label": "value",
								"offset": 0,
								"slot": "1",
								"type": "t_uint256"
							},
							{
								"astId": 14,
								"contract": "MultiSigWallet.sol:MultiSigWallet",
								"label": "data",
								"offset": 0,
								"slot": "2",
								"type": "t_bytes_storage"
							},
							{
								"astId": 16,
								"contract": "MultiSigWallet.sol:MultiSigWallet",
								"label": "executed",
								"offset": 0,
								"slot": "3",
								"type": "t_bool"
							}
						],
						"numberOfBytes": "128"
					},
					"t_uint256": {
						"encoding": "inplace",
						"label": "uint256",
						"numberOfBytes": "32"
					}
				}
			},
			"userdoc": {
				"kind": "user",
				"methods": {},
				"version": 1
			}
		}
	}
}