{
	"MultiSigWallet.sol": {
		"MultiSigWallet": {
			"abi": [
				{
					"inputs": [
						{
							"internalType": "address[]",
							"name": "_owners",
							"type": "address[]"
						},
						{
							"internalType": "uint256",
							"name": "_required",
							"type": "uint256"
						}
					],
					"stateMutability": "nonpayable",
					"type": "constructor"
				},
				{
					"inputs": [
						{
							"internalType": "uint256",
							"name": "txId",
							"type": "uint256"
						}
					],
					"name": "approve",
					"outputs": [],
					"stateMutability": "nonpayable",
					"type": "function"
				},
				{
					"inputs": [
						{
							"internalType": "uint256",
							"name": "txId",
							"type": "uint256"
						}
					],
					"name": "execute",
					"outputs": [
						{
							"internalType": "bool",
							"name": "",
							"type": "bool"
						}
					],
					"stateMutability": "nonpayable",
					"type": "function"
				},
				{
					"inputs": [
						{
							"internalType": "uint256",
							"name": "txId",
							"type": "uint256"
						}
					],
					"name": "getApprovedCount",
					"outputs": [
						{
							"internalType": "uint256",
							"name": "count",
							"type": "uint256"
						}
					],
					"stateMutability": "view",
					"type": "function"
				},
				{
					"inputs": [
						{
							"internalType": "uint256",
							"name": "txId",
							"type": "uint256"
						}
					],
					"name": "revoke",
					"outputs": [],
					"stateMutability": "nonpayable",
					"type": "function"
				},
				{
					"inputs": [
						{
							"internalType": "address",
							"name": "_destination",
							"type": "address"
						},
						{
							"internalType": "uint256",
							"name": "_amount",
							"type": "uint256"
						},
						{
							"internalType": "bytes",
							"name": "_data",
							"type": "bytes"
						}
					],
					"name": "submit",
					"outputs": [],
					"stateMutability": "nonpayable",
					"type": "function"
				},
				{
					"stateMutability": "payable",
					"type": "receive"
				}
			],
			"devdoc": {
				"kind": "dev",
				"methods": {},
				"version": 1
			},
			"evm": {
				"assembly": "    /* \"MultiSigWallet.sol\":56:2227  contract MultiSigWallet{... */\n  mstore(0x40, 0x80)\n    /* \"MultiSigWallet.sol\":375:786  constructor(address[] memory _owners, uint _required){... */\n  callvalue\n  dup1\n  iszero\n  tag_1\n  jumpi\n  0x00\n  dup1\n  revert\ntag_1:\n  pop\n  mload(0x40)\n  sub(codesize, bytecodeSize)\n  dup1\n  bytecodeSize\n  dup4\n  codecopy\n  dup2\n  dup2\n  add\n  0x40\n  mstore\n  dup2\n  add\n  swap1\n  tag_2\n  swap2\n  swap1\n  tag_3\n  jump\t// in\ntag_2:\n    /* \"MultiSigWallet.sol\":461:462  0 */\n  0x00\n    /* \"MultiSigWallet.sol\":446:453  _owners */\n  dup3\n    /* \"MultiSigWallet.sol\":446:460  _owners.length */\n  mload\n    /* \"MultiSigWallet.sol\":446:462  _owners.length>0 */\n  gt\n    /* \"MultiSigWallet.sol\":438:475  require(_owners.length>0,\"no owners\") */\n  tag_6\n  jumpi\n  mload(0x40)\n  0x08c379a000000000000000000000000000000000000000000000000000000000\n  dup2\n  mstore\n  0x04\n  add\n  tag_7\n  swap1\n  tag_8\n  jump\t// in\ntag_7:\n  mload(0x40)\n  dup1\n  swap2\n  sub\n  swap1\n  revert\ntag_6:\n    /* \"MultiSigWallet.sol\":489:495  uint i */\n  0x00\n    /* \"MultiSigWallet.sol\":485:752  for(uint i=0;i<_owners.length;i++){... */\ntag_9:\n    /* \"MultiSigWallet.sol\":500:507  _owners */\n  dup3\n    /* \"MultiSigWallet.sol\":500:514  _owners.length */\n  mload\n    /* \"MultiSigWallet.sol\":498:499  i */\n  dup2\n    /* \"MultiSigWallet.sol\":498:514  i<_owners.length */\n  lt\n    /* \"MultiSigWallet.sol\":485:752  for(uint i=0;i<_owners.length;i++){... */\n  iszero\n  tag_10\n  jumpi\n    /* \"MultiSigWallet.sol\":533:546  address owner */\n  0x00\n    /* \"MultiSigWallet.sol\":549:556  _owners */\n  dup4\n    /* \"MultiSigWallet.sol\":557:558  i */\n  dup3\n    /* \"MultiSigWallet.sol\":549:559  _owners[i] */\n  dup2\n  mload\n  dup2\n  lt\n  tag_12\n  jumpi\n  tag_13\n  tag_14\n  jump\t// in\ntag_13:\ntag_12:\n  0x20\n  mul\n  0x20\n  add\n  add\n  mload\n    /* \"MultiSigWallet.sol\":533:559  address owner = _owners[i] */\n  swap1\n  pop\n    /* \"MultiSigWallet.sol\":601:602  0 */\n  0x00\n    /* \"MultiSigWallet.sol\":581:603  _owners[i]!=address(0) */\n  0xffffffffffffffffffffffffffffffffffffffff\n  and\n    /* \"MultiSigWallet.sol\":581:588  _owners */\n  dup5\n    /* \"MultiSigWallet.sol\":589:590  i */\n  dup4\n    /* \"MultiSigWallet.sol\":581:591  _owners[i] */\n  dup2\n  mload\n  dup2\n  lt\n  tag_15\n  jumpi\n  tag_16\n  tag_14\n  jump\t// in\ntag_16:\ntag_15:\n  0x20\n  mul\n  0x20\n  add\n  add\n  mload\n    /* \"MultiSigWallet.sol\":581:603  _owners[i]!=address(0) */\n  0xffffffffffffffffffffffffffffffffffffffff\n  and\n  eq\n  iszero\n    /* \"MultiSigWallet.sol\":573:622  require(_owners[i]!=address(0),\"invalid address\") */\n  tag_17\n  jumpi\n  mload(0x40)\n  0x08c379a000000000000000000000000000000000000000000000000000000000\n  dup2\n  mstore\n  0x04\n  add\n  tag_18\n  swap1\n  tag_19\n  jump\t// in\ntag_18:\n  mload(0x40)\n  dup1\n  swap2\n  sub\n  swap1\n  revert\ntag_17:\n    /* \"MultiSigWallet.sol\":645:652  isOwner */\n  0x00\n    /* \"MultiSigWallet.sol\":645:659  isOwner[owner] */\n  dup1\n    /* \"MultiSigWallet.sol\":653:658  owner */\n  dup3\n    /* \"MultiSigWallet.sol\":645:659  isOwner[owner] */\n  0xffffffffffffffffffffffffffffffffffffffff\n  and\n  0xffffffffffffffffffffffffffffffffffffffff\n  and\n  dup2\n  mstore\n  0x20\n  add\n  swap1\n  dup2\n  mstore\n  0x20\n  add\n  0x00\n  keccak256\n  0x00\n  swap1\n  sload\n  swap1\n  0x0100\n  exp\n  swap1\n  div\n  0xff\n  and\n    /* \"MultiSigWallet.sol\":644:659  !isOwner[owner] */\n  iszero\n    /* \"MultiSigWallet.sol\":636:676  require(!isOwner[owner],\"already owner\") */\n  tag_20\n  jumpi\n  mload(0x40)\n  0x08c379a000000000000000000000000000000000000000000000000000000000\n  dup2\n  mstore\n  0x04\n  add\n  tag_21\n  swap1\n  tag_22\n  jump\t// in\ntag_21:\n  mload(0x40)\n  dup1\n  swap2\n  sub\n  swap1\n  revert\ntag_20:\n    /* \"MultiSigWallet.sol\":705:709  true */\n  0x01\n    /* \"MultiSigWallet.sol\":690:697  isOwner */\n  0x00\n    /* \"MultiSigWallet.sol\":690:704  isOwner[owner] */\n  dup1\n    /* \"MultiSigWallet.sol\":698:703  owner */\n  dup4\n    /* \"MultiSigWallet.sol\":690:704  isOwner[owner] */\n  0xffffffffffffffffffffffffffffffffffffffff\n  and\n  0xffffffffffffffffffffffffffffffffffffffff\n  and\n  dup2\n  mstore\n  0x20\n  add\n  swap1\n  dup2\n  mstore\n  0x20\n  add\n  0x00\n  keccak256\n  0x00\n    /* \"MultiSigWallet.sol\":690:709  isOwner[owner]=true */\n  0x0100\n  exp\n  dup2\n  sload\n  dup2\n  0xff\n  mul\n  not\n  and\n  swap1\n  dup4\n  iszero\n  iszero\n  mul\n  or\n  swap1\n  sstore\n  pop\n    /* \"MultiSigWallet.sol\":723:729  owners */\n  0x01\n    /* \"MultiSigWallet.sol\":735:740  owner */\n  dup2\n    /* \"MultiSigWallet.sol\":723:741  owners.push(owner) */\n  swap1\n  dup1\n  0x01\n  dup2\n  sload\n  add\n  dup1\n  dup3\n  sstore\n  dup1\n  swap2\n  pop\n  pop\n  0x01\n  swap1\n  sub\n  swap1\n  0x00\n  mstore\n  keccak256(0x00, 0x20)\n  add\n  0x00\n  swap1\n  swap2\n  swap1\n  swap2\n  swap1\n  swap2\n  0x0100\n  exp\n  dup2\n  sload\n  dup2\n  0xffffffffffffffffffffffffffffffffffffffff\n  mul\n  not\n  and\n  swap1\n  dup4\n  0xffffffffffffffffffffffffffffffffffffffff\n  and\n  mul\n  or\n  swap1\n  sstore\n  pop\n    /* \"MultiSigWallet.sol\":519:752  {... */\n  pop\n    /* \"MultiSigWallet.sol\":515:518  i++ */\n  dup1\n  dup1\n  tag_24\n  swap1\n  tag_25\n  jump\t// in\ntag_24:\n  swap2\n  pop\n  pop\n    /* \"MultiSigWallet.sol\":485:752  for(uint i=0;i<_owners.length;i++){... */\n  jump(tag_9)\ntag_10:\n  pop\n    /* \"MultiSigWallet.sol\":770:779  _required */\n  dup1\n    /* \"MultiSigWallet.sol\":761:769  required */\n  0x03\n    /* \"MultiSigWallet.sol\":761:779  required=_required */\n  dup2\n  swap1\n  sstore\n  pop\n    /* \"MultiSigWallet.sol\":375:786  constructor(address[] memory _owners, uint _required){... */\n  pop\n  pop\n    /* \"MultiSigWallet.sol\":56:2227  contract MultiSigWallet{... */\n  jump(tag_26)\n    /* \"#utility.yul\":24:768   */\ntag_28:\n    /* \"#utility.yul\":131:136   */\n  0x00\n    /* \"#utility.yul\":156:237   */\n  tag_30\n    /* \"#utility.yul\":172:236   */\n  tag_31\n    /* \"#utility.yul\":229:235   */\n  dup5\n    /* \"#utility.yul\":172:236   */\n  tag_32\n  jump\t// in\ntag_31:\n    /* \"#utility.yul\":156:237   */\n  tag_33\n  jump\t// in\ntag_30:\n    /* \"#utility.yul\":147:237   */\n  swap1\n  pop\n    /* \"#utility.yul\":257:262   */\n  dup1\n    /* \"#utility.yul\":286:292   */\n  dup4\n    /* \"#utility.yul\":279:284   */\n  dup3\n    /* \"#utility.yul\":272:293   */\n  mstore\n    /* \"#utility.yul\":320:324   */\n  0x20\n    /* \"#utility.yul\":313:318   */\n  dup3\n    /* \"#utility.yul\":309:325   */\n  add\n    /* \"#utility.yul\":302:325   */\n  swap1\n  pop\n    /* \"#utility.yul\":346:352   */\n  dup3\n    /* \"#utility.yul\":396:399   */\n  dup6\n    /* \"#utility.yul\":388:392   */\n  0x20\n    /* \"#utility.yul\":380:386   */\n  dup7\n    /* \"#utility.yul\":376:393   */\n  mul\n    /* \"#utility.yul\":371:374   */\n  dup3\n    /* \"#utility.yul\":367:394   */\n  add\n    /* \"#utility.yul\":364:400   */\n  gt\n    /* \"#utility.yul\":361:504   */\n  iszero\n  tag_34\n  jumpi\n    /* \"#utility.yul\":415:494   */\n  tag_35\n  tag_36\n  jump\t// in\ntag_35:\n    /* \"#utility.yul\":361:504   */\ntag_34:\n    /* \"#utility.yul\":528:529   */\n  0x00\n    /* \"#utility.yul\":513:762   */\ntag_37:\n    /* \"#utility.yul\":538:544   */\n  dup6\n    /* \"#utility.yul\":535:536   */\n  dup2\n    /* \"#utility.yul\":532:545   */\n  lt\n    /* \"#utility.yul\":513:762   */\n  iszero\n  tag_39\n  jumpi\n    /* \"#utility.yul\":606:609   */\n  dup2\n    /* \"#utility.yul\":635:683   */\n  tag_40\n    /* \"#utility.yul\":679:682   */\n  dup9\n    /* \"#utility.yul\":667:677   */\n  dup3\n    /* \"#utility.yul\":635:683   */\n  tag_41\n  jump\t// in\ntag_40:\n    /* \"#utility.yul\":630:633   */\n  dup5\n    /* \"#utility.yul\":623:684   */\n  mstore\n    /* \"#utility.yul\":713:717   */\n  0x20\n    /* \"#utility.yul\":708:711   */\n  dup5\n    /* \"#utility.yul\":704:718   */\n  add\n    /* \"#utility.yul\":697:718   */\n  swap4\n  pop\n    /* \"#utility.yul\":747:751   */\n  0x20\n    /* \"#utility.yul\":742:745   */\n  dup4\n    /* \"#utility.yul\":738:752   */\n  add\n    /* \"#utility.yul\":731:752   */\n  swap3\n  pop\n    /* \"#utility.yul\":573:762   */\n  pop\n    /* \"#utility.yul\":560:561   */\n  0x01\n    /* \"#utility.yul\":557:558   */\n  dup2\n    /* \"#utility.yul\":553:562   */\n  add\n    /* \"#utility.yul\":548:562   */\n  swap1\n  pop\n    /* \"#utility.yul\":513:762   */\n  jump(tag_37)\ntag_39:\n    /* \"#utility.yul\":517:531   */\n  pop\n    /* \"#utility.yul\":137:768   */\n  pop\n  pop\n    /* \"#utility.yul\":24:768   */\n  swap4\n  swap3\n  pop\n  pop\n  pop\n  jump\t// out\n    /* \"#utility.yul\":774:917   */\ntag_41:\n    /* \"#utility.yul\":831:836   */\n  0x00\n    /* \"#utility.yul\":862:868   */\n  dup2\n    /* \"#utility.yul\":856:869   */\n  mload\n    /* \"#utility.yul\":847:869   */\n  swap1\n  pop\n    /* \"#utility.yul\":878:911   */\n  tag_43\n    /* \"#utility.yul\":905:910   */\n  dup2\n    /* \"#utility.yul\":878:911   */\n  tag_44\n  jump\t// in\ntag_43:\n    /* \"#utility.yul\":774:917   */\n  swap3\n  swap2\n  pop\n  pop\n  jump\t// out\n    /* \"#utility.yul\":940:1325   */\ntag_45:\n    /* \"#utility.yul\":1022:1027   */\n  0x00\n    /* \"#utility.yul\":1071:1074   */\n  dup3\n    /* \"#utility.yul\":1064:1068   */\n  0x1f\n    /* \"#utility.yul\":1056:1062   */\n  dup4\n    /* \"#utility.yul\":1052:1069   */\n  add\n    /* \"#utility.yul\":1048:1075   */\n  slt\n    /* \"#utility.yul\":1038:1160   */\n  tag_47\n  jumpi\n    /* \"#utility.yul\":1079:1158   */\n  tag_48\n  tag_49\n  jump\t// in\ntag_48:\n    /* \"#utility.yul\":1038:1160   */\ntag_47:\n    /* \"#utility.yul\":1189:1195   */\n  dup2\n    /* \"#utility.yul\":1183:1196   */\n  mload\n    /* \"#utility.yul\":1214:1319   */\n  tag_50\n    /* \"#utility.yul\":1315:1318   */\n  dup5\n    /* \"#utility.yul\":1307:1313   */\n  dup3\n    /* \"#utility.yul\":1300:1304   */\n  0x20\n    /* \"#utility.yul\":1292:1298   */\n  dup7\n    /* \"#utility.yul\":1288:1305   */\n  add\n    /* \"#utility.yul\":1214:1319   */\n  tag_28\n  jump\t// in\ntag_50:\n    /* \"#utility.yul\":1205:1319   */\n  swap2\n  pop\n    /* \"#utility.yul\":1028:1325   */\n  pop\n    /* \"#utility.yul\":940:1325   */\n  swap3\n  swap2\n  pop\n  pop\n  jump\t// out\n    /* \"#utility.yul\":1331:1474   */\ntag_51:\n    /* \"#utility.yul\":1388:1393   */\n  0x00\n    /* \"#utility.yul\":1419:1425   */\n  dup2\n    /* \"#utility.yul\":1413:1426   */\n  mload\n    /* \"#utility.yul\":1404:1426   */\n  swap1\n  pop\n    /* \"#utility.yul\":1435:1468   */\n  tag_53\n    /* \"#utility.yul\":1462:1467   */\n  dup2\n    /* \"#utility.yul\":1435:1468   */\n  tag_54\n  jump\t// in\ntag_53:\n    /* \"#utility.yul\":1331:1474   */\n  swap3\n  swap2\n  pop\n  pop\n  jump\t// out\n    /* \"#utility.yul\":1480:2190   */\ntag_3:\n    /* \"#utility.yul\":1584:1590   */\n  0x00\n    /* \"#utility.yul\":1592:1598   */\n  dup1\n    /* \"#utility.yul\":1641:1643   */\n  0x40\n    /* \"#utility.yul\":1629:1638   */\n  dup4\n    /* \"#utility.yul\":1620:1627   */\n  dup6\n    /* \"#utility.yul\":1616:1639   */\n  sub\n    /* \"#utility.yul\":1612:1644   */\n  slt\n    /* \"#utility.yul\":1609:1728   */\n  iszero\n  tag_56\n  jumpi\n    /* \"#utility.yul\":1647:1726   */\n  tag_57\n  tag_58\n  jump\t// in\ntag_57:\n    /* \"#utility.yul\":1609:1728   */\ntag_56:\n    /* \"#utility.yul\":1788:1789   */\n  0x00\n    /* \"#utility.yul\":1777:1786   */\n  dup4\n    /* \"#utility.yul\":1773:1790   */\n  add\n    /* \"#utility.yul\":1767:1791   */\n  mload\n    /* \"#utility.yul\":1818:1836   */\n  0xffffffffffffffff\n    /* \"#utility.yul\":1810:1816   */\n  dup2\n    /* \"#utility.yul\":1807:1837   */\n  gt\n    /* \"#utility.yul\":1804:1921   */\n  iszero\n  tag_59\n  jumpi\n    /* \"#utility.yul\":1840:1919   */\n  tag_60\n  tag_61\n  jump\t// in\ntag_60:\n    /* \"#utility.yul\":1804:1921   */\ntag_59:\n    /* \"#utility.yul\":1945:2034   */\n  tag_62\n    /* \"#utility.yul\":2026:2033   */\n  dup6\n    /* \"#utility.yul\":2017:2023   */\n  dup3\n    /* \"#utility.yul\":2006:2015   */\n  dup7\n    /* \"#utility.yul\":2002:2024   */\n  add\n    /* \"#utility.yul\":1945:2034   */\n  tag_45\n  jump\t// in\ntag_62:\n    /* \"#utility.yul\":1935:2034   */\n  swap3\n  pop\n    /* \"#utility.yul\":1738:2044   */\n  pop\n    /* \"#utility.yul\":2083:2085   */\n  0x20\n    /* \"#utility.yul\":2109:2173   */\n  tag_63\n    /* \"#utility.yul\":2165:2172   */\n  dup6\n    /* \"#utility.yul\":2156:2162   */\n  dup3\n    /* \"#utility.yul\":2145:2154   */\n  dup7\n    /* \"#utility.yul\":2141:2163   */\n  add\n    /* \"#utility.yul\":2109:2173   */\n  tag_51\n  jump\t// in\ntag_63:\n    /* \"#utility.yul\":2099:2173   */\n  swap2\n  pop\n    /* \"#utility.yul\":2054:2183   */\n  pop\n    /* \"#utility.yul\":1480:2190   */\n  swap3\n  pop\n  swap3\n  swap1\n  pop\n  jump\t// out\n    /* \"#utility.yul\":2196:2562   */\ntag_64:\n    /* \"#utility.yul\":2338:2341   */\n  0x00\n    /* \"#utility.yul\":2359:2426   */\n  tag_66\n    /* \"#utility.yul\":2423:2425   */\n  0x0d\n    /* \"#utility.yul\":2418:2421   */\n  dup4\n    /* \"#utility.yul\":2359:2426   */\n  tag_67\n  jump\t// in\ntag_66:\n    /* \"#utility.yul\":2352:2426   */\n  swap2\n  pop\n    /* \"#utility.yul\":2435:2528   */\n  tag_68\n    /* \"#utility.yul\":2524:2527   */\n  dup3\n    /* \"#utility.yul\":2435:2528   */\n  tag_69\n  jump\t// in\ntag_68:\n    /* \"#utility.yul\":2553:2555   */\n  0x20\n    /* \"#utility.yul\":2548:2551   */\n  dup3\n    /* \"#utility.yul\":2544:2556   */\n  add\n    /* \"#utility.yul\":2537:2556   */\n  swap1\n  pop\n    /* \"#utility.yul\":2196:2562   */\n  swap2\n  swap1\n  pop\n  jump\t// out\n    /* \"#utility.yul\":2568:2934   */\ntag_70:\n    /* \"#utility.yul\":2710:2713   */\n  0x00\n    /* \"#utility.yul\":2731:2798   */\n  tag_72\n    /* \"#utility.yul\":2795:2797   */\n  0x0f\n    /* \"#utility.yul\":2790:2793   */\n  dup4\n    /* \"#utility.yul\":2731:2798   */\n  tag_67\n  jump\t// in\ntag_72:\n    /* \"#utility.yul\":2724:2798   */\n  swap2\n  pop\n    /* \"#utility.yul\":2807:2900   */\n  tag_73\n    /* \"#utility.yul\":2896:2899   */\n  dup3\n    /* \"#utility.yul\":2807:2900   */\n  tag_74\n  jump\t// in\ntag_73:\n    /* \"#utility.yul\":2925:2927   */\n  0x20\n    /* \"#utility.yul\":2920:2923   */\n  dup3\n    /* \"#utility.yul\":2916:2928   */\n  add\n    /* \"#utility.yul\":2909:2928   */\n  swap1\n  pop\n    /* \"#utility.yul\":2568:2934   */\n  swap2\n  swap1\n  pop\n  jump\t// out\n    /* \"#utility.yul\":2940:3305   */\ntag_75:\n    /* \"#utility.yul\":3082:3085   */\n  0x00\n    /* \"#utility.yul\":3103:3169   */\n  tag_77\n    /* \"#utility.yul\":3167:3168   */\n  0x09\n    /* \"#utility.yul\":3162:3165   */\n  dup4\n    /* \"#utility.yul\":3103:3169   */\n  tag_67\n  jump\t// in\ntag_77:\n    /* \"#utility.yul\":3096:3169   */\n  swap2\n  pop\n    /* \"#utility.yul\":3178:3271   */\n  tag_78\n    /* \"#utility.yul\":3267:3270   */\n  dup3\n    /* \"#utility.yul\":3178:3271   */\n  tag_79\n  jump\t// in\ntag_78:\n    /* \"#utility.yul\":3296:3298   */\n  0x20\n    /* \"#utility.yul\":3291:3294   */\n  dup3\n    /* \"#utility.yul\":3287:3299   */\n  add\n    /* \"#utility.yul\":3280:3299   */\n  swap1\n  pop\n    /* \"#utility.yul\":2940:3305   */\n  swap2\n  swap1\n  pop\n  jump\t// out\n    /* \"#utility.yul\":3311:3730   */\ntag_22:\n    /* \"#utility.yul\":3477:3481   */\n  0x00\n    /* \"#utility.yul\":3515:3517   */\n  0x20\n    /* \"#utility.yul\":3504:3513   */\n  dup3\n    /* \"#utility.yul\":3500:3518   */\n  add\n    /* \"#utility.yul\":3492:3518   */\n  swap1\n  pop\n    /* \"#utility.yul\":3564:3573   */\n  dup2\n    /* \"#utility.yul\":3558:3562   */\n  dup2\n    /* \"#utility.yul\":3554:3574   */\n  sub\n    /* \"#utility.yul\":3550:3551   */\n  0x00\n    /* \"#utility.yul\":3539:3548   */\n  dup4\n    /* \"#utility.yul\":3535:3552   */\n  add\n    /* \"#utility.yul\":3528:3575   */\n  mstore\n    /* \"#utility.yul\":3592:3723   */\n  tag_81\n    /* \"#utility.yul\":3718:3722   */\n  dup2\n    /* \"#utility.yul\":3592:3723   */\n  tag_64\n  jump\t// in\ntag_81:\n    /* \"#utility.yul\":3584:3723   */\n  swap1\n  pop\n    /* \"#utility.yul\":3311:3730   */\n  swap2\n  swap1\n  pop\n  jump\t// out\n    /* \"#utility.yul\":3736:4155   */\ntag_19:\n    /* \"#utility.yul\":3902:3906   */\n  0x00\n    /* \"#utility.yul\":3940:3942   */\n  0x20\n    /* \"#utility.yul\":3929:3938   */\n  dup3\n    /* \"#utility.yul\":3925:3943   */\n  add\n    /* \"#utility.yul\":3917:3943   */\n  swap1\n  pop\n    /* \"#utility.yul\":3989:3998   */\n  dup2\n    /* \"#utility.yul\":3983:3987   */\n  dup2\n    /* \"#utility.yul\":3979:3999   */\n  sub\n    /* \"#utility.yul\":3975:3976   */\n  0x00\n    /* \"#utility.yul\":3964:3973   */\n  dup4\n    /* \"#utility.yul\":3960:3977   */\n  add\n    /* \"#utility.yul\":3953:4000   */\n  mstore\n    /* \"#utility.yul\":4017:4148   */\n  tag_83\n    /* \"#utility.yul\":4143:4147   */\n  dup2\n    /* \"#utility.yul\":4017:4148   */\n  tag_70\n  jump\t// in\ntag_83:\n    /* \"#utility.yul\":4009:4148   */\n  swap1\n  pop\n    /* \"#utility.yul\":3736:4155   */\n  swap2\n  swap1\n  pop\n  jump\t// out\n    /* \"#utility.yul\":4161:4580   */\ntag_8:\n    /* \"#utility.yul\":4327:4331   */\n  0x00\n    /* \"#utility.yul\":4365:4367   */\n  0x20\n    /* \"#utility.yul\":4354:4363   */\n  dup3\n    /* \"#utility.yul\":4350:4368   */\n  add\n    /* \"#utility.yul\":4342:4368   */\n  swap1\n  pop\n    /* \"#utility.yul\":4414:4423   */\n  dup2\n    /* \"#utility.yul\":4408:4412   */\n  dup2\n    /* \"#utility.yul\":4404:4424   */\n  sub\n    /* \"#utility.yul\":4400:4401   */\n  0x00\n    /* \"#utility.yul\":4389:4398   */\n  dup4\n    /* \"#utility.yul\":4385:4402   */\n  add\n    /* \"#utility.yul\":4378:4425   */\n  mstore\n    /* \"#utility.yul\":4442:4573   */\n  tag_85\n    /* \"#utility.yul\":4568:4572   */\n  dup2\n    /* \"#utility.yul\":4442:4573   */\n  tag_75\n  jump\t// in\ntag_85:\n    /* \"#utility.yul\":4434:4573   */\n  swap1\n  pop\n    /* \"#utility.yul\":4161:4580   */\n  swap2\n  swap1\n  pop\n  jump\t// out\n    /* \"#utility.yul\":4586:4715   */\ntag_33:\n    /* \"#utility.yul\":4620:4626   */\n  0x00\n    /* \"#utility.yul\":4647:4667   */\n  tag_87\n  tag_88\n  jump\t// in\ntag_87:\n    /* \"#utility.yul\":4637:4667   */\n  swap1\n  pop\n    /* \"#utility.yul\":4676:4709   */\n  tag_89\n    /* \"#utility.yul\":4704:4708   */\n  dup3\n    /* \"#utility.yul\":4696:4702   */\n  dup3\n    /* \"#utility.yul\":4676:4709   */\n  tag_90\n  jump\t// in\ntag_89:\n    /* \"#utility.yul\":4586:4715   */\n  swap2\n  swap1\n  pop\n  jump\t// out\n    /* \"#utility.yul\":4721:4796   */\ntag_88:\n    /* \"#utility.yul\":4754:4760   */\n  0x00\n    /* \"#utility.yul\":4787:4789   */\n  0x40\n    /* \"#utility.yul\":4781:4790   */\n  mload\n    /* \"#utility.yul\":4771:4790   */\n  swap1\n  pop\n    /* \"#utility.yul\":4721:4796   */\n  swap1\n  jump\t// out\n    /* \"#utility.yul\":4802:5113   */\ntag_32:\n    /* \"#utility.yul\":4879:4883   */\n  0x00\n    /* \"#utility.yul\":4969:4987   */\n  0xffffffffffffffff\n    /* \"#utility.yul\":4961:4967   */\n  dup3\n    /* \"#utility.yul\":4958:4988   */\n  gt\n    /* \"#utility.yul\":4955:5011   */\n  iszero\n  tag_93\n  jumpi\n    /* \"#utility.yul\":4991:5009   */\n  tag_94\n  tag_95\n  jump\t// in\ntag_94:\n    /* \"#utility.yul\":4955:5011   */\ntag_93:\n    /* \"#utility.yul\":5041:5045   */\n  0x20\n    /* \"#utility.yul\":5033:5039   */\n  dup3\n    /* \"#utility.yul\":5029:5046   */\n  mul\n    /* \"#utility.yul\":5021:5046   */\n  swap1\n  pop\n    /* \"#utility.yul\":5101:5105   */\n  0x20\n    /* \"#utility.yul\":5095:5099   */\n  dup2\n    /* \"#utility.yul\":5091:5106   */\n  add\n    /* \"#utility.yul\":5083:5106   */\n  swap1\n  pop\n    /* \"#utility.yul\":4802:5113   */\n  swap2\n  swap1\n  pop\n  jump\t// out\n    /* \"#utility.yul\":5119:5288   */\ntag_67:\n    /* \"#utility.yul\":5203:5214   */\n  0x00\n    /* \"#utility.yul\":5237:5243   */\n  dup3\n    /* \"#utility.yul\":5232:5235   */\n  dup3\n    /* \"#utility.yul\":5225:5244   */\n  mstore\n    /* \"#utility.yul\":5277:5281   */\n  0x20\n    /* \"#utility.yul\":5272:5275   */\n  dup3\n    /* \"#utility.yul\":5268:5282   */\n  add\n    /* \"#utility.yul\":5253:5282   */\n  swap1\n  pop\n    /* \"#utility.yul\":5119:5288   */\n  swap3\n  swap2\n  pop\n  pop\n  jump\t// out\n    /* \"#utility.yul\":5294:5390   */\ntag_97:\n    /* \"#utility.yul\":5331:5338   */\n  0x00\n    /* \"#utility.yul\":5360:5384   */\n  tag_99\n    /* \"#utility.yul\":5378:5383   */\n  dup3\n    /* \"#utility.yul\":5360:5384   */\n  tag_100\n  jump\t// in\ntag_99:\n    /* \"#utility.yul\":5349:5384   */\n  swap1\n  pop\n    /* \"#utility.yul\":5294:5390   */\n  swap2\n  swap1\n  pop\n  jump\t// out\n    /* \"#utility.yul\":5396:5522   */\ntag_100:\n    /* \"#utility.yul\":5433:5440   */\n  0x00\n    /* \"#utility.yul\":5473:5515   */\n  0xffffffffffffffffffffffffffffffffffffffff\n    /* \"#utility.yul\":5466:5471   */\n  dup3\n    /* \"#utility.yul\":5462:5516   */\n  and\n    /* \"#utility.yul\":5451:5516   */\n  swap1\n  pop\n    /* \"#utility.yul\":5396:5522   */\n  swap2\n  swap1\n  pop\n  jump\t// out\n    /* \"#utility.yul\":5528:5605   */\ntag_102:\n    /* \"#utility.yul\":5565:5572   */\n  0x00\n    /* \"#utility.yul\":5594:5599   */\n  dup2\n    /* \"#utility.yul\":5583:5599   */\n  swap1\n  pop\n    /* \"#utility.yul\":5528:5605   */\n  swap2\n  swap1\n  pop\n  jump\t// out\n    /* \"#utility.yul\":5611:5892   */\ntag_90:\n    /* \"#utility.yul\":5694:5721   */\n  tag_105\n    /* \"#utility.yul\":5716:5720   */\n  dup3\n    /* \"#utility.yul\":5694:5721   */\n  tag_106\n  jump\t// in\ntag_105:\n    /* \"#utility.yul\":5686:5692   */\n  dup2\n    /* \"#utility.yul\":5682:5722   */\n  add\n    /* \"#utility.yul\":5824:5830   */\n  dup2\n    /* \"#utility.yul\":5812:5822   */\n  dup2\n    /* \"#utility.yul\":5809:5831   */\n  lt\n    /* \"#utility.yul\":5788:5806   */\n  0xffffffffffffffff\n    /* \"#utility.yul\":5776:5786   */\n  dup3\n    /* \"#utility.yul\":5773:5807   */\n  gt\n    /* \"#utility.yul\":5770:5832   */\n  or\n    /* \"#utility.yul\":5767:5855   */\n  iszero\n  tag_107\n  jumpi\n    /* \"#utility.yul\":5835:5853   */\n  tag_108\n  tag_95\n  jump\t// in\ntag_108:\n    /* \"#utility.yul\":5767:5855   */\ntag_107:\n    /* \"#utility.yul\":5875:5885   */\n  dup1\n    /* \"#utility.yul\":5871:5873   */\n  0x40\n    /* \"#utility.yul\":5864:5886   */\n  mstore\n    /* \"#utility.yul\":5654:5892   */\n  pop\n    /* \"#utility.yul\":5611:5892   */\n  pop\n  pop\n  jump\t// out\n    /* \"#utility.yul\":5898:6131   */\ntag_25:\n    /* \"#utility.yul\":5937:5940   */\n  0x00\n    /* \"#utility.yul\":5960:5984   */\n  tag_110\n    /* \"#utility.yul\":5978:5983   */\n  dup3\n    /* \"#utility.yul\":5960:5984   */\n  tag_102\n  jump\t// in\ntag_110:\n    /* \"#utility.yul\":5951:5984   */\n  swap2\n  pop\n    /* \"#utility.yul\":6006:6072   */\n  0xffffffffffffffffffffffffffffffffffffffffffffffffffffffffffffffff\n    /* \"#utility.yul\":5999:6004   */\n  dup3\n    /* \"#utility.yul\":5996:6073   */\n  eq\n    /* \"#utility.yul\":5993:6096   */\n  iszero\n  tag_111\n  jumpi\n    /* \"#utility.yul\":6076:6094   */\n  tag_112\n  tag_113\n  jump\t// in\ntag_112:\n    /* \"#utility.yul\":5993:6096   */\ntag_111:\n    /* \"#utility.yul\":6123:6124   */\n  0x01\n    /* \"#utility.yul\":6116:6121   */\n  dup3\n    /* \"#utility.yul\":6112:6125   */\n  add\n    /* \"#utility.yul\":6105:6125   */\n  swap1\n  pop\n    /* \"#utility.yul\":5898:6131   */\n  swap2\n  swap1\n  pop\n  jump\t// out\n    /* \"#utility.yul\":6137:6317   */\ntag_113:\n    /* \"#utility.yul\":6185:6262   */\n  0x4e487b7100000000000000000000000000000000000000000000000000000000\n    /* \"#utility.yul\":6182:6183   */\n  0x00\n    /* \"#utility.yul\":6175:6263   */\n  mstore\n    /* \"#utility.yul\":6282:6286   */\n  0x11\n    /* \"#utility.yul\":6279:6280   */\n  0x04\n    /* \"#utility.yul\":6272:6287   */\n  mstore\n    /* \"#utility.yul\":6306:6310   */\n  0x24\n    /* \"#utility.yul\":6303:6304   */\n  0x00\n    /* \"#utility.yul\":6296:6311   */\n  revert\n    /* \"#utility.yul\":6323:6503   */\ntag_14:\n    /* \"#utility.yul\":6371:6448   */\n  0x4e487b7100000000000000000000000000000000000000000000000000000000\n    /* \"#utility.yul\":6368:6369   */\n  0x00\n    /* \"#utility.yul\":6361:6449   */\n  mstore\n    /* \"#utility.yul\":6468:6472   */\n  0x32\n    /* \"#utility.yul\":6465:6466   */\n  0x04\n    /* \"#utility.yul\":6458:6473   */\n  mstore\n    /* \"#utility.yul\":6492:6496   */\n  0x24\n    /* \"#utility.yul\":6489:6490   */\n  0x00\n    /* \"#utility.yul\":6482:6497   */\n  revert\n    /* \"#utility.yul\":6509:6689   */\ntag_95:\n    /* \"#utility.yul\":6557:6634   */\n  0x4e487b7100000000000000000000000000000000000000000000000000000000\n    /* \"#utility.yul\":6554:6555   */\n  0x00\n    /* \"#utility.yul\":6547:6635   */\n  mstore\n    /* \"#utility.yul\":6654:6658   */\n  0x41\n    /* \"#utility.yul\":6651:6652   */\n  0x04\n    /* \"#utility.yul\":6644:6659   */\n  mstore\n    /* \"#utility.yul\":6678:6682   */\n  0x24\n    /* \"#utility.yul\":6675:6676   */\n  0x00\n    /* \"#utility.yul\":6668:6683   */\n  revert\n    /* \"#utility.yul\":6695:6812   */\ntag_49:\n    /* \"#utility.yul\":6804:6805   */\n  0x00\n    /* \"#utility.yul\":6801:6802   */\n  dup1\n    /* \"#utility.yul\":6794:6806   */\n  revert\n    /* \"#utility.yul\":6818:6935   */\ntag_36:\n    /* \"#utility.yul\":6927:6928   */\n  0x00\n    /* \"#utility.yul\":6924:6925   */\n  dup1\n    /* \"#utility.yul\":6917:6929   */\n  revert\n    /* \"#utility.yul\":6941:7058   */\ntag_61:\n    /* \"#utility.yul\":7050:7051   */\n  0x00\n    /* \"#utility.yul\":7047:7048   */\n  dup1\n    /* \"#utility.yul\":7040:7052   */\n  revert\n    /* \"#utility.yul\":7064:7181   */\ntag_58:\n    /* \"#utility.yul\":7173:7174   */\n  0x00\n    /* \"#utility.yul\":7170:7171   */\n  dup1\n    /* \"#utility.yul\":7163:7175   */\n  revert\n    /* \"#utility.yul\":7187:7289   */\ntag_106:\n    /* \"#utility.yul\":7228:7234   */\n  0x00\n    /* \"#utility.yul\":7279:7281   */\n  0x1f\n    /* \"#utility.yul\":7275:7282   */\n  not\n    /* \"#utility.yul\":7270:7272   */\n  0x1f\n    /* \"#utility.yul\":7263:7268   */\n  dup4\n    /* \"#utility.yul\":7259:7273   */\n  add\n    /* \"#utility.yul\":7255:7283   */\n  and\n    /* \"#utility.yul\":7245:7283   */\n  swap1\n  pop\n    /* \"#utility.yul\":7187:7289   */\n  swap2\n  swap1\n  pop\n  jump\t// out\n    /* \"#utility.yul\":7295:7458   */\ntag_69:\n    /* \"#utility.yul\":7435:7450   */\n  0x616c7265616479206f776e657200000000000000000000000000000000000000\n    /* \"#utility.yul\":7431:7432   */\n  0x00\n    /* \"#utility.yul\":7423:7429   */\n  dup3\n    /* \"#utility.yul\":7419:7433   */\n  add\n    /* \"#utility.yul\":7412:7451   */\n  mstore\n    /* \"#utility.yul\":7295:7458   */\n  pop\n  jump\t// out\n    /* \"#utility.yul\":7464:7629   */\ntag_74:\n    /* \"#utility.yul\":7604:7621   */\n  0x696e76616c696420616464726573730000000000000000000000000000000000\n    /* \"#utility.yul\":7600:7601   */\n  0x00\n    /* \"#utility.yul\":7592:7598   */\n  dup3\n    /* \"#utility.yul\":7588:7602   */\n  add\n    /* \"#utility.yul\":7581:7622   */\n  mstore\n    /* \"#utility.yul\":7464:7629   */\n  pop\n  jump\t// out\n    /* \"#utility.yul\":7635:7794   */\ntag_79:\n    /* \"#utility.yul\":7775:7786   */\n  0x6e6f206f776e6572730000000000000000000000000000000000000000000000\n    /* \"#utility.yul\":7771:7772   */\n  0x00\n    /* \"#utility.yul\":7763:7769   */\n  dup3\n    /* \"#utility.yul\":7759:7773   */\n  add\n    /* \"#utility.yul\":7752:7787   */\n  mstore\n    /* \"#utility.yul\":7635:7794   */\n  pop\n  jump\t// out\n    /* \"#utility.yul\":7800:7922   */\ntag_44:\n    /* \"#utility.yul\":7873:7897   */\n  tag_126\n    /* \"#utility.yul\":7891:7896   */\n  dup2\n    /* \"#utility.yul\":7873:7897   */\n  tag_97\n  jump\t// in\ntag_126:\n    /* \"#utility.yul\":7866:7871   */\n  dup2\n    /* \"#utility.yul\":7863:7898   */\n  eq\n    /* \"#utility.yul\":7853:7916   */\n  tag_127\n  jumpi\n    /* \"#utility.yul\":7912:7913   */\n  0x00\n    /* \"#utility.yul\":7909:7910   */\n  dup1\n    /* \"#utility.yul\":7902:7914   */\n  revert\n    /* \"#utility.yul\":7853:7916   */\ntag_127:\n    /* \"#utility.yul\":7800:7922   */\n  pop\n  jump\t// out\n    /* \"#utility.yul\":7928:8050   */\ntag_54:\n    /* \"#utility.yul\":8001:8025   */\n  tag_129\n    /* \"#utility.yul\":8019:8024   */\n  dup2\n    /* \"#utility.yul\":8001:8025   */\n  tag_102\n  jump\t// in\ntag_129:\n    /* \"#utility.yul\":7994:7999   */\n  dup2\n    /* \"#utility.yul\":7991:8026   */\n  eq\n    /* \"#utility.yul\":7981:8044   */\n  tag_130\n  jumpi\n    /* \"#utility.yul\":8040:8041   */\n  0x00\n    /* \"#utility.yul\":8037:8038   */\n  dup1\n    /* \"#utility.yul\":8030:8042   */\n  revert\n    /* \"#utility.yul\":7981:8044   */\ntag_130:\n    /* \"#utility.yul\":7928:8050   */\n  pop\n  jump\t// out\n    /* \"MultiSigWallet.sol\":56:2227  contract MultiSigWallet{... */\ntag_26:\n  dataSize(sub_0)\n  dup1\n  dataOffset(sub_0)\n  0x00\n  codecopy\n  0x00\n  return\nstop\n\nsub_0: assembly {\n        /* \"MultiSigWallet.sol\":56:2227  contract MultiSigWallet{... */\n      mstore(0x40, 0x80)\n      jumpi(tag_1, lt(calldatasize, 0x04))\n      shr(0xe0, calldataload(0x00))\n      dup1\n      0x073cbe49\n      eq\n      tag_3\n      jumpi\n      dup1\n      0x14de327f\n      eq\n      tag_4\n      jumpi\n      dup1\n      0x20c5429b\n      eq\n      tag_5\n      jumpi\n      dup1\n      0xb759f954\n      eq\n      tag_6\n      jumpi\n      dup1\n      0xfe0d94c1\n      eq\n      tag_7\n      jumpi\n      jump(tag_2)\n    tag_1:\n      jumpi(tag_2, calldatasize)\n      stop\n    tag_2:\n      0x00\n      dup1\n      revert\n        /* \"MultiSigWallet.sol\":1547:1800  function getApprovedCount(uint txId) public view returns(uint count) {... */\n    tag_3:\n      callvalue\n      dup1\n      iszero\n      tag_10\n      jumpi\n      0x00\n      dup1\n      revert\n    tag_10:\n      pop\n      tag_11\n      0x04\n      dup1\n      calldatasize\n      sub\n      dup2\n      add\n      swap1\n      tag_12\n      swap2\n      swap1\n      tag_13\n      jump\t// in\n    tag_12:\n      tag_14\n      jump\t// in\n    tag_11:\n      mload(0x40)\n      tag_15\n      swap2\n      swap1\n      tag_16\n      jump\t// in\n    tag_15:\n      mload(0x40)\n      dup1\n      swap2\n      sub\n      swap1\n      return\n        /* \"MultiSigWallet.sol\":906:1111  function submit(address _destination,uint _amount, bytes calldata _data) onlyOwner external{... */\n    tag_4:\n      callvalue\n      dup1\n      iszero\n      tag_17\n      jumpi\n      0x00\n      dup1\n      revert\n    tag_17:\n      pop\n      tag_18\n      0x04\n      dup1\n      calldatasize\n      sub\n      dup2\n      add\n      swap1\n      tag_19\n      swap2\n      swap1\n      tag_20\n      jump\t// in\n    tag_19:\n      tag_21\n      jump\t// in\n    tag_18:\n      stop\n        /* \"MultiSigWallet.sol\":1322:1542  function revoke(uint txId) external onlyOwner{... */\n    tag_5:\n      callvalue\n      dup1\n      iszero\n      tag_22\n      jumpi\n      0x00\n      dup1\n      revert\n    tag_22:\n      pop\n      tag_23\n      0x04\n      dup1\n      calldatasize\n      sub\n      dup2\n      add\n      swap1\n      tag_24\n      swap2\n      swap1\n      tag_13\n      jump\t// in\n    tag_24:\n      tag_25\n      jump\t// in\n    tag_23:\n      stop\n        /* \"MultiSigWallet.sol\":1117:1317  function approve(uint txId)external onlyOwner{... */\n    tag_6:\n      callvalue\n      dup1\n      iszero\n      tag_26\n      jumpi\n      0x00\n      dup1\n      revert\n    tag_26:\n      pop\n      tag_27\n      0x04\n      dup1\n      calldatasize\n      sub\n      dup2\n      add\n      swap1\n      tag_28\n      swap2\n      swap1\n      tag_13\n      jump\t// in\n    tag_28:\n      tag_29\n      jump\t// in\n    tag_27:\n      stop\n        /* \"MultiSigWallet.sol\":1806:2224  function execute(uint txId) external returns(bool){... */\n    tag_7:\n      callvalue\n      dup1\n      iszero\n      tag_30\n      jumpi\n      0x00\n      dup1\n      revert\n    tag_30:\n      pop\n      tag_31\n      0x04\n      dup1\n      calldatasize\n      sub\n      dup2\n      add\n      swap1\n      tag_32\n      swap2\n      swap1\n      tag_13\n      jump\t// in\n    tag_32:\n      tag_33\n      jump\t// in\n    tag_31:\n      mload(0x40)\n      tag_34\n      swap2\n      swap1\n      tag_35\n      jump\t// in\n    tag_34:\n      mload(0x40)\n      dup1\n      swap2\n      sub\n      swap1\n      return\n        /* \"MultiSigWallet.sol\":1547:1800  function getApprovedCount(uint txId) public view returns(uint count) {... */\n    tag_14:\n        /* \"MultiSigWallet.sol\":1604:1614  uint count */\n      0x00\n        /* \"MultiSigWallet.sol\":1639:1650  transactons */\n      0x02\n        /* \"MultiSigWallet.sol\":1639:1657  transactons.length */\n      dup1\n      sload\n      swap1\n      pop\n        /* \"MultiSigWallet.sol\":1634:1638  txId */\n      dup3\n        /* \"MultiSigWallet.sol\":1634:1657  txId<transactons.length */\n      lt\n        /* \"MultiSigWallet.sol\":1626:1658  require(txId<transactons.length) */\n      tag_37\n      jumpi\n      0x00\n      dup1\n      revert\n    tag_37:\n        /* \"MultiSigWallet.sol\":1672:1678  uint i */\n      0x00\n        /* \"MultiSigWallet.sol\":1668:1794  for(uint i=0;i<owners.length;i++){... */\n    tag_38:\n        /* \"MultiSigWallet.sol\":1683:1689  owners */\n      0x01\n        /* \"MultiSigWallet.sol\":1683:1696  owners.length */\n      dup1\n      sload\n      swap1\n      pop\n        /* \"MultiSigWallet.sol\":1681:1682  i */\n      dup2\n        /* \"MultiSigWallet.sol\":1681:1696  i<owners.length */\n      lt\n        /* \"MultiSigWallet.sol\":1668:1794  for(uint i=0;i<owners.length;i++){... */\n      iszero\n      tag_39\n      jumpi\n        /* \"MultiSigWallet.sol\":1718:1726  approved */\n      0x04\n        /* \"MultiSigWallet.sol\":1718:1732  approved[txId] */\n      0x00\n        /* \"MultiSigWallet.sol\":1727:1731  txId */\n      dup5\n        /* \"MultiSigWallet.sol\":1718:1732  approved[txId] */\n      dup2\n      mstore\n      0x20\n      add\n      swap1\n      dup2\n      mstore\n      0x20\n      add\n      0x00\n      keccak256\n        /* \"MultiSigWallet.sol\":1718:1743  approved[txId][owners[i]] */\n      0x00\n        /* \"MultiSigWallet.sol\":1733:1739  owners */\n      0x01\n        /* \"MultiSigWallet.sol\":1740:1741  i */\n      dup4\n        /* \"MultiSigWallet.sol\":1733:1742  owners[i] */\n      dup2\n      sload\n      dup2\n      lt\n      tag_41\n      jumpi\n      tag_42\n      tag_43\n      jump\t// in\n    tag_42:\n    tag_41:\n      swap1\n      0x00\n      mstore\n      keccak256(0x00, 0x20)\n      add\n      0x00\n      swap1\n      sload\n      swap1\n      0x0100\n      exp\n      swap1\n      div\n      0xffffffffffffffffffffffffffffffffffffffff\n      and\n        /* \"MultiSigWallet.sol\":1718:1743  approved[txId][owners[i]] */\n      0xffffffffffffffffffffffffffffffffffffffff\n      and\n      0xffffffffffffffffffffffffffffffffffffffff\n      and\n      dup2\n      mstore\n      0x20\n      add\n      swap1\n      dup2\n      mstore\n      0x20\n      add\n      0x00\n      keccak256\n      0x00\n      swap1\n      sload\n      swap1\n      0x0100\n      exp\n      swap1\n      div\n      0xff\n      and\n        /* \"MultiSigWallet.sol\":1715:1784  if(approved[txId][owners[i]]){... */\n      iszero\n      tag_45\n      jumpi\n        /* \"MultiSigWallet.sol\":1762:1769  count++ */\n      dup2\n      dup1\n      tag_46\n      swap1\n      tag_47\n      jump\t// in\n    tag_46:\n      swap3\n      pop\n      pop\n        /* \"MultiSigWallet.sol\":1715:1784  if(approved[txId][owners[i]]){... */\n    tag_45:\n        /* \"MultiSigWallet.sol\":1697:1700  i++ */\n      dup1\n      dup1\n      tag_48\n      swap1\n      tag_47\n      jump\t// in\n    tag_48:\n      swap2\n      pop\n      pop\n        /* \"MultiSigWallet.sol\":1668:1794  for(uint i=0;i<owners.length;i++){... */\n      jump(tag_38)\n    tag_39:\n      pop\n        /* \"MultiSigWallet.sol\":1547:1800  function getApprovedCount(uint txId) public view returns(uint count) {... */\n      swap2\n      swap1\n      pop\n      jump\t// out\n        /* \"MultiSigWallet.sol\":906:1111  function submit(address _destination,uint _amount, bytes calldata _data) onlyOwner external{... */\n    tag_21:\n        /* \"MultiSigWallet.sol\":863:870  isOwner */\n      0x00\n        /* \"MultiSigWallet.sol\":863:882  isOwner[msg.sender] */\n      dup1\n        /* \"MultiSigWallet.sol\":871:881  msg.sender */\n      caller\n        /* \"MultiSigWallet.sol\":863:882  isOwner[msg.sender] */\n      0xffffffffffffffffffffffffffffffffffffffff\n      and\n      0xffffffffffffffffffffffffffffffffffffffff\n      and\n      dup2\n      mstore\n      0x20\n      add\n      swap1\n      dup2\n      mstore\n      0x20\n      add\n      0x00\n      keccak256\n      0x00\n      swap1\n      sload\n      swap1\n      0x0100\n      exp\n      swap1\n      div\n      0xff\n      and\n        /* \"MultiSigWallet.sol\":855:883  require(isOwner[msg.sender]) */\n      tag_50\n      jumpi\n      0x00\n      dup1\n      revert\n    tag_50:\n        /* \"MultiSigWallet.sol\":1007:1027  Transaction memory t */\n      0x00\n        /* \"MultiSigWallet.sol\":1030:1075  Transaction(_destination,_amount,_data,false) */\n      mload(0x40)\n      dup1\n      0x80\n      add\n      0x40\n      mstore\n      dup1\n        /* \"MultiSigWallet.sol\":1042:1054  _destination */\n      dup7\n        /* \"MultiSigWallet.sol\":1030:1075  Transaction(_destination,_amount,_data,false) */\n      0xffffffffffffffffffffffffffffffffffffffff\n      and\n      dup2\n      mstore\n      0x20\n      add\n        /* \"MultiSigWallet.sol\":1055:1062  _amount */\n      dup6\n        /* \"MultiSigWallet.sol\":1030:1075  Transaction(_destination,_amount,_data,false) */\n      dup2\n      mstore\n      0x20\n      add\n        /* \"MultiSigWallet.sol\":1063:1068  _data */\n      dup5\n      dup5\n        /* \"MultiSigWallet.sol\":1030:1075  Transaction(_destination,_amount,_data,false) */\n      dup1\n      dup1\n      0x1f\n      add\n      0x20\n      dup1\n      swap2\n      div\n      mul\n      0x20\n      add\n      mload(0x40)\n      swap1\n      dup2\n      add\n      0x40\n      mstore\n      dup1\n      swap4\n      swap3\n      swap2\n      swap1\n      dup2\n      dup2\n      mstore\n      0x20\n      add\n      dup4\n      dup4\n      dup1\n      dup3\n      dup5\n      calldatacopy\n      0x00\n      dup2\n      dup5\n      add\n      mstore\n      not(0x1f)\n      0x1f\n      dup3\n      add\n      and\n      swap1\n      pop\n      dup1\n      dup4\n      add\n      swap3\n      pop\n      pop\n      pop\n      pop\n      pop\n      pop\n      pop\n      dup2\n      mstore\n      0x20\n      add\n        /* \"MultiSigWallet.sol\":1069:1074  false */\n      0x00\n        /* \"MultiSigWallet.sol\":1030:1075  Transaction(_destination,_amount,_data,false) */\n      iszero\n      iszero\n      dup2\n      mstore\n      pop\n        /* \"MultiSigWallet.sol\":1007:1075  Transaction memory t = Transaction(_destination,_amount,_data,false) */\n      swap1\n      pop\n        /* \"MultiSigWallet.sol\":1085:1096  transactons */\n      0x02\n        /* \"MultiSigWallet.sol\":1102:1103  t */\n      dup2\n        /* \"MultiSigWallet.sol\":1085:1104  transactons.push(t) */\n      swap1\n      dup1\n      0x01\n      dup2\n      sload\n      add\n      dup1\n      dup3\n      sstore\n      dup1\n      swap2\n      pop\n      pop\n      0x01\n      swap1\n      sub\n      swap1\n      0x00\n      mstore\n      keccak256(0x00, 0x20)\n      swap1\n      0x04\n      mul\n      add\n      0x00\n      swap1\n      swap2\n      swap1\n      swap2\n      swap1\n      swap2\n      pop\n      0x00\n      dup3\n      add\n      mload\n      dup2\n      0x00\n      add\n      exp(0x0100, 0x00)\n      dup2\n      sload\n      dup2\n      0xffffffffffffffffffffffffffffffffffffffff\n      mul\n      not\n      and\n      swap1\n      dup4\n      0xffffffffffffffffffffffffffffffffffffffff\n      and\n      mul\n      or\n      swap1\n      sstore\n      pop\n      0x20\n      dup3\n      add\n      mload\n      dup2\n      0x01\n      add\n      sstore\n      0x40\n      dup3\n      add\n      mload\n      dup2\n      0x02\n      add\n      swap1\n      dup1\n      mload\n      swap1\n      0x20\n      add\n      swap1\n      tag_53\n      swap3\n      swap2\n      swap1\n      tag_54\n      jump\t// in\n    tag_53:\n      pop\n      0x60\n      dup3\n      add\n      mload\n      dup2\n      0x03\n      add\n      exp(0x0100, 0x00)\n      dup2\n      sload\n      dup2\n      0xff\n      mul\n      not\n      and\n      swap1\n      dup4\n      iszero\n      iszero\n      mul\n      or\n      swap1\n      sstore\n      pop\n      pop\n      pop\n        /* \"MultiSigWallet.sol\":997:1111  {... */\n      pop\n        /* \"MultiSigWallet.sol\":906:1111  function submit(address _destination,uint _amount, bytes calldata _data) onlyOwner external{... */\n      pop\n      pop\n      pop\n      pop\n      jump\t// out\n        /* \"MultiSigWallet.sol\":1322:1542  function revoke(uint txId) external onlyOwner{... */\n    tag_25:\n        /* \"MultiSigWallet.sol\":863:870  isOwner */\n      0x00\n        /* \"MultiSigWallet.sol\":863:882  isOwner[msg.sender] */\n      dup1\n        /* \"MultiSigWallet.sol\":871:881  msg.sender */\n      caller\n        /* \"MultiSigWallet.sol\":863:882  isOwner[msg.sender] */\n      0xffffffffffffffffffffffffffffffffffffffff\n      and\n      0xffffffffffffffffffffffffffffffffffffffff\n      and\n      dup2\n      mstore\n      0x20\n      add\n      swap1\n      dup2\n      mstore\n      0x20\n      add\n      0x00\n      keccak256\n      0x00\n      swap1\n      sload\n      swap1\n      0x0100\n      exp\n      swap1\n      div\n      0xff\n      and\n        /* \"MultiSigWallet.sol\":855:883  require(isOwner[msg.sender]) */\n      tag_56\n      jumpi\n      0x00\n      dup1\n      revert\n    tag_56:\n        /* \"MultiSigWallet.sol\":1390:1401  transactons */\n      0x02\n        /* \"MultiSigWallet.sol\":1390:1408  transactons.length */\n      dup1\n      sload\n      swap1\n      pop\n        /* \"MultiSigWallet.sol\":1385:1389  txId */\n      dup2\n        /* \"MultiSigWallet.sol\":1385:1408  txId<transactons.length */\n      lt\n        /* \"MultiSigWallet.sol\":1377:1425  require(txId<transactons.length,\"invalid index\") */\n      tag_58\n      jumpi\n      mload(0x40)\n      0x08c379a000000000000000000000000000000000000000000000000000000000\n      dup2\n      mstore\n      0x04\n      add\n      tag_59\n      swap1\n      tag_60\n      jump\t// in\n    tag_59:\n      mload(0x40)\n      dup1\n      swap2\n      sub\n      swap1\n      revert\n    tag_58:\n        /* \"MultiSigWallet.sol\":1444:1455  transactons */\n      0x02\n        /* \"MultiSigWallet.sol\":1456:1460  txId */\n      dup2\n        /* \"MultiSigWallet.sol\":1444:1461  transactons[txId] */\n      dup2\n      sload\n      dup2\n      lt\n      tag_61\n      jumpi\n      tag_62\n      tag_43\n      jump\t// in\n    tag_62:\n    tag_61:\n      swap1\n      0x00\n      mstore\n      keccak256(0x00, 0x20)\n      swap1\n      0x04\n      mul\n      add\n        /* \"MultiSigWallet.sol\":1444:1470  transactons[txId].executed */\n      0x03\n      add\n      0x00\n      swap1\n      sload\n      swap1\n      0x0100\n      exp\n      swap1\n      div\n      0xff\n      and\n        /* \"MultiSigWallet.sol\":1443:1470  !transactons[txId].executed */\n      iszero\n        /* \"MultiSigWallet.sol\":1435:1490  require(!transactons[txId].executed,\"avready executed\") */\n      tag_64\n      jumpi\n      mload(0x40)\n      0x08c379a000000000000000000000000000000000000000000000000000000000\n      dup2\n      mstore\n      0x04\n      add\n      tag_65\n      swap1\n      tag_66\n      jump\t// in\n    tag_65:\n      mload(0x40)\n      dup1\n      swap2\n      sub\n      swap1\n      revert\n    tag_64:\n        /* \"MultiSigWallet.sol\":1530:1534  true */\n      0x01\n        /* \"MultiSigWallet.sol\":1501:1509  approved */\n      0x04\n        /* \"MultiSigWallet.sol\":1501:1515  approved[txId] */\n      0x00\n        /* \"MultiSigWallet.sol\":1510:1514  txId */\n      dup4\n        /* \"MultiSigWallet.sol\":1501:1515  approved[txId] */\n      dup2\n      mstore\n      0x20\n      add\n      swap1\n      dup2\n      mstore\n      0x20\n      add\n      0x00\n      keccak256\n        /* \"MultiSigWallet.sol\":1501:1527  approved[txId][msg.sender] */\n      0x00\n        /* \"MultiSigWallet.sol\":1516:1526  msg.sender */\n      caller\n        /* \"MultiSigWallet.sol\":1501:1527  approved[txId][msg.sender] */\n      0xffffffffffffffffffffffffffffffffffffffff\n      and\n      0xffffffffffffffffffffffffffffffffffffffff\n      and\n      dup2\n      mstore\n      0x20\n      add\n      swap1\n      dup2\n      mstore\n      0x20\n      add\n      0x00\n      keccak256\n      0x00\n        /* \"MultiSigWallet.sol\":1501:1534  approved[txId][msg.sender] = true */\n      0x0100\n      exp\n      dup2\n      sload\n      dup2\n      0xff\n      mul\n      not\n      and\n      swap1\n      dup4\n      iszero\n      iszero\n      mul\n      or\n      swap1\n      sstore\n      pop\n        /* \"MultiSigWallet.sol\":1322:1542  function revoke(uint txId) external onlyOwner{... */\n      pop\n      jump\t// out\n        /* \"MultiSigWallet.sol\":1117:1317  function approve(uint txId)external onlyOwner{... */\n    tag_29:\n        /* \"MultiSigWallet.sol\":863:870  isOwner */\n      0x00\n        /* \"MultiSigWallet.sol\":863:882  isOwner[msg.sender] */\n      dup1\n        /* \"MultiSigWallet.sol\":871:881  msg.sender */\n      caller\n        /* \"MultiSigWallet.sol\":863:882  isOwner[msg.sender] */\n      0xffffffffffffffffffffffffffffffffffffffff\n      and\n      0xffffffffffffffffffffffffffffffffffffffff\n      and\n      dup2\n      mstore\n      0x20\n      add\n      swap1\n      dup2\n      mstore\n      0x20\n      add\n      0x00\n      keccak256\n      0x00\n      swap1\n      sload\n      swap1\n      0x0100\n      exp\n      swap1\n      div\n      0xff\n      and\n        /* \"MultiSigWallet.sol\":855:883  require(isOwner[msg.sender]) */\n      tag_68\n      jumpi\n      0x00\n      dup1\n      revert\n    tag_68:\n        /* \"MultiSigWallet.sol\":1185:1196  transactons */\n      0x02\n        /* \"MultiSigWallet.sol\":1185:1203  transactons.length */\n      dup1\n      sload\n      swap1\n      pop\n        /* \"MultiSigWallet.sol\":1180:1184  txId */\n      dup2\n        /* \"MultiSigWallet.sol\":1180:1203  txId<transactons.length */\n      lt\n        /* \"MultiSigWallet.sol\":1172:1204  require(txId<transactons.length) */\n      tag_70\n      jumpi\n      0x00\n      dup1\n      revert\n    tag_70:\n        /* \"MultiSigWallet.sol\":1223:1234  transactons */\n      0x02\n        /* \"MultiSigWallet.sol\":1235:1239  txId */\n      dup2\n        /* \"MultiSigWallet.sol\":1223:1240  transactons[txId] */\n      dup2\n      sload\n      dup2\n      lt\n      tag_71\n      jumpi\n      tag_72\n      tag_43\n      jump\t// in\n    tag_72:\n    tag_71:\n      swap1\n      0x00\n      mstore\n      keccak256(0x00, 0x20)\n      swap1\n      0x04\n      mul\n      add\n        /* \"MultiSigWallet.sol\":1223:1249  transactons[txId].executed */\n      0x03\n      add\n      0x00\n      swap1\n      sload\n      swap1\n      0x0100\n      exp\n      swap1\n      div\n      0xff\n      and\n        /* \"MultiSigWallet.sol\":1222:1249  !transactons[txId].executed */\n      iszero\n        /* \"MultiSigWallet.sol\":1214:1269  require(!transactons[txId].executed,\"avready executed\") */\n      tag_74\n      jumpi\n      mload(0x40)\n      0x08c379a000000000000000000000000000000000000000000000000000000000\n      dup2\n      mstore\n      0x04\n      add\n      tag_75\n      swap1\n      tag_66\n      jump\t// in\n    tag_75:\n      mload(0x40)\n      dup1\n      swap2\n      sub\n      swap1\n      revert\n    tag_74:\n        /* \"MultiSigWallet.sol\":1306:1310  true */\n      0x01\n        /* \"MultiSigWallet.sol\":1279:1287  approved */\n      0x04\n        /* \"MultiSigWallet.sol\":1279:1293  approved[txId] */\n      0x00\n        /* \"MultiSigWallet.sol\":1288:1292  txId */\n      dup4\n        /* \"MultiSigWallet.sol\":1279:1293  approved[txId] */\n      dup2\n      mstore\n      0x20\n      add\n      swap1\n      dup2\n      mstore\n      0x20\n      add\n      0x00\n      keccak256\n        /* \"MultiSigWallet.sol\":1279:1305  approved[txId][msg.sender] */\n      0x00\n        /* \"MultiSigWallet.sol\":1294:1304  msg.sender */\n      caller\n        /* \"MultiSigWallet.sol\":1279:1305  approved[txId][msg.sender] */\n      0xffffffffffffffffffffffffffffffffffffffff\n      and\n      0xffffffffffffffffffffffffffffffffffffffff\n      and\n      dup2\n      mstore\n      0x20\n      add\n      swap1\n      dup2\n      mstore\n      0x20\n      add\n      0x00\n      keccak256\n      0x00\n        /* \"MultiSigWallet.sol\":1279:1310  approved[txId][msg.sender]=true */\n      0x0100\n      exp\n      dup2\n      sload\n      dup2\n      0xff\n      mul\n      not\n      and\n      swap1\n      dup4\n      iszero\n      iszero\n      mul\n      or\n      swap1\n      sstore\n      pop\n        /* \"MultiSigWallet.sol\":1117:1317  function approve(uint txId)external onlyOwner{... */\n      pop\n      jump\t// out\n        /* \"MultiSigWallet.sol\":1806:2224  function execute(uint txId) external returns(bool){... */\n    tag_33:\n        /* \"MultiSigWallet.sol\":1851:1855  bool */\n      0x00\n        /* \"MultiSigWallet.sol\":1879:1890  transactons */\n      0x02\n        /* \"MultiSigWallet.sol\":1879:1897  transactons.length */\n      dup1\n      sload\n      swap1\n      pop\n        /* \"MultiSigWallet.sol\":1874:1878  txId */\n      dup3\n        /* \"MultiSigWallet.sol\":1874:1897  txId<transactons.length */\n      lt\n        /* \"MultiSigWallet.sol\":1866:1914  require(txId<transactons.length,\"invalid index\") */\n      tag_77\n      jumpi\n      mload(0x40)\n      0x08c379a000000000000000000000000000000000000000000000000000000000\n      dup2\n      mstore\n      0x04\n      add\n      tag_78\n      swap1\n      tag_60\n      jump\t// in\n    tag_78:\n      mload(0x40)\n      dup1\n      swap2\n      sub\n      swap1\n      revert\n    tag_77:\n        /* \"MultiSigWallet.sol\":1933:1944  transactons */\n      0x02\n        /* \"MultiSigWallet.sol\":1945:1949  txId */\n      dup3\n        /* \"MultiSigWallet.sol\":1933:1950  transactons[txId] */\n      dup2\n      sload\n      dup2\n      lt\n      tag_79\n      jumpi\n      tag_80\n      tag_43\n      jump\t// in\n    tag_80:\n    tag_79:\n      swap1\n      0x00\n      mstore\n      keccak256(0x00, 0x20)\n      swap1\n      0x04\n      mul\n      add\n        /* \"MultiSigWallet.sol\":1933:1959  transactons[txId].executed */\n      0x03\n      add\n      0x00\n      swap1\n      sload\n      swap1\n      0x0100\n      exp\n      swap1\n      div\n      0xff\n      and\n        /* \"MultiSigWallet.sol\":1932:1959  !transactons[txId].executed */\n      iszero\n        /* \"MultiSigWallet.sol\":1924:1979  require(!transactons[txId].executed,\"already executed\") */\n      tag_82\n      jumpi\n      mload(0x40)\n      0x08c379a000000000000000000000000000000000000000000000000000000000\n      dup2\n      mstore\n      0x04\n      add\n      tag_83\n      swap1\n      tag_84\n      jump\t// in\n    tag_83:\n      mload(0x40)\n      dup1\n      swap2\n      sub\n      swap1\n      revert\n    tag_82:\n        /* \"MultiSigWallet.sol\":2015:2023  required */\n      sload(0x03)\n        /* \"MultiSigWallet.sol\":1992:2014  getApprovedCount(txId) */\n      tag_85\n        /* \"MultiSigWallet.sol\":2009:2013  txId */\n      dup4\n        /* \"MultiSigWallet.sol\":1992:2008  getApprovedCount */\n      tag_14\n        /* \"MultiSigWallet.sol\":1992:2014  getApprovedCount(txId) */\n      jump\t// in\n    tag_85:\n        /* \"MultiSigWallet.sol\":1992:2023  getApprovedCount(txId)>required */\n      gt\n        /* \"MultiSigWallet.sol\":1989:2197  if(getApprovedCount(txId)>required){... */\n      iszero\n      tag_86\n      jumpi\n        /* \"MultiSigWallet.sol\":2039:2051  bool success */\n      0x00\n        /* \"MultiSigWallet.sol\":2057:2068  transactons */\n      0x02\n        /* \"MultiSigWallet.sol\":2069:2073  txId */\n      dup4\n        /* \"MultiSigWallet.sol\":2057:2074  transactons[txId] */\n      dup2\n      sload\n      dup2\n      lt\n      tag_87\n      jumpi\n      tag_88\n      tag_43\n      jump\t// in\n    tag_88:\n    tag_87:\n      swap1\n      0x00\n      mstore\n      keccak256(0x00, 0x20)\n      swap1\n      0x04\n      mul\n      add\n        /* \"MultiSigWallet.sol\":2057:2086  transactons[txId].destination */\n      0x00\n      add\n      0x00\n      swap1\n      sload\n      swap1\n      0x0100\n      exp\n      swap1\n      div\n      0xffffffffffffffffffffffffffffffffffffffff\n      and\n        /* \"MultiSigWallet.sol\":2057:2091  transactons[txId].destination.call */\n      0xffffffffffffffffffffffffffffffffffffffff\n      and\n        /* \"MultiSigWallet.sol\":2099:2110  transactons */\n      0x02\n        /* \"MultiSigWallet.sol\":2111:2115  txId */\n      dup5\n        /* \"MultiSigWallet.sol\":2099:2116  transactons[txId] */\n      dup2\n      sload\n      dup2\n      lt\n      tag_90\n      jumpi\n      tag_91\n      tag_43\n      jump\t// in\n    tag_91:\n    tag_90:\n      swap1\n      0x00\n      mstore\n      keccak256(0x00, 0x20)\n      swap1\n      0x04\n      mul\n      add\n        /* \"MultiSigWallet.sol\":2099:2122  transactons[txId].value */\n      0x01\n      add\n      sload\n        /* \"MultiSigWallet.sol\":2124:2135  transactons */\n      0x02\n        /* \"MultiSigWallet.sol\":2136:2140  txId */\n      dup6\n        /* \"MultiSigWallet.sol\":2124:2141  transactons[txId] */\n      dup2\n      sload\n      dup2\n      lt\n      tag_93\n      jumpi\n      tag_94\n      tag_43\n      jump\t// in\n    tag_94:\n    tag_93:\n      swap1\n      0x00\n      mstore\n      keccak256(0x00, 0x20)\n      swap1\n      0x04\n      mul\n      add\n        /* \"MultiSigWallet.sol\":2124:2146  transactons[txId].data */\n      0x02\n      add\n        /* \"MultiSigWallet.sol\":2057:2147  transactons[txId].destination.call{value: transactons[txId].value}(transactons[txId].data) */\n      mload(0x40)\n      tag_96\n      swap2\n      swap1\n      tag_97\n      jump\t// in\n    tag_96:\n      0x00\n      mload(0x40)\n      dup1\n      dup4\n      sub\n      dup2\n      dup6\n      dup8\n      gas\n      call\n      swap3\n      pop\n      pop\n      pop\n      returndatasize\n      dup1\n      0x00\n      dup2\n      eq\n      tag_100\n      jumpi\n      mload(0x40)\n      swap2\n      pop\n      and(add(returndatasize, 0x3f), not(0x1f))\n      dup3\n      add\n      0x40\n      mstore\n      returndatasize\n      dup3\n      mstore\n      returndatasize\n      0x00\n      0x20\n      dup5\n      add\n      returndatacopy\n      jump(tag_99)\n    tag_100:\n      0x60\n      swap2\n      pop\n    tag_99:\n      pop\n        /* \"MultiSigWallet.sol\":2038:2147  (bool success, ) = transactons[txId].destination.call{value: transactons[txId].value}(transactons[txId].data) */\n      pop\n      swap1\n      pop\n        /* \"MultiSigWallet.sol\":2169:2176  success */\n      dup1\n        /* \"MultiSigWallet.sol\":2161:2186  require(success,\"failed\") */\n      tag_101\n      jumpi\n      mload(0x40)\n      0x08c379a000000000000000000000000000000000000000000000000000000000\n      dup2\n      mstore\n      0x04\n      add\n      tag_102\n      swap1\n      tag_103\n      jump\t// in\n    tag_102:\n      mload(0x40)\n      dup1\n      swap2\n      sub\n      swap1\n      revert\n    tag_101:\n        /* \"MultiSigWallet.sol\":2024:2197  {... */\n      pop\n        /* \"MultiSigWallet.sol\":1989:2197  if(getApprovedCount(txId)>required){... */\n    tag_86:\n        /* \"MultiSigWallet.sol\":2213:2217  true */\n      0x01\n        /* \"MultiSigWallet.sol\":2206:2217  return true */\n      swap1\n      pop\n        /* \"MultiSigWallet.sol\":1806:2224  function execute(uint txId) external returns(bool){... */\n      swap2\n      swap1\n      pop\n      jump\t// out\n    tag_54:\n      dup3\n      dup1\n      sload\n      tag_104\n      swap1\n      tag_105\n      jump\t// in\n    tag_104:\n      swap1\n      0x00\n      mstore\n      keccak256(0x00, 0x20)\n      swap1\n      0x1f\n      add\n      0x20\n      swap1\n      div\n      dup2\n      add\n      swap3\n      dup3\n      tag_107\n      jumpi\n      0x00\n      dup6\n      sstore\n      jump(tag_106)\n    tag_107:\n      dup3\n      0x1f\n      lt\n      tag_108\n      jumpi\n      dup1\n      mload\n      not(0xff)\n      and\n      dup4\n      dup1\n      add\n      or\n      dup6\n      sstore\n      jump(tag_106)\n    tag_108:\n      dup3\n      dup1\n      add\n      0x01\n      add\n      dup6\n      sstore\n      dup3\n      iszero\n      tag_106\n      jumpi\n      swap2\n      dup3\n      add\n    tag_109:\n      dup3\n      dup2\n      gt\n      iszero\n      tag_110\n      jumpi\n      dup3\n      mload\n      dup3\n      sstore\n      swap2\n      0x20\n      add\n      swap2\n      swap1\n      0x01\n      add\n      swap1\n      jump(tag_109)\n    tag_110:\n    tag_106:\n      pop\n      swap1\n      pop\n      tag_111\n      swap2\n      swap1\n      tag_112\n      jump\t// in\n    tag_111:\n      pop\n      swap1\n      jump\t// out\n    tag_112:\n    tag_113:\n      dup1\n      dup3\n      gt\n      iszero\n      tag_114\n      jumpi\n      0x00\n      dup2\n      0x00\n      swap1\n      sstore\n      pop\n      0x01\n      add\n      jump(tag_113)\n    tag_114:\n      pop\n      swap1\n      jump\t// out\n        /* \"#utility.yul\":7:146   */\n    tag_116:\n        /* \"#utility.yul\":53:58   */\n      0x00\n        /* \"#utility.yul\":91:97   */\n      dup2\n        /* \"#utility.yul\":78:98   */\n      calldataload\n        /* \"#utility.yul\":69:98   */\n      swap1\n      pop\n        /* \"#utility.yul\":107:140   */\n      tag_118\n        /* \"#utility.yul\":134:139   */\n      dup2\n        /* \"#utility.yul\":107:140   */\n      tag_119\n      jump\t// in\n    tag_118:\n        /* \"#utility.yul\":7:146   */\n      swap3\n      swap2\n      pop\n      pop\n      jump\t// out\n        /* \"#utility.yul\":165:717   */\n    tag_120:\n        /* \"#utility.yul\":222:230   */\n      0x00\n        /* \"#utility.yul\":232:238   */\n      dup1\n        /* \"#utility.yul\":282:285   */\n      dup4\n        /* \"#utility.yul\":275:279   */\n      0x1f\n        /* \"#utility.yul\":267:273   */\n      dup5\n        /* \"#utility.yul\":263:280   */\n      add\n        /* \"#utility.yul\":259:286   */\n      slt\n        /* \"#utility.yul\":249:371   */\n      tag_122\n      jumpi\n        /* \"#utility.yul\":290:369   */\n      tag_123\n      tag_124\n      jump\t// in\n    tag_123:\n        /* \"#utility.yul\":249:371   */\n    tag_122:\n        /* \"#utility.yul\":403:409   */\n      dup3\n        /* \"#utility.yul\":390:410   */\n      calldataload\n        /* \"#utility.yul\":380:410   */\n      swap1\n      pop\n        /* \"#utility.yul\":433:451   */\n      0xffffffffffffffff\n        /* \"#utility.yul\":425:431   */\n      dup2\n        /* \"#utility.yul\":422:452   */\n      gt\n        /* \"#utility.yul\":419:536   */\n      iszero\n      tag_125\n      jumpi\n        /* \"#utility.yul\":455:534   */\n      tag_126\n      tag_127\n      jump\t// in\n    tag_126:\n        /* \"#utility.yul\":419:536   */\n    tag_125:\n        /* \"#utility.yul\":569:573   */\n      0x20\n        /* \"#utility.yul\":561:567   */\n      dup4\n        /* \"#utility.yul\":557:574   */\n      add\n        /* \"#utility.yul\":545:574   */\n      swap2\n      pop\n        /* \"#utility.yul\":623:626   */\n      dup4\n        /* \"#utility.yul\":615:619   */\n      0x01\n        /* \"#utility.yul\":607:613   */\n      dup3\n        /* \"#utility.yul\":603:620   */\n      mul\n        /* \"#utility.yul\":593:601   */\n      dup4\n        /* \"#utility.yul\":589:621   */\n      add\n        /* \"#utility.yul\":586:627   */\n      gt\n        /* \"#utility.yul\":583:711   */\n      iszero\n      tag_128\n      jumpi\n        /* \"#utility.yul\":630:709   */\n      tag_129\n      tag_130\n      jump\t// in\n    tag_129:\n        /* \"#utility.yul\":583:711   */\n    tag_128:\n        /* \"#utility.yul\":165:717   */\n      swap3\n      pop\n      swap3\n      swap1\n      pop\n      jump\t// out\n        /* \"#utility.yul\":723:862   */\n    tag_131:\n        /* \"#utility.yul\":769:774   */\n      0x00\n        /* \"#utility.yul\":807:813   */\n      dup2\n        /* \"#utility.yul\":794:814   */\n      calldataload\n        /* \"#utility.yul\":785:814   */\n      swap1\n      pop\n        /* \"#utility.yul\":823:856   */\n      tag_133\n        /* \"#utility.yul\":850:855   */\n      dup2\n        /* \"#utility.yul\":823:856   */\n      tag_134\n      jump\t// in\n    tag_133:\n        /* \"#utility.yul\":723:862   */\n      swap3\n      swap2\n      pop\n      pop\n      jump\t// out\n        /* \"#utility.yul\":868:1685   */\n    tag_20:\n        /* \"#utility.yul\":956:962   */\n      0x00\n        /* \"#utility.yul\":964:970   */\n      dup1\n        /* \"#utility.yul\":972:978   */\n      0x00\n        /* \"#utility.yul\":980:986   */\n      dup1\n        /* \"#utility.yul\":1029:1031   */\n      0x60\n        /* \"#utility.yul\":1017:1026   */\n      dup6\n        /* \"#utility.yul\":1008:1015   */\n      dup8\n        /* \"#utility.yul\":1004:1027   */\n      sub\n        /* \"#utility.yul\":1000:1032   */\n      slt\n        /* \"#utility.yul\":997:1116   */\n      iszero\n      tag_136\n      jumpi\n        /* \"#utility.yul\":1035:1114   */\n      tag_137\n      tag_138\n      jump\t// in\n    tag_137:\n        /* \"#utility.yul\":997:1116   */\n    tag_136:\n        /* \"#utility.yul\":1155:1156   */\n      0x00\n        /* \"#utility.yul\":1180:1233   */\n      tag_139\n        /* \"#utility.yul\":1225:1232   */\n      dup8\n        /* \"#utility.yul\":1216:1222   */\n      dup3\n        /* \"#utility.yul\":1205:1214   */\n      dup9\n        /* \"#utility.yul\":1201:1223   */\n      add\n        /* \"#utility.yul\":1180:1233   */\n      tag_116\n      jump\t// in\n    tag_139:\n        /* \"#utility.yul\":1170:1233   */\n      swap5\n      pop\n        /* \"#utility.yul\":1126:1243   */\n      pop\n        /* \"#utility.yul\":1282:1284   */\n      0x20\n        /* \"#utility.yul\":1308:1361   */\n      tag_140\n        /* \"#utility.yul\":1353:1360   */\n      dup8\n        /* \"#utility.yul\":1344:1350   */\n      dup3\n        /* \"#utility.yul\":1333:1342   */\n      dup9\n        /* \"#utility.yul\":1329:1351   */\n      add\n        /* \"#utility.yul\":1308:1361   */\n      tag_131\n      jump\t// in\n    tag_140:\n        /* \"#utility.yul\":1298:1361   */\n      swap4\n      pop\n        /* \"#utility.yul\":1253:1371   */\n      pop\n        /* \"#utility.yul\":1438:1440   */\n      0x40\n        /* \"#utility.yul\":1427:1436   */\n      dup6\n        /* \"#utility.yul\":1423:1441   */\n      add\n        /* \"#utility.yul\":1410:1442   */\n      calldataload\n        /* \"#utility.yul\":1469:1487   */\n      0xffffffffffffffff\n        /* \"#utility.yul\":1461:1467   */\n      dup2\n        /* \"#utility.yul\":1458:1488   */\n      gt\n        /* \"#utility.yul\":1455:1572   */\n      iszero\n      tag_141\n      jumpi\n        /* \"#utility.yul\":1491:1570   */\n      tag_142\n      tag_143\n      jump\t// in\n    tag_142:\n        /* \"#utility.yul\":1455:1572   */\n    tag_141:\n        /* \"#utility.yul\":1604:1668   */\n      tag_144\n        /* \"#utility.yul\":1660:1667   */\n      dup8\n        /* \"#utility.yul\":1651:1657   */\n      dup3\n        /* \"#utility.yul\":1640:1649   */\n      dup9\n        /* \"#utility.yul\":1636:1658   */\n      add\n        /* \"#utility.yul\":1604:1668   */\n      tag_120\n      jump\t// in\n    tag_144:\n        /* \"#utility.yul\":1586:1668   */\n      swap3\n      pop\n      swap3\n      pop\n        /* \"#utility.yul\":1381:1678   */\n      pop\n        /* \"#utility.yul\":868:1685   */\n      swap3\n      swap6\n      swap2\n      swap5\n      pop\n      swap3\n      pop\n      jump\t// out\n        /* \"#utility.yul\":1691:2020   */\n    tag_13:\n        /* \"#utility.yul\":1750:1756   */\n      0x00\n        /* \"#utility.yul\":1799:1801   */\n      0x20\n        /* \"#utility.yul\":1787:1796   */\n      dup3\n        /* \"#utility.yul\":1778:1785   */\n      dup5\n        /* \"#utility.yul\":1774:1797   */\n      sub\n        /* \"#utility.yul\":1770:1802   */\n      slt\n        /* \"#utility.yul\":1767:1886   */\n      iszero\n      tag_146\n      jumpi\n        /* \"#utility.yul\":1805:1884   */\n      tag_147\n      tag_138\n      jump\t// in\n    tag_147:\n        /* \"#utility.yul\":1767:1886   */\n    tag_146:\n        /* \"#utility.yul\":1925:1926   */\n      0x00\n        /* \"#utility.yul\":1950:2003   */\n      tag_148\n        /* \"#utility.yul\":1995:2002   */\n      dup5\n        /* \"#utility.yul\":1986:1992   */\n      dup3\n        /* \"#utility.yul\":1975:1984   */\n      dup6\n        /* \"#utility.yul\":1971:1993   */\n      add\n        /* \"#utility.yul\":1950:2003   */\n      tag_131\n      jump\t// in\n    tag_148:\n        /* \"#utility.yul\":1940:2003   */\n      swap2\n      pop\n        /* \"#utility.yul\":1896:2013   */\n      pop\n        /* \"#utility.yul\":1691:2020   */\n      swap3\n      swap2\n      pop\n      pop\n      jump\t// out\n        /* \"#utility.yul\":2026:2135   */\n    tag_149:\n        /* \"#utility.yul\":2107:2128   */\n      tag_151\n        /* \"#utility.yul\":2122:2127   */\n      dup2\n        /* \"#utility.yul\":2107:2128   */\n      tag_152\n      jump\t// in\n    tag_151:\n        /* \"#utility.yul\":2102:2105   */\n      dup3\n        /* \"#utility.yul\":2095:2129   */\n      mstore\n        /* \"#utility.yul\":2026:2135   */\n      pop\n      pop\n      jump\t// out\n        /* \"#utility.yul\":2163:3004   */\n    tag_153:\n        /* \"#utility.yul\":2264:2267   */\n      0x00\n        /* \"#utility.yul\":2301:2306   */\n      dup2\n        /* \"#utility.yul\":2295:2307   */\n      sload\n        /* \"#utility.yul\":2330:2366   */\n      tag_155\n        /* \"#utility.yul\":2356:2365   */\n      dup2\n        /* \"#utility.yul\":2330:2366   */\n      tag_105\n      jump\t// in\n    tag_155:\n        /* \"#utility.yul\":2382:2470   */\n      tag_156\n        /* \"#utility.yul\":2463:2469   */\n      dup2\n        /* \"#utility.yul\":2458:2461   */\n      dup7\n        /* \"#utility.yul\":2382:2470   */\n      tag_157\n      jump\t// in\n    tag_156:\n        /* \"#utility.yul\":2375:2470   */\n      swap5\n      pop\n        /* \"#utility.yul\":2501:2502   */\n      0x01\n        /* \"#utility.yul\":2490:2499   */\n      dup3\n        /* \"#utility.yul\":2486:2503   */\n      and\n        /* \"#utility.yul\":2517:2518   */\n      0x00\n        /* \"#utility.yul\":2512:2649   */\n      dup2\n      eq\n      tag_159\n      jumpi\n        /* \"#utility.yul\":2663:2664   */\n      0x01\n        /* \"#utility.yul\":2658:2998   */\n      dup2\n      eq\n      tag_160\n      jumpi\n        /* \"#utility.yul\":2479:2998   */\n      jump(tag_158)\n        /* \"#utility.yul\":2512:2649   */\n    tag_159:\n        /* \"#utility.yul\":2596:2600   */\n      0xff\n        /* \"#utility.yul\":2592:2601   */\n      not\n        /* \"#utility.yul\":2581:2590   */\n      dup4\n        /* \"#utility.yul\":2577:2602   */\n      and\n        /* \"#utility.yul\":2572:2575   */\n      dup7\n        /* \"#utility.yul\":2565:2603   */\n      mstore\n        /* \"#utility.yul\":2632:2638   */\n      dup2\n        /* \"#utility.yul\":2627:2630   */\n      dup7\n        /* \"#utility.yul\":2623:2639   */\n      add\n        /* \"#utility.yul\":2616:2639   */\n      swap4\n      pop\n        /* \"#utility.yul\":2512:2649   */\n      jump(tag_158)\n        /* \"#utility.yul\":2658:2998   */\n    tag_160:\n        /* \"#utility.yul\":2725:2762   */\n      tag_161\n        /* \"#utility.yul\":2756:2761   */\n      dup6\n        /* \"#utility.yul\":2725:2762   */\n      tag_162\n      jump\t// in\n    tag_161:\n        /* \"#utility.yul\":2784:2785   */\n      0x00\n        /* \"#utility.yul\":2798:2952   */\n    tag_163:\n        /* \"#utility.yul\":2812:2818   */\n      dup4\n        /* \"#utility.yul\":2809:2810   */\n      dup2\n        /* \"#utility.yul\":2806:2819   */\n      lt\n        /* \"#utility.yul\":2798:2952   */\n      iszero\n      tag_165\n      jumpi\n        /* \"#utility.yul\":2886:2893   */\n      dup2\n        /* \"#utility.yul\":2880:2894   */\n      sload\n        /* \"#utility.yul\":2876:2877   */\n      dup2\n        /* \"#utility.yul\":2871:2874   */\n      dup10\n        /* \"#utility.yul\":2867:2878   */\n      add\n        /* \"#utility.yul\":2860:2895   */\n      mstore\n        /* \"#utility.yul\":2936:2937   */\n      0x01\n        /* \"#utility.yul\":2927:2934   */\n      dup3\n        /* \"#utility.yul\":2923:2938   */\n      add\n        /* \"#utility.yul\":2912:2938   */\n      swap2\n      pop\n        /* \"#utility.yul\":2834:2838   */\n      0x20\n        /* \"#utility.yul\":2831:2832   */\n      dup2\n        /* \"#utility.yul\":2827:2839   */\n      add\n        /* \"#utility.yul\":2822:2839   */\n      swap1\n      pop\n        /* \"#utility.yul\":2798:2952   */\n      jump(tag_163)\n    tag_165:\n        /* \"#utility.yul\":2981:2987   */\n      dup4\n        /* \"#utility.yul\":2976:2979   */\n      dup9\n        /* \"#utility.yul\":2972:2988   */\n      add\n        /* \"#utility.yul\":2965:2988   */\n      swap6\n      pop\n        /* \"#utility.yul\":2665:2998   */\n      pop\n      pop\n        /* \"#utility.yul\":2479:2998   */\n    tag_158:\n      pop\n        /* \"#utility.yul\":2268:3004   */\n      pop\n      pop\n        /* \"#utility.yul\":2163:3004   */\n      swap3\n      swap2\n      pop\n      pop\n      jump\t// out\n        /* \"#utility.yul\":3010:3376   */\n    tag_166:\n        /* \"#utility.yul\":3152:3155   */\n      0x00\n        /* \"#utility.yul\":3173:3240   */\n      tag_168\n        /* \"#utility.yul\":3237:3239   */\n      0x10\n        /* \"#utility.yul\":3232:3235   */\n      dup4\n        /* \"#utility.yul\":3173:3240   */\n      tag_169\n      jump\t// in\n    tag_168:\n        /* \"#utility.yul\":3166:3240   */\n      swap2\n      pop\n        /* \"#utility.yul\":3249:3342   */\n      tag_170\n        /* \"#utility.yul\":3338:3341   */\n      dup3\n        /* \"#utility.yul\":3249:3342   */\n      tag_171\n      jump\t// in\n    tag_170:\n        /* \"#utility.yul\":3367:3369   */\n      0x20\n        /* \"#utility.yul\":3362:3365   */\n      dup3\n        /* \"#utility.yul\":3358:3370   */\n      add\n        /* \"#utility.yul\":3351:3370   */\n      swap1\n      pop\n        /* \"#utility.yul\":3010:3376   */\n      swap2\n      swap1\n      pop\n      jump\t// out\n        /* \"#utility.yul\":3382:3747   */\n    tag_172:\n        /* \"#utility.yul\":3524:3527   */\n      0x00\n        /* \"#utility.yul\":3545:3611   */\n      tag_174\n        /* \"#utility.yul\":3609:3610   */\n      0x06\n        /* \"#utility.yul\":3604:3607   */\n      dup4\n        /* \"#utility.yul\":3545:3611   */\n      tag_169\n      jump\t// in\n    tag_174:\n        /* \"#utility.yul\":3538:3611   */\n      swap2\n      pop\n        /* \"#utility.yul\":3620:3713   */\n      tag_175\n        /* \"#utility.yul\":3709:3712   */\n      dup3\n        /* \"#utility.yul\":3620:3713   */\n      tag_176\n      jump\t// in\n    tag_175:\n        /* \"#utility.yul\":3738:3740   */\n      0x20\n        /* \"#utility.yul\":3733:3736   */\n      dup3\n        /* \"#utility.yul\":3729:3741   */\n      add\n        /* \"#utility.yul\":3722:3741   */\n      swap1\n      pop\n        /* \"#utility.yul\":3382:3747   */\n      swap2\n      swap1\n      pop\n      jump\t// out\n        /* \"#utility.yul\":3753:4119   */\n    tag_177:\n        /* \"#utility.yul\":3895:3898   */\n      0x00\n        /* \"#utility.yul\":3916:3983   */\n      tag_179\n        /* \"#utility.yul\":3980:3982   */\n      0x10\n        /* \"#utility.yul\":3975:3978   */\n      dup4\n        /* \"#utility.yul\":3916:3983   */\n      tag_169\n      jump\t// in\n    tag_179:\n        /* \"#utility.yul\":3909:3983   */\n      swap2\n      pop\n        /* \"#utility.yul\":3992:4085   */\n      tag_180\n        /* \"#utility.yul\":4081:4084   */\n      dup3\n        /* \"#utility.yul\":3992:4085   */\n      tag_181\n      jump\t// in\n    tag_180:\n        /* \"#utility.yul\":4110:4112   */\n      0x20\n        /* \"#utility.yul\":4105:4108   */\n      dup3\n        /* \"#utility.yul\":4101:4113   */\n      add\n        /* \"#utility.yul\":4094:4113   */\n      swap1\n      pop\n        /* \"#utility.yul\":3753:4119   */\n      swap2\n      swap1\n      pop\n      jump\t// out\n        /* \"#utility.yul\":4125:4491   */\n    tag_182:\n        /* \"#utility.yul\":4267:4270   */\n      0x00\n        /* \"#utility.yul\":4288:4355   */\n      tag_184\n        /* \"#utility.yul\":4352:4354   */\n      0x0d\n        /* \"#utility.yul\":4347:4350   */\n      dup4\n        /* \"#utility.yul\":4288:4355   */\n      tag_169\n      jump\t// in\n    tag_184:\n        /* \"#utility.yul\":4281:4355   */\n      swap2\n      pop\n        /* \"#utility.yul\":4364:4457   */\n      tag_185\n        /* \"#utility.yul\":4453:4456   */\n      dup3\n        /* \"#utility.yul\":4364:4457   */\n      tag_186\n      jump\t// in\n    tag_185:\n        /* \"#utility.yul\":4482:4484   */\n      0x20\n        /* \"#utility.yul\":4477:4480   */\n      dup3\n        /* \"#utility.yul\":4473:4485   */\n      add\n        /* \"#utility.yul\":4466:4485   */\n      swap1\n      pop\n        /* \"#utility.yul\":4125:4491   */\n      swap2\n      swap1\n      pop\n      jump\t// out\n        /* \"#utility.yul\":4497:4615   */\n    tag_187:\n        /* \"#utility.yul\":4584:4608   */\n      tag_189\n        /* \"#utility.yul\":4602:4607   */\n      dup2\n        /* \"#utility.yul\":4584:4608   */\n      tag_190\n      jump\t// in\n    tag_189:\n        /* \"#utility.yul\":4579:4582   */\n      dup3\n        /* \"#utility.yul\":4572:4609   */\n      mstore\n        /* \"#utility.yul\":4497:4615   */\n      pop\n      pop\n      jump\t// out\n        /* \"#utility.yul\":4621:4886   */\n    tag_97:\n        /* \"#utility.yul\":4748:4751   */\n      0x00\n        /* \"#utility.yul\":4770:4860   */\n      tag_192\n        /* \"#utility.yul\":4856:4859   */\n      dup3\n        /* \"#utility.yul\":4847:4853   */\n      dup5\n        /* \"#utility.yul\":4770:4860   */\n      tag_153\n      jump\t// in\n    tag_192:\n        /* \"#utility.yul\":4763:4860   */\n      swap2\n      pop\n        /* \"#utility.yul\":4877:4880   */\n      dup2\n        /* \"#utility.yul\":4870:4880   */\n      swap1\n      pop\n        /* \"#utility.yul\":4621:4886   */\n      swap3\n      swap2\n      pop\n      pop\n      jump\t// out\n        /* \"#utility.yul\":4892:5102   */\n    tag_35:\n        /* \"#utility.yul\":4979:4983   */\n      0x00\n        /* \"#utility.yul\":5017:5019   */\n      0x20\n        /* \"#utility.yul\":5006:5015   */\n      dup3\n        /* \"#utility.yul\":5002:5020   */\n      add\n        /* \"#utility.yul\":4994:5020   */\n      swap1\n      pop\n        /* \"#utility.yul\":5030:5095   */\n      tag_194\n        /* \"#utility.yul\":5092:5093   */\n      0x00\n        /* \"#utility.yul\":5081:5090   */\n      dup4\n        /* \"#utility.yul\":5077:5094   */\n      add\n        /* \"#utility.yul\":5068:5074   */\n      dup5\n        /* \"#utility.yul\":5030:5095   */\n      tag_149\n      jump\t// in\n    tag_194:\n        /* \"#utility.yul\":4892:5102   */\n      swap3\n      swap2\n      pop\n      pop\n      jump\t// out\n        /* \"#utility.yul\":5108:5527   */\n    tag_84:\n        /* \"#utility.yul\":5274:5278   */\n      0x00\n        /* \"#utility.yul\":5312:5314   */\n      0x20\n        /* \"#utility.yul\":5301:5310   */\n      dup3\n        /* \"#utility.yul\":5297:5315   */\n      add\n        /* \"#utility.yul\":5289:5315   */\n      swap1\n      pop\n        /* \"#utility.yul\":5361:5370   */\n      dup2\n        /* \"#utility.yul\":5355:5359   */\n      dup2\n        /* \"#utility.yul\":5351:5371   */\n      sub\n        /* \"#utility.yul\":5347:5348   */\n      0x00\n        /* \"#utility.yul\":5336:5345   */\n      dup4\n        /* \"#utility.yul\":5332:5349   */\n      add\n        /* \"#utility.yul\":5325:5372   */\n      mstore\n        /* \"#utility.yul\":5389:5520   */\n      tag_196\n        /* \"#utility.yul\":5515:5519   */\n      dup2\n        /* \"#utility.yul\":5389:5520   */\n      tag_166\n      jump\t// in\n    tag_196:\n        /* \"#utility.yul\":5381:5520   */\n      swap1\n      pop\n        /* \"#utility.yul\":5108:5527   */\n      swap2\n      swap1\n      pop\n      jump\t// out\n        /* \"#utility.yul\":5533:5952   */\n    tag_103:\n        /* \"#utility.yul\":5699:5703   */\n      0x00\n        /* \"#utility.yul\":5737:5739   */\n      0x20\n        /* \"#utility.yul\":5726:5735   */\n      dup3\n        /* \"#utility.yul\":5722:5740   */\n      add\n        /* \"#utility.yul\":5714:5740   */\n      swap1\n      pop\n        /* \"#utility.yul\":5786:5795   */\n      dup2\n        /* \"#utility.yul\":5780:5784   */\n      dup2\n        /* \"#utility.yul\":5776:5796   */\n      sub\n        /* \"#utility.yul\":5772:5773   */\n      0x00\n        /* \"#utility.yul\":5761:5770   */\n      dup4\n        /* \"#utility.yul\":5757:5774   */\n      add\n        /* \"#utility.yul\":5750:5797   */\n      mstore\n        /* \"#utility.yul\":5814:5945   */\n      tag_198\n        /* \"#utility.yul\":5940:5944   */\n      dup2\n        /* \"#utility.yul\":5814:5945   */\n      tag_172\n      jump\t// in\n    tag_198:\n        /* \"#utility.yul\":5806:5945   */\n      swap1\n      pop\n        /* \"#utility.yul\":5533:5952   */\n      swap2\n      swap1\n      pop\n      jump\t// out\n        /* \"#utility.yul\":5958:6377   */\n    tag_66:\n        /* \"#utility.yul\":6124:6128   */\n      0x00\n        /* \"#utility.yul\":6162:6164   */\n      0x20\n        /* \"#utility.yul\":6151:6160   */\n      dup3\n        /* \"#utility.yul\":6147:6165   */\n      add\n        /* \"#utility.yul\":6139:6165   */\n      swap1\n      pop\n        /* \"#utility.yul\":6211:6220   */\n      dup2\n        /* \"#utility.yul\":6205:6209   */\n      dup2\n        /* \"#utility.yul\":6201:6221   */\n      sub\n        /* \"#utility.yul\":6197:6198   */\n      0x00\n        /* \"#utility.yul\":6186:6195   */\n      dup4\n        /* \"#utility.yul\":6182:6199   */\n      add\n        /* \"#utility.yul\":6175:6222   */\n      mstore\n        /* \"#utility.yul\":6239:6370   */\n      tag_200\n        /* \"#utility.yul\":6365:6369   */\n      dup2\n        /* \"#utility.yul\":6239:6370   */\n      tag_177\n      jump\t// in\n    tag_200:\n        /* \"#utility.yul\":6231:6370   */\n      swap1\n      pop\n        /* \"#utility.yul\":5958:6377   */\n      swap2\n      swap1\n      pop\n      jump\t// out\n        /* \"#utility.yul\":6383:6802   */\n    tag_60:\n        /* \"#utility.yul\":6549:6553   */\n      0x00\n        /* \"#utility.yul\":6587:6589   */\n      0x20\n        /* \"#utility.yul\":6576:6585   */\n      dup3\n        /* \"#utility.yul\":6572:6590   */\n      add\n        /* \"#utility.yul\":6564:6590   */\n      swap1\n      pop\n        /* \"#utility.yul\":6636:6645   */\n      dup2\n        /* \"#utility.yul\":6630:6634   */\n      dup2\n        /* \"#utility.yul\":6626:6646   */\n      sub\n        /* \"#utility.yul\":6622:6623   */\n      0x00\n        /* \"#utility.yul\":6611:6620   */\n      dup4\n        /* \"#utility.yul\":6607:6624   */\n      add\n        /* \"#utility.yul\":6600:6647   */\n      mstore\n        /* \"#utility.yul\":6664:6795   */\n      tag_202\n        /* \"#utility.yul\":6790:6794   */\n      dup2\n        /* \"#utility.yul\":6664:6795   */\n      tag_182\n      jump\t// in\n    tag_202:\n        /* \"#utility.yul\":6656:6795   */\n      swap1\n      pop\n        /* \"#utility.yul\":6383:6802   */\n      swap2\n      swap1\n      pop\n      jump\t// out\n        /* \"#utility.yul\":6808:7030   */\n    tag_16:\n        /* \"#utility.yul\":6901:6905   */\n      0x00\n        /* \"#utility.yul\":6939:6941   */\n      0x20\n        /* \"#utility.yul\":6928:6937   */\n      dup3\n        /* \"#utility.yul\":6924:6942   */\n      add\n        /* \"#utility.yul\":6916:6942   */\n      swap1\n      pop\n        /* \"#utility.yul\":6952:7023   */\n      tag_204\n        /* \"#utility.yul\":7020:7021   */\n      0x00\n        /* \"#utility.yul\":7009:7018   */\n      dup4\n        /* \"#utility.yul\":7005:7022   */\n      add\n        /* \"#utility.yul\":6996:7002   */\n      dup5\n        /* \"#utility.yul\":6952:7023   */\n      tag_187\n      jump\t// in\n    tag_204:\n        /* \"#utility.yul\":6808:7030   */\n      swap3\n      swap2\n      pop\n      pop\n      jump\t// out\n        /* \"#utility.yul\":7117:7257   */\n    tag_162:\n        /* \"#utility.yul\":7165:7169   */\n      0x00\n        /* \"#utility.yul\":7188:7191   */\n      dup2\n        /* \"#utility.yul\":7180:7191   */\n      swap1\n      pop\n        /* \"#utility.yul\":7211:7214   */\n      dup2\n        /* \"#utility.yul\":7208:7209   */\n      0x00\n        /* \"#utility.yul\":7201:7215   */\n      mstore\n        /* \"#utility.yul\":7245:7249   */\n      0x20\n        /* \"#utility.yul\":7242:7243   */\n      0x00\n        /* \"#utility.yul\":7232:7250   */\n      keccak256\n        /* \"#utility.yul\":7224:7250   */\n      swap1\n      pop\n        /* \"#utility.yul\":7117:7257   */\n      swap2\n      swap1\n      pop\n      jump\t// out\n        /* \"#utility.yul\":7263:7410   */\n    tag_157:\n        /* \"#utility.yul\":7364:7375   */\n      0x00\n        /* \"#utility.yul\":7401:7404   */\n      dup2\n        /* \"#utility.yul\":7386:7404   */\n      swap1\n      pop\n        /* \"#utility.yul\":7263:7410   */\n      swap3\n      swap2\n      pop\n      pop\n      jump\t// out\n        /* \"#utility.yul\":7416:7585   */\n    tag_169:\n        /* \"#utility.yul\":7500:7511   */\n      0x00\n        /* \"#utility.yul\":7534:7540   */\n      dup3\n        /* \"#utility.yul\":7529:7532   */\n      dup3\n        /* \"#utility.yul\":7522:7541   */\n      mstore\n        /* \"#utility.yul\":7574:7578   */\n      0x20\n        /* \"#utility.yul\":7569:7572   */\n      dup3\n        /* \"#utility.yul\":7565:7579   */\n      add\n        /* \"#utility.yul\":7550:7579   */\n      swap1\n      pop\n        /* \"#utility.yul\":7416:7585   */\n      swap3\n      swap2\n      pop\n      pop\n      jump\t// out\n        /* \"#utility.yul\":7591:7687   */\n    tag_210:\n        /* \"#utility.yul\":7628:7635   */\n      0x00\n        /* \"#utility.yul\":7657:7681   */\n      tag_212\n        /* \"#utility.yul\":7675:7680   */\n      dup3\n        /* \"#utility.yul\":7657:7681   */\n      tag_213\n      jump\t// in\n    tag_212:\n        /* \"#utility.yul\":7646:7681   */\n      swap1\n      pop\n        /* \"#utility.yul\":7591:7687   */\n      swap2\n      swap1\n      pop\n      jump\t// out\n        /* \"#utility.yul\":7693:7783   */\n    tag_152:\n        /* \"#utility.yul\":7727:7734   */\n      0x00\n        /* \"#utility.yul\":7770:7775   */\n      dup2\n        /* \"#utility.yul\":7763:7776   */\n      iszero\n        /* \"#utility.yul\":7756:7777   */\n      iszero\n        /* \"#utility.yul\":7745:7777   */\n      swap1\n      pop\n        /* \"#utility.yul\":7693:7783   */\n      swap2\n      swap1\n      pop\n      jump\t// out\n        /* \"#utility.yul\":7789:7915   */\n    tag_213:\n        /* \"#utility.yul\":7826:7833   */\n      0x00\n        /* \"#utility.yul\":7866:7908   */\n      0xffffffffffffffffffffffffffffffffffffffff\n        /* \"#utility.yul\":7859:7864   */\n      dup3\n        /* \"#utility.yul\":7855:7909   */\n      and\n        /* \"#utility.yul\":7844:7909   */\n      swap1\n      pop\n        /* \"#utility.yul\":7789:7915   */\n      swap2\n      swap1\n      pop\n      jump\t// out\n        /* \"#utility.yul\":7921:7998   */\n    tag_190:\n        /* \"#utility.yul\":7958:7965   */\n      0x00\n        /* \"#utility.yul\":7987:7992   */\n      dup2\n        /* \"#utility.yul\":7976:7992   */\n      swap1\n      pop\n        /* \"#utility.yul\":7921:7998   */\n      swap2\n      swap1\n      pop\n      jump\t// out\n        /* \"#utility.yul\":8004:8324   */\n    tag_105:\n        /* \"#utility.yul\":8048:8054   */\n      0x00\n        /* \"#utility.yul\":8085:8086   */\n      0x02\n        /* \"#utility.yul\":8079:8083   */\n      dup3\n        /* \"#utility.yul\":8075:8087   */\n      div\n        /* \"#utility.yul\":8065:8087   */\n      swap1\n      pop\n        /* \"#utility.yul\":8132:8133   */\n      0x01\n        /* \"#utility.yul\":8126:8130   */\n      dup3\n        /* \"#utility.yul\":8122:8134   */\n      and\n        /* \"#utility.yul\":8153:8171   */\n      dup1\n        /* \"#utility.yul\":8143:8224   */\n      tag_218\n      jumpi\n        /* \"#utility.yul\":8209:8213   */\n      0x7f\n        /* \"#utility.yul\":8201:8207   */\n      dup3\n        /* \"#utility.yul\":8197:8214   */\n      and\n        /* \"#utility.yul\":8187:8214   */\n      swap2\n      pop\n        /* \"#utility.yul\":8143:8224   */\n    tag_218:\n        /* \"#utility.yul\":8271:8273   */\n      0x20\n        /* \"#utility.yul\":8263:8269   */\n      dup3\n        /* \"#utility.yul\":8260:8274   */\n      lt\n        /* \"#utility.yul\":8240:8258   */\n      dup2\n        /* \"#utility.yul\":8237:8275   */\n      eq\n        /* \"#utility.yul\":8234:8318   */\n      iszero\n      tag_219\n      jumpi\n        /* \"#utility.yul\":8290:8308   */\n      tag_220\n      tag_221\n      jump\t// in\n    tag_220:\n        /* \"#utility.yul\":8234:8318   */\n    tag_219:\n        /* \"#utility.yul\":8055:8324   */\n      pop\n        /* \"#utility.yul\":8004:8324   */\n      swap2\n      swap1\n      pop\n      jump\t// out\n        /* \"#utility.yul\":8330:8563   */\n    tag_47:\n        /* \"#utility.yul\":8369:8372   */\n      0x00\n        /* \"#utility.yul\":8392:8416   */\n      tag_223\n        /* \"#utility.yul\":8410:8415   */\n      dup3\n        /* \"#utility.yul\":8392:8416   */\n      tag_190\n      jump\t// in\n    tag_223:\n        /* \"#utility.yul\":8383:8416   */\n      swap2\n      pop\n        /* \"#utility.yul\":8438:8504   */\n      0xffffffffffffffffffffffffffffffffffffffffffffffffffffffffffffffff\n        /* \"#utility.yul\":8431:8436   */\n      dup3\n        /* \"#utility.yul\":8428:8505   */\n      eq\n        /* \"#utility.yul\":8425:8528   */\n      iszero\n      tag_224\n      jumpi\n        /* \"#utility.yul\":8508:8526   */\n      tag_225\n      tag_226\n      jump\t// in\n    tag_225:\n        /* \"#utility.yul\":8425:8528   */\n    tag_224:\n        /* \"#utility.yul\":8555:8556   */\n      0x01\n        /* \"#utility.yul\":8548:8553   */\n      dup3\n        /* \"#utility.yul\":8544:8557   */\n      add\n        /* \"#utility.yul\":8537:8557   */\n      swap1\n      pop\n        /* \"#utility.yul\":8330:8563   */\n      swap2\n      swap1\n      pop\n      jump\t// out\n        /* \"#utility.yul\":8569:8749   */\n    tag_226:\n        /* \"#utility.yul\":8617:8694   */\n      0x4e487b7100000000000000000000000000000000000000000000000000000000\n        /* \"#utility.yul\":8614:8615   */\n      0x00\n        /* \"#utility.yul\":8607:8695   */\n      mstore\n        /* \"#utility.yul\":8714:8718   */\n      0x11\n        /* \"#utility.yul\":8711:8712   */\n      0x04\n        /* \"#utility.yul\":8704:8719   */\n      mstore\n        /* \"#utility.yul\":8738:8742   */\n      0x24\n        /* \"#utility.yul\":8735:8736   */\n      0x00\n        /* \"#utility.yul\":8728:8743   */\n      revert\n        /* \"#utility.yul\":8755:8935   */\n    tag_221:\n        /* \"#utility.yul\":8803:8880   */\n      0x4e487b7100000000000000000000000000000000000000000000000000000000\n        /* \"#utility.yul\":8800:8801   */\n      0x00\n        /* \"#utility.yul\":8793:8881   */\n      mstore\n        /* \"#utility.yul\":8900:8904   */\n      0x22\n        /* \"#utility.yul\":8897:8898   */\n      0x04\n        /* \"#utility.yul\":8890:8905   */\n      mstore\n        /* \"#utility.yul\":8924:8928   */\n      0x24\n        /* \"#utility.yul\":8921:8922   */\n      0x00\n        /* \"#utility.yul\":8914:8929   */\n      revert\n        /* \"#utility.yul\":8941:9121   */\n    tag_43:\n        /* \"#utility.yul\":8989:9066   */\n      0x4e487b7100000000000000000000000000000000000000000000000000000000\n        /* \"#utility.yul\":8986:8987   */\n      0x00\n        /* \"#utility.yul\":8979:9067   */\n      mstore\n        /* \"#utility.yul\":9086:9090   */\n      0x32\n        /* \"#utility.yul\":9083:9084   */\n      0x04\n        /* \"#utility.yul\":9076:9091   */\n      mstore\n        /* \"#utility.yul\":9110:9114   */\n      0x24\n        /* \"#utility.yul\":9107:9108   */\n      0x00\n        /* \"#utility.yul\":9100:9115   */\n      revert\n        /* \"#utility.yul\":9127:9244   */\n    tag_127:\n        /* \"#utility.yul\":9236:9237   */\n      0x00\n        /* \"#utility.yul\":9233:9234   */\n      dup1\n        /* \"#utility.yul\":9226:9238   */\n      revert\n        /* \"#utility.yul\":9250:9367   */\n    tag_124:\n        /* \"#utility.yul\":9359:9360   */\n      0x00\n        /* \"#utility.yul\":9356:9357   */\n      dup1\n        /* \"#utility.yul\":9349:9361   */\n      revert\n        /* \"#utility.yul\":9373:9490   */\n    tag_130:\n        /* \"#utility.yul\":9482:9483   */\n      0x00\n        /* \"#utility.yul\":9479:9480   */\n      dup1\n        /* \"#utility.yul\":9472:9484   */\n      revert\n        /* \"#utility.yul\":9496:9613   */\n    tag_143:\n        /* \"#utility.yul\":9605:9606   */\n      0x00\n        /* \"#utility.yul\":9602:9603   */\n      dup1\n        /* \"#utility.yul\":9595:9607   */\n      revert\n        /* \"#utility.yul\":9619:9736   */\n    tag_138:\n        /* \"#utility.yul\":9728:9729   */\n      0x00\n        /* \"#utility.yul\":9725:9726   */\n      dup1\n        /* \"#utility.yul\":9718:9730   */\n      revert\n        /* \"#utility.yul\":9742:9908   */\n    tag_171:\n        /* \"#utility.yul\":9882:9900   */\n      0x616c726561647920657865637574656400000000000000000000000000000000\n        /* \"#utility.yul\":9878:9879   */\n      0x00\n        /* \"#utility.yul\":9870:9876   */\n      dup3\n        /* \"#utility.yul\":9866:9880   */\n      add\n        /* \"#utility.yul\":9859:9901   */\n      mstore\n        /* \"#utility.yul\":9742:9908   */\n      pop\n      jump\t// out\n        /* \"#utility.yul\":9914:10070   */\n    tag_176:\n        /* \"#utility.yul\":10054:10062   */\n      0x6661696c65640000000000000000000000000000000000000000000000000000\n        /* \"#utility.yul\":10050:10051   */\n      0x00\n        /* \"#utility.yul\":10042:10048   */\n      dup3\n        /* \"#utility.yul\":10038:10052   */\n      add\n        /* \"#utility.yul\":10031:10063   */\n      mstore\n        /* \"#utility.yul\":9914:10070   */\n      pop\n      jump\t// out\n        /* \"#utility.yul\":10076:10242   */\n    tag_181:\n        /* \"#utility.yul\":10216:10234   */\n      0x6176726561647920657865637574656400000000000000000000000000000000\n        /* \"#utility.yul\":10212:10213   */\n      0x00\n        /* \"#utility.yul\":10204:10210   */\n      dup3\n        /* \"#utility.yul\":10200:10214   */\n      add\n        /* \"#utility.yul\":10193:10235   */\n      mstore\n        /* \"#utility.yul\":10076:10242   */\n      pop\n      jump\t// out\n        /* \"#utility.yul\":10248:10411   */\n    tag_186:\n        /* \"#utility.yul\":10388:10403   */\n      0x696e76616c696420696e64657800000000000000000000000000000000000000\n        /* \"#utility.yul\":10384:10385   */\n      0x00\n        /* \"#utility.yul\":10376:10382   */\n      dup3\n        /* \"#utility.yul\":10372:10386   */\n      add\n        /* \"#utility.yul\":10365:10404   */\n      mstore\n        /* \"#utility.yul\":10248:10411   */\n      pop\n      jump\t// out\n        /* \"#utility.yul\":10417:10539   */\n    tag_119:\n        /* \"#utility.yul\":10490:10514   */\n      tag_240\n        /* \"#utility.yul\":10508:10513   */\n      dup2\n        /* \"#utility.yul\":10490:10514   */\n      tag_210\n      jump\t// in\n    tag_240:\n        /* \"#utility.yul\":10483:10488   */\n      dup2\n        /* \"#utility.yul\":10480:10515   */\n      eq\n        /* \"#utility.yul\":10470:10533   */\n      tag_241\n      jumpi\n        /* \"#utility.yul\":10529:10530   */\n      0x00\n        /* \"#utility.yul\":10526:10527   */\n      dup1\n        /* \"#utility.yul\":10519:10531   */\n      revert\n        /* \"#utility.yul\":10470:10533   */\n    tag_241:\n        /* \"#utility.yul\":10417:10539   */\n      pop\n      jump\t// out\n        /* \"#utility.yul\":10545:10667   */\n    tag_134:\n        /* \"#utility.yul\":10618:10642   */\n      tag_243\n        /* \"#utility.yul\":10636:10641   */\n      dup2\n        /* \"#utility.yul\":10618:10642   */\n      tag_190\n      jump\t// in\n    tag_243:\n        /* \"#utility.yul\":10611:10616   */\n      dup2\n        /* \"#utility.yul\":10608:10643   */\n      eq\n        /* \"#utility.yul\":10598:10661   */\n      tag_244\n      jumpi\n        /* \"#utility.yul\":10657:10658   */\n      0x00\n        /* \"#utility.yul\":10654:10655   */\n      dup1\n        /* \"#utility.yul\":10647:10659   */\n      revert\n        /* \"#utility.yul\":10598:10661   */\n    tag_244:\n        /* \"#utility.yul\":10545:10667   */\n      pop\n      jump\t// out\n\n    auxdata: 0xa26469706673582212205966ada75374a7028b8449fd912ede1b96f8b9c23f14f06714710761631c655c64736f6c63430008070033\n}\n",
				"bytecode": {
					"linkReferences": {},
					"object": "60806040523480156200001157600080fd5b506040516200166c3803806200166c833981810160405281019062000037919062000389565b60008251116200007e576040517f08c379a00000000000000000000000000000000000000000000000000000000081526004016200007590620004a8565b60405180910390fd5b60005b82518110156200029d576000838281518110620000a357620000a262000624565b5b60200260200101519050600073ffffffffffffffffffffffffffffffffffffffff16848381518110620000db57620000da62000624565b5b602002602001015173ffffffffffffffffffffffffffffffffffffffff1614156200013d576040517f08c379a0000000000000000000000000000000000000000000000000000000008152600401620001349062000486565b60405180910390fd5b6000808273ffffffffffffffffffffffffffffffffffffffff1673ffffffffffffffffffffffffffffffffffffffff16815260200190815260200160002060009054906101000a900460ff1615620001cc576040517f08c379a0000000000000000000000000000000000000000000000000000000008152600401620001c39062000464565b60405180910390fd5b60016000808373ffffffffffffffffffffffffffffffffffffffff1673ffffffffffffffffffffffffffffffffffffffff16815260200190815260200160002060006101000a81548160ff0219169083151502179055506001819080600181540180825580915050600190039060005260206000200160009091909190916101000a81548173ffffffffffffffffffffffffffffffffffffffff021916908373ffffffffffffffffffffffffffffffffffffffff1602179055505080806200029490620005a7565b91505062000081565b5080600381905550505062000756565b6000620002c4620002be84620004f3565b620004ca565b90508083825260208201905082856020860282011115620002ea57620002e962000687565b5b60005b858110156200031e578162000303888262000328565b845260208401935060208301925050600181019050620002ed565b5050509392505050565b600081519050620003398162000722565b92915050565b600082601f83011262000357576200035662000682565b5b815162000369848260208601620002ad565b91505092915050565b60008151905062000383816200073c565b92915050565b60008060408385031215620003a357620003a262000691565b5b600083015167ffffffffffffffff811115620003c457620003c36200068c565b5b620003d2858286016200033f565b9250506020620003e58582860162000372565b9150509250929050565b6000620003fe600d8362000522565b91506200040b82620006a7565b602082019050919050565b600062000425600f8362000522565b91506200043282620006d0565b602082019050919050565b60006200044c60098362000522565b91506200045982620006f9565b602082019050919050565b600060208201905081810360008301526200047f81620003ef565b9050919050565b60006020820190508181036000830152620004a18162000416565b9050919050565b60006020820190508181036000830152620004c3816200043d565b9050919050565b6000620004d6620004e9565b9050620004e4828262000571565b919050565b6000604051905090565b600067ffffffffffffffff82111562000511576200051062000653565b5b602082029050602081019050919050565b600082825260208201905092915050565b6000620005408262000547565b9050919050565b600073ffffffffffffffffffffffffffffffffffffffff82169050919050565b6000819050919050565b6200057c8262000696565b810181811067ffffffffffffffff821117156200059e576200059d62000653565b5b80604052505050565b6000620005b48262000567565b91507fffffffffffffffffffffffffffffffffffffffffffffffffffffffffffffffff821415620005ea57620005e9620005f5565b5b600182019050919050565b7f4e487b7100000000000000000000000000000000000000000000000000000000600052601160045260246000fd5b7f4e487b7100000000000000000000000000000000000000000000000000000000600052603260045260246000fd5b7f4e487b7100000000000000000000000000000000000000000000000000000000600052604160045260246000fd5b600080fd5b600080fd5b600080fd5b600080fd5b6000601f19601f8301169050919050565b7f616c7265616479206f776e657200000000000000000000000000000000000000600082015250565b7f696e76616c696420616464726573730000000000000000000000000000000000600082015250565b7f6e6f206f776e6572730000000000000000000000000000000000000000000000600082015250565b6200072d8162000533565b81146200073957600080fd5b50565b620007478162000567565b81146200075357600080fd5b50565b610f0680620007666000396000f3fe60806040526004361061004e5760003560e01c8063073cbe491461005a57806314de327f1461009757806320c5429b146100c0578063b759f954146100e9578063fe0d94c11461011257610055565b3661005557005b600080fd5b34801561006657600080fd5b50610081600480360381019061007c9190610a41565b61014f565b60405161008e9190610c49565b60405180910390f35b3480156100a357600080fd5b506100be60048036038101906100b991906109cd565b61023b565b005b3480156100cc57600080fd5b506100e760048036038101906100e29190610a41565b6103d5565b005b3480156100f557600080fd5b50610110600480360381019061010b9190610a41565b610550565b005b34801561011e57600080fd5b5061013960048036038101906101349190610a41565b610695565b6040516101469190610bae565b60405180910390f35b6000600280549050821061016257600080fd5b60005b600180549050811015610235576004600084815260200190815260200160002060006001838154811061019b5761019a610db6565b5b9060005260206000200160009054906101000a900473ffffffffffffffffffffffffffffffffffffffff1673ffffffffffffffffffffffffffffffffffffffff1673ffffffffffffffffffffffffffffffffffffffff16815260200190815260200160002060009054906101000a900460ff161561022257818061021e90610d0f565b9250505b808061022d90610d0f565b915050610165565b50919050565b6000803373ffffffffffffffffffffffffffffffffffffffff1673ffffffffffffffffffffffffffffffffffffffff16815260200190815260200160002060009054906101000a900460ff1661029057600080fd5b600060405180608001604052808673ffffffffffffffffffffffffffffffffffffffff16815260200185815260200184848080601f016020809104026020016040519081016040528093929190818152602001838380828437600081840152601f19601f820116905080830192505050505050508152602001600015158152509050600281908060018154018082558091505060019003906000526020600020906004020160009091909190915060008201518160000160006101000a81548173ffffffffffffffffffffffffffffffffffffffff021916908373ffffffffffffffffffffffffffffffffffffffff1602179055506020820151816001015560408201518160020190805190602001906103ab9291906108aa565b5060608201518160030160006101000a81548160ff02191690831515021790555050505050505050565b6000803373ffffffffffffffffffffffffffffffffffffffff1673ffffffffffffffffffffffffffffffffffffffff16815260200190815260200160002060009054906101000a900460ff1661042a57600080fd5b6002805490508110610471576040517f08c379a000000000000000000000000000000000000000000000000000000000815260040161046890610c29565b60405180910390fd5b6002818154811061048557610484610db6565b5b906000526020600020906004020160030160009054906101000a900460ff16156104e4576040517f08c379a00000000000000000000000000000000000000000000000000000000081526004016104db90610c09565b60405180910390fd5b60016004600083815260200190815260200160002060003373ffffffffffffffffffffffffffffffffffffffff1673ffffffffffffffffffffffffffffffffffffffff16815260200190815260200160002060006101000a81548160ff02191690831515021790555050565b6000803373ffffffffffffffffffffffffffffffffffffffff1673ffffffffffffffffffffffffffffffffffffffff16815260200190815260200160002060009054906101000a900460ff166105a557600080fd5b60028054905081106105b657600080fd5b600281815481106105ca576105c9610db6565b5b906000526020600020906004020160030160009054906101000a900460ff1615610629576040517f08c379a000000000000000000000000000000000000000000000000000000000815260040161062090610c09565b60405180910390fd5b60016004600083815260200190815260200160002060003373ffffffffffffffffffffffffffffffffffffffff1673ffffffffffffffffffffffffffffffffffffffff16815260200190815260200160002060006101000a81548160ff02191690831515021790555050565b600060028054905082106106de576040517f08c379a00000000000000000000000000000000000000000000000000000000081526004016106d590610c29565b60405180910390fd5b600282815481106106f2576106f1610db6565b5b906000526020600020906004020160030160009054906101000a900460ff1615610751576040517f08c379a000000000000000000000000000000000000000000000000000000000815260040161074890610bc9565b60405180910390fd5b60035461075d8361014f565b11156108a15760006002838154811061077957610778610db6565b5b906000526020600020906004020160000160009054906101000a900473ffffffffffffffffffffffffffffffffffffffff1673ffffffffffffffffffffffffffffffffffffffff16600284815481106107d5576107d4610db6565b5b906000526020600020906004020160010154600285815481106107fb576107fa610db6565b5b90600052602060002090600402016002016040516108199190610b97565b60006040518083038185875af1925050503d8060008114610856576040519150601f19603f3d011682016040523d82523d6000602084013e61085b565b606091505b505090508061089f576040517f08c379a000000000000000000000000000000000000000000000000000000000815260040161089690610be9565b60405180910390fd5b505b60019050919050565b8280546108b690610cdd565b90600052602060002090601f0160209004810192826108d8576000855561091f565b82601f106108f157805160ff191683800117855561091f565b8280016001018555821561091f579182015b8281111561091e578251825591602001919060010190610903565b5b50905061092c9190610930565b5090565b5b80821115610949576000816000905550600101610931565b5090565b60008135905061095c81610ea2565b92915050565b60008083601f84011261097857610977610dea565b5b8235905067ffffffffffffffff81111561099557610994610de5565b5b6020830191508360018202830111156109b1576109b0610def565b5b9250929050565b6000813590506109c781610eb9565b92915050565b600080600080606085870312156109e7576109e6610df9565b5b60006109f58782880161094d565b9450506020610a06878288016109b8565b935050604085013567ffffffffffffffff811115610a2757610a26610df4565b5b610a3387828801610962565b925092505092959194509250565b600060208284031215610a5757610a56610df9565b5b6000610a65848285016109b8565b91505092915050565b610a7781610ca7565b82525050565b60008154610a8a81610cdd565b610a948186610c79565b94506001821660008114610aaf5760018114610ac057610af3565b60ff19831686528186019350610af3565b610ac985610c64565b60005b83811015610aeb57815481890152600182019150602081019050610acc565b838801955050505b50505092915050565b6000610b09601083610c84565b9150610b1482610dfe565b602082019050919050565b6000610b2c600683610c84565b9150610b3782610e27565b602082019050919050565b6000610b4f601083610c84565b9150610b5a82610e50565b602082019050919050565b6000610b72600d83610c84565b9150610b7d82610e79565b602082019050919050565b610b9181610cd3565b82525050565b6000610ba38284610a7d565b915081905092915050565b6000602082019050610bc36000830184610a6e565b92915050565b60006020820190508181036000830152610be281610afc565b9050919050565b60006020820190508181036000830152610c0281610b1f565b9050919050565b60006020820190508181036000830152610c2281610b42565b9050919050565b60006020820190508181036000830152610c4281610b65565b9050919050565b6000602082019050610c5e6000830184610b88565b92915050565b60008190508160005260206000209050919050565b600081905092915050565b600082825260208201905092915050565b6000610ca082610cb3565b9050919050565b60008115159050919050565b600073ffffffffffffffffffffffffffffffffffffffff82169050919050565b6000819050919050565b60006002820490506001821680610cf557607f821691505b60208210811415610d0957610d08610d87565b5b50919050565b6000610d1a82610cd3565b91507fffffffffffffffffffffffffffffffffffffffffffffffffffffffffffffffff821415610d4d57610d4c610d58565b5b600182019050919050565b7f4e487b7100000000000000000000000000000000000000000000000000000000600052601160045260246000fd5b7f4e487b7100000000000000000000000000000000000000000000000000000000600052602260045260246000fd5b7f4e487b7100000000000000000000000000000000000000000000000000000000600052603260045260246000fd5b600080fd5b600080fd5b600080fd5b600080fd5b600080fd5b7f616c726561647920657865637574656400000000000000000000000000000000600082015250565b7f6661696c65640000000000000000000000000000000000000000000000000000600082015250565b7f6176726561647920657865637574656400000000000000000000000000000000600082015250565b7f696e76616c696420696e64657800000000000000000000000000000000000000600082015250565b610eab81610c95565b8114610eb657600080fd5b50565b610ec281610cd3565b8114610ecd57600080fd5b5056fea26469706673582212205966ada75374a7028b8449fd912ede1b96f8b9c23f14f06714710761631c655c64736f6c63430008070033",
					"opcodes": "PUSH1 0x80 PUSH1 0x40 MSTORE CALLVALUE DUP1 ISZERO PUSH3 0x11 JUMPI PUSH1 0x0 DUP1 REVERT JUMPDEST POP PUSH1 0x40 MLOAD PUSH3 0x166C CODESIZE SUB DUP1 PUSH3 0x166C DUP4 CODECOPY DUP2 DUP2 ADD PUSH1 0x40 MSTORE DUP2 ADD SWAP1 PUSH3 0x37 SWAP2 SWAP1 PUSH3 0x389 JUMP JUMPDEST PUSH1 0x0 DUP3 MLOAD GT PUSH3 0x7E JUMPI PUSH1 0x40 MLOAD PUSH32 0x8C379A000000000000000000000000000000000000000000000000000000000 DUP2 MSTORE PUSH1 0x4 ADD PUSH3 0x75 SWAP1 PUSH3 0x4A8 JUMP JUMPDEST PUSH1 0x40 MLOAD DUP1 SWAP2 SUB SWAP1 REVERT JUMPDEST PUSH1 0x0 JUMPDEST DUP3 MLOAD DUP2 LT ISZERO PUSH3 0x29D JUMPI PUSH1 0x0 DUP4 DUP3 DUP2 MLOAD DUP2 LT PUSH3 0xA3 JUMPI PUSH3 0xA2 PUSH3 0x624 JUMP JUMPDEST JUMPDEST PUSH1 0x20 MUL PUSH1 0x20 ADD ADD MLOAD SWAP1 POP PUSH1 0x0 PUSH20 0xFFFFFFFFFFFFFFFFFFFFFFFFFFFFFFFFFFFFFFFF AND DUP5 DUP4 DUP2 MLOAD DUP2 LT PUSH3 0xDB JUMPI PUSH3 0xDA PUSH3 0x624 JUMP JUMPDEST JUMPDEST PUSH1 0x20 MUL PUSH1 0x20 ADD ADD MLOAD PUSH20 0xFFFFFFFFFFFFFFFFFFFFFFFFFFFFFFFFFFFFFFFF AND EQ ISZERO PUSH3 0x13D JUMPI PUSH1 0x40 MLOAD PUSH32 0x8C379A000000000000000000000000000000000000000000000000000000000 DUP2 MSTORE PUSH1 0x4 ADD PUSH3 0x134 SWAP1 PUSH3 0x486 JUMP JUMPDEST PUSH1 0x40 MLOAD DUP1 SWAP2 SUB SWAP1 REVERT JUMPDEST PUSH1 0x0 DUP1 DUP3 PUSH20 0xFFFFFFFFFFFFFFFFFFFFFFFFFFFFFFFFFFFFFFFF AND PUSH20 0xFFFFFFFFFFFFFFFFFFFFFFFFFFFFFFFFFFFFFFFF AND DUP2 MSTORE PUSH1 0x20 ADD SWAP1 DUP2 MSTORE PUSH1 0x20 ADD PUSH1 0x0 KECCAK256 PUSH1 0x0 SWAP1 SLOAD SWAP1 PUSH2 0x100 EXP SWAP1 DIV PUSH1 0xFF AND ISZERO PUSH3 0x1CC JUMPI PUSH1 0x40 MLOAD PUSH32 0x8C379A000000000000000000000000000000000000000000000000000000000 DUP2 MSTORE PUSH1 0x4 ADD PUSH3 0x1C3 SWAP1 PUSH3 0x464 JUMP JUMPDEST PUSH1 0x40 MLOAD DUP1 SWAP2 SUB SWAP1 REVERT JUMPDEST PUSH1 0x1 PUSH1 0x0 DUP1 DUP4 PUSH20 0xFFFFFFFFFFFFFFFFFFFFFFFFFFFFFFFFFFFFFFFF AND PUSH20 0xFFFFFFFFFFFFFFFFFFFFFFFFFFFFFFFFFFFFFFFF AND DUP2 MSTORE PUSH1 0x20 ADD SWAP1 DUP2 MSTORE PUSH1 0x20 ADD PUSH1 0x0 KECCAK256 PUSH1 0x0 PUSH2 0x100 EXP DUP2 SLOAD DUP2 PUSH1 0xFF MUL NOT AND SWAP1 DUP4 ISZERO ISZERO MUL OR SWAP1 SSTORE POP PUSH1 0x1 DUP2 SWAP1 DUP1 PUSH1 0x1 DUP2 SLOAD ADD DUP1 DUP3 SSTORE DUP1 SWAP2 POP POP PUSH1 0x1 SWAP1 SUB SWAP1 PUSH1 0x0 MSTORE PUSH1 0x20 PUSH1 0x0 KECCAK256 ADD PUSH1 0x0 SWAP1 SWAP2 SWAP1 SWAP2 SWAP1 SWAP2 PUSH2 0x100 EXP DUP2 SLOAD DUP2 PUSH20 0xFFFFFFFFFFFFFFFFFFFFFFFFFFFFFFFFFFFFFFFF MUL NOT AND SWAP1 DUP4 PUSH20 0xFFFFFFFFFFFFFFFFFFFFFFFFFFFFFFFFFFFFFFFF AND MUL OR SWAP1 SSTORE POP POP DUP1 DUP1 PUSH3 0x294 SWAP1 PUSH3 0x5A7 JUMP JUMPDEST SWAP2 POP POP PUSH3 0x81 JUMP JUMPDEST POP DUP1 PUSH1 0x3 DUP2 SWAP1 SSTORE POP POP POP PUSH3 0x756 JUMP JUMPDEST PUSH1 0x0 PUSH3 0x2C4 PUSH3 0x2BE DUP5 PUSH3 0x4F3 JUMP JUMPDEST PUSH3 0x4CA JUMP JUMPDEST SWAP1 POP DUP1 DUP4 DUP3 MSTORE PUSH1 0x20 DUP3 ADD SWAP1 POP DUP3 DUP6 PUSH1 0x20 DUP7 MUL DUP3 ADD GT ISZERO PUSH3 0x2EA JUMPI PUSH3 0x2E9 PUSH3 0x687 JUMP JUMPDEST JUMPDEST PUSH1 0x0 JUMPDEST DUP6 DUP2 LT ISZERO PUSH3 0x31E JUMPI DUP2 PUSH3 0x303 DUP9 DUP3 PUSH3 0x328 JUMP JUMPDEST DUP5 MSTORE PUSH1 0x20 DUP5 ADD SWAP4 POP PUSH1 0x20 DUP4 ADD SWAP3 POP POP PUSH1 0x1 DUP2 ADD SWAP1 POP PUSH3 0x2ED JUMP JUMPDEST POP POP POP SWAP4 SWAP3 POP POP POP JUMP JUMPDEST PUSH1 0x0 DUP2 MLOAD SWAP1 POP PUSH3 0x339 DUP2 PUSH3 0x722 JUMP JUMPDEST SWAP3 SWAP2 POP POP JUMP JUMPDEST PUSH1 0x0 DUP3 PUSH1 0x1F DUP4 ADD SLT PUSH3 0x357 JUMPI PUSH3 0x356 PUSH3 0x682 JUMP JUMPDEST JUMPDEST DUP2 MLOAD PUSH3 0x369 DUP5 DUP3 PUSH1 0x20 DUP7 ADD PUSH3 0x2AD JUMP JUMPDEST SWAP2 POP POP SWAP3 SWAP2 POP POP JUMP JUMPDEST PUSH1 0x0 DUP2 MLOAD SWAP1 POP PUSH3 0x383 DUP2 PUSH3 0x73C JUMP JUMPDEST SWAP3 SWAP2 POP POP JUMP JUMPDEST PUSH1 0x0 DUP1 PUSH1 0x40 DUP4 DUP6 SUB SLT ISZERO PUSH3 0x3A3 JUMPI PUSH3 0x3A2 PUSH3 0x691 JUMP JUMPDEST JUMPDEST PUSH1 0x0 DUP4 ADD MLOAD PUSH8 0xFFFFFFFFFFFFFFFF DUP2 GT ISZERO PUSH3 0x3C4 JUMPI PUSH3 0x3C3 PUSH3 0x68C JUMP JUMPDEST JUMPDEST PUSH3 0x3D2 DUP6 DUP3 DUP7 ADD PUSH3 0x33F JUMP JUMPDEST SWAP3 POP POP PUSH1 0x20 PUSH3 0x3E5 DUP6 DUP3 DUP7 ADD PUSH3 0x372 JUMP JUMPDEST SWAP2 POP POP SWAP3 POP SWAP3 SWAP1 POP JUMP JUMPDEST PUSH1 0x0 PUSH3 0x3FE PUSH1 0xD DUP4 PUSH3 0x522 JUMP JUMPDEST SWAP2 POP PUSH3 0x40B DUP3 PUSH3 0x6A7 JUMP JUMPDEST PUSH1 0x20 DUP3 ADD SWAP1 POP SWAP2 SWAP1 POP JUMP JUMPDEST PUSH1 0x0 PUSH3 0x425 PUSH1 0xF DUP4 PUSH3 0x522 JUMP JUMPDEST SWAP2 POP PUSH3 0x432 DUP3 PUSH3 0x6D0 JUMP JUMPDEST PUSH1 0x20 DUP3 ADD SWAP1 POP SWAP2 SWAP1 POP JUMP JUMPDEST PUSH1 0x0 PUSH3 0x44C PUSH1 0x9 DUP4 PUSH3 0x522 JUMP JUMPDEST SWAP2 POP PUSH3 0x459 DUP3 PUSH3 0x6F9 JUMP JUMPDEST PUSH1 0x20 DUP3 ADD SWAP1 POP SWAP2 SWAP1 POP JUMP JUMPDEST PUSH1 0x0 PUSH1 0x20 DUP3 ADD SWAP1 POP DUP2 DUP2 SUB PUSH1 0x0 DUP4 ADD MSTORE PUSH3 0x47F DUP2 PUSH3 0x3EF JUMP JUMPDEST SWAP1 POP SWAP2 SWAP1 POP JUMP JUMPDEST PUSH1 0x0 PUSH1 0x20 DUP3 ADD SWAP1 POP DUP2 DUP2 SUB PUSH1 0x0 DUP4 ADD MSTORE PUSH3 0x4A1 DUP2 PUSH3 0x416 JUMP JUMPDEST SWAP1 POP SWAP2 SWAP1 POP JUMP JUMPDEST PUSH1 0x0 PUSH1 0x20 DUP3 ADD SWAP1 POP DUP2 DUP2 SUB PUSH1 0x0 DUP4 ADD MSTORE PUSH3 0x4C3 DUP2 PUSH3 0x43D JUMP JUMPDEST SWAP1 POP SWAP2 SWAP1 POP JUMP JUMPDEST PUSH1 0x0 PUSH3 0x4D6 PUSH3 0x4E9 JUMP JUMPDEST SWAP1 POP PUSH3 0x4E4 DUP3 DUP3 PUSH3 0x571 JUMP JUMPDEST SWAP2 SWAP1 POP JUMP JUMPDEST PUSH1 0x0 PUSH1 0x40 MLOAD SWAP1 POP SWAP1 JUMP JUMPDEST PUSH1 0x0 PUSH8 0xFFFFFFFFFFFFFFFF DUP3 GT ISZERO PUSH3 0x511 JUMPI PUSH3 0x510 PUSH3 0x653 JUMP JUMPDEST JUMPDEST PUSH1 0x20 DUP3 MUL SWAP1 POP PUSH1 0x20 DUP2 ADD SWAP1 POP SWAP2 SWAP1 POP JUMP JUMPDEST PUSH1 0x0 DUP3 DUP3 MSTORE PUSH1 0x20 DUP3 ADD SWAP1 POP SWAP3 SWAP2 POP POP JUMP JUMPDEST PUSH1 0x0 PUSH3 0x540 DUP3 PUSH3 0x547 JUMP JUMPDEST SWAP1 POP SWAP2 SWAP1 POP JUMP JUMPDEST PUSH1 0x0 PUSH20 0xFFFFFFFFFFFFFFFFFFFFFFFFFFFFFFFFFFFFFFFF DUP3 AND SWAP1 POP SWAP2 SWAP1 POP JUMP JUMPDEST PUSH1 0x0 DUP2 SWAP1 POP SWAP2 SWAP1 POP JUMP JUMPDEST PUSH3 0x57C DUP3 PUSH3 0x696 JUMP JUMPDEST DUP2 ADD DUP2 DUP2 LT PUSH8 0xFFFFFFFFFFFFFFFF DUP3 GT OR ISZERO PUSH3 0x59E JUMPI PUSH3 0x59D PUSH3 0x653 JUMP JUMPDEST JUMPDEST DUP1 PUSH1 0x40 MSTORE POP POP POP JUMP JUMPDEST PUSH1 0x0 PUSH3 0x5B4 DUP3 PUSH3 0x567 JUMP JUMPDEST SWAP2 POP PUSH32 0xFFFFFFFFFFFFFFFFFFFFFFFFFFFFFFFFFFFFFFFFFFFFFFFFFFFFFFFFFFFFFFFF DUP3 EQ ISZERO PUSH3 0x5EA JUMPI PUSH3 0x5E9 PUSH3 0x5F5 JUMP JUMPDEST JUMPDEST PUSH1 0x1 DUP3 ADD SWAP1 POP SWAP2 SWAP1 POP JUMP JUMPDEST PUSH32 0x4E487B7100000000000000000000000000000000000000000000000000000000 PUSH1 0x0 MSTORE PUSH1 0x11 PUSH1 0x4 MSTORE PUSH1 0x24 PUSH1 0x0 REVERT JUMPDEST PUSH32 0x4E487B7100000000000000000000000000000000000000000000000000000000 PUSH1 0x0 MSTORE PUSH1 0x32 PUSH1 0x4 MSTORE PUSH1 0x24 PUSH1 0x0 REVERT JUMPDEST PUSH32 0x4E487B7100000000000000000000000000000000000000000000000000000000 PUSH1 0x0 MSTORE PUSH1 0x41 PUSH1 0x4 MSTORE PUSH1 0x24 PUSH1 0x0 REVERT JUMPDEST PUSH1 0x0 DUP1 REVERT JUMPDEST PUSH1 0x0 DUP1 REVERT JUMPDEST PUSH1 0x0 DUP1 REVERT JUMPDEST PUSH1 0x0 DUP1 REVERT JUMPDEST PUSH1 0x0 PUSH1 0x1F NOT PUSH1 0x1F DUP4 ADD AND SWAP1 POP SWAP2 SWAP1 POP JUMP JUMPDEST PUSH32 0x616C7265616479206F776E657200000000000000000000000000000000000000 PUSH1 0x0 DUP3 ADD MSTORE POP JUMP JUMPDEST PUSH32 0x696E76616C696420616464726573730000000000000000000000000000000000 PUSH1 0x0 DUP3 ADD MSTORE POP JUMP JUMPDEST PUSH32 0x6E6F206F776E6572730000000000000000000000000000000000000000000000 PUSH1 0x0 DUP3 ADD MSTORE POP JUMP JUMPDEST PUSH3 0x72D DUP2 PUSH3 0x533 JUMP JUMPDEST DUP2 EQ PUSH3 0x739 JUMPI PUSH1 0x0 DUP1 REVERT JUMPDEST POP JUMP JUMPDEST PUSH3 0x747 DUP2 PUSH3 0x567 JUMP JUMPDEST DUP2 EQ PUSH3 0x753 JUMPI PUSH1 0x0 DUP1 REVERT JUMPDEST POP JUMP JUMPDEST PUSH2 0xF06 DUP1 PUSH3 0x766 PUSH1 0x0 CODECOPY PUSH1 0x0 RETURN INVALID PUSH1 0x80 PUSH1 0x40 MSTORE PUSH1 0x4 CALLDATASIZE LT PUSH2 0x4E JUMPI PUSH1 0x0 CALLDATALOAD PUSH1 0xE0 SHR DUP1 PUSH4 0x73CBE49 EQ PUSH2 0x5A JUMPI DUP1 PUSH4 0x14DE327F EQ PUSH2 0x97 JUMPI DUP1 PUSH4 0x20C5429B EQ PUSH2 0xC0 JUMPI DUP1 PUSH4 0xB759F954 EQ PUSH2 0xE9 JUMPI DUP1 PUSH4 0xFE0D94C1 EQ PUSH2 0x112 JUMPI PUSH2 0x55 JUMP JUMPDEST CALLDATASIZE PUSH2 0x55 JUMPI STOP JUMPDEST PUSH1 0x0 DUP1 REVERT JUMPDEST CALLVALUE DUP1 ISZERO PUSH2 0x66 JUMPI PUSH1 0x0 DUP1 REVERT JUMPDEST POP PUSH2 0x81 PUSH1 0x4 DUP1 CALLDATASIZE SUB DUP2 ADD SWAP1 PUSH2 0x7C SWAP2 SWAP1 PUSH2 0xA41 JUMP JUMPDEST PUSH2 0x14F JUMP JUMPDEST PUSH1 0x40 MLOAD PUSH2 0x8E SWAP2 SWAP1 PUSH2 0xC49 JUMP JUMPDEST PUSH1 0x40 MLOAD DUP1 SWAP2 SUB SWAP1 RETURN JUMPDEST CALLVALUE DUP1 ISZERO PUSH2 0xA3 JUMPI PUSH1 0x0 DUP1 REVERT JUMPDEST POP PUSH2 0xBE PUSH1 0x4 DUP1 CALLDATASIZE SUB DUP2 ADD SWAP1 PUSH2 0xB9 SWAP2 SWAP1 PUSH2 0x9CD JUMP JUMPDEST PUSH2 0x23B JUMP JUMPDEST STOP JUMPDEST CALLVALUE DUP1 ISZERO PUSH2 0xCC JUMPI PUSH1 0x0 DUP1 REVERT JUMPDEST POP PUSH2 0xE7 PUSH1 0x4 DUP1 CALLDATASIZE SUB DUP2 ADD SWAP1 PUSH2 0xE2 SWAP2 SWAP1 PUSH2 0xA41 JUMP JUMPDEST PUSH2 0x3D5 JUMP JUMPDEST STOP JUMPDEST CALLVALUE DUP1 ISZERO PUSH2 0xF5 JUMPI PUSH1 0x0 DUP1 REVERT JUMPDEST POP PUSH2 0x110 PUSH1 0x4 DUP1 CALLDATASIZE SUB DUP2 ADD SWAP1 PUSH2 0x10B SWAP2 SWAP1 PUSH2 0xA41 JUMP JUMPDEST PUSH2 0x550 JUMP JUMPDEST STOP JUMPDEST CALLVALUE DUP1 ISZERO PUSH2 0x11E JUMPI PUSH1 0x0 DUP1 REVERT JUMPDEST POP PUSH2 0x139 PUSH1 0x4 DUP1 CALLDATASIZE SUB DUP2 ADD SWAP1 PUSH2 0x134 SWAP2 SWAP1 PUSH2 0xA41 JUMP JUMPDEST PUSH2 0x695 JUMP JUMPDEST PUSH1 0x40 MLOAD PUSH2 0x146 SWAP2 SWAP1 PUSH2 0xBAE JUMP JUMPDEST PUSH1 0x40 MLOAD DUP1 SWAP2 SUB SWAP1 RETURN JUMPDEST PUSH1 0x0 PUSH1 0x2 DUP1 SLOAD SWAP1 POP DUP3 LT PUSH2 0x162 JUMPI PUSH1 0x0 DUP1 REVERT JUMPDEST PUSH1 0x0 JUMPDEST PUSH1 0x1 DUP1 SLOAD SWAP1 POP DUP2 LT ISZERO PUSH2 0x235 JUMPI PUSH1 0x4 PUSH1 0x0 DUP5 DUP2 MSTORE PUSH1 0x20 ADD SWAP1 DUP2 MSTORE PUSH1 0x20 ADD PUSH1 0x0 KECCAK256 PUSH1 0x0 PUSH1 0x1 DUP4 DUP2 SLOAD DUP2 LT PUSH2 0x19B JUMPI PUSH2 0x19A PUSH2 0xDB6 JUMP JUMPDEST JUMPDEST SWAP1 PUSH1 0x0 MSTORE PUSH1 0x20 PUSH1 0x0 KECCAK256 ADD PUSH1 0x0 SWAP1 SLOAD SWAP1 PUSH2 0x100 EXP SWAP1 DIV PUSH20 0xFFFFFFFFFFFFFFFFFFFFFFFFFFFFFFFFFFFFFFFF AND PUSH20 0xFFFFFFFFFFFFFFFFFFFFFFFFFFFFFFFFFFFFFFFF AND PUSH20 0xFFFFFFFFFFFFFFFFFFFFFFFFFFFFFFFFFFFFFFFF AND DUP2 MSTORE PUSH1 0x20 ADD SWAP1 DUP2 MSTORE PUSH1 0x20 ADD PUSH1 0x0 KECCAK256 PUSH1 0x0 SWAP1 SLOAD SWAP1 PUSH2 0x100 EXP SWAP1 DIV PUSH1 0xFF AND ISZERO PUSH2 0x222 JUMPI DUP2 DUP1 PUSH2 0x21E SWAP1 PUSH2 0xD0F JUMP JUMPDEST SWAP3 POP POP JUMPDEST DUP1 DUP1 PUSH2 0x22D SWAP1 PUSH2 0xD0F JUMP JUMPDEST SWAP2 POP POP PUSH2 0x165 JUMP JUMPDEST POP SWAP2 SWAP1 POP JUMP JUMPDEST PUSH1 0x0 DUP1 CALLER PUSH20 0xFFFFFFFFFFFFFFFFFFFFFFFFFFFFFFFFFFFFFFFF AND PUSH20 0xFFFFFFFFFFFFFFFFFFFFFFFFFFFFFFFFFFFFFFFF AND DUP2 MSTORE PUSH1 0x20 ADD SWAP1 DUP2 MSTORE PUSH1 0x20 ADD PUSH1 0x0 KECCAK256 PUSH1 0x0 SWAP1 SLOAD SWAP1 PUSH2 0x100 EXP SWAP1 DIV PUSH1 0xFF AND PUSH2 0x290 JUMPI PUSH1 0x0 DUP1 REVERT JUMPDEST PUSH1 0x0 PUSH1 0x40 MLOAD DUP1 PUSH1 0x80 ADD PUSH1 0x40 MSTORE DUP1 DUP7 PUSH20 0xFFFFFFFFFFFFFFFFFFFFFFFFFFFFFFFFFFFFFFFF AND DUP2 MSTORE PUSH1 0x20 ADD DUP6 DUP2 MSTORE PUSH1 0x20 ADD DUP5 DUP5 DUP1 DUP1 PUSH1 0x1F ADD PUSH1 0x20 DUP1 SWAP2 DIV MUL PUSH1 0x20 ADD PUSH1 0x40 MLOAD SWAP1 DUP2 ADD PUSH1 0x40 MSTORE DUP1 SWAP4 SWAP3 SWAP2 SWAP1 DUP2 DUP2 MSTORE PUSH1 0x20 ADD DUP4 DUP4 DUP1 DUP3 DUP5 CALLDATACOPY PUSH1 0x0 DUP2 DUP5 ADD MSTORE PUSH1 0x1F NOT PUSH1 0x1F DUP3 ADD AND SWAP1 POP DUP1 DUP4 ADD SWAP3 POP POP POP POP POP POP POP DUP2 MSTORE PUSH1 0x20 ADD PUSH1 0x0 ISZERO ISZERO DUP2 MSTORE POP SWAP1 POP PUSH1 0x2 DUP2 SWAP1 DUP1 PUSH1 0x1 DUP2 SLOAD ADD DUP1 DUP3 SSTORE DUP1 SWAP2 POP POP PUSH1 0x1 SWAP1 SUB SWAP1 PUSH1 0x0 MSTORE PUSH1 0x20 PUSH1 0x0 KECCAK256 SWAP1 PUSH1 0x4 MUL ADD PUSH1 0x0 SWAP1 SWAP2 SWAP1 SWAP2 SWAP1 SWAP2 POP PUSH1 0x0 DUP3 ADD MLOAD DUP2 PUSH1 0x0 ADD PUSH1 0x0 PUSH2 0x100 EXP DUP2 SLOAD DUP2 PUSH20 0xFFFFFFFFFFFFFFFFFFFFFFFFFFFFFFFFFFFFFFFF MUL NOT AND SWAP1 DUP4 PUSH20 0xFFFFFFFFFFFFFFFFFFFFFFFFFFFFFFFFFFFFFFFF AND MUL OR SWAP1 SSTORE POP PUSH1 0x20 DUP3 ADD MLOAD DUP2 PUSH1 0x1 ADD SSTORE PUSH1 0x40 DUP3 ADD MLOAD DUP2 PUSH1 0x2 ADD SWAP1 DUP1 MLOAD SWAP1 PUSH1 0x20 ADD SWAP1 PUSH2 0x3AB SWAP3 SWAP2 SWAP1 PUSH2 0x8AA JUMP JUMPDEST POP PUSH1 0x60 DUP3 ADD MLOAD DUP2 PUSH1 0x3 ADD PUSH1 0x0 PUSH2 0x100 EXP DUP2 SLOAD DUP2 PUSH1 0xFF MUL NOT AND SWAP1 DUP4 ISZERO ISZERO MUL OR SWAP1 SSTORE POP POP POP POP POP POP POP POP JUMP JUMPDEST PUSH1 0x0 DUP1 CALLER PUSH20 0xFFFFFFFFFFFFFFFFFFFFFFFFFFFFFFFFFFFFFFFF AND PUSH20 0xFFFFFFFFFFFFFFFFFFFFFFFFFFFFFFFFFFFFFFFF AND DUP2 MSTORE PUSH1 0x20 ADD SWAP1 DUP2 MSTORE PUSH1 0x20 ADD PUSH1 0x0 KECCAK256 PUSH1 0x0 SWAP1 SLOAD SWAP1 PUSH2 0x100 EXP SWAP1 DIV PUSH1 0xFF AND PUSH2 0x42A JUMPI PUSH1 0x0 DUP1 REVERT JUMPDEST PUSH1 0x2 DUP1 SLOAD SWAP1 POP DUP2 LT PUSH2 0x471 JUMPI PUSH1 0x40 MLOAD PUSH32 0x8C379A000000000000000000000000000000000000000000000000000000000 DUP2 MSTORE PUSH1 0x4 ADD PUSH2 0x468 SWAP1 PUSH2 0xC29 JUMP JUMPDEST PUSH1 0x40 MLOAD DUP1 SWAP2 SUB SWAP1 REVERT JUMPDEST PUSH1 0x2 DUP2 DUP2 SLOAD DUP2 LT PUSH2 0x485 JUMPI PUSH2 0x484 PUSH2 0xDB6 JUMP JUMPDEST JUMPDEST SWAP1 PUSH1 0x0 MSTORE PUSH1 0x20 PUSH1 0x0 KECCAK256 SWAP1 PUSH1 0x4 MUL ADD PUSH1 0x3 ADD PUSH1 0x0 SWAP1 SLOAD SWAP1 PUSH2 0x100 EXP SWAP1 DIV PUSH1 0xFF AND ISZERO PUSH2 0x4E4 JUMPI PUSH1 0x40 MLOAD PUSH32 0x8C379A000000000000000000000000000000000000000000000000000000000 DUP2 MSTORE PUSH1 0x4 ADD PUSH2 0x4DB SWAP1 PUSH2 0xC09 JUMP JUMPDEST PUSH1 0x40 MLOAD DUP1 SWAP2 SUB SWAP1 REVERT JUMPDEST PUSH1 0x1 PUSH1 0x4 PUSH1 0x0 DUP4 DUP2 MSTORE PUSH1 0x20 ADD SWAP1 DUP2 MSTORE PUSH1 0x20 ADD PUSH1 0x0 KECCAK256 PUSH1 0x0 CALLER PUSH20 0xFFFFFFFFFFFFFFFFFFFFFFFFFFFFFFFFFFFFFFFF AND PUSH20 0xFFFFFFFFFFFFFFFFFFFFFFFFFFFFFFFFFFFFFFFF AND DUP2 MSTORE PUSH1 0x20 ADD SWAP1 DUP2 MSTORE PUSH1 0x20 ADD PUSH1 0x0 KECCAK256 PUSH1 0x0 PUSH2 0x100 EXP DUP2 SLOAD DUP2 PUSH1 0xFF MUL NOT AND SWAP1 DUP4 ISZERO ISZERO MUL OR SWAP1 SSTORE POP POP JUMP JUMPDEST PUSH1 0x0 DUP1 CALLER PUSH20 0xFFFFFFFFFFFFFFFFFFFFFFFFFFFFFFFFFFFFFFFF AND PUSH20 0xFFFFFFFFFFFFFFFFFFFFFFFFFFFFFFFFFFFFFFFF AND DUP2 MSTORE PUSH1 0x20 ADD SWAP1 DUP2 MSTORE PUSH1 0x20 ADD PUSH1 0x0 KECCAK256 PUSH1 0x0 SWAP1 SLOAD SWAP1 PUSH2 0x100 EXP SWAP1 DIV PUSH1 0xFF AND PUSH2 0x5A5 JUMPI PUSH1 0x0 DUP1 REVERT JUMPDEST PUSH1 0x2 DUP1 SLOAD SWAP1 POP DUP2 LT PUSH2 0x5B6 JUMPI PUSH1 0x0 DUP1 REVERT JUMPDEST PUSH1 0x2 DUP2 DUP2 SLOAD DUP2 LT PUSH2 0x5CA JUMPI PUSH2 0x5C9 PUSH2 0xDB6 JUMP JUMPDEST JUMPDEST SWAP1 PUSH1 0x0 MSTORE PUSH1 0x20 PUSH1 0x0 KECCAK256 SWAP1 PUSH1 0x4 MUL ADD PUSH1 0x3 ADD PUSH1 0x0 SWAP1 SLOAD SWAP1 PUSH2 0x100 EXP SWAP1 DIV PUSH1 0xFF AND ISZERO PUSH2 0x629 JUMPI PUSH1 0x40 MLOAD PUSH32 0x8C379A000000000000000000000000000000000000000000000000000000000 DUP2 MSTORE PUSH1 0x4 ADD PUSH2 0x620 SWAP1 PUSH2 0xC09 JUMP JUMPDEST PUSH1 0x40 MLOAD DUP1 SWAP2 SUB SWAP1 REVERT JUMPDEST PUSH1 0x1 PUSH1 0x4 PUSH1 0x0 DUP4 DUP2 MSTORE PUSH1 0x20 ADD SWAP1 DUP2 MSTORE PUSH1 0x20 ADD PUSH1 0x0 KECCAK256 PUSH1 0x0 CALLER PUSH20 0xFFFFFFFFFFFFFFFFFFFFFFFFFFFFFFFFFFFFFFFF AND PUSH20 0xFFFFFFFFFFFFFFFFFFFFFFFFFFFFFFFFFFFFFFFF AND DUP2 MSTORE PUSH1 0x20 ADD SWAP1 DUP2 MSTORE PUSH1 0x20 ADD PUSH1 0x0 KECCAK256 PUSH1 0x0 PUSH2 0x100 EXP DUP2 SLOAD DUP2 PUSH1 0xFF MUL NOT AND SWAP1 DUP4 ISZERO ISZERO MUL OR SWAP1 SSTORE POP POP JUMP JUMPDEST PUSH1 0x0 PUSH1 0x2 DUP1 SLOAD SWAP1 POP DUP3 LT PUSH2 0x6DE JUMPI PUSH1 0x40 MLOAD PUSH32 0x8C379A000000000000000000000000000000000000000000000000000000000 DUP2 MSTORE PUSH1 0x4 ADD PUSH2 0x6D5 SWAP1 PUSH2 0xC29 JUMP JUMPDEST PUSH1 0x40 MLOAD DUP1 SWAP2 SUB SWAP1 REVERT JUMPDEST PUSH1 0x2 DUP3 DUP2 SLOAD DUP2 LT PUSH2 0x6F2 JUMPI PUSH2 0x6F1 PUSH2 0xDB6 JUMP JUMPDEST JUMPDEST SWAP1 PUSH1 0x0 MSTORE PUSH1 0x20 PUSH1 0x0 KECCAK256 SWAP1 PUSH1 0x4 MUL ADD PUSH1 0x3 ADD PUSH1 0x0 SWAP1 SLOAD SWAP1 PUSH2 0x100 EXP SWAP1 DIV PUSH1 0xFF AND ISZERO PUSH2 0x751 JUMPI PUSH1 0x40 MLOAD PUSH32 0x8C379A000000000000000000000000000000000000000000000000000000000 DUP2 MSTORE PUSH1 0x4 ADD PUSH2 0x748 SWAP1 PUSH2 0xBC9 JUMP JUMPDEST PUSH1 0x40 MLOAD DUP1 SWAP2 SUB SWAP1 REVERT JUMPDEST PUSH1 0x3 SLOAD PUSH2 0x75D DUP4 PUSH2 0x14F JUMP JUMPDEST GT ISZERO PUSH2 0x8A1 JUMPI PUSH1 0x0 PUSH1 0x2 DUP4 DUP2 SLOAD DUP2 LT PUSH2 0x779 JUMPI PUSH2 0x778 PUSH2 0xDB6 JUMP JUMPDEST JUMPDEST SWAP1 PUSH1 0x0 MSTORE PUSH1 0x20 PUSH1 0x0 KECCAK256 SWAP1 PUSH1 0x4 MUL ADD PUSH1 0x0 ADD PUSH1 0x0 SWAP1 SLOAD SWAP1 PUSH2 0x100 EXP SWAP1 DIV PUSH20 0xFFFFFFFFFFFFFFFFFFFFFFFFFFFFFFFFFFFFFFFF AND PUSH20 0xFFFFFFFFFFFFFFFFFFFFFFFFFFFFFFFFFFFFFFFF AND PUSH1 0x2 DUP5 DUP2 SLOAD DUP2 LT PUSH2 0x7D5 JUMPI PUSH2 0x7D4 PUSH2 0xDB6 JUMP JUMPDEST JUMPDEST SWAP1 PUSH1 0x0 MSTORE PUSH1 0x20 PUSH1 0x0 KECCAK256 SWAP1 PUSH1 0x4 MUL ADD PUSH1 0x1 ADD SLOAD PUSH1 0x2 DUP6 DUP2 SLOAD DUP2 LT PUSH2 0x7FB JUMPI PUSH2 0x7FA PUSH2 0xDB6 JUMP JUMPDEST JUMPDEST SWAP1 PUSH1 0x0 MSTORE PUSH1 0x20 PUSH1 0x0 KECCAK256 SWAP1 PUSH1 0x4 MUL ADD PUSH1 0x2 ADD PUSH1 0x40 MLOAD PUSH2 0x819 SWAP2 SWAP1 PUSH2 0xB97 JUMP JUMPDEST PUSH1 0x0 PUSH1 0x40 MLOAD DUP1 DUP4 SUB DUP2 DUP6 DUP8 GAS CALL SWAP3 POP POP POP RETURNDATASIZE DUP1 PUSH1 0x0 DUP2 EQ PUSH2 0x856 JUMPI PUSH1 0x40 MLOAD SWAP2 POP PUSH1 0x1F NOT PUSH1 0x3F RETURNDATASIZE ADD AND DUP3 ADD PUSH1 0x40 MSTORE RETURNDATASIZE DUP3 MSTORE RETURNDATASIZE PUSH1 0x0 PUSH1 0x20 DUP5 ADD RETURNDATACOPY PUSH2 0x85B JUMP JUMPDEST PUSH1 0x60 SWAP2 POP JUMPDEST POP POP SWAP1 POP DUP1 PUSH2 0x89F JUMPI PUSH1 0x40 MLOAD PUSH32 0x8C379A000000000000000000000000000000000000000000000000000000000 DUP2 MSTORE PUSH1 0x4 ADD PUSH2 0x896 SWAP1 PUSH2 0xBE9 JUMP JUMPDEST PUSH1 0x40 MLOAD DUP1 SWAP2 SUB SWAP1 REVERT JUMPDEST POP JUMPDEST PUSH1 0x1 SWAP1 POP SWAP2 SWAP1 POP JUMP JUMPDEST DUP3 DUP1 SLOAD PUSH2 0x8B6 SWAP1 PUSH2 0xCDD JUMP JUMPDEST SWAP1 PUSH1 0x0 MSTORE PUSH1 0x20 PUSH1 0x0 KECCAK256 SWAP1 PUSH1 0x1F ADD PUSH1 0x20 SWAP1 DIV DUP2 ADD SWAP3 DUP3 PUSH2 0x8D8 JUMPI PUSH1 0x0 DUP6 SSTORE PUSH2 0x91F JUMP JUMPDEST DUP3 PUSH1 0x1F LT PUSH2 0x8F1 JUMPI DUP1 MLOAD PUSH1 0xFF NOT AND DUP4 DUP1 ADD OR DUP6 SSTORE PUSH2 0x91F JUMP JUMPDEST DUP3 DUP1 ADD PUSH1 0x1 ADD DUP6 SSTORE DUP3 ISZERO PUSH2 0x91F JUMPI SWAP2 DUP3 ADD JUMPDEST DUP3 DUP2 GT ISZERO PUSH2 0x91E JUMPI DUP3 MLOAD DUP3 SSTORE SWAP2 PUSH1 0x20 ADD SWAP2 SWAP1 PUSH1 0x1 ADD SWAP1 PUSH2 0x903 JUMP JUMPDEST JUMPDEST POP SWAP1 POP PUSH2 0x92C SWAP2 SWAP1 PUSH2 0x930 JUMP JUMPDEST POP SWAP1 JUMP JUMPDEST JUMPDEST DUP1 DUP3 GT ISZERO PUSH2 0x949 JUMPI PUSH1 0x0 DUP2 PUSH1 0x0 SWAP1 SSTORE POP PUSH1 0x1 ADD PUSH2 0x931 JUMP JUMPDEST POP SWAP1 JUMP JUMPDEST PUSH1 0x0 DUP2 CALLDATALOAD SWAP1 POP PUSH2 0x95C DUP2 PUSH2 0xEA2 JUMP JUMPDEST SWAP3 SWAP2 POP POP JUMP JUMPDEST PUSH1 0x0 DUP1 DUP4 PUSH1 0x1F DUP5 ADD SLT PUSH2 0x978 JUMPI PUSH2 0x977 PUSH2 0xDEA JUMP JUMPDEST JUMPDEST DUP3 CALLDATALOAD SWAP1 POP PUSH8 0xFFFFFFFFFFFFFFFF DUP2 GT ISZERO PUSH2 0x995 JUMPI PUSH2 0x994 PUSH2 0xDE5 JUMP JUMPDEST JUMPDEST PUSH1 0x20 DUP4 ADD SWAP2 POP DUP4 PUSH1 0x1 DUP3 MUL DUP4 ADD GT ISZERO PUSH2 0x9B1 JUMPI PUSH2 0x9B0 PUSH2 0xDEF JUMP JUMPDEST JUMPDEST SWAP3 POP SWAP3 SWAP1 POP JUMP JUMPDEST PUSH1 0x0 DUP2 CALLDATALOAD SWAP1 POP PUSH2 0x9C7 DUP2 PUSH2 0xEB9 JUMP JUMPDEST SWAP3 SWAP2 POP POP JUMP JUMPDEST PUSH1 0x0 DUP1 PUSH1 0x0 DUP1 PUSH1 0x60 DUP6 DUP8 SUB SLT ISZERO PUSH2 0x9E7 JUMPI PUSH2 0x9E6 PUSH2 0xDF9 JUMP JUMPDEST JUMPDEST PUSH1 0x0 PUSH2 0x9F5 DUP8 DUP3 DUP9 ADD PUSH2 0x94D JUMP JUMPDEST SWAP5 POP POP PUSH1 0x20 PUSH2 0xA06 DUP8 DUP3 DUP9 ADD PUSH2 0x9B8 JUMP JUMPDEST SWAP4 POP POP PUSH1 0x40 DUP6 ADD CALLDATALOAD PUSH8 0xFFFFFFFFFFFFFFFF DUP2 GT ISZERO PUSH2 0xA27 JUMPI PUSH2 0xA26 PUSH2 0xDF4 JUMP JUMPDEST JUMPDEST PUSH2 0xA33 DUP8 DUP3 DUP9 ADD PUSH2 0x962 JUMP JUMPDEST SWAP3 POP SWAP3 POP POP SWAP3 SWAP6 SWAP2 SWAP5 POP SWAP3 POP JUMP JUMPDEST PUSH1 0x0 PUSH1 0x20 DUP3 DUP5 SUB SLT ISZERO PUSH2 0xA57 JUMPI PUSH2 0xA56 PUSH2 0xDF9 JUMP JUMPDEST JUMPDEST PUSH1 0x0 PUSH2 0xA65 DUP5 DUP3 DUP6 ADD PUSH2 0x9B8 JUMP JUMPDEST SWAP2 POP POP SWAP3 SWAP2 POP POP JUMP JUMPDEST PUSH2 0xA77 DUP2 PUSH2 0xCA7 JUMP JUMPDEST DUP3 MSTORE POP POP JUMP JUMPDEST PUSH1 0x0 DUP2 SLOAD PUSH2 0xA8A DUP2 PUSH2 0xCDD JUMP JUMPDEST PUSH2 0xA94 DUP2 DUP7 PUSH2 0xC79 JUMP JUMPDEST SWAP5 POP PUSH1 0x1 DUP3 AND PUSH1 0x0 DUP2 EQ PUSH2 0xAAF JUMPI PUSH1 0x1 DUP2 EQ PUSH2 0xAC0 JUMPI PUSH2 0xAF3 JUMP JUMPDEST PUSH1 0xFF NOT DUP4 AND DUP7 MSTORE DUP2 DUP7 ADD SWAP4 POP PUSH2 0xAF3 JUMP JUMPDEST PUSH2 0xAC9 DUP6 PUSH2 0xC64 JUMP JUMPDEST PUSH1 0x0 JUMPDEST DUP4 DUP2 LT ISZERO PUSH2 0xAEB JUMPI DUP2 SLOAD DUP2 DUP10 ADD MSTORE PUSH1 0x1 DUP3 ADD SWAP2 POP PUSH1 0x20 DUP2 ADD SWAP1 POP PUSH2 0xACC JUMP JUMPDEST DUP4 DUP9 ADD SWAP6 POP POP POP JUMPDEST POP POP POP SWAP3 SWAP2 POP POP JUMP JUMPDEST PUSH1 0x0 PUSH2 0xB09 PUSH1 0x10 DUP4 PUSH2 0xC84 JUMP JUMPDEST SWAP2 POP PUSH2 0xB14 DUP3 PUSH2 0xDFE JUMP JUMPDEST PUSH1 0x20 DUP3 ADD SWAP1 POP SWAP2 SWAP1 POP JUMP JUMPDEST PUSH1 0x0 PUSH2 0xB2C PUSH1 0x6 DUP4 PUSH2 0xC84 JUMP JUMPDEST SWAP2 POP PUSH2 0xB37 DUP3 PUSH2 0xE27 JUMP JUMPDEST PUSH1 0x20 DUP3 ADD SWAP1 POP SWAP2 SWAP1 POP JUMP JUMPDEST PUSH1 0x0 PUSH2 0xB4F PUSH1 0x10 DUP4 PUSH2 0xC84 JUMP JUMPDEST SWAP2 POP PUSH2 0xB5A DUP3 PUSH2 0xE50 JUMP JUMPDEST PUSH1 0x20 DUP3 ADD SWAP1 POP SWAP2 SWAP1 POP JUMP JUMPDEST PUSH1 0x0 PUSH2 0xB72 PUSH1 0xD DUP4 PUSH2 0xC84 JUMP JUMPDEST SWAP2 POP PUSH2 0xB7D DUP3 PUSH2 0xE79 JUMP JUMPDEST PUSH1 0x20 DUP3 ADD SWAP1 POP SWAP2 SWAP1 POP JUMP JUMPDEST PUSH2 0xB91 DUP2 PUSH2 0xCD3 JUMP JUMPDEST DUP3 MSTORE POP POP JUMP JUMPDEST PUSH1 0x0 PUSH2 0xBA3 DUP3 DUP5 PUSH2 0xA7D JUMP JUMPDEST SWAP2 POP DUP2 SWAP1 POP SWAP3 SWAP2 POP POP JUMP JUMPDEST PUSH1 0x0 PUSH1 0x20 DUP3 ADD SWAP1 POP PUSH2 0xBC3 PUSH1 0x0 DUP4 ADD DUP5 PUSH2 0xA6E JUMP JUMPDEST SWAP3 SWAP2 POP POP JUMP JUMPDEST PUSH1 0x0 PUSH1 0x20 DUP3 ADD SWAP1 POP DUP2 DUP2 SUB PUSH1 0x0 DUP4 ADD MSTORE PUSH2 0xBE2 DUP2 PUSH2 0xAFC JUMP JUMPDEST SWAP1 POP SWAP2 SWAP1 POP JUMP JUMPDEST PUSH1 0x0 PUSH1 0x20 DUP3 ADD SWAP1 POP DUP2 DUP2 SUB PUSH1 0x0 DUP4 ADD MSTORE PUSH2 0xC02 DUP2 PUSH2 0xB1F JUMP JUMPDEST SWAP1 POP SWAP2 SWAP1 POP JUMP JUMPDEST PUSH1 0x0 PUSH1 0x20 DUP3 ADD SWAP1 POP DUP2 DUP2 SUB PUSH1 0x0 DUP4 ADD MSTORE PUSH2 0xC22 DUP2 PUSH2 0xB42 JUMP JUMPDEST SWAP1 POP SWAP2 SWAP1 POP JUMP JUMPDEST PUSH1 0x0 PUSH1 0x20 DUP3 ADD SWAP1 POP DUP2 DUP2 SUB PUSH1 0x0 DUP4 ADD MSTORE PUSH2 0xC42 DUP2 PUSH2 0xB65 JUMP JUMPDEST SWAP1 POP SWAP2 SWAP1 POP JUMP JUMPDEST PUSH1 0x0 PUSH1 0x20 DUP3 ADD SWAP1 POP PUSH2 0xC5E PUSH1 0x0 DUP4 ADD DUP5 PUSH2 0xB88 JUMP JUMPDEST SWAP3 SWAP2 POP POP JUMP JUMPDEST PUSH1 0x0 DUP2 SWAP1 POP DUP2 PUSH1 0x0 MSTORE PUSH1 0x20 PUSH1 0x0 KECCAK256 SWAP1 POP SWAP2 SWAP1 POP JUMP JUMPDEST PUSH1 0x0 DUP2 SWAP1 POP SWAP3 SWAP2 POP POP JUMP JUMPDEST PUSH1 0x0 DUP3 DUP3 MSTORE PUSH1 0x20 DUP3 ADD SWAP1 POP SWAP3 SWAP2 POP POP JUMP JUMPDEST PUSH1 0x0 PUSH2 0xCA0 DUP3 PUSH2 0xCB3 JUMP JUMPDEST SWAP1 POP SWAP2 SWAP1 POP JUMP JUMPDEST PUSH1 0x0 DUP2 ISZERO ISZERO SWAP1 POP SWAP2 SWAP1 POP JUMP JUMPDEST PUSH1 0x0 PUSH20 0xFFFFFFFFFFFFFFFFFFFFFFFFFFFFFFFFFFFFFFFF DUP3 AND SWAP1 POP SWAP2 SWAP1 POP JUMP JUMPDEST PUSH1 0x0 DUP2 SWAP1 POP SWAP2 SWAP1 POP JUMP JUMPDEST PUSH1 0x0 PUSH1 0x2 DUP3 DIV SWAP1 POP PUSH1 0x1 DUP3 AND DUP1 PUSH2 0xCF5 JUMPI PUSH1 0x7F DUP3 AND SWAP2 POP JUMPDEST PUSH1 0x20 DUP3 LT DUP2 EQ ISZERO PUSH2 0xD09 JUMPI PUSH2 0xD08 PUSH2 0xD87 JUMP JUMPDEST JUMPDEST POP SWAP2 SWAP1 POP JUMP JUMPDEST PUSH1 0x0 PUSH2 0xD1A DUP3 PUSH2 0xCD3 JUMP JUMPDEST SWAP2 POP PUSH32 0xFFFFFFFFFFFFFFFFFFFFFFFFFFFFFFFFFFFFFFFFFFFFFFFFFFFFFFFFFFFFFFFF DUP3 EQ ISZERO PUSH2 0xD4D JUMPI PUSH2 0xD4C PUSH2 0xD58 JUMP JUMPDEST JUMPDEST PUSH1 0x1 DUP3 ADD SWAP1 POP SWAP2 SWAP1 POP JUMP JUMPDEST PUSH32 0x4E487B7100000000000000000000000000000000000000000000000000000000 PUSH1 0x0 MSTORE PUSH1 0x11 PUSH1 0x4 MSTORE PUSH1 0x24 PUSH1 0x0 REVERT JUMPDEST PUSH32 0x4E487B7100000000000000000000000000000000000000000000000000000000 PUSH1 0x0 MSTORE PUSH1 0x22 PUSH1 0x4 MSTORE PUSH1 0x24 PUSH1 0x0 REVERT JUMPDEST PUSH32 0x4E487B7100000000000000000000000000000000000000000000000000000000 PUSH1 0x0 MSTORE PUSH1 0x32 PUSH1 0x4 MSTORE PUSH1 0x24 PUSH1 0x0 REVERT JUMPDEST PUSH1 0x0 DUP1 REVERT JUMPDEST PUSH1 0x0 DUP1 REVERT JUMPDEST PUSH1 0x0 DUP1 REVERT JUMPDEST PUSH1 0x0 DUP1 REVERT JUMPDEST PUSH1 0x0 DUP1 REVERT JUMPDEST PUSH32 0x616C726561647920657865637574656400000000000000000000000000000000 PUSH1 0x0 DUP3 ADD MSTORE POP JUMP JUMPDEST PUSH32 0x6661696C65640000000000000000000000000000000000000000000000000000 PUSH1 0x0 DUP3 ADD MSTORE POP JUMP JUMPDEST PUSH32 0x6176726561647920657865637574656400000000000000000000000000000000 PUSH1 0x0 DUP3 ADD MSTORE POP JUMP JUMPDEST PUSH32 0x696E76616C696420696E64657800000000000000000000000000000000000000 PUSH1 0x0 DUP3 ADD MSTORE POP JUMP JUMPDEST PUSH2 0xEAB DUP2 PUSH2 0xC95 JUMP JUMPDEST DUP2 EQ PUSH2 0xEB6 JUMPI PUSH1 0x0 DUP1 REVERT JUMPDEST POP JUMP JUMPDEST PUSH2 0xEC2 DUP2 PUSH2 0xCD3 JUMP JUMPDEST DUP2 EQ PUSH2 0xECD JUMPI PUSH1 0x0 DUP1 REVERT JUMPDEST POP JUMP INVALID LOG2 PUSH5 0x6970667358 0x22 SLT KECCAK256 MSIZE PUSH7 0xADA75374A7028B DUP5 0x49 REVERT SWAP2 0x2E 0xDE SHL SWAP7 0xF8 0xB9 0xC2 EXTCODEHASH EQ CREATE PUSH8 0x14710761631C655C PUSH5 0x736F6C6343 STOP ADDMOD SMOD STOP CALLER "
				},
				"gasEstimates": {
					"creation": {
						"codeDepositCost": "769200",
						"executionCost": "infinite",
						"totalCost": "infinite"
					},
					"external": {
						"approve(uint256)": "33610",
						"execute(uint256)": "infinite",
						"getApprovedCount(uint256)": "infinite",
						"revoke(uint256)": "33588",
						"submit(address,uint256,bytes)": "infinite"
					}
				},
				"methodIdentifiers": {
					"approve(uint256)": "b759f954",
					"execute(uint256)": "fe0d94c1",
					"getApprovedCount(uint256)": "073cbe49",
					"revoke(uint256)": "20c5429b",
					"submit(address,uint256,bytes)": "14de327f"
				}
			},
			"storageLayout": {
				"storage": [
					{
						"astId": 5,
						"contract": "MultiSigWallet.sol:MultiSigWallet",
						"label": "isOwner",
						"offset": 0,
						"slot": "0",
						"type": "t_mapping(t_address,t_bool)"
					},
					{
						"astId": 8,
						"contract": "MultiSigWallet.sol:MultiSigWallet",
						"label": "owners",
						"offset": 0,
						"slot": "1",
						"type": "t_array(t_address)dyn_storage"
					},
					{
						"astId": 21,
						"contract": "MultiSigWallet.sol:MultiSigWallet",
						"label": "transactons",
						"offset": 0,
						"slot": "2",
						"type": "t_array(t_struct(Transaction)17_storage)dyn_storage"
					},
					{
						"astId": 23,
						"contract": "MultiSigWallet.sol:MultiSigWallet",
						"label": "required",
						"offset": 0,
						"slot": "3",
						"type": "t_uint256"
					},
					{
						"astId": 29,
						"contract": "MultiSigWallet.sol:MultiSigWallet",
						"label": "approved",
						"offset": 0,
						"slot": "4",
						"type": "t_mapping(t_uint256,t_mapping(t_address,t_bool))"
					}
				],
				"types": {
					"t_address": {
						"encoding": "inplace",
						"label": "address",
						"numberOfBytes": "20"
					},
					"t_array(t_address)dyn_storage": {
						"base": "t_address",
						"encoding": "dynamic_array",
						"label": "address[]",
						"numberOfBytes": "32"
					},
					"t_array(t_struct(Transaction)17_storage)dyn_storage": {
						"base": "t_struct(Transaction)17_storage",
						"encoding": "dynamic_array",
						"label": "struct MultiSigWallet.Transaction[]",
						"numberOfBytes": "32"
					},
					"t_bool": {
						"encoding": "inplace",
						"label": "bool",
						"numberOfBytes": "1"
					},
					"t_bytes_storage": {
						"encoding": "bytes",
						"label": "bytes",
						"numberOfBytes": "32"
					},
					"t_mapping(t_address,t_bool)": {
						"encoding": "mapping",
						"key": "t_address",
						"label": "mapping(address => bool)",
						"numberOfBytes": "32",
						"value": "t_bool"
					},
					"t_mapping(t_uint256,t_mapping(t_address,t_bool))": {
						"encoding": "mapping",
						"key": "t_uint256",
						"label": "mapping(uint256 => mapping(address => bool))",
						"numberOfBytes": "32",
						"value": "t_mapping(t_address,t_bool)"
					},
					"t_struct(Transaction)17_storage": {
						"encoding": "inplace",
						"label": "struct MultiSigWallet.Transaction",
						"members": [
							{
								"astId": 10,
								"contract": "MultiSigWallet.sol:MultiSigWallet",
								"label": "destination",
								"offset": 0,
								"slot": "0",
								"type": "t_address"
							},
							{
								"astId": 12,
								"contract": "MultiSigWallet.sol:MultiSigWallet",
								"label": "value",
								"offset": 0,
								"slot": "1",
								"type": "t_uint256"
							},
							{
								"astId": 14,
								"contract": "MultiSigWallet.sol:MultiSigWallet",
								"label": "data",
								"offset": 0,
								"slot": "2",
								"type": "t_bytes_storage"
							},
							{
								"astId": 16,
								"contract": "MultiSigWallet.sol:MultiSigWallet",
								"label": "executed",
								"offset": 0,
								"slot": "3",
								"type": "t_bool"
							}
						],
						"numberOfBytes": "128"
					},
					"t_uint256": {
						"encoding": "inplace",
						"label": "uint256",
						"numberOfBytes": "32"
					}
				}
			},
			"userdoc": {
				"kind": "user",
				"methods": {},
				"version": 1
			}
		}
	}
}