{
	"Inheritance.sol": {
		"parent": {
			"abi": [
				{
					"constant": false,
					"inputs": [],
					"name": "setValue",
					"outputs": [],
					"payable": false,
					"stateMutability": "nonpayable",
					"type": "function"
				}
			],
			"devdoc": {
				"methods": {}
			},
			"evm": {
				"assembly": "    /* \"Inheritance.sol\":36:336  contract parent{ ... */\n  mstore(0x40, 0x80)\n  callvalue\n    /* \"--CODEGEN--\":8:17   */\n  dup1\n    /* \"--CODEGEN--\":5:7   */\n  iszero\n  tag_1\n  jumpi\n    /* \"--CODEGEN--\":30:31   */\n  0x00\n    /* \"--CODEGEN--\":27:28   */\n  dup1\n    /* \"--CODEGEN--\":20:32   */\n  revert\n    /* \"--CODEGEN--\":5:7   */\ntag_1:\n    /* \"Inheritance.sol\":36:336  contract parent{ ... */\n  pop\n  dataSize(sub_0)\n  dup1\n  dataOffset(sub_0)\n  0x00\n  codecopy\n  0x00\n  return\nstop\n\nsub_0: assembly {\n        /* \"Inheritance.sol\":36:336  contract parent{ ... */\n      mstore(0x40, 0x80)\n      callvalue\n        /* \"--CODEGEN--\":8:17   */\n      dup1\n        /* \"--CODEGEN--\":5:7   */\n      iszero\n      tag_1\n      jumpi\n        /* \"--CODEGEN--\":30:31   */\n      0x00\n        /* \"--CODEGEN--\":27:28   */\n      dup1\n        /* \"--CODEGEN--\":20:32   */\n      revert\n        /* \"--CODEGEN--\":5:7   */\n    tag_1:\n        /* \"Inheritance.sol\":36:336  contract parent{ ... */\n      pop\n      jumpi(tag_2, lt(calldatasize, 0x04))\n      shr(0xe0, calldataload(0x00))\n      dup1\n      0x4fa519fa\n      eq\n      tag_3\n      jumpi\n    tag_2:\n      0x00\n      dup1\n      revert\n        /* \"Inheritance.sol\":233:333  function setValue() external { ... */\n    tag_3:\n      tag_4\n      tag_5\n      jump\t// in\n    tag_4:\n      stop\n    tag_5:\n        /* \"Inheritance.sol\":273:279  uint a */\n      0x00\n        /* \"Inheritance.sol\":282:284  10 */\n      0x0a\n        /* \"Inheritance.sol\":273:284  uint a = 10 */\n      swap1\n      pop\n        /* \"Inheritance.sol\":294:300  uint b */\n      0x00\n        /* \"Inheritance.sol\":303:305  20 */\n      0x14\n        /* \"Inheritance.sol\":294:305  uint b = 20 */\n      swap1\n      pop\n        /* \"Inheritance.sol\":325:326  b */\n      dup1\n        /* \"Inheritance.sol\":321:322  a */\n      dup3\n        /* \"Inheritance.sol\":321:326  a + b */\n      add\n        /* \"Inheritance.sol\":315:318  sum */\n      0x00\n        /* \"Inheritance.sol\":315:326  sum = a + b */\n      dup2\n      swap1\n      sstore\n      pop\n        /* \"Inheritance.sol\":233:333  function setValue() external { ... */\n      pop\n      pop\n      jump\t// out\n\n    auxdata: 0xa265627a7a723158205742d79999f84191b1c3c14e2cf4e224d418eed9fe6fd5339f92214cc22ecd4664736f6c63430005110032\n}\n",
				"bytecode": {
					"linkReferences": {},
					"object": "6080604052348015600f57600080fd5b5060838061001e6000396000f3fe6080604052348015600f57600080fd5b506004361060285760003560e01c80634fa519fa14602d575b600080fd5b60336035565b005b6000600a9050600060149050808201600081905550505056fea265627a7a723158205742d79999f84191b1c3c14e2cf4e224d418eed9fe6fd5339f92214cc22ecd4664736f6c63430005110032",
					"opcodes": "PUSH1 0x80 PUSH1 0x40 MSTORE CALLVALUE DUP1 ISZERO PUSH1 0xF JUMPI PUSH1 0x0 DUP1 REVERT JUMPDEST POP PUSH1 0x83 DUP1 PUSH2 0x1E PUSH1 0x0 CODECOPY PUSH1 0x0 RETURN INVALID PUSH1 0x80 PUSH1 0x40 MSTORE CALLVALUE DUP1 ISZERO PUSH1 0xF JUMPI PUSH1 0x0 DUP1 REVERT JUMPDEST POP PUSH1 0x4 CALLDATASIZE LT PUSH1 0x28 JUMPI PUSH1 0x0 CALLDATALOAD PUSH1 0xE0 SHR DUP1 PUSH4 0x4FA519FA EQ PUSH1 0x2D JUMPI JUMPDEST PUSH1 0x0 DUP1 REVERT JUMPDEST PUSH1 0x33 PUSH1 0x35 JUMP JUMPDEST STOP JUMPDEST PUSH1 0x0 PUSH1 0xA SWAP1 POP PUSH1 0x0 PUSH1 0x14 SWAP1 POP DUP1 DUP3 ADD PUSH1 0x0 DUP2 SWAP1 SSTORE POP POP POP JUMP INVALID LOG2 PUSH6 0x627A7A723158 KECCAK256 JUMPI TIMESTAMP 0xD7 SWAP10 SWAP10 0xF8 COINBASE SWAP2 0xB1 0xC3 0xC1 0x4E 0x2C DELEGATECALL 0xE2 0x24 0xD4 XOR 0xEE 0xD9 INVALID PUSH16 0xD5339F92214CC22ECD4664736F6C6343 STOP SDIV GT STOP ORIGIN "
				},
				"gasEstimates": {
					"creation": {
						"codeDepositCost": "26200",
						"executionCost": "81",
						"totalCost": "26281"
					},
					"external": {
						"setValue()": "20168"
					}
				},
				"methodIdentifiers": {
					"setValue()": "4fa519fa"
				}
			},
			"storageLayout": {
				"storage": [
					{
						"astId": 3,
						"contract": "Inheritance.sol:parent",
						"label": "sum",
						"offset": 0,
						"slot": "0",
						"type": "t_uint256"
					}
				],
				"types": {
					"t_uint256": {
						"encoding": "inplace",
						"label": "uint256",
						"numberOfBytes": "32"
					}
				}
			},
			"userdoc": {
				"methods": {}
			}
		}
	}
}