{
	"Delegate.sol": {
		"Sender": {
			"abi": [
				{
					"inputs": [],
					"stateMutability": "payable",
					"type": "constructor"
				},
				{
					"inputs": [],
					"name": "getBalance",
					"outputs": [
						{
							"internalType": "uint256",
							"name": "",
							"type": "uint256"
						}
					],
					"stateMutability": "view",
					"type": "function"
				},
				{
					"inputs": [
						{
							"internalType": "address",
							"name": "c",
							"type": "address"
						},
						{
							"internalType": "address payable",
							"name": "dest1",
							"type": "address"
						},
						{
							"internalType": "address",
							"name": "dest2",
							"type": "address"
						},
						{
							"internalType": "uint256",
							"name": "amount",
							"type": "uint256"
						}
					],
					"name": "send",
					"outputs": [],
					"stateMutability": "nonpayable",
					"type": "function"
				}
			],
			"devdoc": {
				"kind": "dev",
				"methods": {},
				"version": 1
			},
			"evm": {
				"assembly": "    /* \"Delegate.sol\":335:687  contract Sender{... */\n  mstore(0x40, 0x80)\n  dataSize(sub_0)\n  dup1\n  dataOffset(sub_0)\n  0x00\n  codecopy\n  0x00\n  return\nstop\n\nsub_0: assembly {\n        /* \"Delegate.sol\":335:687  contract Sender{... */\n      mstore(0x40, 0x80)\n      callvalue\n      dup1\n      iszero\n      tag_1\n      jumpi\n      0x00\n      dup1\n      revert\n    tag_1:\n      pop\n      jumpi(tag_2, lt(calldatasize, 0x04))\n      shr(0xe0, calldataload(0x00))\n      dup1\n      0x06e83e2f\n      eq\n      tag_3\n      jumpi\n      dup1\n      0x12065fe0\n      eq\n      tag_4\n      jumpi\n    tag_2:\n      0x00\n      dup1\n      revert\n        /* \"Delegate.sol\":483:685  function send(address c, address payable dest1,address dest2,uint amount) external{... */\n    tag_3:\n      tag_5\n      0x04\n      dup1\n      calldatasize\n      sub\n      dup2\n      add\n      swap1\n      tag_6\n      swap2\n      swap1\n      tag_7\n      jump\t// in\n    tag_6:\n      tag_8\n      jump\t// in\n    tag_5:\n      stop\n        /* \"Delegate.sol\":384:478  function getBalance() external view returns(uint){... */\n    tag_4:\n      tag_9\n      tag_10\n      jump\t// in\n    tag_9:\n      mload(0x40)\n      tag_11\n      swap2\n      swap1\n      tag_12\n      jump\t// in\n    tag_11:\n      mload(0x40)\n      dup1\n      swap2\n      sub\n      swap1\n      return\n        /* \"Delegate.sol\":483:685  function send(address c, address payable dest1,address dest2,uint amount) external{... */\n    tag_8:\n        /* \"Delegate.sol\":576:588  bool success */\n      0x00\n        /* \"Delegate.sol\":590:607  bytes memory data */\n      dup1\n        /* \"Delegate.sol\":611:612  c */\n      dup6\n        /* \"Delegate.sol\":611:625  c.delegatecall */\n      0xffffffffffffffffffffffffffffffffffffffff\n      and\n        /* \"Delegate.sol\":649:664  C.send.selector */\n      shl(0xe0, 0xb6d9d451)\n        /* \"Delegate.sol\":665:670  dest1 */\n      dup7\n        /* \"Delegate.sol\":671:676  dest2 */\n      dup7\n        /* \"Delegate.sol\":626:677  abi.encodeWithSelector(C.send.selector,dest1,dest2) */\n      add(0x24, mload(0x40))\n      tag_14\n      swap3\n      swap2\n      swap1\n      tag_15\n      jump\t// in\n    tag_14:\n      mload(0x40)\n      0x20\n      dup2\n      dup4\n      sub\n      sub\n      dup2\n      mstore\n      swap1\n      0x40\n      mstore\n      swap1\n      not(0xffffffffffffffffffffffffffffffffffffffffffffffffffffffff)\n      and\n      0x20\n      dup3\n      add\n      dup1\n      mload\n      0xffffffffffffffffffffffffffffffffffffffffffffffffffffffff\n      dup4\n      dup2\n      dup4\n      and\n      or\n      dup4\n      mstore\n      pop\n      pop\n      pop\n      pop\n        /* \"Delegate.sol\":611:678  c.delegatecall(abi.encodeWithSelector(C.send.selector,dest1,dest2)) */\n      mload(0x40)\n      tag_16\n      swap2\n      swap1\n      tag_17\n      jump\t// in\n    tag_16:\n      0x00\n      mload(0x40)\n      dup1\n      dup4\n      sub\n      dup2\n      dup6\n      gas\n      delegatecall\n      swap2\n      pop\n      pop\n      returndatasize\n      dup1\n      0x00\n      dup2\n      eq\n      tag_20\n      jumpi\n      mload(0x40)\n      swap2\n      pop\n      and(add(returndatasize, 0x3f), not(0x1f))\n      dup3\n      add\n      0x40\n      mstore\n      returndatasize\n      dup3\n      mstore\n      returndatasize\n      0x00\n      0x20\n      dup5\n      add\n      returndatacopy\n      jump(tag_19)\n    tag_20:\n      0x60\n      swap2\n      pop\n    tag_19:\n      pop\n        /* \"Delegate.sol\":575:678  (bool success, bytes memory data) = c.delegatecall(abi.encodeWithSelector(C.send.selector,dest1,dest2)) */\n      swap2\n      pop\n      swap2\n      pop\n        /* \"Delegate.sol\":565:685  {... */\n      pop\n      pop\n        /* \"Delegate.sol\":483:685  function send(address c, address payable dest1,address dest2,uint amount) external{... */\n      pop\n      pop\n      pop\n      pop\n      jump\t// out\n        /* \"Delegate.sol\":384:478  function getBalance() external view returns(uint){... */\n    tag_10:\n        /* \"Delegate.sol\":428:432  uint */\n      0x00\n        /* \"Delegate.sol\":450:471  address(this).balance */\n      selfbalance\n        /* \"Delegate.sol\":443:471  return address(this).balance */\n      swap1\n      pop\n        /* \"Delegate.sol\":384:478  function getBalance() external view returns(uint){... */\n      swap1\n      jump\t// out\n        /* \"#utility.yul\":7:146   */\n    tag_23:\n        /* \"#utility.yul\":53:58   */\n      0x00\n        /* \"#utility.yul\":91:97   */\n      dup2\n        /* \"#utility.yul\":78:98   */\n      calldataload\n        /* \"#utility.yul\":69:98   */\n      swap1\n      pop\n        /* \"#utility.yul\":107:140   */\n      tag_25\n        /* \"#utility.yul\":134:139   */\n      dup2\n        /* \"#utility.yul\":107:140   */\n      tag_26\n      jump\t// in\n    tag_25:\n        /* \"#utility.yul\":7:146   */\n      swap3\n      swap2\n      pop\n      pop\n      jump\t// out\n        /* \"#utility.yul\":152:307   */\n    tag_27:\n        /* \"#utility.yul\":206:211   */\n      0x00\n        /* \"#utility.yul\":244:250   */\n      dup2\n        /* \"#utility.yul\":231:251   */\n      calldataload\n        /* \"#utility.yul\":222:251   */\n      swap1\n      pop\n        /* \"#utility.yul\":260:301   */\n      tag_29\n        /* \"#utility.yul\":295:300   */\n      dup2\n        /* \"#utility.yul\":260:301   */\n      tag_30\n      jump\t// in\n    tag_29:\n        /* \"#utility.yul\":152:307   */\n      swap3\n      swap2\n      pop\n      pop\n      jump\t// out\n        /* \"#utility.yul\":313:452   */\n    tag_31:\n        /* \"#utility.yul\":359:364   */\n      0x00\n        /* \"#utility.yul\":397:403   */\n      dup2\n        /* \"#utility.yul\":384:404   */\n      calldataload\n        /* \"#utility.yul\":375:404   */\n      swap1\n      pop\n        /* \"#utility.yul\":413:446   */\n      tag_33\n        /* \"#utility.yul\":440:445   */\n      dup2\n        /* \"#utility.yul\":413:446   */\n      tag_34\n      jump\t// in\n    tag_33:\n        /* \"#utility.yul\":313:452   */\n      swap3\n      swap2\n      pop\n      pop\n      jump\t// out\n        /* \"#utility.yul\":458:1239   */\n    tag_7:\n        /* \"#utility.yul\":552:558   */\n      0x00\n        /* \"#utility.yul\":560:566   */\n      dup1\n        /* \"#utility.yul\":568:574   */\n      0x00\n        /* \"#utility.yul\":576:582   */\n      dup1\n        /* \"#utility.yul\":625:628   */\n      0x80\n        /* \"#utility.yul\":613:622   */\n      dup6\n        /* \"#utility.yul\":604:611   */\n      dup8\n        /* \"#utility.yul\":600:623   */\n      sub\n        /* \"#utility.yul\":596:629   */\n      slt\n        /* \"#utility.yul\":593:713   */\n      iszero\n      tag_36\n      jumpi\n        /* \"#utility.yul\":632:711   */\n      tag_37\n      tag_38\n      jump\t// in\n    tag_37:\n        /* \"#utility.yul\":593:713   */\n    tag_36:\n        /* \"#utility.yul\":752:753   */\n      0x00\n        /* \"#utility.yul\":777:830   */\n      tag_39\n        /* \"#utility.yul\":822:829   */\n      dup8\n        /* \"#utility.yul\":813:819   */\n      dup3\n        /* \"#utility.yul\":802:811   */\n      dup9\n        /* \"#utility.yul\":798:820   */\n      add\n        /* \"#utility.yul\":777:830   */\n      tag_23\n      jump\t// in\n    tag_39:\n        /* \"#utility.yul\":767:830   */\n      swap5\n      pop\n        /* \"#utility.yul\":723:840   */\n      pop\n        /* \"#utility.yul\":879:881   */\n      0x20\n        /* \"#utility.yul\":905:966   */\n      tag_40\n        /* \"#utility.yul\":958:965   */\n      dup8\n        /* \"#utility.yul\":949:955   */\n      dup3\n        /* \"#utility.yul\":938:947   */\n      dup9\n        /* \"#utility.yul\":934:956   */\n      add\n        /* \"#utility.yul\":905:966   */\n      tag_27\n      jump\t// in\n    tag_40:\n        /* \"#utility.yul\":895:966   */\n      swap4\n      pop\n        /* \"#utility.yul\":850:976   */\n      pop\n        /* \"#utility.yul\":1015:1017   */\n      0x40\n        /* \"#utility.yul\":1041:1094   */\n      tag_41\n        /* \"#utility.yul\":1086:1093   */\n      dup8\n        /* \"#utility.yul\":1077:1083   */\n      dup3\n        /* \"#utility.yul\":1066:1075   */\n      dup9\n        /* \"#utility.yul\":1062:1084   */\n      add\n        /* \"#utility.yul\":1041:1094   */\n      tag_23\n      jump\t// in\n    tag_41:\n        /* \"#utility.yul\":1031:1094   */\n      swap3\n      pop\n        /* \"#utility.yul\":986:1104   */\n      pop\n        /* \"#utility.yul\":1143:1145   */\n      0x60\n        /* \"#utility.yul\":1169:1222   */\n      tag_42\n        /* \"#utility.yul\":1214:1221   */\n      dup8\n        /* \"#utility.yul\":1205:1211   */\n      dup3\n        /* \"#utility.yul\":1194:1203   */\n      dup9\n        /* \"#utility.yul\":1190:1212   */\n      add\n        /* \"#utility.yul\":1169:1222   */\n      tag_31\n      jump\t// in\n    tag_42:\n        /* \"#utility.yul\":1159:1222   */\n      swap2\n      pop\n        /* \"#utility.yul\":1114:1232   */\n      pop\n        /* \"#utility.yul\":458:1239   */\n      swap3\n      swap6\n      swap2\n      swap5\n      pop\n      swap3\n      pop\n      jump\t// out\n        /* \"#utility.yul\":1245:1387   */\n    tag_43:\n        /* \"#utility.yul\":1348:1380   */\n      tag_45\n        /* \"#utility.yul\":1374:1379   */\n      dup2\n        /* \"#utility.yul\":1348:1380   */\n      tag_46\n      jump\t// in\n    tag_45:\n        /* \"#utility.yul\":1343:1346   */\n      dup3\n        /* \"#utility.yul\":1336:1381   */\n      mstore\n        /* \"#utility.yul\":1245:1387   */\n      pop\n      pop\n      jump\t// out\n        /* \"#utility.yul\":1393:1511   */\n    tag_47:\n        /* \"#utility.yul\":1480:1504   */\n      tag_49\n        /* \"#utility.yul\":1498:1503   */\n      dup2\n        /* \"#utility.yul\":1480:1504   */\n      tag_50\n      jump\t// in\n    tag_49:\n        /* \"#utility.yul\":1475:1478   */\n      dup3\n        /* \"#utility.yul\":1468:1505   */\n      mstore\n        /* \"#utility.yul\":1393:1511   */\n      pop\n      pop\n      jump\t// out\n        /* \"#utility.yul\":1517:1890   */\n    tag_51:\n        /* \"#utility.yul\":1621:1624   */\n      0x00\n        /* \"#utility.yul\":1649:1687   */\n      tag_53\n        /* \"#utility.yul\":1681:1686   */\n      dup3\n        /* \"#utility.yul\":1649:1687   */\n      tag_54\n      jump\t// in\n    tag_53:\n        /* \"#utility.yul\":1703:1791   */\n      tag_55\n        /* \"#utility.yul\":1784:1790   */\n      dup2\n        /* \"#utility.yul\":1779:1782   */\n      dup6\n        /* \"#utility.yul\":1703:1791   */\n      tag_56\n      jump\t// in\n    tag_55:\n        /* \"#utility.yul\":1696:1791   */\n      swap4\n      pop\n        /* \"#utility.yul\":1800:1852   */\n      tag_57\n        /* \"#utility.yul\":1845:1851   */\n      dup2\n        /* \"#utility.yul\":1840:1843   */\n      dup6\n        /* \"#utility.yul\":1833:1837   */\n      0x20\n        /* \"#utility.yul\":1826:1831   */\n      dup7\n        /* \"#utility.yul\":1822:1838   */\n      add\n        /* \"#utility.yul\":1800:1852   */\n      tag_58\n      jump\t// in\n    tag_57:\n        /* \"#utility.yul\":1877:1883   */\n      dup1\n        /* \"#utility.yul\":1872:1875   */\n      dup5\n        /* \"#utility.yul\":1868:1884   */\n      add\n        /* \"#utility.yul\":1861:1884   */\n      swap2\n      pop\n        /* \"#utility.yul\":1625:1890   */\n      pop\n        /* \"#utility.yul\":1517:1890   */\n      swap3\n      swap2\n      pop\n      pop\n      jump\t// out\n        /* \"#utility.yul\":1896:2014   */\n    tag_59:\n        /* \"#utility.yul\":1983:2007   */\n      tag_61\n        /* \"#utility.yul\":2001:2006   */\n      dup2\n        /* \"#utility.yul\":1983:2007   */\n      tag_62\n      jump\t// in\n    tag_61:\n        /* \"#utility.yul\":1978:1981   */\n      dup3\n        /* \"#utility.yul\":1971:2008   */\n      mstore\n        /* \"#utility.yul\":1896:2014   */\n      pop\n      pop\n      jump\t// out\n        /* \"#utility.yul\":2020:2291   */\n    tag_17:\n        /* \"#utility.yul\":2150:2153   */\n      0x00\n        /* \"#utility.yul\":2172:2265   */\n      tag_64\n        /* \"#utility.yul\":2261:2264   */\n      dup3\n        /* \"#utility.yul\":2252:2258   */\n      dup5\n        /* \"#utility.yul\":2172:2265   */\n      tag_51\n      jump\t// in\n    tag_64:\n        /* \"#utility.yul\":2165:2265   */\n      swap2\n      pop\n        /* \"#utility.yul\":2282:2285   */\n      dup2\n        /* \"#utility.yul\":2275:2285   */\n      swap1\n      pop\n        /* \"#utility.yul\":2020:2291   */\n      swap3\n      swap2\n      pop\n      pop\n      jump\t// out\n        /* \"#utility.yul\":2297:2661   */\n    tag_15:\n        /* \"#utility.yul\":2434:2438   */\n      0x00\n        /* \"#utility.yul\":2472:2474   */\n      0x40\n        /* \"#utility.yul\":2461:2470   */\n      dup3\n        /* \"#utility.yul\":2457:2475   */\n      add\n        /* \"#utility.yul\":2449:2475   */\n      swap1\n      pop\n        /* \"#utility.yul\":2485:2572   */\n      tag_66\n        /* \"#utility.yul\":2569:2570   */\n      0x00\n        /* \"#utility.yul\":2558:2567   */\n      dup4\n        /* \"#utility.yul\":2554:2571   */\n      add\n        /* \"#utility.yul\":2545:2551   */\n      dup6\n        /* \"#utility.yul\":2485:2572   */\n      tag_43\n      jump\t// in\n    tag_66:\n        /* \"#utility.yul\":2582:2654   */\n      tag_67\n        /* \"#utility.yul\":2650:2652   */\n      0x20\n        /* \"#utility.yul\":2639:2648   */\n      dup4\n        /* \"#utility.yul\":2635:2653   */\n      add\n        /* \"#utility.yul\":2626:2632   */\n      dup5\n        /* \"#utility.yul\":2582:2654   */\n      tag_47\n      jump\t// in\n    tag_67:\n        /* \"#utility.yul\":2297:2661   */\n      swap4\n      swap3\n      pop\n      pop\n      pop\n      jump\t// out\n        /* \"#utility.yul\":2667:2889   */\n    tag_12:\n        /* \"#utility.yul\":2760:2764   */\n      0x00\n        /* \"#utility.yul\":2798:2800   */\n      0x20\n        /* \"#utility.yul\":2787:2796   */\n      dup3\n        /* \"#utility.yul\":2783:2801   */\n      add\n        /* \"#utility.yul\":2775:2801   */\n      swap1\n      pop\n        /* \"#utility.yul\":2811:2882   */\n      tag_69\n        /* \"#utility.yul\":2879:2880   */\n      0x00\n        /* \"#utility.yul\":2868:2877   */\n      dup4\n        /* \"#utility.yul\":2864:2881   */\n      add\n        /* \"#utility.yul\":2855:2861   */\n      dup5\n        /* \"#utility.yul\":2811:2882   */\n      tag_59\n      jump\t// in\n    tag_69:\n        /* \"#utility.yul\":2667:2889   */\n      swap3\n      swap2\n      pop\n      pop\n      jump\t// out\n        /* \"#utility.yul\":2976:3074   */\n    tag_54:\n        /* \"#utility.yul\":3027:3033   */\n      0x00\n        /* \"#utility.yul\":3061:3066   */\n      dup2\n        /* \"#utility.yul\":3055:3067   */\n      mload\n        /* \"#utility.yul\":3045:3067   */\n      swap1\n      pop\n        /* \"#utility.yul\":2976:3074   */\n      swap2\n      swap1\n      pop\n      jump\t// out\n        /* \"#utility.yul\":3080:3227   */\n    tag_56:\n        /* \"#utility.yul\":3181:3192   */\n      0x00\n        /* \"#utility.yul\":3218:3221   */\n      dup2\n        /* \"#utility.yul\":3203:3221   */\n      swap1\n      pop\n        /* \"#utility.yul\":3080:3227   */\n      swap3\n      swap2\n      pop\n      pop\n      jump\t// out\n        /* \"#utility.yul\":3233:3329   */\n    tag_50:\n        /* \"#utility.yul\":3270:3277   */\n      0x00\n        /* \"#utility.yul\":3299:3323   */\n      tag_75\n        /* \"#utility.yul\":3317:3322   */\n      dup3\n        /* \"#utility.yul\":3299:3323   */\n      tag_76\n      jump\t// in\n    tag_75:\n        /* \"#utility.yul\":3288:3323   */\n      swap1\n      pop\n        /* \"#utility.yul\":3233:3329   */\n      swap2\n      swap1\n      pop\n      jump\t// out\n        /* \"#utility.yul\":3335:3439   */\n    tag_46:\n        /* \"#utility.yul\":3380:3387   */\n      0x00\n        /* \"#utility.yul\":3409:3433   */\n      tag_78\n        /* \"#utility.yul\":3427:3432   */\n      dup3\n        /* \"#utility.yul\":3409:3433   */\n      tag_76\n      jump\t// in\n    tag_78:\n        /* \"#utility.yul\":3398:3433   */\n      swap1\n      pop\n        /* \"#utility.yul\":3335:3439   */\n      swap2\n      swap1\n      pop\n      jump\t// out\n        /* \"#utility.yul\":3445:3571   */\n    tag_76:\n        /* \"#utility.yul\":3482:3489   */\n      0x00\n        /* \"#utility.yul\":3522:3564   */\n      0xffffffffffffffffffffffffffffffffffffffff\n        /* \"#utility.yul\":3515:3520   */\n      dup3\n        /* \"#utility.yul\":3511:3565   */\n      and\n        /* \"#utility.yul\":3500:3565   */\n      swap1\n      pop\n        /* \"#utility.yul\":3445:3571   */\n      swap2\n      swap1\n      pop\n      jump\t// out\n        /* \"#utility.yul\":3577:3654   */\n    tag_62:\n        /* \"#utility.yul\":3614:3621   */\n      0x00\n        /* \"#utility.yul\":3643:3648   */\n      dup2\n        /* \"#utility.yul\":3632:3648   */\n      swap1\n      pop\n        /* \"#utility.yul\":3577:3654   */\n      swap2\n      swap1\n      pop\n      jump\t// out\n        /* \"#utility.yul\":3660:3967   */\n    tag_58:\n        /* \"#utility.yul\":3728:3729   */\n      0x00\n        /* \"#utility.yul\":3738:3851   */\n    tag_82:\n        /* \"#utility.yul\":3752:3758   */\n      dup4\n        /* \"#utility.yul\":3749:3750   */\n      dup2\n        /* \"#utility.yul\":3746:3759   */\n      lt\n        /* \"#utility.yul\":3738:3851   */\n      iszero\n      tag_84\n      jumpi\n        /* \"#utility.yul\":3837:3838   */\n      dup1\n        /* \"#utility.yul\":3832:3835   */\n      dup3\n        /* \"#utility.yul\":3828:3839   */\n      add\n        /* \"#utility.yul\":3822:3840   */\n      mload\n        /* \"#utility.yul\":3818:3819   */\n      dup2\n        /* \"#utility.yul\":3813:3816   */\n      dup5\n        /* \"#utility.yul\":3809:3820   */\n      add\n        /* \"#utility.yul\":3802:3841   */\n      mstore\n        /* \"#utility.yul\":3774:3776   */\n      0x20\n        /* \"#utility.yul\":3771:3772   */\n      dup2\n        /* \"#utility.yul\":3767:3777   */\n      add\n        /* \"#utility.yul\":3762:3777   */\n      swap1\n      pop\n        /* \"#utility.yul\":3738:3851   */\n      jump(tag_82)\n    tag_84:\n        /* \"#utility.yul\":3869:3875   */\n      dup4\n        /* \"#utility.yul\":3866:3867   */\n      dup2\n        /* \"#utility.yul\":3863:3876   */\n      gt\n        /* \"#utility.yul\":3860:3961   */\n      iszero\n      tag_85\n      jumpi\n        /* \"#utility.yul\":3949:3950   */\n      0x00\n        /* \"#utility.yul\":3940:3946   */\n      dup5\n        /* \"#utility.yul\":3935:3938   */\n      dup5\n        /* \"#utility.yul\":3931:3947   */\n      add\n        /* \"#utility.yul\":3924:3951   */\n      mstore\n        /* \"#utility.yul\":3860:3961   */\n    tag_85:\n        /* \"#utility.yul\":3709:3967   */\n      pop\n        /* \"#utility.yul\":3660:3967   */\n      pop\n      pop\n      pop\n      jump\t// out\n        /* \"#utility.yul\":4096:4213   */\n    tag_38:\n        /* \"#utility.yul\":4205:4206   */\n      0x00\n        /* \"#utility.yul\":4202:4203   */\n      dup1\n        /* \"#utility.yul\":4195:4207   */\n      revert\n        /* \"#utility.yul\":4219:4341   */\n    tag_26:\n        /* \"#utility.yul\":4292:4316   */\n      tag_90\n        /* \"#utility.yul\":4310:4315   */\n      dup2\n        /* \"#utility.yul\":4292:4316   */\n      tag_50\n      jump\t// in\n    tag_90:\n        /* \"#utility.yul\":4285:4290   */\n      dup2\n        /* \"#utility.yul\":4282:4317   */\n      eq\n        /* \"#utility.yul\":4272:4335   */\n      tag_91\n      jumpi\n        /* \"#utility.yul\":4331:4332   */\n      0x00\n        /* \"#utility.yul\":4328:4329   */\n      dup1\n        /* \"#utility.yul\":4321:4333   */\n      revert\n        /* \"#utility.yul\":4272:4335   */\n    tag_91:\n        /* \"#utility.yul\":4219:4341   */\n      pop\n      jump\t// out\n        /* \"#utility.yul\":4347:4485   */\n    tag_30:\n        /* \"#utility.yul\":4428:4460   */\n      tag_93\n        /* \"#utility.yul\":4454:4459   */\n      dup2\n        /* \"#utility.yul\":4428:4460   */\n      tag_46\n      jump\t// in\n    tag_93:\n        /* \"#utility.yul\":4421:4426   */\n      dup2\n        /* \"#utility.yul\":4418:4461   */\n      eq\n        /* \"#utility.yul\":4408:4479   */\n      tag_94\n      jumpi\n        /* \"#utility.yul\":4475:4476   */\n      0x00\n        /* \"#utility.yul\":4472:4473   */\n      dup1\n        /* \"#utility.yul\":4465:4477   */\n      revert\n        /* \"#utility.yul\":4408:4479   */\n    tag_94:\n        /* \"#utility.yul\":4347:4485   */\n      pop\n      jump\t// out\n        /* \"#utility.yul\":4491:4613   */\n    tag_34:\n        /* \"#utility.yul\":4564:4588   */\n      tag_96\n        /* \"#utility.yul\":4582:4587   */\n      dup2\n        /* \"#utility.yul\":4564:4588   */\n      tag_62\n      jump\t// in\n    tag_96:\n        /* \"#utility.yul\":4557:4562   */\n      dup2\n        /* \"#utility.yul\":4554:4589   */\n      eq\n        /* \"#utility.yul\":4544:4607   */\n      tag_97\n      jumpi\n        /* \"#utility.yul\":4603:4604   */\n      0x00\n        /* \"#utility.yul\":4600:4601   */\n      dup1\n        /* \"#utility.yul\":4593:4605   */\n      revert\n        /* \"#utility.yul\":4544:4607   */\n    tag_97:\n        /* \"#utility.yul\":4491:4613   */\n      pop\n      jump\t// out\n\n    auxdata: 0xa2646970667358221220b29c5659ae48941e88162b59cb4f953c6f25d68f8c3af2c7673cdbdccd0dfd4164736f6c63430008070033\n}\n",
				"bytecode": {
					"linkReferences": {},
					"object": "60806040526103df806100136000396000f3fe608060405234801561001057600080fd5b50600436106100365760003560e01c806306e83e2f1461003b57806312065fe014610057575b600080fd5b610055600480360381019061005091906101a8565b610075565b005b61005f610161565b60405161006c91906102ad565b60405180910390f35b6000808573ffffffffffffffffffffffffffffffffffffffff1663b6d9d45160e01b86866040516024016100aa929190610284565b604051602081830303815290604052907bffffffffffffffffffffffffffffffffffffffffffffffffffffffff19166020820180517bffffffffffffffffffffffffffffffffffffffffffffffffffffffff8381831617835250505050604051610114919061026d565b600060405180830381855af49150503d806000811461014f576040519150601f19603f3d011682016040523d82523d6000602084013e610154565b606091505b5091509150505050505050565b600047905090565b60008135905061017881610364565b92915050565b60008135905061018d8161037b565b92915050565b6000813590506101a281610392565b92915050565b600080600080608085870312156101c2576101c161035f565b5b60006101d087828801610169565b94505060206101e18782880161017e565b93505060406101f287828801610169565b925050606061020387828801610193565b91505092959194509250565b610218816102f0565b82525050565b610227816102de565b82525050565b6000610238826102c8565b61024281856102d3565b935061025281856020860161032c565b80840191505092915050565b61026781610322565b82525050565b6000610279828461022d565b915081905092915050565b6000604082019050610299600083018561020f565b6102a6602083018461021e565b9392505050565b60006020820190506102c2600083018461025e565b92915050565b600081519050919050565b600081905092915050565b60006102e982610302565b9050919050565b60006102fb82610302565b9050919050565b600073ffffffffffffffffffffffffffffffffffffffff82169050919050565b6000819050919050565b60005b8381101561034a57808201518184015260208101905061032f565b83811115610359576000848401525b50505050565b600080fd5b61036d816102de565b811461037857600080fd5b50565b610384816102f0565b811461038f57600080fd5b50565b61039b81610322565b81146103a657600080fd5b5056fea2646970667358221220b29c5659ae48941e88162b59cb4f953c6f25d68f8c3af2c7673cdbdccd0dfd4164736f6c63430008070033",
					"opcodes": "PUSH1 0x80 PUSH1 0x40 MSTORE PUSH2 0x3DF DUP1 PUSH2 0x13 PUSH1 0x0 CODECOPY PUSH1 0x0 RETURN INVALID PUSH1 0x80 PUSH1 0x40 MSTORE CALLVALUE DUP1 ISZERO PUSH2 0x10 JUMPI PUSH1 0x0 DUP1 REVERT JUMPDEST POP PUSH1 0x4 CALLDATASIZE LT PUSH2 0x36 JUMPI PUSH1 0x0 CALLDATALOAD PUSH1 0xE0 SHR DUP1 PUSH4 0x6E83E2F EQ PUSH2 0x3B JUMPI DUP1 PUSH4 0x12065FE0 EQ PUSH2 0x57 JUMPI JUMPDEST PUSH1 0x0 DUP1 REVERT JUMPDEST PUSH2 0x55 PUSH1 0x4 DUP1 CALLDATASIZE SUB DUP2 ADD SWAP1 PUSH2 0x50 SWAP2 SWAP1 PUSH2 0x1A8 JUMP JUMPDEST PUSH2 0x75 JUMP JUMPDEST STOP JUMPDEST PUSH2 0x5F PUSH2 0x161 JUMP JUMPDEST PUSH1 0x40 MLOAD PUSH2 0x6C SWAP2 SWAP1 PUSH2 0x2AD JUMP JUMPDEST PUSH1 0x40 MLOAD DUP1 SWAP2 SUB SWAP1 RETURN JUMPDEST PUSH1 0x0 DUP1 DUP6 PUSH20 0xFFFFFFFFFFFFFFFFFFFFFFFFFFFFFFFFFFFFFFFF AND PUSH4 0xB6D9D451 PUSH1 0xE0 SHL DUP7 DUP7 PUSH1 0x40 MLOAD PUSH1 0x24 ADD PUSH2 0xAA SWAP3 SWAP2 SWAP1 PUSH2 0x284 JUMP JUMPDEST PUSH1 0x40 MLOAD PUSH1 0x20 DUP2 DUP4 SUB SUB DUP2 MSTORE SWAP1 PUSH1 0x40 MSTORE SWAP1 PUSH28 0xFFFFFFFFFFFFFFFFFFFFFFFFFFFFFFFFFFFFFFFFFFFFFFFFFFFFFFFF NOT AND PUSH1 0x20 DUP3 ADD DUP1 MLOAD PUSH28 0xFFFFFFFFFFFFFFFFFFFFFFFFFFFFFFFFFFFFFFFFFFFFFFFFFFFFFFFF DUP4 DUP2 DUP4 AND OR DUP4 MSTORE POP POP POP POP PUSH1 0x40 MLOAD PUSH2 0x114 SWAP2 SWAP1 PUSH2 0x26D JUMP JUMPDEST PUSH1 0x0 PUSH1 0x40 MLOAD DUP1 DUP4 SUB DUP2 DUP6 GAS DELEGATECALL SWAP2 POP POP RETURNDATASIZE DUP1 PUSH1 0x0 DUP2 EQ PUSH2 0x14F JUMPI PUSH1 0x40 MLOAD SWAP2 POP PUSH1 0x1F NOT PUSH1 0x3F RETURNDATASIZE ADD AND DUP3 ADD PUSH1 0x40 MSTORE RETURNDATASIZE DUP3 MSTORE RETURNDATASIZE PUSH1 0x0 PUSH1 0x20 DUP5 ADD RETURNDATACOPY PUSH2 0x154 JUMP JUMPDEST PUSH1 0x60 SWAP2 POP JUMPDEST POP SWAP2 POP SWAP2 POP POP POP POP POP POP POP JUMP JUMPDEST PUSH1 0x0 SELFBALANCE SWAP1 POP SWAP1 JUMP JUMPDEST PUSH1 0x0 DUP2 CALLDATALOAD SWAP1 POP PUSH2 0x178 DUP2 PUSH2 0x364 JUMP JUMPDEST SWAP3 SWAP2 POP POP JUMP JUMPDEST PUSH1 0x0 DUP2 CALLDATALOAD SWAP1 POP PUSH2 0x18D DUP2 PUSH2 0x37B JUMP JUMPDEST SWAP3 SWAP2 POP POP JUMP JUMPDEST PUSH1 0x0 DUP2 CALLDATALOAD SWAP1 POP PUSH2 0x1A2 DUP2 PUSH2 0x392 JUMP JUMPDEST SWAP3 SWAP2 POP POP JUMP JUMPDEST PUSH1 0x0 DUP1 PUSH1 0x0 DUP1 PUSH1 0x80 DUP6 DUP8 SUB SLT ISZERO PUSH2 0x1C2 JUMPI PUSH2 0x1C1 PUSH2 0x35F JUMP JUMPDEST JUMPDEST PUSH1 0x0 PUSH2 0x1D0 DUP8 DUP3 DUP9 ADD PUSH2 0x169 JUMP JUMPDEST SWAP5 POP POP PUSH1 0x20 PUSH2 0x1E1 DUP8 DUP3 DUP9 ADD PUSH2 0x17E JUMP JUMPDEST SWAP4 POP POP PUSH1 0x40 PUSH2 0x1F2 DUP8 DUP3 DUP9 ADD PUSH2 0x169 JUMP JUMPDEST SWAP3 POP POP PUSH1 0x60 PUSH2 0x203 DUP8 DUP3 DUP9 ADD PUSH2 0x193 JUMP JUMPDEST SWAP2 POP POP SWAP3 SWAP6 SWAP2 SWAP5 POP SWAP3 POP JUMP JUMPDEST PUSH2 0x218 DUP2 PUSH2 0x2F0 JUMP JUMPDEST DUP3 MSTORE POP POP JUMP JUMPDEST PUSH2 0x227 DUP2 PUSH2 0x2DE JUMP JUMPDEST DUP3 MSTORE POP POP JUMP JUMPDEST PUSH1 0x0 PUSH2 0x238 DUP3 PUSH2 0x2C8 JUMP JUMPDEST PUSH2 0x242 DUP2 DUP6 PUSH2 0x2D3 JUMP JUMPDEST SWAP4 POP PUSH2 0x252 DUP2 DUP6 PUSH1 0x20 DUP7 ADD PUSH2 0x32C JUMP JUMPDEST DUP1 DUP5 ADD SWAP2 POP POP SWAP3 SWAP2 POP POP JUMP JUMPDEST PUSH2 0x267 DUP2 PUSH2 0x322 JUMP JUMPDEST DUP3 MSTORE POP POP JUMP JUMPDEST PUSH1 0x0 PUSH2 0x279 DUP3 DUP5 PUSH2 0x22D JUMP JUMPDEST SWAP2 POP DUP2 SWAP1 POP SWAP3 SWAP2 POP POP JUMP JUMPDEST PUSH1 0x0 PUSH1 0x40 DUP3 ADD SWAP1 POP PUSH2 0x299 PUSH1 0x0 DUP4 ADD DUP6 PUSH2 0x20F JUMP JUMPDEST PUSH2 0x2A6 PUSH1 0x20 DUP4 ADD DUP5 PUSH2 0x21E JUMP JUMPDEST SWAP4 SWAP3 POP POP POP JUMP JUMPDEST PUSH1 0x0 PUSH1 0x20 DUP3 ADD SWAP1 POP PUSH2 0x2C2 PUSH1 0x0 DUP4 ADD DUP5 PUSH2 0x25E JUMP JUMPDEST SWAP3 SWAP2 POP POP JUMP JUMPDEST PUSH1 0x0 DUP2 MLOAD SWAP1 POP SWAP2 SWAP1 POP JUMP JUMPDEST PUSH1 0x0 DUP2 SWAP1 POP SWAP3 SWAP2 POP POP JUMP JUMPDEST PUSH1 0x0 PUSH2 0x2E9 DUP3 PUSH2 0x302 JUMP JUMPDEST SWAP1 POP SWAP2 SWAP1 POP JUMP JUMPDEST PUSH1 0x0 PUSH2 0x2FB DUP3 PUSH2 0x302 JUMP JUMPDEST SWAP1 POP SWAP2 SWAP1 POP JUMP JUMPDEST PUSH1 0x0 PUSH20 0xFFFFFFFFFFFFFFFFFFFFFFFFFFFFFFFFFFFFFFFF DUP3 AND SWAP1 POP SWAP2 SWAP1 POP JUMP JUMPDEST PUSH1 0x0 DUP2 SWAP1 POP SWAP2 SWAP1 POP JUMP JUMPDEST PUSH1 0x0 JUMPDEST DUP4 DUP2 LT ISZERO PUSH2 0x34A JUMPI DUP1 DUP3 ADD MLOAD DUP2 DUP5 ADD MSTORE PUSH1 0x20 DUP2 ADD SWAP1 POP PUSH2 0x32F JUMP JUMPDEST DUP4 DUP2 GT ISZERO PUSH2 0x359 JUMPI PUSH1 0x0 DUP5 DUP5 ADD MSTORE JUMPDEST POP POP POP POP JUMP JUMPDEST PUSH1 0x0 DUP1 REVERT JUMPDEST PUSH2 0x36D DUP2 PUSH2 0x2DE JUMP JUMPDEST DUP2 EQ PUSH2 0x378 JUMPI PUSH1 0x0 DUP1 REVERT JUMPDEST POP JUMP JUMPDEST PUSH2 0x384 DUP2 PUSH2 0x2F0 JUMP JUMPDEST DUP2 EQ PUSH2 0x38F JUMPI PUSH1 0x0 DUP1 REVERT JUMPDEST POP JUMP JUMPDEST PUSH2 0x39B DUP2 PUSH2 0x322 JUMP JUMPDEST DUP2 EQ PUSH2 0x3A6 JUMPI PUSH1 0x0 DUP1 REVERT JUMPDEST POP JUMP INVALID LOG2 PUSH5 0x6970667358 0x22 SLT KECCAK256 0xB2 SWAP13 JUMP MSIZE 0xAE BASEFEE SWAP5 0x1E DUP9 AND 0x2B MSIZE 0xCB 0x4F SWAP6 EXTCODECOPY PUSH16 0x25D68F8C3AF2C7673CDBDCCD0DFD4164 PUSH20 0x6F6C634300080700330000000000000000000000 "
				},
				"gasEstimates": {
					"creation": {
						"codeDepositCost": "198200",
						"executionCost": "214",
						"totalCost": "198414"
					},
					"external": {
						"getBalance()": "339",
						"send(address,address,address,uint256)": "infinite"
					}
				},
				"methodIdentifiers": {
					"getBalance()": "12065fe0",
					"send(address,address,address,uint256)": "06e83e2f"
				}
			},
			"storageLayout": {
				"storage": [],
				"types": null
			},
			"userdoc": {
				"kind": "user",
				"methods": {},
				"version": 1
			}
		}
	}
}