{
	"Inheritance.sol": {
		"Animal": {
			"abi": [
				{
					"inputs": [
						{
							"internalType": "uint256",
							"name": "l",
							"type": "uint256"
						},
						{
							"internalType": "uint256",
							"name": "e",
							"type": "uint256"
						}
					],
					"stateMutability": "nonpayable",
					"type": "constructor"
				},
				{
					"anonymous": false,
					"inputs": [
						{
							"indexed": false,
							"internalType": "string",
							"name": "name",
							"type": "string"
						},
						{
							"indexed": false,
							"internalType": "string",
							"name": "sound",
							"type": "string"
						}
					],
					"name": "Talk",
					"type": "event"
				},
				{
					"inputs": [],
					"name": "talk",
					"outputs": [],
					"stateMutability": "nonpayable",
					"type": "function"
				}
			],
			"devdoc": {
				"kind": "dev",
				"methods": {},
				"version": 1
			},
			"evm": {
				"assembly": "    /* \"Inheritance.sol\":56:279  contract Animal{... */\n  mstore(0x40, 0x80)\n    /* \"Inheritance.sol\":166:232  constructor (uint l,uint e){... */\n  callvalue\n  dup1\n  iszero\n  tag_1\n  jumpi\n  0x00\n  dup1\n  revert\ntag_1:\n  pop\n  mload(0x40)\n  sub(codesize, bytecodeSize)\n  dup1\n  bytecodeSize\n  dup4\n  codecopy\n  dup2\n  dup2\n  add\n  0x40\n  mstore\n  dup2\n  add\n  swap1\n  tag_2\n  swap2\n  swap1\n  tag_3\n  jump\t// in\ntag_2:\n    /* \"Inheritance.sol\":208:209  l */\n  dup2\n    /* \"Inheritance.sol\":203:207  legs */\n  0x01\n    /* \"Inheritance.sol\":203:209  legs=l */\n  dup2\n  swap1\n  sstore\n  pop\n    /* \"Inheritance.sol\":224:225  e */\n  dup1\n    /* \"Inheritance.sol\":219:223  eyes */\n  0x02\n    /* \"Inheritance.sol\":219:225  eyes=e */\n  dup2\n  swap1\n  sstore\n  pop\n    /* \"Inheritance.sol\":166:232  constructor (uint l,uint e){... */\n  pop\n  pop\n    /* \"Inheritance.sol\":56:279  contract Animal{... */\n  jump(tag_6)\n    /* \"#utility.yul\":7:150   */\ntag_8:\n    /* \"#utility.yul\":64:69   */\n  0x00\n    /* \"#utility.yul\":95:101   */\n  dup2\n    /* \"#utility.yul\":89:102   */\n  mload\n    /* \"#utility.yul\":80:102   */\n  swap1\n  pop\n    /* \"#utility.yul\":111:144   */\n  tag_10\n    /* \"#utility.yul\":138:143   */\n  dup2\n    /* \"#utility.yul\":111:144   */\n  tag_11\n  jump\t// in\ntag_10:\n    /* \"#utility.yul\":7:150   */\n  swap3\n  swap2\n  pop\n  pop\n  jump\t// out\n    /* \"#utility.yul\":156:663   */\ntag_3:\n    /* \"#utility.yul\":235:241   */\n  0x00\n    /* \"#utility.yul\":243:249   */\n  dup1\n    /* \"#utility.yul\":292:294   */\n  0x40\n    /* \"#utility.yul\":280:289   */\n  dup4\n    /* \"#utility.yul\":271:278   */\n  dup6\n    /* \"#utility.yul\":267:290   */\n  sub\n    /* \"#utility.yul\":263:295   */\n  slt\n    /* \"#utility.yul\":260:379   */\n  iszero\n  tag_13\n  jumpi\n    /* \"#utility.yul\":298:377   */\n  tag_14\n  tag_15\n  jump\t// in\ntag_14:\n    /* \"#utility.yul\":260:379   */\ntag_13:\n    /* \"#utility.yul\":418:419   */\n  0x00\n    /* \"#utility.yul\":443:507   */\n  tag_16\n    /* \"#utility.yul\":499:506   */\n  dup6\n    /* \"#utility.yul\":490:496   */\n  dup3\n    /* \"#utility.yul\":479:488   */\n  dup7\n    /* \"#utility.yul\":475:497   */\n  add\n    /* \"#utility.yul\":443:507   */\n  tag_8\n  jump\t// in\ntag_16:\n    /* \"#utility.yul\":433:507   */\n  swap3\n  pop\n    /* \"#utility.yul\":389:517   */\n  pop\n    /* \"#utility.yul\":556:558   */\n  0x20\n    /* \"#utility.yul\":582:646   */\n  tag_17\n    /* \"#utility.yul\":638:645   */\n  dup6\n    /* \"#utility.yul\":629:635   */\n  dup3\n    /* \"#utility.yul\":618:627   */\n  dup7\n    /* \"#utility.yul\":614:636   */\n  add\n    /* \"#utility.yul\":582:646   */\n  tag_8\n  jump\t// in\ntag_17:\n    /* \"#utility.yul\":572:646   */\n  swap2\n  pop\n    /* \"#utility.yul\":527:656   */\n  pop\n    /* \"#utility.yul\":156:663   */\n  swap3\n  pop\n  swap3\n  swap1\n  pop\n  jump\t// out\n    /* \"#utility.yul\":750:827   */\ntag_20:\n    /* \"#utility.yul\":787:794   */\n  0x00\n    /* \"#utility.yul\":816:821   */\n  dup2\n    /* \"#utility.yul\":805:821   */\n  swap1\n  pop\n    /* \"#utility.yul\":750:827   */\n  swap2\n  swap1\n  pop\n  jump\t// out\n    /* \"#utility.yul\":956:1073   */\ntag_15:\n    /* \"#utility.yul\":1065:1066   */\n  0x00\n    /* \"#utility.yul\":1062:1063   */\n  dup1\n    /* \"#utility.yul\":1055:1067   */\n  revert\n    /* \"#utility.yul\":1079:1201   */\ntag_11:\n    /* \"#utility.yul\":1152:1176   */\n  tag_26\n    /* \"#utility.yul\":1170:1175   */\n  dup2\n    /* \"#utility.yul\":1152:1176   */\n  tag_20\n  jump\t// in\ntag_26:\n    /* \"#utility.yul\":1145:1150   */\n  dup2\n    /* \"#utility.yul\":1142:1177   */\n  eq\n    /* \"#utility.yul\":1132:1195   */\n  tag_27\n  jumpi\n    /* \"#utility.yul\":1191:1192   */\n  0x00\n    /* \"#utility.yul\":1188:1189   */\n  dup1\n    /* \"#utility.yul\":1181:1193   */\n  revert\n    /* \"#utility.yul\":1132:1195   */\ntag_27:\n    /* \"#utility.yul\":1079:1201   */\n  pop\n  jump\t// out\n    /* \"Inheritance.sol\":56:279  contract Animal{... */\ntag_6:\n  dataSize(sub_0)\n  dup1\n  dataOffset(sub_0)\n  0x00\n  codecopy\n  0x00\n  return\nstop\n\nsub_0: assembly {\n        /* \"Inheritance.sol\":56:279  contract Animal{... */\n      mstore(0x40, 0x80)\n      callvalue\n      dup1\n      iszero\n      tag_1\n      jumpi\n      0x00\n      dup1\n      revert\n    tag_1:\n      pop\n      jumpi(tag_2, lt(calldatasize, 0x04))\n      shr(0xe0, calldataload(0x00))\n      dup1\n      0xa9731769\n      eq\n      tag_3\n      jumpi\n    tag_2:\n      0x00\n      dup1\n      revert\n        /* \"Inheritance.sol\":238:277  function talk() external virtual{... */\n    tag_3:\n      tag_4\n      tag_5\n      jump\t// in\n    tag_4:\n      stop\n    tag_5:\n      jump\t// out\n\n    auxdata: 0xa2646970667358221220ab4324225abd5e8b0d29c8d1190af788c3fe0dd5cca9e958f4deea868d0ccb6864736f6c63430008070033\n}\n",
				"bytecode": {
					"linkReferences": {},
					"object": "608060405234801561001057600080fd5b5060405161013d38038061013d8339818101604052810190610032919061005c565b816001819055508060028190555050506100c2565b600081519050610056816100ab565b92915050565b60008060408385031215610073576100726100a6565b5b600061008185828601610047565b925050602061009285828601610047565b9150509250929050565b6000819050919050565b600080fd5b6100b48161009c565b81146100bf57600080fd5b50565b606d806100d06000396000f3fe6080604052348015600f57600080fd5b506004361060285760003560e01c8063a973176914602d575b600080fd5b60336035565b005b56fea2646970667358221220ab4324225abd5e8b0d29c8d1190af788c3fe0dd5cca9e958f4deea868d0ccb6864736f6c63430008070033",
					"opcodes": "PUSH1 0x80 PUSH1 0x40 MSTORE CALLVALUE DUP1 ISZERO PUSH2 0x10 JUMPI PUSH1 0x0 DUP1 REVERT JUMPDEST POP PUSH1 0x40 MLOAD PUSH2 0x13D CODESIZE SUB DUP1 PUSH2 0x13D DUP4 CODECOPY DUP2 DUP2 ADD PUSH1 0x40 MSTORE DUP2 ADD SWAP1 PUSH2 0x32 SWAP2 SWAP1 PUSH2 0x5C JUMP JUMPDEST DUP2 PUSH1 0x1 DUP2 SWAP1 SSTORE POP DUP1 PUSH1 0x2 DUP2 SWAP1 SSTORE POP POP POP PUSH2 0xC2 JUMP JUMPDEST PUSH1 0x0 DUP2 MLOAD SWAP1 POP PUSH2 0x56 DUP2 PUSH2 0xAB JUMP JUMPDEST SWAP3 SWAP2 POP POP JUMP JUMPDEST PUSH1 0x0 DUP1 PUSH1 0x40 DUP4 DUP6 SUB SLT ISZERO PUSH2 0x73 JUMPI PUSH2 0x72 PUSH2 0xA6 JUMP JUMPDEST JUMPDEST PUSH1 0x0 PUSH2 0x81 DUP6 DUP3 DUP7 ADD PUSH2 0x47 JUMP JUMPDEST SWAP3 POP POP PUSH1 0x20 PUSH2 0x92 DUP6 DUP3 DUP7 ADD PUSH2 0x47 JUMP JUMPDEST SWAP2 POP POP SWAP3 POP SWAP3 SWAP1 POP JUMP JUMPDEST PUSH1 0x0 DUP2 SWAP1 POP SWAP2 SWAP1 POP JUMP JUMPDEST PUSH1 0x0 DUP1 REVERT JUMPDEST PUSH2 0xB4 DUP2 PUSH2 0x9C JUMP JUMPDEST DUP2 EQ PUSH2 0xBF JUMPI PUSH1 0x0 DUP1 REVERT JUMPDEST POP JUMP JUMPDEST PUSH1 0x6D DUP1 PUSH2 0xD0 PUSH1 0x0 CODECOPY PUSH1 0x0 RETURN INVALID PUSH1 0x80 PUSH1 0x40 MSTORE CALLVALUE DUP1 ISZERO PUSH1 0xF JUMPI PUSH1 0x0 DUP1 REVERT JUMPDEST POP PUSH1 0x4 CALLDATASIZE LT PUSH1 0x28 JUMPI PUSH1 0x0 CALLDATALOAD PUSH1 0xE0 SHR DUP1 PUSH4 0xA9731769 EQ PUSH1 0x2D JUMPI JUMPDEST PUSH1 0x0 DUP1 REVERT JUMPDEST PUSH1 0x33 PUSH1 0x35 JUMP JUMPDEST STOP JUMPDEST JUMP INVALID LOG2 PUSH5 0x6970667358 0x22 SLT KECCAK256 0xAB NUMBER 0x24 0x22 GAS 0xBD 0x5E DUP12 0xD 0x29 0xC8 0xD1 NOT EXP 0xF7 DUP9 0xC3 INVALID 0xD 0xD5 0xCC 0xA9 0xE9 PC DELEGATECALL 0xDE 0xEA DUP7 DUP14 0xC 0xCB PUSH9 0x64736F6C6343000807 STOP CALLER "
				},
				"gasEstimates": {
					"creation": {
						"codeDepositCost": "21800",
						"executionCost": "infinite",
						"totalCost": "infinite"
					},
					"external": {
						"talk()": "122"
					}
				},
				"methodIdentifiers": {
					"talk()": "a9731769"
				}
			},
			"storageLayout": {
				"storage": [
					{
						"astId": 9,
						"contract": "Inheritance.sol:Animal",
						"label": "name",
						"offset": 0,
						"slot": "0",
						"type": "t_string_storage"
					},
					{
						"astId": 11,
						"contract": "Inheritance.sol:Animal",
						"label": "legs",
						"offset": 0,
						"slot": "1",
						"type": "t_uint256"
					},
					{
						"astId": 13,
						"contract": "Inheritance.sol:Animal",
						"label": "eyes",
						"offset": 0,
						"slot": "2",
						"type": "t_uint256"
					}
				],
				"types": {
					"t_string_storage": {
						"encoding": "bytes",
						"label": "string",
						"numberOfBytes": "32"
					},
					"t_uint256": {
						"encoding": "inplace",
						"label": "uint256",
						"numberOfBytes": "32"
					}
				}
			},
			"userdoc": {
				"kind": "user",
				"methods": {},
				"version": 1
			}
		}
	}
}