{
	"Fallback.sol": {
		"Fallback": {
			"abi": [
				{
					"inputs": [],
					"name": "fallback",
					"outputs": [],
					"stateMutability": "payable",
					"type": "function"
				},
				{
					"inputs": [],
					"name": "receive",
					"outputs": [],
					"stateMutability": "payable",
					"type": "function"
				}
			],
			"devdoc": {
				"kind": "dev",
				"methods": {},
				"version": 1
			},
			"evm": {
				"assembly": "    /* \"Fallback.sol\":56:161  contract Fallback{... */\n  mstore(0x40, 0x80)\n  callvalue\n  dup1\n  iszero\n  tag_1\n  jumpi\n  0x00\n  dup1\n  revert\ntag_1:\n  pop\n  dataSize(sub_0)\n  dup1\n  dataOffset(sub_0)\n  0x00\n  codecopy\n  0x00\n  return\nstop\n\nsub_0: assembly {\n        /* \"Fallback.sol\":56:161  contract Fallback{... */\n      mstore(0x40, 0x80)\n      jumpi(tag_1, lt(calldatasize, 0x04))\n      shr(0xe0, calldataload(0x00))\n      dup1\n      0x552079dc\n      eq\n      tag_2\n      jumpi\n      dup1\n      0xa3e76c0f\n      eq\n      tag_3\n      jumpi\n    tag_1:\n      0x00\n      dup1\n      revert\n        /* \"Fallback.sol\":79:117  function fallback() external payable{} */\n    tag_2:\n      tag_4\n      tag_5\n      jump\t// in\n    tag_4:\n      stop\n        /* \"Fallback.sol\":122:159  function receive() external payable{} */\n    tag_3:\n      tag_6\n      tag_7\n      jump\t// in\n    tag_6:\n      stop\n        /* \"Fallback.sol\":79:117  function fallback() external payable{} */\n    tag_5:\n      jump\t// out\n        /* \"Fallback.sol\":122:159  function receive() external payable{} */\n    tag_7:\n      jump\t// out\n\n    auxdata: 0xa26469706673582212203104167235f31657a35356769ebc8eb05ad42b74c40bc62f5d52cb38558caa8c64736f6c63430008070033\n}\n",
				"bytecode": {
					"linkReferences": {},
					"object": "6080604052348015600f57600080fd5b5060758061001e6000396000f3fe60806040526004361060265760003560e01c8063552079dc14602b578063a3e76c0f146033575b600080fd5b6031603b565b005b6039603d565b005b565b56fea26469706673582212203104167235f31657a35356769ebc8eb05ad42b74c40bc62f5d52cb38558caa8c64736f6c63430008070033",
					"opcodes": "PUSH1 0x80 PUSH1 0x40 MSTORE CALLVALUE DUP1 ISZERO PUSH1 0xF JUMPI PUSH1 0x0 DUP1 REVERT JUMPDEST POP PUSH1 0x75 DUP1 PUSH2 0x1E PUSH1 0x0 CODECOPY PUSH1 0x0 RETURN INVALID PUSH1 0x80 PUSH1 0x40 MSTORE PUSH1 0x4 CALLDATASIZE LT PUSH1 0x26 JUMPI PUSH1 0x0 CALLDATALOAD PUSH1 0xE0 SHR DUP1 PUSH4 0x552079DC EQ PUSH1 0x2B JUMPI DUP1 PUSH4 0xA3E76C0F EQ PUSH1 0x33 JUMPI JUMPDEST PUSH1 0x0 DUP1 REVERT JUMPDEST PUSH1 0x31 PUSH1 0x3B JUMP JUMPDEST STOP JUMPDEST PUSH1 0x39 PUSH1 0x3D JUMP JUMPDEST STOP JUMPDEST JUMP JUMPDEST JUMP INVALID LOG2 PUSH5 0x6970667358 0x22 SLT KECCAK256 BALANCE DIV AND PUSH19 0x35F31657A35356769EBC8EB05AD42B74C40BC6 0x2F 0x5D MSTORE 0xCB CODESIZE SSTORE DUP13 0xAA DUP13 PUSH5 0x736F6C6343 STOP ADDMOD SMOD STOP CALLER "
				},
				"gasEstimates": {
					"creation": {
						"codeDepositCost": "23400",
						"executionCost": "75",
						"totalCost": "23475"
					},
					"external": {
						"fallback()": "98",
						"receive()": "120"
					}
				},
				"methodIdentifiers": {
					"fallback()": "552079dc",
					"receive()": "a3e76c0f"
				}
			},
			"storageLayout": {
				"storage": [],
				"types": null
			},
			"userdoc": {
				"kind": "user",
				"methods": {},
				"version": 1
			}
		}
	}
}