{
	"Call.sol": {
		"CallTest": {
			"abi": [
				{
					"inputs": [
						{
							"internalType": "address",
							"name": "c",
							"type": "address"
						}
					],
					"name": "getX",
					"outputs": [],
					"stateMutability": "nonpayable",
					"type": "function"
				}
			],
			"devdoc": {
				"kind": "dev",
				"methods": {},
				"version": 1
			},
			"evm": {
				"assembly": "    /* \"Call.sol\":219:391  contract CallTest{... */\n  mstore(0x40, 0x80)\n  callvalue\n  dup1\n  iszero\n  tag_1\n  jumpi\n  0x00\n  dup1\n  revert\ntag_1:\n  pop\n  dataSize(sub_0)\n  dup1\n  dataOffset(sub_0)\n  0x00\n  codecopy\n  0x00\n  return\nstop\n\nsub_0: assembly {\n        /* \"Call.sol\":219:391  contract CallTest{... */\n      mstore(0x40, 0x80)\n      callvalue\n      dup1\n      iszero\n      tag_1\n      jumpi\n      0x00\n      dup1\n      revert\n    tag_1:\n      pop\n      jumpi(tag_2, lt(calldatasize, 0x04))\n      shr(0xe0, calldataload(0x00))\n      dup1\n      0x7c94c8ca\n      eq\n      tag_3\n      jumpi\n    tag_2:\n      0x00\n      dup1\n      revert\n        /* \"Call.sol\":242:388  function getX(address c) external {... */\n    tag_3:\n      tag_4\n      0x04\n      dup1\n      calldatasize\n      sub\n      dup2\n      add\n      swap1\n      tag_5\n      swap2\n      swap1\n      tag_6\n      jump\t// in\n    tag_5:\n      tag_7\n      jump\t// in\n    tag_4:\n      stop\n    tag_7:\n        /* \"Call.sol\":287:299  bool success */\n      0x00\n        /* \"Call.sol\":305:306  c */\n      dup2\n        /* \"Call.sol\":305:311  c.call */\n      0xffffffffffffffffffffffffffffffffffffffff\n      and\n        /* \"Call.sol\":312:345  abi.encodeWithSignature(\"getX()\") */\n      add(0x24, mload(0x40))\n      mload(0x40)\n      0x20\n      dup2\n      dup4\n      sub\n      sub\n      dup2\n      mstore\n      swap1\n      0x40\n      mstore\n      and(not(0xffffffffffffffffffffffffffffffffffffffffffffffffffffffff), 0x5197c7aa00000000000000000000000000000000000000000000000000000000)\n      0x20\n      dup3\n      add\n      dup1\n      mload\n      0xffffffffffffffffffffffffffffffffffffffffffffffffffffffff\n      dup4\n      dup2\n      dup4\n      and\n      or\n      dup4\n      mstore\n      pop\n      pop\n      pop\n      pop\n        /* \"Call.sol\":305:346  c.call(abi.encodeWithSignature(\"getX()\")) */\n      mload(0x40)\n      tag_9\n      swap2\n      swap1\n      tag_10\n      jump\t// in\n    tag_9:\n      0x00\n      mload(0x40)\n      dup1\n      dup4\n      sub\n      dup2\n      0x00\n      dup7\n      gas\n      call\n      swap2\n      pop\n      pop\n      returndatasize\n      dup1\n      0x00\n      dup2\n      eq\n      tag_13\n      jumpi\n      mload(0x40)\n      swap2\n      pop\n      and(add(returndatasize, 0x3f), not(0x1f))\n      dup3\n      add\n      0x40\n      mstore\n      returndatasize\n      dup3\n      mstore\n      returndatasize\n      0x00\n      0x20\n      dup5\n      add\n      returndatacopy\n      jump(tag_12)\n    tag_13:\n      0x60\n      swap2\n      pop\n    tag_12:\n      pop\n        /* \"Call.sol\":286:346  (bool success, ) = c.call(abi.encodeWithSignature(\"getX()\")) */\n      pop\n      swap1\n      pop\n        /* \"Call.sol\":364:371  success */\n      dup1\n        /* \"Call.sol\":356:381  require(success,\"Failed\") */\n      tag_14\n      jumpi\n      mload(0x40)\n      0x08c379a000000000000000000000000000000000000000000000000000000000\n      dup2\n      mstore\n      0x04\n      add\n      tag_15\n      swap1\n      tag_16\n      jump\t// in\n    tag_15:\n      mload(0x40)\n      dup1\n      swap2\n      sub\n      swap1\n      revert\n    tag_14:\n        /* \"Call.sol\":276:388  {... */\n      pop\n        /* \"Call.sol\":242:388  function getX(address c) external {... */\n      pop\n      jump\t// out\n        /* \"#utility.yul\":7:146   */\n    tag_18:\n        /* \"#utility.yul\":53:58   */\n      0x00\n        /* \"#utility.yul\":91:97   */\n      dup2\n        /* \"#utility.yul\":78:98   */\n      calldataload\n        /* \"#utility.yul\":69:98   */\n      swap1\n      pop\n        /* \"#utility.yul\":107:140   */\n      tag_20\n        /* \"#utility.yul\":134:139   */\n      dup2\n        /* \"#utility.yul\":107:140   */\n      tag_21\n      jump\t// in\n    tag_20:\n        /* \"#utility.yul\":7:146   */\n      swap3\n      swap2\n      pop\n      pop\n      jump\t// out\n        /* \"#utility.yul\":152:481   */\n    tag_6:\n        /* \"#utility.yul\":211:217   */\n      0x00\n        /* \"#utility.yul\":260:262   */\n      0x20\n        /* \"#utility.yul\":248:257   */\n      dup3\n        /* \"#utility.yul\":239:246   */\n      dup5\n        /* \"#utility.yul\":235:258   */\n      sub\n        /* \"#utility.yul\":231:263   */\n      slt\n        /* \"#utility.yul\":228:347   */\n      iszero\n      tag_23\n      jumpi\n        /* \"#utility.yul\":266:345   */\n      tag_24\n      tag_25\n      jump\t// in\n    tag_24:\n        /* \"#utility.yul\":228:347   */\n    tag_23:\n        /* \"#utility.yul\":386:387   */\n      0x00\n        /* \"#utility.yul\":411:464   */\n      tag_26\n        /* \"#utility.yul\":456:463   */\n      dup5\n        /* \"#utility.yul\":447:453   */\n      dup3\n        /* \"#utility.yul\":436:445   */\n      dup6\n        /* \"#utility.yul\":432:454   */\n      add\n        /* \"#utility.yul\":411:464   */\n      tag_18\n      jump\t// in\n    tag_26:\n        /* \"#utility.yul\":401:464   */\n      swap2\n      pop\n        /* \"#utility.yul\":357:474   */\n      pop\n        /* \"#utility.yul\":152:481   */\n      swap3\n      swap2\n      pop\n      pop\n      jump\t// out\n        /* \"#utility.yul\":487:860   */\n    tag_27:\n        /* \"#utility.yul\":591:594   */\n      0x00\n        /* \"#utility.yul\":619:657   */\n      tag_29\n        /* \"#utility.yul\":651:656   */\n      dup3\n        /* \"#utility.yul\":619:657   */\n      tag_30\n      jump\t// in\n    tag_29:\n        /* \"#utility.yul\":673:761   */\n      tag_31\n        /* \"#utility.yul\":754:760   */\n      dup2\n        /* \"#utility.yul\":749:752   */\n      dup6\n        /* \"#utility.yul\":673:761   */\n      tag_32\n      jump\t// in\n    tag_31:\n        /* \"#utility.yul\":666:761   */\n      swap4\n      pop\n        /* \"#utility.yul\":770:822   */\n      tag_33\n        /* \"#utility.yul\":815:821   */\n      dup2\n        /* \"#utility.yul\":810:813   */\n      dup6\n        /* \"#utility.yul\":803:807   */\n      0x20\n        /* \"#utility.yul\":796:801   */\n      dup7\n        /* \"#utility.yul\":792:808   */\n      add\n        /* \"#utility.yul\":770:822   */\n      tag_34\n      jump\t// in\n    tag_33:\n        /* \"#utility.yul\":847:853   */\n      dup1\n        /* \"#utility.yul\":842:845   */\n      dup5\n        /* \"#utility.yul\":838:854   */\n      add\n        /* \"#utility.yul\":831:854   */\n      swap2\n      pop\n        /* \"#utility.yul\":595:860   */\n      pop\n        /* \"#utility.yul\":487:860   */\n      swap3\n      swap2\n      pop\n      pop\n      jump\t// out\n        /* \"#utility.yul\":866:1231   */\n    tag_35:\n        /* \"#utility.yul\":1008:1011   */\n      0x00\n        /* \"#utility.yul\":1029:1095   */\n      tag_37\n        /* \"#utility.yul\":1093:1094   */\n      0x06\n        /* \"#utility.yul\":1088:1091   */\n      dup4\n        /* \"#utility.yul\":1029:1095   */\n      tag_38\n      jump\t// in\n    tag_37:\n        /* \"#utility.yul\":1022:1095   */\n      swap2\n      pop\n        /* \"#utility.yul\":1104:1197   */\n      tag_39\n        /* \"#utility.yul\":1193:1196   */\n      dup3\n        /* \"#utility.yul\":1104:1197   */\n      tag_40\n      jump\t// in\n    tag_39:\n        /* \"#utility.yul\":1222:1224   */\n      0x20\n        /* \"#utility.yul\":1217:1220   */\n      dup3\n        /* \"#utility.yul\":1213:1225   */\n      add\n        /* \"#utility.yul\":1206:1225   */\n      swap1\n      pop\n        /* \"#utility.yul\":866:1231   */\n      swap2\n      swap1\n      pop\n      jump\t// out\n        /* \"#utility.yul\":1237:1508   */\n    tag_10:\n        /* \"#utility.yul\":1367:1370   */\n      0x00\n        /* \"#utility.yul\":1389:1482   */\n      tag_42\n        /* \"#utility.yul\":1478:1481   */\n      dup3\n        /* \"#utility.yul\":1469:1475   */\n      dup5\n        /* \"#utility.yul\":1389:1482   */\n      tag_27\n      jump\t// in\n    tag_42:\n        /* \"#utility.yul\":1382:1482   */\n      swap2\n      pop\n        /* \"#utility.yul\":1499:1502   */\n      dup2\n        /* \"#utility.yul\":1492:1502   */\n      swap1\n      pop\n        /* \"#utility.yul\":1237:1508   */\n      swap3\n      swap2\n      pop\n      pop\n      jump\t// out\n        /* \"#utility.yul\":1514:1933   */\n    tag_16:\n        /* \"#utility.yul\":1680:1684   */\n      0x00\n        /* \"#utility.yul\":1718:1720   */\n      0x20\n        /* \"#utility.yul\":1707:1716   */\n      dup3\n        /* \"#utility.yul\":1703:1721   */\n      add\n        /* \"#utility.yul\":1695:1721   */\n      swap1\n      pop\n        /* \"#utility.yul\":1767:1776   */\n      dup2\n        /* \"#utility.yul\":1761:1765   */\n      dup2\n        /* \"#utility.yul\":1757:1777   */\n      sub\n        /* \"#utility.yul\":1753:1754   */\n      0x00\n        /* \"#utility.yul\":1742:1751   */\n      dup4\n        /* \"#utility.yul\":1738:1755   */\n      add\n        /* \"#utility.yul\":1731:1778   */\n      mstore\n        /* \"#utility.yul\":1795:1926   */\n      tag_44\n        /* \"#utility.yul\":1921:1925   */\n      dup2\n        /* \"#utility.yul\":1795:1926   */\n      tag_35\n      jump\t// in\n    tag_44:\n        /* \"#utility.yul\":1787:1926   */\n      swap1\n      pop\n        /* \"#utility.yul\":1514:1933   */\n      swap2\n      swap1\n      pop\n      jump\t// out\n        /* \"#utility.yul\":2020:2118   */\n    tag_30:\n        /* \"#utility.yul\":2071:2077   */\n      0x00\n        /* \"#utility.yul\":2105:2110   */\n      dup2\n        /* \"#utility.yul\":2099:2111   */\n      mload\n        /* \"#utility.yul\":2089:2111   */\n      swap1\n      pop\n        /* \"#utility.yul\":2020:2118   */\n      swap2\n      swap1\n      pop\n      jump\t// out\n        /* \"#utility.yul\":2124:2271   */\n    tag_32:\n        /* \"#utility.yul\":2225:2236   */\n      0x00\n        /* \"#utility.yul\":2262:2265   */\n      dup2\n        /* \"#utility.yul\":2247:2265   */\n      swap1\n      pop\n        /* \"#utility.yul\":2124:2271   */\n      swap3\n      swap2\n      pop\n      pop\n      jump\t// out\n        /* \"#utility.yul\":2277:2446   */\n    tag_38:\n        /* \"#utility.yul\":2361:2372   */\n      0x00\n        /* \"#utility.yul\":2395:2401   */\n      dup3\n        /* \"#utility.yul\":2390:2393   */\n      dup3\n        /* \"#utility.yul\":2383:2402   */\n      mstore\n        /* \"#utility.yul\":2435:2439   */\n      0x20\n        /* \"#utility.yul\":2430:2433   */\n      dup3\n        /* \"#utility.yul\":2426:2440   */\n      add\n        /* \"#utility.yul\":2411:2440   */\n      swap1\n      pop\n        /* \"#utility.yul\":2277:2446   */\n      swap3\n      swap2\n      pop\n      pop\n      jump\t// out\n        /* \"#utility.yul\":2452:2548   */\n    tag_50:\n        /* \"#utility.yul\":2489:2496   */\n      0x00\n        /* \"#utility.yul\":2518:2542   */\n      tag_52\n        /* \"#utility.yul\":2536:2541   */\n      dup3\n        /* \"#utility.yul\":2518:2542   */\n      tag_53\n      jump\t// in\n    tag_52:\n        /* \"#utility.yul\":2507:2542   */\n      swap1\n      pop\n        /* \"#utility.yul\":2452:2548   */\n      swap2\n      swap1\n      pop\n      jump\t// out\n        /* \"#utility.yul\":2554:2680   */\n    tag_53:\n        /* \"#utility.yul\":2591:2598   */\n      0x00\n        /* \"#utility.yul\":2631:2673   */\n      0xffffffffffffffffffffffffffffffffffffffff\n        /* \"#utility.yul\":2624:2629   */\n      dup3\n        /* \"#utility.yul\":2620:2674   */\n      and\n        /* \"#utility.yul\":2609:2674   */\n      swap1\n      pop\n        /* \"#utility.yul\":2554:2680   */\n      swap2\n      swap1\n      pop\n      jump\t// out\n        /* \"#utility.yul\":2686:2993   */\n    tag_34:\n        /* \"#utility.yul\":2754:2755   */\n      0x00\n        /* \"#utility.yul\":2764:2877   */\n    tag_56:\n        /* \"#utility.yul\":2778:2784   */\n      dup4\n        /* \"#utility.yul\":2775:2776   */\n      dup2\n        /* \"#utility.yul\":2772:2785   */\n      lt\n        /* \"#utility.yul\":2764:2877   */\n      iszero\n      tag_58\n      jumpi\n        /* \"#utility.yul\":2863:2864   */\n      dup1\n        /* \"#utility.yul\":2858:2861   */\n      dup3\n        /* \"#utility.yul\":2854:2865   */\n      add\n        /* \"#utility.yul\":2848:2866   */\n      mload\n        /* \"#utility.yul\":2844:2845   */\n      dup2\n        /* \"#utility.yul\":2839:2842   */\n      dup5\n        /* \"#utility.yul\":2835:2846   */\n      add\n        /* \"#utility.yul\":2828:2867   */\n      mstore\n        /* \"#utility.yul\":2800:2802   */\n      0x20\n        /* \"#utility.yul\":2797:2798   */\n      dup2\n        /* \"#utility.yul\":2793:2803   */\n      add\n        /* \"#utility.yul\":2788:2803   */\n      swap1\n      pop\n        /* \"#utility.yul\":2764:2877   */\n      jump(tag_56)\n    tag_58:\n        /* \"#utility.yul\":2895:2901   */\n      dup4\n        /* \"#utility.yul\":2892:2893   */\n      dup2\n        /* \"#utility.yul\":2889:2902   */\n      gt\n        /* \"#utility.yul\":2886:2987   */\n      iszero\n      tag_59\n      jumpi\n        /* \"#utility.yul\":2975:2976   */\n      0x00\n        /* \"#utility.yul\":2966:2972   */\n      dup5\n        /* \"#utility.yul\":2961:2964   */\n      dup5\n        /* \"#utility.yul\":2957:2973   */\n      add\n        /* \"#utility.yul\":2950:2977   */\n      mstore\n        /* \"#utility.yul\":2886:2987   */\n    tag_59:\n        /* \"#utility.yul\":2735:2993   */\n      pop\n        /* \"#utility.yul\":2686:2993   */\n      pop\n      pop\n      pop\n      jump\t// out\n        /* \"#utility.yul\":3122:3239   */\n    tag_25:\n        /* \"#utility.yul\":3231:3232   */\n      0x00\n        /* \"#utility.yul\":3228:3229   */\n      dup1\n        /* \"#utility.yul\":3221:3233   */\n      revert\n        /* \"#utility.yul\":3245:3401   */\n    tag_40:\n        /* \"#utility.yul\":3385:3393   */\n      0x4661696c65640000000000000000000000000000000000000000000000000000\n        /* \"#utility.yul\":3381:3382   */\n      0x00\n        /* \"#utility.yul\":3373:3379   */\n      dup3\n        /* \"#utility.yul\":3369:3383   */\n      add\n        /* \"#utility.yul\":3362:3394   */\n      mstore\n        /* \"#utility.yul\":3245:3401   */\n      pop\n      jump\t// out\n        /* \"#utility.yul\":3407:3529   */\n    tag_21:\n        /* \"#utility.yul\":3480:3504   */\n      tag_65\n        /* \"#utility.yul\":3498:3503   */\n      dup2\n        /* \"#utility.yul\":3480:3504   */\n      tag_50\n      jump\t// in\n    tag_65:\n        /* \"#utility.yul\":3473:3478   */\n      dup2\n        /* \"#utility.yul\":3470:3505   */\n      eq\n        /* \"#utility.yul\":3460:3523   */\n      tag_66\n      jumpi\n        /* \"#utility.yul\":3519:3520   */\n      0x00\n        /* \"#utility.yul\":3516:3517   */\n      dup1\n        /* \"#utility.yul\":3509:3521   */\n      revert\n        /* \"#utility.yul\":3460:3523   */\n    tag_66:\n        /* \"#utility.yul\":3407:3529   */\n      pop\n      jump\t// out\n\n    auxdata: 0xa26469706673582212208d7639df96c89f64283e840c9144bfcd5f70842218a2ea4854d4cf134952c4ca64736f6c63430008070033\n}\n",
				"bytecode": {
					"linkReferences": {},
					"object": "608060405234801561001057600080fd5b50610353806100206000396000f3fe608060405234801561001057600080fd5b506004361061002b5760003560e01c80637c94c8ca14610030575b600080fd5b61004a60048036038101906100459190610194565b61004c565b005b60008173ffffffffffffffffffffffffffffffffffffffff166040516024016040516020818303038152906040527f5197c7aa000000000000000000000000000000000000000000000000000000007bffffffffffffffffffffffffffffffffffffffffffffffffffffffff19166020820180517bffffffffffffffffffffffffffffffffffffffffffffffffffffffff83818316178352505050506040516100f59190610215565b6000604051808303816000865af19150503d8060008114610132576040519150601f19603f3d011682016040523d82523d6000602084013e610137565b606091505b505090508061017b576040517f08c379a00000000000000000000000000000000000000000000000000000000081526004016101729061022c565b60405180910390fd5b5050565b60008135905061018e81610306565b92915050565b6000602082840312156101aa576101a96102d8565b5b60006101b88482850161017f565b91505092915050565b60006101cc8261024c565b6101d68185610257565b93506101e68185602086016102a5565b80840191505092915050565b60006101ff600683610262565b915061020a826102dd565b602082019050919050565b600061022182846101c1565b915081905092915050565b60006020820190508181036000830152610245816101f2565b9050919050565b600081519050919050565b600081905092915050565b600082825260208201905092915050565b600061027e82610285565b9050919050565b600073ffffffffffffffffffffffffffffffffffffffff82169050919050565b60005b838110156102c35780820151818401526020810190506102a8565b838111156102d2576000848401525b50505050565b600080fd5b7f4661696c65640000000000000000000000000000000000000000000000000000600082015250565b61030f81610273565b811461031a57600080fd5b5056fea26469706673582212208d7639df96c89f64283e840c9144bfcd5f70842218a2ea4854d4cf134952c4ca64736f6c63430008070033",
					"opcodes": "PUSH1 0x80 PUSH1 0x40 MSTORE CALLVALUE DUP1 ISZERO PUSH2 0x10 JUMPI PUSH1 0x0 DUP1 REVERT JUMPDEST POP PUSH2 0x353 DUP1 PUSH2 0x20 PUSH1 0x0 CODECOPY PUSH1 0x0 RETURN INVALID PUSH1 0x80 PUSH1 0x40 MSTORE CALLVALUE DUP1 ISZERO PUSH2 0x10 JUMPI PUSH1 0x0 DUP1 REVERT JUMPDEST POP PUSH1 0x4 CALLDATASIZE LT PUSH2 0x2B JUMPI PUSH1 0x0 CALLDATALOAD PUSH1 0xE0 SHR DUP1 PUSH4 0x7C94C8CA EQ PUSH2 0x30 JUMPI JUMPDEST PUSH1 0x0 DUP1 REVERT JUMPDEST PUSH2 0x4A PUSH1 0x4 DUP1 CALLDATASIZE SUB DUP2 ADD SWAP1 PUSH2 0x45 SWAP2 SWAP1 PUSH2 0x194 JUMP JUMPDEST PUSH2 0x4C JUMP JUMPDEST STOP JUMPDEST PUSH1 0x0 DUP2 PUSH20 0xFFFFFFFFFFFFFFFFFFFFFFFFFFFFFFFFFFFFFFFF AND PUSH1 0x40 MLOAD PUSH1 0x24 ADD PUSH1 0x40 MLOAD PUSH1 0x20 DUP2 DUP4 SUB SUB DUP2 MSTORE SWAP1 PUSH1 0x40 MSTORE PUSH32 0x5197C7AA00000000000000000000000000000000000000000000000000000000 PUSH28 0xFFFFFFFFFFFFFFFFFFFFFFFFFFFFFFFFFFFFFFFFFFFFFFFFFFFFFFFF NOT AND PUSH1 0x20 DUP3 ADD DUP1 MLOAD PUSH28 0xFFFFFFFFFFFFFFFFFFFFFFFFFFFFFFFFFFFFFFFFFFFFFFFFFFFFFFFF DUP4 DUP2 DUP4 AND OR DUP4 MSTORE POP POP POP POP PUSH1 0x40 MLOAD PUSH2 0xF5 SWAP2 SWAP1 PUSH2 0x215 JUMP JUMPDEST PUSH1 0x0 PUSH1 0x40 MLOAD DUP1 DUP4 SUB DUP2 PUSH1 0x0 DUP7 GAS CALL SWAP2 POP POP RETURNDATASIZE DUP1 PUSH1 0x0 DUP2 EQ PUSH2 0x132 JUMPI PUSH1 0x40 MLOAD SWAP2 POP PUSH1 0x1F NOT PUSH1 0x3F RETURNDATASIZE ADD AND DUP3 ADD PUSH1 0x40 MSTORE RETURNDATASIZE DUP3 MSTORE RETURNDATASIZE PUSH1 0x0 PUSH1 0x20 DUP5 ADD RETURNDATACOPY PUSH2 0x137 JUMP JUMPDEST PUSH1 0x60 SWAP2 POP JUMPDEST POP POP SWAP1 POP DUP1 PUSH2 0x17B JUMPI PUSH1 0x40 MLOAD PUSH32 0x8C379A000000000000000000000000000000000000000000000000000000000 DUP2 MSTORE PUSH1 0x4 ADD PUSH2 0x172 SWAP1 PUSH2 0x22C JUMP JUMPDEST PUSH1 0x40 MLOAD DUP1 SWAP2 SUB SWAP1 REVERT JUMPDEST POP POP JUMP JUMPDEST PUSH1 0x0 DUP2 CALLDATALOAD SWAP1 POP PUSH2 0x18E DUP2 PUSH2 0x306 JUMP JUMPDEST SWAP3 SWAP2 POP POP JUMP JUMPDEST PUSH1 0x0 PUSH1 0x20 DUP3 DUP5 SUB SLT ISZERO PUSH2 0x1AA JUMPI PUSH2 0x1A9 PUSH2 0x2D8 JUMP JUMPDEST JUMPDEST PUSH1 0x0 PUSH2 0x1B8 DUP5 DUP3 DUP6 ADD PUSH2 0x17F JUMP JUMPDEST SWAP2 POP POP SWAP3 SWAP2 POP POP JUMP JUMPDEST PUSH1 0x0 PUSH2 0x1CC DUP3 PUSH2 0x24C JUMP JUMPDEST PUSH2 0x1D6 DUP2 DUP6 PUSH2 0x257 JUMP JUMPDEST SWAP4 POP PUSH2 0x1E6 DUP2 DUP6 PUSH1 0x20 DUP7 ADD PUSH2 0x2A5 JUMP JUMPDEST DUP1 DUP5 ADD SWAP2 POP POP SWAP3 SWAP2 POP POP JUMP JUMPDEST PUSH1 0x0 PUSH2 0x1FF PUSH1 0x6 DUP4 PUSH2 0x262 JUMP JUMPDEST SWAP2 POP PUSH2 0x20A DUP3 PUSH2 0x2DD JUMP JUMPDEST PUSH1 0x20 DUP3 ADD SWAP1 POP SWAP2 SWAP1 POP JUMP JUMPDEST PUSH1 0x0 PUSH2 0x221 DUP3 DUP5 PUSH2 0x1C1 JUMP JUMPDEST SWAP2 POP DUP2 SWAP1 POP SWAP3 SWAP2 POP POP JUMP JUMPDEST PUSH1 0x0 PUSH1 0x20 DUP3 ADD SWAP1 POP DUP2 DUP2 SUB PUSH1 0x0 DUP4 ADD MSTORE PUSH2 0x245 DUP2 PUSH2 0x1F2 JUMP JUMPDEST SWAP1 POP SWAP2 SWAP1 POP JUMP JUMPDEST PUSH1 0x0 DUP2 MLOAD SWAP1 POP SWAP2 SWAP1 POP JUMP JUMPDEST PUSH1 0x0 DUP2 SWAP1 POP SWAP3 SWAP2 POP POP JUMP JUMPDEST PUSH1 0x0 DUP3 DUP3 MSTORE PUSH1 0x20 DUP3 ADD SWAP1 POP SWAP3 SWAP2 POP POP JUMP JUMPDEST PUSH1 0x0 PUSH2 0x27E DUP3 PUSH2 0x285 JUMP JUMPDEST SWAP1 POP SWAP2 SWAP1 POP JUMP JUMPDEST PUSH1 0x0 PUSH20 0xFFFFFFFFFFFFFFFFFFFFFFFFFFFFFFFFFFFFFFFF DUP3 AND SWAP1 POP SWAP2 SWAP1 POP JUMP JUMPDEST PUSH1 0x0 JUMPDEST DUP4 DUP2 LT ISZERO PUSH2 0x2C3 JUMPI DUP1 DUP3 ADD MLOAD DUP2 DUP5 ADD MSTORE PUSH1 0x20 DUP2 ADD SWAP1 POP PUSH2 0x2A8 JUMP JUMPDEST DUP4 DUP2 GT ISZERO PUSH2 0x2D2 JUMPI PUSH1 0x0 DUP5 DUP5 ADD MSTORE JUMPDEST POP POP POP POP JUMP JUMPDEST PUSH1 0x0 DUP1 REVERT JUMPDEST PUSH32 0x4661696C65640000000000000000000000000000000000000000000000000000 PUSH1 0x0 DUP3 ADD MSTORE POP JUMP JUMPDEST PUSH2 0x30F DUP2 PUSH2 0x273 JUMP JUMPDEST DUP2 EQ PUSH2 0x31A JUMPI PUSH1 0x0 DUP1 REVERT JUMPDEST POP JUMP INVALID LOG2 PUSH5 0x6970667358 0x22 SLT KECCAK256 DUP14 PUSH23 0x39DF96C89F64283E840C9144BFCD5F70842218A2EA4854 0xD4 0xCF SGT 0x49 MSTORE 0xC4 0xCA PUSH5 0x736F6C6343 STOP ADDMOD SMOD STOP CALLER "
				},
				"gasEstimates": {
					"creation": {
						"codeDepositCost": "170200",
						"executionCost": "214",
						"totalCost": "170414"
					},
					"external": {
						"getX(address)": "infinite"
					}
				},
				"methodIdentifiers": {
					"getX(address)": "7c94c8ca"
				}
			},
			"storageLayout": {
				"storage": [],
				"types": null
			},
			"userdoc": {
				"kind": "user",
				"methods": {},
				"version": 1
			}
		}
	}
}