{
	"Documents/dev/Lime/contracts/Modifiers.sol": {
		"Modifiers": {
			"abi": [
				{
					"inputs": [],
					"name": "counter",
					"outputs": [
						{
							"internalType": "uint256",
							"name": "",
							"type": "uint256"
						}
					],
					"stateMutability": "view",
					"type": "function"
				},
				{
					"inputs": [
						{
							"internalType": "uint256",
							"name": "i",
							"type": "uint256"
						}
					],
					"name": "dec",
					"outputs": [],
					"stateMutability": "nonpayable",
					"type": "function"
				},
				{
					"inputs": [
						{
							"internalType": "uint256",
							"name": "i",
							"type": "uint256"
						}
					],
					"name": "inc",
					"outputs": [],
					"stateMutability": "nonpayable",
					"type": "function"
				},
				{
					"inputs": [],
					"name": "paused",
					"outputs": [
						{
							"internalType": "bool",
							"name": "",
							"type": "bool"
						}
					],
					"stateMutability": "view",
					"type": "function"
				}
			],
			"devdoc": {
				"kind": "dev",
				"methods": {},
				"version": 1
			},
			"evm": {
				"assembly": "    /* \"Documents/dev/Lime/contracts/Modifiers.sol\":57:368  contract Modifiers{... */\n  mstore(0x40, 0x80)\n  callvalue\n  dup1\n  iszero\n  tag_1\n  jumpi\n  0x00\n  dup1\n  revert\ntag_1:\n  pop\n  dataSize(sub_0)\n  dup1\n  dataOffset(sub_0)\n  0x00\n  codecopy\n  0x00\n  return\nstop\n\nsub_0: assembly {\n        /* \"Documents/dev/Lime/contracts/Modifiers.sol\":57:368  contract Modifiers{... */\n      mstore(0x40, 0x80)\n      callvalue\n      dup1\n      iszero\n      tag_1\n      jumpi\n      0x00\n      dup1\n      revert\n    tag_1:\n      pop\n      jumpi(tag_2, lt(calldatasize, 0x04))\n      shr(0xe0, calldataload(0x00))\n      dup1\n      0x5c975abb\n      eq\n      tag_3\n      jumpi\n      dup1\n      0x61bc221a\n      eq\n      tag_4\n      jumpi\n      dup1\n      0x812600df\n      eq\n      tag_5\n      jumpi\n      dup1\n      0xc20efb90\n      eq\n      tag_6\n      jumpi\n    tag_2:\n      0x00\n      dup1\n      revert\n        /* \"Documents/dev/Lime/contracts/Modifiers.sol\":106:124  bool public paused */\n    tag_3:\n      tag_7\n      tag_8\n      jump\t// in\n    tag_7:\n      mload(0x40)\n      tag_9\n      swap2\n      swap1\n      tag_10\n      jump\t// in\n    tag_9:\n      mload(0x40)\n      dup1\n      swap2\n      sub\n      swap1\n      return\n        /* \"Documents/dev/Lime/contracts/Modifiers.sol\":81:100  uint public counter */\n    tag_4:\n      tag_11\n      tag_12\n      jump\t// in\n    tag_11:\n      mload(0x40)\n      tag_13\n      swap2\n      swap1\n      tag_14\n      jump\t// in\n    tag_13:\n      mload(0x40)\n      dup1\n      swap2\n      sub\n      swap1\n      return\n        /* \"Documents/dev/Lime/contracts/Modifiers.sol\":219:289  function inc(uint i) external checkIfPaused{... */\n    tag_5:\n      tag_15\n      0x04\n      dup1\n      calldatasize\n      sub\n      dup2\n      add\n      swap1\n      tag_16\n      swap2\n      swap1\n      tag_17\n      jump\t// in\n    tag_16:\n      tag_18\n      jump\t// in\n    tag_15:\n      stop\n        /* \"Documents/dev/Lime/contracts/Modifiers.sol\":295:365  function dec(uint i) external checkIfPaused{... */\n    tag_6:\n      tag_19\n      0x04\n      dup1\n      calldatasize\n      sub\n      dup2\n      add\n      swap1\n      tag_20\n      swap2\n      swap1\n      tag_17\n      jump\t// in\n    tag_20:\n      tag_21\n      jump\t// in\n    tag_19:\n      stop\n        /* \"Documents/dev/Lime/contracts/Modifiers.sol\":106:124  bool public paused */\n    tag_8:\n      0x01\n      0x00\n      swap1\n      sload\n      swap1\n      0x0100\n      exp\n      swap1\n      div\n      0xff\n      and\n      dup2\n      jump\t// out\n        /* \"Documents/dev/Lime/contracts/Modifiers.sol\":81:100  uint public counter */\n    tag_12:\n      sload(0x00)\n      dup2\n      jump\t// out\n        /* \"Documents/dev/Lime/contracts/Modifiers.sol\":219:289  function inc(uint i) external checkIfPaused{... */\n    tag_18:\n        /* \"Documents/dev/Lime/contracts/Modifiers.sol\":172:178  paused */\n      0x01\n      0x00\n      swap1\n      sload\n      swap1\n      0x0100\n      exp\n      swap1\n      div\n      0xff\n      and\n        /* \"Documents/dev/Lime/contracts/Modifiers.sol\":171:178  !paused */\n      iszero\n        /* \"Documents/dev/Lime/contracts/Modifiers.sol\":163:188  require(!paused,\"paused\") */\n      tag_23\n      jumpi\n      mload(0x40)\n      0x08c379a000000000000000000000000000000000000000000000000000000000\n      dup2\n      mstore\n      0x04\n      add\n      tag_24\n      swap1\n      tag_25\n      jump\t// in\n    tag_24:\n      mload(0x40)\n      dup1\n      swap2\n      sub\n      swap1\n      revert\n    tag_23:\n        /* \"Documents/dev/Lime/contracts/Modifiers.sol\":281:282  i */\n      dup1\n        /* \"Documents/dev/Lime/contracts/Modifiers.sol\":272:279  counter */\n      0x00\n      dup1\n        /* \"Documents/dev/Lime/contracts/Modifiers.sol\":272:282  counter+=i */\n      dup3\n      dup3\n      sload\n      tag_27\n      swap2\n      swap1\n      tag_28\n      jump\t// in\n    tag_27:\n      swap3\n      pop\n      pop\n      dup2\n      swap1\n      sstore\n      pop\n        /* \"Documents/dev/Lime/contracts/Modifiers.sol\":219:289  function inc(uint i) external checkIfPaused{... */\n      pop\n      jump\t// out\n        /* \"Documents/dev/Lime/contracts/Modifiers.sol\":295:365  function dec(uint i) external checkIfPaused{... */\n    tag_21:\n        /* \"Documents/dev/Lime/contracts/Modifiers.sol\":172:178  paused */\n      0x01\n      0x00\n      swap1\n      sload\n      swap1\n      0x0100\n      exp\n      swap1\n      div\n      0xff\n      and\n        /* \"Documents/dev/Lime/contracts/Modifiers.sol\":171:178  !paused */\n      iszero\n        /* \"Documents/dev/Lime/contracts/Modifiers.sol\":163:188  require(!paused,\"paused\") */\n      tag_30\n      jumpi\n      mload(0x40)\n      0x08c379a000000000000000000000000000000000000000000000000000000000\n      dup2\n      mstore\n      0x04\n      add\n      tag_31\n      swap1\n      tag_25\n      jump\t// in\n    tag_31:\n      mload(0x40)\n      dup1\n      swap2\n      sub\n      swap1\n      revert\n    tag_30:\n        /* \"Documents/dev/Lime/contracts/Modifiers.sol\":357:358  i */\n      dup1\n        /* \"Documents/dev/Lime/contracts/Modifiers.sol\":348:355  counter */\n      0x00\n      dup1\n        /* \"Documents/dev/Lime/contracts/Modifiers.sol\":348:358  counter-=i */\n      dup3\n      dup3\n      sload\n      tag_33\n      swap2\n      swap1\n      tag_34\n      jump\t// in\n    tag_33:\n      swap3\n      pop\n      pop\n      dup2\n      swap1\n      sstore\n      pop\n        /* \"Documents/dev/Lime/contracts/Modifiers.sol\":295:365  function dec(uint i) external checkIfPaused{... */\n      pop\n      jump\t// out\n        /* \"#utility.yul\":7:146   */\n    tag_36:\n        /* \"#utility.yul\":53:58   */\n      0x00\n        /* \"#utility.yul\":91:97   */\n      dup2\n        /* \"#utility.yul\":78:98   */\n      calldataload\n        /* \"#utility.yul\":69:98   */\n      swap1\n      pop\n        /* \"#utility.yul\":107:140   */\n      tag_38\n        /* \"#utility.yul\":134:139   */\n      dup2\n        /* \"#utility.yul\":107:140   */\n      tag_39\n      jump\t// in\n    tag_38:\n        /* \"#utility.yul\":7:146   */\n      swap3\n      swap2\n      pop\n      pop\n      jump\t// out\n        /* \"#utility.yul\":152:481   */\n    tag_17:\n        /* \"#utility.yul\":211:217   */\n      0x00\n        /* \"#utility.yul\":260:262   */\n      0x20\n        /* \"#utility.yul\":248:257   */\n      dup3\n        /* \"#utility.yul\":239:246   */\n      dup5\n        /* \"#utility.yul\":235:258   */\n      sub\n        /* \"#utility.yul\":231:263   */\n      slt\n        /* \"#utility.yul\":228:347   */\n      iszero\n      tag_41\n      jumpi\n        /* \"#utility.yul\":266:345   */\n      tag_42\n      tag_43\n      jump\t// in\n    tag_42:\n        /* \"#utility.yul\":228:347   */\n    tag_41:\n        /* \"#utility.yul\":386:387   */\n      0x00\n        /* \"#utility.yul\":411:464   */\n      tag_44\n        /* \"#utility.yul\":456:463   */\n      dup5\n        /* \"#utility.yul\":447:453   */\n      dup3\n        /* \"#utility.yul\":436:445   */\n      dup6\n        /* \"#utility.yul\":432:454   */\n      add\n        /* \"#utility.yul\":411:464   */\n      tag_36\n      jump\t// in\n    tag_44:\n        /* \"#utility.yul\":401:464   */\n      swap2\n      pop\n        /* \"#utility.yul\":357:474   */\n      pop\n        /* \"#utility.yul\":152:481   */\n      swap3\n      swap2\n      pop\n      pop\n      jump\t// out\n        /* \"#utility.yul\":487:596   */\n    tag_45:\n        /* \"#utility.yul\":568:589   */\n      tag_47\n        /* \"#utility.yul\":583:588   */\n      dup2\n        /* \"#utility.yul\":568:589   */\n      tag_48\n      jump\t// in\n    tag_47:\n        /* \"#utility.yul\":563:566   */\n      dup3\n        /* \"#utility.yul\":556:590   */\n      mstore\n        /* \"#utility.yul\":487:596   */\n      pop\n      pop\n      jump\t// out\n        /* \"#utility.yul\":602:967   */\n    tag_49:\n        /* \"#utility.yul\":744:747   */\n      0x00\n        /* \"#utility.yul\":765:831   */\n      tag_51\n        /* \"#utility.yul\":829:830   */\n      0x06\n        /* \"#utility.yul\":824:827   */\n      dup4\n        /* \"#utility.yul\":765:831   */\n      tag_52\n      jump\t// in\n    tag_51:\n        /* \"#utility.yul\":758:831   */\n      swap2\n      pop\n        /* \"#utility.yul\":840:933   */\n      tag_53\n        /* \"#utility.yul\":929:932   */\n      dup3\n        /* \"#utility.yul\":840:933   */\n      tag_54\n      jump\t// in\n    tag_53:\n        /* \"#utility.yul\":958:960   */\n      0x20\n        /* \"#utility.yul\":953:956   */\n      dup3\n        /* \"#utility.yul\":949:961   */\n      add\n        /* \"#utility.yul\":942:961   */\n      swap1\n      pop\n        /* \"#utility.yul\":602:967   */\n      swap2\n      swap1\n      pop\n      jump\t// out\n        /* \"#utility.yul\":973:1091   */\n    tag_55:\n        /* \"#utility.yul\":1060:1084   */\n      tag_57\n        /* \"#utility.yul\":1078:1083   */\n      dup2\n        /* \"#utility.yul\":1060:1084   */\n      tag_58\n      jump\t// in\n    tag_57:\n        /* \"#utility.yul\":1055:1058   */\n      dup3\n        /* \"#utility.yul\":1048:1085   */\n      mstore\n        /* \"#utility.yul\":973:1091   */\n      pop\n      pop\n      jump\t// out\n        /* \"#utility.yul\":1097:1307   */\n    tag_10:\n        /* \"#utility.yul\":1184:1188   */\n      0x00\n        /* \"#utility.yul\":1222:1224   */\n      0x20\n        /* \"#utility.yul\":1211:1220   */\n      dup3\n        /* \"#utility.yul\":1207:1225   */\n      add\n        /* \"#utility.yul\":1199:1225   */\n      swap1\n      pop\n        /* \"#utility.yul\":1235:1300   */\n      tag_60\n        /* \"#utility.yul\":1297:1298   */\n      0x00\n        /* \"#utility.yul\":1286:1295   */\n      dup4\n        /* \"#utility.yul\":1282:1299   */\n      add\n        /* \"#utility.yul\":1273:1279   */\n      dup5\n        /* \"#utility.yul\":1235:1300   */\n      tag_45\n      jump\t// in\n    tag_60:\n        /* \"#utility.yul\":1097:1307   */\n      swap3\n      swap2\n      pop\n      pop\n      jump\t// out\n        /* \"#utility.yul\":1313:1732   */\n    tag_25:\n        /* \"#utility.yul\":1479:1483   */\n      0x00\n        /* \"#utility.yul\":1517:1519   */\n      0x20\n        /* \"#utility.yul\":1506:1515   */\n      dup3\n        /* \"#utility.yul\":1502:1520   */\n      add\n        /* \"#utility.yul\":1494:1520   */\n      swap1\n      pop\n        /* \"#utility.yul\":1566:1575   */\n      dup2\n        /* \"#utility.yul\":1560:1564   */\n      dup2\n        /* \"#utility.yul\":1556:1576   */\n      sub\n        /* \"#utility.yul\":1552:1553   */\n      0x00\n        /* \"#utility.yul\":1541:1550   */\n      dup4\n        /* \"#utility.yul\":1537:1554   */\n      add\n        /* \"#utility.yul\":1530:1577   */\n      mstore\n        /* \"#utility.yul\":1594:1725   */\n      tag_62\n        /* \"#utility.yul\":1720:1724   */\n      dup2\n        /* \"#utility.yul\":1594:1725   */\n      tag_49\n      jump\t// in\n    tag_62:\n        /* \"#utility.yul\":1586:1725   */\n      swap1\n      pop\n        /* \"#utility.yul\":1313:1732   */\n      swap2\n      swap1\n      pop\n      jump\t// out\n        /* \"#utility.yul\":1738:1960   */\n    tag_14:\n        /* \"#utility.yul\":1831:1835   */\n      0x00\n        /* \"#utility.yul\":1869:1871   */\n      0x20\n        /* \"#utility.yul\":1858:1867   */\n      dup3\n        /* \"#utility.yul\":1854:1872   */\n      add\n        /* \"#utility.yul\":1846:1872   */\n      swap1\n      pop\n        /* \"#utility.yul\":1882:1953   */\n      tag_64\n        /* \"#utility.yul\":1950:1951   */\n      0x00\n        /* \"#utility.yul\":1939:1948   */\n      dup4\n        /* \"#utility.yul\":1935:1952   */\n      add\n        /* \"#utility.yul\":1926:1932   */\n      dup5\n        /* \"#utility.yul\":1882:1953   */\n      tag_55\n      jump\t// in\n    tag_64:\n        /* \"#utility.yul\":1738:1960   */\n      swap3\n      swap2\n      pop\n      pop\n      jump\t// out\n        /* \"#utility.yul\":2047:2216   */\n    tag_52:\n        /* \"#utility.yul\":2131:2142   */\n      0x00\n        /* \"#utility.yul\":2165:2171   */\n      dup3\n        /* \"#utility.yul\":2160:2163   */\n      dup3\n        /* \"#utility.yul\":2153:2172   */\n      mstore\n        /* \"#utility.yul\":2205:2209   */\n      0x20\n        /* \"#utility.yul\":2200:2203   */\n      dup3\n        /* \"#utility.yul\":2196:2210   */\n      add\n        /* \"#utility.yul\":2181:2210   */\n      swap1\n      pop\n        /* \"#utility.yul\":2047:2216   */\n      swap3\n      swap2\n      pop\n      pop\n      jump\t// out\n        /* \"#utility.yul\":2222:2527   */\n    tag_28:\n        /* \"#utility.yul\":2262:2265   */\n      0x00\n        /* \"#utility.yul\":2281:2301   */\n      tag_69\n        /* \"#utility.yul\":2299:2300   */\n      dup3\n        /* \"#utility.yul\":2281:2301   */\n      tag_58\n      jump\t// in\n    tag_69:\n        /* \"#utility.yul\":2276:2301   */\n      swap2\n      pop\n        /* \"#utility.yul\":2315:2335   */\n      tag_70\n        /* \"#utility.yul\":2333:2334   */\n      dup4\n        /* \"#utility.yul\":2315:2335   */\n      tag_58\n      jump\t// in\n    tag_70:\n        /* \"#utility.yul\":2310:2335   */\n      swap3\n      pop\n        /* \"#utility.yul\":2469:2470   */\n      dup3\n        /* \"#utility.yul\":2401:2467   */\n      0xffffffffffffffffffffffffffffffffffffffffffffffffffffffffffffffff\n        /* \"#utility.yul\":2397:2471   */\n      sub\n        /* \"#utility.yul\":2394:2395   */\n      dup3\n        /* \"#utility.yul\":2391:2472   */\n      gt\n        /* \"#utility.yul\":2388:2495   */\n      iszero\n      tag_71\n      jumpi\n        /* \"#utility.yul\":2475:2493   */\n      tag_72\n      tag_73\n      jump\t// in\n    tag_72:\n        /* \"#utility.yul\":2388:2495   */\n    tag_71:\n        /* \"#utility.yul\":2519:2520   */\n      dup3\n        /* \"#utility.yul\":2516:2517   */\n      dup3\n        /* \"#utility.yul\":2512:2521   */\n      add\n        /* \"#utility.yul\":2505:2521   */\n      swap1\n      pop\n        /* \"#utility.yul\":2222:2527   */\n      swap3\n      swap2\n      pop\n      pop\n      jump\t// out\n        /* \"#utility.yul\":2533:2724   */\n    tag_34:\n        /* \"#utility.yul\":2573:2577   */\n      0x00\n        /* \"#utility.yul\":2593:2613   */\n      tag_75\n        /* \"#utility.yul\":2611:2612   */\n      dup3\n        /* \"#utility.yul\":2593:2613   */\n      tag_58\n      jump\t// in\n    tag_75:\n        /* \"#utility.yul\":2588:2613   */\n      swap2\n      pop\n        /* \"#utility.yul\":2627:2647   */\n      tag_76\n        /* \"#utility.yul\":2645:2646   */\n      dup4\n        /* \"#utility.yul\":2627:2647   */\n      tag_58\n      jump\t// in\n    tag_76:\n        /* \"#utility.yul\":2622:2647   */\n      swap3\n      pop\n        /* \"#utility.yul\":2666:2667   */\n      dup3\n        /* \"#utility.yul\":2663:2664   */\n      dup3\n        /* \"#utility.yul\":2660:2668   */\n      lt\n        /* \"#utility.yul\":2657:2691   */\n      iszero\n      tag_77\n      jumpi\n        /* \"#utility.yul\":2671:2689   */\n      tag_78\n      tag_73\n      jump\t// in\n    tag_78:\n        /* \"#utility.yul\":2657:2691   */\n    tag_77:\n        /* \"#utility.yul\":2716:2717   */\n      dup3\n        /* \"#utility.yul\":2713:2714   */\n      dup3\n        /* \"#utility.yul\":2709:2718   */\n      sub\n        /* \"#utility.yul\":2701:2718   */\n      swap1\n      pop\n        /* \"#utility.yul\":2533:2724   */\n      swap3\n      swap2\n      pop\n      pop\n      jump\t// out\n        /* \"#utility.yul\":2730:2820   */\n    tag_48:\n        /* \"#utility.yul\":2764:2771   */\n      0x00\n        /* \"#utility.yul\":2807:2812   */\n      dup2\n        /* \"#utility.yul\":2800:2813   */\n      iszero\n        /* \"#utility.yul\":2793:2814   */\n      iszero\n        /* \"#utility.yul\":2782:2814   */\n      swap1\n      pop\n        /* \"#utility.yul\":2730:2820   */\n      swap2\n      swap1\n      pop\n      jump\t// out\n        /* \"#utility.yul\":2826:2903   */\n    tag_58:\n        /* \"#utility.yul\":2863:2870   */\n      0x00\n        /* \"#utility.yul\":2892:2897   */\n      dup2\n        /* \"#utility.yul\":2881:2897   */\n      swap1\n      pop\n        /* \"#utility.yul\":2826:2903   */\n      swap2\n      swap1\n      pop\n      jump\t// out\n        /* \"#utility.yul\":2909:3089   */\n    tag_73:\n        /* \"#utility.yul\":2957:3034   */\n      0x4e487b7100000000000000000000000000000000000000000000000000000000\n        /* \"#utility.yul\":2954:2955   */\n      0x00\n        /* \"#utility.yul\":2947:3035   */\n      mstore\n        /* \"#utility.yul\":3054:3058   */\n      0x11\n        /* \"#utility.yul\":3051:3052   */\n      0x04\n        /* \"#utility.yul\":3044:3059   */\n      mstore\n        /* \"#utility.yul\":3078:3082   */\n      0x24\n        /* \"#utility.yul\":3075:3076   */\n      0x00\n        /* \"#utility.yul\":3068:3083   */\n      revert\n        /* \"#utility.yul\":3218:3335   */\n    tag_43:\n        /* \"#utility.yul\":3327:3328   */\n      0x00\n        /* \"#utility.yul\":3324:3325   */\n      dup1\n        /* \"#utility.yul\":3317:3329   */\n      revert\n        /* \"#utility.yul\":3341:3497   */\n    tag_54:\n        /* \"#utility.yul\":3481:3489   */\n      0x7061757365640000000000000000000000000000000000000000000000000000\n        /* \"#utility.yul\":3477:3478   */\n      0x00\n        /* \"#utility.yul\":3469:3475   */\n      dup3\n        /* \"#utility.yul\":3465:3479   */\n      add\n        /* \"#utility.yul\":3458:3490   */\n      mstore\n        /* \"#utility.yul\":3341:3497   */\n      pop\n      jump\t// out\n        /* \"#utility.yul\":3503:3625   */\n    tag_39:\n        /* \"#utility.yul\":3576:3600   */\n      tag_87\n        /* \"#utility.yul\":3594:3599   */\n      dup2\n        /* \"#utility.yul\":3576:3600   */\n      tag_58\n      jump\t// in\n    tag_87:\n        /* \"#utility.yul\":3569:3574   */\n      dup2\n        /* \"#utility.yul\":3566:3601   */\n      eq\n        /* \"#utility.yul\":3556:3619   */\n      tag_88\n      jumpi\n        /* \"#utility.yul\":3615:3616   */\n      0x00\n        /* \"#utility.yul\":3612:3613   */\n      dup1\n        /* \"#utility.yul\":3605:3617   */\n      revert\n        /* \"#utility.yul\":3556:3619   */\n    tag_88:\n        /* \"#utility.yul\":3503:3625   */\n      pop\n      jump\t// out\n\n    auxdata: 0xa26469706673582212207fa17d9355ab926ca2aadaf28fce70ef6648e511e8ba4c65cca87ee9b6737dfc64736f6c63430008070033\n}\n",
				"bytecode": {
					"linkReferences": {},
					"object": "608060405234801561001057600080fd5b506103e8806100206000396000f3fe608060405234801561001057600080fd5b506004361061004c5760003560e01c80635c975abb1461005157806361bc221a1461006f578063812600df1461008d578063c20efb90146100a9575b600080fd5b6100596100c5565b6040516100669190610237565b60405180910390f35b6100776100d8565b6040516100849190610272565b60405180910390f35b6100a760048036038101906100a291906101c9565b6100de565b005b6100c360048036038101906100be91906101c9565b610149565b005b600160009054906101000a900460ff1681565b60005481565b600160009054906101000a900460ff161561012e576040517f08c379a000000000000000000000000000000000000000000000000000000000815260040161012590610252565b60405180910390fd5b8060008082825461013f919061029e565b9250508190555050565b600160009054906101000a900460ff1615610199576040517f08c379a000000000000000000000000000000000000000000000000000000000815260040161019090610252565b60405180910390fd5b806000808282546101aa91906102f4565b9250508190555050565b6000813590506101c38161039b565b92915050565b6000602082840312156101df576101de61036d565b5b60006101ed848285016101b4565b91505092915050565b6101ff81610328565b82525050565b600061021260068361028d565b915061021d82610372565b602082019050919050565b61023181610334565b82525050565b600060208201905061024c60008301846101f6565b92915050565b6000602082019050818103600083015261026b81610205565b9050919050565b60006020820190506102876000830184610228565b92915050565b600082825260208201905092915050565b60006102a982610334565b91506102b483610334565b9250827fffffffffffffffffffffffffffffffffffffffffffffffffffffffffffffffff038211156102e9576102e861033e565b5b828201905092915050565b60006102ff82610334565b915061030a83610334565b92508282101561031d5761031c61033e565b5b828203905092915050565b60008115159050919050565b6000819050919050565b7f4e487b7100000000000000000000000000000000000000000000000000000000600052601160045260246000fd5b600080fd5b7f7061757365640000000000000000000000000000000000000000000000000000600082015250565b6103a481610334565b81146103af57600080fd5b5056fea26469706673582212207fa17d9355ab926ca2aadaf28fce70ef6648e511e8ba4c65cca87ee9b6737dfc64736f6c63430008070033",
					"opcodes": "PUSH1 0x80 PUSH1 0x40 MSTORE CALLVALUE DUP1 ISZERO PUSH2 0x10 JUMPI PUSH1 0x0 DUP1 REVERT JUMPDEST POP PUSH2 0x3E8 DUP1 PUSH2 0x20 PUSH1 0x0 CODECOPY PUSH1 0x0 RETURN INVALID PUSH1 0x80 PUSH1 0x40 MSTORE CALLVALUE DUP1 ISZERO PUSH2 0x10 JUMPI PUSH1 0x0 DUP1 REVERT JUMPDEST POP PUSH1 0x4 CALLDATASIZE LT PUSH2 0x4C JUMPI PUSH1 0x0 CALLDATALOAD PUSH1 0xE0 SHR DUP1 PUSH4 0x5C975ABB EQ PUSH2 0x51 JUMPI DUP1 PUSH4 0x61BC221A EQ PUSH2 0x6F JUMPI DUP1 PUSH4 0x812600DF EQ PUSH2 0x8D JUMPI DUP1 PUSH4 0xC20EFB90 EQ PUSH2 0xA9 JUMPI JUMPDEST PUSH1 0x0 DUP1 REVERT JUMPDEST PUSH2 0x59 PUSH2 0xC5 JUMP JUMPDEST PUSH1 0x40 MLOAD PUSH2 0x66 SWAP2 SWAP1 PUSH2 0x237 JUMP JUMPDEST PUSH1 0x40 MLOAD DUP1 SWAP2 SUB SWAP1 RETURN JUMPDEST PUSH2 0x77 PUSH2 0xD8 JUMP JUMPDEST PUSH1 0x40 MLOAD PUSH2 0x84 SWAP2 SWAP1 PUSH2 0x272 JUMP JUMPDEST PUSH1 0x40 MLOAD DUP1 SWAP2 SUB SWAP1 RETURN JUMPDEST PUSH2 0xA7 PUSH1 0x4 DUP1 CALLDATASIZE SUB DUP2 ADD SWAP1 PUSH2 0xA2 SWAP2 SWAP1 PUSH2 0x1C9 JUMP JUMPDEST PUSH2 0xDE JUMP JUMPDEST STOP JUMPDEST PUSH2 0xC3 PUSH1 0x4 DUP1 CALLDATASIZE SUB DUP2 ADD SWAP1 PUSH2 0xBE SWAP2 SWAP1 PUSH2 0x1C9 JUMP JUMPDEST PUSH2 0x149 JUMP JUMPDEST STOP JUMPDEST PUSH1 0x1 PUSH1 0x0 SWAP1 SLOAD SWAP1 PUSH2 0x100 EXP SWAP1 DIV PUSH1 0xFF AND DUP2 JUMP JUMPDEST PUSH1 0x0 SLOAD DUP2 JUMP JUMPDEST PUSH1 0x1 PUSH1 0x0 SWAP1 SLOAD SWAP1 PUSH2 0x100 EXP SWAP1 DIV PUSH1 0xFF AND ISZERO PUSH2 0x12E JUMPI PUSH1 0x40 MLOAD PUSH32 0x8C379A000000000000000000000000000000000000000000000000000000000 DUP2 MSTORE PUSH1 0x4 ADD PUSH2 0x125 SWAP1 PUSH2 0x252 JUMP JUMPDEST PUSH1 0x40 MLOAD DUP1 SWAP2 SUB SWAP1 REVERT JUMPDEST DUP1 PUSH1 0x0 DUP1 DUP3 DUP3 SLOAD PUSH2 0x13F SWAP2 SWAP1 PUSH2 0x29E JUMP JUMPDEST SWAP3 POP POP DUP2 SWAP1 SSTORE POP POP JUMP JUMPDEST PUSH1 0x1 PUSH1 0x0 SWAP1 SLOAD SWAP1 PUSH2 0x100 EXP SWAP1 DIV PUSH1 0xFF AND ISZERO PUSH2 0x199 JUMPI PUSH1 0x40 MLOAD PUSH32 0x8C379A000000000000000000000000000000000000000000000000000000000 DUP2 MSTORE PUSH1 0x4 ADD PUSH2 0x190 SWAP1 PUSH2 0x252 JUMP JUMPDEST PUSH1 0x40 MLOAD DUP1 SWAP2 SUB SWAP1 REVERT JUMPDEST DUP1 PUSH1 0x0 DUP1 DUP3 DUP3 SLOAD PUSH2 0x1AA SWAP2 SWAP1 PUSH2 0x2F4 JUMP JUMPDEST SWAP3 POP POP DUP2 SWAP1 SSTORE POP POP JUMP JUMPDEST PUSH1 0x0 DUP2 CALLDATALOAD SWAP1 POP PUSH2 0x1C3 DUP2 PUSH2 0x39B JUMP JUMPDEST SWAP3 SWAP2 POP POP JUMP JUMPDEST PUSH1 0x0 PUSH1 0x20 DUP3 DUP5 SUB SLT ISZERO PUSH2 0x1DF JUMPI PUSH2 0x1DE PUSH2 0x36D JUMP JUMPDEST JUMPDEST PUSH1 0x0 PUSH2 0x1ED DUP5 DUP3 DUP6 ADD PUSH2 0x1B4 JUMP JUMPDEST SWAP2 POP POP SWAP3 SWAP2 POP POP JUMP JUMPDEST PUSH2 0x1FF DUP2 PUSH2 0x328 JUMP JUMPDEST DUP3 MSTORE POP POP JUMP JUMPDEST PUSH1 0x0 PUSH2 0x212 PUSH1 0x6 DUP4 PUSH2 0x28D JUMP JUMPDEST SWAP2 POP PUSH2 0x21D DUP3 PUSH2 0x372 JUMP JUMPDEST PUSH1 0x20 DUP3 ADD SWAP1 POP SWAP2 SWAP1 POP JUMP JUMPDEST PUSH2 0x231 DUP2 PUSH2 0x334 JUMP JUMPDEST DUP3 MSTORE POP POP JUMP JUMPDEST PUSH1 0x0 PUSH1 0x20 DUP3 ADD SWAP1 POP PUSH2 0x24C PUSH1 0x0 DUP4 ADD DUP5 PUSH2 0x1F6 JUMP JUMPDEST SWAP3 SWAP2 POP POP JUMP JUMPDEST PUSH1 0x0 PUSH1 0x20 DUP3 ADD SWAP1 POP DUP2 DUP2 SUB PUSH1 0x0 DUP4 ADD MSTORE PUSH2 0x26B DUP2 PUSH2 0x205 JUMP JUMPDEST SWAP1 POP SWAP2 SWAP1 POP JUMP JUMPDEST PUSH1 0x0 PUSH1 0x20 DUP3 ADD SWAP1 POP PUSH2 0x287 PUSH1 0x0 DUP4 ADD DUP5 PUSH2 0x228 JUMP JUMPDEST SWAP3 SWAP2 POP POP JUMP JUMPDEST PUSH1 0x0 DUP3 DUP3 MSTORE PUSH1 0x20 DUP3 ADD SWAP1 POP SWAP3 SWAP2 POP POP JUMP JUMPDEST PUSH1 0x0 PUSH2 0x2A9 DUP3 PUSH2 0x334 JUMP JUMPDEST SWAP2 POP PUSH2 0x2B4 DUP4 PUSH2 0x334 JUMP JUMPDEST SWAP3 POP DUP3 PUSH32 0xFFFFFFFFFFFFFFFFFFFFFFFFFFFFFFFFFFFFFFFFFFFFFFFFFFFFFFFFFFFFFFFF SUB DUP3 GT ISZERO PUSH2 0x2E9 JUMPI PUSH2 0x2E8 PUSH2 0x33E JUMP JUMPDEST JUMPDEST DUP3 DUP3 ADD SWAP1 POP SWAP3 SWAP2 POP POP JUMP JUMPDEST PUSH1 0x0 PUSH2 0x2FF DUP3 PUSH2 0x334 JUMP JUMPDEST SWAP2 POP PUSH2 0x30A DUP4 PUSH2 0x334 JUMP JUMPDEST SWAP3 POP DUP3 DUP3 LT ISZERO PUSH2 0x31D JUMPI PUSH2 0x31C PUSH2 0x33E JUMP JUMPDEST JUMPDEST DUP3 DUP3 SUB SWAP1 POP SWAP3 SWAP2 POP POP JUMP JUMPDEST PUSH1 0x0 DUP2 ISZERO ISZERO SWAP1 POP SWAP2 SWAP1 POP JUMP JUMPDEST PUSH1 0x0 DUP2 SWAP1 POP SWAP2 SWAP1 POP JUMP JUMPDEST PUSH32 0x4E487B7100000000000000000000000000000000000000000000000000000000 PUSH1 0x0 MSTORE PUSH1 0x11 PUSH1 0x4 MSTORE PUSH1 0x24 PUSH1 0x0 REVERT JUMPDEST PUSH1 0x0 DUP1 REVERT JUMPDEST PUSH32 0x7061757365640000000000000000000000000000000000000000000000000000 PUSH1 0x0 DUP3 ADD MSTORE POP JUMP JUMPDEST PUSH2 0x3A4 DUP2 PUSH2 0x334 JUMP JUMPDEST DUP2 EQ PUSH2 0x3AF JUMPI PUSH1 0x0 DUP1 REVERT JUMPDEST POP JUMP INVALID LOG2 PUSH5 0x6970667358 0x22 SLT KECCAK256 PUSH32 0xA17D9355AB926CA2AADAF28FCE70EF6648E511E8BA4C65CCA87EE9B6737DFC64 PUSH20 0x6F6C634300080700330000000000000000000000 "
				},
				"gasEstimates": {
					"creation": {
						"codeDepositCost": "200000",
						"executionCost": "245",
						"totalCost": "200245"
					},
					"external": {
						"counter()": "2429",
						"dec(uint256)": "infinite",
						"inc(uint256)": "infinite",
						"paused()": "2449"
					}
				},
				"methodIdentifiers": {
					"counter()": "61bc221a",
					"dec(uint256)": "c20efb90",
					"inc(uint256)": "812600df",
					"paused()": "5c975abb"
				}
			},
			"storageLayout": {
				"storage": [
					{
						"astId": 3,
						"contract": "Documents/dev/Lime/contracts/Modifiers.sol:Modifiers",
						"label": "counter",
						"offset": 0,
						"slot": "0",
						"type": "t_uint256"
					},
					{
						"astId": 5,
						"contract": "Documents/dev/Lime/contracts/Modifiers.sol:Modifiers",
						"label": "paused",
						"offset": 0,
						"slot": "1",
						"type": "t_bool"
					}
				],
				"types": {
					"t_bool": {
						"encoding": "inplace",
						"label": "bool",
						"numberOfBytes": "1"
					},
					"t_uint256": {
						"encoding": "inplace",
						"label": "uint256",
						"numberOfBytes": "32"
					}
				}
			},
			"userdoc": {
				"kind": "user",
				"methods": {},
				"version": 1
			}
		}
	}
}