{
	"Payable.sol": {
		"Payable": {
			"abi": [
				{
					"inputs": [],
					"stateMutability": "nonpayable",
					"type": "constructor"
				},
				{
					"inputs": [],
					"name": "getBalance",
					"outputs": [
						{
							"internalType": "uint256",
							"name": "",
							"type": "uint256"
						}
					],
					"stateMutability": "view",
					"type": "function"
				},
				{
					"inputs": [],
					"name": "owner",
					"outputs": [
						{
							"internalType": "address payable",
							"name": "",
							"type": "address"
						}
					],
					"stateMutability": "view",
					"type": "function"
				}
			],
			"devdoc": {
				"kind": "dev",
				"methods": {},
				"version": 1
			},
			"evm": {
				"assembly": "    /* \"Payable.sol\":56:234  contract Payable{... */\n  mstore(0x40, 0x80)\n    /* \"Payable.sol\":113:170  constructor(){... */\n  callvalue\n  dup1\n  iszero\n  tag_1\n  jumpi\n  0x00\n  dup1\n  revert\ntag_1:\n  pop\n    /* \"Payable.sol\":152:162  msg.sender */\n  caller\n    /* \"Payable.sol\":136:141  owner */\n  0x00\n  dup1\n    /* \"Payable.sol\":136:163  owner = payable(msg.sender) */\n  0x0100\n  exp\n  dup2\n  sload\n  dup2\n  0xffffffffffffffffffffffffffffffffffffffff\n  mul\n  not\n  and\n  swap1\n  dup4\n  0xffffffffffffffffffffffffffffffffffffffff\n  and\n  mul\n  or\n  swap1\n  sstore\n  pop\n    /* \"Payable.sol\":56:234  contract Payable{... */\n  dataSize(sub_0)\n  dup1\n  dataOffset(sub_0)\n  0x00\n  codecopy\n  0x00\n  return\nstop\n\nsub_0: assembly {\n        /* \"Payable.sol\":56:234  contract Payable{... */\n      mstore(0x40, 0x80)\n      callvalue\n      dup1\n      iszero\n      tag_1\n      jumpi\n      0x00\n      dup1\n      revert\n    tag_1:\n      pop\n      jumpi(tag_2, lt(calldatasize, 0x04))\n      shr(0xe0, calldataload(0x00))\n      dup1\n      0x12065fe0\n      eq\n      tag_3\n      jumpi\n      dup1\n      0x8da5cb5b\n      eq\n      tag_4\n      jumpi\n    tag_2:\n      0x00\n      dup1\n      revert\n        /* \"Payable.sol\":176:232  function getBalance() external view returns(uint){... */\n    tag_3:\n      tag_5\n      tag_6\n      jump\t// in\n    tag_5:\n      mload(0x40)\n      tag_7\n      swap2\n      swap1\n      tag_8\n      jump\t// in\n    tag_7:\n      mload(0x40)\n      dup1\n      swap2\n      sub\n      swap1\n      return\n        /* \"Payable.sol\":78:106  address payable public owner */\n    tag_4:\n      tag_9\n      tag_10\n      jump\t// in\n    tag_9:\n      mload(0x40)\n      tag_11\n      swap2\n      swap1\n      tag_12\n      jump\t// in\n    tag_11:\n      mload(0x40)\n      dup1\n      swap2\n      sub\n      swap1\n      return\n        /* \"Payable.sol\":176:232  function getBalance() external view returns(uint){... */\n    tag_6:\n        /* \"Payable.sol\":220:224  uint */\n      0x00\n        /* \"Payable.sol\":176:232  function getBalance() external view returns(uint){... */\n      swap1\n      jump\t// out\n        /* \"Payable.sol\":78:106  address payable public owner */\n    tag_10:\n      0x00\n      dup1\n      sload\n      swap1\n      0x0100\n      exp\n      swap1\n      div\n      0xffffffffffffffffffffffffffffffffffffffff\n      and\n      dup2\n      jump\t// out\n        /* \"#utility.yul\":7:149   */\n    tag_15:\n        /* \"#utility.yul\":110:142   */\n      tag_17\n        /* \"#utility.yul\":136:141   */\n      dup2\n        /* \"#utility.yul\":110:142   */\n      tag_18\n      jump\t// in\n    tag_17:\n        /* \"#utility.yul\":105:108   */\n      dup3\n        /* \"#utility.yul\":98:143   */\n      mstore\n        /* \"#utility.yul\":7:149   */\n      pop\n      pop\n      jump\t// out\n        /* \"#utility.yul\":155:273   */\n    tag_19:\n        /* \"#utility.yul\":242:266   */\n      tag_21\n        /* \"#utility.yul\":260:265   */\n      dup2\n        /* \"#utility.yul\":242:266   */\n      tag_22\n      jump\t// in\n    tag_21:\n        /* \"#utility.yul\":237:240   */\n      dup3\n        /* \"#utility.yul\":230:267   */\n      mstore\n        /* \"#utility.yul\":155:273   */\n      pop\n      pop\n      jump\t// out\n        /* \"#utility.yul\":279:533   */\n    tag_12:\n        /* \"#utility.yul\":388:392   */\n      0x00\n        /* \"#utility.yul\":426:428   */\n      0x20\n        /* \"#utility.yul\":415:424   */\n      dup3\n        /* \"#utility.yul\":411:429   */\n      add\n        /* \"#utility.yul\":403:429   */\n      swap1\n      pop\n        /* \"#utility.yul\":439:526   */\n      tag_24\n        /* \"#utility.yul\":523:524   */\n      0x00\n        /* \"#utility.yul\":512:521   */\n      dup4\n        /* \"#utility.yul\":508:525   */\n      add\n        /* \"#utility.yul\":499:505   */\n      dup5\n        /* \"#utility.yul\":439:526   */\n      tag_15\n      jump\t// in\n    tag_24:\n        /* \"#utility.yul\":279:533   */\n      swap3\n      swap2\n      pop\n      pop\n      jump\t// out\n        /* \"#utility.yul\":539:761   */\n    tag_8:\n        /* \"#utility.yul\":632:636   */\n      0x00\n        /* \"#utility.yul\":670:672   */\n      0x20\n        /* \"#utility.yul\":659:668   */\n      dup3\n        /* \"#utility.yul\":655:673   */\n      add\n        /* \"#utility.yul\":647:673   */\n      swap1\n      pop\n        /* \"#utility.yul\":683:754   */\n      tag_26\n        /* \"#utility.yul\":751:752   */\n      0x00\n        /* \"#utility.yul\":740:749   */\n      dup4\n        /* \"#utility.yul\":736:753   */\n      add\n        /* \"#utility.yul\":727:733   */\n      dup5\n        /* \"#utility.yul\":683:754   */\n      tag_19\n      jump\t// in\n    tag_26:\n        /* \"#utility.yul\":539:761   */\n      swap3\n      swap2\n      pop\n      pop\n      jump\t// out\n        /* \"#utility.yul\":767:871   */\n    tag_18:\n        /* \"#utility.yul\":812:819   */\n      0x00\n        /* \"#utility.yul\":841:865   */\n      tag_28\n        /* \"#utility.yul\":859:864   */\n      dup3\n        /* \"#utility.yul\":841:865   */\n      tag_29\n      jump\t// in\n    tag_28:\n        /* \"#utility.yul\":830:865   */\n      swap1\n      pop\n        /* \"#utility.yul\":767:871   */\n      swap2\n      swap1\n      pop\n      jump\t// out\n        /* \"#utility.yul\":877:1003   */\n    tag_29:\n        /* \"#utility.yul\":914:921   */\n      0x00\n        /* \"#utility.yul\":954:996   */\n      0xffffffffffffffffffffffffffffffffffffffff\n        /* \"#utility.yul\":947:952   */\n      dup3\n        /* \"#utility.yul\":943:997   */\n      and\n        /* \"#utility.yul\":932:997   */\n      swap1\n      pop\n        /* \"#utility.yul\":877:1003   */\n      swap2\n      swap1\n      pop\n      jump\t// out\n        /* \"#utility.yul\":1009:1086   */\n    tag_22:\n        /* \"#utility.yul\":1046:1053   */\n      0x00\n        /* \"#utility.yul\":1075:1080   */\n      dup2\n        /* \"#utility.yul\":1064:1080   */\n      swap1\n      pop\n        /* \"#utility.yul\":1009:1086   */\n      swap2\n      swap1\n      pop\n      jump\t// out\n\n    auxdata: 0xa264697066735822122002259c2ac77249a7722a5e247fc48644ee4e100ae0cf9d09a43b410c2cf3069e64736f6c63430008070033\n}\n",
				"bytecode": {
					"linkReferences": {},
					"object": "608060405234801561001057600080fd5b50336000806101000a81548173ffffffffffffffffffffffffffffffffffffffff021916908373ffffffffffffffffffffffffffffffffffffffff160217905550610166806100606000396000f3fe608060405234801561001057600080fd5b50600436106100365760003560e01c806312065fe01461003b5780638da5cb5b14610059575b600080fd5b610043610077565b60405161005091906100d9565b60405180910390f35b61006161007c565b60405161006e91906100be565b60405180910390f35b600090565b60008054906101000a900473ffffffffffffffffffffffffffffffffffffffff1681565b6100a9816100f4565b82525050565b6100b881610126565b82525050565b60006020820190506100d360008301846100a0565b92915050565b60006020820190506100ee60008301846100af565b92915050565b60006100ff82610106565b9050919050565b600073ffffffffffffffffffffffffffffffffffffffff82169050919050565b600081905091905056fea264697066735822122002259c2ac77249a7722a5e247fc48644ee4e100ae0cf9d09a43b410c2cf3069e64736f6c63430008070033",
					"opcodes": "PUSH1 0x80 PUSH1 0x40 MSTORE CALLVALUE DUP1 ISZERO PUSH2 0x10 JUMPI PUSH1 0x0 DUP1 REVERT JUMPDEST POP CALLER PUSH1 0x0 DUP1 PUSH2 0x100 EXP DUP2 SLOAD DUP2 PUSH20 0xFFFFFFFFFFFFFFFFFFFFFFFFFFFFFFFFFFFFFFFF MUL NOT AND SWAP1 DUP4 PUSH20 0xFFFFFFFFFFFFFFFFFFFFFFFFFFFFFFFFFFFFFFFF AND MUL OR SWAP1 SSTORE POP PUSH2 0x166 DUP1 PUSH2 0x60 PUSH1 0x0 CODECOPY PUSH1 0x0 RETURN INVALID PUSH1 0x80 PUSH1 0x40 MSTORE CALLVALUE DUP1 ISZERO PUSH2 0x10 JUMPI PUSH1 0x0 DUP1 REVERT JUMPDEST POP PUSH1 0x4 CALLDATASIZE LT PUSH2 0x36 JUMPI PUSH1 0x0 CALLDATALOAD PUSH1 0xE0 SHR DUP1 PUSH4 0x12065FE0 EQ PUSH2 0x3B JUMPI DUP1 PUSH4 0x8DA5CB5B EQ PUSH2 0x59 JUMPI JUMPDEST PUSH1 0x0 DUP1 REVERT JUMPDEST PUSH2 0x43 PUSH2 0x77 JUMP JUMPDEST PUSH1 0x40 MLOAD PUSH2 0x50 SWAP2 SWAP1 PUSH2 0xD9 JUMP JUMPDEST PUSH1 0x40 MLOAD DUP1 SWAP2 SUB SWAP1 RETURN JUMPDEST PUSH2 0x61 PUSH2 0x7C JUMP JUMPDEST PUSH1 0x40 MLOAD PUSH2 0x6E SWAP2 SWAP1 PUSH2 0xBE JUMP JUMPDEST PUSH1 0x40 MLOAD DUP1 SWAP2 SUB SWAP1 RETURN JUMPDEST PUSH1 0x0 SWAP1 JUMP JUMPDEST PUSH1 0x0 DUP1 SLOAD SWAP1 PUSH2 0x100 EXP SWAP1 DIV PUSH20 0xFFFFFFFFFFFFFFFFFFFFFFFFFFFFFFFFFFFFFFFF AND DUP2 JUMP JUMPDEST PUSH2 0xA9 DUP2 PUSH2 0xF4 JUMP JUMPDEST DUP3 MSTORE POP POP JUMP JUMPDEST PUSH2 0xB8 DUP2 PUSH2 0x126 JUMP JUMPDEST DUP3 MSTORE POP POP JUMP JUMPDEST PUSH1 0x0 PUSH1 0x20 DUP3 ADD SWAP1 POP PUSH2 0xD3 PUSH1 0x0 DUP4 ADD DUP5 PUSH2 0xA0 JUMP JUMPDEST SWAP3 SWAP2 POP POP JUMP JUMPDEST PUSH1 0x0 PUSH1 0x20 DUP3 ADD SWAP1 POP PUSH2 0xEE PUSH1 0x0 DUP4 ADD DUP5 PUSH2 0xAF JUMP JUMPDEST SWAP3 SWAP2 POP POP JUMP JUMPDEST PUSH1 0x0 PUSH2 0xFF DUP3 PUSH2 0x106 JUMP JUMPDEST SWAP1 POP SWAP2 SWAP1 POP JUMP JUMPDEST PUSH1 0x0 PUSH20 0xFFFFFFFFFFFFFFFFFFFFFFFFFFFFFFFFFFFFFFFF DUP3 AND SWAP1 POP SWAP2 SWAP1 POP JUMP JUMPDEST PUSH1 0x0 DUP2 SWAP1 POP SWAP2 SWAP1 POP JUMP INVALID LOG2 PUSH5 0x6970667358 0x22 SLT KECCAK256 MUL 0x25 SWAP13 0x2A 0xC7 PUSH19 0x49A7722A5E247FC48644EE4E100AE0CF9D09A4 EXTCODESIZE COINBASE 0xC 0x2C RETURN MOD SWAP15 PUSH5 0x736F6C6343 STOP ADDMOD SMOD STOP CALLER "
				},
				"gasEstimates": {
					"creation": {
						"codeDepositCost": "71600",
						"executionCost": "24389",
						"totalCost": "95989"
					},
					"external": {
						"getBalance()": "307",
						"owner()": "2511"
					}
				},
				"methodIdentifiers": {
					"getBalance()": "12065fe0",
					"owner()": "8da5cb5b"
				}
			},
			"storageLayout": {
				"storage": [
					{
						"astId": 3,
						"contract": "Payable.sol:Payable",
						"label": "owner",
						"offset": 0,
						"slot": "0",
						"type": "t_address_payable"
					}
				],
				"types": {
					"t_address_payable": {
						"encoding": "inplace",
						"label": "address payable",
						"numberOfBytes": "20"
					}
				}
			},
			"userdoc": {
				"kind": "user",
				"methods": {},
				"version": 1
			}
		}
	}
}