{
	"ChangeVarsWithDelegate.sol": {
		"Deployed": {
			"abi": [
				{
					"inputs": [
						{
							"internalType": "uint256",
							"name": "d1",
							"type": "uint256"
						},
						{
							"internalType": "string",
							"name": "d2",
							"type": "string"
						},
						{
							"internalType": "address",
							"name": "d3",
							"type": "address"
						}
					],
					"name": "set",
					"outputs": [],
					"stateMutability": "nonpayable",
					"type": "function"
				}
			],
			"devdoc": {
				"kind": "dev",
				"methods": {},
				"version": 1
			},
			"evm": {
				"assembly": "    /* \"ChangeVarsWithDelegate.sol\":57:214  contract Deployed{... */\n  mstore(0x40, 0x80)\n  callvalue\n  dup1\n  iszero\n  tag_1\n  jumpi\n  0x00\n  dup1\n  revert\ntag_1:\n  pop\n  dataSize(sub_0)\n  dup1\n  dataOffset(sub_0)\n  0x00\n  codecopy\n  0x00\n  return\nstop\n\nsub_0: assembly {\n        /* \"ChangeVarsWithDelegate.sol\":57:214  contract Deployed{... */\n      mstore(0x40, 0x80)\n      callvalue\n      dup1\n      iszero\n      tag_1\n      jumpi\n      0x00\n      dup1\n      revert\n    tag_1:\n      pop\n      jumpi(tag_2, lt(calldatasize, 0x04))\n      shr(0xe0, calldataload(0x00))\n      dup1\n      0x5eba0df0\n      eq\n      tag_3\n      jumpi\n    tag_2:\n      0x00\n      dup1\n      revert\n        /* \"ChangeVarsWithDelegate.sol\":134:211  function set(uint d1,string calldata d2,address d3) external {... */\n    tag_3:\n      tag_4\n      0x04\n      dup1\n      calldatasize\n      sub\n      dup2\n      add\n      swap1\n      tag_5\n      swap2\n      swap1\n      tag_6\n      jump\t// in\n    tag_5:\n      tag_7\n      jump\t// in\n    tag_4:\n      stop\n    tag_7:\n      pop\n      pop\n      pop\n      pop\n      jump\t// out\n        /* \"#utility.yul\":7:146   */\n    tag_10:\n        /* \"#utility.yul\":53:58   */\n      0x00\n        /* \"#utility.yul\":91:97   */\n      dup2\n        /* \"#utility.yul\":78:98   */\n      calldataload\n        /* \"#utility.yul\":69:98   */\n      swap1\n      pop\n        /* \"#utility.yul\":107:140   */\n      tag_12\n        /* \"#utility.yul\":134:139   */\n      dup2\n        /* \"#utility.yul\":107:140   */\n      tag_13\n      jump\t// in\n    tag_12:\n        /* \"#utility.yul\":7:146   */\n      swap3\n      swap2\n      pop\n      pop\n      jump\t// out\n        /* \"#utility.yul\":166:719   */\n    tag_14:\n        /* \"#utility.yul\":224:232   */\n      0x00\n        /* \"#utility.yul\":234:240   */\n      dup1\n        /* \"#utility.yul\":284:287   */\n      dup4\n        /* \"#utility.yul\":277:281   */\n      0x1f\n        /* \"#utility.yul\":269:275   */\n      dup5\n        /* \"#utility.yul\":265:282   */\n      add\n        /* \"#utility.yul\":261:288   */\n      slt\n        /* \"#utility.yul\":251:373   */\n      tag_16\n      jumpi\n        /* \"#utility.yul\":292:371   */\n      tag_17\n      tag_18\n      jump\t// in\n    tag_17:\n        /* \"#utility.yul\":251:373   */\n    tag_16:\n        /* \"#utility.yul\":405:411   */\n      dup3\n        /* \"#utility.yul\":392:412   */\n      calldataload\n        /* \"#utility.yul\":382:412   */\n      swap1\n      pop\n        /* \"#utility.yul\":435:453   */\n      0xffffffffffffffff\n        /* \"#utility.yul\":427:433   */\n      dup2\n        /* \"#utility.yul\":424:454   */\n      gt\n        /* \"#utility.yul\":421:538   */\n      iszero\n      tag_19\n      jumpi\n        /* \"#utility.yul\":457:536   */\n      tag_20\n      tag_21\n      jump\t// in\n    tag_20:\n        /* \"#utility.yul\":421:538   */\n    tag_19:\n        /* \"#utility.yul\":571:575   */\n      0x20\n        /* \"#utility.yul\":563:569   */\n      dup4\n        /* \"#utility.yul\":559:576   */\n      add\n        /* \"#utility.yul\":547:576   */\n      swap2\n      pop\n        /* \"#utility.yul\":625:628   */\n      dup4\n        /* \"#utility.yul\":617:621   */\n      0x01\n        /* \"#utility.yul\":609:615   */\n      dup3\n        /* \"#utility.yul\":605:622   */\n      mul\n        /* \"#utility.yul\":595:603   */\n      dup4\n        /* \"#utility.yul\":591:623   */\n      add\n        /* \"#utility.yul\":588:629   */\n      gt\n        /* \"#utility.yul\":585:713   */\n      iszero\n      tag_22\n      jumpi\n        /* \"#utility.yul\":632:711   */\n      tag_23\n      tag_24\n      jump\t// in\n    tag_23:\n        /* \"#utility.yul\":585:713   */\n    tag_22:\n        /* \"#utility.yul\":166:719   */\n      swap3\n      pop\n      swap3\n      swap1\n      pop\n      jump\t// out\n        /* \"#utility.yul\":725:864   */\n    tag_25:\n        /* \"#utility.yul\":771:776   */\n      0x00\n        /* \"#utility.yul\":809:815   */\n      dup2\n        /* \"#utility.yul\":796:816   */\n      calldataload\n        /* \"#utility.yul\":787:816   */\n      swap1\n      pop\n        /* \"#utility.yul\":825:858   */\n      tag_27\n        /* \"#utility.yul\":852:857   */\n      dup2\n        /* \"#utility.yul\":825:858   */\n      tag_28\n      jump\t// in\n    tag_27:\n        /* \"#utility.yul\":725:864   */\n      swap3\n      swap2\n      pop\n      pop\n      jump\t// out\n        /* \"#utility.yul\":870:1689   */\n    tag_6:\n        /* \"#utility.yul\":959:965   */\n      0x00\n        /* \"#utility.yul\":967:973   */\n      dup1\n        /* \"#utility.yul\":975:981   */\n      0x00\n        /* \"#utility.yul\":983:989   */\n      dup1\n        /* \"#utility.yul\":1032:1034   */\n      0x60\n        /* \"#utility.yul\":1020:1029   */\n      dup6\n        /* \"#utility.yul\":1011:1018   */\n      dup8\n        /* \"#utility.yul\":1007:1030   */\n      sub\n        /* \"#utility.yul\":1003:1035   */\n      slt\n        /* \"#utility.yul\":1000:1119   */\n      iszero\n      tag_30\n      jumpi\n        /* \"#utility.yul\":1038:1117   */\n      tag_31\n      tag_32\n      jump\t// in\n    tag_31:\n        /* \"#utility.yul\":1000:1119   */\n    tag_30:\n        /* \"#utility.yul\":1158:1159   */\n      0x00\n        /* \"#utility.yul\":1183:1236   */\n      tag_33\n        /* \"#utility.yul\":1228:1235   */\n      dup8\n        /* \"#utility.yul\":1219:1225   */\n      dup3\n        /* \"#utility.yul\":1208:1217   */\n      dup9\n        /* \"#utility.yul\":1204:1226   */\n      add\n        /* \"#utility.yul\":1183:1236   */\n      tag_25\n      jump\t// in\n    tag_33:\n        /* \"#utility.yul\":1173:1236   */\n      swap5\n      pop\n        /* \"#utility.yul\":1129:1246   */\n      pop\n        /* \"#utility.yul\":1313:1315   */\n      0x20\n        /* \"#utility.yul\":1302:1311   */\n      dup6\n        /* \"#utility.yul\":1298:1316   */\n      add\n        /* \"#utility.yul\":1285:1317   */\n      calldataload\n        /* \"#utility.yul\":1344:1362   */\n      0xffffffffffffffff\n        /* \"#utility.yul\":1336:1342   */\n      dup2\n        /* \"#utility.yul\":1333:1363   */\n      gt\n        /* \"#utility.yul\":1330:1447   */\n      iszero\n      tag_34\n      jumpi\n        /* \"#utility.yul\":1366:1445   */\n      tag_35\n      tag_36\n      jump\t// in\n    tag_35:\n        /* \"#utility.yul\":1330:1447   */\n    tag_34:\n        /* \"#utility.yul\":1479:1544   */\n      tag_37\n        /* \"#utility.yul\":1536:1543   */\n      dup8\n        /* \"#utility.yul\":1527:1533   */\n      dup3\n        /* \"#utility.yul\":1516:1525   */\n      dup9\n        /* \"#utility.yul\":1512:1534   */\n      add\n        /* \"#utility.yul\":1479:1544   */\n      tag_14\n      jump\t// in\n    tag_37:\n        /* \"#utility.yul\":1461:1544   */\n      swap4\n      pop\n      swap4\n      pop\n        /* \"#utility.yul\":1256:1554   */\n      pop\n        /* \"#utility.yul\":1593:1595   */\n      0x40\n        /* \"#utility.yul\":1619:1672   */\n      tag_38\n        /* \"#utility.yul\":1664:1671   */\n      dup8\n        /* \"#utility.yul\":1655:1661   */\n      dup3\n        /* \"#utility.yul\":1644:1653   */\n      dup9\n        /* \"#utility.yul\":1640:1662   */\n      add\n        /* \"#utility.yul\":1619:1672   */\n      tag_10\n      jump\t// in\n    tag_38:\n        /* \"#utility.yul\":1609:1672   */\n      swap2\n      pop\n        /* \"#utility.yul\":1564:1682   */\n      pop\n        /* \"#utility.yul\":870:1689   */\n      swap3\n      swap6\n      swap2\n      swap5\n      pop\n      swap3\n      pop\n      jump\t// out\n        /* \"#utility.yul\":1776:1872   */\n    tag_41:\n        /* \"#utility.yul\":1813:1820   */\n      0x00\n        /* \"#utility.yul\":1842:1866   */\n      tag_43\n        /* \"#utility.yul\":1860:1865   */\n      dup3\n        /* \"#utility.yul\":1842:1866   */\n      tag_44\n      jump\t// in\n    tag_43:\n        /* \"#utility.yul\":1831:1866   */\n      swap1\n      pop\n        /* \"#utility.yul\":1776:1872   */\n      swap2\n      swap1\n      pop\n      jump\t// out\n        /* \"#utility.yul\":1878:2004   */\n    tag_44:\n        /* \"#utility.yul\":1915:1922   */\n      0x00\n        /* \"#utility.yul\":1955:1997   */\n      0xffffffffffffffffffffffffffffffffffffffff\n        /* \"#utility.yul\":1948:1953   */\n      dup3\n        /* \"#utility.yul\":1944:1998   */\n      and\n        /* \"#utility.yul\":1933:1998   */\n      swap1\n      pop\n        /* \"#utility.yul\":1878:2004   */\n      swap2\n      swap1\n      pop\n      jump\t// out\n        /* \"#utility.yul\":2010:2087   */\n    tag_46:\n        /* \"#utility.yul\":2047:2054   */\n      0x00\n        /* \"#utility.yul\":2076:2081   */\n      dup2\n        /* \"#utility.yul\":2065:2081   */\n      swap1\n      pop\n        /* \"#utility.yul\":2010:2087   */\n      swap2\n      swap1\n      pop\n      jump\t// out\n        /* \"#utility.yul\":2093:2210   */\n    tag_21:\n        /* \"#utility.yul\":2202:2203   */\n      0x00\n        /* \"#utility.yul\":2199:2200   */\n      dup1\n        /* \"#utility.yul\":2192:2204   */\n      revert\n        /* \"#utility.yul\":2216:2333   */\n    tag_18:\n        /* \"#utility.yul\":2325:2326   */\n      0x00\n        /* \"#utility.yul\":2322:2323   */\n      dup1\n        /* \"#utility.yul\":2315:2327   */\n      revert\n        /* \"#utility.yul\":2339:2456   */\n    tag_24:\n        /* \"#utility.yul\":2448:2449   */\n      0x00\n        /* \"#utility.yul\":2445:2446   */\n      dup1\n        /* \"#utility.yul\":2438:2450   */\n      revert\n        /* \"#utility.yul\":2462:2579   */\n    tag_36:\n        /* \"#utility.yul\":2571:2572   */\n      0x00\n        /* \"#utility.yul\":2568:2569   */\n      dup1\n        /* \"#utility.yul\":2561:2573   */\n      revert\n        /* \"#utility.yul\":2585:2702   */\n    tag_32:\n        /* \"#utility.yul\":2694:2695   */\n      0x00\n        /* \"#utility.yul\":2691:2692   */\n      dup1\n        /* \"#utility.yul\":2684:2696   */\n      revert\n        /* \"#utility.yul\":2708:2830   */\n    tag_13:\n        /* \"#utility.yul\":2781:2805   */\n      tag_54\n        /* \"#utility.yul\":2799:2804   */\n      dup2\n        /* \"#utility.yul\":2781:2805   */\n      tag_41\n      jump\t// in\n    tag_54:\n        /* \"#utility.yul\":2774:2779   */\n      dup2\n        /* \"#utility.yul\":2771:2806   */\n      eq\n        /* \"#utility.yul\":2761:2824   */\n      tag_55\n      jumpi\n        /* \"#utility.yul\":2820:2821   */\n      0x00\n        /* \"#utility.yul\":2817:2818   */\n      dup1\n        /* \"#utility.yul\":2810:2822   */\n      revert\n        /* \"#utility.yul\":2761:2824   */\n    tag_55:\n        /* \"#utility.yul\":2708:2830   */\n      pop\n      jump\t// out\n        /* \"#utility.yul\":2836:2958   */\n    tag_28:\n        /* \"#utility.yul\":2909:2933   */\n      tag_57\n        /* \"#utility.yul\":2927:2932   */\n      dup2\n        /* \"#utility.yul\":2909:2933   */\n      tag_46\n      jump\t// in\n    tag_57:\n        /* \"#utility.yul\":2902:2907   */\n      dup2\n        /* \"#utility.yul\":2899:2934   */\n      eq\n        /* \"#utility.yul\":2889:2952   */\n      tag_58\n      jumpi\n        /* \"#utility.yul\":2948:2949   */\n      0x00\n        /* \"#utility.yul\":2945:2946   */\n      dup1\n        /* \"#utility.yul\":2938:2950   */\n      revert\n        /* \"#utility.yul\":2889:2952   */\n    tag_58:\n        /* \"#utility.yul\":2836:2958   */\n      pop\n      jump\t// out\n\n    auxdata: 0xa2646970667358221220fae3abe7e8c84e9291f8e19f7cc08e0271098720e9722f7c6466717969e2183964736f6c63430008070033\n}\n",
				"bytecode": {
					"linkReferences": {},
					"object": "608060405234801561001057600080fd5b506101ff806100206000396000f3fe608060405234801561001057600080fd5b506004361061002b5760003560e01c80635eba0df014610030575b600080fd5b61004a600480360381019061004591906100d2565b61004c565b005b50505050565b6000813590506100618161019b565b92915050565b60008083601f84011261007d5761007c610187565b5b8235905067ffffffffffffffff81111561009a57610099610182565b5b6020830191508360018202830111156100b6576100b561018c565b5b9250929050565b6000813590506100cc816101b2565b92915050565b600080600080606085870312156100ec576100eb610196565b5b60006100fa878288016100bd565b945050602085013567ffffffffffffffff81111561011b5761011a610191565b5b61012787828801610067565b9350935050604061013a87828801610052565b91505092959194509250565b600061015182610158565b9050919050565b600073ffffffffffffffffffffffffffffffffffffffff82169050919050565b6000819050919050565b600080fd5b600080fd5b600080fd5b600080fd5b600080fd5b6101a481610146565b81146101af57600080fd5b50565b6101bb81610178565b81146101c657600080fd5b5056fea2646970667358221220fae3abe7e8c84e9291f8e19f7cc08e0271098720e9722f7c6466717969e2183964736f6c63430008070033",
					"opcodes": "PUSH1 0x80 PUSH1 0x40 MSTORE CALLVALUE DUP1 ISZERO PUSH2 0x10 JUMPI PUSH1 0x0 DUP1 REVERT JUMPDEST POP PUSH2 0x1FF DUP1 PUSH2 0x20 PUSH1 0x0 CODECOPY PUSH1 0x0 RETURN INVALID PUSH1 0x80 PUSH1 0x40 MSTORE CALLVALUE DUP1 ISZERO PUSH2 0x10 JUMPI PUSH1 0x0 DUP1 REVERT JUMPDEST POP PUSH1 0x4 CALLDATASIZE LT PUSH2 0x2B JUMPI PUSH1 0x0 CALLDATALOAD PUSH1 0xE0 SHR DUP1 PUSH4 0x5EBA0DF0 EQ PUSH2 0x30 JUMPI JUMPDEST PUSH1 0x0 DUP1 REVERT JUMPDEST PUSH2 0x4A PUSH1 0x4 DUP1 CALLDATASIZE SUB DUP2 ADD SWAP1 PUSH2 0x45 SWAP2 SWAP1 PUSH2 0xD2 JUMP JUMPDEST PUSH2 0x4C JUMP JUMPDEST STOP JUMPDEST POP POP POP POP JUMP JUMPDEST PUSH1 0x0 DUP2 CALLDATALOAD SWAP1 POP PUSH2 0x61 DUP2 PUSH2 0x19B JUMP JUMPDEST SWAP3 SWAP2 POP POP JUMP JUMPDEST PUSH1 0x0 DUP1 DUP4 PUSH1 0x1F DUP5 ADD SLT PUSH2 0x7D JUMPI PUSH2 0x7C PUSH2 0x187 JUMP JUMPDEST JUMPDEST DUP3 CALLDATALOAD SWAP1 POP PUSH8 0xFFFFFFFFFFFFFFFF DUP2 GT ISZERO PUSH2 0x9A JUMPI PUSH2 0x99 PUSH2 0x182 JUMP JUMPDEST JUMPDEST PUSH1 0x20 DUP4 ADD SWAP2 POP DUP4 PUSH1 0x1 DUP3 MUL DUP4 ADD GT ISZERO PUSH2 0xB6 JUMPI PUSH2 0xB5 PUSH2 0x18C JUMP JUMPDEST JUMPDEST SWAP3 POP SWAP3 SWAP1 POP JUMP JUMPDEST PUSH1 0x0 DUP2 CALLDATALOAD SWAP1 POP PUSH2 0xCC DUP2 PUSH2 0x1B2 JUMP JUMPDEST SWAP3 SWAP2 POP POP JUMP JUMPDEST PUSH1 0x0 DUP1 PUSH1 0x0 DUP1 PUSH1 0x60 DUP6 DUP8 SUB SLT ISZERO PUSH2 0xEC JUMPI PUSH2 0xEB PUSH2 0x196 JUMP JUMPDEST JUMPDEST PUSH1 0x0 PUSH2 0xFA DUP8 DUP3 DUP9 ADD PUSH2 0xBD JUMP JUMPDEST SWAP5 POP POP PUSH1 0x20 DUP6 ADD CALLDATALOAD PUSH8 0xFFFFFFFFFFFFFFFF DUP2 GT ISZERO PUSH2 0x11B JUMPI PUSH2 0x11A PUSH2 0x191 JUMP JUMPDEST JUMPDEST PUSH2 0x127 DUP8 DUP3 DUP9 ADD PUSH2 0x67 JUMP JUMPDEST SWAP4 POP SWAP4 POP POP PUSH1 0x40 PUSH2 0x13A DUP8 DUP3 DUP9 ADD PUSH2 0x52 JUMP JUMPDEST SWAP2 POP POP SWAP3 SWAP6 SWAP2 SWAP5 POP SWAP3 POP JUMP JUMPDEST PUSH1 0x0 PUSH2 0x151 DUP3 PUSH2 0x158 JUMP JUMPDEST SWAP1 POP SWAP2 SWAP1 POP JUMP JUMPDEST PUSH1 0x0 PUSH20 0xFFFFFFFFFFFFFFFFFFFFFFFFFFFFFFFFFFFFFFFF DUP3 AND SWAP1 POP SWAP2 SWAP1 POP JUMP JUMPDEST PUSH1 0x0 DUP2 SWAP1 POP SWAP2 SWAP1 POP JUMP JUMPDEST PUSH1 0x0 DUP1 REVERT JUMPDEST PUSH1 0x0 DUP1 REVERT JUMPDEST PUSH1 0x0 DUP1 REVERT JUMPDEST PUSH1 0x0 DUP1 REVERT JUMPDEST PUSH1 0x0 DUP1 REVERT JUMPDEST PUSH2 0x1A4 DUP2 PUSH2 0x146 JUMP JUMPDEST DUP2 EQ PUSH2 0x1AF JUMPI PUSH1 0x0 DUP1 REVERT JUMPDEST POP JUMP JUMPDEST PUSH2 0x1BB DUP2 PUSH2 0x178 JUMP JUMPDEST DUP2 EQ PUSH2 0x1C6 JUMPI PUSH1 0x0 DUP1 REVERT JUMPDEST POP JUMP INVALID LOG2 PUSH5 0x6970667358 0x22 SLT KECCAK256 STATICCALL 0xE3 0xAB 0xE7 0xE8 0xC8 0x4E SWAP3 SWAP2 0xF8 0xE1 SWAP16 PUSH29 0xC08E0271098720E9722F7C6466717969E2183964736F6C634300080700 CALLER "
				},
				"gasEstimates": {
					"creation": {
						"codeDepositCost": "102200",
						"executionCost": "147",
						"totalCost": "102347"
					},
					"external": {
						"set(uint256,string,address)": "847"
					}
				},
				"methodIdentifiers": {
					"set(uint256,string,address)": "5eba0df0"
				}
			},
			"storageLayout": {
				"storage": [
					{
						"astId": 3,
						"contract": "ChangeVarsWithDelegate.sol:Deployed",
						"label": "data1",
						"offset": 0,
						"slot": "0",
						"type": "t_uint256"
					},
					{
						"astId": 5,
						"contract": "ChangeVarsWithDelegate.sol:Deployed",
						"label": "data2",
						"offset": 0,
						"slot": "1",
						"type": "t_string_storage"
					},
					{
						"astId": 7,
						"contract": "ChangeVarsWithDelegate.sol:Deployed",
						"label": "data3",
						"offset": 0,
						"slot": "2",
						"type": "t_address"
					}
				],
				"types": {
					"t_address": {
						"encoding": "inplace",
						"label": "address",
						"numberOfBytes": "20"
					},
					"t_string_storage": {
						"encoding": "bytes",
						"label": "string",
						"numberOfBytes": "32"
					},
					"t_uint256": {
						"encoding": "inplace",
						"label": "uint256",
						"numberOfBytes": "32"
					}
				}
			},
			"userdoc": {
				"kind": "user",
				"methods": {},
				"version": 1
			}
		}
	}
}