{
	"MultiSigWallet.sol": {
		"MultiSigWallet": {
			"abi": [
				{
					"inputs": [
						{
							"internalType": "address[]",
							"name": "_owners",
							"type": "address[]"
						},
						{
							"internalType": "int256",
							"name": "_required",
							"type": "int256"
						}
					],
					"stateMutability": "nonpayable",
					"type": "constructor"
				},
				{
					"inputs": [
						{
							"internalType": "uint256",
							"name": "txId",
							"type": "uint256"
						}
					],
					"name": "approve",
					"outputs": [],
					"stateMutability": "nonpayable",
					"type": "function"
				},
				{
					"inputs": [
						{
							"internalType": "uint256",
							"name": "txId",
							"type": "uint256"
						}
					],
					"name": "getApprovedCount",
					"outputs": [
						{
							"internalType": "uint256",
							"name": "count",
							"type": "uint256"
						}
					],
					"stateMutability": "view",
					"type": "function"
				},
				{
					"inputs": [
						{
							"internalType": "address",
							"name": "_destination",
							"type": "address"
						},
						{
							"internalType": "uint256",
							"name": "_amount",
							"type": "uint256"
						},
						{
							"internalType": "bytes",
							"name": "_data",
							"type": "bytes"
						}
					],
					"name": "submit",
					"outputs": [],
					"stateMutability": "nonpayable",
					"type": "function"
				},
				{
					"stateMutability": "payable",
					"type": "receive"
				}
			],
			"devdoc": {
				"kind": "dev",
				"methods": {},
				"version": 1
			},
			"evm": {
				"assembly": "    /* \"MultiSigWallet.sol\":56:1622  contract MultiSigWallet{... */\n  mstore(0x40, 0x80)\n    /* \"MultiSigWallet.sol\":375:758  constructor(address[] memory _owners, int _required){... */\n  callvalue\n  dup1\n  iszero\n  tag_1\n  jumpi\n  0x00\n  dup1\n  revert\ntag_1:\n  pop\n  mload(0x40)\n  sub(codesize, bytecodeSize)\n  dup1\n  bytecodeSize\n  dup4\n  codecopy\n  dup2\n  dup2\n  add\n  0x40\n  mstore\n  dup2\n  add\n  swap1\n  tag_2\n  swap2\n  swap1\n  tag_3\n  jump\t// in\ntag_2:\n    /* \"MultiSigWallet.sol\":460:461  0 */\n  0x00\n    /* \"MultiSigWallet.sol\":445:452  _owners */\n  dup3\n    /* \"MultiSigWallet.sol\":445:459  _owners.length */\n  mload\n    /* \"MultiSigWallet.sol\":445:461  _owners.length>0 */\n  gt\n    /* \"MultiSigWallet.sol\":437:474  require(_owners.length>0,\"no owners\") */\n  tag_6\n  jumpi\n  mload(0x40)\n  0x08c379a000000000000000000000000000000000000000000000000000000000\n  dup2\n  mstore\n  0x04\n  add\n  tag_7\n  swap1\n  tag_8\n  jump\t// in\ntag_7:\n  mload(0x40)\n  dup1\n  swap2\n  sub\n  swap1\n  revert\ntag_6:\n    /* \"MultiSigWallet.sol\":488:494  uint i */\n  0x00\n    /* \"MultiSigWallet.sol\":484:752  for(uint i=0;i<_owners.length;i++){... */\ntag_9:\n    /* \"MultiSigWallet.sol\":499:506  _owners */\n  dup3\n    /* \"MultiSigWallet.sol\":499:513  _owners.length */\n  mload\n    /* \"MultiSigWallet.sol\":497:498  i */\n  dup2\n    /* \"MultiSigWallet.sol\":497:513  i<_owners.length */\n  lt\n    /* \"MultiSigWallet.sol\":484:752  for(uint i=0;i<_owners.length;i++){... */\n  iszero\n  tag_10\n  jumpi\n    /* \"MultiSigWallet.sol\":532:545  address owner */\n  0x00\n    /* \"MultiSigWallet.sol\":548:555  _owners */\n  dup4\n    /* \"MultiSigWallet.sol\":556:557  i */\n  dup3\n    /* \"MultiSigWallet.sol\":548:558  _owners[i] */\n  dup2\n  mload\n  dup2\n  lt\n  tag_12\n  jumpi\n  tag_13\n  tag_14\n  jump\t// in\ntag_13:\ntag_12:\n  0x20\n  mul\n  0x20\n  add\n  add\n  mload\n    /* \"MultiSigWallet.sol\":532:558  address owner = _owners[i] */\n  swap1\n  pop\n    /* \"MultiSigWallet.sol\":600:601  0 */\n  0x00\n    /* \"MultiSigWallet.sol\":580:602  _owners[i]!=address(0) */\n  0xffffffffffffffffffffffffffffffffffffffff\n  and\n    /* \"MultiSigWallet.sol\":580:587  _owners */\n  dup5\n    /* \"MultiSigWallet.sol\":588:589  i */\n  dup4\n    /* \"MultiSigWallet.sol\":580:590  _owners[i] */\n  dup2\n  mload\n  dup2\n  lt\n  tag_15\n  jumpi\n  tag_16\n  tag_14\n  jump\t// in\ntag_16:\ntag_15:\n  0x20\n  mul\n  0x20\n  add\n  add\n  mload\n    /* \"MultiSigWallet.sol\":580:602  _owners[i]!=address(0) */\n  0xffffffffffffffffffffffffffffffffffffffff\n  and\n  eq\n  iszero\n    /* \"MultiSigWallet.sol\":572:621  require(_owners[i]!=address(0),\"invalid address\") */\n  tag_17\n  jumpi\n  mload(0x40)\n  0x08c379a000000000000000000000000000000000000000000000000000000000\n  dup2\n  mstore\n  0x04\n  add\n  tag_18\n  swap1\n  tag_19\n  jump\t// in\ntag_18:\n  mload(0x40)\n  dup1\n  swap2\n  sub\n  swap1\n  revert\ntag_17:\n    /* \"MultiSigWallet.sol\":644:651  isOwner */\n  0x00\n    /* \"MultiSigWallet.sol\":644:658  isOwner[owner] */\n  dup1\n    /* \"MultiSigWallet.sol\":652:657  owner */\n  dup3\n    /* \"MultiSigWallet.sol\":644:658  isOwner[owner] */\n  0xffffffffffffffffffffffffffffffffffffffff\n  and\n  0xffffffffffffffffffffffffffffffffffffffff\n  and\n  dup2\n  mstore\n  0x20\n  add\n  swap1\n  dup2\n  mstore\n  0x20\n  add\n  0x00\n  keccak256\n  0x00\n  swap1\n  sload\n  swap1\n  0x0100\n  exp\n  swap1\n  div\n  0xff\n  and\n    /* \"MultiSigWallet.sol\":643:658  !isOwner[owner] */\n  iszero\n    /* \"MultiSigWallet.sol\":635:675  require(!isOwner[owner],\"already owner\") */\n  tag_20\n  jumpi\n  mload(0x40)\n  0x08c379a000000000000000000000000000000000000000000000000000000000\n  dup2\n  mstore\n  0x04\n  add\n  tag_21\n  swap1\n  tag_22\n  jump\t// in\ntag_21:\n  mload(0x40)\n  dup1\n  swap2\n  sub\n  swap1\n  revert\ntag_20:\n    /* \"MultiSigWallet.sol\":704:708  true */\n  0x01\n    /* \"MultiSigWallet.sol\":689:696  isOwner */\n  0x00\n    /* \"MultiSigWallet.sol\":689:703  isOwner[owner] */\n  dup1\n    /* \"MultiSigWallet.sol\":697:702  owner */\n  dup4\n    /* \"MultiSigWallet.sol\":689:703  isOwner[owner] */\n  0xffffffffffffffffffffffffffffffffffffffff\n  and\n  0xffffffffffffffffffffffffffffffffffffffff\n  and\n  dup2\n  mstore\n  0x20\n  add\n  swap1\n  dup2\n  mstore\n  0x20\n  add\n  0x00\n  keccak256\n  0x00\n    /* \"MultiSigWallet.sol\":689:708  isOwner[owner]=true */\n  0x0100\n  exp\n  dup2\n  sload\n  dup2\n  0xff\n  mul\n  not\n  and\n  swap1\n  dup4\n  iszero\n  iszero\n  mul\n  or\n  swap1\n  sstore\n  pop\n    /* \"MultiSigWallet.sol\":722:728  owners */\n  0x01\n    /* \"MultiSigWallet.sol\":734:739  owner */\n  dup2\n    /* \"MultiSigWallet.sol\":722:740  owners.push(owner) */\n  swap1\n  dup1\n  0x01\n  dup2\n  sload\n  add\n  dup1\n  dup3\n  sstore\n  dup1\n  swap2\n  pop\n  pop\n  0x01\n  swap1\n  sub\n  swap1\n  0x00\n  mstore\n  keccak256(0x00, 0x20)\n  add\n  0x00\n  swap1\n  swap2\n  swap1\n  swap2\n  swap1\n  swap2\n  0x0100\n  exp\n  dup2\n  sload\n  dup2\n  0xffffffffffffffffffffffffffffffffffffffff\n  mul\n  not\n  and\n  swap1\n  dup4\n  0xffffffffffffffffffffffffffffffffffffffff\n  and\n  mul\n  or\n  swap1\n  sstore\n  pop\n    /* \"MultiSigWallet.sol\":518:752  {... */\n  pop\n    /* \"MultiSigWallet.sol\":514:517  i++ */\n  dup1\n  dup1\n  tag_24\n  swap1\n  tag_25\n  jump\t// in\ntag_24:\n  swap2\n  pop\n  pop\n    /* \"MultiSigWallet.sol\":484:752  for(uint i=0;i<_owners.length;i++){... */\n  jump(tag_9)\ntag_10:\n  pop\n    /* \"MultiSigWallet.sol\":375:758  constructor(address[] memory _owners, int _required){... */\n  pop\n  pop\n    /* \"MultiSigWallet.sol\":56:1622  contract MultiSigWallet{... */\n  jump(tag_26)\n    /* \"#utility.yul\":24:768   */\ntag_28:\n    /* \"#utility.yul\":131:136   */\n  0x00\n    /* \"#utility.yul\":156:237   */\n  tag_30\n    /* \"#utility.yul\":172:236   */\n  tag_31\n    /* \"#utility.yul\":229:235   */\n  dup5\n    /* \"#utility.yul\":172:236   */\n  tag_32\n  jump\t// in\ntag_31:\n    /* \"#utility.yul\":156:237   */\n  tag_33\n  jump\t// in\ntag_30:\n    /* \"#utility.yul\":147:237   */\n  swap1\n  pop\n    /* \"#utility.yul\":257:262   */\n  dup1\n    /* \"#utility.yul\":286:292   */\n  dup4\n    /* \"#utility.yul\":279:284   */\n  dup3\n    /* \"#utility.yul\":272:293   */\n  mstore\n    /* \"#utility.yul\":320:324   */\n  0x20\n    /* \"#utility.yul\":313:318   */\n  dup3\n    /* \"#utility.yul\":309:325   */\n  add\n    /* \"#utility.yul\":302:325   */\n  swap1\n  pop\n    /* \"#utility.yul\":346:352   */\n  dup3\n    /* \"#utility.yul\":396:399   */\n  dup6\n    /* \"#utility.yul\":388:392   */\n  0x20\n    /* \"#utility.yul\":380:386   */\n  dup7\n    /* \"#utility.yul\":376:393   */\n  mul\n    /* \"#utility.yul\":371:374   */\n  dup3\n    /* \"#utility.yul\":367:394   */\n  add\n    /* \"#utility.yul\":364:400   */\n  gt\n    /* \"#utility.yul\":361:504   */\n  iszero\n  tag_34\n  jumpi\n    /* \"#utility.yul\":415:494   */\n  tag_35\n  tag_36\n  jump\t// in\ntag_35:\n    /* \"#utility.yul\":361:504   */\ntag_34:\n    /* \"#utility.yul\":528:529   */\n  0x00\n    /* \"#utility.yul\":513:762   */\ntag_37:\n    /* \"#utility.yul\":538:544   */\n  dup6\n    /* \"#utility.yul\":535:536   */\n  dup2\n    /* \"#utility.yul\":532:545   */\n  lt\n    /* \"#utility.yul\":513:762   */\n  iszero\n  tag_39\n  jumpi\n    /* \"#utility.yul\":606:609   */\n  dup2\n    /* \"#utility.yul\":635:683   */\n  tag_40\n    /* \"#utility.yul\":679:682   */\n  dup9\n    /* \"#utility.yul\":667:677   */\n  dup3\n    /* \"#utility.yul\":635:683   */\n  tag_41\n  jump\t// in\ntag_40:\n    /* \"#utility.yul\":630:633   */\n  dup5\n    /* \"#utility.yul\":623:684   */\n  mstore\n    /* \"#utility.yul\":713:717   */\n  0x20\n    /* \"#utility.yul\":708:711   */\n  dup5\n    /* \"#utility.yul\":704:718   */\n  add\n    /* \"#utility.yul\":697:718   */\n  swap4\n  pop\n    /* \"#utility.yul\":747:751   */\n  0x20\n    /* \"#utility.yul\":742:745   */\n  dup4\n    /* \"#utility.yul\":738:752   */\n  add\n    /* \"#utility.yul\":731:752   */\n  swap3\n  pop\n    /* \"#utility.yul\":573:762   */\n  pop\n    /* \"#utility.yul\":560:561   */\n  0x01\n    /* \"#utility.yul\":557:558   */\n  dup2\n    /* \"#utility.yul\":553:562   */\n  add\n    /* \"#utility.yul\":548:562   */\n  swap1\n  pop\n    /* \"#utility.yul\":513:762   */\n  jump(tag_37)\ntag_39:\n    /* \"#utility.yul\":517:531   */\n  pop\n    /* \"#utility.yul\":137:768   */\n  pop\n  pop\n    /* \"#utility.yul\":24:768   */\n  swap4\n  swap3\n  pop\n  pop\n  pop\n  jump\t// out\n    /* \"#utility.yul\":774:917   */\ntag_41:\n    /* \"#utility.yul\":831:836   */\n  0x00\n    /* \"#utility.yul\":862:868   */\n  dup2\n    /* \"#utility.yul\":856:869   */\n  mload\n    /* \"#utility.yul\":847:869   */\n  swap1\n  pop\n    /* \"#utility.yul\":878:911   */\n  tag_43\n    /* \"#utility.yul\":905:910   */\n  dup2\n    /* \"#utility.yul\":878:911   */\n  tag_44\n  jump\t// in\ntag_43:\n    /* \"#utility.yul\":774:917   */\n  swap3\n  swap2\n  pop\n  pop\n  jump\t// out\n    /* \"#utility.yul\":940:1325   */\ntag_45:\n    /* \"#utility.yul\":1022:1027   */\n  0x00\n    /* \"#utility.yul\":1071:1074   */\n  dup3\n    /* \"#utility.yul\":1064:1068   */\n  0x1f\n    /* \"#utility.yul\":1056:1062   */\n  dup4\n    /* \"#utility.yul\":1052:1069   */\n  add\n    /* \"#utility.yul\":1048:1075   */\n  slt\n    /* \"#utility.yul\":1038:1160   */\n  tag_47\n  jumpi\n    /* \"#utility.yul\":1079:1158   */\n  tag_48\n  tag_49\n  jump\t// in\ntag_48:\n    /* \"#utility.yul\":1038:1160   */\ntag_47:\n    /* \"#utility.yul\":1189:1195   */\n  dup2\n    /* \"#utility.yul\":1183:1196   */\n  mload\n    /* \"#utility.yul\":1214:1319   */\n  tag_50\n    /* \"#utility.yul\":1315:1318   */\n  dup5\n    /* \"#utility.yul\":1307:1313   */\n  dup3\n    /* \"#utility.yul\":1300:1304   */\n  0x20\n    /* \"#utility.yul\":1292:1298   */\n  dup7\n    /* \"#utility.yul\":1288:1305   */\n  add\n    /* \"#utility.yul\":1214:1319   */\n  tag_28\n  jump\t// in\ntag_50:\n    /* \"#utility.yul\":1205:1319   */\n  swap2\n  pop\n    /* \"#utility.yul\":1028:1325   */\n  pop\n    /* \"#utility.yul\":940:1325   */\n  swap3\n  swap2\n  pop\n  pop\n  jump\t// out\n    /* \"#utility.yul\":1331:1472   */\ntag_51:\n    /* \"#utility.yul\":1387:1392   */\n  0x00\n    /* \"#utility.yul\":1418:1424   */\n  dup2\n    /* \"#utility.yul\":1412:1425   */\n  mload\n    /* \"#utility.yul\":1403:1425   */\n  swap1\n  pop\n    /* \"#utility.yul\":1434:1466   */\n  tag_53\n    /* \"#utility.yul\":1460:1465   */\n  dup2\n    /* \"#utility.yul\":1434:1466   */\n  tag_54\n  jump\t// in\ntag_53:\n    /* \"#utility.yul\":1331:1472   */\n  swap3\n  swap2\n  pop\n  pop\n  jump\t// out\n    /* \"#utility.yul\":1478:2186   */\ntag_3:\n    /* \"#utility.yul\":1581:1587   */\n  0x00\n    /* \"#utility.yul\":1589:1595   */\n  dup1\n    /* \"#utility.yul\":1638:1640   */\n  0x40\n    /* \"#utility.yul\":1626:1635   */\n  dup4\n    /* \"#utility.yul\":1617:1624   */\n  dup6\n    /* \"#utility.yul\":1613:1636   */\n  sub\n    /* \"#utility.yul\":1609:1641   */\n  slt\n    /* \"#utility.yul\":1606:1725   */\n  iszero\n  tag_56\n  jumpi\n    /* \"#utility.yul\":1644:1723   */\n  tag_57\n  tag_58\n  jump\t// in\ntag_57:\n    /* \"#utility.yul\":1606:1725   */\ntag_56:\n    /* \"#utility.yul\":1785:1786   */\n  0x00\n    /* \"#utility.yul\":1774:1783   */\n  dup4\n    /* \"#utility.yul\":1770:1787   */\n  add\n    /* \"#utility.yul\":1764:1788   */\n  mload\n    /* \"#utility.yul\":1815:1833   */\n  0xffffffffffffffff\n    /* \"#utility.yul\":1807:1813   */\n  dup2\n    /* \"#utility.yul\":1804:1834   */\n  gt\n    /* \"#utility.yul\":1801:1918   */\n  iszero\n  tag_59\n  jumpi\n    /* \"#utility.yul\":1837:1916   */\n  tag_60\n  tag_61\n  jump\t// in\ntag_60:\n    /* \"#utility.yul\":1801:1918   */\ntag_59:\n    /* \"#utility.yul\":1942:2031   */\n  tag_62\n    /* \"#utility.yul\":2023:2030   */\n  dup6\n    /* \"#utility.yul\":2014:2020   */\n  dup3\n    /* \"#utility.yul\":2003:2012   */\n  dup7\n    /* \"#utility.yul\":1999:2021   */\n  add\n    /* \"#utility.yul\":1942:2031   */\n  tag_45\n  jump\t// in\ntag_62:\n    /* \"#utility.yul\":1932:2031   */\n  swap3\n  pop\n    /* \"#utility.yul\":1735:2041   */\n  pop\n    /* \"#utility.yul\":2080:2082   */\n  0x20\n    /* \"#utility.yul\":2106:2169   */\n  tag_63\n    /* \"#utility.yul\":2161:2168   */\n  dup6\n    /* \"#utility.yul\":2152:2158   */\n  dup3\n    /* \"#utility.yul\":2141:2150   */\n  dup7\n    /* \"#utility.yul\":2137:2159   */\n  add\n    /* \"#utility.yul\":2106:2169   */\n  tag_51\n  jump\t// in\ntag_63:\n    /* \"#utility.yul\":2096:2169   */\n  swap2\n  pop\n    /* \"#utility.yul\":2051:2179   */\n  pop\n    /* \"#utility.yul\":1478:2186   */\n  swap3\n  pop\n  swap3\n  swap1\n  pop\n  jump\t// out\n    /* \"#utility.yul\":2192:2558   */\ntag_64:\n    /* \"#utility.yul\":2334:2337   */\n  0x00\n    /* \"#utility.yul\":2355:2422   */\n  tag_66\n    /* \"#utility.yul\":2419:2421   */\n  0x0d\n    /* \"#utility.yul\":2414:2417   */\n  dup4\n    /* \"#utility.yul\":2355:2422   */\n  tag_67\n  jump\t// in\ntag_66:\n    /* \"#utility.yul\":2348:2422   */\n  swap2\n  pop\n    /* \"#utility.yul\":2431:2524   */\n  tag_68\n    /* \"#utility.yul\":2520:2523   */\n  dup3\n    /* \"#utility.yul\":2431:2524   */\n  tag_69\n  jump\t// in\ntag_68:\n    /* \"#utility.yul\":2549:2551   */\n  0x20\n    /* \"#utility.yul\":2544:2547   */\n  dup3\n    /* \"#utility.yul\":2540:2552   */\n  add\n    /* \"#utility.yul\":2533:2552   */\n  swap1\n  pop\n    /* \"#utility.yul\":2192:2558   */\n  swap2\n  swap1\n  pop\n  jump\t// out\n    /* \"#utility.yul\":2564:2930   */\ntag_70:\n    /* \"#utility.yul\":2706:2709   */\n  0x00\n    /* \"#utility.yul\":2727:2794   */\n  tag_72\n    /* \"#utility.yul\":2791:2793   */\n  0x0f\n    /* \"#utility.yul\":2786:2789   */\n  dup4\n    /* \"#utility.yul\":2727:2794   */\n  tag_67\n  jump\t// in\ntag_72:\n    /* \"#utility.yul\":2720:2794   */\n  swap2\n  pop\n    /* \"#utility.yul\":2803:2896   */\n  tag_73\n    /* \"#utility.yul\":2892:2895   */\n  dup3\n    /* \"#utility.yul\":2803:2896   */\n  tag_74\n  jump\t// in\ntag_73:\n    /* \"#utility.yul\":2921:2923   */\n  0x20\n    /* \"#utility.yul\":2916:2919   */\n  dup3\n    /* \"#utility.yul\":2912:2924   */\n  add\n    /* \"#utility.yul\":2905:2924   */\n  swap1\n  pop\n    /* \"#utility.yul\":2564:2930   */\n  swap2\n  swap1\n  pop\n  jump\t// out\n    /* \"#utility.yul\":2936:3301   */\ntag_75:\n    /* \"#utility.yul\":3078:3081   */\n  0x00\n    /* \"#utility.yul\":3099:3165   */\n  tag_77\n    /* \"#utility.yul\":3163:3164   */\n  0x09\n    /* \"#utility.yul\":3158:3161   */\n  dup4\n    /* \"#utility.yul\":3099:3165   */\n  tag_67\n  jump\t// in\ntag_77:\n    /* \"#utility.yul\":3092:3165   */\n  swap2\n  pop\n    /* \"#utility.yul\":3174:3267   */\n  tag_78\n    /* \"#utility.yul\":3263:3266   */\n  dup3\n    /* \"#utility.yul\":3174:3267   */\n  tag_79\n  jump\t// in\ntag_78:\n    /* \"#utility.yul\":3292:3294   */\n  0x20\n    /* \"#utility.yul\":3287:3290   */\n  dup3\n    /* \"#utility.yul\":3283:3295   */\n  add\n    /* \"#utility.yul\":3276:3295   */\n  swap1\n  pop\n    /* \"#utility.yul\":2936:3301   */\n  swap2\n  swap1\n  pop\n  jump\t// out\n    /* \"#utility.yul\":3307:3726   */\ntag_22:\n    /* \"#utility.yul\":3473:3477   */\n  0x00\n    /* \"#utility.yul\":3511:3513   */\n  0x20\n    /* \"#utility.yul\":3500:3509   */\n  dup3\n    /* \"#utility.yul\":3496:3514   */\n  add\n    /* \"#utility.yul\":3488:3514   */\n  swap1\n  pop\n    /* \"#utility.yul\":3560:3569   */\n  dup2\n    /* \"#utility.yul\":3554:3558   */\n  dup2\n    /* \"#utility.yul\":3550:3570   */\n  sub\n    /* \"#utility.yul\":3546:3547   */\n  0x00\n    /* \"#utility.yul\":3535:3544   */\n  dup4\n    /* \"#utility.yul\":3531:3548   */\n  add\n    /* \"#utility.yul\":3524:3571   */\n  mstore\n    /* \"#utility.yul\":3588:3719   */\n  tag_81\n    /* \"#utility.yul\":3714:3718   */\n  dup2\n    /* \"#utility.yul\":3588:3719   */\n  tag_64\n  jump\t// in\ntag_81:\n    /* \"#utility.yul\":3580:3719   */\n  swap1\n  pop\n    /* \"#utility.yul\":3307:3726   */\n  swap2\n  swap1\n  pop\n  jump\t// out\n    /* \"#utility.yul\":3732:4151   */\ntag_19:\n    /* \"#utility.yul\":3898:3902   */\n  0x00\n    /* \"#utility.yul\":3936:3938   */\n  0x20\n    /* \"#utility.yul\":3925:3934   */\n  dup3\n    /* \"#utility.yul\":3921:3939   */\n  add\n    /* \"#utility.yul\":3913:3939   */\n  swap1\n  pop\n    /* \"#utility.yul\":3985:3994   */\n  dup2\n    /* \"#utility.yul\":3979:3983   */\n  dup2\n    /* \"#utility.yul\":3975:3995   */\n  sub\n    /* \"#utility.yul\":3971:3972   */\n  0x00\n    /* \"#utility.yul\":3960:3969   */\n  dup4\n    /* \"#utility.yul\":3956:3973   */\n  add\n    /* \"#utility.yul\":3949:3996   */\n  mstore\n    /* \"#utility.yul\":4013:4144   */\n  tag_83\n    /* \"#utility.yul\":4139:4143   */\n  dup2\n    /* \"#utility.yul\":4013:4144   */\n  tag_70\n  jump\t// in\ntag_83:\n    /* \"#utility.yul\":4005:4144   */\n  swap1\n  pop\n    /* \"#utility.yul\":3732:4151   */\n  swap2\n  swap1\n  pop\n  jump\t// out\n    /* \"#utility.yul\":4157:4576   */\ntag_8:\n    /* \"#utility.yul\":4323:4327   */\n  0x00\n    /* \"#utility.yul\":4361:4363   */\n  0x20\n    /* \"#utility.yul\":4350:4359   */\n  dup3\n    /* \"#utility.yul\":4346:4364   */\n  add\n    /* \"#utility.yul\":4338:4364   */\n  swap1\n  pop\n    /* \"#utility.yul\":4410:4419   */\n  dup2\n    /* \"#utility.yul\":4404:4408   */\n  dup2\n    /* \"#utility.yul\":4400:4420   */\n  sub\n    /* \"#utility.yul\":4396:4397   */\n  0x00\n    /* \"#utility.yul\":4385:4394   */\n  dup4\n    /* \"#utility.yul\":4381:4398   */\n  add\n    /* \"#utility.yul\":4374:4421   */\n  mstore\n    /* \"#utility.yul\":4438:4569   */\n  tag_85\n    /* \"#utility.yul\":4564:4568   */\n  dup2\n    /* \"#utility.yul\":4438:4569   */\n  tag_75\n  jump\t// in\ntag_85:\n    /* \"#utility.yul\":4430:4569   */\n  swap1\n  pop\n    /* \"#utility.yul\":4157:4576   */\n  swap2\n  swap1\n  pop\n  jump\t// out\n    /* \"#utility.yul\":4582:4711   */\ntag_33:\n    /* \"#utility.yul\":4616:4622   */\n  0x00\n    /* \"#utility.yul\":4643:4663   */\n  tag_87\n  tag_88\n  jump\t// in\ntag_87:\n    /* \"#utility.yul\":4633:4663   */\n  swap1\n  pop\n    /* \"#utility.yul\":4672:4705   */\n  tag_89\n    /* \"#utility.yul\":4700:4704   */\n  dup3\n    /* \"#utility.yul\":4692:4698   */\n  dup3\n    /* \"#utility.yul\":4672:4705   */\n  tag_90\n  jump\t// in\ntag_89:\n    /* \"#utility.yul\":4582:4711   */\n  swap2\n  swap1\n  pop\n  jump\t// out\n    /* \"#utility.yul\":4717:4792   */\ntag_88:\n    /* \"#utility.yul\":4750:4756   */\n  0x00\n    /* \"#utility.yul\":4783:4785   */\n  0x40\n    /* \"#utility.yul\":4777:4786   */\n  mload\n    /* \"#utility.yul\":4767:4786   */\n  swap1\n  pop\n    /* \"#utility.yul\":4717:4792   */\n  swap1\n  jump\t// out\n    /* \"#utility.yul\":4798:5109   */\ntag_32:\n    /* \"#utility.yul\":4875:4879   */\n  0x00\n    /* \"#utility.yul\":4965:4983   */\n  0xffffffffffffffff\n    /* \"#utility.yul\":4957:4963   */\n  dup3\n    /* \"#utility.yul\":4954:4984   */\n  gt\n    /* \"#utility.yul\":4951:5007   */\n  iszero\n  tag_93\n  jumpi\n    /* \"#utility.yul\":4987:5005   */\n  tag_94\n  tag_95\n  jump\t// in\ntag_94:\n    /* \"#utility.yul\":4951:5007   */\ntag_93:\n    /* \"#utility.yul\":5037:5041   */\n  0x20\n    /* \"#utility.yul\":5029:5035   */\n  dup3\n    /* \"#utility.yul\":5025:5042   */\n  mul\n    /* \"#utility.yul\":5017:5042   */\n  swap1\n  pop\n    /* \"#utility.yul\":5097:5101   */\n  0x20\n    /* \"#utility.yul\":5091:5095   */\n  dup2\n    /* \"#utility.yul\":5087:5102   */\n  add\n    /* \"#utility.yul\":5079:5102   */\n  swap1\n  pop\n    /* \"#utility.yul\":4798:5109   */\n  swap2\n  swap1\n  pop\n  jump\t// out\n    /* \"#utility.yul\":5115:5284   */\ntag_67:\n    /* \"#utility.yul\":5199:5210   */\n  0x00\n    /* \"#utility.yul\":5233:5239   */\n  dup3\n    /* \"#utility.yul\":5228:5231   */\n  dup3\n    /* \"#utility.yul\":5221:5240   */\n  mstore\n    /* \"#utility.yul\":5273:5277   */\n  0x20\n    /* \"#utility.yul\":5268:5271   */\n  dup3\n    /* \"#utility.yul\":5264:5278   */\n  add\n    /* \"#utility.yul\":5249:5278   */\n  swap1\n  pop\n    /* \"#utility.yul\":5115:5284   */\n  swap3\n  swap2\n  pop\n  pop\n  jump\t// out\n    /* \"#utility.yul\":5290:5386   */\ntag_97:\n    /* \"#utility.yul\":5327:5334   */\n  0x00\n    /* \"#utility.yul\":5356:5380   */\n  tag_99\n    /* \"#utility.yul\":5374:5379   */\n  dup3\n    /* \"#utility.yul\":5356:5380   */\n  tag_100\n  jump\t// in\ntag_99:\n    /* \"#utility.yul\":5345:5380   */\n  swap1\n  pop\n    /* \"#utility.yul\":5290:5386   */\n  swap2\n  swap1\n  pop\n  jump\t// out\n    /* \"#utility.yul\":5392:5468   */\ntag_101:\n    /* \"#utility.yul\":5428:5435   */\n  0x00\n    /* \"#utility.yul\":5457:5462   */\n  dup2\n    /* \"#utility.yul\":5446:5462   */\n  swap1\n  pop\n    /* \"#utility.yul\":5392:5468   */\n  swap2\n  swap1\n  pop\n  jump\t// out\n    /* \"#utility.yul\":5474:5600   */\ntag_100:\n    /* \"#utility.yul\":5511:5518   */\n  0x00\n    /* \"#utility.yul\":5551:5593   */\n  0xffffffffffffffffffffffffffffffffffffffff\n    /* \"#utility.yul\":5544:5549   */\n  dup3\n    /* \"#utility.yul\":5540:5594   */\n  and\n    /* \"#utility.yul\":5529:5594   */\n  swap1\n  pop\n    /* \"#utility.yul\":5474:5600   */\n  swap2\n  swap1\n  pop\n  jump\t// out\n    /* \"#utility.yul\":5606:5683   */\ntag_104:\n    /* \"#utility.yul\":5643:5650   */\n  0x00\n    /* \"#utility.yul\":5672:5677   */\n  dup2\n    /* \"#utility.yul\":5661:5677   */\n  swap1\n  pop\n    /* \"#utility.yul\":5606:5683   */\n  swap2\n  swap1\n  pop\n  jump\t// out\n    /* \"#utility.yul\":5689:5970   */\ntag_90:\n    /* \"#utility.yul\":5772:5799   */\n  tag_107\n    /* \"#utility.yul\":5794:5798   */\n  dup3\n    /* \"#utility.yul\":5772:5799   */\n  tag_108\n  jump\t// in\ntag_107:\n    /* \"#utility.yul\":5764:5770   */\n  dup2\n    /* \"#utility.yul\":5760:5800   */\n  add\n    /* \"#utility.yul\":5902:5908   */\n  dup2\n    /* \"#utility.yul\":5890:5900   */\n  dup2\n    /* \"#utility.yul\":5887:5909   */\n  lt\n    /* \"#utility.yul\":5866:5884   */\n  0xffffffffffffffff\n    /* \"#utility.yul\":5854:5864   */\n  dup3\n    /* \"#utility.yul\":5851:5885   */\n  gt\n    /* \"#utility.yul\":5848:5910   */\n  or\n    /* \"#utility.yul\":5845:5933   */\n  iszero\n  tag_109\n  jumpi\n    /* \"#utility.yul\":5913:5931   */\n  tag_110\n  tag_95\n  jump\t// in\ntag_110:\n    /* \"#utility.yul\":5845:5933   */\ntag_109:\n    /* \"#utility.yul\":5953:5963   */\n  dup1\n    /* \"#utility.yul\":5949:5951   */\n  0x40\n    /* \"#utility.yul\":5942:5964   */\n  mstore\n    /* \"#utility.yul\":5732:5970   */\n  pop\n    /* \"#utility.yul\":5689:5970   */\n  pop\n  pop\n  jump\t// out\n    /* \"#utility.yul\":5976:6209   */\ntag_25:\n    /* \"#utility.yul\":6015:6018   */\n  0x00\n    /* \"#utility.yul\":6038:6062   */\n  tag_112\n    /* \"#utility.yul\":6056:6061   */\n  dup3\n    /* \"#utility.yul\":6038:6062   */\n  tag_104\n  jump\t// in\ntag_112:\n    /* \"#utility.yul\":6029:6062   */\n  swap2\n  pop\n    /* \"#utility.yul\":6084:6150   */\n  0xffffffffffffffffffffffffffffffffffffffffffffffffffffffffffffffff\n    /* \"#utility.yul\":6077:6082   */\n  dup3\n    /* \"#utility.yul\":6074:6151   */\n  eq\n    /* \"#utility.yul\":6071:6174   */\n  iszero\n  tag_113\n  jumpi\n    /* \"#utility.yul\":6154:6172   */\n  tag_114\n  tag_115\n  jump\t// in\ntag_114:\n    /* \"#utility.yul\":6071:6174   */\ntag_113:\n    /* \"#utility.yul\":6201:6202   */\n  0x01\n    /* \"#utility.yul\":6194:6199   */\n  dup3\n    /* \"#utility.yul\":6190:6203   */\n  add\n    /* \"#utility.yul\":6183:6203   */\n  swap1\n  pop\n    /* \"#utility.yul\":5976:6209   */\n  swap2\n  swap1\n  pop\n  jump\t// out\n    /* \"#utility.yul\":6215:6395   */\ntag_115:\n    /* \"#utility.yul\":6263:6340   */\n  0x4e487b7100000000000000000000000000000000000000000000000000000000\n    /* \"#utility.yul\":6260:6261   */\n  0x00\n    /* \"#utility.yul\":6253:6341   */\n  mstore\n    /* \"#utility.yul\":6360:6364   */\n  0x11\n    /* \"#utility.yul\":6357:6358   */\n  0x04\n    /* \"#utility.yul\":6350:6365   */\n  mstore\n    /* \"#utility.yul\":6384:6388   */\n  0x24\n    /* \"#utility.yul\":6381:6382   */\n  0x00\n    /* \"#utility.yul\":6374:6389   */\n  revert\n    /* \"#utility.yul\":6401:6581   */\ntag_14:\n    /* \"#utility.yul\":6449:6526   */\n  0x4e487b7100000000000000000000000000000000000000000000000000000000\n    /* \"#utility.yul\":6446:6447   */\n  0x00\n    /* \"#utility.yul\":6439:6527   */\n  mstore\n    /* \"#utility.yul\":6546:6550   */\n  0x32\n    /* \"#utility.yul\":6543:6544   */\n  0x04\n    /* \"#utility.yul\":6536:6551   */\n  mstore\n    /* \"#utility.yul\":6570:6574   */\n  0x24\n    /* \"#utility.yul\":6567:6568   */\n  0x00\n    /* \"#utility.yul\":6560:6575   */\n  revert\n    /* \"#utility.yul\":6587:6767   */\ntag_95:\n    /* \"#utility.yul\":6635:6712   */\n  0x4e487b7100000000000000000000000000000000000000000000000000000000\n    /* \"#utility.yul\":6632:6633   */\n  0x00\n    /* \"#utility.yul\":6625:6713   */\n  mstore\n    /* \"#utility.yul\":6732:6736   */\n  0x41\n    /* \"#utility.yul\":6729:6730   */\n  0x04\n    /* \"#utility.yul\":6722:6737   */\n  mstore\n    /* \"#utility.yul\":6756:6760   */\n  0x24\n    /* \"#utility.yul\":6753:6754   */\n  0x00\n    /* \"#utility.yul\":6746:6761   */\n  revert\n    /* \"#utility.yul\":6773:6890   */\ntag_49:\n    /* \"#utility.yul\":6882:6883   */\n  0x00\n    /* \"#utility.yul\":6879:6880   */\n  dup1\n    /* \"#utility.yul\":6872:6884   */\n  revert\n    /* \"#utility.yul\":6896:7013   */\ntag_36:\n    /* \"#utility.yul\":7005:7006   */\n  0x00\n    /* \"#utility.yul\":7002:7003   */\n  dup1\n    /* \"#utility.yul\":6995:7007   */\n  revert\n    /* \"#utility.yul\":7019:7136   */\ntag_61:\n    /* \"#utility.yul\":7128:7129   */\n  0x00\n    /* \"#utility.yul\":7125:7126   */\n  dup1\n    /* \"#utility.yul\":7118:7130   */\n  revert\n    /* \"#utility.yul\":7142:7259   */\ntag_58:\n    /* \"#utility.yul\":7251:7252   */\n  0x00\n    /* \"#utility.yul\":7248:7249   */\n  dup1\n    /* \"#utility.yul\":7241:7253   */\n  revert\n    /* \"#utility.yul\":7265:7367   */\ntag_108:\n    /* \"#utility.yul\":7306:7312   */\n  0x00\n    /* \"#utility.yul\":7357:7359   */\n  0x1f\n    /* \"#utility.yul\":7353:7360   */\n  not\n    /* \"#utility.yul\":7348:7350   */\n  0x1f\n    /* \"#utility.yul\":7341:7346   */\n  dup4\n    /* \"#utility.yul\":7337:7351   */\n  add\n    /* \"#utility.yul\":7333:7361   */\n  and\n    /* \"#utility.yul\":7323:7361   */\n  swap1\n  pop\n    /* \"#utility.yul\":7265:7367   */\n  swap2\n  swap1\n  pop\n  jump\t// out\n    /* \"#utility.yul\":7373:7536   */\ntag_69:\n    /* \"#utility.yul\":7513:7528   */\n  0x616c7265616479206f776e657200000000000000000000000000000000000000\n    /* \"#utility.yul\":7509:7510   */\n  0x00\n    /* \"#utility.yul\":7501:7507   */\n  dup3\n    /* \"#utility.yul\":7497:7511   */\n  add\n    /* \"#utility.yul\":7490:7529   */\n  mstore\n    /* \"#utility.yul\":7373:7536   */\n  pop\n  jump\t// out\n    /* \"#utility.yul\":7542:7707   */\ntag_74:\n    /* \"#utility.yul\":7682:7699   */\n  0x696e76616c696420616464726573730000000000000000000000000000000000\n    /* \"#utility.yul\":7678:7679   */\n  0x00\n    /* \"#utility.yul\":7670:7676   */\n  dup3\n    /* \"#utility.yul\":7666:7680   */\n  add\n    /* \"#utility.yul\":7659:7700   */\n  mstore\n    /* \"#utility.yul\":7542:7707   */\n  pop\n  jump\t// out\n    /* \"#utility.yul\":7713:7872   */\ntag_79:\n    /* \"#utility.yul\":7853:7864   */\n  0x6e6f206f776e6572730000000000000000000000000000000000000000000000\n    /* \"#utility.yul\":7849:7850   */\n  0x00\n    /* \"#utility.yul\":7841:7847   */\n  dup3\n    /* \"#utility.yul\":7837:7851   */\n  add\n    /* \"#utility.yul\":7830:7865   */\n  mstore\n    /* \"#utility.yul\":7713:7872   */\n  pop\n  jump\t// out\n    /* \"#utility.yul\":7878:8000   */\ntag_44:\n    /* \"#utility.yul\":7951:7975   */\n  tag_128\n    /* \"#utility.yul\":7969:7974   */\n  dup2\n    /* \"#utility.yul\":7951:7975   */\n  tag_97\n  jump\t// in\ntag_128:\n    /* \"#utility.yul\":7944:7949   */\n  dup2\n    /* \"#utility.yul\":7941:7976   */\n  eq\n    /* \"#utility.yul\":7931:7994   */\n  tag_129\n  jumpi\n    /* \"#utility.yul\":7990:7991   */\n  0x00\n    /* \"#utility.yul\":7987:7988   */\n  dup1\n    /* \"#utility.yul\":7980:7992   */\n  revert\n    /* \"#utility.yul\":7931:7994   */\ntag_129:\n    /* \"#utility.yul\":7878:8000   */\n  pop\n  jump\t// out\n    /* \"#utility.yul\":8006:8126   */\ntag_54:\n    /* \"#utility.yul\":8078:8101   */\n  tag_131\n    /* \"#utility.yul\":8095:8100   */\n  dup2\n    /* \"#utility.yul\":8078:8101   */\n  tag_101\n  jump\t// in\ntag_131:\n    /* \"#utility.yul\":8071:8076   */\n  dup2\n    /* \"#utility.yul\":8068:8102   */\n  eq\n    /* \"#utility.yul\":8058:8120   */\n  tag_132\n  jumpi\n    /* \"#utility.yul\":8116:8117   */\n  0x00\n    /* \"#utility.yul\":8113:8114   */\n  dup1\n    /* \"#utility.yul\":8106:8118   */\n  revert\n    /* \"#utility.yul\":8058:8120   */\ntag_132:\n    /* \"#utility.yul\":8006:8126   */\n  pop\n  jump\t// out\n    /* \"MultiSigWallet.sol\":56:1622  contract MultiSigWallet{... */\ntag_26:\n  dataSize(sub_0)\n  dup1\n  dataOffset(sub_0)\n  0x00\n  codecopy\n  0x00\n  return\nstop\n\nsub_0: assembly {\n        /* \"MultiSigWallet.sol\":56:1622  contract MultiSigWallet{... */\n      mstore(0x40, 0x80)\n      jumpi(tag_1, lt(calldatasize, 0x04))\n      shr(0xe0, calldataload(0x00))\n      dup1\n      0x073cbe49\n      eq\n      tag_3\n      jumpi\n      dup1\n      0x14de327f\n      eq\n      tag_4\n      jumpi\n      dup1\n      0xb759f954\n      eq\n      tag_5\n      jumpi\n      jump(tag_2)\n    tag_1:\n      jumpi(tag_2, calldatasize)\n      stop\n    tag_2:\n      0x00\n      dup1\n      revert\n        /* \"MultiSigWallet.sol\":1355:1619  function getApprovedCount(uint txId) external view returns(uint count) {... */\n    tag_3:\n      callvalue\n      dup1\n      iszero\n      tag_8\n      jumpi\n      0x00\n      dup1\n      revert\n    tag_8:\n      pop\n      tag_9\n      0x04\n      dup1\n      calldatasize\n      sub\n      dup2\n      add\n      swap1\n      tag_10\n      swap2\n      swap1\n      tag_11\n      jump\t// in\n    tag_10:\n      tag_12\n      jump\t// in\n    tag_9:\n      mload(0x40)\n      tag_13\n      swap2\n      swap1\n      tag_14\n      jump\t// in\n    tag_13:\n      mload(0x40)\n      dup1\n      swap2\n      sub\n      swap1\n      return\n        /* \"MultiSigWallet.sol\":878:1083  function submit(address _destination,uint _amount, bytes calldata _data) onlyOwner external{... */\n    tag_4:\n      callvalue\n      dup1\n      iszero\n      tag_15\n      jumpi\n      0x00\n      dup1\n      revert\n    tag_15:\n      pop\n      tag_16\n      0x04\n      dup1\n      calldatasize\n      sub\n      dup2\n      add\n      swap1\n      tag_17\n      swap2\n      swap1\n      tag_18\n      jump\t// in\n    tag_17:\n      tag_19\n      jump\t// in\n    tag_16:\n      stop\n        /* \"MultiSigWallet.sol\":1089:1345  function approve(uint txId)external onlyOwner{... */\n    tag_5:\n      callvalue\n      dup1\n      iszero\n      tag_20\n      jumpi\n      0x00\n      dup1\n      revert\n    tag_20:\n      pop\n      tag_21\n      0x04\n      dup1\n      calldatasize\n      sub\n      dup2\n      add\n      swap1\n      tag_22\n      swap2\n      swap1\n      tag_11\n      jump\t// in\n    tag_22:\n      tag_23\n      jump\t// in\n    tag_21:\n      stop\n        /* \"MultiSigWallet.sol\":1355:1619  function getApprovedCount(uint txId) external view returns(uint count) {... */\n    tag_12:\n        /* \"MultiSigWallet.sol\":1414:1424  uint count */\n      0x00\n        /* \"MultiSigWallet.sol\":1458:1469  transactons */\n      0x02\n        /* \"MultiSigWallet.sol\":1458:1476  transactons.length */\n      dup1\n      sload\n      swap1\n      pop\n        /* \"MultiSigWallet.sol\":1453:1457  txId */\n      dup3\n        /* \"MultiSigWallet.sol\":1453:1476  txId<transactons.length */\n      lt\n        /* \"MultiSigWallet.sol\":1445:1477  require(txId<transactons.length) */\n      tag_25\n      jumpi\n      0x00\n      dup1\n      revert\n    tag_25:\n        /* \"MultiSigWallet.sol\":1491:1497  uint i */\n      0x00\n        /* \"MultiSigWallet.sol\":1487:1613  for(uint i=0;i<owners.length;i++){... */\n    tag_26:\n        /* \"MultiSigWallet.sol\":1502:1508  owners */\n      0x01\n        /* \"MultiSigWallet.sol\":1502:1515  owners.length */\n      dup1\n      sload\n      swap1\n      pop\n        /* \"MultiSigWallet.sol\":1500:1501  i */\n      dup2\n        /* \"MultiSigWallet.sol\":1500:1515  i<owners.length */\n      lt\n        /* \"MultiSigWallet.sol\":1487:1613  for(uint i=0;i<owners.length;i++){... */\n      iszero\n      tag_27\n      jumpi\n        /* \"MultiSigWallet.sol\":1537:1545  approved */\n      0x04\n        /* \"MultiSigWallet.sol\":1537:1551  approved[txId] */\n      0x00\n        /* \"MultiSigWallet.sol\":1546:1550  txId */\n      dup5\n        /* \"MultiSigWallet.sol\":1537:1551  approved[txId] */\n      dup2\n      mstore\n      0x20\n      add\n      swap1\n      dup2\n      mstore\n      0x20\n      add\n      0x00\n      keccak256\n        /* \"MultiSigWallet.sol\":1537:1562  approved[txId][owners[i]] */\n      0x00\n        /* \"MultiSigWallet.sol\":1552:1558  owners */\n      0x01\n        /* \"MultiSigWallet.sol\":1559:1560  i */\n      dup4\n        /* \"MultiSigWallet.sol\":1552:1561  owners[i] */\n      dup2\n      sload\n      dup2\n      lt\n      tag_29\n      jumpi\n      tag_30\n      tag_31\n      jump\t// in\n    tag_30:\n    tag_29:\n      swap1\n      0x00\n      mstore\n      keccak256(0x00, 0x20)\n      add\n      0x00\n      swap1\n      sload\n      swap1\n      0x0100\n      exp\n      swap1\n      div\n      0xffffffffffffffffffffffffffffffffffffffff\n      and\n        /* \"MultiSigWallet.sol\":1537:1562  approved[txId][owners[i]] */\n      0xffffffffffffffffffffffffffffffffffffffff\n      and\n      0xffffffffffffffffffffffffffffffffffffffff\n      and\n      dup2\n      mstore\n      0x20\n      add\n      swap1\n      dup2\n      mstore\n      0x20\n      add\n      0x00\n      keccak256\n      0x00\n      swap1\n      sload\n      swap1\n      0x0100\n      exp\n      swap1\n      div\n      0xff\n      and\n        /* \"MultiSigWallet.sol\":1534:1603  if(approved[txId][owners[i]]){... */\n      iszero\n      tag_33\n      jumpi\n        /* \"MultiSigWallet.sol\":1581:1588  count++ */\n      dup2\n      dup1\n      tag_34\n      swap1\n      tag_35\n      jump\t// in\n    tag_34:\n      swap3\n      pop\n      pop\n        /* \"MultiSigWallet.sol\":1534:1603  if(approved[txId][owners[i]]){... */\n    tag_33:\n        /* \"MultiSigWallet.sol\":1516:1519  i++ */\n      dup1\n      dup1\n      tag_36\n      swap1\n      tag_35\n      jump\t// in\n    tag_36:\n      swap2\n      pop\n      pop\n        /* \"MultiSigWallet.sol\":1487:1613  for(uint i=0;i<owners.length;i++){... */\n      jump(tag_26)\n    tag_27:\n      pop\n        /* \"MultiSigWallet.sol\":1355:1619  function getApprovedCount(uint txId) external view returns(uint count) {... */\n      swap2\n      swap1\n      pop\n      jump\t// out\n        /* \"MultiSigWallet.sol\":878:1083  function submit(address _destination,uint _amount, bytes calldata _data) onlyOwner external{... */\n    tag_19:\n        /* \"MultiSigWallet.sol\":835:842  isOwner */\n      0x00\n        /* \"MultiSigWallet.sol\":835:854  isOwner[msg.sender] */\n      dup1\n        /* \"MultiSigWallet.sol\":843:853  msg.sender */\n      caller\n        /* \"MultiSigWallet.sol\":835:854  isOwner[msg.sender] */\n      0xffffffffffffffffffffffffffffffffffffffff\n      and\n      0xffffffffffffffffffffffffffffffffffffffff\n      and\n      dup2\n      mstore\n      0x20\n      add\n      swap1\n      dup2\n      mstore\n      0x20\n      add\n      0x00\n      keccak256\n      0x00\n      swap1\n      sload\n      swap1\n      0x0100\n      exp\n      swap1\n      div\n      0xff\n      and\n        /* \"MultiSigWallet.sol\":827:855  require(isOwner[msg.sender]) */\n      tag_38\n      jumpi\n      0x00\n      dup1\n      revert\n    tag_38:\n        /* \"MultiSigWallet.sol\":979:999  Transaction memory t */\n      0x00\n        /* \"MultiSigWallet.sol\":1002:1047  Transaction(_destination,_amount,_data,false) */\n      mload(0x40)\n      dup1\n      0x80\n      add\n      0x40\n      mstore\n      dup1\n        /* \"MultiSigWallet.sol\":1014:1026  _destination */\n      dup7\n        /* \"MultiSigWallet.sol\":1002:1047  Transaction(_destination,_amount,_data,false) */\n      0xffffffffffffffffffffffffffffffffffffffff\n      and\n      dup2\n      mstore\n      0x20\n      add\n        /* \"MultiSigWallet.sol\":1027:1034  _amount */\n      dup6\n        /* \"MultiSigWallet.sol\":1002:1047  Transaction(_destination,_amount,_data,false) */\n      dup2\n      mstore\n      0x20\n      add\n        /* \"MultiSigWallet.sol\":1035:1040  _data */\n      dup5\n      dup5\n        /* \"MultiSigWallet.sol\":1002:1047  Transaction(_destination,_amount,_data,false) */\n      dup1\n      dup1\n      0x1f\n      add\n      0x20\n      dup1\n      swap2\n      div\n      mul\n      0x20\n      add\n      mload(0x40)\n      swap1\n      dup2\n      add\n      0x40\n      mstore\n      dup1\n      swap4\n      swap3\n      swap2\n      swap1\n      dup2\n      dup2\n      mstore\n      0x20\n      add\n      dup4\n      dup4\n      dup1\n      dup3\n      dup5\n      calldatacopy\n      0x00\n      dup2\n      dup5\n      add\n      mstore\n      not(0x1f)\n      0x1f\n      dup3\n      add\n      and\n      swap1\n      pop\n      dup1\n      dup4\n      add\n      swap3\n      pop\n      pop\n      pop\n      pop\n      pop\n      pop\n      pop\n      dup2\n      mstore\n      0x20\n      add\n        /* \"MultiSigWallet.sol\":1041:1046  false */\n      0x00\n        /* \"MultiSigWallet.sol\":1002:1047  Transaction(_destination,_amount,_data,false) */\n      iszero\n      iszero\n      dup2\n      mstore\n      pop\n        /* \"MultiSigWallet.sol\":979:1047  Transaction memory t = Transaction(_destination,_amount,_data,false) */\n      swap1\n      pop\n        /* \"MultiSigWallet.sol\":1057:1068  transactons */\n      0x02\n        /* \"MultiSigWallet.sol\":1074:1075  t */\n      dup2\n        /* \"MultiSigWallet.sol\":1057:1076  transactons.push(t) */\n      swap1\n      dup1\n      0x01\n      dup2\n      sload\n      add\n      dup1\n      dup3\n      sstore\n      dup1\n      swap2\n      pop\n      pop\n      0x01\n      swap1\n      sub\n      swap1\n      0x00\n      mstore\n      keccak256(0x00, 0x20)\n      swap1\n      0x04\n      mul\n      add\n      0x00\n      swap1\n      swap2\n      swap1\n      swap2\n      swap1\n      swap2\n      pop\n      0x00\n      dup3\n      add\n      mload\n      dup2\n      0x00\n      add\n      exp(0x0100, 0x00)\n      dup2\n      sload\n      dup2\n      0xffffffffffffffffffffffffffffffffffffffff\n      mul\n      not\n      and\n      swap1\n      dup4\n      0xffffffffffffffffffffffffffffffffffffffff\n      and\n      mul\n      or\n      swap1\n      sstore\n      pop\n      0x20\n      dup3\n      add\n      mload\n      dup2\n      0x01\n      add\n      sstore\n      0x40\n      dup3\n      add\n      mload\n      dup2\n      0x02\n      add\n      swap1\n      dup1\n      mload\n      swap1\n      0x20\n      add\n      swap1\n      tag_41\n      swap3\n      swap2\n      swap1\n      tag_42\n      jump\t// in\n    tag_41:\n      pop\n      0x60\n      dup3\n      add\n      mload\n      dup2\n      0x03\n      add\n      exp(0x0100, 0x00)\n      dup2\n      sload\n      dup2\n      0xff\n      mul\n      not\n      and\n      swap1\n      dup4\n      iszero\n      iszero\n      mul\n      or\n      swap1\n      sstore\n      pop\n      pop\n      pop\n        /* \"MultiSigWallet.sol\":969:1083  {... */\n      pop\n        /* \"MultiSigWallet.sol\":878:1083  function submit(address _destination,uint _amount, bytes calldata _data) onlyOwner external{... */\n      pop\n      pop\n      pop\n      pop\n      jump\t// out\n        /* \"MultiSigWallet.sol\":1089:1345  function approve(uint txId)external onlyOwner{... */\n    tag_23:\n        /* \"MultiSigWallet.sol\":835:842  isOwner */\n      0x00\n        /* \"MultiSigWallet.sol\":835:854  isOwner[msg.sender] */\n      dup1\n        /* \"MultiSigWallet.sol\":843:853  msg.sender */\n      caller\n        /* \"MultiSigWallet.sol\":835:854  isOwner[msg.sender] */\n      0xffffffffffffffffffffffffffffffffffffffff\n      and\n      0xffffffffffffffffffffffffffffffffffffffff\n      and\n      dup2\n      mstore\n      0x20\n      add\n      swap1\n      dup2\n      mstore\n      0x20\n      add\n      0x00\n      keccak256\n      0x00\n      swap1\n      sload\n      swap1\n      0x0100\n      exp\n      swap1\n      div\n      0xff\n      and\n        /* \"MultiSigWallet.sol\":827:855  require(isOwner[msg.sender]) */\n      tag_44\n      jumpi\n      0x00\n      dup1\n      revert\n    tag_44:\n        /* \"MultiSigWallet.sol\":1157:1168  transactons */\n      0x02\n        /* \"MultiSigWallet.sol\":1157:1175  transactons.length */\n      dup1\n      sload\n      swap1\n      pop\n        /* \"MultiSigWallet.sol\":1152:1156  txId */\n      dup2\n        /* \"MultiSigWallet.sol\":1152:1175  txId<transactons.length */\n      lt\n        /* \"MultiSigWallet.sol\":1144:1176  require(txId<transactons.length) */\n      tag_46\n      jumpi\n      0x00\n      dup1\n      revert\n    tag_46:\n        /* \"MultiSigWallet.sol\":1195:1206  transactons */\n      0x02\n        /* \"MultiSigWallet.sol\":1207:1211  txId */\n      dup2\n        /* \"MultiSigWallet.sol\":1195:1212  transactons[txId] */\n      dup2\n      sload\n      dup2\n      lt\n      tag_47\n      jumpi\n      tag_48\n      tag_31\n      jump\t// in\n    tag_48:\n    tag_47:\n      swap1\n      0x00\n      mstore\n      keccak256(0x00, 0x20)\n      swap1\n      0x04\n      mul\n      add\n        /* \"MultiSigWallet.sol\":1195:1221  transactons[txId].executed */\n      0x03\n      add\n      0x00\n      swap1\n      sload\n      swap1\n      0x0100\n      exp\n      swap1\n      div\n      0xff\n      and\n        /* \"MultiSigWallet.sol\":1194:1221  !transactons[txId].executed */\n      iszero\n        /* \"MultiSigWallet.sol\":1186:1241  require(!transactons[txId].executed,\"avready executed\") */\n      tag_50\n      jumpi\n      mload(0x40)\n      0x08c379a000000000000000000000000000000000000000000000000000000000\n      dup2\n      mstore\n      0x04\n      add\n      tag_51\n      swap1\n      tag_52\n      jump\t// in\n    tag_51:\n      mload(0x40)\n      dup1\n      swap2\n      sub\n      swap1\n      revert\n    tag_50:\n        /* \"MultiSigWallet.sol\":1278:1282  true */\n      0x01\n        /* \"MultiSigWallet.sol\":1251:1259  approved */\n      0x04\n        /* \"MultiSigWallet.sol\":1251:1265  approved[txId] */\n      0x00\n        /* \"MultiSigWallet.sol\":1260:1264  txId */\n      dup4\n        /* \"MultiSigWallet.sol\":1251:1265  approved[txId] */\n      dup2\n      mstore\n      0x20\n      add\n      swap1\n      dup2\n      mstore\n      0x20\n      add\n      0x00\n      keccak256\n        /* \"MultiSigWallet.sol\":1251:1277  approved[txId][msg.sender] */\n      0x00\n        /* \"MultiSigWallet.sol\":1266:1276  msg.sender */\n      caller\n        /* \"MultiSigWallet.sol\":1251:1277  approved[txId][msg.sender] */\n      0xffffffffffffffffffffffffffffffffffffffff\n      and\n      0xffffffffffffffffffffffffffffffffffffffff\n      and\n      dup2\n      mstore\n      0x20\n      add\n      swap1\n      dup2\n      mstore\n      0x20\n      add\n      0x00\n      keccak256\n      0x00\n        /* \"MultiSigWallet.sol\":1251:1282  approved[txId][msg.sender]=true */\n      0x0100\n      exp\n      dup2\n      sload\n      dup2\n      0xff\n      mul\n      not\n      and\n      swap1\n      dup4\n      iszero\n      iszero\n      mul\n      or\n      swap1\n      sstore\n      pop\n        /* \"MultiSigWallet.sol\":1089:1345  function approve(uint txId)external onlyOwner{... */\n      pop\n      jump\t// out\n    tag_42:\n      dup3\n      dup1\n      sload\n      tag_53\n      swap1\n      tag_54\n      jump\t// in\n    tag_53:\n      swap1\n      0x00\n      mstore\n      keccak256(0x00, 0x20)\n      swap1\n      0x1f\n      add\n      0x20\n      swap1\n      div\n      dup2\n      add\n      swap3\n      dup3\n      tag_56\n      jumpi\n      0x00\n      dup6\n      sstore\n      jump(tag_55)\n    tag_56:\n      dup3\n      0x1f\n      lt\n      tag_57\n      jumpi\n      dup1\n      mload\n      not(0xff)\n      and\n      dup4\n      dup1\n      add\n      or\n      dup6\n      sstore\n      jump(tag_55)\n    tag_57:\n      dup3\n      dup1\n      add\n      0x01\n      add\n      dup6\n      sstore\n      dup3\n      iszero\n      tag_55\n      jumpi\n      swap2\n      dup3\n      add\n    tag_58:\n      dup3\n      dup2\n      gt\n      iszero\n      tag_59\n      jumpi\n      dup3\n      mload\n      dup3\n      sstore\n      swap2\n      0x20\n      add\n      swap2\n      swap1\n      0x01\n      add\n      swap1\n      jump(tag_58)\n    tag_59:\n    tag_55:\n      pop\n      swap1\n      pop\n      tag_60\n      swap2\n      swap1\n      tag_61\n      jump\t// in\n    tag_60:\n      pop\n      swap1\n      jump\t// out\n    tag_61:\n    tag_62:\n      dup1\n      dup3\n      gt\n      iszero\n      tag_63\n      jumpi\n      0x00\n      dup2\n      0x00\n      swap1\n      sstore\n      pop\n      0x01\n      add\n      jump(tag_62)\n    tag_63:\n      pop\n      swap1\n      jump\t// out\n        /* \"#utility.yul\":7:146   */\n    tag_65:\n        /* \"#utility.yul\":53:58   */\n      0x00\n        /* \"#utility.yul\":91:97   */\n      dup2\n        /* \"#utility.yul\":78:98   */\n      calldataload\n        /* \"#utility.yul\":69:98   */\n      swap1\n      pop\n        /* \"#utility.yul\":107:140   */\n      tag_67\n        /* \"#utility.yul\":134:139   */\n      dup2\n        /* \"#utility.yul\":107:140   */\n      tag_68\n      jump\t// in\n    tag_67:\n        /* \"#utility.yul\":7:146   */\n      swap3\n      swap2\n      pop\n      pop\n      jump\t// out\n        /* \"#utility.yul\":165:717   */\n    tag_69:\n        /* \"#utility.yul\":222:230   */\n      0x00\n        /* \"#utility.yul\":232:238   */\n      dup1\n        /* \"#utility.yul\":282:285   */\n      dup4\n        /* \"#utility.yul\":275:279   */\n      0x1f\n        /* \"#utility.yul\":267:273   */\n      dup5\n        /* \"#utility.yul\":263:280   */\n      add\n        /* \"#utility.yul\":259:286   */\n      slt\n        /* \"#utility.yul\":249:371   */\n      tag_71\n      jumpi\n        /* \"#utility.yul\":290:369   */\n      tag_72\n      tag_73\n      jump\t// in\n    tag_72:\n        /* \"#utility.yul\":249:371   */\n    tag_71:\n        /* \"#utility.yul\":403:409   */\n      dup3\n        /* \"#utility.yul\":390:410   */\n      calldataload\n        /* \"#utility.yul\":380:410   */\n      swap1\n      pop\n        /* \"#utility.yul\":433:451   */\n      0xffffffffffffffff\n        /* \"#utility.yul\":425:431   */\n      dup2\n        /* \"#utility.yul\":422:452   */\n      gt\n        /* \"#utility.yul\":419:536   */\n      iszero\n      tag_74\n      jumpi\n        /* \"#utility.yul\":455:534   */\n      tag_75\n      tag_76\n      jump\t// in\n    tag_75:\n        /* \"#utility.yul\":419:536   */\n    tag_74:\n        /* \"#utility.yul\":569:573   */\n      0x20\n        /* \"#utility.yul\":561:567   */\n      dup4\n        /* \"#utility.yul\":557:574   */\n      add\n        /* \"#utility.yul\":545:574   */\n      swap2\n      pop\n        /* \"#utility.yul\":623:626   */\n      dup4\n        /* \"#utility.yul\":615:619   */\n      0x01\n        /* \"#utility.yul\":607:613   */\n      dup3\n        /* \"#utility.yul\":603:620   */\n      mul\n        /* \"#utility.yul\":593:601   */\n      dup4\n        /* \"#utility.yul\":589:621   */\n      add\n        /* \"#utility.yul\":586:627   */\n      gt\n        /* \"#utility.yul\":583:711   */\n      iszero\n      tag_77\n      jumpi\n        /* \"#utility.yul\":630:709   */\n      tag_78\n      tag_79\n      jump\t// in\n    tag_78:\n        /* \"#utility.yul\":583:711   */\n    tag_77:\n        /* \"#utility.yul\":165:717   */\n      swap3\n      pop\n      swap3\n      swap1\n      pop\n      jump\t// out\n        /* \"#utility.yul\":723:862   */\n    tag_80:\n        /* \"#utility.yul\":769:774   */\n      0x00\n        /* \"#utility.yul\":807:813   */\n      dup2\n        /* \"#utility.yul\":794:814   */\n      calldataload\n        /* \"#utility.yul\":785:814   */\n      swap1\n      pop\n        /* \"#utility.yul\":823:856   */\n      tag_82\n        /* \"#utility.yul\":850:855   */\n      dup2\n        /* \"#utility.yul\":823:856   */\n      tag_83\n      jump\t// in\n    tag_82:\n        /* \"#utility.yul\":723:862   */\n      swap3\n      swap2\n      pop\n      pop\n      jump\t// out\n        /* \"#utility.yul\":868:1685   */\n    tag_18:\n        /* \"#utility.yul\":956:962   */\n      0x00\n        /* \"#utility.yul\":964:970   */\n      dup1\n        /* \"#utility.yul\":972:978   */\n      0x00\n        /* \"#utility.yul\":980:986   */\n      dup1\n        /* \"#utility.yul\":1029:1031   */\n      0x60\n        /* \"#utility.yul\":1017:1026   */\n      dup6\n        /* \"#utility.yul\":1008:1015   */\n      dup8\n        /* \"#utility.yul\":1004:1027   */\n      sub\n        /* \"#utility.yul\":1000:1032   */\n      slt\n        /* \"#utility.yul\":997:1116   */\n      iszero\n      tag_85\n      jumpi\n        /* \"#utility.yul\":1035:1114   */\n      tag_86\n      tag_87\n      jump\t// in\n    tag_86:\n        /* \"#utility.yul\":997:1116   */\n    tag_85:\n        /* \"#utility.yul\":1155:1156   */\n      0x00\n        /* \"#utility.yul\":1180:1233   */\n      tag_88\n        /* \"#utility.yul\":1225:1232   */\n      dup8\n        /* \"#utility.yul\":1216:1222   */\n      dup3\n        /* \"#utility.yul\":1205:1214   */\n      dup9\n        /* \"#utility.yul\":1201:1223   */\n      add\n        /* \"#utility.yul\":1180:1233   */\n      tag_65\n      jump\t// in\n    tag_88:\n        /* \"#utility.yul\":1170:1233   */\n      swap5\n      pop\n        /* \"#utility.yul\":1126:1243   */\n      pop\n        /* \"#utility.yul\":1282:1284   */\n      0x20\n        /* \"#utility.yul\":1308:1361   */\n      tag_89\n        /* \"#utility.yul\":1353:1360   */\n      dup8\n        /* \"#utility.yul\":1344:1350   */\n      dup3\n        /* \"#utility.yul\":1333:1342   */\n      dup9\n        /* \"#utility.yul\":1329:1351   */\n      add\n        /* \"#utility.yul\":1308:1361   */\n      tag_80\n      jump\t// in\n    tag_89:\n        /* \"#utility.yul\":1298:1361   */\n      swap4\n      pop\n        /* \"#utility.yul\":1253:1371   */\n      pop\n        /* \"#utility.yul\":1438:1440   */\n      0x40\n        /* \"#utility.yul\":1427:1436   */\n      dup6\n        /* \"#utility.yul\":1423:1441   */\n      add\n        /* \"#utility.yul\":1410:1442   */\n      calldataload\n        /* \"#utility.yul\":1469:1487   */\n      0xffffffffffffffff\n        /* \"#utility.yul\":1461:1467   */\n      dup2\n        /* \"#utility.yul\":1458:1488   */\n      gt\n        /* \"#utility.yul\":1455:1572   */\n      iszero\n      tag_90\n      jumpi\n        /* \"#utility.yul\":1491:1570   */\n      tag_91\n      tag_92\n      jump\t// in\n    tag_91:\n        /* \"#utility.yul\":1455:1572   */\n    tag_90:\n        /* \"#utility.yul\":1604:1668   */\n      tag_93\n        /* \"#utility.yul\":1660:1667   */\n      dup8\n        /* \"#utility.yul\":1651:1657   */\n      dup3\n        /* \"#utility.yul\":1640:1649   */\n      dup9\n        /* \"#utility.yul\":1636:1658   */\n      add\n        /* \"#utility.yul\":1604:1668   */\n      tag_69\n      jump\t// in\n    tag_93:\n        /* \"#utility.yul\":1586:1668   */\n      swap3\n      pop\n      swap3\n      pop\n        /* \"#utility.yul\":1381:1678   */\n      pop\n        /* \"#utility.yul\":868:1685   */\n      swap3\n      swap6\n      swap2\n      swap5\n      pop\n      swap3\n      pop\n      jump\t// out\n        /* \"#utility.yul\":1691:2020   */\n    tag_11:\n        /* \"#utility.yul\":1750:1756   */\n      0x00\n        /* \"#utility.yul\":1799:1801   */\n      0x20\n        /* \"#utility.yul\":1787:1796   */\n      dup3\n        /* \"#utility.yul\":1778:1785   */\n      dup5\n        /* \"#utility.yul\":1774:1797   */\n      sub\n        /* \"#utility.yul\":1770:1802   */\n      slt\n        /* \"#utility.yul\":1767:1886   */\n      iszero\n      tag_95\n      jumpi\n        /* \"#utility.yul\":1805:1884   */\n      tag_96\n      tag_87\n      jump\t// in\n    tag_96:\n        /* \"#utility.yul\":1767:1886   */\n    tag_95:\n        /* \"#utility.yul\":1925:1926   */\n      0x00\n        /* \"#utility.yul\":1950:2003   */\n      tag_97\n        /* \"#utility.yul\":1995:2002   */\n      dup5\n        /* \"#utility.yul\":1986:1992   */\n      dup3\n        /* \"#utility.yul\":1975:1984   */\n      dup6\n        /* \"#utility.yul\":1971:1993   */\n      add\n        /* \"#utility.yul\":1950:2003   */\n      tag_80\n      jump\t// in\n    tag_97:\n        /* \"#utility.yul\":1940:2003   */\n      swap2\n      pop\n        /* \"#utility.yul\":1896:2013   */\n      pop\n        /* \"#utility.yul\":1691:2020   */\n      swap3\n      swap2\n      pop\n      pop\n      jump\t// out\n        /* \"#utility.yul\":2026:2392   */\n    tag_98:\n        /* \"#utility.yul\":2168:2171   */\n      0x00\n        /* \"#utility.yul\":2189:2256   */\n      tag_100\n        /* \"#utility.yul\":2253:2255   */\n      0x10\n        /* \"#utility.yul\":2248:2251   */\n      dup4\n        /* \"#utility.yul\":2189:2256   */\n      tag_101\n      jump\t// in\n    tag_100:\n        /* \"#utility.yul\":2182:2256   */\n      swap2\n      pop\n        /* \"#utility.yul\":2265:2358   */\n      tag_102\n        /* \"#utility.yul\":2354:2357   */\n      dup3\n        /* \"#utility.yul\":2265:2358   */\n      tag_103\n      jump\t// in\n    tag_102:\n        /* \"#utility.yul\":2383:2385   */\n      0x20\n        /* \"#utility.yul\":2378:2381   */\n      dup3\n        /* \"#utility.yul\":2374:2386   */\n      add\n        /* \"#utility.yul\":2367:2386   */\n      swap1\n      pop\n        /* \"#utility.yul\":2026:2392   */\n      swap2\n      swap1\n      pop\n      jump\t// out\n        /* \"#utility.yul\":2398:2516   */\n    tag_104:\n        /* \"#utility.yul\":2485:2509   */\n      tag_106\n        /* \"#utility.yul\":2503:2508   */\n      dup2\n        /* \"#utility.yul\":2485:2509   */\n      tag_107\n      jump\t// in\n    tag_106:\n        /* \"#utility.yul\":2480:2483   */\n      dup3\n        /* \"#utility.yul\":2473:2510   */\n      mstore\n        /* \"#utility.yul\":2398:2516   */\n      pop\n      pop\n      jump\t// out\n        /* \"#utility.yul\":2522:2941   */\n    tag_52:\n        /* \"#utility.yul\":2688:2692   */\n      0x00\n        /* \"#utility.yul\":2726:2728   */\n      0x20\n        /* \"#utility.yul\":2715:2724   */\n      dup3\n        /* \"#utility.yul\":2711:2729   */\n      add\n        /* \"#utility.yul\":2703:2729   */\n      swap1\n      pop\n        /* \"#utility.yul\":2775:2784   */\n      dup2\n        /* \"#utility.yul\":2769:2773   */\n      dup2\n        /* \"#utility.yul\":2765:2785   */\n      sub\n        /* \"#utility.yul\":2761:2762   */\n      0x00\n        /* \"#utility.yul\":2750:2759   */\n      dup4\n        /* \"#utility.yul\":2746:2763   */\n      add\n        /* \"#utility.yul\":2739:2786   */\n      mstore\n        /* \"#utility.yul\":2803:2934   */\n      tag_109\n        /* \"#utility.yul\":2929:2933   */\n      dup2\n        /* \"#utility.yul\":2803:2934   */\n      tag_98\n      jump\t// in\n    tag_109:\n        /* \"#utility.yul\":2795:2934   */\n      swap1\n      pop\n        /* \"#utility.yul\":2522:2941   */\n      swap2\n      swap1\n      pop\n      jump\t// out\n        /* \"#utility.yul\":2947:3169   */\n    tag_14:\n        /* \"#utility.yul\":3040:3044   */\n      0x00\n        /* \"#utility.yul\":3078:3080   */\n      0x20\n        /* \"#utility.yul\":3067:3076   */\n      dup3\n        /* \"#utility.yul\":3063:3081   */\n      add\n        /* \"#utility.yul\":3055:3081   */\n      swap1\n      pop\n        /* \"#utility.yul\":3091:3162   */\n      tag_111\n        /* \"#utility.yul\":3159:3160   */\n      0x00\n        /* \"#utility.yul\":3148:3157   */\n      dup4\n        /* \"#utility.yul\":3144:3161   */\n      add\n        /* \"#utility.yul\":3135:3141   */\n      dup5\n        /* \"#utility.yul\":3091:3162   */\n      tag_104\n      jump\t// in\n    tag_111:\n        /* \"#utility.yul\":2947:3169   */\n      swap3\n      swap2\n      pop\n      pop\n      jump\t// out\n        /* \"#utility.yul\":3256:3425   */\n    tag_101:\n        /* \"#utility.yul\":3340:3351   */\n      0x00\n        /* \"#utility.yul\":3374:3380   */\n      dup3\n        /* \"#utility.yul\":3369:3372   */\n      dup3\n        /* \"#utility.yul\":3362:3381   */\n      mstore\n        /* \"#utility.yul\":3414:3418   */\n      0x20\n        /* \"#utility.yul\":3409:3412   */\n      dup3\n        /* \"#utility.yul\":3405:3419   */\n      add\n        /* \"#utility.yul\":3390:3419   */\n      swap1\n      pop\n        /* \"#utility.yul\":3256:3425   */\n      swap3\n      swap2\n      pop\n      pop\n      jump\t// out\n        /* \"#utility.yul\":3431:3527   */\n    tag_115:\n        /* \"#utility.yul\":3468:3475   */\n      0x00\n        /* \"#utility.yul\":3497:3521   */\n      tag_117\n        /* \"#utility.yul\":3515:3520   */\n      dup3\n        /* \"#utility.yul\":3497:3521   */\n      tag_118\n      jump\t// in\n    tag_117:\n        /* \"#utility.yul\":3486:3521   */\n      swap1\n      pop\n        /* \"#utility.yul\":3431:3527   */\n      swap2\n      swap1\n      pop\n      jump\t// out\n        /* \"#utility.yul\":3533:3659   */\n    tag_118:\n        /* \"#utility.yul\":3570:3577   */\n      0x00\n        /* \"#utility.yul\":3610:3652   */\n      0xffffffffffffffffffffffffffffffffffffffff\n        /* \"#utility.yul\":3603:3608   */\n      dup3\n        /* \"#utility.yul\":3599:3653   */\n      and\n        /* \"#utility.yul\":3588:3653   */\n      swap1\n      pop\n        /* \"#utility.yul\":3533:3659   */\n      swap2\n      swap1\n      pop\n      jump\t// out\n        /* \"#utility.yul\":3665:3742   */\n    tag_107:\n        /* \"#utility.yul\":3702:3709   */\n      0x00\n        /* \"#utility.yul\":3731:3736   */\n      dup2\n        /* \"#utility.yul\":3720:3736   */\n      swap1\n      pop\n        /* \"#utility.yul\":3665:3742   */\n      swap2\n      swap1\n      pop\n      jump\t// out\n        /* \"#utility.yul\":3748:4068   */\n    tag_54:\n        /* \"#utility.yul\":3792:3798   */\n      0x00\n        /* \"#utility.yul\":3829:3830   */\n      0x02\n        /* \"#utility.yul\":3823:3827   */\n      dup3\n        /* \"#utility.yul\":3819:3831   */\n      div\n        /* \"#utility.yul\":3809:3831   */\n      swap1\n      pop\n        /* \"#utility.yul\":3876:3877   */\n      0x01\n        /* \"#utility.yul\":3870:3874   */\n      dup3\n        /* \"#utility.yul\":3866:3878   */\n      and\n        /* \"#utility.yul\":3897:3915   */\n      dup1\n        /* \"#utility.yul\":3887:3968   */\n      tag_122\n      jumpi\n        /* \"#utility.yul\":3953:3957   */\n      0x7f\n        /* \"#utility.yul\":3945:3951   */\n      dup3\n        /* \"#utility.yul\":3941:3958   */\n      and\n        /* \"#utility.yul\":3931:3958   */\n      swap2\n      pop\n        /* \"#utility.yul\":3887:3968   */\n    tag_122:\n        /* \"#utility.yul\":4015:4017   */\n      0x20\n        /* \"#utility.yul\":4007:4013   */\n      dup3\n        /* \"#utility.yul\":4004:4018   */\n      lt\n        /* \"#utility.yul\":3984:4002   */\n      dup2\n        /* \"#utility.yul\":3981:4019   */\n      eq\n        /* \"#utility.yul\":3978:4062   */\n      iszero\n      tag_123\n      jumpi\n        /* \"#utility.yul\":4034:4052   */\n      tag_124\n      tag_125\n      jump\t// in\n    tag_124:\n        /* \"#utility.yul\":3978:4062   */\n    tag_123:\n        /* \"#utility.yul\":3799:4068   */\n      pop\n        /* \"#utility.yul\":3748:4068   */\n      swap2\n      swap1\n      pop\n      jump\t// out\n        /* \"#utility.yul\":4074:4307   */\n    tag_35:\n        /* \"#utility.yul\":4113:4116   */\n      0x00\n        /* \"#utility.yul\":4136:4160   */\n      tag_127\n        /* \"#utility.yul\":4154:4159   */\n      dup3\n        /* \"#utility.yul\":4136:4160   */\n      tag_107\n      jump\t// in\n    tag_127:\n        /* \"#utility.yul\":4127:4160   */\n      swap2\n      pop\n        /* \"#utility.yul\":4182:4248   */\n      0xffffffffffffffffffffffffffffffffffffffffffffffffffffffffffffffff\n        /* \"#utility.yul\":4175:4180   */\n      dup3\n        /* \"#utility.yul\":4172:4249   */\n      eq\n        /* \"#utility.yul\":4169:4272   */\n      iszero\n      tag_128\n      jumpi\n        /* \"#utility.yul\":4252:4270   */\n      tag_129\n      tag_130\n      jump\t// in\n    tag_129:\n        /* \"#utility.yul\":4169:4272   */\n    tag_128:\n        /* \"#utility.yul\":4299:4300   */\n      0x01\n        /* \"#utility.yul\":4292:4297   */\n      dup3\n        /* \"#utility.yul\":4288:4301   */\n      add\n        /* \"#utility.yul\":4281:4301   */\n      swap1\n      pop\n        /* \"#utility.yul\":4074:4307   */\n      swap2\n      swap1\n      pop\n      jump\t// out\n        /* \"#utility.yul\":4313:4493   */\n    tag_130:\n        /* \"#utility.yul\":4361:4438   */\n      0x4e487b7100000000000000000000000000000000000000000000000000000000\n        /* \"#utility.yul\":4358:4359   */\n      0x00\n        /* \"#utility.yul\":4351:4439   */\n      mstore\n        /* \"#utility.yul\":4458:4462   */\n      0x11\n        /* \"#utility.yul\":4455:4456   */\n      0x04\n        /* \"#utility.yul\":4448:4463   */\n      mstore\n        /* \"#utility.yul\":4482:4486   */\n      0x24\n        /* \"#utility.yul\":4479:4480   */\n      0x00\n        /* \"#utility.yul\":4472:4487   */\n      revert\n        /* \"#utility.yul\":4499:4679   */\n    tag_125:\n        /* \"#utility.yul\":4547:4624   */\n      0x4e487b7100000000000000000000000000000000000000000000000000000000\n        /* \"#utility.yul\":4544:4545   */\n      0x00\n        /* \"#utility.yul\":4537:4625   */\n      mstore\n        /* \"#utility.yul\":4644:4648   */\n      0x22\n        /* \"#utility.yul\":4641:4642   */\n      0x04\n        /* \"#utility.yul\":4634:4649   */\n      mstore\n        /* \"#utility.yul\":4668:4672   */\n      0x24\n        /* \"#utility.yul\":4665:4666   */\n      0x00\n        /* \"#utility.yul\":4658:4673   */\n      revert\n        /* \"#utility.yul\":4685:4865   */\n    tag_31:\n        /* \"#utility.yul\":4733:4810   */\n      0x4e487b7100000000000000000000000000000000000000000000000000000000\n        /* \"#utility.yul\":4730:4731   */\n      0x00\n        /* \"#utility.yul\":4723:4811   */\n      mstore\n        /* \"#utility.yul\":4830:4834   */\n      0x32\n        /* \"#utility.yul\":4827:4828   */\n      0x04\n        /* \"#utility.yul\":4820:4835   */\n      mstore\n        /* \"#utility.yul\":4854:4858   */\n      0x24\n        /* \"#utility.yul\":4851:4852   */\n      0x00\n        /* \"#utility.yul\":4844:4859   */\n      revert\n        /* \"#utility.yul\":4871:4988   */\n    tag_76:\n        /* \"#utility.yul\":4980:4981   */\n      0x00\n        /* \"#utility.yul\":4977:4978   */\n      dup1\n        /* \"#utility.yul\":4970:4982   */\n      revert\n        /* \"#utility.yul\":4994:5111   */\n    tag_73:\n        /* \"#utility.yul\":5103:5104   */\n      0x00\n        /* \"#utility.yul\":5100:5101   */\n      dup1\n        /* \"#utility.yul\":5093:5105   */\n      revert\n        /* \"#utility.yul\":5117:5234   */\n    tag_79:\n        /* \"#utility.yul\":5226:5227   */\n      0x00\n        /* \"#utility.yul\":5223:5224   */\n      dup1\n        /* \"#utility.yul\":5216:5228   */\n      revert\n        /* \"#utility.yul\":5240:5357   */\n    tag_92:\n        /* \"#utility.yul\":5349:5350   */\n      0x00\n        /* \"#utility.yul\":5346:5347   */\n      dup1\n        /* \"#utility.yul\":5339:5351   */\n      revert\n        /* \"#utility.yul\":5363:5480   */\n    tag_87:\n        /* \"#utility.yul\":5472:5473   */\n      0x00\n        /* \"#utility.yul\":5469:5470   */\n      dup1\n        /* \"#utility.yul\":5462:5474   */\n      revert\n        /* \"#utility.yul\":5486:5652   */\n    tag_103:\n        /* \"#utility.yul\":5626:5644   */\n      0x6176726561647920657865637574656400000000000000000000000000000000\n        /* \"#utility.yul\":5622:5623   */\n      0x00\n        /* \"#utility.yul\":5614:5620   */\n      dup3\n        /* \"#utility.yul\":5610:5624   */\n      add\n        /* \"#utility.yul\":5603:5645   */\n      mstore\n        /* \"#utility.yul\":5486:5652   */\n      pop\n      jump\t// out\n        /* \"#utility.yul\":5658:5780   */\n    tag_68:\n        /* \"#utility.yul\":5731:5755   */\n      tag_141\n        /* \"#utility.yul\":5749:5754   */\n      dup2\n        /* \"#utility.yul\":5731:5755   */\n      tag_115\n      jump\t// in\n    tag_141:\n        /* \"#utility.yul\":5724:5729   */\n      dup2\n        /* \"#utility.yul\":5721:5756   */\n      eq\n        /* \"#utility.yul\":5711:5774   */\n      tag_142\n      jumpi\n        /* \"#utility.yul\":5770:5771   */\n      0x00\n        /* \"#utility.yul\":5767:5768   */\n      dup1\n        /* \"#utility.yul\":5760:5772   */\n      revert\n        /* \"#utility.yul\":5711:5774   */\n    tag_142:\n        /* \"#utility.yul\":5658:5780   */\n      pop\n      jump\t// out\n        /* \"#utility.yul\":5786:5908   */\n    tag_83:\n        /* \"#utility.yul\":5859:5883   */\n      tag_144\n        /* \"#utility.yul\":5877:5882   */\n      dup2\n        /* \"#utility.yul\":5859:5883   */\n      tag_107\n      jump\t// in\n    tag_144:\n        /* \"#utility.yul\":5852:5857   */\n      dup2\n        /* \"#utility.yul\":5849:5884   */\n      eq\n        /* \"#utility.yul\":5839:5902   */\n      tag_145\n      jumpi\n        /* \"#utility.yul\":5898:5899   */\n      0x00\n        /* \"#utility.yul\":5895:5896   */\n      dup1\n        /* \"#utility.yul\":5888:5900   */\n      revert\n        /* \"#utility.yul\":5839:5902   */\n    tag_145:\n        /* \"#utility.yul\":5786:5908   */\n      pop\n      jump\t// out\n\n    auxdata: 0xa2646970667358221220b6e4eb7b4c80cccf221209a552415c1785dfabe6a7cd4c78cfd3d9b6b4475bb964736f6c63430008070033\n}\n",
				"bytecode": {
					"linkReferences": {},
					"object": "60806040523480156200001157600080fd5b506040516200103338038062001033833981810160405281019062000037919062000382565b60008251116200007e576040517f08c379a00000000000000000000000000000000000000000000000000000000081526004016200007590620004a1565b60405180910390fd5b60005b82518110156200029d576000838281518110620000a357620000a262000627565b5b60200260200101519050600073ffffffffffffffffffffffffffffffffffffffff16848381518110620000db57620000da62000627565b5b602002602001015173ffffffffffffffffffffffffffffffffffffffff1614156200013d576040517f08c379a000000000000000000000000000000000000000000000000000000000815260040162000134906200047f565b60405180910390fd5b6000808273ffffffffffffffffffffffffffffffffffffffff1673ffffffffffffffffffffffffffffffffffffffff16815260200190815260200160002060009054906101000a900460ff1615620001cc576040517f08c379a0000000000000000000000000000000000000000000000000000000008152600401620001c3906200045d565b60405180910390fd5b60016000808373ffffffffffffffffffffffffffffffffffffffff1673ffffffffffffffffffffffffffffffffffffffff16815260200190815260200160002060006101000a81548160ff0219169083151502179055506001819080600181540180825580915050600190039060005260206000200160009091909190916101000a81548173ffffffffffffffffffffffffffffffffffffffff021916908373ffffffffffffffffffffffffffffffffffffffff1602179055505080806200029490620005aa565b91505062000081565b50505062000759565b6000620002bd620002b784620004ec565b620004c3565b90508083825260208201905082856020860282011115620002e357620002e26200068a565b5b60005b85811015620003175781620002fc888262000321565b845260208401935060208301925050600181019050620002e6565b5050509392505050565b600081519050620003328162000725565b92915050565b600082601f83011262000350576200034f62000685565b5b815162000362848260208601620002a6565b91505092915050565b6000815190506200037c816200073f565b92915050565b600080604083850312156200039c576200039b62000694565b5b600083015167ffffffffffffffff811115620003bd57620003bc6200068f565b5b620003cb8582860162000338565b9250506020620003de858286016200036b565b9150509250929050565b6000620003f7600d836200051b565b91506200040482620006aa565b602082019050919050565b60006200041e600f836200051b565b91506200042b82620006d3565b602082019050919050565b6000620004456009836200051b565b91506200045282620006fc565b602082019050919050565b600060208201905081810360008301526200047881620003e8565b9050919050565b600060208201905081810360008301526200049a816200040f565b9050919050565b60006020820190508181036000830152620004bc8162000436565b9050919050565b6000620004cf620004e2565b9050620004dd828262000574565b919050565b6000604051905090565b600067ffffffffffffffff8211156200050a576200050962000656565b5b602082029050602081019050919050565b600082825260208201905092915050565b600062000539826200054a565b9050919050565b6000819050919050565b600073ffffffffffffffffffffffffffffffffffffffff82169050919050565b6000819050919050565b6200057f8262000699565b810181811067ffffffffffffffff82111715620005a157620005a062000656565b5b80604052505050565b6000620005b7826200056a565b91507fffffffffffffffffffffffffffffffffffffffffffffffffffffffffffffffff821415620005ed57620005ec620005f8565b5b600182019050919050565b7f4e487b7100000000000000000000000000000000000000000000000000000000600052601160045260246000fd5b7f4e487b7100000000000000000000000000000000000000000000000000000000600052603260045260246000fd5b7f4e487b7100000000000000000000000000000000000000000000000000000000600052604160045260246000fd5b600080fd5b600080fd5b600080fd5b600080fd5b6000601f19601f8301169050919050565b7f616c7265616479206f776e657200000000000000000000000000000000000000600082015250565b7f696e76616c696420616464726573730000000000000000000000000000000000600082015250565b7f6e6f206f776e6572730000000000000000000000000000000000000000000000600082015250565b62000730816200052c565b81146200073c57600080fd5b50565b6200074a8162000540565b81146200075657600080fd5b50565b6108ca80620007696000396000f3fe6080604052600436106100385760003560e01c8063073cbe491461004457806314de327f14610081578063b759f954146100aa5761003f565b3661003f57005b600080fd5b34801561005057600080fd5b5061006b60048036038101906100669190610635565b6100d3565b60405161007891906106b4565b60405180910390f35b34801561008d57600080fd5b506100a860048036038101906100a391906105c1565b6101bf565b005b3480156100b657600080fd5b506100d160048036038101906100cc9190610635565b610359565b005b600060028054905082106100e657600080fd5b60005b6001805490508110156101b9576004600084815260200190815260200160002060006001838154811061011f5761011e6107f5565b5b9060005260206000200160009054906101000a900473ffffffffffffffffffffffffffffffffffffffff1673ffffffffffffffffffffffffffffffffffffffff1673ffffffffffffffffffffffffffffffffffffffff16815260200190815260200160002060009054906101000a900460ff16156101a65781806101a29061074e565b9250505b80806101b19061074e565b9150506100e9565b50919050565b6000803373ffffffffffffffffffffffffffffffffffffffff1673ffffffffffffffffffffffffffffffffffffffff16815260200190815260200160002060009054906101000a900460ff1661021457600080fd5b600060405180608001604052808673ffffffffffffffffffffffffffffffffffffffff16815260200185815260200184848080601f016020809104026020016040519081016040528093929190818152602001838380828437600081840152601f19601f820116905080830192505050505050508152602001600015158152509050600281908060018154018082558091505060019003906000526020600020906004020160009091909190915060008201518160000160006101000a81548173ffffffffffffffffffffffffffffffffffffffff021916908373ffffffffffffffffffffffffffffffffffffffff16021790555060208201518160010155604082015181600201908051906020019061032f92919061049e565b5060608201518160030160006101000a81548160ff02191690831515021790555050505050505050565b6000803373ffffffffffffffffffffffffffffffffffffffff1673ffffffffffffffffffffffffffffffffffffffff16815260200190815260200160002060009054906101000a900460ff166103ae57600080fd5b60028054905081106103bf57600080fd5b600281815481106103d3576103d26107f5565b5b906000526020600020906004020160030160009054906101000a900460ff1615610432576040517f08c379a000000000000000000000000000000000000000000000000000000000815260040161042990610694565b60405180910390fd5b60016004600083815260200190815260200160002060003373ffffffffffffffffffffffffffffffffffffffff1673ffffffffffffffffffffffffffffffffffffffff16815260200190815260200160002060006101000a81548160ff02191690831515021790555050565b8280546104aa9061071c565b90600052602060002090601f0160209004810192826104cc5760008555610513565b82601f106104e557805160ff1916838001178555610513565b82800160010185558215610513579182015b828111156105125782518255916020019190600101906104f7565b5b5090506105209190610524565b5090565b5b8082111561053d576000816000905550600101610525565b5090565b60008135905061055081610866565b92915050565b60008083601f84011261056c5761056b610829565b5b8235905067ffffffffffffffff81111561058957610588610824565b5b6020830191508360018202830111156105a5576105a461082e565b5b9250929050565b6000813590506105bb8161087d565b92915050565b600080600080606085870312156105db576105da610838565b5b60006105e987828801610541565b94505060206105fa878288016105ac565b935050604085013567ffffffffffffffff81111561061b5761061a610833565b5b61062787828801610556565b925092505092959194509250565b60006020828403121561064b5761064a610838565b5b6000610659848285016105ac565b91505092915050565b600061066f6010836106cf565b915061067a8261083d565b602082019050919050565b61068e81610712565b82525050565b600060208201905081810360008301526106ad81610662565b9050919050565b60006020820190506106c96000830184610685565b92915050565b600082825260208201905092915050565b60006106eb826106f2565b9050919050565b600073ffffffffffffffffffffffffffffffffffffffff82169050919050565b6000819050919050565b6000600282049050600182168061073457607f821691505b60208210811415610748576107476107c6565b5b50919050565b600061075982610712565b91507fffffffffffffffffffffffffffffffffffffffffffffffffffffffffffffffff82141561078c5761078b610797565b5b600182019050919050565b7f4e487b7100000000000000000000000000000000000000000000000000000000600052601160045260246000fd5b7f4e487b7100000000000000000000000000000000000000000000000000000000600052602260045260246000fd5b7f4e487b7100000000000000000000000000000000000000000000000000000000600052603260045260246000fd5b600080fd5b600080fd5b600080fd5b600080fd5b600080fd5b7f6176726561647920657865637574656400000000000000000000000000000000600082015250565b61086f816106e0565b811461087a57600080fd5b50565b61088681610712565b811461089157600080fd5b5056fea2646970667358221220b6e4eb7b4c80cccf221209a552415c1785dfabe6a7cd4c78cfd3d9b6b4475bb964736f6c63430008070033",
					"opcodes": "PUSH1 0x80 PUSH1 0x40 MSTORE CALLVALUE DUP1 ISZERO PUSH3 0x11 JUMPI PUSH1 0x0 DUP1 REVERT JUMPDEST POP PUSH1 0x40 MLOAD PUSH3 0x1033 CODESIZE SUB DUP1 PUSH3 0x1033 DUP4 CODECOPY DUP2 DUP2 ADD PUSH1 0x40 MSTORE DUP2 ADD SWAP1 PUSH3 0x37 SWAP2 SWAP1 PUSH3 0x382 JUMP JUMPDEST PUSH1 0x0 DUP3 MLOAD GT PUSH3 0x7E JUMPI PUSH1 0x40 MLOAD PUSH32 0x8C379A000000000000000000000000000000000000000000000000000000000 DUP2 MSTORE PUSH1 0x4 ADD PUSH3 0x75 SWAP1 PUSH3 0x4A1 JUMP JUMPDEST PUSH1 0x40 MLOAD DUP1 SWAP2 SUB SWAP1 REVERT JUMPDEST PUSH1 0x0 JUMPDEST DUP3 MLOAD DUP2 LT ISZERO PUSH3 0x29D JUMPI PUSH1 0x0 DUP4 DUP3 DUP2 MLOAD DUP2 LT PUSH3 0xA3 JUMPI PUSH3 0xA2 PUSH3 0x627 JUMP JUMPDEST JUMPDEST PUSH1 0x20 MUL PUSH1 0x20 ADD ADD MLOAD SWAP1 POP PUSH1 0x0 PUSH20 0xFFFFFFFFFFFFFFFFFFFFFFFFFFFFFFFFFFFFFFFF AND DUP5 DUP4 DUP2 MLOAD DUP2 LT PUSH3 0xDB JUMPI PUSH3 0xDA PUSH3 0x627 JUMP JUMPDEST JUMPDEST PUSH1 0x20 MUL PUSH1 0x20 ADD ADD MLOAD PUSH20 0xFFFFFFFFFFFFFFFFFFFFFFFFFFFFFFFFFFFFFFFF AND EQ ISZERO PUSH3 0x13D JUMPI PUSH1 0x40 MLOAD PUSH32 0x8C379A000000000000000000000000000000000000000000000000000000000 DUP2 MSTORE PUSH1 0x4 ADD PUSH3 0x134 SWAP1 PUSH3 0x47F JUMP JUMPDEST PUSH1 0x40 MLOAD DUP1 SWAP2 SUB SWAP1 REVERT JUMPDEST PUSH1 0x0 DUP1 DUP3 PUSH20 0xFFFFFFFFFFFFFFFFFFFFFFFFFFFFFFFFFFFFFFFF AND PUSH20 0xFFFFFFFFFFFFFFFFFFFFFFFFFFFFFFFFFFFFFFFF AND DUP2 MSTORE PUSH1 0x20 ADD SWAP1 DUP2 MSTORE PUSH1 0x20 ADD PUSH1 0x0 KECCAK256 PUSH1 0x0 SWAP1 SLOAD SWAP1 PUSH2 0x100 EXP SWAP1 DIV PUSH1 0xFF AND ISZERO PUSH3 0x1CC JUMPI PUSH1 0x40 MLOAD PUSH32 0x8C379A000000000000000000000000000000000000000000000000000000000 DUP2 MSTORE PUSH1 0x4 ADD PUSH3 0x1C3 SWAP1 PUSH3 0x45D JUMP JUMPDEST PUSH1 0x40 MLOAD DUP1 SWAP2 SUB SWAP1 REVERT JUMPDEST PUSH1 0x1 PUSH1 0x0 DUP1 DUP4 PUSH20 0xFFFFFFFFFFFFFFFFFFFFFFFFFFFFFFFFFFFFFFFF AND PUSH20 0xFFFFFFFFFFFFFFFFFFFFFFFFFFFFFFFFFFFFFFFF AND DUP2 MSTORE PUSH1 0x20 ADD SWAP1 DUP2 MSTORE PUSH1 0x20 ADD PUSH1 0x0 KECCAK256 PUSH1 0x0 PUSH2 0x100 EXP DUP2 SLOAD DUP2 PUSH1 0xFF MUL NOT AND SWAP1 DUP4 ISZERO ISZERO MUL OR SWAP1 SSTORE POP PUSH1 0x1 DUP2 SWAP1 DUP1 PUSH1 0x1 DUP2 SLOAD ADD DUP1 DUP3 SSTORE DUP1 SWAP2 POP POP PUSH1 0x1 SWAP1 SUB SWAP1 PUSH1 0x0 MSTORE PUSH1 0x20 PUSH1 0x0 KECCAK256 ADD PUSH1 0x0 SWAP1 SWAP2 SWAP1 SWAP2 SWAP1 SWAP2 PUSH2 0x100 EXP DUP2 SLOAD DUP2 PUSH20 0xFFFFFFFFFFFFFFFFFFFFFFFFFFFFFFFFFFFFFFFF MUL NOT AND SWAP1 DUP4 PUSH20 0xFFFFFFFFFFFFFFFFFFFFFFFFFFFFFFFFFFFFFFFF AND MUL OR SWAP1 SSTORE POP POP DUP1 DUP1 PUSH3 0x294 SWAP1 PUSH3 0x5AA JUMP JUMPDEST SWAP2 POP POP PUSH3 0x81 JUMP JUMPDEST POP POP POP PUSH3 0x759 JUMP JUMPDEST PUSH1 0x0 PUSH3 0x2BD PUSH3 0x2B7 DUP5 PUSH3 0x4EC JUMP JUMPDEST PUSH3 0x4C3 JUMP JUMPDEST SWAP1 POP DUP1 DUP4 DUP3 MSTORE PUSH1 0x20 DUP3 ADD SWAP1 POP DUP3 DUP6 PUSH1 0x20 DUP7 MUL DUP3 ADD GT ISZERO PUSH3 0x2E3 JUMPI PUSH3 0x2E2 PUSH3 0x68A JUMP JUMPDEST JUMPDEST PUSH1 0x0 JUMPDEST DUP6 DUP2 LT ISZERO PUSH3 0x317 JUMPI DUP2 PUSH3 0x2FC DUP9 DUP3 PUSH3 0x321 JUMP JUMPDEST DUP5 MSTORE PUSH1 0x20 DUP5 ADD SWAP4 POP PUSH1 0x20 DUP4 ADD SWAP3 POP POP PUSH1 0x1 DUP2 ADD SWAP1 POP PUSH3 0x2E6 JUMP JUMPDEST POP POP POP SWAP4 SWAP3 POP POP POP JUMP JUMPDEST PUSH1 0x0 DUP2 MLOAD SWAP1 POP PUSH3 0x332 DUP2 PUSH3 0x725 JUMP JUMPDEST SWAP3 SWAP2 POP POP JUMP JUMPDEST PUSH1 0x0 DUP3 PUSH1 0x1F DUP4 ADD SLT PUSH3 0x350 JUMPI PUSH3 0x34F PUSH3 0x685 JUMP JUMPDEST JUMPDEST DUP2 MLOAD PUSH3 0x362 DUP5 DUP3 PUSH1 0x20 DUP7 ADD PUSH3 0x2A6 JUMP JUMPDEST SWAP2 POP POP SWAP3 SWAP2 POP POP JUMP JUMPDEST PUSH1 0x0 DUP2 MLOAD SWAP1 POP PUSH3 0x37C DUP2 PUSH3 0x73F JUMP JUMPDEST SWAP3 SWAP2 POP POP JUMP JUMPDEST PUSH1 0x0 DUP1 PUSH1 0x40 DUP4 DUP6 SUB SLT ISZERO PUSH3 0x39C JUMPI PUSH3 0x39B PUSH3 0x694 JUMP JUMPDEST JUMPDEST PUSH1 0x0 DUP4 ADD MLOAD PUSH8 0xFFFFFFFFFFFFFFFF DUP2 GT ISZERO PUSH3 0x3BD JUMPI PUSH3 0x3BC PUSH3 0x68F JUMP JUMPDEST JUMPDEST PUSH3 0x3CB DUP6 DUP3 DUP7 ADD PUSH3 0x338 JUMP JUMPDEST SWAP3 POP POP PUSH1 0x20 PUSH3 0x3DE DUP6 DUP3 DUP7 ADD PUSH3 0x36B JUMP JUMPDEST SWAP2 POP POP SWAP3 POP SWAP3 SWAP1 POP JUMP JUMPDEST PUSH1 0x0 PUSH3 0x3F7 PUSH1 0xD DUP4 PUSH3 0x51B JUMP JUMPDEST SWAP2 POP PUSH3 0x404 DUP3 PUSH3 0x6AA JUMP JUMPDEST PUSH1 0x20 DUP3 ADD SWAP1 POP SWAP2 SWAP1 POP JUMP JUMPDEST PUSH1 0x0 PUSH3 0x41E PUSH1 0xF DUP4 PUSH3 0x51B JUMP JUMPDEST SWAP2 POP PUSH3 0x42B DUP3 PUSH3 0x6D3 JUMP JUMPDEST PUSH1 0x20 DUP3 ADD SWAP1 POP SWAP2 SWAP1 POP JUMP JUMPDEST PUSH1 0x0 PUSH3 0x445 PUSH1 0x9 DUP4 PUSH3 0x51B JUMP JUMPDEST SWAP2 POP PUSH3 0x452 DUP3 PUSH3 0x6FC JUMP JUMPDEST PUSH1 0x20 DUP3 ADD SWAP1 POP SWAP2 SWAP1 POP JUMP JUMPDEST PUSH1 0x0 PUSH1 0x20 DUP3 ADD SWAP1 POP DUP2 DUP2 SUB PUSH1 0x0 DUP4 ADD MSTORE PUSH3 0x478 DUP2 PUSH3 0x3E8 JUMP JUMPDEST SWAP1 POP SWAP2 SWAP1 POP JUMP JUMPDEST PUSH1 0x0 PUSH1 0x20 DUP3 ADD SWAP1 POP DUP2 DUP2 SUB PUSH1 0x0 DUP4 ADD MSTORE PUSH3 0x49A DUP2 PUSH3 0x40F JUMP JUMPDEST SWAP1 POP SWAP2 SWAP1 POP JUMP JUMPDEST PUSH1 0x0 PUSH1 0x20 DUP3 ADD SWAP1 POP DUP2 DUP2 SUB PUSH1 0x0 DUP4 ADD MSTORE PUSH3 0x4BC DUP2 PUSH3 0x436 JUMP JUMPDEST SWAP1 POP SWAP2 SWAP1 POP JUMP JUMPDEST PUSH1 0x0 PUSH3 0x4CF PUSH3 0x4E2 JUMP JUMPDEST SWAP1 POP PUSH3 0x4DD DUP3 DUP3 PUSH3 0x574 JUMP JUMPDEST SWAP2 SWAP1 POP JUMP JUMPDEST PUSH1 0x0 PUSH1 0x40 MLOAD SWAP1 POP SWAP1 JUMP JUMPDEST PUSH1 0x0 PUSH8 0xFFFFFFFFFFFFFFFF DUP3 GT ISZERO PUSH3 0x50A JUMPI PUSH3 0x509 PUSH3 0x656 JUMP JUMPDEST JUMPDEST PUSH1 0x20 DUP3 MUL SWAP1 POP PUSH1 0x20 DUP2 ADD SWAP1 POP SWAP2 SWAP1 POP JUMP JUMPDEST PUSH1 0x0 DUP3 DUP3 MSTORE PUSH1 0x20 DUP3 ADD SWAP1 POP SWAP3 SWAP2 POP POP JUMP JUMPDEST PUSH1 0x0 PUSH3 0x539 DUP3 PUSH3 0x54A JUMP JUMPDEST SWAP1 POP SWAP2 SWAP1 POP JUMP JUMPDEST PUSH1 0x0 DUP2 SWAP1 POP SWAP2 SWAP1 POP JUMP JUMPDEST PUSH1 0x0 PUSH20 0xFFFFFFFFFFFFFFFFFFFFFFFFFFFFFFFFFFFFFFFF DUP3 AND SWAP1 POP SWAP2 SWAP1 POP JUMP JUMPDEST PUSH1 0x0 DUP2 SWAP1 POP SWAP2 SWAP1 POP JUMP JUMPDEST PUSH3 0x57F DUP3 PUSH3 0x699 JUMP JUMPDEST DUP2 ADD DUP2 DUP2 LT PUSH8 0xFFFFFFFFFFFFFFFF DUP3 GT OR ISZERO PUSH3 0x5A1 JUMPI PUSH3 0x5A0 PUSH3 0x656 JUMP JUMPDEST JUMPDEST DUP1 PUSH1 0x40 MSTORE POP POP POP JUMP JUMPDEST PUSH1 0x0 PUSH3 0x5B7 DUP3 PUSH3 0x56A JUMP JUMPDEST SWAP2 POP PUSH32 0xFFFFFFFFFFFFFFFFFFFFFFFFFFFFFFFFFFFFFFFFFFFFFFFFFFFFFFFFFFFFFFFF DUP3 EQ ISZERO PUSH3 0x5ED JUMPI PUSH3 0x5EC PUSH3 0x5F8 JUMP JUMPDEST JUMPDEST PUSH1 0x1 DUP3 ADD SWAP1 POP SWAP2 SWAP1 POP JUMP JUMPDEST PUSH32 0x4E487B7100000000000000000000000000000000000000000000000000000000 PUSH1 0x0 MSTORE PUSH1 0x11 PUSH1 0x4 MSTORE PUSH1 0x24 PUSH1 0x0 REVERT JUMPDEST PUSH32 0x4E487B7100000000000000000000000000000000000000000000000000000000 PUSH1 0x0 MSTORE PUSH1 0x32 PUSH1 0x4 MSTORE PUSH1 0x24 PUSH1 0x0 REVERT JUMPDEST PUSH32 0x4E487B7100000000000000000000000000000000000000000000000000000000 PUSH1 0x0 MSTORE PUSH1 0x41 PUSH1 0x4 MSTORE PUSH1 0x24 PUSH1 0x0 REVERT JUMPDEST PUSH1 0x0 DUP1 REVERT JUMPDEST PUSH1 0x0 DUP1 REVERT JUMPDEST PUSH1 0x0 DUP1 REVERT JUMPDEST PUSH1 0x0 DUP1 REVERT JUMPDEST PUSH1 0x0 PUSH1 0x1F NOT PUSH1 0x1F DUP4 ADD AND SWAP1 POP SWAP2 SWAP1 POP JUMP JUMPDEST PUSH32 0x616C7265616479206F776E657200000000000000000000000000000000000000 PUSH1 0x0 DUP3 ADD MSTORE POP JUMP JUMPDEST PUSH32 0x696E76616C696420616464726573730000000000000000000000000000000000 PUSH1 0x0 DUP3 ADD MSTORE POP JUMP JUMPDEST PUSH32 0x6E6F206F776E6572730000000000000000000000000000000000000000000000 PUSH1 0x0 DUP3 ADD MSTORE POP JUMP JUMPDEST PUSH3 0x730 DUP2 PUSH3 0x52C JUMP JUMPDEST DUP2 EQ PUSH3 0x73C JUMPI PUSH1 0x0 DUP1 REVERT JUMPDEST POP JUMP JUMPDEST PUSH3 0x74A DUP2 PUSH3 0x540 JUMP JUMPDEST DUP2 EQ PUSH3 0x756 JUMPI PUSH1 0x0 DUP1 REVERT JUMPDEST POP JUMP JUMPDEST PUSH2 0x8CA DUP1 PUSH3 0x769 PUSH1 0x0 CODECOPY PUSH1 0x0 RETURN INVALID PUSH1 0x80 PUSH1 0x40 MSTORE PUSH1 0x4 CALLDATASIZE LT PUSH2 0x38 JUMPI PUSH1 0x0 CALLDATALOAD PUSH1 0xE0 SHR DUP1 PUSH4 0x73CBE49 EQ PUSH2 0x44 JUMPI DUP1 PUSH4 0x14DE327F EQ PUSH2 0x81 JUMPI DUP1 PUSH4 0xB759F954 EQ PUSH2 0xAA JUMPI PUSH2 0x3F JUMP JUMPDEST CALLDATASIZE PUSH2 0x3F JUMPI STOP JUMPDEST PUSH1 0x0 DUP1 REVERT JUMPDEST CALLVALUE DUP1 ISZERO PUSH2 0x50 JUMPI PUSH1 0x0 DUP1 REVERT JUMPDEST POP PUSH2 0x6B PUSH1 0x4 DUP1 CALLDATASIZE SUB DUP2 ADD SWAP1 PUSH2 0x66 SWAP2 SWAP1 PUSH2 0x635 JUMP JUMPDEST PUSH2 0xD3 JUMP JUMPDEST PUSH1 0x40 MLOAD PUSH2 0x78 SWAP2 SWAP1 PUSH2 0x6B4 JUMP JUMPDEST PUSH1 0x40 MLOAD DUP1 SWAP2 SUB SWAP1 RETURN JUMPDEST CALLVALUE DUP1 ISZERO PUSH2 0x8D JUMPI PUSH1 0x0 DUP1 REVERT JUMPDEST POP PUSH2 0xA8 PUSH1 0x4 DUP1 CALLDATASIZE SUB DUP2 ADD SWAP1 PUSH2 0xA3 SWAP2 SWAP1 PUSH2 0x5C1 JUMP JUMPDEST PUSH2 0x1BF JUMP JUMPDEST STOP JUMPDEST CALLVALUE DUP1 ISZERO PUSH2 0xB6 JUMPI PUSH1 0x0 DUP1 REVERT JUMPDEST POP PUSH2 0xD1 PUSH1 0x4 DUP1 CALLDATASIZE SUB DUP2 ADD SWAP1 PUSH2 0xCC SWAP2 SWAP1 PUSH2 0x635 JUMP JUMPDEST PUSH2 0x359 JUMP JUMPDEST STOP JUMPDEST PUSH1 0x0 PUSH1 0x2 DUP1 SLOAD SWAP1 POP DUP3 LT PUSH2 0xE6 JUMPI PUSH1 0x0 DUP1 REVERT JUMPDEST PUSH1 0x0 JUMPDEST PUSH1 0x1 DUP1 SLOAD SWAP1 POP DUP2 LT ISZERO PUSH2 0x1B9 JUMPI PUSH1 0x4 PUSH1 0x0 DUP5 DUP2 MSTORE PUSH1 0x20 ADD SWAP1 DUP2 MSTORE PUSH1 0x20 ADD PUSH1 0x0 KECCAK256 PUSH1 0x0 PUSH1 0x1 DUP4 DUP2 SLOAD DUP2 LT PUSH2 0x11F JUMPI PUSH2 0x11E PUSH2 0x7F5 JUMP JUMPDEST JUMPDEST SWAP1 PUSH1 0x0 MSTORE PUSH1 0x20 PUSH1 0x0 KECCAK256 ADD PUSH1 0x0 SWAP1 SLOAD SWAP1 PUSH2 0x100 EXP SWAP1 DIV PUSH20 0xFFFFFFFFFFFFFFFFFFFFFFFFFFFFFFFFFFFFFFFF AND PUSH20 0xFFFFFFFFFFFFFFFFFFFFFFFFFFFFFFFFFFFFFFFF AND PUSH20 0xFFFFFFFFFFFFFFFFFFFFFFFFFFFFFFFFFFFFFFFF AND DUP2 MSTORE PUSH1 0x20 ADD SWAP1 DUP2 MSTORE PUSH1 0x20 ADD PUSH1 0x0 KECCAK256 PUSH1 0x0 SWAP1 SLOAD SWAP1 PUSH2 0x100 EXP SWAP1 DIV PUSH1 0xFF AND ISZERO PUSH2 0x1A6 JUMPI DUP2 DUP1 PUSH2 0x1A2 SWAP1 PUSH2 0x74E JUMP JUMPDEST SWAP3 POP POP JUMPDEST DUP1 DUP1 PUSH2 0x1B1 SWAP1 PUSH2 0x74E JUMP JUMPDEST SWAP2 POP POP PUSH2 0xE9 JUMP JUMPDEST POP SWAP2 SWAP1 POP JUMP JUMPDEST PUSH1 0x0 DUP1 CALLER PUSH20 0xFFFFFFFFFFFFFFFFFFFFFFFFFFFFFFFFFFFFFFFF AND PUSH20 0xFFFFFFFFFFFFFFFFFFFFFFFFFFFFFFFFFFFFFFFF AND DUP2 MSTORE PUSH1 0x20 ADD SWAP1 DUP2 MSTORE PUSH1 0x20 ADD PUSH1 0x0 KECCAK256 PUSH1 0x0 SWAP1 SLOAD SWAP1 PUSH2 0x100 EXP SWAP1 DIV PUSH1 0xFF AND PUSH2 0x214 JUMPI PUSH1 0x0 DUP1 REVERT JUMPDEST PUSH1 0x0 PUSH1 0x40 MLOAD DUP1 PUSH1 0x80 ADD PUSH1 0x40 MSTORE DUP1 DUP7 PUSH20 0xFFFFFFFFFFFFFFFFFFFFFFFFFFFFFFFFFFFFFFFF AND DUP2 MSTORE PUSH1 0x20 ADD DUP6 DUP2 MSTORE PUSH1 0x20 ADD DUP5 DUP5 DUP1 DUP1 PUSH1 0x1F ADD PUSH1 0x20 DUP1 SWAP2 DIV MUL PUSH1 0x20 ADD PUSH1 0x40 MLOAD SWAP1 DUP2 ADD PUSH1 0x40 MSTORE DUP1 SWAP4 SWAP3 SWAP2 SWAP1 DUP2 DUP2 MSTORE PUSH1 0x20 ADD DUP4 DUP4 DUP1 DUP3 DUP5 CALLDATACOPY PUSH1 0x0 DUP2 DUP5 ADD MSTORE PUSH1 0x1F NOT PUSH1 0x1F DUP3 ADD AND SWAP1 POP DUP1 DUP4 ADD SWAP3 POP POP POP POP POP POP POP DUP2 MSTORE PUSH1 0x20 ADD PUSH1 0x0 ISZERO ISZERO DUP2 MSTORE POP SWAP1 POP PUSH1 0x2 DUP2 SWAP1 DUP1 PUSH1 0x1 DUP2 SLOAD ADD DUP1 DUP3 SSTORE DUP1 SWAP2 POP POP PUSH1 0x1 SWAP1 SUB SWAP1 PUSH1 0x0 MSTORE PUSH1 0x20 PUSH1 0x0 KECCAK256 SWAP1 PUSH1 0x4 MUL ADD PUSH1 0x0 SWAP1 SWAP2 SWAP1 SWAP2 SWAP1 SWAP2 POP PUSH1 0x0 DUP3 ADD MLOAD DUP2 PUSH1 0x0 ADD PUSH1 0x0 PUSH2 0x100 EXP DUP2 SLOAD DUP2 PUSH20 0xFFFFFFFFFFFFFFFFFFFFFFFFFFFFFFFFFFFFFFFF MUL NOT AND SWAP1 DUP4 PUSH20 0xFFFFFFFFFFFFFFFFFFFFFFFFFFFFFFFFFFFFFFFF AND MUL OR SWAP1 SSTORE POP PUSH1 0x20 DUP3 ADD MLOAD DUP2 PUSH1 0x1 ADD SSTORE PUSH1 0x40 DUP3 ADD MLOAD DUP2 PUSH1 0x2 ADD SWAP1 DUP1 MLOAD SWAP1 PUSH1 0x20 ADD SWAP1 PUSH2 0x32F SWAP3 SWAP2 SWAP1 PUSH2 0x49E JUMP JUMPDEST POP PUSH1 0x60 DUP3 ADD MLOAD DUP2 PUSH1 0x3 ADD PUSH1 0x0 PUSH2 0x100 EXP DUP2 SLOAD DUP2 PUSH1 0xFF MUL NOT AND SWAP1 DUP4 ISZERO ISZERO MUL OR SWAP1 SSTORE POP POP POP POP POP POP POP POP JUMP JUMPDEST PUSH1 0x0 DUP1 CALLER PUSH20 0xFFFFFFFFFFFFFFFFFFFFFFFFFFFFFFFFFFFFFFFF AND PUSH20 0xFFFFFFFFFFFFFFFFFFFFFFFFFFFFFFFFFFFFFFFF AND DUP2 MSTORE PUSH1 0x20 ADD SWAP1 DUP2 MSTORE PUSH1 0x20 ADD PUSH1 0x0 KECCAK256 PUSH1 0x0 SWAP1 SLOAD SWAP1 PUSH2 0x100 EXP SWAP1 DIV PUSH1 0xFF AND PUSH2 0x3AE JUMPI PUSH1 0x0 DUP1 REVERT JUMPDEST PUSH1 0x2 DUP1 SLOAD SWAP1 POP DUP2 LT PUSH2 0x3BF JUMPI PUSH1 0x0 DUP1 REVERT JUMPDEST PUSH1 0x2 DUP2 DUP2 SLOAD DUP2 LT PUSH2 0x3D3 JUMPI PUSH2 0x3D2 PUSH2 0x7F5 JUMP JUMPDEST JUMPDEST SWAP1 PUSH1 0x0 MSTORE PUSH1 0x20 PUSH1 0x0 KECCAK256 SWAP1 PUSH1 0x4 MUL ADD PUSH1 0x3 ADD PUSH1 0x0 SWAP1 SLOAD SWAP1 PUSH2 0x100 EXP SWAP1 DIV PUSH1 0xFF AND ISZERO PUSH2 0x432 JUMPI PUSH1 0x40 MLOAD PUSH32 0x8C379A000000000000000000000000000000000000000000000000000000000 DUP2 MSTORE PUSH1 0x4 ADD PUSH2 0x429 SWAP1 PUSH2 0x694 JUMP JUMPDEST PUSH1 0x40 MLOAD DUP1 SWAP2 SUB SWAP1 REVERT JUMPDEST PUSH1 0x1 PUSH1 0x4 PUSH1 0x0 DUP4 DUP2 MSTORE PUSH1 0x20 ADD SWAP1 DUP2 MSTORE PUSH1 0x20 ADD PUSH1 0x0 KECCAK256 PUSH1 0x0 CALLER PUSH20 0xFFFFFFFFFFFFFFFFFFFFFFFFFFFFFFFFFFFFFFFF AND PUSH20 0xFFFFFFFFFFFFFFFFFFFFFFFFFFFFFFFFFFFFFFFF AND DUP2 MSTORE PUSH1 0x20 ADD SWAP1 DUP2 MSTORE PUSH1 0x20 ADD PUSH1 0x0 KECCAK256 PUSH1 0x0 PUSH2 0x100 EXP DUP2 SLOAD DUP2 PUSH1 0xFF MUL NOT AND SWAP1 DUP4 ISZERO ISZERO MUL OR SWAP1 SSTORE POP POP JUMP JUMPDEST DUP3 DUP1 SLOAD PUSH2 0x4AA SWAP1 PUSH2 0x71C JUMP JUMPDEST SWAP1 PUSH1 0x0 MSTORE PUSH1 0x20 PUSH1 0x0 KECCAK256 SWAP1 PUSH1 0x1F ADD PUSH1 0x20 SWAP1 DIV DUP2 ADD SWAP3 DUP3 PUSH2 0x4CC JUMPI PUSH1 0x0 DUP6 SSTORE PUSH2 0x513 JUMP JUMPDEST DUP3 PUSH1 0x1F LT PUSH2 0x4E5 JUMPI DUP1 MLOAD PUSH1 0xFF NOT AND DUP4 DUP1 ADD OR DUP6 SSTORE PUSH2 0x513 JUMP JUMPDEST DUP3 DUP1 ADD PUSH1 0x1 ADD DUP6 SSTORE DUP3 ISZERO PUSH2 0x513 JUMPI SWAP2 DUP3 ADD JUMPDEST DUP3 DUP2 GT ISZERO PUSH2 0x512 JUMPI DUP3 MLOAD DUP3 SSTORE SWAP2 PUSH1 0x20 ADD SWAP2 SWAP1 PUSH1 0x1 ADD SWAP1 PUSH2 0x4F7 JUMP JUMPDEST JUMPDEST POP SWAP1 POP PUSH2 0x520 SWAP2 SWAP1 PUSH2 0x524 JUMP JUMPDEST POP SWAP1 JUMP JUMPDEST JUMPDEST DUP1 DUP3 GT ISZERO PUSH2 0x53D JUMPI PUSH1 0x0 DUP2 PUSH1 0x0 SWAP1 SSTORE POP PUSH1 0x1 ADD PUSH2 0x525 JUMP JUMPDEST POP SWAP1 JUMP JUMPDEST PUSH1 0x0 DUP2 CALLDATALOAD SWAP1 POP PUSH2 0x550 DUP2 PUSH2 0x866 JUMP JUMPDEST SWAP3 SWAP2 POP POP JUMP JUMPDEST PUSH1 0x0 DUP1 DUP4 PUSH1 0x1F DUP5 ADD SLT PUSH2 0x56C JUMPI PUSH2 0x56B PUSH2 0x829 JUMP JUMPDEST JUMPDEST DUP3 CALLDATALOAD SWAP1 POP PUSH8 0xFFFFFFFFFFFFFFFF DUP2 GT ISZERO PUSH2 0x589 JUMPI PUSH2 0x588 PUSH2 0x824 JUMP JUMPDEST JUMPDEST PUSH1 0x20 DUP4 ADD SWAP2 POP DUP4 PUSH1 0x1 DUP3 MUL DUP4 ADD GT ISZERO PUSH2 0x5A5 JUMPI PUSH2 0x5A4 PUSH2 0x82E JUMP JUMPDEST JUMPDEST SWAP3 POP SWAP3 SWAP1 POP JUMP JUMPDEST PUSH1 0x0 DUP2 CALLDATALOAD SWAP1 POP PUSH2 0x5BB DUP2 PUSH2 0x87D JUMP JUMPDEST SWAP3 SWAP2 POP POP JUMP JUMPDEST PUSH1 0x0 DUP1 PUSH1 0x0 DUP1 PUSH1 0x60 DUP6 DUP8 SUB SLT ISZERO PUSH2 0x5DB JUMPI PUSH2 0x5DA PUSH2 0x838 JUMP JUMPDEST JUMPDEST PUSH1 0x0 PUSH2 0x5E9 DUP8 DUP3 DUP9 ADD PUSH2 0x541 JUMP JUMPDEST SWAP5 POP POP PUSH1 0x20 PUSH2 0x5FA DUP8 DUP3 DUP9 ADD PUSH2 0x5AC JUMP JUMPDEST SWAP4 POP POP PUSH1 0x40 DUP6 ADD CALLDATALOAD PUSH8 0xFFFFFFFFFFFFFFFF DUP2 GT ISZERO PUSH2 0x61B JUMPI PUSH2 0x61A PUSH2 0x833 JUMP JUMPDEST JUMPDEST PUSH2 0x627 DUP8 DUP3 DUP9 ADD PUSH2 0x556 JUMP JUMPDEST SWAP3 POP SWAP3 POP POP SWAP3 SWAP6 SWAP2 SWAP5 POP SWAP3 POP JUMP JUMPDEST PUSH1 0x0 PUSH1 0x20 DUP3 DUP5 SUB SLT ISZERO PUSH2 0x64B JUMPI PUSH2 0x64A PUSH2 0x838 JUMP JUMPDEST JUMPDEST PUSH1 0x0 PUSH2 0x659 DUP5 DUP3 DUP6 ADD PUSH2 0x5AC JUMP JUMPDEST SWAP2 POP POP SWAP3 SWAP2 POP POP JUMP JUMPDEST PUSH1 0x0 PUSH2 0x66F PUSH1 0x10 DUP4 PUSH2 0x6CF JUMP JUMPDEST SWAP2 POP PUSH2 0x67A DUP3 PUSH2 0x83D JUMP JUMPDEST PUSH1 0x20 DUP3 ADD SWAP1 POP SWAP2 SWAP1 POP JUMP JUMPDEST PUSH2 0x68E DUP2 PUSH2 0x712 JUMP JUMPDEST DUP3 MSTORE POP POP JUMP JUMPDEST PUSH1 0x0 PUSH1 0x20 DUP3 ADD SWAP1 POP DUP2 DUP2 SUB PUSH1 0x0 DUP4 ADD MSTORE PUSH2 0x6AD DUP2 PUSH2 0x662 JUMP JUMPDEST SWAP1 POP SWAP2 SWAP1 POP JUMP JUMPDEST PUSH1 0x0 PUSH1 0x20 DUP3 ADD SWAP1 POP PUSH2 0x6C9 PUSH1 0x0 DUP4 ADD DUP5 PUSH2 0x685 JUMP JUMPDEST SWAP3 SWAP2 POP POP JUMP JUMPDEST PUSH1 0x0 DUP3 DUP3 MSTORE PUSH1 0x20 DUP3 ADD SWAP1 POP SWAP3 SWAP2 POP POP JUMP JUMPDEST PUSH1 0x0 PUSH2 0x6EB DUP3 PUSH2 0x6F2 JUMP JUMPDEST SWAP1 POP SWAP2 SWAP1 POP JUMP JUMPDEST PUSH1 0x0 PUSH20 0xFFFFFFFFFFFFFFFFFFFFFFFFFFFFFFFFFFFFFFFF DUP3 AND SWAP1 POP SWAP2 SWAP1 POP JUMP JUMPDEST PUSH1 0x0 DUP2 SWAP1 POP SWAP2 SWAP1 POP JUMP JUMPDEST PUSH1 0x0 PUSH1 0x2 DUP3 DIV SWAP1 POP PUSH1 0x1 DUP3 AND DUP1 PUSH2 0x734 JUMPI PUSH1 0x7F DUP3 AND SWAP2 POP JUMPDEST PUSH1 0x20 DUP3 LT DUP2 EQ ISZERO PUSH2 0x748 JUMPI PUSH2 0x747 PUSH2 0x7C6 JUMP JUMPDEST JUMPDEST POP SWAP2 SWAP1 POP JUMP JUMPDEST PUSH1 0x0 PUSH2 0x759 DUP3 PUSH2 0x712 JUMP JUMPDEST SWAP2 POP PUSH32 0xFFFFFFFFFFFFFFFFFFFFFFFFFFFFFFFFFFFFFFFFFFFFFFFFFFFFFFFFFFFFFFFF DUP3 EQ ISZERO PUSH2 0x78C JUMPI PUSH2 0x78B PUSH2 0x797 JUMP JUMPDEST JUMPDEST PUSH1 0x1 DUP3 ADD SWAP1 POP SWAP2 SWAP1 POP JUMP JUMPDEST PUSH32 0x4E487B7100000000000000000000000000000000000000000000000000000000 PUSH1 0x0 MSTORE PUSH1 0x11 PUSH1 0x4 MSTORE PUSH1 0x24 PUSH1 0x0 REVERT JUMPDEST PUSH32 0x4E487B7100000000000000000000000000000000000000000000000000000000 PUSH1 0x0 MSTORE PUSH1 0x22 PUSH1 0x4 MSTORE PUSH1 0x24 PUSH1 0x0 REVERT JUMPDEST PUSH32 0x4E487B7100000000000000000000000000000000000000000000000000000000 PUSH1 0x0 MSTORE PUSH1 0x32 PUSH1 0x4 MSTORE PUSH1 0x24 PUSH1 0x0 REVERT JUMPDEST PUSH1 0x0 DUP1 REVERT JUMPDEST PUSH1 0x0 DUP1 REVERT JUMPDEST PUSH1 0x0 DUP1 REVERT JUMPDEST PUSH1 0x0 DUP1 REVERT JUMPDEST PUSH1 0x0 DUP1 REVERT JUMPDEST PUSH32 0x6176726561647920657865637574656400000000000000000000000000000000 PUSH1 0x0 DUP3 ADD MSTORE POP JUMP JUMPDEST PUSH2 0x86F DUP2 PUSH2 0x6E0 JUMP JUMPDEST DUP2 EQ PUSH2 0x87A JUMPI PUSH1 0x0 DUP1 REVERT JUMPDEST POP JUMP JUMPDEST PUSH2 0x886 DUP2 PUSH2 0x712 JUMP JUMPDEST DUP2 EQ PUSH2 0x891 JUMPI PUSH1 0x0 DUP1 REVERT JUMPDEST POP JUMP INVALID LOG2 PUSH5 0x6970667358 0x22 SLT KECCAK256 0xB6 0xE4 0xEB PUSH28 0x4C80CCCF221209A552415C1785DFABE6A7CD4C78CFD3D9B6B4475BB9 PUSH5 0x736F6C6343 STOP ADDMOD SMOD STOP CALLER "
				},
				"gasEstimates": {
					"creation": {
						"codeDepositCost": "450000",
						"executionCost": "infinite",
						"totalCost": "infinite"
					},
					"external": {
						"approve(uint256)": "33588",
						"getApprovedCount(uint256)": "infinite",
						"submit(address,uint256,bytes)": "infinite"
					}
				},
				"methodIdentifiers": {
					"approve(uint256)": "b759f954",
					"getApprovedCount(uint256)": "073cbe49",
					"submit(address,uint256,bytes)": "14de327f"
				}
			},
			"storageLayout": {
				"storage": [
					{
						"astId": 5,
						"contract": "MultiSigWallet.sol:MultiSigWallet",
						"label": "isOwner",
						"offset": 0,
						"slot": "0",
						"type": "t_mapping(t_address,t_bool)"
					},
					{
						"astId": 8,
						"contract": "MultiSigWallet.sol:MultiSigWallet",
						"label": "owners",
						"offset": 0,
						"slot": "1",
						"type": "t_array(t_address)dyn_storage"
					},
					{
						"astId": 21,
						"contract": "MultiSigWallet.sol:MultiSigWallet",
						"label": "transactons",
						"offset": 0,
						"slot": "2",
						"type": "t_array(t_struct(Transaction)17_storage)dyn_storage"
					},
					{
						"astId": 23,
						"contract": "MultiSigWallet.sol:MultiSigWallet",
						"label": "required",
						"offset": 0,
						"slot": "3",
						"type": "t_uint256"
					},
					{
						"astId": 29,
						"contract": "MultiSigWallet.sol:MultiSigWallet",
						"label": "approved",
						"offset": 0,
						"slot": "4",
						"type": "t_mapping(t_uint256,t_mapping(t_address,t_bool))"
					}
				],
				"types": {
					"t_address": {
						"encoding": "inplace",
						"label": "address",
						"numberOfBytes": "20"
					},
					"t_array(t_address)dyn_storage": {
						"base": "t_address",
						"encoding": "dynamic_array",
						"label": "address[]",
						"numberOfBytes": "32"
					},
					"t_array(t_struct(Transaction)17_storage)dyn_storage": {
						"base": "t_struct(Transaction)17_storage",
						"encoding": "dynamic_array",
						"label": "struct MultiSigWallet.Transaction[]",
						"numberOfBytes": "32"
					},
					"t_bool": {
						"encoding": "inplace",
						"label": "bool",
						"numberOfBytes": "1"
					},
					"t_bytes_storage": {
						"encoding": "bytes",
						"label": "bytes",
						"numberOfBytes": "32"
					},
					"t_mapping(t_address,t_bool)": {
						"encoding": "mapping",
						"key": "t_address",
						"label": "mapping(address => bool)",
						"numberOfBytes": "32",
						"value": "t_bool"
					},
					"t_mapping(t_uint256,t_mapping(t_address,t_bool))": {
						"encoding": "mapping",
						"key": "t_uint256",
						"label": "mapping(uint256 => mapping(address => bool))",
						"numberOfBytes": "32",
						"value": "t_mapping(t_address,t_bool)"
					},
					"t_struct(Transaction)17_storage": {
						"encoding": "inplace",
						"label": "struct MultiSigWallet.Transaction",
						"members": [
							{
								"astId": 10,
								"contract": "MultiSigWallet.sol:MultiSigWallet",
								"label": "destination",
								"offset": 0,
								"slot": "0",
								"type": "t_address"
							},
							{
								"astId": 12,
								"contract": "MultiSigWallet.sol:MultiSigWallet",
								"label": "value",
								"offset": 0,
								"slot": "1",
								"type": "t_uint256"
							},
							{
								"astId": 14,
								"contract": "MultiSigWallet.sol:MultiSigWallet",
								"label": "data",
								"offset": 0,
								"slot": "2",
								"type": "t_bytes_storage"
							},
							{
								"astId": 16,
								"contract": "MultiSigWallet.sol:MultiSigWallet",
								"label": "executed",
								"offset": 0,
								"slot": "3",
								"type": "t_bool"
							}
						],
						"numberOfBytes": "128"
					},
					"t_uint256": {
						"encoding": "inplace",
						"label": "uint256",
						"numberOfBytes": "32"
					}
				}
			},
			"userdoc": {
				"kind": "user",
				"methods": {},
				"version": 1
			}
		}
	}
}