{
	"CallOther.sol": {
		"CallTest": {
			"abi": [
				{
					"inputs": [
						{
							"internalType": "address",
							"name": "c",
							"type": "address"
						}
					],
					"name": "getX",
					"outputs": [
						{
							"internalType": "uint256",
							"name": "",
							"type": "uint256"
						}
					],
					"stateMutability": "view",
					"type": "function"
				},
				{
					"inputs": [
						{
							"internalType": "contract Test",
							"name": "c",
							"type": "address"
						}
					],
					"name": "pay",
					"outputs": [
						{
							"internalType": "uint256",
							"name": "",
							"type": "uint256"
						}
					],
					"stateMutability": "payable",
					"type": "function"
				},
				{
					"inputs": [
						{
							"internalType": "contract Test",
							"name": "c",
							"type": "address"
						},
						{
							"internalType": "uint256",
							"name": "_x",
							"type": "uint256"
						}
					],
					"name": "set",
					"outputs": [],
					"stateMutability": "nonpayable",
					"type": "function"
				}
			],
			"devdoc": {
				"kind": "dev",
				"methods": {},
				"version": 1
			},
			"evm": {
				"assembly": "    /* \"CallOther.sol\":56:347  contract CallTest{... */\n  mstore(0x40, 0x80)\n  callvalue\n  dup1\n  iszero\n  tag_1\n  jumpi\n  0x00\n  dup1\n  revert\ntag_1:\n  pop\n  dataSize(sub_0)\n  dup1\n  dataOffset(sub_0)\n  0x00\n  codecopy\n  0x00\n  return\nstop\n\nsub_0: assembly {\n        /* \"CallOther.sol\":56:347  contract CallTest{... */\n      mstore(0x40, 0x80)\n      jumpi(tag_1, lt(calldatasize, 0x04))\n      shr(0xe0, calldataload(0x00))\n      dup1\n      0x0c11dedd\n      eq\n      tag_2\n      jumpi\n      dup1\n      0x3825d828\n      eq\n      tag_3\n      jumpi\n      dup1\n      0x7c94c8ca\n      eq\n      tag_4\n      jumpi\n    tag_1:\n      0x00\n      dup1\n      revert\n        /* \"CallOther.sol\":245:344  function pay(Test c) external payable returns(uint){... */\n    tag_2:\n      tag_5\n      0x04\n      dup1\n      calldatasize\n      sub\n      dup2\n      add\n      swap1\n      tag_6\n      swap2\n      swap1\n      tag_7\n      jump\t// in\n    tag_6:\n      tag_8\n      jump\t// in\n    tag_5:\n      mload(0x40)\n      tag_9\n      swap2\n      swap1\n      tag_10\n      jump\t// in\n    tag_9:\n      mload(0x40)\n      dup1\n      swap2\n      sub\n      swap1\n      return\n        /* \"CallOther.sol\":174:239  function set(Test c,uint _x) external {... */\n    tag_3:\n      callvalue\n      dup1\n      iszero\n      tag_11\n      jumpi\n      0x00\n      dup1\n      revert\n    tag_11:\n      pop\n      tag_12\n      0x04\n      dup1\n      calldatasize\n      sub\n      dup2\n      add\n      swap1\n      tag_13\n      swap2\n      swap1\n      tag_14\n      jump\t// in\n    tag_13:\n      tag_15\n      jump\t// in\n    tag_12:\n      stop\n        /* \"CallOther.sol\":79:169  function getX(address c) external view returns(uint){... */\n    tag_4:\n      callvalue\n      dup1\n      iszero\n      tag_16\n      jumpi\n      0x00\n      dup1\n      revert\n    tag_16:\n      pop\n      tag_17\n      0x04\n      dup1\n      calldatasize\n      sub\n      dup2\n      add\n      swap1\n      tag_18\n      swap2\n      swap1\n      tag_19\n      jump\t// in\n    tag_18:\n      tag_20\n      jump\t// in\n    tag_17:\n      mload(0x40)\n      tag_21\n      swap2\n      swap1\n      tag_10\n      jump\t// in\n    tag_21:\n      mload(0x40)\n      dup1\n      swap2\n      sub\n      swap1\n      return\n        /* \"CallOther.sol\":245:344  function pay(Test c) external payable returns(uint){... */\n    tag_8:\n        /* \"CallOther.sol\":291:295  uint */\n      0x00\n        /* \"CallOther.sol\":313:314  c */\n      dup2\n        /* \"CallOther.sol\":313:318  c.pay */\n      0xffffffffffffffffffffffffffffffffffffffff\n      and\n      0x1b9265b8\n        /* \"CallOther.sol\":325:334  msg.value */\n      callvalue\n        /* \"CallOther.sol\":313:337  c.pay{value:msg.value}() */\n      mload(0x40)\n      dup3\n      0xffffffff\n      and\n      0xe0\n      shl\n      dup2\n      mstore\n      0x04\n      add\n      0x20\n      mload(0x40)\n      dup1\n      dup4\n      sub\n      dup2\n      dup6\n      dup9\n      dup1\n      extcodesize\n      iszero\n      dup1\n      iszero\n      tag_23\n      jumpi\n      0x00\n      dup1\n      revert\n    tag_23:\n      pop\n      gas\n      call\n      iszero\n      dup1\n      iszero\n      tag_25\n      jumpi\n      returndatasize\n      0x00\n      dup1\n      returndatacopy\n      revert(0x00, returndatasize)\n    tag_25:\n      pop\n      pop\n      pop\n      pop\n      pop\n      mload(0x40)\n      returndatasize\n      not(0x1f)\n      0x1f\n      dup3\n      add\n      and\n      dup3\n      add\n      dup1\n      0x40\n      mstore\n      pop\n      dup2\n      add\n      swap1\n      tag_26\n      swap2\n      swap1\n      tag_27\n      jump\t// in\n    tag_26:\n        /* \"CallOther.sol\":306:337  return c.pay{value:msg.value}() */\n      swap1\n      pop\n        /* \"CallOther.sol\":245:344  function pay(Test c) external payable returns(uint){... */\n      swap2\n      swap1\n      pop\n      jump\t// out\n        /* \"CallOther.sol\":174:239  function set(Test c,uint _x) external {... */\n    tag_15:\n        /* \"CallOther.sol\":222:223  c */\n      dup2\n        /* \"CallOther.sol\":222:228  c.setX */\n      0xffffffffffffffffffffffffffffffffffffffff\n      and\n      0x4018d9aa\n        /* \"CallOther.sol\":229:231  _x */\n      dup3\n        /* \"CallOther.sol\":222:232  c.setX(_x) */\n      mload(0x40)\n      dup3\n      0xffffffff\n      and\n      0xe0\n      shl\n      dup2\n      mstore\n      0x04\n      add\n      tag_29\n      swap2\n      swap1\n      tag_10\n      jump\t// in\n    tag_29:\n      0x00\n      mload(0x40)\n      dup1\n      dup4\n      sub\n      dup2\n      0x00\n      dup8\n      dup1\n      extcodesize\n      iszero\n      dup1\n      iszero\n      tag_30\n      jumpi\n      0x00\n      dup1\n      revert\n    tag_30:\n      pop\n      gas\n      call\n      iszero\n      dup1\n      iszero\n      tag_32\n      jumpi\n      returndatasize\n      0x00\n      dup1\n      returndatacopy\n      revert(0x00, returndatasize)\n    tag_32:\n      pop\n      pop\n      pop\n      pop\n        /* \"CallOther.sol\":174:239  function set(Test c,uint _x) external {... */\n      pop\n      pop\n      jump\t// out\n        /* \"CallOther.sol\":79:169  function getX(address c) external view returns(uint){... */\n    tag_20:\n        /* \"CallOther.sol\":126:130  uint */\n      0x00\n        /* \"CallOther.sol\":153:154  c */\n      dup2\n        /* \"CallOther.sol\":148:160  Test(c).getX */\n      0xffffffffffffffffffffffffffffffffffffffff\n      and\n      0x5197c7aa\n        /* \"CallOther.sol\":148:162  Test(c).getX() */\n      mload(0x40)\n      dup2\n      0xffffffff\n      and\n      0xe0\n      shl\n      dup2\n      mstore\n      0x04\n      add\n      0x20\n      mload(0x40)\n      dup1\n      dup4\n      sub\n      dup2\n      dup7\n      dup1\n      extcodesize\n      iszero\n      dup1\n      iszero\n      tag_34\n      jumpi\n      0x00\n      dup1\n      revert\n    tag_34:\n      pop\n      gas\n      staticcall\n      iszero\n      dup1\n      iszero\n      tag_36\n      jumpi\n      returndatasize\n      0x00\n      dup1\n      returndatacopy\n      revert(0x00, returndatasize)\n    tag_36:\n      pop\n      pop\n      pop\n      pop\n      mload(0x40)\n      returndatasize\n      not(0x1f)\n      0x1f\n      dup3\n      add\n      and\n      dup3\n      add\n      dup1\n      0x40\n      mstore\n      pop\n      dup2\n      add\n      swap1\n      tag_37\n      swap2\n      swap1\n      tag_27\n      jump\t// in\n    tag_37:\n        /* \"CallOther.sol\":141:162  return Test(c).getX() */\n      swap1\n      pop\n        /* \"CallOther.sol\":79:169  function getX(address c) external view returns(uint){... */\n      swap2\n      swap1\n      pop\n      jump\t// out\n        /* \"#utility.yul\":7:146   */\n    tag_39:\n        /* \"#utility.yul\":53:58   */\n      0x00\n        /* \"#utility.yul\":91:97   */\n      dup2\n        /* \"#utility.yul\":78:98   */\n      calldataload\n        /* \"#utility.yul\":69:98   */\n      swap1\n      pop\n        /* \"#utility.yul\":107:140   */\n      tag_41\n        /* \"#utility.yul\":134:139   */\n      dup2\n        /* \"#utility.yul\":107:140   */\n      tag_42\n      jump\t// in\n    tag_41:\n        /* \"#utility.yul\":7:146   */\n      swap3\n      swap2\n      pop\n      pop\n      jump\t// out\n        /* \"#utility.yul\":152:313   */\n    tag_43:\n        /* \"#utility.yul\":209:214   */\n      0x00\n        /* \"#utility.yul\":247:253   */\n      dup2\n        /* \"#utility.yul\":234:254   */\n      calldataload\n        /* \"#utility.yul\":225:254   */\n      swap1\n      pop\n        /* \"#utility.yul\":263:307   */\n      tag_45\n        /* \"#utility.yul\":301:306   */\n      dup2\n        /* \"#utility.yul\":263:307   */\n      tag_46\n      jump\t// in\n    tag_45:\n        /* \"#utility.yul\":152:313   */\n      swap3\n      swap2\n      pop\n      pop\n      jump\t// out\n        /* \"#utility.yul\":319:458   */\n    tag_47:\n        /* \"#utility.yul\":365:370   */\n      0x00\n        /* \"#utility.yul\":403:409   */\n      dup2\n        /* \"#utility.yul\":390:410   */\n      calldataload\n        /* \"#utility.yul\":381:410   */\n      swap1\n      pop\n        /* \"#utility.yul\":419:452   */\n      tag_49\n        /* \"#utility.yul\":446:451   */\n      dup2\n        /* \"#utility.yul\":419:452   */\n      tag_50\n      jump\t// in\n    tag_49:\n        /* \"#utility.yul\":319:458   */\n      swap3\n      swap2\n      pop\n      pop\n      jump\t// out\n        /* \"#utility.yul\":464:607   */\n    tag_51:\n        /* \"#utility.yul\":521:526   */\n      0x00\n        /* \"#utility.yul\":552:558   */\n      dup2\n        /* \"#utility.yul\":546:559   */\n      mload\n        /* \"#utility.yul\":537:559   */\n      swap1\n      pop\n        /* \"#utility.yul\":568:601   */\n      tag_53\n        /* \"#utility.yul\":595:600   */\n      dup2\n        /* \"#utility.yul\":568:601   */\n      tag_50\n      jump\t// in\n    tag_53:\n        /* \"#utility.yul\":464:607   */\n      swap3\n      swap2\n      pop\n      pop\n      jump\t// out\n        /* \"#utility.yul\":613:942   */\n    tag_19:\n        /* \"#utility.yul\":672:678   */\n      0x00\n        /* \"#utility.yul\":721:723   */\n      0x20\n        /* \"#utility.yul\":709:718   */\n      dup3\n        /* \"#utility.yul\":700:707   */\n      dup5\n        /* \"#utility.yul\":696:719   */\n      sub\n        /* \"#utility.yul\":692:724   */\n      slt\n        /* \"#utility.yul\":689:808   */\n      iszero\n      tag_55\n      jumpi\n        /* \"#utility.yul\":727:806   */\n      tag_56\n      tag_57\n      jump\t// in\n    tag_56:\n        /* \"#utility.yul\":689:808   */\n    tag_55:\n        /* \"#utility.yul\":847:848   */\n      0x00\n        /* \"#utility.yul\":872:925   */\n      tag_58\n        /* \"#utility.yul\":917:924   */\n      dup5\n        /* \"#utility.yul\":908:914   */\n      dup3\n        /* \"#utility.yul\":897:906   */\n      dup6\n        /* \"#utility.yul\":893:915   */\n      add\n        /* \"#utility.yul\":872:925   */\n      tag_39\n      jump\t// in\n    tag_58:\n        /* \"#utility.yul\":862:925   */\n      swap2\n      pop\n        /* \"#utility.yul\":818:935   */\n      pop\n        /* \"#utility.yul\":613:942   */\n      swap3\n      swap2\n      pop\n      pop\n      jump\t// out\n        /* \"#utility.yul\":948:1299   */\n    tag_7:\n        /* \"#utility.yul\":1018:1024   */\n      0x00\n        /* \"#utility.yul\":1067:1069   */\n      0x20\n        /* \"#utility.yul\":1055:1064   */\n      dup3\n        /* \"#utility.yul\":1046:1053   */\n      dup5\n        /* \"#utility.yul\":1042:1065   */\n      sub\n        /* \"#utility.yul\":1038:1070   */\n      slt\n        /* \"#utility.yul\":1035:1154   */\n      iszero\n      tag_60\n      jumpi\n        /* \"#utility.yul\":1073:1152   */\n      tag_61\n      tag_57\n      jump\t// in\n    tag_61:\n        /* \"#utility.yul\":1035:1154   */\n    tag_60:\n        /* \"#utility.yul\":1193:1194   */\n      0x00\n        /* \"#utility.yul\":1218:1282   */\n      tag_62\n        /* \"#utility.yul\":1274:1281   */\n      dup5\n        /* \"#utility.yul\":1265:1271   */\n      dup3\n        /* \"#utility.yul\":1254:1263   */\n      dup6\n        /* \"#utility.yul\":1250:1272   */\n      add\n        /* \"#utility.yul\":1218:1282   */\n      tag_43\n      jump\t// in\n    tag_62:\n        /* \"#utility.yul\":1208:1282   */\n      swap2\n      pop\n        /* \"#utility.yul\":1164:1292   */\n      pop\n        /* \"#utility.yul\":948:1299   */\n      swap3\n      swap2\n      pop\n      pop\n      jump\t// out\n        /* \"#utility.yul\":1305:1801   */\n    tag_14:\n        /* \"#utility.yul\":1384:1390   */\n      0x00\n        /* \"#utility.yul\":1392:1398   */\n      dup1\n        /* \"#utility.yul\":1441:1443   */\n      0x40\n        /* \"#utility.yul\":1429:1438   */\n      dup4\n        /* \"#utility.yul\":1420:1427   */\n      dup6\n        /* \"#utility.yul\":1416:1439   */\n      sub\n        /* \"#utility.yul\":1412:1444   */\n      slt\n        /* \"#utility.yul\":1409:1528   */\n      iszero\n      tag_64\n      jumpi\n        /* \"#utility.yul\":1447:1526   */\n      tag_65\n      tag_57\n      jump\t// in\n    tag_65:\n        /* \"#utility.yul\":1409:1528   */\n    tag_64:\n        /* \"#utility.yul\":1567:1568   */\n      0x00\n        /* \"#utility.yul\":1592:1656   */\n      tag_66\n        /* \"#utility.yul\":1648:1655   */\n      dup6\n        /* \"#utility.yul\":1639:1645   */\n      dup3\n        /* \"#utility.yul\":1628:1637   */\n      dup7\n        /* \"#utility.yul\":1624:1646   */\n      add\n        /* \"#utility.yul\":1592:1656   */\n      tag_43\n      jump\t// in\n    tag_66:\n        /* \"#utility.yul\":1582:1656   */\n      swap3\n      pop\n        /* \"#utility.yul\":1538:1666   */\n      pop\n        /* \"#utility.yul\":1705:1707   */\n      0x20\n        /* \"#utility.yul\":1731:1784   */\n      tag_67\n        /* \"#utility.yul\":1776:1783   */\n      dup6\n        /* \"#utility.yul\":1767:1773   */\n      dup3\n        /* \"#utility.yul\":1756:1765   */\n      dup7\n        /* \"#utility.yul\":1752:1774   */\n      add\n        /* \"#utility.yul\":1731:1784   */\n      tag_47\n      jump\t// in\n    tag_67:\n        /* \"#utility.yul\":1721:1784   */\n      swap2\n      pop\n        /* \"#utility.yul\":1676:1794   */\n      pop\n        /* \"#utility.yul\":1305:1801   */\n      swap3\n      pop\n      swap3\n      swap1\n      pop\n      jump\t// out\n        /* \"#utility.yul\":1807:2158   */\n    tag_27:\n        /* \"#utility.yul\":1877:1883   */\n      0x00\n        /* \"#utility.yul\":1926:1928   */\n      0x20\n        /* \"#utility.yul\":1914:1923   */\n      dup3\n        /* \"#utility.yul\":1905:1912   */\n      dup5\n        /* \"#utility.yul\":1901:1924   */\n      sub\n        /* \"#utility.yul\":1897:1929   */\n      slt\n        /* \"#utility.yul\":1894:2013   */\n      iszero\n      tag_69\n      jumpi\n        /* \"#utility.yul\":1932:2011   */\n      tag_70\n      tag_57\n      jump\t// in\n    tag_70:\n        /* \"#utility.yul\":1894:2013   */\n    tag_69:\n        /* \"#utility.yul\":2052:2053   */\n      0x00\n        /* \"#utility.yul\":2077:2141   */\n      tag_71\n        /* \"#utility.yul\":2133:2140   */\n      dup5\n        /* \"#utility.yul\":2124:2130   */\n      dup3\n        /* \"#utility.yul\":2113:2122   */\n      dup6\n        /* \"#utility.yul\":2109:2131   */\n      add\n        /* \"#utility.yul\":2077:2141   */\n      tag_51\n      jump\t// in\n    tag_71:\n        /* \"#utility.yul\":2067:2141   */\n      swap2\n      pop\n        /* \"#utility.yul\":2023:2151   */\n      pop\n        /* \"#utility.yul\":1807:2158   */\n      swap3\n      swap2\n      pop\n      pop\n      jump\t// out\n        /* \"#utility.yul\":2164:2282   */\n    tag_72:\n        /* \"#utility.yul\":2251:2275   */\n      tag_74\n        /* \"#utility.yul\":2269:2274   */\n      dup2\n        /* \"#utility.yul\":2251:2275   */\n      tag_75\n      jump\t// in\n    tag_74:\n        /* \"#utility.yul\":2246:2249   */\n      dup3\n        /* \"#utility.yul\":2239:2276   */\n      mstore\n        /* \"#utility.yul\":2164:2282   */\n      pop\n      pop\n      jump\t// out\n        /* \"#utility.yul\":2288:2510   */\n    tag_10:\n        /* \"#utility.yul\":2381:2385   */\n      0x00\n        /* \"#utility.yul\":2419:2421   */\n      0x20\n        /* \"#utility.yul\":2408:2417   */\n      dup3\n        /* \"#utility.yul\":2404:2422   */\n      add\n        /* \"#utility.yul\":2396:2422   */\n      swap1\n      pop\n        /* \"#utility.yul\":2432:2503   */\n      tag_77\n        /* \"#utility.yul\":2500:2501   */\n      0x00\n        /* \"#utility.yul\":2489:2498   */\n      dup4\n        /* \"#utility.yul\":2485:2502   */\n      add\n        /* \"#utility.yul\":2476:2482   */\n      dup5\n        /* \"#utility.yul\":2432:2503   */\n      tag_72\n      jump\t// in\n    tag_77:\n        /* \"#utility.yul\":2288:2510   */\n      swap3\n      swap2\n      pop\n      pop\n      jump\t// out\n        /* \"#utility.yul\":2597:2693   */\n    tag_80:\n        /* \"#utility.yul\":2634:2641   */\n      0x00\n        /* \"#utility.yul\":2663:2687   */\n      tag_82\n        /* \"#utility.yul\":2681:2686   */\n      dup3\n        /* \"#utility.yul\":2663:2687   */\n      tag_83\n      jump\t// in\n    tag_82:\n        /* \"#utility.yul\":2652:2687   */\n      swap1\n      pop\n        /* \"#utility.yul\":2597:2693   */\n      swap2\n      swap1\n      pop\n      jump\t// out\n        /* \"#utility.yul\":2699:2806   */\n    tag_84:\n        /* \"#utility.yul\":2747:2754   */\n      0x00\n        /* \"#utility.yul\":2776:2800   */\n      tag_86\n        /* \"#utility.yul\":2794:2799   */\n      dup3\n        /* \"#utility.yul\":2776:2800   */\n      tag_80\n      jump\t// in\n    tag_86:\n        /* \"#utility.yul\":2765:2800   */\n      swap1\n      pop\n        /* \"#utility.yul\":2699:2806   */\n      swap2\n      swap1\n      pop\n      jump\t// out\n        /* \"#utility.yul\":2812:2938   */\n    tag_83:\n        /* \"#utility.yul\":2849:2856   */\n      0x00\n        /* \"#utility.yul\":2889:2931   */\n      0xffffffffffffffffffffffffffffffffffffffff\n        /* \"#utility.yul\":2882:2887   */\n      dup3\n        /* \"#utility.yul\":2878:2932   */\n      and\n        /* \"#utility.yul\":2867:2932   */\n      swap1\n      pop\n        /* \"#utility.yul\":2812:2938   */\n      swap2\n      swap1\n      pop\n      jump\t// out\n        /* \"#utility.yul\":2944:3021   */\n    tag_75:\n        /* \"#utility.yul\":2981:2988   */\n      0x00\n        /* \"#utility.yul\":3010:3015   */\n      dup2\n        /* \"#utility.yul\":2999:3015   */\n      swap1\n      pop\n        /* \"#utility.yul\":2944:3021   */\n      swap2\n      swap1\n      pop\n      jump\t// out\n        /* \"#utility.yul\":3150:3267   */\n    tag_57:\n        /* \"#utility.yul\":3259:3260   */\n      0x00\n        /* \"#utility.yul\":3256:3257   */\n      dup1\n        /* \"#utility.yul\":3249:3261   */\n      revert\n        /* \"#utility.yul\":3273:3395   */\n    tag_42:\n        /* \"#utility.yul\":3346:3370   */\n      tag_93\n        /* \"#utility.yul\":3364:3369   */\n      dup2\n        /* \"#utility.yul\":3346:3370   */\n      tag_80\n      jump\t// in\n    tag_93:\n        /* \"#utility.yul\":3339:3344   */\n      dup2\n        /* \"#utility.yul\":3336:3371   */\n      eq\n        /* \"#utility.yul\":3326:3389   */\n      tag_94\n      jumpi\n        /* \"#utility.yul\":3385:3386   */\n      0x00\n        /* \"#utility.yul\":3382:3383   */\n      dup1\n        /* \"#utility.yul\":3375:3387   */\n      revert\n        /* \"#utility.yul\":3326:3389   */\n    tag_94:\n        /* \"#utility.yul\":3273:3395   */\n      pop\n      jump\t// out\n        /* \"#utility.yul\":3401:3545   */\n    tag_46:\n        /* \"#utility.yul\":3485:3520   */\n      tag_96\n        /* \"#utility.yul\":3514:3519   */\n      dup2\n        /* \"#utility.yul\":3485:3520   */\n      tag_84\n      jump\t// in\n    tag_96:\n        /* \"#utility.yul\":3478:3483   */\n      dup2\n        /* \"#utility.yul\":3475:3521   */\n      eq\n        /* \"#utility.yul\":3465:3539   */\n      tag_97\n      jumpi\n        /* \"#utility.yul\":3535:3536   */\n      0x00\n        /* \"#utility.yul\":3532:3533   */\n      dup1\n        /* \"#utility.yul\":3525:3537   */\n      revert\n        /* \"#utility.yul\":3465:3539   */\n    tag_97:\n        /* \"#utility.yul\":3401:3545   */\n      pop\n      jump\t// out\n        /* \"#utility.yul\":3551:3673   */\n    tag_50:\n        /* \"#utility.yul\":3624:3648   */\n      tag_99\n        /* \"#utility.yul\":3642:3647   */\n      dup2\n        /* \"#utility.yul\":3624:3648   */\n      tag_75\n      jump\t// in\n    tag_99:\n        /* \"#utility.yul\":3617:3622   */\n      dup2\n        /* \"#utility.yul\":3614:3649   */\n      eq\n        /* \"#utility.yul\":3604:3667   */\n      tag_100\n      jumpi\n        /* \"#utility.yul\":3663:3664   */\n      0x00\n        /* \"#utility.yul\":3660:3661   */\n      dup1\n        /* \"#utility.yul\":3653:3665   */\n      revert\n        /* \"#utility.yul\":3604:3667   */\n    tag_100:\n        /* \"#utility.yul\":3551:3673   */\n      pop\n      jump\t// out\n\n    auxdata: 0xa2646970667358221220db4eda6a09e08f3e93037a738cd95936958767f921414d209198bcddf6b3858364736f6c63430008070033\n}\n",
				"bytecode": {
					"linkReferences": {},
					"object": "608060405234801561001057600080fd5b50610462806100206000396000f3fe6080604052600436106100345760003560e01c80630c11dedd146100395780633825d828146100695780637c94c8ca14610092575b600080fd5b610053600480360381019061004e91906102d0565b6100cf565b6040516100609190610379565b60405180910390f35b34801561007557600080fd5b50610090600480360381019061008b91906102fd565b610159565b005b34801561009e57600080fd5b506100b960048036038101906100b491906102a3565b6101c8565b6040516100c69190610379565b60405180910390f35b60008173ffffffffffffffffffffffffffffffffffffffff16631b9265b8346040518263ffffffff1660e01b81526004016020604051808303818588803b15801561011957600080fd5b505af115801561012d573d6000803e3d6000fd5b50505050506040513d601f19601f82011682018060405250810190610152919061033d565b9050919050565b8173ffffffffffffffffffffffffffffffffffffffff16634018d9aa826040518263ffffffff1660e01b81526004016101929190610379565b600060405180830381600087803b1580156101ac57600080fd5b505af11580156101c0573d6000803e3d6000fd5b505050505050565b60008173ffffffffffffffffffffffffffffffffffffffff16635197c7aa6040518163ffffffff1660e01b815260040160206040518083038186803b15801561021057600080fd5b505afa158015610224573d6000803e3d6000fd5b505050506040513d601f19601f82011682018060405250810190610248919061033d565b9050919050565b60008135905061025e816103e7565b92915050565b600081359050610273816103fe565b92915050565b60008135905061028881610415565b92915050565b60008151905061029d81610415565b92915050565b6000602082840312156102b9576102b86103e2565b5b60006102c78482850161024f565b91505092915050565b6000602082840312156102e6576102e56103e2565b5b60006102f484828501610264565b91505092915050565b60008060408385031215610314576103136103e2565b5b600061032285828601610264565b925050602061033385828601610279565b9150509250929050565b600060208284031215610353576103526103e2565b5b60006103618482850161028e565b91505092915050565b610373816103d8565b82525050565b600060208201905061038e600083018461036a565b92915050565b600061039f826103b8565b9050919050565b60006103b182610394565b9050919050565b600073ffffffffffffffffffffffffffffffffffffffff82169050919050565b6000819050919050565b600080fd5b6103f081610394565b81146103fb57600080fd5b50565b610407816103a6565b811461041257600080fd5b50565b61041e816103d8565b811461042957600080fd5b5056fea2646970667358221220db4eda6a09e08f3e93037a738cd95936958767f921414d209198bcddf6b3858364736f6c63430008070033",
					"opcodes": "PUSH1 0x80 PUSH1 0x40 MSTORE CALLVALUE DUP1 ISZERO PUSH2 0x10 JUMPI PUSH1 0x0 DUP1 REVERT JUMPDEST POP PUSH2 0x462 DUP1 PUSH2 0x20 PUSH1 0x0 CODECOPY PUSH1 0x0 RETURN INVALID PUSH1 0x80 PUSH1 0x40 MSTORE PUSH1 0x4 CALLDATASIZE LT PUSH2 0x34 JUMPI PUSH1 0x0 CALLDATALOAD PUSH1 0xE0 SHR DUP1 PUSH4 0xC11DEDD EQ PUSH2 0x39 JUMPI DUP1 PUSH4 0x3825D828 EQ PUSH2 0x69 JUMPI DUP1 PUSH4 0x7C94C8CA EQ PUSH2 0x92 JUMPI JUMPDEST PUSH1 0x0 DUP1 REVERT JUMPDEST PUSH2 0x53 PUSH1 0x4 DUP1 CALLDATASIZE SUB DUP2 ADD SWAP1 PUSH2 0x4E SWAP2 SWAP1 PUSH2 0x2D0 JUMP JUMPDEST PUSH2 0xCF JUMP JUMPDEST PUSH1 0x40 MLOAD PUSH2 0x60 SWAP2 SWAP1 PUSH2 0x379 JUMP JUMPDEST PUSH1 0x40 MLOAD DUP1 SWAP2 SUB SWAP1 RETURN JUMPDEST CALLVALUE DUP1 ISZERO PUSH2 0x75 JUMPI PUSH1 0x0 DUP1 REVERT JUMPDEST POP PUSH2 0x90 PUSH1 0x4 DUP1 CALLDATASIZE SUB DUP2 ADD SWAP1 PUSH2 0x8B SWAP2 SWAP1 PUSH2 0x2FD JUMP JUMPDEST PUSH2 0x159 JUMP JUMPDEST STOP JUMPDEST CALLVALUE DUP1 ISZERO PUSH2 0x9E JUMPI PUSH1 0x0 DUP1 REVERT JUMPDEST POP PUSH2 0xB9 PUSH1 0x4 DUP1 CALLDATASIZE SUB DUP2 ADD SWAP1 PUSH2 0xB4 SWAP2 SWAP1 PUSH2 0x2A3 JUMP JUMPDEST PUSH2 0x1C8 JUMP JUMPDEST PUSH1 0x40 MLOAD PUSH2 0xC6 SWAP2 SWAP1 PUSH2 0x379 JUMP JUMPDEST PUSH1 0x40 MLOAD DUP1 SWAP2 SUB SWAP1 RETURN JUMPDEST PUSH1 0x0 DUP2 PUSH20 0xFFFFFFFFFFFFFFFFFFFFFFFFFFFFFFFFFFFFFFFF AND PUSH4 0x1B9265B8 CALLVALUE PUSH1 0x40 MLOAD DUP3 PUSH4 0xFFFFFFFF AND PUSH1 0xE0 SHL DUP2 MSTORE PUSH1 0x4 ADD PUSH1 0x20 PUSH1 0x40 MLOAD DUP1 DUP4 SUB DUP2 DUP6 DUP9 DUP1 EXTCODESIZE ISZERO DUP1 ISZERO PUSH2 0x119 JUMPI PUSH1 0x0 DUP1 REVERT JUMPDEST POP GAS CALL ISZERO DUP1 ISZERO PUSH2 0x12D JUMPI RETURNDATASIZE PUSH1 0x0 DUP1 RETURNDATACOPY RETURNDATASIZE PUSH1 0x0 REVERT JUMPDEST POP POP POP POP POP PUSH1 0x40 MLOAD RETURNDATASIZE PUSH1 0x1F NOT PUSH1 0x1F DUP3 ADD AND DUP3 ADD DUP1 PUSH1 0x40 MSTORE POP DUP2 ADD SWAP1 PUSH2 0x152 SWAP2 SWAP1 PUSH2 0x33D JUMP JUMPDEST SWAP1 POP SWAP2 SWAP1 POP JUMP JUMPDEST DUP2 PUSH20 0xFFFFFFFFFFFFFFFFFFFFFFFFFFFFFFFFFFFFFFFF AND PUSH4 0x4018D9AA DUP3 PUSH1 0x40 MLOAD DUP3 PUSH4 0xFFFFFFFF AND PUSH1 0xE0 SHL DUP2 MSTORE PUSH1 0x4 ADD PUSH2 0x192 SWAP2 SWAP1 PUSH2 0x379 JUMP JUMPDEST PUSH1 0x0 PUSH1 0x40 MLOAD DUP1 DUP4 SUB DUP2 PUSH1 0x0 DUP8 DUP1 EXTCODESIZE ISZERO DUP1 ISZERO PUSH2 0x1AC JUMPI PUSH1 0x0 DUP1 REVERT JUMPDEST POP GAS CALL ISZERO DUP1 ISZERO PUSH2 0x1C0 JUMPI RETURNDATASIZE PUSH1 0x0 DUP1 RETURNDATACOPY RETURNDATASIZE PUSH1 0x0 REVERT JUMPDEST POP POP POP POP POP POP JUMP JUMPDEST PUSH1 0x0 DUP2 PUSH20 0xFFFFFFFFFFFFFFFFFFFFFFFFFFFFFFFFFFFFFFFF AND PUSH4 0x5197C7AA PUSH1 0x40 MLOAD DUP2 PUSH4 0xFFFFFFFF AND PUSH1 0xE0 SHL DUP2 MSTORE PUSH1 0x4 ADD PUSH1 0x20 PUSH1 0x40 MLOAD DUP1 DUP4 SUB DUP2 DUP7 DUP1 EXTCODESIZE ISZERO DUP1 ISZERO PUSH2 0x210 JUMPI PUSH1 0x0 DUP1 REVERT JUMPDEST POP GAS STATICCALL ISZERO DUP1 ISZERO PUSH2 0x224 JUMPI RETURNDATASIZE PUSH1 0x0 DUP1 RETURNDATACOPY RETURNDATASIZE PUSH1 0x0 REVERT JUMPDEST POP POP POP POP PUSH1 0x40 MLOAD RETURNDATASIZE PUSH1 0x1F NOT PUSH1 0x1F DUP3 ADD AND DUP3 ADD DUP1 PUSH1 0x40 MSTORE POP DUP2 ADD SWAP1 PUSH2 0x248 SWAP2 SWAP1 PUSH2 0x33D JUMP JUMPDEST SWAP1 POP SWAP2 SWAP1 POP JUMP JUMPDEST PUSH1 0x0 DUP2 CALLDATALOAD SWAP1 POP PUSH2 0x25E DUP2 PUSH2 0x3E7 JUMP JUMPDEST SWAP3 SWAP2 POP POP JUMP JUMPDEST PUSH1 0x0 DUP2 CALLDATALOAD SWAP1 POP PUSH2 0x273 DUP2 PUSH2 0x3FE JUMP JUMPDEST SWAP3 SWAP2 POP POP JUMP JUMPDEST PUSH1 0x0 DUP2 CALLDATALOAD SWAP1 POP PUSH2 0x288 DUP2 PUSH2 0x415 JUMP JUMPDEST SWAP3 SWAP2 POP POP JUMP JUMPDEST PUSH1 0x0 DUP2 MLOAD SWAP1 POP PUSH2 0x29D DUP2 PUSH2 0x415 JUMP JUMPDEST SWAP3 SWAP2 POP POP JUMP JUMPDEST PUSH1 0x0 PUSH1 0x20 DUP3 DUP5 SUB SLT ISZERO PUSH2 0x2B9 JUMPI PUSH2 0x2B8 PUSH2 0x3E2 JUMP JUMPDEST JUMPDEST PUSH1 0x0 PUSH2 0x2C7 DUP5 DUP3 DUP6 ADD PUSH2 0x24F JUMP JUMPDEST SWAP2 POP POP SWAP3 SWAP2 POP POP JUMP JUMPDEST PUSH1 0x0 PUSH1 0x20 DUP3 DUP5 SUB SLT ISZERO PUSH2 0x2E6 JUMPI PUSH2 0x2E5 PUSH2 0x3E2 JUMP JUMPDEST JUMPDEST PUSH1 0x0 PUSH2 0x2F4 DUP5 DUP3 DUP6 ADD PUSH2 0x264 JUMP JUMPDEST SWAP2 POP POP SWAP3 SWAP2 POP POP JUMP JUMPDEST PUSH1 0x0 DUP1 PUSH1 0x40 DUP4 DUP6 SUB SLT ISZERO PUSH2 0x314 JUMPI PUSH2 0x313 PUSH2 0x3E2 JUMP JUMPDEST JUMPDEST PUSH1 0x0 PUSH2 0x322 DUP6 DUP3 DUP7 ADD PUSH2 0x264 JUMP JUMPDEST SWAP3 POP POP PUSH1 0x20 PUSH2 0x333 DUP6 DUP3 DUP7 ADD PUSH2 0x279 JUMP JUMPDEST SWAP2 POP POP SWAP3 POP SWAP3 SWAP1 POP JUMP JUMPDEST PUSH1 0x0 PUSH1 0x20 DUP3 DUP5 SUB SLT ISZERO PUSH2 0x353 JUMPI PUSH2 0x352 PUSH2 0x3E2 JUMP JUMPDEST JUMPDEST PUSH1 0x0 PUSH2 0x361 DUP5 DUP3 DUP6 ADD PUSH2 0x28E JUMP JUMPDEST SWAP2 POP POP SWAP3 SWAP2 POP POP JUMP JUMPDEST PUSH2 0x373 DUP2 PUSH2 0x3D8 JUMP JUMPDEST DUP3 MSTORE POP POP JUMP JUMPDEST PUSH1 0x0 PUSH1 0x20 DUP3 ADD SWAP1 POP PUSH2 0x38E PUSH1 0x0 DUP4 ADD DUP5 PUSH2 0x36A JUMP JUMPDEST SWAP3 SWAP2 POP POP JUMP JUMPDEST PUSH1 0x0 PUSH2 0x39F DUP3 PUSH2 0x3B8 JUMP JUMPDEST SWAP1 POP SWAP2 SWAP1 POP JUMP JUMPDEST PUSH1 0x0 PUSH2 0x3B1 DUP3 PUSH2 0x394 JUMP JUMPDEST SWAP1 POP SWAP2 SWAP1 POP JUMP JUMPDEST PUSH1 0x0 PUSH20 0xFFFFFFFFFFFFFFFFFFFFFFFFFFFFFFFFFFFFFFFF DUP3 AND SWAP1 POP SWAP2 SWAP1 POP JUMP JUMPDEST PUSH1 0x0 DUP2 SWAP1 POP SWAP2 SWAP1 POP JUMP JUMPDEST PUSH1 0x0 DUP1 REVERT JUMPDEST PUSH2 0x3F0 DUP2 PUSH2 0x394 JUMP JUMPDEST DUP2 EQ PUSH2 0x3FB JUMPI PUSH1 0x0 DUP1 REVERT JUMPDEST POP JUMP JUMPDEST PUSH2 0x407 DUP2 PUSH2 0x3A6 JUMP JUMPDEST DUP2 EQ PUSH2 0x412 JUMPI PUSH1 0x0 DUP1 REVERT JUMPDEST POP JUMP JUMPDEST PUSH2 0x41E DUP2 PUSH2 0x3D8 JUMP JUMPDEST DUP2 EQ PUSH2 0x429 JUMPI PUSH1 0x0 DUP1 REVERT JUMPDEST POP JUMP INVALID LOG2 PUSH5 0x6970667358 0x22 SLT KECCAK256 0xDB 0x4E 0xDA PUSH11 0x9E08F3E93037A738CD959 CALLDATASIZE SWAP6 DUP8 PUSH8 0xF921414D209198BC 0xDD 0xF6 0xB3 DUP6 DUP4 PUSH5 0x736F6C6343 STOP ADDMOD SMOD STOP CALLER "
				},
				"gasEstimates": {
					"creation": {
						"codeDepositCost": "224400",
						"executionCost": "269",
						"totalCost": "224669"
					},
					"external": {
						"getX(address)": "infinite",
						"pay(address)": "infinite",
						"set(address,uint256)": "infinite"
					}
				},
				"methodIdentifiers": {
					"getX(address)": "7c94c8ca",
					"pay(address)": "0c11dedd",
					"set(address,uint256)": "3825d828"
				}
			},
			"storageLayout": {
				"storage": [],
				"types": null
			},
			"userdoc": {
				"kind": "user",
				"methods": {},
				"version": 1
			}
		}
	}
}