{
	"data": {
		"bytecode": {
			"linkReferences": {},
			"object": "60a060405261271060809081525034801561001957600080fd5b5061003661002b61003b60201b60201c565b61004360201b60201c565b610107565b600033905090565b60008060009054906101000a900473ffffffffffffffffffffffffffffffffffffffff169050816000806101000a81548173ffffffffffffffffffffffffffffffffffffffff021916908373ffffffffffffffffffffffffffffffffffffffff1602179055508173ffffffffffffffffffffffffffffffffffffffff168173ffffffffffffffffffffffffffffffffffffffff167f8be0079c531659141344cd1fd0a4f28419497f9722a3daafe3b4186f6b6457e060405160405180910390a35050565b608051611491610129600039600081816106e101526108e701526114916000f3fe6080604052600436106100a75760003560e01c8063715018a611610064578063715018a61461019c5780637e490a9e146101b35780638d859f3e146101cf5780638da5cb5b146101fa578063901dec8214610225578063f2fde38b14610262576100a7565b806306661abd146100ac57806310319fcc146100d75780632427e59e146100ee5780633ccfd60b1461012b578063637a387214610135578063687440461461015e575b600080fd5b3480156100b857600080fd5b506100c161028b565b6040516100ce919061103c565b60405180910390f35b3480156100e357600080fd5b506100ec610291565b005b3480156100fa57600080fd5b5061011560048036038101906101109190610d38565b61038a565b604051610122919061103c565b60405180910390f35b6101336103b8565b005b34801561014157600080fd5b5061015c60048036038101906101579190610cd8565b61044c565b005b34801561016a57600080fd5b5061018560048036038101906101809190610d81565b61061f565b604051610193929190610f6c565b60405180910390f35b3480156101a857600080fd5b506101b16106cb565b005b6101cd60048036038101906101c89190610d81565b6106df565b005b3480156101db57600080fd5b506101e46108e5565b6040516101f1919061103c565b60405180910390f35b34801561020657600080fd5b5061020f610909565b60405161021c9190610f1f565b60405180910390f35b34801561023157600080fd5b5061024c60048036038101906102479190610cab565b610932565b604051610259919061103c565b60405180910390f35b34801561026e57600080fd5b5061028960048036038101906102849190610cab565b61094a565b005b60015481565b6000600260003373ffffffffffffffffffffffffffffffffffffffff1673ffffffffffffffffffffffffffffffffffffffff16815260200190815260200160002054905060008111610318576040517f08c379a000000000000000000000000000000000000000000000000000000000815260040161030f90610fbc565b60405180910390fd5b6000600260003373ffffffffffffffffffffffffffffffffffffffff1673ffffffffffffffffffffffffffffffffffffffff16815260200190815260200160002081905550600460008281526020019081526020016000206001016000815461038090611235565b9190508190555050565b6003818051602081018201805184825260208301602085012081835280955050505050506000915090505481565b6103c06109ce565b60004711610403576040517f08c379a00000000000000000000000000000000000000000000000000000000081526004016103fa90610fdc565b60405180910390fd5b3373ffffffffffffffffffffffffffffffffffffffff166108fc479081150290604051600060405180830381858888f19350505050158015610449573d6000803e3d6000fd5b50565b6104546109ce565b600060038484604051610468929190610f06565b9081526020016040518091039020541461050957806004600060038686604051610493929190610f06565b908152602001604051809103902054815260200190815260200160002060010160008282546104c291906110d4565b925050819055507f1c59ae2fc2d4d8fd587dd73c1193e81642fde8135d41b10c3325d3d1985f05ab8383836040516104fc93929190610f3a565b60405180910390a161061a565b60016000815461051890611235565b91905081905550604051806040016040528084848080601f016020809104026020016040519081016040528093929190818152602001838380828437600081840152601f19601f8201169050808301925050505050505081526020018281525060046000600154815260200190815260200160002060008201518160000190805190602001906105a9929190610b18565b5060208201518160010155905050600154600384846040516105cc929190610f06565b9081526020016040518091039020819055507f5e5c09fb592e65b4897c25cb4a0597b46a9df6a8a9c1ace81148602e3166dfd483838360405161061193929190610f3a565b60405180910390a15b505050565b6004602052806000526040600020600091509050806000018054610642906111d2565b80601f016020809104026020016040519081016040528092919081815260200182805461066e906111d2565b80156106bb5780601f10610690576101008083540402835291602001916106bb565b820191906000526020600020905b81548152906001019060200180831161069e57829003601f168201915b5050505050908060010154905082565b6106d36109ce565b6106dd6000610a4c565b565b7f0000000000000000000000000000000000000000000000000000000000000000341015610739576040517f39def4cf00000000000000000000000000000000000000000000000000000000815260040160405180910390fd5b6000600260003373ffffffffffffffffffffffffffffffffffffffff1673ffffffffffffffffffffffffffffffffffffffff1681526020019081526020016000205411156107be57336040517faf162d1b0000000000000000000000000000000000000000000000000000000081526004016107b59190610f1f565b60405180910390fd5b6000600460008381526020019081526020016000209050600081600101541161081c576040517f08c379a00000000000000000000000000000000000000000000000000000000081526004016108139061101c565b60405180910390fd5b806001016000815461082d906111a8565b9190508190555081600260003373ffffffffffffffffffffffffffffffffffffffff1673ffffffffffffffffffffffffffffffffffffffff1681526020019081526020016000208190555060016005600084815260200190815260200160002060003373ffffffffffffffffffffffffffffffffffffffff1673ffffffffffffffffffffffffffffffffffffffff16815260200190815260200160002060006101000a81548160ff0219169083151502179055505050565b7f000000000000000000000000000000000000000000000000000000000000000081565b60008060009054906101000a900473ffffffffffffffffffffffffffffffffffffffff16905090565b60026020528060005260406000206000915090505481565b6109526109ce565b600073ffffffffffffffffffffffffffffffffffffffff168173ffffffffffffffffffffffffffffffffffffffff1614156109c2576040517f08c379a00000000000000000000000000000000000000000000000000000000081526004016109b990610f9c565b60405180910390fd5b6109cb81610a4c565b50565b6109d6610b10565b73ffffffffffffffffffffffffffffffffffffffff166109f4610909565b73ffffffffffffffffffffffffffffffffffffffff1614610a4a576040517f08c379a0000000000000000000000000000000000000000000000000000000008152600401610a4190610ffc565b60405180910390fd5b565b60008060009054906101000a900473ffffffffffffffffffffffffffffffffffffffff169050816000806101000a81548173ffffffffffffffffffffffffffffffffffffffff021916908373ffffffffffffffffffffffffffffffffffffffff1602179055508173ffffffffffffffffffffffffffffffffffffffff168173ffffffffffffffffffffffffffffffffffffffff167f8be0079c531659141344cd1fd0a4f28419497f9722a3daafe3b4186f6b6457e060405160405180910390a35050565b600033905090565b828054610b24906111d2565b90600052602060002090601f016020900481019282610b465760008555610b8d565b82601f10610b5f57805160ff1916838001178555610b8d565b82800160010185558215610b8d579182015b82811115610b8c578251825591602001919060010190610b71565b5b509050610b9a9190610b9e565b5090565b5b80821115610bb7576000816000905550600101610b9f565b5090565b6000610bce610bc98461107c565b611057565b905082815260208101848484011115610bea57610be961131a565b5b610bf5848285611166565b509392505050565b600081359050610c0c8161142d565b92915050565b60008083601f840112610c2857610c27611310565b5b8235905067ffffffffffffffff811115610c4557610c4461130b565b5b602083019150836001820283011115610c6157610c60611315565b5b9250929050565b600082601f830112610c7d57610c7c611310565b5b8135610c8d848260208601610bbb565b91505092915050565b600081359050610ca581611444565b92915050565b600060208284031215610cc157610cc0611324565b5b6000610ccf84828501610bfd565b91505092915050565b600080600060408486031215610cf157610cf0611324565b5b600084013567ffffffffffffffff811115610d0f57610d0e61131f565b5b610d1b86828701610c12565b93509350506020610d2e86828701610c96565b9150509250925092565b600060208284031215610d4e57610d4d611324565b5b600082013567ffffffffffffffff811115610d6c57610d6b61131f565b5b610d7884828501610c68565b91505092915050565b600060208284031215610d9757610d96611324565b5b6000610da584828501610c96565b91505092915050565b610db78161112a565b82525050565b6000610dc983856110b8565b9350610dd6838584611166565b610ddf83611329565b840190509392505050565b6000610df683856110c9565b9350610e03838584611166565b82840190509392505050565b6000610e1a826110ad565b610e2481856110b8565b9350610e34818560208601611175565b610e3d81611329565b840191505092915050565b6000610e556026836110b8565b9150610e608261133a565b604082019050919050565b6000610e78600c836110b8565b9150610e8382611389565b602082019050919050565b6000610e9b6012836110b8565b9150610ea6826113b2565b602082019050919050565b6000610ebe6020836110b8565b9150610ec9826113db565b602082019050919050565b6000610ee1600f836110b8565b9150610eec82611404565b602082019050919050565b610f008161115c565b82525050565b6000610f13828486610dea565b91508190509392505050565b6000602082019050610f346000830184610dae565b92915050565b60006040820190508181036000830152610f55818587610dbd565b9050610f646020830184610ef7565b949350505050565b60006040820190508181036000830152610f868185610e0f565b9050610f956020830184610ef7565b9392505050565b60006020820190508181036000830152610fb581610e48565b9050919050565b60006020820190508181036000830152610fd581610e6b565b9050919050565b60006020820190508181036000830152610ff581610e8e565b9050919050565b6000602082019050818103600083015261101581610eb1565b9050919050565b6000602082019050818103600083015261103581610ed4565b9050919050565b60006020820190506110516000830184610ef7565b92915050565b6000611061611072565b905061106d8282611204565b919050565b6000604051905090565b600067ffffffffffffffff821115611097576110966112dc565b5b6110a082611329565b9050602081019050919050565b600081519050919050565b600082825260208201905092915050565b600081905092915050565b60006110df8261115c565b91506110ea8361115c565b9250827fffffffffffffffffffffffffffffffffffffffffffffffffffffffffffffffff0382111561111f5761111e61127e565b5b828201905092915050565b60006111358261113c565b9050919050565b600073ffffffffffffffffffffffffffffffffffffffff82169050919050565b6000819050919050565b82818337600083830152505050565b60005b83811015611193578082015181840152602081019050611178565b838111156111a2576000848401525b50505050565b60006111b38261115c565b915060008214156111c7576111c661127e565b5b600182039050919050565b600060028204905060018216806111ea57607f821691505b602082108114156111fe576111fd6112ad565b5b50919050565b61120d82611329565b810181811067ffffffffffffffff8211171561122c5761122b6112dc565b5b80604052505050565b60006112408261115c565b91507fffffffffffffffffffffffffffffffffffffffffffffffffffffffffffffffff8214156112735761127261127e565b5b600182019050919050565b7f4e487b7100000000000000000000000000000000000000000000000000000000600052601160045260246000fd5b7f4e487b7100000000000000000000000000000000000000000000000000000000600052602260045260246000fd5b7f4e487b7100000000000000000000000000000000000000000000000000000000600052604160045260246000fd5b600080fd5b600080fd5b600080fd5b600080fd5b600080fd5b600080fd5b6000601f19601f8301169050919050565b7f4f776e61626c653a206e6577206f776e657220697320746865207a65726f206160008201527f6464726573730000000000000000000000000000000000000000000000000000602082015250565b7f6e6f7420626f72726f776e670000000000000000000000000000000000000000600082015250565b7f4e6f2065746820746f2077697468647261770000000000000000000000000000600082015250565b7f4f776e61626c653a2063616c6c6572206973206e6f7420746865206f776e6572600082015250565b7f7a65726f20626f6f6b73206c6566740000000000000000000000000000000000600082015250565b6114368161112a565b811461144157600080fd5b50565b61144d8161115c565b811461145857600080fd5b5056fea2646970667358221220f50cc35eeafd6dc72e75cf119e2764d7b0db37369e72502f0afbb16f5744a7af64736f6c63430008070033",
			"opcodes": "PUSH1 0xA0 PUSH1 0x40 MSTORE PUSH2 0x2710 PUSH1 0x80 SWAP1 DUP2 MSTORE POP CALLVALUE DUP1 ISZERO PUSH2 0x19 JUMPI PUSH1 0x0 DUP1 REVERT JUMPDEST POP PUSH2 0x36 PUSH2 0x2B PUSH2 0x3B PUSH1 0x20 SHL PUSH1 0x20 SHR JUMP JUMPDEST PUSH2 0x43 PUSH1 0x20 SHL PUSH1 0x20 SHR JUMP JUMPDEST PUSH2 0x107 JUMP JUMPDEST PUSH1 0x0 CALLER SWAP1 POP SWAP1 JUMP JUMPDEST PUSH1 0x0 DUP1 PUSH1 0x0 SWAP1 SLOAD SWAP1 PUSH2 0x100 EXP SWAP1 DIV PUSH20 0xFFFFFFFFFFFFFFFFFFFFFFFFFFFFFFFFFFFFFFFF AND SWAP1 POP DUP2 PUSH1 0x0 DUP1 PUSH2 0x100 EXP DUP2 SLOAD DUP2 PUSH20 0xFFFFFFFFFFFFFFFFFFFFFFFFFFFFFFFFFFFFFFFF MUL NOT AND SWAP1 DUP4 PUSH20 0xFFFFFFFFFFFFFFFFFFFFFFFFFFFFFFFFFFFFFFFF AND MUL OR SWAP1 SSTORE POP DUP2 PUSH20 0xFFFFFFFFFFFFFFFFFFFFFFFFFFFFFFFFFFFFFFFF AND DUP2 PUSH20 0xFFFFFFFFFFFFFFFFFFFFFFFFFFFFFFFFFFFFFFFF AND PUSH32 0x8BE0079C531659141344CD1FD0A4F28419497F9722A3DAAFE3B4186F6B6457E0 PUSH1 0x40 MLOAD PUSH1 0x40 MLOAD DUP1 SWAP2 SUB SWAP1 LOG3 POP POP JUMP JUMPDEST PUSH1 0x80 MLOAD PUSH2 0x1491 PUSH2 0x129 PUSH1 0x0 CODECOPY PUSH1 0x0 DUP2 DUP2 PUSH2 0x6E1 ADD MSTORE PUSH2 0x8E7 ADD MSTORE PUSH2 0x1491 PUSH1 0x0 RETURN INVALID PUSH1 0x80 PUSH1 0x40 MSTORE PUSH1 0x4 CALLDATASIZE LT PUSH2 0xA7 JUMPI PUSH1 0x0 CALLDATALOAD PUSH1 0xE0 SHR DUP1 PUSH4 0x715018A6 GT PUSH2 0x64 JUMPI DUP1 PUSH4 0x715018A6 EQ PUSH2 0x19C JUMPI DUP1 PUSH4 0x7E490A9E EQ PUSH2 0x1B3 JUMPI DUP1 PUSH4 0x8D859F3E EQ PUSH2 0x1CF JUMPI DUP1 PUSH4 0x8DA5CB5B EQ PUSH2 0x1FA JUMPI DUP1 PUSH4 0x901DEC82 EQ PUSH2 0x225 JUMPI DUP1 PUSH4 0xF2FDE38B EQ PUSH2 0x262 JUMPI PUSH2 0xA7 JUMP JUMPDEST DUP1 PUSH4 0x6661ABD EQ PUSH2 0xAC JUMPI DUP1 PUSH4 0x10319FCC EQ PUSH2 0xD7 JUMPI DUP1 PUSH4 0x2427E59E EQ PUSH2 0xEE JUMPI DUP1 PUSH4 0x3CCFD60B EQ PUSH2 0x12B JUMPI DUP1 PUSH4 0x637A3872 EQ PUSH2 0x135 JUMPI DUP1 PUSH4 0x68744046 EQ PUSH2 0x15E JUMPI JUMPDEST PUSH1 0x0 DUP1 REVERT JUMPDEST CALLVALUE DUP1 ISZERO PUSH2 0xB8 JUMPI PUSH1 0x0 DUP1 REVERT JUMPDEST POP PUSH2 0xC1 PUSH2 0x28B JUMP JUMPDEST PUSH1 0x40 MLOAD PUSH2 0xCE SWAP2 SWAP1 PUSH2 0x103C JUMP JUMPDEST PUSH1 0x40 MLOAD DUP1 SWAP2 SUB SWAP1 RETURN JUMPDEST CALLVALUE DUP1 ISZERO PUSH2 0xE3 JUMPI PUSH1 0x0 DUP1 REVERT JUMPDEST POP PUSH2 0xEC PUSH2 0x291 JUMP JUMPDEST STOP JUMPDEST CALLVALUE DUP1 ISZERO PUSH2 0xFA JUMPI PUSH1 0x0 DUP1 REVERT JUMPDEST POP PUSH2 0x115 PUSH1 0x4 DUP1 CALLDATASIZE SUB DUP2 ADD SWAP1 PUSH2 0x110 SWAP2 SWAP1 PUSH2 0xD38 JUMP JUMPDEST PUSH2 0x38A JUMP JUMPDEST PUSH1 0x40 MLOAD PUSH2 0x122 SWAP2 SWAP1 PUSH2 0x103C JUMP JUMPDEST PUSH1 0x40 MLOAD DUP1 SWAP2 SUB SWAP1 RETURN JUMPDEST PUSH2 0x133 PUSH2 0x3B8 JUMP JUMPDEST STOP JUMPDEST CALLVALUE DUP1 ISZERO PUSH2 0x141 JUMPI PUSH1 0x0 DUP1 REVERT JUMPDEST POP PUSH2 0x15C PUSH1 0x4 DUP1 CALLDATASIZE SUB DUP2 ADD SWAP1 PUSH2 0x157 SWAP2 SWAP1 PUSH2 0xCD8 JUMP JUMPDEST PUSH2 0x44C JUMP JUMPDEST STOP JUMPDEST CALLVALUE DUP1 ISZERO PUSH2 0x16A JUMPI PUSH1 0x0 DUP1 REVERT JUMPDEST POP PUSH2 0x185 PUSH1 0x4 DUP1 CALLDATASIZE SUB DUP2 ADD SWAP1 PUSH2 0x180 SWAP2 SWAP1 PUSH2 0xD81 JUMP JUMPDEST PUSH2 0x61F JUMP JUMPDEST PUSH1 0x40 MLOAD PUSH2 0x193 SWAP3 SWAP2 SWAP1 PUSH2 0xF6C JUMP JUMPDEST PUSH1 0x40 MLOAD DUP1 SWAP2 SUB SWAP1 RETURN JUMPDEST CALLVALUE DUP1 ISZERO PUSH2 0x1A8 JUMPI PUSH1 0x0 DUP1 REVERT JUMPDEST POP PUSH2 0x1B1 PUSH2 0x6CB JUMP JUMPDEST STOP JUMPDEST PUSH2 0x1CD PUSH1 0x4 DUP1 CALLDATASIZE SUB DUP2 ADD SWAP1 PUSH2 0x1C8 SWAP2 SWAP1 PUSH2 0xD81 JUMP JUMPDEST PUSH2 0x6DF JUMP JUMPDEST STOP JUMPDEST CALLVALUE DUP1 ISZERO PUSH2 0x1DB JUMPI PUSH1 0x0 DUP1 REVERT JUMPDEST POP PUSH2 0x1E4 PUSH2 0x8E5 JUMP JUMPDEST PUSH1 0x40 MLOAD PUSH2 0x1F1 SWAP2 SWAP1 PUSH2 0x103C JUMP JUMPDEST PUSH1 0x40 MLOAD DUP1 SWAP2 SUB SWAP1 RETURN JUMPDEST CALLVALUE DUP1 ISZERO PUSH2 0x206 JUMPI PUSH1 0x0 DUP1 REVERT JUMPDEST POP PUSH2 0x20F PUSH2 0x909 JUMP JUMPDEST PUSH1 0x40 MLOAD PUSH2 0x21C SWAP2 SWAP1 PUSH2 0xF1F JUMP JUMPDEST PUSH1 0x40 MLOAD DUP1 SWAP2 SUB SWAP1 RETURN JUMPDEST CALLVALUE DUP1 ISZERO PUSH2 0x231 JUMPI PUSH1 0x0 DUP1 REVERT JUMPDEST POP PUSH2 0x24C PUSH1 0x4 DUP1 CALLDATASIZE SUB DUP2 ADD SWAP1 PUSH2 0x247 SWAP2 SWAP1 PUSH2 0xCAB JUMP JUMPDEST PUSH2 0x932 JUMP JUMPDEST PUSH1 0x40 MLOAD PUSH2 0x259 SWAP2 SWAP1 PUSH2 0x103C JUMP JUMPDEST PUSH1 0x40 MLOAD DUP1 SWAP2 SUB SWAP1 RETURN JUMPDEST CALLVALUE DUP1 ISZERO PUSH2 0x26E JUMPI PUSH1 0x0 DUP1 REVERT JUMPDEST POP PUSH2 0x289 PUSH1 0x4 DUP1 CALLDATASIZE SUB DUP2 ADD SWAP1 PUSH2 0x284 SWAP2 SWAP1 PUSH2 0xCAB JUMP JUMPDEST PUSH2 0x94A JUMP JUMPDEST STOP JUMPDEST PUSH1 0x1 SLOAD DUP2 JUMP JUMPDEST PUSH1 0x0 PUSH1 0x2 PUSH1 0x0 CALLER PUSH20 0xFFFFFFFFFFFFFFFFFFFFFFFFFFFFFFFFFFFFFFFF AND PUSH20 0xFFFFFFFFFFFFFFFFFFFFFFFFFFFFFFFFFFFFFFFF AND DUP2 MSTORE PUSH1 0x20 ADD SWAP1 DUP2 MSTORE PUSH1 0x20 ADD PUSH1 0x0 KECCAK256 SLOAD SWAP1 POP PUSH1 0x0 DUP2 GT PUSH2 0x318 JUMPI PUSH1 0x40 MLOAD PUSH32 0x8C379A000000000000000000000000000000000000000000000000000000000 DUP2 MSTORE PUSH1 0x4 ADD PUSH2 0x30F SWAP1 PUSH2 0xFBC JUMP JUMPDEST PUSH1 0x40 MLOAD DUP1 SWAP2 SUB SWAP1 REVERT JUMPDEST PUSH1 0x0 PUSH1 0x2 PUSH1 0x0 CALLER PUSH20 0xFFFFFFFFFFFFFFFFFFFFFFFFFFFFFFFFFFFFFFFF AND PUSH20 0xFFFFFFFFFFFFFFFFFFFFFFFFFFFFFFFFFFFFFFFF AND DUP2 MSTORE PUSH1 0x20 ADD SWAP1 DUP2 MSTORE PUSH1 0x20 ADD PUSH1 0x0 KECCAK256 DUP2 SWAP1 SSTORE POP PUSH1 0x4 PUSH1 0x0 DUP3 DUP2 MSTORE PUSH1 0x20 ADD SWAP1 DUP2 MSTORE PUSH1 0x20 ADD PUSH1 0x0 KECCAK256 PUSH1 0x1 ADD PUSH1 0x0 DUP2 SLOAD PUSH2 0x380 SWAP1 PUSH2 0x1235 JUMP JUMPDEST SWAP2 SWAP1 POP DUP2 SWAP1 SSTORE POP POP JUMP JUMPDEST PUSH1 0x3 DUP2 DUP1 MLOAD PUSH1 0x20 DUP2 ADD DUP3 ADD DUP1 MLOAD DUP5 DUP3 MSTORE PUSH1 0x20 DUP4 ADD PUSH1 0x20 DUP6 ADD KECCAK256 DUP2 DUP4 MSTORE DUP1 SWAP6 POP POP POP POP POP POP PUSH1 0x0 SWAP2 POP SWAP1 POP SLOAD DUP2 JUMP JUMPDEST PUSH2 0x3C0 PUSH2 0x9CE JUMP JUMPDEST PUSH1 0x0 SELFBALANCE GT PUSH2 0x403 JUMPI PUSH1 0x40 MLOAD PUSH32 0x8C379A000000000000000000000000000000000000000000000000000000000 DUP2 MSTORE PUSH1 0x4 ADD PUSH2 0x3FA SWAP1 PUSH2 0xFDC JUMP JUMPDEST PUSH1 0x40 MLOAD DUP1 SWAP2 SUB SWAP1 REVERT JUMPDEST CALLER PUSH20 0xFFFFFFFFFFFFFFFFFFFFFFFFFFFFFFFFFFFFFFFF AND PUSH2 0x8FC SELFBALANCE SWAP1 DUP2 ISZERO MUL SWAP1 PUSH1 0x40 MLOAD PUSH1 0x0 PUSH1 0x40 MLOAD DUP1 DUP4 SUB DUP2 DUP6 DUP9 DUP9 CALL SWAP4 POP POP POP POP ISZERO DUP1 ISZERO PUSH2 0x449 JUMPI RETURNDATASIZE PUSH1 0x0 DUP1 RETURNDATACOPY RETURNDATASIZE PUSH1 0x0 REVERT JUMPDEST POP JUMP JUMPDEST PUSH2 0x454 PUSH2 0x9CE JUMP JUMPDEST PUSH1 0x0 PUSH1 0x3 DUP5 DUP5 PUSH1 0x40 MLOAD PUSH2 0x468 SWAP3 SWAP2 SWAP1 PUSH2 0xF06 JUMP JUMPDEST SWAP1 DUP2 MSTORE PUSH1 0x20 ADD PUSH1 0x40 MLOAD DUP1 SWAP2 SUB SWAP1 KECCAK256 SLOAD EQ PUSH2 0x509 JUMPI DUP1 PUSH1 0x4 PUSH1 0x0 PUSH1 0x3 DUP7 DUP7 PUSH1 0x40 MLOAD PUSH2 0x493 SWAP3 SWAP2 SWAP1 PUSH2 0xF06 JUMP JUMPDEST SWAP1 DUP2 MSTORE PUSH1 0x20 ADD PUSH1 0x40 MLOAD DUP1 SWAP2 SUB SWAP1 KECCAK256 SLOAD DUP2 MSTORE PUSH1 0x20 ADD SWAP1 DUP2 MSTORE PUSH1 0x20 ADD PUSH1 0x0 KECCAK256 PUSH1 0x1 ADD PUSH1 0x0 DUP3 DUP3 SLOAD PUSH2 0x4C2 SWAP2 SWAP1 PUSH2 0x10D4 JUMP JUMPDEST SWAP3 POP POP DUP2 SWAP1 SSTORE POP PUSH32 0x1C59AE2FC2D4D8FD587DD73C1193E81642FDE8135D41B10C3325D3D1985F05AB DUP4 DUP4 DUP4 PUSH1 0x40 MLOAD PUSH2 0x4FC SWAP4 SWAP3 SWAP2 SWAP1 PUSH2 0xF3A JUMP JUMPDEST PUSH1 0x40 MLOAD DUP1 SWAP2 SUB SWAP1 LOG1 PUSH2 0x61A JUMP JUMPDEST PUSH1 0x1 PUSH1 0x0 DUP2 SLOAD PUSH2 0x518 SWAP1 PUSH2 0x1235 JUMP JUMPDEST SWAP2 SWAP1 POP DUP2 SWAP1 SSTORE POP PUSH1 0x40 MLOAD DUP1 PUSH1 0x40 ADD PUSH1 0x40 MSTORE DUP1 DUP5 DUP5 DUP1 DUP1 PUSH1 0x1F ADD PUSH1 0x20 DUP1 SWAP2 DIV MUL PUSH1 0x20 ADD PUSH1 0x40 MLOAD SWAP1 DUP2 ADD PUSH1 0x40 MSTORE DUP1 SWAP4 SWAP3 SWAP2 SWAP1 DUP2 DUP2 MSTORE PUSH1 0x20 ADD DUP4 DUP4 DUP1 DUP3 DUP5 CALLDATACOPY PUSH1 0x0 DUP2 DUP5 ADD MSTORE PUSH1 0x1F NOT PUSH1 0x1F DUP3 ADD AND SWAP1 POP DUP1 DUP4 ADD SWAP3 POP POP POP POP POP POP POP DUP2 MSTORE PUSH1 0x20 ADD DUP3 DUP2 MSTORE POP PUSH1 0x4 PUSH1 0x0 PUSH1 0x1 SLOAD DUP2 MSTORE PUSH1 0x20 ADD SWAP1 DUP2 MSTORE PUSH1 0x20 ADD PUSH1 0x0 KECCAK256 PUSH1 0x0 DUP3 ADD MLOAD DUP2 PUSH1 0x0 ADD SWAP1 DUP1 MLOAD SWAP1 PUSH1 0x20 ADD SWAP1 PUSH2 0x5A9 SWAP3 SWAP2 SWAP1 PUSH2 0xB18 JUMP JUMPDEST POP PUSH1 0x20 DUP3 ADD MLOAD DUP2 PUSH1 0x1 ADD SSTORE SWAP1 POP POP PUSH1 0x1 SLOAD PUSH1 0x3 DUP5 DUP5 PUSH1 0x40 MLOAD PUSH2 0x5CC SWAP3 SWAP2 SWAP1 PUSH2 0xF06 JUMP JUMPDEST SWAP1 DUP2 MSTORE PUSH1 0x20 ADD PUSH1 0x40 MLOAD DUP1 SWAP2 SUB SWAP1 KECCAK256 DUP2 SWAP1 SSTORE POP PUSH32 0x5E5C09FB592E65B4897C25CB4A0597B46A9DF6A8A9C1ACE81148602E3166DFD4 DUP4 DUP4 DUP4 PUSH1 0x40 MLOAD PUSH2 0x611 SWAP4 SWAP3 SWAP2 SWAP1 PUSH2 0xF3A JUMP JUMPDEST PUSH1 0x40 MLOAD DUP1 SWAP2 SUB SWAP1 LOG1 JUMPDEST POP POP POP JUMP JUMPDEST PUSH1 0x4 PUSH1 0x20 MSTORE DUP1 PUSH1 0x0 MSTORE PUSH1 0x40 PUSH1 0x0 KECCAK256 PUSH1 0x0 SWAP2 POP SWAP1 POP DUP1 PUSH1 0x0 ADD DUP1 SLOAD PUSH2 0x642 SWAP1 PUSH2 0x11D2 JUMP JUMPDEST DUP1 PUSH1 0x1F ADD PUSH1 0x20 DUP1 SWAP2 DIV MUL PUSH1 0x20 ADD PUSH1 0x40 MLOAD SWAP1 DUP2 ADD PUSH1 0x40 MSTORE DUP1 SWAP3 SWAP2 SWAP1 DUP2 DUP2 MSTORE PUSH1 0x20 ADD DUP3 DUP1 SLOAD PUSH2 0x66E SWAP1 PUSH2 0x11D2 JUMP JUMPDEST DUP1 ISZERO PUSH2 0x6BB JUMPI DUP1 PUSH1 0x1F LT PUSH2 0x690 JUMPI PUSH2 0x100 DUP1 DUP4 SLOAD DIV MUL DUP4 MSTORE SWAP2 PUSH1 0x20 ADD SWAP2 PUSH2 0x6BB JUMP JUMPDEST DUP3 ADD SWAP2 SWAP1 PUSH1 0x0 MSTORE PUSH1 0x20 PUSH1 0x0 KECCAK256 SWAP1 JUMPDEST DUP2 SLOAD DUP2 MSTORE SWAP1 PUSH1 0x1 ADD SWAP1 PUSH1 0x20 ADD DUP1 DUP4 GT PUSH2 0x69E JUMPI DUP3 SWAP1 SUB PUSH1 0x1F AND DUP3 ADD SWAP2 JUMPDEST POP POP POP POP POP SWAP1 DUP1 PUSH1 0x1 ADD SLOAD SWAP1 POP DUP3 JUMP JUMPDEST PUSH2 0x6D3 PUSH2 0x9CE JUMP JUMPDEST PUSH2 0x6DD PUSH1 0x0 PUSH2 0xA4C JUMP JUMPDEST JUMP JUMPDEST PUSH32 0x0 CALLVALUE LT ISZERO PUSH2 0x739 JUMPI PUSH1 0x40 MLOAD PUSH32 0x39DEF4CF00000000000000000000000000000000000000000000000000000000 DUP2 MSTORE PUSH1 0x4 ADD PUSH1 0x40 MLOAD DUP1 SWAP2 SUB SWAP1 REVERT JUMPDEST PUSH1 0x0 PUSH1 0x2 PUSH1 0x0 CALLER PUSH20 0xFFFFFFFFFFFFFFFFFFFFFFFFFFFFFFFFFFFFFFFF AND PUSH20 0xFFFFFFFFFFFFFFFFFFFFFFFFFFFFFFFFFFFFFFFF AND DUP2 MSTORE PUSH1 0x20 ADD SWAP1 DUP2 MSTORE PUSH1 0x20 ADD PUSH1 0x0 KECCAK256 SLOAD GT ISZERO PUSH2 0x7BE JUMPI CALLER PUSH1 0x40 MLOAD PUSH32 0xAF162D1B00000000000000000000000000000000000000000000000000000000 DUP2 MSTORE PUSH1 0x4 ADD PUSH2 0x7B5 SWAP2 SWAP1 PUSH2 0xF1F JUMP JUMPDEST PUSH1 0x40 MLOAD DUP1 SWAP2 SUB SWAP1 REVERT JUMPDEST PUSH1 0x0 PUSH1 0x4 PUSH1 0x0 DUP4 DUP2 MSTORE PUSH1 0x20 ADD SWAP1 DUP2 MSTORE PUSH1 0x20 ADD PUSH1 0x0 KECCAK256 SWAP1 POP PUSH1 0x0 DUP2 PUSH1 0x1 ADD SLOAD GT PUSH2 0x81C JUMPI PUSH1 0x40 MLOAD PUSH32 0x8C379A000000000000000000000000000000000000000000000000000000000 DUP2 MSTORE PUSH1 0x4 ADD PUSH2 0x813 SWAP1 PUSH2 0x101C JUMP JUMPDEST PUSH1 0x40 MLOAD DUP1 SWAP2 SUB SWAP1 REVERT JUMPDEST DUP1 PUSH1 0x1 ADD PUSH1 0x0 DUP2 SLOAD PUSH2 0x82D SWAP1 PUSH2 0x11A8 JUMP JUMPDEST SWAP2 SWAP1 POP DUP2 SWAP1 SSTORE POP DUP2 PUSH1 0x2 PUSH1 0x0 CALLER PUSH20 0xFFFFFFFFFFFFFFFFFFFFFFFFFFFFFFFFFFFFFFFF AND PUSH20 0xFFFFFFFFFFFFFFFFFFFFFFFFFFFFFFFFFFFFFFFF AND DUP2 MSTORE PUSH1 0x20 ADD SWAP1 DUP2 MSTORE PUSH1 0x20 ADD PUSH1 0x0 KECCAK256 DUP2 SWAP1 SSTORE POP PUSH1 0x1 PUSH1 0x5 PUSH1 0x0 DUP5 DUP2 MSTORE PUSH1 0x20 ADD SWAP1 DUP2 MSTORE PUSH1 0x20 ADD PUSH1 0x0 KECCAK256 PUSH1 0x0 CALLER PUSH20 0xFFFFFFFFFFFFFFFFFFFFFFFFFFFFFFFFFFFFFFFF AND PUSH20 0xFFFFFFFFFFFFFFFFFFFFFFFFFFFFFFFFFFFFFFFF AND DUP2 MSTORE PUSH1 0x20 ADD SWAP1 DUP2 MSTORE PUSH1 0x20 ADD PUSH1 0x0 KECCAK256 PUSH1 0x0 PUSH2 0x100 EXP DUP2 SLOAD DUP2 PUSH1 0xFF MUL NOT AND SWAP1 DUP4 ISZERO ISZERO MUL OR SWAP1 SSTORE POP POP POP JUMP JUMPDEST PUSH32 0x0 DUP2 JUMP JUMPDEST PUSH1 0x0 DUP1 PUSH1 0x0 SWAP1 SLOAD SWAP1 PUSH2 0x100 EXP SWAP1 DIV PUSH20 0xFFFFFFFFFFFFFFFFFFFFFFFFFFFFFFFFFFFFFFFF AND SWAP1 POP SWAP1 JUMP JUMPDEST PUSH1 0x2 PUSH1 0x20 MSTORE DUP1 PUSH1 0x0 MSTORE PUSH1 0x40 PUSH1 0x0 KECCAK256 PUSH1 0x0 SWAP2 POP SWAP1 POP SLOAD DUP2 JUMP JUMPDEST PUSH2 0x952 PUSH2 0x9CE JUMP JUMPDEST PUSH1 0x0 PUSH20 0xFFFFFFFFFFFFFFFFFFFFFFFFFFFFFFFFFFFFFFFF AND DUP2 PUSH20 0xFFFFFFFFFFFFFFFFFFFFFFFFFFFFFFFFFFFFFFFF AND EQ ISZERO PUSH2 0x9C2 JUMPI PUSH1 0x40 MLOAD PUSH32 0x8C379A000000000000000000000000000000000000000000000000000000000 DUP2 MSTORE PUSH1 0x4 ADD PUSH2 0x9B9 SWAP1 PUSH2 0xF9C JUMP JUMPDEST PUSH1 0x40 MLOAD DUP1 SWAP2 SUB SWAP1 REVERT JUMPDEST PUSH2 0x9CB DUP2 PUSH2 0xA4C JUMP JUMPDEST POP JUMP JUMPDEST PUSH2 0x9D6 PUSH2 0xB10 JUMP JUMPDEST PUSH20 0xFFFFFFFFFFFFFFFFFFFFFFFFFFFFFFFFFFFFFFFF AND PUSH2 0x9F4 PUSH2 0x909 JUMP JUMPDEST PUSH20 0xFFFFFFFFFFFFFFFFFFFFFFFFFFFFFFFFFFFFFFFF AND EQ PUSH2 0xA4A JUMPI PUSH1 0x40 MLOAD PUSH32 0x8C379A000000000000000000000000000000000000000000000000000000000 DUP2 MSTORE PUSH1 0x4 ADD PUSH2 0xA41 SWAP1 PUSH2 0xFFC JUMP JUMPDEST PUSH1 0x40 MLOAD DUP1 SWAP2 SUB SWAP1 REVERT JUMPDEST JUMP JUMPDEST PUSH1 0x0 DUP1 PUSH1 0x0 SWAP1 SLOAD SWAP1 PUSH2 0x100 EXP SWAP1 DIV PUSH20 0xFFFFFFFFFFFFFFFFFFFFFFFFFFFFFFFFFFFFFFFF AND SWAP1 POP DUP2 PUSH1 0x0 DUP1 PUSH2 0x100 EXP DUP2 SLOAD DUP2 PUSH20 0xFFFFFFFFFFFFFFFFFFFFFFFFFFFFFFFFFFFFFFFF MUL NOT AND SWAP1 DUP4 PUSH20 0xFFFFFFFFFFFFFFFFFFFFFFFFFFFFFFFFFFFFFFFF AND MUL OR SWAP1 SSTORE POP DUP2 PUSH20 0xFFFFFFFFFFFFFFFFFFFFFFFFFFFFFFFFFFFFFFFF AND DUP2 PUSH20 0xFFFFFFFFFFFFFFFFFFFFFFFFFFFFFFFFFFFFFFFF AND PUSH32 0x8BE0079C531659141344CD1FD0A4F28419497F9722A3DAAFE3B4186F6B6457E0 PUSH1 0x40 MLOAD PUSH1 0x40 MLOAD DUP1 SWAP2 SUB SWAP1 LOG3 POP POP JUMP JUMPDEST PUSH1 0x0 CALLER SWAP1 POP SWAP1 JUMP JUMPDEST DUP3 DUP1 SLOAD PUSH2 0xB24 SWAP1 PUSH2 0x11D2 JUMP JUMPDEST SWAP1 PUSH1 0x0 MSTORE PUSH1 0x20 PUSH1 0x0 KECCAK256 SWAP1 PUSH1 0x1F ADD PUSH1 0x20 SWAP1 DIV DUP2 ADD SWAP3 DUP3 PUSH2 0xB46 JUMPI PUSH1 0x0 DUP6 SSTORE PUSH2 0xB8D JUMP JUMPDEST DUP3 PUSH1 0x1F LT PUSH2 0xB5F JUMPI DUP1 MLOAD PUSH1 0xFF NOT AND DUP4 DUP1 ADD OR DUP6 SSTORE PUSH2 0xB8D JUMP JUMPDEST DUP3 DUP1 ADD PUSH1 0x1 ADD DUP6 SSTORE DUP3 ISZERO PUSH2 0xB8D JUMPI SWAP2 DUP3 ADD JUMPDEST DUP3 DUP2 GT ISZERO PUSH2 0xB8C JUMPI DUP3 MLOAD DUP3 SSTORE SWAP2 PUSH1 0x20 ADD SWAP2 SWAP1 PUSH1 0x1 ADD SWAP1 PUSH2 0xB71 JUMP JUMPDEST JUMPDEST POP SWAP1 POP PUSH2 0xB9A SWAP2 SWAP1 PUSH2 0xB9E JUMP JUMPDEST POP SWAP1 JUMP JUMPDEST JUMPDEST DUP1 DUP3 GT ISZERO PUSH2 0xBB7 JUMPI PUSH1 0x0 DUP2 PUSH1 0x0 SWAP1 SSTORE POP PUSH1 0x1 ADD PUSH2 0xB9F JUMP JUMPDEST POP SWAP1 JUMP JUMPDEST PUSH1 0x0 PUSH2 0xBCE PUSH2 0xBC9 DUP5 PUSH2 0x107C JUMP JUMPDEST PUSH2 0x1057 JUMP JUMPDEST SWAP1 POP DUP3 DUP2 MSTORE PUSH1 0x20 DUP2 ADD DUP5 DUP5 DUP5 ADD GT ISZERO PUSH2 0xBEA JUMPI PUSH2 0xBE9 PUSH2 0x131A JUMP JUMPDEST JUMPDEST PUSH2 0xBF5 DUP5 DUP3 DUP6 PUSH2 0x1166 JUMP JUMPDEST POP SWAP4 SWAP3 POP POP POP JUMP JUMPDEST PUSH1 0x0 DUP2 CALLDATALOAD SWAP1 POP PUSH2 0xC0C DUP2 PUSH2 0x142D JUMP JUMPDEST SWAP3 SWAP2 POP POP JUMP JUMPDEST PUSH1 0x0 DUP1 DUP4 PUSH1 0x1F DUP5 ADD SLT PUSH2 0xC28 JUMPI PUSH2 0xC27 PUSH2 0x1310 JUMP JUMPDEST JUMPDEST DUP3 CALLDATALOAD SWAP1 POP PUSH8 0xFFFFFFFFFFFFFFFF DUP2 GT ISZERO PUSH2 0xC45 JUMPI PUSH2 0xC44 PUSH2 0x130B JUMP JUMPDEST JUMPDEST PUSH1 0x20 DUP4 ADD SWAP2 POP DUP4 PUSH1 0x1 DUP3 MUL DUP4 ADD GT ISZERO PUSH2 0xC61 JUMPI PUSH2 0xC60 PUSH2 0x1315 JUMP JUMPDEST JUMPDEST SWAP3 POP SWAP3 SWAP1 POP JUMP JUMPDEST PUSH1 0x0 DUP3 PUSH1 0x1F DUP4 ADD SLT PUSH2 0xC7D JUMPI PUSH2 0xC7C PUSH2 0x1310 JUMP JUMPDEST JUMPDEST DUP2 CALLDATALOAD PUSH2 0xC8D DUP5 DUP3 PUSH1 0x20 DUP7 ADD PUSH2 0xBBB JUMP JUMPDEST SWAP2 POP POP SWAP3 SWAP2 POP POP JUMP JUMPDEST PUSH1 0x0 DUP2 CALLDATALOAD SWAP1 POP PUSH2 0xCA5 DUP2 PUSH2 0x1444 JUMP JUMPDEST SWAP3 SWAP2 POP POP JUMP JUMPDEST PUSH1 0x0 PUSH1 0x20 DUP3 DUP5 SUB SLT ISZERO PUSH2 0xCC1 JUMPI PUSH2 0xCC0 PUSH2 0x1324 JUMP JUMPDEST JUMPDEST PUSH1 0x0 PUSH2 0xCCF DUP5 DUP3 DUP6 ADD PUSH2 0xBFD JUMP JUMPDEST SWAP2 POP POP SWAP3 SWAP2 POP POP JUMP JUMPDEST PUSH1 0x0 DUP1 PUSH1 0x0 PUSH1 0x40 DUP5 DUP7 SUB SLT ISZERO PUSH2 0xCF1 JUMPI PUSH2 0xCF0 PUSH2 0x1324 JUMP JUMPDEST JUMPDEST PUSH1 0x0 DUP5 ADD CALLDATALOAD PUSH8 0xFFFFFFFFFFFFFFFF DUP2 GT ISZERO PUSH2 0xD0F JUMPI PUSH2 0xD0E PUSH2 0x131F JUMP JUMPDEST JUMPDEST PUSH2 0xD1B DUP7 DUP3 DUP8 ADD PUSH2 0xC12 JUMP JUMPDEST SWAP4 POP SWAP4 POP POP PUSH1 0x20 PUSH2 0xD2E DUP7 DUP3 DUP8 ADD PUSH2 0xC96 JUMP JUMPDEST SWAP2 POP POP SWAP3 POP SWAP3 POP SWAP3 JUMP JUMPDEST PUSH1 0x0 PUSH1 0x20 DUP3 DUP5 SUB SLT ISZERO PUSH2 0xD4E JUMPI PUSH2 0xD4D PUSH2 0x1324 JUMP JUMPDEST JUMPDEST PUSH1 0x0 DUP3 ADD CALLDATALOAD PUSH8 0xFFFFFFFFFFFFFFFF DUP2 GT ISZERO PUSH2 0xD6C JUMPI PUSH2 0xD6B PUSH2 0x131F JUMP JUMPDEST JUMPDEST PUSH2 0xD78 DUP5 DUP3 DUP6 ADD PUSH2 0xC68 JUMP JUMPDEST SWAP2 POP POP SWAP3 SWAP2 POP POP JUMP JUMPDEST PUSH1 0x0 PUSH1 0x20 DUP3 DUP5 SUB SLT ISZERO PUSH2 0xD97 JUMPI PUSH2 0xD96 PUSH2 0x1324 JUMP JUMPDEST JUMPDEST PUSH1 0x0 PUSH2 0xDA5 DUP5 DUP3 DUP6 ADD PUSH2 0xC96 JUMP JUMPDEST SWAP2 POP POP SWAP3 SWAP2 POP POP JUMP JUMPDEST PUSH2 0xDB7 DUP2 PUSH2 0x112A JUMP JUMPDEST DUP3 MSTORE POP POP JUMP JUMPDEST PUSH1 0x0 PUSH2 0xDC9 DUP4 DUP6 PUSH2 0x10B8 JUMP JUMPDEST SWAP4 POP PUSH2 0xDD6 DUP4 DUP6 DUP5 PUSH2 0x1166 JUMP JUMPDEST PUSH2 0xDDF DUP4 PUSH2 0x1329 JUMP JUMPDEST DUP5 ADD SWAP1 POP SWAP4 SWAP3 POP POP POP JUMP JUMPDEST PUSH1 0x0 PUSH2 0xDF6 DUP4 DUP6 PUSH2 0x10C9 JUMP JUMPDEST SWAP4 POP PUSH2 0xE03 DUP4 DUP6 DUP5 PUSH2 0x1166 JUMP JUMPDEST DUP3 DUP5 ADD SWAP1 POP SWAP4 SWAP3 POP POP POP JUMP JUMPDEST PUSH1 0x0 PUSH2 0xE1A DUP3 PUSH2 0x10AD JUMP JUMPDEST PUSH2 0xE24 DUP2 DUP6 PUSH2 0x10B8 JUMP JUMPDEST SWAP4 POP PUSH2 0xE34 DUP2 DUP6 PUSH1 0x20 DUP7 ADD PUSH2 0x1175 JUMP JUMPDEST PUSH2 0xE3D DUP2 PUSH2 0x1329 JUMP JUMPDEST DUP5 ADD SWAP2 POP POP SWAP3 SWAP2 POP POP JUMP JUMPDEST PUSH1 0x0 PUSH2 0xE55 PUSH1 0x26 DUP4 PUSH2 0x10B8 JUMP JUMPDEST SWAP2 POP PUSH2 0xE60 DUP3 PUSH2 0x133A JUMP JUMPDEST PUSH1 0x40 DUP3 ADD SWAP1 POP SWAP2 SWAP1 POP JUMP JUMPDEST PUSH1 0x0 PUSH2 0xE78 PUSH1 0xC DUP4 PUSH2 0x10B8 JUMP JUMPDEST SWAP2 POP PUSH2 0xE83 DUP3 PUSH2 0x1389 JUMP JUMPDEST PUSH1 0x20 DUP3 ADD SWAP1 POP SWAP2 SWAP1 POP JUMP JUMPDEST PUSH1 0x0 PUSH2 0xE9B PUSH1 0x12 DUP4 PUSH2 0x10B8 JUMP JUMPDEST SWAP2 POP PUSH2 0xEA6 DUP3 PUSH2 0x13B2 JUMP JUMPDEST PUSH1 0x20 DUP3 ADD SWAP1 POP SWAP2 SWAP1 POP JUMP JUMPDEST PUSH1 0x0 PUSH2 0xEBE PUSH1 0x20 DUP4 PUSH2 0x10B8 JUMP JUMPDEST SWAP2 POP PUSH2 0xEC9 DUP3 PUSH2 0x13DB JUMP JUMPDEST PUSH1 0x20 DUP3 ADD SWAP1 POP SWAP2 SWAP1 POP JUMP JUMPDEST PUSH1 0x0 PUSH2 0xEE1 PUSH1 0xF DUP4 PUSH2 0x10B8 JUMP JUMPDEST SWAP2 POP PUSH2 0xEEC DUP3 PUSH2 0x1404 JUMP JUMPDEST PUSH1 0x20 DUP3 ADD SWAP1 POP SWAP2 SWAP1 POP JUMP JUMPDEST PUSH2 0xF00 DUP2 PUSH2 0x115C JUMP JUMPDEST DUP3 MSTORE POP POP JUMP JUMPDEST PUSH1 0x0 PUSH2 0xF13 DUP3 DUP5 DUP7 PUSH2 0xDEA JUMP JUMPDEST SWAP2 POP DUP2 SWAP1 POP SWAP4 SWAP3 POP POP POP JUMP JUMPDEST PUSH1 0x0 PUSH1 0x20 DUP3 ADD SWAP1 POP PUSH2 0xF34 PUSH1 0x0 DUP4 ADD DUP5 PUSH2 0xDAE JUMP JUMPDEST SWAP3 SWAP2 POP POP JUMP JUMPDEST PUSH1 0x0 PUSH1 0x40 DUP3 ADD SWAP1 POP DUP2 DUP2 SUB PUSH1 0x0 DUP4 ADD MSTORE PUSH2 0xF55 DUP2 DUP6 DUP8 PUSH2 0xDBD JUMP JUMPDEST SWAP1 POP PUSH2 0xF64 PUSH1 0x20 DUP4 ADD DUP5 PUSH2 0xEF7 JUMP JUMPDEST SWAP5 SWAP4 POP POP POP POP JUMP JUMPDEST PUSH1 0x0 PUSH1 0x40 DUP3 ADD SWAP1 POP DUP2 DUP2 SUB PUSH1 0x0 DUP4 ADD MSTORE PUSH2 0xF86 DUP2 DUP6 PUSH2 0xE0F JUMP JUMPDEST SWAP1 POP PUSH2 0xF95 PUSH1 0x20 DUP4 ADD DUP5 PUSH2 0xEF7 JUMP JUMPDEST SWAP4 SWAP3 POP POP POP JUMP JUMPDEST PUSH1 0x0 PUSH1 0x20 DUP3 ADD SWAP1 POP DUP2 DUP2 SUB PUSH1 0x0 DUP4 ADD MSTORE PUSH2 0xFB5 DUP2 PUSH2 0xE48 JUMP JUMPDEST SWAP1 POP SWAP2 SWAP1 POP JUMP JUMPDEST PUSH1 0x0 PUSH1 0x20 DUP3 ADD SWAP1 POP DUP2 DUP2 SUB PUSH1 0x0 DUP4 ADD MSTORE PUSH2 0xFD5 DUP2 PUSH2 0xE6B JUMP JUMPDEST SWAP1 POP SWAP2 SWAP1 POP JUMP JUMPDEST PUSH1 0x0 PUSH1 0x20 DUP3 ADD SWAP1 POP DUP2 DUP2 SUB PUSH1 0x0 DUP4 ADD MSTORE PUSH2 0xFF5 DUP2 PUSH2 0xE8E JUMP JUMPDEST SWAP1 POP SWAP2 SWAP1 POP JUMP JUMPDEST PUSH1 0x0 PUSH1 0x20 DUP3 ADD SWAP1 POP DUP2 DUP2 SUB PUSH1 0x0 DUP4 ADD MSTORE PUSH2 0x1015 DUP2 PUSH2 0xEB1 JUMP JUMPDEST SWAP1 POP SWAP2 SWAP1 POP JUMP JUMPDEST PUSH1 0x0 PUSH1 0x20 DUP3 ADD SWAP1 POP DUP2 DUP2 SUB PUSH1 0x0 DUP4 ADD MSTORE PUSH2 0x1035 DUP2 PUSH2 0xED4 JUMP JUMPDEST SWAP1 POP SWAP2 SWAP1 POP JUMP JUMPDEST PUSH1 0x0 PUSH1 0x20 DUP3 ADD SWAP1 POP PUSH2 0x1051 PUSH1 0x0 DUP4 ADD DUP5 PUSH2 0xEF7 JUMP JUMPDEST SWAP3 SWAP2 POP POP JUMP JUMPDEST PUSH1 0x0 PUSH2 0x1061 PUSH2 0x1072 JUMP JUMPDEST SWAP1 POP PUSH2 0x106D DUP3 DUP3 PUSH2 0x1204 JUMP JUMPDEST SWAP2 SWAP1 POP JUMP JUMPDEST PUSH1 0x0 PUSH1 0x40 MLOAD SWAP1 POP SWAP1 JUMP JUMPDEST PUSH1 0x0 PUSH8 0xFFFFFFFFFFFFFFFF DUP3 GT ISZERO PUSH2 0x1097 JUMPI PUSH2 0x1096 PUSH2 0x12DC JUMP JUMPDEST JUMPDEST PUSH2 0x10A0 DUP3 PUSH2 0x1329 JUMP JUMPDEST SWAP1 POP PUSH1 0x20 DUP2 ADD SWAP1 POP SWAP2 SWAP1 POP JUMP JUMPDEST PUSH1 0x0 DUP2 MLOAD SWAP1 POP SWAP2 SWAP1 POP JUMP JUMPDEST PUSH1 0x0 DUP3 DUP3 MSTORE PUSH1 0x20 DUP3 ADD SWAP1 POP SWAP3 SWAP2 POP POP JUMP JUMPDEST PUSH1 0x0 DUP2 SWAP1 POP SWAP3 SWAP2 POP POP JUMP JUMPDEST PUSH1 0x0 PUSH2 0x10DF DUP3 PUSH2 0x115C JUMP JUMPDEST SWAP2 POP PUSH2 0x10EA DUP4 PUSH2 0x115C JUMP JUMPDEST SWAP3 POP DUP3 PUSH32 0xFFFFFFFFFFFFFFFFFFFFFFFFFFFFFFFFFFFFFFFFFFFFFFFFFFFFFFFFFFFFFFFF SUB DUP3 GT ISZERO PUSH2 0x111F JUMPI PUSH2 0x111E PUSH2 0x127E JUMP JUMPDEST JUMPDEST DUP3 DUP3 ADD SWAP1 POP SWAP3 SWAP2 POP POP JUMP JUMPDEST PUSH1 0x0 PUSH2 0x1135 DUP3 PUSH2 0x113C JUMP JUMPDEST SWAP1 POP SWAP2 SWAP1 POP JUMP JUMPDEST PUSH1 0x0 PUSH20 0xFFFFFFFFFFFFFFFFFFFFFFFFFFFFFFFFFFFFFFFF DUP3 AND SWAP1 POP SWAP2 SWAP1 POP JUMP JUMPDEST PUSH1 0x0 DUP2 SWAP1 POP SWAP2 SWAP1 POP JUMP JUMPDEST DUP3 DUP2 DUP4 CALLDATACOPY PUSH1 0x0 DUP4 DUP4 ADD MSTORE POP POP POP JUMP JUMPDEST PUSH1 0x0 JUMPDEST DUP4 DUP2 LT ISZERO PUSH2 0x1193 JUMPI DUP1 DUP3 ADD MLOAD DUP2 DUP5 ADD MSTORE PUSH1 0x20 DUP2 ADD SWAP1 POP PUSH2 0x1178 JUMP JUMPDEST DUP4 DUP2 GT ISZERO PUSH2 0x11A2 JUMPI PUSH1 0x0 DUP5 DUP5 ADD MSTORE JUMPDEST POP POP POP POP JUMP JUMPDEST PUSH1 0x0 PUSH2 0x11B3 DUP3 PUSH2 0x115C JUMP JUMPDEST SWAP2 POP PUSH1 0x0 DUP3 EQ ISZERO PUSH2 0x11C7 JUMPI PUSH2 0x11C6 PUSH2 0x127E JUMP JUMPDEST JUMPDEST PUSH1 0x1 DUP3 SUB SWAP1 POP SWAP2 SWAP1 POP JUMP JUMPDEST PUSH1 0x0 PUSH1 0x2 DUP3 DIV SWAP1 POP PUSH1 0x1 DUP3 AND DUP1 PUSH2 0x11EA JUMPI PUSH1 0x7F DUP3 AND SWAP2 POP JUMPDEST PUSH1 0x20 DUP3 LT DUP2 EQ ISZERO PUSH2 0x11FE JUMPI PUSH2 0x11FD PUSH2 0x12AD JUMP JUMPDEST JUMPDEST POP SWAP2 SWAP1 POP JUMP JUMPDEST PUSH2 0x120D DUP3 PUSH2 0x1329 JUMP JUMPDEST DUP2 ADD DUP2 DUP2 LT PUSH8 0xFFFFFFFFFFFFFFFF DUP3 GT OR ISZERO PUSH2 0x122C JUMPI PUSH2 0x122B PUSH2 0x12DC JUMP JUMPDEST JUMPDEST DUP1 PUSH1 0x40 MSTORE POP POP POP JUMP JUMPDEST PUSH1 0x0 PUSH2 0x1240 DUP3 PUSH2 0x115C JUMP JUMPDEST SWAP2 POP PUSH32 0xFFFFFFFFFFFFFFFFFFFFFFFFFFFFFFFFFFFFFFFFFFFFFFFFFFFFFFFFFFFFFFFF DUP3 EQ ISZERO PUSH2 0x1273 JUMPI PUSH2 0x1272 PUSH2 0x127E JUMP JUMPDEST JUMPDEST PUSH1 0x1 DUP3 ADD SWAP1 POP SWAP2 SWAP1 POP JUMP JUMPDEST PUSH32 0x4E487B7100000000000000000000000000000000000000000000000000000000 PUSH1 0x0 MSTORE PUSH1 0x11 PUSH1 0x4 MSTORE PUSH1 0x24 PUSH1 0x0 REVERT JUMPDEST PUSH32 0x4E487B7100000000000000000000000000000000000000000000000000000000 PUSH1 0x0 MSTORE PUSH1 0x22 PUSH1 0x4 MSTORE PUSH1 0x24 PUSH1 0x0 REVERT JUMPDEST PUSH32 0x4E487B7100000000000000000000000000000000000000000000000000000000 PUSH1 0x0 MSTORE PUSH1 0x41 PUSH1 0x4 MSTORE PUSH1 0x24 PUSH1 0x0 REVERT JUMPDEST PUSH1 0x0 DUP1 REVERT JUMPDEST PUSH1 0x0 DUP1 REVERT JUMPDEST PUSH1 0x0 DUP1 REVERT JUMPDEST PUSH1 0x0 DUP1 REVERT JUMPDEST PUSH1 0x0 DUP1 REVERT JUMPDEST PUSH1 0x0 DUP1 REVERT JUMPDEST PUSH1 0x0 PUSH1 0x1F NOT PUSH1 0x1F DUP4 ADD AND SWAP1 POP SWAP2 SWAP1 POP JUMP JUMPDEST PUSH32 0x4F776E61626C653A206E6577206F776E657220697320746865207A65726F2061 PUSH1 0x0 DUP3 ADD MSTORE PUSH32 0x6464726573730000000000000000000000000000000000000000000000000000 PUSH1 0x20 DUP3 ADD MSTORE POP JUMP JUMPDEST PUSH32 0x6E6F7420626F72726F776E670000000000000000000000000000000000000000 PUSH1 0x0 DUP3 ADD MSTORE POP JUMP JUMPDEST PUSH32 0x4E6F2065746820746F2077697468647261770000000000000000000000000000 PUSH1 0x0 DUP3 ADD MSTORE POP JUMP JUMPDEST PUSH32 0x4F776E61626C653A2063616C6C6572206973206E6F7420746865206F776E6572 PUSH1 0x0 DUP3 ADD MSTORE POP JUMP JUMPDEST PUSH32 0x7A65726F20626F6F6B73206C6566740000000000000000000000000000000000 PUSH1 0x0 DUP3 ADD MSTORE POP JUMP JUMPDEST PUSH2 0x1436 DUP2 PUSH2 0x112A JUMP JUMPDEST DUP2 EQ PUSH2 0x1441 JUMPI PUSH1 0x0 DUP1 REVERT JUMPDEST POP JUMP JUMPDEST PUSH2 0x144D DUP2 PUSH2 0x115C JUMP JUMPDEST DUP2 EQ PUSH2 0x1458 JUMPI PUSH1 0x0 DUP1 REVERT JUMPDEST POP JUMP INVALID LOG2 PUSH5 0x6970667358 0x22 SLT KECCAK256 CREATE2 0xC 0xC3 0x5E 0xEA REVERT PUSH14 0xC72E75CF119E2764D7B0DB37369E PUSH19 0x502F0AFBB16F5744A7AF64736F6C6343000807 STOP CALLER "
		},
		"gasEstimates": {
			"creation": {
				"codeDepositCost": "1053000",
				"executionCost": "infinite",
				"totalCost": "infinite"
			},
			"external": {
				"PRICE()": "infinite",
				"addBook(string,uint256)": "infinite",
				"books(uint256)": "infinite",
				"borrowBook(uint256)": "infinite",
				"count()": "2430",
				"currentlyBorrowing(address)": "2902",
				"indexes(string)": "infinite",
				"owner()": "2588",
				"renounceOwnership()": "30398",
				"returnCurrentBook()": "31933",
				"transferOwnership(address)": "30857",
				"withdraw()": "infinite"
			}
		},
		"methodIdentifiers": {
			"PRICE()": "8d859f3e",
			"addBook(string,uint256)": "637a3872",
			"books(uint256)": "68744046",
			"borrowBook(uint256)": "7e490a9e",
			"count()": "06661abd",
			"currentlyBorrowing(address)": "901dec82",
			"indexes(string)": "2427e59e",
			"owner()": "8da5cb5b",
			"renounceOwnership()": "715018a6",
			"returnCurrentBook()": "10319fcc",
			"transferOwnership(address)": "f2fde38b",
			"withdraw()": "3ccfd60b"
		}
	},
	"abi": [
		{
			"inputs": [],
			"stateMutability": "nonpayable",
			"type": "constructor"
		},
		{
			"inputs": [
				{
					"internalType": "address",
					"name": "user",
					"type": "address"
				}
			],
			"name": "alredyBorrwing",
			"type": "error"
		},
		{
			"inputs": [],
			"name": "notPaying",
			"type": "error"
		},
		{
			"anonymous": false,
			"inputs": [
				{
					"indexed": true,
					"internalType": "address",
					"name": "previousOwner",
					"type": "address"
				},
				{
					"indexed": true,
					"internalType": "address",
					"name": "newOwner",
					"type": "address"
				}
			],
			"name": "OwnershipTransferred",
			"type": "event"
		},
		{
			"anonymous": false,
			"inputs": [
				{
					"indexed": false,
					"internalType": "string",
					"name": "name",
					"type": "string"
				},
				{
					"indexed": false,
					"internalType": "uint256",
					"name": "copies",
					"type": "uint256"
				}
			],
			"name": "addedBook",
			"type": "event"
		},
		{
			"anonymous": false,
			"inputs": [
				{
					"indexed": false,
					"internalType": "string",
					"name": "name",
					"type": "string"
				},
				{
					"indexed": false,
					"internalType": "uint256",
					"name": "copies",
					"type": "uint256"
				}
			],
			"name": "addedCopies",
			"type": "event"
		},
		{
			"inputs": [],
			"name": "PRICE",
			"outputs": [
				{
					"internalType": "uint256",
					"name": "",
					"type": "uint256"
				}
			],
			"stateMutability": "view",
			"type": "function"
		},
		{
			"inputs": [
				{
					"internalType": "string",
					"name": "_name",
					"type": "string"
				},
				{
					"internalType": "uint256",
					"name": "_copies",
					"type": "uint256"
				}
			],
			"name": "addBook",
			"outputs": [],
			"stateMutability": "nonpayable",
			"type": "function"
		},
		{
			"inputs": [
				{
					"internalType": "uint256",
					"name": "",
					"type": "uint256"
				}
			],
			"name": "books",
			"outputs": [
				{
					"internalType": "string",
					"name": "name",
					"type": "string"
				},
				{
					"internalType": "uint256",
					"name": "copies",
					"type": "uint256"
				}
			],
			"stateMutability": "view",
			"type": "function"
		},
		{
			"inputs": [
				{
					"internalType": "uint256",
					"name": "_index",
					"type": "uint256"
				}
			],
			"name": "borrowBook",
			"outputs": [],
			"stateMutability": "payable",
			"type": "function"
		},
		{
			"inputs": [],
			"name": "count",
			"outputs": [
				{
					"internalType": "uint256",
					"name": "",
					"type": "uint256"
				}
			],
			"stateMutability": "view",
			"type": "function"
		},
		{
			"inputs": [
				{
					"internalType": "address",
					"name": "",
					"type": "address"
				}
			],
			"name": "currentlyBorrowing",
			"outputs": [
				{
					"internalType": "uint256",
					"name": "",
					"type": "uint256"
				}
			],
			"stateMutability": "view",
			"type": "function"
		},
		{
			"inputs": [
				{
					"internalType": "string",
					"name": "",
					"type": "string"
				}
			],
			"name": "indexes",
			"outputs": [
				{
					"internalType": "uint256",
					"name": "",
					"type": "uint256"
				}
			],
			"stateMutability": "view",
			"type": "function"
		},
		{
			"inputs": [],
			"name": "owner",
			"outputs": [
				{
					"internalType": "address",
					"name": "",
					"type": "address"
				}
			],
			"stateMutability": "view",
			"type": "function"
		},
		{
			"inputs": [],
			"name": "renounceOwnership",
			"outputs": [],
			"stateMutability": "nonpayable",
			"type": "function"
		},
		{
			"inputs": [],
			"name": "returnCurrentBook",
			"outputs": [],
			"stateMutability": "nonpayable",
			"type": "function"
		},
		{
			"inputs": [
				{
					"internalType": "address",
					"name": "newOwner",
					"type": "address"
				}
			],
			"name": "transferOwnership",
			"outputs": [],
			"stateMutability": "nonpayable",
			"type": "function"
		},
		{
			"inputs": [],
			"name": "withdraw",
			"outputs": [],
			"stateMutability": "payable",
			"type": "function"
		}
	]
}