{
	"LimeChainInternship/exercise/Library.sol": {
		"Library": {
			"abi": [
				{
					"inputs": [],
					"stateMutability": "nonpayable",
					"type": "constructor"
				},
				{
					"inputs": [
						{
							"internalType": "address",
							"name": "user",
							"type": "address"
						}
					],
					"name": "alredyBorrwing",
					"type": "error"
				},
				{
					"anonymous": false,
					"inputs": [
						{
							"indexed": true,
							"internalType": "address",
							"name": "previousOwner",
							"type": "address"
						},
						{
							"indexed": true,
							"internalType": "address",
							"name": "newOwner",
							"type": "address"
						}
					],
					"name": "OwnershipTransferred",
					"type": "event"
				},
				{
					"anonymous": false,
					"inputs": [
						{
							"indexed": false,
							"internalType": "string",
							"name": "name",
							"type": "string"
						},
						{
							"indexed": false,
							"internalType": "uint256",
							"name": "copies",
							"type": "uint256"
						}
					],
					"name": "addedBook",
					"type": "event"
				},
				{
					"anonymous": false,
					"inputs": [
						{
							"indexed": false,
							"internalType": "string",
							"name": "name",
							"type": "string"
						},
						{
							"indexed": false,
							"internalType": "uint256",
							"name": "copies",
							"type": "uint256"
						}
					],
					"name": "addedCopies",
					"type": "event"
				},
				{
					"inputs": [
						{
							"internalType": "string",
							"name": "_name",
							"type": "string"
						},
						{
							"internalType": "uint256",
							"name": "_copies",
							"type": "uint256"
						}
					],
					"name": "addBook",
					"outputs": [],
					"stateMutability": "nonpayable",
					"type": "function"
				},
				{
					"inputs": [
						{
							"internalType": "uint256",
							"name": "",
							"type": "uint256"
						}
					],
					"name": "books",
					"outputs": [
						{
							"internalType": "string",
							"name": "name",
							"type": "string"
						},
						{
							"internalType": "uint256",
							"name": "copies",
							"type": "uint256"
						}
					],
					"stateMutability": "view",
					"type": "function"
				},
				{
					"inputs": [
						{
							"internalType": "uint256",
							"name": "_index",
							"type": "uint256"
						}
					],
					"name": "borrowBook",
					"outputs": [],
					"stateMutability": "nonpayable",
					"type": "function"
				},
				{
					"inputs": [],
					"name": "count",
					"outputs": [
						{
							"internalType": "uint256",
							"name": "",
							"type": "uint256"
						}
					],
					"stateMutability": "view",
					"type": "function"
				},
				{
					"inputs": [
						{
							"internalType": "address",
							"name": "",
							"type": "address"
						}
					],
					"name": "currentlyBorrowing",
					"outputs": [
						{
							"internalType": "uint256",
							"name": "",
							"type": "uint256"
						}
					],
					"stateMutability": "view",
					"type": "function"
				},
				{
					"inputs": [
						{
							"internalType": "string",
							"name": "",
							"type": "string"
						}
					],
					"name": "indexes",
					"outputs": [
						{
							"internalType": "uint256",
							"name": "",
							"type": "uint256"
						}
					],
					"stateMutability": "view",
					"type": "function"
				},
				{
					"inputs": [],
					"name": "owner",
					"outputs": [
						{
							"internalType": "address",
							"name": "",
							"type": "address"
						}
					],
					"stateMutability": "view",
					"type": "function"
				},
				{
					"inputs": [],
					"name": "renounceOwnership",
					"outputs": [],
					"stateMutability": "nonpayable",
					"type": "function"
				},
				{
					"inputs": [],
					"name": "returnCurrentBook",
					"outputs": [],
					"stateMutability": "nonpayable",
					"type": "function"
				},
				{
					"inputs": [
						{
							"internalType": "address",
							"name": "newOwner",
							"type": "address"
						}
					],
					"name": "transferOwnership",
					"outputs": [],
					"stateMutability": "nonpayable",
					"type": "function"
				}
			],
			"devdoc": {
				"kind": "dev",
				"methods": {
					"owner()": {
						"details": "Returns the address of the current owner."
					},
					"renounceOwnership()": {
						"details": "Leaves the contract without owner. It will not be possible to call `onlyOwner` functions anymore. Can only be called by the current owner. NOTE: Renouncing ownership will leave the contract without an owner, thereby removing any functionality that is only available to the owner."
					},
					"transferOwnership(address)": {
						"details": "Transfers ownership of the contract to a new account (`newOwner`). Can only be called by the current owner."
					}
				},
				"version": 1
			},
			"evm": {
				"assembly": "    /* \"LimeChainInternship/exercise/Library.sol\":111:1998  contract Library is Ownable {... */\n  mstore(0x40, 0x80)\n    /* \"LimeChainInternship/exercise/Library.sol\":370:401  constructor() Ownable() {... */\n  callvalue\n  dup1\n  iszero\n  tag_1\n  jumpi\n  0x00\n  dup1\n  revert\ntag_1:\n  pop\n    /* \"@openzeppelin/contracts/access/Ownable.sol\":936:968  _transferOwnership(_msgSender()) */\n  tag_5\n    /* \"@openzeppelin/contracts/access/Ownable.sol\":955:967  _msgSender() */\n  tag_6\n    /* \"@openzeppelin/contracts/access/Ownable.sol\":955:965  _msgSender */\n  shl(0x20, tag_7)\n    /* \"@openzeppelin/contracts/access/Ownable.sol\":955:967  _msgSender() */\n  0x20\n  shr\n  jump\t// in\ntag_6:\n    /* \"@openzeppelin/contracts/access/Ownable.sol\":936:954  _transferOwnership */\n  shl(0x20, tag_8)\n    /* \"@openzeppelin/contracts/access/Ownable.sol\":936:968  _transferOwnership(_msgSender()) */\n  0x20\n  shr\n  jump\t// in\ntag_5:\n    /* \"LimeChainInternship/exercise/Library.sol\":111:1998  contract Library is Ownable {... */\n  jump(tag_10)\n    /* \"@openzeppelin/contracts/utils/Context.sol\":640:736  function _msgSender() internal view virtual returns (address) {... */\ntag_7:\n    /* \"@openzeppelin/contracts/utils/Context.sol\":693:700  address */\n  0x00\n    /* \"@openzeppelin/contracts/utils/Context.sol\":719:729  msg.sender */\n  caller\n    /* \"@openzeppelin/contracts/utils/Context.sol\":712:729  return msg.sender */\n  swap1\n  pop\n    /* \"@openzeppelin/contracts/utils/Context.sol\":640:736  function _msgSender() internal view virtual returns (address) {... */\n  swap1\n  jump\t// out\n    /* \"@openzeppelin/contracts/access/Ownable.sol\":2433:2620  function _transferOwnership(address newOwner) internal virtual {... */\ntag_8:\n    /* \"@openzeppelin/contracts/access/Ownable.sol\":2506:2522  address oldOwner */\n  0x00\n    /* \"@openzeppelin/contracts/access/Ownable.sol\":2525:2531  _owner */\n  dup1\n  0x00\n  swap1\n  sload\n  swap1\n  0x0100\n  exp\n  swap1\n  div\n  0xffffffffffffffffffffffffffffffffffffffff\n  and\n    /* \"@openzeppelin/contracts/access/Ownable.sol\":2506:2531  address oldOwner = _owner */\n  swap1\n  pop\n    /* \"@openzeppelin/contracts/access/Ownable.sol\":2550:2558  newOwner */\n  dup2\n    /* \"@openzeppelin/contracts/access/Ownable.sol\":2541:2547  _owner */\n  0x00\n  dup1\n    /* \"@openzeppelin/contracts/access/Ownable.sol\":2541:2558  _owner = newOwner */\n  0x0100\n  exp\n  dup2\n  sload\n  dup2\n  0xffffffffffffffffffffffffffffffffffffffff\n  mul\n  not\n  and\n  swap1\n  dup4\n  0xffffffffffffffffffffffffffffffffffffffff\n  and\n  mul\n  or\n  swap1\n  sstore\n  pop\n    /* \"@openzeppelin/contracts/access/Ownable.sol\":2604:2612  newOwner */\n  dup2\n    /* \"@openzeppelin/contracts/access/Ownable.sol\":2573:2613  OwnershipTransferred(oldOwner, newOwner) */\n  0xffffffffffffffffffffffffffffffffffffffff\n  and\n    /* \"@openzeppelin/contracts/access/Ownable.sol\":2594:2602  oldOwner */\n  dup2\n    /* \"@openzeppelin/contracts/access/Ownable.sol\":2573:2613  OwnershipTransferred(oldOwner, newOwner) */\n  0xffffffffffffffffffffffffffffffffffffffff\n  and\n  0x8be0079c531659141344cd1fd0a4f28419497f9722a3daafe3b4186f6b6457e0\n  mload(0x40)\n  mload(0x40)\n  dup1\n  swap2\n  sub\n  swap1\n  log3\n    /* \"@openzeppelin/contracts/access/Ownable.sol\":2496:2620  {... */\n  pop\n    /* \"@openzeppelin/contracts/access/Ownable.sol\":2433:2620  function _transferOwnership(address newOwner) internal virtual {... */\n  pop\n  jump\t// out\n    /* \"LimeChainInternship/exercise/Library.sol\":111:1998  contract Library is Ownable {... */\ntag_10:\n  dataSize(sub_0)\n  dup1\n  dataOffset(sub_0)\n  0x00\n  codecopy\n  0x00\n  return\nstop\n\nsub_0: assembly {\n        /* \"LimeChainInternship/exercise/Library.sol\":111:1998  contract Library is Ownable {... */\n      mstore(0x40, 0x80)\n      callvalue\n      dup1\n      iszero\n      tag_1\n      jumpi\n      0x00\n      dup1\n      revert\n    tag_1:\n      pop\n      jumpi(tag_2, lt(calldatasize, 0x04))\n      shr(0xe0, calldataload(0x00))\n      dup1\n      0x715018a6\n      gt\n      tag_13\n      jumpi\n      dup1\n      0x715018a6\n      eq\n      tag_8\n      jumpi\n      dup1\n      0x7e490a9e\n      eq\n      tag_9\n      jumpi\n      dup1\n      0x8da5cb5b\n      eq\n      tag_10\n      jumpi\n      dup1\n      0x901dec82\n      eq\n      tag_11\n      jumpi\n      dup1\n      0xf2fde38b\n      eq\n      tag_12\n      jumpi\n      jump(tag_2)\n    tag_13:\n      dup1\n      0x06661abd\n      eq\n      tag_3\n      jumpi\n      dup1\n      0x10319fcc\n      eq\n      tag_4\n      jumpi\n      dup1\n      0x2427e59e\n      eq\n      tag_5\n      jumpi\n      dup1\n      0x637a3872\n      eq\n      tag_6\n      jumpi\n      dup1\n      0x68744046\n      eq\n      tag_7\n      jumpi\n    tag_2:\n      0x00\n      dup1\n      revert\n        /* \"LimeChainInternship/exercise/Library.sol\":281:298  uint public count */\n    tag_3:\n      tag_14\n      tag_15\n      jump\t// in\n    tag_14:\n      mload(0x40)\n      tag_16\n      swap2\n      swap1\n      tag_17\n      jump\t// in\n    tag_16:\n      mload(0x40)\n      dup1\n      swap2\n      sub\n      swap1\n      return\n        /* \"LimeChainInternship/exercise/Library.sol\":1782:1995  function returnCurrentBook()external{... */\n    tag_4:\n      tag_18\n      tag_19\n      jump\t// in\n    tag_18:\n      stop\n        /* \"LimeChainInternship/exercise/Library.sol\":531:569  mapping(string => uint) public indexes */\n    tag_5:\n      tag_20\n      0x04\n      dup1\n      calldatasize\n      sub\n      dup2\n      add\n      swap1\n      tag_21\n      swap2\n      swap1\n      tag_22\n      jump\t// in\n    tag_21:\n      tag_23\n      jump\t// in\n    tag_20:\n      mload(0x40)\n      tag_24\n      swap2\n      swap1\n      tag_17\n      jump\t// in\n    tag_24:\n      mload(0x40)\n      dup1\n      swap2\n      sub\n      swap1\n      return\n        /* \"LimeChainInternship/exercise/Library.sol\":733:1151  function addBook(string calldata _name, uint _copies) external onlyOwner{... */\n    tag_6:\n      tag_25\n      0x04\n      dup1\n      calldatasize\n      sub\n      dup2\n      add\n      swap1\n      tag_26\n      swap2\n      swap1\n      tag_27\n      jump\t// in\n    tag_26:\n      tag_28\n      jump\t// in\n    tag_25:\n      stop\n        /* \"LimeChainInternship/exercise/Library.sol\":595:629  mapping(uint => Book) public books */\n    tag_7:\n      tag_29\n      0x04\n      dup1\n      calldatasize\n      sub\n      dup2\n      add\n      swap1\n      tag_30\n      swap2\n      swap1\n      tag_31\n      jump\t// in\n    tag_30:\n      tag_32\n      jump\t// in\n    tag_29:\n      mload(0x40)\n      tag_33\n      swap3\n      swap2\n      swap1\n      tag_34\n      jump\t// in\n    tag_33:\n      mload(0x40)\n      dup1\n      swap2\n      sub\n      swap1\n      return\n        /* \"@openzeppelin/contracts/access/Ownable.sol\":1831:1932  function renounceOwnership() public virtual onlyOwner {... */\n    tag_8:\n      tag_35\n      tag_36\n      jump\t// in\n    tag_35:\n      stop\n        /* \"LimeChainInternship/exercise/Library.sol\":1157:1776  function borrowBook(uint _index) external {... */\n    tag_9:\n      tag_37\n      0x04\n      dup1\n      calldatasize\n      sub\n      dup2\n      add\n      swap1\n      tag_38\n      swap2\n      swap1\n      tag_31\n      jump\t// in\n    tag_38:\n      tag_39\n      jump\t// in\n    tag_37:\n      stop\n        /* \"@openzeppelin/contracts/access/Ownable.sol\":1201:1286  function owner() public view virtual returns (address) {... */\n    tag_10:\n      tag_40\n      tag_41\n      jump\t// in\n    tag_40:\n      mload(0x40)\n      tag_42\n      swap2\n      swap1\n      tag_43\n      jump\t// in\n    tag_42:\n      mload(0x40)\n      dup1\n      swap2\n      sub\n      swap1\n      return\n        /* \"LimeChainInternship/exercise/Library.sol\":450:500  mapping(address => uint) public currentlyBorrowing */\n    tag_11:\n      tag_44\n      0x04\n      dup1\n      calldatasize\n      sub\n      dup2\n      add\n      swap1\n      tag_45\n      swap2\n      swap1\n      tag_46\n      jump\t// in\n    tag_45:\n      tag_47\n      jump\t// in\n    tag_44:\n      mload(0x40)\n      tag_48\n      swap2\n      swap1\n      tag_17\n      jump\t// in\n    tag_48:\n      mload(0x40)\n      dup1\n      swap2\n      sub\n      swap1\n      return\n        /* \"@openzeppelin/contracts/access/Ownable.sol\":2081:2279  function transferOwnership(address newOwner) public virtual onlyOwner {... */\n    tag_12:\n      tag_49\n      0x04\n      dup1\n      calldatasize\n      sub\n      dup2\n      add\n      swap1\n      tag_50\n      swap2\n      swap1\n      tag_46\n      jump\t// in\n    tag_50:\n      tag_51\n      jump\t// in\n    tag_49:\n      stop\n        /* \"LimeChainInternship/exercise/Library.sol\":281:298  uint public count */\n    tag_15:\n      sload(0x01)\n      dup2\n      jump\t// out\n        /* \"LimeChainInternship/exercise/Library.sol\":1782:1995  function returnCurrentBook()external{... */\n    tag_19:\n        /* \"LimeChainInternship/exercise/Library.sol\":1828:1839  uint _index */\n      0x00\n        /* \"LimeChainInternship/exercise/Library.sol\":1842:1860  currentlyBorrowing */\n      0x02\n        /* \"LimeChainInternship/exercise/Library.sol\":1842:1872  currentlyBorrowing[msg.sender] */\n      0x00\n        /* \"LimeChainInternship/exercise/Library.sol\":1861:1871  msg.sender */\n      caller\n        /* \"LimeChainInternship/exercise/Library.sol\":1842:1872  currentlyBorrowing[msg.sender] */\n      0xffffffffffffffffffffffffffffffffffffffff\n      and\n      0xffffffffffffffffffffffffffffffffffffffff\n      and\n      dup2\n      mstore\n      0x20\n      add\n      swap1\n      dup2\n      mstore\n      0x20\n      add\n      0x00\n      keccak256\n      sload\n        /* \"LimeChainInternship/exercise/Library.sol\":1828:1872  uint _index = currentlyBorrowing[msg.sender] */\n      swap1\n      pop\n        /* \"LimeChainInternship/exercise/Library.sol\":1897:1898  0 */\n      0x00\n        /* \"LimeChainInternship/exercise/Library.sol\":1890:1896  _index */\n      dup2\n        /* \"LimeChainInternship/exercise/Library.sol\":1890:1898  _index>0 */\n      gt\n        /* \"LimeChainInternship/exercise/Library.sol\":1882:1914  require(_index>0,\"not borrowng\") */\n      tag_53\n      jumpi\n      mload(0x40)\n      0x08c379a000000000000000000000000000000000000000000000000000000000\n      dup2\n      mstore\n      0x04\n      add\n      tag_54\n      swap1\n      tag_55\n      jump\t// in\n    tag_54:\n      mload(0x40)\n      dup1\n      swap2\n      sub\n      swap1\n      revert\n    tag_53:\n        /* \"LimeChainInternship/exercise/Library.sol\":1955:1956  0 */\n      0x00\n        /* \"LimeChainInternship/exercise/Library.sol\":1924:1942  currentlyBorrowing */\n      0x02\n        /* \"LimeChainInternship/exercise/Library.sol\":1924:1954  currentlyBorrowing[msg.sender] */\n      0x00\n        /* \"LimeChainInternship/exercise/Library.sol\":1943:1953  msg.sender */\n      caller\n        /* \"LimeChainInternship/exercise/Library.sol\":1924:1954  currentlyBorrowing[msg.sender] */\n      0xffffffffffffffffffffffffffffffffffffffff\n      and\n      0xffffffffffffffffffffffffffffffffffffffff\n      and\n      dup2\n      mstore\n      0x20\n      add\n      swap1\n      dup2\n      mstore\n      0x20\n      add\n      0x00\n      keccak256\n        /* \"LimeChainInternship/exercise/Library.sol\":1924:1956  currentlyBorrowing[msg.sender]=0 */\n      dup2\n      swap1\n      sstore\n      pop\n        /* \"LimeChainInternship/exercise/Library.sol\":1968:1973  books */\n      0x04\n        /* \"LimeChainInternship/exercise/Library.sol\":1968:1981  books[_index] */\n      0x00\n        /* \"LimeChainInternship/exercise/Library.sol\":1974:1980  _index */\n      dup3\n        /* \"LimeChainInternship/exercise/Library.sol\":1968:1981  books[_index] */\n      dup2\n      mstore\n      0x20\n      add\n      swap1\n      dup2\n      mstore\n      0x20\n      add\n      0x00\n      keccak256\n        /* \"LimeChainInternship/exercise/Library.sol\":1968:1988  books[_index].copies */\n      0x01\n      add\n      0x00\n        /* \"LimeChainInternship/exercise/Library.sol\":1966:1988  ++books[_index].copies */\n      dup2\n      sload\n      tag_56\n      swap1\n      tag_57\n      jump\t// in\n    tag_56:\n      swap2\n      swap1\n      pop\n      dup2\n      swap1\n      sstore\n      pop\n        /* \"LimeChainInternship/exercise/Library.sol\":1818:1995  {... */\n      pop\n        /* \"LimeChainInternship/exercise/Library.sol\":1782:1995  function returnCurrentBook()external{... */\n      jump\t// out\n        /* \"LimeChainInternship/exercise/Library.sol\":531:569  mapping(string => uint) public indexes */\n    tag_23:\n      0x03\n      dup2\n      dup1\n      mload\n      0x20\n      dup2\n      add\n      dup3\n      add\n      dup1\n      mload\n      dup5\n      dup3\n      mstore\n      0x20\n      dup4\n      add\n      0x20\n      dup6\n      add\n      keccak256\n      dup2\n      dup4\n      mstore\n      dup1\n      swap6\n      pop\n      pop\n      pop\n      pop\n      pop\n      pop\n      0x00\n      swap2\n      pop\n      swap1\n      pop\n      sload\n      dup2\n      jump\t// out\n        /* \"LimeChainInternship/exercise/Library.sol\":733:1151  function addBook(string calldata _name, uint _copies) external onlyOwner{... */\n    tag_28:\n        /* \"@openzeppelin/contracts/access/Ownable.sol\":1094:1107  _checkOwner() */\n      tag_59\n        /* \"@openzeppelin/contracts/access/Ownable.sol\":1094:1105  _checkOwner */\n      tag_60\n        /* \"@openzeppelin/contracts/access/Ownable.sol\":1094:1107  _checkOwner() */\n      jump\t// in\n    tag_59:\n        /* \"LimeChainInternship/exercise/Library.sol\":836:837  0 */\n      0x00\n        /* \"LimeChainInternship/exercise/Library.sol\":820:827  indexes */\n      0x03\n        /* \"LimeChainInternship/exercise/Library.sol\":828:833  _name */\n      dup5\n      dup5\n        /* \"LimeChainInternship/exercise/Library.sol\":820:834  indexes[_name] */\n      mload(0x40)\n      tag_62\n      swap3\n      swap2\n      swap1\n      tag_63\n      jump\t// in\n    tag_62:\n      swap1\n      dup2\n      mstore\n      0x20\n      add\n      mload(0x40)\n      dup1\n      swap2\n      sub\n      swap1\n      keccak256\n      sload\n        /* \"LimeChainInternship/exercise/Library.sol\":820:837  indexes[_name]!=0 */\n      eq\n        /* \"LimeChainInternship/exercise/Library.sol\":816:1145  if( indexes[_name]!=0){... */\n      tag_64\n      jumpi\n        /* \"LimeChainInternship/exercise/Library.sol\":882:889  _copies */\n      dup1\n        /* \"LimeChainInternship/exercise/Library.sol\":852:857  books */\n      0x04\n        /* \"LimeChainInternship/exercise/Library.sol\":852:873  books[indexes[_name]] */\n      0x00\n        /* \"LimeChainInternship/exercise/Library.sol\":858:865  indexes */\n      0x03\n        /* \"LimeChainInternship/exercise/Library.sol\":866:871  _name */\n      dup7\n      dup7\n        /* \"LimeChainInternship/exercise/Library.sol\":858:872  indexes[_name] */\n      mload(0x40)\n      tag_65\n      swap3\n      swap2\n      swap1\n      tag_63\n      jump\t// in\n    tag_65:\n      swap1\n      dup2\n      mstore\n      0x20\n      add\n      mload(0x40)\n      dup1\n      swap2\n      sub\n      swap1\n      keccak256\n      sload\n        /* \"LimeChainInternship/exercise/Library.sol\":852:873  books[indexes[_name]] */\n      dup2\n      mstore\n      0x20\n      add\n      swap1\n      dup2\n      mstore\n      0x20\n      add\n      0x00\n      keccak256\n        /* \"LimeChainInternship/exercise/Library.sol\":852:880  books[indexes[_name]].copies */\n      0x01\n      add\n      0x00\n        /* \"LimeChainInternship/exercise/Library.sol\":852:889  books[indexes[_name]].copies+=_copies */\n      dup3\n      dup3\n      sload\n      tag_66\n      swap2\n      swap1\n      tag_67\n      jump\t// in\n    tag_66:\n      swap3\n      pop\n      pop\n      dup2\n      swap1\n      sstore\n      pop\n        /* \"LimeChainInternship/exercise/Library.sol\":908:934  addedCopies(_name,_copies) */\n      0x1c59ae2fc2d4d8fd587dd73c1193e81642fde8135d41b10c3325d3d1985f05ab\n        /* \"LimeChainInternship/exercise/Library.sol\":920:925  _name */\n      dup4\n      dup4\n        /* \"LimeChainInternship/exercise/Library.sol\":926:933  _copies */\n      dup4\n        /* \"LimeChainInternship/exercise/Library.sol\":908:934  addedCopies(_name,_copies) */\n      mload(0x40)\n      tag_68\n      swap4\n      swap3\n      swap2\n      swap1\n      tag_69\n      jump\t// in\n    tag_68:\n      mload(0x40)\n      dup1\n      swap2\n      sub\n      swap1\n      log1\n        /* \"LimeChainInternship/exercise/Library.sol\":948:955  return; */\n      jump(tag_61)\n        /* \"LimeChainInternship/exercise/Library.sol\":816:1145  if( indexes[_name]!=0){... */\n    tag_64:\n        /* \"LimeChainInternship/exercise/Library.sol\":985:990  count */\n      0x01\n      0x00\n        /* \"LimeChainInternship/exercise/Library.sol\":983:990  ++count */\n      dup2\n      sload\n      tag_71\n      swap1\n      tag_57\n      jump\t// in\n    tag_71:\n      swap2\n      swap1\n      pop\n      dup2\n      swap1\n      sstore\n      pop\n        /* \"LimeChainInternship/exercise/Library.sol\":1019:1055  Book({name: _name, copies: _copies}) */\n      mload(0x40)\n      dup1\n      0x40\n      add\n      0x40\n      mstore\n      dup1\n        /* \"LimeChainInternship/exercise/Library.sol\":1031:1036  _name */\n      dup5\n      dup5\n        /* \"LimeChainInternship/exercise/Library.sol\":1019:1055  Book({name: _name, copies: _copies}) */\n      dup1\n      dup1\n      0x1f\n      add\n      0x20\n      dup1\n      swap2\n      div\n      mul\n      0x20\n      add\n      mload(0x40)\n      swap1\n      dup2\n      add\n      0x40\n      mstore\n      dup1\n      swap4\n      swap3\n      swap2\n      swap1\n      dup2\n      dup2\n      mstore\n      0x20\n      add\n      dup4\n      dup4\n      dup1\n      dup3\n      dup5\n      calldatacopy\n      0x00\n      dup2\n      dup5\n      add\n      mstore\n      not(0x1f)\n      0x1f\n      dup3\n      add\n      and\n      swap1\n      pop\n      dup1\n      dup4\n      add\n      swap3\n      pop\n      pop\n      pop\n      pop\n      pop\n      pop\n      pop\n      dup2\n      mstore\n      0x20\n      add\n        /* \"LimeChainInternship/exercise/Library.sol\":1046:1053  _copies */\n      dup3\n        /* \"LimeChainInternship/exercise/Library.sol\":1019:1055  Book({name: _name, copies: _copies}) */\n      dup2\n      mstore\n      pop\n        /* \"LimeChainInternship/exercise/Library.sol\":1004:1009  books */\n      0x04\n        /* \"LimeChainInternship/exercise/Library.sol\":1004:1016  books[count] */\n      0x00\n        /* \"LimeChainInternship/exercise/Library.sol\":1010:1015  count */\n      sload(0x01)\n        /* \"LimeChainInternship/exercise/Library.sol\":1004:1016  books[count] */\n      dup2\n      mstore\n      0x20\n      add\n      swap1\n      dup2\n      mstore\n      0x20\n      add\n      0x00\n      keccak256\n        /* \"LimeChainInternship/exercise/Library.sol\":1004:1055  books[count] = Book({name: _name, copies: _copies}) */\n      0x00\n      dup3\n      add\n      mload\n      dup2\n      0x00\n      add\n      swap1\n      dup2\n      tag_72\n      swap2\n      swap1\n      tag_73\n      jump\t// in\n    tag_72:\n      pop\n      0x20\n      dup3\n      add\n      mload\n      dup2\n      0x01\n      add\n      sstore\n      swap1\n      pop\n      pop\n        /* \"LimeChainInternship/exercise/Library.sol\":1086:1091  count */\n      sload(0x01)\n        /* \"LimeChainInternship/exercise/Library.sol\":1069:1076  indexes */\n      0x03\n        /* \"LimeChainInternship/exercise/Library.sol\":1077:1082  _name */\n      dup5\n      dup5\n        /* \"LimeChainInternship/exercise/Library.sol\":1069:1083  indexes[_name] */\n      mload(0x40)\n      tag_74\n      swap3\n      swap2\n      swap1\n      tag_63\n      jump\t// in\n    tag_74:\n      swap1\n      dup2\n      mstore\n      0x20\n      add\n      mload(0x40)\n      dup1\n      swap2\n      sub\n      swap1\n      keccak256\n        /* \"LimeChainInternship/exercise/Library.sol\":1069:1091  indexes[_name] = count */\n      dup2\n      swap1\n      sstore\n      pop\n        /* \"LimeChainInternship/exercise/Library.sol\":1110:1134  addedBook(_name,_copies) */\n      0x5e5c09fb592e65b4897c25cb4a0597b46a9df6a8a9c1ace81148602e3166dfd4\n        /* \"LimeChainInternship/exercise/Library.sol\":1120:1125  _name */\n      dup4\n      dup4\n        /* \"LimeChainInternship/exercise/Library.sol\":1126:1133  _copies */\n      dup4\n        /* \"LimeChainInternship/exercise/Library.sol\":1110:1134  addedBook(_name,_copies) */\n      mload(0x40)\n      tag_75\n      swap4\n      swap3\n      swap2\n      swap1\n      tag_69\n      jump\t// in\n    tag_75:\n      mload(0x40)\n      dup1\n      swap2\n      sub\n      swap1\n      log1\n        /* \"@openzeppelin/contracts/access/Ownable.sol\":1117:1118  _ */\n    tag_61:\n        /* \"LimeChainInternship/exercise/Library.sol\":733:1151  function addBook(string calldata _name, uint _copies) external onlyOwner{... */\n      pop\n      pop\n      pop\n      jump\t// out\n        /* \"LimeChainInternship/exercise/Library.sol\":595:629  mapping(uint => Book) public books */\n    tag_32:\n      mstore(0x20, 0x04)\n      dup1\n      0x00\n      mstore\n      keccak256(0x00, 0x40)\n      0x00\n      swap2\n      pop\n      swap1\n      pop\n      dup1\n      0x00\n      add\n      dup1\n      sload\n      tag_76\n      swap1\n      tag_77\n      jump\t// in\n    tag_76:\n      dup1\n      0x1f\n      add\n      0x20\n      dup1\n      swap2\n      div\n      mul\n      0x20\n      add\n      mload(0x40)\n      swap1\n      dup2\n      add\n      0x40\n      mstore\n      dup1\n      swap3\n      swap2\n      swap1\n      dup2\n      dup2\n      mstore\n      0x20\n      add\n      dup3\n      dup1\n      sload\n      tag_78\n      swap1\n      tag_77\n      jump\t// in\n    tag_78:\n      dup1\n      iszero\n      tag_79\n      jumpi\n      dup1\n      0x1f\n      lt\n      tag_80\n      jumpi\n      0x0100\n      dup1\n      dup4\n      sload\n      div\n      mul\n      dup4\n      mstore\n      swap2\n      0x20\n      add\n      swap2\n      jump(tag_79)\n    tag_80:\n      dup3\n      add\n      swap2\n      swap1\n      0x00\n      mstore\n      keccak256(0x00, 0x20)\n      swap1\n    tag_81:\n      dup2\n      sload\n      dup2\n      mstore\n      swap1\n      0x01\n      add\n      swap1\n      0x20\n      add\n      dup1\n      dup4\n      gt\n      tag_81\n      jumpi\n      dup3\n      swap1\n      sub\n      0x1f\n      and\n      dup3\n      add\n      swap2\n    tag_79:\n      pop\n      pop\n      pop\n      pop\n      pop\n      swap1\n      dup1\n      0x01\n      add\n      sload\n      swap1\n      pop\n      dup3\n      jump\t// out\n        /* \"@openzeppelin/contracts/access/Ownable.sol\":1831:1932  function renounceOwnership() public virtual onlyOwner {... */\n    tag_36:\n        /* \"@openzeppelin/contracts/access/Ownable.sol\":1094:1107  _checkOwner() */\n      tag_83\n        /* \"@openzeppelin/contracts/access/Ownable.sol\":1094:1105  _checkOwner */\n      tag_60\n        /* \"@openzeppelin/contracts/access/Ownable.sol\":1094:1107  _checkOwner() */\n      jump\t// in\n    tag_83:\n        /* \"@openzeppelin/contracts/access/Ownable.sol\":1895:1925  _transferOwnership(address(0)) */\n      tag_85\n        /* \"@openzeppelin/contracts/access/Ownable.sol\":1922:1923  0 */\n      0x00\n        /* \"@openzeppelin/contracts/access/Ownable.sol\":1895:1913  _transferOwnership */\n      tag_86\n        /* \"@openzeppelin/contracts/access/Ownable.sol\":1895:1925  _transferOwnership(address(0)) */\n      jump\t// in\n    tag_85:\n        /* \"@openzeppelin/contracts/access/Ownable.sol\":1831:1932  function renounceOwnership() public virtual onlyOwner {... */\n      jump\t// out\n        /* \"LimeChainInternship/exercise/Library.sol\":1157:1776  function borrowBook(uint _index) external {... */\n    tag_39:\n        /* \"LimeChainInternship/exercise/Library.sol\":1342:1343  0 */\n      0x00\n        /* \"LimeChainInternship/exercise/Library.sol\":1311:1329  currentlyBorrowing */\n      0x02\n        /* \"LimeChainInternship/exercise/Library.sol\":1311:1341  currentlyBorrowing[msg.sender] */\n      0x00\n        /* \"LimeChainInternship/exercise/Library.sol\":1330:1340  msg.sender */\n      caller\n        /* \"LimeChainInternship/exercise/Library.sol\":1311:1341  currentlyBorrowing[msg.sender] */\n      0xffffffffffffffffffffffffffffffffffffffff\n      and\n      0xffffffffffffffffffffffffffffffffffffffff\n      and\n      dup2\n      mstore\n      0x20\n      add\n      swap1\n      dup2\n      mstore\n      0x20\n      add\n      0x00\n      keccak256\n      sload\n        /* \"LimeChainInternship/exercise/Library.sol\":1311:1343  currentlyBorrowing[msg.sender]>0 */\n      gt\n        /* \"LimeChainInternship/exercise/Library.sol\":1308:1402  if(currentlyBorrowing[msg.sender]>0){... */\n      iszero\n      tag_88\n      jumpi\n        /* \"LimeChainInternship/exercise/Library.sol\":1380:1390  msg.sender */\n      caller\n        /* \"LimeChainInternship/exercise/Library.sol\":1365:1391  alredyBorrwing(msg.sender) */\n      mload(0x40)\n      0xaf162d1b00000000000000000000000000000000000000000000000000000000\n      dup2\n      mstore\n      0x04\n      add\n      tag_89\n      swap2\n      swap1\n      tag_43\n      jump\t// in\n    tag_89:\n      mload(0x40)\n      dup1\n      swap2\n      sub\n      swap1\n      revert\n        /* \"LimeChainInternship/exercise/Library.sol\":1308:1402  if(currentlyBorrowing[msg.sender]>0){... */\n    tag_88:\n        /* \"LimeChainInternship/exercise/Library.sol\":1479:1493  Book storage b */\n      0x00\n        /* \"LimeChainInternship/exercise/Library.sol\":1496:1501  books */\n      0x04\n        /* \"LimeChainInternship/exercise/Library.sol\":1496:1509  books[_index] */\n      0x00\n        /* \"LimeChainInternship/exercise/Library.sol\":1502:1508  _index */\n      dup4\n        /* \"LimeChainInternship/exercise/Library.sol\":1496:1509  books[_index] */\n      dup2\n      mstore\n      0x20\n      add\n      swap1\n      dup2\n      mstore\n      0x20\n      add\n      0x00\n      keccak256\n        /* \"LimeChainInternship/exercise/Library.sol\":1479:1509  Book storage b = books[_index] */\n      swap1\n      pop\n        /* \"LimeChainInternship/exercise/Library.sol\":1568:1569  0 */\n      0x00\n        /* \"LimeChainInternship/exercise/Library.sol\":1559:1560  b */\n      dup2\n        /* \"LimeChainInternship/exercise/Library.sol\":1559:1567  b.copies */\n      0x01\n      add\n      sload\n        /* \"LimeChainInternship/exercise/Library.sol\":1559:1569  b.copies>0 */\n      gt\n        /* \"LimeChainInternship/exercise/Library.sol\":1551:1588  require(b.copies>0,\"zero books left\") */\n      tag_90\n      jumpi\n      mload(0x40)\n      0x08c379a000000000000000000000000000000000000000000000000000000000\n      dup2\n      mstore\n      0x04\n      add\n      tag_91\n      swap1\n      tag_92\n      jump\t// in\n    tag_91:\n      mload(0x40)\n      dup1\n      swap2\n      sub\n      swap1\n      revert\n    tag_90:\n        /* \"LimeChainInternship/exercise/Library.sol\":1600:1601  b */\n      dup1\n        /* \"LimeChainInternship/exercise/Library.sol\":1600:1608  b.copies */\n      0x01\n      add\n      0x00\n        /* \"LimeChainInternship/exercise/Library.sol\":1598:1608  --b.copies */\n      dup2\n      sload\n      tag_93\n      swap1\n      tag_94\n      jump\t// in\n    tag_93:\n      swap2\n      swap1\n      pop\n      dup2\n      swap1\n      sstore\n      pop\n        /* \"LimeChainInternship/exercise/Library.sol\":1683:1689  _index */\n      dup2\n        /* \"LimeChainInternship/exercise/Library.sol\":1650:1668  currentlyBorrowing */\n      0x02\n        /* \"LimeChainInternship/exercise/Library.sol\":1650:1680  currentlyBorrowing[msg.sender] */\n      0x00\n        /* \"LimeChainInternship/exercise/Library.sol\":1669:1679  msg.sender */\n      caller\n        /* \"LimeChainInternship/exercise/Library.sol\":1650:1680  currentlyBorrowing[msg.sender] */\n      0xffffffffffffffffffffffffffffffffffffffff\n      and\n      0xffffffffffffffffffffffffffffffffffffffff\n      and\n      dup2\n      mstore\n      0x20\n      add\n      swap1\n      dup2\n      mstore\n      0x20\n      add\n      0x00\n      keccak256\n        /* \"LimeChainInternship/exercise/Library.sol\":1650:1689  currentlyBorrowing[msg.sender] = _index */\n      dup2\n      swap1\n      sstore\n      pop\n        /* \"LimeChainInternship/exercise/Library.sol\":1765:1769  true */\n      0x01\n        /* \"LimeChainInternship/exercise/Library.sol\":1731:1744  borrowedBooks */\n      0x05\n        /* \"LimeChainInternship/exercise/Library.sol\":1731:1752  borrowedBooks[_index] */\n      0x00\n        /* \"LimeChainInternship/exercise/Library.sol\":1745:1751  _index */\n      dup5\n        /* \"LimeChainInternship/exercise/Library.sol\":1731:1752  borrowedBooks[_index] */\n      dup2\n      mstore\n      0x20\n      add\n      swap1\n      dup2\n      mstore\n      0x20\n      add\n      0x00\n      keccak256\n        /* \"LimeChainInternship/exercise/Library.sol\":1731:1764  borrowedBooks[_index][msg.sender] */\n      0x00\n        /* \"LimeChainInternship/exercise/Library.sol\":1753:1763  msg.sender */\n      caller\n        /* \"LimeChainInternship/exercise/Library.sol\":1731:1764  borrowedBooks[_index][msg.sender] */\n      0xffffffffffffffffffffffffffffffffffffffff\n      and\n      0xffffffffffffffffffffffffffffffffffffffff\n      and\n      dup2\n      mstore\n      0x20\n      add\n      swap1\n      dup2\n      mstore\n      0x20\n      add\n      0x00\n      keccak256\n      0x00\n        /* \"LimeChainInternship/exercise/Library.sol\":1731:1769  borrowedBooks[_index][msg.sender]=true */\n      0x0100\n      exp\n      dup2\n      sload\n      dup2\n      0xff\n      mul\n      not\n      and\n      swap1\n      dup4\n      iszero\n      iszero\n      mul\n      or\n      swap1\n      sstore\n      pop\n        /* \"LimeChainInternship/exercise/Library.sol\":1199:1776  {... */\n      pop\n        /* \"LimeChainInternship/exercise/Library.sol\":1157:1776  function borrowBook(uint _index) external {... */\n      pop\n      jump\t// out\n        /* \"@openzeppelin/contracts/access/Ownable.sol\":1201:1286  function owner() public view virtual returns (address) {... */\n    tag_41:\n        /* \"@openzeppelin/contracts/access/Ownable.sol\":1247:1254  address */\n      0x00\n        /* \"@openzeppelin/contracts/access/Ownable.sol\":1273:1279  _owner */\n      dup1\n      0x00\n      swap1\n      sload\n      swap1\n      0x0100\n      exp\n      swap1\n      div\n      0xffffffffffffffffffffffffffffffffffffffff\n      and\n        /* \"@openzeppelin/contracts/access/Ownable.sol\":1266:1279  return _owner */\n      swap1\n      pop\n        /* \"@openzeppelin/contracts/access/Ownable.sol\":1201:1286  function owner() public view virtual returns (address) {... */\n      swap1\n      jump\t// out\n        /* \"LimeChainInternship/exercise/Library.sol\":450:500  mapping(address => uint) public currentlyBorrowing */\n    tag_47:\n      mstore(0x20, 0x02)\n      dup1\n      0x00\n      mstore\n      keccak256(0x00, 0x40)\n      0x00\n      swap2\n      pop\n      swap1\n      pop\n      sload\n      dup2\n      jump\t// out\n        /* \"@openzeppelin/contracts/access/Ownable.sol\":2081:2279  function transferOwnership(address newOwner) public virtual onlyOwner {... */\n    tag_51:\n        /* \"@openzeppelin/contracts/access/Ownable.sol\":1094:1107  _checkOwner() */\n      tag_97\n        /* \"@openzeppelin/contracts/access/Ownable.sol\":1094:1105  _checkOwner */\n      tag_60\n        /* \"@openzeppelin/contracts/access/Ownable.sol\":1094:1107  _checkOwner() */\n      jump\t// in\n    tag_97:\n        /* \"@openzeppelin/contracts/access/Ownable.sol\":2189:2190  0 */\n      0x00\n        /* \"@openzeppelin/contracts/access/Ownable.sol\":2169:2191  newOwner != address(0) */\n      0xffffffffffffffffffffffffffffffffffffffff\n      and\n        /* \"@openzeppelin/contracts/access/Ownable.sol\":2169:2177  newOwner */\n      dup2\n        /* \"@openzeppelin/contracts/access/Ownable.sol\":2169:2191  newOwner != address(0) */\n      0xffffffffffffffffffffffffffffffffffffffff\n      and\n      sub\n        /* \"@openzeppelin/contracts/access/Ownable.sol\":2161:2234  require(newOwner != address(0), \"Ownable: new owner is the zero address\") */\n      tag_99\n      jumpi\n      mload(0x40)\n      0x08c379a000000000000000000000000000000000000000000000000000000000\n      dup2\n      mstore\n      0x04\n      add\n      tag_100\n      swap1\n      tag_101\n      jump\t// in\n    tag_100:\n      mload(0x40)\n      dup1\n      swap2\n      sub\n      swap1\n      revert\n    tag_99:\n        /* \"@openzeppelin/contracts/access/Ownable.sol\":2244:2272  _transferOwnership(newOwner) */\n      tag_102\n        /* \"@openzeppelin/contracts/access/Ownable.sol\":2263:2271  newOwner */\n      dup2\n        /* \"@openzeppelin/contracts/access/Ownable.sol\":2244:2262  _transferOwnership */\n      tag_86\n        /* \"@openzeppelin/contracts/access/Ownable.sol\":2244:2272  _transferOwnership(newOwner) */\n      jump\t// in\n    tag_102:\n        /* \"@openzeppelin/contracts/access/Ownable.sol\":2081:2279  function transferOwnership(address newOwner) public virtual onlyOwner {... */\n      pop\n      jump\t// out\n        /* \"@openzeppelin/contracts/access/Ownable.sol\":1359:1489  function _checkOwner() internal view virtual {... */\n    tag_60:\n        /* \"@openzeppelin/contracts/access/Ownable.sol\":1433:1445  _msgSender() */\n      tag_104\n        /* \"@openzeppelin/contracts/access/Ownable.sol\":1433:1443  _msgSender */\n      tag_105\n        /* \"@openzeppelin/contracts/access/Ownable.sol\":1433:1445  _msgSender() */\n      jump\t// in\n    tag_104:\n        /* \"@openzeppelin/contracts/access/Ownable.sol\":1422:1445  owner() == _msgSender() */\n      0xffffffffffffffffffffffffffffffffffffffff\n      and\n        /* \"@openzeppelin/contracts/access/Ownable.sol\":1422:1429  owner() */\n      tag_106\n        /* \"@openzeppelin/contracts/access/Ownable.sol\":1422:1427  owner */\n      tag_41\n        /* \"@openzeppelin/contracts/access/Ownable.sol\":1422:1429  owner() */\n      jump\t// in\n    tag_106:\n        /* \"@openzeppelin/contracts/access/Ownable.sol\":1422:1445  owner() == _msgSender() */\n      0xffffffffffffffffffffffffffffffffffffffff\n      and\n      eq\n        /* \"@openzeppelin/contracts/access/Ownable.sol\":1414:1482  require(owner() == _msgSender(), \"Ownable: caller is not the owner\") */\n      tag_107\n      jumpi\n      mload(0x40)\n      0x08c379a000000000000000000000000000000000000000000000000000000000\n      dup2\n      mstore\n      0x04\n      add\n      tag_108\n      swap1\n      tag_109\n      jump\t// in\n    tag_108:\n      mload(0x40)\n      dup1\n      swap2\n      sub\n      swap1\n      revert\n    tag_107:\n        /* \"@openzeppelin/contracts/access/Ownable.sol\":1359:1489  function _checkOwner() internal view virtual {... */\n      jump\t// out\n        /* \"@openzeppelin/contracts/access/Ownable.sol\":2433:2620  function _transferOwnership(address newOwner) internal virtual {... */\n    tag_86:\n        /* \"@openzeppelin/contracts/access/Ownable.sol\":2506:2522  address oldOwner */\n      0x00\n        /* \"@openzeppelin/contracts/access/Ownable.sol\":2525:2531  _owner */\n      dup1\n      0x00\n      swap1\n      sload\n      swap1\n      0x0100\n      exp\n      swap1\n      div\n      0xffffffffffffffffffffffffffffffffffffffff\n      and\n        /* \"@openzeppelin/contracts/access/Ownable.sol\":2506:2531  address oldOwner = _owner */\n      swap1\n      pop\n        /* \"@openzeppelin/contracts/access/Ownable.sol\":2550:2558  newOwner */\n      dup2\n        /* \"@openzeppelin/contracts/access/Ownable.sol\":2541:2547  _owner */\n      0x00\n      dup1\n        /* \"@openzeppelin/contracts/access/Ownable.sol\":2541:2558  _owner = newOwner */\n      0x0100\n      exp\n      dup2\n      sload\n      dup2\n      0xffffffffffffffffffffffffffffffffffffffff\n      mul\n      not\n      and\n      swap1\n      dup4\n      0xffffffffffffffffffffffffffffffffffffffff\n      and\n      mul\n      or\n      swap1\n      sstore\n      pop\n        /* \"@openzeppelin/contracts/access/Ownable.sol\":2604:2612  newOwner */\n      dup2\n        /* \"@openzeppelin/contracts/access/Ownable.sol\":2573:2613  OwnershipTransferred(oldOwner, newOwner) */\n      0xffffffffffffffffffffffffffffffffffffffff\n      and\n        /* \"@openzeppelin/contracts/access/Ownable.sol\":2594:2602  oldOwner */\n      dup2\n        /* \"@openzeppelin/contracts/access/Ownable.sol\":2573:2613  OwnershipTransferred(oldOwner, newOwner) */\n      0xffffffffffffffffffffffffffffffffffffffff\n      and\n      0x8be0079c531659141344cd1fd0a4f28419497f9722a3daafe3b4186f6b6457e0\n      mload(0x40)\n      mload(0x40)\n      dup1\n      swap2\n      sub\n      swap1\n      log3\n        /* \"@openzeppelin/contracts/access/Ownable.sol\":2496:2620  {... */\n      pop\n        /* \"@openzeppelin/contracts/access/Ownable.sol\":2433:2620  function _transferOwnership(address newOwner) internal virtual {... */\n      pop\n      jump\t// out\n        /* \"@openzeppelin/contracts/utils/Context.sol\":640:736  function _msgSender() internal view virtual returns (address) {... */\n    tag_105:\n        /* \"@openzeppelin/contracts/utils/Context.sol\":693:700  address */\n      0x00\n        /* \"@openzeppelin/contracts/utils/Context.sol\":719:729  msg.sender */\n      caller\n        /* \"@openzeppelin/contracts/utils/Context.sol\":712:729  return msg.sender */\n      swap1\n      pop\n        /* \"@openzeppelin/contracts/utils/Context.sol\":640:736  function _msgSender() internal view virtual returns (address) {... */\n      swap1\n      jump\t// out\n        /* \"#utility.yul\":7:84   */\n    tag_112:\n        /* \"#utility.yul\":44:51   */\n      0x00\n        /* \"#utility.yul\":73:78   */\n      dup2\n        /* \"#utility.yul\":62:78   */\n      swap1\n      pop\n        /* \"#utility.yul\":7:84   */\n      swap2\n      swap1\n      pop\n      jump\t// out\n        /* \"#utility.yul\":90:208   */\n    tag_113:\n        /* \"#utility.yul\":177:201   */\n      tag_172\n        /* \"#utility.yul\":195:200   */\n      dup2\n        /* \"#utility.yul\":177:201   */\n      tag_112\n      jump\t// in\n    tag_172:\n        /* \"#utility.yul\":172:175   */\n      dup3\n        /* \"#utility.yul\":165:202   */\n      mstore\n        /* \"#utility.yul\":90:208   */\n      pop\n      pop\n      jump\t// out\n        /* \"#utility.yul\":214:436   */\n    tag_17:\n        /* \"#utility.yul\":307:311   */\n      0x00\n        /* \"#utility.yul\":345:347   */\n      0x20\n        /* \"#utility.yul\":334:343   */\n      dup3\n        /* \"#utility.yul\":330:348   */\n      add\n        /* \"#utility.yul\":322:348   */\n      swap1\n      pop\n        /* \"#utility.yul\":358:429   */\n      tag_174\n        /* \"#utility.yul\":426:427   */\n      0x00\n        /* \"#utility.yul\":415:424   */\n      dup4\n        /* \"#utility.yul\":411:428   */\n      add\n        /* \"#utility.yul\":402:408   */\n      dup5\n        /* \"#utility.yul\":358:429   */\n      tag_113\n      jump\t// in\n    tag_174:\n        /* \"#utility.yul\":214:436   */\n      swap3\n      swap2\n      pop\n      pop\n      jump\t// out\n        /* \"#utility.yul\":442:517   */\n    tag_114:\n        /* \"#utility.yul\":475:481   */\n      0x00\n        /* \"#utility.yul\":508:510   */\n      0x40\n        /* \"#utility.yul\":502:511   */\n      mload\n        /* \"#utility.yul\":492:511   */\n      swap1\n      pop\n        /* \"#utility.yul\":442:517   */\n      swap1\n      jump\t// out\n        /* \"#utility.yul\":523:640   */\n    tag_115:\n        /* \"#utility.yul\":632:633   */\n      0x00\n        /* \"#utility.yul\":629:630   */\n      dup1\n        /* \"#utility.yul\":622:634   */\n      revert\n        /* \"#utility.yul\":646:763   */\n    tag_116:\n        /* \"#utility.yul\":755:756   */\n      0x00\n        /* \"#utility.yul\":752:753   */\n      dup1\n        /* \"#utility.yul\":745:757   */\n      revert\n        /* \"#utility.yul\":769:886   */\n    tag_117:\n        /* \"#utility.yul\":878:879   */\n      0x00\n        /* \"#utility.yul\":875:876   */\n      dup1\n        /* \"#utility.yul\":868:880   */\n      revert\n        /* \"#utility.yul\":892:1009   */\n    tag_118:\n        /* \"#utility.yul\":1001:1002   */\n      0x00\n        /* \"#utility.yul\":998:999   */\n      dup1\n        /* \"#utility.yul\":991:1003   */\n      revert\n        /* \"#utility.yul\":1015:1117   */\n    tag_119:\n        /* \"#utility.yul\":1056:1062   */\n      0x00\n        /* \"#utility.yul\":1107:1109   */\n      0x1f\n        /* \"#utility.yul\":1103:1110   */\n      not\n        /* \"#utility.yul\":1098:1100   */\n      0x1f\n        /* \"#utility.yul\":1091:1096   */\n      dup4\n        /* \"#utility.yul\":1087:1101   */\n      add\n        /* \"#utility.yul\":1083:1111   */\n      and\n        /* \"#utility.yul\":1073:1111   */\n      swap1\n      pop\n        /* \"#utility.yul\":1015:1117   */\n      swap2\n      swap1\n      pop\n      jump\t// out\n        /* \"#utility.yul\":1123:1303   */\n    tag_120:\n        /* \"#utility.yul\":1171:1248   */\n      0x4e487b7100000000000000000000000000000000000000000000000000000000\n        /* \"#utility.yul\":1168:1169   */\n      0x00\n        /* \"#utility.yul\":1161:1249   */\n      mstore\n        /* \"#utility.yul\":1268:1272   */\n      0x41\n        /* \"#utility.yul\":1265:1266   */\n      0x04\n        /* \"#utility.yul\":1258:1273   */\n      mstore\n        /* \"#utility.yul\":1292:1296   */\n      0x24\n        /* \"#utility.yul\":1289:1290   */\n      0x00\n        /* \"#utility.yul\":1282:1297   */\n      revert\n        /* \"#utility.yul\":1309:1590   */\n    tag_121:\n        /* \"#utility.yul\":1392:1419   */\n      tag_183\n        /* \"#utility.yul\":1414:1418   */\n      dup3\n        /* \"#utility.yul\":1392:1419   */\n      tag_119\n      jump\t// in\n    tag_183:\n        /* \"#utility.yul\":1384:1390   */\n      dup2\n        /* \"#utility.yul\":1380:1420   */\n      add\n        /* \"#utility.yul\":1522:1528   */\n      dup2\n        /* \"#utility.yul\":1510:1520   */\n      dup2\n        /* \"#utility.yul\":1507:1529   */\n      lt\n        /* \"#utility.yul\":1486:1504   */\n      0xffffffffffffffff\n        /* \"#utility.yul\":1474:1484   */\n      dup3\n        /* \"#utility.yul\":1471:1505   */\n      gt\n        /* \"#utility.yul\":1468:1530   */\n      or\n        /* \"#utility.yul\":1465:1553   */\n      iszero\n      tag_184\n      jumpi\n        /* \"#utility.yul\":1533:1551   */\n      tag_185\n      tag_120\n      jump\t// in\n    tag_185:\n        /* \"#utility.yul\":1465:1553   */\n    tag_184:\n        /* \"#utility.yul\":1573:1583   */\n      dup1\n        /* \"#utility.yul\":1569:1571   */\n      0x40\n        /* \"#utility.yul\":1562:1584   */\n      mstore\n        /* \"#utility.yul\":1352:1590   */\n      pop\n        /* \"#utility.yul\":1309:1590   */\n      pop\n      pop\n      jump\t// out\n        /* \"#utility.yul\":1596:1725   */\n    tag_122:\n        /* \"#utility.yul\":1630:1636   */\n      0x00\n        /* \"#utility.yul\":1657:1677   */\n      tag_187\n      tag_114\n      jump\t// in\n    tag_187:\n        /* \"#utility.yul\":1647:1677   */\n      swap1\n      pop\n        /* \"#utility.yul\":1686:1719   */\n      tag_188\n        /* \"#utility.yul\":1714:1718   */\n      dup3\n        /* \"#utility.yul\":1706:1712   */\n      dup3\n        /* \"#utility.yul\":1686:1719   */\n      tag_121\n      jump\t// in\n    tag_188:\n        /* \"#utility.yul\":1596:1725   */\n      swap2\n      swap1\n      pop\n      jump\t// out\n        /* \"#utility.yul\":1731:2039   */\n    tag_123:\n        /* \"#utility.yul\":1793:1797   */\n      0x00\n        /* \"#utility.yul\":1883:1901   */\n      0xffffffffffffffff\n        /* \"#utility.yul\":1875:1881   */\n      dup3\n        /* \"#utility.yul\":1872:1902   */\n      gt\n        /* \"#utility.yul\":1869:1925   */\n      iszero\n      tag_190\n      jumpi\n        /* \"#utility.yul\":1905:1923   */\n      tag_191\n      tag_120\n      jump\t// in\n    tag_191:\n        /* \"#utility.yul\":1869:1925   */\n    tag_190:\n        /* \"#utility.yul\":1943:1972   */\n      tag_192\n        /* \"#utility.yul\":1965:1971   */\n      dup3\n        /* \"#utility.yul\":1943:1972   */\n      tag_119\n      jump\t// in\n    tag_192:\n        /* \"#utility.yul\":1935:1972   */\n      swap1\n      pop\n        /* \"#utility.yul\":2027:2031   */\n      0x20\n        /* \"#utility.yul\":2021:2025   */\n      dup2\n        /* \"#utility.yul\":2017:2032   */\n      add\n        /* \"#utility.yul\":2009:2032   */\n      swap1\n      pop\n        /* \"#utility.yul\":1731:2039   */\n      swap2\n      swap1\n      pop\n      jump\t// out\n        /* \"#utility.yul\":2045:2199   */\n    tag_124:\n        /* \"#utility.yul\":2129:2135   */\n      dup3\n        /* \"#utility.yul\":2124:2127   */\n      dup2\n        /* \"#utility.yul\":2119:2122   */\n      dup4\n        /* \"#utility.yul\":2106:2136   */\n      calldatacopy\n        /* \"#utility.yul\":2191:2192   */\n      0x00\n        /* \"#utility.yul\":2182:2188   */\n      dup4\n        /* \"#utility.yul\":2177:2180   */\n      dup4\n        /* \"#utility.yul\":2173:2189   */\n      add\n        /* \"#utility.yul\":2166:2193   */\n      mstore\n        /* \"#utility.yul\":2045:2199   */\n      pop\n      pop\n      pop\n      jump\t// out\n        /* \"#utility.yul\":2205:2617   */\n    tag_125:\n        /* \"#utility.yul\":2283:2288   */\n      0x00\n        /* \"#utility.yul\":2308:2374   */\n      tag_195\n        /* \"#utility.yul\":2324:2373   */\n      tag_196\n        /* \"#utility.yul\":2366:2372   */\n      dup5\n        /* \"#utility.yul\":2324:2373   */\n      tag_123\n      jump\t// in\n    tag_196:\n        /* \"#utility.yul\":2308:2374   */\n      tag_122\n      jump\t// in\n    tag_195:\n        /* \"#utility.yul\":2299:2374   */\n      swap1\n      pop\n        /* \"#utility.yul\":2397:2403   */\n      dup3\n        /* \"#utility.yul\":2390:2395   */\n      dup2\n        /* \"#utility.yul\":2383:2404   */\n      mstore\n        /* \"#utility.yul\":2435:2439   */\n      0x20\n        /* \"#utility.yul\":2428:2433   */\n      dup2\n        /* \"#utility.yul\":2424:2440   */\n      add\n        /* \"#utility.yul\":2473:2476   */\n      dup5\n        /* \"#utility.yul\":2464:2470   */\n      dup5\n        /* \"#utility.yul\":2459:2462   */\n      dup5\n        /* \"#utility.yul\":2455:2471   */\n      add\n        /* \"#utility.yul\":2452:2477   */\n      gt\n        /* \"#utility.yul\":2449:2561   */\n      iszero\n      tag_197\n      jumpi\n        /* \"#utility.yul\":2480:2559   */\n      tag_198\n      tag_118\n      jump\t// in\n    tag_198:\n        /* \"#utility.yul\":2449:2561   */\n    tag_197:\n        /* \"#utility.yul\":2570:2611   */\n      tag_199\n        /* \"#utility.yul\":2604:2610   */\n      dup5\n        /* \"#utility.yul\":2599:2602   */\n      dup3\n        /* \"#utility.yul\":2594:2597   */\n      dup6\n        /* \"#utility.yul\":2570:2611   */\n      tag_124\n      jump\t// in\n    tag_199:\n        /* \"#utility.yul\":2289:2617   */\n      pop\n        /* \"#utility.yul\":2205:2617   */\n      swap4\n      swap3\n      pop\n      pop\n      pop\n      jump\t// out\n        /* \"#utility.yul\":2637:2977   */\n    tag_126:\n        /* \"#utility.yul\":2693:2698   */\n      0x00\n        /* \"#utility.yul\":2742:2745   */\n      dup3\n        /* \"#utility.yul\":2735:2739   */\n      0x1f\n        /* \"#utility.yul\":2727:2733   */\n      dup4\n        /* \"#utility.yul\":2723:2740   */\n      add\n        /* \"#utility.yul\":2719:2746   */\n      slt\n        /* \"#utility.yul\":2709:2831   */\n      tag_201\n      jumpi\n        /* \"#utility.yul\":2750:2829   */\n      tag_202\n      tag_117\n      jump\t// in\n    tag_202:\n        /* \"#utility.yul\":2709:2831   */\n    tag_201:\n        /* \"#utility.yul\":2867:2873   */\n      dup2\n        /* \"#utility.yul\":2854:2874   */\n      calldataload\n        /* \"#utility.yul\":2892:2971   */\n      tag_203\n        /* \"#utility.yul\":2967:2970   */\n      dup5\n        /* \"#utility.yul\":2959:2965   */\n      dup3\n        /* \"#utility.yul\":2952:2956   */\n      0x20\n        /* \"#utility.yul\":2944:2950   */\n      dup7\n        /* \"#utility.yul\":2940:2957   */\n      add\n        /* \"#utility.yul\":2892:2971   */\n      tag_125\n      jump\t// in\n    tag_203:\n        /* \"#utility.yul\":2883:2971   */\n      swap2\n      pop\n        /* \"#utility.yul\":2699:2977   */\n      pop\n        /* \"#utility.yul\":2637:2977   */\n      swap3\n      swap2\n      pop\n      pop\n      jump\t// out\n        /* \"#utility.yul\":2983:3492   */\n    tag_22:\n        /* \"#utility.yul\":3052:3058   */\n      0x00\n        /* \"#utility.yul\":3101:3103   */\n      0x20\n        /* \"#utility.yul\":3089:3098   */\n      dup3\n        /* \"#utility.yul\":3080:3087   */\n      dup5\n        /* \"#utility.yul\":3076:3099   */\n      sub\n        /* \"#utility.yul\":3072:3104   */\n      slt\n        /* \"#utility.yul\":3069:3188   */\n      iszero\n      tag_205\n      jumpi\n        /* \"#utility.yul\":3107:3186   */\n      tag_206\n      tag_115\n      jump\t// in\n    tag_206:\n        /* \"#utility.yul\":3069:3188   */\n    tag_205:\n        /* \"#utility.yul\":3255:3256   */\n      0x00\n        /* \"#utility.yul\":3244:3253   */\n      dup3\n        /* \"#utility.yul\":3240:3257   */\n      add\n        /* \"#utility.yul\":3227:3258   */\n      calldataload\n        /* \"#utility.yul\":3285:3303   */\n      0xffffffffffffffff\n        /* \"#utility.yul\":3277:3283   */\n      dup2\n        /* \"#utility.yul\":3274:3304   */\n      gt\n        /* \"#utility.yul\":3271:3388   */\n      iszero\n      tag_207\n      jumpi\n        /* \"#utility.yul\":3307:3386   */\n      tag_208\n      tag_116\n      jump\t// in\n    tag_208:\n        /* \"#utility.yul\":3271:3388   */\n    tag_207:\n        /* \"#utility.yul\":3412:3475   */\n      tag_209\n        /* \"#utility.yul\":3467:3474   */\n      dup5\n        /* \"#utility.yul\":3458:3464   */\n      dup3\n        /* \"#utility.yul\":3447:3456   */\n      dup6\n        /* \"#utility.yul\":3443:3465   */\n      add\n        /* \"#utility.yul\":3412:3475   */\n      tag_126\n      jump\t// in\n    tag_209:\n        /* \"#utility.yul\":3402:3475   */\n      swap2\n      pop\n        /* \"#utility.yul\":3198:3485   */\n      pop\n        /* \"#utility.yul\":2983:3492   */\n      swap3\n      swap2\n      pop\n      pop\n      jump\t// out\n        /* \"#utility.yul\":3498:3615   */\n    tag_127:\n        /* \"#utility.yul\":3607:3608   */\n      0x00\n        /* \"#utility.yul\":3604:3605   */\n      dup1\n        /* \"#utility.yul\":3597:3609   */\n      revert\n        /* \"#utility.yul\":3621:3738   */\n    tag_128:\n        /* \"#utility.yul\":3730:3731   */\n      0x00\n        /* \"#utility.yul\":3727:3728   */\n      dup1\n        /* \"#utility.yul\":3720:3732   */\n      revert\n        /* \"#utility.yul\":3758:4311   */\n    tag_129:\n        /* \"#utility.yul\":3816:3824   */\n      0x00\n        /* \"#utility.yul\":3826:3832   */\n      dup1\n        /* \"#utility.yul\":3876:3879   */\n      dup4\n        /* \"#utility.yul\":3869:3873   */\n      0x1f\n        /* \"#utility.yul\":3861:3867   */\n      dup5\n        /* \"#utility.yul\":3857:3874   */\n      add\n        /* \"#utility.yul\":3853:3880   */\n      slt\n        /* \"#utility.yul\":3843:3965   */\n      tag_213\n      jumpi\n        /* \"#utility.yul\":3884:3963   */\n      tag_214\n      tag_117\n      jump\t// in\n    tag_214:\n        /* \"#utility.yul\":3843:3965   */\n    tag_213:\n        /* \"#utility.yul\":3997:4003   */\n      dup3\n        /* \"#utility.yul\":3984:4004   */\n      calldataload\n        /* \"#utility.yul\":3974:4004   */\n      swap1\n      pop\n        /* \"#utility.yul\":4027:4045   */\n      0xffffffffffffffff\n        /* \"#utility.yul\":4019:4025   */\n      dup2\n        /* \"#utility.yul\":4016:4046   */\n      gt\n        /* \"#utility.yul\":4013:4130   */\n      iszero\n      tag_215\n      jumpi\n        /* \"#utility.yul\":4049:4128   */\n      tag_216\n      tag_127\n      jump\t// in\n    tag_216:\n        /* \"#utility.yul\":4013:4130   */\n    tag_215:\n        /* \"#utility.yul\":4163:4167   */\n      0x20\n        /* \"#utility.yul\":4155:4161   */\n      dup4\n        /* \"#utility.yul\":4151:4168   */\n      add\n        /* \"#utility.yul\":4139:4168   */\n      swap2\n      pop\n        /* \"#utility.yul\":4217:4220   */\n      dup4\n        /* \"#utility.yul\":4209:4213   */\n      0x01\n        /* \"#utility.yul\":4201:4207   */\n      dup3\n        /* \"#utility.yul\":4197:4214   */\n      mul\n        /* \"#utility.yul\":4187:4195   */\n      dup4\n        /* \"#utility.yul\":4183:4215   */\n      add\n        /* \"#utility.yul\":4180:4221   */\n      gt\n        /* \"#utility.yul\":4177:4305   */\n      iszero\n      tag_217\n      jumpi\n        /* \"#utility.yul\":4224:4303   */\n      tag_218\n      tag_128\n      jump\t// in\n    tag_218:\n        /* \"#utility.yul\":4177:4305   */\n    tag_217:\n        /* \"#utility.yul\":3758:4311   */\n      swap3\n      pop\n      swap3\n      swap1\n      pop\n      jump\t// out\n        /* \"#utility.yul\":4317:4439   */\n    tag_130:\n        /* \"#utility.yul\":4390:4414   */\n      tag_220\n        /* \"#utility.yul\":4408:4413   */\n      dup2\n        /* \"#utility.yul\":4390:4414   */\n      tag_112\n      jump\t// in\n    tag_220:\n        /* \"#utility.yul\":4383:4388   */\n      dup2\n        /* \"#utility.yul\":4380:4415   */\n      eq\n        /* \"#utility.yul\":4370:4433   */\n      tag_221\n      jumpi\n        /* \"#utility.yul\":4429:4430   */\n      0x00\n        /* \"#utility.yul\":4426:4427   */\n      dup1\n        /* \"#utility.yul\":4419:4431   */\n      revert\n        /* \"#utility.yul\":4370:4433   */\n    tag_221:\n        /* \"#utility.yul\":4317:4439   */\n      pop\n      jump\t// out\n        /* \"#utility.yul\":4445:4584   */\n    tag_131:\n        /* \"#utility.yul\":4491:4496   */\n      0x00\n        /* \"#utility.yul\":4529:4535   */\n      dup2\n        /* \"#utility.yul\":4516:4536   */\n      calldataload\n        /* \"#utility.yul\":4507:4536   */\n      swap1\n      pop\n        /* \"#utility.yul\":4545:4578   */\n      tag_223\n        /* \"#utility.yul\":4572:4577   */\n      dup2\n        /* \"#utility.yul\":4545:4578   */\n      tag_130\n      jump\t// in\n    tag_223:\n        /* \"#utility.yul\":4445:4584   */\n      swap3\n      swap2\n      pop\n      pop\n      jump\t// out\n        /* \"#utility.yul\":4590:5264   */\n    tag_27:\n        /* \"#utility.yul\":4670:4676   */\n      0x00\n        /* \"#utility.yul\":4678:4684   */\n      dup1\n        /* \"#utility.yul\":4686:4692   */\n      0x00\n        /* \"#utility.yul\":4735:4737   */\n      0x40\n        /* \"#utility.yul\":4723:4732   */\n      dup5\n        /* \"#utility.yul\":4714:4721   */\n      dup7\n        /* \"#utility.yul\":4710:4733   */\n      sub\n        /* \"#utility.yul\":4706:4738   */\n      slt\n        /* \"#utility.yul\":4703:4822   */\n      iszero\n      tag_225\n      jumpi\n        /* \"#utility.yul\":4741:4820   */\n      tag_226\n      tag_115\n      jump\t// in\n    tag_226:\n        /* \"#utility.yul\":4703:4822   */\n    tag_225:\n        /* \"#utility.yul\":4889:4890   */\n      0x00\n        /* \"#utility.yul\":4878:4887   */\n      dup5\n        /* \"#utility.yul\":4874:4891   */\n      add\n        /* \"#utility.yul\":4861:4892   */\n      calldataload\n        /* \"#utility.yul\":4919:4937   */\n      0xffffffffffffffff\n        /* \"#utility.yul\":4911:4917   */\n      dup2\n        /* \"#utility.yul\":4908:4938   */\n      gt\n        /* \"#utility.yul\":4905:5022   */\n      iszero\n      tag_227\n      jumpi\n        /* \"#utility.yul\":4941:5020   */\n      tag_228\n      tag_116\n      jump\t// in\n    tag_228:\n        /* \"#utility.yul\":4905:5022   */\n    tag_227:\n        /* \"#utility.yul\":5054:5119   */\n      tag_229\n        /* \"#utility.yul\":5111:5118   */\n      dup7\n        /* \"#utility.yul\":5102:5108   */\n      dup3\n        /* \"#utility.yul\":5091:5100   */\n      dup8\n        /* \"#utility.yul\":5087:5109   */\n      add\n        /* \"#utility.yul\":5054:5119   */\n      tag_129\n      jump\t// in\n    tag_229:\n        /* \"#utility.yul\":5036:5119   */\n      swap4\n      pop\n      swap4\n      pop\n        /* \"#utility.yul\":4832:5129   */\n      pop\n        /* \"#utility.yul\":5168:5170   */\n      0x20\n        /* \"#utility.yul\":5194:5247   */\n      tag_230\n        /* \"#utility.yul\":5239:5246   */\n      dup7\n        /* \"#utility.yul\":5230:5236   */\n      dup3\n        /* \"#utility.yul\":5219:5228   */\n      dup8\n        /* \"#utility.yul\":5215:5237   */\n      add\n        /* \"#utility.yul\":5194:5247   */\n      tag_131\n      jump\t// in\n    tag_230:\n        /* \"#utility.yul\":5184:5247   */\n      swap2\n      pop\n        /* \"#utility.yul\":5139:5257   */\n      pop\n        /* \"#utility.yul\":4590:5264   */\n      swap3\n      pop\n      swap3\n      pop\n      swap3\n      jump\t// out\n        /* \"#utility.yul\":5270:5599   */\n    tag_31:\n        /* \"#utility.yul\":5329:5335   */\n      0x00\n        /* \"#utility.yul\":5378:5380   */\n      0x20\n        /* \"#utility.yul\":5366:5375   */\n      dup3\n        /* \"#utility.yul\":5357:5364   */\n      dup5\n        /* \"#utility.yul\":5353:5376   */\n      sub\n        /* \"#utility.yul\":5349:5381   */\n      slt\n        /* \"#utility.yul\":5346:5465   */\n      iszero\n      tag_232\n      jumpi\n        /* \"#utility.yul\":5384:5463   */\n      tag_233\n      tag_115\n      jump\t// in\n    tag_233:\n        /* \"#utility.yul\":5346:5465   */\n    tag_232:\n        /* \"#utility.yul\":5504:5505   */\n      0x00\n        /* \"#utility.yul\":5529:5582   */\n      tag_234\n        /* \"#utility.yul\":5574:5581   */\n      dup5\n        /* \"#utility.yul\":5565:5571   */\n      dup3\n        /* \"#utility.yul\":5554:5563   */\n      dup6\n        /* \"#utility.yul\":5550:5572   */\n      add\n        /* \"#utility.yul\":5529:5582   */\n      tag_131\n      jump\t// in\n    tag_234:\n        /* \"#utility.yul\":5519:5582   */\n      swap2\n      pop\n        /* \"#utility.yul\":5475:5592   */\n      pop\n        /* \"#utility.yul\":5270:5599   */\n      swap3\n      swap2\n      pop\n      pop\n      jump\t// out\n        /* \"#utility.yul\":5605:5704   */\n    tag_132:\n        /* \"#utility.yul\":5657:5663   */\n      0x00\n        /* \"#utility.yul\":5691:5696   */\n      dup2\n        /* \"#utility.yul\":5685:5697   */\n      mload\n        /* \"#utility.yul\":5675:5697   */\n      swap1\n      pop\n        /* \"#utility.yul\":5605:5704   */\n      swap2\n      swap1\n      pop\n      jump\t// out\n        /* \"#utility.yul\":5710:5879   */\n    tag_133:\n        /* \"#utility.yul\":5794:5805   */\n      0x00\n        /* \"#utility.yul\":5828:5834   */\n      dup3\n        /* \"#utility.yul\":5823:5826   */\n      dup3\n        /* \"#utility.yul\":5816:5835   */\n      mstore\n        /* \"#utility.yul\":5868:5872   */\n      0x20\n        /* \"#utility.yul\":5863:5866   */\n      dup3\n        /* \"#utility.yul\":5859:5873   */\n      add\n        /* \"#utility.yul\":5844:5873   */\n      swap1\n      pop\n        /* \"#utility.yul\":5710:5879   */\n      swap3\n      swap2\n      pop\n      pop\n      jump\t// out\n        /* \"#utility.yul\":5885:6192   */\n    tag_134:\n        /* \"#utility.yul\":5953:5954   */\n      0x00\n        /* \"#utility.yul\":5963:6076   */\n    tag_238:\n        /* \"#utility.yul\":5977:5983   */\n      dup4\n        /* \"#utility.yul\":5974:5975   */\n      dup2\n        /* \"#utility.yul\":5971:5984   */\n      lt\n        /* \"#utility.yul\":5963:6076   */\n      iszero\n      tag_240\n      jumpi\n        /* \"#utility.yul\":6062:6063   */\n      dup1\n        /* \"#utility.yul\":6057:6060   */\n      dup3\n        /* \"#utility.yul\":6053:6064   */\n      add\n        /* \"#utility.yul\":6047:6065   */\n      mload\n        /* \"#utility.yul\":6043:6044   */\n      dup2\n        /* \"#utility.yul\":6038:6041   */\n      dup5\n        /* \"#utility.yul\":6034:6045   */\n      add\n        /* \"#utility.yul\":6027:6066   */\n      mstore\n        /* \"#utility.yul\":5999:6001   */\n      0x20\n        /* \"#utility.yul\":5996:5997   */\n      dup2\n        /* \"#utility.yul\":5992:6002   */\n      add\n        /* \"#utility.yul\":5987:6002   */\n      swap1\n      pop\n        /* \"#utility.yul\":5963:6076   */\n      jump(tag_238)\n    tag_240:\n        /* \"#utility.yul\":6094:6100   */\n      dup4\n        /* \"#utility.yul\":6091:6092   */\n      dup2\n        /* \"#utility.yul\":6088:6101   */\n      gt\n        /* \"#utility.yul\":6085:6186   */\n      iszero\n      tag_241\n      jumpi\n        /* \"#utility.yul\":6174:6175   */\n      0x00\n        /* \"#utility.yul\":6165:6171   */\n      dup5\n        /* \"#utility.yul\":6160:6163   */\n      dup5\n        /* \"#utility.yul\":6156:6172   */\n      add\n        /* \"#utility.yul\":6149:6176   */\n      mstore\n        /* \"#utility.yul\":6085:6186   */\n    tag_241:\n        /* \"#utility.yul\":5934:6192   */\n      pop\n        /* \"#utility.yul\":5885:6192   */\n      pop\n      pop\n      pop\n      jump\t// out\n        /* \"#utility.yul\":6198:6562   */\n    tag_135:\n        /* \"#utility.yul\":6286:6289   */\n      0x00\n        /* \"#utility.yul\":6314:6353   */\n      tag_243\n        /* \"#utility.yul\":6347:6352   */\n      dup3\n        /* \"#utility.yul\":6314:6353   */\n      tag_132\n      jump\t// in\n    tag_243:\n        /* \"#utility.yul\":6369:6440   */\n      tag_244\n        /* \"#utility.yul\":6433:6439   */\n      dup2\n        /* \"#utility.yul\":6428:6431   */\n      dup6\n        /* \"#utility.yul\":6369:6440   */\n      tag_133\n      jump\t// in\n    tag_244:\n        /* \"#utility.yul\":6362:6440   */\n      swap4\n      pop\n        /* \"#utility.yul\":6449:6501   */\n      tag_245\n        /* \"#utility.yul\":6494:6500   */\n      dup2\n        /* \"#utility.yul\":6489:6492   */\n      dup6\n        /* \"#utility.yul\":6482:6486   */\n      0x20\n        /* \"#utility.yul\":6475:6480   */\n      dup7\n        /* \"#utility.yul\":6471:6487   */\n      add\n        /* \"#utility.yul\":6449:6501   */\n      tag_134\n      jump\t// in\n    tag_245:\n        /* \"#utility.yul\":6526:6555   */\n      tag_246\n        /* \"#utility.yul\":6548:6554   */\n      dup2\n        /* \"#utility.yul\":6526:6555   */\n      tag_119\n      jump\t// in\n    tag_246:\n        /* \"#utility.yul\":6521:6524   */\n      dup5\n        /* \"#utility.yul\":6517:6556   */\n      add\n        /* \"#utility.yul\":6510:6556   */\n      swap2\n      pop\n        /* \"#utility.yul\":6290:6562   */\n      pop\n        /* \"#utility.yul\":6198:6562   */\n      swap3\n      swap2\n      pop\n      pop\n      jump\t// out\n        /* \"#utility.yul\":6568:6991   */\n    tag_34:\n        /* \"#utility.yul\":6709:6713   */\n      0x00\n        /* \"#utility.yul\":6747:6749   */\n      0x40\n        /* \"#utility.yul\":6736:6745   */\n      dup3\n        /* \"#utility.yul\":6732:6750   */\n      add\n        /* \"#utility.yul\":6724:6750   */\n      swap1\n      pop\n        /* \"#utility.yul\":6796:6805   */\n      dup2\n        /* \"#utility.yul\":6790:6794   */\n      dup2\n        /* \"#utility.yul\":6786:6806   */\n      sub\n        /* \"#utility.yul\":6782:6783   */\n      0x00\n        /* \"#utility.yul\":6771:6780   */\n      dup4\n        /* \"#utility.yul\":6767:6784   */\n      add\n        /* \"#utility.yul\":6760:6807   */\n      mstore\n        /* \"#utility.yul\":6824:6902   */\n      tag_248\n        /* \"#utility.yul\":6897:6901   */\n      dup2\n        /* \"#utility.yul\":6888:6894   */\n      dup6\n        /* \"#utility.yul\":6824:6902   */\n      tag_135\n      jump\t// in\n    tag_248:\n        /* \"#utility.yul\":6816:6902   */\n      swap1\n      pop\n        /* \"#utility.yul\":6912:6984   */\n      tag_249\n        /* \"#utility.yul\":6980:6982   */\n      0x20\n        /* \"#utility.yul\":6969:6978   */\n      dup4\n        /* \"#utility.yul\":6965:6983   */\n      add\n        /* \"#utility.yul\":6956:6962   */\n      dup5\n        /* \"#utility.yul\":6912:6984   */\n      tag_113\n      jump\t// in\n    tag_249:\n        /* \"#utility.yul\":6568:6991   */\n      swap4\n      swap3\n      pop\n      pop\n      pop\n      jump\t// out\n        /* \"#utility.yul\":6997:7123   */\n    tag_136:\n        /* \"#utility.yul\":7034:7041   */\n      0x00\n        /* \"#utility.yul\":7074:7116   */\n      0xffffffffffffffffffffffffffffffffffffffff\n        /* \"#utility.yul\":7067:7072   */\n      dup3\n        /* \"#utility.yul\":7063:7117   */\n      and\n        /* \"#utility.yul\":7052:7117   */\n      swap1\n      pop\n        /* \"#utility.yul\":6997:7123   */\n      swap2\n      swap1\n      pop\n      jump\t// out\n        /* \"#utility.yul\":7129:7225   */\n    tag_137:\n        /* \"#utility.yul\":7166:7173   */\n      0x00\n        /* \"#utility.yul\":7195:7219   */\n      tag_252\n        /* \"#utility.yul\":7213:7218   */\n      dup3\n        /* \"#utility.yul\":7195:7219   */\n      tag_136\n      jump\t// in\n    tag_252:\n        /* \"#utility.yul\":7184:7219   */\n      swap1\n      pop\n        /* \"#utility.yul\":7129:7225   */\n      swap2\n      swap1\n      pop\n      jump\t// out\n        /* \"#utility.yul\":7231:7349   */\n    tag_138:\n        /* \"#utility.yul\":7318:7342   */\n      tag_254\n        /* \"#utility.yul\":7336:7341   */\n      dup2\n        /* \"#utility.yul\":7318:7342   */\n      tag_137\n      jump\t// in\n    tag_254:\n        /* \"#utility.yul\":7313:7316   */\n      dup3\n        /* \"#utility.yul\":7306:7343   */\n      mstore\n        /* \"#utility.yul\":7231:7349   */\n      pop\n      pop\n      jump\t// out\n        /* \"#utility.yul\":7355:7577   */\n    tag_43:\n        /* \"#utility.yul\":7448:7452   */\n      0x00\n        /* \"#utility.yul\":7486:7488   */\n      0x20\n        /* \"#utility.yul\":7475:7484   */\n      dup3\n        /* \"#utility.yul\":7471:7489   */\n      add\n        /* \"#utility.yul\":7463:7489   */\n      swap1\n      pop\n        /* \"#utility.yul\":7499:7570   */\n      tag_256\n        /* \"#utility.yul\":7567:7568   */\n      0x00\n        /* \"#utility.yul\":7556:7565   */\n      dup4\n        /* \"#utility.yul\":7552:7569   */\n      add\n        /* \"#utility.yul\":7543:7549   */\n      dup5\n        /* \"#utility.yul\":7499:7570   */\n      tag_138\n      jump\t// in\n    tag_256:\n        /* \"#utility.yul\":7355:7577   */\n      swap3\n      swap2\n      pop\n      pop\n      jump\t// out\n        /* \"#utility.yul\":7583:7705   */\n    tag_139:\n        /* \"#utility.yul\":7656:7680   */\n      tag_258\n        /* \"#utility.yul\":7674:7679   */\n      dup2\n        /* \"#utility.yul\":7656:7680   */\n      tag_137\n      jump\t// in\n    tag_258:\n        /* \"#utility.yul\":7649:7654   */\n      dup2\n        /* \"#utility.yul\":7646:7681   */\n      eq\n        /* \"#utility.yul\":7636:7699   */\n      tag_259\n      jumpi\n        /* \"#utility.yul\":7695:7696   */\n      0x00\n        /* \"#utility.yul\":7692:7693   */\n      dup1\n        /* \"#utility.yul\":7685:7697   */\n      revert\n        /* \"#utility.yul\":7636:7699   */\n    tag_259:\n        /* \"#utility.yul\":7583:7705   */\n      pop\n      jump\t// out\n        /* \"#utility.yul\":7711:7850   */\n    tag_140:\n        /* \"#utility.yul\":7757:7762   */\n      0x00\n        /* \"#utility.yul\":7795:7801   */\n      dup2\n        /* \"#utility.yul\":7782:7802   */\n      calldataload\n        /* \"#utility.yul\":7773:7802   */\n      swap1\n      pop\n        /* \"#utility.yul\":7811:7844   */\n      tag_261\n        /* \"#utility.yul\":7838:7843   */\n      dup2\n        /* \"#utility.yul\":7811:7844   */\n      tag_139\n      jump\t// in\n    tag_261:\n        /* \"#utility.yul\":7711:7850   */\n      swap3\n      swap2\n      pop\n      pop\n      jump\t// out\n        /* \"#utility.yul\":7856:8185   */\n    tag_46:\n        /* \"#utility.yul\":7915:7921   */\n      0x00\n        /* \"#utility.yul\":7964:7966   */\n      0x20\n        /* \"#utility.yul\":7952:7961   */\n      dup3\n        /* \"#utility.yul\":7943:7950   */\n      dup5\n        /* \"#utility.yul\":7939:7962   */\n      sub\n        /* \"#utility.yul\":7935:7967   */\n      slt\n        /* \"#utility.yul\":7932:8051   */\n      iszero\n      tag_263\n      jumpi\n        /* \"#utility.yul\":7970:8049   */\n      tag_264\n      tag_115\n      jump\t// in\n    tag_264:\n        /* \"#utility.yul\":7932:8051   */\n    tag_263:\n        /* \"#utility.yul\":8090:8091   */\n      0x00\n        /* \"#utility.yul\":8115:8168   */\n      tag_265\n        /* \"#utility.yul\":8160:8167   */\n      dup5\n        /* \"#utility.yul\":8151:8157   */\n      dup3\n        /* \"#utility.yul\":8140:8149   */\n      dup6\n        /* \"#utility.yul\":8136:8158   */\n      add\n        /* \"#utility.yul\":8115:8168   */\n      tag_140\n      jump\t// in\n    tag_265:\n        /* \"#utility.yul\":8105:8168   */\n      swap2\n      pop\n        /* \"#utility.yul\":8061:8178   */\n      pop\n        /* \"#utility.yul\":7856:8185   */\n      swap3\n      swap2\n      pop\n      pop\n      jump\t// out\n        /* \"#utility.yul\":8191:8353   */\n    tag_141:\n        /* \"#utility.yul\":8331:8345   */\n      0x6e6f7420626f72726f776e670000000000000000000000000000000000000000\n        /* \"#utility.yul\":8327:8328   */\n      0x00\n        /* \"#utility.yul\":8319:8325   */\n      dup3\n        /* \"#utility.yul\":8315:8329   */\n      add\n        /* \"#utility.yul\":8308:8346   */\n      mstore\n        /* \"#utility.yul\":8191:8353   */\n      pop\n      jump\t// out\n        /* \"#utility.yul\":8359:8725   */\n    tag_142:\n        /* \"#utility.yul\":8501:8504   */\n      0x00\n        /* \"#utility.yul\":8522:8589   */\n      tag_268\n        /* \"#utility.yul\":8586:8588   */\n      0x0c\n        /* \"#utility.yul\":8581:8584   */\n      dup4\n        /* \"#utility.yul\":8522:8589   */\n      tag_133\n      jump\t// in\n    tag_268:\n        /* \"#utility.yul\":8515:8589   */\n      swap2\n      pop\n        /* \"#utility.yul\":8598:8691   */\n      tag_269\n        /* \"#utility.yul\":8687:8690   */\n      dup3\n        /* \"#utility.yul\":8598:8691   */\n      tag_141\n      jump\t// in\n    tag_269:\n        /* \"#utility.yul\":8716:8718   */\n      0x20\n        /* \"#utility.yul\":8711:8714   */\n      dup3\n        /* \"#utility.yul\":8707:8719   */\n      add\n        /* \"#utility.yul\":8700:8719   */\n      swap1\n      pop\n        /* \"#utility.yul\":8359:8725   */\n      swap2\n      swap1\n      pop\n      jump\t// out\n        /* \"#utility.yul\":8731:9150   */\n    tag_55:\n        /* \"#utility.yul\":8897:8901   */\n      0x00\n        /* \"#utility.yul\":8935:8937   */\n      0x20\n        /* \"#utility.yul\":8924:8933   */\n      dup3\n        /* \"#utility.yul\":8920:8938   */\n      add\n        /* \"#utility.yul\":8912:8938   */\n      swap1\n      pop\n        /* \"#utility.yul\":8984:8993   */\n      dup2\n        /* \"#utility.yul\":8978:8982   */\n      dup2\n        /* \"#utility.yul\":8974:8994   */\n      sub\n        /* \"#utility.yul\":8970:8971   */\n      0x00\n        /* \"#utility.yul\":8959:8968   */\n      dup4\n        /* \"#utility.yul\":8955:8972   */\n      add\n        /* \"#utility.yul\":8948:8995   */\n      mstore\n        /* \"#utility.yul\":9012:9143   */\n      tag_271\n        /* \"#utility.yul\":9138:9142   */\n      dup2\n        /* \"#utility.yul\":9012:9143   */\n      tag_142\n      jump\t// in\n    tag_271:\n        /* \"#utility.yul\":9004:9143   */\n      swap1\n      pop\n        /* \"#utility.yul\":8731:9150   */\n      swap2\n      swap1\n      pop\n      jump\t// out\n        /* \"#utility.yul\":9156:9336   */\n    tag_143:\n        /* \"#utility.yul\":9204:9281   */\n      0x4e487b7100000000000000000000000000000000000000000000000000000000\n        /* \"#utility.yul\":9201:9202   */\n      0x00\n        /* \"#utility.yul\":9194:9282   */\n      mstore\n        /* \"#utility.yul\":9301:9305   */\n      0x11\n        /* \"#utility.yul\":9298:9299   */\n      0x04\n        /* \"#utility.yul\":9291:9306   */\n      mstore\n        /* \"#utility.yul\":9325:9329   */\n      0x24\n        /* \"#utility.yul\":9322:9323   */\n      0x00\n        /* \"#utility.yul\":9315:9330   */\n      revert\n        /* \"#utility.yul\":9342:9575   */\n    tag_57:\n        /* \"#utility.yul\":9381:9384   */\n      0x00\n        /* \"#utility.yul\":9404:9428   */\n      tag_274\n        /* \"#utility.yul\":9422:9427   */\n      dup3\n        /* \"#utility.yul\":9404:9428   */\n      tag_112\n      jump\t// in\n    tag_274:\n        /* \"#utility.yul\":9395:9428   */\n      swap2\n      pop\n        /* \"#utility.yul\":9450:9516   */\n      0xffffffffffffffffffffffffffffffffffffffffffffffffffffffffffffffff\n        /* \"#utility.yul\":9443:9448   */\n      dup3\n        /* \"#utility.yul\":9440:9517   */\n      sub\n        /* \"#utility.yul\":9437:9540   */\n      tag_275\n      jumpi\n        /* \"#utility.yul\":9520:9538   */\n      tag_276\n      tag_143\n      jump\t// in\n    tag_276:\n        /* \"#utility.yul\":9437:9540   */\n    tag_275:\n        /* \"#utility.yul\":9567:9568   */\n      0x01\n        /* \"#utility.yul\":9560:9565   */\n      dup3\n        /* \"#utility.yul\":9556:9569   */\n      add\n        /* \"#utility.yul\":9549:9569   */\n      swap1\n      pop\n        /* \"#utility.yul\":9342:9575   */\n      swap2\n      swap1\n      pop\n      jump\t// out\n        /* \"#utility.yul\":9581:9729   */\n    tag_144:\n        /* \"#utility.yul\":9683:9694   */\n      0x00\n        /* \"#utility.yul\":9720:9723   */\n      dup2\n        /* \"#utility.yul\":9705:9723   */\n      swap1\n      pop\n        /* \"#utility.yul\":9581:9729   */\n      swap3\n      swap2\n      pop\n      pop\n      jump\t// out\n        /* \"#utility.yul\":9759:10076   */\n    tag_145:\n        /* \"#utility.yul\":9875:9878   */\n      0x00\n        /* \"#utility.yul\":9896:9985   */\n      tag_279\n        /* \"#utility.yul\":9978:9984   */\n      dup4\n        /* \"#utility.yul\":9973:9976   */\n      dup6\n        /* \"#utility.yul\":9896:9985   */\n      tag_144\n      jump\t// in\n    tag_279:\n        /* \"#utility.yul\":9889:9985   */\n      swap4\n      pop\n        /* \"#utility.yul\":9995:10038   */\n      tag_280\n        /* \"#utility.yul\":10031:10037   */\n      dup4\n        /* \"#utility.yul\":10026:10029   */\n      dup6\n        /* \"#utility.yul\":10019:10024   */\n      dup5\n        /* \"#utility.yul\":9995:10038   */\n      tag_124\n      jump\t// in\n    tag_280:\n        /* \"#utility.yul\":10063:10069   */\n      dup3\n        /* \"#utility.yul\":10058:10061   */\n      dup5\n        /* \"#utility.yul\":10054:10070   */\n      add\n        /* \"#utility.yul\":10047:10070   */\n      swap1\n      pop\n        /* \"#utility.yul\":9759:10076   */\n      swap4\n      swap3\n      pop\n      pop\n      pop\n      jump\t// out\n        /* \"#utility.yul\":10082:10377   */\n    tag_63:\n        /* \"#utility.yul\":10224:10227   */\n      0x00\n        /* \"#utility.yul\":10246:10351   */\n      tag_282\n        /* \"#utility.yul\":10347:10350   */\n      dup3\n        /* \"#utility.yul\":10338:10344   */\n      dup5\n        /* \"#utility.yul\":10330:10336   */\n      dup7\n        /* \"#utility.yul\":10246:10351   */\n      tag_145\n      jump\t// in\n    tag_282:\n        /* \"#utility.yul\":10239:10351   */\n      swap2\n      pop\n        /* \"#utility.yul\":10368:10371   */\n      dup2\n        /* \"#utility.yul\":10361:10371   */\n      swap1\n      pop\n        /* \"#utility.yul\":10082:10377   */\n      swap4\n      swap3\n      pop\n      pop\n      pop\n      jump\t// out\n        /* \"#utility.yul\":10383:10688   */\n    tag_67:\n        /* \"#utility.yul\":10423:10426   */\n      0x00\n        /* \"#utility.yul\":10442:10462   */\n      tag_284\n        /* \"#utility.yul\":10460:10461   */\n      dup3\n        /* \"#utility.yul\":10442:10462   */\n      tag_112\n      jump\t// in\n    tag_284:\n        /* \"#utility.yul\":10437:10462   */\n      swap2\n      pop\n        /* \"#utility.yul\":10476:10496   */\n      tag_285\n        /* \"#utility.yul\":10494:10495   */\n      dup4\n        /* \"#utility.yul\":10476:10496   */\n      tag_112\n      jump\t// in\n    tag_285:\n        /* \"#utility.yul\":10471:10496   */\n      swap3\n      pop\n        /* \"#utility.yul\":10630:10631   */\n      dup3\n        /* \"#utility.yul\":10562:10628   */\n      0xffffffffffffffffffffffffffffffffffffffffffffffffffffffffffffffff\n        /* \"#utility.yul\":10558:10632   */\n      sub\n        /* \"#utility.yul\":10555:10556   */\n      dup3\n        /* \"#utility.yul\":10552:10633   */\n      gt\n        /* \"#utility.yul\":10549:10656   */\n      iszero\n      tag_286\n      jumpi\n        /* \"#utility.yul\":10636:10654   */\n      tag_287\n      tag_143\n      jump\t// in\n    tag_287:\n        /* \"#utility.yul\":10549:10656   */\n    tag_286:\n        /* \"#utility.yul\":10680:10681   */\n      dup3\n        /* \"#utility.yul\":10677:10678   */\n      dup3\n        /* \"#utility.yul\":10673:10682   */\n      add\n        /* \"#utility.yul\":10666:10682   */\n      swap1\n      pop\n        /* \"#utility.yul\":10383:10688   */\n      swap3\n      swap2\n      pop\n      pop\n      jump\t// out\n        /* \"#utility.yul\":10718:11022   */\n    tag_146:\n        /* \"#utility.yul\":10816:10819   */\n      0x00\n        /* \"#utility.yul\":10837:10908   */\n      tag_289\n        /* \"#utility.yul\":10901:10907   */\n      dup4\n        /* \"#utility.yul\":10896:10899   */\n      dup6\n        /* \"#utility.yul\":10837:10908   */\n      tag_133\n      jump\t// in\n    tag_289:\n        /* \"#utility.yul\":10830:10908   */\n      swap4\n      pop\n        /* \"#utility.yul\":10918:10961   */\n      tag_290\n        /* \"#utility.yul\":10954:10960   */\n      dup4\n        /* \"#utility.yul\":10949:10952   */\n      dup6\n        /* \"#utility.yul\":10942:10947   */\n      dup5\n        /* \"#utility.yul\":10918:10961   */\n      tag_124\n      jump\t// in\n    tag_290:\n        /* \"#utility.yul\":10986:11015   */\n      tag_291\n        /* \"#utility.yul\":11008:11014   */\n      dup4\n        /* \"#utility.yul\":10986:11015   */\n      tag_119\n      jump\t// in\n    tag_291:\n        /* \"#utility.yul\":10981:10984   */\n      dup5\n        /* \"#utility.yul\":10977:11016   */\n      add\n        /* \"#utility.yul\":10970:11016   */\n      swap1\n      pop\n        /* \"#utility.yul\":10718:11022   */\n      swap4\n      swap3\n      pop\n      pop\n      pop\n      jump\t// out\n        /* \"#utility.yul\":11028:11471   */\n    tag_69:\n        /* \"#utility.yul\":11179:11183   */\n      0x00\n        /* \"#utility.yul\":11217:11219   */\n      0x40\n        /* \"#utility.yul\":11206:11215   */\n      dup3\n        /* \"#utility.yul\":11202:11220   */\n      add\n        /* \"#utility.yul\":11194:11220   */\n      swap1\n      pop\n        /* \"#utility.yul\":11266:11275   */\n      dup2\n        /* \"#utility.yul\":11260:11264   */\n      dup2\n        /* \"#utility.yul\":11256:11276   */\n      sub\n        /* \"#utility.yul\":11252:11253   */\n      0x00\n        /* \"#utility.yul\":11241:11250   */\n      dup4\n        /* \"#utility.yul\":11237:11254   */\n      add\n        /* \"#utility.yul\":11230:11277   */\n      mstore\n        /* \"#utility.yul\":11294:11382   */\n      tag_293\n        /* \"#utility.yul\":11377:11381   */\n      dup2\n        /* \"#utility.yul\":11368:11374   */\n      dup6\n        /* \"#utility.yul\":11360:11366   */\n      dup8\n        /* \"#utility.yul\":11294:11382   */\n      tag_146\n      jump\t// in\n    tag_293:\n        /* \"#utility.yul\":11286:11382   */\n      swap1\n      pop\n        /* \"#utility.yul\":11392:11464   */\n      tag_294\n        /* \"#utility.yul\":11460:11462   */\n      0x20\n        /* \"#utility.yul\":11449:11458   */\n      dup4\n        /* \"#utility.yul\":11445:11463   */\n      add\n        /* \"#utility.yul\":11436:11442   */\n      dup5\n        /* \"#utility.yul\":11392:11464   */\n      tag_113\n      jump\t// in\n    tag_294:\n        /* \"#utility.yul\":11028:11471   */\n      swap5\n      swap4\n      pop\n      pop\n      pop\n      pop\n      jump\t// out\n        /* \"#utility.yul\":11477:11657   */\n    tag_147:\n        /* \"#utility.yul\":11525:11602   */\n      0x4e487b7100000000000000000000000000000000000000000000000000000000\n        /* \"#utility.yul\":11522:11523   */\n      0x00\n        /* \"#utility.yul\":11515:11603   */\n      mstore\n        /* \"#utility.yul\":11622:11626   */\n      0x22\n        /* \"#utility.yul\":11619:11620   */\n      0x04\n        /* \"#utility.yul\":11612:11627   */\n      mstore\n        /* \"#utility.yul\":11646:11650   */\n      0x24\n        /* \"#utility.yul\":11643:11644   */\n      0x00\n        /* \"#utility.yul\":11636:11651   */\n      revert\n        /* \"#utility.yul\":11663:11983   */\n    tag_77:\n        /* \"#utility.yul\":11707:11713   */\n      0x00\n        /* \"#utility.yul\":11744:11745   */\n      0x02\n        /* \"#utility.yul\":11738:11742   */\n      dup3\n        /* \"#utility.yul\":11734:11746   */\n      div\n        /* \"#utility.yul\":11724:11746   */\n      swap1\n      pop\n        /* \"#utility.yul\":11791:11792   */\n      0x01\n        /* \"#utility.yul\":11785:11789   */\n      dup3\n        /* \"#utility.yul\":11781:11793   */\n      and\n        /* \"#utility.yul\":11812:11830   */\n      dup1\n        /* \"#utility.yul\":11802:11883   */\n      tag_297\n      jumpi\n        /* \"#utility.yul\":11868:11872   */\n      0x7f\n        /* \"#utility.yul\":11860:11866   */\n      dup3\n        /* \"#utility.yul\":11856:11873   */\n      and\n        /* \"#utility.yul\":11846:11873   */\n      swap2\n      pop\n        /* \"#utility.yul\":11802:11883   */\n    tag_297:\n        /* \"#utility.yul\":11930:11932   */\n      0x20\n        /* \"#utility.yul\":11922:11928   */\n      dup3\n        /* \"#utility.yul\":11919:11933   */\n      lt\n        /* \"#utility.yul\":11899:11917   */\n      dup2\n        /* \"#utility.yul\":11896:11934   */\n      sub\n        /* \"#utility.yul\":11893:11977   */\n      tag_298\n      jumpi\n        /* \"#utility.yul\":11949:11967   */\n      tag_299\n      tag_147\n      jump\t// in\n    tag_299:\n        /* \"#utility.yul\":11893:11977   */\n    tag_298:\n        /* \"#utility.yul\":11714:11983   */\n      pop\n        /* \"#utility.yul\":11663:11983   */\n      swap2\n      swap1\n      pop\n      jump\t// out\n        /* \"#utility.yul\":11989:12130   */\n    tag_148:\n        /* \"#utility.yul\":12038:12042   */\n      0x00\n        /* \"#utility.yul\":12061:12064   */\n      dup2\n        /* \"#utility.yul\":12053:12064   */\n      swap1\n      pop\n        /* \"#utility.yul\":12084:12087   */\n      dup2\n        /* \"#utility.yul\":12081:12082   */\n      0x00\n        /* \"#utility.yul\":12074:12088   */\n      mstore\n        /* \"#utility.yul\":12118:12122   */\n      0x20\n        /* \"#utility.yul\":12115:12116   */\n      0x00\n        /* \"#utility.yul\":12105:12123   */\n      keccak256\n        /* \"#utility.yul\":12097:12123   */\n      swap1\n      pop\n        /* \"#utility.yul\":11989:12130   */\n      swap2\n      swap1\n      pop\n      jump\t// out\n        /* \"#utility.yul\":12136:12229   */\n    tag_149:\n        /* \"#utility.yul\":12173:12179   */\n      0x00\n        /* \"#utility.yul\":12220:12222   */\n      0x20\n        /* \"#utility.yul\":12215:12217   */\n      0x1f\n        /* \"#utility.yul\":12208:12213   */\n      dup4\n        /* \"#utility.yul\":12204:12218   */\n      add\n        /* \"#utility.yul\":12200:12223   */\n      div\n        /* \"#utility.yul\":12190:12223   */\n      swap1\n      pop\n        /* \"#utility.yul\":12136:12229   */\n      swap2\n      swap1\n      pop\n      jump\t// out\n        /* \"#utility.yul\":12235:12342   */\n    tag_150:\n        /* \"#utility.yul\":12279:12287   */\n      0x00\n        /* \"#utility.yul\":12329:12334   */\n      dup3\n        /* \"#utility.yul\":12323:12327   */\n      dup3\n        /* \"#utility.yul\":12319:12335   */\n      shl\n        /* \"#utility.yul\":12298:12335   */\n      swap1\n      pop\n        /* \"#utility.yul\":12235:12342   */\n      swap3\n      swap2\n      pop\n      pop\n      jump\t// out\n        /* \"#utility.yul\":12348:12741   */\n    tag_151:\n        /* \"#utility.yul\":12417:12423   */\n      0x00\n        /* \"#utility.yul\":12467:12468   */\n      0x08\n        /* \"#utility.yul\":12455:12465   */\n      dup4\n        /* \"#utility.yul\":12451:12469   */\n      mul\n        /* \"#utility.yul\":12490:12587   */\n      tag_304\n        /* \"#utility.yul\":12520:12586   */\n      0xffffffffffffffffffffffffffffffffffffffffffffffffffffffffffffffff\n        /* \"#utility.yul\":12509:12518   */\n      dup3\n        /* \"#utility.yul\":12490:12587   */\n      tag_150\n      jump\t// in\n    tag_304:\n        /* \"#utility.yul\":12608:12647   */\n      tag_305\n        /* \"#utility.yul\":12638:12646   */\n      dup7\n        /* \"#utility.yul\":12627:12636   */\n      dup4\n        /* \"#utility.yul\":12608:12647   */\n      tag_150\n      jump\t// in\n    tag_305:\n        /* \"#utility.yul\":12596:12647   */\n      swap6\n      pop\n        /* \"#utility.yul\":12680:12684   */\n      dup1\n        /* \"#utility.yul\":12676:12685   */\n      not\n        /* \"#utility.yul\":12669:12674   */\n      dup5\n        /* \"#utility.yul\":12665:12686   */\n      and\n        /* \"#utility.yul\":12656:12686   */\n      swap4\n      pop\n        /* \"#utility.yul\":12729:12733   */\n      dup1\n        /* \"#utility.yul\":12719:12727   */\n      dup7\n        /* \"#utility.yul\":12715:12734   */\n      and\n        /* \"#utility.yul\":12708:12713   */\n      dup5\n        /* \"#utility.yul\":12705:12735   */\n      or\n        /* \"#utility.yul\":12695:12735   */\n      swap3\n      pop\n        /* \"#utility.yul\":12424:12741   */\n      pop\n      pop\n        /* \"#utility.yul\":12348:12741   */\n      swap4\n      swap3\n      pop\n      pop\n      pop\n      jump\t// out\n        /* \"#utility.yul\":12747:12807   */\n    tag_152:\n        /* \"#utility.yul\":12775:12778   */\n      0x00\n        /* \"#utility.yul\":12796:12801   */\n      dup2\n        /* \"#utility.yul\":12789:12801   */\n      swap1\n      pop\n        /* \"#utility.yul\":12747:12807   */\n      swap2\n      swap1\n      pop\n      jump\t// out\n        /* \"#utility.yul\":12813:12955   */\n    tag_153:\n        /* \"#utility.yul\":12863:12872   */\n      0x00\n        /* \"#utility.yul\":12896:12949   */\n      tag_308\n        /* \"#utility.yul\":12914:12948   */\n      tag_309\n        /* \"#utility.yul\":12923:12947   */\n      tag_310\n        /* \"#utility.yul\":12941:12946   */\n      dup5\n        /* \"#utility.yul\":12923:12947   */\n      tag_112\n      jump\t// in\n    tag_310:\n        /* \"#utility.yul\":12914:12948   */\n      tag_152\n      jump\t// in\n    tag_309:\n        /* \"#utility.yul\":12896:12949   */\n      tag_112\n      jump\t// in\n    tag_308:\n        /* \"#utility.yul\":12883:12949   */\n      swap1\n      pop\n        /* \"#utility.yul\":12813:12955   */\n      swap2\n      swap1\n      pop\n      jump\t// out\n        /* \"#utility.yul\":12961:13036   */\n    tag_154:\n        /* \"#utility.yul\":13004:13007   */\n      0x00\n        /* \"#utility.yul\":13025:13030   */\n      dup2\n        /* \"#utility.yul\":13018:13030   */\n      swap1\n      pop\n        /* \"#utility.yul\":12961:13036   */\n      swap2\n      swap1\n      pop\n      jump\t// out\n        /* \"#utility.yul\":13042:13311   */\n    tag_155:\n        /* \"#utility.yul\":13152:13191   */\n      tag_313\n        /* \"#utility.yul\":13183:13190   */\n      dup4\n        /* \"#utility.yul\":13152:13191   */\n      tag_153\n      jump\t// in\n    tag_313:\n        /* \"#utility.yul\":13213:13304   */\n      tag_314\n        /* \"#utility.yul\":13262:13303   */\n      tag_315\n        /* \"#utility.yul\":13286:13302   */\n      dup3\n        /* \"#utility.yul\":13262:13303   */\n      tag_154\n      jump\t// in\n    tag_315:\n        /* \"#utility.yul\":13254:13260   */\n      dup5\n        /* \"#utility.yul\":13247:13251   */\n      dup5\n        /* \"#utility.yul\":13241:13252   */\n      sload\n        /* \"#utility.yul\":13213:13304   */\n      tag_151\n      jump\t// in\n    tag_314:\n        /* \"#utility.yul\":13207:13211   */\n      dup3\n        /* \"#utility.yul\":13200:13305   */\n      sstore\n        /* \"#utility.yul\":13118:13311   */\n      pop\n        /* \"#utility.yul\":13042:13311   */\n      pop\n      pop\n      pop\n      jump\t// out\n        /* \"#utility.yul\":13317:13390   */\n    tag_156:\n        /* \"#utility.yul\":13362:13365   */\n      0x00\n        /* \"#utility.yul\":13317:13390   */\n      swap1\n      jump\t// out\n        /* \"#utility.yul\":13396:13585   */\n    tag_157:\n        /* \"#utility.yul\":13473:13505   */\n      tag_318\n      tag_156\n      jump\t// in\n    tag_318:\n        /* \"#utility.yul\":13514:13579   */\n      tag_319\n        /* \"#utility.yul\":13572:13578   */\n      dup2\n        /* \"#utility.yul\":13564:13570   */\n      dup5\n        /* \"#utility.yul\":13558:13562   */\n      dup5\n        /* \"#utility.yul\":13514:13579   */\n      tag_155\n      jump\t// in\n    tag_319:\n        /* \"#utility.yul\":13449:13585   */\n      pop\n        /* \"#utility.yul\":13396:13585   */\n      pop\n      pop\n      jump\t// out\n        /* \"#utility.yul\":13591:13777   */\n    tag_158:\n        /* \"#utility.yul\":13651:13771   */\n    tag_321:\n        /* \"#utility.yul\":13668:13671   */\n      dup2\n        /* \"#utility.yul\":13661:13666   */\n      dup2\n        /* \"#utility.yul\":13658:13672   */\n      lt\n        /* \"#utility.yul\":13651:13771   */\n      iszero\n      tag_323\n      jumpi\n        /* \"#utility.yul\":13722:13761   */\n      tag_324\n        /* \"#utility.yul\":13759:13760   */\n      0x00\n        /* \"#utility.yul\":13752:13757   */\n      dup3\n        /* \"#utility.yul\":13722:13761   */\n      tag_157\n      jump\t// in\n    tag_324:\n        /* \"#utility.yul\":13695:13696   */\n      0x01\n        /* \"#utility.yul\":13688:13693   */\n      dup2\n        /* \"#utility.yul\":13684:13697   */\n      add\n        /* \"#utility.yul\":13675:13697   */\n      swap1\n      pop\n        /* \"#utility.yul\":13651:13771   */\n      jump(tag_321)\n    tag_323:\n        /* \"#utility.yul\":13591:13777   */\n      pop\n      pop\n      jump\t// out\n        /* \"#utility.yul\":13783:14326   */\n    tag_159:\n        /* \"#utility.yul\":13884:13886   */\n      0x1f\n        /* \"#utility.yul\":13879:13882   */\n      dup3\n        /* \"#utility.yul\":13876:13887   */\n      gt\n        /* \"#utility.yul\":13873:14319   */\n      iszero\n      tag_326\n      jumpi\n        /* \"#utility.yul\":13918:13956   */\n      tag_327\n        /* \"#utility.yul\":13950:13955   */\n      dup2\n        /* \"#utility.yul\":13918:13956   */\n      tag_148\n      jump\t// in\n    tag_327:\n        /* \"#utility.yul\":14002:14031   */\n      tag_328\n        /* \"#utility.yul\":14020:14030   */\n      dup5\n        /* \"#utility.yul\":14002:14031   */\n      tag_149\n      jump\t// in\n    tag_328:\n        /* \"#utility.yul\":13992:14000   */\n      dup2\n        /* \"#utility.yul\":13988:14032   */\n      add\n        /* \"#utility.yul\":14185:14187   */\n      0x20\n        /* \"#utility.yul\":14173:14183   */\n      dup6\n        /* \"#utility.yul\":14170:14188   */\n      lt\n        /* \"#utility.yul\":14167:14216   */\n      iszero\n      tag_329\n      jumpi\n        /* \"#utility.yul\":14206:14214   */\n      dup2\n        /* \"#utility.yul\":14191:14214   */\n      swap1\n      pop\n        /* \"#utility.yul\":14167:14216   */\n    tag_329:\n        /* \"#utility.yul\":14229:14309   */\n      tag_330\n        /* \"#utility.yul\":14285:14307   */\n      tag_331\n        /* \"#utility.yul\":14303:14306   */\n      dup6\n        /* \"#utility.yul\":14285:14307   */\n      tag_149\n      jump\t// in\n    tag_331:\n        /* \"#utility.yul\":14275:14283   */\n      dup4\n        /* \"#utility.yul\":14271:14308   */\n      add\n        /* \"#utility.yul\":14258:14269   */\n      dup3\n        /* \"#utility.yul\":14229:14309   */\n      tag_158\n      jump\t// in\n    tag_330:\n        /* \"#utility.yul\":13888:14319   */\n      pop\n      pop\n        /* \"#utility.yul\":13873:14319   */\n    tag_326:\n        /* \"#utility.yul\":13783:14326   */\n      pop\n      pop\n      pop\n      jump\t// out\n        /* \"#utility.yul\":14332:14449   */\n    tag_160:\n        /* \"#utility.yul\":14386:14394   */\n      0x00\n        /* \"#utility.yul\":14436:14441   */\n      dup3\n        /* \"#utility.yul\":14430:14434   */\n      dup3\n        /* \"#utility.yul\":14426:14442   */\n      shr\n        /* \"#utility.yul\":14405:14442   */\n      swap1\n      pop\n        /* \"#utility.yul\":14332:14449   */\n      swap3\n      swap2\n      pop\n      pop\n      jump\t// out\n        /* \"#utility.yul\":14455:14624   */\n    tag_161:\n        /* \"#utility.yul\":14499:14505   */\n      0x00\n        /* \"#utility.yul\":14532:14583   */\n      tag_334\n        /* \"#utility.yul\":14580:14581   */\n      0x00\n        /* \"#utility.yul\":14576:14582   */\n      not\n        /* \"#utility.yul\":14568:14573   */\n      dup5\n        /* \"#utility.yul\":14565:14566   */\n      0x08\n        /* \"#utility.yul\":14561:14574   */\n      mul\n        /* \"#utility.yul\":14532:14583   */\n      tag_160\n      jump\t// in\n    tag_334:\n        /* \"#utility.yul\":14528:14584   */\n      not\n        /* \"#utility.yul\":14613:14617   */\n      dup1\n        /* \"#utility.yul\":14607:14611   */\n      dup4\n        /* \"#utility.yul\":14603:14618   */\n      and\n        /* \"#utility.yul\":14593:14618   */\n      swap2\n      pop\n        /* \"#utility.yul\":14506:14624   */\n      pop\n        /* \"#utility.yul\":14455:14624   */\n      swap3\n      swap2\n      pop\n      pop\n      jump\t// out\n        /* \"#utility.yul\":14629:14924   */\n    tag_162:\n        /* \"#utility.yul\":14705:14709   */\n      0x00\n        /* \"#utility.yul\":14851:14880   */\n      tag_336\n        /* \"#utility.yul\":14876:14879   */\n      dup4\n        /* \"#utility.yul\":14870:14874   */\n      dup4\n        /* \"#utility.yul\":14851:14880   */\n      tag_161\n      jump\t// in\n    tag_336:\n        /* \"#utility.yul\":14843:14880   */\n      swap2\n      pop\n        /* \"#utility.yul\":14913:14916   */\n      dup3\n        /* \"#utility.yul\":14910:14911   */\n      0x02\n        /* \"#utility.yul\":14906:14917   */\n      mul\n        /* \"#utility.yul\":14900:14904   */\n      dup3\n        /* \"#utility.yul\":14897:14918   */\n      or\n        /* \"#utility.yul\":14889:14918   */\n      swap1\n      pop\n        /* \"#utility.yul\":14629:14924   */\n      swap3\n      swap2\n      pop\n      pop\n      jump\t// out\n        /* \"#utility.yul\":14929:16324   */\n    tag_73:\n        /* \"#utility.yul\":15046:15083   */\n      tag_338\n        /* \"#utility.yul\":15079:15082   */\n      dup3\n        /* \"#utility.yul\":15046:15083   */\n      tag_132\n      jump\t// in\n    tag_338:\n        /* \"#utility.yul\":15148:15166   */\n      0xffffffffffffffff\n        /* \"#utility.yul\":15140:15146   */\n      dup2\n        /* \"#utility.yul\":15137:15167   */\n      gt\n        /* \"#utility.yul\":15134:15190   */\n      iszero\n      tag_339\n      jumpi\n        /* \"#utility.yul\":15170:15188   */\n      tag_340\n      tag_120\n      jump\t// in\n    tag_340:\n        /* \"#utility.yul\":15134:15190   */\n    tag_339:\n        /* \"#utility.yul\":15214:15252   */\n      tag_341\n        /* \"#utility.yul\":15246:15250   */\n      dup3\n        /* \"#utility.yul\":15240:15251   */\n      sload\n        /* \"#utility.yul\":15214:15252   */\n      tag_77\n      jump\t// in\n    tag_341:\n        /* \"#utility.yul\":15299:15366   */\n      tag_342\n        /* \"#utility.yul\":15359:15365   */\n      dup3\n        /* \"#utility.yul\":15351:15357   */\n      dup3\n        /* \"#utility.yul\":15345:15349   */\n      dup6\n        /* \"#utility.yul\":15299:15366   */\n      tag_159\n      jump\t// in\n    tag_342:\n        /* \"#utility.yul\":15393:15394   */\n      0x00\n        /* \"#utility.yul\":15417:15421   */\n      0x20\n        /* \"#utility.yul\":15404:15421   */\n      swap1\n      pop\n        /* \"#utility.yul\":15449:15451   */\n      0x1f\n        /* \"#utility.yul\":15441:15447   */\n      dup4\n        /* \"#utility.yul\":15438:15452   */\n      gt\n        /* \"#utility.yul\":15466:15467   */\n      0x01\n        /* \"#utility.yul\":15461:16079   */\n      dup2\n      eq\n      tag_344\n      jumpi\n        /* \"#utility.yul\":16123:16124   */\n      0x00\n        /* \"#utility.yul\":16140:16146   */\n      dup5\n        /* \"#utility.yul\":16137:16214   */\n      iszero\n      tag_345\n      jumpi\n        /* \"#utility.yul\":16189:16198   */\n      dup3\n        /* \"#utility.yul\":16184:16187   */\n      dup8\n        /* \"#utility.yul\":16180:16199   */\n      add\n        /* \"#utility.yul\":16174:16200   */\n      mload\n        /* \"#utility.yul\":16165:16200   */\n      swap1\n      pop\n        /* \"#utility.yul\":16137:16214   */\n    tag_345:\n        /* \"#utility.yul\":16240:16307   */\n      tag_346\n        /* \"#utility.yul\":16300:16306   */\n      dup6\n        /* \"#utility.yul\":16293:16298   */\n      dup3\n        /* \"#utility.yul\":16240:16307   */\n      tag_162\n      jump\t// in\n    tag_346:\n        /* \"#utility.yul\":16234:16238   */\n      dup7\n        /* \"#utility.yul\":16227:16308   */\n      sstore\n        /* \"#utility.yul\":16096:16318   */\n      pop\n        /* \"#utility.yul\":15431:16318   */\n      jump(tag_343)\n        /* \"#utility.yul\":15461:16079   */\n    tag_344:\n        /* \"#utility.yul\":15513:15517   */\n      0x1f\n        /* \"#utility.yul\":15509:15518   */\n      not\n        /* \"#utility.yul\":15501:15507   */\n      dup5\n        /* \"#utility.yul\":15497:15519   */\n      and\n        /* \"#utility.yul\":15547:15584   */\n      tag_347\n        /* \"#utility.yul\":15579:15583   */\n      dup7\n        /* \"#utility.yul\":15547:15584   */\n      tag_148\n      jump\t// in\n    tag_347:\n        /* \"#utility.yul\":15606:15607   */\n      0x00\n        /* \"#utility.yul\":15620:15828   */\n    tag_348:\n        /* \"#utility.yul\":15634:15641   */\n      dup3\n        /* \"#utility.yul\":15631:15632   */\n      dup2\n        /* \"#utility.yul\":15628:15642   */\n      lt\n        /* \"#utility.yul\":15620:15828   */\n      iszero\n      tag_350\n      jumpi\n        /* \"#utility.yul\":15713:15722   */\n      dup5\n        /* \"#utility.yul\":15708:15711   */\n      dup10\n        /* \"#utility.yul\":15704:15723   */\n      add\n        /* \"#utility.yul\":15698:15724   */\n      mload\n        /* \"#utility.yul\":15690:15696   */\n      dup3\n        /* \"#utility.yul\":15683:15725   */\n      sstore\n        /* \"#utility.yul\":15764:15765   */\n      0x01\n        /* \"#utility.yul\":15756:15762   */\n      dup3\n        /* \"#utility.yul\":15752:15766   */\n      add\n        /* \"#utility.yul\":15742:15766   */\n      swap2\n      pop\n        /* \"#utility.yul\":15811:15813   */\n      0x20\n        /* \"#utility.yul\":15800:15809   */\n      dup6\n        /* \"#utility.yul\":15796:15814   */\n      add\n        /* \"#utility.yul\":15783:15814   */\n      swap5\n      pop\n        /* \"#utility.yul\":15657:15661   */\n      0x20\n        /* \"#utility.yul\":15654:15655   */\n      dup2\n        /* \"#utility.yul\":15650:15662   */\n      add\n        /* \"#utility.yul\":15645:15662   */\n      swap1\n      pop\n        /* \"#utility.yul\":15620:15828   */\n      jump(tag_348)\n    tag_350:\n        /* \"#utility.yul\":15856:15862   */\n      dup7\n        /* \"#utility.yul\":15847:15854   */\n      dup4\n        /* \"#utility.yul\":15844:15863   */\n      lt\n        /* \"#utility.yul\":15841:16020   */\n      iszero\n      tag_351\n      jumpi\n        /* \"#utility.yul\":15914:15923   */\n      dup5\n        /* \"#utility.yul\":15909:15912   */\n      dup10\n        /* \"#utility.yul\":15905:15924   */\n      add\n        /* \"#utility.yul\":15899:15925   */\n      mload\n        /* \"#utility.yul\":15957:16005   */\n      tag_352\n        /* \"#utility.yul\":15999:16003   */\n      0x1f\n        /* \"#utility.yul\":15991:15997   */\n      dup10\n        /* \"#utility.yul\":15987:16004   */\n      and\n        /* \"#utility.yul\":15976:15985   */\n      dup3\n        /* \"#utility.yul\":15957:16005   */\n      tag_161\n      jump\t// in\n    tag_352:\n        /* \"#utility.yul\":15949:15955   */\n      dup4\n        /* \"#utility.yul\":15942:16006   */\n      sstore\n        /* \"#utility.yul\":15864:16020   */\n      pop\n        /* \"#utility.yul\":15841:16020   */\n    tag_351:\n        /* \"#utility.yul\":16066:16067   */\n      0x01\n        /* \"#utility.yul\":16062:16063   */\n      0x02\n        /* \"#utility.yul\":16054:16060   */\n      dup9\n        /* \"#utility.yul\":16050:16064   */\n      mul\n        /* \"#utility.yul\":16046:16068   */\n      add\n        /* \"#utility.yul\":16040:16044   */\n      dup9\n        /* \"#utility.yul\":16033:16069   */\n      sstore\n        /* \"#utility.yul\":15468:16079   */\n      pop\n      pop\n      pop\n        /* \"#utility.yul\":15431:16318   */\n    tag_343:\n      pop\n        /* \"#utility.yul\":15021:16324   */\n      pop\n      pop\n      pop\n        /* \"#utility.yul\":14929:16324   */\n      pop\n      pop\n      jump\t// out\n        /* \"#utility.yul\":16330:16495   */\n    tag_163:\n        /* \"#utility.yul\":16470:16487   */\n      0x7a65726f20626f6f6b73206c6566740000000000000000000000000000000000\n        /* \"#utility.yul\":16466:16467   */\n      0x00\n        /* \"#utility.yul\":16458:16464   */\n      dup3\n        /* \"#utility.yul\":16454:16468   */\n      add\n        /* \"#utility.yul\":16447:16488   */\n      mstore\n        /* \"#utility.yul\":16330:16495   */\n      pop\n      jump\t// out\n        /* \"#utility.yul\":16501:16867   */\n    tag_164:\n        /* \"#utility.yul\":16643:16646   */\n      0x00\n        /* \"#utility.yul\":16664:16731   */\n      tag_355\n        /* \"#utility.yul\":16728:16730   */\n      0x0f\n        /* \"#utility.yul\":16723:16726   */\n      dup4\n        /* \"#utility.yul\":16664:16731   */\n      tag_133\n      jump\t// in\n    tag_355:\n        /* \"#utility.yul\":16657:16731   */\n      swap2\n      pop\n        /* \"#utility.yul\":16740:16833   */\n      tag_356\n        /* \"#utility.yul\":16829:16832   */\n      dup3\n        /* \"#utility.yul\":16740:16833   */\n      tag_163\n      jump\t// in\n    tag_356:\n        /* \"#utility.yul\":16858:16860   */\n      0x20\n        /* \"#utility.yul\":16853:16856   */\n      dup3\n        /* \"#utility.yul\":16849:16861   */\n      add\n        /* \"#utility.yul\":16842:16861   */\n      swap1\n      pop\n        /* \"#utility.yul\":16501:16867   */\n      swap2\n      swap1\n      pop\n      jump\t// out\n        /* \"#utility.yul\":16873:17292   */\n    tag_92:\n        /* \"#utility.yul\":17039:17043   */\n      0x00\n        /* \"#utility.yul\":17077:17079   */\n      0x20\n        /* \"#utility.yul\":17066:17075   */\n      dup3\n        /* \"#utility.yul\":17062:17080   */\n      add\n        /* \"#utility.yul\":17054:17080   */\n      swap1\n      pop\n        /* \"#utility.yul\":17126:17135   */\n      dup2\n        /* \"#utility.yul\":17120:17124   */\n      dup2\n        /* \"#utility.yul\":17116:17136   */\n      sub\n        /* \"#utility.yul\":17112:17113   */\n      0x00\n        /* \"#utility.yul\":17101:17110   */\n      dup4\n        /* \"#utility.yul\":17097:17114   */\n      add\n        /* \"#utility.yul\":17090:17137   */\n      mstore\n        /* \"#utility.yul\":17154:17285   */\n      tag_358\n        /* \"#utility.yul\":17280:17284   */\n      dup2\n        /* \"#utility.yul\":17154:17285   */\n      tag_164\n      jump\t// in\n    tag_358:\n        /* \"#utility.yul\":17146:17285   */\n      swap1\n      pop\n        /* \"#utility.yul\":16873:17292   */\n      swap2\n      swap1\n      pop\n      jump\t// out\n        /* \"#utility.yul\":17298:17469   */\n    tag_94:\n        /* \"#utility.yul\":17337:17340   */\n      0x00\n        /* \"#utility.yul\":17360:17384   */\n      tag_360\n        /* \"#utility.yul\":17378:17383   */\n      dup3\n        /* \"#utility.yul\":17360:17384   */\n      tag_112\n      jump\t// in\n    tag_360:\n        /* \"#utility.yul\":17351:17384   */\n      swap2\n      pop\n        /* \"#utility.yul\":17406:17410   */\n      0x00\n        /* \"#utility.yul\":17399:17404   */\n      dup3\n        /* \"#utility.yul\":17396:17411   */\n      sub\n        /* \"#utility.yul\":17393:17434   */\n      tag_361\n      jumpi\n        /* \"#utility.yul\":17414:17432   */\n      tag_362\n      tag_143\n      jump\t// in\n    tag_362:\n        /* \"#utility.yul\":17393:17434   */\n    tag_361:\n        /* \"#utility.yul\":17461:17462   */\n      0x01\n        /* \"#utility.yul\":17454:17459   */\n      dup3\n        /* \"#utility.yul\":17450:17463   */\n      sub\n        /* \"#utility.yul\":17443:17463   */\n      swap1\n      pop\n        /* \"#utility.yul\":17298:17469   */\n      swap2\n      swap1\n      pop\n      jump\t// out\n        /* \"#utility.yul\":17475:17700   */\n    tag_165:\n        /* \"#utility.yul\":17615:17649   */\n      0x4f776e61626c653a206e6577206f776e657220697320746865207a65726f2061\n        /* \"#utility.yul\":17611:17612   */\n      0x00\n        /* \"#utility.yul\":17603:17609   */\n      dup3\n        /* \"#utility.yul\":17599:17613   */\n      add\n        /* \"#utility.yul\":17592:17650   */\n      mstore\n        /* \"#utility.yul\":17684:17692   */\n      0x6464726573730000000000000000000000000000000000000000000000000000\n        /* \"#utility.yul\":17679:17681   */\n      0x20\n        /* \"#utility.yul\":17671:17677   */\n      dup3\n        /* \"#utility.yul\":17667:17682   */\n      add\n        /* \"#utility.yul\":17660:17693   */\n      mstore\n        /* \"#utility.yul\":17475:17700   */\n      pop\n      jump\t// out\n        /* \"#utility.yul\":17706:18072   */\n    tag_166:\n        /* \"#utility.yul\":17848:17851   */\n      0x00\n        /* \"#utility.yul\":17869:17936   */\n      tag_365\n        /* \"#utility.yul\":17933:17935   */\n      0x26\n        /* \"#utility.yul\":17928:17931   */\n      dup4\n        /* \"#utility.yul\":17869:17936   */\n      tag_133\n      jump\t// in\n    tag_365:\n        /* \"#utility.yul\":17862:17936   */\n      swap2\n      pop\n        /* \"#utility.yul\":17945:18038   */\n      tag_366\n        /* \"#utility.yul\":18034:18037   */\n      dup3\n        /* \"#utility.yul\":17945:18038   */\n      tag_165\n      jump\t// in\n    tag_366:\n        /* \"#utility.yul\":18063:18065   */\n      0x40\n        /* \"#utility.yul\":18058:18061   */\n      dup3\n        /* \"#utility.yul\":18054:18066   */\n      add\n        /* \"#utility.yul\":18047:18066   */\n      swap1\n      pop\n        /* \"#utility.yul\":17706:18072   */\n      swap2\n      swap1\n      pop\n      jump\t// out\n        /* \"#utility.yul\":18078:18497   */\n    tag_101:\n        /* \"#utility.yul\":18244:18248   */\n      0x00\n        /* \"#utility.yul\":18282:18284   */\n      0x20\n        /* \"#utility.yul\":18271:18280   */\n      dup3\n        /* \"#utility.yul\":18267:18285   */\n      add\n        /* \"#utility.yul\":18259:18285   */\n      swap1\n      pop\n        /* \"#utility.yul\":18331:18340   */\n      dup2\n        /* \"#utility.yul\":18325:18329   */\n      dup2\n        /* \"#utility.yul\":18321:18341   */\n      sub\n        /* \"#utility.yul\":18317:18318   */\n      0x00\n        /* \"#utility.yul\":18306:18315   */\n      dup4\n        /* \"#utility.yul\":18302:18319   */\n      add\n        /* \"#utility.yul\":18295:18342   */\n      mstore\n        /* \"#utility.yul\":18359:18490   */\n      tag_368\n        /* \"#utility.yul\":18485:18489   */\n      dup2\n        /* \"#utility.yul\":18359:18490   */\n      tag_166\n      jump\t// in\n    tag_368:\n        /* \"#utility.yul\":18351:18490   */\n      swap1\n      pop\n        /* \"#utility.yul\":18078:18497   */\n      swap2\n      swap1\n      pop\n      jump\t// out\n        /* \"#utility.yul\":18503:18685   */\n    tag_167:\n        /* \"#utility.yul\":18643:18677   */\n      0x4f776e61626c653a2063616c6c6572206973206e6f7420746865206f776e6572\n        /* \"#utility.yul\":18639:18640   */\n      0x00\n        /* \"#utility.yul\":18631:18637   */\n      dup3\n        /* \"#utility.yul\":18627:18641   */\n      add\n        /* \"#utility.yul\":18620:18678   */\n      mstore\n        /* \"#utility.yul\":18503:18685   */\n      pop\n      jump\t// out\n        /* \"#utility.yul\":18691:19057   */\n    tag_168:\n        /* \"#utility.yul\":18833:18836   */\n      0x00\n        /* \"#utility.yul\":18854:18921   */\n      tag_371\n        /* \"#utility.yul\":18918:18920   */\n      0x20\n        /* \"#utility.yul\":18913:18916   */\n      dup4\n        /* \"#utility.yul\":18854:18921   */\n      tag_133\n      jump\t// in\n    tag_371:\n        /* \"#utility.yul\":18847:18921   */\n      swap2\n      pop\n        /* \"#utility.yul\":18930:19023   */\n      tag_372\n        /* \"#utility.yul\":19019:19022   */\n      dup3\n        /* \"#utility.yul\":18930:19023   */\n      tag_167\n      jump\t// in\n    tag_372:\n        /* \"#utility.yul\":19048:19050   */\n      0x20\n        /* \"#utility.yul\":19043:19046   */\n      dup3\n        /* \"#utility.yul\":19039:19051   */\n      add\n        /* \"#utility.yul\":19032:19051   */\n      swap1\n      pop\n        /* \"#utility.yul\":18691:19057   */\n      swap2\n      swap1\n      pop\n      jump\t// out\n        /* \"#utility.yul\":19063:19482   */\n    tag_109:\n        /* \"#utility.yul\":19229:19233   */\n      0x00\n        /* \"#utility.yul\":19267:19269   */\n      0x20\n        /* \"#utility.yul\":19256:19265   */\n      dup3\n        /* \"#utility.yul\":19252:19270   */\n      add\n        /* \"#utility.yul\":19244:19270   */\n      swap1\n      pop\n        /* \"#utility.yul\":19316:19325   */\n      dup2\n        /* \"#utility.yul\":19310:19314   */\n      dup2\n        /* \"#utility.yul\":19306:19326   */\n      sub\n        /* \"#utility.yul\":19302:19303   */\n      0x00\n        /* \"#utility.yul\":19291:19300   */\n      dup4\n        /* \"#utility.yul\":19287:19304   */\n      add\n        /* \"#utility.yul\":19280:19327   */\n      mstore\n        /* \"#utility.yul\":19344:19475   */\n      tag_374\n        /* \"#utility.yul\":19470:19474   */\n      dup2\n        /* \"#utility.yul\":19344:19475   */\n      tag_168\n      jump\t// in\n    tag_374:\n        /* \"#utility.yul\":19336:19475   */\n      swap1\n      pop\n        /* \"#utility.yul\":19063:19482   */\n      swap2\n      swap1\n      pop\n      jump\t// out\n\n    auxdata: 0xa264697066735822122072acfcd3eae073eab473743d1f1516d6a141412750ea035b3d09a39ecc1fb06d64736f6c634300080f0033\n}\n",
				"bytecode": {
					"linkReferences": {},
					"object": "608060405234801561001057600080fd5b5061002d61002261003260201b60201c565b61003a60201b60201c565b6100fe565b600033905090565b60008060009054906101000a900473ffffffffffffffffffffffffffffffffffffffff169050816000806101000a81548173ffffffffffffffffffffffffffffffffffffffff021916908373ffffffffffffffffffffffffffffffffffffffff1602179055508173ffffffffffffffffffffffffffffffffffffffff168173ffffffffffffffffffffffffffffffffffffffff167f8be0079c531659141344cd1fd0a4f28419497f9722a3daafe3b4186f6b6457e060405160405180910390a35050565b6114308061010d6000396000f3fe608060405234801561001057600080fd5b506004361061009e5760003560e01c8063715018a611610066578063715018a6146101485780637e490a9e146101525780638da5cb5b1461016e578063901dec821461018c578063f2fde38b146101bc5761009e565b806306661abd146100a357806310319fcc146100c15780632427e59e146100cb578063637a3872146100fb5780636874404614610117575b600080fd5b6100ab6101d8565b6040516100b89190610964565b60405180910390f35b6100c96101de565b005b6100e560048036038101906100e09190610ad9565b6102d7565b6040516100f29190610964565b60405180910390f35b61011560048036038101906101109190610bae565b610305565b005b610131600480360381019061012c9190610c0e565b6104d1565b60405161013f929190610cc3565b60405180910390f35b61015061057d565b005b61016c60048036038101906101679190610c0e565b610591565b005b61017661073d565b6040516101839190610d34565b60405180910390f35b6101a660048036038101906101a19190610d7b565b610766565b6040516101b39190610964565b60405180910390f35b6101d660048036038101906101d19190610d7b565b61077e565b005b60015481565b6000600260003373ffffffffffffffffffffffffffffffffffffffff1673ffffffffffffffffffffffffffffffffffffffff16815260200190815260200160002054905060008111610265576040517f08c379a000000000000000000000000000000000000000000000000000000000815260040161025c90610df4565b60405180910390fd5b6000600260003373ffffffffffffffffffffffffffffffffffffffff1673ffffffffffffffffffffffffffffffffffffffff1681526020019081526020016000208190555060046000828152602001908152602001600020600101600081546102cd90610e43565b9190508190555050565b6003818051602081018201805184825260208301602085012081835280955050505050506000915090505481565b61030d610801565b600060038484604051610321929190610ebb565b908152602001604051809103902054146103c25780600460006003868660405161034c929190610ebb565b9081526020016040518091039020548152602001908152602001600020600101600082825461037b9190610ed4565b925050819055507f1c59ae2fc2d4d8fd587dd73c1193e81642fde8135d41b10c3325d3d1985f05ab8383836040516103b593929190610f57565b60405180910390a16104cc565b6001600081546103d190610e43565b91905081905550604051806040016040528084848080601f016020809104026020016040519081016040528093929190818152602001838380828437600081840152601f19601f82011690508083019250505050505050815260200182815250600460006001548152602001908152602001600020600082015181600001908161045b9190611195565b50602082015181600101559050506001546003848460405161047e929190610ebb565b9081526020016040518091039020819055507f5e5c09fb592e65b4897c25cb4a0597b46a9df6a8a9c1ace81148602e3166dfd48383836040516104c393929190610f57565b60405180910390a15b505050565b60046020528060005260406000206000915090508060000180546104f490610fb8565b80601f016020809104026020016040519081016040528092919081815260200182805461052090610fb8565b801561056d5780601f106105425761010080835404028352916020019161056d565b820191906000526020600020905b81548152906001019060200180831161055057829003601f168201915b5050505050908060010154905082565b610585610801565b61058f600061087f565b565b6000600260003373ffffffffffffffffffffffffffffffffffffffff1673ffffffffffffffffffffffffffffffffffffffff16815260200190815260200160002054111561061657336040517faf162d1b00000000000000000000000000000000000000000000000000000000815260040161060d9190610d34565b60405180910390fd5b60006004600083815260200190815260200160002090506000816001015411610674576040517f08c379a000000000000000000000000000000000000000000000000000000000815260040161066b906112b3565b60405180910390fd5b8060010160008154610685906112d3565b9190508190555081600260003373ffffffffffffffffffffffffffffffffffffffff1673ffffffffffffffffffffffffffffffffffffffff1681526020019081526020016000208190555060016005600084815260200190815260200160002060003373ffffffffffffffffffffffffffffffffffffffff1673ffffffffffffffffffffffffffffffffffffffff16815260200190815260200160002060006101000a81548160ff0219169083151502179055505050565b60008060009054906101000a900473ffffffffffffffffffffffffffffffffffffffff16905090565b60026020528060005260406000206000915090505481565b610786610801565b600073ffffffffffffffffffffffffffffffffffffffff168173ffffffffffffffffffffffffffffffffffffffff16036107f5576040517f08c379a00000000000000000000000000000000000000000000000000000000081526004016107ec9061136e565b60405180910390fd5b6107fe8161087f565b50565b610809610943565b73ffffffffffffffffffffffffffffffffffffffff1661082761073d565b73ffffffffffffffffffffffffffffffffffffffff161461087d576040517f08c379a0000000000000000000000000000000000000000000000000000000008152600401610874906113da565b60405180910390fd5b565b60008060009054906101000a900473ffffffffffffffffffffffffffffffffffffffff169050816000806101000a81548173ffffffffffffffffffffffffffffffffffffffff021916908373ffffffffffffffffffffffffffffffffffffffff1602179055508173ffffffffffffffffffffffffffffffffffffffff168173ffffffffffffffffffffffffffffffffffffffff167f8be0079c531659141344cd1fd0a4f28419497f9722a3daafe3b4186f6b6457e060405160405180910390a35050565b600033905090565b6000819050919050565b61095e8161094b565b82525050565b60006020820190506109796000830184610955565b92915050565b6000604051905090565b600080fd5b600080fd5b600080fd5b600080fd5b6000601f19601f8301169050919050565b7f4e487b7100000000000000000000000000000000000000000000000000000000600052604160045260246000fd5b6109e68261099d565b810181811067ffffffffffffffff82111715610a0557610a046109ae565b5b80604052505050565b6000610a1861097f565b9050610a2482826109dd565b919050565b600067ffffffffffffffff821115610a4457610a436109ae565b5b610a4d8261099d565b9050602081019050919050565b82818337600083830152505050565b6000610a7c610a7784610a29565b610a0e565b905082815260208101848484011115610a9857610a97610998565b5b610aa3848285610a5a565b509392505050565b600082601f830112610ac057610abf610993565b5b8135610ad0848260208601610a69565b91505092915050565b600060208284031215610aef57610aee610989565b5b600082013567ffffffffffffffff811115610b0d57610b0c61098e565b5b610b1984828501610aab565b91505092915050565b600080fd5b600080fd5b60008083601f840112610b4257610b41610993565b5b8235905067ffffffffffffffff811115610b5f57610b5e610b22565b5b602083019150836001820283011115610b7b57610b7a610b27565b5b9250929050565b610b8b8161094b565b8114610b9657600080fd5b50565b600081359050610ba881610b82565b92915050565b600080600060408486031215610bc757610bc6610989565b5b600084013567ffffffffffffffff811115610be557610be461098e565b5b610bf186828701610b2c565b93509350506020610c0486828701610b99565b9150509250925092565b600060208284031215610c2457610c23610989565b5b6000610c3284828501610b99565b91505092915050565b600081519050919050565b600082825260208201905092915050565b60005b83811015610c75578082015181840152602081019050610c5a565b83811115610c84576000848401525b50505050565b6000610c9582610c3b565b610c9f8185610c46565b9350610caf818560208601610c57565b610cb88161099d565b840191505092915050565b60006040820190508181036000830152610cdd8185610c8a565b9050610cec6020830184610955565b9392505050565b600073ffffffffffffffffffffffffffffffffffffffff82169050919050565b6000610d1e82610cf3565b9050919050565b610d2e81610d13565b82525050565b6000602082019050610d496000830184610d25565b92915050565b610d5881610d13565b8114610d6357600080fd5b50565b600081359050610d7581610d4f565b92915050565b600060208284031215610d9157610d90610989565b5b6000610d9f84828501610d66565b91505092915050565b7f6e6f7420626f72726f776e670000000000000000000000000000000000000000600082015250565b6000610dde600c83610c46565b9150610de982610da8565b602082019050919050565b60006020820190508181036000830152610e0d81610dd1565b9050919050565b7f4e487b7100000000000000000000000000000000000000000000000000000000600052601160045260246000fd5b6000610e4e8261094b565b91507fffffffffffffffffffffffffffffffffffffffffffffffffffffffffffffffff8203610e8057610e7f610e14565b5b600182019050919050565b600081905092915050565b6000610ea28385610e8b565b9350610eaf838584610a5a565b82840190509392505050565b6000610ec8828486610e96565b91508190509392505050565b6000610edf8261094b565b9150610eea8361094b565b9250827fffffffffffffffffffffffffffffffffffffffffffffffffffffffffffffffff03821115610f1f57610f1e610e14565b5b828201905092915050565b6000610f368385610c46565b9350610f43838584610a5a565b610f4c8361099d565b840190509392505050565b60006040820190508181036000830152610f72818587610f2a565b9050610f816020830184610955565b949350505050565b7f4e487b7100000000000000000000000000000000000000000000000000000000600052602260045260246000fd5b60006002820490506001821680610fd057607f821691505b602082108103610fe357610fe2610f89565b5b50919050565b60008190508160005260206000209050919050565b60006020601f8301049050919050565b600082821b905092915050565b60006008830261104b7fffffffffffffffffffffffffffffffffffffffffffffffffffffffffffffffff8261100e565b611055868361100e565b95508019841693508086168417925050509392505050565b6000819050919050565b600061109261108d6110888461094b565b61106d565b61094b565b9050919050565b6000819050919050565b6110ac83611077565b6110c06110b882611099565b84845461101b565b825550505050565b600090565b6110d56110c8565b6110e08184846110a3565b505050565b5b81811015611104576110f96000826110cd565b6001810190506110e6565b5050565b601f8211156111495761111a81610fe9565b61112384610ffe565b81016020851015611132578190505b61114661113e85610ffe565b8301826110e5565b50505b505050565b600082821c905092915050565b600061116c6000198460080261114e565b1980831691505092915050565b6000611185838361115b565b9150826002028217905092915050565b61119e82610c3b565b67ffffffffffffffff8111156111b7576111b66109ae565b5b6111c18254610fb8565b6111cc828285611108565b600060209050601f8311600181146111ff57600084156111ed578287015190505b6111f78582611179565b86555061125f565b601f19841661120d86610fe9565b60005b8281101561123557848901518255600182019150602085019450602081019050611210565b86831015611252578489015161124e601f89168261115b565b8355505b6001600288020188555050505b505050505050565b7f7a65726f20626f6f6b73206c6566740000000000000000000000000000000000600082015250565b600061129d600f83610c46565b91506112a882611267565b602082019050919050565b600060208201905081810360008301526112cc81611290565b9050919050565b60006112de8261094b565b9150600082036112f1576112f0610e14565b5b600182039050919050565b7f4f776e61626c653a206e6577206f776e657220697320746865207a65726f206160008201527f6464726573730000000000000000000000000000000000000000000000000000602082015250565b6000611358602683610c46565b9150611363826112fc565b604082019050919050565b600060208201905081810360008301526113878161134b565b9050919050565b7f4f776e61626c653a2063616c6c6572206973206e6f7420746865206f776e6572600082015250565b60006113c4602083610c46565b91506113cf8261138e565b602082019050919050565b600060208201905081810360008301526113f3816113b7565b905091905056fea264697066735822122072acfcd3eae073eab473743d1f1516d6a141412750ea035b3d09a39ecc1fb06d64736f6c634300080f0033",
					"opcodes": "PUSH1 0x80 PUSH1 0x40 MSTORE CALLVALUE DUP1 ISZERO PUSH2 0x10 JUMPI PUSH1 0x0 DUP1 REVERT JUMPDEST POP PUSH2 0x2D PUSH2 0x22 PUSH2 0x32 PUSH1 0x20 SHL PUSH1 0x20 SHR JUMP JUMPDEST PUSH2 0x3A PUSH1 0x20 SHL PUSH1 0x20 SHR JUMP JUMPDEST PUSH2 0xFE JUMP JUMPDEST PUSH1 0x0 CALLER SWAP1 POP SWAP1 JUMP JUMPDEST PUSH1 0x0 DUP1 PUSH1 0x0 SWAP1 SLOAD SWAP1 PUSH2 0x100 EXP SWAP1 DIV PUSH20 0xFFFFFFFFFFFFFFFFFFFFFFFFFFFFFFFFFFFFFFFF AND SWAP1 POP DUP2 PUSH1 0x0 DUP1 PUSH2 0x100 EXP DUP2 SLOAD DUP2 PUSH20 0xFFFFFFFFFFFFFFFFFFFFFFFFFFFFFFFFFFFFFFFF MUL NOT AND SWAP1 DUP4 PUSH20 0xFFFFFFFFFFFFFFFFFFFFFFFFFFFFFFFFFFFFFFFF AND MUL OR SWAP1 SSTORE POP DUP2 PUSH20 0xFFFFFFFFFFFFFFFFFFFFFFFFFFFFFFFFFFFFFFFF AND DUP2 PUSH20 0xFFFFFFFFFFFFFFFFFFFFFFFFFFFFFFFFFFFFFFFF AND PUSH32 0x8BE0079C531659141344CD1FD0A4F28419497F9722A3DAAFE3B4186F6B6457E0 PUSH1 0x40 MLOAD PUSH1 0x40 MLOAD DUP1 SWAP2 SUB SWAP1 LOG3 POP POP JUMP JUMPDEST PUSH2 0x1430 DUP1 PUSH2 0x10D PUSH1 0x0 CODECOPY PUSH1 0x0 RETURN INVALID PUSH1 0x80 PUSH1 0x40 MSTORE CALLVALUE DUP1 ISZERO PUSH2 0x10 JUMPI PUSH1 0x0 DUP1 REVERT JUMPDEST POP PUSH1 0x4 CALLDATASIZE LT PUSH2 0x9E JUMPI PUSH1 0x0 CALLDATALOAD PUSH1 0xE0 SHR DUP1 PUSH4 0x715018A6 GT PUSH2 0x66 JUMPI DUP1 PUSH4 0x715018A6 EQ PUSH2 0x148 JUMPI DUP1 PUSH4 0x7E490A9E EQ PUSH2 0x152 JUMPI DUP1 PUSH4 0x8DA5CB5B EQ PUSH2 0x16E JUMPI DUP1 PUSH4 0x901DEC82 EQ PUSH2 0x18C JUMPI DUP1 PUSH4 0xF2FDE38B EQ PUSH2 0x1BC JUMPI PUSH2 0x9E JUMP JUMPDEST DUP1 PUSH4 0x6661ABD EQ PUSH2 0xA3 JUMPI DUP1 PUSH4 0x10319FCC EQ PUSH2 0xC1 JUMPI DUP1 PUSH4 0x2427E59E EQ PUSH2 0xCB JUMPI DUP1 PUSH4 0x637A3872 EQ PUSH2 0xFB JUMPI DUP1 PUSH4 0x68744046 EQ PUSH2 0x117 JUMPI JUMPDEST PUSH1 0x0 DUP1 REVERT JUMPDEST PUSH2 0xAB PUSH2 0x1D8 JUMP JUMPDEST PUSH1 0x40 MLOAD PUSH2 0xB8 SWAP2 SWAP1 PUSH2 0x964 JUMP JUMPDEST PUSH1 0x40 MLOAD DUP1 SWAP2 SUB SWAP1 RETURN JUMPDEST PUSH2 0xC9 PUSH2 0x1DE JUMP JUMPDEST STOP JUMPDEST PUSH2 0xE5 PUSH1 0x4 DUP1 CALLDATASIZE SUB DUP2 ADD SWAP1 PUSH2 0xE0 SWAP2 SWAP1 PUSH2 0xAD9 JUMP JUMPDEST PUSH2 0x2D7 JUMP JUMPDEST PUSH1 0x40 MLOAD PUSH2 0xF2 SWAP2 SWAP1 PUSH2 0x964 JUMP JUMPDEST PUSH1 0x40 MLOAD DUP1 SWAP2 SUB SWAP1 RETURN JUMPDEST PUSH2 0x115 PUSH1 0x4 DUP1 CALLDATASIZE SUB DUP2 ADD SWAP1 PUSH2 0x110 SWAP2 SWAP1 PUSH2 0xBAE JUMP JUMPDEST PUSH2 0x305 JUMP JUMPDEST STOP JUMPDEST PUSH2 0x131 PUSH1 0x4 DUP1 CALLDATASIZE SUB DUP2 ADD SWAP1 PUSH2 0x12C SWAP2 SWAP1 PUSH2 0xC0E JUMP JUMPDEST PUSH2 0x4D1 JUMP JUMPDEST PUSH1 0x40 MLOAD PUSH2 0x13F SWAP3 SWAP2 SWAP1 PUSH2 0xCC3 JUMP JUMPDEST PUSH1 0x40 MLOAD DUP1 SWAP2 SUB SWAP1 RETURN JUMPDEST PUSH2 0x150 PUSH2 0x57D JUMP JUMPDEST STOP JUMPDEST PUSH2 0x16C PUSH1 0x4 DUP1 CALLDATASIZE SUB DUP2 ADD SWAP1 PUSH2 0x167 SWAP2 SWAP1 PUSH2 0xC0E JUMP JUMPDEST PUSH2 0x591 JUMP JUMPDEST STOP JUMPDEST PUSH2 0x176 PUSH2 0x73D JUMP JUMPDEST PUSH1 0x40 MLOAD PUSH2 0x183 SWAP2 SWAP1 PUSH2 0xD34 JUMP JUMPDEST PUSH1 0x40 MLOAD DUP1 SWAP2 SUB SWAP1 RETURN JUMPDEST PUSH2 0x1A6 PUSH1 0x4 DUP1 CALLDATASIZE SUB DUP2 ADD SWAP1 PUSH2 0x1A1 SWAP2 SWAP1 PUSH2 0xD7B JUMP JUMPDEST PUSH2 0x766 JUMP JUMPDEST PUSH1 0x40 MLOAD PUSH2 0x1B3 SWAP2 SWAP1 PUSH2 0x964 JUMP JUMPDEST PUSH1 0x40 MLOAD DUP1 SWAP2 SUB SWAP1 RETURN JUMPDEST PUSH2 0x1D6 PUSH1 0x4 DUP1 CALLDATASIZE SUB DUP2 ADD SWAP1 PUSH2 0x1D1 SWAP2 SWAP1 PUSH2 0xD7B JUMP JUMPDEST PUSH2 0x77E JUMP JUMPDEST STOP JUMPDEST PUSH1 0x1 SLOAD DUP2 JUMP JUMPDEST PUSH1 0x0 PUSH1 0x2 PUSH1 0x0 CALLER PUSH20 0xFFFFFFFFFFFFFFFFFFFFFFFFFFFFFFFFFFFFFFFF AND PUSH20 0xFFFFFFFFFFFFFFFFFFFFFFFFFFFFFFFFFFFFFFFF AND DUP2 MSTORE PUSH1 0x20 ADD SWAP1 DUP2 MSTORE PUSH1 0x20 ADD PUSH1 0x0 KECCAK256 SLOAD SWAP1 POP PUSH1 0x0 DUP2 GT PUSH2 0x265 JUMPI PUSH1 0x40 MLOAD PUSH32 0x8C379A000000000000000000000000000000000000000000000000000000000 DUP2 MSTORE PUSH1 0x4 ADD PUSH2 0x25C SWAP1 PUSH2 0xDF4 JUMP JUMPDEST PUSH1 0x40 MLOAD DUP1 SWAP2 SUB SWAP1 REVERT JUMPDEST PUSH1 0x0 PUSH1 0x2 PUSH1 0x0 CALLER PUSH20 0xFFFFFFFFFFFFFFFFFFFFFFFFFFFFFFFFFFFFFFFF AND PUSH20 0xFFFFFFFFFFFFFFFFFFFFFFFFFFFFFFFFFFFFFFFF AND DUP2 MSTORE PUSH1 0x20 ADD SWAP1 DUP2 MSTORE PUSH1 0x20 ADD PUSH1 0x0 KECCAK256 DUP2 SWAP1 SSTORE POP PUSH1 0x4 PUSH1 0x0 DUP3 DUP2 MSTORE PUSH1 0x20 ADD SWAP1 DUP2 MSTORE PUSH1 0x20 ADD PUSH1 0x0 KECCAK256 PUSH1 0x1 ADD PUSH1 0x0 DUP2 SLOAD PUSH2 0x2CD SWAP1 PUSH2 0xE43 JUMP JUMPDEST SWAP2 SWAP1 POP DUP2 SWAP1 SSTORE POP POP JUMP JUMPDEST PUSH1 0x3 DUP2 DUP1 MLOAD PUSH1 0x20 DUP2 ADD DUP3 ADD DUP1 MLOAD DUP5 DUP3 MSTORE PUSH1 0x20 DUP4 ADD PUSH1 0x20 DUP6 ADD KECCAK256 DUP2 DUP4 MSTORE DUP1 SWAP6 POP POP POP POP POP POP PUSH1 0x0 SWAP2 POP SWAP1 POP SLOAD DUP2 JUMP JUMPDEST PUSH2 0x30D PUSH2 0x801 JUMP JUMPDEST PUSH1 0x0 PUSH1 0x3 DUP5 DUP5 PUSH1 0x40 MLOAD PUSH2 0x321 SWAP3 SWAP2 SWAP1 PUSH2 0xEBB JUMP JUMPDEST SWAP1 DUP2 MSTORE PUSH1 0x20 ADD PUSH1 0x40 MLOAD DUP1 SWAP2 SUB SWAP1 KECCAK256 SLOAD EQ PUSH2 0x3C2 JUMPI DUP1 PUSH1 0x4 PUSH1 0x0 PUSH1 0x3 DUP7 DUP7 PUSH1 0x40 MLOAD PUSH2 0x34C SWAP3 SWAP2 SWAP1 PUSH2 0xEBB JUMP JUMPDEST SWAP1 DUP2 MSTORE PUSH1 0x20 ADD PUSH1 0x40 MLOAD DUP1 SWAP2 SUB SWAP1 KECCAK256 SLOAD DUP2 MSTORE PUSH1 0x20 ADD SWAP1 DUP2 MSTORE PUSH1 0x20 ADD PUSH1 0x0 KECCAK256 PUSH1 0x1 ADD PUSH1 0x0 DUP3 DUP3 SLOAD PUSH2 0x37B SWAP2 SWAP1 PUSH2 0xED4 JUMP JUMPDEST SWAP3 POP POP DUP2 SWAP1 SSTORE POP PUSH32 0x1C59AE2FC2D4D8FD587DD73C1193E81642FDE8135D41B10C3325D3D1985F05AB DUP4 DUP4 DUP4 PUSH1 0x40 MLOAD PUSH2 0x3B5 SWAP4 SWAP3 SWAP2 SWAP1 PUSH2 0xF57 JUMP JUMPDEST PUSH1 0x40 MLOAD DUP1 SWAP2 SUB SWAP1 LOG1 PUSH2 0x4CC JUMP JUMPDEST PUSH1 0x1 PUSH1 0x0 DUP2 SLOAD PUSH2 0x3D1 SWAP1 PUSH2 0xE43 JUMP JUMPDEST SWAP2 SWAP1 POP DUP2 SWAP1 SSTORE POP PUSH1 0x40 MLOAD DUP1 PUSH1 0x40 ADD PUSH1 0x40 MSTORE DUP1 DUP5 DUP5 DUP1 DUP1 PUSH1 0x1F ADD PUSH1 0x20 DUP1 SWAP2 DIV MUL PUSH1 0x20 ADD PUSH1 0x40 MLOAD SWAP1 DUP2 ADD PUSH1 0x40 MSTORE DUP1 SWAP4 SWAP3 SWAP2 SWAP1 DUP2 DUP2 MSTORE PUSH1 0x20 ADD DUP4 DUP4 DUP1 DUP3 DUP5 CALLDATACOPY PUSH1 0x0 DUP2 DUP5 ADD MSTORE PUSH1 0x1F NOT PUSH1 0x1F DUP3 ADD AND SWAP1 POP DUP1 DUP4 ADD SWAP3 POP POP POP POP POP POP POP DUP2 MSTORE PUSH1 0x20 ADD DUP3 DUP2 MSTORE POP PUSH1 0x4 PUSH1 0x0 PUSH1 0x1 SLOAD DUP2 MSTORE PUSH1 0x20 ADD SWAP1 DUP2 MSTORE PUSH1 0x20 ADD PUSH1 0x0 KECCAK256 PUSH1 0x0 DUP3 ADD MLOAD DUP2 PUSH1 0x0 ADD SWAP1 DUP2 PUSH2 0x45B SWAP2 SWAP1 PUSH2 0x1195 JUMP JUMPDEST POP PUSH1 0x20 DUP3 ADD MLOAD DUP2 PUSH1 0x1 ADD SSTORE SWAP1 POP POP PUSH1 0x1 SLOAD PUSH1 0x3 DUP5 DUP5 PUSH1 0x40 MLOAD PUSH2 0x47E SWAP3 SWAP2 SWAP1 PUSH2 0xEBB JUMP JUMPDEST SWAP1 DUP2 MSTORE PUSH1 0x20 ADD PUSH1 0x40 MLOAD DUP1 SWAP2 SUB SWAP1 KECCAK256 DUP2 SWAP1 SSTORE POP PUSH32 0x5E5C09FB592E65B4897C25CB4A0597B46A9DF6A8A9C1ACE81148602E3166DFD4 DUP4 DUP4 DUP4 PUSH1 0x40 MLOAD PUSH2 0x4C3 SWAP4 SWAP3 SWAP2 SWAP1 PUSH2 0xF57 JUMP JUMPDEST PUSH1 0x40 MLOAD DUP1 SWAP2 SUB SWAP1 LOG1 JUMPDEST POP POP POP JUMP JUMPDEST PUSH1 0x4 PUSH1 0x20 MSTORE DUP1 PUSH1 0x0 MSTORE PUSH1 0x40 PUSH1 0x0 KECCAK256 PUSH1 0x0 SWAP2 POP SWAP1 POP DUP1 PUSH1 0x0 ADD DUP1 SLOAD PUSH2 0x4F4 SWAP1 PUSH2 0xFB8 JUMP JUMPDEST DUP1 PUSH1 0x1F ADD PUSH1 0x20 DUP1 SWAP2 DIV MUL PUSH1 0x20 ADD PUSH1 0x40 MLOAD SWAP1 DUP2 ADD PUSH1 0x40 MSTORE DUP1 SWAP3 SWAP2 SWAP1 DUP2 DUP2 MSTORE PUSH1 0x20 ADD DUP3 DUP1 SLOAD PUSH2 0x520 SWAP1 PUSH2 0xFB8 JUMP JUMPDEST DUP1 ISZERO PUSH2 0x56D JUMPI DUP1 PUSH1 0x1F LT PUSH2 0x542 JUMPI PUSH2 0x100 DUP1 DUP4 SLOAD DIV MUL DUP4 MSTORE SWAP2 PUSH1 0x20 ADD SWAP2 PUSH2 0x56D JUMP JUMPDEST DUP3 ADD SWAP2 SWAP1 PUSH1 0x0 MSTORE PUSH1 0x20 PUSH1 0x0 KECCAK256 SWAP1 JUMPDEST DUP2 SLOAD DUP2 MSTORE SWAP1 PUSH1 0x1 ADD SWAP1 PUSH1 0x20 ADD DUP1 DUP4 GT PUSH2 0x550 JUMPI DUP3 SWAP1 SUB PUSH1 0x1F AND DUP3 ADD SWAP2 JUMPDEST POP POP POP POP POP SWAP1 DUP1 PUSH1 0x1 ADD SLOAD SWAP1 POP DUP3 JUMP JUMPDEST PUSH2 0x585 PUSH2 0x801 JUMP JUMPDEST PUSH2 0x58F PUSH1 0x0 PUSH2 0x87F JUMP JUMPDEST JUMP JUMPDEST PUSH1 0x0 PUSH1 0x2 PUSH1 0x0 CALLER PUSH20 0xFFFFFFFFFFFFFFFFFFFFFFFFFFFFFFFFFFFFFFFF AND PUSH20 0xFFFFFFFFFFFFFFFFFFFFFFFFFFFFFFFFFFFFFFFF AND DUP2 MSTORE PUSH1 0x20 ADD SWAP1 DUP2 MSTORE PUSH1 0x20 ADD PUSH1 0x0 KECCAK256 SLOAD GT ISZERO PUSH2 0x616 JUMPI CALLER PUSH1 0x40 MLOAD PUSH32 0xAF162D1B00000000000000000000000000000000000000000000000000000000 DUP2 MSTORE PUSH1 0x4 ADD PUSH2 0x60D SWAP2 SWAP1 PUSH2 0xD34 JUMP JUMPDEST PUSH1 0x40 MLOAD DUP1 SWAP2 SUB SWAP1 REVERT JUMPDEST PUSH1 0x0 PUSH1 0x4 PUSH1 0x0 DUP4 DUP2 MSTORE PUSH1 0x20 ADD SWAP1 DUP2 MSTORE PUSH1 0x20 ADD PUSH1 0x0 KECCAK256 SWAP1 POP PUSH1 0x0 DUP2 PUSH1 0x1 ADD SLOAD GT PUSH2 0x674 JUMPI PUSH1 0x40 MLOAD PUSH32 0x8C379A000000000000000000000000000000000000000000000000000000000 DUP2 MSTORE PUSH1 0x4 ADD PUSH2 0x66B SWAP1 PUSH2 0x12B3 JUMP JUMPDEST PUSH1 0x40 MLOAD DUP1 SWAP2 SUB SWAP1 REVERT JUMPDEST DUP1 PUSH1 0x1 ADD PUSH1 0x0 DUP2 SLOAD PUSH2 0x685 SWAP1 PUSH2 0x12D3 JUMP JUMPDEST SWAP2 SWAP1 POP DUP2 SWAP1 SSTORE POP DUP2 PUSH1 0x2 PUSH1 0x0 CALLER PUSH20 0xFFFFFFFFFFFFFFFFFFFFFFFFFFFFFFFFFFFFFFFF AND PUSH20 0xFFFFFFFFFFFFFFFFFFFFFFFFFFFFFFFFFFFFFFFF AND DUP2 MSTORE PUSH1 0x20 ADD SWAP1 DUP2 MSTORE PUSH1 0x20 ADD PUSH1 0x0 KECCAK256 DUP2 SWAP1 SSTORE POP PUSH1 0x1 PUSH1 0x5 PUSH1 0x0 DUP5 DUP2 MSTORE PUSH1 0x20 ADD SWAP1 DUP2 MSTORE PUSH1 0x20 ADD PUSH1 0x0 KECCAK256 PUSH1 0x0 CALLER PUSH20 0xFFFFFFFFFFFFFFFFFFFFFFFFFFFFFFFFFFFFFFFF AND PUSH20 0xFFFFFFFFFFFFFFFFFFFFFFFFFFFFFFFFFFFFFFFF AND DUP2 MSTORE PUSH1 0x20 ADD SWAP1 DUP2 MSTORE PUSH1 0x20 ADD PUSH1 0x0 KECCAK256 PUSH1 0x0 PUSH2 0x100 EXP DUP2 SLOAD DUP2 PUSH1 0xFF MUL NOT AND SWAP1 DUP4 ISZERO ISZERO MUL OR SWAP1 SSTORE POP POP POP JUMP JUMPDEST PUSH1 0x0 DUP1 PUSH1 0x0 SWAP1 SLOAD SWAP1 PUSH2 0x100 EXP SWAP1 DIV PUSH20 0xFFFFFFFFFFFFFFFFFFFFFFFFFFFFFFFFFFFFFFFF AND SWAP1 POP SWAP1 JUMP JUMPDEST PUSH1 0x2 PUSH1 0x20 MSTORE DUP1 PUSH1 0x0 MSTORE PUSH1 0x40 PUSH1 0x0 KECCAK256 PUSH1 0x0 SWAP2 POP SWAP1 POP SLOAD DUP2 JUMP JUMPDEST PUSH2 0x786 PUSH2 0x801 JUMP JUMPDEST PUSH1 0x0 PUSH20 0xFFFFFFFFFFFFFFFFFFFFFFFFFFFFFFFFFFFFFFFF AND DUP2 PUSH20 0xFFFFFFFFFFFFFFFFFFFFFFFFFFFFFFFFFFFFFFFF AND SUB PUSH2 0x7F5 JUMPI PUSH1 0x40 MLOAD PUSH32 0x8C379A000000000000000000000000000000000000000000000000000000000 DUP2 MSTORE PUSH1 0x4 ADD PUSH2 0x7EC SWAP1 PUSH2 0x136E JUMP JUMPDEST PUSH1 0x40 MLOAD DUP1 SWAP2 SUB SWAP1 REVERT JUMPDEST PUSH2 0x7FE DUP2 PUSH2 0x87F JUMP JUMPDEST POP JUMP JUMPDEST PUSH2 0x809 PUSH2 0x943 JUMP JUMPDEST PUSH20 0xFFFFFFFFFFFFFFFFFFFFFFFFFFFFFFFFFFFFFFFF AND PUSH2 0x827 PUSH2 0x73D JUMP JUMPDEST PUSH20 0xFFFFFFFFFFFFFFFFFFFFFFFFFFFFFFFFFFFFFFFF AND EQ PUSH2 0x87D JUMPI PUSH1 0x40 MLOAD PUSH32 0x8C379A000000000000000000000000000000000000000000000000000000000 DUP2 MSTORE PUSH1 0x4 ADD PUSH2 0x874 SWAP1 PUSH2 0x13DA JUMP JUMPDEST PUSH1 0x40 MLOAD DUP1 SWAP2 SUB SWAP1 REVERT JUMPDEST JUMP JUMPDEST PUSH1 0x0 DUP1 PUSH1 0x0 SWAP1 SLOAD SWAP1 PUSH2 0x100 EXP SWAP1 DIV PUSH20 0xFFFFFFFFFFFFFFFFFFFFFFFFFFFFFFFFFFFFFFFF AND SWAP1 POP DUP2 PUSH1 0x0 DUP1 PUSH2 0x100 EXP DUP2 SLOAD DUP2 PUSH20 0xFFFFFFFFFFFFFFFFFFFFFFFFFFFFFFFFFFFFFFFF MUL NOT AND SWAP1 DUP4 PUSH20 0xFFFFFFFFFFFFFFFFFFFFFFFFFFFFFFFFFFFFFFFF AND MUL OR SWAP1 SSTORE POP DUP2 PUSH20 0xFFFFFFFFFFFFFFFFFFFFFFFFFFFFFFFFFFFFFFFF AND DUP2 PUSH20 0xFFFFFFFFFFFFFFFFFFFFFFFFFFFFFFFFFFFFFFFF AND PUSH32 0x8BE0079C531659141344CD1FD0A4F28419497F9722A3DAAFE3B4186F6B6457E0 PUSH1 0x40 MLOAD PUSH1 0x40 MLOAD DUP1 SWAP2 SUB SWAP1 LOG3 POP POP JUMP JUMPDEST PUSH1 0x0 CALLER SWAP1 POP SWAP1 JUMP JUMPDEST PUSH1 0x0 DUP2 SWAP1 POP SWAP2 SWAP1 POP JUMP JUMPDEST PUSH2 0x95E DUP2 PUSH2 0x94B JUMP JUMPDEST DUP3 MSTORE POP POP JUMP JUMPDEST PUSH1 0x0 PUSH1 0x20 DUP3 ADD SWAP1 POP PUSH2 0x979 PUSH1 0x0 DUP4 ADD DUP5 PUSH2 0x955 JUMP JUMPDEST SWAP3 SWAP2 POP POP JUMP JUMPDEST PUSH1 0x0 PUSH1 0x40 MLOAD SWAP1 POP SWAP1 JUMP JUMPDEST PUSH1 0x0 DUP1 REVERT JUMPDEST PUSH1 0x0 DUP1 REVERT JUMPDEST PUSH1 0x0 DUP1 REVERT JUMPDEST PUSH1 0x0 DUP1 REVERT JUMPDEST PUSH1 0x0 PUSH1 0x1F NOT PUSH1 0x1F DUP4 ADD AND SWAP1 POP SWAP2 SWAP1 POP JUMP JUMPDEST PUSH32 0x4E487B7100000000000000000000000000000000000000000000000000000000 PUSH1 0x0 MSTORE PUSH1 0x41 PUSH1 0x4 MSTORE PUSH1 0x24 PUSH1 0x0 REVERT JUMPDEST PUSH2 0x9E6 DUP3 PUSH2 0x99D JUMP JUMPDEST DUP2 ADD DUP2 DUP2 LT PUSH8 0xFFFFFFFFFFFFFFFF DUP3 GT OR ISZERO PUSH2 0xA05 JUMPI PUSH2 0xA04 PUSH2 0x9AE JUMP JUMPDEST JUMPDEST DUP1 PUSH1 0x40 MSTORE POP POP POP JUMP JUMPDEST PUSH1 0x0 PUSH2 0xA18 PUSH2 0x97F JUMP JUMPDEST SWAP1 POP PUSH2 0xA24 DUP3 DUP3 PUSH2 0x9DD JUMP JUMPDEST SWAP2 SWAP1 POP JUMP JUMPDEST PUSH1 0x0 PUSH8 0xFFFFFFFFFFFFFFFF DUP3 GT ISZERO PUSH2 0xA44 JUMPI PUSH2 0xA43 PUSH2 0x9AE JUMP JUMPDEST JUMPDEST PUSH2 0xA4D DUP3 PUSH2 0x99D JUMP JUMPDEST SWAP1 POP PUSH1 0x20 DUP2 ADD SWAP1 POP SWAP2 SWAP1 POP JUMP JUMPDEST DUP3 DUP2 DUP4 CALLDATACOPY PUSH1 0x0 DUP4 DUP4 ADD MSTORE POP POP POP JUMP JUMPDEST PUSH1 0x0 PUSH2 0xA7C PUSH2 0xA77 DUP5 PUSH2 0xA29 JUMP JUMPDEST PUSH2 0xA0E JUMP JUMPDEST SWAP1 POP DUP3 DUP2 MSTORE PUSH1 0x20 DUP2 ADD DUP5 DUP5 DUP5 ADD GT ISZERO PUSH2 0xA98 JUMPI PUSH2 0xA97 PUSH2 0x998 JUMP JUMPDEST JUMPDEST PUSH2 0xAA3 DUP5 DUP3 DUP6 PUSH2 0xA5A JUMP JUMPDEST POP SWAP4 SWAP3 POP POP POP JUMP JUMPDEST PUSH1 0x0 DUP3 PUSH1 0x1F DUP4 ADD SLT PUSH2 0xAC0 JUMPI PUSH2 0xABF PUSH2 0x993 JUMP JUMPDEST JUMPDEST DUP2 CALLDATALOAD PUSH2 0xAD0 DUP5 DUP3 PUSH1 0x20 DUP7 ADD PUSH2 0xA69 JUMP JUMPDEST SWAP2 POP POP SWAP3 SWAP2 POP POP JUMP JUMPDEST PUSH1 0x0 PUSH1 0x20 DUP3 DUP5 SUB SLT ISZERO PUSH2 0xAEF JUMPI PUSH2 0xAEE PUSH2 0x989 JUMP JUMPDEST JUMPDEST PUSH1 0x0 DUP3 ADD CALLDATALOAD PUSH8 0xFFFFFFFFFFFFFFFF DUP2 GT ISZERO PUSH2 0xB0D JUMPI PUSH2 0xB0C PUSH2 0x98E JUMP JUMPDEST JUMPDEST PUSH2 0xB19 DUP5 DUP3 DUP6 ADD PUSH2 0xAAB JUMP JUMPDEST SWAP2 POP POP SWAP3 SWAP2 POP POP JUMP JUMPDEST PUSH1 0x0 DUP1 REVERT JUMPDEST PUSH1 0x0 DUP1 REVERT JUMPDEST PUSH1 0x0 DUP1 DUP4 PUSH1 0x1F DUP5 ADD SLT PUSH2 0xB42 JUMPI PUSH2 0xB41 PUSH2 0x993 JUMP JUMPDEST JUMPDEST DUP3 CALLDATALOAD SWAP1 POP PUSH8 0xFFFFFFFFFFFFFFFF DUP2 GT ISZERO PUSH2 0xB5F JUMPI PUSH2 0xB5E PUSH2 0xB22 JUMP JUMPDEST JUMPDEST PUSH1 0x20 DUP4 ADD SWAP2 POP DUP4 PUSH1 0x1 DUP3 MUL DUP4 ADD GT ISZERO PUSH2 0xB7B JUMPI PUSH2 0xB7A PUSH2 0xB27 JUMP JUMPDEST JUMPDEST SWAP3 POP SWAP3 SWAP1 POP JUMP JUMPDEST PUSH2 0xB8B DUP2 PUSH2 0x94B JUMP JUMPDEST DUP2 EQ PUSH2 0xB96 JUMPI PUSH1 0x0 DUP1 REVERT JUMPDEST POP JUMP JUMPDEST PUSH1 0x0 DUP2 CALLDATALOAD SWAP1 POP PUSH2 0xBA8 DUP2 PUSH2 0xB82 JUMP JUMPDEST SWAP3 SWAP2 POP POP JUMP JUMPDEST PUSH1 0x0 DUP1 PUSH1 0x0 PUSH1 0x40 DUP5 DUP7 SUB SLT ISZERO PUSH2 0xBC7 JUMPI PUSH2 0xBC6 PUSH2 0x989 JUMP JUMPDEST JUMPDEST PUSH1 0x0 DUP5 ADD CALLDATALOAD PUSH8 0xFFFFFFFFFFFFFFFF DUP2 GT ISZERO PUSH2 0xBE5 JUMPI PUSH2 0xBE4 PUSH2 0x98E JUMP JUMPDEST JUMPDEST PUSH2 0xBF1 DUP7 DUP3 DUP8 ADD PUSH2 0xB2C JUMP JUMPDEST SWAP4 POP SWAP4 POP POP PUSH1 0x20 PUSH2 0xC04 DUP7 DUP3 DUP8 ADD PUSH2 0xB99 JUMP JUMPDEST SWAP2 POP POP SWAP3 POP SWAP3 POP SWAP3 JUMP JUMPDEST PUSH1 0x0 PUSH1 0x20 DUP3 DUP5 SUB SLT ISZERO PUSH2 0xC24 JUMPI PUSH2 0xC23 PUSH2 0x989 JUMP JUMPDEST JUMPDEST PUSH1 0x0 PUSH2 0xC32 DUP5 DUP3 DUP6 ADD PUSH2 0xB99 JUMP JUMPDEST SWAP2 POP POP SWAP3 SWAP2 POP POP JUMP JUMPDEST PUSH1 0x0 DUP2 MLOAD SWAP1 POP SWAP2 SWAP1 POP JUMP JUMPDEST PUSH1 0x0 DUP3 DUP3 MSTORE PUSH1 0x20 DUP3 ADD SWAP1 POP SWAP3 SWAP2 POP POP JUMP JUMPDEST PUSH1 0x0 JUMPDEST DUP4 DUP2 LT ISZERO PUSH2 0xC75 JUMPI DUP1 DUP3 ADD MLOAD DUP2 DUP5 ADD MSTORE PUSH1 0x20 DUP2 ADD SWAP1 POP PUSH2 0xC5A JUMP JUMPDEST DUP4 DUP2 GT ISZERO PUSH2 0xC84 JUMPI PUSH1 0x0 DUP5 DUP5 ADD MSTORE JUMPDEST POP POP POP POP JUMP JUMPDEST PUSH1 0x0 PUSH2 0xC95 DUP3 PUSH2 0xC3B JUMP JUMPDEST PUSH2 0xC9F DUP2 DUP6 PUSH2 0xC46 JUMP JUMPDEST SWAP4 POP PUSH2 0xCAF DUP2 DUP6 PUSH1 0x20 DUP7 ADD PUSH2 0xC57 JUMP JUMPDEST PUSH2 0xCB8 DUP2 PUSH2 0x99D JUMP JUMPDEST DUP5 ADD SWAP2 POP POP SWAP3 SWAP2 POP POP JUMP JUMPDEST PUSH1 0x0 PUSH1 0x40 DUP3 ADD SWAP1 POP DUP2 DUP2 SUB PUSH1 0x0 DUP4 ADD MSTORE PUSH2 0xCDD DUP2 DUP6 PUSH2 0xC8A JUMP JUMPDEST SWAP1 POP PUSH2 0xCEC PUSH1 0x20 DUP4 ADD DUP5 PUSH2 0x955 JUMP JUMPDEST SWAP4 SWAP3 POP POP POP JUMP JUMPDEST PUSH1 0x0 PUSH20 0xFFFFFFFFFFFFFFFFFFFFFFFFFFFFFFFFFFFFFFFF DUP3 AND SWAP1 POP SWAP2 SWAP1 POP JUMP JUMPDEST PUSH1 0x0 PUSH2 0xD1E DUP3 PUSH2 0xCF3 JUMP JUMPDEST SWAP1 POP SWAP2 SWAP1 POP JUMP JUMPDEST PUSH2 0xD2E DUP2 PUSH2 0xD13 JUMP JUMPDEST DUP3 MSTORE POP POP JUMP JUMPDEST PUSH1 0x0 PUSH1 0x20 DUP3 ADD SWAP1 POP PUSH2 0xD49 PUSH1 0x0 DUP4 ADD DUP5 PUSH2 0xD25 JUMP JUMPDEST SWAP3 SWAP2 POP POP JUMP JUMPDEST PUSH2 0xD58 DUP2 PUSH2 0xD13 JUMP JUMPDEST DUP2 EQ PUSH2 0xD63 JUMPI PUSH1 0x0 DUP1 REVERT JUMPDEST POP JUMP JUMPDEST PUSH1 0x0 DUP2 CALLDATALOAD SWAP1 POP PUSH2 0xD75 DUP2 PUSH2 0xD4F JUMP JUMPDEST SWAP3 SWAP2 POP POP JUMP JUMPDEST PUSH1 0x0 PUSH1 0x20 DUP3 DUP5 SUB SLT ISZERO PUSH2 0xD91 JUMPI PUSH2 0xD90 PUSH2 0x989 JUMP JUMPDEST JUMPDEST PUSH1 0x0 PUSH2 0xD9F DUP5 DUP3 DUP6 ADD PUSH2 0xD66 JUMP JUMPDEST SWAP2 POP POP SWAP3 SWAP2 POP POP JUMP JUMPDEST PUSH32 0x6E6F7420626F72726F776E670000000000000000000000000000000000000000 PUSH1 0x0 DUP3 ADD MSTORE POP JUMP JUMPDEST PUSH1 0x0 PUSH2 0xDDE PUSH1 0xC DUP4 PUSH2 0xC46 JUMP JUMPDEST SWAP2 POP PUSH2 0xDE9 DUP3 PUSH2 0xDA8 JUMP JUMPDEST PUSH1 0x20 DUP3 ADD SWAP1 POP SWAP2 SWAP1 POP JUMP JUMPDEST PUSH1 0x0 PUSH1 0x20 DUP3 ADD SWAP1 POP DUP2 DUP2 SUB PUSH1 0x0 DUP4 ADD MSTORE PUSH2 0xE0D DUP2 PUSH2 0xDD1 JUMP JUMPDEST SWAP1 POP SWAP2 SWAP1 POP JUMP JUMPDEST PUSH32 0x4E487B7100000000000000000000000000000000000000000000000000000000 PUSH1 0x0 MSTORE PUSH1 0x11 PUSH1 0x4 MSTORE PUSH1 0x24 PUSH1 0x0 REVERT JUMPDEST PUSH1 0x0 PUSH2 0xE4E DUP3 PUSH2 0x94B JUMP JUMPDEST SWAP2 POP PUSH32 0xFFFFFFFFFFFFFFFFFFFFFFFFFFFFFFFFFFFFFFFFFFFFFFFFFFFFFFFFFFFFFFFF DUP3 SUB PUSH2 0xE80 JUMPI PUSH2 0xE7F PUSH2 0xE14 JUMP JUMPDEST JUMPDEST PUSH1 0x1 DUP3 ADD SWAP1 POP SWAP2 SWAP1 POP JUMP JUMPDEST PUSH1 0x0 DUP2 SWAP1 POP SWAP3 SWAP2 POP POP JUMP JUMPDEST PUSH1 0x0 PUSH2 0xEA2 DUP4 DUP6 PUSH2 0xE8B JUMP JUMPDEST SWAP4 POP PUSH2 0xEAF DUP4 DUP6 DUP5 PUSH2 0xA5A JUMP JUMPDEST DUP3 DUP5 ADD SWAP1 POP SWAP4 SWAP3 POP POP POP JUMP JUMPDEST PUSH1 0x0 PUSH2 0xEC8 DUP3 DUP5 DUP7 PUSH2 0xE96 JUMP JUMPDEST SWAP2 POP DUP2 SWAP1 POP SWAP4 SWAP3 POP POP POP JUMP JUMPDEST PUSH1 0x0 PUSH2 0xEDF DUP3 PUSH2 0x94B JUMP JUMPDEST SWAP2 POP PUSH2 0xEEA DUP4 PUSH2 0x94B JUMP JUMPDEST SWAP3 POP DUP3 PUSH32 0xFFFFFFFFFFFFFFFFFFFFFFFFFFFFFFFFFFFFFFFFFFFFFFFFFFFFFFFFFFFFFFFF SUB DUP3 GT ISZERO PUSH2 0xF1F JUMPI PUSH2 0xF1E PUSH2 0xE14 JUMP JUMPDEST JUMPDEST DUP3 DUP3 ADD SWAP1 POP SWAP3 SWAP2 POP POP JUMP JUMPDEST PUSH1 0x0 PUSH2 0xF36 DUP4 DUP6 PUSH2 0xC46 JUMP JUMPDEST SWAP4 POP PUSH2 0xF43 DUP4 DUP6 DUP5 PUSH2 0xA5A JUMP JUMPDEST PUSH2 0xF4C DUP4 PUSH2 0x99D JUMP JUMPDEST DUP5 ADD SWAP1 POP SWAP4 SWAP3 POP POP POP JUMP JUMPDEST PUSH1 0x0 PUSH1 0x40 DUP3 ADD SWAP1 POP DUP2 DUP2 SUB PUSH1 0x0 DUP4 ADD MSTORE PUSH2 0xF72 DUP2 DUP6 DUP8 PUSH2 0xF2A JUMP JUMPDEST SWAP1 POP PUSH2 0xF81 PUSH1 0x20 DUP4 ADD DUP5 PUSH2 0x955 JUMP JUMPDEST SWAP5 SWAP4 POP POP POP POP JUMP JUMPDEST PUSH32 0x4E487B7100000000000000000000000000000000000000000000000000000000 PUSH1 0x0 MSTORE PUSH1 0x22 PUSH1 0x4 MSTORE PUSH1 0x24 PUSH1 0x0 REVERT JUMPDEST PUSH1 0x0 PUSH1 0x2 DUP3 DIV SWAP1 POP PUSH1 0x1 DUP3 AND DUP1 PUSH2 0xFD0 JUMPI PUSH1 0x7F DUP3 AND SWAP2 POP JUMPDEST PUSH1 0x20 DUP3 LT DUP2 SUB PUSH2 0xFE3 JUMPI PUSH2 0xFE2 PUSH2 0xF89 JUMP JUMPDEST JUMPDEST POP SWAP2 SWAP1 POP JUMP JUMPDEST PUSH1 0x0 DUP2 SWAP1 POP DUP2 PUSH1 0x0 MSTORE PUSH1 0x20 PUSH1 0x0 KECCAK256 SWAP1 POP SWAP2 SWAP1 POP JUMP JUMPDEST PUSH1 0x0 PUSH1 0x20 PUSH1 0x1F DUP4 ADD DIV SWAP1 POP SWAP2 SWAP1 POP JUMP JUMPDEST PUSH1 0x0 DUP3 DUP3 SHL SWAP1 POP SWAP3 SWAP2 POP POP JUMP JUMPDEST PUSH1 0x0 PUSH1 0x8 DUP4 MUL PUSH2 0x104B PUSH32 0xFFFFFFFFFFFFFFFFFFFFFFFFFFFFFFFFFFFFFFFFFFFFFFFFFFFFFFFFFFFFFFFF DUP3 PUSH2 0x100E JUMP JUMPDEST PUSH2 0x1055 DUP7 DUP4 PUSH2 0x100E JUMP JUMPDEST SWAP6 POP DUP1 NOT DUP5 AND SWAP4 POP DUP1 DUP7 AND DUP5 OR SWAP3 POP POP POP SWAP4 SWAP3 POP POP POP JUMP JUMPDEST PUSH1 0x0 DUP2 SWAP1 POP SWAP2 SWAP1 POP JUMP JUMPDEST PUSH1 0x0 PUSH2 0x1092 PUSH2 0x108D PUSH2 0x1088 DUP5 PUSH2 0x94B JUMP JUMPDEST PUSH2 0x106D JUMP JUMPDEST PUSH2 0x94B JUMP JUMPDEST SWAP1 POP SWAP2 SWAP1 POP JUMP JUMPDEST PUSH1 0x0 DUP2 SWAP1 POP SWAP2 SWAP1 POP JUMP JUMPDEST PUSH2 0x10AC DUP4 PUSH2 0x1077 JUMP JUMPDEST PUSH2 0x10C0 PUSH2 0x10B8 DUP3 PUSH2 0x1099 JUMP JUMPDEST DUP5 DUP5 SLOAD PUSH2 0x101B JUMP JUMPDEST DUP3 SSTORE POP POP POP POP JUMP JUMPDEST PUSH1 0x0 SWAP1 JUMP JUMPDEST PUSH2 0x10D5 PUSH2 0x10C8 JUMP JUMPDEST PUSH2 0x10E0 DUP2 DUP5 DUP5 PUSH2 0x10A3 JUMP JUMPDEST POP POP POP JUMP JUMPDEST JUMPDEST DUP2 DUP2 LT ISZERO PUSH2 0x1104 JUMPI PUSH2 0x10F9 PUSH1 0x0 DUP3 PUSH2 0x10CD JUMP JUMPDEST PUSH1 0x1 DUP2 ADD SWAP1 POP PUSH2 0x10E6 JUMP JUMPDEST POP POP JUMP JUMPDEST PUSH1 0x1F DUP3 GT ISZERO PUSH2 0x1149 JUMPI PUSH2 0x111A DUP2 PUSH2 0xFE9 JUMP JUMPDEST PUSH2 0x1123 DUP5 PUSH2 0xFFE JUMP JUMPDEST DUP2 ADD PUSH1 0x20 DUP6 LT ISZERO PUSH2 0x1132 JUMPI DUP2 SWAP1 POP JUMPDEST PUSH2 0x1146 PUSH2 0x113E DUP6 PUSH2 0xFFE JUMP JUMPDEST DUP4 ADD DUP3 PUSH2 0x10E5 JUMP JUMPDEST POP POP JUMPDEST POP POP POP JUMP JUMPDEST PUSH1 0x0 DUP3 DUP3 SHR SWAP1 POP SWAP3 SWAP2 POP POP JUMP JUMPDEST PUSH1 0x0 PUSH2 0x116C PUSH1 0x0 NOT DUP5 PUSH1 0x8 MUL PUSH2 0x114E JUMP JUMPDEST NOT DUP1 DUP4 AND SWAP2 POP POP SWAP3 SWAP2 POP POP JUMP JUMPDEST PUSH1 0x0 PUSH2 0x1185 DUP4 DUP4 PUSH2 0x115B JUMP JUMPDEST SWAP2 POP DUP3 PUSH1 0x2 MUL DUP3 OR SWAP1 POP SWAP3 SWAP2 POP POP JUMP JUMPDEST PUSH2 0x119E DUP3 PUSH2 0xC3B JUMP JUMPDEST PUSH8 0xFFFFFFFFFFFFFFFF DUP2 GT ISZERO PUSH2 0x11B7 JUMPI PUSH2 0x11B6 PUSH2 0x9AE JUMP JUMPDEST JUMPDEST PUSH2 0x11C1 DUP3 SLOAD PUSH2 0xFB8 JUMP JUMPDEST PUSH2 0x11CC DUP3 DUP3 DUP6 PUSH2 0x1108 JUMP JUMPDEST PUSH1 0x0 PUSH1 0x20 SWAP1 POP PUSH1 0x1F DUP4 GT PUSH1 0x1 DUP2 EQ PUSH2 0x11FF JUMPI PUSH1 0x0 DUP5 ISZERO PUSH2 0x11ED JUMPI DUP3 DUP8 ADD MLOAD SWAP1 POP JUMPDEST PUSH2 0x11F7 DUP6 DUP3 PUSH2 0x1179 JUMP JUMPDEST DUP7 SSTORE POP PUSH2 0x125F JUMP JUMPDEST PUSH1 0x1F NOT DUP5 AND PUSH2 0x120D DUP7 PUSH2 0xFE9 JUMP JUMPDEST PUSH1 0x0 JUMPDEST DUP3 DUP2 LT ISZERO PUSH2 0x1235 JUMPI DUP5 DUP10 ADD MLOAD DUP3 SSTORE PUSH1 0x1 DUP3 ADD SWAP2 POP PUSH1 0x20 DUP6 ADD SWAP5 POP PUSH1 0x20 DUP2 ADD SWAP1 POP PUSH2 0x1210 JUMP JUMPDEST DUP7 DUP4 LT ISZERO PUSH2 0x1252 JUMPI DUP5 DUP10 ADD MLOAD PUSH2 0x124E PUSH1 0x1F DUP10 AND DUP3 PUSH2 0x115B JUMP JUMPDEST DUP4 SSTORE POP JUMPDEST PUSH1 0x1 PUSH1 0x2 DUP9 MUL ADD DUP9 SSTORE POP POP POP JUMPDEST POP POP POP POP POP POP JUMP JUMPDEST PUSH32 0x7A65726F20626F6F6B73206C6566740000000000000000000000000000000000 PUSH1 0x0 DUP3 ADD MSTORE POP JUMP JUMPDEST PUSH1 0x0 PUSH2 0x129D PUSH1 0xF DUP4 PUSH2 0xC46 JUMP JUMPDEST SWAP2 POP PUSH2 0x12A8 DUP3 PUSH2 0x1267 JUMP JUMPDEST PUSH1 0x20 DUP3 ADD SWAP1 POP SWAP2 SWAP1 POP JUMP JUMPDEST PUSH1 0x0 PUSH1 0x20 DUP3 ADD SWAP1 POP DUP2 DUP2 SUB PUSH1 0x0 DUP4 ADD MSTORE PUSH2 0x12CC DUP2 PUSH2 0x1290 JUMP JUMPDEST SWAP1 POP SWAP2 SWAP1 POP JUMP JUMPDEST PUSH1 0x0 PUSH2 0x12DE DUP3 PUSH2 0x94B JUMP JUMPDEST SWAP2 POP PUSH1 0x0 DUP3 SUB PUSH2 0x12F1 JUMPI PUSH2 0x12F0 PUSH2 0xE14 JUMP JUMPDEST JUMPDEST PUSH1 0x1 DUP3 SUB SWAP1 POP SWAP2 SWAP1 POP JUMP JUMPDEST PUSH32 0x4F776E61626C653A206E6577206F776E657220697320746865207A65726F2061 PUSH1 0x0 DUP3 ADD MSTORE PUSH32 0x6464726573730000000000000000000000000000000000000000000000000000 PUSH1 0x20 DUP3 ADD MSTORE POP JUMP JUMPDEST PUSH1 0x0 PUSH2 0x1358 PUSH1 0x26 DUP4 PUSH2 0xC46 JUMP JUMPDEST SWAP2 POP PUSH2 0x1363 DUP3 PUSH2 0x12FC JUMP JUMPDEST PUSH1 0x40 DUP3 ADD SWAP1 POP SWAP2 SWAP1 POP JUMP JUMPDEST PUSH1 0x0 PUSH1 0x20 DUP3 ADD SWAP1 POP DUP2 DUP2 SUB PUSH1 0x0 DUP4 ADD MSTORE PUSH2 0x1387 DUP2 PUSH2 0x134B JUMP JUMPDEST SWAP1 POP SWAP2 SWAP1 POP JUMP JUMPDEST PUSH32 0x4F776E61626C653A2063616C6C6572206973206E6F7420746865206F776E6572 PUSH1 0x0 DUP3 ADD MSTORE POP JUMP JUMPDEST PUSH1 0x0 PUSH2 0x13C4 PUSH1 0x20 DUP4 PUSH2 0xC46 JUMP JUMPDEST SWAP2 POP PUSH2 0x13CF DUP3 PUSH2 0x138E JUMP JUMPDEST PUSH1 0x20 DUP3 ADD SWAP1 POP SWAP2 SWAP1 POP JUMP JUMPDEST PUSH1 0x0 PUSH1 0x20 DUP3 ADD SWAP1 POP DUP2 DUP2 SUB PUSH1 0x0 DUP4 ADD MSTORE PUSH2 0x13F3 DUP2 PUSH2 0x13B7 JUMP JUMPDEST SWAP1 POP SWAP2 SWAP1 POP JUMP INVALID LOG2 PUSH5 0x6970667358 0x22 SLT KECCAK256 PUSH19 0xACFCD3EAE073EAB473743D1F1516D6A1414127 POP 0xEA SUB JUMPDEST RETURNDATASIZE MULMOD LOG3 SWAP15 0xCC 0x1F 0xB0 PUSH14 0x64736F6C634300080F0033000000 "
				},
				"gasEstimates": {
					"creation": {
						"codeDepositCost": "1033600",
						"executionCost": "infinite",
						"totalCost": "infinite"
					},
					"external": {
						"addBook(string,uint256)": "infinite",
						"books(uint256)": "infinite",
						"borrowBook(uint256)": "infinite",
						"count()": "2430",
						"currentlyBorrowing(address)": "2880",
						"indexes(string)": "infinite",
						"owner()": "2566",
						"renounceOwnership()": "30398",
						"returnCurrentBook()": "31930",
						"transferOwnership(address)": "30832"
					}
				},
				"methodIdentifiers": {
					"addBook(string,uint256)": "637a3872",
					"books(uint256)": "68744046",
					"borrowBook(uint256)": "7e490a9e",
					"count()": "06661abd",
					"currentlyBorrowing(address)": "901dec82",
					"indexes(string)": "2427e59e",
					"owner()": "8da5cb5b",
					"renounceOwnership()": "715018a6",
					"returnCurrentBook()": "10319fcc",
					"transferOwnership(address)": "f2fde38b"
				}
			},
			"storageLayout": {
				"storage": [
					{
						"astId": 7,
						"contract": "LimeChainInternship/exercise/Library.sol:Library",
						"label": "_owner",
						"offset": 0,
						"slot": "0",
						"type": "t_address"
					},
					{
						"astId": 157,
						"contract": "LimeChainInternship/exercise/Library.sol:Library",
						"label": "count",
						"offset": 0,
						"slot": "1",
						"type": "t_uint256"
					},
					{
						"astId": 172,
						"contract": "LimeChainInternship/exercise/Library.sol:Library",
						"label": "currentlyBorrowing",
						"offset": 0,
						"slot": "2",
						"type": "t_mapping(t_address,t_uint256)"
					},
					{
						"astId": 176,
						"contract": "LimeChainInternship/exercise/Library.sol:Library",
						"label": "indexes",
						"offset": 0,
						"slot": "3",
						"type": "t_mapping(t_string_memory_ptr,t_uint256)"
					},
					{
						"astId": 181,
						"contract": "LimeChainInternship/exercise/Library.sol:Library",
						"label": "books",
						"offset": 0,
						"slot": "4",
						"type": "t_mapping(t_uint256,t_struct(Book)162_storage)"
					},
					{
						"astId": 187,
						"contract": "LimeChainInternship/exercise/Library.sol:Library",
						"label": "borrowedBooks",
						"offset": 0,
						"slot": "5",
						"type": "t_mapping(t_uint256,t_mapping(t_address,t_bool))"
					}
				],
				"types": {
					"t_address": {
						"encoding": "inplace",
						"label": "address",
						"numberOfBytes": "20"
					},
					"t_bool": {
						"encoding": "inplace",
						"label": "bool",
						"numberOfBytes": "1"
					},
					"t_mapping(t_address,t_bool)": {
						"encoding": "mapping",
						"key": "t_address",
						"label": "mapping(address => bool)",
						"numberOfBytes": "32",
						"value": "t_bool"
					},
					"t_mapping(t_address,t_uint256)": {
						"encoding": "mapping",
						"key": "t_address",
						"label": "mapping(address => uint256)",
						"numberOfBytes": "32",
						"value": "t_uint256"
					},
					"t_mapping(t_string_memory_ptr,t_uint256)": {
						"encoding": "mapping",
						"key": "t_string_memory_ptr",
						"label": "mapping(string => uint256)",
						"numberOfBytes": "32",
						"value": "t_uint256"
					},
					"t_mapping(t_uint256,t_mapping(t_address,t_bool))": {
						"encoding": "mapping",
						"key": "t_uint256",
						"label": "mapping(uint256 => mapping(address => bool))",
						"numberOfBytes": "32",
						"value": "t_mapping(t_address,t_bool)"
					},
					"t_mapping(t_uint256,t_struct(Book)162_storage)": {
						"encoding": "mapping",
						"key": "t_uint256",
						"label": "mapping(uint256 => struct Library.Book)",
						"numberOfBytes": "32",
						"value": "t_struct(Book)162_storage"
					},
					"t_string_memory_ptr": {
						"encoding": "bytes",
						"label": "string",
						"numberOfBytes": "32"
					},
					"t_string_storage": {
						"encoding": "bytes",
						"label": "string",
						"numberOfBytes": "32"
					},
					"t_struct(Book)162_storage": {
						"encoding": "inplace",
						"label": "struct Library.Book",
						"members": [
							{
								"astId": 159,
								"contract": "LimeChainInternship/exercise/Library.sol:Library",
								"label": "name",
								"offset": 0,
								"slot": "0",
								"type": "t_string_storage"
							},
							{
								"astId": 161,
								"contract": "LimeChainInternship/exercise/Library.sol:Library",
								"label": "copies",
								"offset": 0,
								"slot": "1",
								"type": "t_uint256"
							}
						],
						"numberOfBytes": "64"
					},
					"t_uint256": {
						"encoding": "inplace",
						"label": "uint256",
						"numberOfBytes": "32"
					}
				}
			},
			"userdoc": {
				"kind": "user",
				"methods": {},
				"version": 1
			}
		}
	}
}