{
	"LimeChainInternship/exercise/Library.sol": {
		"Library": {
			"abi": [
				{
					"inputs": [],
					"stateMutability": "nonpayable",
					"type": "constructor"
				},
				{
					"inputs": [
						{
							"internalType": "address",
							"name": "user",
							"type": "address"
						}
					],
					"name": "alredyBorrwing",
					"type": "error"
				},
				{
					"anonymous": false,
					"inputs": [
						{
							"indexed": false,
							"internalType": "string",
							"name": "name",
							"type": "string"
						},
						{
							"indexed": false,
							"internalType": "uint256",
							"name": "copies",
							"type": "uint256"
						}
					],
					"name": "addedBook",
					"type": "event"
				},
				{
					"anonymous": false,
					"inputs": [
						{
							"indexed": false,
							"internalType": "string",
							"name": "name",
							"type": "string"
						},
						{
							"indexed": false,
							"internalType": "uint256",
							"name": "copies",
							"type": "uint256"
						}
					],
					"name": "addedCopies",
					"type": "event"
				},
				{
					"inputs": [
						{
							"internalType": "string",
							"name": "_name",
							"type": "string"
						},
						{
							"internalType": "uint256",
							"name": "_copies",
							"type": "uint256"
						}
					],
					"name": "addBook",
					"outputs": [],
					"stateMutability": "nonpayable",
					"type": "function"
				},
				{
					"inputs": [
						{
							"internalType": "uint256",
							"name": "",
							"type": "uint256"
						}
					],
					"name": "books",
					"outputs": [
						{
							"internalType": "string",
							"name": "name",
							"type": "string"
						},
						{
							"internalType": "uint256",
							"name": "copies",
							"type": "uint256"
						}
					],
					"stateMutability": "view",
					"type": "function"
				},
				{
					"inputs": [
						{
							"internalType": "uint256",
							"name": "_index",
							"type": "uint256"
						}
					],
					"name": "borrowBook",
					"outputs": [],
					"stateMutability": "nonpayable",
					"type": "function"
				},
				{
					"inputs": [],
					"name": "count",
					"outputs": [
						{
							"internalType": "uint256",
							"name": "",
							"type": "uint256"
						}
					],
					"stateMutability": "view",
					"type": "function"
				},
				{
					"inputs": [
						{
							"internalType": "address",
							"name": "",
							"type": "address"
						}
					],
					"name": "currentlyBorrowing",
					"outputs": [
						{
							"internalType": "uint256",
							"name": "",
							"type": "uint256"
						}
					],
					"stateMutability": "view",
					"type": "function"
				},
				{
					"inputs": [
						{
							"internalType": "string",
							"name": "",
							"type": "string"
						}
					],
					"name": "indexes",
					"outputs": [
						{
							"internalType": "uint256",
							"name": "",
							"type": "uint256"
						}
					],
					"stateMutability": "view",
					"type": "function"
				},
				{
					"inputs": [],
					"name": "owner",
					"outputs": [
						{
							"internalType": "address",
							"name": "",
							"type": "address"
						}
					],
					"stateMutability": "view",
					"type": "function"
				},
				{
					"inputs": [],
					"name": "returnCurrentBook",
					"outputs": [],
					"stateMutability": "nonpayable",
					"type": "function"
				}
			],
			"devdoc": {
				"kind": "dev",
				"methods": {},
				"version": 1
			},
			"evm": {
				"assembly": "    /* \"LimeChainInternship/exercise/Library.sol\":58:2078  contract Library{... */\n  mstore(0x40, 0xa0)\n    /* \"LimeChainInternship/exercise/Library.sol\":341:389  constructor(){... */\n  callvalue\n  dup1\n  iszero\n  tag_1\n  jumpi\n  0x00\n  dup1\n  revert\ntag_1:\n  pop\n    /* \"LimeChainInternship/exercise/Library.sol\":372:382  msg.sender */\n  caller\n    /* \"LimeChainInternship/exercise/Library.sol\":364:382  owner = msg.sender */\n  0xffffffffffffffffffffffffffffffffffffffff\n  and\n  0x80\n  dup2\n  0xffffffffffffffffffffffffffffffffffffffff\n  and\n  dup2\n  mstore\n  pop\n  pop\n    /* \"LimeChainInternship/exercise/Library.sol\":58:2078  contract Library{... */\n  mload(0x80)\n  codecopy(0x00, dataOffset(sub_0), dataSize(sub_0))\n  0x00\n  assignImmutable(\"0x939eb54753ed0cc7e2272bfb34cbe098308c93936ed54d79078f76ade0b2e789\")\n  return(0x00, dataSize(sub_0))\nstop\n\nsub_0: assembly {\n        /* \"LimeChainInternship/exercise/Library.sol\":58:2078  contract Library{... */\n      mstore(0x40, 0x80)\n      callvalue\n      dup1\n      iszero\n      tag_1\n      jumpi\n      0x00\n      dup1\n      revert\n    tag_1:\n      pop\n      jumpi(tag_2, lt(calldatasize, 0x04))\n      shr(0xe0, calldataload(0x00))\n      dup1\n      0x68744046\n      gt\n      tag_11\n      jumpi\n      dup1\n      0x68744046\n      eq\n      tag_7\n      jumpi\n      dup1\n      0x7e490a9e\n      eq\n      tag_8\n      jumpi\n      dup1\n      0x8da5cb5b\n      eq\n      tag_9\n      jumpi\n      dup1\n      0x901dec82\n      eq\n      tag_10\n      jumpi\n      jump(tag_2)\n    tag_11:\n      dup1\n      0x06661abd\n      eq\n      tag_3\n      jumpi\n      dup1\n      0x10319fcc\n      eq\n      tag_4\n      jumpi\n      dup1\n      0x2427e59e\n      eq\n      tag_5\n      jumpi\n      dup1\n      0x637a3872\n      eq\n      tag_6\n      jumpi\n    tag_2:\n      0x00\n      dup1\n      revert\n        /* \"LimeChainInternship/exercise/Library.sol\":252:269  uint public count */\n    tag_3:\n      tag_12\n      tag_13\n      jump\t// in\n    tag_12:\n      mload(0x40)\n      tag_14\n      swap2\n      swap1\n      tag_15\n      jump\t// in\n    tag_14:\n      mload(0x40)\n      dup1\n      swap2\n      sub\n      swap1\n      return\n        /* \"LimeChainInternship/exercise/Library.sol\":1862:2075  function returnCurrentBook()external{... */\n    tag_4:\n      tag_16\n      tag_17\n      jump\t// in\n    tag_16:\n      stop\n        /* \"LimeChainInternship/exercise/Library.sol\":519:557  mapping(string => uint) public indexes */\n    tag_5:\n      tag_18\n      0x04\n      dup1\n      calldatasize\n      sub\n      dup2\n      add\n      swap1\n      tag_19\n      swap2\n      swap1\n      tag_20\n      jump\t// in\n    tag_19:\n      tag_21\n      jump\t// in\n    tag_18:\n      mload(0x40)\n      tag_22\n      swap2\n      swap1\n      tag_15\n      jump\t// in\n    tag_22:\n      mload(0x40)\n      dup1\n      swap2\n      sub\n      swap1\n      return\n        /* \"LimeChainInternship/exercise/Library.sol\":813:1231  function addBook(string calldata _name, uint _copies) external onlyAdmin{... */\n    tag_6:\n      tag_23\n      0x04\n      dup1\n      calldatasize\n      sub\n      dup2\n      add\n      swap1\n      tag_24\n      swap2\n      swap1\n      tag_25\n      jump\t// in\n    tag_24:\n      tag_26\n      jump\t// in\n    tag_23:\n      stop\n        /* \"LimeChainInternship/exercise/Library.sol\":583:617  mapping(uint => Book) public books */\n    tag_7:\n      tag_27\n      0x04\n      dup1\n      calldatasize\n      sub\n      dup2\n      add\n      swap1\n      tag_28\n      swap2\n      swap1\n      tag_29\n      jump\t// in\n    tag_28:\n      tag_30\n      jump\t// in\n    tag_27:\n      mload(0x40)\n      tag_31\n      swap3\n      swap2\n      swap1\n      tag_32\n      jump\t// in\n    tag_31:\n      mload(0x40)\n      dup1\n      swap2\n      sub\n      swap1\n      return\n        /* \"LimeChainInternship/exercise/Library.sol\":1237:1856  function borrowBook(uint _index) external {... */\n    tag_8:\n      tag_33\n      0x04\n      dup1\n      calldatasize\n      sub\n      dup2\n      add\n      swap1\n      tag_34\n      swap2\n      swap1\n      tag_29\n      jump\t// in\n    tag_34:\n      tag_35\n      jump\t// in\n    tag_33:\n      stop\n        /* \"LimeChainInternship/exercise/Library.sol\":216:246  address immutable public owner */\n    tag_9:\n      tag_36\n      tag_37\n      jump\t// in\n    tag_36:\n      mload(0x40)\n      tag_38\n      swap2\n      swap1\n      tag_39\n      jump\t// in\n    tag_38:\n      mload(0x40)\n      dup1\n      swap2\n      sub\n      swap1\n      return\n        /* \"LimeChainInternship/exercise/Library.sol\":438:488  mapping(address => uint) public currentlyBorrowing */\n    tag_10:\n      tag_40\n      0x04\n      dup1\n      calldatasize\n      sub\n      dup2\n      add\n      swap1\n      tag_41\n      swap2\n      swap1\n      tag_42\n      jump\t// in\n    tag_41:\n      tag_43\n      jump\t// in\n    tag_40:\n      mload(0x40)\n      tag_44\n      swap2\n      swap1\n      tag_15\n      jump\t// in\n    tag_44:\n      mload(0x40)\n      dup1\n      swap2\n      sub\n      swap1\n      return\n        /* \"LimeChainInternship/exercise/Library.sol\":252:269  uint public count */\n    tag_13:\n      sload(0x00)\n      dup2\n      jump\t// out\n        /* \"LimeChainInternship/exercise/Library.sol\":1862:2075  function returnCurrentBook()external{... */\n    tag_17:\n        /* \"LimeChainInternship/exercise/Library.sol\":1908:1919  uint _index */\n      0x00\n        /* \"LimeChainInternship/exercise/Library.sol\":1922:1940  currentlyBorrowing */\n      0x01\n        /* \"LimeChainInternship/exercise/Library.sol\":1922:1952  currentlyBorrowing[msg.sender] */\n      0x00\n        /* \"LimeChainInternship/exercise/Library.sol\":1941:1951  msg.sender */\n      caller\n        /* \"LimeChainInternship/exercise/Library.sol\":1922:1952  currentlyBorrowing[msg.sender] */\n      0xffffffffffffffffffffffffffffffffffffffff\n      and\n      0xffffffffffffffffffffffffffffffffffffffff\n      and\n      dup2\n      mstore\n      0x20\n      add\n      swap1\n      dup2\n      mstore\n      0x20\n      add\n      0x00\n      keccak256\n      sload\n        /* \"LimeChainInternship/exercise/Library.sol\":1908:1952  uint _index = currentlyBorrowing[msg.sender] */\n      swap1\n      pop\n        /* \"LimeChainInternship/exercise/Library.sol\":1977:1978  0 */\n      0x00\n        /* \"LimeChainInternship/exercise/Library.sol\":1970:1976  _index */\n      dup2\n        /* \"LimeChainInternship/exercise/Library.sol\":1970:1978  _index>0 */\n      gt\n        /* \"LimeChainInternship/exercise/Library.sol\":1962:1994  require(_index>0,\"not borrowng\") */\n      tag_46\n      jumpi\n      mload(0x40)\n      0x08c379a000000000000000000000000000000000000000000000000000000000\n      dup2\n      mstore\n      0x04\n      add\n      tag_47\n      swap1\n      tag_48\n      jump\t// in\n    tag_47:\n      mload(0x40)\n      dup1\n      swap2\n      sub\n      swap1\n      revert\n    tag_46:\n        /* \"LimeChainInternship/exercise/Library.sol\":2035:2036  0 */\n      0x00\n        /* \"LimeChainInternship/exercise/Library.sol\":2004:2022  currentlyBorrowing */\n      0x01\n        /* \"LimeChainInternship/exercise/Library.sol\":2004:2034  currentlyBorrowing[msg.sender] */\n      0x00\n        /* \"LimeChainInternship/exercise/Library.sol\":2023:2033  msg.sender */\n      caller\n        /* \"LimeChainInternship/exercise/Library.sol\":2004:2034  currentlyBorrowing[msg.sender] */\n      0xffffffffffffffffffffffffffffffffffffffff\n      and\n      0xffffffffffffffffffffffffffffffffffffffff\n      and\n      dup2\n      mstore\n      0x20\n      add\n      swap1\n      dup2\n      mstore\n      0x20\n      add\n      0x00\n      keccak256\n        /* \"LimeChainInternship/exercise/Library.sol\":2004:2036  currentlyBorrowing[msg.sender]=0 */\n      dup2\n      swap1\n      sstore\n      pop\n        /* \"LimeChainInternship/exercise/Library.sol\":2048:2053  books */\n      0x03\n        /* \"LimeChainInternship/exercise/Library.sol\":2048:2061  books[_index] */\n      0x00\n        /* \"LimeChainInternship/exercise/Library.sol\":2054:2060  _index */\n      dup3\n        /* \"LimeChainInternship/exercise/Library.sol\":2048:2061  books[_index] */\n      dup2\n      mstore\n      0x20\n      add\n      swap1\n      dup2\n      mstore\n      0x20\n      add\n      0x00\n      keccak256\n        /* \"LimeChainInternship/exercise/Library.sol\":2048:2068  books[_index].copies */\n      0x01\n      add\n      0x00\n        /* \"LimeChainInternship/exercise/Library.sol\":2046:2068  ++books[_index].copies */\n      dup2\n      sload\n      tag_49\n      swap1\n      tag_50\n      jump\t// in\n    tag_49:\n      swap2\n      swap1\n      pop\n      dup2\n      swap1\n      sstore\n      pop\n        /* \"LimeChainInternship/exercise/Library.sol\":1898:2075  {... */\n      pop\n        /* \"LimeChainInternship/exercise/Library.sol\":1862:2075  function returnCurrentBook()external{... */\n      jump\t// out\n        /* \"LimeChainInternship/exercise/Library.sol\":519:557  mapping(string => uint) public indexes */\n    tag_21:\n      0x02\n      dup2\n      dup1\n      mload\n      0x20\n      dup2\n      add\n      dup3\n      add\n      dup1\n      mload\n      dup5\n      dup3\n      mstore\n      0x20\n      dup4\n      add\n      0x20\n      dup6\n      add\n      keccak256\n      dup2\n      dup4\n      mstore\n      dup1\n      swap6\n      pop\n      pop\n      pop\n      pop\n      pop\n      pop\n      0x00\n      swap2\n      pop\n      swap1\n      pop\n      sload\n      dup2\n      jump\t// out\n        /* \"LimeChainInternship/exercise/Library.sol\":813:1231  function addBook(string calldata _name, uint _copies) external onlyAdmin{... */\n    tag_26:\n        /* \"LimeChainInternship/exercise/Library.sol\":772:777  owner */\n      immutable(\"0x939eb54753ed0cc7e2272bfb34cbe098308c93936ed54d79078f76ade0b2e789\")\n        /* \"LimeChainInternship/exercise/Library.sol\":758:777  msg.sender == owner */\n      0xffffffffffffffffffffffffffffffffffffffff\n      and\n        /* \"LimeChainInternship/exercise/Library.sol\":758:768  msg.sender */\n      caller\n        /* \"LimeChainInternship/exercise/Library.sol\":758:777  msg.sender == owner */\n      0xffffffffffffffffffffffffffffffffffffffff\n      and\n      eq\n        /* \"LimeChainInternship/exercise/Library.sol\":750:790  require(msg.sender == owner,\"not owner\") */\n      tag_52\n      jumpi\n      mload(0x40)\n      0x08c379a000000000000000000000000000000000000000000000000000000000\n      dup2\n      mstore\n      0x04\n      add\n      tag_53\n      swap1\n      tag_54\n      jump\t// in\n    tag_53:\n      mload(0x40)\n      dup1\n      swap2\n      sub\n      swap1\n      revert\n    tag_52:\n        /* \"LimeChainInternship/exercise/Library.sol\":916:917  0 */\n      0x00\n        /* \"LimeChainInternship/exercise/Library.sol\":900:907  indexes */\n      0x02\n        /* \"LimeChainInternship/exercise/Library.sol\":908:913  _name */\n      dup5\n      dup5\n        /* \"LimeChainInternship/exercise/Library.sol\":900:914  indexes[_name] */\n      mload(0x40)\n      tag_56\n      swap3\n      swap2\n      swap1\n      tag_57\n      jump\t// in\n    tag_56:\n      swap1\n      dup2\n      mstore\n      0x20\n      add\n      mload(0x40)\n      dup1\n      swap2\n      sub\n      swap1\n      keccak256\n      sload\n        /* \"LimeChainInternship/exercise/Library.sol\":900:917  indexes[_name]!=0 */\n      eq\n        /* \"LimeChainInternship/exercise/Library.sol\":896:1225  if( indexes[_name]!=0){... */\n      tag_58\n      jumpi\n        /* \"LimeChainInternship/exercise/Library.sol\":962:969  _copies */\n      dup1\n        /* \"LimeChainInternship/exercise/Library.sol\":932:937  books */\n      0x03\n        /* \"LimeChainInternship/exercise/Library.sol\":932:953  books[indexes[_name]] */\n      0x00\n        /* \"LimeChainInternship/exercise/Library.sol\":938:945  indexes */\n      0x02\n        /* \"LimeChainInternship/exercise/Library.sol\":946:951  _name */\n      dup7\n      dup7\n        /* \"LimeChainInternship/exercise/Library.sol\":938:952  indexes[_name] */\n      mload(0x40)\n      tag_59\n      swap3\n      swap2\n      swap1\n      tag_57\n      jump\t// in\n    tag_59:\n      swap1\n      dup2\n      mstore\n      0x20\n      add\n      mload(0x40)\n      dup1\n      swap2\n      sub\n      swap1\n      keccak256\n      sload\n        /* \"LimeChainInternship/exercise/Library.sol\":932:953  books[indexes[_name]] */\n      dup2\n      mstore\n      0x20\n      add\n      swap1\n      dup2\n      mstore\n      0x20\n      add\n      0x00\n      keccak256\n        /* \"LimeChainInternship/exercise/Library.sol\":932:960  books[indexes[_name]].copies */\n      0x01\n      add\n      0x00\n        /* \"LimeChainInternship/exercise/Library.sol\":932:969  books[indexes[_name]].copies+=_copies */\n      dup3\n      dup3\n      sload\n      tag_60\n      swap2\n      swap1\n      tag_61\n      jump\t// in\n    tag_60:\n      swap3\n      pop\n      pop\n      dup2\n      swap1\n      sstore\n      pop\n        /* \"LimeChainInternship/exercise/Library.sol\":988:1014  addedCopies(_name,_copies) */\n      0x1c59ae2fc2d4d8fd587dd73c1193e81642fde8135d41b10c3325d3d1985f05ab\n        /* \"LimeChainInternship/exercise/Library.sol\":1000:1005  _name */\n      dup4\n      dup4\n        /* \"LimeChainInternship/exercise/Library.sol\":1006:1013  _copies */\n      dup4\n        /* \"LimeChainInternship/exercise/Library.sol\":988:1014  addedCopies(_name,_copies) */\n      mload(0x40)\n      tag_62\n      swap4\n      swap3\n      swap2\n      swap1\n      tag_63\n      jump\t// in\n    tag_62:\n      mload(0x40)\n      dup1\n      swap2\n      sub\n      swap1\n      log1\n        /* \"LimeChainInternship/exercise/Library.sol\":1028:1035  return; */\n      jump(tag_55)\n        /* \"LimeChainInternship/exercise/Library.sol\":896:1225  if( indexes[_name]!=0){... */\n    tag_58:\n        /* \"LimeChainInternship/exercise/Library.sol\":1065:1070  count */\n      0x00\n      dup1\n        /* \"LimeChainInternship/exercise/Library.sol\":1063:1070  ++count */\n      dup2\n      sload\n      tag_65\n      swap1\n      tag_50\n      jump\t// in\n    tag_65:\n      swap2\n      swap1\n      pop\n      dup2\n      swap1\n      sstore\n      pop\n        /* \"LimeChainInternship/exercise/Library.sol\":1099:1135  Book({name: _name, copies: _copies}) */\n      mload(0x40)\n      dup1\n      0x40\n      add\n      0x40\n      mstore\n      dup1\n        /* \"LimeChainInternship/exercise/Library.sol\":1111:1116  _name */\n      dup5\n      dup5\n        /* \"LimeChainInternship/exercise/Library.sol\":1099:1135  Book({name: _name, copies: _copies}) */\n      dup1\n      dup1\n      0x1f\n      add\n      0x20\n      dup1\n      swap2\n      div\n      mul\n      0x20\n      add\n      mload(0x40)\n      swap1\n      dup2\n      add\n      0x40\n      mstore\n      dup1\n      swap4\n      swap3\n      swap2\n      swap1\n      dup2\n      dup2\n      mstore\n      0x20\n      add\n      dup4\n      dup4\n      dup1\n      dup3\n      dup5\n      calldatacopy\n      0x00\n      dup2\n      dup5\n      add\n      mstore\n      not(0x1f)\n      0x1f\n      dup3\n      add\n      and\n      swap1\n      pop\n      dup1\n      dup4\n      add\n      swap3\n      pop\n      pop\n      pop\n      pop\n      pop\n      pop\n      pop\n      dup2\n      mstore\n      0x20\n      add\n        /* \"LimeChainInternship/exercise/Library.sol\":1126:1133  _copies */\n      dup3\n        /* \"LimeChainInternship/exercise/Library.sol\":1099:1135  Book({name: _name, copies: _copies}) */\n      dup2\n      mstore\n      pop\n        /* \"LimeChainInternship/exercise/Library.sol\":1084:1089  books */\n      0x03\n        /* \"LimeChainInternship/exercise/Library.sol\":1084:1096  books[count] */\n      0x00\n        /* \"LimeChainInternship/exercise/Library.sol\":1090:1095  count */\n      dup1\n      sload\n        /* \"LimeChainInternship/exercise/Library.sol\":1084:1096  books[count] */\n      dup2\n      mstore\n      0x20\n      add\n      swap1\n      dup2\n      mstore\n      0x20\n      add\n      0x00\n      keccak256\n        /* \"LimeChainInternship/exercise/Library.sol\":1084:1135  books[count] = Book({name: _name, copies: _copies}) */\n      0x00\n      dup3\n      add\n      mload\n      dup2\n      0x00\n      add\n      swap1\n      dup2\n      tag_66\n      swap2\n      swap1\n      tag_67\n      jump\t// in\n    tag_66:\n      pop\n      0x20\n      dup3\n      add\n      mload\n      dup2\n      0x01\n      add\n      sstore\n      swap1\n      pop\n      pop\n        /* \"LimeChainInternship/exercise/Library.sol\":1166:1171  count */\n      sload(0x00)\n        /* \"LimeChainInternship/exercise/Library.sol\":1149:1156  indexes */\n      0x02\n        /* \"LimeChainInternship/exercise/Library.sol\":1157:1162  _name */\n      dup5\n      dup5\n        /* \"LimeChainInternship/exercise/Library.sol\":1149:1163  indexes[_name] */\n      mload(0x40)\n      tag_68\n      swap3\n      swap2\n      swap1\n      tag_57\n      jump\t// in\n    tag_68:\n      swap1\n      dup2\n      mstore\n      0x20\n      add\n      mload(0x40)\n      dup1\n      swap2\n      sub\n      swap1\n      keccak256\n        /* \"LimeChainInternship/exercise/Library.sol\":1149:1171  indexes[_name] = count */\n      dup2\n      swap1\n      sstore\n      pop\n        /* \"LimeChainInternship/exercise/Library.sol\":1190:1214  addedBook(_name,_copies) */\n      0x5e5c09fb592e65b4897c25cb4a0597b46a9df6a8a9c1ace81148602e3166dfd4\n        /* \"LimeChainInternship/exercise/Library.sol\":1200:1205  _name */\n      dup4\n      dup4\n        /* \"LimeChainInternship/exercise/Library.sol\":1206:1213  _copies */\n      dup4\n        /* \"LimeChainInternship/exercise/Library.sol\":1190:1214  addedBook(_name,_copies) */\n      mload(0x40)\n      tag_69\n      swap4\n      swap3\n      swap2\n      swap1\n      tag_63\n      jump\t// in\n    tag_69:\n      mload(0x40)\n      dup1\n      swap2\n      sub\n      swap1\n      log1\n        /* \"LimeChainInternship/exercise/Library.sol\":800:801  _ */\n    tag_55:\n        /* \"LimeChainInternship/exercise/Library.sol\":813:1231  function addBook(string calldata _name, uint _copies) external onlyAdmin{... */\n      pop\n      pop\n      pop\n      jump\t// out\n        /* \"LimeChainInternship/exercise/Library.sol\":583:617  mapping(uint => Book) public books */\n    tag_30:\n      mstore(0x20, 0x03)\n      dup1\n      0x00\n      mstore\n      keccak256(0x00, 0x40)\n      0x00\n      swap2\n      pop\n      swap1\n      pop\n      dup1\n      0x00\n      add\n      dup1\n      sload\n      tag_70\n      swap1\n      tag_71\n      jump\t// in\n    tag_70:\n      dup1\n      0x1f\n      add\n      0x20\n      dup1\n      swap2\n      div\n      mul\n      0x20\n      add\n      mload(0x40)\n      swap1\n      dup2\n      add\n      0x40\n      mstore\n      dup1\n      swap3\n      swap2\n      swap1\n      dup2\n      dup2\n      mstore\n      0x20\n      add\n      dup3\n      dup1\n      sload\n      tag_72\n      swap1\n      tag_71\n      jump\t// in\n    tag_72:\n      dup1\n      iszero\n      tag_73\n      jumpi\n      dup1\n      0x1f\n      lt\n      tag_74\n      jumpi\n      0x0100\n      dup1\n      dup4\n      sload\n      div\n      mul\n      dup4\n      mstore\n      swap2\n      0x20\n      add\n      swap2\n      jump(tag_73)\n    tag_74:\n      dup3\n      add\n      swap2\n      swap1\n      0x00\n      mstore\n      keccak256(0x00, 0x20)\n      swap1\n    tag_75:\n      dup2\n      sload\n      dup2\n      mstore\n      swap1\n      0x01\n      add\n      swap1\n      0x20\n      add\n      dup1\n      dup4\n      gt\n      tag_75\n      jumpi\n      dup3\n      swap1\n      sub\n      0x1f\n      and\n      dup3\n      add\n      swap2\n    tag_73:\n      pop\n      pop\n      pop\n      pop\n      pop\n      swap1\n      dup1\n      0x01\n      add\n      sload\n      swap1\n      pop\n      dup3\n      jump\t// out\n        /* \"LimeChainInternship/exercise/Library.sol\":1237:1856  function borrowBook(uint _index) external {... */\n    tag_35:\n        /* \"LimeChainInternship/exercise/Library.sol\":1422:1423  0 */\n      0x00\n        /* \"LimeChainInternship/exercise/Library.sol\":1391:1409  currentlyBorrowing */\n      0x01\n        /* \"LimeChainInternship/exercise/Library.sol\":1391:1421  currentlyBorrowing[msg.sender] */\n      0x00\n        /* \"LimeChainInternship/exercise/Library.sol\":1410:1420  msg.sender */\n      caller\n        /* \"LimeChainInternship/exercise/Library.sol\":1391:1421  currentlyBorrowing[msg.sender] */\n      0xffffffffffffffffffffffffffffffffffffffff\n      and\n      0xffffffffffffffffffffffffffffffffffffffff\n      and\n      dup2\n      mstore\n      0x20\n      add\n      swap1\n      dup2\n      mstore\n      0x20\n      add\n      0x00\n      keccak256\n      sload\n        /* \"LimeChainInternship/exercise/Library.sol\":1391:1423  currentlyBorrowing[msg.sender]>0 */\n      gt\n        /* \"LimeChainInternship/exercise/Library.sol\":1388:1482  if(currentlyBorrowing[msg.sender]>0){... */\n      iszero\n      tag_77\n      jumpi\n        /* \"LimeChainInternship/exercise/Library.sol\":1460:1470  msg.sender */\n      caller\n        /* \"LimeChainInternship/exercise/Library.sol\":1445:1471  alredyBorrwing(msg.sender) */\n      mload(0x40)\n      0xaf162d1b00000000000000000000000000000000000000000000000000000000\n      dup2\n      mstore\n      0x04\n      add\n      tag_78\n      swap2\n      swap1\n      tag_39\n      jump\t// in\n    tag_78:\n      mload(0x40)\n      dup1\n      swap2\n      sub\n      swap1\n      revert\n        /* \"LimeChainInternship/exercise/Library.sol\":1388:1482  if(currentlyBorrowing[msg.sender]>0){... */\n    tag_77:\n        /* \"LimeChainInternship/exercise/Library.sol\":1559:1573  Book storage b */\n      0x00\n        /* \"LimeChainInternship/exercise/Library.sol\":1576:1581  books */\n      0x03\n        /* \"LimeChainInternship/exercise/Library.sol\":1576:1589  books[_index] */\n      0x00\n        /* \"LimeChainInternship/exercise/Library.sol\":1582:1588  _index */\n      dup4\n        /* \"LimeChainInternship/exercise/Library.sol\":1576:1589  books[_index] */\n      dup2\n      mstore\n      0x20\n      add\n      swap1\n      dup2\n      mstore\n      0x20\n      add\n      0x00\n      keccak256\n        /* \"LimeChainInternship/exercise/Library.sol\":1559:1589  Book storage b = books[_index] */\n      swap1\n      pop\n        /* \"LimeChainInternship/exercise/Library.sol\":1648:1649  0 */\n      0x00\n        /* \"LimeChainInternship/exercise/Library.sol\":1639:1640  b */\n      dup2\n        /* \"LimeChainInternship/exercise/Library.sol\":1639:1647  b.copies */\n      0x01\n      add\n      sload\n        /* \"LimeChainInternship/exercise/Library.sol\":1639:1649  b.copies>0 */\n      gt\n        /* \"LimeChainInternship/exercise/Library.sol\":1631:1668  require(b.copies>0,\"zero books left\") */\n      tag_79\n      jumpi\n      mload(0x40)\n      0x08c379a000000000000000000000000000000000000000000000000000000000\n      dup2\n      mstore\n      0x04\n      add\n      tag_80\n      swap1\n      tag_81\n      jump\t// in\n    tag_80:\n      mload(0x40)\n      dup1\n      swap2\n      sub\n      swap1\n      revert\n    tag_79:\n        /* \"LimeChainInternship/exercise/Library.sol\":1680:1681  b */\n      dup1\n        /* \"LimeChainInternship/exercise/Library.sol\":1680:1688  b.copies */\n      0x01\n      add\n      0x00\n        /* \"LimeChainInternship/exercise/Library.sol\":1678:1688  --b.copies */\n      dup2\n      sload\n      tag_82\n      swap1\n      tag_83\n      jump\t// in\n    tag_82:\n      swap2\n      swap1\n      pop\n      dup2\n      swap1\n      sstore\n      pop\n        /* \"LimeChainInternship/exercise/Library.sol\":1763:1769  _index */\n      dup2\n        /* \"LimeChainInternship/exercise/Library.sol\":1730:1748  currentlyBorrowing */\n      0x01\n        /* \"LimeChainInternship/exercise/Library.sol\":1730:1760  currentlyBorrowing[msg.sender] */\n      0x00\n        /* \"LimeChainInternship/exercise/Library.sol\":1749:1759  msg.sender */\n      caller\n        /* \"LimeChainInternship/exercise/Library.sol\":1730:1760  currentlyBorrowing[msg.sender] */\n      0xffffffffffffffffffffffffffffffffffffffff\n      and\n      0xffffffffffffffffffffffffffffffffffffffff\n      and\n      dup2\n      mstore\n      0x20\n      add\n      swap1\n      dup2\n      mstore\n      0x20\n      add\n      0x00\n      keccak256\n        /* \"LimeChainInternship/exercise/Library.sol\":1730:1769  currentlyBorrowing[msg.sender] = _index */\n      dup2\n      swap1\n      sstore\n      pop\n        /* \"LimeChainInternship/exercise/Library.sol\":1845:1849  true */\n      0x01\n        /* \"LimeChainInternship/exercise/Library.sol\":1811:1824  borrowedBooks */\n      0x04\n        /* \"LimeChainInternship/exercise/Library.sol\":1811:1832  borrowedBooks[_index] */\n      0x00\n        /* \"LimeChainInternship/exercise/Library.sol\":1825:1831  _index */\n      dup5\n        /* \"LimeChainInternship/exercise/Library.sol\":1811:1832  borrowedBooks[_index] */\n      dup2\n      mstore\n      0x20\n      add\n      swap1\n      dup2\n      mstore\n      0x20\n      add\n      0x00\n      keccak256\n        /* \"LimeChainInternship/exercise/Library.sol\":1811:1844  borrowedBooks[_index][msg.sender] */\n      0x00\n        /* \"LimeChainInternship/exercise/Library.sol\":1833:1843  msg.sender */\n      caller\n        /* \"LimeChainInternship/exercise/Library.sol\":1811:1844  borrowedBooks[_index][msg.sender] */\n      0xffffffffffffffffffffffffffffffffffffffff\n      and\n      0xffffffffffffffffffffffffffffffffffffffff\n      and\n      dup2\n      mstore\n      0x20\n      add\n      swap1\n      dup2\n      mstore\n      0x20\n      add\n      0x00\n      keccak256\n      0x00\n        /* \"LimeChainInternship/exercise/Library.sol\":1811:1849  borrowedBooks[_index][msg.sender]=true */\n      0x0100\n      exp\n      dup2\n      sload\n      dup2\n      0xff\n      mul\n      not\n      and\n      swap1\n      dup4\n      iszero\n      iszero\n      mul\n      or\n      swap1\n      sstore\n      pop\n        /* \"LimeChainInternship/exercise/Library.sol\":1279:1856  {... */\n      pop\n        /* \"LimeChainInternship/exercise/Library.sol\":1237:1856  function borrowBook(uint _index) external {... */\n      pop\n      jump\t// out\n        /* \"LimeChainInternship/exercise/Library.sol\":216:246  address immutable public owner */\n    tag_37:\n      immutable(\"0x939eb54753ed0cc7e2272bfb34cbe098308c93936ed54d79078f76ade0b2e789\")\n      dup2\n      jump\t// out\n        /* \"LimeChainInternship/exercise/Library.sol\":438:488  mapping(address => uint) public currentlyBorrowing */\n    tag_43:\n      mstore(0x20, 0x01)\n      dup1\n      0x00\n      mstore\n      keccak256(0x00, 0x40)\n      0x00\n      swap2\n      pop\n      swap1\n      pop\n      sload\n      dup2\n      jump\t// out\n        /* \"#utility.yul\":7:84   */\n    tag_84:\n        /* \"#utility.yul\":44:51   */\n      0x00\n        /* \"#utility.yul\":73:78   */\n      dup2\n        /* \"#utility.yul\":62:78   */\n      swap1\n      pop\n        /* \"#utility.yul\":7:84   */\n      swap2\n      swap1\n      pop\n      jump\t// out\n        /* \"#utility.yul\":90:208   */\n    tag_85:\n        /* \"#utility.yul\":177:201   */\n      tag_142\n        /* \"#utility.yul\":195:200   */\n      dup2\n        /* \"#utility.yul\":177:201   */\n      tag_84\n      jump\t// in\n    tag_142:\n        /* \"#utility.yul\":172:175   */\n      dup3\n        /* \"#utility.yul\":165:202   */\n      mstore\n        /* \"#utility.yul\":90:208   */\n      pop\n      pop\n      jump\t// out\n        /* \"#utility.yul\":214:436   */\n    tag_15:\n        /* \"#utility.yul\":307:311   */\n      0x00\n        /* \"#utility.yul\":345:347   */\n      0x20\n        /* \"#utility.yul\":334:343   */\n      dup3\n        /* \"#utility.yul\":330:348   */\n      add\n        /* \"#utility.yul\":322:348   */\n      swap1\n      pop\n        /* \"#utility.yul\":358:429   */\n      tag_144\n        /* \"#utility.yul\":426:427   */\n      0x00\n        /* \"#utility.yul\":415:424   */\n      dup4\n        /* \"#utility.yul\":411:428   */\n      add\n        /* \"#utility.yul\":402:408   */\n      dup5\n        /* \"#utility.yul\":358:429   */\n      tag_85\n      jump\t// in\n    tag_144:\n        /* \"#utility.yul\":214:436   */\n      swap3\n      swap2\n      pop\n      pop\n      jump\t// out\n        /* \"#utility.yul\":442:517   */\n    tag_86:\n        /* \"#utility.yul\":475:481   */\n      0x00\n        /* \"#utility.yul\":508:510   */\n      0x40\n        /* \"#utility.yul\":502:511   */\n      mload\n        /* \"#utility.yul\":492:511   */\n      swap1\n      pop\n        /* \"#utility.yul\":442:517   */\n      swap1\n      jump\t// out\n        /* \"#utility.yul\":523:640   */\n    tag_87:\n        /* \"#utility.yul\":632:633   */\n      0x00\n        /* \"#utility.yul\":629:630   */\n      dup1\n        /* \"#utility.yul\":622:634   */\n      revert\n        /* \"#utility.yul\":646:763   */\n    tag_88:\n        /* \"#utility.yul\":755:756   */\n      0x00\n        /* \"#utility.yul\":752:753   */\n      dup1\n        /* \"#utility.yul\":745:757   */\n      revert\n        /* \"#utility.yul\":769:886   */\n    tag_89:\n        /* \"#utility.yul\":878:879   */\n      0x00\n        /* \"#utility.yul\":875:876   */\n      dup1\n        /* \"#utility.yul\":868:880   */\n      revert\n        /* \"#utility.yul\":892:1009   */\n    tag_90:\n        /* \"#utility.yul\":1001:1002   */\n      0x00\n        /* \"#utility.yul\":998:999   */\n      dup1\n        /* \"#utility.yul\":991:1003   */\n      revert\n        /* \"#utility.yul\":1015:1117   */\n    tag_91:\n        /* \"#utility.yul\":1056:1062   */\n      0x00\n        /* \"#utility.yul\":1107:1109   */\n      0x1f\n        /* \"#utility.yul\":1103:1110   */\n      not\n        /* \"#utility.yul\":1098:1100   */\n      0x1f\n        /* \"#utility.yul\":1091:1096   */\n      dup4\n        /* \"#utility.yul\":1087:1101   */\n      add\n        /* \"#utility.yul\":1083:1111   */\n      and\n        /* \"#utility.yul\":1073:1111   */\n      swap1\n      pop\n        /* \"#utility.yul\":1015:1117   */\n      swap2\n      swap1\n      pop\n      jump\t// out\n        /* \"#utility.yul\":1123:1303   */\n    tag_92:\n        /* \"#utility.yul\":1171:1248   */\n      0x4e487b7100000000000000000000000000000000000000000000000000000000\n        /* \"#utility.yul\":1168:1169   */\n      0x00\n        /* \"#utility.yul\":1161:1249   */\n      mstore\n        /* \"#utility.yul\":1268:1272   */\n      0x41\n        /* \"#utility.yul\":1265:1266   */\n      0x04\n        /* \"#utility.yul\":1258:1273   */\n      mstore\n        /* \"#utility.yul\":1292:1296   */\n      0x24\n        /* \"#utility.yul\":1289:1290   */\n      0x00\n        /* \"#utility.yul\":1282:1297   */\n      revert\n        /* \"#utility.yul\":1309:1590   */\n    tag_93:\n        /* \"#utility.yul\":1392:1419   */\n      tag_153\n        /* \"#utility.yul\":1414:1418   */\n      dup3\n        /* \"#utility.yul\":1392:1419   */\n      tag_91\n      jump\t// in\n    tag_153:\n        /* \"#utility.yul\":1384:1390   */\n      dup2\n        /* \"#utility.yul\":1380:1420   */\n      add\n        /* \"#utility.yul\":1522:1528   */\n      dup2\n        /* \"#utility.yul\":1510:1520   */\n      dup2\n        /* \"#utility.yul\":1507:1529   */\n      lt\n        /* \"#utility.yul\":1486:1504   */\n      0xffffffffffffffff\n        /* \"#utility.yul\":1474:1484   */\n      dup3\n        /* \"#utility.yul\":1471:1505   */\n      gt\n        /* \"#utility.yul\":1468:1530   */\n      or\n        /* \"#utility.yul\":1465:1553   */\n      iszero\n      tag_154\n      jumpi\n        /* \"#utility.yul\":1533:1551   */\n      tag_155\n      tag_92\n      jump\t// in\n    tag_155:\n        /* \"#utility.yul\":1465:1553   */\n    tag_154:\n        /* \"#utility.yul\":1573:1583   */\n      dup1\n        /* \"#utility.yul\":1569:1571   */\n      0x40\n        /* \"#utility.yul\":1562:1584   */\n      mstore\n        /* \"#utility.yul\":1352:1590   */\n      pop\n        /* \"#utility.yul\":1309:1590   */\n      pop\n      pop\n      jump\t// out\n        /* \"#utility.yul\":1596:1725   */\n    tag_94:\n        /* \"#utility.yul\":1630:1636   */\n      0x00\n        /* \"#utility.yul\":1657:1677   */\n      tag_157\n      tag_86\n      jump\t// in\n    tag_157:\n        /* \"#utility.yul\":1647:1677   */\n      swap1\n      pop\n        /* \"#utility.yul\":1686:1719   */\n      tag_158\n        /* \"#utility.yul\":1714:1718   */\n      dup3\n        /* \"#utility.yul\":1706:1712   */\n      dup3\n        /* \"#utility.yul\":1686:1719   */\n      tag_93\n      jump\t// in\n    tag_158:\n        /* \"#utility.yul\":1596:1725   */\n      swap2\n      swap1\n      pop\n      jump\t// out\n        /* \"#utility.yul\":1731:2039   */\n    tag_95:\n        /* \"#utility.yul\":1793:1797   */\n      0x00\n        /* \"#utility.yul\":1883:1901   */\n      0xffffffffffffffff\n        /* \"#utility.yul\":1875:1881   */\n      dup3\n        /* \"#utility.yul\":1872:1902   */\n      gt\n        /* \"#utility.yul\":1869:1925   */\n      iszero\n      tag_160\n      jumpi\n        /* \"#utility.yul\":1905:1923   */\n      tag_161\n      tag_92\n      jump\t// in\n    tag_161:\n        /* \"#utility.yul\":1869:1925   */\n    tag_160:\n        /* \"#utility.yul\":1943:1972   */\n      tag_162\n        /* \"#utility.yul\":1965:1971   */\n      dup3\n        /* \"#utility.yul\":1943:1972   */\n      tag_91\n      jump\t// in\n    tag_162:\n        /* \"#utility.yul\":1935:1972   */\n      swap1\n      pop\n        /* \"#utility.yul\":2027:2031   */\n      0x20\n        /* \"#utility.yul\":2021:2025   */\n      dup2\n        /* \"#utility.yul\":2017:2032   */\n      add\n        /* \"#utility.yul\":2009:2032   */\n      swap1\n      pop\n        /* \"#utility.yul\":1731:2039   */\n      swap2\n      swap1\n      pop\n      jump\t// out\n        /* \"#utility.yul\":2045:2199   */\n    tag_96:\n        /* \"#utility.yul\":2129:2135   */\n      dup3\n        /* \"#utility.yul\":2124:2127   */\n      dup2\n        /* \"#utility.yul\":2119:2122   */\n      dup4\n        /* \"#utility.yul\":2106:2136   */\n      calldatacopy\n        /* \"#utility.yul\":2191:2192   */\n      0x00\n        /* \"#utility.yul\":2182:2188   */\n      dup4\n        /* \"#utility.yul\":2177:2180   */\n      dup4\n        /* \"#utility.yul\":2173:2189   */\n      add\n        /* \"#utility.yul\":2166:2193   */\n      mstore\n        /* \"#utility.yul\":2045:2199   */\n      pop\n      pop\n      pop\n      jump\t// out\n        /* \"#utility.yul\":2205:2617   */\n    tag_97:\n        /* \"#utility.yul\":2283:2288   */\n      0x00\n        /* \"#utility.yul\":2308:2374   */\n      tag_165\n        /* \"#utility.yul\":2324:2373   */\n      tag_166\n        /* \"#utility.yul\":2366:2372   */\n      dup5\n        /* \"#utility.yul\":2324:2373   */\n      tag_95\n      jump\t// in\n    tag_166:\n        /* \"#utility.yul\":2308:2374   */\n      tag_94\n      jump\t// in\n    tag_165:\n        /* \"#utility.yul\":2299:2374   */\n      swap1\n      pop\n        /* \"#utility.yul\":2397:2403   */\n      dup3\n        /* \"#utility.yul\":2390:2395   */\n      dup2\n        /* \"#utility.yul\":2383:2404   */\n      mstore\n        /* \"#utility.yul\":2435:2439   */\n      0x20\n        /* \"#utility.yul\":2428:2433   */\n      dup2\n        /* \"#utility.yul\":2424:2440   */\n      add\n        /* \"#utility.yul\":2473:2476   */\n      dup5\n        /* \"#utility.yul\":2464:2470   */\n      dup5\n        /* \"#utility.yul\":2459:2462   */\n      dup5\n        /* \"#utility.yul\":2455:2471   */\n      add\n        /* \"#utility.yul\":2452:2477   */\n      gt\n        /* \"#utility.yul\":2449:2561   */\n      iszero\n      tag_167\n      jumpi\n        /* \"#utility.yul\":2480:2559   */\n      tag_168\n      tag_90\n      jump\t// in\n    tag_168:\n        /* \"#utility.yul\":2449:2561   */\n    tag_167:\n        /* \"#utility.yul\":2570:2611   */\n      tag_169\n        /* \"#utility.yul\":2604:2610   */\n      dup5\n        /* \"#utility.yul\":2599:2602   */\n      dup3\n        /* \"#utility.yul\":2594:2597   */\n      dup6\n        /* \"#utility.yul\":2570:2611   */\n      tag_96\n      jump\t// in\n    tag_169:\n        /* \"#utility.yul\":2289:2617   */\n      pop\n        /* \"#utility.yul\":2205:2617   */\n      swap4\n      swap3\n      pop\n      pop\n      pop\n      jump\t// out\n        /* \"#utility.yul\":2637:2977   */\n    tag_98:\n        /* \"#utility.yul\":2693:2698   */\n      0x00\n        /* \"#utility.yul\":2742:2745   */\n      dup3\n        /* \"#utility.yul\":2735:2739   */\n      0x1f\n        /* \"#utility.yul\":2727:2733   */\n      dup4\n        /* \"#utility.yul\":2723:2740   */\n      add\n        /* \"#utility.yul\":2719:2746   */\n      slt\n        /* \"#utility.yul\":2709:2831   */\n      tag_171\n      jumpi\n        /* \"#utility.yul\":2750:2829   */\n      tag_172\n      tag_89\n      jump\t// in\n    tag_172:\n        /* \"#utility.yul\":2709:2831   */\n    tag_171:\n        /* \"#utility.yul\":2867:2873   */\n      dup2\n        /* \"#utility.yul\":2854:2874   */\n      calldataload\n        /* \"#utility.yul\":2892:2971   */\n      tag_173\n        /* \"#utility.yul\":2967:2970   */\n      dup5\n        /* \"#utility.yul\":2959:2965   */\n      dup3\n        /* \"#utility.yul\":2952:2956   */\n      0x20\n        /* \"#utility.yul\":2944:2950   */\n      dup7\n        /* \"#utility.yul\":2940:2957   */\n      add\n        /* \"#utility.yul\":2892:2971   */\n      tag_97\n      jump\t// in\n    tag_173:\n        /* \"#utility.yul\":2883:2971   */\n      swap2\n      pop\n        /* \"#utility.yul\":2699:2977   */\n      pop\n        /* \"#utility.yul\":2637:2977   */\n      swap3\n      swap2\n      pop\n      pop\n      jump\t// out\n        /* \"#utility.yul\":2983:3492   */\n    tag_20:\n        /* \"#utility.yul\":3052:3058   */\n      0x00\n        /* \"#utility.yul\":3101:3103   */\n      0x20\n        /* \"#utility.yul\":3089:3098   */\n      dup3\n        /* \"#utility.yul\":3080:3087   */\n      dup5\n        /* \"#utility.yul\":3076:3099   */\n      sub\n        /* \"#utility.yul\":3072:3104   */\n      slt\n        /* \"#utility.yul\":3069:3188   */\n      iszero\n      tag_175\n      jumpi\n        /* \"#utility.yul\":3107:3186   */\n      tag_176\n      tag_87\n      jump\t// in\n    tag_176:\n        /* \"#utility.yul\":3069:3188   */\n    tag_175:\n        /* \"#utility.yul\":3255:3256   */\n      0x00\n        /* \"#utility.yul\":3244:3253   */\n      dup3\n        /* \"#utility.yul\":3240:3257   */\n      add\n        /* \"#utility.yul\":3227:3258   */\n      calldataload\n        /* \"#utility.yul\":3285:3303   */\n      0xffffffffffffffff\n        /* \"#utility.yul\":3277:3283   */\n      dup2\n        /* \"#utility.yul\":3274:3304   */\n      gt\n        /* \"#utility.yul\":3271:3388   */\n      iszero\n      tag_177\n      jumpi\n        /* \"#utility.yul\":3307:3386   */\n      tag_178\n      tag_88\n      jump\t// in\n    tag_178:\n        /* \"#utility.yul\":3271:3388   */\n    tag_177:\n        /* \"#utility.yul\":3412:3475   */\n      tag_179\n        /* \"#utility.yul\":3467:3474   */\n      dup5\n        /* \"#utility.yul\":3458:3464   */\n      dup3\n        /* \"#utility.yul\":3447:3456   */\n      dup6\n        /* \"#utility.yul\":3443:3465   */\n      add\n        /* \"#utility.yul\":3412:3475   */\n      tag_98\n      jump\t// in\n    tag_179:\n        /* \"#utility.yul\":3402:3475   */\n      swap2\n      pop\n        /* \"#utility.yul\":3198:3485   */\n      pop\n        /* \"#utility.yul\":2983:3492   */\n      swap3\n      swap2\n      pop\n      pop\n      jump\t// out\n        /* \"#utility.yul\":3498:3615   */\n    tag_99:\n        /* \"#utility.yul\":3607:3608   */\n      0x00\n        /* \"#utility.yul\":3604:3605   */\n      dup1\n        /* \"#utility.yul\":3597:3609   */\n      revert\n        /* \"#utility.yul\":3621:3738   */\n    tag_100:\n        /* \"#utility.yul\":3730:3731   */\n      0x00\n        /* \"#utility.yul\":3727:3728   */\n      dup1\n        /* \"#utility.yul\":3720:3732   */\n      revert\n        /* \"#utility.yul\":3758:4311   */\n    tag_101:\n        /* \"#utility.yul\":3816:3824   */\n      0x00\n        /* \"#utility.yul\":3826:3832   */\n      dup1\n        /* \"#utility.yul\":3876:3879   */\n      dup4\n        /* \"#utility.yul\":3869:3873   */\n      0x1f\n        /* \"#utility.yul\":3861:3867   */\n      dup5\n        /* \"#utility.yul\":3857:3874   */\n      add\n        /* \"#utility.yul\":3853:3880   */\n      slt\n        /* \"#utility.yul\":3843:3965   */\n      tag_183\n      jumpi\n        /* \"#utility.yul\":3884:3963   */\n      tag_184\n      tag_89\n      jump\t// in\n    tag_184:\n        /* \"#utility.yul\":3843:3965   */\n    tag_183:\n        /* \"#utility.yul\":3997:4003   */\n      dup3\n        /* \"#utility.yul\":3984:4004   */\n      calldataload\n        /* \"#utility.yul\":3974:4004   */\n      swap1\n      pop\n        /* \"#utility.yul\":4027:4045   */\n      0xffffffffffffffff\n        /* \"#utility.yul\":4019:4025   */\n      dup2\n        /* \"#utility.yul\":4016:4046   */\n      gt\n        /* \"#utility.yul\":4013:4130   */\n      iszero\n      tag_185\n      jumpi\n        /* \"#utility.yul\":4049:4128   */\n      tag_186\n      tag_99\n      jump\t// in\n    tag_186:\n        /* \"#utility.yul\":4013:4130   */\n    tag_185:\n        /* \"#utility.yul\":4163:4167   */\n      0x20\n        /* \"#utility.yul\":4155:4161   */\n      dup4\n        /* \"#utility.yul\":4151:4168   */\n      add\n        /* \"#utility.yul\":4139:4168   */\n      swap2\n      pop\n        /* \"#utility.yul\":4217:4220   */\n      dup4\n        /* \"#utility.yul\":4209:4213   */\n      0x01\n        /* \"#utility.yul\":4201:4207   */\n      dup3\n        /* \"#utility.yul\":4197:4214   */\n      mul\n        /* \"#utility.yul\":4187:4195   */\n      dup4\n        /* \"#utility.yul\":4183:4215   */\n      add\n        /* \"#utility.yul\":4180:4221   */\n      gt\n        /* \"#utility.yul\":4177:4305   */\n      iszero\n      tag_187\n      jumpi\n        /* \"#utility.yul\":4224:4303   */\n      tag_188\n      tag_100\n      jump\t// in\n    tag_188:\n        /* \"#utility.yul\":4177:4305   */\n    tag_187:\n        /* \"#utility.yul\":3758:4311   */\n      swap3\n      pop\n      swap3\n      swap1\n      pop\n      jump\t// out\n        /* \"#utility.yul\":4317:4439   */\n    tag_102:\n        /* \"#utility.yul\":4390:4414   */\n      tag_190\n        /* \"#utility.yul\":4408:4413   */\n      dup2\n        /* \"#utility.yul\":4390:4414   */\n      tag_84\n      jump\t// in\n    tag_190:\n        /* \"#utility.yul\":4383:4388   */\n      dup2\n        /* \"#utility.yul\":4380:4415   */\n      eq\n        /* \"#utility.yul\":4370:4433   */\n      tag_191\n      jumpi\n        /* \"#utility.yul\":4429:4430   */\n      0x00\n        /* \"#utility.yul\":4426:4427   */\n      dup1\n        /* \"#utility.yul\":4419:4431   */\n      revert\n        /* \"#utility.yul\":4370:4433   */\n    tag_191:\n        /* \"#utility.yul\":4317:4439   */\n      pop\n      jump\t// out\n        /* \"#utility.yul\":4445:4584   */\n    tag_103:\n        /* \"#utility.yul\":4491:4496   */\n      0x00\n        /* \"#utility.yul\":4529:4535   */\n      dup2\n        /* \"#utility.yul\":4516:4536   */\n      calldataload\n        /* \"#utility.yul\":4507:4536   */\n      swap1\n      pop\n        /* \"#utility.yul\":4545:4578   */\n      tag_193\n        /* \"#utility.yul\":4572:4577   */\n      dup2\n        /* \"#utility.yul\":4545:4578   */\n      tag_102\n      jump\t// in\n    tag_193:\n        /* \"#utility.yul\":4445:4584   */\n      swap3\n      swap2\n      pop\n      pop\n      jump\t// out\n        /* \"#utility.yul\":4590:5264   */\n    tag_25:\n        /* \"#utility.yul\":4670:4676   */\n      0x00\n        /* \"#utility.yul\":4678:4684   */\n      dup1\n        /* \"#utility.yul\":4686:4692   */\n      0x00\n        /* \"#utility.yul\":4735:4737   */\n      0x40\n        /* \"#utility.yul\":4723:4732   */\n      dup5\n        /* \"#utility.yul\":4714:4721   */\n      dup7\n        /* \"#utility.yul\":4710:4733   */\n      sub\n        /* \"#utility.yul\":4706:4738   */\n      slt\n        /* \"#utility.yul\":4703:4822   */\n      iszero\n      tag_195\n      jumpi\n        /* \"#utility.yul\":4741:4820   */\n      tag_196\n      tag_87\n      jump\t// in\n    tag_196:\n        /* \"#utility.yul\":4703:4822   */\n    tag_195:\n        /* \"#utility.yul\":4889:4890   */\n      0x00\n        /* \"#utility.yul\":4878:4887   */\n      dup5\n        /* \"#utility.yul\":4874:4891   */\n      add\n        /* \"#utility.yul\":4861:4892   */\n      calldataload\n        /* \"#utility.yul\":4919:4937   */\n      0xffffffffffffffff\n        /* \"#utility.yul\":4911:4917   */\n      dup2\n        /* \"#utility.yul\":4908:4938   */\n      gt\n        /* \"#utility.yul\":4905:5022   */\n      iszero\n      tag_197\n      jumpi\n        /* \"#utility.yul\":4941:5020   */\n      tag_198\n      tag_88\n      jump\t// in\n    tag_198:\n        /* \"#utility.yul\":4905:5022   */\n    tag_197:\n        /* \"#utility.yul\":5054:5119   */\n      tag_199\n        /* \"#utility.yul\":5111:5118   */\n      dup7\n        /* \"#utility.yul\":5102:5108   */\n      dup3\n        /* \"#utility.yul\":5091:5100   */\n      dup8\n        /* \"#utility.yul\":5087:5109   */\n      add\n        /* \"#utility.yul\":5054:5119   */\n      tag_101\n      jump\t// in\n    tag_199:\n        /* \"#utility.yul\":5036:5119   */\n      swap4\n      pop\n      swap4\n      pop\n        /* \"#utility.yul\":4832:5129   */\n      pop\n        /* \"#utility.yul\":5168:5170   */\n      0x20\n        /* \"#utility.yul\":5194:5247   */\n      tag_200\n        /* \"#utility.yul\":5239:5246   */\n      dup7\n        /* \"#utility.yul\":5230:5236   */\n      dup3\n        /* \"#utility.yul\":5219:5228   */\n      dup8\n        /* \"#utility.yul\":5215:5237   */\n      add\n        /* \"#utility.yul\":5194:5247   */\n      tag_103\n      jump\t// in\n    tag_200:\n        /* \"#utility.yul\":5184:5247   */\n      swap2\n      pop\n        /* \"#utility.yul\":5139:5257   */\n      pop\n        /* \"#utility.yul\":4590:5264   */\n      swap3\n      pop\n      swap3\n      pop\n      swap3\n      jump\t// out\n        /* \"#utility.yul\":5270:5599   */\n    tag_29:\n        /* \"#utility.yul\":5329:5335   */\n      0x00\n        /* \"#utility.yul\":5378:5380   */\n      0x20\n        /* \"#utility.yul\":5366:5375   */\n      dup3\n        /* \"#utility.yul\":5357:5364   */\n      dup5\n        /* \"#utility.yul\":5353:5376   */\n      sub\n        /* \"#utility.yul\":5349:5381   */\n      slt\n        /* \"#utility.yul\":5346:5465   */\n      iszero\n      tag_202\n      jumpi\n        /* \"#utility.yul\":5384:5463   */\n      tag_203\n      tag_87\n      jump\t// in\n    tag_203:\n        /* \"#utility.yul\":5346:5465   */\n    tag_202:\n        /* \"#utility.yul\":5504:5505   */\n      0x00\n        /* \"#utility.yul\":5529:5582   */\n      tag_204\n        /* \"#utility.yul\":5574:5581   */\n      dup5\n        /* \"#utility.yul\":5565:5571   */\n      dup3\n        /* \"#utility.yul\":5554:5563   */\n      dup6\n        /* \"#utility.yul\":5550:5572   */\n      add\n        /* \"#utility.yul\":5529:5582   */\n      tag_103\n      jump\t// in\n    tag_204:\n        /* \"#utility.yul\":5519:5582   */\n      swap2\n      pop\n        /* \"#utility.yul\":5475:5592   */\n      pop\n        /* \"#utility.yul\":5270:5599   */\n      swap3\n      swap2\n      pop\n      pop\n      jump\t// out\n        /* \"#utility.yul\":5605:5704   */\n    tag_104:\n        /* \"#utility.yul\":5657:5663   */\n      0x00\n        /* \"#utility.yul\":5691:5696   */\n      dup2\n        /* \"#utility.yul\":5685:5697   */\n      mload\n        /* \"#utility.yul\":5675:5697   */\n      swap1\n      pop\n        /* \"#utility.yul\":5605:5704   */\n      swap2\n      swap1\n      pop\n      jump\t// out\n        /* \"#utility.yul\":5710:5879   */\n    tag_105:\n        /* \"#utility.yul\":5794:5805   */\n      0x00\n        /* \"#utility.yul\":5828:5834   */\n      dup3\n        /* \"#utility.yul\":5823:5826   */\n      dup3\n        /* \"#utility.yul\":5816:5835   */\n      mstore\n        /* \"#utility.yul\":5868:5872   */\n      0x20\n        /* \"#utility.yul\":5863:5866   */\n      dup3\n        /* \"#utility.yul\":5859:5873   */\n      add\n        /* \"#utility.yul\":5844:5873   */\n      swap1\n      pop\n        /* \"#utility.yul\":5710:5879   */\n      swap3\n      swap2\n      pop\n      pop\n      jump\t// out\n        /* \"#utility.yul\":5885:6192   */\n    tag_106:\n        /* \"#utility.yul\":5953:5954   */\n      0x00\n        /* \"#utility.yul\":5963:6076   */\n    tag_208:\n        /* \"#utility.yul\":5977:5983   */\n      dup4\n        /* \"#utility.yul\":5974:5975   */\n      dup2\n        /* \"#utility.yul\":5971:5984   */\n      lt\n        /* \"#utility.yul\":5963:6076   */\n      iszero\n      tag_210\n      jumpi\n        /* \"#utility.yul\":6062:6063   */\n      dup1\n        /* \"#utility.yul\":6057:6060   */\n      dup3\n        /* \"#utility.yul\":6053:6064   */\n      add\n        /* \"#utility.yul\":6047:6065   */\n      mload\n        /* \"#utility.yul\":6043:6044   */\n      dup2\n        /* \"#utility.yul\":6038:6041   */\n      dup5\n        /* \"#utility.yul\":6034:6045   */\n      add\n        /* \"#utility.yul\":6027:6066   */\n      mstore\n        /* \"#utility.yul\":5999:6001   */\n      0x20\n        /* \"#utility.yul\":5996:5997   */\n      dup2\n        /* \"#utility.yul\":5992:6002   */\n      add\n        /* \"#utility.yul\":5987:6002   */\n      swap1\n      pop\n        /* \"#utility.yul\":5963:6076   */\n      jump(tag_208)\n    tag_210:\n        /* \"#utility.yul\":6094:6100   */\n      dup4\n        /* \"#utility.yul\":6091:6092   */\n      dup2\n        /* \"#utility.yul\":6088:6101   */\n      gt\n        /* \"#utility.yul\":6085:6186   */\n      iszero\n      tag_211\n      jumpi\n        /* \"#utility.yul\":6174:6175   */\n      0x00\n        /* \"#utility.yul\":6165:6171   */\n      dup5\n        /* \"#utility.yul\":6160:6163   */\n      dup5\n        /* \"#utility.yul\":6156:6172   */\n      add\n        /* \"#utility.yul\":6149:6176   */\n      mstore\n        /* \"#utility.yul\":6085:6186   */\n    tag_211:\n        /* \"#utility.yul\":5934:6192   */\n      pop\n        /* \"#utility.yul\":5885:6192   */\n      pop\n      pop\n      pop\n      jump\t// out\n        /* \"#utility.yul\":6198:6562   */\n    tag_107:\n        /* \"#utility.yul\":6286:6289   */\n      0x00\n        /* \"#utility.yul\":6314:6353   */\n      tag_213\n        /* \"#utility.yul\":6347:6352   */\n      dup3\n        /* \"#utility.yul\":6314:6353   */\n      tag_104\n      jump\t// in\n    tag_213:\n        /* \"#utility.yul\":6369:6440   */\n      tag_214\n        /* \"#utility.yul\":6433:6439   */\n      dup2\n        /* \"#utility.yul\":6428:6431   */\n      dup6\n        /* \"#utility.yul\":6369:6440   */\n      tag_105\n      jump\t// in\n    tag_214:\n        /* \"#utility.yul\":6362:6440   */\n      swap4\n      pop\n        /* \"#utility.yul\":6449:6501   */\n      tag_215\n        /* \"#utility.yul\":6494:6500   */\n      dup2\n        /* \"#utility.yul\":6489:6492   */\n      dup6\n        /* \"#utility.yul\":6482:6486   */\n      0x20\n        /* \"#utility.yul\":6475:6480   */\n      dup7\n        /* \"#utility.yul\":6471:6487   */\n      add\n        /* \"#utility.yul\":6449:6501   */\n      tag_106\n      jump\t// in\n    tag_215:\n        /* \"#utility.yul\":6526:6555   */\n      tag_216\n        /* \"#utility.yul\":6548:6554   */\n      dup2\n        /* \"#utility.yul\":6526:6555   */\n      tag_91\n      jump\t// in\n    tag_216:\n        /* \"#utility.yul\":6521:6524   */\n      dup5\n        /* \"#utility.yul\":6517:6556   */\n      add\n        /* \"#utility.yul\":6510:6556   */\n      swap2\n      pop\n        /* \"#utility.yul\":6290:6562   */\n      pop\n        /* \"#utility.yul\":6198:6562   */\n      swap3\n      swap2\n      pop\n      pop\n      jump\t// out\n        /* \"#utility.yul\":6568:6991   */\n    tag_32:\n        /* \"#utility.yul\":6709:6713   */\n      0x00\n        /* \"#utility.yul\":6747:6749   */\n      0x40\n        /* \"#utility.yul\":6736:6745   */\n      dup3\n        /* \"#utility.yul\":6732:6750   */\n      add\n        /* \"#utility.yul\":6724:6750   */\n      swap1\n      pop\n        /* \"#utility.yul\":6796:6805   */\n      dup2\n        /* \"#utility.yul\":6790:6794   */\n      dup2\n        /* \"#utility.yul\":6786:6806   */\n      sub\n        /* \"#utility.yul\":6782:6783   */\n      0x00\n        /* \"#utility.yul\":6771:6780   */\n      dup4\n        /* \"#utility.yul\":6767:6784   */\n      add\n        /* \"#utility.yul\":6760:6807   */\n      mstore\n        /* \"#utility.yul\":6824:6902   */\n      tag_218\n        /* \"#utility.yul\":6897:6901   */\n      dup2\n        /* \"#utility.yul\":6888:6894   */\n      dup6\n        /* \"#utility.yul\":6824:6902   */\n      tag_107\n      jump\t// in\n    tag_218:\n        /* \"#utility.yul\":6816:6902   */\n      swap1\n      pop\n        /* \"#utility.yul\":6912:6984   */\n      tag_219\n        /* \"#utility.yul\":6980:6982   */\n      0x20\n        /* \"#utility.yul\":6969:6978   */\n      dup4\n        /* \"#utility.yul\":6965:6983   */\n      add\n        /* \"#utility.yul\":6956:6962   */\n      dup5\n        /* \"#utility.yul\":6912:6984   */\n      tag_85\n      jump\t// in\n    tag_219:\n        /* \"#utility.yul\":6568:6991   */\n      swap4\n      swap3\n      pop\n      pop\n      pop\n      jump\t// out\n        /* \"#utility.yul\":6997:7123   */\n    tag_108:\n        /* \"#utility.yul\":7034:7041   */\n      0x00\n        /* \"#utility.yul\":7074:7116   */\n      0xffffffffffffffffffffffffffffffffffffffff\n        /* \"#utility.yul\":7067:7072   */\n      dup3\n        /* \"#utility.yul\":7063:7117   */\n      and\n        /* \"#utility.yul\":7052:7117   */\n      swap1\n      pop\n        /* \"#utility.yul\":6997:7123   */\n      swap2\n      swap1\n      pop\n      jump\t// out\n        /* \"#utility.yul\":7129:7225   */\n    tag_109:\n        /* \"#utility.yul\":7166:7173   */\n      0x00\n        /* \"#utility.yul\":7195:7219   */\n      tag_222\n        /* \"#utility.yul\":7213:7218   */\n      dup3\n        /* \"#utility.yul\":7195:7219   */\n      tag_108\n      jump\t// in\n    tag_222:\n        /* \"#utility.yul\":7184:7219   */\n      swap1\n      pop\n        /* \"#utility.yul\":7129:7225   */\n      swap2\n      swap1\n      pop\n      jump\t// out\n        /* \"#utility.yul\":7231:7349   */\n    tag_110:\n        /* \"#utility.yul\":7318:7342   */\n      tag_224\n        /* \"#utility.yul\":7336:7341   */\n      dup2\n        /* \"#utility.yul\":7318:7342   */\n      tag_109\n      jump\t// in\n    tag_224:\n        /* \"#utility.yul\":7313:7316   */\n      dup3\n        /* \"#utility.yul\":7306:7343   */\n      mstore\n        /* \"#utility.yul\":7231:7349   */\n      pop\n      pop\n      jump\t// out\n        /* \"#utility.yul\":7355:7577   */\n    tag_39:\n        /* \"#utility.yul\":7448:7452   */\n      0x00\n        /* \"#utility.yul\":7486:7488   */\n      0x20\n        /* \"#utility.yul\":7475:7484   */\n      dup3\n        /* \"#utility.yul\":7471:7489   */\n      add\n        /* \"#utility.yul\":7463:7489   */\n      swap1\n      pop\n        /* \"#utility.yul\":7499:7570   */\n      tag_226\n        /* \"#utility.yul\":7567:7568   */\n      0x00\n        /* \"#utility.yul\":7556:7565   */\n      dup4\n        /* \"#utility.yul\":7552:7569   */\n      add\n        /* \"#utility.yul\":7543:7549   */\n      dup5\n        /* \"#utility.yul\":7499:7570   */\n      tag_110\n      jump\t// in\n    tag_226:\n        /* \"#utility.yul\":7355:7577   */\n      swap3\n      swap2\n      pop\n      pop\n      jump\t// out\n        /* \"#utility.yul\":7583:7705   */\n    tag_111:\n        /* \"#utility.yul\":7656:7680   */\n      tag_228\n        /* \"#utility.yul\":7674:7679   */\n      dup2\n        /* \"#utility.yul\":7656:7680   */\n      tag_109\n      jump\t// in\n    tag_228:\n        /* \"#utility.yul\":7649:7654   */\n      dup2\n        /* \"#utility.yul\":7646:7681   */\n      eq\n        /* \"#utility.yul\":7636:7699   */\n      tag_229\n      jumpi\n        /* \"#utility.yul\":7695:7696   */\n      0x00\n        /* \"#utility.yul\":7692:7693   */\n      dup1\n        /* \"#utility.yul\":7685:7697   */\n      revert\n        /* \"#utility.yul\":7636:7699   */\n    tag_229:\n        /* \"#utility.yul\":7583:7705   */\n      pop\n      jump\t// out\n        /* \"#utility.yul\":7711:7850   */\n    tag_112:\n        /* \"#utility.yul\":7757:7762   */\n      0x00\n        /* \"#utility.yul\":7795:7801   */\n      dup2\n        /* \"#utility.yul\":7782:7802   */\n      calldataload\n        /* \"#utility.yul\":7773:7802   */\n      swap1\n      pop\n        /* \"#utility.yul\":7811:7844   */\n      tag_231\n        /* \"#utility.yul\":7838:7843   */\n      dup2\n        /* \"#utility.yul\":7811:7844   */\n      tag_111\n      jump\t// in\n    tag_231:\n        /* \"#utility.yul\":7711:7850   */\n      swap3\n      swap2\n      pop\n      pop\n      jump\t// out\n        /* \"#utility.yul\":7856:8185   */\n    tag_42:\n        /* \"#utility.yul\":7915:7921   */\n      0x00\n        /* \"#utility.yul\":7964:7966   */\n      0x20\n        /* \"#utility.yul\":7952:7961   */\n      dup3\n        /* \"#utility.yul\":7943:7950   */\n      dup5\n        /* \"#utility.yul\":7939:7962   */\n      sub\n        /* \"#utility.yul\":7935:7967   */\n      slt\n        /* \"#utility.yul\":7932:8051   */\n      iszero\n      tag_233\n      jumpi\n        /* \"#utility.yul\":7970:8049   */\n      tag_234\n      tag_87\n      jump\t// in\n    tag_234:\n        /* \"#utility.yul\":7932:8051   */\n    tag_233:\n        /* \"#utility.yul\":8090:8091   */\n      0x00\n        /* \"#utility.yul\":8115:8168   */\n      tag_235\n        /* \"#utility.yul\":8160:8167   */\n      dup5\n        /* \"#utility.yul\":8151:8157   */\n      dup3\n        /* \"#utility.yul\":8140:8149   */\n      dup6\n        /* \"#utility.yul\":8136:8158   */\n      add\n        /* \"#utility.yul\":8115:8168   */\n      tag_112\n      jump\t// in\n    tag_235:\n        /* \"#utility.yul\":8105:8168   */\n      swap2\n      pop\n        /* \"#utility.yul\":8061:8178   */\n      pop\n        /* \"#utility.yul\":7856:8185   */\n      swap3\n      swap2\n      pop\n      pop\n      jump\t// out\n        /* \"#utility.yul\":8191:8353   */\n    tag_113:\n        /* \"#utility.yul\":8331:8345   */\n      0x6e6f7420626f72726f776e670000000000000000000000000000000000000000\n        /* \"#utility.yul\":8327:8328   */\n      0x00\n        /* \"#utility.yul\":8319:8325   */\n      dup3\n        /* \"#utility.yul\":8315:8329   */\n      add\n        /* \"#utility.yul\":8308:8346   */\n      mstore\n        /* \"#utility.yul\":8191:8353   */\n      pop\n      jump\t// out\n        /* \"#utility.yul\":8359:8725   */\n    tag_114:\n        /* \"#utility.yul\":8501:8504   */\n      0x00\n        /* \"#utility.yul\":8522:8589   */\n      tag_238\n        /* \"#utility.yul\":8586:8588   */\n      0x0c\n        /* \"#utility.yul\":8581:8584   */\n      dup4\n        /* \"#utility.yul\":8522:8589   */\n      tag_105\n      jump\t// in\n    tag_238:\n        /* \"#utility.yul\":8515:8589   */\n      swap2\n      pop\n        /* \"#utility.yul\":8598:8691   */\n      tag_239\n        /* \"#utility.yul\":8687:8690   */\n      dup3\n        /* \"#utility.yul\":8598:8691   */\n      tag_113\n      jump\t// in\n    tag_239:\n        /* \"#utility.yul\":8716:8718   */\n      0x20\n        /* \"#utility.yul\":8711:8714   */\n      dup3\n        /* \"#utility.yul\":8707:8719   */\n      add\n        /* \"#utility.yul\":8700:8719   */\n      swap1\n      pop\n        /* \"#utility.yul\":8359:8725   */\n      swap2\n      swap1\n      pop\n      jump\t// out\n        /* \"#utility.yul\":8731:9150   */\n    tag_48:\n        /* \"#utility.yul\":8897:8901   */\n      0x00\n        /* \"#utility.yul\":8935:8937   */\n      0x20\n        /* \"#utility.yul\":8924:8933   */\n      dup3\n        /* \"#utility.yul\":8920:8938   */\n      add\n        /* \"#utility.yul\":8912:8938   */\n      swap1\n      pop\n        /* \"#utility.yul\":8984:8993   */\n      dup2\n        /* \"#utility.yul\":8978:8982   */\n      dup2\n        /* \"#utility.yul\":8974:8994   */\n      sub\n        /* \"#utility.yul\":8970:8971   */\n      0x00\n        /* \"#utility.yul\":8959:8968   */\n      dup4\n        /* \"#utility.yul\":8955:8972   */\n      add\n        /* \"#utility.yul\":8948:8995   */\n      mstore\n        /* \"#utility.yul\":9012:9143   */\n      tag_241\n        /* \"#utility.yul\":9138:9142   */\n      dup2\n        /* \"#utility.yul\":9012:9143   */\n      tag_114\n      jump\t// in\n    tag_241:\n        /* \"#utility.yul\":9004:9143   */\n      swap1\n      pop\n        /* \"#utility.yul\":8731:9150   */\n      swap2\n      swap1\n      pop\n      jump\t// out\n        /* \"#utility.yul\":9156:9336   */\n    tag_115:\n        /* \"#utility.yul\":9204:9281   */\n      0x4e487b7100000000000000000000000000000000000000000000000000000000\n        /* \"#utility.yul\":9201:9202   */\n      0x00\n        /* \"#utility.yul\":9194:9282   */\n      mstore\n        /* \"#utility.yul\":9301:9305   */\n      0x11\n        /* \"#utility.yul\":9298:9299   */\n      0x04\n        /* \"#utility.yul\":9291:9306   */\n      mstore\n        /* \"#utility.yul\":9325:9329   */\n      0x24\n        /* \"#utility.yul\":9322:9323   */\n      0x00\n        /* \"#utility.yul\":9315:9330   */\n      revert\n        /* \"#utility.yul\":9342:9575   */\n    tag_50:\n        /* \"#utility.yul\":9381:9384   */\n      0x00\n        /* \"#utility.yul\":9404:9428   */\n      tag_244\n        /* \"#utility.yul\":9422:9427   */\n      dup3\n        /* \"#utility.yul\":9404:9428   */\n      tag_84\n      jump\t// in\n    tag_244:\n        /* \"#utility.yul\":9395:9428   */\n      swap2\n      pop\n        /* \"#utility.yul\":9450:9516   */\n      0xffffffffffffffffffffffffffffffffffffffffffffffffffffffffffffffff\n        /* \"#utility.yul\":9443:9448   */\n      dup3\n        /* \"#utility.yul\":9440:9517   */\n      sub\n        /* \"#utility.yul\":9437:9540   */\n      tag_245\n      jumpi\n        /* \"#utility.yul\":9520:9538   */\n      tag_246\n      tag_115\n      jump\t// in\n    tag_246:\n        /* \"#utility.yul\":9437:9540   */\n    tag_245:\n        /* \"#utility.yul\":9567:9568   */\n      0x01\n        /* \"#utility.yul\":9560:9565   */\n      dup3\n        /* \"#utility.yul\":9556:9569   */\n      add\n        /* \"#utility.yul\":9549:9569   */\n      swap1\n      pop\n        /* \"#utility.yul\":9342:9575   */\n      swap2\n      swap1\n      pop\n      jump\t// out\n        /* \"#utility.yul\":9581:9740   */\n    tag_116:\n        /* \"#utility.yul\":9721:9732   */\n      0x6e6f74206f776e65720000000000000000000000000000000000000000000000\n        /* \"#utility.yul\":9717:9718   */\n      0x00\n        /* \"#utility.yul\":9709:9715   */\n      dup3\n        /* \"#utility.yul\":9705:9719   */\n      add\n        /* \"#utility.yul\":9698:9733   */\n      mstore\n        /* \"#utility.yul\":9581:9740   */\n      pop\n      jump\t// out\n        /* \"#utility.yul\":9746:10111   */\n    tag_117:\n        /* \"#utility.yul\":9888:9891   */\n      0x00\n        /* \"#utility.yul\":9909:9975   */\n      tag_249\n        /* \"#utility.yul\":9973:9974   */\n      0x09\n        /* \"#utility.yul\":9968:9971   */\n      dup4\n        /* \"#utility.yul\":9909:9975   */\n      tag_105\n      jump\t// in\n    tag_249:\n        /* \"#utility.yul\":9902:9975   */\n      swap2\n      pop\n        /* \"#utility.yul\":9984:10077   */\n      tag_250\n        /* \"#utility.yul\":10073:10076   */\n      dup3\n        /* \"#utility.yul\":9984:10077   */\n      tag_116\n      jump\t// in\n    tag_250:\n        /* \"#utility.yul\":10102:10104   */\n      0x20\n        /* \"#utility.yul\":10097:10100   */\n      dup3\n        /* \"#utility.yul\":10093:10105   */\n      add\n        /* \"#utility.yul\":10086:10105   */\n      swap1\n      pop\n        /* \"#utility.yul\":9746:10111   */\n      swap2\n      swap1\n      pop\n      jump\t// out\n        /* \"#utility.yul\":10117:10536   */\n    tag_54:\n        /* \"#utility.yul\":10283:10287   */\n      0x00\n        /* \"#utility.yul\":10321:10323   */\n      0x20\n        /* \"#utility.yul\":10310:10319   */\n      dup3\n        /* \"#utility.yul\":10306:10324   */\n      add\n        /* \"#utility.yul\":10298:10324   */\n      swap1\n      pop\n        /* \"#utility.yul\":10370:10379   */\n      dup2\n        /* \"#utility.yul\":10364:10368   */\n      dup2\n        /* \"#utility.yul\":10360:10380   */\n      sub\n        /* \"#utility.yul\":10356:10357   */\n      0x00\n        /* \"#utility.yul\":10345:10354   */\n      dup4\n        /* \"#utility.yul\":10341:10358   */\n      add\n        /* \"#utility.yul\":10334:10381   */\n      mstore\n        /* \"#utility.yul\":10398:10529   */\n      tag_252\n        /* \"#utility.yul\":10524:10528   */\n      dup2\n        /* \"#utility.yul\":10398:10529   */\n      tag_117\n      jump\t// in\n    tag_252:\n        /* \"#utility.yul\":10390:10529   */\n      swap1\n      pop\n        /* \"#utility.yul\":10117:10536   */\n      swap2\n      swap1\n      pop\n      jump\t// out\n        /* \"#utility.yul\":10542:10690   */\n    tag_118:\n        /* \"#utility.yul\":10644:10655   */\n      0x00\n        /* \"#utility.yul\":10681:10684   */\n      dup2\n        /* \"#utility.yul\":10666:10684   */\n      swap1\n      pop\n        /* \"#utility.yul\":10542:10690   */\n      swap3\n      swap2\n      pop\n      pop\n      jump\t// out\n        /* \"#utility.yul\":10720:11037   */\n    tag_119:\n        /* \"#utility.yul\":10836:10839   */\n      0x00\n        /* \"#utility.yul\":10857:10946   */\n      tag_255\n        /* \"#utility.yul\":10939:10945   */\n      dup4\n        /* \"#utility.yul\":10934:10937   */\n      dup6\n        /* \"#utility.yul\":10857:10946   */\n      tag_118\n      jump\t// in\n    tag_255:\n        /* \"#utility.yul\":10850:10946   */\n      swap4\n      pop\n        /* \"#utility.yul\":10956:10999   */\n      tag_256\n        /* \"#utility.yul\":10992:10998   */\n      dup4\n        /* \"#utility.yul\":10987:10990   */\n      dup6\n        /* \"#utility.yul\":10980:10985   */\n      dup5\n        /* \"#utility.yul\":10956:10999   */\n      tag_96\n      jump\t// in\n    tag_256:\n        /* \"#utility.yul\":11024:11030   */\n      dup3\n        /* \"#utility.yul\":11019:11022   */\n      dup5\n        /* \"#utility.yul\":11015:11031   */\n      add\n        /* \"#utility.yul\":11008:11031   */\n      swap1\n      pop\n        /* \"#utility.yul\":10720:11037   */\n      swap4\n      swap3\n      pop\n      pop\n      pop\n      jump\t// out\n        /* \"#utility.yul\":11043:11338   */\n    tag_57:\n        /* \"#utility.yul\":11185:11188   */\n      0x00\n        /* \"#utility.yul\":11207:11312   */\n      tag_258\n        /* \"#utility.yul\":11308:11311   */\n      dup3\n        /* \"#utility.yul\":11299:11305   */\n      dup5\n        /* \"#utility.yul\":11291:11297   */\n      dup7\n        /* \"#utility.yul\":11207:11312   */\n      tag_119\n      jump\t// in\n    tag_258:\n        /* \"#utility.yul\":11200:11312   */\n      swap2\n      pop\n        /* \"#utility.yul\":11329:11332   */\n      dup2\n        /* \"#utility.yul\":11322:11332   */\n      swap1\n      pop\n        /* \"#utility.yul\":11043:11338   */\n      swap4\n      swap3\n      pop\n      pop\n      pop\n      jump\t// out\n        /* \"#utility.yul\":11344:11649   */\n    tag_61:\n        /* \"#utility.yul\":11384:11387   */\n      0x00\n        /* \"#utility.yul\":11403:11423   */\n      tag_260\n        /* \"#utility.yul\":11421:11422   */\n      dup3\n        /* \"#utility.yul\":11403:11423   */\n      tag_84\n      jump\t// in\n    tag_260:\n        /* \"#utility.yul\":11398:11423   */\n      swap2\n      pop\n        /* \"#utility.yul\":11437:11457   */\n      tag_261\n        /* \"#utility.yul\":11455:11456   */\n      dup4\n        /* \"#utility.yul\":11437:11457   */\n      tag_84\n      jump\t// in\n    tag_261:\n        /* \"#utility.yul\":11432:11457   */\n      swap3\n      pop\n        /* \"#utility.yul\":11591:11592   */\n      dup3\n        /* \"#utility.yul\":11523:11589   */\n      0xffffffffffffffffffffffffffffffffffffffffffffffffffffffffffffffff\n        /* \"#utility.yul\":11519:11593   */\n      sub\n        /* \"#utility.yul\":11516:11517   */\n      dup3\n        /* \"#utility.yul\":11513:11594   */\n      gt\n        /* \"#utility.yul\":11510:11617   */\n      iszero\n      tag_262\n      jumpi\n        /* \"#utility.yul\":11597:11615   */\n      tag_263\n      tag_115\n      jump\t// in\n    tag_263:\n        /* \"#utility.yul\":11510:11617   */\n    tag_262:\n        /* \"#utility.yul\":11641:11642   */\n      dup3\n        /* \"#utility.yul\":11638:11639   */\n      dup3\n        /* \"#utility.yul\":11634:11643   */\n      add\n        /* \"#utility.yul\":11627:11643   */\n      swap1\n      pop\n        /* \"#utility.yul\":11344:11649   */\n      swap3\n      swap2\n      pop\n      pop\n      jump\t// out\n        /* \"#utility.yul\":11679:11983   */\n    tag_120:\n        /* \"#utility.yul\":11777:11780   */\n      0x00\n        /* \"#utility.yul\":11798:11869   */\n      tag_265\n        /* \"#utility.yul\":11862:11868   */\n      dup4\n        /* \"#utility.yul\":11857:11860   */\n      dup6\n        /* \"#utility.yul\":11798:11869   */\n      tag_105\n      jump\t// in\n    tag_265:\n        /* \"#utility.yul\":11791:11869   */\n      swap4\n      pop\n        /* \"#utility.yul\":11879:11922   */\n      tag_266\n        /* \"#utility.yul\":11915:11921   */\n      dup4\n        /* \"#utility.yul\":11910:11913   */\n      dup6\n        /* \"#utility.yul\":11903:11908   */\n      dup5\n        /* \"#utility.yul\":11879:11922   */\n      tag_96\n      jump\t// in\n    tag_266:\n        /* \"#utility.yul\":11947:11976   */\n      tag_267\n        /* \"#utility.yul\":11969:11975   */\n      dup4\n        /* \"#utility.yul\":11947:11976   */\n      tag_91\n      jump\t// in\n    tag_267:\n        /* \"#utility.yul\":11942:11945   */\n      dup5\n        /* \"#utility.yul\":11938:11977   */\n      add\n        /* \"#utility.yul\":11931:11977   */\n      swap1\n      pop\n        /* \"#utility.yul\":11679:11983   */\n      swap4\n      swap3\n      pop\n      pop\n      pop\n      jump\t// out\n        /* \"#utility.yul\":11989:12432   */\n    tag_63:\n        /* \"#utility.yul\":12140:12144   */\n      0x00\n        /* \"#utility.yul\":12178:12180   */\n      0x40\n        /* \"#utility.yul\":12167:12176   */\n      dup3\n        /* \"#utility.yul\":12163:12181   */\n      add\n        /* \"#utility.yul\":12155:12181   */\n      swap1\n      pop\n        /* \"#utility.yul\":12227:12236   */\n      dup2\n        /* \"#utility.yul\":12221:12225   */\n      dup2\n        /* \"#utility.yul\":12217:12237   */\n      sub\n        /* \"#utility.yul\":12213:12214   */\n      0x00\n        /* \"#utility.yul\":12202:12211   */\n      dup4\n        /* \"#utility.yul\":12198:12215   */\n      add\n        /* \"#utility.yul\":12191:12238   */\n      mstore\n        /* \"#utility.yul\":12255:12343   */\n      tag_269\n        /* \"#utility.yul\":12338:12342   */\n      dup2\n        /* \"#utility.yul\":12329:12335   */\n      dup6\n        /* \"#utility.yul\":12321:12327   */\n      dup8\n        /* \"#utility.yul\":12255:12343   */\n      tag_120\n      jump\t// in\n    tag_269:\n        /* \"#utility.yul\":12247:12343   */\n      swap1\n      pop\n        /* \"#utility.yul\":12353:12425   */\n      tag_270\n        /* \"#utility.yul\":12421:12423   */\n      0x20\n        /* \"#utility.yul\":12410:12419   */\n      dup4\n        /* \"#utility.yul\":12406:12424   */\n      add\n        /* \"#utility.yul\":12397:12403   */\n      dup5\n        /* \"#utility.yul\":12353:12425   */\n      tag_85\n      jump\t// in\n    tag_270:\n        /* \"#utility.yul\":11989:12432   */\n      swap5\n      swap4\n      pop\n      pop\n      pop\n      pop\n      jump\t// out\n        /* \"#utility.yul\":12438:12618   */\n    tag_121:\n        /* \"#utility.yul\":12486:12563   */\n      0x4e487b7100000000000000000000000000000000000000000000000000000000\n        /* \"#utility.yul\":12483:12484   */\n      0x00\n        /* \"#utility.yul\":12476:12564   */\n      mstore\n        /* \"#utility.yul\":12583:12587   */\n      0x22\n        /* \"#utility.yul\":12580:12581   */\n      0x04\n        /* \"#utility.yul\":12573:12588   */\n      mstore\n        /* \"#utility.yul\":12607:12611   */\n      0x24\n        /* \"#utility.yul\":12604:12605   */\n      0x00\n        /* \"#utility.yul\":12597:12612   */\n      revert\n        /* \"#utility.yul\":12624:12944   */\n    tag_71:\n        /* \"#utility.yul\":12668:12674   */\n      0x00\n        /* \"#utility.yul\":12705:12706   */\n      0x02\n        /* \"#utility.yul\":12699:12703   */\n      dup3\n        /* \"#utility.yul\":12695:12707   */\n      div\n        /* \"#utility.yul\":12685:12707   */\n      swap1\n      pop\n        /* \"#utility.yul\":12752:12753   */\n      0x01\n        /* \"#utility.yul\":12746:12750   */\n      dup3\n        /* \"#utility.yul\":12742:12754   */\n      and\n        /* \"#utility.yul\":12773:12791   */\n      dup1\n        /* \"#utility.yul\":12763:12844   */\n      tag_273\n      jumpi\n        /* \"#utility.yul\":12829:12833   */\n      0x7f\n        /* \"#utility.yul\":12821:12827   */\n      dup3\n        /* \"#utility.yul\":12817:12834   */\n      and\n        /* \"#utility.yul\":12807:12834   */\n      swap2\n      pop\n        /* \"#utility.yul\":12763:12844   */\n    tag_273:\n        /* \"#utility.yul\":12891:12893   */\n      0x20\n        /* \"#utility.yul\":12883:12889   */\n      dup3\n        /* \"#utility.yul\":12880:12894   */\n      lt\n        /* \"#utility.yul\":12860:12878   */\n      dup2\n        /* \"#utility.yul\":12857:12895   */\n      sub\n        /* \"#utility.yul\":12854:12938   */\n      tag_274\n      jumpi\n        /* \"#utility.yul\":12910:12928   */\n      tag_275\n      tag_121\n      jump\t// in\n    tag_275:\n        /* \"#utility.yul\":12854:12938   */\n    tag_274:\n        /* \"#utility.yul\":12675:12944   */\n      pop\n        /* \"#utility.yul\":12624:12944   */\n      swap2\n      swap1\n      pop\n      jump\t// out\n        /* \"#utility.yul\":12950:13091   */\n    tag_122:\n        /* \"#utility.yul\":12999:13003   */\n      0x00\n        /* \"#utility.yul\":13022:13025   */\n      dup2\n        /* \"#utility.yul\":13014:13025   */\n      swap1\n      pop\n        /* \"#utility.yul\":13045:13048   */\n      dup2\n        /* \"#utility.yul\":13042:13043   */\n      0x00\n        /* \"#utility.yul\":13035:13049   */\n      mstore\n        /* \"#utility.yul\":13079:13083   */\n      0x20\n        /* \"#utility.yul\":13076:13077   */\n      0x00\n        /* \"#utility.yul\":13066:13084   */\n      keccak256\n        /* \"#utility.yul\":13058:13084   */\n      swap1\n      pop\n        /* \"#utility.yul\":12950:13091   */\n      swap2\n      swap1\n      pop\n      jump\t// out\n        /* \"#utility.yul\":13097:13190   */\n    tag_123:\n        /* \"#utility.yul\":13134:13140   */\n      0x00\n        /* \"#utility.yul\":13181:13183   */\n      0x20\n        /* \"#utility.yul\":13176:13178   */\n      0x1f\n        /* \"#utility.yul\":13169:13174   */\n      dup4\n        /* \"#utility.yul\":13165:13179   */\n      add\n        /* \"#utility.yul\":13161:13184   */\n      div\n        /* \"#utility.yul\":13151:13184   */\n      swap1\n      pop\n        /* \"#utility.yul\":13097:13190   */\n      swap2\n      swap1\n      pop\n      jump\t// out\n        /* \"#utility.yul\":13196:13303   */\n    tag_124:\n        /* \"#utility.yul\":13240:13248   */\n      0x00\n        /* \"#utility.yul\":13290:13295   */\n      dup3\n        /* \"#utility.yul\":13284:13288   */\n      dup3\n        /* \"#utility.yul\":13280:13296   */\n      shl\n        /* \"#utility.yul\":13259:13296   */\n      swap1\n      pop\n        /* \"#utility.yul\":13196:13303   */\n      swap3\n      swap2\n      pop\n      pop\n      jump\t// out\n        /* \"#utility.yul\":13309:13702   */\n    tag_125:\n        /* \"#utility.yul\":13378:13384   */\n      0x00\n        /* \"#utility.yul\":13428:13429   */\n      0x08\n        /* \"#utility.yul\":13416:13426   */\n      dup4\n        /* \"#utility.yul\":13412:13430   */\n      mul\n        /* \"#utility.yul\":13451:13548   */\n      tag_280\n        /* \"#utility.yul\":13481:13547   */\n      0xffffffffffffffffffffffffffffffffffffffffffffffffffffffffffffffff\n        /* \"#utility.yul\":13470:13479   */\n      dup3\n        /* \"#utility.yul\":13451:13548   */\n      tag_124\n      jump\t// in\n    tag_280:\n        /* \"#utility.yul\":13569:13608   */\n      tag_281\n        /* \"#utility.yul\":13599:13607   */\n      dup7\n        /* \"#utility.yul\":13588:13597   */\n      dup4\n        /* \"#utility.yul\":13569:13608   */\n      tag_124\n      jump\t// in\n    tag_281:\n        /* \"#utility.yul\":13557:13608   */\n      swap6\n      pop\n        /* \"#utility.yul\":13641:13645   */\n      dup1\n        /* \"#utility.yul\":13637:13646   */\n      not\n        /* \"#utility.yul\":13630:13635   */\n      dup5\n        /* \"#utility.yul\":13626:13647   */\n      and\n        /* \"#utility.yul\":13617:13647   */\n      swap4\n      pop\n        /* \"#utility.yul\":13690:13694   */\n      dup1\n        /* \"#utility.yul\":13680:13688   */\n      dup7\n        /* \"#utility.yul\":13676:13695   */\n      and\n        /* \"#utility.yul\":13669:13674   */\n      dup5\n        /* \"#utility.yul\":13666:13696   */\n      or\n        /* \"#utility.yul\":13656:13696   */\n      swap3\n      pop\n        /* \"#utility.yul\":13385:13702   */\n      pop\n      pop\n        /* \"#utility.yul\":13309:13702   */\n      swap4\n      swap3\n      pop\n      pop\n      pop\n      jump\t// out\n        /* \"#utility.yul\":13708:13768   */\n    tag_126:\n        /* \"#utility.yul\":13736:13739   */\n      0x00\n        /* \"#utility.yul\":13757:13762   */\n      dup2\n        /* \"#utility.yul\":13750:13762   */\n      swap1\n      pop\n        /* \"#utility.yul\":13708:13768   */\n      swap2\n      swap1\n      pop\n      jump\t// out\n        /* \"#utility.yul\":13774:13916   */\n    tag_127:\n        /* \"#utility.yul\":13824:13833   */\n      0x00\n        /* \"#utility.yul\":13857:13910   */\n      tag_284\n        /* \"#utility.yul\":13875:13909   */\n      tag_285\n        /* \"#utility.yul\":13884:13908   */\n      tag_286\n        /* \"#utility.yul\":13902:13907   */\n      dup5\n        /* \"#utility.yul\":13884:13908   */\n      tag_84\n      jump\t// in\n    tag_286:\n        /* \"#utility.yul\":13875:13909   */\n      tag_126\n      jump\t// in\n    tag_285:\n        /* \"#utility.yul\":13857:13910   */\n      tag_84\n      jump\t// in\n    tag_284:\n        /* \"#utility.yul\":13844:13910   */\n      swap1\n      pop\n        /* \"#utility.yul\":13774:13916   */\n      swap2\n      swap1\n      pop\n      jump\t// out\n        /* \"#utility.yul\":13922:13997   */\n    tag_128:\n        /* \"#utility.yul\":13965:13968   */\n      0x00\n        /* \"#utility.yul\":13986:13991   */\n      dup2\n        /* \"#utility.yul\":13979:13991   */\n      swap1\n      pop\n        /* \"#utility.yul\":13922:13997   */\n      swap2\n      swap1\n      pop\n      jump\t// out\n        /* \"#utility.yul\":14003:14272   */\n    tag_129:\n        /* \"#utility.yul\":14113:14152   */\n      tag_289\n        /* \"#utility.yul\":14144:14151   */\n      dup4\n        /* \"#utility.yul\":14113:14152   */\n      tag_127\n      jump\t// in\n    tag_289:\n        /* \"#utility.yul\":14174:14265   */\n      tag_290\n        /* \"#utility.yul\":14223:14264   */\n      tag_291\n        /* \"#utility.yul\":14247:14263   */\n      dup3\n        /* \"#utility.yul\":14223:14264   */\n      tag_128\n      jump\t// in\n    tag_291:\n        /* \"#utility.yul\":14215:14221   */\n      dup5\n        /* \"#utility.yul\":14208:14212   */\n      dup5\n        /* \"#utility.yul\":14202:14213   */\n      sload\n        /* \"#utility.yul\":14174:14265   */\n      tag_125\n      jump\t// in\n    tag_290:\n        /* \"#utility.yul\":14168:14172   */\n      dup3\n        /* \"#utility.yul\":14161:14266   */\n      sstore\n        /* \"#utility.yul\":14079:14272   */\n      pop\n        /* \"#utility.yul\":14003:14272   */\n      pop\n      pop\n      pop\n      jump\t// out\n        /* \"#utility.yul\":14278:14351   */\n    tag_130:\n        /* \"#utility.yul\":14323:14326   */\n      0x00\n        /* \"#utility.yul\":14278:14351   */\n      swap1\n      jump\t// out\n        /* \"#utility.yul\":14357:14546   */\n    tag_131:\n        /* \"#utility.yul\":14434:14466   */\n      tag_294\n      tag_130\n      jump\t// in\n    tag_294:\n        /* \"#utility.yul\":14475:14540   */\n      tag_295\n        /* \"#utility.yul\":14533:14539   */\n      dup2\n        /* \"#utility.yul\":14525:14531   */\n      dup5\n        /* \"#utility.yul\":14519:14523   */\n      dup5\n        /* \"#utility.yul\":14475:14540   */\n      tag_129\n      jump\t// in\n    tag_295:\n        /* \"#utility.yul\":14410:14546   */\n      pop\n        /* \"#utility.yul\":14357:14546   */\n      pop\n      pop\n      jump\t// out\n        /* \"#utility.yul\":14552:14738   */\n    tag_132:\n        /* \"#utility.yul\":14612:14732   */\n    tag_297:\n        /* \"#utility.yul\":14629:14632   */\n      dup2\n        /* \"#utility.yul\":14622:14627   */\n      dup2\n        /* \"#utility.yul\":14619:14633   */\n      lt\n        /* \"#utility.yul\":14612:14732   */\n      iszero\n      tag_299\n      jumpi\n        /* \"#utility.yul\":14683:14722   */\n      tag_300\n        /* \"#utility.yul\":14720:14721   */\n      0x00\n        /* \"#utility.yul\":14713:14718   */\n      dup3\n        /* \"#utility.yul\":14683:14722   */\n      tag_131\n      jump\t// in\n    tag_300:\n        /* \"#utility.yul\":14656:14657   */\n      0x01\n        /* \"#utility.yul\":14649:14654   */\n      dup2\n        /* \"#utility.yul\":14645:14658   */\n      add\n        /* \"#utility.yul\":14636:14658   */\n      swap1\n      pop\n        /* \"#utility.yul\":14612:14732   */\n      jump(tag_297)\n    tag_299:\n        /* \"#utility.yul\":14552:14738   */\n      pop\n      pop\n      jump\t// out\n        /* \"#utility.yul\":14744:15287   */\n    tag_133:\n        /* \"#utility.yul\":14845:14847   */\n      0x1f\n        /* \"#utility.yul\":14840:14843   */\n      dup3\n        /* \"#utility.yul\":14837:14848   */\n      gt\n        /* \"#utility.yul\":14834:15280   */\n      iszero\n      tag_302\n      jumpi\n        /* \"#utility.yul\":14879:14917   */\n      tag_303\n        /* \"#utility.yul\":14911:14916   */\n      dup2\n        /* \"#utility.yul\":14879:14917   */\n      tag_122\n      jump\t// in\n    tag_303:\n        /* \"#utility.yul\":14963:14992   */\n      tag_304\n        /* \"#utility.yul\":14981:14991   */\n      dup5\n        /* \"#utility.yul\":14963:14992   */\n      tag_123\n      jump\t// in\n    tag_304:\n        /* \"#utility.yul\":14953:14961   */\n      dup2\n        /* \"#utility.yul\":14949:14993   */\n      add\n        /* \"#utility.yul\":15146:15148   */\n      0x20\n        /* \"#utility.yul\":15134:15144   */\n      dup6\n        /* \"#utility.yul\":15131:15149   */\n      lt\n        /* \"#utility.yul\":15128:15177   */\n      iszero\n      tag_305\n      jumpi\n        /* \"#utility.yul\":15167:15175   */\n      dup2\n        /* \"#utility.yul\":15152:15175   */\n      swap1\n      pop\n        /* \"#utility.yul\":15128:15177   */\n    tag_305:\n        /* \"#utility.yul\":15190:15270   */\n      tag_306\n        /* \"#utility.yul\":15246:15268   */\n      tag_307\n        /* \"#utility.yul\":15264:15267   */\n      dup6\n        /* \"#utility.yul\":15246:15268   */\n      tag_123\n      jump\t// in\n    tag_307:\n        /* \"#utility.yul\":15236:15244   */\n      dup4\n        /* \"#utility.yul\":15232:15269   */\n      add\n        /* \"#utility.yul\":15219:15230   */\n      dup3\n        /* \"#utility.yul\":15190:15270   */\n      tag_132\n      jump\t// in\n    tag_306:\n        /* \"#utility.yul\":14849:15280   */\n      pop\n      pop\n        /* \"#utility.yul\":14834:15280   */\n    tag_302:\n        /* \"#utility.yul\":14744:15287   */\n      pop\n      pop\n      pop\n      jump\t// out\n        /* \"#utility.yul\":15293:15410   */\n    tag_134:\n        /* \"#utility.yul\":15347:15355   */\n      0x00\n        /* \"#utility.yul\":15397:15402   */\n      dup3\n        /* \"#utility.yul\":15391:15395   */\n      dup3\n        /* \"#utility.yul\":15387:15403   */\n      shr\n        /* \"#utility.yul\":15366:15403   */\n      swap1\n      pop\n        /* \"#utility.yul\":15293:15410   */\n      swap3\n      swap2\n      pop\n      pop\n      jump\t// out\n        /* \"#utility.yul\":15416:15585   */\n    tag_135:\n        /* \"#utility.yul\":15460:15466   */\n      0x00\n        /* \"#utility.yul\":15493:15544   */\n      tag_310\n        /* \"#utility.yul\":15541:15542   */\n      0x00\n        /* \"#utility.yul\":15537:15543   */\n      not\n        /* \"#utility.yul\":15529:15534   */\n      dup5\n        /* \"#utility.yul\":15526:15527   */\n      0x08\n        /* \"#utility.yul\":15522:15535   */\n      mul\n        /* \"#utility.yul\":15493:15544   */\n      tag_134\n      jump\t// in\n    tag_310:\n        /* \"#utility.yul\":15489:15545   */\n      not\n        /* \"#utility.yul\":15574:15578   */\n      dup1\n        /* \"#utility.yul\":15568:15572   */\n      dup4\n        /* \"#utility.yul\":15564:15579   */\n      and\n        /* \"#utility.yul\":15554:15579   */\n      swap2\n      pop\n        /* \"#utility.yul\":15467:15585   */\n      pop\n        /* \"#utility.yul\":15416:15585   */\n      swap3\n      swap2\n      pop\n      pop\n      jump\t// out\n        /* \"#utility.yul\":15590:15885   */\n    tag_136:\n        /* \"#utility.yul\":15666:15670   */\n      0x00\n        /* \"#utility.yul\":15812:15841   */\n      tag_312\n        /* \"#utility.yul\":15837:15840   */\n      dup4\n        /* \"#utility.yul\":15831:15835   */\n      dup4\n        /* \"#utility.yul\":15812:15841   */\n      tag_135\n      jump\t// in\n    tag_312:\n        /* \"#utility.yul\":15804:15841   */\n      swap2\n      pop\n        /* \"#utility.yul\":15874:15877   */\n      dup3\n        /* \"#utility.yul\":15871:15872   */\n      0x02\n        /* \"#utility.yul\":15867:15878   */\n      mul\n        /* \"#utility.yul\":15861:15865   */\n      dup3\n        /* \"#utility.yul\":15858:15879   */\n      or\n        /* \"#utility.yul\":15850:15879   */\n      swap1\n      pop\n        /* \"#utility.yul\":15590:15885   */\n      swap3\n      swap2\n      pop\n      pop\n      jump\t// out\n        /* \"#utility.yul\":15890:17285   */\n    tag_67:\n        /* \"#utility.yul\":16007:16044   */\n      tag_314\n        /* \"#utility.yul\":16040:16043   */\n      dup3\n        /* \"#utility.yul\":16007:16044   */\n      tag_104\n      jump\t// in\n    tag_314:\n        /* \"#utility.yul\":16109:16127   */\n      0xffffffffffffffff\n        /* \"#utility.yul\":16101:16107   */\n      dup2\n        /* \"#utility.yul\":16098:16128   */\n      gt\n        /* \"#utility.yul\":16095:16151   */\n      iszero\n      tag_315\n      jumpi\n        /* \"#utility.yul\":16131:16149   */\n      tag_316\n      tag_92\n      jump\t// in\n    tag_316:\n        /* \"#utility.yul\":16095:16151   */\n    tag_315:\n        /* \"#utility.yul\":16175:16213   */\n      tag_317\n        /* \"#utility.yul\":16207:16211   */\n      dup3\n        /* \"#utility.yul\":16201:16212   */\n      sload\n        /* \"#utility.yul\":16175:16213   */\n      tag_71\n      jump\t// in\n    tag_317:\n        /* \"#utility.yul\":16260:16327   */\n      tag_318\n        /* \"#utility.yul\":16320:16326   */\n      dup3\n        /* \"#utility.yul\":16312:16318   */\n      dup3\n        /* \"#utility.yul\":16306:16310   */\n      dup6\n        /* \"#utility.yul\":16260:16327   */\n      tag_133\n      jump\t// in\n    tag_318:\n        /* \"#utility.yul\":16354:16355   */\n      0x00\n        /* \"#utility.yul\":16378:16382   */\n      0x20\n        /* \"#utility.yul\":16365:16382   */\n      swap1\n      pop\n        /* \"#utility.yul\":16410:16412   */\n      0x1f\n        /* \"#utility.yul\":16402:16408   */\n      dup4\n        /* \"#utility.yul\":16399:16413   */\n      gt\n        /* \"#utility.yul\":16427:16428   */\n      0x01\n        /* \"#utility.yul\":16422:17040   */\n      dup2\n      eq\n      tag_320\n      jumpi\n        /* \"#utility.yul\":17084:17085   */\n      0x00\n        /* \"#utility.yul\":17101:17107   */\n      dup5\n        /* \"#utility.yul\":17098:17175   */\n      iszero\n      tag_321\n      jumpi\n        /* \"#utility.yul\":17150:17159   */\n      dup3\n        /* \"#utility.yul\":17145:17148   */\n      dup8\n        /* \"#utility.yul\":17141:17160   */\n      add\n        /* \"#utility.yul\":17135:17161   */\n      mload\n        /* \"#utility.yul\":17126:17161   */\n      swap1\n      pop\n        /* \"#utility.yul\":17098:17175   */\n    tag_321:\n        /* \"#utility.yul\":17201:17268   */\n      tag_322\n        /* \"#utility.yul\":17261:17267   */\n      dup6\n        /* \"#utility.yul\":17254:17259   */\n      dup3\n        /* \"#utility.yul\":17201:17268   */\n      tag_136\n      jump\t// in\n    tag_322:\n        /* \"#utility.yul\":17195:17199   */\n      dup7\n        /* \"#utility.yul\":17188:17269   */\n      sstore\n        /* \"#utility.yul\":17057:17279   */\n      pop\n        /* \"#utility.yul\":16392:17279   */\n      jump(tag_319)\n        /* \"#utility.yul\":16422:17040   */\n    tag_320:\n        /* \"#utility.yul\":16474:16478   */\n      0x1f\n        /* \"#utility.yul\":16470:16479   */\n      not\n        /* \"#utility.yul\":16462:16468   */\n      dup5\n        /* \"#utility.yul\":16458:16480   */\n      and\n        /* \"#utility.yul\":16508:16545   */\n      tag_323\n        /* \"#utility.yul\":16540:16544   */\n      dup7\n        /* \"#utility.yul\":16508:16545   */\n      tag_122\n      jump\t// in\n    tag_323:\n        /* \"#utility.yul\":16567:16568   */\n      0x00\n        /* \"#utility.yul\":16581:16789   */\n    tag_324:\n        /* \"#utility.yul\":16595:16602   */\n      dup3\n        /* \"#utility.yul\":16592:16593   */\n      dup2\n        /* \"#utility.yul\":16589:16603   */\n      lt\n        /* \"#utility.yul\":16581:16789   */\n      iszero\n      tag_326\n      jumpi\n        /* \"#utility.yul\":16674:16683   */\n      dup5\n        /* \"#utility.yul\":16669:16672   */\n      dup10\n        /* \"#utility.yul\":16665:16684   */\n      add\n        /* \"#utility.yul\":16659:16685   */\n      mload\n        /* \"#utility.yul\":16651:16657   */\n      dup3\n        /* \"#utility.yul\":16644:16686   */\n      sstore\n        /* \"#utility.yul\":16725:16726   */\n      0x01\n        /* \"#utility.yul\":16717:16723   */\n      dup3\n        /* \"#utility.yul\":16713:16727   */\n      add\n        /* \"#utility.yul\":16703:16727   */\n      swap2\n      pop\n        /* \"#utility.yul\":16772:16774   */\n      0x20\n        /* \"#utility.yul\":16761:16770   */\n      dup6\n        /* \"#utility.yul\":16757:16775   */\n      add\n        /* \"#utility.yul\":16744:16775   */\n      swap5\n      pop\n        /* \"#utility.yul\":16618:16622   */\n      0x20\n        /* \"#utility.yul\":16615:16616   */\n      dup2\n        /* \"#utility.yul\":16611:16623   */\n      add\n        /* \"#utility.yul\":16606:16623   */\n      swap1\n      pop\n        /* \"#utility.yul\":16581:16789   */\n      jump(tag_324)\n    tag_326:\n        /* \"#utility.yul\":16817:16823   */\n      dup7\n        /* \"#utility.yul\":16808:16815   */\n      dup4\n        /* \"#utility.yul\":16805:16824   */\n      lt\n        /* \"#utility.yul\":16802:16981   */\n      iszero\n      tag_327\n      jumpi\n        /* \"#utility.yul\":16875:16884   */\n      dup5\n        /* \"#utility.yul\":16870:16873   */\n      dup10\n        /* \"#utility.yul\":16866:16885   */\n      add\n        /* \"#utility.yul\":16860:16886   */\n      mload\n        /* \"#utility.yul\":16918:16966   */\n      tag_328\n        /* \"#utility.yul\":16960:16964   */\n      0x1f\n        /* \"#utility.yul\":16952:16958   */\n      dup10\n        /* \"#utility.yul\":16948:16965   */\n      and\n        /* \"#utility.yul\":16937:16946   */\n      dup3\n        /* \"#utility.yul\":16918:16966   */\n      tag_135\n      jump\t// in\n    tag_328:\n        /* \"#utility.yul\":16910:16916   */\n      dup4\n        /* \"#utility.yul\":16903:16967   */\n      sstore\n        /* \"#utility.yul\":16825:16981   */\n      pop\n        /* \"#utility.yul\":16802:16981   */\n    tag_327:\n        /* \"#utility.yul\":17027:17028   */\n      0x01\n        /* \"#utility.yul\":17023:17024   */\n      0x02\n        /* \"#utility.yul\":17015:17021   */\n      dup9\n        /* \"#utility.yul\":17011:17025   */\n      mul\n        /* \"#utility.yul\":17007:17029   */\n      add\n        /* \"#utility.yul\":17001:17005   */\n      dup9\n        /* \"#utility.yul\":16994:17030   */\n      sstore\n        /* \"#utility.yul\":16429:17040   */\n      pop\n      pop\n      pop\n        /* \"#utility.yul\":16392:17279   */\n    tag_319:\n      pop\n        /* \"#utility.yul\":15982:17285   */\n      pop\n      pop\n      pop\n        /* \"#utility.yul\":15890:17285   */\n      pop\n      pop\n      jump\t// out\n        /* \"#utility.yul\":17291:17456   */\n    tag_137:\n        /* \"#utility.yul\":17431:17448   */\n      0x7a65726f20626f6f6b73206c6566740000000000000000000000000000000000\n        /* \"#utility.yul\":17427:17428   */\n      0x00\n        /* \"#utility.yul\":17419:17425   */\n      dup3\n        /* \"#utility.yul\":17415:17429   */\n      add\n        /* \"#utility.yul\":17408:17449   */\n      mstore\n        /* \"#utility.yul\":17291:17456   */\n      pop\n      jump\t// out\n        /* \"#utility.yul\":17462:17828   */\n    tag_138:\n        /* \"#utility.yul\":17604:17607   */\n      0x00\n        /* \"#utility.yul\":17625:17692   */\n      tag_331\n        /* \"#utility.yul\":17689:17691   */\n      0x0f\n        /* \"#utility.yul\":17684:17687   */\n      dup4\n        /* \"#utility.yul\":17625:17692   */\n      tag_105\n      jump\t// in\n    tag_331:\n        /* \"#utility.yul\":17618:17692   */\n      swap2\n      pop\n        /* \"#utility.yul\":17701:17794   */\n      tag_332\n        /* \"#utility.yul\":17790:17793   */\n      dup3\n        /* \"#utility.yul\":17701:17794   */\n      tag_137\n      jump\t// in\n    tag_332:\n        /* \"#utility.yul\":17819:17821   */\n      0x20\n        /* \"#utility.yul\":17814:17817   */\n      dup3\n        /* \"#utility.yul\":17810:17822   */\n      add\n        /* \"#utility.yul\":17803:17822   */\n      swap1\n      pop\n        /* \"#utility.yul\":17462:17828   */\n      swap2\n      swap1\n      pop\n      jump\t// out\n        /* \"#utility.yul\":17834:18253   */\n    tag_81:\n        /* \"#utility.yul\":18000:18004   */\n      0x00\n        /* \"#utility.yul\":18038:18040   */\n      0x20\n        /* \"#utility.yul\":18027:18036   */\n      dup3\n        /* \"#utility.yul\":18023:18041   */\n      add\n        /* \"#utility.yul\":18015:18041   */\n      swap1\n      pop\n        /* \"#utility.yul\":18087:18096   */\n      dup2\n        /* \"#utility.yul\":18081:18085   */\n      dup2\n        /* \"#utility.yul\":18077:18097   */\n      sub\n        /* \"#utility.yul\":18073:18074   */\n      0x00\n        /* \"#utility.yul\":18062:18071   */\n      dup4\n        /* \"#utility.yul\":18058:18075   */\n      add\n        /* \"#utility.yul\":18051:18098   */\n      mstore\n        /* \"#utility.yul\":18115:18246   */\n      tag_334\n        /* \"#utility.yul\":18241:18245   */\n      dup2\n        /* \"#utility.yul\":18115:18246   */\n      tag_138\n      jump\t// in\n    tag_334:\n        /* \"#utility.yul\":18107:18246   */\n      swap1\n      pop\n        /* \"#utility.yul\":17834:18253   */\n      swap2\n      swap1\n      pop\n      jump\t// out\n        /* \"#utility.yul\":18259:18430   */\n    tag_83:\n        /* \"#utility.yul\":18298:18301   */\n      0x00\n        /* \"#utility.yul\":18321:18345   */\n      tag_336\n        /* \"#utility.yul\":18339:18344   */\n      dup3\n        /* \"#utility.yul\":18321:18345   */\n      tag_84\n      jump\t// in\n    tag_336:\n        /* \"#utility.yul\":18312:18345   */\n      swap2\n      pop\n        /* \"#utility.yul\":18367:18371   */\n      0x00\n        /* \"#utility.yul\":18360:18365   */\n      dup3\n        /* \"#utility.yul\":18357:18372   */\n      sub\n        /* \"#utility.yul\":18354:18395   */\n      tag_337\n      jumpi\n        /* \"#utility.yul\":18375:18393   */\n      tag_338\n      tag_115\n      jump\t// in\n    tag_338:\n        /* \"#utility.yul\":18354:18395   */\n    tag_337:\n        /* \"#utility.yul\":18422:18423   */\n      0x01\n        /* \"#utility.yul\":18415:18420   */\n      dup3\n        /* \"#utility.yul\":18411:18424   */\n      sub\n        /* \"#utility.yul\":18404:18424   */\n      swap1\n      pop\n        /* \"#utility.yul\":18259:18430   */\n      swap2\n      swap1\n      pop\n      jump\t// out\n\n    auxdata: 0xa26469706673582212201c7f0d043486c76a1696d91a29dd4c55597bb96edc157715d2c0df782f10539b64736f6c634300080f0033\n}\n",
				"bytecode": {
					"linkReferences": {},
					"object": "60a060405234801561001057600080fd5b503373ffffffffffffffffffffffffffffffffffffffff1660808173ffffffffffffffffffffffffffffffffffffffff1681525050608051611200610067600039600081816102cb015261077301526112006000f3fe608060405234801561001057600080fd5b50600436106100885760003560e01c8063687440461161005b57806368744046146101015780637e490a9e146101325780638da5cb5b1461014e578063901dec821461016c57610088565b806306661abd1461008d57806310319fcc146100ab5780632427e59e146100b5578063637a3872146100e5575b600080fd5b61009561019c565b6040516100a291906107c6565b60405180910390f35b6100b36101a2565b005b6100cf60048036038101906100ca919061093b565b61029b565b6040516100dc91906107c6565b60405180910390f35b6100ff60048036038101906100fa9190610a10565b6102c9565b005b61011b60048036038101906101169190610a70565b610519565b604051610129929190610b25565b60405180910390f35b61014c60048036038101906101479190610a70565b6105c5565b005b610156610771565b6040516101639190610b96565b60405180910390f35b61018660048036038101906101819190610bdd565b610795565b60405161019391906107c6565b60405180910390f35b60005481565b6000600160003373ffffffffffffffffffffffffffffffffffffffff1673ffffffffffffffffffffffffffffffffffffffff16815260200190815260200160002054905060008111610229576040517f08c379a000000000000000000000000000000000000000000000000000000000815260040161022090610c56565b60405180910390fd5b6000600160003373ffffffffffffffffffffffffffffffffffffffff1673ffffffffffffffffffffffffffffffffffffffff16815260200190815260200160002081905550600360008281526020019081526020016000206001016000815461029190610ca5565b9190508190555050565b6002818051602081018201805184825260208301602085012081835280955050505050506000915090505481565b7f000000000000000000000000000000000000000000000000000000000000000073ffffffffffffffffffffffffffffffffffffffff163373ffffffffffffffffffffffffffffffffffffffff1614610357576040517f08c379a000000000000000000000000000000000000000000000000000000000815260040161034e90610d39565b60405180910390fd5b60006002848460405161036b929190610d89565b9081526020016040518091039020541461040c57806003600060028686604051610396929190610d89565b908152602001604051809103902054815260200190815260200160002060010160008282546103c59190610da2565b925050819055507f1c59ae2fc2d4d8fd587dd73c1193e81642fde8135d41b10c3325d3d1985f05ab8383836040516103ff93929190610e25565b60405180910390a1610514565b600080815461041a90610ca5565b91905081905550604051806040016040528084848080601f016020809104026020016040519081016040528093929190818152602001838380828437600081840152601f19601f82011690508083019250505050505050815260200182815250600360008054815260200190815260200160002060008201518160000190816104a39190611063565b5060208201518160010155905050600054600284846040516104c6929190610d89565b9081526020016040518091039020819055507f5e5c09fb592e65b4897c25cb4a0597b46a9df6a8a9c1ace81148602e3166dfd483838360405161050b93929190610e25565b60405180910390a15b505050565b600360205280600052604060002060009150905080600001805461053c90610e86565b80601f016020809104026020016040519081016040528092919081815260200182805461056890610e86565b80156105b55780601f1061058a576101008083540402835291602001916105b5565b820191906000526020600020905b81548152906001019060200180831161059857829003601f168201915b5050505050908060010154905082565b6000600160003373ffffffffffffffffffffffffffffffffffffffff1673ffffffffffffffffffffffffffffffffffffffff16815260200190815260200160002054111561064a57336040517faf162d1b0000000000000000000000000000000000000000000000000000000081526004016106419190610b96565b60405180910390fd5b600060036000838152602001908152602001600020905060008160010154116106a8576040517f08c379a000000000000000000000000000000000000000000000000000000000815260040161069f90611181565b60405180910390fd5b80600101600081546106b9906111a1565b9190508190555081600160003373ffffffffffffffffffffffffffffffffffffffff1673ffffffffffffffffffffffffffffffffffffffff1681526020019081526020016000208190555060016004600084815260200190815260200160002060003373ffffffffffffffffffffffffffffffffffffffff1673ffffffffffffffffffffffffffffffffffffffff16815260200190815260200160002060006101000a81548160ff0219169083151502179055505050565b7f000000000000000000000000000000000000000000000000000000000000000081565b60016020528060005260406000206000915090505481565b6000819050919050565b6107c0816107ad565b82525050565b60006020820190506107db60008301846107b7565b92915050565b6000604051905090565b600080fd5b600080fd5b600080fd5b600080fd5b6000601f19601f8301169050919050565b7f4e487b7100000000000000000000000000000000000000000000000000000000600052604160045260246000fd5b610848826107ff565b810181811067ffffffffffffffff8211171561086757610866610810565b5b80604052505050565b600061087a6107e1565b9050610886828261083f565b919050565b600067ffffffffffffffff8211156108a6576108a5610810565b5b6108af826107ff565b9050602081019050919050565b82818337600083830152505050565b60006108de6108d98461088b565b610870565b9050828152602081018484840111156108fa576108f96107fa565b5b6109058482856108bc565b509392505050565b600082601f830112610922576109216107f5565b5b81356109328482602086016108cb565b91505092915050565b600060208284031215610951576109506107eb565b5b600082013567ffffffffffffffff81111561096f5761096e6107f0565b5b61097b8482850161090d565b91505092915050565b600080fd5b600080fd5b60008083601f8401126109a4576109a36107f5565b5b8235905067ffffffffffffffff8111156109c1576109c0610984565b5b6020830191508360018202830111156109dd576109dc610989565b5b9250929050565b6109ed816107ad565b81146109f857600080fd5b50565b600081359050610a0a816109e4565b92915050565b600080600060408486031215610a2957610a286107eb565b5b600084013567ffffffffffffffff811115610a4757610a466107f0565b5b610a538682870161098e565b93509350506020610a66868287016109fb565b9150509250925092565b600060208284031215610a8657610a856107eb565b5b6000610a94848285016109fb565b91505092915050565b600081519050919050565b600082825260208201905092915050565b60005b83811015610ad7578082015181840152602081019050610abc565b83811115610ae6576000848401525b50505050565b6000610af782610a9d565b610b018185610aa8565b9350610b11818560208601610ab9565b610b1a816107ff565b840191505092915050565b60006040820190508181036000830152610b3f8185610aec565b9050610b4e60208301846107b7565b9392505050565b600073ffffffffffffffffffffffffffffffffffffffff82169050919050565b6000610b8082610b55565b9050919050565b610b9081610b75565b82525050565b6000602082019050610bab6000830184610b87565b92915050565b610bba81610b75565b8114610bc557600080fd5b50565b600081359050610bd781610bb1565b92915050565b600060208284031215610bf357610bf26107eb565b5b6000610c0184828501610bc8565b91505092915050565b7f6e6f7420626f72726f776e670000000000000000000000000000000000000000600082015250565b6000610c40600c83610aa8565b9150610c4b82610c0a565b602082019050919050565b60006020820190508181036000830152610c6f81610c33565b9050919050565b7f4e487b7100000000000000000000000000000000000000000000000000000000600052601160045260246000fd5b6000610cb0826107ad565b91507fffffffffffffffffffffffffffffffffffffffffffffffffffffffffffffffff8203610ce257610ce1610c76565b5b600182019050919050565b7f6e6f74206f776e65720000000000000000000000000000000000000000000000600082015250565b6000610d23600983610aa8565b9150610d2e82610ced565b602082019050919050565b60006020820190508181036000830152610d5281610d16565b9050919050565b600081905092915050565b6000610d708385610d59565b9350610d7d8385846108bc565b82840190509392505050565b6000610d96828486610d64565b91508190509392505050565b6000610dad826107ad565b9150610db8836107ad565b9250827fffffffffffffffffffffffffffffffffffffffffffffffffffffffffffffffff03821115610ded57610dec610c76565b5b828201905092915050565b6000610e048385610aa8565b9350610e118385846108bc565b610e1a836107ff565b840190509392505050565b60006040820190508181036000830152610e40818587610df8565b9050610e4f60208301846107b7565b949350505050565b7f4e487b7100000000000000000000000000000000000000000000000000000000600052602260045260246000fd5b60006002820490506001821680610e9e57607f821691505b602082108103610eb157610eb0610e57565b5b50919050565b60008190508160005260206000209050919050565b60006020601f8301049050919050565b600082821b905092915050565b600060088302610f197fffffffffffffffffffffffffffffffffffffffffffffffffffffffffffffffff82610edc565b610f238683610edc565b95508019841693508086168417925050509392505050565b6000819050919050565b6000610f60610f5b610f56846107ad565b610f3b565b6107ad565b9050919050565b6000819050919050565b610f7a83610f45565b610f8e610f8682610f67565b848454610ee9565b825550505050565b600090565b610fa3610f96565b610fae818484610f71565b505050565b5b81811015610fd257610fc7600082610f9b565b600181019050610fb4565b5050565b601f82111561101757610fe881610eb7565b610ff184610ecc565b81016020851015611000578190505b61101461100c85610ecc565b830182610fb3565b50505b505050565b600082821c905092915050565b600061103a6000198460080261101c565b1980831691505092915050565b60006110538383611029565b9150826002028217905092915050565b61106c82610a9d565b67ffffffffffffffff81111561108557611084610810565b5b61108f8254610e86565b61109a828285610fd6565b600060209050601f8311600181146110cd57600084156110bb578287015190505b6110c58582611047565b86555061112d565b601f1984166110db86610eb7565b60005b82811015611103578489015182556001820191506020850194506020810190506110de565b86831015611120578489015161111c601f891682611029565b8355505b6001600288020188555050505b505050505050565b7f7a65726f20626f6f6b73206c6566740000000000000000000000000000000000600082015250565b600061116b600f83610aa8565b915061117682611135565b602082019050919050565b6000602082019050818103600083015261119a8161115e565b9050919050565b60006111ac826107ad565b9150600082036111bf576111be610c76565b5b60018203905091905056fea26469706673582212201c7f0d043486c76a1696d91a29dd4c55597bb96edc157715d2c0df782f10539b64736f6c634300080f0033",
					"opcodes": "PUSH1 0xA0 PUSH1 0x40 MSTORE CALLVALUE DUP1 ISZERO PUSH2 0x10 JUMPI PUSH1 0x0 DUP1 REVERT JUMPDEST POP CALLER PUSH20 0xFFFFFFFFFFFFFFFFFFFFFFFFFFFFFFFFFFFFFFFF AND PUSH1 0x80 DUP2 PUSH20 0xFFFFFFFFFFFFFFFFFFFFFFFFFFFFFFFFFFFFFFFF AND DUP2 MSTORE POP POP PUSH1 0x80 MLOAD PUSH2 0x1200 PUSH2 0x67 PUSH1 0x0 CODECOPY PUSH1 0x0 DUP2 DUP2 PUSH2 0x2CB ADD MSTORE PUSH2 0x773 ADD MSTORE PUSH2 0x1200 PUSH1 0x0 RETURN INVALID PUSH1 0x80 PUSH1 0x40 MSTORE CALLVALUE DUP1 ISZERO PUSH2 0x10 JUMPI PUSH1 0x0 DUP1 REVERT JUMPDEST POP PUSH1 0x4 CALLDATASIZE LT PUSH2 0x88 JUMPI PUSH1 0x0 CALLDATALOAD PUSH1 0xE0 SHR DUP1 PUSH4 0x68744046 GT PUSH2 0x5B JUMPI DUP1 PUSH4 0x68744046 EQ PUSH2 0x101 JUMPI DUP1 PUSH4 0x7E490A9E EQ PUSH2 0x132 JUMPI DUP1 PUSH4 0x8DA5CB5B EQ PUSH2 0x14E JUMPI DUP1 PUSH4 0x901DEC82 EQ PUSH2 0x16C JUMPI PUSH2 0x88 JUMP JUMPDEST DUP1 PUSH4 0x6661ABD EQ PUSH2 0x8D JUMPI DUP1 PUSH4 0x10319FCC EQ PUSH2 0xAB JUMPI DUP1 PUSH4 0x2427E59E EQ PUSH2 0xB5 JUMPI DUP1 PUSH4 0x637A3872 EQ PUSH2 0xE5 JUMPI JUMPDEST PUSH1 0x0 DUP1 REVERT JUMPDEST PUSH2 0x95 PUSH2 0x19C JUMP JUMPDEST PUSH1 0x40 MLOAD PUSH2 0xA2 SWAP2 SWAP1 PUSH2 0x7C6 JUMP JUMPDEST PUSH1 0x40 MLOAD DUP1 SWAP2 SUB SWAP1 RETURN JUMPDEST PUSH2 0xB3 PUSH2 0x1A2 JUMP JUMPDEST STOP JUMPDEST PUSH2 0xCF PUSH1 0x4 DUP1 CALLDATASIZE SUB DUP2 ADD SWAP1 PUSH2 0xCA SWAP2 SWAP1 PUSH2 0x93B JUMP JUMPDEST PUSH2 0x29B JUMP JUMPDEST PUSH1 0x40 MLOAD PUSH2 0xDC SWAP2 SWAP1 PUSH2 0x7C6 JUMP JUMPDEST PUSH1 0x40 MLOAD DUP1 SWAP2 SUB SWAP1 RETURN JUMPDEST PUSH2 0xFF PUSH1 0x4 DUP1 CALLDATASIZE SUB DUP2 ADD SWAP1 PUSH2 0xFA SWAP2 SWAP1 PUSH2 0xA10 JUMP JUMPDEST PUSH2 0x2C9 JUMP JUMPDEST STOP JUMPDEST PUSH2 0x11B PUSH1 0x4 DUP1 CALLDATASIZE SUB DUP2 ADD SWAP1 PUSH2 0x116 SWAP2 SWAP1 PUSH2 0xA70 JUMP JUMPDEST PUSH2 0x519 JUMP JUMPDEST PUSH1 0x40 MLOAD PUSH2 0x129 SWAP3 SWAP2 SWAP1 PUSH2 0xB25 JUMP JUMPDEST PUSH1 0x40 MLOAD DUP1 SWAP2 SUB SWAP1 RETURN JUMPDEST PUSH2 0x14C PUSH1 0x4 DUP1 CALLDATASIZE SUB DUP2 ADD SWAP1 PUSH2 0x147 SWAP2 SWAP1 PUSH2 0xA70 JUMP JUMPDEST PUSH2 0x5C5 JUMP JUMPDEST STOP JUMPDEST PUSH2 0x156 PUSH2 0x771 JUMP JUMPDEST PUSH1 0x40 MLOAD PUSH2 0x163 SWAP2 SWAP1 PUSH2 0xB96 JUMP JUMPDEST PUSH1 0x40 MLOAD DUP1 SWAP2 SUB SWAP1 RETURN JUMPDEST PUSH2 0x186 PUSH1 0x4 DUP1 CALLDATASIZE SUB DUP2 ADD SWAP1 PUSH2 0x181 SWAP2 SWAP1 PUSH2 0xBDD JUMP JUMPDEST PUSH2 0x795 JUMP JUMPDEST PUSH1 0x40 MLOAD PUSH2 0x193 SWAP2 SWAP1 PUSH2 0x7C6 JUMP JUMPDEST PUSH1 0x40 MLOAD DUP1 SWAP2 SUB SWAP1 RETURN JUMPDEST PUSH1 0x0 SLOAD DUP2 JUMP JUMPDEST PUSH1 0x0 PUSH1 0x1 PUSH1 0x0 CALLER PUSH20 0xFFFFFFFFFFFFFFFFFFFFFFFFFFFFFFFFFFFFFFFF AND PUSH20 0xFFFFFFFFFFFFFFFFFFFFFFFFFFFFFFFFFFFFFFFF AND DUP2 MSTORE PUSH1 0x20 ADD SWAP1 DUP2 MSTORE PUSH1 0x20 ADD PUSH1 0x0 KECCAK256 SLOAD SWAP1 POP PUSH1 0x0 DUP2 GT PUSH2 0x229 JUMPI PUSH1 0x40 MLOAD PUSH32 0x8C379A000000000000000000000000000000000000000000000000000000000 DUP2 MSTORE PUSH1 0x4 ADD PUSH2 0x220 SWAP1 PUSH2 0xC56 JUMP JUMPDEST PUSH1 0x40 MLOAD DUP1 SWAP2 SUB SWAP1 REVERT JUMPDEST PUSH1 0x0 PUSH1 0x1 PUSH1 0x0 CALLER PUSH20 0xFFFFFFFFFFFFFFFFFFFFFFFFFFFFFFFFFFFFFFFF AND PUSH20 0xFFFFFFFFFFFFFFFFFFFFFFFFFFFFFFFFFFFFFFFF AND DUP2 MSTORE PUSH1 0x20 ADD SWAP1 DUP2 MSTORE PUSH1 0x20 ADD PUSH1 0x0 KECCAK256 DUP2 SWAP1 SSTORE POP PUSH1 0x3 PUSH1 0x0 DUP3 DUP2 MSTORE PUSH1 0x20 ADD SWAP1 DUP2 MSTORE PUSH1 0x20 ADD PUSH1 0x0 KECCAK256 PUSH1 0x1 ADD PUSH1 0x0 DUP2 SLOAD PUSH2 0x291 SWAP1 PUSH2 0xCA5 JUMP JUMPDEST SWAP2 SWAP1 POP DUP2 SWAP1 SSTORE POP POP JUMP JUMPDEST PUSH1 0x2 DUP2 DUP1 MLOAD PUSH1 0x20 DUP2 ADD DUP3 ADD DUP1 MLOAD DUP5 DUP3 MSTORE PUSH1 0x20 DUP4 ADD PUSH1 0x20 DUP6 ADD KECCAK256 DUP2 DUP4 MSTORE DUP1 SWAP6 POP POP POP POP POP POP PUSH1 0x0 SWAP2 POP SWAP1 POP SLOAD DUP2 JUMP JUMPDEST PUSH32 0x0 PUSH20 0xFFFFFFFFFFFFFFFFFFFFFFFFFFFFFFFFFFFFFFFF AND CALLER PUSH20 0xFFFFFFFFFFFFFFFFFFFFFFFFFFFFFFFFFFFFFFFF AND EQ PUSH2 0x357 JUMPI PUSH1 0x40 MLOAD PUSH32 0x8C379A000000000000000000000000000000000000000000000000000000000 DUP2 MSTORE PUSH1 0x4 ADD PUSH2 0x34E SWAP1 PUSH2 0xD39 JUMP JUMPDEST PUSH1 0x40 MLOAD DUP1 SWAP2 SUB SWAP1 REVERT JUMPDEST PUSH1 0x0 PUSH1 0x2 DUP5 DUP5 PUSH1 0x40 MLOAD PUSH2 0x36B SWAP3 SWAP2 SWAP1 PUSH2 0xD89 JUMP JUMPDEST SWAP1 DUP2 MSTORE PUSH1 0x20 ADD PUSH1 0x40 MLOAD DUP1 SWAP2 SUB SWAP1 KECCAK256 SLOAD EQ PUSH2 0x40C JUMPI DUP1 PUSH1 0x3 PUSH1 0x0 PUSH1 0x2 DUP7 DUP7 PUSH1 0x40 MLOAD PUSH2 0x396 SWAP3 SWAP2 SWAP1 PUSH2 0xD89 JUMP JUMPDEST SWAP1 DUP2 MSTORE PUSH1 0x20 ADD PUSH1 0x40 MLOAD DUP1 SWAP2 SUB SWAP1 KECCAK256 SLOAD DUP2 MSTORE PUSH1 0x20 ADD SWAP1 DUP2 MSTORE PUSH1 0x20 ADD PUSH1 0x0 KECCAK256 PUSH1 0x1 ADD PUSH1 0x0 DUP3 DUP3 SLOAD PUSH2 0x3C5 SWAP2 SWAP1 PUSH2 0xDA2 JUMP JUMPDEST SWAP3 POP POP DUP2 SWAP1 SSTORE POP PUSH32 0x1C59AE2FC2D4D8FD587DD73C1193E81642FDE8135D41B10C3325D3D1985F05AB DUP4 DUP4 DUP4 PUSH1 0x40 MLOAD PUSH2 0x3FF SWAP4 SWAP3 SWAP2 SWAP1 PUSH2 0xE25 JUMP JUMPDEST PUSH1 0x40 MLOAD DUP1 SWAP2 SUB SWAP1 LOG1 PUSH2 0x514 JUMP JUMPDEST PUSH1 0x0 DUP1 DUP2 SLOAD PUSH2 0x41A SWAP1 PUSH2 0xCA5 JUMP JUMPDEST SWAP2 SWAP1 POP DUP2 SWAP1 SSTORE POP PUSH1 0x40 MLOAD DUP1 PUSH1 0x40 ADD PUSH1 0x40 MSTORE DUP1 DUP5 DUP5 DUP1 DUP1 PUSH1 0x1F ADD PUSH1 0x20 DUP1 SWAP2 DIV MUL PUSH1 0x20 ADD PUSH1 0x40 MLOAD SWAP1 DUP2 ADD PUSH1 0x40 MSTORE DUP1 SWAP4 SWAP3 SWAP2 SWAP1 DUP2 DUP2 MSTORE PUSH1 0x20 ADD DUP4 DUP4 DUP1 DUP3 DUP5 CALLDATACOPY PUSH1 0x0 DUP2 DUP5 ADD MSTORE PUSH1 0x1F NOT PUSH1 0x1F DUP3 ADD AND SWAP1 POP DUP1 DUP4 ADD SWAP3 POP POP POP POP POP POP POP DUP2 MSTORE PUSH1 0x20 ADD DUP3 DUP2 MSTORE POP PUSH1 0x3 PUSH1 0x0 DUP1 SLOAD DUP2 MSTORE PUSH1 0x20 ADD SWAP1 DUP2 MSTORE PUSH1 0x20 ADD PUSH1 0x0 KECCAK256 PUSH1 0x0 DUP3 ADD MLOAD DUP2 PUSH1 0x0 ADD SWAP1 DUP2 PUSH2 0x4A3 SWAP2 SWAP1 PUSH2 0x1063 JUMP JUMPDEST POP PUSH1 0x20 DUP3 ADD MLOAD DUP2 PUSH1 0x1 ADD SSTORE SWAP1 POP POP PUSH1 0x0 SLOAD PUSH1 0x2 DUP5 DUP5 PUSH1 0x40 MLOAD PUSH2 0x4C6 SWAP3 SWAP2 SWAP1 PUSH2 0xD89 JUMP JUMPDEST SWAP1 DUP2 MSTORE PUSH1 0x20 ADD PUSH1 0x40 MLOAD DUP1 SWAP2 SUB SWAP1 KECCAK256 DUP2 SWAP1 SSTORE POP PUSH32 0x5E5C09FB592E65B4897C25CB4A0597B46A9DF6A8A9C1ACE81148602E3166DFD4 DUP4 DUP4 DUP4 PUSH1 0x40 MLOAD PUSH2 0x50B SWAP4 SWAP3 SWAP2 SWAP1 PUSH2 0xE25 JUMP JUMPDEST PUSH1 0x40 MLOAD DUP1 SWAP2 SUB SWAP1 LOG1 JUMPDEST POP POP POP JUMP JUMPDEST PUSH1 0x3 PUSH1 0x20 MSTORE DUP1 PUSH1 0x0 MSTORE PUSH1 0x40 PUSH1 0x0 KECCAK256 PUSH1 0x0 SWAP2 POP SWAP1 POP DUP1 PUSH1 0x0 ADD DUP1 SLOAD PUSH2 0x53C SWAP1 PUSH2 0xE86 JUMP JUMPDEST DUP1 PUSH1 0x1F ADD PUSH1 0x20 DUP1 SWAP2 DIV MUL PUSH1 0x20 ADD PUSH1 0x40 MLOAD SWAP1 DUP2 ADD PUSH1 0x40 MSTORE DUP1 SWAP3 SWAP2 SWAP1 DUP2 DUP2 MSTORE PUSH1 0x20 ADD DUP3 DUP1 SLOAD PUSH2 0x568 SWAP1 PUSH2 0xE86 JUMP JUMPDEST DUP1 ISZERO PUSH2 0x5B5 JUMPI DUP1 PUSH1 0x1F LT PUSH2 0x58A JUMPI PUSH2 0x100 DUP1 DUP4 SLOAD DIV MUL DUP4 MSTORE SWAP2 PUSH1 0x20 ADD SWAP2 PUSH2 0x5B5 JUMP JUMPDEST DUP3 ADD SWAP2 SWAP1 PUSH1 0x0 MSTORE PUSH1 0x20 PUSH1 0x0 KECCAK256 SWAP1 JUMPDEST DUP2 SLOAD DUP2 MSTORE SWAP1 PUSH1 0x1 ADD SWAP1 PUSH1 0x20 ADD DUP1 DUP4 GT PUSH2 0x598 JUMPI DUP3 SWAP1 SUB PUSH1 0x1F AND DUP3 ADD SWAP2 JUMPDEST POP POP POP POP POP SWAP1 DUP1 PUSH1 0x1 ADD SLOAD SWAP1 POP DUP3 JUMP JUMPDEST PUSH1 0x0 PUSH1 0x1 PUSH1 0x0 CALLER PUSH20 0xFFFFFFFFFFFFFFFFFFFFFFFFFFFFFFFFFFFFFFFF AND PUSH20 0xFFFFFFFFFFFFFFFFFFFFFFFFFFFFFFFFFFFFFFFF AND DUP2 MSTORE PUSH1 0x20 ADD SWAP1 DUP2 MSTORE PUSH1 0x20 ADD PUSH1 0x0 KECCAK256 SLOAD GT ISZERO PUSH2 0x64A JUMPI CALLER PUSH1 0x40 MLOAD PUSH32 0xAF162D1B00000000000000000000000000000000000000000000000000000000 DUP2 MSTORE PUSH1 0x4 ADD PUSH2 0x641 SWAP2 SWAP1 PUSH2 0xB96 JUMP JUMPDEST PUSH1 0x40 MLOAD DUP1 SWAP2 SUB SWAP1 REVERT JUMPDEST PUSH1 0x0 PUSH1 0x3 PUSH1 0x0 DUP4 DUP2 MSTORE PUSH1 0x20 ADD SWAP1 DUP2 MSTORE PUSH1 0x20 ADD PUSH1 0x0 KECCAK256 SWAP1 POP PUSH1 0x0 DUP2 PUSH1 0x1 ADD SLOAD GT PUSH2 0x6A8 JUMPI PUSH1 0x40 MLOAD PUSH32 0x8C379A000000000000000000000000000000000000000000000000000000000 DUP2 MSTORE PUSH1 0x4 ADD PUSH2 0x69F SWAP1 PUSH2 0x1181 JUMP JUMPDEST PUSH1 0x40 MLOAD DUP1 SWAP2 SUB SWAP1 REVERT JUMPDEST DUP1 PUSH1 0x1 ADD PUSH1 0x0 DUP2 SLOAD PUSH2 0x6B9 SWAP1 PUSH2 0x11A1 JUMP JUMPDEST SWAP2 SWAP1 POP DUP2 SWAP1 SSTORE POP DUP2 PUSH1 0x1 PUSH1 0x0 CALLER PUSH20 0xFFFFFFFFFFFFFFFFFFFFFFFFFFFFFFFFFFFFFFFF AND PUSH20 0xFFFFFFFFFFFFFFFFFFFFFFFFFFFFFFFFFFFFFFFF AND DUP2 MSTORE PUSH1 0x20 ADD SWAP1 DUP2 MSTORE PUSH1 0x20 ADD PUSH1 0x0 KECCAK256 DUP2 SWAP1 SSTORE POP PUSH1 0x1 PUSH1 0x4 PUSH1 0x0 DUP5 DUP2 MSTORE PUSH1 0x20 ADD SWAP1 DUP2 MSTORE PUSH1 0x20 ADD PUSH1 0x0 KECCAK256 PUSH1 0x0 CALLER PUSH20 0xFFFFFFFFFFFFFFFFFFFFFFFFFFFFFFFFFFFFFFFF AND PUSH20 0xFFFFFFFFFFFFFFFFFFFFFFFFFFFFFFFFFFFFFFFF AND DUP2 MSTORE PUSH1 0x20 ADD SWAP1 DUP2 MSTORE PUSH1 0x20 ADD PUSH1 0x0 KECCAK256 PUSH1 0x0 PUSH2 0x100 EXP DUP2 SLOAD DUP2 PUSH1 0xFF MUL NOT AND SWAP1 DUP4 ISZERO ISZERO MUL OR SWAP1 SSTORE POP POP POP JUMP JUMPDEST PUSH32 0x0 DUP2 JUMP JUMPDEST PUSH1 0x1 PUSH1 0x20 MSTORE DUP1 PUSH1 0x0 MSTORE PUSH1 0x40 PUSH1 0x0 KECCAK256 PUSH1 0x0 SWAP2 POP SWAP1 POP SLOAD DUP2 JUMP JUMPDEST PUSH1 0x0 DUP2 SWAP1 POP SWAP2 SWAP1 POP JUMP JUMPDEST PUSH2 0x7C0 DUP2 PUSH2 0x7AD JUMP JUMPDEST DUP3 MSTORE POP POP JUMP JUMPDEST PUSH1 0x0 PUSH1 0x20 DUP3 ADD SWAP1 POP PUSH2 0x7DB PUSH1 0x0 DUP4 ADD DUP5 PUSH2 0x7B7 JUMP JUMPDEST SWAP3 SWAP2 POP POP JUMP JUMPDEST PUSH1 0x0 PUSH1 0x40 MLOAD SWAP1 POP SWAP1 JUMP JUMPDEST PUSH1 0x0 DUP1 REVERT JUMPDEST PUSH1 0x0 DUP1 REVERT JUMPDEST PUSH1 0x0 DUP1 REVERT JUMPDEST PUSH1 0x0 DUP1 REVERT JUMPDEST PUSH1 0x0 PUSH1 0x1F NOT PUSH1 0x1F DUP4 ADD AND SWAP1 POP SWAP2 SWAP1 POP JUMP JUMPDEST PUSH32 0x4E487B7100000000000000000000000000000000000000000000000000000000 PUSH1 0x0 MSTORE PUSH1 0x41 PUSH1 0x4 MSTORE PUSH1 0x24 PUSH1 0x0 REVERT JUMPDEST PUSH2 0x848 DUP3 PUSH2 0x7FF JUMP JUMPDEST DUP2 ADD DUP2 DUP2 LT PUSH8 0xFFFFFFFFFFFFFFFF DUP3 GT OR ISZERO PUSH2 0x867 JUMPI PUSH2 0x866 PUSH2 0x810 JUMP JUMPDEST JUMPDEST DUP1 PUSH1 0x40 MSTORE POP POP POP JUMP JUMPDEST PUSH1 0x0 PUSH2 0x87A PUSH2 0x7E1 JUMP JUMPDEST SWAP1 POP PUSH2 0x886 DUP3 DUP3 PUSH2 0x83F JUMP JUMPDEST SWAP2 SWAP1 POP JUMP JUMPDEST PUSH1 0x0 PUSH8 0xFFFFFFFFFFFFFFFF DUP3 GT ISZERO PUSH2 0x8A6 JUMPI PUSH2 0x8A5 PUSH2 0x810 JUMP JUMPDEST JUMPDEST PUSH2 0x8AF DUP3 PUSH2 0x7FF JUMP JUMPDEST SWAP1 POP PUSH1 0x20 DUP2 ADD SWAP1 POP SWAP2 SWAP1 POP JUMP JUMPDEST DUP3 DUP2 DUP4 CALLDATACOPY PUSH1 0x0 DUP4 DUP4 ADD MSTORE POP POP POP JUMP JUMPDEST PUSH1 0x0 PUSH2 0x8DE PUSH2 0x8D9 DUP5 PUSH2 0x88B JUMP JUMPDEST PUSH2 0x870 JUMP JUMPDEST SWAP1 POP DUP3 DUP2 MSTORE PUSH1 0x20 DUP2 ADD DUP5 DUP5 DUP5 ADD GT ISZERO PUSH2 0x8FA JUMPI PUSH2 0x8F9 PUSH2 0x7FA JUMP JUMPDEST JUMPDEST PUSH2 0x905 DUP5 DUP3 DUP6 PUSH2 0x8BC JUMP JUMPDEST POP SWAP4 SWAP3 POP POP POP JUMP JUMPDEST PUSH1 0x0 DUP3 PUSH1 0x1F DUP4 ADD SLT PUSH2 0x922 JUMPI PUSH2 0x921 PUSH2 0x7F5 JUMP JUMPDEST JUMPDEST DUP2 CALLDATALOAD PUSH2 0x932 DUP5 DUP3 PUSH1 0x20 DUP7 ADD PUSH2 0x8CB JUMP JUMPDEST SWAP2 POP POP SWAP3 SWAP2 POP POP JUMP JUMPDEST PUSH1 0x0 PUSH1 0x20 DUP3 DUP5 SUB SLT ISZERO PUSH2 0x951 JUMPI PUSH2 0x950 PUSH2 0x7EB JUMP JUMPDEST JUMPDEST PUSH1 0x0 DUP3 ADD CALLDATALOAD PUSH8 0xFFFFFFFFFFFFFFFF DUP2 GT ISZERO PUSH2 0x96F JUMPI PUSH2 0x96E PUSH2 0x7F0 JUMP JUMPDEST JUMPDEST PUSH2 0x97B DUP5 DUP3 DUP6 ADD PUSH2 0x90D JUMP JUMPDEST SWAP2 POP POP SWAP3 SWAP2 POP POP JUMP JUMPDEST PUSH1 0x0 DUP1 REVERT JUMPDEST PUSH1 0x0 DUP1 REVERT JUMPDEST PUSH1 0x0 DUP1 DUP4 PUSH1 0x1F DUP5 ADD SLT PUSH2 0x9A4 JUMPI PUSH2 0x9A3 PUSH2 0x7F5 JUMP JUMPDEST JUMPDEST DUP3 CALLDATALOAD SWAP1 POP PUSH8 0xFFFFFFFFFFFFFFFF DUP2 GT ISZERO PUSH2 0x9C1 JUMPI PUSH2 0x9C0 PUSH2 0x984 JUMP JUMPDEST JUMPDEST PUSH1 0x20 DUP4 ADD SWAP2 POP DUP4 PUSH1 0x1 DUP3 MUL DUP4 ADD GT ISZERO PUSH2 0x9DD JUMPI PUSH2 0x9DC PUSH2 0x989 JUMP JUMPDEST JUMPDEST SWAP3 POP SWAP3 SWAP1 POP JUMP JUMPDEST PUSH2 0x9ED DUP2 PUSH2 0x7AD JUMP JUMPDEST DUP2 EQ PUSH2 0x9F8 JUMPI PUSH1 0x0 DUP1 REVERT JUMPDEST POP JUMP JUMPDEST PUSH1 0x0 DUP2 CALLDATALOAD SWAP1 POP PUSH2 0xA0A DUP2 PUSH2 0x9E4 JUMP JUMPDEST SWAP3 SWAP2 POP POP JUMP JUMPDEST PUSH1 0x0 DUP1 PUSH1 0x0 PUSH1 0x40 DUP5 DUP7 SUB SLT ISZERO PUSH2 0xA29 JUMPI PUSH2 0xA28 PUSH2 0x7EB JUMP JUMPDEST JUMPDEST PUSH1 0x0 DUP5 ADD CALLDATALOAD PUSH8 0xFFFFFFFFFFFFFFFF DUP2 GT ISZERO PUSH2 0xA47 JUMPI PUSH2 0xA46 PUSH2 0x7F0 JUMP JUMPDEST JUMPDEST PUSH2 0xA53 DUP7 DUP3 DUP8 ADD PUSH2 0x98E JUMP JUMPDEST SWAP4 POP SWAP4 POP POP PUSH1 0x20 PUSH2 0xA66 DUP7 DUP3 DUP8 ADD PUSH2 0x9FB JUMP JUMPDEST SWAP2 POP POP SWAP3 POP SWAP3 POP SWAP3 JUMP JUMPDEST PUSH1 0x0 PUSH1 0x20 DUP3 DUP5 SUB SLT ISZERO PUSH2 0xA86 JUMPI PUSH2 0xA85 PUSH2 0x7EB JUMP JUMPDEST JUMPDEST PUSH1 0x0 PUSH2 0xA94 DUP5 DUP3 DUP6 ADD PUSH2 0x9FB JUMP JUMPDEST SWAP2 POP POP SWAP3 SWAP2 POP POP JUMP JUMPDEST PUSH1 0x0 DUP2 MLOAD SWAP1 POP SWAP2 SWAP1 POP JUMP JUMPDEST PUSH1 0x0 DUP3 DUP3 MSTORE PUSH1 0x20 DUP3 ADD SWAP1 POP SWAP3 SWAP2 POP POP JUMP JUMPDEST PUSH1 0x0 JUMPDEST DUP4 DUP2 LT ISZERO PUSH2 0xAD7 JUMPI DUP1 DUP3 ADD MLOAD DUP2 DUP5 ADD MSTORE PUSH1 0x20 DUP2 ADD SWAP1 POP PUSH2 0xABC JUMP JUMPDEST DUP4 DUP2 GT ISZERO PUSH2 0xAE6 JUMPI PUSH1 0x0 DUP5 DUP5 ADD MSTORE JUMPDEST POP POP POP POP JUMP JUMPDEST PUSH1 0x0 PUSH2 0xAF7 DUP3 PUSH2 0xA9D JUMP JUMPDEST PUSH2 0xB01 DUP2 DUP6 PUSH2 0xAA8 JUMP JUMPDEST SWAP4 POP PUSH2 0xB11 DUP2 DUP6 PUSH1 0x20 DUP7 ADD PUSH2 0xAB9 JUMP JUMPDEST PUSH2 0xB1A DUP2 PUSH2 0x7FF JUMP JUMPDEST DUP5 ADD SWAP2 POP POP SWAP3 SWAP2 POP POP JUMP JUMPDEST PUSH1 0x0 PUSH1 0x40 DUP3 ADD SWAP1 POP DUP2 DUP2 SUB PUSH1 0x0 DUP4 ADD MSTORE PUSH2 0xB3F DUP2 DUP6 PUSH2 0xAEC JUMP JUMPDEST SWAP1 POP PUSH2 0xB4E PUSH1 0x20 DUP4 ADD DUP5 PUSH2 0x7B7 JUMP JUMPDEST SWAP4 SWAP3 POP POP POP JUMP JUMPDEST PUSH1 0x0 PUSH20 0xFFFFFFFFFFFFFFFFFFFFFFFFFFFFFFFFFFFFFFFF DUP3 AND SWAP1 POP SWAP2 SWAP1 POP JUMP JUMPDEST PUSH1 0x0 PUSH2 0xB80 DUP3 PUSH2 0xB55 JUMP JUMPDEST SWAP1 POP SWAP2 SWAP1 POP JUMP JUMPDEST PUSH2 0xB90 DUP2 PUSH2 0xB75 JUMP JUMPDEST DUP3 MSTORE POP POP JUMP JUMPDEST PUSH1 0x0 PUSH1 0x20 DUP3 ADD SWAP1 POP PUSH2 0xBAB PUSH1 0x0 DUP4 ADD DUP5 PUSH2 0xB87 JUMP JUMPDEST SWAP3 SWAP2 POP POP JUMP JUMPDEST PUSH2 0xBBA DUP2 PUSH2 0xB75 JUMP JUMPDEST DUP2 EQ PUSH2 0xBC5 JUMPI PUSH1 0x0 DUP1 REVERT JUMPDEST POP JUMP JUMPDEST PUSH1 0x0 DUP2 CALLDATALOAD SWAP1 POP PUSH2 0xBD7 DUP2 PUSH2 0xBB1 JUMP JUMPDEST SWAP3 SWAP2 POP POP JUMP JUMPDEST PUSH1 0x0 PUSH1 0x20 DUP3 DUP5 SUB SLT ISZERO PUSH2 0xBF3 JUMPI PUSH2 0xBF2 PUSH2 0x7EB JUMP JUMPDEST JUMPDEST PUSH1 0x0 PUSH2 0xC01 DUP5 DUP3 DUP6 ADD PUSH2 0xBC8 JUMP JUMPDEST SWAP2 POP POP SWAP3 SWAP2 POP POP JUMP JUMPDEST PUSH32 0x6E6F7420626F72726F776E670000000000000000000000000000000000000000 PUSH1 0x0 DUP3 ADD MSTORE POP JUMP JUMPDEST PUSH1 0x0 PUSH2 0xC40 PUSH1 0xC DUP4 PUSH2 0xAA8 JUMP JUMPDEST SWAP2 POP PUSH2 0xC4B DUP3 PUSH2 0xC0A JUMP JUMPDEST PUSH1 0x20 DUP3 ADD SWAP1 POP SWAP2 SWAP1 POP JUMP JUMPDEST PUSH1 0x0 PUSH1 0x20 DUP3 ADD SWAP1 POP DUP2 DUP2 SUB PUSH1 0x0 DUP4 ADD MSTORE PUSH2 0xC6F DUP2 PUSH2 0xC33 JUMP JUMPDEST SWAP1 POP SWAP2 SWAP1 POP JUMP JUMPDEST PUSH32 0x4E487B7100000000000000000000000000000000000000000000000000000000 PUSH1 0x0 MSTORE PUSH1 0x11 PUSH1 0x4 MSTORE PUSH1 0x24 PUSH1 0x0 REVERT JUMPDEST PUSH1 0x0 PUSH2 0xCB0 DUP3 PUSH2 0x7AD JUMP JUMPDEST SWAP2 POP PUSH32 0xFFFFFFFFFFFFFFFFFFFFFFFFFFFFFFFFFFFFFFFFFFFFFFFFFFFFFFFFFFFFFFFF DUP3 SUB PUSH2 0xCE2 JUMPI PUSH2 0xCE1 PUSH2 0xC76 JUMP JUMPDEST JUMPDEST PUSH1 0x1 DUP3 ADD SWAP1 POP SWAP2 SWAP1 POP JUMP JUMPDEST PUSH32 0x6E6F74206F776E65720000000000000000000000000000000000000000000000 PUSH1 0x0 DUP3 ADD MSTORE POP JUMP JUMPDEST PUSH1 0x0 PUSH2 0xD23 PUSH1 0x9 DUP4 PUSH2 0xAA8 JUMP JUMPDEST SWAP2 POP PUSH2 0xD2E DUP3 PUSH2 0xCED JUMP JUMPDEST PUSH1 0x20 DUP3 ADD SWAP1 POP SWAP2 SWAP1 POP JUMP JUMPDEST PUSH1 0x0 PUSH1 0x20 DUP3 ADD SWAP1 POP DUP2 DUP2 SUB PUSH1 0x0 DUP4 ADD MSTORE PUSH2 0xD52 DUP2 PUSH2 0xD16 JUMP JUMPDEST SWAP1 POP SWAP2 SWAP1 POP JUMP JUMPDEST PUSH1 0x0 DUP2 SWAP1 POP SWAP3 SWAP2 POP POP JUMP JUMPDEST PUSH1 0x0 PUSH2 0xD70 DUP4 DUP6 PUSH2 0xD59 JUMP JUMPDEST SWAP4 POP PUSH2 0xD7D DUP4 DUP6 DUP5 PUSH2 0x8BC JUMP JUMPDEST DUP3 DUP5 ADD SWAP1 POP SWAP4 SWAP3 POP POP POP JUMP JUMPDEST PUSH1 0x0 PUSH2 0xD96 DUP3 DUP5 DUP7 PUSH2 0xD64 JUMP JUMPDEST SWAP2 POP DUP2 SWAP1 POP SWAP4 SWAP3 POP POP POP JUMP JUMPDEST PUSH1 0x0 PUSH2 0xDAD DUP3 PUSH2 0x7AD JUMP JUMPDEST SWAP2 POP PUSH2 0xDB8 DUP4 PUSH2 0x7AD JUMP JUMPDEST SWAP3 POP DUP3 PUSH32 0xFFFFFFFFFFFFFFFFFFFFFFFFFFFFFFFFFFFFFFFFFFFFFFFFFFFFFFFFFFFFFFFF SUB DUP3 GT ISZERO PUSH2 0xDED JUMPI PUSH2 0xDEC PUSH2 0xC76 JUMP JUMPDEST JUMPDEST DUP3 DUP3 ADD SWAP1 POP SWAP3 SWAP2 POP POP JUMP JUMPDEST PUSH1 0x0 PUSH2 0xE04 DUP4 DUP6 PUSH2 0xAA8 JUMP JUMPDEST SWAP4 POP PUSH2 0xE11 DUP4 DUP6 DUP5 PUSH2 0x8BC JUMP JUMPDEST PUSH2 0xE1A DUP4 PUSH2 0x7FF JUMP JUMPDEST DUP5 ADD SWAP1 POP SWAP4 SWAP3 POP POP POP JUMP JUMPDEST PUSH1 0x0 PUSH1 0x40 DUP3 ADD SWAP1 POP DUP2 DUP2 SUB PUSH1 0x0 DUP4 ADD MSTORE PUSH2 0xE40 DUP2 DUP6 DUP8 PUSH2 0xDF8 JUMP JUMPDEST SWAP1 POP PUSH2 0xE4F PUSH1 0x20 DUP4 ADD DUP5 PUSH2 0x7B7 JUMP JUMPDEST SWAP5 SWAP4 POP POP POP POP JUMP JUMPDEST PUSH32 0x4E487B7100000000000000000000000000000000000000000000000000000000 PUSH1 0x0 MSTORE PUSH1 0x22 PUSH1 0x4 MSTORE PUSH1 0x24 PUSH1 0x0 REVERT JUMPDEST PUSH1 0x0 PUSH1 0x2 DUP3 DIV SWAP1 POP PUSH1 0x1 DUP3 AND DUP1 PUSH2 0xE9E JUMPI PUSH1 0x7F DUP3 AND SWAP2 POP JUMPDEST PUSH1 0x20 DUP3 LT DUP2 SUB PUSH2 0xEB1 JUMPI PUSH2 0xEB0 PUSH2 0xE57 JUMP JUMPDEST JUMPDEST POP SWAP2 SWAP1 POP JUMP JUMPDEST PUSH1 0x0 DUP2 SWAP1 POP DUP2 PUSH1 0x0 MSTORE PUSH1 0x20 PUSH1 0x0 KECCAK256 SWAP1 POP SWAP2 SWAP1 POP JUMP JUMPDEST PUSH1 0x0 PUSH1 0x20 PUSH1 0x1F DUP4 ADD DIV SWAP1 POP SWAP2 SWAP1 POP JUMP JUMPDEST PUSH1 0x0 DUP3 DUP3 SHL SWAP1 POP SWAP3 SWAP2 POP POP JUMP JUMPDEST PUSH1 0x0 PUSH1 0x8 DUP4 MUL PUSH2 0xF19 PUSH32 0xFFFFFFFFFFFFFFFFFFFFFFFFFFFFFFFFFFFFFFFFFFFFFFFFFFFFFFFFFFFFFFFF DUP3 PUSH2 0xEDC JUMP JUMPDEST PUSH2 0xF23 DUP7 DUP4 PUSH2 0xEDC JUMP JUMPDEST SWAP6 POP DUP1 NOT DUP5 AND SWAP4 POP DUP1 DUP7 AND DUP5 OR SWAP3 POP POP POP SWAP4 SWAP3 POP POP POP JUMP JUMPDEST PUSH1 0x0 DUP2 SWAP1 POP SWAP2 SWAP1 POP JUMP JUMPDEST PUSH1 0x0 PUSH2 0xF60 PUSH2 0xF5B PUSH2 0xF56 DUP5 PUSH2 0x7AD JUMP JUMPDEST PUSH2 0xF3B JUMP JUMPDEST PUSH2 0x7AD JUMP JUMPDEST SWAP1 POP SWAP2 SWAP1 POP JUMP JUMPDEST PUSH1 0x0 DUP2 SWAP1 POP SWAP2 SWAP1 POP JUMP JUMPDEST PUSH2 0xF7A DUP4 PUSH2 0xF45 JUMP JUMPDEST PUSH2 0xF8E PUSH2 0xF86 DUP3 PUSH2 0xF67 JUMP JUMPDEST DUP5 DUP5 SLOAD PUSH2 0xEE9 JUMP JUMPDEST DUP3 SSTORE POP POP POP POP JUMP JUMPDEST PUSH1 0x0 SWAP1 JUMP JUMPDEST PUSH2 0xFA3 PUSH2 0xF96 JUMP JUMPDEST PUSH2 0xFAE DUP2 DUP5 DUP5 PUSH2 0xF71 JUMP JUMPDEST POP POP POP JUMP JUMPDEST JUMPDEST DUP2 DUP2 LT ISZERO PUSH2 0xFD2 JUMPI PUSH2 0xFC7 PUSH1 0x0 DUP3 PUSH2 0xF9B JUMP JUMPDEST PUSH1 0x1 DUP2 ADD SWAP1 POP PUSH2 0xFB4 JUMP JUMPDEST POP POP JUMP JUMPDEST PUSH1 0x1F DUP3 GT ISZERO PUSH2 0x1017 JUMPI PUSH2 0xFE8 DUP2 PUSH2 0xEB7 JUMP JUMPDEST PUSH2 0xFF1 DUP5 PUSH2 0xECC JUMP JUMPDEST DUP2 ADD PUSH1 0x20 DUP6 LT ISZERO PUSH2 0x1000 JUMPI DUP2 SWAP1 POP JUMPDEST PUSH2 0x1014 PUSH2 0x100C DUP6 PUSH2 0xECC JUMP JUMPDEST DUP4 ADD DUP3 PUSH2 0xFB3 JUMP JUMPDEST POP POP JUMPDEST POP POP POP JUMP JUMPDEST PUSH1 0x0 DUP3 DUP3 SHR SWAP1 POP SWAP3 SWAP2 POP POP JUMP JUMPDEST PUSH1 0x0 PUSH2 0x103A PUSH1 0x0 NOT DUP5 PUSH1 0x8 MUL PUSH2 0x101C JUMP JUMPDEST NOT DUP1 DUP4 AND SWAP2 POP POP SWAP3 SWAP2 POP POP JUMP JUMPDEST PUSH1 0x0 PUSH2 0x1053 DUP4 DUP4 PUSH2 0x1029 JUMP JUMPDEST SWAP2 POP DUP3 PUSH1 0x2 MUL DUP3 OR SWAP1 POP SWAP3 SWAP2 POP POP JUMP JUMPDEST PUSH2 0x106C DUP3 PUSH2 0xA9D JUMP JUMPDEST PUSH8 0xFFFFFFFFFFFFFFFF DUP2 GT ISZERO PUSH2 0x1085 JUMPI PUSH2 0x1084 PUSH2 0x810 JUMP JUMPDEST JUMPDEST PUSH2 0x108F DUP3 SLOAD PUSH2 0xE86 JUMP JUMPDEST PUSH2 0x109A DUP3 DUP3 DUP6 PUSH2 0xFD6 JUMP JUMPDEST PUSH1 0x0 PUSH1 0x20 SWAP1 POP PUSH1 0x1F DUP4 GT PUSH1 0x1 DUP2 EQ PUSH2 0x10CD JUMPI PUSH1 0x0 DUP5 ISZERO PUSH2 0x10BB JUMPI DUP3 DUP8 ADD MLOAD SWAP1 POP JUMPDEST PUSH2 0x10C5 DUP6 DUP3 PUSH2 0x1047 JUMP JUMPDEST DUP7 SSTORE POP PUSH2 0x112D JUMP JUMPDEST PUSH1 0x1F NOT DUP5 AND PUSH2 0x10DB DUP7 PUSH2 0xEB7 JUMP JUMPDEST PUSH1 0x0 JUMPDEST DUP3 DUP2 LT ISZERO PUSH2 0x1103 JUMPI DUP5 DUP10 ADD MLOAD DUP3 SSTORE PUSH1 0x1 DUP3 ADD SWAP2 POP PUSH1 0x20 DUP6 ADD SWAP5 POP PUSH1 0x20 DUP2 ADD SWAP1 POP PUSH2 0x10DE JUMP JUMPDEST DUP7 DUP4 LT ISZERO PUSH2 0x1120 JUMPI DUP5 DUP10 ADD MLOAD PUSH2 0x111C PUSH1 0x1F DUP10 AND DUP3 PUSH2 0x1029 JUMP JUMPDEST DUP4 SSTORE POP JUMPDEST PUSH1 0x1 PUSH1 0x2 DUP9 MUL ADD DUP9 SSTORE POP POP POP JUMPDEST POP POP POP POP POP POP JUMP JUMPDEST PUSH32 0x7A65726F20626F6F6B73206C6566740000000000000000000000000000000000 PUSH1 0x0 DUP3 ADD MSTORE POP JUMP JUMPDEST PUSH1 0x0 PUSH2 0x116B PUSH1 0xF DUP4 PUSH2 0xAA8 JUMP JUMPDEST SWAP2 POP PUSH2 0x1176 DUP3 PUSH2 0x1135 JUMP JUMPDEST PUSH1 0x20 DUP3 ADD SWAP1 POP SWAP2 SWAP1 POP JUMP JUMPDEST PUSH1 0x0 PUSH1 0x20 DUP3 ADD SWAP1 POP DUP2 DUP2 SUB PUSH1 0x0 DUP4 ADD MSTORE PUSH2 0x119A DUP2 PUSH2 0x115E JUMP JUMPDEST SWAP1 POP SWAP2 SWAP1 POP JUMP JUMPDEST PUSH1 0x0 PUSH2 0x11AC DUP3 PUSH2 0x7AD JUMP JUMPDEST SWAP2 POP PUSH1 0x0 DUP3 SUB PUSH2 0x11BF JUMPI PUSH2 0x11BE PUSH2 0xC76 JUMP JUMPDEST JUMPDEST PUSH1 0x1 DUP3 SUB SWAP1 POP SWAP2 SWAP1 POP JUMP INVALID LOG2 PUSH5 0x6970667358 0x22 SLT KECCAK256 SHR PUSH32 0xD043486C76A1696D91A29DD4C55597BB96EDC157715D2C0DF782F10539B6473 PUSH16 0x6C634300080F00330000000000000000 "
				},
				"gasEstimates": {
					"creation": {
						"codeDepositCost": "921600",
						"executionCost": "infinite",
						"totalCost": "infinite"
					},
					"external": {
						"addBook(string,uint256)": "infinite",
						"books(uint256)": "infinite",
						"borrowBook(uint256)": "infinite",
						"count()": "2430",
						"currentlyBorrowing(address)": "2880",
						"indexes(string)": "infinite",
						"owner()": "infinite",
						"returnCurrentBook()": "31930"
					}
				},
				"methodIdentifiers": {
					"addBook(string,uint256)": "637a3872",
					"books(uint256)": "68744046",
					"borrowBook(uint256)": "7e490a9e",
					"count()": "06661abd",
					"currentlyBorrowing(address)": "901dec82",
					"indexes(string)": "2427e59e",
					"owner()": "8da5cb5b",
					"returnCurrentBook()": "10319fcc"
				}
			},
			"storageLayout": {
				"storage": [
					{
						"astId": 21,
						"contract": "LimeChainInternship/exercise/Library.sol:Library",
						"label": "count",
						"offset": 0,
						"slot": "0",
						"type": "t_uint256"
					},
					{
						"astId": 39,
						"contract": "LimeChainInternship/exercise/Library.sol:Library",
						"label": "currentlyBorrowing",
						"offset": 0,
						"slot": "1",
						"type": "t_mapping(t_address,t_uint256)"
					},
					{
						"astId": 43,
						"contract": "LimeChainInternship/exercise/Library.sol:Library",
						"label": "indexes",
						"offset": 0,
						"slot": "2",
						"type": "t_mapping(t_string_memory_ptr,t_uint256)"
					},
					{
						"astId": 48,
						"contract": "LimeChainInternship/exercise/Library.sol:Library",
						"label": "books",
						"offset": 0,
						"slot": "3",
						"type": "t_mapping(t_uint256,t_struct(Book)26_storage)"
					},
					{
						"astId": 54,
						"contract": "LimeChainInternship/exercise/Library.sol:Library",
						"label": "borrowedBooks",
						"offset": 0,
						"slot": "4",
						"type": "t_mapping(t_uint256,t_mapping(t_address,t_bool))"
					}
				],
				"types": {
					"t_address": {
						"encoding": "inplace",
						"label": "address",
						"numberOfBytes": "20"
					},
					"t_bool": {
						"encoding": "inplace",
						"label": "bool",
						"numberOfBytes": "1"
					},
					"t_mapping(t_address,t_bool)": {
						"encoding": "mapping",
						"key": "t_address",
						"label": "mapping(address => bool)",
						"numberOfBytes": "32",
						"value": "t_bool"
					},
					"t_mapping(t_address,t_uint256)": {
						"encoding": "mapping",
						"key": "t_address",
						"label": "mapping(address => uint256)",
						"numberOfBytes": "32",
						"value": "t_uint256"
					},
					"t_mapping(t_string_memory_ptr,t_uint256)": {
						"encoding": "mapping",
						"key": "t_string_memory_ptr",
						"label": "mapping(string => uint256)",
						"numberOfBytes": "32",
						"value": "t_uint256"
					},
					"t_mapping(t_uint256,t_mapping(t_address,t_bool))": {
						"encoding": "mapping",
						"key": "t_uint256",
						"label": "mapping(uint256 => mapping(address => bool))",
						"numberOfBytes": "32",
						"value": "t_mapping(t_address,t_bool)"
					},
					"t_mapping(t_uint256,t_struct(Book)26_storage)": {
						"encoding": "mapping",
						"key": "t_uint256",
						"label": "mapping(uint256 => struct Library.Book)",
						"numberOfBytes": "32",
						"value": "t_struct(Book)26_storage"
					},
					"t_string_memory_ptr": {
						"encoding": "bytes",
						"label": "string",
						"numberOfBytes": "32"
					},
					"t_string_storage": {
						"encoding": "bytes",
						"label": "string",
						"numberOfBytes": "32"
					},
					"t_struct(Book)26_storage": {
						"encoding": "inplace",
						"label": "struct Library.Book",
						"members": [
							{
								"astId": 23,
								"contract": "LimeChainInternship/exercise/Library.sol:Library",
								"label": "name",
								"offset": 0,
								"slot": "0",
								"type": "t_string_storage"
							},
							{
								"astId": 25,
								"contract": "LimeChainInternship/exercise/Library.sol:Library",
								"label": "copies",
								"offset": 0,
								"slot": "1",
								"type": "t_uint256"
							}
						],
						"numberOfBytes": "64"
					},
					"t_uint256": {
						"encoding": "inplace",
						"label": "uint256",
						"numberOfBytes": "32"
					}
				}
			},
			"userdoc": {
				"kind": "user",
				"methods": {},
				"version": 1
			}
		}
	}
}