{
	"exercise/Library.sol": {
		"Library": {
			"abi": [
				{
					"inputs": [],
					"stateMutability": "nonpayable",
					"type": "constructor"
				},
				{
					"inputs": [
						{
							"internalType": "address",
							"name": "user",
							"type": "address"
						}
					],
					"name": "alredyBorrwing",
					"type": "error"
				},
				{
					"anonymous": false,
					"inputs": [
						{
							"indexed": true,
							"internalType": "address",
							"name": "previousOwner",
							"type": "address"
						},
						{
							"indexed": true,
							"internalType": "address",
							"name": "newOwner",
							"type": "address"
						}
					],
					"name": "OwnershipTransferred",
					"type": "event"
				},
				{
					"anonymous": false,
					"inputs": [
						{
							"indexed": false,
							"internalType": "string",
							"name": "name",
							"type": "string"
						},
						{
							"indexed": false,
							"internalType": "uint256",
							"name": "copies",
							"type": "uint256"
						}
					],
					"name": "addedBook",
					"type": "event"
				},
				{
					"anonymous": false,
					"inputs": [
						{
							"indexed": false,
							"internalType": "string",
							"name": "name",
							"type": "string"
						},
						{
							"indexed": false,
							"internalType": "uint256",
							"name": "copies",
							"type": "uint256"
						}
					],
					"name": "addedCopies",
					"type": "event"
				},
				{
					"inputs": [
						{
							"internalType": "string",
							"name": "_name",
							"type": "string"
						},
						{
							"internalType": "uint256",
							"name": "_copies",
							"type": "uint256"
						}
					],
					"name": "addBook",
					"outputs": [],
					"stateMutability": "nonpayable",
					"type": "function"
				},
				{
					"inputs": [
						{
							"internalType": "uint256",
							"name": "",
							"type": "uint256"
						}
					],
					"name": "books",
					"outputs": [
						{
							"internalType": "string",
							"name": "name",
							"type": "string"
						},
						{
							"internalType": "uint256",
							"name": "copies",
							"type": "uint256"
						}
					],
					"stateMutability": "view",
					"type": "function"
				},
				{
					"inputs": [
						{
							"internalType": "uint256",
							"name": "_index",
							"type": "uint256"
						}
					],
					"name": "borrowBook",
					"outputs": [],
					"stateMutability": "payable",
					"type": "function"
				},
				{
					"inputs": [],
					"name": "count",
					"outputs": [
						{
							"internalType": "uint256",
							"name": "",
							"type": "uint256"
						}
					],
					"stateMutability": "view",
					"type": "function"
				},
				{
					"inputs": [
						{
							"internalType": "address",
							"name": "",
							"type": "address"
						}
					],
					"name": "currentlyBorrowing",
					"outputs": [
						{
							"internalType": "uint256",
							"name": "",
							"type": "uint256"
						}
					],
					"stateMutability": "view",
					"type": "function"
				},
				{
					"inputs": [
						{
							"internalType": "string",
							"name": "",
							"type": "string"
						}
					],
					"name": "indexes",
					"outputs": [
						{
							"internalType": "uint256",
							"name": "",
							"type": "uint256"
						}
					],
					"stateMutability": "view",
					"type": "function"
				},
				{
					"inputs": [],
					"name": "owner",
					"outputs": [
						{
							"internalType": "address",
							"name": "",
							"type": "address"
						}
					],
					"stateMutability": "view",
					"type": "function"
				},
				{
					"inputs": [],
					"name": "renounceOwnership",
					"outputs": [],
					"stateMutability": "nonpayable",
					"type": "function"
				},
				{
					"inputs": [],
					"name": "returnCurrentBook",
					"outputs": [],
					"stateMutability": "nonpayable",
					"type": "function"
				},
				{
					"inputs": [
						{
							"internalType": "address",
							"name": "newOwner",
							"type": "address"
						}
					],
					"name": "transferOwnership",
					"outputs": [],
					"stateMutability": "nonpayable",
					"type": "function"
				}
			],
			"devdoc": {
				"kind": "dev",
				"methods": {
					"owner()": {
						"details": "Returns the address of the current owner."
					},
					"renounceOwnership()": {
						"details": "Leaves the contract without owner. It will not be possible to call `onlyOwner` functions anymore. Can only be called by the current owner. NOTE: Renouncing ownership will leave the contract without an owner, thereby removing any functionality that is only available to the owner."
					},
					"transferOwnership(address)": {
						"details": "Transfers ownership of the contract to a new account (`newOwner`). Can only be called by the current owner."
					}
				},
				"version": 1
			},
			"evm": {
				"assembly": "    /* \"exercise/Library.sol\":111:2014  contract Library is Ownable {... */\n  mstore(0x40, 0x80)\n    /* \"exercise/Library.sol\":370:401  constructor() Ownable() {... */\n  callvalue\n  dup1\n  iszero\n  tag_1\n  jumpi\n  0x00\n  dup1\n  revert\ntag_1:\n  pop\n    /* \"@openzeppelin/contracts/access/Ownable.sol\":936:968  _transferOwnership(_msgSender()) */\n  tag_5\n    /* \"@openzeppelin/contracts/access/Ownable.sol\":955:967  _msgSender() */\n  tag_6\n    /* \"@openzeppelin/contracts/access/Ownable.sol\":955:965  _msgSender */\n  shl(0x20, tag_7)\n    /* \"@openzeppelin/contracts/access/Ownable.sol\":955:967  _msgSender() */\n  0x20\n  shr\n  jump\t// in\ntag_6:\n    /* \"@openzeppelin/contracts/access/Ownable.sol\":936:954  _transferOwnership */\n  shl(0x20, tag_8)\n    /* \"@openzeppelin/contracts/access/Ownable.sol\":936:968  _transferOwnership(_msgSender()) */\n  0x20\n  shr\n  jump\t// in\ntag_5:\n    /* \"exercise/Library.sol\":111:2014  contract Library is Ownable {... */\n  jump(tag_10)\n    /* \"@openzeppelin/contracts/utils/Context.sol\":640:736  function _msgSender() internal view virtual returns (address) {... */\ntag_7:\n    /* \"@openzeppelin/contracts/utils/Context.sol\":693:700  address */\n  0x00\n    /* \"@openzeppelin/contracts/utils/Context.sol\":719:729  msg.sender */\n  caller\n    /* \"@openzeppelin/contracts/utils/Context.sol\":712:729  return msg.sender */\n  swap1\n  pop\n    /* \"@openzeppelin/contracts/utils/Context.sol\":640:736  function _msgSender() internal view virtual returns (address) {... */\n  swap1\n  jump\t// out\n    /* \"@openzeppelin/contracts/access/Ownable.sol\":2433:2620  function _transferOwnership(address newOwner) internal virtual {... */\ntag_8:\n    /* \"@openzeppelin/contracts/access/Ownable.sol\":2506:2522  address oldOwner */\n  0x00\n    /* \"@openzeppelin/contracts/access/Ownable.sol\":2525:2531  _owner */\n  dup1\n  0x00\n  swap1\n  sload\n  swap1\n  0x0100\n  exp\n  swap1\n  div\n  0xffffffffffffffffffffffffffffffffffffffff\n  and\n    /* \"@openzeppelin/contracts/access/Ownable.sol\":2506:2531  address oldOwner = _owner */\n  swap1\n  pop\n    /* \"@openzeppelin/contracts/access/Ownable.sol\":2550:2558  newOwner */\n  dup2\n    /* \"@openzeppelin/contracts/access/Ownable.sol\":2541:2547  _owner */\n  0x00\n  dup1\n    /* \"@openzeppelin/contracts/access/Ownable.sol\":2541:2558  _owner = newOwner */\n  0x0100\n  exp\n  dup2\n  sload\n  dup2\n  0xffffffffffffffffffffffffffffffffffffffff\n  mul\n  not\n  and\n  swap1\n  dup4\n  0xffffffffffffffffffffffffffffffffffffffff\n  and\n  mul\n  or\n  swap1\n  sstore\n  pop\n    /* \"@openzeppelin/contracts/access/Ownable.sol\":2604:2612  newOwner */\n  dup2\n    /* \"@openzeppelin/contracts/access/Ownable.sol\":2573:2613  OwnershipTransferred(oldOwner, newOwner) */\n  0xffffffffffffffffffffffffffffffffffffffff\n  and\n    /* \"@openzeppelin/contracts/access/Ownable.sol\":2594:2602  oldOwner */\n  dup2\n    /* \"@openzeppelin/contracts/access/Ownable.sol\":2573:2613  OwnershipTransferred(oldOwner, newOwner) */\n  0xffffffffffffffffffffffffffffffffffffffff\n  and\n  0x8be0079c531659141344cd1fd0a4f28419497f9722a3daafe3b4186f6b6457e0\n  mload(0x40)\n  mload(0x40)\n  dup1\n  swap2\n  sub\n  swap1\n  log3\n    /* \"@openzeppelin/contracts/access/Ownable.sol\":2496:2620  {... */\n  pop\n    /* \"@openzeppelin/contracts/access/Ownable.sol\":2433:2620  function _transferOwnership(address newOwner) internal virtual {... */\n  pop\n  jump\t// out\n    /* \"exercise/Library.sol\":111:2014  contract Library is Ownable {... */\ntag_10:\n  dataSize(sub_0)\n  dup1\n  dataOffset(sub_0)\n  0x00\n  codecopy\n  0x00\n  return\nstop\n\nsub_0: assembly {\n        /* \"exercise/Library.sol\":111:2014  contract Library is Ownable {... */\n      mstore(0x40, 0x80)\n      jumpi(tag_1, lt(calldatasize, 0x04))\n      shr(0xe0, calldataload(0x00))\n      dup1\n      0x715018a6\n      gt\n      tag_12\n      jumpi\n      dup1\n      0x715018a6\n      eq\n      tag_7\n      jumpi\n      dup1\n      0x7e490a9e\n      eq\n      tag_8\n      jumpi\n      dup1\n      0x8da5cb5b\n      eq\n      tag_9\n      jumpi\n      dup1\n      0x901dec82\n      eq\n      tag_10\n      jumpi\n      dup1\n      0xf2fde38b\n      eq\n      tag_11\n      jumpi\n      jump(tag_1)\n    tag_12:\n      dup1\n      0x06661abd\n      eq\n      tag_2\n      jumpi\n      dup1\n      0x10319fcc\n      eq\n      tag_3\n      jumpi\n      dup1\n      0x2427e59e\n      eq\n      tag_4\n      jumpi\n      dup1\n      0x637a3872\n      eq\n      tag_5\n      jumpi\n      dup1\n      0x68744046\n      eq\n      tag_6\n      jumpi\n    tag_1:\n      0x00\n      dup1\n      revert\n        /* \"exercise/Library.sol\":281:298  uint public count */\n    tag_2:\n      callvalue\n      dup1\n      iszero\n      tag_13\n      jumpi\n      0x00\n      dup1\n      revert\n    tag_13:\n      pop\n      tag_14\n      tag_15\n      jump\t// in\n    tag_14:\n      mload(0x40)\n      tag_16\n      swap2\n      swap1\n      tag_17\n      jump\t// in\n    tag_16:\n      mload(0x40)\n      dup1\n      swap2\n      sub\n      swap1\n      return\n        /* \"exercise/Library.sol\":1798:2011  function returnCurrentBook()external{... */\n    tag_3:\n      callvalue\n      dup1\n      iszero\n      tag_18\n      jumpi\n      0x00\n      dup1\n      revert\n    tag_18:\n      pop\n      tag_19\n      tag_20\n      jump\t// in\n    tag_19:\n      stop\n        /* \"exercise/Library.sol\":531:569  mapping(string => uint) public indexes */\n    tag_4:\n      callvalue\n      dup1\n      iszero\n      tag_21\n      jumpi\n      0x00\n      dup1\n      revert\n    tag_21:\n      pop\n      tag_22\n      0x04\n      dup1\n      calldatasize\n      sub\n      dup2\n      add\n      swap1\n      tag_23\n      swap2\n      swap1\n      tag_24\n      jump\t// in\n    tag_23:\n      tag_25\n      jump\t// in\n    tag_22:\n      mload(0x40)\n      tag_26\n      swap2\n      swap1\n      tag_17\n      jump\t// in\n    tag_26:\n      mload(0x40)\n      dup1\n      swap2\n      sub\n      swap1\n      return\n        /* \"exercise/Library.sol\":733:1151  function addBook(string calldata _name, uint _copies) external onlyOwner{... */\n    tag_5:\n      callvalue\n      dup1\n      iszero\n      tag_27\n      jumpi\n      0x00\n      dup1\n      revert\n    tag_27:\n      pop\n      tag_28\n      0x04\n      dup1\n      calldatasize\n      sub\n      dup2\n      add\n      swap1\n      tag_29\n      swap2\n      swap1\n      tag_30\n      jump\t// in\n    tag_29:\n      tag_31\n      jump\t// in\n    tag_28:\n      stop\n        /* \"exercise/Library.sol\":595:629  mapping(uint => Book) public books */\n    tag_6:\n      callvalue\n      dup1\n      iszero\n      tag_32\n      jumpi\n      0x00\n      dup1\n      revert\n    tag_32:\n      pop\n      tag_33\n      0x04\n      dup1\n      calldatasize\n      sub\n      dup2\n      add\n      swap1\n      tag_34\n      swap2\n      swap1\n      tag_35\n      jump\t// in\n    tag_34:\n      tag_36\n      jump\t// in\n    tag_33:\n      mload(0x40)\n      tag_37\n      swap3\n      swap2\n      swap1\n      tag_38\n      jump\t// in\n    tag_37:\n      mload(0x40)\n      dup1\n      swap2\n      sub\n      swap1\n      return\n        /* \"@openzeppelin/contracts/access/Ownable.sol\":1831:1932  function renounceOwnership() public virtual onlyOwner {... */\n    tag_7:\n      callvalue\n      dup1\n      iszero\n      tag_39\n      jumpi\n      0x00\n      dup1\n      revert\n    tag_39:\n      pop\n      tag_40\n      tag_41\n      jump\t// in\n    tag_40:\n      stop\n        /* \"exercise/Library.sol\":1157:1792  function borrowBook(uint _index) external payable{... */\n    tag_8:\n      tag_42\n      0x04\n      dup1\n      calldatasize\n      sub\n      dup2\n      add\n      swap1\n      tag_43\n      swap2\n      swap1\n      tag_35\n      jump\t// in\n    tag_43:\n      tag_44\n      jump\t// in\n    tag_42:\n      stop\n        /* \"@openzeppelin/contracts/access/Ownable.sol\":1201:1286  function owner() public view virtual returns (address) {... */\n    tag_9:\n      callvalue\n      dup1\n      iszero\n      tag_45\n      jumpi\n      0x00\n      dup1\n      revert\n    tag_45:\n      pop\n      tag_46\n      tag_47\n      jump\t// in\n    tag_46:\n      mload(0x40)\n      tag_48\n      swap2\n      swap1\n      tag_49\n      jump\t// in\n    tag_48:\n      mload(0x40)\n      dup1\n      swap2\n      sub\n      swap1\n      return\n        /* \"exercise/Library.sol\":450:500  mapping(address => uint) public currentlyBorrowing */\n    tag_10:\n      callvalue\n      dup1\n      iszero\n      tag_50\n      jumpi\n      0x00\n      dup1\n      revert\n    tag_50:\n      pop\n      tag_51\n      0x04\n      dup1\n      calldatasize\n      sub\n      dup2\n      add\n      swap1\n      tag_52\n      swap2\n      swap1\n      tag_53\n      jump\t// in\n    tag_52:\n      tag_54\n      jump\t// in\n    tag_51:\n      mload(0x40)\n      tag_55\n      swap2\n      swap1\n      tag_17\n      jump\t// in\n    tag_55:\n      mload(0x40)\n      dup1\n      swap2\n      sub\n      swap1\n      return\n        /* \"@openzeppelin/contracts/access/Ownable.sol\":2081:2279  function transferOwnership(address newOwner) public virtual onlyOwner {... */\n    tag_11:\n      callvalue\n      dup1\n      iszero\n      tag_56\n      jumpi\n      0x00\n      dup1\n      revert\n    tag_56:\n      pop\n      tag_57\n      0x04\n      dup1\n      calldatasize\n      sub\n      dup2\n      add\n      swap1\n      tag_58\n      swap2\n      swap1\n      tag_53\n      jump\t// in\n    tag_58:\n      tag_59\n      jump\t// in\n    tag_57:\n      stop\n        /* \"exercise/Library.sol\":281:298  uint public count */\n    tag_15:\n      sload(0x01)\n      dup2\n      jump\t// out\n        /* \"exercise/Library.sol\":1798:2011  function returnCurrentBook()external{... */\n    tag_20:\n        /* \"exercise/Library.sol\":1844:1855  uint _index */\n      0x00\n        /* \"exercise/Library.sol\":1858:1876  currentlyBorrowing */\n      0x02\n        /* \"exercise/Library.sol\":1858:1888  currentlyBorrowing[msg.sender] */\n      0x00\n        /* \"exercise/Library.sol\":1877:1887  msg.sender */\n      caller\n        /* \"exercise/Library.sol\":1858:1888  currentlyBorrowing[msg.sender] */\n      0xffffffffffffffffffffffffffffffffffffffff\n      and\n      0xffffffffffffffffffffffffffffffffffffffff\n      and\n      dup2\n      mstore\n      0x20\n      add\n      swap1\n      dup2\n      mstore\n      0x20\n      add\n      0x00\n      keccak256\n      sload\n        /* \"exercise/Library.sol\":1844:1888  uint _index = currentlyBorrowing[msg.sender] */\n      swap1\n      pop\n        /* \"exercise/Library.sol\":1913:1914  0 */\n      0x00\n        /* \"exercise/Library.sol\":1906:1912  _index */\n      dup2\n        /* \"exercise/Library.sol\":1906:1914  _index>0 */\n      gt\n        /* \"exercise/Library.sol\":1898:1930  require(_index>0,\"not borrowng\") */\n      tag_61\n      jumpi\n      mload(0x40)\n      0x08c379a000000000000000000000000000000000000000000000000000000000\n      dup2\n      mstore\n      0x04\n      add\n      tag_62\n      swap1\n      tag_63\n      jump\t// in\n    tag_62:\n      mload(0x40)\n      dup1\n      swap2\n      sub\n      swap1\n      revert\n    tag_61:\n        /* \"exercise/Library.sol\":1971:1972  0 */\n      0x00\n        /* \"exercise/Library.sol\":1940:1958  currentlyBorrowing */\n      0x02\n        /* \"exercise/Library.sol\":1940:1970  currentlyBorrowing[msg.sender] */\n      0x00\n        /* \"exercise/Library.sol\":1959:1969  msg.sender */\n      caller\n        /* \"exercise/Library.sol\":1940:1970  currentlyBorrowing[msg.sender] */\n      0xffffffffffffffffffffffffffffffffffffffff\n      and\n      0xffffffffffffffffffffffffffffffffffffffff\n      and\n      dup2\n      mstore\n      0x20\n      add\n      swap1\n      dup2\n      mstore\n      0x20\n      add\n      0x00\n      keccak256\n        /* \"exercise/Library.sol\":1940:1972  currentlyBorrowing[msg.sender]=0 */\n      dup2\n      swap1\n      sstore\n      pop\n        /* \"exercise/Library.sol\":1984:1989  books */\n      0x04\n        /* \"exercise/Library.sol\":1984:1997  books[_index] */\n      0x00\n        /* \"exercise/Library.sol\":1990:1996  _index */\n      dup3\n        /* \"exercise/Library.sol\":1984:1997  books[_index] */\n      dup2\n      mstore\n      0x20\n      add\n      swap1\n      dup2\n      mstore\n      0x20\n      add\n      0x00\n      keccak256\n        /* \"exercise/Library.sol\":1984:2004  books[_index].copies */\n      0x01\n      add\n      0x00\n        /* \"exercise/Library.sol\":1982:2004  ++books[_index].copies */\n      dup2\n      sload\n      tag_64\n      swap1\n      tag_65\n      jump\t// in\n    tag_64:\n      swap2\n      swap1\n      pop\n      dup2\n      swap1\n      sstore\n      pop\n        /* \"exercise/Library.sol\":1834:2011  {... */\n      pop\n        /* \"exercise/Library.sol\":1798:2011  function returnCurrentBook()external{... */\n      jump\t// out\n        /* \"exercise/Library.sol\":531:569  mapping(string => uint) public indexes */\n    tag_25:\n      0x03\n      dup2\n      dup1\n      mload\n      0x20\n      dup2\n      add\n      dup3\n      add\n      dup1\n      mload\n      dup5\n      dup3\n      mstore\n      0x20\n      dup4\n      add\n      0x20\n      dup6\n      add\n      keccak256\n      dup2\n      dup4\n      mstore\n      dup1\n      swap6\n      pop\n      pop\n      pop\n      pop\n      pop\n      pop\n      0x00\n      swap2\n      pop\n      swap1\n      pop\n      sload\n      dup2\n      jump\t// out\n        /* \"exercise/Library.sol\":733:1151  function addBook(string calldata _name, uint _copies) external onlyOwner{... */\n    tag_31:\n        /* \"@openzeppelin/contracts/access/Ownable.sol\":1094:1107  _checkOwner() */\n      tag_67\n        /* \"@openzeppelin/contracts/access/Ownable.sol\":1094:1105  _checkOwner */\n      tag_68\n        /* \"@openzeppelin/contracts/access/Ownable.sol\":1094:1107  _checkOwner() */\n      jump\t// in\n    tag_67:\n        /* \"exercise/Library.sol\":836:837  0 */\n      0x00\n        /* \"exercise/Library.sol\":820:827  indexes */\n      0x03\n        /* \"exercise/Library.sol\":828:833  _name */\n      dup5\n      dup5\n        /* \"exercise/Library.sol\":820:834  indexes[_name] */\n      mload(0x40)\n      tag_70\n      swap3\n      swap2\n      swap1\n      tag_71\n      jump\t// in\n    tag_70:\n      swap1\n      dup2\n      mstore\n      0x20\n      add\n      mload(0x40)\n      dup1\n      swap2\n      sub\n      swap1\n      keccak256\n      sload\n        /* \"exercise/Library.sol\":820:837  indexes[_name]!=0 */\n      eq\n        /* \"exercise/Library.sol\":816:1145  if( indexes[_name]!=0){... */\n      tag_72\n      jumpi\n        /* \"exercise/Library.sol\":882:889  _copies */\n      dup1\n        /* \"exercise/Library.sol\":852:857  books */\n      0x04\n        /* \"exercise/Library.sol\":852:873  books[indexes[_name]] */\n      0x00\n        /* \"exercise/Library.sol\":858:865  indexes */\n      0x03\n        /* \"exercise/Library.sol\":866:871  _name */\n      dup7\n      dup7\n        /* \"exercise/Library.sol\":858:872  indexes[_name] */\n      mload(0x40)\n      tag_73\n      swap3\n      swap2\n      swap1\n      tag_71\n      jump\t// in\n    tag_73:\n      swap1\n      dup2\n      mstore\n      0x20\n      add\n      mload(0x40)\n      dup1\n      swap2\n      sub\n      swap1\n      keccak256\n      sload\n        /* \"exercise/Library.sol\":852:873  books[indexes[_name]] */\n      dup2\n      mstore\n      0x20\n      add\n      swap1\n      dup2\n      mstore\n      0x20\n      add\n      0x00\n      keccak256\n        /* \"exercise/Library.sol\":852:880  books[indexes[_name]].copies */\n      0x01\n      add\n      0x00\n        /* \"exercise/Library.sol\":852:889  books[indexes[_name]].copies+=_copies */\n      dup3\n      dup3\n      sload\n      tag_74\n      swap2\n      swap1\n      tag_75\n      jump\t// in\n    tag_74:\n      swap3\n      pop\n      pop\n      dup2\n      swap1\n      sstore\n      pop\n        /* \"exercise/Library.sol\":908:934  addedCopies(_name,_copies) */\n      0x1c59ae2fc2d4d8fd587dd73c1193e81642fde8135d41b10c3325d3d1985f05ab\n        /* \"exercise/Library.sol\":920:925  _name */\n      dup4\n      dup4\n        /* \"exercise/Library.sol\":926:933  _copies */\n      dup4\n        /* \"exercise/Library.sol\":908:934  addedCopies(_name,_copies) */\n      mload(0x40)\n      tag_76\n      swap4\n      swap3\n      swap2\n      swap1\n      tag_77\n      jump\t// in\n    tag_76:\n      mload(0x40)\n      dup1\n      swap2\n      sub\n      swap1\n      log1\n        /* \"exercise/Library.sol\":948:955  return; */\n      jump(tag_69)\n        /* \"exercise/Library.sol\":816:1145  if( indexes[_name]!=0){... */\n    tag_72:\n        /* \"exercise/Library.sol\":985:990  count */\n      0x01\n      0x00\n        /* \"exercise/Library.sol\":983:990  ++count */\n      dup2\n      sload\n      tag_79\n      swap1\n      tag_65\n      jump\t// in\n    tag_79:\n      swap2\n      swap1\n      pop\n      dup2\n      swap1\n      sstore\n      pop\n        /* \"exercise/Library.sol\":1019:1055  Book({name: _name, copies: _copies}) */\n      mload(0x40)\n      dup1\n      0x40\n      add\n      0x40\n      mstore\n      dup1\n        /* \"exercise/Library.sol\":1031:1036  _name */\n      dup5\n      dup5\n        /* \"exercise/Library.sol\":1019:1055  Book({name: _name, copies: _copies}) */\n      dup1\n      dup1\n      0x1f\n      add\n      0x20\n      dup1\n      swap2\n      div\n      mul\n      0x20\n      add\n      mload(0x40)\n      swap1\n      dup2\n      add\n      0x40\n      mstore\n      dup1\n      swap4\n      swap3\n      swap2\n      swap1\n      dup2\n      dup2\n      mstore\n      0x20\n      add\n      dup4\n      dup4\n      dup1\n      dup3\n      dup5\n      calldatacopy\n      0x00\n      dup2\n      dup5\n      add\n      mstore\n      not(0x1f)\n      0x1f\n      dup3\n      add\n      and\n      swap1\n      pop\n      dup1\n      dup4\n      add\n      swap3\n      pop\n      pop\n      pop\n      pop\n      pop\n      pop\n      pop\n      dup2\n      mstore\n      0x20\n      add\n        /* \"exercise/Library.sol\":1046:1053  _copies */\n      dup3\n        /* \"exercise/Library.sol\":1019:1055  Book({name: _name, copies: _copies}) */\n      dup2\n      mstore\n      pop\n        /* \"exercise/Library.sol\":1004:1009  books */\n      0x04\n        /* \"exercise/Library.sol\":1004:1016  books[count] */\n      0x00\n        /* \"exercise/Library.sol\":1010:1015  count */\n      sload(0x01)\n        /* \"exercise/Library.sol\":1004:1016  books[count] */\n      dup2\n      mstore\n      0x20\n      add\n      swap1\n      dup2\n      mstore\n      0x20\n      add\n      0x00\n      keccak256\n        /* \"exercise/Library.sol\":1004:1055  books[count] = Book({name: _name, copies: _copies}) */\n      0x00\n      dup3\n      add\n      mload\n      dup2\n      0x00\n      add\n      swap1\n      dup1\n      mload\n      swap1\n      0x20\n      add\n      swap1\n      tag_80\n      swap3\n      swap2\n      swap1\n      tag_81\n      jump\t// in\n    tag_80:\n      pop\n      0x20\n      dup3\n      add\n      mload\n      dup2\n      0x01\n      add\n      sstore\n      swap1\n      pop\n      pop\n        /* \"exercise/Library.sol\":1086:1091  count */\n      sload(0x01)\n        /* \"exercise/Library.sol\":1069:1076  indexes */\n      0x03\n        /* \"exercise/Library.sol\":1077:1082  _name */\n      dup5\n      dup5\n        /* \"exercise/Library.sol\":1069:1083  indexes[_name] */\n      mload(0x40)\n      tag_82\n      swap3\n      swap2\n      swap1\n      tag_71\n      jump\t// in\n    tag_82:\n      swap1\n      dup2\n      mstore\n      0x20\n      add\n      mload(0x40)\n      dup1\n      swap2\n      sub\n      swap1\n      keccak256\n        /* \"exercise/Library.sol\":1069:1091  indexes[_name] = count */\n      dup2\n      swap1\n      sstore\n      pop\n        /* \"exercise/Library.sol\":1110:1134  addedBook(_name,_copies) */\n      0x5e5c09fb592e65b4897c25cb4a0597b46a9df6a8a9c1ace81148602e3166dfd4\n        /* \"exercise/Library.sol\":1120:1125  _name */\n      dup4\n      dup4\n        /* \"exercise/Library.sol\":1126:1133  _copies */\n      dup4\n        /* \"exercise/Library.sol\":1110:1134  addedBook(_name,_copies) */\n      mload(0x40)\n      tag_83\n      swap4\n      swap3\n      swap2\n      swap1\n      tag_77\n      jump\t// in\n    tag_83:\n      mload(0x40)\n      dup1\n      swap2\n      sub\n      swap1\n      log1\n        /* \"@openzeppelin/contracts/access/Ownable.sol\":1117:1118  _ */\n    tag_69:\n        /* \"exercise/Library.sol\":733:1151  function addBook(string calldata _name, uint _copies) external onlyOwner{... */\n      pop\n      pop\n      pop\n      jump\t// out\n        /* \"exercise/Library.sol\":595:629  mapping(uint => Book) public books */\n    tag_36:\n      mstore(0x20, 0x04)\n      dup1\n      0x00\n      mstore\n      keccak256(0x00, 0x40)\n      0x00\n      swap2\n      pop\n      swap1\n      pop\n      dup1\n      0x00\n      add\n      dup1\n      sload\n      tag_84\n      swap1\n      tag_85\n      jump\t// in\n    tag_84:\n      dup1\n      0x1f\n      add\n      0x20\n      dup1\n      swap2\n      div\n      mul\n      0x20\n      add\n      mload(0x40)\n      swap1\n      dup2\n      add\n      0x40\n      mstore\n      dup1\n      swap3\n      swap2\n      swap1\n      dup2\n      dup2\n      mstore\n      0x20\n      add\n      dup3\n      dup1\n      sload\n      tag_86\n      swap1\n      tag_85\n      jump\t// in\n    tag_86:\n      dup1\n      iszero\n      tag_87\n      jumpi\n      dup1\n      0x1f\n      lt\n      tag_88\n      jumpi\n      0x0100\n      dup1\n      dup4\n      sload\n      div\n      mul\n      dup4\n      mstore\n      swap2\n      0x20\n      add\n      swap2\n      jump(tag_87)\n    tag_88:\n      dup3\n      add\n      swap2\n      swap1\n      0x00\n      mstore\n      keccak256(0x00, 0x20)\n      swap1\n    tag_89:\n      dup2\n      sload\n      dup2\n      mstore\n      swap1\n      0x01\n      add\n      swap1\n      0x20\n      add\n      dup1\n      dup4\n      gt\n      tag_89\n      jumpi\n      dup3\n      swap1\n      sub\n      0x1f\n      and\n      dup3\n      add\n      swap2\n    tag_87:\n      pop\n      pop\n      pop\n      pop\n      pop\n      swap1\n      dup1\n      0x01\n      add\n      sload\n      swap1\n      pop\n      dup3\n      jump\t// out\n        /* \"@openzeppelin/contracts/access/Ownable.sol\":1831:1932  function renounceOwnership() public virtual onlyOwner {... */\n    tag_41:\n        /* \"@openzeppelin/contracts/access/Ownable.sol\":1094:1107  _checkOwner() */\n      tag_91\n        /* \"@openzeppelin/contracts/access/Ownable.sol\":1094:1105  _checkOwner */\n      tag_68\n        /* \"@openzeppelin/contracts/access/Ownable.sol\":1094:1107  _checkOwner() */\n      jump\t// in\n    tag_91:\n        /* \"@openzeppelin/contracts/access/Ownable.sol\":1895:1925  _transferOwnership(address(0)) */\n      tag_93\n        /* \"@openzeppelin/contracts/access/Ownable.sol\":1922:1923  0 */\n      0x00\n        /* \"@openzeppelin/contracts/access/Ownable.sol\":1895:1913  _transferOwnership */\n      tag_94\n        /* \"@openzeppelin/contracts/access/Ownable.sol\":1895:1925  _transferOwnership(address(0)) */\n      jump\t// in\n    tag_93:\n        /* \"@openzeppelin/contracts/access/Ownable.sol\":1831:1932  function renounceOwnership() public virtual onlyOwner {... */\n      jump\t// out\n        /* \"exercise/Library.sol\":1157:1792  function borrowBook(uint _index) external payable{... */\n    tag_44:\n        /* \"exercise/Library.sol\":1358:1359  0 */\n      0x00\n        /* \"exercise/Library.sol\":1327:1345  currentlyBorrowing */\n      0x02\n        /* \"exercise/Library.sol\":1327:1357  currentlyBorrowing[msg.sender] */\n      0x00\n        /* \"exercise/Library.sol\":1346:1356  msg.sender */\n      caller\n        /* \"exercise/Library.sol\":1327:1357  currentlyBorrowing[msg.sender] */\n      0xffffffffffffffffffffffffffffffffffffffff\n      and\n      0xffffffffffffffffffffffffffffffffffffffff\n      and\n      dup2\n      mstore\n      0x20\n      add\n      swap1\n      dup2\n      mstore\n      0x20\n      add\n      0x00\n      keccak256\n      sload\n        /* \"exercise/Library.sol\":1327:1359  currentlyBorrowing[msg.sender]>0 */\n      gt\n        /* \"exercise/Library.sol\":1324:1418  if(currentlyBorrowing[msg.sender]>0){... */\n      iszero\n      tag_96\n      jumpi\n        /* \"exercise/Library.sol\":1396:1406  msg.sender */\n      caller\n        /* \"exercise/Library.sol\":1381:1407  alredyBorrwing(msg.sender) */\n      mload(0x40)\n      0xaf162d1b00000000000000000000000000000000000000000000000000000000\n      dup2\n      mstore\n      0x04\n      add\n      tag_97\n      swap2\n      swap1\n      tag_49\n      jump\t// in\n    tag_97:\n      mload(0x40)\n      dup1\n      swap2\n      sub\n      swap1\n      revert\n        /* \"exercise/Library.sol\":1324:1418  if(currentlyBorrowing[msg.sender]>0){... */\n    tag_96:\n        /* \"exercise/Library.sol\":1495:1509  Book storage b */\n      0x00\n        /* \"exercise/Library.sol\":1512:1517  books */\n      0x04\n        /* \"exercise/Library.sol\":1512:1525  books[_index] */\n      0x00\n        /* \"exercise/Library.sol\":1518:1524  _index */\n      dup4\n        /* \"exercise/Library.sol\":1512:1525  books[_index] */\n      dup2\n      mstore\n      0x20\n      add\n      swap1\n      dup2\n      mstore\n      0x20\n      add\n      0x00\n      keccak256\n        /* \"exercise/Library.sol\":1495:1525  Book storage b = books[_index] */\n      swap1\n      pop\n        /* \"exercise/Library.sol\":1584:1585  0 */\n      0x00\n        /* \"exercise/Library.sol\":1575:1576  b */\n      dup2\n        /* \"exercise/Library.sol\":1575:1583  b.copies */\n      0x01\n      add\n      sload\n        /* \"exercise/Library.sol\":1575:1585  b.copies>0 */\n      gt\n        /* \"exercise/Library.sol\":1567:1604  require(b.copies>0,\"zero books left\") */\n      tag_98\n      jumpi\n      mload(0x40)\n      0x08c379a000000000000000000000000000000000000000000000000000000000\n      dup2\n      mstore\n      0x04\n      add\n      tag_99\n      swap1\n      tag_100\n      jump\t// in\n    tag_99:\n      mload(0x40)\n      dup1\n      swap2\n      sub\n      swap1\n      revert\n    tag_98:\n        /* \"exercise/Library.sol\":1616:1617  b */\n      dup1\n        /* \"exercise/Library.sol\":1616:1624  b.copies */\n      0x01\n      add\n      0x00\n        /* \"exercise/Library.sol\":1614:1624  --b.copies */\n      dup2\n      sload\n      tag_101\n      swap1\n      tag_102\n      jump\t// in\n    tag_101:\n      swap2\n      swap1\n      pop\n      dup2\n      swap1\n      sstore\n      pop\n        /* \"exercise/Library.sol\":1699:1705  _index */\n      dup2\n        /* \"exercise/Library.sol\":1666:1684  currentlyBorrowing */\n      0x02\n        /* \"exercise/Library.sol\":1666:1696  currentlyBorrowing[msg.sender] */\n      0x00\n        /* \"exercise/Library.sol\":1685:1695  msg.sender */\n      caller\n        /* \"exercise/Library.sol\":1666:1696  currentlyBorrowing[msg.sender] */\n      0xffffffffffffffffffffffffffffffffffffffff\n      and\n      0xffffffffffffffffffffffffffffffffffffffff\n      and\n      dup2\n      mstore\n      0x20\n      add\n      swap1\n      dup2\n      mstore\n      0x20\n      add\n      0x00\n      keccak256\n        /* \"exercise/Library.sol\":1666:1705  currentlyBorrowing[msg.sender] = _index */\n      dup2\n      swap1\n      sstore\n      pop\n        /* \"exercise/Library.sol\":1781:1785  true */\n      0x01\n        /* \"exercise/Library.sol\":1747:1760  borrowedBooks */\n      0x05\n        /* \"exercise/Library.sol\":1747:1768  borrowedBooks[_index] */\n      0x00\n        /* \"exercise/Library.sol\":1761:1767  _index */\n      dup5\n        /* \"exercise/Library.sol\":1747:1768  borrowedBooks[_index] */\n      dup2\n      mstore\n      0x20\n      add\n      swap1\n      dup2\n      mstore\n      0x20\n      add\n      0x00\n      keccak256\n        /* \"exercise/Library.sol\":1747:1780  borrowedBooks[_index][msg.sender] */\n      0x00\n        /* \"exercise/Library.sol\":1769:1779  msg.sender */\n      caller\n        /* \"exercise/Library.sol\":1747:1780  borrowedBooks[_index][msg.sender] */\n      0xffffffffffffffffffffffffffffffffffffffff\n      and\n      0xffffffffffffffffffffffffffffffffffffffff\n      and\n      dup2\n      mstore\n      0x20\n      add\n      swap1\n      dup2\n      mstore\n      0x20\n      add\n      0x00\n      keccak256\n      0x00\n        /* \"exercise/Library.sol\":1747:1785  borrowedBooks[_index][msg.sender]=true */\n      0x0100\n      exp\n      dup2\n      sload\n      dup2\n      0xff\n      mul\n      not\n      and\n      swap1\n      dup4\n      iszero\n      iszero\n      mul\n      or\n      swap1\n      sstore\n      pop\n        /* \"exercise/Library.sol\":1206:1792  {... */\n      pop\n        /* \"exercise/Library.sol\":1157:1792  function borrowBook(uint _index) external payable{... */\n      pop\n      jump\t// out\n        /* \"@openzeppelin/contracts/access/Ownable.sol\":1201:1286  function owner() public view virtual returns (address) {... */\n    tag_47:\n        /* \"@openzeppelin/contracts/access/Ownable.sol\":1247:1254  address */\n      0x00\n        /* \"@openzeppelin/contracts/access/Ownable.sol\":1273:1279  _owner */\n      dup1\n      0x00\n      swap1\n      sload\n      swap1\n      0x0100\n      exp\n      swap1\n      div\n      0xffffffffffffffffffffffffffffffffffffffff\n      and\n        /* \"@openzeppelin/contracts/access/Ownable.sol\":1266:1279  return _owner */\n      swap1\n      pop\n        /* \"@openzeppelin/contracts/access/Ownable.sol\":1201:1286  function owner() public view virtual returns (address) {... */\n      swap1\n      jump\t// out\n        /* \"exercise/Library.sol\":450:500  mapping(address => uint) public currentlyBorrowing */\n    tag_54:\n      mstore(0x20, 0x02)\n      dup1\n      0x00\n      mstore\n      keccak256(0x00, 0x40)\n      0x00\n      swap2\n      pop\n      swap1\n      pop\n      sload\n      dup2\n      jump\t// out\n        /* \"@openzeppelin/contracts/access/Ownable.sol\":2081:2279  function transferOwnership(address newOwner) public virtual onlyOwner {... */\n    tag_59:\n        /* \"@openzeppelin/contracts/access/Ownable.sol\":1094:1107  _checkOwner() */\n      tag_105\n        /* \"@openzeppelin/contracts/access/Ownable.sol\":1094:1105  _checkOwner */\n      tag_68\n        /* \"@openzeppelin/contracts/access/Ownable.sol\":1094:1107  _checkOwner() */\n      jump\t// in\n    tag_105:\n        /* \"@openzeppelin/contracts/access/Ownable.sol\":2189:2190  0 */\n      0x00\n        /* \"@openzeppelin/contracts/access/Ownable.sol\":2169:2191  newOwner != address(0) */\n      0xffffffffffffffffffffffffffffffffffffffff\n      and\n        /* \"@openzeppelin/contracts/access/Ownable.sol\":2169:2177  newOwner */\n      dup2\n        /* \"@openzeppelin/contracts/access/Ownable.sol\":2169:2191  newOwner != address(0) */\n      0xffffffffffffffffffffffffffffffffffffffff\n      and\n      eq\n      iszero\n        /* \"@openzeppelin/contracts/access/Ownable.sol\":2161:2234  require(newOwner != address(0), \"Ownable: new owner is the zero address\") */\n      tag_107\n      jumpi\n      mload(0x40)\n      0x08c379a000000000000000000000000000000000000000000000000000000000\n      dup2\n      mstore\n      0x04\n      add\n      tag_108\n      swap1\n      tag_109\n      jump\t// in\n    tag_108:\n      mload(0x40)\n      dup1\n      swap2\n      sub\n      swap1\n      revert\n    tag_107:\n        /* \"@openzeppelin/contracts/access/Ownable.sol\":2244:2272  _transferOwnership(newOwner) */\n      tag_110\n        /* \"@openzeppelin/contracts/access/Ownable.sol\":2263:2271  newOwner */\n      dup2\n        /* \"@openzeppelin/contracts/access/Ownable.sol\":2244:2262  _transferOwnership */\n      tag_94\n        /* \"@openzeppelin/contracts/access/Ownable.sol\":2244:2272  _transferOwnership(newOwner) */\n      jump\t// in\n    tag_110:\n        /* \"@openzeppelin/contracts/access/Ownable.sol\":2081:2279  function transferOwnership(address newOwner) public virtual onlyOwner {... */\n      pop\n      jump\t// out\n        /* \"@openzeppelin/contracts/access/Ownable.sol\":1359:1489  function _checkOwner() internal view virtual {... */\n    tag_68:\n        /* \"@openzeppelin/contracts/access/Ownable.sol\":1433:1445  _msgSender() */\n      tag_112\n        /* \"@openzeppelin/contracts/access/Ownable.sol\":1433:1443  _msgSender */\n      tag_113\n        /* \"@openzeppelin/contracts/access/Ownable.sol\":1433:1445  _msgSender() */\n      jump\t// in\n    tag_112:\n        /* \"@openzeppelin/contracts/access/Ownable.sol\":1422:1445  owner() == _msgSender() */\n      0xffffffffffffffffffffffffffffffffffffffff\n      and\n        /* \"@openzeppelin/contracts/access/Ownable.sol\":1422:1429  owner() */\n      tag_114\n        /* \"@openzeppelin/contracts/access/Ownable.sol\":1422:1427  owner */\n      tag_47\n        /* \"@openzeppelin/contracts/access/Ownable.sol\":1422:1429  owner() */\n      jump\t// in\n    tag_114:\n        /* \"@openzeppelin/contracts/access/Ownable.sol\":1422:1445  owner() == _msgSender() */\n      0xffffffffffffffffffffffffffffffffffffffff\n      and\n      eq\n        /* \"@openzeppelin/contracts/access/Ownable.sol\":1414:1482  require(owner() == _msgSender(), \"Ownable: caller is not the owner\") */\n      tag_115\n      jumpi\n      mload(0x40)\n      0x08c379a000000000000000000000000000000000000000000000000000000000\n      dup2\n      mstore\n      0x04\n      add\n      tag_116\n      swap1\n      tag_117\n      jump\t// in\n    tag_116:\n      mload(0x40)\n      dup1\n      swap2\n      sub\n      swap1\n      revert\n    tag_115:\n        /* \"@openzeppelin/contracts/access/Ownable.sol\":1359:1489  function _checkOwner() internal view virtual {... */\n      jump\t// out\n        /* \"@openzeppelin/contracts/access/Ownable.sol\":2433:2620  function _transferOwnership(address newOwner) internal virtual {... */\n    tag_94:\n        /* \"@openzeppelin/contracts/access/Ownable.sol\":2506:2522  address oldOwner */\n      0x00\n        /* \"@openzeppelin/contracts/access/Ownable.sol\":2525:2531  _owner */\n      dup1\n      0x00\n      swap1\n      sload\n      swap1\n      0x0100\n      exp\n      swap1\n      div\n      0xffffffffffffffffffffffffffffffffffffffff\n      and\n        /* \"@openzeppelin/contracts/access/Ownable.sol\":2506:2531  address oldOwner = _owner */\n      swap1\n      pop\n        /* \"@openzeppelin/contracts/access/Ownable.sol\":2550:2558  newOwner */\n      dup2\n        /* \"@openzeppelin/contracts/access/Ownable.sol\":2541:2547  _owner */\n      0x00\n      dup1\n        /* \"@openzeppelin/contracts/access/Ownable.sol\":2541:2558  _owner = newOwner */\n      0x0100\n      exp\n      dup2\n      sload\n      dup2\n      0xffffffffffffffffffffffffffffffffffffffff\n      mul\n      not\n      and\n      swap1\n      dup4\n      0xffffffffffffffffffffffffffffffffffffffff\n      and\n      mul\n      or\n      swap1\n      sstore\n      pop\n        /* \"@openzeppelin/contracts/access/Ownable.sol\":2604:2612  newOwner */\n      dup2\n        /* \"@openzeppelin/contracts/access/Ownable.sol\":2573:2613  OwnershipTransferred(oldOwner, newOwner) */\n      0xffffffffffffffffffffffffffffffffffffffff\n      and\n        /* \"@openzeppelin/contracts/access/Ownable.sol\":2594:2602  oldOwner */\n      dup2\n        /* \"@openzeppelin/contracts/access/Ownable.sol\":2573:2613  OwnershipTransferred(oldOwner, newOwner) */\n      0xffffffffffffffffffffffffffffffffffffffff\n      and\n      0x8be0079c531659141344cd1fd0a4f28419497f9722a3daafe3b4186f6b6457e0\n      mload(0x40)\n      mload(0x40)\n      dup1\n      swap2\n      sub\n      swap1\n      log3\n        /* \"@openzeppelin/contracts/access/Ownable.sol\":2496:2620  {... */\n      pop\n        /* \"@openzeppelin/contracts/access/Ownable.sol\":2433:2620  function _transferOwnership(address newOwner) internal virtual {... */\n      pop\n      jump\t// out\n        /* \"@openzeppelin/contracts/utils/Context.sol\":640:736  function _msgSender() internal view virtual returns (address) {... */\n    tag_113:\n        /* \"@openzeppelin/contracts/utils/Context.sol\":693:700  address */\n      0x00\n        /* \"@openzeppelin/contracts/utils/Context.sol\":719:729  msg.sender */\n      caller\n        /* \"@openzeppelin/contracts/utils/Context.sol\":712:729  return msg.sender */\n      swap1\n      pop\n        /* \"@openzeppelin/contracts/utils/Context.sol\":640:736  function _msgSender() internal view virtual returns (address) {... */\n      swap1\n      jump\t// out\n    tag_81:\n      dup3\n      dup1\n      sload\n      tag_120\n      swap1\n      tag_85\n      jump\t// in\n    tag_120:\n      swap1\n      0x00\n      mstore\n      keccak256(0x00, 0x20)\n      swap1\n      0x1f\n      add\n      0x20\n      swap1\n      div\n      dup2\n      add\n      swap3\n      dup3\n      tag_122\n      jumpi\n      0x00\n      dup6\n      sstore\n      jump(tag_121)\n    tag_122:\n      dup3\n      0x1f\n      lt\n      tag_123\n      jumpi\n      dup1\n      mload\n      not(0xff)\n      and\n      dup4\n      dup1\n      add\n      or\n      dup6\n      sstore\n      jump(tag_121)\n    tag_123:\n      dup3\n      dup1\n      add\n      0x01\n      add\n      dup6\n      sstore\n      dup3\n      iszero\n      tag_121\n      jumpi\n      swap2\n      dup3\n      add\n    tag_124:\n      dup3\n      dup2\n      gt\n      iszero\n      tag_125\n      jumpi\n      dup3\n      mload\n      dup3\n      sstore\n      swap2\n      0x20\n      add\n      swap2\n      swap1\n      0x01\n      add\n      swap1\n      jump(tag_124)\n    tag_125:\n    tag_121:\n      pop\n      swap1\n      pop\n      tag_126\n      swap2\n      swap1\n      tag_127\n      jump\t// in\n    tag_126:\n      pop\n      swap1\n      jump\t// out\n    tag_127:\n    tag_128:\n      dup1\n      dup3\n      gt\n      iszero\n      tag_129\n      jumpi\n      0x00\n      dup2\n      0x00\n      swap1\n      sstore\n      pop\n      0x01\n      add\n      jump(tag_128)\n    tag_129:\n      pop\n      swap1\n      jump\t// out\n        /* \"#utility.yul\":7:419   */\n    tag_131:\n        /* \"#utility.yul\":85:90   */\n      0x00\n        /* \"#utility.yul\":110:176   */\n      tag_133\n        /* \"#utility.yul\":126:175   */\n      tag_134\n        /* \"#utility.yul\":168:174   */\n      dup5\n        /* \"#utility.yul\":126:175   */\n      tag_135\n      jump\t// in\n    tag_134:\n        /* \"#utility.yul\":110:176   */\n      tag_136\n      jump\t// in\n    tag_133:\n        /* \"#utility.yul\":101:176   */\n      swap1\n      pop\n        /* \"#utility.yul\":199:205   */\n      dup3\n        /* \"#utility.yul\":192:197   */\n      dup2\n        /* \"#utility.yul\":185:206   */\n      mstore\n        /* \"#utility.yul\":237:241   */\n      0x20\n        /* \"#utility.yul\":230:235   */\n      dup2\n        /* \"#utility.yul\":226:242   */\n      add\n        /* \"#utility.yul\":275:278   */\n      dup5\n        /* \"#utility.yul\":266:272   */\n      dup5\n        /* \"#utility.yul\":261:264   */\n      dup5\n        /* \"#utility.yul\":257:273   */\n      add\n        /* \"#utility.yul\":254:279   */\n      gt\n        /* \"#utility.yul\":251:363   */\n      iszero\n      tag_137\n      jumpi\n        /* \"#utility.yul\":282:361   */\n      tag_138\n      tag_139\n      jump\t// in\n    tag_138:\n        /* \"#utility.yul\":251:363   */\n    tag_137:\n        /* \"#utility.yul\":372:413   */\n      tag_140\n        /* \"#utility.yul\":406:412   */\n      dup5\n        /* \"#utility.yul\":401:404   */\n      dup3\n        /* \"#utility.yul\":396:399   */\n      dup6\n        /* \"#utility.yul\":372:413   */\n      tag_141\n      jump\t// in\n    tag_140:\n        /* \"#utility.yul\":91:419   */\n      pop\n        /* \"#utility.yul\":7:419   */\n      swap4\n      swap3\n      pop\n      pop\n      pop\n      jump\t// out\n        /* \"#utility.yul\":425:564   */\n    tag_142:\n        /* \"#utility.yul\":471:476   */\n      0x00\n        /* \"#utility.yul\":509:515   */\n      dup2\n        /* \"#utility.yul\":496:516   */\n      calldataload\n        /* \"#utility.yul\":487:516   */\n      swap1\n      pop\n        /* \"#utility.yul\":525:558   */\n      tag_144\n        /* \"#utility.yul\":552:557   */\n      dup2\n        /* \"#utility.yul\":525:558   */\n      tag_145\n      jump\t// in\n    tag_144:\n        /* \"#utility.yul\":425:564   */\n      swap3\n      swap2\n      pop\n      pop\n      jump\t// out\n        /* \"#utility.yul\":584:1137   */\n    tag_146:\n        /* \"#utility.yul\":642:650   */\n      0x00\n        /* \"#utility.yul\":652:658   */\n      dup1\n        /* \"#utility.yul\":702:705   */\n      dup4\n        /* \"#utility.yul\":695:699   */\n      0x1f\n        /* \"#utility.yul\":687:693   */\n      dup5\n        /* \"#utility.yul\":683:700   */\n      add\n        /* \"#utility.yul\":679:706   */\n      slt\n        /* \"#utility.yul\":669:791   */\n      tag_148\n      jumpi\n        /* \"#utility.yul\":710:789   */\n      tag_149\n      tag_150\n      jump\t// in\n    tag_149:\n        /* \"#utility.yul\":669:791   */\n    tag_148:\n        /* \"#utility.yul\":823:829   */\n      dup3\n        /* \"#utility.yul\":810:830   */\n      calldataload\n        /* \"#utility.yul\":800:830   */\n      swap1\n      pop\n        /* \"#utility.yul\":853:871   */\n      0xffffffffffffffff\n        /* \"#utility.yul\":845:851   */\n      dup2\n        /* \"#utility.yul\":842:872   */\n      gt\n        /* \"#utility.yul\":839:956   */\n      iszero\n      tag_151\n      jumpi\n        /* \"#utility.yul\":875:954   */\n      tag_152\n      tag_153\n      jump\t// in\n    tag_152:\n        /* \"#utility.yul\":839:956   */\n    tag_151:\n        /* \"#utility.yul\":989:993   */\n      0x20\n        /* \"#utility.yul\":981:987   */\n      dup4\n        /* \"#utility.yul\":977:994   */\n      add\n        /* \"#utility.yul\":965:994   */\n      swap2\n      pop\n        /* \"#utility.yul\":1043:1046   */\n      dup4\n        /* \"#utility.yul\":1035:1039   */\n      0x01\n        /* \"#utility.yul\":1027:1033   */\n      dup3\n        /* \"#utility.yul\":1023:1040   */\n      mul\n        /* \"#utility.yul\":1013:1021   */\n      dup4\n        /* \"#utility.yul\":1009:1041   */\n      add\n        /* \"#utility.yul\":1006:1047   */\n      gt\n        /* \"#utility.yul\":1003:1131   */\n      iszero\n      tag_154\n      jumpi\n        /* \"#utility.yul\":1050:1129   */\n      tag_155\n      tag_156\n      jump\t// in\n    tag_155:\n        /* \"#utility.yul\":1003:1131   */\n    tag_154:\n        /* \"#utility.yul\":584:1137   */\n      swap3\n      pop\n      swap3\n      swap1\n      pop\n      jump\t// out\n        /* \"#utility.yul\":1157:1497   */\n    tag_157:\n        /* \"#utility.yul\":1213:1218   */\n      0x00\n        /* \"#utility.yul\":1262:1265   */\n      dup3\n        /* \"#utility.yul\":1255:1259   */\n      0x1f\n        /* \"#utility.yul\":1247:1253   */\n      dup4\n        /* \"#utility.yul\":1243:1260   */\n      add\n        /* \"#utility.yul\":1239:1266   */\n      slt\n        /* \"#utility.yul\":1229:1351   */\n      tag_159\n      jumpi\n        /* \"#utility.yul\":1270:1349   */\n      tag_160\n      tag_150\n      jump\t// in\n    tag_160:\n        /* \"#utility.yul\":1229:1351   */\n    tag_159:\n        /* \"#utility.yul\":1387:1393   */\n      dup2\n        /* \"#utility.yul\":1374:1394   */\n      calldataload\n        /* \"#utility.yul\":1412:1491   */\n      tag_161\n        /* \"#utility.yul\":1487:1490   */\n      dup5\n        /* \"#utility.yul\":1479:1485   */\n      dup3\n        /* \"#utility.yul\":1472:1476   */\n      0x20\n        /* \"#utility.yul\":1464:1470   */\n      dup7\n        /* \"#utility.yul\":1460:1477   */\n      add\n        /* \"#utility.yul\":1412:1491   */\n      tag_131\n      jump\t// in\n    tag_161:\n        /* \"#utility.yul\":1403:1491   */\n      swap2\n      pop\n        /* \"#utility.yul\":1219:1497   */\n      pop\n        /* \"#utility.yul\":1157:1497   */\n      swap3\n      swap2\n      pop\n      pop\n      jump\t// out\n        /* \"#utility.yul\":1503:1642   */\n    tag_162:\n        /* \"#utility.yul\":1549:1554   */\n      0x00\n        /* \"#utility.yul\":1587:1593   */\n      dup2\n        /* \"#utility.yul\":1574:1594   */\n      calldataload\n        /* \"#utility.yul\":1565:1594   */\n      swap1\n      pop\n        /* \"#utility.yul\":1603:1636   */\n      tag_164\n        /* \"#utility.yul\":1630:1635   */\n      dup2\n        /* \"#utility.yul\":1603:1636   */\n      tag_165\n      jump\t// in\n    tag_164:\n        /* \"#utility.yul\":1503:1642   */\n      swap3\n      swap2\n      pop\n      pop\n      jump\t// out\n        /* \"#utility.yul\":1648:1977   */\n    tag_53:\n        /* \"#utility.yul\":1707:1713   */\n      0x00\n        /* \"#utility.yul\":1756:1758   */\n      0x20\n        /* \"#utility.yul\":1744:1753   */\n      dup3\n        /* \"#utility.yul\":1735:1742   */\n      dup5\n        /* \"#utility.yul\":1731:1754   */\n      sub\n        /* \"#utility.yul\":1727:1759   */\n      slt\n        /* \"#utility.yul\":1724:1843   */\n      iszero\n      tag_167\n      jumpi\n        /* \"#utility.yul\":1762:1841   */\n      tag_168\n      tag_169\n      jump\t// in\n    tag_168:\n        /* \"#utility.yul\":1724:1843   */\n    tag_167:\n        /* \"#utility.yul\":1882:1883   */\n      0x00\n        /* \"#utility.yul\":1907:1960   */\n      tag_170\n        /* \"#utility.yul\":1952:1959   */\n      dup5\n        /* \"#utility.yul\":1943:1949   */\n      dup3\n        /* \"#utility.yul\":1932:1941   */\n      dup6\n        /* \"#utility.yul\":1928:1950   */\n      add\n        /* \"#utility.yul\":1907:1960   */\n      tag_142\n      jump\t// in\n    tag_170:\n        /* \"#utility.yul\":1897:1960   */\n      swap2\n      pop\n        /* \"#utility.yul\":1853:1970   */\n      pop\n        /* \"#utility.yul\":1648:1977   */\n      swap3\n      swap2\n      pop\n      pop\n      jump\t// out\n        /* \"#utility.yul\":1983:2657   */\n    tag_30:\n        /* \"#utility.yul\":2063:2069   */\n      0x00\n        /* \"#utility.yul\":2071:2077   */\n      dup1\n        /* \"#utility.yul\":2079:2085   */\n      0x00\n        /* \"#utility.yul\":2128:2130   */\n      0x40\n        /* \"#utility.yul\":2116:2125   */\n      dup5\n        /* \"#utility.yul\":2107:2114   */\n      dup7\n        /* \"#utility.yul\":2103:2126   */\n      sub\n        /* \"#utility.yul\":2099:2131   */\n      slt\n        /* \"#utility.yul\":2096:2215   */\n      iszero\n      tag_172\n      jumpi\n        /* \"#utility.yul\":2134:2213   */\n      tag_173\n      tag_169\n      jump\t// in\n    tag_173:\n        /* \"#utility.yul\":2096:2215   */\n    tag_172:\n        /* \"#utility.yul\":2282:2283   */\n      0x00\n        /* \"#utility.yul\":2271:2280   */\n      dup5\n        /* \"#utility.yul\":2267:2284   */\n      add\n        /* \"#utility.yul\":2254:2285   */\n      calldataload\n        /* \"#utility.yul\":2312:2330   */\n      0xffffffffffffffff\n        /* \"#utility.yul\":2304:2310   */\n      dup2\n        /* \"#utility.yul\":2301:2331   */\n      gt\n        /* \"#utility.yul\":2298:2415   */\n      iszero\n      tag_174\n      jumpi\n        /* \"#utility.yul\":2334:2413   */\n      tag_175\n      tag_176\n      jump\t// in\n    tag_175:\n        /* \"#utility.yul\":2298:2415   */\n    tag_174:\n        /* \"#utility.yul\":2447:2512   */\n      tag_177\n        /* \"#utility.yul\":2504:2511   */\n      dup7\n        /* \"#utility.yul\":2495:2501   */\n      dup3\n        /* \"#utility.yul\":2484:2493   */\n      dup8\n        /* \"#utility.yul\":2480:2502   */\n      add\n        /* \"#utility.yul\":2447:2512   */\n      tag_146\n      jump\t// in\n    tag_177:\n        /* \"#utility.yul\":2429:2512   */\n      swap4\n      pop\n      swap4\n      pop\n        /* \"#utility.yul\":2225:2522   */\n      pop\n        /* \"#utility.yul\":2561:2563   */\n      0x20\n        /* \"#utility.yul\":2587:2640   */\n      tag_178\n        /* \"#utility.yul\":2632:2639   */\n      dup7\n        /* \"#utility.yul\":2623:2629   */\n      dup3\n        /* \"#utility.yul\":2612:2621   */\n      dup8\n        /* \"#utility.yul\":2608:2630   */\n      add\n        /* \"#utility.yul\":2587:2640   */\n      tag_162\n      jump\t// in\n    tag_178:\n        /* \"#utility.yul\":2577:2640   */\n      swap2\n      pop\n        /* \"#utility.yul\":2532:2650   */\n      pop\n        /* \"#utility.yul\":1983:2657   */\n      swap3\n      pop\n      swap3\n      pop\n      swap3\n      jump\t// out\n        /* \"#utility.yul\":2663:3172   */\n    tag_24:\n        /* \"#utility.yul\":2732:2738   */\n      0x00\n        /* \"#utility.yul\":2781:2783   */\n      0x20\n        /* \"#utility.yul\":2769:2778   */\n      dup3\n        /* \"#utility.yul\":2760:2767   */\n      dup5\n        /* \"#utility.yul\":2756:2779   */\n      sub\n        /* \"#utility.yul\":2752:2784   */\n      slt\n        /* \"#utility.yul\":2749:2868   */\n      iszero\n      tag_180\n      jumpi\n        /* \"#utility.yul\":2787:2866   */\n      tag_181\n      tag_169\n      jump\t// in\n    tag_181:\n        /* \"#utility.yul\":2749:2868   */\n    tag_180:\n        /* \"#utility.yul\":2935:2936   */\n      0x00\n        /* \"#utility.yul\":2924:2933   */\n      dup3\n        /* \"#utility.yul\":2920:2937   */\n      add\n        /* \"#utility.yul\":2907:2938   */\n      calldataload\n        /* \"#utility.yul\":2965:2983   */\n      0xffffffffffffffff\n        /* \"#utility.yul\":2957:2963   */\n      dup2\n        /* \"#utility.yul\":2954:2984   */\n      gt\n        /* \"#utility.yul\":2951:3068   */\n      iszero\n      tag_182\n      jumpi\n        /* \"#utility.yul\":2987:3066   */\n      tag_183\n      tag_176\n      jump\t// in\n    tag_183:\n        /* \"#utility.yul\":2951:3068   */\n    tag_182:\n        /* \"#utility.yul\":3092:3155   */\n      tag_184\n        /* \"#utility.yul\":3147:3154   */\n      dup5\n        /* \"#utility.yul\":3138:3144   */\n      dup3\n        /* \"#utility.yul\":3127:3136   */\n      dup6\n        /* \"#utility.yul\":3123:3145   */\n      add\n        /* \"#utility.yul\":3092:3155   */\n      tag_157\n      jump\t// in\n    tag_184:\n        /* \"#utility.yul\":3082:3155   */\n      swap2\n      pop\n        /* \"#utility.yul\":2878:3165   */\n      pop\n        /* \"#utility.yul\":2663:3172   */\n      swap3\n      swap2\n      pop\n      pop\n      jump\t// out\n        /* \"#utility.yul\":3178:3507   */\n    tag_35:\n        /* \"#utility.yul\":3237:3243   */\n      0x00\n        /* \"#utility.yul\":3286:3288   */\n      0x20\n        /* \"#utility.yul\":3274:3283   */\n      dup3\n        /* \"#utility.yul\":3265:3272   */\n      dup5\n        /* \"#utility.yul\":3261:3284   */\n      sub\n        /* \"#utility.yul\":3257:3289   */\n      slt\n        /* \"#utility.yul\":3254:3373   */\n      iszero\n      tag_186\n      jumpi\n        /* \"#utility.yul\":3292:3371   */\n      tag_187\n      tag_169\n      jump\t// in\n    tag_187:\n        /* \"#utility.yul\":3254:3373   */\n    tag_186:\n        /* \"#utility.yul\":3412:3413   */\n      0x00\n        /* \"#utility.yul\":3437:3490   */\n      tag_188\n        /* \"#utility.yul\":3482:3489   */\n      dup5\n        /* \"#utility.yul\":3473:3479   */\n      dup3\n        /* \"#utility.yul\":3462:3471   */\n      dup6\n        /* \"#utility.yul\":3458:3480   */\n      add\n        /* \"#utility.yul\":3437:3490   */\n      tag_162\n      jump\t// in\n    tag_188:\n        /* \"#utility.yul\":3427:3490   */\n      swap2\n      pop\n        /* \"#utility.yul\":3383:3500   */\n      pop\n        /* \"#utility.yul\":3178:3507   */\n      swap3\n      swap2\n      pop\n      pop\n      jump\t// out\n        /* \"#utility.yul\":3513:3631   */\n    tag_189:\n        /* \"#utility.yul\":3600:3624   */\n      tag_191\n        /* \"#utility.yul\":3618:3623   */\n      dup2\n        /* \"#utility.yul\":3600:3624   */\n      tag_192\n      jump\t// in\n    tag_191:\n        /* \"#utility.yul\":3595:3598   */\n      dup3\n        /* \"#utility.yul\":3588:3625   */\n      mstore\n        /* \"#utility.yul\":3513:3631   */\n      pop\n      pop\n      jump\t// out\n        /* \"#utility.yul\":3661:3965   */\n    tag_193:\n        /* \"#utility.yul\":3759:3762   */\n      0x00\n        /* \"#utility.yul\":3780:3851   */\n      tag_195\n        /* \"#utility.yul\":3844:3850   */\n      dup4\n        /* \"#utility.yul\":3839:3842   */\n      dup6\n        /* \"#utility.yul\":3780:3851   */\n      tag_196\n      jump\t// in\n    tag_195:\n        /* \"#utility.yul\":3773:3851   */\n      swap4\n      pop\n        /* \"#utility.yul\":3861:3904   */\n      tag_197\n        /* \"#utility.yul\":3897:3903   */\n      dup4\n        /* \"#utility.yul\":3892:3895   */\n      dup6\n        /* \"#utility.yul\":3885:3890   */\n      dup5\n        /* \"#utility.yul\":3861:3904   */\n      tag_141\n      jump\t// in\n    tag_197:\n        /* \"#utility.yul\":3929:3958   */\n      tag_198\n        /* \"#utility.yul\":3951:3957   */\n      dup4\n        /* \"#utility.yul\":3929:3958   */\n      tag_199\n      jump\t// in\n    tag_198:\n        /* \"#utility.yul\":3924:3927   */\n      dup5\n        /* \"#utility.yul\":3920:3959   */\n      add\n        /* \"#utility.yul\":3913:3959   */\n      swap1\n      pop\n        /* \"#utility.yul\":3661:3965   */\n      swap4\n      swap3\n      pop\n      pop\n      pop\n      jump\t// out\n        /* \"#utility.yul\":3995:4312   */\n    tag_200:\n        /* \"#utility.yul\":4111:4114   */\n      0x00\n        /* \"#utility.yul\":4132:4221   */\n      tag_202\n        /* \"#utility.yul\":4214:4220   */\n      dup4\n        /* \"#utility.yul\":4209:4212   */\n      dup6\n        /* \"#utility.yul\":4132:4221   */\n      tag_203\n      jump\t// in\n    tag_202:\n        /* \"#utility.yul\":4125:4221   */\n      swap4\n      pop\n        /* \"#utility.yul\":4231:4274   */\n      tag_204\n        /* \"#utility.yul\":4267:4273   */\n      dup4\n        /* \"#utility.yul\":4262:4265   */\n      dup6\n        /* \"#utility.yul\":4255:4260   */\n      dup5\n        /* \"#utility.yul\":4231:4274   */\n      tag_141\n      jump\t// in\n    tag_204:\n        /* \"#utility.yul\":4299:4305   */\n      dup3\n        /* \"#utility.yul\":4294:4297   */\n      dup5\n        /* \"#utility.yul\":4290:4306   */\n      add\n        /* \"#utility.yul\":4283:4306   */\n      swap1\n      pop\n        /* \"#utility.yul\":3995:4312   */\n      swap4\n      swap3\n      pop\n      pop\n      pop\n      jump\t// out\n        /* \"#utility.yul\":4318:4682   */\n    tag_205:\n        /* \"#utility.yul\":4406:4409   */\n      0x00\n        /* \"#utility.yul\":4434:4473   */\n      tag_207\n        /* \"#utility.yul\":4467:4472   */\n      dup3\n        /* \"#utility.yul\":4434:4473   */\n      tag_208\n      jump\t// in\n    tag_207:\n        /* \"#utility.yul\":4489:4560   */\n      tag_209\n        /* \"#utility.yul\":4553:4559   */\n      dup2\n        /* \"#utility.yul\":4548:4551   */\n      dup6\n        /* \"#utility.yul\":4489:4560   */\n      tag_196\n      jump\t// in\n    tag_209:\n        /* \"#utility.yul\":4482:4560   */\n      swap4\n      pop\n        /* \"#utility.yul\":4569:4621   */\n      tag_210\n        /* \"#utility.yul\":4614:4620   */\n      dup2\n        /* \"#utility.yul\":4609:4612   */\n      dup6\n        /* \"#utility.yul\":4602:4606   */\n      0x20\n        /* \"#utility.yul\":4595:4600   */\n      dup7\n        /* \"#utility.yul\":4591:4607   */\n      add\n        /* \"#utility.yul\":4569:4621   */\n      tag_211\n      jump\t// in\n    tag_210:\n        /* \"#utility.yul\":4646:4675   */\n      tag_212\n        /* \"#utility.yul\":4668:4674   */\n      dup2\n        /* \"#utility.yul\":4646:4675   */\n      tag_199\n      jump\t// in\n    tag_212:\n        /* \"#utility.yul\":4641:4644   */\n      dup5\n        /* \"#utility.yul\":4637:4676   */\n      add\n        /* \"#utility.yul\":4630:4676   */\n      swap2\n      pop\n        /* \"#utility.yul\":4410:4682   */\n      pop\n        /* \"#utility.yul\":4318:4682   */\n      swap3\n      swap2\n      pop\n      pop\n      jump\t// out\n        /* \"#utility.yul\":4688:5054   */\n    tag_213:\n        /* \"#utility.yul\":4830:4833   */\n      0x00\n        /* \"#utility.yul\":4851:4918   */\n      tag_215\n        /* \"#utility.yul\":4915:4917   */\n      0x26\n        /* \"#utility.yul\":4910:4913   */\n      dup4\n        /* \"#utility.yul\":4851:4918   */\n      tag_196\n      jump\t// in\n    tag_215:\n        /* \"#utility.yul\":4844:4918   */\n      swap2\n      pop\n        /* \"#utility.yul\":4927:5020   */\n      tag_216\n        /* \"#utility.yul\":5016:5019   */\n      dup3\n        /* \"#utility.yul\":4927:5020   */\n      tag_217\n      jump\t// in\n    tag_216:\n        /* \"#utility.yul\":5045:5047   */\n      0x40\n        /* \"#utility.yul\":5040:5043   */\n      dup3\n        /* \"#utility.yul\":5036:5048   */\n      add\n        /* \"#utility.yul\":5029:5048   */\n      swap1\n      pop\n        /* \"#utility.yul\":4688:5054   */\n      swap2\n      swap1\n      pop\n      jump\t// out\n        /* \"#utility.yul\":5060:5426   */\n    tag_218:\n        /* \"#utility.yul\":5202:5205   */\n      0x00\n        /* \"#utility.yul\":5223:5290   */\n      tag_220\n        /* \"#utility.yul\":5287:5289   */\n      0x0c\n        /* \"#utility.yul\":5282:5285   */\n      dup4\n        /* \"#utility.yul\":5223:5290   */\n      tag_196\n      jump\t// in\n    tag_220:\n        /* \"#utility.yul\":5216:5290   */\n      swap2\n      pop\n        /* \"#utility.yul\":5299:5392   */\n      tag_221\n        /* \"#utility.yul\":5388:5391   */\n      dup3\n        /* \"#utility.yul\":5299:5392   */\n      tag_222\n      jump\t// in\n    tag_221:\n        /* \"#utility.yul\":5417:5419   */\n      0x20\n        /* \"#utility.yul\":5412:5415   */\n      dup3\n        /* \"#utility.yul\":5408:5420   */\n      add\n        /* \"#utility.yul\":5401:5420   */\n      swap1\n      pop\n        /* \"#utility.yul\":5060:5426   */\n      swap2\n      swap1\n      pop\n      jump\t// out\n        /* \"#utility.yul\":5432:5798   */\n    tag_223:\n        /* \"#utility.yul\":5574:5577   */\n      0x00\n        /* \"#utility.yul\":5595:5662   */\n      tag_225\n        /* \"#utility.yul\":5659:5661   */\n      0x20\n        /* \"#utility.yul\":5654:5657   */\n      dup4\n        /* \"#utility.yul\":5595:5662   */\n      tag_196\n      jump\t// in\n    tag_225:\n        /* \"#utility.yul\":5588:5662   */\n      swap2\n      pop\n        /* \"#utility.yul\":5671:5764   */\n      tag_226\n        /* \"#utility.yul\":5760:5763   */\n      dup3\n        /* \"#utility.yul\":5671:5764   */\n      tag_227\n      jump\t// in\n    tag_226:\n        /* \"#utility.yul\":5789:5791   */\n      0x20\n        /* \"#utility.yul\":5784:5787   */\n      dup3\n        /* \"#utility.yul\":5780:5792   */\n      add\n        /* \"#utility.yul\":5773:5792   */\n      swap1\n      pop\n        /* \"#utility.yul\":5432:5798   */\n      swap2\n      swap1\n      pop\n      jump\t// out\n        /* \"#utility.yul\":5804:6170   */\n    tag_228:\n        /* \"#utility.yul\":5946:5949   */\n      0x00\n        /* \"#utility.yul\":5967:6034   */\n      tag_230\n        /* \"#utility.yul\":6031:6033   */\n      0x0f\n        /* \"#utility.yul\":6026:6029   */\n      dup4\n        /* \"#utility.yul\":5967:6034   */\n      tag_196\n      jump\t// in\n    tag_230:\n        /* \"#utility.yul\":5960:6034   */\n      swap2\n      pop\n        /* \"#utility.yul\":6043:6136   */\n      tag_231\n        /* \"#utility.yul\":6132:6135   */\n      dup3\n        /* \"#utility.yul\":6043:6136   */\n      tag_232\n      jump\t// in\n    tag_231:\n        /* \"#utility.yul\":6161:6163   */\n      0x20\n        /* \"#utility.yul\":6156:6159   */\n      dup3\n        /* \"#utility.yul\":6152:6164   */\n      add\n        /* \"#utility.yul\":6145:6164   */\n      swap1\n      pop\n        /* \"#utility.yul\":5804:6170   */\n      swap2\n      swap1\n      pop\n      jump\t// out\n        /* \"#utility.yul\":6176:6294   */\n    tag_233:\n        /* \"#utility.yul\":6263:6287   */\n      tag_235\n        /* \"#utility.yul\":6281:6286   */\n      dup2\n        /* \"#utility.yul\":6263:6287   */\n      tag_236\n      jump\t// in\n    tag_235:\n        /* \"#utility.yul\":6258:6261   */\n      dup3\n        /* \"#utility.yul\":6251:6288   */\n      mstore\n        /* \"#utility.yul\":6176:6294   */\n      pop\n      pop\n      jump\t// out\n        /* \"#utility.yul\":6300:6595   */\n    tag_71:\n        /* \"#utility.yul\":6442:6445   */\n      0x00\n        /* \"#utility.yul\":6464:6569   */\n      tag_238\n        /* \"#utility.yul\":6565:6568   */\n      dup3\n        /* \"#utility.yul\":6556:6562   */\n      dup5\n        /* \"#utility.yul\":6548:6554   */\n      dup7\n        /* \"#utility.yul\":6464:6569   */\n      tag_200\n      jump\t// in\n    tag_238:\n        /* \"#utility.yul\":6457:6569   */\n      swap2\n      pop\n        /* \"#utility.yul\":6586:6589   */\n      dup2\n        /* \"#utility.yul\":6579:6589   */\n      swap1\n      pop\n        /* \"#utility.yul\":6300:6595   */\n      swap4\n      swap3\n      pop\n      pop\n      pop\n      jump\t// out\n        /* \"#utility.yul\":6601:6823   */\n    tag_49:\n        /* \"#utility.yul\":6694:6698   */\n      0x00\n        /* \"#utility.yul\":6732:6734   */\n      0x20\n        /* \"#utility.yul\":6721:6730   */\n      dup3\n        /* \"#utility.yul\":6717:6735   */\n      add\n        /* \"#utility.yul\":6709:6735   */\n      swap1\n      pop\n        /* \"#utility.yul\":6745:6816   */\n      tag_240\n        /* \"#utility.yul\":6813:6814   */\n      0x00\n        /* \"#utility.yul\":6802:6811   */\n      dup4\n        /* \"#utility.yul\":6798:6815   */\n      add\n        /* \"#utility.yul\":6789:6795   */\n      dup5\n        /* \"#utility.yul\":6745:6816   */\n      tag_189\n      jump\t// in\n    tag_240:\n        /* \"#utility.yul\":6601:6823   */\n      swap3\n      swap2\n      pop\n      pop\n      jump\t// out\n        /* \"#utility.yul\":6829:7272   */\n    tag_77:\n        /* \"#utility.yul\":6980:6984   */\n      0x00\n        /* \"#utility.yul\":7018:7020   */\n      0x40\n        /* \"#utility.yul\":7007:7016   */\n      dup3\n        /* \"#utility.yul\":7003:7021   */\n      add\n        /* \"#utility.yul\":6995:7021   */\n      swap1\n      pop\n        /* \"#utility.yul\":7067:7076   */\n      dup2\n        /* \"#utility.yul\":7061:7065   */\n      dup2\n        /* \"#utility.yul\":7057:7077   */\n      sub\n        /* \"#utility.yul\":7053:7054   */\n      0x00\n        /* \"#utility.yul\":7042:7051   */\n      dup4\n        /* \"#utility.yul\":7038:7055   */\n      add\n        /* \"#utility.yul\":7031:7078   */\n      mstore\n        /* \"#utility.yul\":7095:7183   */\n      tag_242\n        /* \"#utility.yul\":7178:7182   */\n      dup2\n        /* \"#utility.yul\":7169:7175   */\n      dup6\n        /* \"#utility.yul\":7161:7167   */\n      dup8\n        /* \"#utility.yul\":7095:7183   */\n      tag_193\n      jump\t// in\n    tag_242:\n        /* \"#utility.yul\":7087:7183   */\n      swap1\n      pop\n        /* \"#utility.yul\":7193:7265   */\n      tag_243\n        /* \"#utility.yul\":7261:7263   */\n      0x20\n        /* \"#utility.yul\":7250:7259   */\n      dup4\n        /* \"#utility.yul\":7246:7264   */\n      add\n        /* \"#utility.yul\":7237:7243   */\n      dup5\n        /* \"#utility.yul\":7193:7265   */\n      tag_233\n      jump\t// in\n    tag_243:\n        /* \"#utility.yul\":6829:7272   */\n      swap5\n      swap4\n      pop\n      pop\n      pop\n      pop\n      jump\t// out\n        /* \"#utility.yul\":7278:7701   */\n    tag_38:\n        /* \"#utility.yul\":7419:7423   */\n      0x00\n        /* \"#utility.yul\":7457:7459   */\n      0x40\n        /* \"#utility.yul\":7446:7455   */\n      dup3\n        /* \"#utility.yul\":7442:7460   */\n      add\n        /* \"#utility.yul\":7434:7460   */\n      swap1\n      pop\n        /* \"#utility.yul\":7506:7515   */\n      dup2\n        /* \"#utility.yul\":7500:7504   */\n      dup2\n        /* \"#utility.yul\":7496:7516   */\n      sub\n        /* \"#utility.yul\":7492:7493   */\n      0x00\n        /* \"#utility.yul\":7481:7490   */\n      dup4\n        /* \"#utility.yul\":7477:7494   */\n      add\n        /* \"#utility.yul\":7470:7517   */\n      mstore\n        /* \"#utility.yul\":7534:7612   */\n      tag_245\n        /* \"#utility.yul\":7607:7611   */\n      dup2\n        /* \"#utility.yul\":7598:7604   */\n      dup6\n        /* \"#utility.yul\":7534:7612   */\n      tag_205\n      jump\t// in\n    tag_245:\n        /* \"#utility.yul\":7526:7612   */\n      swap1\n      pop\n        /* \"#utility.yul\":7622:7694   */\n      tag_246\n        /* \"#utility.yul\":7690:7692   */\n      0x20\n        /* \"#utility.yul\":7679:7688   */\n      dup4\n        /* \"#utility.yul\":7675:7693   */\n      add\n        /* \"#utility.yul\":7666:7672   */\n      dup5\n        /* \"#utility.yul\":7622:7694   */\n      tag_233\n      jump\t// in\n    tag_246:\n        /* \"#utility.yul\":7278:7701   */\n      swap4\n      swap3\n      pop\n      pop\n      pop\n      jump\t// out\n        /* \"#utility.yul\":7707:8126   */\n    tag_109:\n        /* \"#utility.yul\":7873:7877   */\n      0x00\n        /* \"#utility.yul\":7911:7913   */\n      0x20\n        /* \"#utility.yul\":7900:7909   */\n      dup3\n        /* \"#utility.yul\":7896:7914   */\n      add\n        /* \"#utility.yul\":7888:7914   */\n      swap1\n      pop\n        /* \"#utility.yul\":7960:7969   */\n      dup2\n        /* \"#utility.yul\":7954:7958   */\n      dup2\n        /* \"#utility.yul\":7950:7970   */\n      sub\n        /* \"#utility.yul\":7946:7947   */\n      0x00\n        /* \"#utility.yul\":7935:7944   */\n      dup4\n        /* \"#utility.yul\":7931:7948   */\n      add\n        /* \"#utility.yul\":7924:7971   */\n      mstore\n        /* \"#utility.yul\":7988:8119   */\n      tag_248\n        /* \"#utility.yul\":8114:8118   */\n      dup2\n        /* \"#utility.yul\":7988:8119   */\n      tag_213\n      jump\t// in\n    tag_248:\n        /* \"#utility.yul\":7980:8119   */\n      swap1\n      pop\n        /* \"#utility.yul\":7707:8126   */\n      swap2\n      swap1\n      pop\n      jump\t// out\n        /* \"#utility.yul\":8132:8551   */\n    tag_63:\n        /* \"#utility.yul\":8298:8302   */\n      0x00\n        /* \"#utility.yul\":8336:8338   */\n      0x20\n        /* \"#utility.yul\":8325:8334   */\n      dup3\n        /* \"#utility.yul\":8321:8339   */\n      add\n        /* \"#utility.yul\":8313:8339   */\n      swap1\n      pop\n        /* \"#utility.yul\":8385:8394   */\n      dup2\n        /* \"#utility.yul\":8379:8383   */\n      dup2\n        /* \"#utility.yul\":8375:8395   */\n      sub\n        /* \"#utility.yul\":8371:8372   */\n      0x00\n        /* \"#utility.yul\":8360:8369   */\n      dup4\n        /* \"#utility.yul\":8356:8373   */\n      add\n        /* \"#utility.yul\":8349:8396   */\n      mstore\n        /* \"#utility.yul\":8413:8544   */\n      tag_250\n        /* \"#utility.yul\":8539:8543   */\n      dup2\n        /* \"#utility.yul\":8413:8544   */\n      tag_218\n      jump\t// in\n    tag_250:\n        /* \"#utility.yul\":8405:8544   */\n      swap1\n      pop\n        /* \"#utility.yul\":8132:8551   */\n      swap2\n      swap1\n      pop\n      jump\t// out\n        /* \"#utility.yul\":8557:8976   */\n    tag_117:\n        /* \"#utility.yul\":8723:8727   */\n      0x00\n        /* \"#utility.yul\":8761:8763   */\n      0x20\n        /* \"#utility.yul\":8750:8759   */\n      dup3\n        /* \"#utility.yul\":8746:8764   */\n      add\n        /* \"#utility.yul\":8738:8764   */\n      swap1\n      pop\n        /* \"#utility.yul\":8810:8819   */\n      dup2\n        /* \"#utility.yul\":8804:8808   */\n      dup2\n        /* \"#utility.yul\":8800:8820   */\n      sub\n        /* \"#utility.yul\":8796:8797   */\n      0x00\n        /* \"#utility.yul\":8785:8794   */\n      dup4\n        /* \"#utility.yul\":8781:8798   */\n      add\n        /* \"#utility.yul\":8774:8821   */\n      mstore\n        /* \"#utility.yul\":8838:8969   */\n      tag_252\n        /* \"#utility.yul\":8964:8968   */\n      dup2\n        /* \"#utility.yul\":8838:8969   */\n      tag_223\n      jump\t// in\n    tag_252:\n        /* \"#utility.yul\":8830:8969   */\n      swap1\n      pop\n        /* \"#utility.yul\":8557:8976   */\n      swap2\n      swap1\n      pop\n      jump\t// out\n        /* \"#utility.yul\":8982:9401   */\n    tag_100:\n        /* \"#utility.yul\":9148:9152   */\n      0x00\n        /* \"#utility.yul\":9186:9188   */\n      0x20\n        /* \"#utility.yul\":9175:9184   */\n      dup3\n        /* \"#utility.yul\":9171:9189   */\n      add\n        /* \"#utility.yul\":9163:9189   */\n      swap1\n      pop\n        /* \"#utility.yul\":9235:9244   */\n      dup2\n        /* \"#utility.yul\":9229:9233   */\n      dup2\n        /* \"#utility.yul\":9225:9245   */\n      sub\n        /* \"#utility.yul\":9221:9222   */\n      0x00\n        /* \"#utility.yul\":9210:9219   */\n      dup4\n        /* \"#utility.yul\":9206:9223   */\n      add\n        /* \"#utility.yul\":9199:9246   */\n      mstore\n        /* \"#utility.yul\":9263:9394   */\n      tag_254\n        /* \"#utility.yul\":9389:9393   */\n      dup2\n        /* \"#utility.yul\":9263:9394   */\n      tag_228\n      jump\t// in\n    tag_254:\n        /* \"#utility.yul\":9255:9394   */\n      swap1\n      pop\n        /* \"#utility.yul\":8982:9401   */\n      swap2\n      swap1\n      pop\n      jump\t// out\n        /* \"#utility.yul\":9407:9629   */\n    tag_17:\n        /* \"#utility.yul\":9500:9504   */\n      0x00\n        /* \"#utility.yul\":9538:9540   */\n      0x20\n        /* \"#utility.yul\":9527:9536   */\n      dup3\n        /* \"#utility.yul\":9523:9541   */\n      add\n        /* \"#utility.yul\":9515:9541   */\n      swap1\n      pop\n        /* \"#utility.yul\":9551:9622   */\n      tag_256\n        /* \"#utility.yul\":9619:9620   */\n      0x00\n        /* \"#utility.yul\":9608:9617   */\n      dup4\n        /* \"#utility.yul\":9604:9621   */\n      add\n        /* \"#utility.yul\":9595:9601   */\n      dup5\n        /* \"#utility.yul\":9551:9622   */\n      tag_233\n      jump\t// in\n    tag_256:\n        /* \"#utility.yul\":9407:9629   */\n      swap3\n      swap2\n      pop\n      pop\n      jump\t// out\n        /* \"#utility.yul\":9635:9764   */\n    tag_136:\n        /* \"#utility.yul\":9669:9675   */\n      0x00\n        /* \"#utility.yul\":9696:9716   */\n      tag_258\n      tag_259\n      jump\t// in\n    tag_258:\n        /* \"#utility.yul\":9686:9716   */\n      swap1\n      pop\n        /* \"#utility.yul\":9725:9758   */\n      tag_260\n        /* \"#utility.yul\":9753:9757   */\n      dup3\n        /* \"#utility.yul\":9745:9751   */\n      dup3\n        /* \"#utility.yul\":9725:9758   */\n      tag_261\n      jump\t// in\n    tag_260:\n        /* \"#utility.yul\":9635:9764   */\n      swap2\n      swap1\n      pop\n      jump\t// out\n        /* \"#utility.yul\":9770:9845   */\n    tag_259:\n        /* \"#utility.yul\":9803:9809   */\n      0x00\n        /* \"#utility.yul\":9836:9838   */\n      0x40\n        /* \"#utility.yul\":9830:9839   */\n      mload\n        /* \"#utility.yul\":9820:9839   */\n      swap1\n      pop\n        /* \"#utility.yul\":9770:9845   */\n      swap1\n      jump\t// out\n        /* \"#utility.yul\":9851:10159   */\n    tag_135:\n        /* \"#utility.yul\":9913:9917   */\n      0x00\n        /* \"#utility.yul\":10003:10021   */\n      0xffffffffffffffff\n        /* \"#utility.yul\":9995:10001   */\n      dup3\n        /* \"#utility.yul\":9992:10022   */\n      gt\n        /* \"#utility.yul\":9989:10045   */\n      iszero\n      tag_264\n      jumpi\n        /* \"#utility.yul\":10025:10043   */\n      tag_265\n      tag_266\n      jump\t// in\n    tag_265:\n        /* \"#utility.yul\":9989:10045   */\n    tag_264:\n        /* \"#utility.yul\":10063:10092   */\n      tag_267\n        /* \"#utility.yul\":10085:10091   */\n      dup3\n        /* \"#utility.yul\":10063:10092   */\n      tag_199\n      jump\t// in\n    tag_267:\n        /* \"#utility.yul\":10055:10092   */\n      swap1\n      pop\n        /* \"#utility.yul\":10147:10151   */\n      0x20\n        /* \"#utility.yul\":10141:10145   */\n      dup2\n        /* \"#utility.yul\":10137:10152   */\n      add\n        /* \"#utility.yul\":10129:10152   */\n      swap1\n      pop\n        /* \"#utility.yul\":9851:10159   */\n      swap2\n      swap1\n      pop\n      jump\t// out\n        /* \"#utility.yul\":10165:10264   */\n    tag_208:\n        /* \"#utility.yul\":10217:10223   */\n      0x00\n        /* \"#utility.yul\":10251:10256   */\n      dup2\n        /* \"#utility.yul\":10245:10257   */\n      mload\n        /* \"#utility.yul\":10235:10257   */\n      swap1\n      pop\n        /* \"#utility.yul\":10165:10264   */\n      swap2\n      swap1\n      pop\n      jump\t// out\n        /* \"#utility.yul\":10270:10439   */\n    tag_196:\n        /* \"#utility.yul\":10354:10365   */\n      0x00\n        /* \"#utility.yul\":10388:10394   */\n      dup3\n        /* \"#utility.yul\":10383:10386   */\n      dup3\n        /* \"#utility.yul\":10376:10395   */\n      mstore\n        /* \"#utility.yul\":10428:10432   */\n      0x20\n        /* \"#utility.yul\":10423:10426   */\n      dup3\n        /* \"#utility.yul\":10419:10433   */\n      add\n        /* \"#utility.yul\":10404:10433   */\n      swap1\n      pop\n        /* \"#utility.yul\":10270:10439   */\n      swap3\n      swap2\n      pop\n      pop\n      jump\t// out\n        /* \"#utility.yul\":10445:10593   */\n    tag_203:\n        /* \"#utility.yul\":10547:10558   */\n      0x00\n        /* \"#utility.yul\":10584:10587   */\n      dup2\n        /* \"#utility.yul\":10569:10587   */\n      swap1\n      pop\n        /* \"#utility.yul\":10445:10593   */\n      swap3\n      swap2\n      pop\n      pop\n      jump\t// out\n        /* \"#utility.yul\":10599:10904   */\n    tag_75:\n        /* \"#utility.yul\":10639:10642   */\n      0x00\n        /* \"#utility.yul\":10658:10678   */\n      tag_272\n        /* \"#utility.yul\":10676:10677   */\n      dup3\n        /* \"#utility.yul\":10658:10678   */\n      tag_236\n      jump\t// in\n    tag_272:\n        /* \"#utility.yul\":10653:10678   */\n      swap2\n      pop\n        /* \"#utility.yul\":10692:10712   */\n      tag_273\n        /* \"#utility.yul\":10710:10711   */\n      dup4\n        /* \"#utility.yul\":10692:10712   */\n      tag_236\n      jump\t// in\n    tag_273:\n        /* \"#utility.yul\":10687:10712   */\n      swap3\n      pop\n        /* \"#utility.yul\":10846:10847   */\n      dup3\n        /* \"#utility.yul\":10778:10844   */\n      0xffffffffffffffffffffffffffffffffffffffffffffffffffffffffffffffff\n        /* \"#utility.yul\":10774:10848   */\n      sub\n        /* \"#utility.yul\":10771:10772   */\n      dup3\n        /* \"#utility.yul\":10768:10849   */\n      gt\n        /* \"#utility.yul\":10765:10872   */\n      iszero\n      tag_274\n      jumpi\n        /* \"#utility.yul\":10852:10870   */\n      tag_275\n      tag_276\n      jump\t// in\n    tag_275:\n        /* \"#utility.yul\":10765:10872   */\n    tag_274:\n        /* \"#utility.yul\":10896:10897   */\n      dup3\n        /* \"#utility.yul\":10893:10894   */\n      dup3\n        /* \"#utility.yul\":10889:10898   */\n      add\n        /* \"#utility.yul\":10882:10898   */\n      swap1\n      pop\n        /* \"#utility.yul\":10599:10904   */\n      swap3\n      swap2\n      pop\n      pop\n      jump\t// out\n        /* \"#utility.yul\":10910:11006   */\n    tag_192:\n        /* \"#utility.yul\":10947:10954   */\n      0x00\n        /* \"#utility.yul\":10976:11000   */\n      tag_278\n        /* \"#utility.yul\":10994:10999   */\n      dup3\n        /* \"#utility.yul\":10976:11000   */\n      tag_279\n      jump\t// in\n    tag_278:\n        /* \"#utility.yul\":10965:11000   */\n      swap1\n      pop\n        /* \"#utility.yul\":10910:11006   */\n      swap2\n      swap1\n      pop\n      jump\t// out\n        /* \"#utility.yul\":11012:11138   */\n    tag_279:\n        /* \"#utility.yul\":11049:11056   */\n      0x00\n        /* \"#utility.yul\":11089:11131   */\n      0xffffffffffffffffffffffffffffffffffffffff\n        /* \"#utility.yul\":11082:11087   */\n      dup3\n        /* \"#utility.yul\":11078:11132   */\n      and\n        /* \"#utility.yul\":11067:11132   */\n      swap1\n      pop\n        /* \"#utility.yul\":11012:11138   */\n      swap2\n      swap1\n      pop\n      jump\t// out\n        /* \"#utility.yul\":11144:11221   */\n    tag_236:\n        /* \"#utility.yul\":11181:11188   */\n      0x00\n        /* \"#utility.yul\":11210:11215   */\n      dup2\n        /* \"#utility.yul\":11199:11215   */\n      swap1\n      pop\n        /* \"#utility.yul\":11144:11221   */\n      swap2\n      swap1\n      pop\n      jump\t// out\n        /* \"#utility.yul\":11227:11381   */\n    tag_141:\n        /* \"#utility.yul\":11311:11317   */\n      dup3\n        /* \"#utility.yul\":11306:11309   */\n      dup2\n        /* \"#utility.yul\":11301:11304   */\n      dup4\n        /* \"#utility.yul\":11288:11318   */\n      calldatacopy\n        /* \"#utility.yul\":11373:11374   */\n      0x00\n        /* \"#utility.yul\":11364:11370   */\n      dup4\n        /* \"#utility.yul\":11359:11362   */\n      dup4\n        /* \"#utility.yul\":11355:11371   */\n      add\n        /* \"#utility.yul\":11348:11375   */\n      mstore\n        /* \"#utility.yul\":11227:11381   */\n      pop\n      pop\n      pop\n      jump\t// out\n        /* \"#utility.yul\":11387:11694   */\n    tag_211:\n        /* \"#utility.yul\":11455:11456   */\n      0x00\n        /* \"#utility.yul\":11465:11578   */\n    tag_284:\n        /* \"#utility.yul\":11479:11485   */\n      dup4\n        /* \"#utility.yul\":11476:11477   */\n      dup2\n        /* \"#utility.yul\":11473:11486   */\n      lt\n        /* \"#utility.yul\":11465:11578   */\n      iszero\n      tag_286\n      jumpi\n        /* \"#utility.yul\":11564:11565   */\n      dup1\n        /* \"#utility.yul\":11559:11562   */\n      dup3\n        /* \"#utility.yul\":11555:11566   */\n      add\n        /* \"#utility.yul\":11549:11567   */\n      mload\n        /* \"#utility.yul\":11545:11546   */\n      dup2\n        /* \"#utility.yul\":11540:11543   */\n      dup5\n        /* \"#utility.yul\":11536:11547   */\n      add\n        /* \"#utility.yul\":11529:11568   */\n      mstore\n        /* \"#utility.yul\":11501:11503   */\n      0x20\n        /* \"#utility.yul\":11498:11499   */\n      dup2\n        /* \"#utility.yul\":11494:11504   */\n      add\n        /* \"#utility.yul\":11489:11504   */\n      swap1\n      pop\n        /* \"#utility.yul\":11465:11578   */\n      jump(tag_284)\n    tag_286:\n        /* \"#utility.yul\":11596:11602   */\n      dup4\n        /* \"#utility.yul\":11593:11594   */\n      dup2\n        /* \"#utility.yul\":11590:11603   */\n      gt\n        /* \"#utility.yul\":11587:11688   */\n      iszero\n      tag_287\n      jumpi\n        /* \"#utility.yul\":11676:11677   */\n      0x00\n        /* \"#utility.yul\":11667:11673   */\n      dup5\n        /* \"#utility.yul\":11662:11665   */\n      dup5\n        /* \"#utility.yul\":11658:11674   */\n      add\n        /* \"#utility.yul\":11651:11678   */\n      mstore\n        /* \"#utility.yul\":11587:11688   */\n    tag_287:\n        /* \"#utility.yul\":11436:11694   */\n      pop\n        /* \"#utility.yul\":11387:11694   */\n      pop\n      pop\n      pop\n      jump\t// out\n        /* \"#utility.yul\":11700:11871   */\n    tag_102:\n        /* \"#utility.yul\":11739:11742   */\n      0x00\n        /* \"#utility.yul\":11762:11786   */\n      tag_289\n        /* \"#utility.yul\":11780:11785   */\n      dup3\n        /* \"#utility.yul\":11762:11786   */\n      tag_236\n      jump\t// in\n    tag_289:\n        /* \"#utility.yul\":11753:11786   */\n      swap2\n      pop\n        /* \"#utility.yul\":11808:11812   */\n      0x00\n        /* \"#utility.yul\":11801:11806   */\n      dup3\n        /* \"#utility.yul\":11798:11813   */\n      eq\n        /* \"#utility.yul\":11795:11836   */\n      iszero\n      tag_290\n      jumpi\n        /* \"#utility.yul\":11816:11834   */\n      tag_291\n      tag_276\n      jump\t// in\n    tag_291:\n        /* \"#utility.yul\":11795:11836   */\n    tag_290:\n        /* \"#utility.yul\":11863:11864   */\n      0x01\n        /* \"#utility.yul\":11856:11861   */\n      dup3\n        /* \"#utility.yul\":11852:11865   */\n      sub\n        /* \"#utility.yul\":11845:11865   */\n      swap1\n      pop\n        /* \"#utility.yul\":11700:11871   */\n      swap2\n      swap1\n      pop\n      jump\t// out\n        /* \"#utility.yul\":11877:12197   */\n    tag_85:\n        /* \"#utility.yul\":11921:11927   */\n      0x00\n        /* \"#utility.yul\":11958:11959   */\n      0x02\n        /* \"#utility.yul\":11952:11956   */\n      dup3\n        /* \"#utility.yul\":11948:11960   */\n      div\n        /* \"#utility.yul\":11938:11960   */\n      swap1\n      pop\n        /* \"#utility.yul\":12005:12006   */\n      0x01\n        /* \"#utility.yul\":11999:12003   */\n      dup3\n        /* \"#utility.yul\":11995:12007   */\n      and\n        /* \"#utility.yul\":12026:12044   */\n      dup1\n        /* \"#utility.yul\":12016:12097   */\n      tag_293\n      jumpi\n        /* \"#utility.yul\":12082:12086   */\n      0x7f\n        /* \"#utility.yul\":12074:12080   */\n      dup3\n        /* \"#utility.yul\":12070:12087   */\n      and\n        /* \"#utility.yul\":12060:12087   */\n      swap2\n      pop\n        /* \"#utility.yul\":12016:12097   */\n    tag_293:\n        /* \"#utility.yul\":12144:12146   */\n      0x20\n        /* \"#utility.yul\":12136:12142   */\n      dup3\n        /* \"#utility.yul\":12133:12147   */\n      lt\n        /* \"#utility.yul\":12113:12131   */\n      dup2\n        /* \"#utility.yul\":12110:12148   */\n      eq\n        /* \"#utility.yul\":12107:12191   */\n      iszero\n      tag_294\n      jumpi\n        /* \"#utility.yul\":12163:12181   */\n      tag_295\n      tag_296\n      jump\t// in\n    tag_295:\n        /* \"#utility.yul\":12107:12191   */\n    tag_294:\n        /* \"#utility.yul\":11928:12197   */\n      pop\n        /* \"#utility.yul\":11877:12197   */\n      swap2\n      swap1\n      pop\n      jump\t// out\n        /* \"#utility.yul\":12203:12484   */\n    tag_261:\n        /* \"#utility.yul\":12286:12313   */\n      tag_298\n        /* \"#utility.yul\":12308:12312   */\n      dup3\n        /* \"#utility.yul\":12286:12313   */\n      tag_199\n      jump\t// in\n    tag_298:\n        /* \"#utility.yul\":12278:12284   */\n      dup2\n        /* \"#utility.yul\":12274:12314   */\n      add\n        /* \"#utility.yul\":12416:12422   */\n      dup2\n        /* \"#utility.yul\":12404:12414   */\n      dup2\n        /* \"#utility.yul\":12401:12423   */\n      lt\n        /* \"#utility.yul\":12380:12398   */\n      0xffffffffffffffff\n        /* \"#utility.yul\":12368:12378   */\n      dup3\n        /* \"#utility.yul\":12365:12399   */\n      gt\n        /* \"#utility.yul\":12362:12424   */\n      or\n        /* \"#utility.yul\":12359:12447   */\n      iszero\n      tag_299\n      jumpi\n        /* \"#utility.yul\":12427:12445   */\n      tag_300\n      tag_266\n      jump\t// in\n    tag_300:\n        /* \"#utility.yul\":12359:12447   */\n    tag_299:\n        /* \"#utility.yul\":12467:12477   */\n      dup1\n        /* \"#utility.yul\":12463:12465   */\n      0x40\n        /* \"#utility.yul\":12456:12478   */\n      mstore\n        /* \"#utility.yul\":12246:12484   */\n      pop\n        /* \"#utility.yul\":12203:12484   */\n      pop\n      pop\n      jump\t// out\n        /* \"#utility.yul\":12490:12723   */\n    tag_65:\n        /* \"#utility.yul\":12529:12532   */\n      0x00\n        /* \"#utility.yul\":12552:12576   */\n      tag_302\n        /* \"#utility.yul\":12570:12575   */\n      dup3\n        /* \"#utility.yul\":12552:12576   */\n      tag_236\n      jump\t// in\n    tag_302:\n        /* \"#utility.yul\":12543:12576   */\n      swap2\n      pop\n        /* \"#utility.yul\":12598:12664   */\n      0xffffffffffffffffffffffffffffffffffffffffffffffffffffffffffffffff\n        /* \"#utility.yul\":12591:12596   */\n      dup3\n        /* \"#utility.yul\":12588:12665   */\n      eq\n        /* \"#utility.yul\":12585:12688   */\n      iszero\n      tag_303\n      jumpi\n        /* \"#utility.yul\":12668:12686   */\n      tag_304\n      tag_276\n      jump\t// in\n    tag_304:\n        /* \"#utility.yul\":12585:12688   */\n    tag_303:\n        /* \"#utility.yul\":12715:12716   */\n      0x01\n        /* \"#utility.yul\":12708:12713   */\n      dup3\n        /* \"#utility.yul\":12704:12717   */\n      add\n        /* \"#utility.yul\":12697:12717   */\n      swap1\n      pop\n        /* \"#utility.yul\":12490:12723   */\n      swap2\n      swap1\n      pop\n      jump\t// out\n        /* \"#utility.yul\":12729:12909   */\n    tag_276:\n        /* \"#utility.yul\":12777:12854   */\n      0x4e487b7100000000000000000000000000000000000000000000000000000000\n        /* \"#utility.yul\":12774:12775   */\n      0x00\n        /* \"#utility.yul\":12767:12855   */\n      mstore\n        /* \"#utility.yul\":12874:12878   */\n      0x11\n        /* \"#utility.yul\":12871:12872   */\n      0x04\n        /* \"#utility.yul\":12864:12879   */\n      mstore\n        /* \"#utility.yul\":12898:12902   */\n      0x24\n        /* \"#utility.yul\":12895:12896   */\n      0x00\n        /* \"#utility.yul\":12888:12903   */\n      revert\n        /* \"#utility.yul\":12915:13095   */\n    tag_296:\n        /* \"#utility.yul\":12963:13040   */\n      0x4e487b7100000000000000000000000000000000000000000000000000000000\n        /* \"#utility.yul\":12960:12961   */\n      0x00\n        /* \"#utility.yul\":12953:13041   */\n      mstore\n        /* \"#utility.yul\":13060:13064   */\n      0x22\n        /* \"#utility.yul\":13057:13058   */\n      0x04\n        /* \"#utility.yul\":13050:13065   */\n      mstore\n        /* \"#utility.yul\":13084:13088   */\n      0x24\n        /* \"#utility.yul\":13081:13082   */\n      0x00\n        /* \"#utility.yul\":13074:13089   */\n      revert\n        /* \"#utility.yul\":13101:13281   */\n    tag_266:\n        /* \"#utility.yul\":13149:13226   */\n      0x4e487b7100000000000000000000000000000000000000000000000000000000\n        /* \"#utility.yul\":13146:13147   */\n      0x00\n        /* \"#utility.yul\":13139:13227   */\n      mstore\n        /* \"#utility.yul\":13246:13250   */\n      0x41\n        /* \"#utility.yul\":13243:13244   */\n      0x04\n        /* \"#utility.yul\":13236:13251   */\n      mstore\n        /* \"#utility.yul\":13270:13274   */\n      0x24\n        /* \"#utility.yul\":13267:13268   */\n      0x00\n        /* \"#utility.yul\":13260:13275   */\n      revert\n        /* \"#utility.yul\":13287:13404   */\n    tag_153:\n        /* \"#utility.yul\":13396:13397   */\n      0x00\n        /* \"#utility.yul\":13393:13394   */\n      dup1\n        /* \"#utility.yul\":13386:13398   */\n      revert\n        /* \"#utility.yul\":13410:13527   */\n    tag_150:\n        /* \"#utility.yul\":13519:13520   */\n      0x00\n        /* \"#utility.yul\":13516:13517   */\n      dup1\n        /* \"#utility.yul\":13509:13521   */\n      revert\n        /* \"#utility.yul\":13533:13650   */\n    tag_156:\n        /* \"#utility.yul\":13642:13643   */\n      0x00\n        /* \"#utility.yul\":13639:13640   */\n      dup1\n        /* \"#utility.yul\":13632:13644   */\n      revert\n        /* \"#utility.yul\":13656:13773   */\n    tag_139:\n        /* \"#utility.yul\":13765:13766   */\n      0x00\n        /* \"#utility.yul\":13762:13763   */\n      dup1\n        /* \"#utility.yul\":13755:13767   */\n      revert\n        /* \"#utility.yul\":13779:13896   */\n    tag_176:\n        /* \"#utility.yul\":13888:13889   */\n      0x00\n        /* \"#utility.yul\":13885:13886   */\n      dup1\n        /* \"#utility.yul\":13878:13890   */\n      revert\n        /* \"#utility.yul\":13902:14019   */\n    tag_169:\n        /* \"#utility.yul\":14011:14012   */\n      0x00\n        /* \"#utility.yul\":14008:14009   */\n      dup1\n        /* \"#utility.yul\":14001:14013   */\n      revert\n        /* \"#utility.yul\":14025:14127   */\n    tag_199:\n        /* \"#utility.yul\":14066:14072   */\n      0x00\n        /* \"#utility.yul\":14117:14119   */\n      0x1f\n        /* \"#utility.yul\":14113:14120   */\n      not\n        /* \"#utility.yul\":14108:14110   */\n      0x1f\n        /* \"#utility.yul\":14101:14106   */\n      dup4\n        /* \"#utility.yul\":14097:14111   */\n      add\n        /* \"#utility.yul\":14093:14121   */\n      and\n        /* \"#utility.yul\":14083:14121   */\n      swap1\n      pop\n        /* \"#utility.yul\":14025:14127   */\n      swap2\n      swap1\n      pop\n      jump\t// out\n        /* \"#utility.yul\":14133:14358   */\n    tag_217:\n        /* \"#utility.yul\":14273:14307   */\n      0x4f776e61626c653a206e6577206f776e657220697320746865207a65726f2061\n        /* \"#utility.yul\":14269:14270   */\n      0x00\n        /* \"#utility.yul\":14261:14267   */\n      dup3\n        /* \"#utility.yul\":14257:14271   */\n      add\n        /* \"#utility.yul\":14250:14308   */\n      mstore\n        /* \"#utility.yul\":14342:14350   */\n      0x6464726573730000000000000000000000000000000000000000000000000000\n        /* \"#utility.yul\":14337:14339   */\n      0x20\n        /* \"#utility.yul\":14329:14335   */\n      dup3\n        /* \"#utility.yul\":14325:14340   */\n      add\n        /* \"#utility.yul\":14318:14351   */\n      mstore\n        /* \"#utility.yul\":14133:14358   */\n      pop\n      jump\t// out\n        /* \"#utility.yul\":14364:14526   */\n    tag_222:\n        /* \"#utility.yul\":14504:14518   */\n      0x6e6f7420626f72726f776e670000000000000000000000000000000000000000\n        /* \"#utility.yul\":14500:14501   */\n      0x00\n        /* \"#utility.yul\":14492:14498   */\n      dup3\n        /* \"#utility.yul\":14488:14502   */\n      add\n        /* \"#utility.yul\":14481:14519   */\n      mstore\n        /* \"#utility.yul\":14364:14526   */\n      pop\n      jump\t// out\n        /* \"#utility.yul\":14532:14714   */\n    tag_227:\n        /* \"#utility.yul\":14672:14706   */\n      0x4f776e61626c653a2063616c6c6572206973206e6f7420746865206f776e6572\n        /* \"#utility.yul\":14668:14669   */\n      0x00\n        /* \"#utility.yul\":14660:14666   */\n      dup3\n        /* \"#utility.yul\":14656:14670   */\n      add\n        /* \"#utility.yul\":14649:14707   */\n      mstore\n        /* \"#utility.yul\":14532:14714   */\n      pop\n      jump\t// out\n        /* \"#utility.yul\":14720:14885   */\n    tag_232:\n        /* \"#utility.yul\":14860:14877   */\n      0x7a65726f20626f6f6b73206c6566740000000000000000000000000000000000\n        /* \"#utility.yul\":14856:14857   */\n      0x00\n        /* \"#utility.yul\":14848:14854   */\n      dup3\n        /* \"#utility.yul\":14844:14858   */\n      add\n        /* \"#utility.yul\":14837:14878   */\n      mstore\n        /* \"#utility.yul\":14720:14885   */\n      pop\n      jump\t// out\n        /* \"#utility.yul\":14891:15013   */\n    tag_145:\n        /* \"#utility.yul\":14964:14988   */\n      tag_320\n        /* \"#utility.yul\":14982:14987   */\n      dup2\n        /* \"#utility.yul\":14964:14988   */\n      tag_192\n      jump\t// in\n    tag_320:\n        /* \"#utility.yul\":14957:14962   */\n      dup2\n        /* \"#utility.yul\":14954:14989   */\n      eq\n        /* \"#utility.yul\":14944:15007   */\n      tag_321\n      jumpi\n        /* \"#utility.yul\":15003:15004   */\n      0x00\n        /* \"#utility.yul\":15000:15001   */\n      dup1\n        /* \"#utility.yul\":14993:15005   */\n      revert\n        /* \"#utility.yul\":14944:15007   */\n    tag_321:\n        /* \"#utility.yul\":14891:15013   */\n      pop\n      jump\t// out\n        /* \"#utility.yul\":15019:15141   */\n    tag_165:\n        /* \"#utility.yul\":15092:15116   */\n      tag_323\n        /* \"#utility.yul\":15110:15115   */\n      dup2\n        /* \"#utility.yul\":15092:15116   */\n      tag_236\n      jump\t// in\n    tag_323:\n        /* \"#utility.yul\":15085:15090   */\n      dup2\n        /* \"#utility.yul\":15082:15117   */\n      eq\n        /* \"#utility.yul\":15072:15135   */\n      tag_324\n      jumpi\n        /* \"#utility.yul\":15131:15132   */\n      0x00\n        /* \"#utility.yul\":15128:15129   */\n      dup1\n        /* \"#utility.yul\":15121:15133   */\n      revert\n        /* \"#utility.yul\":15072:15135   */\n    tag_324:\n        /* \"#utility.yul\":15019:15141   */\n      pop\n      jump\t// out\n\n    auxdata: 0xa2646970667358221220cfb27a7868b41c7c8815478000695e641c51853fb50c02160de3433fd866b89464736f6c63430008070033\n}\n",
				"bytecode": {
					"linkReferences": {},
					"object": "608060405234801561001057600080fd5b5061002d61002261003260201b60201c565b61003a60201b60201c565b6100fe565b600033905090565b60008060009054906101000a900473ffffffffffffffffffffffffffffffffffffffff169050816000806101000a81548173ffffffffffffffffffffffffffffffffffffffff021916908373ffffffffffffffffffffffffffffffffffffffff1602179055508173ffffffffffffffffffffffffffffffffffffffff168173ffffffffffffffffffffffffffffffffffffffff167f8be0079c531659141344cd1fd0a4f28419497f9722a3daafe3b4186f6b6457e060405160405180910390a35050565b6112c88061010d6000396000f3fe6080604052600436106100915760003560e01c8063715018a611610059578063715018a61461017c5780637e490a9e146101935780638da5cb5b146101af578063901dec82146101da578063f2fde38b1461021757610091565b806306661abd1461009657806310319fcc146100c15780632427e59e146100d8578063637a387214610115578063687440461461013e575b600080fd5b3480156100a257600080fd5b506100ab610240565b6040516100b89190610e9c565b60405180910390f35b3480156100cd57600080fd5b506100d6610246565b005b3480156100e457600080fd5b506100ff60048036038101906100fa9190610bdb565b61033f565b60405161010c9190610e9c565b60405180910390f35b34801561012157600080fd5b5061013c60048036038101906101379190610b7b565b61036d565b005b34801561014a57600080fd5b5061016560048036038101906101609190610c24565b610540565b604051610173929190610dec565b60405180910390f35b34801561018857600080fd5b506101916105ec565b005b6101ad60048036038101906101a89190610c24565b610600565b005b3480156101bb57600080fd5b506101c46107ac565b6040516101d19190610d9f565b60405180910390f35b3480156101e657600080fd5b5061020160048036038101906101fc9190610b4e565b6107d5565b60405161020e9190610e9c565b60405180910390f35b34801561022357600080fd5b5061023e60048036038101906102399190610b4e565b6107ed565b005b60015481565b6000600260003373ffffffffffffffffffffffffffffffffffffffff1673ffffffffffffffffffffffffffffffffffffffff168152602001908152602001600020549050600081116102cd576040517f08c379a00000000000000000000000000000000000000000000000000000000081526004016102c490610e3c565b60405180910390fd5b6000600260003373ffffffffffffffffffffffffffffffffffffffff1673ffffffffffffffffffffffffffffffffffffffff16815260200190815260200160002081905550600460008281526020019081526020016000206001016000815461033590611095565b9190508190555050565b6003818051602081018201805184825260208301602085012081835280955050505050506000915090505481565b610375610871565b600060038484604051610389929190610d86565b9081526020016040518091039020541461042a578060046000600386866040516103b4929190610d86565b908152602001604051809103902054815260200190815260200160002060010160008282546103e39190610f34565b925050819055507f1c59ae2fc2d4d8fd587dd73c1193e81642fde8135d41b10c3325d3d1985f05ab83838360405161041d93929190610dba565b60405180910390a161053b565b60016000815461043990611095565b91905081905550604051806040016040528084848080601f016020809104026020016040519081016040528093929190818152602001838380828437600081840152601f19601f8201169050808301925050505050505081526020018281525060046000600154815260200190815260200160002060008201518160000190805190602001906104ca9291906109bb565b5060208201518160010155905050600154600384846040516104ed929190610d86565b9081526020016040518091039020819055507f5e5c09fb592e65b4897c25cb4a0597b46a9df6a8a9c1ace81148602e3166dfd483838360405161053293929190610dba565b60405180910390a15b505050565b600460205280600052604060002060009150905080600001805461056390611032565b80601f016020809104026020016040519081016040528092919081815260200182805461058f90611032565b80156105dc5780601f106105b1576101008083540402835291602001916105dc565b820191906000526020600020905b8154815290600101906020018083116105bf57829003601f168201915b5050505050908060010154905082565b6105f4610871565b6105fe60006108ef565b565b6000600260003373ffffffffffffffffffffffffffffffffffffffff1673ffffffffffffffffffffffffffffffffffffffff16815260200190815260200160002054111561068557336040517faf162d1b00000000000000000000000000000000000000000000000000000000815260040161067c9190610d9f565b60405180910390fd5b600060046000838152602001908152602001600020905060008160010154116106e3576040517f08c379a00000000000000000000000000000000000000000000000000000000081526004016106da90610e7c565b60405180910390fd5b80600101600081546106f490611008565b9190508190555081600260003373ffffffffffffffffffffffffffffffffffffffff1673ffffffffffffffffffffffffffffffffffffffff1681526020019081526020016000208190555060016005600084815260200190815260200160002060003373ffffffffffffffffffffffffffffffffffffffff1673ffffffffffffffffffffffffffffffffffffffff16815260200190815260200160002060006101000a81548160ff0219169083151502179055505050565b60008060009054906101000a900473ffffffffffffffffffffffffffffffffffffffff16905090565b60026020528060005260406000206000915090505481565b6107f5610871565b600073ffffffffffffffffffffffffffffffffffffffff168173ffffffffffffffffffffffffffffffffffffffff161415610865576040517f08c379a000000000000000000000000000000000000000000000000000000000815260040161085c90610e1c565b60405180910390fd5b61086e816108ef565b50565b6108796109b3565b73ffffffffffffffffffffffffffffffffffffffff166108976107ac565b73ffffffffffffffffffffffffffffffffffffffff16146108ed576040517f08c379a00000000000000000000000000000000000000000000000000000000081526004016108e490610e5c565b60405180910390fd5b565b60008060009054906101000a900473ffffffffffffffffffffffffffffffffffffffff169050816000806101000a81548173ffffffffffffffffffffffffffffffffffffffff021916908373ffffffffffffffffffffffffffffffffffffffff1602179055508173ffffffffffffffffffffffffffffffffffffffff168173ffffffffffffffffffffffffffffffffffffffff167f8be0079c531659141344cd1fd0a4f28419497f9722a3daafe3b4186f6b6457e060405160405180910390a35050565b600033905090565b8280546109c790611032565b90600052602060002090601f0160209004810192826109e95760008555610a30565b82601f10610a0257805160ff1916838001178555610a30565b82800160010185558215610a30579182015b82811115610a2f578251825591602001919060010190610a14565b5b509050610a3d9190610a41565b5090565b5b80821115610a5a576000816000905550600101610a42565b5090565b6000610a71610a6c84610edc565b610eb7565b905082815260208101848484011115610a8d57610a8c61117a565b5b610a98848285610fc6565b509392505050565b600081359050610aaf81611264565b92915050565b60008083601f840112610acb57610aca611170565b5b8235905067ffffffffffffffff811115610ae857610ae761116b565b5b602083019150836001820283011115610b0457610b03611175565b5b9250929050565b600082601f830112610b2057610b1f611170565b5b8135610b30848260208601610a5e565b91505092915050565b600081359050610b488161127b565b92915050565b600060208284031215610b6457610b63611184565b5b6000610b7284828501610aa0565b91505092915050565b600080600060408486031215610b9457610b93611184565b5b600084013567ffffffffffffffff811115610bb257610bb161117f565b5b610bbe86828701610ab5565b93509350506020610bd186828701610b39565b9150509250925092565b600060208284031215610bf157610bf0611184565b5b600082013567ffffffffffffffff811115610c0f57610c0e61117f565b5b610c1b84828501610b0b565b91505092915050565b600060208284031215610c3a57610c39611184565b5b6000610c4884828501610b39565b91505092915050565b610c5a81610f8a565b82525050565b6000610c6c8385610f18565b9350610c79838584610fc6565b610c8283611189565b840190509392505050565b6000610c998385610f29565b9350610ca6838584610fc6565b82840190509392505050565b6000610cbd82610f0d565b610cc78185610f18565b9350610cd7818560208601610fd5565b610ce081611189565b840191505092915050565b6000610cf8602683610f18565b9150610d038261119a565b604082019050919050565b6000610d1b600c83610f18565b9150610d26826111e9565b602082019050919050565b6000610d3e602083610f18565b9150610d4982611212565b602082019050919050565b6000610d61600f83610f18565b9150610d6c8261123b565b602082019050919050565b610d8081610fbc565b82525050565b6000610d93828486610c8d565b91508190509392505050565b6000602082019050610db46000830184610c51565b92915050565b60006040820190508181036000830152610dd5818587610c60565b9050610de46020830184610d77565b949350505050565b60006040820190508181036000830152610e068185610cb2565b9050610e156020830184610d77565b9392505050565b60006020820190508181036000830152610e3581610ceb565b9050919050565b60006020820190508181036000830152610e5581610d0e565b9050919050565b60006020820190508181036000830152610e7581610d31565b9050919050565b60006020820190508181036000830152610e9581610d54565b9050919050565b6000602082019050610eb16000830184610d77565b92915050565b6000610ec1610ed2565b9050610ecd8282611064565b919050565b6000604051905090565b600067ffffffffffffffff821115610ef757610ef661113c565b5b610f0082611189565b9050602081019050919050565b600081519050919050565b600082825260208201905092915050565b600081905092915050565b6000610f3f82610fbc565b9150610f4a83610fbc565b9250827fffffffffffffffffffffffffffffffffffffffffffffffffffffffffffffffff03821115610f7f57610f7e6110de565b5b828201905092915050565b6000610f9582610f9c565b9050919050565b600073ffffffffffffffffffffffffffffffffffffffff82169050919050565b6000819050919050565b82818337600083830152505050565b60005b83811015610ff3578082015181840152602081019050610fd8565b83811115611002576000848401525b50505050565b600061101382610fbc565b91506000821415611027576110266110de565b5b600182039050919050565b6000600282049050600182168061104a57607f821691505b6020821081141561105e5761105d61110d565b5b50919050565b61106d82611189565b810181811067ffffffffffffffff8211171561108c5761108b61113c565b5b80604052505050565b60006110a082610fbc565b91507fffffffffffffffffffffffffffffffffffffffffffffffffffffffffffffffff8214156110d3576110d26110de565b5b600182019050919050565b7f4e487b7100000000000000000000000000000000000000000000000000000000600052601160045260246000fd5b7f4e487b7100000000000000000000000000000000000000000000000000000000600052602260045260246000fd5b7f4e487b7100000000000000000000000000000000000000000000000000000000600052604160045260246000fd5b600080fd5b600080fd5b600080fd5b600080fd5b600080fd5b600080fd5b6000601f19601f8301169050919050565b7f4f776e61626c653a206e6577206f776e657220697320746865207a65726f206160008201527f6464726573730000000000000000000000000000000000000000000000000000602082015250565b7f6e6f7420626f72726f776e670000000000000000000000000000000000000000600082015250565b7f4f776e61626c653a2063616c6c6572206973206e6f7420746865206f776e6572600082015250565b7f7a65726f20626f6f6b73206c6566740000000000000000000000000000000000600082015250565b61126d81610f8a565b811461127857600080fd5b50565b61128481610fbc565b811461128f57600080fd5b5056fea2646970667358221220cfb27a7868b41c7c8815478000695e641c51853fb50c02160de3433fd866b89464736f6c63430008070033",
					"opcodes": "PUSH1 0x80 PUSH1 0x40 MSTORE CALLVALUE DUP1 ISZERO PUSH2 0x10 JUMPI PUSH1 0x0 DUP1 REVERT JUMPDEST POP PUSH2 0x2D PUSH2 0x22 PUSH2 0x32 PUSH1 0x20 SHL PUSH1 0x20 SHR JUMP JUMPDEST PUSH2 0x3A PUSH1 0x20 SHL PUSH1 0x20 SHR JUMP JUMPDEST PUSH2 0xFE JUMP JUMPDEST PUSH1 0x0 CALLER SWAP1 POP SWAP1 JUMP JUMPDEST PUSH1 0x0 DUP1 PUSH1 0x0 SWAP1 SLOAD SWAP1 PUSH2 0x100 EXP SWAP1 DIV PUSH20 0xFFFFFFFFFFFFFFFFFFFFFFFFFFFFFFFFFFFFFFFF AND SWAP1 POP DUP2 PUSH1 0x0 DUP1 PUSH2 0x100 EXP DUP2 SLOAD DUP2 PUSH20 0xFFFFFFFFFFFFFFFFFFFFFFFFFFFFFFFFFFFFFFFF MUL NOT AND SWAP1 DUP4 PUSH20 0xFFFFFFFFFFFFFFFFFFFFFFFFFFFFFFFFFFFFFFFF AND MUL OR SWAP1 SSTORE POP DUP2 PUSH20 0xFFFFFFFFFFFFFFFFFFFFFFFFFFFFFFFFFFFFFFFF AND DUP2 PUSH20 0xFFFFFFFFFFFFFFFFFFFFFFFFFFFFFFFFFFFFFFFF AND PUSH32 0x8BE0079C531659141344CD1FD0A4F28419497F9722A3DAAFE3B4186F6B6457E0 PUSH1 0x40 MLOAD PUSH1 0x40 MLOAD DUP1 SWAP2 SUB SWAP1 LOG3 POP POP JUMP JUMPDEST PUSH2 0x12C8 DUP1 PUSH2 0x10D PUSH1 0x0 CODECOPY PUSH1 0x0 RETURN INVALID PUSH1 0x80 PUSH1 0x40 MSTORE PUSH1 0x4 CALLDATASIZE LT PUSH2 0x91 JUMPI PUSH1 0x0 CALLDATALOAD PUSH1 0xE0 SHR DUP1 PUSH4 0x715018A6 GT PUSH2 0x59 JUMPI DUP1 PUSH4 0x715018A6 EQ PUSH2 0x17C JUMPI DUP1 PUSH4 0x7E490A9E EQ PUSH2 0x193 JUMPI DUP1 PUSH4 0x8DA5CB5B EQ PUSH2 0x1AF JUMPI DUP1 PUSH4 0x901DEC82 EQ PUSH2 0x1DA JUMPI DUP1 PUSH4 0xF2FDE38B EQ PUSH2 0x217 JUMPI PUSH2 0x91 JUMP JUMPDEST DUP1 PUSH4 0x6661ABD EQ PUSH2 0x96 JUMPI DUP1 PUSH4 0x10319FCC EQ PUSH2 0xC1 JUMPI DUP1 PUSH4 0x2427E59E EQ PUSH2 0xD8 JUMPI DUP1 PUSH4 0x637A3872 EQ PUSH2 0x115 JUMPI DUP1 PUSH4 0x68744046 EQ PUSH2 0x13E JUMPI JUMPDEST PUSH1 0x0 DUP1 REVERT JUMPDEST CALLVALUE DUP1 ISZERO PUSH2 0xA2 JUMPI PUSH1 0x0 DUP1 REVERT JUMPDEST POP PUSH2 0xAB PUSH2 0x240 JUMP JUMPDEST PUSH1 0x40 MLOAD PUSH2 0xB8 SWAP2 SWAP1 PUSH2 0xE9C JUMP JUMPDEST PUSH1 0x40 MLOAD DUP1 SWAP2 SUB SWAP1 RETURN JUMPDEST CALLVALUE DUP1 ISZERO PUSH2 0xCD JUMPI PUSH1 0x0 DUP1 REVERT JUMPDEST POP PUSH2 0xD6 PUSH2 0x246 JUMP JUMPDEST STOP JUMPDEST CALLVALUE DUP1 ISZERO PUSH2 0xE4 JUMPI PUSH1 0x0 DUP1 REVERT JUMPDEST POP PUSH2 0xFF PUSH1 0x4 DUP1 CALLDATASIZE SUB DUP2 ADD SWAP1 PUSH2 0xFA SWAP2 SWAP1 PUSH2 0xBDB JUMP JUMPDEST PUSH2 0x33F JUMP JUMPDEST PUSH1 0x40 MLOAD PUSH2 0x10C SWAP2 SWAP1 PUSH2 0xE9C JUMP JUMPDEST PUSH1 0x40 MLOAD DUP1 SWAP2 SUB SWAP1 RETURN JUMPDEST CALLVALUE DUP1 ISZERO PUSH2 0x121 JUMPI PUSH1 0x0 DUP1 REVERT JUMPDEST POP PUSH2 0x13C PUSH1 0x4 DUP1 CALLDATASIZE SUB DUP2 ADD SWAP1 PUSH2 0x137 SWAP2 SWAP1 PUSH2 0xB7B JUMP JUMPDEST PUSH2 0x36D JUMP JUMPDEST STOP JUMPDEST CALLVALUE DUP1 ISZERO PUSH2 0x14A JUMPI PUSH1 0x0 DUP1 REVERT JUMPDEST POP PUSH2 0x165 PUSH1 0x4 DUP1 CALLDATASIZE SUB DUP2 ADD SWAP1 PUSH2 0x160 SWAP2 SWAP1 PUSH2 0xC24 JUMP JUMPDEST PUSH2 0x540 JUMP JUMPDEST PUSH1 0x40 MLOAD PUSH2 0x173 SWAP3 SWAP2 SWAP1 PUSH2 0xDEC JUMP JUMPDEST PUSH1 0x40 MLOAD DUP1 SWAP2 SUB SWAP1 RETURN JUMPDEST CALLVALUE DUP1 ISZERO PUSH2 0x188 JUMPI PUSH1 0x0 DUP1 REVERT JUMPDEST POP PUSH2 0x191 PUSH2 0x5EC JUMP JUMPDEST STOP JUMPDEST PUSH2 0x1AD PUSH1 0x4 DUP1 CALLDATASIZE SUB DUP2 ADD SWAP1 PUSH2 0x1A8 SWAP2 SWAP1 PUSH2 0xC24 JUMP JUMPDEST PUSH2 0x600 JUMP JUMPDEST STOP JUMPDEST CALLVALUE DUP1 ISZERO PUSH2 0x1BB JUMPI PUSH1 0x0 DUP1 REVERT JUMPDEST POP PUSH2 0x1C4 PUSH2 0x7AC JUMP JUMPDEST PUSH1 0x40 MLOAD PUSH2 0x1D1 SWAP2 SWAP1 PUSH2 0xD9F JUMP JUMPDEST PUSH1 0x40 MLOAD DUP1 SWAP2 SUB SWAP1 RETURN JUMPDEST CALLVALUE DUP1 ISZERO PUSH2 0x1E6 JUMPI PUSH1 0x0 DUP1 REVERT JUMPDEST POP PUSH2 0x201 PUSH1 0x4 DUP1 CALLDATASIZE SUB DUP2 ADD SWAP1 PUSH2 0x1FC SWAP2 SWAP1 PUSH2 0xB4E JUMP JUMPDEST PUSH2 0x7D5 JUMP JUMPDEST PUSH1 0x40 MLOAD PUSH2 0x20E SWAP2 SWAP1 PUSH2 0xE9C JUMP JUMPDEST PUSH1 0x40 MLOAD DUP1 SWAP2 SUB SWAP1 RETURN JUMPDEST CALLVALUE DUP1 ISZERO PUSH2 0x223 JUMPI PUSH1 0x0 DUP1 REVERT JUMPDEST POP PUSH2 0x23E PUSH1 0x4 DUP1 CALLDATASIZE SUB DUP2 ADD SWAP1 PUSH2 0x239 SWAP2 SWAP1 PUSH2 0xB4E JUMP JUMPDEST PUSH2 0x7ED JUMP JUMPDEST STOP JUMPDEST PUSH1 0x1 SLOAD DUP2 JUMP JUMPDEST PUSH1 0x0 PUSH1 0x2 PUSH1 0x0 CALLER PUSH20 0xFFFFFFFFFFFFFFFFFFFFFFFFFFFFFFFFFFFFFFFF AND PUSH20 0xFFFFFFFFFFFFFFFFFFFFFFFFFFFFFFFFFFFFFFFF AND DUP2 MSTORE PUSH1 0x20 ADD SWAP1 DUP2 MSTORE PUSH1 0x20 ADD PUSH1 0x0 KECCAK256 SLOAD SWAP1 POP PUSH1 0x0 DUP2 GT PUSH2 0x2CD JUMPI PUSH1 0x40 MLOAD PUSH32 0x8C379A000000000000000000000000000000000000000000000000000000000 DUP2 MSTORE PUSH1 0x4 ADD PUSH2 0x2C4 SWAP1 PUSH2 0xE3C JUMP JUMPDEST PUSH1 0x40 MLOAD DUP1 SWAP2 SUB SWAP1 REVERT JUMPDEST PUSH1 0x0 PUSH1 0x2 PUSH1 0x0 CALLER PUSH20 0xFFFFFFFFFFFFFFFFFFFFFFFFFFFFFFFFFFFFFFFF AND PUSH20 0xFFFFFFFFFFFFFFFFFFFFFFFFFFFFFFFFFFFFFFFF AND DUP2 MSTORE PUSH1 0x20 ADD SWAP1 DUP2 MSTORE PUSH1 0x20 ADD PUSH1 0x0 KECCAK256 DUP2 SWAP1 SSTORE POP PUSH1 0x4 PUSH1 0x0 DUP3 DUP2 MSTORE PUSH1 0x20 ADD SWAP1 DUP2 MSTORE PUSH1 0x20 ADD PUSH1 0x0 KECCAK256 PUSH1 0x1 ADD PUSH1 0x0 DUP2 SLOAD PUSH2 0x335 SWAP1 PUSH2 0x1095 JUMP JUMPDEST SWAP2 SWAP1 POP DUP2 SWAP1 SSTORE POP POP JUMP JUMPDEST PUSH1 0x3 DUP2 DUP1 MLOAD PUSH1 0x20 DUP2 ADD DUP3 ADD DUP1 MLOAD DUP5 DUP3 MSTORE PUSH1 0x20 DUP4 ADD PUSH1 0x20 DUP6 ADD KECCAK256 DUP2 DUP4 MSTORE DUP1 SWAP6 POP POP POP POP POP POP PUSH1 0x0 SWAP2 POP SWAP1 POP SLOAD DUP2 JUMP JUMPDEST PUSH2 0x375 PUSH2 0x871 JUMP JUMPDEST PUSH1 0x0 PUSH1 0x3 DUP5 DUP5 PUSH1 0x40 MLOAD PUSH2 0x389 SWAP3 SWAP2 SWAP1 PUSH2 0xD86 JUMP JUMPDEST SWAP1 DUP2 MSTORE PUSH1 0x20 ADD PUSH1 0x40 MLOAD DUP1 SWAP2 SUB SWAP1 KECCAK256 SLOAD EQ PUSH2 0x42A JUMPI DUP1 PUSH1 0x4 PUSH1 0x0 PUSH1 0x3 DUP7 DUP7 PUSH1 0x40 MLOAD PUSH2 0x3B4 SWAP3 SWAP2 SWAP1 PUSH2 0xD86 JUMP JUMPDEST SWAP1 DUP2 MSTORE PUSH1 0x20 ADD PUSH1 0x40 MLOAD DUP1 SWAP2 SUB SWAP1 KECCAK256 SLOAD DUP2 MSTORE PUSH1 0x20 ADD SWAP1 DUP2 MSTORE PUSH1 0x20 ADD PUSH1 0x0 KECCAK256 PUSH1 0x1 ADD PUSH1 0x0 DUP3 DUP3 SLOAD PUSH2 0x3E3 SWAP2 SWAP1 PUSH2 0xF34 JUMP JUMPDEST SWAP3 POP POP DUP2 SWAP1 SSTORE POP PUSH32 0x1C59AE2FC2D4D8FD587DD73C1193E81642FDE8135D41B10C3325D3D1985F05AB DUP4 DUP4 DUP4 PUSH1 0x40 MLOAD PUSH2 0x41D SWAP4 SWAP3 SWAP2 SWAP1 PUSH2 0xDBA JUMP JUMPDEST PUSH1 0x40 MLOAD DUP1 SWAP2 SUB SWAP1 LOG1 PUSH2 0x53B JUMP JUMPDEST PUSH1 0x1 PUSH1 0x0 DUP2 SLOAD PUSH2 0x439 SWAP1 PUSH2 0x1095 JUMP JUMPDEST SWAP2 SWAP1 POP DUP2 SWAP1 SSTORE POP PUSH1 0x40 MLOAD DUP1 PUSH1 0x40 ADD PUSH1 0x40 MSTORE DUP1 DUP5 DUP5 DUP1 DUP1 PUSH1 0x1F ADD PUSH1 0x20 DUP1 SWAP2 DIV MUL PUSH1 0x20 ADD PUSH1 0x40 MLOAD SWAP1 DUP2 ADD PUSH1 0x40 MSTORE DUP1 SWAP4 SWAP3 SWAP2 SWAP1 DUP2 DUP2 MSTORE PUSH1 0x20 ADD DUP4 DUP4 DUP1 DUP3 DUP5 CALLDATACOPY PUSH1 0x0 DUP2 DUP5 ADD MSTORE PUSH1 0x1F NOT PUSH1 0x1F DUP3 ADD AND SWAP1 POP DUP1 DUP4 ADD SWAP3 POP POP POP POP POP POP POP DUP2 MSTORE PUSH1 0x20 ADD DUP3 DUP2 MSTORE POP PUSH1 0x4 PUSH1 0x0 PUSH1 0x1 SLOAD DUP2 MSTORE PUSH1 0x20 ADD SWAP1 DUP2 MSTORE PUSH1 0x20 ADD PUSH1 0x0 KECCAK256 PUSH1 0x0 DUP3 ADD MLOAD DUP2 PUSH1 0x0 ADD SWAP1 DUP1 MLOAD SWAP1 PUSH1 0x20 ADD SWAP1 PUSH2 0x4CA SWAP3 SWAP2 SWAP1 PUSH2 0x9BB JUMP JUMPDEST POP PUSH1 0x20 DUP3 ADD MLOAD DUP2 PUSH1 0x1 ADD SSTORE SWAP1 POP POP PUSH1 0x1 SLOAD PUSH1 0x3 DUP5 DUP5 PUSH1 0x40 MLOAD PUSH2 0x4ED SWAP3 SWAP2 SWAP1 PUSH2 0xD86 JUMP JUMPDEST SWAP1 DUP2 MSTORE PUSH1 0x20 ADD PUSH1 0x40 MLOAD DUP1 SWAP2 SUB SWAP1 KECCAK256 DUP2 SWAP1 SSTORE POP PUSH32 0x5E5C09FB592E65B4897C25CB4A0597B46A9DF6A8A9C1ACE81148602E3166DFD4 DUP4 DUP4 DUP4 PUSH1 0x40 MLOAD PUSH2 0x532 SWAP4 SWAP3 SWAP2 SWAP1 PUSH2 0xDBA JUMP JUMPDEST PUSH1 0x40 MLOAD DUP1 SWAP2 SUB SWAP1 LOG1 JUMPDEST POP POP POP JUMP JUMPDEST PUSH1 0x4 PUSH1 0x20 MSTORE DUP1 PUSH1 0x0 MSTORE PUSH1 0x40 PUSH1 0x0 KECCAK256 PUSH1 0x0 SWAP2 POP SWAP1 POP DUP1 PUSH1 0x0 ADD DUP1 SLOAD PUSH2 0x563 SWAP1 PUSH2 0x1032 JUMP JUMPDEST DUP1 PUSH1 0x1F ADD PUSH1 0x20 DUP1 SWAP2 DIV MUL PUSH1 0x20 ADD PUSH1 0x40 MLOAD SWAP1 DUP2 ADD PUSH1 0x40 MSTORE DUP1 SWAP3 SWAP2 SWAP1 DUP2 DUP2 MSTORE PUSH1 0x20 ADD DUP3 DUP1 SLOAD PUSH2 0x58F SWAP1 PUSH2 0x1032 JUMP JUMPDEST DUP1 ISZERO PUSH2 0x5DC JUMPI DUP1 PUSH1 0x1F LT PUSH2 0x5B1 JUMPI PUSH2 0x100 DUP1 DUP4 SLOAD DIV MUL DUP4 MSTORE SWAP2 PUSH1 0x20 ADD SWAP2 PUSH2 0x5DC JUMP JUMPDEST DUP3 ADD SWAP2 SWAP1 PUSH1 0x0 MSTORE PUSH1 0x20 PUSH1 0x0 KECCAK256 SWAP1 JUMPDEST DUP2 SLOAD DUP2 MSTORE SWAP1 PUSH1 0x1 ADD SWAP1 PUSH1 0x20 ADD DUP1 DUP4 GT PUSH2 0x5BF JUMPI DUP3 SWAP1 SUB PUSH1 0x1F AND DUP3 ADD SWAP2 JUMPDEST POP POP POP POP POP SWAP1 DUP1 PUSH1 0x1 ADD SLOAD SWAP1 POP DUP3 JUMP JUMPDEST PUSH2 0x5F4 PUSH2 0x871 JUMP JUMPDEST PUSH2 0x5FE PUSH1 0x0 PUSH2 0x8EF JUMP JUMPDEST JUMP JUMPDEST PUSH1 0x0 PUSH1 0x2 PUSH1 0x0 CALLER PUSH20 0xFFFFFFFFFFFFFFFFFFFFFFFFFFFFFFFFFFFFFFFF AND PUSH20 0xFFFFFFFFFFFFFFFFFFFFFFFFFFFFFFFFFFFFFFFF AND DUP2 MSTORE PUSH1 0x20 ADD SWAP1 DUP2 MSTORE PUSH1 0x20 ADD PUSH1 0x0 KECCAK256 SLOAD GT ISZERO PUSH2 0x685 JUMPI CALLER PUSH1 0x40 MLOAD PUSH32 0xAF162D1B00000000000000000000000000000000000000000000000000000000 DUP2 MSTORE PUSH1 0x4 ADD PUSH2 0x67C SWAP2 SWAP1 PUSH2 0xD9F JUMP JUMPDEST PUSH1 0x40 MLOAD DUP1 SWAP2 SUB SWAP1 REVERT JUMPDEST PUSH1 0x0 PUSH1 0x4 PUSH1 0x0 DUP4 DUP2 MSTORE PUSH1 0x20 ADD SWAP1 DUP2 MSTORE PUSH1 0x20 ADD PUSH1 0x0 KECCAK256 SWAP1 POP PUSH1 0x0 DUP2 PUSH1 0x1 ADD SLOAD GT PUSH2 0x6E3 JUMPI PUSH1 0x40 MLOAD PUSH32 0x8C379A000000000000000000000000000000000000000000000000000000000 DUP2 MSTORE PUSH1 0x4 ADD PUSH2 0x6DA SWAP1 PUSH2 0xE7C JUMP JUMPDEST PUSH1 0x40 MLOAD DUP1 SWAP2 SUB SWAP1 REVERT JUMPDEST DUP1 PUSH1 0x1 ADD PUSH1 0x0 DUP2 SLOAD PUSH2 0x6F4 SWAP1 PUSH2 0x1008 JUMP JUMPDEST SWAP2 SWAP1 POP DUP2 SWAP1 SSTORE POP DUP2 PUSH1 0x2 PUSH1 0x0 CALLER PUSH20 0xFFFFFFFFFFFFFFFFFFFFFFFFFFFFFFFFFFFFFFFF AND PUSH20 0xFFFFFFFFFFFFFFFFFFFFFFFFFFFFFFFFFFFFFFFF AND DUP2 MSTORE PUSH1 0x20 ADD SWAP1 DUP2 MSTORE PUSH1 0x20 ADD PUSH1 0x0 KECCAK256 DUP2 SWAP1 SSTORE POP PUSH1 0x1 PUSH1 0x5 PUSH1 0x0 DUP5 DUP2 MSTORE PUSH1 0x20 ADD SWAP1 DUP2 MSTORE PUSH1 0x20 ADD PUSH1 0x0 KECCAK256 PUSH1 0x0 CALLER PUSH20 0xFFFFFFFFFFFFFFFFFFFFFFFFFFFFFFFFFFFFFFFF AND PUSH20 0xFFFFFFFFFFFFFFFFFFFFFFFFFFFFFFFFFFFFFFFF AND DUP2 MSTORE PUSH1 0x20 ADD SWAP1 DUP2 MSTORE PUSH1 0x20 ADD PUSH1 0x0 KECCAK256 PUSH1 0x0 PUSH2 0x100 EXP DUP2 SLOAD DUP2 PUSH1 0xFF MUL NOT AND SWAP1 DUP4 ISZERO ISZERO MUL OR SWAP1 SSTORE POP POP POP JUMP JUMPDEST PUSH1 0x0 DUP1 PUSH1 0x0 SWAP1 SLOAD SWAP1 PUSH2 0x100 EXP SWAP1 DIV PUSH20 0xFFFFFFFFFFFFFFFFFFFFFFFFFFFFFFFFFFFFFFFF AND SWAP1 POP SWAP1 JUMP JUMPDEST PUSH1 0x2 PUSH1 0x20 MSTORE DUP1 PUSH1 0x0 MSTORE PUSH1 0x40 PUSH1 0x0 KECCAK256 PUSH1 0x0 SWAP2 POP SWAP1 POP SLOAD DUP2 JUMP JUMPDEST PUSH2 0x7F5 PUSH2 0x871 JUMP JUMPDEST PUSH1 0x0 PUSH20 0xFFFFFFFFFFFFFFFFFFFFFFFFFFFFFFFFFFFFFFFF AND DUP2 PUSH20 0xFFFFFFFFFFFFFFFFFFFFFFFFFFFFFFFFFFFFFFFF AND EQ ISZERO PUSH2 0x865 JUMPI PUSH1 0x40 MLOAD PUSH32 0x8C379A000000000000000000000000000000000000000000000000000000000 DUP2 MSTORE PUSH1 0x4 ADD PUSH2 0x85C SWAP1 PUSH2 0xE1C JUMP JUMPDEST PUSH1 0x40 MLOAD DUP1 SWAP2 SUB SWAP1 REVERT JUMPDEST PUSH2 0x86E DUP2 PUSH2 0x8EF JUMP JUMPDEST POP JUMP JUMPDEST PUSH2 0x879 PUSH2 0x9B3 JUMP JUMPDEST PUSH20 0xFFFFFFFFFFFFFFFFFFFFFFFFFFFFFFFFFFFFFFFF AND PUSH2 0x897 PUSH2 0x7AC JUMP JUMPDEST PUSH20 0xFFFFFFFFFFFFFFFFFFFFFFFFFFFFFFFFFFFFFFFF AND EQ PUSH2 0x8ED JUMPI PUSH1 0x40 MLOAD PUSH32 0x8C379A000000000000000000000000000000000000000000000000000000000 DUP2 MSTORE PUSH1 0x4 ADD PUSH2 0x8E4 SWAP1 PUSH2 0xE5C JUMP JUMPDEST PUSH1 0x40 MLOAD DUP1 SWAP2 SUB SWAP1 REVERT JUMPDEST JUMP JUMPDEST PUSH1 0x0 DUP1 PUSH1 0x0 SWAP1 SLOAD SWAP1 PUSH2 0x100 EXP SWAP1 DIV PUSH20 0xFFFFFFFFFFFFFFFFFFFFFFFFFFFFFFFFFFFFFFFF AND SWAP1 POP DUP2 PUSH1 0x0 DUP1 PUSH2 0x100 EXP DUP2 SLOAD DUP2 PUSH20 0xFFFFFFFFFFFFFFFFFFFFFFFFFFFFFFFFFFFFFFFF MUL NOT AND SWAP1 DUP4 PUSH20 0xFFFFFFFFFFFFFFFFFFFFFFFFFFFFFFFFFFFFFFFF AND MUL OR SWAP1 SSTORE POP DUP2 PUSH20 0xFFFFFFFFFFFFFFFFFFFFFFFFFFFFFFFFFFFFFFFF AND DUP2 PUSH20 0xFFFFFFFFFFFFFFFFFFFFFFFFFFFFFFFFFFFFFFFF AND PUSH32 0x8BE0079C531659141344CD1FD0A4F28419497F9722A3DAAFE3B4186F6B6457E0 PUSH1 0x40 MLOAD PUSH1 0x40 MLOAD DUP1 SWAP2 SUB SWAP1 LOG3 POP POP JUMP JUMPDEST PUSH1 0x0 CALLER SWAP1 POP SWAP1 JUMP JUMPDEST DUP3 DUP1 SLOAD PUSH2 0x9C7 SWAP1 PUSH2 0x1032 JUMP JUMPDEST SWAP1 PUSH1 0x0 MSTORE PUSH1 0x20 PUSH1 0x0 KECCAK256 SWAP1 PUSH1 0x1F ADD PUSH1 0x20 SWAP1 DIV DUP2 ADD SWAP3 DUP3 PUSH2 0x9E9 JUMPI PUSH1 0x0 DUP6 SSTORE PUSH2 0xA30 JUMP JUMPDEST DUP3 PUSH1 0x1F LT PUSH2 0xA02 JUMPI DUP1 MLOAD PUSH1 0xFF NOT AND DUP4 DUP1 ADD OR DUP6 SSTORE PUSH2 0xA30 JUMP JUMPDEST DUP3 DUP1 ADD PUSH1 0x1 ADD DUP6 SSTORE DUP3 ISZERO PUSH2 0xA30 JUMPI SWAP2 DUP3 ADD JUMPDEST DUP3 DUP2 GT ISZERO PUSH2 0xA2F JUMPI DUP3 MLOAD DUP3 SSTORE SWAP2 PUSH1 0x20 ADD SWAP2 SWAP1 PUSH1 0x1 ADD SWAP1 PUSH2 0xA14 JUMP JUMPDEST JUMPDEST POP SWAP1 POP PUSH2 0xA3D SWAP2 SWAP1 PUSH2 0xA41 JUMP JUMPDEST POP SWAP1 JUMP JUMPDEST JUMPDEST DUP1 DUP3 GT ISZERO PUSH2 0xA5A JUMPI PUSH1 0x0 DUP2 PUSH1 0x0 SWAP1 SSTORE POP PUSH1 0x1 ADD PUSH2 0xA42 JUMP JUMPDEST POP SWAP1 JUMP JUMPDEST PUSH1 0x0 PUSH2 0xA71 PUSH2 0xA6C DUP5 PUSH2 0xEDC JUMP JUMPDEST PUSH2 0xEB7 JUMP JUMPDEST SWAP1 POP DUP3 DUP2 MSTORE PUSH1 0x20 DUP2 ADD DUP5 DUP5 DUP5 ADD GT ISZERO PUSH2 0xA8D JUMPI PUSH2 0xA8C PUSH2 0x117A JUMP JUMPDEST JUMPDEST PUSH2 0xA98 DUP5 DUP3 DUP6 PUSH2 0xFC6 JUMP JUMPDEST POP SWAP4 SWAP3 POP POP POP JUMP JUMPDEST PUSH1 0x0 DUP2 CALLDATALOAD SWAP1 POP PUSH2 0xAAF DUP2 PUSH2 0x1264 JUMP JUMPDEST SWAP3 SWAP2 POP POP JUMP JUMPDEST PUSH1 0x0 DUP1 DUP4 PUSH1 0x1F DUP5 ADD SLT PUSH2 0xACB JUMPI PUSH2 0xACA PUSH2 0x1170 JUMP JUMPDEST JUMPDEST DUP3 CALLDATALOAD SWAP1 POP PUSH8 0xFFFFFFFFFFFFFFFF DUP2 GT ISZERO PUSH2 0xAE8 JUMPI PUSH2 0xAE7 PUSH2 0x116B JUMP JUMPDEST JUMPDEST PUSH1 0x20 DUP4 ADD SWAP2 POP DUP4 PUSH1 0x1 DUP3 MUL DUP4 ADD GT ISZERO PUSH2 0xB04 JUMPI PUSH2 0xB03 PUSH2 0x1175 JUMP JUMPDEST JUMPDEST SWAP3 POP SWAP3 SWAP1 POP JUMP JUMPDEST PUSH1 0x0 DUP3 PUSH1 0x1F DUP4 ADD SLT PUSH2 0xB20 JUMPI PUSH2 0xB1F PUSH2 0x1170 JUMP JUMPDEST JUMPDEST DUP2 CALLDATALOAD PUSH2 0xB30 DUP5 DUP3 PUSH1 0x20 DUP7 ADD PUSH2 0xA5E JUMP JUMPDEST SWAP2 POP POP SWAP3 SWAP2 POP POP JUMP JUMPDEST PUSH1 0x0 DUP2 CALLDATALOAD SWAP1 POP PUSH2 0xB48 DUP2 PUSH2 0x127B JUMP JUMPDEST SWAP3 SWAP2 POP POP JUMP JUMPDEST PUSH1 0x0 PUSH1 0x20 DUP3 DUP5 SUB SLT ISZERO PUSH2 0xB64 JUMPI PUSH2 0xB63 PUSH2 0x1184 JUMP JUMPDEST JUMPDEST PUSH1 0x0 PUSH2 0xB72 DUP5 DUP3 DUP6 ADD PUSH2 0xAA0 JUMP JUMPDEST SWAP2 POP POP SWAP3 SWAP2 POP POP JUMP JUMPDEST PUSH1 0x0 DUP1 PUSH1 0x0 PUSH1 0x40 DUP5 DUP7 SUB SLT ISZERO PUSH2 0xB94 JUMPI PUSH2 0xB93 PUSH2 0x1184 JUMP JUMPDEST JUMPDEST PUSH1 0x0 DUP5 ADD CALLDATALOAD PUSH8 0xFFFFFFFFFFFFFFFF DUP2 GT ISZERO PUSH2 0xBB2 JUMPI PUSH2 0xBB1 PUSH2 0x117F JUMP JUMPDEST JUMPDEST PUSH2 0xBBE DUP7 DUP3 DUP8 ADD PUSH2 0xAB5 JUMP JUMPDEST SWAP4 POP SWAP4 POP POP PUSH1 0x20 PUSH2 0xBD1 DUP7 DUP3 DUP8 ADD PUSH2 0xB39 JUMP JUMPDEST SWAP2 POP POP SWAP3 POP SWAP3 POP SWAP3 JUMP JUMPDEST PUSH1 0x0 PUSH1 0x20 DUP3 DUP5 SUB SLT ISZERO PUSH2 0xBF1 JUMPI PUSH2 0xBF0 PUSH2 0x1184 JUMP JUMPDEST JUMPDEST PUSH1 0x0 DUP3 ADD CALLDATALOAD PUSH8 0xFFFFFFFFFFFFFFFF DUP2 GT ISZERO PUSH2 0xC0F JUMPI PUSH2 0xC0E PUSH2 0x117F JUMP JUMPDEST JUMPDEST PUSH2 0xC1B DUP5 DUP3 DUP6 ADD PUSH2 0xB0B JUMP JUMPDEST SWAP2 POP POP SWAP3 SWAP2 POP POP JUMP JUMPDEST PUSH1 0x0 PUSH1 0x20 DUP3 DUP5 SUB SLT ISZERO PUSH2 0xC3A JUMPI PUSH2 0xC39 PUSH2 0x1184 JUMP JUMPDEST JUMPDEST PUSH1 0x0 PUSH2 0xC48 DUP5 DUP3 DUP6 ADD PUSH2 0xB39 JUMP JUMPDEST SWAP2 POP POP SWAP3 SWAP2 POP POP JUMP JUMPDEST PUSH2 0xC5A DUP2 PUSH2 0xF8A JUMP JUMPDEST DUP3 MSTORE POP POP JUMP JUMPDEST PUSH1 0x0 PUSH2 0xC6C DUP4 DUP6 PUSH2 0xF18 JUMP JUMPDEST SWAP4 POP PUSH2 0xC79 DUP4 DUP6 DUP5 PUSH2 0xFC6 JUMP JUMPDEST PUSH2 0xC82 DUP4 PUSH2 0x1189 JUMP JUMPDEST DUP5 ADD SWAP1 POP SWAP4 SWAP3 POP POP POP JUMP JUMPDEST PUSH1 0x0 PUSH2 0xC99 DUP4 DUP6 PUSH2 0xF29 JUMP JUMPDEST SWAP4 POP PUSH2 0xCA6 DUP4 DUP6 DUP5 PUSH2 0xFC6 JUMP JUMPDEST DUP3 DUP5 ADD SWAP1 POP SWAP4 SWAP3 POP POP POP JUMP JUMPDEST PUSH1 0x0 PUSH2 0xCBD DUP3 PUSH2 0xF0D JUMP JUMPDEST PUSH2 0xCC7 DUP2 DUP6 PUSH2 0xF18 JUMP JUMPDEST SWAP4 POP PUSH2 0xCD7 DUP2 DUP6 PUSH1 0x20 DUP7 ADD PUSH2 0xFD5 JUMP JUMPDEST PUSH2 0xCE0 DUP2 PUSH2 0x1189 JUMP JUMPDEST DUP5 ADD SWAP2 POP POP SWAP3 SWAP2 POP POP JUMP JUMPDEST PUSH1 0x0 PUSH2 0xCF8 PUSH1 0x26 DUP4 PUSH2 0xF18 JUMP JUMPDEST SWAP2 POP PUSH2 0xD03 DUP3 PUSH2 0x119A JUMP JUMPDEST PUSH1 0x40 DUP3 ADD SWAP1 POP SWAP2 SWAP1 POP JUMP JUMPDEST PUSH1 0x0 PUSH2 0xD1B PUSH1 0xC DUP4 PUSH2 0xF18 JUMP JUMPDEST SWAP2 POP PUSH2 0xD26 DUP3 PUSH2 0x11E9 JUMP JUMPDEST PUSH1 0x20 DUP3 ADD SWAP1 POP SWAP2 SWAP1 POP JUMP JUMPDEST PUSH1 0x0 PUSH2 0xD3E PUSH1 0x20 DUP4 PUSH2 0xF18 JUMP JUMPDEST SWAP2 POP PUSH2 0xD49 DUP3 PUSH2 0x1212 JUMP JUMPDEST PUSH1 0x20 DUP3 ADD SWAP1 POP SWAP2 SWAP1 POP JUMP JUMPDEST PUSH1 0x0 PUSH2 0xD61 PUSH1 0xF DUP4 PUSH2 0xF18 JUMP JUMPDEST SWAP2 POP PUSH2 0xD6C DUP3 PUSH2 0x123B JUMP JUMPDEST PUSH1 0x20 DUP3 ADD SWAP1 POP SWAP2 SWAP1 POP JUMP JUMPDEST PUSH2 0xD80 DUP2 PUSH2 0xFBC JUMP JUMPDEST DUP3 MSTORE POP POP JUMP JUMPDEST PUSH1 0x0 PUSH2 0xD93 DUP3 DUP5 DUP7 PUSH2 0xC8D JUMP JUMPDEST SWAP2 POP DUP2 SWAP1 POP SWAP4 SWAP3 POP POP POP JUMP JUMPDEST PUSH1 0x0 PUSH1 0x20 DUP3 ADD SWAP1 POP PUSH2 0xDB4 PUSH1 0x0 DUP4 ADD DUP5 PUSH2 0xC51 JUMP JUMPDEST SWAP3 SWAP2 POP POP JUMP JUMPDEST PUSH1 0x0 PUSH1 0x40 DUP3 ADD SWAP1 POP DUP2 DUP2 SUB PUSH1 0x0 DUP4 ADD MSTORE PUSH2 0xDD5 DUP2 DUP6 DUP8 PUSH2 0xC60 JUMP JUMPDEST SWAP1 POP PUSH2 0xDE4 PUSH1 0x20 DUP4 ADD DUP5 PUSH2 0xD77 JUMP JUMPDEST SWAP5 SWAP4 POP POP POP POP JUMP JUMPDEST PUSH1 0x0 PUSH1 0x40 DUP3 ADD SWAP1 POP DUP2 DUP2 SUB PUSH1 0x0 DUP4 ADD MSTORE PUSH2 0xE06 DUP2 DUP6 PUSH2 0xCB2 JUMP JUMPDEST SWAP1 POP PUSH2 0xE15 PUSH1 0x20 DUP4 ADD DUP5 PUSH2 0xD77 JUMP JUMPDEST SWAP4 SWAP3 POP POP POP JUMP JUMPDEST PUSH1 0x0 PUSH1 0x20 DUP3 ADD SWAP1 POP DUP2 DUP2 SUB PUSH1 0x0 DUP4 ADD MSTORE PUSH2 0xE35 DUP2 PUSH2 0xCEB JUMP JUMPDEST SWAP1 POP SWAP2 SWAP1 POP JUMP JUMPDEST PUSH1 0x0 PUSH1 0x20 DUP3 ADD SWAP1 POP DUP2 DUP2 SUB PUSH1 0x0 DUP4 ADD MSTORE PUSH2 0xE55 DUP2 PUSH2 0xD0E JUMP JUMPDEST SWAP1 POP SWAP2 SWAP1 POP JUMP JUMPDEST PUSH1 0x0 PUSH1 0x20 DUP3 ADD SWAP1 POP DUP2 DUP2 SUB PUSH1 0x0 DUP4 ADD MSTORE PUSH2 0xE75 DUP2 PUSH2 0xD31 JUMP JUMPDEST SWAP1 POP SWAP2 SWAP1 POP JUMP JUMPDEST PUSH1 0x0 PUSH1 0x20 DUP3 ADD SWAP1 POP DUP2 DUP2 SUB PUSH1 0x0 DUP4 ADD MSTORE PUSH2 0xE95 DUP2 PUSH2 0xD54 JUMP JUMPDEST SWAP1 POP SWAP2 SWAP1 POP JUMP JUMPDEST PUSH1 0x0 PUSH1 0x20 DUP3 ADD SWAP1 POP PUSH2 0xEB1 PUSH1 0x0 DUP4 ADD DUP5 PUSH2 0xD77 JUMP JUMPDEST SWAP3 SWAP2 POP POP JUMP JUMPDEST PUSH1 0x0 PUSH2 0xEC1 PUSH2 0xED2 JUMP JUMPDEST SWAP1 POP PUSH2 0xECD DUP3 DUP3 PUSH2 0x1064 JUMP JUMPDEST SWAP2 SWAP1 POP JUMP JUMPDEST PUSH1 0x0 PUSH1 0x40 MLOAD SWAP1 POP SWAP1 JUMP JUMPDEST PUSH1 0x0 PUSH8 0xFFFFFFFFFFFFFFFF DUP3 GT ISZERO PUSH2 0xEF7 JUMPI PUSH2 0xEF6 PUSH2 0x113C JUMP JUMPDEST JUMPDEST PUSH2 0xF00 DUP3 PUSH2 0x1189 JUMP JUMPDEST SWAP1 POP PUSH1 0x20 DUP2 ADD SWAP1 POP SWAP2 SWAP1 POP JUMP JUMPDEST PUSH1 0x0 DUP2 MLOAD SWAP1 POP SWAP2 SWAP1 POP JUMP JUMPDEST PUSH1 0x0 DUP3 DUP3 MSTORE PUSH1 0x20 DUP3 ADD SWAP1 POP SWAP3 SWAP2 POP POP JUMP JUMPDEST PUSH1 0x0 DUP2 SWAP1 POP SWAP3 SWAP2 POP POP JUMP JUMPDEST PUSH1 0x0 PUSH2 0xF3F DUP3 PUSH2 0xFBC JUMP JUMPDEST SWAP2 POP PUSH2 0xF4A DUP4 PUSH2 0xFBC JUMP JUMPDEST SWAP3 POP DUP3 PUSH32 0xFFFFFFFFFFFFFFFFFFFFFFFFFFFFFFFFFFFFFFFFFFFFFFFFFFFFFFFFFFFFFFFF SUB DUP3 GT ISZERO PUSH2 0xF7F JUMPI PUSH2 0xF7E PUSH2 0x10DE JUMP JUMPDEST JUMPDEST DUP3 DUP3 ADD SWAP1 POP SWAP3 SWAP2 POP POP JUMP JUMPDEST PUSH1 0x0 PUSH2 0xF95 DUP3 PUSH2 0xF9C JUMP JUMPDEST SWAP1 POP SWAP2 SWAP1 POP JUMP JUMPDEST PUSH1 0x0 PUSH20 0xFFFFFFFFFFFFFFFFFFFFFFFFFFFFFFFFFFFFFFFF DUP3 AND SWAP1 POP SWAP2 SWAP1 POP JUMP JUMPDEST PUSH1 0x0 DUP2 SWAP1 POP SWAP2 SWAP1 POP JUMP JUMPDEST DUP3 DUP2 DUP4 CALLDATACOPY PUSH1 0x0 DUP4 DUP4 ADD MSTORE POP POP POP JUMP JUMPDEST PUSH1 0x0 JUMPDEST DUP4 DUP2 LT ISZERO PUSH2 0xFF3 JUMPI DUP1 DUP3 ADD MLOAD DUP2 DUP5 ADD MSTORE PUSH1 0x20 DUP2 ADD SWAP1 POP PUSH2 0xFD8 JUMP JUMPDEST DUP4 DUP2 GT ISZERO PUSH2 0x1002 JUMPI PUSH1 0x0 DUP5 DUP5 ADD MSTORE JUMPDEST POP POP POP POP JUMP JUMPDEST PUSH1 0x0 PUSH2 0x1013 DUP3 PUSH2 0xFBC JUMP JUMPDEST SWAP2 POP PUSH1 0x0 DUP3 EQ ISZERO PUSH2 0x1027 JUMPI PUSH2 0x1026 PUSH2 0x10DE JUMP JUMPDEST JUMPDEST PUSH1 0x1 DUP3 SUB SWAP1 POP SWAP2 SWAP1 POP JUMP JUMPDEST PUSH1 0x0 PUSH1 0x2 DUP3 DIV SWAP1 POP PUSH1 0x1 DUP3 AND DUP1 PUSH2 0x104A JUMPI PUSH1 0x7F DUP3 AND SWAP2 POP JUMPDEST PUSH1 0x20 DUP3 LT DUP2 EQ ISZERO PUSH2 0x105E JUMPI PUSH2 0x105D PUSH2 0x110D JUMP JUMPDEST JUMPDEST POP SWAP2 SWAP1 POP JUMP JUMPDEST PUSH2 0x106D DUP3 PUSH2 0x1189 JUMP JUMPDEST DUP2 ADD DUP2 DUP2 LT PUSH8 0xFFFFFFFFFFFFFFFF DUP3 GT OR ISZERO PUSH2 0x108C JUMPI PUSH2 0x108B PUSH2 0x113C JUMP JUMPDEST JUMPDEST DUP1 PUSH1 0x40 MSTORE POP POP POP JUMP JUMPDEST PUSH1 0x0 PUSH2 0x10A0 DUP3 PUSH2 0xFBC JUMP JUMPDEST SWAP2 POP PUSH32 0xFFFFFFFFFFFFFFFFFFFFFFFFFFFFFFFFFFFFFFFFFFFFFFFFFFFFFFFFFFFFFFFF DUP3 EQ ISZERO PUSH2 0x10D3 JUMPI PUSH2 0x10D2 PUSH2 0x10DE JUMP JUMPDEST JUMPDEST PUSH1 0x1 DUP3 ADD SWAP1 POP SWAP2 SWAP1 POP JUMP JUMPDEST PUSH32 0x4E487B7100000000000000000000000000000000000000000000000000000000 PUSH1 0x0 MSTORE PUSH1 0x11 PUSH1 0x4 MSTORE PUSH1 0x24 PUSH1 0x0 REVERT JUMPDEST PUSH32 0x4E487B7100000000000000000000000000000000000000000000000000000000 PUSH1 0x0 MSTORE PUSH1 0x22 PUSH1 0x4 MSTORE PUSH1 0x24 PUSH1 0x0 REVERT JUMPDEST PUSH32 0x4E487B7100000000000000000000000000000000000000000000000000000000 PUSH1 0x0 MSTORE PUSH1 0x41 PUSH1 0x4 MSTORE PUSH1 0x24 PUSH1 0x0 REVERT JUMPDEST PUSH1 0x0 DUP1 REVERT JUMPDEST PUSH1 0x0 DUP1 REVERT JUMPDEST PUSH1 0x0 DUP1 REVERT JUMPDEST PUSH1 0x0 DUP1 REVERT JUMPDEST PUSH1 0x0 DUP1 REVERT JUMPDEST PUSH1 0x0 DUP1 REVERT JUMPDEST PUSH1 0x0 PUSH1 0x1F NOT PUSH1 0x1F DUP4 ADD AND SWAP1 POP SWAP2 SWAP1 POP JUMP JUMPDEST PUSH32 0x4F776E61626C653A206E6577206F776E657220697320746865207A65726F2061 PUSH1 0x0 DUP3 ADD MSTORE PUSH32 0x6464726573730000000000000000000000000000000000000000000000000000 PUSH1 0x20 DUP3 ADD MSTORE POP JUMP JUMPDEST PUSH32 0x6E6F7420626F72726F776E670000000000000000000000000000000000000000 PUSH1 0x0 DUP3 ADD MSTORE POP JUMP JUMPDEST PUSH32 0x4F776E61626C653A2063616C6C6572206973206E6F7420746865206F776E6572 PUSH1 0x0 DUP3 ADD MSTORE POP JUMP JUMPDEST PUSH32 0x7A65726F20626F6F6B73206C6566740000000000000000000000000000000000 PUSH1 0x0 DUP3 ADD MSTORE POP JUMP JUMPDEST PUSH2 0x126D DUP2 PUSH2 0xF8A JUMP JUMPDEST DUP2 EQ PUSH2 0x1278 JUMPI PUSH1 0x0 DUP1 REVERT JUMPDEST POP JUMP JUMPDEST PUSH2 0x1284 DUP2 PUSH2 0xFBC JUMP JUMPDEST DUP2 EQ PUSH2 0x128F JUMPI PUSH1 0x0 DUP1 REVERT JUMPDEST POP JUMP INVALID LOG2 PUSH5 0x6970667358 0x22 SLT KECCAK256 0xCF 0xB2 PUSH27 0x7868B41C7C8815478000695E641C51853FB50C02160DE3433FD866 0xB8 SWAP5 PUSH5 0x736F6C6343 STOP ADDMOD SMOD STOP CALLER "
				},
				"gasEstimates": {
					"creation": {
						"codeDepositCost": "961600",
						"executionCost": "infinite",
						"totalCost": "infinite"
					},
					"external": {
						"addBook(string,uint256)": "infinite",
						"books(uint256)": "infinite",
						"borrowBook(uint256)": "infinite",
						"count()": "2430",
						"currentlyBorrowing(address)": "2880",
						"indexes(string)": "infinite",
						"owner()": "2566",
						"renounceOwnership()": "30398",
						"returnCurrentBook()": "31933",
						"transferOwnership(address)": "30835"
					}
				},
				"methodIdentifiers": {
					"addBook(string,uint256)": "637a3872",
					"books(uint256)": "68744046",
					"borrowBook(uint256)": "7e490a9e",
					"count()": "06661abd",
					"currentlyBorrowing(address)": "901dec82",
					"indexes(string)": "2427e59e",
					"owner()": "8da5cb5b",
					"renounceOwnership()": "715018a6",
					"returnCurrentBook()": "10319fcc",
					"transferOwnership(address)": "f2fde38b"
				}
			},
			"storageLayout": {
				"storage": [
					{
						"astId": 7,
						"contract": "exercise/Library.sol:Library",
						"label": "_owner",
						"offset": 0,
						"slot": "0",
						"type": "t_address"
					},
					{
						"astId": 157,
						"contract": "exercise/Library.sol:Library",
						"label": "count",
						"offset": 0,
						"slot": "1",
						"type": "t_uint256"
					},
					{
						"astId": 172,
						"contract": "exercise/Library.sol:Library",
						"label": "currentlyBorrowing",
						"offset": 0,
						"slot": "2",
						"type": "t_mapping(t_address,t_uint256)"
					},
					{
						"astId": 176,
						"contract": "exercise/Library.sol:Library",
						"label": "indexes",
						"offset": 0,
						"slot": "3",
						"type": "t_mapping(t_string_memory_ptr,t_uint256)"
					},
					{
						"astId": 181,
						"contract": "exercise/Library.sol:Library",
						"label": "books",
						"offset": 0,
						"slot": "4",
						"type": "t_mapping(t_uint256,t_struct(Book)162_storage)"
					},
					{
						"astId": 187,
						"contract": "exercise/Library.sol:Library",
						"label": "borrowedBooks",
						"offset": 0,
						"slot": "5",
						"type": "t_mapping(t_uint256,t_mapping(t_address,t_bool))"
					}
				],
				"types": {
					"t_address": {
						"encoding": "inplace",
						"label": "address",
						"numberOfBytes": "20"
					},
					"t_bool": {
						"encoding": "inplace",
						"label": "bool",
						"numberOfBytes": "1"
					},
					"t_mapping(t_address,t_bool)": {
						"encoding": "mapping",
						"key": "t_address",
						"label": "mapping(address => bool)",
						"numberOfBytes": "32",
						"value": "t_bool"
					},
					"t_mapping(t_address,t_uint256)": {
						"encoding": "mapping",
						"key": "t_address",
						"label": "mapping(address => uint256)",
						"numberOfBytes": "32",
						"value": "t_uint256"
					},
					"t_mapping(t_string_memory_ptr,t_uint256)": {
						"encoding": "mapping",
						"key": "t_string_memory_ptr",
						"label": "mapping(string => uint256)",
						"numberOfBytes": "32",
						"value": "t_uint256"
					},
					"t_mapping(t_uint256,t_mapping(t_address,t_bool))": {
						"encoding": "mapping",
						"key": "t_uint256",
						"label": "mapping(uint256 => mapping(address => bool))",
						"numberOfBytes": "32",
						"value": "t_mapping(t_address,t_bool)"
					},
					"t_mapping(t_uint256,t_struct(Book)162_storage)": {
						"encoding": "mapping",
						"key": "t_uint256",
						"label": "mapping(uint256 => struct Library.Book)",
						"numberOfBytes": "32",
						"value": "t_struct(Book)162_storage"
					},
					"t_string_memory_ptr": {
						"encoding": "bytes",
						"label": "string",
						"numberOfBytes": "32"
					},
					"t_string_storage": {
						"encoding": "bytes",
						"label": "string",
						"numberOfBytes": "32"
					},
					"t_struct(Book)162_storage": {
						"encoding": "inplace",
						"label": "struct Library.Book",
						"members": [
							{
								"astId": 159,
								"contract": "exercise/Library.sol:Library",
								"label": "name",
								"offset": 0,
								"slot": "0",
								"type": "t_string_storage"
							},
							{
								"astId": 161,
								"contract": "exercise/Library.sol:Library",
								"label": "copies",
								"offset": 0,
								"slot": "1",
								"type": "t_uint256"
							}
						],
						"numberOfBytes": "64"
					},
					"t_uint256": {
						"encoding": "inplace",
						"label": "uint256",
						"numberOfBytes": "32"
					}
				}
			},
			"userdoc": {
				"kind": "user",
				"methods": {},
				"version": 1
			}
		}
	}
}