{
	"data": {
		"bytecode": {
			"linkReferences": {},
			"object": "608060405234801561001057600080fd5b506101e6806100206000396000f3fe608060405234801561001057600080fd5b50600436106100365760003560e01c80639ae8886a1461003b578063c298557814610045575b600080fd5b61004361004f565b005b61004d610059565b005b610057610090565b565b7fcf34ef537ac33ee1ac626ca1587a0a7e8e51561e5514f8cb36afa1c5102b3bab6040516100869061012d565b60405180910390a1565b7fcf34ef537ac33ee1ac626ca1587a0a7e8e51561e5514f8cb36afa1c5102b3bab6040516100bd9061010d565b60405180910390a1565b60006100d460018361014d565b91506100df8261015e565b602082019050919050565b60006100f760018361014d565b915061010282610187565b602082019050919050565b60006020820190508181036000830152610126816100c7565b9050919050565b60006020820190508181036000830152610146816100ea565b9050919050565b600082825260208201905092915050565b7f4100000000000000000000000000000000000000000000000000000000000000600082015250565b7f420000000000000000000000000000000000000000000000000000000000000060008201525056fea2646970667358221220f824e660f8222edc11544ad9636188488f6e4e5bdd95bf29a94e52cf554976d364736f6c63430008070033",
			"opcodes": "PUSH1 0x80 PUSH1 0x40 MSTORE CALLVALUE DUP1 ISZERO PUSH2 0x10 JUMPI PUSH1 0x0 DUP1 REVERT JUMPDEST POP PUSH2 0x1E6 DUP1 PUSH2 0x20 PUSH1 0x0 CODECOPY PUSH1 0x0 RETURN INVALID PUSH1 0x80 PUSH1 0x40 MSTORE CALLVALUE DUP1 ISZERO PUSH2 0x10 JUMPI PUSH1 0x0 DUP1 REVERT JUMPDEST POP PUSH1 0x4 CALLDATASIZE LT PUSH2 0x36 JUMPI PUSH1 0x0 CALLDATALOAD PUSH1 0xE0 SHR DUP1 PUSH4 0x9AE8886A EQ PUSH2 0x3B JUMPI DUP1 PUSH4 0xC2985578 EQ PUSH2 0x45 JUMPI JUMPDEST PUSH1 0x0 DUP1 REVERT JUMPDEST PUSH2 0x43 PUSH2 0x4F JUMP JUMPDEST STOP JUMPDEST PUSH2 0x4D PUSH2 0x59 JUMP JUMPDEST STOP JUMPDEST PUSH2 0x57 PUSH2 0x90 JUMP JUMPDEST JUMP JUMPDEST PUSH32 0xCF34EF537AC33EE1AC626CA1587A0A7E8E51561E5514F8CB36AFA1C5102B3BAB PUSH1 0x40 MLOAD PUSH2 0x86 SWAP1 PUSH2 0x12D JUMP JUMPDEST PUSH1 0x40 MLOAD DUP1 SWAP2 SUB SWAP1 LOG1 JUMP JUMPDEST PUSH32 0xCF34EF537AC33EE1AC626CA1587A0A7E8E51561E5514F8CB36AFA1C5102B3BAB PUSH1 0x40 MLOAD PUSH2 0xBD SWAP1 PUSH2 0x10D JUMP JUMPDEST PUSH1 0x40 MLOAD DUP1 SWAP2 SUB SWAP1 LOG1 JUMP JUMPDEST PUSH1 0x0 PUSH2 0xD4 PUSH1 0x1 DUP4 PUSH2 0x14D JUMP JUMPDEST SWAP2 POP PUSH2 0xDF DUP3 PUSH2 0x15E JUMP JUMPDEST PUSH1 0x20 DUP3 ADD SWAP1 POP SWAP2 SWAP1 POP JUMP JUMPDEST PUSH1 0x0 PUSH2 0xF7 PUSH1 0x1 DUP4 PUSH2 0x14D JUMP JUMPDEST SWAP2 POP PUSH2 0x102 DUP3 PUSH2 0x187 JUMP JUMPDEST PUSH1 0x20 DUP3 ADD SWAP1 POP SWAP2 SWAP1 POP JUMP JUMPDEST PUSH1 0x0 PUSH1 0x20 DUP3 ADD SWAP1 POP DUP2 DUP2 SUB PUSH1 0x0 DUP4 ADD MSTORE PUSH2 0x126 DUP2 PUSH2 0xC7 JUMP JUMPDEST SWAP1 POP SWAP2 SWAP1 POP JUMP JUMPDEST PUSH1 0x0 PUSH1 0x20 DUP3 ADD SWAP1 POP DUP2 DUP2 SUB PUSH1 0x0 DUP4 ADD MSTORE PUSH2 0x146 DUP2 PUSH2 0xEA JUMP JUMPDEST SWAP1 POP SWAP2 SWAP1 POP JUMP JUMPDEST PUSH1 0x0 DUP3 DUP3 MSTORE PUSH1 0x20 DUP3 ADD SWAP1 POP SWAP3 SWAP2 POP POP JUMP JUMPDEST PUSH32 0x4100000000000000000000000000000000000000000000000000000000000000 PUSH1 0x0 DUP3 ADD MSTORE POP JUMP JUMPDEST PUSH32 0x4200000000000000000000000000000000000000000000000000000000000000 PUSH1 0x0 DUP3 ADD MSTORE POP JUMP INVALID LOG2 PUSH5 0x6970667358 0x22 SLT KECCAK256 0xF8 0x24 0xE6 PUSH1 0xF8 0x22 0x2E 0xDC GT SLOAD 0x4A 0xD9 PUSH4 0x6188488F PUSH15 0x4E5BDD95BF29A94E52CF554976D364 PUSH20 0x6F6C634300080700330000000000000000000000 "
		},
		"gasEstimates": {
			"creation": {
				"codeDepositCost": "97200",
				"executionCost": "147",
				"totalCost": "97347"
			},
			"external": {
				"foo()": "1946",
				"p()": "1948"
			}
		},
		"methodIdentifiers": {
			"foo()": "c2985578",
			"p()": "9ae8886a"
		}
	},
	"abi": [
		{
			"anonymous": false,
			"inputs": [
				{
					"indexed": false,
					"internalType": "string",
					"name": "s",
					"type": "string"
				}
			],
			"name": "Log",
			"type": "event"
		},
		{
			"inputs": [],
			"name": "foo",
			"outputs": [],
			"stateMutability": "nonpayable",
			"type": "function"
		},
		{
			"inputs": [],
			"name": "p",
			"outputs": [],
			"stateMutability": "nonpayable",
			"type": "function"
		}
	]
}