{
	"data": {
		"bytecode": {
			"linkReferences": {},
			"object": "608060405234801561001057600080fd5b506040516105cf3803806105cf83398181016040528101906100329190610190565b81600460028160018190555080600281905550826000908051906020019061005b92919061007d565b50505050806003908051906020019061007592919061007d565b505050610377565b82805461008990610291565b90600052602060002090601f0160209004810192826100ab57600085556100f2565b82601f106100c457805160ff19168380011785556100f2565b828001600101855582156100f2579182015b828111156100f15782518255916020019190600101906100d6565b5b5090506100ff9190610103565b5090565b5b8082111561011c576000816000905550600101610104565b5090565b600061013361012e8461022d565b610208565b90508281526020810184848401111561014f5761014e610357565b5b61015a84828561025e565b509392505050565b600082601f83011261017757610176610352565b5b8151610187848260208601610120565b91505092915050565b600080604083850312156101a7576101a6610361565b5b600083015167ffffffffffffffff8111156101c5576101c461035c565b5b6101d185828601610162565b925050602083015167ffffffffffffffff8111156101f2576101f161035c565b5b6101fe85828601610162565b9150509250929050565b6000610212610223565b905061021e82826102c3565b919050565b6000604051905090565b600067ffffffffffffffff82111561024857610247610323565b5b61025182610366565b9050602081019050919050565b60005b8381101561027c578082015181840152602081019050610261565b8381111561028b576000848401525b50505050565b600060028204905060018216806102a957607f821691505b602082108114156102bd576102bc6102f4565b5b50919050565b6102cc82610366565b810181811067ffffffffffffffff821117156102eb576102ea610323565b5b80604052505050565b7f4e487b7100000000000000000000000000000000000000000000000000000000600052602260045260246000fd5b7f4e487b7100000000000000000000000000000000000000000000000000000000600052604160045260246000fd5b600080fd5b600080fd5b600080fd5b600080fd5b6000601f19601f8301169050919050565b610249806103866000396000f3fe608060405234801561001057600080fd5b50600436106100365760003560e01c8063864f4a9a1461003b578063a973176914610045575b600080fd5b61004361004f565b005b61004d610051565b005b565b7ff67e25e939f2e711bf168e3f79d1506e14ce5ab5f36cdfa66377a850c140ed166000604051610081919061012e565b60405180910390a1565b6000815461009881610189565b6100a28186610178565b945060018216600081146100bd57600181146100cf57610102565b60ff1983168652602086019350610102565b6100d885610163565b60005b838110156100fa578154818901526001820191506020810190506100db565b808801955050505b50505092915050565b6000610118600483610178565b9150610123826101ea565b602082019050919050565b60006040820190508181036000830152610148818461008b565b9050818103602083015261015b8161010b565b905092915050565b60008190508160005260206000209050919050565b600082825260208201905092915050565b600060028204905060018216806101a157607f821691505b602082108114156101b5576101b46101bb565b5b50919050565b7f4e487b7100000000000000000000000000000000000000000000000000000000600052602260045260246000fd5b7f4261726b0000000000000000000000000000000000000000000000000000000060008201525056fea2646970667358221220dfac3630ca7fd2e788ce7510fdb906c066e2c84bca3f19b3d0889b5fda4eeb6464736f6c63430008070033",
			"opcodes": "PUSH1 0x80 PUSH1 0x40 MSTORE CALLVALUE DUP1 ISZERO PUSH2 0x10 JUMPI PUSH1 0x0 DUP1 REVERT JUMPDEST POP PUSH1 0x40 MLOAD PUSH2 0x5CF CODESIZE SUB DUP1 PUSH2 0x5CF DUP4 CODECOPY DUP2 DUP2 ADD PUSH1 0x40 MSTORE DUP2 ADD SWAP1 PUSH2 0x32 SWAP2 SWAP1 PUSH2 0x190 JUMP JUMPDEST DUP2 PUSH1 0x4 PUSH1 0x2 DUP2 PUSH1 0x1 DUP2 SWAP1 SSTORE POP DUP1 PUSH1 0x2 DUP2 SWAP1 SSTORE POP DUP3 PUSH1 0x0 SWAP1 DUP1 MLOAD SWAP1 PUSH1 0x20 ADD SWAP1 PUSH2 0x5B SWAP3 SWAP2 SWAP1 PUSH2 0x7D JUMP JUMPDEST POP POP POP POP DUP1 PUSH1 0x3 SWAP1 DUP1 MLOAD SWAP1 PUSH1 0x20 ADD SWAP1 PUSH2 0x75 SWAP3 SWAP2 SWAP1 PUSH2 0x7D JUMP JUMPDEST POP POP POP PUSH2 0x377 JUMP JUMPDEST DUP3 DUP1 SLOAD PUSH2 0x89 SWAP1 PUSH2 0x291 JUMP JUMPDEST SWAP1 PUSH1 0x0 MSTORE PUSH1 0x20 PUSH1 0x0 KECCAK256 SWAP1 PUSH1 0x1F ADD PUSH1 0x20 SWAP1 DIV DUP2 ADD SWAP3 DUP3 PUSH2 0xAB JUMPI PUSH1 0x0 DUP6 SSTORE PUSH2 0xF2 JUMP JUMPDEST DUP3 PUSH1 0x1F LT PUSH2 0xC4 JUMPI DUP1 MLOAD PUSH1 0xFF NOT AND DUP4 DUP1 ADD OR DUP6 SSTORE PUSH2 0xF2 JUMP JUMPDEST DUP3 DUP1 ADD PUSH1 0x1 ADD DUP6 SSTORE DUP3 ISZERO PUSH2 0xF2 JUMPI SWAP2 DUP3 ADD JUMPDEST DUP3 DUP2 GT ISZERO PUSH2 0xF1 JUMPI DUP3 MLOAD DUP3 SSTORE SWAP2 PUSH1 0x20 ADD SWAP2 SWAP1 PUSH1 0x1 ADD SWAP1 PUSH2 0xD6 JUMP JUMPDEST JUMPDEST POP SWAP1 POP PUSH2 0xFF SWAP2 SWAP1 PUSH2 0x103 JUMP JUMPDEST POP SWAP1 JUMP JUMPDEST JUMPDEST DUP1 DUP3 GT ISZERO PUSH2 0x11C JUMPI PUSH1 0x0 DUP2 PUSH1 0x0 SWAP1 SSTORE POP PUSH1 0x1 ADD PUSH2 0x104 JUMP JUMPDEST POP SWAP1 JUMP JUMPDEST PUSH1 0x0 PUSH2 0x133 PUSH2 0x12E DUP5 PUSH2 0x22D JUMP JUMPDEST PUSH2 0x208 JUMP JUMPDEST SWAP1 POP DUP3 DUP2 MSTORE PUSH1 0x20 DUP2 ADD DUP5 DUP5 DUP5 ADD GT ISZERO PUSH2 0x14F JUMPI PUSH2 0x14E PUSH2 0x357 JUMP JUMPDEST JUMPDEST PUSH2 0x15A DUP5 DUP3 DUP6 PUSH2 0x25E JUMP JUMPDEST POP SWAP4 SWAP3 POP POP POP JUMP JUMPDEST PUSH1 0x0 DUP3 PUSH1 0x1F DUP4 ADD SLT PUSH2 0x177 JUMPI PUSH2 0x176 PUSH2 0x352 JUMP JUMPDEST JUMPDEST DUP2 MLOAD PUSH2 0x187 DUP5 DUP3 PUSH1 0x20 DUP7 ADD PUSH2 0x120 JUMP JUMPDEST SWAP2 POP POP SWAP3 SWAP2 POP POP JUMP JUMPDEST PUSH1 0x0 DUP1 PUSH1 0x40 DUP4 DUP6 SUB SLT ISZERO PUSH2 0x1A7 JUMPI PUSH2 0x1A6 PUSH2 0x361 JUMP JUMPDEST JUMPDEST PUSH1 0x0 DUP4 ADD MLOAD PUSH8 0xFFFFFFFFFFFFFFFF DUP2 GT ISZERO PUSH2 0x1C5 JUMPI PUSH2 0x1C4 PUSH2 0x35C JUMP JUMPDEST JUMPDEST PUSH2 0x1D1 DUP6 DUP3 DUP7 ADD PUSH2 0x162 JUMP JUMPDEST SWAP3 POP POP PUSH1 0x20 DUP4 ADD MLOAD PUSH8 0xFFFFFFFFFFFFFFFF DUP2 GT ISZERO PUSH2 0x1F2 JUMPI PUSH2 0x1F1 PUSH2 0x35C JUMP JUMPDEST JUMPDEST PUSH2 0x1FE DUP6 DUP3 DUP7 ADD PUSH2 0x162 JUMP JUMPDEST SWAP2 POP POP SWAP3 POP SWAP3 SWAP1 POP JUMP JUMPDEST PUSH1 0x0 PUSH2 0x212 PUSH2 0x223 JUMP JUMPDEST SWAP1 POP PUSH2 0x21E DUP3 DUP3 PUSH2 0x2C3 JUMP JUMPDEST SWAP2 SWAP1 POP JUMP JUMPDEST PUSH1 0x0 PUSH1 0x40 MLOAD SWAP1 POP SWAP1 JUMP JUMPDEST PUSH1 0x0 PUSH8 0xFFFFFFFFFFFFFFFF DUP3 GT ISZERO PUSH2 0x248 JUMPI PUSH2 0x247 PUSH2 0x323 JUMP JUMPDEST JUMPDEST PUSH2 0x251 DUP3 PUSH2 0x366 JUMP JUMPDEST SWAP1 POP PUSH1 0x20 DUP2 ADD SWAP1 POP SWAP2 SWAP1 POP JUMP JUMPDEST PUSH1 0x0 JUMPDEST DUP4 DUP2 LT ISZERO PUSH2 0x27C JUMPI DUP1 DUP3 ADD MLOAD DUP2 DUP5 ADD MSTORE PUSH1 0x20 DUP2 ADD SWAP1 POP PUSH2 0x261 JUMP JUMPDEST DUP4 DUP2 GT ISZERO PUSH2 0x28B JUMPI PUSH1 0x0 DUP5 DUP5 ADD MSTORE JUMPDEST POP POP POP POP JUMP JUMPDEST PUSH1 0x0 PUSH1 0x2 DUP3 DIV SWAP1 POP PUSH1 0x1 DUP3 AND DUP1 PUSH2 0x2A9 JUMPI PUSH1 0x7F DUP3 AND SWAP2 POP JUMPDEST PUSH1 0x20 DUP3 LT DUP2 EQ ISZERO PUSH2 0x2BD JUMPI PUSH2 0x2BC PUSH2 0x2F4 JUMP JUMPDEST JUMPDEST POP SWAP2 SWAP1 POP JUMP JUMPDEST PUSH2 0x2CC DUP3 PUSH2 0x366 JUMP JUMPDEST DUP2 ADD DUP2 DUP2 LT PUSH8 0xFFFFFFFFFFFFFFFF DUP3 GT OR ISZERO PUSH2 0x2EB JUMPI PUSH2 0x2EA PUSH2 0x323 JUMP JUMPDEST JUMPDEST DUP1 PUSH1 0x40 MSTORE POP POP POP JUMP JUMPDEST PUSH32 0x4E487B7100000000000000000000000000000000000000000000000000000000 PUSH1 0x0 MSTORE PUSH1 0x22 PUSH1 0x4 MSTORE PUSH1 0x24 PUSH1 0x0 REVERT JUMPDEST PUSH32 0x4E487B7100000000000000000000000000000000000000000000000000000000 PUSH1 0x0 MSTORE PUSH1 0x41 PUSH1 0x4 MSTORE PUSH1 0x24 PUSH1 0x0 REVERT JUMPDEST PUSH1 0x0 DUP1 REVERT JUMPDEST PUSH1 0x0 DUP1 REVERT JUMPDEST PUSH1 0x0 DUP1 REVERT JUMPDEST PUSH1 0x0 DUP1 REVERT JUMPDEST PUSH1 0x0 PUSH1 0x1F NOT PUSH1 0x1F DUP4 ADD AND SWAP1 POP SWAP2 SWAP1 POP JUMP JUMPDEST PUSH2 0x249 DUP1 PUSH2 0x386 PUSH1 0x0 CODECOPY PUSH1 0x0 RETURN INVALID PUSH1 0x80 PUSH1 0x40 MSTORE CALLVALUE DUP1 ISZERO PUSH2 0x10 JUMPI PUSH1 0x0 DUP1 REVERT JUMPDEST POP PUSH1 0x4 CALLDATASIZE LT PUSH2 0x36 JUMPI PUSH1 0x0 CALLDATALOAD PUSH1 0xE0 SHR DUP1 PUSH4 0x864F4A9A EQ PUSH2 0x3B JUMPI DUP1 PUSH4 0xA9731769 EQ PUSH2 0x45 JUMPI JUMPDEST PUSH1 0x0 DUP1 REVERT JUMPDEST PUSH2 0x43 PUSH2 0x4F JUMP JUMPDEST STOP JUMPDEST PUSH2 0x4D PUSH2 0x51 JUMP JUMPDEST STOP JUMPDEST JUMP JUMPDEST PUSH32 0xF67E25E939F2E711BF168E3F79D1506E14CE5AB5F36CDFA66377A850C140ED16 PUSH1 0x0 PUSH1 0x40 MLOAD PUSH2 0x81 SWAP2 SWAP1 PUSH2 0x12E JUMP JUMPDEST PUSH1 0x40 MLOAD DUP1 SWAP2 SUB SWAP1 LOG1 JUMP JUMPDEST PUSH1 0x0 DUP2 SLOAD PUSH2 0x98 DUP2 PUSH2 0x189 JUMP JUMPDEST PUSH2 0xA2 DUP2 DUP7 PUSH2 0x178 JUMP JUMPDEST SWAP5 POP PUSH1 0x1 DUP3 AND PUSH1 0x0 DUP2 EQ PUSH2 0xBD JUMPI PUSH1 0x1 DUP2 EQ PUSH2 0xCF JUMPI PUSH2 0x102 JUMP JUMPDEST PUSH1 0xFF NOT DUP4 AND DUP7 MSTORE PUSH1 0x20 DUP7 ADD SWAP4 POP PUSH2 0x102 JUMP JUMPDEST PUSH2 0xD8 DUP6 PUSH2 0x163 JUMP JUMPDEST PUSH1 0x0 JUMPDEST DUP4 DUP2 LT ISZERO PUSH2 0xFA JUMPI DUP2 SLOAD DUP2 DUP10 ADD MSTORE PUSH1 0x1 DUP3 ADD SWAP2 POP PUSH1 0x20 DUP2 ADD SWAP1 POP PUSH2 0xDB JUMP JUMPDEST DUP1 DUP9 ADD SWAP6 POP POP POP JUMPDEST POP POP POP SWAP3 SWAP2 POP POP JUMP JUMPDEST PUSH1 0x0 PUSH2 0x118 PUSH1 0x4 DUP4 PUSH2 0x178 JUMP JUMPDEST SWAP2 POP PUSH2 0x123 DUP3 PUSH2 0x1EA JUMP JUMPDEST PUSH1 0x20 DUP3 ADD SWAP1 POP SWAP2 SWAP1 POP JUMP JUMPDEST PUSH1 0x0 PUSH1 0x40 DUP3 ADD SWAP1 POP DUP2 DUP2 SUB PUSH1 0x0 DUP4 ADD MSTORE PUSH2 0x148 DUP2 DUP5 PUSH2 0x8B JUMP JUMPDEST SWAP1 POP DUP2 DUP2 SUB PUSH1 0x20 DUP4 ADD MSTORE PUSH2 0x15B DUP2 PUSH2 0x10B JUMP JUMPDEST SWAP1 POP SWAP3 SWAP2 POP POP JUMP JUMPDEST PUSH1 0x0 DUP2 SWAP1 POP DUP2 PUSH1 0x0 MSTORE PUSH1 0x20 PUSH1 0x0 KECCAK256 SWAP1 POP SWAP2 SWAP1 POP JUMP JUMPDEST PUSH1 0x0 DUP3 DUP3 MSTORE PUSH1 0x20 DUP3 ADD SWAP1 POP SWAP3 SWAP2 POP POP JUMP JUMPDEST PUSH1 0x0 PUSH1 0x2 DUP3 DIV SWAP1 POP PUSH1 0x1 DUP3 AND DUP1 PUSH2 0x1A1 JUMPI PUSH1 0x7F DUP3 AND SWAP2 POP JUMPDEST PUSH1 0x20 DUP3 LT DUP2 EQ ISZERO PUSH2 0x1B5 JUMPI PUSH2 0x1B4 PUSH2 0x1BB JUMP JUMPDEST JUMPDEST POP SWAP2 SWAP1 POP JUMP JUMPDEST PUSH32 0x4E487B7100000000000000000000000000000000000000000000000000000000 PUSH1 0x0 MSTORE PUSH1 0x22 PUSH1 0x4 MSTORE PUSH1 0x24 PUSH1 0x0 REVERT JUMPDEST PUSH32 0x4261726B00000000000000000000000000000000000000000000000000000000 PUSH1 0x0 DUP3 ADD MSTORE POP JUMP INVALID LOG2 PUSH5 0x6970667358 0x22 SLT KECCAK256 0xDF 0xAC CALLDATASIZE ADDRESS 0xCA PUSH32 0xD2E788CE7510FDB906C066E2C84BCA3F19B3D0889B5FDA4EEB6464736F6C6343 STOP ADDMOD SMOD STOP CALLER "
		},
		"gasEstimates": {
			"creation": {
				"codeDepositCost": "117000",
				"executionCost": "infinite",
				"totalCost": "infinite"
			},
			"external": {
				"bark()": "122",
				"talk()": "infinite"
			}
		},
		"methodIdentifiers": {
			"bark()": "864f4a9a",
			"talk()": "a9731769"
		}
	},
	"abi": [
		{
			"inputs": [
				{
					"internalType": "string",
					"name": "n",
					"type": "string"
				},
				{
					"internalType": "string",
					"name": "b",
					"type": "string"
				}
			],
			"stateMutability": "nonpayable",
			"type": "constructor"
		},
		{
			"anonymous": false,
			"inputs": [
				{
					"indexed": false,
					"internalType": "string",
					"name": "name",
					"type": "string"
				},
				{
					"indexed": false,
					"internalType": "string",
					"name": "sound",
					"type": "string"
				}
			],
			"name": "Talk",
			"type": "event"
		},
		{
			"inputs": [],
			"name": "bark",
			"outputs": [],
			"stateMutability": "nonpayable",
			"type": "function"
		},
		{
			"inputs": [],
			"name": "talk",
			"outputs": [],
			"stateMutability": "nonpayable",
			"type": "function"
		}
	]
}