{
	"data": {
		"bytecode": {
			"linkReferences": {},
			"object": "608060405234801561001057600080fd5b50610218806100206000396000f3fe608060405234801561001057600080fd5b506004361061004c5760003560e01c806324b8ba5f1461005157806357de26a41461006d5780636d4ce63c14610077578063b46300ec14610095575b600080fd5b61006b6004803603810190610066919061010e565b61009f565b005b6100756100cb565b005b61007f6100d7565b60405161008c919061014a565b60405180910390f35b61009d6100ed565b005b806000806101000a81548160ff021916908360038111156100c3576100c261018a565b5b021790555050565b6100d5600361009f565b565b60008060009054906101000a900460ff16905090565b6100f7600161009f565b565b600081359050610108816101d2565b92915050565b600060208284031215610124576101236101b9565b5b6000610132848285016100f9565b91505092915050565b61014481610178565b82525050565b600060208201905061015f600083018461013b565b92915050565b6000819050610173826101be565b919050565b600061018382610165565b9050919050565b7f4e487b7100000000000000000000000000000000000000000000000000000000600052602160045260246000fd5b600080fd5b600481106101cf576101ce61018a565b5b50565b600481106101df57600080fd5b5056fea2646970667358221220f60a39016ab6eff5aca12dd7795a353d48d99a4f1fd0f26ec855c34b653265b164736f6c63430008070033",
			"opcodes": "PUSH1 0x80 PUSH1 0x40 MSTORE CALLVALUE DUP1 ISZERO PUSH2 0x10 JUMPI PUSH1 0x0 DUP1 REVERT JUMPDEST POP PUSH2 0x218 DUP1 PUSH2 0x20 PUSH1 0x0 CODECOPY PUSH1 0x0 RETURN INVALID PUSH1 0x80 PUSH1 0x40 MSTORE CALLVALUE DUP1 ISZERO PUSH2 0x10 JUMPI PUSH1 0x0 DUP1 REVERT JUMPDEST POP PUSH1 0x4 CALLDATASIZE LT PUSH2 0x4C JUMPI PUSH1 0x0 CALLDATALOAD PUSH1 0xE0 SHR DUP1 PUSH4 0x24B8BA5F EQ PUSH2 0x51 JUMPI DUP1 PUSH4 0x57DE26A4 EQ PUSH2 0x6D JUMPI DUP1 PUSH4 0x6D4CE63C EQ PUSH2 0x77 JUMPI DUP1 PUSH4 0xB46300EC EQ PUSH2 0x95 JUMPI JUMPDEST PUSH1 0x0 DUP1 REVERT JUMPDEST PUSH2 0x6B PUSH1 0x4 DUP1 CALLDATASIZE SUB DUP2 ADD SWAP1 PUSH2 0x66 SWAP2 SWAP1 PUSH2 0x10E JUMP JUMPDEST PUSH2 0x9F JUMP JUMPDEST STOP JUMPDEST PUSH2 0x75 PUSH2 0xCB JUMP JUMPDEST STOP JUMPDEST PUSH2 0x7F PUSH2 0xD7 JUMP JUMPDEST PUSH1 0x40 MLOAD PUSH2 0x8C SWAP2 SWAP1 PUSH2 0x14A JUMP JUMPDEST PUSH1 0x40 MLOAD DUP1 SWAP2 SUB SWAP1 RETURN JUMPDEST PUSH2 0x9D PUSH2 0xED JUMP JUMPDEST STOP JUMPDEST DUP1 PUSH1 0x0 DUP1 PUSH2 0x100 EXP DUP2 SLOAD DUP2 PUSH1 0xFF MUL NOT AND SWAP1 DUP4 PUSH1 0x3 DUP2 GT ISZERO PUSH2 0xC3 JUMPI PUSH2 0xC2 PUSH2 0x18A JUMP JUMPDEST JUMPDEST MUL OR SWAP1 SSTORE POP POP JUMP JUMPDEST PUSH2 0xD5 PUSH1 0x3 PUSH2 0x9F JUMP JUMPDEST JUMP JUMPDEST PUSH1 0x0 DUP1 PUSH1 0x0 SWAP1 SLOAD SWAP1 PUSH2 0x100 EXP SWAP1 DIV PUSH1 0xFF AND SWAP1 POP SWAP1 JUMP JUMPDEST PUSH2 0xF7 PUSH1 0x1 PUSH2 0x9F JUMP JUMPDEST JUMP JUMPDEST PUSH1 0x0 DUP2 CALLDATALOAD SWAP1 POP PUSH2 0x108 DUP2 PUSH2 0x1D2 JUMP JUMPDEST SWAP3 SWAP2 POP POP JUMP JUMPDEST PUSH1 0x0 PUSH1 0x20 DUP3 DUP5 SUB SLT ISZERO PUSH2 0x124 JUMPI PUSH2 0x123 PUSH2 0x1B9 JUMP JUMPDEST JUMPDEST PUSH1 0x0 PUSH2 0x132 DUP5 DUP3 DUP6 ADD PUSH2 0xF9 JUMP JUMPDEST SWAP2 POP POP SWAP3 SWAP2 POP POP JUMP JUMPDEST PUSH2 0x144 DUP2 PUSH2 0x178 JUMP JUMPDEST DUP3 MSTORE POP POP JUMP JUMPDEST PUSH1 0x0 PUSH1 0x20 DUP3 ADD SWAP1 POP PUSH2 0x15F PUSH1 0x0 DUP4 ADD DUP5 PUSH2 0x13B JUMP JUMPDEST SWAP3 SWAP2 POP POP JUMP JUMPDEST PUSH1 0x0 DUP2 SWAP1 POP PUSH2 0x173 DUP3 PUSH2 0x1BE JUMP JUMPDEST SWAP2 SWAP1 POP JUMP JUMPDEST PUSH1 0x0 PUSH2 0x183 DUP3 PUSH2 0x165 JUMP JUMPDEST SWAP1 POP SWAP2 SWAP1 POP JUMP JUMPDEST PUSH32 0x4E487B7100000000000000000000000000000000000000000000000000000000 PUSH1 0x0 MSTORE PUSH1 0x21 PUSH1 0x4 MSTORE PUSH1 0x24 PUSH1 0x0 REVERT JUMPDEST PUSH1 0x0 DUP1 REVERT JUMPDEST PUSH1 0x4 DUP2 LT PUSH2 0x1CF JUMPI PUSH2 0x1CE PUSH2 0x18A JUMP JUMPDEST JUMPDEST POP JUMP JUMPDEST PUSH1 0x4 DUP2 LT PUSH2 0x1DF JUMPI PUSH1 0x0 DUP1 REVERT JUMPDEST POP JUMP INVALID LOG2 PUSH5 0x6970667358 0x22 SLT KECCAK256 0xF6 EXP CODECOPY ADD PUSH11 0xB6EFF5ACA12DD7795A353D BASEFEE 0xD9 SWAP11 0x4F 0x1F 0xD0 CALLCODE PUSH15 0xC855C34B653265B164736F6C634300 ADDMOD SMOD STOP CALLER "
		},
		"gasEstimates": {
			"creation": {
				"codeDepositCost": "107200",
				"executionCost": "153",
				"totalCost": "107353"
			},
			"external": {
				"get()": "2590",
				"read()": "24460",
				"send()": "24504",
				"set(uint8)": "24628"
			}
		},
		"methodIdentifiers": {
			"get()": "6d4ce63c",
			"read()": "57de26a4",
			"send()": "b46300ec",
			"set(uint8)": "24b8ba5f"
		}
	},
	"abi": [
		{
			"inputs": [],
			"name": "get",
			"outputs": [
				{
					"internalType": "enum Enums.Status",
					"name": "",
					"type": "uint8"
				}
			],
			"stateMutability": "view",
			"type": "function"
		},
		{
			"inputs": [],
			"name": "read",
			"outputs": [],
			"stateMutability": "nonpayable",
			"type": "function"
		},
		{
			"inputs": [],
			"name": "send",
			"outputs": [],
			"stateMutability": "nonpayable",
			"type": "function"
		},
		{
			"inputs": [
				{
					"internalType": "enum Enums.Status",
					"name": "_s",
					"type": "uint8"
				}
			],
			"name": "set",
			"outputs": [],
			"stateMutability": "nonpayable",
			"type": "function"
		}
	]
}