{
	"data": {
		"bytecode": {
			"linkReferences": {},
			"object": "608060405234801561001057600080fd5b50610353806100206000396000f3fe608060405234801561001057600080fd5b50600436106100365760003560e01c8063188b85b41461003b578063a92100cb1461006b575b600080fd5b6100556004803603810190610050919061011f565b610075565b604051610062919061015b565b60405180910390f35b6100736100ad565b005b60008060005b8381116100a357808261008e9190610176565b9150808061009b90610229565b91505061007b565b5080915050919050565b60005b600a8112156100e75760006002826100c89190610272565b14156100d3576100d4565b5b80806100df906101e0565b9150506100b0565b5060005b600a8110156101075780806100ff90610229565b9150506100eb565b50565b60008135905061011981610306565b92915050565b60006020828403121561013557610134610301565b5b60006101438482850161010a565b91505092915050565b610155816101d6565b82525050565b6000602082019050610170600083018461014c565b92915050565b6000610181826101d6565b915061018c836101d6565b9250827fffffffffffffffffffffffffffffffffffffffffffffffffffffffffffffffff038211156101c1576101c06102a3565b5b828201905092915050565b6000819050919050565b6000819050919050565b60006101eb826101cc565b91507f7fffffffffffffffffffffffffffffffffffffffffffffffffffffffffffffff82141561021e5761021d6102a3565b5b600182019050919050565b6000610234826101d6565b91507fffffffffffffffffffffffffffffffffffffffffffffffffffffffffffffffff821415610267576102666102a3565b5b600182019050919050565b600061027d826101cc565b9150610288836101cc565b925082610298576102976102d2565b5b828207905092915050565b7f4e487b7100000000000000000000000000000000000000000000000000000000600052601160045260246000fd5b7f4e487b7100000000000000000000000000000000000000000000000000000000600052601260045260246000fd5b600080fd5b61030f816101d6565b811461031a57600080fd5b5056fea2646970667358221220854922a67a2939a8abb52ebe629161718ad62c4aaa7d780e382fbfdb99815ba664736f6c63430008070033",
			"opcodes": "PUSH1 0x80 PUSH1 0x40 MSTORE CALLVALUE DUP1 ISZERO PUSH2 0x10 JUMPI PUSH1 0x0 DUP1 REVERT JUMPDEST POP PUSH2 0x353 DUP1 PUSH2 0x20 PUSH1 0x0 CODECOPY PUSH1 0x0 RETURN INVALID PUSH1 0x80 PUSH1 0x40 MSTORE CALLVALUE DUP1 ISZERO PUSH2 0x10 JUMPI PUSH1 0x0 DUP1 REVERT JUMPDEST POP PUSH1 0x4 CALLDATASIZE LT PUSH2 0x36 JUMPI PUSH1 0x0 CALLDATALOAD PUSH1 0xE0 SHR DUP1 PUSH4 0x188B85B4 EQ PUSH2 0x3B JUMPI DUP1 PUSH4 0xA92100CB EQ PUSH2 0x6B JUMPI JUMPDEST PUSH1 0x0 DUP1 REVERT JUMPDEST PUSH2 0x55 PUSH1 0x4 DUP1 CALLDATASIZE SUB DUP2 ADD SWAP1 PUSH2 0x50 SWAP2 SWAP1 PUSH2 0x11F JUMP JUMPDEST PUSH2 0x75 JUMP JUMPDEST PUSH1 0x40 MLOAD PUSH2 0x62 SWAP2 SWAP1 PUSH2 0x15B JUMP JUMPDEST PUSH1 0x40 MLOAD DUP1 SWAP2 SUB SWAP1 RETURN JUMPDEST PUSH2 0x73 PUSH2 0xAD JUMP JUMPDEST STOP JUMPDEST PUSH1 0x0 DUP1 PUSH1 0x0 JUMPDEST DUP4 DUP2 GT PUSH2 0xA3 JUMPI DUP1 DUP3 PUSH2 0x8E SWAP2 SWAP1 PUSH2 0x176 JUMP JUMPDEST SWAP2 POP DUP1 DUP1 PUSH2 0x9B SWAP1 PUSH2 0x229 JUMP JUMPDEST SWAP2 POP POP PUSH2 0x7B JUMP JUMPDEST POP DUP1 SWAP2 POP POP SWAP2 SWAP1 POP JUMP JUMPDEST PUSH1 0x0 JUMPDEST PUSH1 0xA DUP2 SLT ISZERO PUSH2 0xE7 JUMPI PUSH1 0x0 PUSH1 0x2 DUP3 PUSH2 0xC8 SWAP2 SWAP1 PUSH2 0x272 JUMP JUMPDEST EQ ISZERO PUSH2 0xD3 JUMPI PUSH2 0xD4 JUMP JUMPDEST JUMPDEST DUP1 DUP1 PUSH2 0xDF SWAP1 PUSH2 0x1E0 JUMP JUMPDEST SWAP2 POP POP PUSH2 0xB0 JUMP JUMPDEST POP PUSH1 0x0 JUMPDEST PUSH1 0xA DUP2 LT ISZERO PUSH2 0x107 JUMPI DUP1 DUP1 PUSH2 0xFF SWAP1 PUSH2 0x229 JUMP JUMPDEST SWAP2 POP POP PUSH2 0xEB JUMP JUMPDEST POP JUMP JUMPDEST PUSH1 0x0 DUP2 CALLDATALOAD SWAP1 POP PUSH2 0x119 DUP2 PUSH2 0x306 JUMP JUMPDEST SWAP3 SWAP2 POP POP JUMP JUMPDEST PUSH1 0x0 PUSH1 0x20 DUP3 DUP5 SUB SLT ISZERO PUSH2 0x135 JUMPI PUSH2 0x134 PUSH2 0x301 JUMP JUMPDEST JUMPDEST PUSH1 0x0 PUSH2 0x143 DUP5 DUP3 DUP6 ADD PUSH2 0x10A JUMP JUMPDEST SWAP2 POP POP SWAP3 SWAP2 POP POP JUMP JUMPDEST PUSH2 0x155 DUP2 PUSH2 0x1D6 JUMP JUMPDEST DUP3 MSTORE POP POP JUMP JUMPDEST PUSH1 0x0 PUSH1 0x20 DUP3 ADD SWAP1 POP PUSH2 0x170 PUSH1 0x0 DUP4 ADD DUP5 PUSH2 0x14C JUMP JUMPDEST SWAP3 SWAP2 POP POP JUMP JUMPDEST PUSH1 0x0 PUSH2 0x181 DUP3 PUSH2 0x1D6 JUMP JUMPDEST SWAP2 POP PUSH2 0x18C DUP4 PUSH2 0x1D6 JUMP JUMPDEST SWAP3 POP DUP3 PUSH32 0xFFFFFFFFFFFFFFFFFFFFFFFFFFFFFFFFFFFFFFFFFFFFFFFFFFFFFFFFFFFFFFFF SUB DUP3 GT ISZERO PUSH2 0x1C1 JUMPI PUSH2 0x1C0 PUSH2 0x2A3 JUMP JUMPDEST JUMPDEST DUP3 DUP3 ADD SWAP1 POP SWAP3 SWAP2 POP POP JUMP JUMPDEST PUSH1 0x0 DUP2 SWAP1 POP SWAP2 SWAP1 POP JUMP JUMPDEST PUSH1 0x0 DUP2 SWAP1 POP SWAP2 SWAP1 POP JUMP JUMPDEST PUSH1 0x0 PUSH2 0x1EB DUP3 PUSH2 0x1CC JUMP JUMPDEST SWAP2 POP PUSH32 0x7FFFFFFFFFFFFFFFFFFFFFFFFFFFFFFFFFFFFFFFFFFFFFFFFFFFFFFFFFFFFFFF DUP3 EQ ISZERO PUSH2 0x21E JUMPI PUSH2 0x21D PUSH2 0x2A3 JUMP JUMPDEST JUMPDEST PUSH1 0x1 DUP3 ADD SWAP1 POP SWAP2 SWAP1 POP JUMP JUMPDEST PUSH1 0x0 PUSH2 0x234 DUP3 PUSH2 0x1D6 JUMP JUMPDEST SWAP2 POP PUSH32 0xFFFFFFFFFFFFFFFFFFFFFFFFFFFFFFFFFFFFFFFFFFFFFFFFFFFFFFFFFFFFFFFF DUP3 EQ ISZERO PUSH2 0x267 JUMPI PUSH2 0x266 PUSH2 0x2A3 JUMP JUMPDEST JUMPDEST PUSH1 0x1 DUP3 ADD SWAP1 POP SWAP2 SWAP1 POP JUMP JUMPDEST PUSH1 0x0 PUSH2 0x27D DUP3 PUSH2 0x1CC JUMP JUMPDEST SWAP2 POP PUSH2 0x288 DUP4 PUSH2 0x1CC JUMP JUMPDEST SWAP3 POP DUP3 PUSH2 0x298 JUMPI PUSH2 0x297 PUSH2 0x2D2 JUMP JUMPDEST JUMPDEST DUP3 DUP3 SMOD SWAP1 POP SWAP3 SWAP2 POP POP JUMP JUMPDEST PUSH32 0x4E487B7100000000000000000000000000000000000000000000000000000000 PUSH1 0x0 MSTORE PUSH1 0x11 PUSH1 0x4 MSTORE PUSH1 0x24 PUSH1 0x0 REVERT JUMPDEST PUSH32 0x4E487B7100000000000000000000000000000000000000000000000000000000 PUSH1 0x0 MSTORE PUSH1 0x12 PUSH1 0x4 MSTORE PUSH1 0x24 PUSH1 0x0 REVERT JUMPDEST PUSH1 0x0 DUP1 REVERT JUMPDEST PUSH2 0x30F DUP2 PUSH2 0x1D6 JUMP JUMPDEST DUP2 EQ PUSH2 0x31A JUMPI PUSH1 0x0 DUP1 REVERT JUMPDEST POP JUMP INVALID LOG2 PUSH5 0x6970667358 0x22 SLT KECCAK256 DUP6 0x49 0x22 0xA6 PUSH27 0x2939A8ABB52EBE629161718AD62C4AAA7D780E382FBFDB99815BA6 PUSH5 0x736F6C6343 STOP ADDMOD SMOD STOP CALLER "
		},
		"gasEstimates": {
			"creation": {
				"codeDepositCost": "170200",
				"executionCost": "214",
				"totalCost": "170414"
			},
			"external": {
				"loop()": "infinite",
				"sum(uint256)": "infinite"
			}
		},
		"methodIdentifiers": {
			"loop()": "a92100cb",
			"sum(uint256)": "188b85b4"
		}
	},
	"abi": [
		{
			"inputs": [],
			"name": "loop",
			"outputs": [],
			"stateMutability": "pure",
			"type": "function"
		},
		{
			"inputs": [
				{
					"internalType": "uint256",
					"name": "_n",
					"type": "uint256"
				}
			],
			"name": "sum",
			"outputs": [
				{
					"internalType": "uint256",
					"name": "",
					"type": "uint256"
				}
			],
			"stateMutability": "pure",
			"type": "function"
		}
	]
}