{
	"data": {
		"bytecode": {
			"linkReferences": {},
			"object": "608060405234801561001057600080fd5b50610536806100206000396000f3fe608060405234801561001057600080fd5b50600436106100625760003560e01c80632fbebd38146100675780635c975abb1461008357806361bc221a146100a1578063812600df146100bf578063c20efb90146100db578063c4ae3168146100f7575b600080fd5b610081600480360381019061007c91906102bd565b610101565b005b61008b61018d565b604051610098919061032b565b60405180910390f35b6100a96101a0565b6040516100b69190610366565b60405180910390f35b6100d960048036038101906100d491906102bd565b6101a6565b005b6100f560048036038101906100f091906102bd565b610211565b005b6100ff61027c565b005b60016000808282546101139190610392565b92505081905550600160009054906101000a900460ff161561016a576040517f08c379a000000000000000000000000000000000000000000000000000000000815260040161016190610346565b60405180910390fd5b80600081905550600260008082825461018391906103e8565b9250508190555050565b600160009054906101000a900460ff1681565b60005481565b600160009054906101000a900460ff16156101f6576040517f08c379a00000000000000000000000000000000000000000000000000000000081526004016101ed90610346565b60405180910390fd5b806000808282546102079190610392565b9250508190555050565b600160009054906101000a900460ff1615610261576040517f08c379a000000000000000000000000000000000000000000000000000000000815260040161025890610346565b60405180910390fd5b806000808282546102729190610442565b9250508190555050565b600160009054906101000a900460ff1615600160006101000a81548160ff021916908315150217905550565b6000813590506102b7816104e9565b92915050565b6000602082840312156102d3576102d26104bb565b5b60006102e1848285016102a8565b91505092915050565b6102f381610476565b82525050565b6000610306600683610381565b9150610311826104c0565b602082019050919050565b61032581610482565b82525050565b600060208201905061034060008301846102ea565b92915050565b6000602082019050818103600083015261035f816102f9565b9050919050565b600060208201905061037b600083018461031c565b92915050565b600082825260208201905092915050565b600061039d82610482565b91506103a883610482565b9250827fffffffffffffffffffffffffffffffffffffffffffffffffffffffffffffffff038211156103dd576103dc61048c565b5b828201905092915050565b60006103f382610482565b91506103fe83610482565b9250817fffffffffffffffffffffffffffffffffffffffffffffffffffffffffffffffff04831182151516156104375761043661048c565b5b828202905092915050565b600061044d82610482565b915061045883610482565b92508282101561046b5761046a61048c565b5b828203905092915050565b60008115159050919050565b6000819050919050565b7f4e487b7100000000000000000000000000000000000000000000000000000000600052601160045260246000fd5b600080fd5b7f7061757365640000000000000000000000000000000000000000000000000000600082015250565b6104f281610482565b81146104fd57600080fd5b5056fea26469706673582212209743d71c404efff5299f53c0dccaedef6be4173868d33c0e9b7b6641cb0daf0764736f6c63430008070033",
			"opcodes": "PUSH1 0x80 PUSH1 0x40 MSTORE CALLVALUE DUP1 ISZERO PUSH2 0x10 JUMPI PUSH1 0x0 DUP1 REVERT JUMPDEST POP PUSH2 0x536 DUP1 PUSH2 0x20 PUSH1 0x0 CODECOPY PUSH1 0x0 RETURN INVALID PUSH1 0x80 PUSH1 0x40 MSTORE CALLVALUE DUP1 ISZERO PUSH2 0x10 JUMPI PUSH1 0x0 DUP1 REVERT JUMPDEST POP PUSH1 0x4 CALLDATASIZE LT PUSH2 0x62 JUMPI PUSH1 0x0 CALLDATALOAD PUSH1 0xE0 SHR DUP1 PUSH4 0x2FBEBD38 EQ PUSH2 0x67 JUMPI DUP1 PUSH4 0x5C975ABB EQ PUSH2 0x83 JUMPI DUP1 PUSH4 0x61BC221A EQ PUSH2 0xA1 JUMPI DUP1 PUSH4 0x812600DF EQ PUSH2 0xBF JUMPI DUP1 PUSH4 0xC20EFB90 EQ PUSH2 0xDB JUMPI DUP1 PUSH4 0xC4AE3168 EQ PUSH2 0xF7 JUMPI JUMPDEST PUSH1 0x0 DUP1 REVERT JUMPDEST PUSH2 0x81 PUSH1 0x4 DUP1 CALLDATASIZE SUB DUP2 ADD SWAP1 PUSH2 0x7C SWAP2 SWAP1 PUSH2 0x2BD JUMP JUMPDEST PUSH2 0x101 JUMP JUMPDEST STOP JUMPDEST PUSH2 0x8B PUSH2 0x18D JUMP JUMPDEST PUSH1 0x40 MLOAD PUSH2 0x98 SWAP2 SWAP1 PUSH2 0x32B JUMP JUMPDEST PUSH1 0x40 MLOAD DUP1 SWAP2 SUB SWAP1 RETURN JUMPDEST PUSH2 0xA9 PUSH2 0x1A0 JUMP JUMPDEST PUSH1 0x40 MLOAD PUSH2 0xB6 SWAP2 SWAP1 PUSH2 0x366 JUMP JUMPDEST PUSH1 0x40 MLOAD DUP1 SWAP2 SUB SWAP1 RETURN JUMPDEST PUSH2 0xD9 PUSH1 0x4 DUP1 CALLDATASIZE SUB DUP2 ADD SWAP1 PUSH2 0xD4 SWAP2 SWAP1 PUSH2 0x2BD JUMP JUMPDEST PUSH2 0x1A6 JUMP JUMPDEST STOP JUMPDEST PUSH2 0xF5 PUSH1 0x4 DUP1 CALLDATASIZE SUB DUP2 ADD SWAP1 PUSH2 0xF0 SWAP2 SWAP1 PUSH2 0x2BD JUMP JUMPDEST PUSH2 0x211 JUMP JUMPDEST STOP JUMPDEST PUSH2 0xFF PUSH2 0x27C JUMP JUMPDEST STOP JUMPDEST PUSH1 0x1 PUSH1 0x0 DUP1 DUP3 DUP3 SLOAD PUSH2 0x113 SWAP2 SWAP1 PUSH2 0x392 JUMP JUMPDEST SWAP3 POP POP DUP2 SWAP1 SSTORE POP PUSH1 0x1 PUSH1 0x0 SWAP1 SLOAD SWAP1 PUSH2 0x100 EXP SWAP1 DIV PUSH1 0xFF AND ISZERO PUSH2 0x16A JUMPI PUSH1 0x40 MLOAD PUSH32 0x8C379A000000000000000000000000000000000000000000000000000000000 DUP2 MSTORE PUSH1 0x4 ADD PUSH2 0x161 SWAP1 PUSH2 0x346 JUMP JUMPDEST PUSH1 0x40 MLOAD DUP1 SWAP2 SUB SWAP1 REVERT JUMPDEST DUP1 PUSH1 0x0 DUP2 SWAP1 SSTORE POP PUSH1 0x2 PUSH1 0x0 DUP1 DUP3 DUP3 SLOAD PUSH2 0x183 SWAP2 SWAP1 PUSH2 0x3E8 JUMP JUMPDEST SWAP3 POP POP DUP2 SWAP1 SSTORE POP POP JUMP JUMPDEST PUSH1 0x1 PUSH1 0x0 SWAP1 SLOAD SWAP1 PUSH2 0x100 EXP SWAP1 DIV PUSH1 0xFF AND DUP2 JUMP JUMPDEST PUSH1 0x0 SLOAD DUP2 JUMP JUMPDEST PUSH1 0x1 PUSH1 0x0 SWAP1 SLOAD SWAP1 PUSH2 0x100 EXP SWAP1 DIV PUSH1 0xFF AND ISZERO PUSH2 0x1F6 JUMPI PUSH1 0x40 MLOAD PUSH32 0x8C379A000000000000000000000000000000000000000000000000000000000 DUP2 MSTORE PUSH1 0x4 ADD PUSH2 0x1ED SWAP1 PUSH2 0x346 JUMP JUMPDEST PUSH1 0x40 MLOAD DUP1 SWAP2 SUB SWAP1 REVERT JUMPDEST DUP1 PUSH1 0x0 DUP1 DUP3 DUP3 SLOAD PUSH2 0x207 SWAP2 SWAP1 PUSH2 0x392 JUMP JUMPDEST SWAP3 POP POP DUP2 SWAP1 SSTORE POP POP JUMP JUMPDEST PUSH1 0x1 PUSH1 0x0 SWAP1 SLOAD SWAP1 PUSH2 0x100 EXP SWAP1 DIV PUSH1 0xFF AND ISZERO PUSH2 0x261 JUMPI PUSH1 0x40 MLOAD PUSH32 0x8C379A000000000000000000000000000000000000000000000000000000000 DUP2 MSTORE PUSH1 0x4 ADD PUSH2 0x258 SWAP1 PUSH2 0x346 JUMP JUMPDEST PUSH1 0x40 MLOAD DUP1 SWAP2 SUB SWAP1 REVERT JUMPDEST DUP1 PUSH1 0x0 DUP1 DUP3 DUP3 SLOAD PUSH2 0x272 SWAP2 SWAP1 PUSH2 0x442 JUMP JUMPDEST SWAP3 POP POP DUP2 SWAP1 SSTORE POP POP JUMP JUMPDEST PUSH1 0x1 PUSH1 0x0 SWAP1 SLOAD SWAP1 PUSH2 0x100 EXP SWAP1 DIV PUSH1 0xFF AND ISZERO PUSH1 0x1 PUSH1 0x0 PUSH2 0x100 EXP DUP2 SLOAD DUP2 PUSH1 0xFF MUL NOT AND SWAP1 DUP4 ISZERO ISZERO MUL OR SWAP1 SSTORE POP JUMP JUMPDEST PUSH1 0x0 DUP2 CALLDATALOAD SWAP1 POP PUSH2 0x2B7 DUP2 PUSH2 0x4E9 JUMP JUMPDEST SWAP3 SWAP2 POP POP JUMP JUMPDEST PUSH1 0x0 PUSH1 0x20 DUP3 DUP5 SUB SLT ISZERO PUSH2 0x2D3 JUMPI PUSH2 0x2D2 PUSH2 0x4BB JUMP JUMPDEST JUMPDEST PUSH1 0x0 PUSH2 0x2E1 DUP5 DUP3 DUP6 ADD PUSH2 0x2A8 JUMP JUMPDEST SWAP2 POP POP SWAP3 SWAP2 POP POP JUMP JUMPDEST PUSH2 0x2F3 DUP2 PUSH2 0x476 JUMP JUMPDEST DUP3 MSTORE POP POP JUMP JUMPDEST PUSH1 0x0 PUSH2 0x306 PUSH1 0x6 DUP4 PUSH2 0x381 JUMP JUMPDEST SWAP2 POP PUSH2 0x311 DUP3 PUSH2 0x4C0 JUMP JUMPDEST PUSH1 0x20 DUP3 ADD SWAP1 POP SWAP2 SWAP1 POP JUMP JUMPDEST PUSH2 0x325 DUP2 PUSH2 0x482 JUMP JUMPDEST DUP3 MSTORE POP POP JUMP JUMPDEST PUSH1 0x0 PUSH1 0x20 DUP3 ADD SWAP1 POP PUSH2 0x340 PUSH1 0x0 DUP4 ADD DUP5 PUSH2 0x2EA JUMP JUMPDEST SWAP3 SWAP2 POP POP JUMP JUMPDEST PUSH1 0x0 PUSH1 0x20 DUP3 ADD SWAP1 POP DUP2 DUP2 SUB PUSH1 0x0 DUP4 ADD MSTORE PUSH2 0x35F DUP2 PUSH2 0x2F9 JUMP JUMPDEST SWAP1 POP SWAP2 SWAP1 POP JUMP JUMPDEST PUSH1 0x0 PUSH1 0x20 DUP3 ADD SWAP1 POP PUSH2 0x37B PUSH1 0x0 DUP4 ADD DUP5 PUSH2 0x31C JUMP JUMPDEST SWAP3 SWAP2 POP POP JUMP JUMPDEST PUSH1 0x0 DUP3 DUP3 MSTORE PUSH1 0x20 DUP3 ADD SWAP1 POP SWAP3 SWAP2 POP POP JUMP JUMPDEST PUSH1 0x0 PUSH2 0x39D DUP3 PUSH2 0x482 JUMP JUMPDEST SWAP2 POP PUSH2 0x3A8 DUP4 PUSH2 0x482 JUMP JUMPDEST SWAP3 POP DUP3 PUSH32 0xFFFFFFFFFFFFFFFFFFFFFFFFFFFFFFFFFFFFFFFFFFFFFFFFFFFFFFFFFFFFFFFF SUB DUP3 GT ISZERO PUSH2 0x3DD JUMPI PUSH2 0x3DC PUSH2 0x48C JUMP JUMPDEST JUMPDEST DUP3 DUP3 ADD SWAP1 POP SWAP3 SWAP2 POP POP JUMP JUMPDEST PUSH1 0x0 PUSH2 0x3F3 DUP3 PUSH2 0x482 JUMP JUMPDEST SWAP2 POP PUSH2 0x3FE DUP4 PUSH2 0x482 JUMP JUMPDEST SWAP3 POP DUP2 PUSH32 0xFFFFFFFFFFFFFFFFFFFFFFFFFFFFFFFFFFFFFFFFFFFFFFFFFFFFFFFFFFFFFFFF DIV DUP4 GT DUP3 ISZERO ISZERO AND ISZERO PUSH2 0x437 JUMPI PUSH2 0x436 PUSH2 0x48C JUMP JUMPDEST JUMPDEST DUP3 DUP3 MUL SWAP1 POP SWAP3 SWAP2 POP POP JUMP JUMPDEST PUSH1 0x0 PUSH2 0x44D DUP3 PUSH2 0x482 JUMP JUMPDEST SWAP2 POP PUSH2 0x458 DUP4 PUSH2 0x482 JUMP JUMPDEST SWAP3 POP DUP3 DUP3 LT ISZERO PUSH2 0x46B JUMPI PUSH2 0x46A PUSH2 0x48C JUMP JUMPDEST JUMPDEST DUP3 DUP3 SUB SWAP1 POP SWAP3 SWAP2 POP POP JUMP JUMPDEST PUSH1 0x0 DUP2 ISZERO ISZERO SWAP1 POP SWAP2 SWAP1 POP JUMP JUMPDEST PUSH1 0x0 DUP2 SWAP1 POP SWAP2 SWAP1 POP JUMP JUMPDEST PUSH32 0x4E487B7100000000000000000000000000000000000000000000000000000000 PUSH1 0x0 MSTORE PUSH1 0x11 PUSH1 0x4 MSTORE PUSH1 0x24 PUSH1 0x0 REVERT JUMPDEST PUSH1 0x0 DUP1 REVERT JUMPDEST PUSH32 0x7061757365640000000000000000000000000000000000000000000000000000 PUSH1 0x0 DUP3 ADD MSTORE POP JUMP JUMPDEST PUSH2 0x4F2 DUP2 PUSH2 0x482 JUMP JUMPDEST DUP2 EQ PUSH2 0x4FD JUMPI PUSH1 0x0 DUP1 REVERT JUMPDEST POP JUMP INVALID LOG2 PUSH5 0x6970667358 0x22 SLT KECCAK256 SWAP8 NUMBER 0xD7 SHR BLOCKHASH 0x4E SELFDESTRUCT CREATE2 0x29 SWAP16 MSTORE8 0xC0 0xDC 0xCA 0xED 0xEF PUSH12 0xE4173868D33C0E9B7B6641CB 0xD 0xAF SMOD PUSH5 0x736F6C6343 STOP ADDMOD SMOD STOP CALLER "
		},
		"gasEstimates": {
			"creation": {
				"codeDepositCost": "266800",
				"executionCost": "306",
				"totalCost": "267106"
			},
			"external": {
				"counter()": "2451",
				"dec(uint256)": "infinite",
				"foo(uint256)": "infinite",
				"inc(uint256)": "infinite",
				"paused()": "2471",
				"togglePause()": "26638"
			}
		},
		"methodIdentifiers": {
			"counter()": "61bc221a",
			"dec(uint256)": "c20efb90",
			"foo(uint256)": "2fbebd38",
			"inc(uint256)": "812600df",
			"paused()": "5c975abb",
			"togglePause()": "c4ae3168"
		}
	},
	"abi": [
		{
			"inputs": [],
			"name": "counter",
			"outputs": [
				{
					"internalType": "uint256",
					"name": "",
					"type": "uint256"
				}
			],
			"stateMutability": "view",
			"type": "function"
		},
		{
			"inputs": [
				{
					"internalType": "uint256",
					"name": "i",
					"type": "uint256"
				}
			],
			"name": "dec",
			"outputs": [],
			"stateMutability": "nonpayable",
			"type": "function"
		},
		{
			"inputs": [
				{
					"internalType": "uint256",
					"name": "i",
					"type": "uint256"
				}
			],
			"name": "foo",
			"outputs": [],
			"stateMutability": "nonpayable",
			"type": "function"
		},
		{
			"inputs": [
				{
					"internalType": "uint256",
					"name": "i",
					"type": "uint256"
				}
			],
			"name": "inc",
			"outputs": [],
			"stateMutability": "nonpayable",
			"type": "function"
		},
		{
			"inputs": [],
			"name": "paused",
			"outputs": [
				{
					"internalType": "bool",
					"name": "",
					"type": "bool"
				}
			],
			"stateMutability": "view",
			"type": "function"
		},
		{
			"inputs": [],
			"name": "togglePause",
			"outputs": [],
			"stateMutability": "nonpayable",
			"type": "function"
		}
	]
}