{
	"data": {
		"bytecode": {
			"linkReferences": {},
			"object": "60a060405234801561001057600080fd5b506040516108d73803806108d7833981810160405281019061003291906100cf565b8073ffffffffffffffffffffffffffffffffffffffff1660808173ffffffffffffffffffffffffffffffffffffffff1681525050506100fc565b600080fd5b600073ffffffffffffffffffffffffffffffffffffffff82169050919050565b600061009c82610071565b9050919050565b6100ac81610091565b81146100b757600080fd5b50565b6000815190506100c9816100a3565b92915050565b6000602082840312156100e5576100e461006c565b5b60006100f3848285016100ba565b91505092915050565b6080516107b36101246000396000818160cd0152818161019f015261025e01526107b36000f3fe608060405234801561001057600080fd5b50600436106100415760003560e01c806327e235e3146100465780632e1a7d4d14610076578063b6b55f2514610092575b600080fd5b610060600480360381019061005b9190610448565b6100ae565b60405161006d919061048e565b60405180910390f35b610090600480360381019061008b91906104d5565b6100c6565b005b6100ac60048036038101906100a791906104d5565b61018a565b005b60006020528060005260406000206000915090505481565b60006001547f000000000000000000000000000000000000000000000000000000000000000073ffffffffffffffffffffffffffffffffffffffff166370a08231306040518263ffffffff1660e01b81526004016101249190610511565b602060405180830381865afa158015610141573d6000803e3d6000fd5b505050506040513d601f19601f820116820180604052508101906101659190610541565b83610170919061059d565b61017a9190610626565b90506101863382610301565b5050565b6000806001540361019d57819050610252565b7f000000000000000000000000000000000000000000000000000000000000000073ffffffffffffffffffffffffffffffffffffffff166370a08231306040518263ffffffff1660e01b81526004016101f69190610511565b602060405180830381865afa158015610213573d6000803e3d6000fd5b505050506040513d601f19601f820116820180604052508101906102379190610541565b60015483610245919061059d565b61024f9190610626565b90505b61025c3382610373565b7f000000000000000000000000000000000000000000000000000000000000000073ffffffffffffffffffffffffffffffffffffffff166323b872dd3330856040518463ffffffff1660e01b81526004016102b993929190610657565b6020604051808303816000875af11580156102d8573d6000803e3d6000fd5b505050506040513d601f19601f820116820180604052508101906102fc91906106c6565b505050565b806001600082825461031391906106f3565b92505081905550806000808473ffffffffffffffffffffffffffffffffffffffff1673ffffffffffffffffffffffffffffffffffffffff168152602001908152602001600020600082825461036891906106f3565b925050819055505050565b80600160008282546103859190610727565b92505081905550806000808473ffffffffffffffffffffffffffffffffffffffff1673ffffffffffffffffffffffffffffffffffffffff16815260200190815260200160002060008282546103da9190610727565b925050819055505050565b600080fd5b600073ffffffffffffffffffffffffffffffffffffffff82169050919050565b6000610415826103ea565b9050919050565b6104258161040a565b811461043057600080fd5b50565b6000813590506104428161041c565b92915050565b60006020828403121561045e5761045d6103e5565b5b600061046c84828501610433565b91505092915050565b6000819050919050565b61048881610475565b82525050565b60006020820190506104a3600083018461047f565b92915050565b6104b281610475565b81146104bd57600080fd5b50565b6000813590506104cf816104a9565b92915050565b6000602082840312156104eb576104ea6103e5565b5b60006104f9848285016104c0565b91505092915050565b61050b8161040a565b82525050565b60006020820190506105266000830184610502565b92915050565b60008151905061053b816104a9565b92915050565b600060208284031215610557576105566103e5565b5b60006105658482850161052c565b91505092915050565b7f4e487b7100000000000000000000000000000000000000000000000000000000600052601160045260246000fd5b60006105a882610475565b91506105b383610475565b9250817fffffffffffffffffffffffffffffffffffffffffffffffffffffffffffffffff04831182151516156105ec576105eb61056e565b5b828202905092915050565b7f4e487b7100000000000000000000000000000000000000000000000000000000600052601260045260246000fd5b600061063182610475565b915061063c83610475565b92508261064c5761064b6105f7565b5b828204905092915050565b600060608201905061066c6000830186610502565b6106796020830185610502565b610686604083018461047f565b949350505050565b60008115159050919050565b6106a38161068e565b81146106ae57600080fd5b50565b6000815190506106c08161069a565b92915050565b6000602082840312156106dc576106db6103e5565b5b60006106ea848285016106b1565b91505092915050565b60006106fe82610475565b915061070983610475565b92508282101561071c5761071b61056e565b5b828203905092915050565b600061073282610475565b915061073d83610475565b9250827fffffffffffffffffffffffffffffffffffffffffffffffffffffffffffffffff038211156107725761077161056e565b5b82820190509291505056fea2646970667358221220cbc00620b4f657387fc88d5d95935e24ef0e140b116aeb27df595167647df01964736f6c634300080f0033",
			"opcodes": "PUSH1 0xA0 PUSH1 0x40 MSTORE CALLVALUE DUP1 ISZERO PUSH2 0x10 JUMPI PUSH1 0x0 DUP1 REVERT JUMPDEST POP PUSH1 0x40 MLOAD PUSH2 0x8D7 CODESIZE SUB DUP1 PUSH2 0x8D7 DUP4 CODECOPY DUP2 DUP2 ADD PUSH1 0x40 MSTORE DUP2 ADD SWAP1 PUSH2 0x32 SWAP2 SWAP1 PUSH2 0xCF JUMP JUMPDEST DUP1 PUSH20 0xFFFFFFFFFFFFFFFFFFFFFFFFFFFFFFFFFFFFFFFF AND PUSH1 0x80 DUP2 PUSH20 0xFFFFFFFFFFFFFFFFFFFFFFFFFFFFFFFFFFFFFFFF AND DUP2 MSTORE POP POP POP PUSH2 0xFC JUMP JUMPDEST PUSH1 0x0 DUP1 REVERT JUMPDEST PUSH1 0x0 PUSH20 0xFFFFFFFFFFFFFFFFFFFFFFFFFFFFFFFFFFFFFFFF DUP3 AND SWAP1 POP SWAP2 SWAP1 POP JUMP JUMPDEST PUSH1 0x0 PUSH2 0x9C DUP3 PUSH2 0x71 JUMP JUMPDEST SWAP1 POP SWAP2 SWAP1 POP JUMP JUMPDEST PUSH2 0xAC DUP2 PUSH2 0x91 JUMP JUMPDEST DUP2 EQ PUSH2 0xB7 JUMPI PUSH1 0x0 DUP1 REVERT JUMPDEST POP JUMP JUMPDEST PUSH1 0x0 DUP2 MLOAD SWAP1 POP PUSH2 0xC9 DUP2 PUSH2 0xA3 JUMP JUMPDEST SWAP3 SWAP2 POP POP JUMP JUMPDEST PUSH1 0x0 PUSH1 0x20 DUP3 DUP5 SUB SLT ISZERO PUSH2 0xE5 JUMPI PUSH2 0xE4 PUSH2 0x6C JUMP JUMPDEST JUMPDEST PUSH1 0x0 PUSH2 0xF3 DUP5 DUP3 DUP6 ADD PUSH2 0xBA JUMP JUMPDEST SWAP2 POP POP SWAP3 SWAP2 POP POP JUMP JUMPDEST PUSH1 0x80 MLOAD PUSH2 0x7B3 PUSH2 0x124 PUSH1 0x0 CODECOPY PUSH1 0x0 DUP2 DUP2 PUSH1 0xCD ADD MSTORE DUP2 DUP2 PUSH2 0x19F ADD MSTORE PUSH2 0x25E ADD MSTORE PUSH2 0x7B3 PUSH1 0x0 RETURN INVALID PUSH1 0x80 PUSH1 0x40 MSTORE CALLVALUE DUP1 ISZERO PUSH2 0x10 JUMPI PUSH1 0x0 DUP1 REVERT JUMPDEST POP PUSH1 0x4 CALLDATASIZE LT PUSH2 0x41 JUMPI PUSH1 0x0 CALLDATALOAD PUSH1 0xE0 SHR DUP1 PUSH4 0x27E235E3 EQ PUSH2 0x46 JUMPI DUP1 PUSH4 0x2E1A7D4D EQ PUSH2 0x76 JUMPI DUP1 PUSH4 0xB6B55F25 EQ PUSH2 0x92 JUMPI JUMPDEST PUSH1 0x0 DUP1 REVERT JUMPDEST PUSH2 0x60 PUSH1 0x4 DUP1 CALLDATASIZE SUB DUP2 ADD SWAP1 PUSH2 0x5B SWAP2 SWAP1 PUSH2 0x448 JUMP JUMPDEST PUSH2 0xAE JUMP JUMPDEST PUSH1 0x40 MLOAD PUSH2 0x6D SWAP2 SWAP1 PUSH2 0x48E JUMP JUMPDEST PUSH1 0x40 MLOAD DUP1 SWAP2 SUB SWAP1 RETURN JUMPDEST PUSH2 0x90 PUSH1 0x4 DUP1 CALLDATASIZE SUB DUP2 ADD SWAP1 PUSH2 0x8B SWAP2 SWAP1 PUSH2 0x4D5 JUMP JUMPDEST PUSH2 0xC6 JUMP JUMPDEST STOP JUMPDEST PUSH2 0xAC PUSH1 0x4 DUP1 CALLDATASIZE SUB DUP2 ADD SWAP1 PUSH2 0xA7 SWAP2 SWAP1 PUSH2 0x4D5 JUMP JUMPDEST PUSH2 0x18A JUMP JUMPDEST STOP JUMPDEST PUSH1 0x0 PUSH1 0x20 MSTORE DUP1 PUSH1 0x0 MSTORE PUSH1 0x40 PUSH1 0x0 KECCAK256 PUSH1 0x0 SWAP2 POP SWAP1 POP SLOAD DUP2 JUMP JUMPDEST PUSH1 0x0 PUSH1 0x1 SLOAD PUSH32 0x0 PUSH20 0xFFFFFFFFFFFFFFFFFFFFFFFFFFFFFFFFFFFFFFFF AND PUSH4 0x70A08231 ADDRESS PUSH1 0x40 MLOAD DUP3 PUSH4 0xFFFFFFFF AND PUSH1 0xE0 SHL DUP2 MSTORE PUSH1 0x4 ADD PUSH2 0x124 SWAP2 SWAP1 PUSH2 0x511 JUMP JUMPDEST PUSH1 0x20 PUSH1 0x40 MLOAD DUP1 DUP4 SUB DUP2 DUP7 GAS STATICCALL ISZERO DUP1 ISZERO PUSH2 0x141 JUMPI RETURNDATASIZE PUSH1 0x0 DUP1 RETURNDATACOPY RETURNDATASIZE PUSH1 0x0 REVERT JUMPDEST POP POP POP POP PUSH1 0x40 MLOAD RETURNDATASIZE PUSH1 0x1F NOT PUSH1 0x1F DUP3 ADD AND DUP3 ADD DUP1 PUSH1 0x40 MSTORE POP DUP2 ADD SWAP1 PUSH2 0x165 SWAP2 SWAP1 PUSH2 0x541 JUMP JUMPDEST DUP4 PUSH2 0x170 SWAP2 SWAP1 PUSH2 0x59D JUMP JUMPDEST PUSH2 0x17A SWAP2 SWAP1 PUSH2 0x626 JUMP JUMPDEST SWAP1 POP PUSH2 0x186 CALLER DUP3 PUSH2 0x301 JUMP JUMPDEST POP POP JUMP JUMPDEST PUSH1 0x0 DUP1 PUSH1 0x1 SLOAD SUB PUSH2 0x19D JUMPI DUP2 SWAP1 POP PUSH2 0x252 JUMP JUMPDEST PUSH32 0x0 PUSH20 0xFFFFFFFFFFFFFFFFFFFFFFFFFFFFFFFFFFFFFFFF AND PUSH4 0x70A08231 ADDRESS PUSH1 0x40 MLOAD DUP3 PUSH4 0xFFFFFFFF AND PUSH1 0xE0 SHL DUP2 MSTORE PUSH1 0x4 ADD PUSH2 0x1F6 SWAP2 SWAP1 PUSH2 0x511 JUMP JUMPDEST PUSH1 0x20 PUSH1 0x40 MLOAD DUP1 DUP4 SUB DUP2 DUP7 GAS STATICCALL ISZERO DUP1 ISZERO PUSH2 0x213 JUMPI RETURNDATASIZE PUSH1 0x0 DUP1 RETURNDATACOPY RETURNDATASIZE PUSH1 0x0 REVERT JUMPDEST POP POP POP POP PUSH1 0x40 MLOAD RETURNDATASIZE PUSH1 0x1F NOT PUSH1 0x1F DUP3 ADD AND DUP3 ADD DUP1 PUSH1 0x40 MSTORE POP DUP2 ADD SWAP1 PUSH2 0x237 SWAP2 SWAP1 PUSH2 0x541 JUMP JUMPDEST PUSH1 0x1 SLOAD DUP4 PUSH2 0x245 SWAP2 SWAP1 PUSH2 0x59D JUMP JUMPDEST PUSH2 0x24F SWAP2 SWAP1 PUSH2 0x626 JUMP JUMPDEST SWAP1 POP JUMPDEST PUSH2 0x25C CALLER DUP3 PUSH2 0x373 JUMP JUMPDEST PUSH32 0x0 PUSH20 0xFFFFFFFFFFFFFFFFFFFFFFFFFFFFFFFFFFFFFFFF AND PUSH4 0x23B872DD CALLER ADDRESS DUP6 PUSH1 0x40 MLOAD DUP5 PUSH4 0xFFFFFFFF AND PUSH1 0xE0 SHL DUP2 MSTORE PUSH1 0x4 ADD PUSH2 0x2B9 SWAP4 SWAP3 SWAP2 SWAP1 PUSH2 0x657 JUMP JUMPDEST PUSH1 0x20 PUSH1 0x40 MLOAD DUP1 DUP4 SUB DUP2 PUSH1 0x0 DUP8 GAS CALL ISZERO DUP1 ISZERO PUSH2 0x2D8 JUMPI RETURNDATASIZE PUSH1 0x0 DUP1 RETURNDATACOPY RETURNDATASIZE PUSH1 0x0 REVERT JUMPDEST POP POP POP POP PUSH1 0x40 MLOAD RETURNDATASIZE PUSH1 0x1F NOT PUSH1 0x1F DUP3 ADD AND DUP3 ADD DUP1 PUSH1 0x40 MSTORE POP DUP2 ADD SWAP1 PUSH2 0x2FC SWAP2 SWAP1 PUSH2 0x6C6 JUMP JUMPDEST POP POP POP JUMP JUMPDEST DUP1 PUSH1 0x1 PUSH1 0x0 DUP3 DUP3 SLOAD PUSH2 0x313 SWAP2 SWAP1 PUSH2 0x6F3 JUMP JUMPDEST SWAP3 POP POP DUP2 SWAP1 SSTORE POP DUP1 PUSH1 0x0 DUP1 DUP5 PUSH20 0xFFFFFFFFFFFFFFFFFFFFFFFFFFFFFFFFFFFFFFFF AND PUSH20 0xFFFFFFFFFFFFFFFFFFFFFFFFFFFFFFFFFFFFFFFF AND DUP2 MSTORE PUSH1 0x20 ADD SWAP1 DUP2 MSTORE PUSH1 0x20 ADD PUSH1 0x0 KECCAK256 PUSH1 0x0 DUP3 DUP3 SLOAD PUSH2 0x368 SWAP2 SWAP1 PUSH2 0x6F3 JUMP JUMPDEST SWAP3 POP POP DUP2 SWAP1 SSTORE POP POP POP JUMP JUMPDEST DUP1 PUSH1 0x1 PUSH1 0x0 DUP3 DUP3 SLOAD PUSH2 0x385 SWAP2 SWAP1 PUSH2 0x727 JUMP JUMPDEST SWAP3 POP POP DUP2 SWAP1 SSTORE POP DUP1 PUSH1 0x0 DUP1 DUP5 PUSH20 0xFFFFFFFFFFFFFFFFFFFFFFFFFFFFFFFFFFFFFFFF AND PUSH20 0xFFFFFFFFFFFFFFFFFFFFFFFFFFFFFFFFFFFFFFFF AND DUP2 MSTORE PUSH1 0x20 ADD SWAP1 DUP2 MSTORE PUSH1 0x20 ADD PUSH1 0x0 KECCAK256 PUSH1 0x0 DUP3 DUP3 SLOAD PUSH2 0x3DA SWAP2 SWAP1 PUSH2 0x727 JUMP JUMPDEST SWAP3 POP POP DUP2 SWAP1 SSTORE POP POP POP JUMP JUMPDEST PUSH1 0x0 DUP1 REVERT JUMPDEST PUSH1 0x0 PUSH20 0xFFFFFFFFFFFFFFFFFFFFFFFFFFFFFFFFFFFFFFFF DUP3 AND SWAP1 POP SWAP2 SWAP1 POP JUMP JUMPDEST PUSH1 0x0 PUSH2 0x415 DUP3 PUSH2 0x3EA JUMP JUMPDEST SWAP1 POP SWAP2 SWAP1 POP JUMP JUMPDEST PUSH2 0x425 DUP2 PUSH2 0x40A JUMP JUMPDEST DUP2 EQ PUSH2 0x430 JUMPI PUSH1 0x0 DUP1 REVERT JUMPDEST POP JUMP JUMPDEST PUSH1 0x0 DUP2 CALLDATALOAD SWAP1 POP PUSH2 0x442 DUP2 PUSH2 0x41C JUMP JUMPDEST SWAP3 SWAP2 POP POP JUMP JUMPDEST PUSH1 0x0 PUSH1 0x20 DUP3 DUP5 SUB SLT ISZERO PUSH2 0x45E JUMPI PUSH2 0x45D PUSH2 0x3E5 JUMP JUMPDEST JUMPDEST PUSH1 0x0 PUSH2 0x46C DUP5 DUP3 DUP6 ADD PUSH2 0x433 JUMP JUMPDEST SWAP2 POP POP SWAP3 SWAP2 POP POP JUMP JUMPDEST PUSH1 0x0 DUP2 SWAP1 POP SWAP2 SWAP1 POP JUMP JUMPDEST PUSH2 0x488 DUP2 PUSH2 0x475 JUMP JUMPDEST DUP3 MSTORE POP POP JUMP JUMPDEST PUSH1 0x0 PUSH1 0x20 DUP3 ADD SWAP1 POP PUSH2 0x4A3 PUSH1 0x0 DUP4 ADD DUP5 PUSH2 0x47F JUMP JUMPDEST SWAP3 SWAP2 POP POP JUMP JUMPDEST PUSH2 0x4B2 DUP2 PUSH2 0x475 JUMP JUMPDEST DUP2 EQ PUSH2 0x4BD JUMPI PUSH1 0x0 DUP1 REVERT JUMPDEST POP JUMP JUMPDEST PUSH1 0x0 DUP2 CALLDATALOAD SWAP1 POP PUSH2 0x4CF DUP2 PUSH2 0x4A9 JUMP JUMPDEST SWAP3 SWAP2 POP POP JUMP JUMPDEST PUSH1 0x0 PUSH1 0x20 DUP3 DUP5 SUB SLT ISZERO PUSH2 0x4EB JUMPI PUSH2 0x4EA PUSH2 0x3E5 JUMP JUMPDEST JUMPDEST PUSH1 0x0 PUSH2 0x4F9 DUP5 DUP3 DUP6 ADD PUSH2 0x4C0 JUMP JUMPDEST SWAP2 POP POP SWAP3 SWAP2 POP POP JUMP JUMPDEST PUSH2 0x50B DUP2 PUSH2 0x40A JUMP JUMPDEST DUP3 MSTORE POP POP JUMP JUMPDEST PUSH1 0x0 PUSH1 0x20 DUP3 ADD SWAP1 POP PUSH2 0x526 PUSH1 0x0 DUP4 ADD DUP5 PUSH2 0x502 JUMP JUMPDEST SWAP3 SWAP2 POP POP JUMP JUMPDEST PUSH1 0x0 DUP2 MLOAD SWAP1 POP PUSH2 0x53B DUP2 PUSH2 0x4A9 JUMP JUMPDEST SWAP3 SWAP2 POP POP JUMP JUMPDEST PUSH1 0x0 PUSH1 0x20 DUP3 DUP5 SUB SLT ISZERO PUSH2 0x557 JUMPI PUSH2 0x556 PUSH2 0x3E5 JUMP JUMPDEST JUMPDEST PUSH1 0x0 PUSH2 0x565 DUP5 DUP3 DUP6 ADD PUSH2 0x52C JUMP JUMPDEST SWAP2 POP POP SWAP3 SWAP2 POP POP JUMP JUMPDEST PUSH32 0x4E487B7100000000000000000000000000000000000000000000000000000000 PUSH1 0x0 MSTORE PUSH1 0x11 PUSH1 0x4 MSTORE PUSH1 0x24 PUSH1 0x0 REVERT JUMPDEST PUSH1 0x0 PUSH2 0x5A8 DUP3 PUSH2 0x475 JUMP JUMPDEST SWAP2 POP PUSH2 0x5B3 DUP4 PUSH2 0x475 JUMP JUMPDEST SWAP3 POP DUP2 PUSH32 0xFFFFFFFFFFFFFFFFFFFFFFFFFFFFFFFFFFFFFFFFFFFFFFFFFFFFFFFFFFFFFFFF DIV DUP4 GT DUP3 ISZERO ISZERO AND ISZERO PUSH2 0x5EC JUMPI PUSH2 0x5EB PUSH2 0x56E JUMP JUMPDEST JUMPDEST DUP3 DUP3 MUL SWAP1 POP SWAP3 SWAP2 POP POP JUMP JUMPDEST PUSH32 0x4E487B7100000000000000000000000000000000000000000000000000000000 PUSH1 0x0 MSTORE PUSH1 0x12 PUSH1 0x4 MSTORE PUSH1 0x24 PUSH1 0x0 REVERT JUMPDEST PUSH1 0x0 PUSH2 0x631 DUP3 PUSH2 0x475 JUMP JUMPDEST SWAP2 POP PUSH2 0x63C DUP4 PUSH2 0x475 JUMP JUMPDEST SWAP3 POP DUP3 PUSH2 0x64C JUMPI PUSH2 0x64B PUSH2 0x5F7 JUMP JUMPDEST JUMPDEST DUP3 DUP3 DIV SWAP1 POP SWAP3 SWAP2 POP POP JUMP JUMPDEST PUSH1 0x0 PUSH1 0x60 DUP3 ADD SWAP1 POP PUSH2 0x66C PUSH1 0x0 DUP4 ADD DUP7 PUSH2 0x502 JUMP JUMPDEST PUSH2 0x679 PUSH1 0x20 DUP4 ADD DUP6 PUSH2 0x502 JUMP JUMPDEST PUSH2 0x686 PUSH1 0x40 DUP4 ADD DUP5 PUSH2 0x47F JUMP JUMPDEST SWAP5 SWAP4 POP POP POP POP JUMP JUMPDEST PUSH1 0x0 DUP2 ISZERO ISZERO SWAP1 POP SWAP2 SWAP1 POP JUMP JUMPDEST PUSH2 0x6A3 DUP2 PUSH2 0x68E JUMP JUMPDEST DUP2 EQ PUSH2 0x6AE JUMPI PUSH1 0x0 DUP1 REVERT JUMPDEST POP JUMP JUMPDEST PUSH1 0x0 DUP2 MLOAD SWAP1 POP PUSH2 0x6C0 DUP2 PUSH2 0x69A JUMP JUMPDEST SWAP3 SWAP2 POP POP JUMP JUMPDEST PUSH1 0x0 PUSH1 0x20 DUP3 DUP5 SUB SLT ISZERO PUSH2 0x6DC JUMPI PUSH2 0x6DB PUSH2 0x3E5 JUMP JUMPDEST JUMPDEST PUSH1 0x0 PUSH2 0x6EA DUP5 DUP3 DUP6 ADD PUSH2 0x6B1 JUMP JUMPDEST SWAP2 POP POP SWAP3 SWAP2 POP POP JUMP JUMPDEST PUSH1 0x0 PUSH2 0x6FE DUP3 PUSH2 0x475 JUMP JUMPDEST SWAP2 POP PUSH2 0x709 DUP4 PUSH2 0x475 JUMP JUMPDEST SWAP3 POP DUP3 DUP3 LT ISZERO PUSH2 0x71C JUMPI PUSH2 0x71B PUSH2 0x56E JUMP JUMPDEST JUMPDEST DUP3 DUP3 SUB SWAP1 POP SWAP3 SWAP2 POP POP JUMP JUMPDEST PUSH1 0x0 PUSH2 0x732 DUP3 PUSH2 0x475 JUMP JUMPDEST SWAP2 POP PUSH2 0x73D DUP4 PUSH2 0x475 JUMP JUMPDEST SWAP3 POP DUP3 PUSH32 0xFFFFFFFFFFFFFFFFFFFFFFFFFFFFFFFFFFFFFFFFFFFFFFFFFFFFFFFFFFFFFFFF SUB DUP3 GT ISZERO PUSH2 0x772 JUMPI PUSH2 0x771 PUSH2 0x56E JUMP JUMPDEST JUMPDEST DUP3 DUP3 ADD SWAP1 POP SWAP3 SWAP2 POP POP JUMP INVALID LOG2 PUSH5 0x6970667358 0x22 SLT KECCAK256 0xCB 0xC0 MOD KECCAK256 0xB4 0xF6 JUMPI CODESIZE PUSH32 0xC88D5D95935E24EF0E140B116AEB27DF595167647DF01964736F6C634300080F STOP CALLER "
		},
		"gasEstimates": {
			"creation": {
				"codeDepositCost": "394200",
				"executionCost": "infinite",
				"totalCost": "infinite"
			},
			"external": {
				"balances(address)": "2792",
				"deposit(uint256)": "infinite",
				"withdraw(uint256)": "infinite"
			},
			"internal": {
				"burn(address,uint256)": "infinite",
				"mint(address,uint256)": "infinite"
			}
		},
		"methodIdentifiers": {
			"balances(address)": "27e235e3",
			"deposit(uint256)": "b6b55f25",
			"withdraw(uint256)": "2e1a7d4d"
		}
	},
	"abi": [
		{
			"inputs": [
				{
					"internalType": "address",
					"name": "_token",
					"type": "address"
				}
			],
			"stateMutability": "nonpayable",
			"type": "constructor"
		},
		{
			"inputs": [
				{
					"internalType": "address",
					"name": "",
					"type": "address"
				}
			],
			"name": "balances",
			"outputs": [
				{
					"internalType": "uint256",
					"name": "",
					"type": "uint256"
				}
			],
			"stateMutability": "view",
			"type": "function"
		},
		{
			"inputs": [
				{
					"internalType": "uint256",
					"name": "_amount",
					"type": "uint256"
				}
			],
			"name": "deposit",
			"outputs": [],
			"stateMutability": "nonpayable",
			"type": "function"
		},
		{
			"inputs": [
				{
					"internalType": "uint256",
					"name": "_shares",
					"type": "uint256"
				}
			],
			"name": "withdraw",
			"outputs": [],
			"stateMutability": "nonpayable",
			"type": "function"
		}
	]
}