{
	"artifacts/Encode.sol": {
		"Encode": {
			"abi": [
				{
					"inputs": [
						{
							"internalType": "string",
							"name": "t1",
							"type": "string"
						},
						{
							"internalType": "string",
							"name": "t2",
							"type": "string"
						}
					],
					"name": "hackPacked",
					"outputs": [
						{
							"internalType": "bytes32",
							"name": "",
							"type": "bytes32"
						}
					],
					"stateMutability": "pure",
					"type": "function"
				}
			],
			"devdoc": {
				"kind": "dev",
				"methods": {},
				"version": 1
			},
			"evm": {
				"assembly": "    /* \"artifacts/Encode.sol\":56:223  contract Encode{... */\n  mstore(0x40, 0x80)\n  callvalue\n  dup1\n  iszero\n  tag_1\n  jumpi\n  0x00\n  dup1\n  revert\ntag_1:\n  pop\n  dataSize(sub_0)\n  dup1\n  dataOffset(sub_0)\n  0x00\n  codecopy\n  0x00\n  return\nstop\n\nsub_0: assembly {\n        /* \"artifacts/Encode.sol\":56:223  contract Encode{... */\n      mstore(0x40, 0x80)\n      callvalue\n      dup1\n      iszero\n      tag_1\n      jumpi\n      0x00\n      dup1\n      revert\n    tag_1:\n      pop\n      jumpi(tag_2, lt(calldatasize, 0x04))\n      shr(0xe0, calldataload(0x00))\n      dup1\n      0xdc8dffca\n      eq\n      tag_3\n      jumpi\n    tag_2:\n      0x00\n      dup1\n      revert\n        /* \"artifacts/Encode.sol\":78:221  function hackPacked(string memory t1,string memory t2) external pure returns(bytes32){... */\n    tag_3:\n      tag_4\n      0x04\n      dup1\n      calldatasize\n      sub\n      dup2\n      add\n      swap1\n      tag_5\n      swap2\n      swap1\n      tag_6\n      jump\t// in\n    tag_5:\n      tag_7\n      jump\t// in\n    tag_4:\n      mload(0x40)\n      tag_8\n      swap2\n      swap1\n      tag_9\n      jump\t// in\n    tag_8:\n      mload(0x40)\n      dup1\n      swap2\n      sub\n      swap1\n      return\n    tag_7:\n        /* \"artifacts/Encode.sol\":155:162  bytes32 */\n      0x00\n        /* \"artifacts/Encode.sol\":207:209  t1 */\n      dup3\n        /* \"artifacts/Encode.sol\":210:212  t2 */\n      dup3\n        /* \"artifacts/Encode.sol\":190:213  abi.encodePacked(t1,t2) */\n      add(0x20, mload(0x40))\n      tag_11\n      swap3\n      swap2\n      swap1\n      tag_12\n      jump\t// in\n    tag_11:\n      mload(0x40)\n      0x20\n      dup2\n      dup4\n      sub\n      sub\n      dup2\n      mstore\n      swap1\n      0x40\n      mstore\n        /* \"artifacts/Encode.sol\":180:214  keccak256(abi.encodePacked(t1,t2)) */\n      dup1\n      mload\n      swap1\n      0x20\n      add\n      keccak256\n        /* \"artifacts/Encode.sol\":173:214  return keccak256(abi.encodePacked(t1,t2)) */\n      swap1\n      pop\n        /* \"artifacts/Encode.sol\":78:221  function hackPacked(string memory t1,string memory t2) external pure returns(bytes32){... */\n      swap3\n      swap2\n      pop\n      pop\n      jump\t// out\n        /* \"#utility.yul\":7:419   */\n    tag_14:\n        /* \"#utility.yul\":85:90   */\n      0x00\n        /* \"#utility.yul\":110:176   */\n      tag_16\n        /* \"#utility.yul\":126:175   */\n      tag_17\n        /* \"#utility.yul\":168:174   */\n      dup5\n        /* \"#utility.yul\":126:175   */\n      tag_18\n      jump\t// in\n    tag_17:\n        /* \"#utility.yul\":110:176   */\n      tag_19\n      jump\t// in\n    tag_16:\n        /* \"#utility.yul\":101:176   */\n      swap1\n      pop\n        /* \"#utility.yul\":199:205   */\n      dup3\n        /* \"#utility.yul\":192:197   */\n      dup2\n        /* \"#utility.yul\":185:206   */\n      mstore\n        /* \"#utility.yul\":237:241   */\n      0x20\n        /* \"#utility.yul\":230:235   */\n      dup2\n        /* \"#utility.yul\":226:242   */\n      add\n        /* \"#utility.yul\":275:278   */\n      dup5\n        /* \"#utility.yul\":266:272   */\n      dup5\n        /* \"#utility.yul\":261:264   */\n      dup5\n        /* \"#utility.yul\":257:273   */\n      add\n        /* \"#utility.yul\":254:279   */\n      gt\n        /* \"#utility.yul\":251:363   */\n      iszero\n      tag_20\n      jumpi\n        /* \"#utility.yul\":282:361   */\n      tag_21\n      tag_22\n      jump\t// in\n    tag_21:\n        /* \"#utility.yul\":251:363   */\n    tag_20:\n        /* \"#utility.yul\":372:413   */\n      tag_23\n        /* \"#utility.yul\":406:412   */\n      dup5\n        /* \"#utility.yul\":401:404   */\n      dup3\n        /* \"#utility.yul\":396:399   */\n      dup6\n        /* \"#utility.yul\":372:413   */\n      tag_24\n      jump\t// in\n    tag_23:\n        /* \"#utility.yul\":91:419   */\n      pop\n        /* \"#utility.yul\":7:419   */\n      swap4\n      swap3\n      pop\n      pop\n      pop\n      jump\t// out\n        /* \"#utility.yul\":439:779   */\n    tag_25:\n        /* \"#utility.yul\":495:500   */\n      0x00\n        /* \"#utility.yul\":544:547   */\n      dup3\n        /* \"#utility.yul\":537:541   */\n      0x1f\n        /* \"#utility.yul\":529:535   */\n      dup4\n        /* \"#utility.yul\":525:542   */\n      add\n        /* \"#utility.yul\":521:548   */\n      slt\n        /* \"#utility.yul\":511:633   */\n      tag_27\n      jumpi\n        /* \"#utility.yul\":552:631   */\n      tag_28\n      tag_29\n      jump\t// in\n    tag_28:\n        /* \"#utility.yul\":511:633   */\n    tag_27:\n        /* \"#utility.yul\":669:675   */\n      dup2\n        /* \"#utility.yul\":656:676   */\n      calldataload\n        /* \"#utility.yul\":694:773   */\n      tag_30\n        /* \"#utility.yul\":769:772   */\n      dup5\n        /* \"#utility.yul\":761:767   */\n      dup3\n        /* \"#utility.yul\":754:758   */\n      0x20\n        /* \"#utility.yul\":746:752   */\n      dup7\n        /* \"#utility.yul\":742:759   */\n      add\n        /* \"#utility.yul\":694:773   */\n      tag_14\n      jump\t// in\n    tag_30:\n        /* \"#utility.yul\":685:773   */\n      swap2\n      pop\n        /* \"#utility.yul\":501:779   */\n      pop\n        /* \"#utility.yul\":439:779   */\n      swap3\n      swap2\n      pop\n      pop\n      jump\t// out\n        /* \"#utility.yul\":785:1619   */\n    tag_6:\n        /* \"#utility.yul\":873:879   */\n      0x00\n        /* \"#utility.yul\":881:887   */\n      dup1\n        /* \"#utility.yul\":930:932   */\n      0x40\n        /* \"#utility.yul\":918:927   */\n      dup4\n        /* \"#utility.yul\":909:916   */\n      dup6\n        /* \"#utility.yul\":905:928   */\n      sub\n        /* \"#utility.yul\":901:933   */\n      slt\n        /* \"#utility.yul\":898:1017   */\n      iszero\n      tag_32\n      jumpi\n        /* \"#utility.yul\":936:1015   */\n      tag_33\n      tag_34\n      jump\t// in\n    tag_33:\n        /* \"#utility.yul\":898:1017   */\n    tag_32:\n        /* \"#utility.yul\":1084:1085   */\n      0x00\n        /* \"#utility.yul\":1073:1082   */\n      dup4\n        /* \"#utility.yul\":1069:1086   */\n      add\n        /* \"#utility.yul\":1056:1087   */\n      calldataload\n        /* \"#utility.yul\":1114:1132   */\n      0xffffffffffffffff\n        /* \"#utility.yul\":1106:1112   */\n      dup2\n        /* \"#utility.yul\":1103:1133   */\n      gt\n        /* \"#utility.yul\":1100:1217   */\n      iszero\n      tag_35\n      jumpi\n        /* \"#utility.yul\":1136:1215   */\n      tag_36\n      tag_37\n      jump\t// in\n    tag_36:\n        /* \"#utility.yul\":1100:1217   */\n    tag_35:\n        /* \"#utility.yul\":1241:1304   */\n      tag_38\n        /* \"#utility.yul\":1296:1303   */\n      dup6\n        /* \"#utility.yul\":1287:1293   */\n      dup3\n        /* \"#utility.yul\":1276:1285   */\n      dup7\n        /* \"#utility.yul\":1272:1294   */\n      add\n        /* \"#utility.yul\":1241:1304   */\n      tag_25\n      jump\t// in\n    tag_38:\n        /* \"#utility.yul\":1231:1304   */\n      swap3\n      pop\n        /* \"#utility.yul\":1027:1314   */\n      pop\n        /* \"#utility.yul\":1381:1383   */\n      0x20\n        /* \"#utility.yul\":1370:1379   */\n      dup4\n        /* \"#utility.yul\":1366:1384   */\n      add\n        /* \"#utility.yul\":1353:1385   */\n      calldataload\n        /* \"#utility.yul\":1412:1430   */\n      0xffffffffffffffff\n        /* \"#utility.yul\":1404:1410   */\n      dup2\n        /* \"#utility.yul\":1401:1431   */\n      gt\n        /* \"#utility.yul\":1398:1515   */\n      iszero\n      tag_39\n      jumpi\n        /* \"#utility.yul\":1434:1513   */\n      tag_40\n      tag_37\n      jump\t// in\n    tag_40:\n        /* \"#utility.yul\":1398:1515   */\n    tag_39:\n        /* \"#utility.yul\":1539:1602   */\n      tag_41\n        /* \"#utility.yul\":1594:1601   */\n      dup6\n        /* \"#utility.yul\":1585:1591   */\n      dup3\n        /* \"#utility.yul\":1574:1583   */\n      dup7\n        /* \"#utility.yul\":1570:1592   */\n      add\n        /* \"#utility.yul\":1539:1602   */\n      tag_25\n      jump\t// in\n    tag_41:\n        /* \"#utility.yul\":1529:1602   */\n      swap2\n      pop\n        /* \"#utility.yul\":1324:1612   */\n      pop\n        /* \"#utility.yul\":785:1619   */\n      swap3\n      pop\n      swap3\n      swap1\n      pop\n      jump\t// out\n        /* \"#utility.yul\":1625:1743   */\n    tag_42:\n        /* \"#utility.yul\":1712:1736   */\n      tag_44\n        /* \"#utility.yul\":1730:1735   */\n      dup2\n        /* \"#utility.yul\":1712:1736   */\n      tag_45\n      jump\t// in\n    tag_44:\n        /* \"#utility.yul\":1707:1710   */\n      dup3\n        /* \"#utility.yul\":1700:1737   */\n      mstore\n        /* \"#utility.yul\":1625:1743   */\n      pop\n      pop\n      jump\t// out\n        /* \"#utility.yul\":1749:2126   */\n    tag_46:\n        /* \"#utility.yul\":1855:1858   */\n      0x00\n        /* \"#utility.yul\":1883:1922   */\n      tag_48\n        /* \"#utility.yul\":1916:1921   */\n      dup3\n        /* \"#utility.yul\":1883:1922   */\n      tag_49\n      jump\t// in\n    tag_48:\n        /* \"#utility.yul\":1938:2027   */\n      tag_50\n        /* \"#utility.yul\":2020:2026   */\n      dup2\n        /* \"#utility.yul\":2015:2018   */\n      dup6\n        /* \"#utility.yul\":1938:2027   */\n      tag_51\n      jump\t// in\n    tag_50:\n        /* \"#utility.yul\":1931:2027   */\n      swap4\n      pop\n        /* \"#utility.yul\":2036:2088   */\n      tag_52\n        /* \"#utility.yul\":2081:2087   */\n      dup2\n        /* \"#utility.yul\":2076:2079   */\n      dup6\n        /* \"#utility.yul\":2069:2073   */\n      0x20\n        /* \"#utility.yul\":2062:2067   */\n      dup7\n        /* \"#utility.yul\":2058:2074   */\n      add\n        /* \"#utility.yul\":2036:2088   */\n      tag_53\n      jump\t// in\n    tag_52:\n        /* \"#utility.yul\":2113:2119   */\n      dup1\n        /* \"#utility.yul\":2108:2111   */\n      dup5\n        /* \"#utility.yul\":2104:2120   */\n      add\n        /* \"#utility.yul\":2097:2120   */\n      swap2\n      pop\n        /* \"#utility.yul\":1859:2126   */\n      pop\n        /* \"#utility.yul\":1749:2126   */\n      swap3\n      swap2\n      pop\n      pop\n      jump\t// out\n        /* \"#utility.yul\":2132:2567   */\n    tag_12:\n        /* \"#utility.yul\":2312:2315   */\n      0x00\n        /* \"#utility.yul\":2334:2429   */\n      tag_55\n        /* \"#utility.yul\":2425:2428   */\n      dup3\n        /* \"#utility.yul\":2416:2422   */\n      dup6\n        /* \"#utility.yul\":2334:2429   */\n      tag_46\n      jump\t// in\n    tag_55:\n        /* \"#utility.yul\":2327:2429   */\n      swap2\n      pop\n        /* \"#utility.yul\":2446:2541   */\n      tag_56\n        /* \"#utility.yul\":2537:2540   */\n      dup3\n        /* \"#utility.yul\":2528:2534   */\n      dup5\n        /* \"#utility.yul\":2446:2541   */\n      tag_46\n      jump\t// in\n    tag_56:\n        /* \"#utility.yul\":2439:2541   */\n      swap2\n      pop\n        /* \"#utility.yul\":2558:2561   */\n      dup2\n        /* \"#utility.yul\":2551:2561   */\n      swap1\n      pop\n        /* \"#utility.yul\":2132:2567   */\n      swap4\n      swap3\n      pop\n      pop\n      pop\n      jump\t// out\n        /* \"#utility.yul\":2573:2795   */\n    tag_9:\n        /* \"#utility.yul\":2666:2670   */\n      0x00\n        /* \"#utility.yul\":2704:2706   */\n      0x20\n        /* \"#utility.yul\":2693:2702   */\n      dup3\n        /* \"#utility.yul\":2689:2707   */\n      add\n        /* \"#utility.yul\":2681:2707   */\n      swap1\n      pop\n        /* \"#utility.yul\":2717:2788   */\n      tag_58\n        /* \"#utility.yul\":2785:2786   */\n      0x00\n        /* \"#utility.yul\":2774:2783   */\n      dup4\n        /* \"#utility.yul\":2770:2787   */\n      add\n        /* \"#utility.yul\":2761:2767   */\n      dup5\n        /* \"#utility.yul\":2717:2788   */\n      tag_42\n      jump\t// in\n    tag_58:\n        /* \"#utility.yul\":2573:2795   */\n      swap3\n      swap2\n      pop\n      pop\n      jump\t// out\n        /* \"#utility.yul\":2801:2930   */\n    tag_19:\n        /* \"#utility.yul\":2835:2841   */\n      0x00\n        /* \"#utility.yul\":2862:2882   */\n      tag_60\n      tag_61\n      jump\t// in\n    tag_60:\n        /* \"#utility.yul\":2852:2882   */\n      swap1\n      pop\n        /* \"#utility.yul\":2891:2924   */\n      tag_62\n        /* \"#utility.yul\":2919:2923   */\n      dup3\n        /* \"#utility.yul\":2911:2917   */\n      dup3\n        /* \"#utility.yul\":2891:2924   */\n      tag_63\n      jump\t// in\n    tag_62:\n        /* \"#utility.yul\":2801:2930   */\n      swap2\n      swap1\n      pop\n      jump\t// out\n        /* \"#utility.yul\":2936:3011   */\n    tag_61:\n        /* \"#utility.yul\":2969:2975   */\n      0x00\n        /* \"#utility.yul\":3002:3004   */\n      0x40\n        /* \"#utility.yul\":2996:3005   */\n      mload\n        /* \"#utility.yul\":2986:3005   */\n      swap1\n      pop\n        /* \"#utility.yul\":2936:3011   */\n      swap1\n      jump\t// out\n        /* \"#utility.yul\":3017:3325   */\n    tag_18:\n        /* \"#utility.yul\":3079:3083   */\n      0x00\n        /* \"#utility.yul\":3169:3187   */\n      0xffffffffffffffff\n        /* \"#utility.yul\":3161:3167   */\n      dup3\n        /* \"#utility.yul\":3158:3188   */\n      gt\n        /* \"#utility.yul\":3155:3211   */\n      iszero\n      tag_66\n      jumpi\n        /* \"#utility.yul\":3191:3209   */\n      tag_67\n      tag_68\n      jump\t// in\n    tag_67:\n        /* \"#utility.yul\":3155:3211   */\n    tag_66:\n        /* \"#utility.yul\":3229:3258   */\n      tag_69\n        /* \"#utility.yul\":3251:3257   */\n      dup3\n        /* \"#utility.yul\":3229:3258   */\n      tag_70\n      jump\t// in\n    tag_69:\n        /* \"#utility.yul\":3221:3258   */\n      swap1\n      pop\n        /* \"#utility.yul\":3313:3317   */\n      0x20\n        /* \"#utility.yul\":3307:3311   */\n      dup2\n        /* \"#utility.yul\":3303:3318   */\n      add\n        /* \"#utility.yul\":3295:3318   */\n      swap1\n      pop\n        /* \"#utility.yul\":3017:3325   */\n      swap2\n      swap1\n      pop\n      jump\t// out\n        /* \"#utility.yul\":3331:3430   */\n    tag_49:\n        /* \"#utility.yul\":3383:3389   */\n      0x00\n        /* \"#utility.yul\":3417:3422   */\n      dup2\n        /* \"#utility.yul\":3411:3423   */\n      mload\n        /* \"#utility.yul\":3401:3423   */\n      swap1\n      pop\n        /* \"#utility.yul\":3331:3430   */\n      swap2\n      swap1\n      pop\n      jump\t// out\n        /* \"#utility.yul\":3436:3584   */\n    tag_51:\n        /* \"#utility.yul\":3538:3549   */\n      0x00\n        /* \"#utility.yul\":3575:3578   */\n      dup2\n        /* \"#utility.yul\":3560:3578   */\n      swap1\n      pop\n        /* \"#utility.yul\":3436:3584   */\n      swap3\n      swap2\n      pop\n      pop\n      jump\t// out\n        /* \"#utility.yul\":3590:3667   */\n    tag_45:\n        /* \"#utility.yul\":3627:3634   */\n      0x00\n        /* \"#utility.yul\":3656:3661   */\n      dup2\n        /* \"#utility.yul\":3645:3661   */\n      swap1\n      pop\n        /* \"#utility.yul\":3590:3667   */\n      swap2\n      swap1\n      pop\n      jump\t// out\n        /* \"#utility.yul\":3673:3827   */\n    tag_24:\n        /* \"#utility.yul\":3757:3763   */\n      dup3\n        /* \"#utility.yul\":3752:3755   */\n      dup2\n        /* \"#utility.yul\":3747:3750   */\n      dup4\n        /* \"#utility.yul\":3734:3764   */\n      calldatacopy\n        /* \"#utility.yul\":3819:3820   */\n      0x00\n        /* \"#utility.yul\":3810:3816   */\n      dup4\n        /* \"#utility.yul\":3805:3808   */\n      dup4\n        /* \"#utility.yul\":3801:3817   */\n      add\n        /* \"#utility.yul\":3794:3821   */\n      mstore\n        /* \"#utility.yul\":3673:3827   */\n      pop\n      pop\n      pop\n      jump\t// out\n        /* \"#utility.yul\":3833:4140   */\n    tag_53:\n        /* \"#utility.yul\":3901:3902   */\n      0x00\n        /* \"#utility.yul\":3911:4024   */\n    tag_76:\n        /* \"#utility.yul\":3925:3931   */\n      dup4\n        /* \"#utility.yul\":3922:3923   */\n      dup2\n        /* \"#utility.yul\":3919:3932   */\n      lt\n        /* \"#utility.yul\":3911:4024   */\n      iszero\n      tag_78\n      jumpi\n        /* \"#utility.yul\":4010:4011   */\n      dup1\n        /* \"#utility.yul\":4005:4008   */\n      dup3\n        /* \"#utility.yul\":4001:4012   */\n      add\n        /* \"#utility.yul\":3995:4013   */\n      mload\n        /* \"#utility.yul\":3991:3992   */\n      dup2\n        /* \"#utility.yul\":3986:3989   */\n      dup5\n        /* \"#utility.yul\":3982:3993   */\n      add\n        /* \"#utility.yul\":3975:4014   */\n      mstore\n        /* \"#utility.yul\":3947:3949   */\n      0x20\n        /* \"#utility.yul\":3944:3945   */\n      dup2\n        /* \"#utility.yul\":3940:3950   */\n      add\n        /* \"#utility.yul\":3935:3950   */\n      swap1\n      pop\n        /* \"#utility.yul\":3911:4024   */\n      jump(tag_76)\n    tag_78:\n        /* \"#utility.yul\":4042:4048   */\n      dup4\n        /* \"#utility.yul\":4039:4040   */\n      dup2\n        /* \"#utility.yul\":4036:4049   */\n      gt\n        /* \"#utility.yul\":4033:4134   */\n      iszero\n      tag_79\n      jumpi\n        /* \"#utility.yul\":4122:4123   */\n      0x00\n        /* \"#utility.yul\":4113:4119   */\n      dup5\n        /* \"#utility.yul\":4108:4111   */\n      dup5\n        /* \"#utility.yul\":4104:4120   */\n      add\n        /* \"#utility.yul\":4097:4124   */\n      mstore\n        /* \"#utility.yul\":4033:4134   */\n    tag_79:\n        /* \"#utility.yul\":3882:4140   */\n      pop\n        /* \"#utility.yul\":3833:4140   */\n      pop\n      pop\n      pop\n      jump\t// out\n        /* \"#utility.yul\":4146:4427   */\n    tag_63:\n        /* \"#utility.yul\":4229:4256   */\n      tag_81\n        /* \"#utility.yul\":4251:4255   */\n      dup3\n        /* \"#utility.yul\":4229:4256   */\n      tag_70\n      jump\t// in\n    tag_81:\n        /* \"#utility.yul\":4221:4227   */\n      dup2\n        /* \"#utility.yul\":4217:4257   */\n      add\n        /* \"#utility.yul\":4359:4365   */\n      dup2\n        /* \"#utility.yul\":4347:4357   */\n      dup2\n        /* \"#utility.yul\":4344:4366   */\n      lt\n        /* \"#utility.yul\":4323:4341   */\n      0xffffffffffffffff\n        /* \"#utility.yul\":4311:4321   */\n      dup3\n        /* \"#utility.yul\":4308:4342   */\n      gt\n        /* \"#utility.yul\":4305:4367   */\n      or\n        /* \"#utility.yul\":4302:4390   */\n      iszero\n      tag_82\n      jumpi\n        /* \"#utility.yul\":4370:4388   */\n      tag_83\n      tag_68\n      jump\t// in\n    tag_83:\n        /* \"#utility.yul\":4302:4390   */\n    tag_82:\n        /* \"#utility.yul\":4410:4420   */\n      dup1\n        /* \"#utility.yul\":4406:4408   */\n      0x40\n        /* \"#utility.yul\":4399:4421   */\n      mstore\n        /* \"#utility.yul\":4189:4427   */\n      pop\n        /* \"#utility.yul\":4146:4427   */\n      pop\n      pop\n      jump\t// out\n        /* \"#utility.yul\":4433:4613   */\n    tag_68:\n        /* \"#utility.yul\":4481:4558   */\n      0x4e487b7100000000000000000000000000000000000000000000000000000000\n        /* \"#utility.yul\":4478:4479   */\n      0x00\n        /* \"#utility.yul\":4471:4559   */\n      mstore\n        /* \"#utility.yul\":4578:4582   */\n      0x41\n        /* \"#utility.yul\":4575:4576   */\n      0x04\n        /* \"#utility.yul\":4568:4583   */\n      mstore\n        /* \"#utility.yul\":4602:4606   */\n      0x24\n        /* \"#utility.yul\":4599:4600   */\n      0x00\n        /* \"#utility.yul\":4592:4607   */\n      revert\n        /* \"#utility.yul\":4619:4736   */\n    tag_29:\n        /* \"#utility.yul\":4728:4729   */\n      0x00\n        /* \"#utility.yul\":4725:4726   */\n      dup1\n        /* \"#utility.yul\":4718:4730   */\n      revert\n        /* \"#utility.yul\":4742:4859   */\n    tag_22:\n        /* \"#utility.yul\":4851:4852   */\n      0x00\n        /* \"#utility.yul\":4848:4849   */\n      dup1\n        /* \"#utility.yul\":4841:4853   */\n      revert\n        /* \"#utility.yul\":4865:4982   */\n    tag_37:\n        /* \"#utility.yul\":4974:4975   */\n      0x00\n        /* \"#utility.yul\":4971:4972   */\n      dup1\n        /* \"#utility.yul\":4964:4976   */\n      revert\n        /* \"#utility.yul\":4988:5105   */\n    tag_34:\n        /* \"#utility.yul\":5097:5098   */\n      0x00\n        /* \"#utility.yul\":5094:5095   */\n      dup1\n        /* \"#utility.yul\":5087:5099   */\n      revert\n        /* \"#utility.yul\":5111:5213   */\n    tag_70:\n        /* \"#utility.yul\":5152:5158   */\n      0x00\n        /* \"#utility.yul\":5203:5205   */\n      0x1f\n        /* \"#utility.yul\":5199:5206   */\n      not\n        /* \"#utility.yul\":5194:5196   */\n      0x1f\n        /* \"#utility.yul\":5187:5192   */\n      dup4\n        /* \"#utility.yul\":5183:5197   */\n      add\n        /* \"#utility.yul\":5179:5207   */\n      and\n        /* \"#utility.yul\":5169:5207   */\n      swap1\n      pop\n        /* \"#utility.yul\":5111:5213   */\n      swap2\n      swap1\n      pop\n      jump\t// out\n\n    auxdata: 0xa2646970667358221220f792567b55bdd8c8d2e339d4e7f17964106c6b0ce711b93c72f9b5f1bb448c4b64736f6c63430008070033\n}\n",
				"bytecode": {
					"linkReferences": {},
					"object": "608060405234801561001057600080fd5b5061036d806100206000396000f3fe608060405234801561001057600080fd5b506004361061002b5760003560e01c8063dc8dffca14610030575b600080fd5b61004a60048036038101906100459190610103565b610060565b60405161005791906101df565b60405180910390f35b600082826040516020016100759291906101bb565b60405160208183030381529060405280519060200120905092915050565b60006100a66100a18461021f565b6101fa565b9050828152602081018484840111156100c2576100c1610317565b5b6100cd848285610270565b509392505050565b600082601f8301126100ea576100e9610312565b5b81356100fa848260208601610093565b91505092915050565b6000806040838503121561011a57610119610321565b5b600083013567ffffffffffffffff8111156101385761013761031c565b5b610144858286016100d5565b925050602083013567ffffffffffffffff8111156101655761016461031c565b5b610171858286016100d5565b9150509250929050565b61018481610266565b82525050565b600061019582610250565b61019f818561025b565b93506101af81856020860161027f565b80840191505092915050565b60006101c7828561018a565b91506101d3828461018a565b91508190509392505050565b60006020820190506101f4600083018461017b565b92915050565b6000610204610215565b905061021082826102b2565b919050565b6000604051905090565b600067ffffffffffffffff82111561023a576102396102e3565b5b61024382610326565b9050602081019050919050565b600081519050919050565b600081905092915050565b6000819050919050565b82818337600083830152505050565b60005b8381101561029d578082015181840152602081019050610282565b838111156102ac576000848401525b50505050565b6102bb82610326565b810181811067ffffffffffffffff821117156102da576102d96102e3565b5b80604052505050565b7f4e487b7100000000000000000000000000000000000000000000000000000000600052604160045260246000fd5b600080fd5b600080fd5b600080fd5b600080fd5b6000601f19601f830116905091905056fea2646970667358221220f792567b55bdd8c8d2e339d4e7f17964106c6b0ce711b93c72f9b5f1bb448c4b64736f6c63430008070033",
					"opcodes": "PUSH1 0x80 PUSH1 0x40 MSTORE CALLVALUE DUP1 ISZERO PUSH2 0x10 JUMPI PUSH1 0x0 DUP1 REVERT JUMPDEST POP PUSH2 0x36D DUP1 PUSH2 0x20 PUSH1 0x0 CODECOPY PUSH1 0x0 RETURN INVALID PUSH1 0x80 PUSH1 0x40 MSTORE CALLVALUE DUP1 ISZERO PUSH2 0x10 JUMPI PUSH1 0x0 DUP1 REVERT JUMPDEST POP PUSH1 0x4 CALLDATASIZE LT PUSH2 0x2B JUMPI PUSH1 0x0 CALLDATALOAD PUSH1 0xE0 SHR DUP1 PUSH4 0xDC8DFFCA EQ PUSH2 0x30 JUMPI JUMPDEST PUSH1 0x0 DUP1 REVERT JUMPDEST PUSH2 0x4A PUSH1 0x4 DUP1 CALLDATASIZE SUB DUP2 ADD SWAP1 PUSH2 0x45 SWAP2 SWAP1 PUSH2 0x103 JUMP JUMPDEST PUSH2 0x60 JUMP JUMPDEST PUSH1 0x40 MLOAD PUSH2 0x57 SWAP2 SWAP1 PUSH2 0x1DF JUMP JUMPDEST PUSH1 0x40 MLOAD DUP1 SWAP2 SUB SWAP1 RETURN JUMPDEST PUSH1 0x0 DUP3 DUP3 PUSH1 0x40 MLOAD PUSH1 0x20 ADD PUSH2 0x75 SWAP3 SWAP2 SWAP1 PUSH2 0x1BB JUMP JUMPDEST PUSH1 0x40 MLOAD PUSH1 0x20 DUP2 DUP4 SUB SUB DUP2 MSTORE SWAP1 PUSH1 0x40 MSTORE DUP1 MLOAD SWAP1 PUSH1 0x20 ADD KECCAK256 SWAP1 POP SWAP3 SWAP2 POP POP JUMP JUMPDEST PUSH1 0x0 PUSH2 0xA6 PUSH2 0xA1 DUP5 PUSH2 0x21F JUMP JUMPDEST PUSH2 0x1FA JUMP JUMPDEST SWAP1 POP DUP3 DUP2 MSTORE PUSH1 0x20 DUP2 ADD DUP5 DUP5 DUP5 ADD GT ISZERO PUSH2 0xC2 JUMPI PUSH2 0xC1 PUSH2 0x317 JUMP JUMPDEST JUMPDEST PUSH2 0xCD DUP5 DUP3 DUP6 PUSH2 0x270 JUMP JUMPDEST POP SWAP4 SWAP3 POP POP POP JUMP JUMPDEST PUSH1 0x0 DUP3 PUSH1 0x1F DUP4 ADD SLT PUSH2 0xEA JUMPI PUSH2 0xE9 PUSH2 0x312 JUMP JUMPDEST JUMPDEST DUP2 CALLDATALOAD PUSH2 0xFA DUP5 DUP3 PUSH1 0x20 DUP7 ADD PUSH2 0x93 JUMP JUMPDEST SWAP2 POP POP SWAP3 SWAP2 POP POP JUMP JUMPDEST PUSH1 0x0 DUP1 PUSH1 0x40 DUP4 DUP6 SUB SLT ISZERO PUSH2 0x11A JUMPI PUSH2 0x119 PUSH2 0x321 JUMP JUMPDEST JUMPDEST PUSH1 0x0 DUP4 ADD CALLDATALOAD PUSH8 0xFFFFFFFFFFFFFFFF DUP2 GT ISZERO PUSH2 0x138 JUMPI PUSH2 0x137 PUSH2 0x31C JUMP JUMPDEST JUMPDEST PUSH2 0x144 DUP6 DUP3 DUP7 ADD PUSH2 0xD5 JUMP JUMPDEST SWAP3 POP POP PUSH1 0x20 DUP4 ADD CALLDATALOAD PUSH8 0xFFFFFFFFFFFFFFFF DUP2 GT ISZERO PUSH2 0x165 JUMPI PUSH2 0x164 PUSH2 0x31C JUMP JUMPDEST JUMPDEST PUSH2 0x171 DUP6 DUP3 DUP7 ADD PUSH2 0xD5 JUMP JUMPDEST SWAP2 POP POP SWAP3 POP SWAP3 SWAP1 POP JUMP JUMPDEST PUSH2 0x184 DUP2 PUSH2 0x266 JUMP JUMPDEST DUP3 MSTORE POP POP JUMP JUMPDEST PUSH1 0x0 PUSH2 0x195 DUP3 PUSH2 0x250 JUMP JUMPDEST PUSH2 0x19F DUP2 DUP6 PUSH2 0x25B JUMP JUMPDEST SWAP4 POP PUSH2 0x1AF DUP2 DUP6 PUSH1 0x20 DUP7 ADD PUSH2 0x27F JUMP JUMPDEST DUP1 DUP5 ADD SWAP2 POP POP SWAP3 SWAP2 POP POP JUMP JUMPDEST PUSH1 0x0 PUSH2 0x1C7 DUP3 DUP6 PUSH2 0x18A JUMP JUMPDEST SWAP2 POP PUSH2 0x1D3 DUP3 DUP5 PUSH2 0x18A JUMP JUMPDEST SWAP2 POP DUP2 SWAP1 POP SWAP4 SWAP3 POP POP POP JUMP JUMPDEST PUSH1 0x0 PUSH1 0x20 DUP3 ADD SWAP1 POP PUSH2 0x1F4 PUSH1 0x0 DUP4 ADD DUP5 PUSH2 0x17B JUMP JUMPDEST SWAP3 SWAP2 POP POP JUMP JUMPDEST PUSH1 0x0 PUSH2 0x204 PUSH2 0x215 JUMP JUMPDEST SWAP1 POP PUSH2 0x210 DUP3 DUP3 PUSH2 0x2B2 JUMP JUMPDEST SWAP2 SWAP1 POP JUMP JUMPDEST PUSH1 0x0 PUSH1 0x40 MLOAD SWAP1 POP SWAP1 JUMP JUMPDEST PUSH1 0x0 PUSH8 0xFFFFFFFFFFFFFFFF DUP3 GT ISZERO PUSH2 0x23A JUMPI PUSH2 0x239 PUSH2 0x2E3 JUMP JUMPDEST JUMPDEST PUSH2 0x243 DUP3 PUSH2 0x326 JUMP JUMPDEST SWAP1 POP PUSH1 0x20 DUP2 ADD SWAP1 POP SWAP2 SWAP1 POP JUMP JUMPDEST PUSH1 0x0 DUP2 MLOAD SWAP1 POP SWAP2 SWAP1 POP JUMP JUMPDEST PUSH1 0x0 DUP2 SWAP1 POP SWAP3 SWAP2 POP POP JUMP JUMPDEST PUSH1 0x0 DUP2 SWAP1 POP SWAP2 SWAP1 POP JUMP JUMPDEST DUP3 DUP2 DUP4 CALLDATACOPY PUSH1 0x0 DUP4 DUP4 ADD MSTORE POP POP POP JUMP JUMPDEST PUSH1 0x0 JUMPDEST DUP4 DUP2 LT ISZERO PUSH2 0x29D JUMPI DUP1 DUP3 ADD MLOAD DUP2 DUP5 ADD MSTORE PUSH1 0x20 DUP2 ADD SWAP1 POP PUSH2 0x282 JUMP JUMPDEST DUP4 DUP2 GT ISZERO PUSH2 0x2AC JUMPI PUSH1 0x0 DUP5 DUP5 ADD MSTORE JUMPDEST POP POP POP POP JUMP JUMPDEST PUSH2 0x2BB DUP3 PUSH2 0x326 JUMP JUMPDEST DUP2 ADD DUP2 DUP2 LT PUSH8 0xFFFFFFFFFFFFFFFF DUP3 GT OR ISZERO PUSH2 0x2DA JUMPI PUSH2 0x2D9 PUSH2 0x2E3 JUMP JUMPDEST JUMPDEST DUP1 PUSH1 0x40 MSTORE POP POP POP JUMP JUMPDEST PUSH32 0x4E487B7100000000000000000000000000000000000000000000000000000000 PUSH1 0x0 MSTORE PUSH1 0x41 PUSH1 0x4 MSTORE PUSH1 0x24 PUSH1 0x0 REVERT JUMPDEST PUSH1 0x0 DUP1 REVERT JUMPDEST PUSH1 0x0 DUP1 REVERT JUMPDEST PUSH1 0x0 DUP1 REVERT JUMPDEST PUSH1 0x0 DUP1 REVERT JUMPDEST PUSH1 0x0 PUSH1 0x1F NOT PUSH1 0x1F DUP4 ADD AND SWAP1 POP SWAP2 SWAP1 POP JUMP INVALID LOG2 PUSH5 0x6970667358 0x22 SLT KECCAK256 0xF7 SWAP3 JUMP PUSH28 0x55BDD8C8D2E339D4E7F17964106C6B0CE711B93C72F9B5F1BB448C4B PUSH5 0x736F6C6343 STOP ADDMOD SMOD STOP CALLER "
				},
				"gasEstimates": {
					"creation": {
						"codeDepositCost": "175400",
						"executionCost": "220",
						"totalCost": "175620"
					},
					"external": {
						"hackPacked(string,string)": "infinite"
					}
				},
				"methodIdentifiers": {
					"hackPacked(string,string)": "dc8dffca"
				}
			},
			"storageLayout": {
				"storage": [],
				"types": null
			},
			"userdoc": {
				"kind": "user",
				"methods": {},
				"version": 1
			}
		}
	}
}